{
  "contractName": "CSToken",
  "abi": [
    {
      "inputs": [],
      "stateMutability": "nonpayable",
      "type": "constructor"
    },
    {
      "inputs": [
        {
          "internalType": "address",
          "name": "spender",
          "type": "address"
        },
        {
          "internalType": "uint256",
          "name": "allowance",
          "type": "uint256"
        },
        {
          "internalType": "uint256",
          "name": "needed",
          "type": "uint256"
        }
      ],
      "name": "ERC20InsufficientAllowance",
      "type": "error"
    },
    {
      "inputs": [
        {
          "internalType": "address",
          "name": "sender",
          "type": "address"
        },
        {
          "internalType": "uint256",
          "name": "balance",
          "type": "uint256"
        },
        {
          "internalType": "uint256",
          "name": "needed",
          "type": "uint256"
        }
      ],
      "name": "ERC20InsufficientBalance",
      "type": "error"
    },
    {
      "inputs": [
        {
          "internalType": "address",
          "name": "approver",
          "type": "address"
        }
      ],
      "name": "ERC20InvalidApprover",
      "type": "error"
    },
    {
      "inputs": [
        {
          "internalType": "address",
          "name": "receiver",
          "type": "address"
        }
      ],
      "name": "ERC20InvalidReceiver",
      "type": "error"
    },
    {
      "inputs": [
        {
          "internalType": "address",
          "name": "sender",
          "type": "address"
        }
      ],
      "name": "ERC20InvalidSender",
      "type": "error"
    },
    {
      "inputs": [
        {
          "internalType": "address",
          "name": "spender",
          "type": "address"
        }
      ],
      "name": "ERC20InvalidSpender",
      "type": "error"
    },
    {
      "anonymous": false,
      "inputs": [
        {
          "indexed": true,
          "internalType": "address",
          "name": "owner",
          "type": "address"
        },
        {
          "indexed": true,
          "internalType": "address",
          "name": "spender",
          "type": "address"
        },
        {
          "indexed": false,
          "internalType": "uint256",
          "name": "value",
          "type": "uint256"
        }
      ],
      "name": "Approval",
      "type": "event"
    },
    {
      "anonymous": false,
      "inputs": [
        {
          "indexed": true,
          "internalType": "address",
          "name": "to",
          "type": "address"
        },
        {
          "indexed": false,
          "internalType": "uint256",
          "name": "amount",
          "type": "uint256"
        },
        {
          "indexed": false,
          "internalType": "uint256",
          "name": "collateral",
          "type": "uint256"
        }
      ],
      "name": "Mint",
      "type": "event"
    },
    {
      "anonymous": false,
      "inputs": [
        {
          "indexed": true,
          "internalType": "address",
          "name": "account",
          "type": "address"
        },
        {
          "indexed": false,
          "internalType": "uint256",
          "name": "excessAmt",
          "type": "uint256"
        }
      ],
      "name": "ReturnExcess",
      "type": "event"
    },
    {
      "anonymous": false,
      "inputs": [
        {
          "indexed": true,
          "internalType": "address",
          "name": "from",
          "type": "address"
        },
        {
          "indexed": true,
          "internalType": "address",
          "name": "to",
          "type": "address"
        },
        {
          "indexed": false,
          "internalType": "uint256",
          "name": "value",
          "type": "uint256"
        }
      ],
      "name": "Transfer",
      "type": "event"
    },
    {
      "anonymous": false,
      "inputs": [
        {
          "indexed": true,
          "internalType": "address",
          "name": "account",
          "type": "address"
        },
        {
          "indexed": false,
          "internalType": "uint256",
          "name": "amtTokens",
          "type": "uint256"
        },
        {
          "indexed": false,
          "internalType": "uint256",
          "name": "collateral",
          "type": "uint256"
        },
        {
          "indexed": false,
          "internalType": "uint256",
          "name": "conversionRate",
          "type": "uint256"
        }
      ],
      "name": "UserTokenInfo",
      "type": "event"
    },
    {
      "inputs": [
        {
          "internalType": "address",
          "name": "owner",
          "type": "address"
        },
        {
          "internalType": "address",
          "name": "spender",
          "type": "address"
        }
      ],
      "name": "allowance",
      "outputs": [
        {
          "internalType": "uint256",
          "name": "",
          "type": "uint256"
        }
      ],
      "stateMutability": "view",
      "type": "function"
    },
    {
      "inputs": [
        {
          "internalType": "address",
          "name": "spender",
          "type": "address"
        },
        {
          "internalType": "uint256",
          "name": "value",
          "type": "uint256"
        }
      ],
      "name": "approve",
      "outputs": [
        {
          "internalType": "bool",
          "name": "",
          "type": "bool"
        }
      ],
      "stateMutability": "nonpayable",
      "type": "function"
    },
    {
      "inputs": [
        {
          "internalType": "address",
          "name": "account",
          "type": "address"
        }
      ],
      "name": "balanceOf",
      "outputs": [
        {
          "internalType": "uint256",
          "name": "",
          "type": "uint256"
        }
      ],
      "stateMutability": "view",
      "type": "function"
    },
    {
      "inputs": [
        {
          "internalType": "address",
          "name": "account",
          "type": "address"
        },
        {
          "internalType": "uint256",
          "name": "value",
          "type": "uint256"
        }
      ],
      "name": "burnFrom",
      "outputs": [],
      "stateMutability": "nonpayable",
      "type": "function"
    },
    {
      "inputs": [
        {
          "internalType": "address",
          "name": "",
          "type": "address"
        }
      ],
      "name": "collateral",
      "outputs": [
        {
          "internalType": "uint256",
          "name": "",
          "type": "uint256"
        }
      ],
      "stateMutability": "view",
      "type": "function"
    },
    {
      "inputs": [],
      "name": "decimals",
      "outputs": [
        {
          "internalType": "uint8",
          "name": "",
          "type": "uint8"
        }
      ],
      "stateMutability": "view",
      "type": "function"
    },
    {
      "inputs": [],
      "name": "name",
      "outputs": [
        {
          "internalType": "string",
          "name": "",
          "type": "string"
        }
      ],
      "stateMutability": "view",
      "type": "function"
    },
    {
      "inputs": [],
      "name": "symbol",
      "outputs": [
        {
          "internalType": "string",
          "name": "",
          "type": "string"
        }
      ],
      "stateMutability": "view",
      "type": "function"
    },
    {
      "inputs": [],
      "name": "totalSupply",
      "outputs": [
        {
          "internalType": "uint256",
          "name": "",
          "type": "uint256"
        }
      ],
      "stateMutability": "view",
      "type": "function"
    },
    {
      "inputs": [
        {
          "internalType": "address",
          "name": "to",
          "type": "address"
        },
        {
          "internalType": "uint256",
          "name": "value",
          "type": "uint256"
        }
      ],
      "name": "transfer",
      "outputs": [
        {
          "internalType": "bool",
          "name": "",
          "type": "bool"
        }
      ],
      "stateMutability": "nonpayable",
      "type": "function"
    },
    {
      "inputs": [
        {
          "internalType": "address",
          "name": "from",
          "type": "address"
        },
        {
          "internalType": "address",
          "name": "to",
          "type": "address"
        },
        {
          "internalType": "uint256",
          "name": "value",
          "type": "uint256"
        }
      ],
      "name": "transferFrom",
      "outputs": [
        {
          "internalType": "bool",
          "name": "",
          "type": "bool"
        }
      ],
      "stateMutability": "nonpayable",
      "type": "function"
    },
    {
      "inputs": [
        {
          "internalType": "address",
          "name": "",
          "type": "address"
        }
      ],
      "name": "userConversionRate",
      "outputs": [
        {
          "internalType": "uint256",
          "name": "",
          "type": "uint256"
        }
      ],
      "stateMutability": "view",
      "type": "function"
    },
    {
      "inputs": [
        {
          "internalType": "uint256",
          "name": "amount",
          "type": "uint256"
        },
        {
          "internalType": "uint256",
          "name": "conversionRate",
          "type": "uint256"
        }
      ],
      "name": "mint",
      "outputs": [],
      "stateMutability": "payable",
      "type": "function"
    },
    {
      "inputs": [
        {
          "internalType": "uint256",
          "name": "amount",
          "type": "uint256"
        }
      ],
      "name": "topUpMyTokens",
      "outputs": [],
      "stateMutability": "payable",
      "type": "function"
    },
    {
      "inputs": [],
      "name": "getMyTokenInformation",
      "outputs": [],
      "stateMutability": "nonpayable",
      "type": "function"
    },
    {
      "inputs": [],
      "name": "viewMyTokenInformation",
      "outputs": [
        {
          "internalType": "uint256",
          "name": "userRemainingCollateral",
          "type": "uint256"
        },
        {
          "internalType": "uint256",
          "name": "userStoredConversionRate",
          "type": "uint256"
        },
        {
          "internalType": "uint256",
          "name": "userCurrentTokensRemaining",
          "type": "uint256"
        }
      ],
      "stateMutability": "view",
      "type": "function"
    },
    {
      "inputs": [
        {
          "internalType": "address",
          "name": "lister",
          "type": "address"
        }
      ],
      "name": "getUserCollateral",
      "outputs": [
        {
          "internalType": "uint256",
          "name": "",
          "type": "uint256"
        }
      ],
      "stateMutability": "view",
      "type": "function"
    },
    {
      "inputs": [
        {
          "internalType": "address",
          "name": "lister",
          "type": "address"
        }
      ],
      "name": "getUserConversionRate",
      "outputs": [
        {
          "internalType": "uint256",
          "name": "",
          "type": "uint256"
        }
      ],
      "stateMutability": "view",
      "type": "function"
    },
    {
      "inputs": [
        {
          "internalType": "uint256",
          "name": "value",
          "type": "uint256"
        }
      ],
      "name": "burn",
      "outputs": [],
      "stateMutability": "nonpayable",
      "type": "function"
    },
    {
      "inputs": [
        {
          "internalType": "address",
          "name": "from",
          "type": "address"
        },
        {
          "internalType": "uint256",
          "name": "amount",
          "type": "uint256"
        }
      ],
      "name": "burn",
      "outputs": [],
      "stateMutability": "nonpayable",
      "type": "function"
    },
    {
      "inputs": [
        {
          "internalType": "address",
          "name": "from",
          "type": "address"
        },
        {
          "internalType": "address",
          "name": "to",
          "type": "address"
        },
        {
          "internalType": "uint256",
          "name": "amount",
          "type": "uint256"
        }
      ],
      "name": "transferCollateral",
      "outputs": [],
      "stateMutability": "nonpayable",
      "type": "function"
    }
  ],
  "bytecode": "0x60806040523480156200001157600080fd5b506040518060400160405280600e81526020016d21b430b4b729bab932aa37b5b2b760911b8152506040518060400160405280600381526020016210d4d560ea1b815250816003908162000066919062000123565b50600462000075828262000123565b505050620001ef565b634e487b7160e01b600052604160045260246000fd5b600181811c90821680620000a957607f821691505b602082108103620000ca57634e487b7160e01b600052602260045260246000fd5b50919050565b601f8211156200011e57600081815260208120601f850160051c81016020861015620000f95750805b601f850160051c820191505b818110156200011a5782815560010162000105565b5050505b505050565b81516001600160401b038111156200013f576200013f6200007e565b620001578162000150845462000094565b84620000d0565b602080601f8311600181146200018f5760008415620001765750858301515b600019600386901b1c1916600185901b1785556200011a565b600085815260208120601f198616915b82811015620001c0578886015182559484019460019091019084016200019f565b5085821015620001df5787850151600019600388901b60f8161c191681555b5050505050600190811b01905550565b61132280620001ff6000396000f3fe60806040526004361061012a5760003560e01c806342966c68116100ab5780639dc29fac1161006f5780639dc29fac14610340578063a5fdc5de14610360578063a9059cbb1461038d578063b6f7132f146103ad578063cd60f59f146103e3578063dd62ed3e1461040357600080fd5b806342966c681461027f5780634763fbd21461029f57806370a08231146102d557806379cc67901461030b57806395d89b411461032b57600080fd5b80631f86956c116100f25780631f86956c146101ee57806323b872dd1461021b57806325f5a4a21461023b5780632d968e1a14610250578063313ce5671461026357600080fd5b806306fdde031461012f578063095ea7b31461015a57806315a190011461018a57806318160ddd146101ba5780631b2ef1ca146101d9575b600080fd5b34801561013b57600080fd5b50610144610449565b604051610151919061101b565b60405180910390f35b34801561016657600080fd5b5061017a61017536600461106a565b6104db565b6040519015158152602001610151565b34801561019657600080fd5b5061019f6104f5565b60408051938452602084019290925290820152606001610151565b3480156101c657600080fd5b506002545b604051908152602001610151565b6101ec6101e7366004611094565b610559565b005b3480156101fa57600080fd5b506101cb6102093660046110b6565b60076020526000908152604090205481565b34801561022757600080fd5b5061017a6102363660046110d8565b610737565b34801561024757600080fd5b506101ec61075b565b6101ec61025e366004611114565b6107fc565b34801561026f57600080fd5b5060405160128152602001610151565b34801561028b57600080fd5b506101ec61029a366004611114565b610946565b3480156102ab57600080fd5b506101cb6102ba3660046110b6565b6001600160a01b031660009081526007602052604090205490565b3480156102e157600080fd5b506101cb6102f03660046110b6565b6001600160a01b031660009081526020819052604090205490565b34801561031757600080fd5b506101ec61032636600461106a565b610953565b34801561033757600080fd5b5061014461096c565b34801561034c57600080fd5b506101ec61035b36600461106a565b61097b565b34801561036c57600080fd5b506101cb61037b3660046110b6565b60066020526000908152604090205481565b34801561039957600080fd5b5061017a6103a836600461106a565b610a5e565b3480156103b957600080fd5b506101cb6103c83660046110b6565b6001600160a01b031660009081526006602052604090205490565b3480156103ef57600080fd5b506101ec6103fe3660046110d8565b610a6c565b34801561040f57600080fd5b506101cb61041e36600461112d565b6001600160a01b03918216600090815260016020908152604080832093909416825291909152205490565b60606003805461045890611160565b80601f016020809104026020016040519081016040528092919081815260200182805461048490611160565b80156104d15780601f106104a6576101008083540402835291602001916104d1565b820191906000526020600020905b8154815290600101906020018083116104b457829003601f168201915b5050505050905090565b6000336104e9818585610b3d565b60019150505b92915050565b336000908152600660205260408120548190819061052e5760405162461bcd60e51b81526004016105259061119a565b60405180910390fd5b5050336000908152600660209081526040808320546007835281842054928490529220549193909250565b33600090815260066020526040902054156105dc5760405162461bcd60e51b815260206004820152603960248201527f596f75206d757374206e6f742068617665206d696e74656420746f6b656e732060448201527f746f207175657279207468697320696e666f726d6174696f6e000000000000006064820152608401610525565b60006105e88284611205565b9050803410156105f782610b4a565b61060034610b4a565b60405160200161061192919061121c565b6040516020818303038152906040529061063e5760405162461bcd60e51b8152600401610525919061101b565b50600061064b82346112b0565b905080156106b757604051339082156108fc029083906000818181858888f19350505050158015610680573d6000803e3d6000fd5b5060405181815233907f5b04a20647d5e66c17cb0451b11e553be5e09f9552d25b9f27d9b0c615c0b3d79060200160405180910390a25b6106c13385610bdd565b33600090815260066020526040812080548492906106e09084906112c3565b90915550503360008181526007602090815260409182902086905581518781529081018590527f4c209b5fc8ad50758f13e2e1088ba56a560dff690a1c6fef26394f4c03821c4f910160405180910390a250505050565b600033610745858285610c13565b610750858585610c8b565b506001949350505050565b336000908152600660205260409020546107875760405162461bcd60e51b81526004016105259061119a565b33600090815260066020908152604080832054600555600782528083205491839052822054909190600554604080518381526020810192909252810184905290915033907f07aebacde2d071f5be831eebafe50c943e4fed4053c317af2f8e2a0cd9aa05439060600160405180910390a25050565b336000908152600660205260409020546108285760405162461bcd60e51b81526004016105259061119a565b33600090815260076020526040812054906108438284611205565b90508034101561085282610b4a565b61085b34610b4a565b60405160200161086c92919061121c565b604051602081830303815290604052906108995760405162461bcd60e51b8152600401610525919061101b565b5060006108a682346112b0565b9050801561091257604051339082156108fc029083906000818181858888f193505050501580156108db573d6000803e3d6000fd5b5060405181815233907f5b04a20647d5e66c17cb0451b11e553be5e09f9552d25b9f27d9b0c615c0b3d79060200160405180910390a25b61091c3385610bdd565b336000908152600660205260408120805484929061093b9084906112c3565b909155505050505050565b6109503382610cea565b50565b61095e823383610c13565b6109688282610cea565b5050565b60606004805461045890611160565b6001600160a01b0382166109db5760405162461bcd60e51b815260206004820152602160248201527f45524332303a206275726e2066726f6d20746865207a65726f206164647265736044820152607360f81b6064820152608401610525565b6001600160a01b03821660009081526020819052604090205481811015610a4f5760405162461bcd60e51b815260206004820152602260248201527f45524332303a206275726e20616d6f756e7420657863656564732062616c616e604482015261636560f01b6064820152608401610525565b610a598383610cea565b505050565b6000336104e9818585610c8b565b6001600160a01b038316600090815260066020526040902054811115610ad45760405162461bcd60e51b815260206004820181905260248201527f496e73756666696369656e7420636f6c6c61746572616c2062616c616e63652e6044820152606401610525565b6001600160a01b03831660009081526006602052604081208054839290610afc9084906112b0565b90915550506040516001600160a01b0383169082156108fc029083906000818181858888f19350505050158015610b37573d6000803e3d6000fd5b50505050565b610a598383836001610d20565b60606000610b5783610df5565b600101905060008167ffffffffffffffff811115610b7757610b776112d6565b6040519080825280601f01601f191660200182016040528015610ba1576020820181803683370190505b5090508181016020015b600019016f181899199a1a9b1b9c1cb0b131b232b360811b600a86061a8153600a8504945084610bab57509392505050565b6001600160a01b038216610c075760405163ec442f0560e01b815260006004820152602401610525565b61096860008383610ecd565b6001600160a01b038381166000908152600160209081526040808320938616835292905220546000198114610b375781811015610c7c57604051637dc7a0d960e11b81526001600160a01b03841660048201526024810182905260448101839052606401610525565b610b3784848484036000610d20565b6001600160a01b038316610cb557604051634b637e8f60e11b815260006004820152602401610525565b6001600160a01b038216610cdf5760405163ec442f0560e01b815260006004820152602401610525565b610a59838383610ecd565b6001600160a01b038216610d1457604051634b637e8f60e11b815260006004820152602401610525565b61096882600083610ecd565b6001600160a01b038416610d4a5760405163e602df0560e01b815260006004820152602401610525565b6001600160a01b038316610d7457604051634a1406b160e11b815260006004820152602401610525565b6001600160a01b0380851660009081526001602090815260408083209387168352929052208290558015610b3757826001600160a01b0316846001600160a01b03167f8c5be1e5ebec7d5bd14f71427d1e84f3dd0314c0f7b2291e5b200ac8c7c3b92584604051610de791815260200190565b60405180910390a350505050565b60008072184f03e93ff9f4daa797ed6e38ed64bf6a1f0160401b8310610e345772184f03e93ff9f4daa797ed6e38ed64bf6a1f0160401b830492506040015b6d04ee2d6d415b85acef81000000008310610e60576d04ee2d6d415b85acef8100000000830492506020015b662386f26fc100008310610e7e57662386f26fc10000830492506010015b6305f5e1008310610e96576305f5e100830492506008015b6127108310610eaa57612710830492506004015b60648310610ebc576064830492506002015b600a83106104ef5760010192915050565b6001600160a01b038316610ef8578060026000828254610eed91906112c3565b90915550610f6a9050565b6001600160a01b03831660009081526020819052604090205481811015610f4b5760405163391434e360e21b81526001600160a01b03851660048201526024810182905260448101839052606401610525565b6001600160a01b03841660009081526020819052604090209082900390555b6001600160a01b038216610f8657600280548290039055610fa5565b6001600160a01b03821660009081526020819052604090208054820190555b816001600160a01b0316836001600160a01b03167fddf252ad1be2c89b69c2b068fc378daa952ba7f163c4a11628f55a4df523b3ef83604051610fea91815260200190565b60405180910390a3505050565b60005b83811015611012578181015183820152602001610ffa565b50506000910152565b602081526000825180602084015261103a816040850160208701610ff7565b601f01601f19169190910160400192915050565b80356001600160a01b038116811461106557600080fd5b919050565b6000806040838503121561107d57600080fd5b6110868361104e565b946020939093013593505050565b600080604083850312156110a757600080fd5b50508035926020909101359150565b6000602082840312156110c857600080fd5b6110d18261104e565b9392505050565b6000806000606084860312156110ed57600080fd5b6110f68461104e565b92506111046020850161104e565b9150604084013590509250925092565b60006020828403121561112657600080fd5b5035919050565b6000806040838503121561114057600080fd5b6111498361104e565b91506111576020840161104e565b90509250929050565b600181811c9082168061117457607f821691505b60208210810361119457634e487b7160e01b600052602260045260246000fd5b50919050565b60208082526035908201527f596f75206d7573742068617665206d696e74656420746f6b656e7320746f20716040820152743ab2b93c903a3434b99034b73337b936b0ba34b7b760591b606082015260800190565b634e487b7160e01b600052601160045260246000fd5b80820281158282048414176104ef576104ef6111ef565b7f496e73756666696369656e7420636f6c6c61746572616c3a2052657175697265815261032160f51b60208201526000835161125f816022850160208801610ff7565b720103bb2b49610313aba10383937bb34b232b21606d1b6022918401918201528351611292816035840160208801610ff7565b64103bb2b49760d91b60359290910191820152603a01949350505050565b818103818111156104ef576104ef6111ef565b808201808211156104ef576104ef6111ef565b634e487b7160e01b600052604160045260246000fdfea26469706673582212202908c62a5adc7a88bccf3437398e309a3bdb19e995c76f40e38c29cb18c2d0f264736f6c63430008140033",
  "immutableReferences": {},
  "source": "// SPDX-License-Identifier: MIT\npragma solidity 0.8.20;\n\nimport \"./.deps/npm/@openzeppelin/contracts/token/ERC20/ERC20.sol\";\nimport \"./.deps/npm/@openzeppelin/contracts/token/ERC20/extensions/ERC20Burnable.sol\";\nimport \"./.deps/npm/@openzeppelin/contracts/utils/Strings.sol\"; // for error specification\n\ncontract CSToken is ERC20, ERC20Burnable {\n    uint256 private remainingCollateral;\n\n    mapping(address => uint256) public collateral; // Tracks ether collateral per user\n    mapping(address => uint256) public userConversionRate; // Tracks conversion rate per user\n\n    // Define a Mint event\n    event Mint(address indexed to, uint256 amount, uint256 collateral);\n    event UserTokenInfo(\n        address indexed account,\n        uint256 amtTokens,\n        uint256 collateral,\n        uint256 conversionRate\n    );\n    event ReturnExcess(address indexed account, uint256 excessAmt);\n\n    constructor() ERC20(\"ChainSureToken\", \"CST\") {}\n\n    modifier mustBeTokenOwner() {\n        require(\n            collateral[msg.sender] > 0,\n            \"You must have minted tokens to query this information\"\n        );\n        _;\n    }\n\n    modifier mustNotBeTokenOwner() {\n        require(\n            collateral[msg.sender] == 0,\n            \"You must not have minted tokens to query this information\"\n        );\n        _;\n    }\n\n    // amount = amount of CS tokens to mint & conversionRate = how much insurance lister willing to stake in wei for the that amount of CS tokens\n    function mint(\n        uint256 amount,\n        uint256 conversionRate\n    ) public payable mustNotBeTokenOwner {\n        uint256 requiredCollateral = amount * conversionRate; // stick with default wei value\n\n        require(\n            msg.value >= requiredCollateral,\n            string(\n                abi.encodePacked(\n                    \"Insufficient collateral: Required \",\n                    Strings.toString(requiredCollateral),\n                    \" wei, but provided \",\n                    Strings.toString(msg.value),\n                    \" wei.\"\n                )\n            )\n        );\n\n        uint256 excessAmount = msg.value - requiredCollateral;\n        // Transfer the excess amount back to the sender\n        if (excessAmount > 0) {\n            payable(msg.sender).transfer(excessAmount); // Send the excess amount back to msg.sender\n            emit ReturnExcess(msg.sender, excessAmount);\n        }\n\n        _mint(msg.sender, amount); // Mint tokens to whoever created the CI token\n        collateral[msg.sender] += requiredCollateral;\n        userConversionRate[msg.sender] = conversionRate; // Store the user's conversion rate\n\n        emit Mint(msg.sender, amount, requiredCollateral); // Announce that you have minted how many tokens and collateral involved\n    }\n\n    // For a policy lister to top up existing CS tokens, they must stick with same conversion rate previously defined\n    function topUpMyTokens(uint256 amount) public payable mustBeTokenOwner {\n        uint256 storedConversionRate = userConversionRate[msg.sender];\n        uint256 requiredCollateral = amount * storedConversionRate;\n        require(\n            msg.value >= requiredCollateral,\n            string(\n                abi.encodePacked(\n                    \"Insufficient collateral: Required \",\n                    Strings.toString(requiredCollateral),\n                    \" wei, but provided \",\n                    Strings.toString(msg.value),\n                    \" wei.\"\n                )\n            )\n        );\n\n        uint256 excessAmount = msg.value - requiredCollateral;\n        // Transfer the excess amount back to the sender\n        if (excessAmount > 0) {\n            payable(msg.sender).transfer(excessAmount); // Send the excess amount back to msg.sender\n            emit ReturnExcess(msg.sender, excessAmount);\n        }\n\n        _mint(msg.sender, amount); // Adds more tokens to user's existing token supply since they topped up\n        collateral[msg.sender] += requiredCollateral; // Record the top up in collateral too\n    }\n\n    // For policy lister to get their token and collateral information once they have minted some CS tokens\n    function getMyTokenInformation() public mustBeTokenOwner {\n        remainingCollateral = collateral[msg.sender];\n        uint256 storedConversionRate = userConversionRate[msg.sender];\n        uint256 currentTokensRemaining = balanceOf(msg.sender);\n        emit UserTokenInfo(\n            msg.sender,\n            currentTokensRemaining,\n            remainingCollateral,\n            storedConversionRate\n        );\n    }\n\n    function viewMyTokenInformation()\n        public\n        view\n        mustBeTokenOwner\n        returns (\n            uint256 userRemainingCollateral,\n            uint256 userStoredConversionRate,\n            uint256 userCurrentTokensRemaining\n        )\n    {\n        userRemainingCollateral = collateral[msg.sender];\n        userStoredConversionRate = userConversionRate[msg.sender];\n        userCurrentTokensRemaining = balanceOf(msg.sender);\n\n        return (\n            userRemainingCollateral,\n            userStoredConversionRate,\n            userCurrentTokensRemaining\n        );\n    }\n\n    // For use by insurance company contract\n    function getUserCollateral(address lister) external view returns (uint256) {\n        return collateral[lister];\n    }\n\n    // For use by marketplace contract\n    function getUserConversionRate(\n        address lister\n    ) external view returns (uint256) {\n        return userConversionRate[lister];\n    }\n\n    // Allow marketplace to burn on behalf of buyer once they claim\n    function burn(address from, uint256 amount) public {\n        require(from != address(0), \"ERC20: burn from the zero address\");\n        uint256 accountBalance = balanceOf(from);\n        require(accountBalance >= amount, \"ERC20: burn amount exceeds balance\");\n\n        // Burn the tokens from the specified address\n        _burn(from, amount);\n    }\n\n    // Allow marketplace to transfer collateral from policy creator to policy buyer when policy buyer makes a claim\n    function transferCollateral(\n        address from,\n        address to,\n        uint256 amount\n    ) external {\n        require(collateral[from] >= amount, \"Insufficient collateral balance.\");\n        collateral[from] -= amount;\n        payable(to).transfer(amount);\n    }\n}\n",
  "sourcePath": "/Users/pojaroy/IS4302DecentralizedInsuranceMarketplace/backend/contracts/CSToken.sol",
  "compiler": {
    "name": "solc",
    "version": "0.8.20+commit.a1b79de6.Emscripten.clang"
  },
  "schemaVersion": "3.4.16",
  "updatedAt": "2024-11-22T07:29:57.999Z",
  "devdoc": {
    "errors": {
      "ERC20InsufficientAllowance(address,uint256,uint256)": [
        {
          "details": "Indicates a failure with the `spender`s `allowance`. Used in transfers.",
          "params": {
            "allowance": "Amount of tokens a `spender` is allowed to operate with.",
            "needed": "Minimum amount required to perform a transfer.",
            "spender": "Address that may be allowed to operate on tokens without being their owner."
          }
        }
      ],
      "ERC20InsufficientBalance(address,uint256,uint256)": [
        {
          "details": "Indicates an error related to the current `balance` of a `sender`. Used in transfers.",
          "params": {
            "balance": "Current balance for the interacting account.",
            "needed": "Minimum amount required to perform a transfer.",
            "sender": "Address whose tokens are being transferred."
          }
        }
      ],
      "ERC20InvalidApprover(address)": [
        {
          "details": "Indicates a failure with the `approver` of a token to be approved. Used in approvals.",
          "params": {
            "approver": "Address initiating an approval operation."
          }
        }
      ],
      "ERC20InvalidReceiver(address)": [
        {
          "details": "Indicates a failure with the token `receiver`. Used in transfers.",
          "params": {
            "receiver": "Address to which tokens are being transferred."
          }
        }
      ],
      "ERC20InvalidSender(address)": [
        {
          "details": "Indicates a failure with the token `sender`. Used in transfers.",
          "params": {
            "sender": "Address whose tokens are being transferred."
          }
        }
      ],
      "ERC20InvalidSpender(address)": [
        {
          "details": "Indicates a failure with the `spender` to be approved. Used in approvals.",
          "params": {
            "spender": "Address that may be allowed to operate on tokens without being their owner."
          }
        }
      ]
    },
    "events": {
      "Approval(address,address,uint256)": {
        "details": "Emitted when the allowance of a `spender` for an `owner` is set by a call to {approve}. `value` is the new allowance."
      },
      "Transfer(address,address,uint256)": {
        "details": "Emitted when `value` tokens are moved from one account (`from`) to another (`to`). Note that `value` may be zero."
      }
    },
    "kind": "dev",
    "methods": {
      "allowance(address,address)": {
        "details": "See {IERC20-allowance}."
      },
      "approve(address,uint256)": {
        "details": "See {IERC20-approve}. NOTE: If `value` is the maximum `uint256`, the allowance is not updated on `transferFrom`. This is semantically equivalent to an infinite approval. Requirements: - `spender` cannot be the zero address."
      },
      "balanceOf(address)": {
        "details": "See {IERC20-balanceOf}."
      },
      "burn(uint256)": {
        "details": "Destroys a `value` amount of tokens from the caller. See {ERC20-_burn}."
      },
      "burnFrom(address,uint256)": {
        "details": "Destroys a `value` amount of tokens from `account`, deducting from the caller's allowance. See {ERC20-_burn} and {ERC20-allowance}. Requirements: - the caller must have allowance for ``accounts``'s tokens of at least `value`."
      },
      "decimals()": {
        "details": "Returns the number of decimals used to get its user representation. For example, if `decimals` equals `2`, a balance of `505` tokens should be displayed to a user as `5.05` (`505 / 10 ** 2`). Tokens usually opt for a value of 18, imitating the relationship between Ether and Wei. This is the default value returned by this function, unless it's overridden. NOTE: This information is only used for _display_ purposes: it in no way affects any of the arithmetic of the contract, including {IERC20-balanceOf} and {IERC20-transfer}."
      },
      "name()": {
        "details": "Returns the name of the token."
      },
      "symbol()": {
        "details": "Returns the symbol of the token, usually a shorter version of the name."
      },
      "totalSupply()": {
        "details": "See {IERC20-totalSupply}."
      },
      "transfer(address,uint256)": {
        "details": "See {IERC20-transfer}. Requirements: - `to` cannot be the zero address. - the caller must have a balance of at least `value`."
      },
      "transferFrom(address,address,uint256)": {
        "details": "See {IERC20-transferFrom}. Skips emitting an {Approval} event indicating an allowance update. This is not required by the ERC. See {xref-ERC20-_approve-address-address-uint256-bool-}[_approve]. NOTE: Does not update the allowance if the current allowance is the maximum `uint256`. Requirements: - `from` and `to` cannot be the zero address. - `from` must have a balance of at least `value`. - the caller must have allowance for ``from``'s tokens of at least `value`."
      }
    },
    "version": 1
  },
  "userdoc": {
    "kind": "user",
    "methods": {},
    "version": 1
  }
}