{
  "contractName": "InsuranceCompany",
  "abi": [
    {
      "inputs": [
        {
          "internalType": "contract CSToken",
          "name": "_token",
          "type": "address"
        }
      ],
      "stateMutability": "nonpayable",
      "type": "constructor"
    },
    {
      "anonymous": false,
      "inputs": [
        {
          "indexed": true,
          "internalType": "address",
          "name": "user",
          "type": "address"
        },
        {
          "indexed": false,
          "internalType": "uint256",
          "name": "collateral",
          "type": "uint256"
        },
        {
          "indexed": false,
          "internalType": "uint256",
          "name": "netClaimValue",
          "type": "uint256"
        }
      ],
      "name": "CheckSufficientCollateral",
      "type": "event"
    },
    {
      "anonymous": false,
      "inputs": [
        {
          "indexed": false,
          "internalType": "uint256",
          "name": "policyId",
          "type": "uint256"
        },
        {
          "indexed": false,
          "internalType": "string",
          "name": "policyName",
          "type": "string"
        },
        {
          "indexed": false,
          "internalType": "address",
          "name": "creator",
          "type": "address"
        }
      ],
      "name": "PolicyCreated",
      "type": "event"
    },
    {
      "anonymous": false,
      "inputs": [
        {
          "indexed": false,
          "internalType": "uint256",
          "name": "policyId",
          "type": "uint256"
        },
        {
          "indexed": false,
          "internalType": "string",
          "name": "policyName",
          "type": "string"
        },
        {
          "indexed": false,
          "internalType": "string",
          "name": "policyType",
          "type": "string"
        },
        {
          "indexed": false,
          "internalType": "uint256",
          "name": "claimBackRate",
          "type": "uint256"
        },
        {
          "indexed": false,
          "internalType": "uint256",
          "name": "maxPoolValue",
          "type": "uint256"
        },
        {
          "indexed": false,
          "internalType": "uint256",
          "name": "currPoolValue",
          "type": "uint256"
        },
        {
          "indexed": false,
          "internalType": "uint256",
          "name": "minStake",
          "type": "uint256"
        },
        {
          "indexed": false,
          "internalType": "uint256",
          "name": "coveragePeriod",
          "type": "uint256"
        },
        {
          "indexed": false,
          "internalType": "address",
          "name": "creator",
          "type": "address"
        },
        {
          "indexed": false,
          "internalType": "bool",
          "name": "listed",
          "type": "bool"
        }
      ],
      "name": "PolicyDetails",
      "type": "event"
    },
    {
      "anonymous": false,
      "inputs": [
        {
          "indexed": false,
          "internalType": "uint256",
          "name": "policyId",
          "type": "uint256"
        },
        {
          "indexed": false,
          "internalType": "string",
          "name": "listed",
          "type": "string"
        }
      ],
      "name": "PolicyListed",
      "type": "event"
    },
    {
      "anonymous": false,
      "inputs": [
        {
          "indexed": false,
          "internalType": "uint256",
          "name": "policyId",
          "type": "uint256"
        },
        {
          "indexed": false,
          "internalType": "string",
          "name": "delisted",
          "type": "string"
        }
      ],
      "name": "PolicydeListed",
      "type": "event"
    },
    {
      "inputs": [
        {
          "internalType": "address",
          "name": "",
          "type": "address"
        },
        {
          "internalType": "uint256",
          "name": "",
          "type": "uint256"
        }
      ],
      "name": "listerPolicies",
      "outputs": [
        {
          "internalType": "uint256",
          "name": "",
          "type": "uint256"
        }
      ],
      "stateMutability": "view",
      "type": "function"
    },
    {
      "inputs": [],
      "name": "policyCount",
      "outputs": [
        {
          "internalType": "uint256",
          "name": "",
          "type": "uint256"
        }
      ],
      "stateMutability": "view",
      "type": "function"
    },
    {
      "inputs": [],
      "name": "token",
      "outputs": [
        {
          "internalType": "contract CSToken",
          "name": "",
          "type": "address"
        }
      ],
      "stateMutability": "view",
      "type": "function"
    },
    {
      "inputs": [
        {
          "components": [
            {
              "internalType": "uint256",
              "name": "policyId",
              "type": "uint256"
            },
            {
              "internalType": "string",
              "name": "policyName",
              "type": "string"
            },
            {
              "internalType": "string",
              "name": "policyType",
              "type": "string"
            },
            {
              "internalType": "uint256",
              "name": "claimBackRate",
              "type": "uint256"
            },
            {
              "internalType": "uint256",
              "name": "maxPoolValue",
              "type": "uint256"
            },
            {
              "internalType": "uint256",
              "name": "currPoolValue",
              "type": "uint256"
            },
            {
              "internalType": "uint256",
              "name": "minStake",
              "type": "uint256"
            },
            {
              "internalType": "uint256",
              "name": "coveragePeriod",
              "type": "uint256"
            },
            {
              "internalType": "address",
              "name": "creator",
              "type": "address"
            },
            {
              "internalType": "bool",
              "name": "listed",
              "type": "bool"
            }
          ],
          "internalType": "struct InsuranceCompany.Policy",
          "name": "p",
          "type": "tuple"
        }
      ],
      "name": "calculateNetClaimValue",
      "outputs": [
        {
          "internalType": "uint256",
          "name": "",
          "type": "uint256"
        }
      ],
      "stateMutability": "pure",
      "type": "function"
    },
    {
      "inputs": [],
      "name": "calculateAllNetClaimValue",
      "outputs": [
        {
          "internalType": "uint256",
          "name": "",
          "type": "uint256"
        }
      ],
      "stateMutability": "view",
      "type": "function"
    },
    {
      "inputs": [
        {
          "internalType": "string",
          "name": "_policyName",
          "type": "string"
        },
        {
          "internalType": "string",
          "name": "_policyType",
          "type": "string"
        },
        {
          "internalType": "uint256",
          "name": "_claimBackRate",
          "type": "uint256"
        },
        {
          "internalType": "uint256",
          "name": "_maxPoolValue",
          "type": "uint256"
        },
        {
          "internalType": "uint256",
          "name": "_minStake",
          "type": "uint256"
        },
        {
          "internalType": "uint256",
          "name": "_coveragePeriod",
          "type": "uint256"
        }
      ],
      "name": "createNewPolicy",
      "outputs": [],
      "stateMutability": "nonpayable",
      "type": "function"
    },
    {
      "inputs": [
        {
          "internalType": "address",
          "name": "_lister",
          "type": "address"
        }
      ],
      "name": "getListerPolicyDetails",
      "outputs": [],
      "stateMutability": "nonpayable",
      "type": "function"
    },
    {
      "inputs": [
        {
          "internalType": "uint256",
          "name": "policyId",
          "type": "uint256"
        }
      ],
      "name": "getPolicy",
      "outputs": [
        {
          "components": [
            {
              "internalType": "uint256",
              "name": "policyId",
              "type": "uint256"
            },
            {
              "internalType": "string",
              "name": "policyName",
              "type": "string"
            },
            {
              "internalType": "string",
              "name": "policyType",
              "type": "string"
            },
            {
              "internalType": "uint256",
              "name": "claimBackRate",
              "type": "uint256"
            },
            {
              "internalType": "uint256",
              "name": "maxPoolValue",
              "type": "uint256"
            },
            {
              "internalType": "uint256",
              "name": "currPoolValue",
              "type": "uint256"
            },
            {
              "internalType": "uint256",
              "name": "minStake",
              "type": "uint256"
            },
            {
              "internalType": "uint256",
              "name": "coveragePeriod",
              "type": "uint256"
            },
            {
              "internalType": "address",
              "name": "creator",
              "type": "address"
            },
            {
              "internalType": "bool",
              "name": "listed",
              "type": "bool"
            }
          ],
          "internalType": "struct InsuranceCompany.Policy",
          "name": "",
          "type": "tuple"
        }
      ],
      "stateMutability": "view",
      "type": "function"
    },
    {
      "inputs": [
        {
          "internalType": "uint256",
          "name": "policyId",
          "type": "uint256"
        },
        {
          "internalType": "uint256",
          "name": "newPoolValue",
          "type": "uint256"
        }
      ],
      "name": "updatePolicyPoolValue",
      "outputs": [],
      "stateMutability": "nonpayable",
      "type": "function"
    },
    {
      "inputs": [
        {
          "internalType": "uint256",
          "name": "policyId",
          "type": "uint256"
        }
      ],
      "name": "_listPolicy",
      "outputs": [],
      "stateMutability": "nonpayable",
      "type": "function"
    },
    {
      "inputs": [
        {
          "internalType": "uint256",
          "name": "policyId",
          "type": "uint256"
        }
      ],
      "name": "_deListPolicy",
      "outputs": [],
      "stateMutability": "nonpayable",
      "type": "function"
    }
  ],
  "bytecode": "0x60806040524260025534801561001457600080fd5b50604051611d38380380611d38833981016040819052610033916100d6565b600080546001600160a01b0319166001600160a01b03929092169190911790556040805165151c985d995b60d21b81526001600682018190528251918290036026018220805460ff1990811683179091556750726f706572747960c01b83526008830182905283519283900360280183208054821683179055634c69666560e01b8352600483018290529251918290036024019091208054909216179055610106565b6000602082840312156100e857600080fd5b81516001600160a01b03811681146100ff57600080fd5b9392505050565b611c23806101156000396000f3fe608060405234801561001057600080fd5b50600436106100a95760003560e01c80635b2a3646116100715780635b2a36461461012f5780639d3db26814610142578063a719a9cb1461014a578063de54d4291461015d578063de8cba8d14610166578063fc0c546a1461017957600080fd5b80630c6ab3fa146100ae57806316807d31146100c357806322191f72146100e95780632b07fce3146100fc578063420deaed1461011c575b600080fd5b6100c16100bc366004611490565b6101a4565b005b6100d66100d13660046114ce565b610201565b6040519081526020015b60405180910390f35b6100c16100f73660046114f8565b610232565b61010f61010a3660046114f8565b61032a565b6040516100e09190611561565b6100c161012a36600461160f565b610588565b6100c161013d3660046114f8565b6108d0565b6100d6610a3e565b6100c16101583660046116fe565b610c42565b6100d660035481565b6100d6610174366004611795565b611295565b60005461018c906001600160a01b031681565b6040516001600160a01b0390911681526020016100e0565b6000828152600460205260409020805483146101fa5760405162461bcd60e51b815260206004820152601060248201526f141bdb1a58de481b9bdd08199bdd5b9960821b60448201526064015b60405180910390fd5b6005015550565b6005602052816000526040600020818154811061021d57600080fd5b90600052602060002001600091509150505481565b60008181526004602052604090206008810154600160a01b900460ff1615156001146102a05760405162461bcd60e51b815260206004820152601a60248201527f506f6c69637920697320616c72656164792064656c697374656400000000000060448201526064016101f1565b6102a9826112b1565b7f6a2d58f48f0bc03d33f9cea945a7ec99d443e5a0537350da563ba1f36db4fa248260405161031e9181526040602082018190526026908201527f506f6c69637920686173206265656e2064656c6973746564207375636365737360608201526566756c6c792160d01b608082015260a00190565b60405180910390a15050565b61038b604051806101400160405280600081526020016060815260200160608152602001600081526020016000815260200160008152602001600081526020016000815260200160006001600160a01b031681526020016000151581525090565b60008211801561039d57506003548211155b6103dd5760405162461bcd60e51b8152602060048201526011602482015270125b9d985b1a59081c1bdb1a58de481251607a1b60448201526064016101f1565b6004600083815260200190815260200160002060405180610140016040529081600082015481526020016001820180546104169061188d565b80601f01602080910402602001604051908101604052809291908181526020018280546104429061188d565b801561048f5780601f106104645761010080835404028352916020019161048f565b820191906000526020600020905b81548152906001019060200180831161047257829003601f168201915b505050505081526020016002820180546104a89061188d565b80601f01602080910402602001604051908101604052809291908181526020018280546104d49061188d565b80156105215780601f106104f657610100808354040283529160200191610521565b820191906000526020600020905b81548152906001019060200180831161050457829003601f168201915b505050918352505060038201546020820152600482015460408201526005820154606082015260068201546080820152600782015460a08201526008909101546001600160a01b03811660c0830152600160a01b900460ff16151560e09091015292915050565b6001600160a01b0381166000908152600560209081526040808320805482518185028101850190935280835291929091908301828280156105e857602002820191906000526020600020905b8154815260200190600101908083116105d4575b50505050509050600081511161064c5760405162461bcd60e51b815260206004820152602360248201527f4c697374657220686173206e6f74206372656174656420616e7920706f6c696360448201526269657360e81b60648201526084016101f1565b60005b81518110156108cb57600082828151811061066c5761066c6118c1565b6020026020010151905060006004600083815260200190815260200160002060405180610140016040529081600082015481526020016001820180546106b19061188d565b80601f01602080910402602001604051908101604052809291908181526020018280546106dd9061188d565b801561072a5780601f106106ff5761010080835404028352916020019161072a565b820191906000526020600020905b81548152906001019060200180831161070d57829003601f168201915b505050505081526020016002820180546107439061188d565b80601f016020809104026020016040519081016040528092919081815260200182805461076f9061188d565b80156107bc5780601f10610791576101008083540402835291602001916107bc565b820191906000526020600020905b81548152906001019060200180831161079f57829003601f168201915b5050505050815260200160038201548152602001600482015481526020016005820154815260200160068201548152602001600782015481526020016008820160009054906101000a90046001600160a01b03166001600160a01b03166001600160a01b031681526020016008820160149054906101000a900460ff16151515158152505090507f8f6f3a26b5daffc95e1f342d18e1af6fa9ffa1f75ced6e001b199d08e1933fcb816000015182602001518360400151846060015185608001518660a001518760c001518860e001518961010001518a61012001516040516108ae9a999897969594939291906118d7565b60405180910390a1505080806108c390611961565b91505061064f565b505050565b60008181526004602081905260409091209081015460068201546005830154849392916108fc9161197a565b111561094a5760405162461bcd60e51b815260206004820152601c60248201527f596f752063616e6e6f74206c697374207468697320706f6c696379210000000060448201526064016101f1565b60008381526004602052604090206008810154600160a01b900460ff16156109b45760405162461bcd60e51b815260206004820152601860248201527f506f6c69637920697320616c7265616479206c6973746564000000000000000060448201526064016101f1565b6109bd846112b1565b7f916898311b7bd03c784627f7278dbce7ce91f3378dc4359b8b1568568a1e7c8484604051610a309181526040602082018190526024908201527f506f6c69637920686173206265656e206c6973746564207375636365737366756060820152636c6c792160e01b608082015260a00190565b60405180910390a150505050565b60008060015b6003548111610c3c57600081815260046020526040902060080154336001600160a01b0390911603610c2a57610c1d600460008381526020019081526020016000206040518061014001604052908160008201548152602001600182018054610aac9061188d565b80601f0160208091040260200160405190810160405280929190818152602001828054610ad89061188d565b8015610b255780601f10610afa57610100808354040283529160200191610b25565b820191906000526020600020905b815481529060010190602001808311610b0857829003601f168201915b50505050508152602001600282018054610b3e9061188d565b80601f0160208091040260200160405190810160405280929190818152602001828054610b6a9061188d565b8015610bb75780601f10610b8c57610100808354040283529160200191610bb7565b820191906000526020600020905b815481529060010190602001808311610b9a57829003601f168201915b505050918352505060038201546020820152600482015460408201526005820154606082015260068201546080820152600782015460a08201526008909101546001600160a01b03811660c0830152600160a01b900460ff16151560e090910152611295565b610c27908361197a565b91505b80610c3481611961565b915050610a44565b50919050565b6000546040516370a0823160e01b8152336004820152849182916001600160a01b03909116906370a0823190602401602060405180830381865afa158015610c8e573d6000803e3d6000fd5b505050506040513d601f19601f82011682018060405250810190610cb2919061198d565b6000546040516370a0823160e01b8152336004820152929091101591610d2b916001600160a01b0316906370a0823190602401602060405180830381865afa158015610d02573d6000803e3d6000fd5b505050506040513d601f19601f82011682018060405250810190610d26919061198d565b611325565b610d3483611325565b604051602001610d459291906119a6565b60405160208183030381529060405290610d725760405162461bcd60e51b81526004016101f19190611a68565b5085600181604051610d849190611a7b565b9081526040519081900360200190205460ff16610dd95760405162461bcd60e51b8152602060048201526013602482015272496e76616c696420706f6c696379207479706560681b60448201526064016101f1565b6000546040516323b1fde960e11b81523360048201819052889290916001600160a01b0390911690634763fbd290602401602060405180830381865afa158015610e27573d6000803e3d6000fd5b505050506040513d601f19601f82011682018060405250810190610e4b919061198d565b8211610ebf5760405162461bcd60e51b815260206004820152603f60248201527f596f757220636c61696d206261636b20726174652073686f756c64206265206860448201527f6967686572207468616e20796f757220636f6e76657273696f6e20726174650060648201526084016101f1565b60038054906000610ecf83611961565b9190505550600060405180610140016040528060035481526020018c81526020018b81526020018a8152602001898152602001600081526020018881526020018762015180610f1e9190611a97565b815233602082015260006040909101819052909150610f3b610a3e565b90506000610f4883611295565b9050610f54818361197a565b6000805460405163b6f7132f60e01b815233600482015292945090916001600160a01b039091169063b6f7132f90602401602060405180830381865afa158015610fa2573d6000803e3d6000fd5b505050506040513d601f19601f82011682018060405250810190610fc6919061198d565b90508281101561108a5760405162461bcd60e51b815260206004820152607760248201527f496e73756666696369656e7420636f6c6c61746572616c3a207265647563652060448201527f746865206d617820706f6f6c2076616c756520666f72207468697320706f6c6960648201527f6379206f7220746f70207570206d6f726520435320746f6b656e7320746f206960848201527f6e63726561736520796f757220636f6c6c61746572616c00000000000000000060a482015260c4016101f1565b60005460405163b6f7132f60e01b81523360048201819052917f04484b36e875b9c97f73d7144393b0b9b54fe28058cb0f612a10b50932e7db5b916001600160a01b039091169063b6f7132f90602401602060405180830381865afa1580156110f7573d6000803e3d6000fd5b505050506040513d601f19601f8201168201806040525081019061111b919061198d565b60408051918252602082018790520160405180910390a26003546000908152600460209081526040909120855181559085015185919060018201906111609082611afc565b50604082015160028201906111759082611afc565b50606082015181600301556080820151816004015560a0820151816005015560c0820151816006015560e082015181600701556101008201518160080160006101000a8154816001600160a01b0302191690836001600160a01b031602179055506101208201518160080160146101000a81548160ff02191690831515021790555090505060056000336001600160a01b03166001600160a01b0316815260200190815260200160002060035490806001815401808255809150506001900390600052602060002001600090919091909150557fe060903a71989416db77650c9585adbae8f4fc8633a778a547d25e3c78789f4c6003548f3360405161127d93929190611bbc565b60405180910390a15050505050505050505050505050565b6000816080015182606001516112ab9190611a97565b92915050565b6000818152600460205260409020805482146113025760405162461bcd60e51b815260206004820152601060248201526f141bdb1a58de481b9bdd08199bdd5b9960821b60448201526064016101f1565b600801805460ff60a01b198116600160a01b9182900460ff161590910217905550565b60606000611332836113b8565b600101905060008167ffffffffffffffff81111561135257611352611631565b6040519080825280601f01601f19166020018201604052801561137c576020820181803683370190505b5090508181016020015b600019016f181899199a1a9b1b9c1cb0b131b232b360811b600a86061a8153600a850494508461138657509392505050565b60008072184f03e93ff9f4daa797ed6e38ed64bf6a1f0160401b83106113f75772184f03e93ff9f4daa797ed6e38ed64bf6a1f0160401b830492506040015b6d04ee2d6d415b85acef81000000008310611423576d04ee2d6d415b85acef8100000000830492506020015b662386f26fc10000831061144157662386f26fc10000830492506010015b6305f5e1008310611459576305f5e100830492506008015b612710831061146d57612710830492506004015b6064831061147f576064830492506002015b600a83106112ab5760010192915050565b600080604083850312156114a357600080fd5b50508035926020909101359150565b80356001600160a01b03811681146114c957600080fd5b919050565b600080604083850312156114e157600080fd5b6114ea836114b2565b946020939093013593505050565b60006020828403121561150a57600080fd5b5035919050565b60005b8381101561152c578181015183820152602001611514565b50506000910152565b6000815180845261154d816020860160208601611511565b601f01601f19169290920160200192915050565b60208152815160208201526000602083015161014080604085015261158a610160850183611535565b91506040850151601f198584030160608601526115a78382611535565b92505060608501516080850152608085015160a085015260a085015160c085015260c085015160e085015260e08501516101008181870152808701519150506101206115fd818701836001600160a01b03169052565b90950151151593019290925250919050565b60006020828403121561162157600080fd5b61162a826114b2565b9392505050565b634e487b7160e01b600052604160045260246000fd5b604051610140810167ffffffffffffffff8111828210171561166b5761166b611631565b60405290565b600082601f83011261168257600080fd5b813567ffffffffffffffff8082111561169d5761169d611631565b604051601f8301601f19908116603f011681019082821181831017156116c5576116c5611631565b816040528381528660208588010111156116de57600080fd5b836020870160208301376000602085830101528094505050505092915050565b60008060008060008060c0878903121561171757600080fd5b863567ffffffffffffffff8082111561172f57600080fd5b61173b8a838b01611671565b9750602089013591508082111561175157600080fd5b5061175e89828a01611671565b96999698505050506040850135946060810135946080820135945060a09091013592509050565b803580151581146114c957600080fd5b6000602082840312156117a757600080fd5b813567ffffffffffffffff808211156117bf57600080fd5b9083019061014082860312156117d457600080fd5b6117dc611647565b823581526020830135828111156117f257600080fd5b6117fe87828601611671565b60208301525060408301358281111561181657600080fd5b61182287828601611671565b604083015250606083013560608201526080830135608082015260a083013560a082015260c083013560c082015260e083013560e0820152610100915061186a8284016114b2565b82820152610120915061187e828401611785565b91810191909152949350505050565b600181811c908216806118a157607f821691505b602082108103610c3c57634e487b7160e01b600052602260045260246000fd5b634e487b7160e01b600052603260045260246000fd5b60006101408c83528060208401526118f18184018d611535565b90508281036040840152611905818c611535565b606084019a909a525050608081019690965260a086019490945260c085019290925260e08401526001600160a01b03166101008301521515610120909101529392505050565b634e487b7160e01b600052601160045260246000fd5b6000600182016119735761197361194b565b5060010190565b808201808211156112ab576112ab61194b565b60006020828403121561199f57600080fd5b5051919050565b7202cb7ba9031bab93932b73a363c903430bb329606d1b8152600083516119d4816013850160208801611511565b7f20746f6b656e732c207768696368206973206e6f7420656e6f75676820746f206013918401918201527f637265617465206120706f6c6963792077697468206d617820706f6f6c2076616033820152660363ab29037b3160cd1b60538201528351611a4781605a840160208801611511565b67103a37b5b2b7399760c11b605a9290910191820152606201949350505050565b60208152600061162a6020830184611535565b60008251611a8d818460208701611511565b9190910192915050565b80820281158282048414176112ab576112ab61194b565b601f8211156108cb57600081815260208120601f850160051c81016020861015611ad55750805b601f850160051c820191505b81811015611af457828155600101611ae1565b505050505050565b815167ffffffffffffffff811115611b1657611b16611631565b611b2a81611b24845461188d565b84611aae565b602080601f831160018114611b5f5760008415611b475750858301515b600019600386901b1c1916600185901b178555611af4565b600085815260208120601f198616915b82811015611b8e57888601518255948401946001909101908401611b6f565b5085821015611bac5787850151600019600388901b60f8161c191681555b5050505050600190811b01905550565b838152606060208201526000611bd56060830185611535565b905060018060a01b038316604083015294935050505056fea2646970667358221220b9afd77642a0ebe3a0a290cf67c21e440f95622a88d5f70221119f24f4d3504b64736f6c63430008140033",
  "immutableReferences": {},
  "source": "// SPDX-License-Identifier: MIT\npragma solidity 0.8.20;\n\nimport \"./.deps/npm/@openzeppelin/contracts/utils/Strings.sol\"; // for error specification\nimport \"./CSToken.sol\";\n\ncontract InsuranceCompany {\n    CSToken public token;\n    mapping(string => bool) private validPolicyTypes;\n    uint256 timestamp = block.timestamp; // current time as timestamp\n\n    constructor(CSToken _token) {\n        token = _token;\n        validPolicyTypes[\"Travel\"] = true;\n        validPolicyTypes[\"Property\"] = true;\n        validPolicyTypes[\"Life\"] = true;\n    }\n\n    // Modifier to ensure that the policy creator has enough tokens to cover the max pool value of the policy, without exceeding their token balance\n    modifier checkEnoughTokenBal(uint256 maxPoolValue) {\n        require(token.balanceOf(msg.sender) >= maxPoolValue, \n                string(\n                abi.encodePacked(\n                    \"You currently have \", \n                    Strings.toString(token.balanceOf(msg.sender)), \n                    \" tokens, which is not enough to create a policy with max pool value of \", \n                    Strings.toString(maxPoolValue), \n                    \" tokens.\"\n                )\n            ));\n        _;\n    }\n\n    // Modifier to check if the policy type is valid based on pre-defined 3 policy types\n    modifier validPolicyType(string memory _policyType) {\n        require(validPolicyTypes[_policyType], \"Invalid policy type\");\n        _;\n    }\n\n    // Modifier to check that the defined claim back rate in a new policy must be > than that of the initial user conversion rate defined\n    modifier higherClaimBackRate(uint256 claimBackRate, address lister) {\n        require(claimBackRate > token.getUserConversionRate(lister), \"Your claim back rate should be higher than your conversion rate\");\n        _;\n    }\n\n    modifier isListable(uint256 policyId) {\n        Policy storage policy = policies[policyId];\n        require (policy.currPoolValue + policy.minStake <= policy.maxPoolValue, \"You cannot list this policy!\");\n        _;\n    }\n\n    struct Policy {\n        uint256 policyId;\n        string policyName;\n        string policyType;\n        uint256 claimBackRate;\n        uint256 maxPoolValue;\n        uint256 currPoolValue;\n        uint256 minStake;\n        uint coveragePeriod;\n        address creator;\n        bool listed;\n    }\n   \n    uint256 public policyCount;\n\n    // Tracks the list of policies according to their policy Ids\n    mapping(uint256 => Policy) policies;\n   \n    // Keeps track of the policy IDs created by each policy creator\n    mapping(address => uint256[]) public listerPolicies;\n\n    // Emit necessary events for policy creation, listing and delisting\n    event PolicyCreated(uint256 policyId, string policyName, address creator);\n    event PolicyListed(uint256 policyId, string listed);\n    event PolicydeListed(uint256 policyId, string delisted);\n\n    // Define an event to log policy details\n    event PolicyDetails(\n        uint256 policyId,\n        string policyName,\n        string policyType,\n        uint256 claimBackRate,\n        uint256 maxPoolValue,\n        uint256 currPoolValue,\n        uint256 minStake,\n        uint coveragePeriod,\n        address creator,\n        bool listed\n    );    \n\n    event CheckSufficientCollateral(\n        address indexed user,\n        uint256 collateral,\n        uint256 netClaimValue\n    );\n\n    function calculateNetClaimValue(Policy memory p)\n        public\n        pure\n        returns (uint256)\n    {\n        return p.claimBackRate * p.maxPoolValue;\n    }\n\n    function calculateAllNetClaimValue() public view returns (uint256) {\n        uint256 sum = 0;\n        for (uint256 i = 1; i <= policyCount; i++) {\n            if (policies[i].creator == msg.sender) {\n                sum += calculateNetClaimValue(policies[i]);\n            }\n        }\n        return sum;\n    }\n\n    // Anyone who has enough tokens > max pool value & not at risk of collateral bankruptcy from claim back rate will be able to create a policy\n    function createNewPolicy(\n        string memory _policyName,\n        string memory _policyType, \n        uint256 _claimBackRate, \n        uint256 _maxPoolValue, // Max. amount of CS tokens allocated to policy by policy creator, which are transferred to the marketplace when the policy is listed.\n        uint256 _minStake, // Min. amount of tokens (premium) that a buyer must pay to get a share of being insured under the policy\n        uint256 _coveragePeriod // Specifies the coverage duration for a policy buyer, starting from the purchase date, in days.\n    ) external checkEnoughTokenBal(_maxPoolValue) validPolicyType(_policyType) higherClaimBackRate(_claimBackRate, msg.sender){\n\n        policyCount++;\n\n        Policy memory createdPolicy = Policy({\n            policyId: policyCount,\n            policyName: _policyName,\n            policyType: _policyType,\n            claimBackRate: _claimBackRate,\n            maxPoolValue: _maxPoolValue, \n            currPoolValue: 0,\n            minStake: _minStake,\n            coveragePeriod: _coveragePeriod * 1 days, // blockchain stores the coverage period in seconds\n            creator: msg.sender, \n            listed: false\n        });\n\n        // Calculate the total net claim value of all existing policies\n        uint256 totalNetClaimValue = calculateAllNetClaimValue();\n        \n        // Calculate the net claim value of the new policy (this will be added to the total claim value)\n        uint256 newPolicyNetClaimValue = calculateNetClaimValue(createdPolicy);\n        \n        // Add the new policy's net claim value to the existing ones\n        totalNetClaimValue += newPolicyNetClaimValue;\n\n        // Get the policy creator's collateral\n        uint256 collateral = token.getUserCollateral(msg.sender);\n\n         // Check if the policy lister's collateral is enough to cover the total net claim value (existing + new policy) \n        require(\n            collateral >= totalNetClaimValue,\n            \"Insufficient collateral: reduce the max pool value for this policy or top up more CS tokens to increase your collateral\"\n        );\n\n        emit CheckSufficientCollateral(msg.sender, token.getUserCollateral(msg.sender), totalNetClaimValue);\n\n\n        // Associate the policyId with the newly created policy in policies mapping\n        policies[policyCount] = createdPolicy;\n        // Track the policy ID under the lister's address\n        listerPolicies[msg.sender].push(policyCount);\n\n        emit PolicyCreated(policyCount, _policyName, msg.sender);\n    }\n\n    // Function to get the details of all policies created by a lister\n    function getListerPolicyDetails(address _lister) public \n    {\n        uint256[] memory policyIds = listerPolicies[_lister];\n        require(policyIds.length > 0, \"Lister has not created any policies\");\n\n        for (uint256 i = 0; i < policyIds.length; i++) {\n            uint256 policyId = policyIds[i];\n            Policy memory policy = policies[policyId];\n\n            // Emit the event with pretty data\n            emit PolicyDetails(\n                policy.policyId,\n                policy.policyName,\n                policy.policyType,\n                policy.claimBackRate,\n                policy.maxPoolValue,\n                policy.currPoolValue,\n                policy.minStake,\n                policy.coveragePeriod,\n                policy.creator,\n                policy.listed\n            );\n        }\n    }\n            \n    // To easily retrieve a policy based on its policy details\n    function getPolicy(uint256 policyId) external view returns (Policy memory) {\n        require(policyId > 0 && policyId <= policyCount, \"Invalid policy ID\");\n        return policies[policyId];\n    }\n\n    // For marketplace to update current pool value of policy when a policy buyer buys a listed policy\n    function updatePolicyPoolValue(uint256 policyId, uint256 newPoolValue) external\n    {\n        Policy storage policy = policies[policyId];\n        require(policy.policyId == policyId, \"Policy not found\");\n\n        policy.currPoolValue = newPoolValue;\n\n        // can emit an event here\n    }\n\n    // Allow policy listing from marketplace\n    function _listPolicy(uint256 policyId) external isListable(policyId) {\n        Policy storage policy = policies[policyId];\n        require(policy.listed == false, \"Policy is already listed\");\n        changePolicyListedStatus(policyId);\n        emit PolicyListed(policyId, \"Policy has been listed successfully!\");\n    }\n\n    // Allow policy deListing from marketplace\n    function _deListPolicy(uint256 policyId) external {\n        Policy storage policy = policies[policyId];\n        require(policy.listed == true, \"Policy is already delisted\");\n        changePolicyListedStatus(policyId);\n        emit PolicydeListed(policyId, \"Policy has been delisted successfully!\");\n    }\n\n    // Change the policy listed status internally \n    function changePolicyListedStatus(uint256 policyId) internal {\n        Policy storage policy = policies[policyId];\n        require(policy.policyId == policyId, \"Policy not found\");\n\n        policy.listed = !policy.listed;\n    }\n}\n",
  "sourcePath": "/Users/pojaroy/IS4302DecentralizedInsuranceMarketplace/backend/contracts/InsuranceCompany.sol",
  "compiler": {
    "name": "solc",
    "version": "0.8.20+commit.a1b79de6.Emscripten.clang"
  },
  "schemaVersion": "3.4.16",
  "updatedAt": "2024-11-22T07:29:58.009Z",
  "devdoc": {
    "kind": "dev",
    "methods": {},
    "version": 1
  },
  "userdoc": {
    "kind": "user",
    "methods": {},
    "version": 1
  }
}