{
  "contractName": "TestsAccounts",
  "abi": [
    {
      "inputs": [
        {
          "internalType": "uint256",
          "name": "index",
          "type": "uint256"
        }
      ],
      "name": "getAccount",
      "outputs": [
        {
          "internalType": "address",
          "name": "",
          "type": "address"
        }
      ],
      "stateMutability": "pure",
      "type": "function"
    }
  ],
  "bytecode": "0x61015e61004e600b8282823980515f1a607314610042577f4e487b71000000000000000000000000000000000000000000000000000000005f525f60045260245ffd5b305f52607381538281f3fe7300000000000000000000000000000000000000003014608060405260043610610034575f3560e01c8063ce88b14514610038575b5f80fd5b610052600480360381019061004d91906100a5565b610068565b60405161005f919061010f565b60405180910390f35b5f919050565b5f80fd5b5f819050919050565b61008481610072565b811461008e575f80fd5b50565b5f8135905061009f8161007b565b92915050565b5f602082840312156100ba576100b961006e565b5b5f6100c784828501610091565b91505092915050565b5f73ffffffffffffffffffffffffffffffffffffffff82169050919050565b5f6100f9826100d0565b9050919050565b610109816100ef565b82525050565b5f6020820190506101225f830184610100565b9291505056fea26469706673582212209e6b5c6ac8a363b500fe4173598ab35744ff6cb8949a297bb4e4528d78cf197b64736f6c63430008140033",
  "immutableReferences": {},
  "source": "// SPDX-License-Identifier: GPL-3.0\n\npragma solidity >=0.4.22 <0.9.0;\n\nlibrary TestsAccounts {\n    function getAccount(uint index) pure public returns (address) {\n        return address(0);\n    }\n}\n",
  "sourcePath": "/Users/pojaroy/IS4302DecentralizedInsuranceMarketplace/backend/contracts/.deps/remix-tests/remix_accounts.sol",
  "compiler": {
    "name": "solc",
    "version": "0.8.20+commit.a1b79de6.Emscripten.clang"
  },
  "schemaVersion": "3.4.16",
  "updatedAt": "2024-11-21T11:11:31.971Z",
  "devdoc": {
    "kind": "dev",
    "methods": {},
    "version": 1
  },
  "userdoc": {
    "kind": "user",
    "methods": {},
    "version": 1
  }
}