{
	"data": {
		"bytecode": {
			"linkReferences": {},
			"object": "6101606040526040518060400160405280601181526020017f436f2d496e737572616e6365546f6b656e000000000000000000000000000000815250806040518060400160405280600181526020017f3100000000000000000000000000000000000000000000000000000000000000815250336040518060400160405280601181526020017f436f2d496e737572616e6365546f6b656e0000000000000000000000000000008152506040518060400160405280600381526020017f43495400000000000000000000000000000000000000000000000000000000008152508160039081620000f091906200068c565b5080600490816200010291906200068c565b5050505f73ffffffffffffffffffffffffffffffffffffffff168173ffffffffffffffffffffffffffffffffffffffff160362000178575f6040517f1e4fbdf70000000000000000000000000000000000000000000000000000000081526004016200016f9190620007b3565b60405180910390fd5b62000189816200024160201b60201c565b50620001a06006836200030460201b90919060201c565b6101208181525050620001be6007826200030460201b90919060201c565b6101408181525050818051906020012060e08181525050808051906020012061010081815250504660a08181525050620001fd6200035960201b60201c565b608081815250503073ffffffffffffffffffffffffffffffffffffffff1660c08173ffffffffffffffffffffffffffffffffffffffff16815250505050506200099e565b5f60055f9054906101000a900473ffffffffffffffffffffffffffffffffffffffff1690508160055f6101000a81548173ffffffffffffffffffffffffffffffffffffffff021916908373ffffffffffffffffffffffffffffffffffffffff1602179055508173ffffffffffffffffffffffffffffffffffffffff168173ffffffffffffffffffffffffffffffffffffffff167f8be0079c531659141344cd1fd0a4f28419497f9722a3daafe3b4186f6b6457e060405160405180910390a35050565b5f60208351101562000329576200032183620003b560201b60201c565b905062000353565b826200033b836200041f60201b60201c565b5f0190816200034b91906200068c565b5060ff5f1b90505b92915050565b5f7f8b73c3c69bb8fe3d512ecc4cf759cc79239f7b179b0ffacaa9a75d522b39400f60e0516101005146306040516020016200039a959493929190620007f9565b60405160208183030381529060405280519060200120905090565b5f80829050601f815111156200040457826040517f305a27a9000000000000000000000000000000000000000000000000000000008152600401620003fb9190620008de565b60405180910390fd5b80518162000412906200092f565b5f1c175f1b915050919050565b5f819050919050565b5f81519050919050565b7f4e487b71000000000000000000000000000000000000000000000000000000005f52604160045260245ffd5b7f4e487b71000000000000000000000000000000000000000000000000000000005f52602260045260245ffd5b5f6002820490506001821680620004a457607f821691505b602082108103620004ba57620004b96200045f565b5b50919050565b5f819050815f5260205f209050919050565b5f6020601f8301049050919050565b5f82821b905092915050565b5f600883026200051e7fffffffffffffffffffffffffffffffffffffffffffffffffffffffffffffffff82620004e1565b6200052a8683620004e1565b95508019841693508086168417925050509392505050565b5f819050919050565b5f819050919050565b5f620005746200056e620005688462000542565b6200054b565b62000542565b9050919050565b5f819050919050565b6200058f8362000554565b620005a76200059e826200057b565b848454620004ed565b825550505050565b5f90565b620005bd620005af565b620005ca81848462000584565b505050565b5b81811015620005f157620005e55f82620005b3565b600181019050620005d0565b5050565b601f82111562000640576200060a81620004c0565b6200061584620004d2565b8101602085101562000625578190505b6200063d6200063485620004d2565b830182620005cf565b50505b505050565b5f82821c905092915050565b5f620006625f198460080262000645565b1980831691505092915050565b5f6200067c838362000651565b9150826002028217905092915050565b620006978262000428565b67ffffffffffffffff811115620006b357620006b262000432565b5b620006bf82546200048c565b620006cc828285620005f5565b5f60209050601f83116001811462000702575f8415620006ed578287015190505b620006f985826200066f565b86555062000768565b601f1984166200071286620004c0565b5f5b828110156200073b5784890151825560018201915060208501945060208101905062000714565b868310156200075b578489015162000757601f89168262000651565b8355505b6001600288020188555050505b505050505050565b5f73ffffffffffffffffffffffffffffffffffffffff82169050919050565b5f6200079b8262000770565b9050919050565b620007ad816200078f565b82525050565b5f602082019050620007c85f830184620007a2565b92915050565b5f819050919050565b620007e281620007ce565b82525050565b620007f38162000542565b82525050565b5f60a0820190506200080e5f830188620007d7565b6200081d6020830187620007d7565b6200082c6040830186620007d7565b6200083b6060830185620007e8565b6200084a6080830184620007a2565b9695505050505050565b5f82825260208201905092915050565b5f5b838110156200088357808201518184015260208101905062000866565b5f8484015250505050565b5f601f19601f8301169050919050565b5f620008aa8262000428565b620008b6818562000854565b9350620008c881856020860162000864565b620008d3816200088e565b840191505092915050565b5f6020820190508181035f830152620008f881846200089e565b905092915050565b5f81519050919050565b5f819050602082019050919050565b5f620009268251620007ce565b80915050919050565b5f6200093b8262000900565b8262000947846200090a565b9050620009548162000919565b925060208210156200099757620009927fffffffffffffffffffffffffffffffffffffffffffffffffffffffffffffffff83602003600802620004e1565b831692505b5050919050565b60805160a05160c05160e0516101005161012051610140516126e6620009f05f395f61131d01525f6112e201525f61181601525f6117f501525f61109e01525f6110f401525f61111d01526126e65ff3fe60806040526004361061013f575f3560e01c8063715018a6116100b5578063a5fdc5de1161006e578063a5fdc5de14610433578063a9059cbb1461046f578063d505accf146104ab578063dd62ed3e146104d3578063f2c51f0d1461050f578063f2fde38b1461052b5761013f565b8063715018a61461033557806379cc67901461034b5780637ecebe001461037357806384b0196e146103af5780638da5cb5b146103df57806395d89b41146104095761013f565b806323b872dd1161010757806323b872dd1461022b57806325f5a4a214610267578063313ce5671461027d5780633644e515146102a757806342966c68146102d157806370a08231146102f95761013f565b806306fdde0314610143578063095ea7b31461016d57806318160ddd146101a95780631b2ef1ca146101d35780631f86956c146101ef575b5f80fd5b34801561014e575f80fd5b50610157610553565b6040516101649190611ce6565b60405180910390f35b348015610178575f80fd5b50610193600480360381019061018e9190611d97565b6105e3565b6040516101a09190611def565b60405180910390f35b3480156101b4575f80fd5b506101bd610605565b6040516101ca9190611e17565b60405180910390f35b6101ed60048036038101906101e89190611e30565b61060e565b005b3480156101fa575f80fd5b5061021560048036038101906102109190611e6e565b61076e565b6040516102229190611e17565b60405180910390f35b348015610236575f80fd5b50610251600480360381019061024c9190611e99565b610783565b60405161025e9190611def565b60405180910390f35b348015610272575f80fd5b5061027b6107b1565b005b348015610288575f80fd5b506102916108ed565b60405161029e9190611f04565b60405180910390f35b3480156102b2575f80fd5b506102bb6108f5565b6040516102c89190611f35565b60405180910390f35b3480156102dc575f80fd5b506102f760048036038101906102f29190611f4e565b610903565b005b348015610304575f80fd5b5061031f600480360381019061031a9190611e6e565b610910565b60405161032c9190611e17565b60405180910390f35b348015610340575f80fd5b50610349610955565b005b348015610356575f80fd5b50610371600480360381019061036c9190611d97565b610968565b005b34801561037e575f80fd5b5061039960048036038101906103949190611e6e565b610988565b6040516103a69190611e17565b60405180910390f35b3480156103ba575f80fd5b506103c3610999565b6040516103d69796959493929190612079565b60405180910390f35b3480156103ea575f80fd5b506103f3610a3e565b60405161040091906120fb565b60405180910390f35b348015610414575f80fd5b5061041d610a66565b60405161042a9190611ce6565b60405180910390f35b34801561043e575f80fd5b5061045960048036038101906104549190611e6e565b610af6565b6040516104669190611e17565b60405180910390f35b34801561047a575f80fd5b5061049560048036038101906104909190611d97565b610b0b565b6040516104a29190611def565b60405180910390f35b3480156104b6575f80fd5b506104d160048036038101906104cc9190612168565b610b2d565b005b3480156104de575f80fd5b506104f960048036038101906104f49190612205565b610c72565b6040516105069190611e17565b60405180910390f35b61052960048036038101906105249190611f4e565b610cf4565b005b348015610536575f80fd5b50610551600480360381019061054c9190611e6e565b610d76565b005b60606003805461056290612270565b80601f016020809104026020016040519081016040528092919081815260200182805461058e90612270565b80156105d95780601f106105b0576101008083540402835291602001916105d9565b820191905f5260205f20905b8154815290600101906020018083116105bc57829003601f168201915b5050505050905090565b5f806105ed610dfa565b90506105fa818585610e01565b600191505092915050565b5f600254905090565b610616610e13565b5f6706f05b59d3b20000828461062c91906122cd565b61063691906122cd565b905080341461067a576040517f08c379a0000000000000000000000000000000000000000000000000000000008152600401610671906123a4565b60405180910390fd5b6106843384610e9a565b34600a5f3373ffffffffffffffffffffffffffffffffffffffff1673ffffffffffffffffffffffffffffffffffffffff1681526020019081526020015f205f8282546106d091906123c2565b9250508190555081600b5f3373ffffffffffffffffffffffffffffffffffffffff1673ffffffffffffffffffffffffffffffffffffffff1681526020019081526020015f20819055503373ffffffffffffffffffffffffffffffffffffffff167f4c209b5fc8ad50758f13e2e1088ba56a560dff690a1c6fef26394f4c03821c4f84836040516107619291906123f5565b60405180910390a2505050565b600b602052805f5260405f205f915090505481565b5f8061078d610dfa565b905061079a858285610f19565b6107a5858585610fab565b60019150509392505050565b5f600a5f3373ffffffffffffffffffffffffffffffffffffffff1673ffffffffffffffffffffffffffffffffffffffff1681526020019081526020015f205411610830576040517f08c379a00000000000000000000000000000000000000000000000000000000081526004016108279061248c565b60405180910390fd5b600a5f3373ffffffffffffffffffffffffffffffffffffffff1673ffffffffffffffffffffffffffffffffffffffff1681526020019081526020015f20546009819055505f670de0b6b3a764000060095461088b91906124d7565b90505f61089733610910565b90503373ffffffffffffffffffffffffffffffffffffffff167ffa37c0fcdd39ae18d9a309e0b042974cd0d0b435ead96703ffc6c9273feafb1e82846040516108e19291906123f5565b60405180910390a25050565b5f6012905090565b5f6108fe61109b565b905090565b61090d3382611151565b50565b5f805f8373ffffffffffffffffffffffffffffffffffffffff1673ffffffffffffffffffffffffffffffffffffffff1681526020019081526020015f20549050919050565b61095d610e13565b6109665f6111d0565b565b61097a82610974610dfa565b83610f19565b6109848282611151565b5050565b5f61099282611293565b9050919050565b5f6060805f805f60606109aa6112d9565b6109b2611314565b46305f801b5f67ffffffffffffffff8111156109d1576109d0612507565b5b6040519080825280602002602001820160405280156109ff5781602001602082028036833780820191505090505b507f0f00000000000000000000000000000000000000000000000000000000000000959493929190965096509650965096509650965090919293949596565b5f60055f9054906101000a900473ffffffffffffffffffffffffffffffffffffffff16905090565b606060048054610a7590612270565b80601f0160208091040260200160405190810160405280929190818152602001828054610aa190612270565b8015610aec5780601f10610ac357610100808354040283529160200191610aec565b820191905f5260205f20905b815481529060010190602001808311610acf57829003601f168201915b5050505050905090565b600a602052805f5260405f205f915090505481565b5f80610b15610dfa565b9050610b22818585610fab565b600191505092915050565b83421115610b7257836040517f62791302000000000000000000000000000000000000000000000000000000008152600401610b699190611e17565b60405180910390fd5b5f7f6e71edae12b1b97f4d1f60370fef10105fa2faae0126114a169c64845d6126c9888888610ba08c61134f565b89604051602001610bb696959493929190612534565b6040516020818303038152906040528051906020012090505f610bd8826113a2565b90505f610be7828787876113bb565b90508973ffffffffffffffffffffffffffffffffffffffff168173ffffffffffffffffffffffffffffffffffffffff1614610c5b57808a6040517f4b800e46000000000000000000000000000000000000000000000000000000008152600401610c52929190612593565b60405180910390fd5b610c668a8a8a610e01565b50505050505050505050565b5f60015f8473ffffffffffffffffffffffffffffffffffffffff1673ffffffffffffffffffffffffffffffffffffffff1681526020019081526020015f205f8373ffffffffffffffffffffffffffffffffffffffff1673ffffffffffffffffffffffffffffffffffffffff1681526020019081526020015f2054905092915050565b5f600a5f3373ffffffffffffffffffffffffffffffffffffffff1673ffffffffffffffffffffffffffffffffffffffff1681526020019081526020015f205411610d73576040517f08c379a0000000000000000000000000000000000000000000000000000000008152600401610d6a9061248c565b60405180910390fd5b50565b610d7e610e13565b5f73ffffffffffffffffffffffffffffffffffffffff168173ffffffffffffffffffffffffffffffffffffffff1603610dee575f6040517f1e4fbdf7000000000000000000000000000000000000000000000000000000008152600401610de591906120fb565b60405180910390fd5b610df7816111d0565b50565b5f33905090565b610e0e83838360016113e9565b505050565b610e1b610dfa565b73ffffffffffffffffffffffffffffffffffffffff16610e39610a3e565b73ffffffffffffffffffffffffffffffffffffffff1614610e9857610e5c610dfa565b6040517f118cdaa7000000000000000000000000000000000000000000000000000000008152600401610e8f91906120fb565b60405180910390fd5b565b5f73ffffffffffffffffffffffffffffffffffffffff168273ffffffffffffffffffffffffffffffffffffffff1603610f0a575f6040517fec442f05000000000000000000000000000000000000000000000000000000008152600401610f0191906120fb565b60405180910390fd5b610f155f83836115b8565b5050565b5f610f248484610c72565b90507fffffffffffffffffffffffffffffffffffffffffffffffffffffffffffffffff8114610fa55781811015610f96578281836040517ffb8f41b2000000000000000000000000000000000000000000000000000000008152600401610f8d939291906125ba565b60405180910390fd5b610fa484848484035f6113e9565b5b50505050565b5f73ffffffffffffffffffffffffffffffffffffffff168373ffffffffffffffffffffffffffffffffffffffff160361101b575f6040517f96c6fd1e00000000000000000000000000000000000000000000000000000000815260040161101291906120fb565b60405180910390fd5b5f73ffffffffffffffffffffffffffffffffffffffff168273ffffffffffffffffffffffffffffffffffffffff160361108b575f6040517fec442f0500000000000000000000000000000000000000000000000000000000815260040161108291906120fb565b60405180910390fd5b6110968383836115b8565b505050565b5f7f000000000000000000000000000000000000000000000000000000000000000073ffffffffffffffffffffffffffffffffffffffff163073ffffffffffffffffffffffffffffffffffffffff1614801561111657507f000000000000000000000000000000000000000000000000000000000000000046145b15611143577f0000000000000000000000000000000000000000000000000000000000000000905061114e565b61114b6117d1565b90505b90565b5f73ffffffffffffffffffffffffffffffffffffffff168273ffffffffffffffffffffffffffffffffffffffff16036111c1575f6040517f96c6fd1e0000000000000000000000000000000000000000000000000000000081526004016111b891906120fb565b60405180910390fd5b6111cc825f836115b8565b5050565b5f60055f9054906101000a900473ffffffffffffffffffffffffffffffffffffffff1690508160055f6101000a81548173ffffffffffffffffffffffffffffffffffffffff021916908373ffffffffffffffffffffffffffffffffffffffff1602179055508173ffffffffffffffffffffffffffffffffffffffff168173ffffffffffffffffffffffffffffffffffffffff167f8be0079c531659141344cd1fd0a4f28419497f9722a3daafe3b4186f6b6457e060405160405180910390a35050565b5f60085f8373ffffffffffffffffffffffffffffffffffffffff1673ffffffffffffffffffffffffffffffffffffffff1681526020019081526020015f20549050919050565b606061130f60067f000000000000000000000000000000000000000000000000000000000000000061186690919063ffffffff16565b905090565b606061134a60077f000000000000000000000000000000000000000000000000000000000000000061186690919063ffffffff16565b905090565b5f60085f8373ffffffffffffffffffffffffffffffffffffffff1673ffffffffffffffffffffffffffffffffffffffff1681526020019081526020015f205f815480929190600101919050559050919050565b5f6113b46113ae61109b565b83611913565b9050919050565b5f805f806113cb88888888611953565b9250925092506113db8282611a3a565b829350505050949350505050565b5f73ffffffffffffffffffffffffffffffffffffffff168473ffffffffffffffffffffffffffffffffffffffff1603611459575f6040517fe602df0500000000000000000000000000000000000000000000000000000000815260040161145091906120fb565b60405180910390fd5b5f73ffffffffffffffffffffffffffffffffffffffff168373ffffffffffffffffffffffffffffffffffffffff16036114c9575f6040517f94280d620000000000000000000000000000000000000000000000000000000081526004016114c091906120fb565b60405180910390fd5b8160015f8673ffffffffffffffffffffffffffffffffffffffff1673ffffffffffffffffffffffffffffffffffffffff1681526020019081526020015f205f8573ffffffffffffffffffffffffffffffffffffffff1673ffffffffffffffffffffffffffffffffffffffff1681526020019081526020015f208190555080156115b2578273ffffffffffffffffffffffffffffffffffffffff168473ffffffffffffffffffffffffffffffffffffffff167f8c5be1e5ebec7d5bd14f71427d1e84f3dd0314c0f7b2291e5b200ac8c7c3b925846040516115a99190611e17565b60405180910390a35b50505050565b5f73ffffffffffffffffffffffffffffffffffffffff168373ffffffffffffffffffffffffffffffffffffffff1603611608578060025f8282546115fc91906123c2565b925050819055506116d6565b5f805f8573ffffffffffffffffffffffffffffffffffffffff1673ffffffffffffffffffffffffffffffffffffffff1681526020019081526020015f2054905081811015611691578381836040517fe450d38c000000000000000000000000000000000000000000000000000000008152600401611688939291906125ba565b60405180910390fd5b8181035f808673ffffffffffffffffffffffffffffffffffffffff1673ffffffffffffffffffffffffffffffffffffffff1681526020019081526020015f2081905550505b5f73ffffffffffffffffffffffffffffffffffffffff168273ffffffffffffffffffffffffffffffffffffffff160361171d578060025f8282540392505081905550611767565b805f808473ffffffffffffffffffffffffffffffffffffffff1673ffffffffffffffffffffffffffffffffffffffff1681526020019081526020015f205f82825401925050819055505b8173ffffffffffffffffffffffffffffffffffffffff168373ffffffffffffffffffffffffffffffffffffffff167fddf252ad1be2c89b69c2b068fc378daa952ba7f163c4a11628f55a4df523b3ef836040516117c49190611e17565b60405180910390a3505050565b5f7f8b73c3c69bb8fe3d512ecc4cf759cc79239f7b179b0ffacaa9a75d522b39400f7f00000000000000000000000000000000000000000000000000000000000000007f0000000000000000000000000000000000000000000000000000000000000000463060405160200161184b9594939291906125ef565b60405160208183030381529060405280519060200120905090565b606060ff5f1b83146118825761187b83611b9c565b905061190d565b81805461188e90612270565b80601f01602080910402602001604051908101604052809291908181526020018280546118ba90612270565b80156119055780601f106118dc57610100808354040283529160200191611905565b820191905f5260205f20905b8154815290600101906020018083116118e857829003601f168201915b505050505090505b92915050565b5f6040517f190100000000000000000000000000000000000000000000000000000000000081528360028201528260228201526042812091505092915050565b5f805f7f7fffffffffffffffffffffffffffffff5d576e7357a4501ddfe92f46681b20a0845f1c111561198f575f600385925092509250611a30565b5f6001888888886040515f81526020016040526040516119b29493929190612640565b6020604051602081039080840390855afa1580156119d2573d5f803e3d5ffd5b5050506020604051035190505f73ffffffffffffffffffffffffffffffffffffffff168173ffffffffffffffffffffffffffffffffffffffff1603611a23575f60015f801b93509350935050611a30565b805f805f1b935093509350505b9450945094915050565b5f6003811115611a4d57611a4c612683565b5b826003811115611a6057611a5f612683565b5b0315611b985760016003811115611a7a57611a79612683565b5b826003811115611a8d57611a8c612683565b5b03611ac4576040517ff645eedf00000000000000000000000000000000000000000000000000000000815260040160405180910390fd5b60026003811115611ad857611ad7612683565b5b826003811115611aeb57611aea612683565b5b03611b2f57805f1c6040517ffce698f7000000000000000000000000000000000000000000000000000000008152600401611b269190611e17565b60405180910390fd5b600380811115611b4257611b41612683565b5b826003811115611b5557611b54612683565b5b03611b9757806040517fd78bce0c000000000000000000000000000000000000000000000000000000008152600401611b8e9190611f35565b60405180910390fd5b5b5050565b60605f611ba883611c0e565b90505f602067ffffffffffffffff811115611bc657611bc5612507565b5b6040519080825280601f01601f191660200182016040528015611bf85781602001600182028036833780820191505090505b5090508181528360208201528092505050919050565b5f8060ff835f1c169050601f811115611c53576040517fb3512b0c00000000000000000000000000000000000000000000000000000000815260040160405180910390fd5b80915050919050565b5f81519050919050565b5f82825260208201905092915050565b5f5b83811015611c93578082015181840152602081019050611c78565b5f8484015250505050565b5f601f19601f8301169050919050565b5f611cb882611c5c565b611cc28185611c66565b9350611cd2818560208601611c76565b611cdb81611c9e565b840191505092915050565b5f6020820190508181035f830152611cfe8184611cae565b905092915050565b5f80fd5b5f73ffffffffffffffffffffffffffffffffffffffff82169050919050565b5f611d3382611d0a565b9050919050565b611d4381611d29565b8114611d4d575f80fd5b50565b5f81359050611d5e81611d3a565b92915050565b5f819050919050565b611d7681611d64565b8114611d80575f80fd5b50565b5f81359050611d9181611d6d565b92915050565b5f8060408385031215611dad57611dac611d06565b5b5f611dba85828601611d50565b9250506020611dcb85828601611d83565b9150509250929050565b5f8115159050919050565b611de981611dd5565b82525050565b5f602082019050611e025f830184611de0565b92915050565b611e1181611d64565b82525050565b5f602082019050611e2a5f830184611e08565b92915050565b5f8060408385031215611e4657611e45611d06565b5b5f611e5385828601611d83565b9250506020611e6485828601611d83565b9150509250929050565b5f60208284031215611e8357611e82611d06565b5b5f611e9084828501611d50565b91505092915050565b5f805f60608486031215611eb057611eaf611d06565b5b5f611ebd86828701611d50565b9350506020611ece86828701611d50565b9250506040611edf86828701611d83565b9150509250925092565b5f60ff82169050919050565b611efe81611ee9565b82525050565b5f602082019050611f175f830184611ef5565b92915050565b5f819050919050565b611f2f81611f1d565b82525050565b5f602082019050611f485f830184611f26565b92915050565b5f60208284031215611f6357611f62611d06565b5b5f611f7084828501611d83565b91505092915050565b5f7fff0000000000000000000000000000000000000000000000000000000000000082169050919050565b611fad81611f79565b82525050565b611fbc81611d29565b82525050565b5f81519050919050565b5f82825260208201905092915050565b5f819050602082019050919050565b611ff481611d64565b82525050565b5f6120058383611feb565b60208301905092915050565b5f602082019050919050565b5f61202782611fc2565b6120318185611fcc565b935061203c83611fdc565b805f5b8381101561206c5781516120538882611ffa565b975061205e83612011565b92505060018101905061203f565b5085935050505092915050565b5f60e08201905061208c5f83018a611fa4565b818103602083015261209e8189611cae565b905081810360408301526120b28188611cae565b90506120c16060830187611e08565b6120ce6080830186611fb3565b6120db60a0830185611f26565b81810360c08301526120ed818461201d565b905098975050505050505050565b5f60208201905061210e5f830184611fb3565b92915050565b61211d81611ee9565b8114612127575f80fd5b50565b5f8135905061213881612114565b92915050565b61214781611f1d565b8114612151575f80fd5b50565b5f813590506121628161213e565b92915050565b5f805f805f805f60e0888a03121561218357612182611d06565b5b5f6121908a828b01611d50565b97505060206121a18a828b01611d50565b96505060406121b28a828b01611d83565b95505060606121c38a828b01611d83565b94505060806121d48a828b0161212a565b93505060a06121e58a828b01612154565b92505060c06121f68a828b01612154565b91505092959891949750929550565b5f806040838503121561221b5761221a611d06565b5b5f61222885828601611d50565b925050602061223985828601611d50565b9150509250929050565b7f4e487b71000000000000000000000000000000000000000000000000000000005f52602260045260245ffd5b5f600282049050600182168061228757607f821691505b60208210810361229a57612299612243565b5b50919050565b7f4e487b71000000000000000000000000000000000000000000000000000000005f52601160045260245ffd5b5f6122d782611d64565b91506122e283611d64565b92508282026122f081611d64565b91508282048414831517612307576123066122a0565b5b5092915050565b7f596f752073686f756c6420626520696e70757474696e6720612076616c7565205f8201527f746861742069732074686520616d74206f6620746f6b656e73202a20636f6e7660208201527f657273696f6e5261746500000000000000000000000000000000000000000000604082015250565b5f61238e604a83611c66565b91506123998261230e565b606082019050919050565b5f6020820190508181035f8301526123bb81612382565b9050919050565b5f6123cc82611d64565b91506123d783611d64565b92508282019050808211156123ef576123ee6122a0565b5b92915050565b5f6040820190506124085f830185611e08565b6124156020830184611e08565b9392505050565b7f596f75206d7573742068617665206d696e74656420746f6b656e7320746f20715f8201527f75657279207468697320696e666f726d6174696f6e0000000000000000000000602082015250565b5f612476603583611c66565b91506124818261241c565b604082019050919050565b5f6020820190508181035f8301526124a38161246a565b9050919050565b7f4e487b71000000000000000000000000000000000000000000000000000000005f52601260045260245ffd5b5f6124e182611d64565b91506124ec83611d64565b9250826124fc576124fb6124aa565b5b828204905092915050565b7f4e487b71000000000000000000000000000000000000000000000000000000005f52604160045260245ffd5b5f60c0820190506125475f830189611f26565b6125546020830188611fb3565b6125616040830187611fb3565b61256e6060830186611e08565b61257b6080830185611e08565b61258860a0830184611e08565b979650505050505050565b5f6040820190506125a65f830185611fb3565b6125b36020830184611fb3565b9392505050565b5f6060820190506125cd5f830186611fb3565b6125da6020830185611e08565b6125e76040830184611e08565b949350505050565b5f60a0820190506126025f830188611f26565b61260f6020830187611f26565b61261c6040830186611f26565b6126296060830185611e08565b6126366080830184611fb3565b9695505050505050565b5f6080820190506126535f830187611f26565b6126606020830186611ef5565b61266d6040830185611f26565b61267a6060830184611f26565b95945050505050565b7f4e487b71000000000000000000000000000000000000000000000000000000005f52602160045260245ffdfea2646970667358221220b54dff3b986935ed05c27fa6ea720ee145f590601244fa90f3a3671be82e73b464736f6c63430008140033",
			"opcodes": "PUSH2 0x160 PUSH1 0x40 MSTORE PUSH1 0x40 MLOAD DUP1 PUSH1 0x40 ADD PUSH1 0x40 MSTORE DUP1 PUSH1 0x11 DUP2 MSTORE PUSH1 0x20 ADD PUSH32 0x436F2D496E737572616E6365546F6B656E000000000000000000000000000000 DUP2 MSTORE POP DUP1 PUSH1 0x40 MLOAD DUP1 PUSH1 0x40 ADD PUSH1 0x40 MSTORE DUP1 PUSH1 0x1 DUP2 MSTORE PUSH1 0x20 ADD PUSH32 0x3100000000000000000000000000000000000000000000000000000000000000 DUP2 MSTORE POP CALLER PUSH1 0x40 MLOAD DUP1 PUSH1 0x40 ADD PUSH1 0x40 MSTORE DUP1 PUSH1 0x11 DUP2 MSTORE PUSH1 0x20 ADD PUSH32 0x436F2D496E737572616E6365546F6B656E000000000000000000000000000000 DUP2 MSTORE POP PUSH1 0x40 MLOAD DUP1 PUSH1 0x40 ADD PUSH1 0x40 MSTORE DUP1 PUSH1 0x3 DUP2 MSTORE PUSH1 0x20 ADD PUSH32 0x4349540000000000000000000000000000000000000000000000000000000000 DUP2 MSTORE POP DUP2 PUSH1 0x3 SWAP1 DUP2 PUSH3 0xF0 SWAP2 SWAP1 PUSH3 0x68C JUMP JUMPDEST POP DUP1 PUSH1 0x4 SWAP1 DUP2 PUSH3 0x102 SWAP2 SWAP1 PUSH3 0x68C JUMP JUMPDEST POP POP POP PUSH0 PUSH20 0xFFFFFFFFFFFFFFFFFFFFFFFFFFFFFFFFFFFFFFFF AND DUP2 PUSH20 0xFFFFFFFFFFFFFFFFFFFFFFFFFFFFFFFFFFFFFFFF AND SUB PUSH3 0x178 JUMPI PUSH0 PUSH1 0x40 MLOAD PUSH32 0x1E4FBDF700000000000000000000000000000000000000000000000000000000 DUP2 MSTORE PUSH1 0x4 ADD PUSH3 0x16F SWAP2 SWAP1 PUSH3 0x7B3 JUMP JUMPDEST PUSH1 0x40 MLOAD DUP1 SWAP2 SUB SWAP1 REVERT JUMPDEST PUSH3 0x189 DUP2 PUSH3 0x241 PUSH1 0x20 SHL PUSH1 0x20 SHR JUMP JUMPDEST POP PUSH3 0x1A0 PUSH1 0x6 DUP4 PUSH3 0x304 PUSH1 0x20 SHL SWAP1 SWAP2 SWAP1 PUSH1 0x20 SHR JUMP JUMPDEST PUSH2 0x120 DUP2 DUP2 MSTORE POP POP PUSH3 0x1BE PUSH1 0x7 DUP3 PUSH3 0x304 PUSH1 0x20 SHL SWAP1 SWAP2 SWAP1 PUSH1 0x20 SHR JUMP JUMPDEST PUSH2 0x140 DUP2 DUP2 MSTORE POP POP DUP2 DUP1 MLOAD SWAP1 PUSH1 0x20 ADD KECCAK256 PUSH1 0xE0 DUP2 DUP2 MSTORE POP POP DUP1 DUP1 MLOAD SWAP1 PUSH1 0x20 ADD KECCAK256 PUSH2 0x100 DUP2 DUP2 MSTORE POP POP CHAINID PUSH1 0xA0 DUP2 DUP2 MSTORE POP POP PUSH3 0x1FD PUSH3 0x359 PUSH1 0x20 SHL PUSH1 0x20 SHR JUMP JUMPDEST PUSH1 0x80 DUP2 DUP2 MSTORE POP POP ADDRESS PUSH20 0xFFFFFFFFFFFFFFFFFFFFFFFFFFFFFFFFFFFFFFFF AND PUSH1 0xC0 DUP2 PUSH20 0xFFFFFFFFFFFFFFFFFFFFFFFFFFFFFFFFFFFFFFFF AND DUP2 MSTORE POP POP POP POP POP PUSH3 0x99E JUMP JUMPDEST PUSH0 PUSH1 0x5 PUSH0 SWAP1 SLOAD SWAP1 PUSH2 0x100 EXP SWAP1 DIV PUSH20 0xFFFFFFFFFFFFFFFFFFFFFFFFFFFFFFFFFFFFFFFF AND SWAP1 POP DUP2 PUSH1 0x5 PUSH0 PUSH2 0x100 EXP DUP2 SLOAD DUP2 PUSH20 0xFFFFFFFFFFFFFFFFFFFFFFFFFFFFFFFFFFFFFFFF MUL NOT AND SWAP1 DUP4 PUSH20 0xFFFFFFFFFFFFFFFFFFFFFFFFFFFFFFFFFFFFFFFF AND MUL OR SWAP1 SSTORE POP DUP2 PUSH20 0xFFFFFFFFFFFFFFFFFFFFFFFFFFFFFFFFFFFFFFFF AND DUP2 PUSH20 0xFFFFFFFFFFFFFFFFFFFFFFFFFFFFFFFFFFFFFFFF AND PUSH32 0x8BE0079C531659141344CD1FD0A4F28419497F9722A3DAAFE3B4186F6B6457E0 PUSH1 0x40 MLOAD PUSH1 0x40 MLOAD DUP1 SWAP2 SUB SWAP1 LOG3 POP POP JUMP JUMPDEST PUSH0 PUSH1 0x20 DUP4 MLOAD LT ISZERO PUSH3 0x329 JUMPI PUSH3 0x321 DUP4 PUSH3 0x3B5 PUSH1 0x20 SHL PUSH1 0x20 SHR JUMP JUMPDEST SWAP1 POP PUSH3 0x353 JUMP JUMPDEST DUP3 PUSH3 0x33B DUP4 PUSH3 0x41F PUSH1 0x20 SHL PUSH1 0x20 SHR JUMP JUMPDEST PUSH0 ADD SWAP1 DUP2 PUSH3 0x34B SWAP2 SWAP1 PUSH3 0x68C JUMP JUMPDEST POP PUSH1 0xFF PUSH0 SHL SWAP1 POP JUMPDEST SWAP3 SWAP2 POP POP JUMP JUMPDEST PUSH0 PUSH32 0x8B73C3C69BB8FE3D512ECC4CF759CC79239F7B179B0FFACAA9A75D522B39400F PUSH1 0xE0 MLOAD PUSH2 0x100 MLOAD CHAINID ADDRESS PUSH1 0x40 MLOAD PUSH1 0x20 ADD PUSH3 0x39A SWAP6 SWAP5 SWAP4 SWAP3 SWAP2 SWAP1 PUSH3 0x7F9 JUMP JUMPDEST PUSH1 0x40 MLOAD PUSH1 0x20 DUP2 DUP4 SUB SUB DUP2 MSTORE SWAP1 PUSH1 0x40 MSTORE DUP1 MLOAD SWAP1 PUSH1 0x20 ADD KECCAK256 SWAP1 POP SWAP1 JUMP JUMPDEST PUSH0 DUP1 DUP3 SWAP1 POP PUSH1 0x1F DUP2 MLOAD GT ISZERO PUSH3 0x404 JUMPI DUP3 PUSH1 0x40 MLOAD PUSH32 0x305A27A900000000000000000000000000000000000000000000000000000000 DUP2 MSTORE PUSH1 0x4 ADD PUSH3 0x3FB SWAP2 SWAP1 PUSH3 0x8DE JUMP JUMPDEST PUSH1 0x40 MLOAD DUP1 SWAP2 SUB SWAP1 REVERT JUMPDEST DUP1 MLOAD DUP2 PUSH3 0x412 SWAP1 PUSH3 0x92F JUMP JUMPDEST PUSH0 SHR OR PUSH0 SHL SWAP2 POP POP SWAP2 SWAP1 POP JUMP JUMPDEST PUSH0 DUP2 SWAP1 POP SWAP2 SWAP1 POP JUMP JUMPDEST PUSH0 DUP2 MLOAD SWAP1 POP SWAP2 SWAP1 POP JUMP JUMPDEST PUSH32 0x4E487B7100000000000000000000000000000000000000000000000000000000 PUSH0 MSTORE PUSH1 0x41 PUSH1 0x4 MSTORE PUSH1 0x24 PUSH0 REVERT JUMPDEST PUSH32 0x4E487B7100000000000000000000000000000000000000000000000000000000 PUSH0 MSTORE PUSH1 0x22 PUSH1 0x4 MSTORE PUSH1 0x24 PUSH0 REVERT JUMPDEST PUSH0 PUSH1 0x2 DUP3 DIV SWAP1 POP PUSH1 0x1 DUP3 AND DUP1 PUSH3 0x4A4 JUMPI PUSH1 0x7F DUP3 AND SWAP2 POP JUMPDEST PUSH1 0x20 DUP3 LT DUP2 SUB PUSH3 0x4BA JUMPI PUSH3 0x4B9 PUSH3 0x45F JUMP JUMPDEST JUMPDEST POP SWAP2 SWAP1 POP JUMP JUMPDEST PUSH0 DUP2 SWAP1 POP DUP2 PUSH0 MSTORE PUSH1 0x20 PUSH0 KECCAK256 SWAP1 POP SWAP2 SWAP1 POP JUMP JUMPDEST PUSH0 PUSH1 0x20 PUSH1 0x1F DUP4 ADD DIV SWAP1 POP SWAP2 SWAP1 POP JUMP JUMPDEST PUSH0 DUP3 DUP3 SHL SWAP1 POP SWAP3 SWAP2 POP POP JUMP JUMPDEST PUSH0 PUSH1 0x8 DUP4 MUL PUSH3 0x51E PUSH32 0xFFFFFFFFFFFFFFFFFFFFFFFFFFFFFFFFFFFFFFFFFFFFFFFFFFFFFFFFFFFFFFFF DUP3 PUSH3 0x4E1 JUMP JUMPDEST PUSH3 0x52A DUP7 DUP4 PUSH3 0x4E1 JUMP JUMPDEST SWAP6 POP DUP1 NOT DUP5 AND SWAP4 POP DUP1 DUP7 AND DUP5 OR SWAP3 POP POP POP SWAP4 SWAP3 POP POP POP JUMP JUMPDEST PUSH0 DUP2 SWAP1 POP SWAP2 SWAP1 POP JUMP JUMPDEST PUSH0 DUP2 SWAP1 POP SWAP2 SWAP1 POP JUMP JUMPDEST PUSH0 PUSH3 0x574 PUSH3 0x56E PUSH3 0x568 DUP5 PUSH3 0x542 JUMP JUMPDEST PUSH3 0x54B JUMP JUMPDEST PUSH3 0x542 JUMP JUMPDEST SWAP1 POP SWAP2 SWAP1 POP JUMP JUMPDEST PUSH0 DUP2 SWAP1 POP SWAP2 SWAP1 POP JUMP JUMPDEST PUSH3 0x58F DUP4 PUSH3 0x554 JUMP JUMPDEST PUSH3 0x5A7 PUSH3 0x59E DUP3 PUSH3 0x57B JUMP JUMPDEST DUP5 DUP5 SLOAD PUSH3 0x4ED JUMP JUMPDEST DUP3 SSTORE POP POP POP POP JUMP JUMPDEST PUSH0 SWAP1 JUMP JUMPDEST PUSH3 0x5BD PUSH3 0x5AF JUMP JUMPDEST PUSH3 0x5CA DUP2 DUP5 DUP5 PUSH3 0x584 JUMP JUMPDEST POP POP POP JUMP JUMPDEST JUMPDEST DUP2 DUP2 LT ISZERO PUSH3 0x5F1 JUMPI PUSH3 0x5E5 PUSH0 DUP3 PUSH3 0x5B3 JUMP JUMPDEST PUSH1 0x1 DUP2 ADD SWAP1 POP PUSH3 0x5D0 JUMP JUMPDEST POP POP JUMP JUMPDEST PUSH1 0x1F DUP3 GT ISZERO PUSH3 0x640 JUMPI PUSH3 0x60A DUP2 PUSH3 0x4C0 JUMP JUMPDEST PUSH3 0x615 DUP5 PUSH3 0x4D2 JUMP JUMPDEST DUP2 ADD PUSH1 0x20 DUP6 LT ISZERO PUSH3 0x625 JUMPI DUP2 SWAP1 POP JUMPDEST PUSH3 0x63D PUSH3 0x634 DUP6 PUSH3 0x4D2 JUMP JUMPDEST DUP4 ADD DUP3 PUSH3 0x5CF JUMP JUMPDEST POP POP JUMPDEST POP POP POP JUMP JUMPDEST PUSH0 DUP3 DUP3 SHR SWAP1 POP SWAP3 SWAP2 POP POP JUMP JUMPDEST PUSH0 PUSH3 0x662 PUSH0 NOT DUP5 PUSH1 0x8 MUL PUSH3 0x645 JUMP JUMPDEST NOT DUP1 DUP4 AND SWAP2 POP POP SWAP3 SWAP2 POP POP JUMP JUMPDEST PUSH0 PUSH3 0x67C DUP4 DUP4 PUSH3 0x651 JUMP JUMPDEST SWAP2 POP DUP3 PUSH1 0x2 MUL DUP3 OR SWAP1 POP SWAP3 SWAP2 POP POP JUMP JUMPDEST PUSH3 0x697 DUP3 PUSH3 0x428 JUMP JUMPDEST PUSH8 0xFFFFFFFFFFFFFFFF DUP2 GT ISZERO PUSH3 0x6B3 JUMPI PUSH3 0x6B2 PUSH3 0x432 JUMP JUMPDEST JUMPDEST PUSH3 0x6BF DUP3 SLOAD PUSH3 0x48C JUMP JUMPDEST PUSH3 0x6CC DUP3 DUP3 DUP6 PUSH3 0x5F5 JUMP JUMPDEST PUSH0 PUSH1 0x20 SWAP1 POP PUSH1 0x1F DUP4 GT PUSH1 0x1 DUP2 EQ PUSH3 0x702 JUMPI PUSH0 DUP5 ISZERO PUSH3 0x6ED JUMPI DUP3 DUP8 ADD MLOAD SWAP1 POP JUMPDEST PUSH3 0x6F9 DUP6 DUP3 PUSH3 0x66F JUMP JUMPDEST DUP7 SSTORE POP PUSH3 0x768 JUMP JUMPDEST PUSH1 0x1F NOT DUP5 AND PUSH3 0x712 DUP7 PUSH3 0x4C0 JUMP JUMPDEST PUSH0 JUMPDEST DUP3 DUP2 LT ISZERO PUSH3 0x73B JUMPI DUP5 DUP10 ADD MLOAD DUP3 SSTORE PUSH1 0x1 DUP3 ADD SWAP2 POP PUSH1 0x20 DUP6 ADD SWAP5 POP PUSH1 0x20 DUP2 ADD SWAP1 POP PUSH3 0x714 JUMP JUMPDEST DUP7 DUP4 LT ISZERO PUSH3 0x75B JUMPI DUP5 DUP10 ADD MLOAD PUSH3 0x757 PUSH1 0x1F DUP10 AND DUP3 PUSH3 0x651 JUMP JUMPDEST DUP4 SSTORE POP JUMPDEST PUSH1 0x1 PUSH1 0x2 DUP9 MUL ADD DUP9 SSTORE POP POP POP JUMPDEST POP POP POP POP POP POP JUMP JUMPDEST PUSH0 PUSH20 0xFFFFFFFFFFFFFFFFFFFFFFFFFFFFFFFFFFFFFFFF DUP3 AND SWAP1 POP SWAP2 SWAP1 POP JUMP JUMPDEST PUSH0 PUSH3 0x79B DUP3 PUSH3 0x770 JUMP JUMPDEST SWAP1 POP SWAP2 SWAP1 POP JUMP JUMPDEST PUSH3 0x7AD DUP2 PUSH3 0x78F JUMP JUMPDEST DUP3 MSTORE POP POP JUMP JUMPDEST PUSH0 PUSH1 0x20 DUP3 ADD SWAP1 POP PUSH3 0x7C8 PUSH0 DUP4 ADD DUP5 PUSH3 0x7A2 JUMP JUMPDEST SWAP3 SWAP2 POP POP JUMP JUMPDEST PUSH0 DUP2 SWAP1 POP SWAP2 SWAP1 POP JUMP JUMPDEST PUSH3 0x7E2 DUP2 PUSH3 0x7CE JUMP JUMPDEST DUP3 MSTORE POP POP JUMP JUMPDEST PUSH3 0x7F3 DUP2 PUSH3 0x542 JUMP JUMPDEST DUP3 MSTORE POP POP JUMP JUMPDEST PUSH0 PUSH1 0xA0 DUP3 ADD SWAP1 POP PUSH3 0x80E PUSH0 DUP4 ADD DUP9 PUSH3 0x7D7 JUMP JUMPDEST PUSH3 0x81D PUSH1 0x20 DUP4 ADD DUP8 PUSH3 0x7D7 JUMP JUMPDEST PUSH3 0x82C PUSH1 0x40 DUP4 ADD DUP7 PUSH3 0x7D7 JUMP JUMPDEST PUSH3 0x83B PUSH1 0x60 DUP4 ADD DUP6 PUSH3 0x7E8 JUMP JUMPDEST PUSH3 0x84A PUSH1 0x80 DUP4 ADD DUP5 PUSH3 0x7A2 JUMP JUMPDEST SWAP7 SWAP6 POP POP POP POP POP POP JUMP JUMPDEST PUSH0 DUP3 DUP3 MSTORE PUSH1 0x20 DUP3 ADD SWAP1 POP SWAP3 SWAP2 POP POP JUMP JUMPDEST PUSH0 JUMPDEST DUP4 DUP2 LT ISZERO PUSH3 0x883 JUMPI DUP1 DUP3 ADD MLOAD DUP2 DUP5 ADD MSTORE PUSH1 0x20 DUP2 ADD SWAP1 POP PUSH3 0x866 JUMP JUMPDEST PUSH0 DUP5 DUP5 ADD MSTORE POP POP POP POP JUMP JUMPDEST PUSH0 PUSH1 0x1F NOT PUSH1 0x1F DUP4 ADD AND SWAP1 POP SWAP2 SWAP1 POP JUMP JUMPDEST PUSH0 PUSH3 0x8AA DUP3 PUSH3 0x428 JUMP JUMPDEST PUSH3 0x8B6 DUP2 DUP6 PUSH3 0x854 JUMP JUMPDEST SWAP4 POP PUSH3 0x8C8 DUP2 DUP6 PUSH1 0x20 DUP7 ADD PUSH3 0x864 JUMP JUMPDEST PUSH3 0x8D3 DUP2 PUSH3 0x88E JUMP JUMPDEST DUP5 ADD SWAP2 POP POP SWAP3 SWAP2 POP POP JUMP JUMPDEST PUSH0 PUSH1 0x20 DUP3 ADD SWAP1 POP DUP2 DUP2 SUB PUSH0 DUP4 ADD MSTORE PUSH3 0x8F8 DUP2 DUP5 PUSH3 0x89E JUMP JUMPDEST SWAP1 POP SWAP3 SWAP2 POP POP JUMP JUMPDEST PUSH0 DUP2 MLOAD SWAP1 POP SWAP2 SWAP1 POP JUMP JUMPDEST PUSH0 DUP2 SWAP1 POP PUSH1 0x20 DUP3 ADD SWAP1 POP SWAP2 SWAP1 POP JUMP JUMPDEST PUSH0 PUSH3 0x926 DUP3 MLOAD PUSH3 0x7CE JUMP JUMPDEST DUP1 SWAP2 POP POP SWAP2 SWAP1 POP JUMP JUMPDEST PUSH0 PUSH3 0x93B DUP3 PUSH3 0x900 JUMP JUMPDEST DUP3 PUSH3 0x947 DUP5 PUSH3 0x90A JUMP JUMPDEST SWAP1 POP PUSH3 0x954 DUP2 PUSH3 0x919 JUMP JUMPDEST SWAP3 POP PUSH1 0x20 DUP3 LT ISZERO PUSH3 0x997 JUMPI PUSH3 0x992 PUSH32 0xFFFFFFFFFFFFFFFFFFFFFFFFFFFFFFFFFFFFFFFFFFFFFFFFFFFFFFFFFFFFFFFF DUP4 PUSH1 0x20 SUB PUSH1 0x8 MUL PUSH3 0x4E1 JUMP JUMPDEST DUP4 AND SWAP3 POP JUMPDEST POP POP SWAP2 SWAP1 POP JUMP JUMPDEST PUSH1 0x80 MLOAD PUSH1 0xA0 MLOAD PUSH1 0xC0 MLOAD PUSH1 0xE0 MLOAD PUSH2 0x100 MLOAD PUSH2 0x120 MLOAD PUSH2 0x140 MLOAD PUSH2 0x26E6 PUSH3 0x9F0 PUSH0 CODECOPY PUSH0 PUSH2 0x131D ADD MSTORE PUSH0 PUSH2 0x12E2 ADD MSTORE PUSH0 PUSH2 0x1816 ADD MSTORE PUSH0 PUSH2 0x17F5 ADD MSTORE PUSH0 PUSH2 0x109E ADD MSTORE PUSH0 PUSH2 0x10F4 ADD MSTORE PUSH0 PUSH2 0x111D ADD MSTORE PUSH2 0x26E6 PUSH0 RETURN INVALID PUSH1 0x80 PUSH1 0x40 MSTORE PUSH1 0x4 CALLDATASIZE LT PUSH2 0x13F JUMPI PUSH0 CALLDATALOAD PUSH1 0xE0 SHR DUP1 PUSH4 0x715018A6 GT PUSH2 0xB5 JUMPI DUP1 PUSH4 0xA5FDC5DE GT PUSH2 0x6E JUMPI DUP1 PUSH4 0xA5FDC5DE EQ PUSH2 0x433 JUMPI DUP1 PUSH4 0xA9059CBB EQ PUSH2 0x46F JUMPI DUP1 PUSH4 0xD505ACCF EQ PUSH2 0x4AB JUMPI DUP1 PUSH4 0xDD62ED3E EQ PUSH2 0x4D3 JUMPI DUP1 PUSH4 0xF2C51F0D EQ PUSH2 0x50F JUMPI DUP1 PUSH4 0xF2FDE38B EQ PUSH2 0x52B JUMPI PUSH2 0x13F JUMP JUMPDEST DUP1 PUSH4 0x715018A6 EQ PUSH2 0x335 JUMPI DUP1 PUSH4 0x79CC6790 EQ PUSH2 0x34B JUMPI DUP1 PUSH4 0x7ECEBE00 EQ PUSH2 0x373 JUMPI DUP1 PUSH4 0x84B0196E EQ PUSH2 0x3AF JUMPI DUP1 PUSH4 0x8DA5CB5B EQ PUSH2 0x3DF JUMPI DUP1 PUSH4 0x95D89B41 EQ PUSH2 0x409 JUMPI PUSH2 0x13F JUMP JUMPDEST DUP1 PUSH4 0x23B872DD GT PUSH2 0x107 JUMPI DUP1 PUSH4 0x23B872DD EQ PUSH2 0x22B JUMPI DUP1 PUSH4 0x25F5A4A2 EQ PUSH2 0x267 JUMPI DUP1 PUSH4 0x313CE567 EQ PUSH2 0x27D JUMPI DUP1 PUSH4 0x3644E515 EQ PUSH2 0x2A7 JUMPI DUP1 PUSH4 0x42966C68 EQ PUSH2 0x2D1 JUMPI DUP1 PUSH4 0x70A08231 EQ PUSH2 0x2F9 JUMPI PUSH2 0x13F JUMP JUMPDEST DUP1 PUSH4 0x6FDDE03 EQ PUSH2 0x143 JUMPI DUP1 PUSH4 0x95EA7B3 EQ PUSH2 0x16D JUMPI DUP1 PUSH4 0x18160DDD EQ PUSH2 0x1A9 JUMPI DUP1 PUSH4 0x1B2EF1CA EQ PUSH2 0x1D3 JUMPI DUP1 PUSH4 0x1F86956C EQ PUSH2 0x1EF JUMPI JUMPDEST PUSH0 DUP1 REVERT JUMPDEST CALLVALUE DUP1 ISZERO PUSH2 0x14E JUMPI PUSH0 DUP1 REVERT JUMPDEST POP PUSH2 0x157 PUSH2 0x553 JUMP JUMPDEST PUSH1 0x40 MLOAD PUSH2 0x164 SWAP2 SWAP1 PUSH2 0x1CE6 JUMP JUMPDEST PUSH1 0x40 MLOAD DUP1 SWAP2 SUB SWAP1 RETURN JUMPDEST CALLVALUE DUP1 ISZERO PUSH2 0x178 JUMPI PUSH0 DUP1 REVERT JUMPDEST POP PUSH2 0x193 PUSH1 0x4 DUP1 CALLDATASIZE SUB DUP2 ADD SWAP1 PUSH2 0x18E SWAP2 SWAP1 PUSH2 0x1D97 JUMP JUMPDEST PUSH2 0x5E3 JUMP JUMPDEST PUSH1 0x40 MLOAD PUSH2 0x1A0 SWAP2 SWAP1 PUSH2 0x1DEF JUMP JUMPDEST PUSH1 0x40 MLOAD DUP1 SWAP2 SUB SWAP1 RETURN JUMPDEST CALLVALUE DUP1 ISZERO PUSH2 0x1B4 JUMPI PUSH0 DUP1 REVERT JUMPDEST POP PUSH2 0x1BD PUSH2 0x605 JUMP JUMPDEST PUSH1 0x40 MLOAD PUSH2 0x1CA SWAP2 SWAP1 PUSH2 0x1E17 JUMP JUMPDEST PUSH1 0x40 MLOAD DUP1 SWAP2 SUB SWAP1 RETURN JUMPDEST PUSH2 0x1ED PUSH1 0x4 DUP1 CALLDATASIZE SUB DUP2 ADD SWAP1 PUSH2 0x1E8 SWAP2 SWAP1 PUSH2 0x1E30 JUMP JUMPDEST PUSH2 0x60E JUMP JUMPDEST STOP JUMPDEST CALLVALUE DUP1 ISZERO PUSH2 0x1FA JUMPI PUSH0 DUP1 REVERT JUMPDEST POP PUSH2 0x215 PUSH1 0x4 DUP1 CALLDATASIZE SUB DUP2 ADD SWAP1 PUSH2 0x210 SWAP2 SWAP1 PUSH2 0x1E6E JUMP JUMPDEST PUSH2 0x76E JUMP JUMPDEST PUSH1 0x40 MLOAD PUSH2 0x222 SWAP2 SWAP1 PUSH2 0x1E17 JUMP JUMPDEST PUSH1 0x40 MLOAD DUP1 SWAP2 SUB SWAP1 RETURN JUMPDEST CALLVALUE DUP1 ISZERO PUSH2 0x236 JUMPI PUSH0 DUP1 REVERT JUMPDEST POP PUSH2 0x251 PUSH1 0x4 DUP1 CALLDATASIZE SUB DUP2 ADD SWAP1 PUSH2 0x24C SWAP2 SWAP1 PUSH2 0x1E99 JUMP JUMPDEST PUSH2 0x783 JUMP JUMPDEST PUSH1 0x40 MLOAD PUSH2 0x25E SWAP2 SWAP1 PUSH2 0x1DEF JUMP JUMPDEST PUSH1 0x40 MLOAD DUP1 SWAP2 SUB SWAP1 RETURN JUMPDEST CALLVALUE DUP1 ISZERO PUSH2 0x272 JUMPI PUSH0 DUP1 REVERT JUMPDEST POP PUSH2 0x27B PUSH2 0x7B1 JUMP JUMPDEST STOP JUMPDEST CALLVALUE DUP1 ISZERO PUSH2 0x288 JUMPI PUSH0 DUP1 REVERT JUMPDEST POP PUSH2 0x291 PUSH2 0x8ED JUMP JUMPDEST PUSH1 0x40 MLOAD PUSH2 0x29E SWAP2 SWAP1 PUSH2 0x1F04 JUMP JUMPDEST PUSH1 0x40 MLOAD DUP1 SWAP2 SUB SWAP1 RETURN JUMPDEST CALLVALUE DUP1 ISZERO PUSH2 0x2B2 JUMPI PUSH0 DUP1 REVERT JUMPDEST POP PUSH2 0x2BB PUSH2 0x8F5 JUMP JUMPDEST PUSH1 0x40 MLOAD PUSH2 0x2C8 SWAP2 SWAP1 PUSH2 0x1F35 JUMP JUMPDEST PUSH1 0x40 MLOAD DUP1 SWAP2 SUB SWAP1 RETURN JUMPDEST CALLVALUE DUP1 ISZERO PUSH2 0x2DC JUMPI PUSH0 DUP1 REVERT JUMPDEST POP PUSH2 0x2F7 PUSH1 0x4 DUP1 CALLDATASIZE SUB DUP2 ADD SWAP1 PUSH2 0x2F2 SWAP2 SWAP1 PUSH2 0x1F4E JUMP JUMPDEST PUSH2 0x903 JUMP JUMPDEST STOP JUMPDEST CALLVALUE DUP1 ISZERO PUSH2 0x304 JUMPI PUSH0 DUP1 REVERT JUMPDEST POP PUSH2 0x31F PUSH1 0x4 DUP1 CALLDATASIZE SUB DUP2 ADD SWAP1 PUSH2 0x31A SWAP2 SWAP1 PUSH2 0x1E6E JUMP JUMPDEST PUSH2 0x910 JUMP JUMPDEST PUSH1 0x40 MLOAD PUSH2 0x32C SWAP2 SWAP1 PUSH2 0x1E17 JUMP JUMPDEST PUSH1 0x40 MLOAD DUP1 SWAP2 SUB SWAP1 RETURN JUMPDEST CALLVALUE DUP1 ISZERO PUSH2 0x340 JUMPI PUSH0 DUP1 REVERT JUMPDEST POP PUSH2 0x349 PUSH2 0x955 JUMP JUMPDEST STOP JUMPDEST CALLVALUE DUP1 ISZERO PUSH2 0x356 JUMPI PUSH0 DUP1 REVERT JUMPDEST POP PUSH2 0x371 PUSH1 0x4 DUP1 CALLDATASIZE SUB DUP2 ADD SWAP1 PUSH2 0x36C SWAP2 SWAP1 PUSH2 0x1D97 JUMP JUMPDEST PUSH2 0x968 JUMP JUMPDEST STOP JUMPDEST CALLVALUE DUP1 ISZERO PUSH2 0x37E JUMPI PUSH0 DUP1 REVERT JUMPDEST POP PUSH2 0x399 PUSH1 0x4 DUP1 CALLDATASIZE SUB DUP2 ADD SWAP1 PUSH2 0x394 SWAP2 SWAP1 PUSH2 0x1E6E JUMP JUMPDEST PUSH2 0x988 JUMP JUMPDEST PUSH1 0x40 MLOAD PUSH2 0x3A6 SWAP2 SWAP1 PUSH2 0x1E17 JUMP JUMPDEST PUSH1 0x40 MLOAD DUP1 SWAP2 SUB SWAP1 RETURN JUMPDEST CALLVALUE DUP1 ISZERO PUSH2 0x3BA JUMPI PUSH0 DUP1 REVERT JUMPDEST POP PUSH2 0x3C3 PUSH2 0x999 JUMP JUMPDEST PUSH1 0x40 MLOAD PUSH2 0x3D6 SWAP8 SWAP7 SWAP6 SWAP5 SWAP4 SWAP3 SWAP2 SWAP1 PUSH2 0x2079 JUMP JUMPDEST PUSH1 0x40 MLOAD DUP1 SWAP2 SUB SWAP1 RETURN JUMPDEST CALLVALUE DUP1 ISZERO PUSH2 0x3EA JUMPI PUSH0 DUP1 REVERT JUMPDEST POP PUSH2 0x3F3 PUSH2 0xA3E JUMP JUMPDEST PUSH1 0x40 MLOAD PUSH2 0x400 SWAP2 SWAP1 PUSH2 0x20FB JUMP JUMPDEST PUSH1 0x40 MLOAD DUP1 SWAP2 SUB SWAP1 RETURN JUMPDEST CALLVALUE DUP1 ISZERO PUSH2 0x414 JUMPI PUSH0 DUP1 REVERT JUMPDEST POP PUSH2 0x41D PUSH2 0xA66 JUMP JUMPDEST PUSH1 0x40 MLOAD PUSH2 0x42A SWAP2 SWAP1 PUSH2 0x1CE6 JUMP JUMPDEST PUSH1 0x40 MLOAD DUP1 SWAP2 SUB SWAP1 RETURN JUMPDEST CALLVALUE DUP1 ISZERO PUSH2 0x43E JUMPI PUSH0 DUP1 REVERT JUMPDEST POP PUSH2 0x459 PUSH1 0x4 DUP1 CALLDATASIZE SUB DUP2 ADD SWAP1 PUSH2 0x454 SWAP2 SWAP1 PUSH2 0x1E6E JUMP JUMPDEST PUSH2 0xAF6 JUMP JUMPDEST PUSH1 0x40 MLOAD PUSH2 0x466 SWAP2 SWAP1 PUSH2 0x1E17 JUMP JUMPDEST PUSH1 0x40 MLOAD DUP1 SWAP2 SUB SWAP1 RETURN JUMPDEST CALLVALUE DUP1 ISZERO PUSH2 0x47A JUMPI PUSH0 DUP1 REVERT JUMPDEST POP PUSH2 0x495 PUSH1 0x4 DUP1 CALLDATASIZE SUB DUP2 ADD SWAP1 PUSH2 0x490 SWAP2 SWAP1 PUSH2 0x1D97 JUMP JUMPDEST PUSH2 0xB0B JUMP JUMPDEST PUSH1 0x40 MLOAD PUSH2 0x4A2 SWAP2 SWAP1 PUSH2 0x1DEF JUMP JUMPDEST PUSH1 0x40 MLOAD DUP1 SWAP2 SUB SWAP1 RETURN JUMPDEST CALLVALUE DUP1 ISZERO PUSH2 0x4B6 JUMPI PUSH0 DUP1 REVERT JUMPDEST POP PUSH2 0x4D1 PUSH1 0x4 DUP1 CALLDATASIZE SUB DUP2 ADD SWAP1 PUSH2 0x4CC SWAP2 SWAP1 PUSH2 0x2168 JUMP JUMPDEST PUSH2 0xB2D JUMP JUMPDEST STOP JUMPDEST CALLVALUE DUP1 ISZERO PUSH2 0x4DE JUMPI PUSH0 DUP1 REVERT JUMPDEST POP PUSH2 0x4F9 PUSH1 0x4 DUP1 CALLDATASIZE SUB DUP2 ADD SWAP1 PUSH2 0x4F4 SWAP2 SWAP1 PUSH2 0x2205 JUMP JUMPDEST PUSH2 0xC72 JUMP JUMPDEST PUSH1 0x40 MLOAD PUSH2 0x506 SWAP2 SWAP1 PUSH2 0x1E17 JUMP JUMPDEST PUSH1 0x40 MLOAD DUP1 SWAP2 SUB SWAP1 RETURN JUMPDEST PUSH2 0x529 PUSH1 0x4 DUP1 CALLDATASIZE SUB DUP2 ADD SWAP1 PUSH2 0x524 SWAP2 SWAP1 PUSH2 0x1F4E JUMP JUMPDEST PUSH2 0xCF4 JUMP JUMPDEST STOP JUMPDEST CALLVALUE DUP1 ISZERO PUSH2 0x536 JUMPI PUSH0 DUP1 REVERT JUMPDEST POP PUSH2 0x551 PUSH1 0x4 DUP1 CALLDATASIZE SUB DUP2 ADD SWAP1 PUSH2 0x54C SWAP2 SWAP1 PUSH2 0x1E6E JUMP JUMPDEST PUSH2 0xD76 JUMP JUMPDEST STOP JUMPDEST PUSH1 0x60 PUSH1 0x3 DUP1 SLOAD PUSH2 0x562 SWAP1 PUSH2 0x2270 JUMP JUMPDEST DUP1 PUSH1 0x1F ADD PUSH1 0x20 DUP1 SWAP2 DIV MUL PUSH1 0x20 ADD PUSH1 0x40 MLOAD SWAP1 DUP2 ADD PUSH1 0x40 MSTORE DUP1 SWAP3 SWAP2 SWAP1 DUP2 DUP2 MSTORE PUSH1 0x20 ADD DUP3 DUP1 SLOAD PUSH2 0x58E SWAP1 PUSH2 0x2270 JUMP JUMPDEST DUP1 ISZERO PUSH2 0x5D9 JUMPI DUP1 PUSH1 0x1F LT PUSH2 0x5B0 JUMPI PUSH2 0x100 DUP1 DUP4 SLOAD DIV MUL DUP4 MSTORE SWAP2 PUSH1 0x20 ADD SWAP2 PUSH2 0x5D9 JUMP JUMPDEST DUP3 ADD SWAP2 SWAP1 PUSH0 MSTORE PUSH1 0x20 PUSH0 KECCAK256 SWAP1 JUMPDEST DUP2 SLOAD DUP2 MSTORE SWAP1 PUSH1 0x1 ADD SWAP1 PUSH1 0x20 ADD DUP1 DUP4 GT PUSH2 0x5BC JUMPI DUP3 SWAP1 SUB PUSH1 0x1F AND DUP3 ADD SWAP2 JUMPDEST POP POP POP POP POP SWAP1 POP SWAP1 JUMP JUMPDEST PUSH0 DUP1 PUSH2 0x5ED PUSH2 0xDFA JUMP JUMPDEST SWAP1 POP PUSH2 0x5FA DUP2 DUP6 DUP6 PUSH2 0xE01 JUMP JUMPDEST PUSH1 0x1 SWAP2 POP POP SWAP3 SWAP2 POP POP JUMP JUMPDEST PUSH0 PUSH1 0x2 SLOAD SWAP1 POP SWAP1 JUMP JUMPDEST PUSH2 0x616 PUSH2 0xE13 JUMP JUMPDEST PUSH0 PUSH8 0x6F05B59D3B20000 DUP3 DUP5 PUSH2 0x62C SWAP2 SWAP1 PUSH2 0x22CD JUMP JUMPDEST PUSH2 0x636 SWAP2 SWAP1 PUSH2 0x22CD JUMP JUMPDEST SWAP1 POP DUP1 CALLVALUE EQ PUSH2 0x67A JUMPI PUSH1 0x40 MLOAD PUSH32 0x8C379A000000000000000000000000000000000000000000000000000000000 DUP2 MSTORE PUSH1 0x4 ADD PUSH2 0x671 SWAP1 PUSH2 0x23A4 JUMP JUMPDEST PUSH1 0x40 MLOAD DUP1 SWAP2 SUB SWAP1 REVERT JUMPDEST PUSH2 0x684 CALLER DUP5 PUSH2 0xE9A JUMP JUMPDEST CALLVALUE PUSH1 0xA PUSH0 CALLER PUSH20 0xFFFFFFFFFFFFFFFFFFFFFFFFFFFFFFFFFFFFFFFF AND PUSH20 0xFFFFFFFFFFFFFFFFFFFFFFFFFFFFFFFFFFFFFFFF AND DUP2 MSTORE PUSH1 0x20 ADD SWAP1 DUP2 MSTORE PUSH1 0x20 ADD PUSH0 KECCAK256 PUSH0 DUP3 DUP3 SLOAD PUSH2 0x6D0 SWAP2 SWAP1 PUSH2 0x23C2 JUMP JUMPDEST SWAP3 POP POP DUP2 SWAP1 SSTORE POP DUP2 PUSH1 0xB PUSH0 CALLER PUSH20 0xFFFFFFFFFFFFFFFFFFFFFFFFFFFFFFFFFFFFFFFF AND PUSH20 0xFFFFFFFFFFFFFFFFFFFFFFFFFFFFFFFFFFFFFFFF AND DUP2 MSTORE PUSH1 0x20 ADD SWAP1 DUP2 MSTORE PUSH1 0x20 ADD PUSH0 KECCAK256 DUP2 SWAP1 SSTORE POP CALLER PUSH20 0xFFFFFFFFFFFFFFFFFFFFFFFFFFFFFFFFFFFFFFFF AND PUSH32 0x4C209B5FC8AD50758F13E2E1088BA56A560DFF690A1C6FEF26394F4C03821C4F DUP5 DUP4 PUSH1 0x40 MLOAD PUSH2 0x761 SWAP3 SWAP2 SWAP1 PUSH2 0x23F5 JUMP JUMPDEST PUSH1 0x40 MLOAD DUP1 SWAP2 SUB SWAP1 LOG2 POP POP POP JUMP JUMPDEST PUSH1 0xB PUSH1 0x20 MSTORE DUP1 PUSH0 MSTORE PUSH1 0x40 PUSH0 KECCAK256 PUSH0 SWAP2 POP SWAP1 POP SLOAD DUP2 JUMP JUMPDEST PUSH0 DUP1 PUSH2 0x78D PUSH2 0xDFA JUMP JUMPDEST SWAP1 POP PUSH2 0x79A DUP6 DUP3 DUP6 PUSH2 0xF19 JUMP JUMPDEST PUSH2 0x7A5 DUP6 DUP6 DUP6 PUSH2 0xFAB JUMP JUMPDEST PUSH1 0x1 SWAP2 POP POP SWAP4 SWAP3 POP POP POP JUMP JUMPDEST PUSH0 PUSH1 0xA PUSH0 CALLER PUSH20 0xFFFFFFFFFFFFFFFFFFFFFFFFFFFFFFFFFFFFFFFF AND PUSH20 0xFFFFFFFFFFFFFFFFFFFFFFFFFFFFFFFFFFFFFFFF AND DUP2 MSTORE PUSH1 0x20 ADD SWAP1 DUP2 MSTORE PUSH1 0x20 ADD PUSH0 KECCAK256 SLOAD GT PUSH2 0x830 JUMPI PUSH1 0x40 MLOAD PUSH32 0x8C379A000000000000000000000000000000000000000000000000000000000 DUP2 MSTORE PUSH1 0x4 ADD PUSH2 0x827 SWAP1 PUSH2 0x248C JUMP JUMPDEST PUSH1 0x40 MLOAD DUP1 SWAP2 SUB SWAP1 REVERT JUMPDEST PUSH1 0xA PUSH0 CALLER PUSH20 0xFFFFFFFFFFFFFFFFFFFFFFFFFFFFFFFFFFFFFFFF AND PUSH20 0xFFFFFFFFFFFFFFFFFFFFFFFFFFFFFFFFFFFFFFFF AND DUP2 MSTORE PUSH1 0x20 ADD SWAP1 DUP2 MSTORE PUSH1 0x20 ADD PUSH0 KECCAK256 SLOAD PUSH1 0x9 DUP2 SWAP1 SSTORE POP PUSH0 PUSH8 0xDE0B6B3A7640000 PUSH1 0x9 SLOAD PUSH2 0x88B SWAP2 SWAP1 PUSH2 0x24D7 JUMP JUMPDEST SWAP1 POP PUSH0 PUSH2 0x897 CALLER PUSH2 0x910 JUMP JUMPDEST SWAP1 POP CALLER PUSH20 0xFFFFFFFFFFFFFFFFFFFFFFFFFFFFFFFFFFFFFFFF AND PUSH32 0xFA37C0FCDD39AE18D9A309E0B042974CD0D0B435EAD96703FFC6C9273FEAFB1E DUP3 DUP5 PUSH1 0x40 MLOAD PUSH2 0x8E1 SWAP3 SWAP2 SWAP1 PUSH2 0x23F5 JUMP JUMPDEST PUSH1 0x40 MLOAD DUP1 SWAP2 SUB SWAP1 LOG2 POP POP JUMP JUMPDEST PUSH0 PUSH1 0x12 SWAP1 POP SWAP1 JUMP JUMPDEST PUSH0 PUSH2 0x8FE PUSH2 0x109B JUMP JUMPDEST SWAP1 POP SWAP1 JUMP JUMPDEST PUSH2 0x90D CALLER DUP3 PUSH2 0x1151 JUMP JUMPDEST POP JUMP JUMPDEST PUSH0 DUP1 PUSH0 DUP4 PUSH20 0xFFFFFFFFFFFFFFFFFFFFFFFFFFFFFFFFFFFFFFFF AND PUSH20 0xFFFFFFFFFFFFFFFFFFFFFFFFFFFFFFFFFFFFFFFF AND DUP2 MSTORE PUSH1 0x20 ADD SWAP1 DUP2 MSTORE PUSH1 0x20 ADD PUSH0 KECCAK256 SLOAD SWAP1 POP SWAP2 SWAP1 POP JUMP JUMPDEST PUSH2 0x95D PUSH2 0xE13 JUMP JUMPDEST PUSH2 0x966 PUSH0 PUSH2 0x11D0 JUMP JUMPDEST JUMP JUMPDEST PUSH2 0x97A DUP3 PUSH2 0x974 PUSH2 0xDFA JUMP JUMPDEST DUP4 PUSH2 0xF19 JUMP JUMPDEST PUSH2 0x984 DUP3 DUP3 PUSH2 0x1151 JUMP JUMPDEST POP POP JUMP JUMPDEST PUSH0 PUSH2 0x992 DUP3 PUSH2 0x1293 JUMP JUMPDEST SWAP1 POP SWAP2 SWAP1 POP JUMP JUMPDEST PUSH0 PUSH1 0x60 DUP1 PUSH0 DUP1 PUSH0 PUSH1 0x60 PUSH2 0x9AA PUSH2 0x12D9 JUMP JUMPDEST PUSH2 0x9B2 PUSH2 0x1314 JUMP JUMPDEST CHAINID ADDRESS PUSH0 DUP1 SHL PUSH0 PUSH8 0xFFFFFFFFFFFFFFFF DUP2 GT ISZERO PUSH2 0x9D1 JUMPI PUSH2 0x9D0 PUSH2 0x2507 JUMP JUMPDEST JUMPDEST PUSH1 0x40 MLOAD SWAP1 DUP1 DUP3 MSTORE DUP1 PUSH1 0x20 MUL PUSH1 0x20 ADD DUP3 ADD PUSH1 0x40 MSTORE DUP1 ISZERO PUSH2 0x9FF JUMPI DUP2 PUSH1 0x20 ADD PUSH1 0x20 DUP3 MUL DUP1 CALLDATASIZE DUP4 CALLDATACOPY DUP1 DUP3 ADD SWAP2 POP POP SWAP1 POP JUMPDEST POP PUSH32 0xF00000000000000000000000000000000000000000000000000000000000000 SWAP6 SWAP5 SWAP4 SWAP3 SWAP2 SWAP1 SWAP7 POP SWAP7 POP SWAP7 POP SWAP7 POP SWAP7 POP SWAP7 POP SWAP7 POP SWAP1 SWAP2 SWAP3 SWAP4 SWAP5 SWAP6 SWAP7 JUMP JUMPDEST PUSH0 PUSH1 0x5 PUSH0 SWAP1 SLOAD SWAP1 PUSH2 0x100 EXP SWAP1 DIV PUSH20 0xFFFFFFFFFFFFFFFFFFFFFFFFFFFFFFFFFFFFFFFF AND SWAP1 POP SWAP1 JUMP JUMPDEST PUSH1 0x60 PUSH1 0x4 DUP1 SLOAD PUSH2 0xA75 SWAP1 PUSH2 0x2270 JUMP JUMPDEST DUP1 PUSH1 0x1F ADD PUSH1 0x20 DUP1 SWAP2 DIV MUL PUSH1 0x20 ADD PUSH1 0x40 MLOAD SWAP1 DUP2 ADD PUSH1 0x40 MSTORE DUP1 SWAP3 SWAP2 SWAP1 DUP2 DUP2 MSTORE PUSH1 0x20 ADD DUP3 DUP1 SLOAD PUSH2 0xAA1 SWAP1 PUSH2 0x2270 JUMP JUMPDEST DUP1 ISZERO PUSH2 0xAEC JUMPI DUP1 PUSH1 0x1F LT PUSH2 0xAC3 JUMPI PUSH2 0x100 DUP1 DUP4 SLOAD DIV MUL DUP4 MSTORE SWAP2 PUSH1 0x20 ADD SWAP2 PUSH2 0xAEC JUMP JUMPDEST DUP3 ADD SWAP2 SWAP1 PUSH0 MSTORE PUSH1 0x20 PUSH0 KECCAK256 SWAP1 JUMPDEST DUP2 SLOAD DUP2 MSTORE SWAP1 PUSH1 0x1 ADD SWAP1 PUSH1 0x20 ADD DUP1 DUP4 GT PUSH2 0xACF JUMPI DUP3 SWAP1 SUB PUSH1 0x1F AND DUP3 ADD SWAP2 JUMPDEST POP POP POP POP POP SWAP1 POP SWAP1 JUMP JUMPDEST PUSH1 0xA PUSH1 0x20 MSTORE DUP1 PUSH0 MSTORE PUSH1 0x40 PUSH0 KECCAK256 PUSH0 SWAP2 POP SWAP1 POP SLOAD DUP2 JUMP JUMPDEST PUSH0 DUP1 PUSH2 0xB15 PUSH2 0xDFA JUMP JUMPDEST SWAP1 POP PUSH2 0xB22 DUP2 DUP6 DUP6 PUSH2 0xFAB JUMP JUMPDEST PUSH1 0x1 SWAP2 POP POP SWAP3 SWAP2 POP POP JUMP JUMPDEST DUP4 TIMESTAMP GT ISZERO PUSH2 0xB72 JUMPI DUP4 PUSH1 0x40 MLOAD PUSH32 0x6279130200000000000000000000000000000000000000000000000000000000 DUP2 MSTORE PUSH1 0x4 ADD PUSH2 0xB69 SWAP2 SWAP1 PUSH2 0x1E17 JUMP JUMPDEST PUSH1 0x40 MLOAD DUP1 SWAP2 SUB SWAP1 REVERT JUMPDEST PUSH0 PUSH32 0x6E71EDAE12B1B97F4D1F60370FEF10105FA2FAAE0126114A169C64845D6126C9 DUP9 DUP9 DUP9 PUSH2 0xBA0 DUP13 PUSH2 0x134F JUMP JUMPDEST DUP10 PUSH1 0x40 MLOAD PUSH1 0x20 ADD PUSH2 0xBB6 SWAP7 SWAP6 SWAP5 SWAP4 SWAP3 SWAP2 SWAP1 PUSH2 0x2534 JUMP JUMPDEST PUSH1 0x40 MLOAD PUSH1 0x20 DUP2 DUP4 SUB SUB DUP2 MSTORE SWAP1 PUSH1 0x40 MSTORE DUP1 MLOAD SWAP1 PUSH1 0x20 ADD KECCAK256 SWAP1 POP PUSH0 PUSH2 0xBD8 DUP3 PUSH2 0x13A2 JUMP JUMPDEST SWAP1 POP PUSH0 PUSH2 0xBE7 DUP3 DUP8 DUP8 DUP8 PUSH2 0x13BB JUMP JUMPDEST SWAP1 POP DUP10 PUSH20 0xFFFFFFFFFFFFFFFFFFFFFFFFFFFFFFFFFFFFFFFF AND DUP2 PUSH20 0xFFFFFFFFFFFFFFFFFFFFFFFFFFFFFFFFFFFFFFFF AND EQ PUSH2 0xC5B JUMPI DUP1 DUP11 PUSH1 0x40 MLOAD PUSH32 0x4B800E4600000000000000000000000000000000000000000000000000000000 DUP2 MSTORE PUSH1 0x4 ADD PUSH2 0xC52 SWAP3 SWAP2 SWAP1 PUSH2 0x2593 JUMP JUMPDEST PUSH1 0x40 MLOAD DUP1 SWAP2 SUB SWAP1 REVERT JUMPDEST PUSH2 0xC66 DUP11 DUP11 DUP11 PUSH2 0xE01 JUMP JUMPDEST POP POP POP POP POP POP POP POP POP POP JUMP JUMPDEST PUSH0 PUSH1 0x1 PUSH0 DUP5 PUSH20 0xFFFFFFFFFFFFFFFFFFFFFFFFFFFFFFFFFFFFFFFF AND PUSH20 0xFFFFFFFFFFFFFFFFFFFFFFFFFFFFFFFFFFFFFFFF AND DUP2 MSTORE PUSH1 0x20 ADD SWAP1 DUP2 MSTORE PUSH1 0x20 ADD PUSH0 KECCAK256 PUSH0 DUP4 PUSH20 0xFFFFFFFFFFFFFFFFFFFFFFFFFFFFFFFFFFFFFFFF AND PUSH20 0xFFFFFFFFFFFFFFFFFFFFFFFFFFFFFFFFFFFFFFFF AND DUP2 MSTORE PUSH1 0x20 ADD SWAP1 DUP2 MSTORE PUSH1 0x20 ADD PUSH0 KECCAK256 SLOAD SWAP1 POP SWAP3 SWAP2 POP POP JUMP JUMPDEST PUSH0 PUSH1 0xA PUSH0 CALLER PUSH20 0xFFFFFFFFFFFFFFFFFFFFFFFFFFFFFFFFFFFFFFFF AND PUSH20 0xFFFFFFFFFFFFFFFFFFFFFFFFFFFFFFFFFFFFFFFF AND DUP2 MSTORE PUSH1 0x20 ADD SWAP1 DUP2 MSTORE PUSH1 0x20 ADD PUSH0 KECCAK256 SLOAD GT PUSH2 0xD73 JUMPI PUSH1 0x40 MLOAD PUSH32 0x8C379A000000000000000000000000000000000000000000000000000000000 DUP2 MSTORE PUSH1 0x4 ADD PUSH2 0xD6A SWAP1 PUSH2 0x248C JUMP JUMPDEST PUSH1 0x40 MLOAD DUP1 SWAP2 SUB SWAP1 REVERT JUMPDEST POP JUMP JUMPDEST PUSH2 0xD7E PUSH2 0xE13 JUMP JUMPDEST PUSH0 PUSH20 0xFFFFFFFFFFFFFFFFFFFFFFFFFFFFFFFFFFFFFFFF AND DUP2 PUSH20 0xFFFFFFFFFFFFFFFFFFFFFFFFFFFFFFFFFFFFFFFF AND SUB PUSH2 0xDEE JUMPI PUSH0 PUSH1 0x40 MLOAD PUSH32 0x1E4FBDF700000000000000000000000000000000000000000000000000000000 DUP2 MSTORE PUSH1 0x4 ADD PUSH2 0xDE5 SWAP2 SWAP1 PUSH2 0x20FB JUMP JUMPDEST PUSH1 0x40 MLOAD DUP1 SWAP2 SUB SWAP1 REVERT JUMPDEST PUSH2 0xDF7 DUP2 PUSH2 0x11D0 JUMP JUMPDEST POP JUMP JUMPDEST PUSH0 CALLER SWAP1 POP SWAP1 JUMP JUMPDEST PUSH2 0xE0E DUP4 DUP4 DUP4 PUSH1 0x1 PUSH2 0x13E9 JUMP JUMPDEST POP POP POP JUMP JUMPDEST PUSH2 0xE1B PUSH2 0xDFA JUMP JUMPDEST PUSH20 0xFFFFFFFFFFFFFFFFFFFFFFFFFFFFFFFFFFFFFFFF AND PUSH2 0xE39 PUSH2 0xA3E JUMP JUMPDEST PUSH20 0xFFFFFFFFFFFFFFFFFFFFFFFFFFFFFFFFFFFFFFFF AND EQ PUSH2 0xE98 JUMPI PUSH2 0xE5C PUSH2 0xDFA JUMP JUMPDEST PUSH1 0x40 MLOAD PUSH32 0x118CDAA700000000000000000000000000000000000000000000000000000000 DUP2 MSTORE PUSH1 0x4 ADD PUSH2 0xE8F SWAP2 SWAP1 PUSH2 0x20FB JUMP JUMPDEST PUSH1 0x40 MLOAD DUP1 SWAP2 SUB SWAP1 REVERT JUMPDEST JUMP JUMPDEST PUSH0 PUSH20 0xFFFFFFFFFFFFFFFFFFFFFFFFFFFFFFFFFFFFFFFF AND DUP3 PUSH20 0xFFFFFFFFFFFFFFFFFFFFFFFFFFFFFFFFFFFFFFFF AND SUB PUSH2 0xF0A JUMPI PUSH0 PUSH1 0x40 MLOAD PUSH32 0xEC442F0500000000000000000000000000000000000000000000000000000000 DUP2 MSTORE PUSH1 0x4 ADD PUSH2 0xF01 SWAP2 SWAP1 PUSH2 0x20FB JUMP JUMPDEST PUSH1 0x40 MLOAD DUP1 SWAP2 SUB SWAP1 REVERT JUMPDEST PUSH2 0xF15 PUSH0 DUP4 DUP4 PUSH2 0x15B8 JUMP JUMPDEST POP POP JUMP JUMPDEST PUSH0 PUSH2 0xF24 DUP5 DUP5 PUSH2 0xC72 JUMP JUMPDEST SWAP1 POP PUSH32 0xFFFFFFFFFFFFFFFFFFFFFFFFFFFFFFFFFFFFFFFFFFFFFFFFFFFFFFFFFFFFFFFF DUP2 EQ PUSH2 0xFA5 JUMPI DUP2 DUP2 LT ISZERO PUSH2 0xF96 JUMPI DUP3 DUP2 DUP4 PUSH1 0x40 MLOAD PUSH32 0xFB8F41B200000000000000000000000000000000000000000000000000000000 DUP2 MSTORE PUSH1 0x4 ADD PUSH2 0xF8D SWAP4 SWAP3 SWAP2 SWAP1 PUSH2 0x25BA JUMP JUMPDEST PUSH1 0x40 MLOAD DUP1 SWAP2 SUB SWAP1 REVERT JUMPDEST PUSH2 0xFA4 DUP5 DUP5 DUP5 DUP5 SUB PUSH0 PUSH2 0x13E9 JUMP JUMPDEST JUMPDEST POP POP POP POP JUMP JUMPDEST PUSH0 PUSH20 0xFFFFFFFFFFFFFFFFFFFFFFFFFFFFFFFFFFFFFFFF AND DUP4 PUSH20 0xFFFFFFFFFFFFFFFFFFFFFFFFFFFFFFFFFFFFFFFF AND SUB PUSH2 0x101B JUMPI PUSH0 PUSH1 0x40 MLOAD PUSH32 0x96C6FD1E00000000000000000000000000000000000000000000000000000000 DUP2 MSTORE PUSH1 0x4 ADD PUSH2 0x1012 SWAP2 SWAP1 PUSH2 0x20FB JUMP JUMPDEST PUSH1 0x40 MLOAD DUP1 SWAP2 SUB SWAP1 REVERT JUMPDEST PUSH0 PUSH20 0xFFFFFFFFFFFFFFFFFFFFFFFFFFFFFFFFFFFFFFFF AND DUP3 PUSH20 0xFFFFFFFFFFFFFFFFFFFFFFFFFFFFFFFFFFFFFFFF AND SUB PUSH2 0x108B JUMPI PUSH0 PUSH1 0x40 MLOAD PUSH32 0xEC442F0500000000000000000000000000000000000000000000000000000000 DUP2 MSTORE PUSH1 0x4 ADD PUSH2 0x1082 SWAP2 SWAP1 PUSH2 0x20FB JUMP JUMPDEST PUSH1 0x40 MLOAD DUP1 SWAP2 SUB SWAP1 REVERT JUMPDEST PUSH2 0x1096 DUP4 DUP4 DUP4 PUSH2 0x15B8 JUMP JUMPDEST POP POP POP JUMP JUMPDEST PUSH0 PUSH32 0x0 PUSH20 0xFFFFFFFFFFFFFFFFFFFFFFFFFFFFFFFFFFFFFFFF AND ADDRESS PUSH20 0xFFFFFFFFFFFFFFFFFFFFFFFFFFFFFFFFFFFFFFFF AND EQ DUP1 ISZERO PUSH2 0x1116 JUMPI POP PUSH32 0x0 CHAINID EQ JUMPDEST ISZERO PUSH2 0x1143 JUMPI PUSH32 0x0 SWAP1 POP PUSH2 0x114E JUMP JUMPDEST PUSH2 0x114B PUSH2 0x17D1 JUMP JUMPDEST SWAP1 POP JUMPDEST SWAP1 JUMP JUMPDEST PUSH0 PUSH20 0xFFFFFFFFFFFFFFFFFFFFFFFFFFFFFFFFFFFFFFFF AND DUP3 PUSH20 0xFFFFFFFFFFFFFFFFFFFFFFFFFFFFFFFFFFFFFFFF AND SUB PUSH2 0x11C1 JUMPI PUSH0 PUSH1 0x40 MLOAD PUSH32 0x96C6FD1E00000000000000000000000000000000000000000000000000000000 DUP2 MSTORE PUSH1 0x4 ADD PUSH2 0x11B8 SWAP2 SWAP1 PUSH2 0x20FB JUMP JUMPDEST PUSH1 0x40 MLOAD DUP1 SWAP2 SUB SWAP1 REVERT JUMPDEST PUSH2 0x11CC DUP3 PUSH0 DUP4 PUSH2 0x15B8 JUMP JUMPDEST POP POP JUMP JUMPDEST PUSH0 PUSH1 0x5 PUSH0 SWAP1 SLOAD SWAP1 PUSH2 0x100 EXP SWAP1 DIV PUSH20 0xFFFFFFFFFFFFFFFFFFFFFFFFFFFFFFFFFFFFFFFF AND SWAP1 POP DUP2 PUSH1 0x5 PUSH0 PUSH2 0x100 EXP DUP2 SLOAD DUP2 PUSH20 0xFFFFFFFFFFFFFFFFFFFFFFFFFFFFFFFFFFFFFFFF MUL NOT AND SWAP1 DUP4 PUSH20 0xFFFFFFFFFFFFFFFFFFFFFFFFFFFFFFFFFFFFFFFF AND MUL OR SWAP1 SSTORE POP DUP2 PUSH20 0xFFFFFFFFFFFFFFFFFFFFFFFFFFFFFFFFFFFFFFFF AND DUP2 PUSH20 0xFFFFFFFFFFFFFFFFFFFFFFFFFFFFFFFFFFFFFFFF AND PUSH32 0x8BE0079C531659141344CD1FD0A4F28419497F9722A3DAAFE3B4186F6B6457E0 PUSH1 0x40 MLOAD PUSH1 0x40 MLOAD DUP1 SWAP2 SUB SWAP1 LOG3 POP POP JUMP JUMPDEST PUSH0 PUSH1 0x8 PUSH0 DUP4 PUSH20 0xFFFFFFFFFFFFFFFFFFFFFFFFFFFFFFFFFFFFFFFF AND PUSH20 0xFFFFFFFFFFFFFFFFFFFFFFFFFFFFFFFFFFFFFFFF AND DUP2 MSTORE PUSH1 0x20 ADD SWAP1 DUP2 MSTORE PUSH1 0x20 ADD PUSH0 KECCAK256 SLOAD SWAP1 POP SWAP2 SWAP1 POP JUMP JUMPDEST PUSH1 0x60 PUSH2 0x130F PUSH1 0x6 PUSH32 0x0 PUSH2 0x1866 SWAP1 SWAP2 SWAP1 PUSH4 0xFFFFFFFF AND JUMP JUMPDEST SWAP1 POP SWAP1 JUMP JUMPDEST PUSH1 0x60 PUSH2 0x134A PUSH1 0x7 PUSH32 0x0 PUSH2 0x1866 SWAP1 SWAP2 SWAP1 PUSH4 0xFFFFFFFF AND JUMP JUMPDEST SWAP1 POP SWAP1 JUMP JUMPDEST PUSH0 PUSH1 0x8 PUSH0 DUP4 PUSH20 0xFFFFFFFFFFFFFFFFFFFFFFFFFFFFFFFFFFFFFFFF AND PUSH20 0xFFFFFFFFFFFFFFFFFFFFFFFFFFFFFFFFFFFFFFFF AND DUP2 MSTORE PUSH1 0x20 ADD SWAP1 DUP2 MSTORE PUSH1 0x20 ADD PUSH0 KECCAK256 PUSH0 DUP2 SLOAD DUP1 SWAP3 SWAP2 SWAP1 PUSH1 0x1 ADD SWAP2 SWAP1 POP SSTORE SWAP1 POP SWAP2 SWAP1 POP JUMP JUMPDEST PUSH0 PUSH2 0x13B4 PUSH2 0x13AE PUSH2 0x109B JUMP JUMPDEST DUP4 PUSH2 0x1913 JUMP JUMPDEST SWAP1 POP SWAP2 SWAP1 POP JUMP JUMPDEST PUSH0 DUP1 PUSH0 DUP1 PUSH2 0x13CB DUP9 DUP9 DUP9 DUP9 PUSH2 0x1953 JUMP JUMPDEST SWAP3 POP SWAP3 POP SWAP3 POP PUSH2 0x13DB DUP3 DUP3 PUSH2 0x1A3A JUMP JUMPDEST DUP3 SWAP4 POP POP POP POP SWAP5 SWAP4 POP POP POP POP JUMP JUMPDEST PUSH0 PUSH20 0xFFFFFFFFFFFFFFFFFFFFFFFFFFFFFFFFFFFFFFFF AND DUP5 PUSH20 0xFFFFFFFFFFFFFFFFFFFFFFFFFFFFFFFFFFFFFFFF AND SUB PUSH2 0x1459 JUMPI PUSH0 PUSH1 0x40 MLOAD PUSH32 0xE602DF0500000000000000000000000000000000000000000000000000000000 DUP2 MSTORE PUSH1 0x4 ADD PUSH2 0x1450 SWAP2 SWAP1 PUSH2 0x20FB JUMP JUMPDEST PUSH1 0x40 MLOAD DUP1 SWAP2 SUB SWAP1 REVERT JUMPDEST PUSH0 PUSH20 0xFFFFFFFFFFFFFFFFFFFFFFFFFFFFFFFFFFFFFFFF AND DUP4 PUSH20 0xFFFFFFFFFFFFFFFFFFFFFFFFFFFFFFFFFFFFFFFF AND SUB PUSH2 0x14C9 JUMPI PUSH0 PUSH1 0x40 MLOAD PUSH32 0x94280D6200000000000000000000000000000000000000000000000000000000 DUP2 MSTORE PUSH1 0x4 ADD PUSH2 0x14C0 SWAP2 SWAP1 PUSH2 0x20FB JUMP JUMPDEST PUSH1 0x40 MLOAD DUP1 SWAP2 SUB SWAP1 REVERT JUMPDEST DUP2 PUSH1 0x1 PUSH0 DUP7 PUSH20 0xFFFFFFFFFFFFFFFFFFFFFFFFFFFFFFFFFFFFFFFF AND PUSH20 0xFFFFFFFFFFFFFFFFFFFFFFFFFFFFFFFFFFFFFFFF AND DUP2 MSTORE PUSH1 0x20 ADD SWAP1 DUP2 MSTORE PUSH1 0x20 ADD PUSH0 KECCAK256 PUSH0 DUP6 PUSH20 0xFFFFFFFFFFFFFFFFFFFFFFFFFFFFFFFFFFFFFFFF AND PUSH20 0xFFFFFFFFFFFFFFFFFFFFFFFFFFFFFFFFFFFFFFFF AND DUP2 MSTORE PUSH1 0x20 ADD SWAP1 DUP2 MSTORE PUSH1 0x20 ADD PUSH0 KECCAK256 DUP2 SWAP1 SSTORE POP DUP1 ISZERO PUSH2 0x15B2 JUMPI DUP3 PUSH20 0xFFFFFFFFFFFFFFFFFFFFFFFFFFFFFFFFFFFFFFFF AND DUP5 PUSH20 0xFFFFFFFFFFFFFFFFFFFFFFFFFFFFFFFFFFFFFFFF AND PUSH32 0x8C5BE1E5EBEC7D5BD14F71427D1E84F3DD0314C0F7B2291E5B200AC8C7C3B925 DUP5 PUSH1 0x40 MLOAD PUSH2 0x15A9 SWAP2 SWAP1 PUSH2 0x1E17 JUMP JUMPDEST PUSH1 0x40 MLOAD DUP1 SWAP2 SUB SWAP1 LOG3 JUMPDEST POP POP POP POP JUMP JUMPDEST PUSH0 PUSH20 0xFFFFFFFFFFFFFFFFFFFFFFFFFFFFFFFFFFFFFFFF AND DUP4 PUSH20 0xFFFFFFFFFFFFFFFFFFFFFFFFFFFFFFFFFFFFFFFF AND SUB PUSH2 0x1608 JUMPI DUP1 PUSH1 0x2 PUSH0 DUP3 DUP3 SLOAD PUSH2 0x15FC SWAP2 SWAP1 PUSH2 0x23C2 JUMP JUMPDEST SWAP3 POP POP DUP2 SWAP1 SSTORE POP PUSH2 0x16D6 JUMP JUMPDEST PUSH0 DUP1 PUSH0 DUP6 PUSH20 0xFFFFFFFFFFFFFFFFFFFFFFFFFFFFFFFFFFFFFFFF AND PUSH20 0xFFFFFFFFFFFFFFFFFFFFFFFFFFFFFFFFFFFFFFFF AND DUP2 MSTORE PUSH1 0x20 ADD SWAP1 DUP2 MSTORE PUSH1 0x20 ADD PUSH0 KECCAK256 SLOAD SWAP1 POP DUP2 DUP2 LT ISZERO PUSH2 0x1691 JUMPI DUP4 DUP2 DUP4 PUSH1 0x40 MLOAD PUSH32 0xE450D38C00000000000000000000000000000000000000000000000000000000 DUP2 MSTORE PUSH1 0x4 ADD PUSH2 0x1688 SWAP4 SWAP3 SWAP2 SWAP1 PUSH2 0x25BA JUMP JUMPDEST PUSH1 0x40 MLOAD DUP1 SWAP2 SUB SWAP1 REVERT JUMPDEST DUP2 DUP2 SUB PUSH0 DUP1 DUP7 PUSH20 0xFFFFFFFFFFFFFFFFFFFFFFFFFFFFFFFFFFFFFFFF AND PUSH20 0xFFFFFFFFFFFFFFFFFFFFFFFFFFFFFFFFFFFFFFFF AND DUP2 MSTORE PUSH1 0x20 ADD SWAP1 DUP2 MSTORE PUSH1 0x20 ADD PUSH0 KECCAK256 DUP2 SWAP1 SSTORE POP POP JUMPDEST PUSH0 PUSH20 0xFFFFFFFFFFFFFFFFFFFFFFFFFFFFFFFFFFFFFFFF AND DUP3 PUSH20 0xFFFFFFFFFFFFFFFFFFFFFFFFFFFFFFFFFFFFFFFF AND SUB PUSH2 0x171D JUMPI DUP1 PUSH1 0x2 PUSH0 DUP3 DUP3 SLOAD SUB SWAP3 POP POP DUP2 SWAP1 SSTORE POP PUSH2 0x1767 JUMP JUMPDEST DUP1 PUSH0 DUP1 DUP5 PUSH20 0xFFFFFFFFFFFFFFFFFFFFFFFFFFFFFFFFFFFFFFFF AND PUSH20 0xFFFFFFFFFFFFFFFFFFFFFFFFFFFFFFFFFFFFFFFF AND DUP2 MSTORE PUSH1 0x20 ADD SWAP1 DUP2 MSTORE PUSH1 0x20 ADD PUSH0 KECCAK256 PUSH0 DUP3 DUP3 SLOAD ADD SWAP3 POP POP DUP2 SWAP1 SSTORE POP JUMPDEST DUP2 PUSH20 0xFFFFFFFFFFFFFFFFFFFFFFFFFFFFFFFFFFFFFFFF AND DUP4 PUSH20 0xFFFFFFFFFFFFFFFFFFFFFFFFFFFFFFFFFFFFFFFF AND PUSH32 0xDDF252AD1BE2C89B69C2B068FC378DAA952BA7F163C4A11628F55A4DF523B3EF DUP4 PUSH1 0x40 MLOAD PUSH2 0x17C4 SWAP2 SWAP1 PUSH2 0x1E17 JUMP JUMPDEST PUSH1 0x40 MLOAD DUP1 SWAP2 SUB SWAP1 LOG3 POP POP POP JUMP JUMPDEST PUSH0 PUSH32 0x8B73C3C69BB8FE3D512ECC4CF759CC79239F7B179B0FFACAA9A75D522B39400F PUSH32 0x0 PUSH32 0x0 CHAINID ADDRESS PUSH1 0x40 MLOAD PUSH1 0x20 ADD PUSH2 0x184B SWAP6 SWAP5 SWAP4 SWAP3 SWAP2 SWAP1 PUSH2 0x25EF JUMP JUMPDEST PUSH1 0x40 MLOAD PUSH1 0x20 DUP2 DUP4 SUB SUB DUP2 MSTORE SWAP1 PUSH1 0x40 MSTORE DUP1 MLOAD SWAP1 PUSH1 0x20 ADD KECCAK256 SWAP1 POP SWAP1 JUMP JUMPDEST PUSH1 0x60 PUSH1 0xFF PUSH0 SHL DUP4 EQ PUSH2 0x1882 JUMPI PUSH2 0x187B DUP4 PUSH2 0x1B9C JUMP JUMPDEST SWAP1 POP PUSH2 0x190D JUMP JUMPDEST DUP2 DUP1 SLOAD PUSH2 0x188E SWAP1 PUSH2 0x2270 JUMP JUMPDEST DUP1 PUSH1 0x1F ADD PUSH1 0x20 DUP1 SWAP2 DIV MUL PUSH1 0x20 ADD PUSH1 0x40 MLOAD SWAP1 DUP2 ADD PUSH1 0x40 MSTORE DUP1 SWAP3 SWAP2 SWAP1 DUP2 DUP2 MSTORE PUSH1 0x20 ADD DUP3 DUP1 SLOAD PUSH2 0x18BA SWAP1 PUSH2 0x2270 JUMP JUMPDEST DUP1 ISZERO PUSH2 0x1905 JUMPI DUP1 PUSH1 0x1F LT PUSH2 0x18DC JUMPI PUSH2 0x100 DUP1 DUP4 SLOAD DIV MUL DUP4 MSTORE SWAP2 PUSH1 0x20 ADD SWAP2 PUSH2 0x1905 JUMP JUMPDEST DUP3 ADD SWAP2 SWAP1 PUSH0 MSTORE PUSH1 0x20 PUSH0 KECCAK256 SWAP1 JUMPDEST DUP2 SLOAD DUP2 MSTORE SWAP1 PUSH1 0x1 ADD SWAP1 PUSH1 0x20 ADD DUP1 DUP4 GT PUSH2 0x18E8 JUMPI DUP3 SWAP1 SUB PUSH1 0x1F AND DUP3 ADD SWAP2 JUMPDEST POP POP POP POP POP SWAP1 POP JUMPDEST SWAP3 SWAP2 POP POP JUMP JUMPDEST PUSH0 PUSH1 0x40 MLOAD PUSH32 0x1901000000000000000000000000000000000000000000000000000000000000 DUP2 MSTORE DUP4 PUSH1 0x2 DUP3 ADD MSTORE DUP3 PUSH1 0x22 DUP3 ADD MSTORE PUSH1 0x42 DUP2 KECCAK256 SWAP2 POP POP SWAP3 SWAP2 POP POP JUMP JUMPDEST PUSH0 DUP1 PUSH0 PUSH32 0x7FFFFFFFFFFFFFFFFFFFFFFFFFFFFFFF5D576E7357A4501DDFE92F46681B20A0 DUP5 PUSH0 SHR GT ISZERO PUSH2 0x198F JUMPI PUSH0 PUSH1 0x3 DUP6 SWAP3 POP SWAP3 POP SWAP3 POP PUSH2 0x1A30 JUMP JUMPDEST PUSH0 PUSH1 0x1 DUP9 DUP9 DUP9 DUP9 PUSH1 0x40 MLOAD PUSH0 DUP2 MSTORE PUSH1 0x20 ADD PUSH1 0x40 MSTORE PUSH1 0x40 MLOAD PUSH2 0x19B2 SWAP5 SWAP4 SWAP3 SWAP2 SWAP1 PUSH2 0x2640 JUMP JUMPDEST PUSH1 0x20 PUSH1 0x40 MLOAD PUSH1 0x20 DUP2 SUB SWAP1 DUP1 DUP5 SUB SWAP1 DUP6 GAS STATICCALL ISZERO DUP1 ISZERO PUSH2 0x19D2 JUMPI RETURNDATASIZE PUSH0 DUP1 RETURNDATACOPY RETURNDATASIZE PUSH0 REVERT JUMPDEST POP POP POP PUSH1 0x20 PUSH1 0x40 MLOAD SUB MLOAD SWAP1 POP PUSH0 PUSH20 0xFFFFFFFFFFFFFFFFFFFFFFFFFFFFFFFFFFFFFFFF AND DUP2 PUSH20 0xFFFFFFFFFFFFFFFFFFFFFFFFFFFFFFFFFFFFFFFF AND SUB PUSH2 0x1A23 JUMPI PUSH0 PUSH1 0x1 PUSH0 DUP1 SHL SWAP4 POP SWAP4 POP SWAP4 POP POP PUSH2 0x1A30 JUMP JUMPDEST DUP1 PUSH0 DUP1 PUSH0 SHL SWAP4 POP SWAP4 POP SWAP4 POP POP JUMPDEST SWAP5 POP SWAP5 POP SWAP5 SWAP2 POP POP JUMP JUMPDEST PUSH0 PUSH1 0x3 DUP2 GT ISZERO PUSH2 0x1A4D JUMPI PUSH2 0x1A4C PUSH2 0x2683 JUMP JUMPDEST JUMPDEST DUP3 PUSH1 0x3 DUP2 GT ISZERO PUSH2 0x1A60 JUMPI PUSH2 0x1A5F PUSH2 0x2683 JUMP JUMPDEST JUMPDEST SUB ISZERO PUSH2 0x1B98 JUMPI PUSH1 0x1 PUSH1 0x3 DUP2 GT ISZERO PUSH2 0x1A7A JUMPI PUSH2 0x1A79 PUSH2 0x2683 JUMP JUMPDEST JUMPDEST DUP3 PUSH1 0x3 DUP2 GT ISZERO PUSH2 0x1A8D JUMPI PUSH2 0x1A8C PUSH2 0x2683 JUMP JUMPDEST JUMPDEST SUB PUSH2 0x1AC4 JUMPI PUSH1 0x40 MLOAD PUSH32 0xF645EEDF00000000000000000000000000000000000000000000000000000000 DUP2 MSTORE PUSH1 0x4 ADD PUSH1 0x40 MLOAD DUP1 SWAP2 SUB SWAP1 REVERT JUMPDEST PUSH1 0x2 PUSH1 0x3 DUP2 GT ISZERO PUSH2 0x1AD8 JUMPI PUSH2 0x1AD7 PUSH2 0x2683 JUMP JUMPDEST JUMPDEST DUP3 PUSH1 0x3 DUP2 GT ISZERO PUSH2 0x1AEB JUMPI PUSH2 0x1AEA PUSH2 0x2683 JUMP JUMPDEST JUMPDEST SUB PUSH2 0x1B2F JUMPI DUP1 PUSH0 SHR PUSH1 0x40 MLOAD PUSH32 0xFCE698F700000000000000000000000000000000000000000000000000000000 DUP2 MSTORE PUSH1 0x4 ADD PUSH2 0x1B26 SWAP2 SWAP1 PUSH2 0x1E17 JUMP JUMPDEST PUSH1 0x40 MLOAD DUP1 SWAP2 SUB SWAP1 REVERT JUMPDEST PUSH1 0x3 DUP1 DUP2 GT ISZERO PUSH2 0x1B42 JUMPI PUSH2 0x1B41 PUSH2 0x2683 JUMP JUMPDEST JUMPDEST DUP3 PUSH1 0x3 DUP2 GT ISZERO PUSH2 0x1B55 JUMPI PUSH2 0x1B54 PUSH2 0x2683 JUMP JUMPDEST JUMPDEST SUB PUSH2 0x1B97 JUMPI DUP1 PUSH1 0x40 MLOAD PUSH32 0xD78BCE0C00000000000000000000000000000000000000000000000000000000 DUP2 MSTORE PUSH1 0x4 ADD PUSH2 0x1B8E SWAP2 SWAP1 PUSH2 0x1F35 JUMP JUMPDEST PUSH1 0x40 MLOAD DUP1 SWAP2 SUB SWAP1 REVERT JUMPDEST JUMPDEST POP POP JUMP JUMPDEST PUSH1 0x60 PUSH0 PUSH2 0x1BA8 DUP4 PUSH2 0x1C0E JUMP JUMPDEST SWAP1 POP PUSH0 PUSH1 0x20 PUSH8 0xFFFFFFFFFFFFFFFF DUP2 GT ISZERO PUSH2 0x1BC6 JUMPI PUSH2 0x1BC5 PUSH2 0x2507 JUMP JUMPDEST JUMPDEST PUSH1 0x40 MLOAD SWAP1 DUP1 DUP3 MSTORE DUP1 PUSH1 0x1F ADD PUSH1 0x1F NOT AND PUSH1 0x20 ADD DUP3 ADD PUSH1 0x40 MSTORE DUP1 ISZERO PUSH2 0x1BF8 JUMPI DUP2 PUSH1 0x20 ADD PUSH1 0x1 DUP3 MUL DUP1 CALLDATASIZE DUP4 CALLDATACOPY DUP1 DUP3 ADD SWAP2 POP POP SWAP1 POP JUMPDEST POP SWAP1 POP DUP2 DUP2 MSTORE DUP4 PUSH1 0x20 DUP3 ADD MSTORE DUP1 SWAP3 POP POP POP SWAP2 SWAP1 POP JUMP JUMPDEST PUSH0 DUP1 PUSH1 0xFF DUP4 PUSH0 SHR AND SWAP1 POP PUSH1 0x1F DUP2 GT ISZERO PUSH2 0x1C53 JUMPI PUSH1 0x40 MLOAD PUSH32 0xB3512B0C00000000000000000000000000000000000000000000000000000000 DUP2 MSTORE PUSH1 0x4 ADD PUSH1 0x40 MLOAD DUP1 SWAP2 SUB SWAP1 REVERT JUMPDEST DUP1 SWAP2 POP POP SWAP2 SWAP1 POP JUMP JUMPDEST PUSH0 DUP2 MLOAD SWAP1 POP SWAP2 SWAP1 POP JUMP JUMPDEST PUSH0 DUP3 DUP3 MSTORE PUSH1 0x20 DUP3 ADD SWAP1 POP SWAP3 SWAP2 POP POP JUMP JUMPDEST PUSH0 JUMPDEST DUP4 DUP2 LT ISZERO PUSH2 0x1C93 JUMPI DUP1 DUP3 ADD MLOAD DUP2 DUP5 ADD MSTORE PUSH1 0x20 DUP2 ADD SWAP1 POP PUSH2 0x1C78 JUMP JUMPDEST PUSH0 DUP5 DUP5 ADD MSTORE POP POP POP POP JUMP JUMPDEST PUSH0 PUSH1 0x1F NOT PUSH1 0x1F DUP4 ADD AND SWAP1 POP SWAP2 SWAP1 POP JUMP JUMPDEST PUSH0 PUSH2 0x1CB8 DUP3 PUSH2 0x1C5C JUMP JUMPDEST PUSH2 0x1CC2 DUP2 DUP6 PUSH2 0x1C66 JUMP JUMPDEST SWAP4 POP PUSH2 0x1CD2 DUP2 DUP6 PUSH1 0x20 DUP7 ADD PUSH2 0x1C76 JUMP JUMPDEST PUSH2 0x1CDB DUP2 PUSH2 0x1C9E JUMP JUMPDEST DUP5 ADD SWAP2 POP POP SWAP3 SWAP2 POP POP JUMP JUMPDEST PUSH0 PUSH1 0x20 DUP3 ADD SWAP1 POP DUP2 DUP2 SUB PUSH0 DUP4 ADD MSTORE PUSH2 0x1CFE DUP2 DUP5 PUSH2 0x1CAE JUMP JUMPDEST SWAP1 POP SWAP3 SWAP2 POP POP JUMP JUMPDEST PUSH0 DUP1 REVERT JUMPDEST PUSH0 PUSH20 0xFFFFFFFFFFFFFFFFFFFFFFFFFFFFFFFFFFFFFFFF DUP3 AND SWAP1 POP SWAP2 SWAP1 POP JUMP JUMPDEST PUSH0 PUSH2 0x1D33 DUP3 PUSH2 0x1D0A JUMP JUMPDEST SWAP1 POP SWAP2 SWAP1 POP JUMP JUMPDEST PUSH2 0x1D43 DUP2 PUSH2 0x1D29 JUMP JUMPDEST DUP2 EQ PUSH2 0x1D4D JUMPI PUSH0 DUP1 REVERT JUMPDEST POP JUMP JUMPDEST PUSH0 DUP2 CALLDATALOAD SWAP1 POP PUSH2 0x1D5E DUP2 PUSH2 0x1D3A JUMP JUMPDEST SWAP3 SWAP2 POP POP JUMP JUMPDEST PUSH0 DUP2 SWAP1 POP SWAP2 SWAP1 POP JUMP JUMPDEST PUSH2 0x1D76 DUP2 PUSH2 0x1D64 JUMP JUMPDEST DUP2 EQ PUSH2 0x1D80 JUMPI PUSH0 DUP1 REVERT JUMPDEST POP JUMP JUMPDEST PUSH0 DUP2 CALLDATALOAD SWAP1 POP PUSH2 0x1D91 DUP2 PUSH2 0x1D6D JUMP JUMPDEST SWAP3 SWAP2 POP POP JUMP JUMPDEST PUSH0 DUP1 PUSH1 0x40 DUP4 DUP6 SUB SLT ISZERO PUSH2 0x1DAD JUMPI PUSH2 0x1DAC PUSH2 0x1D06 JUMP JUMPDEST JUMPDEST PUSH0 PUSH2 0x1DBA DUP6 DUP3 DUP7 ADD PUSH2 0x1D50 JUMP JUMPDEST SWAP3 POP POP PUSH1 0x20 PUSH2 0x1DCB DUP6 DUP3 DUP7 ADD PUSH2 0x1D83 JUMP JUMPDEST SWAP2 POP POP SWAP3 POP SWAP3 SWAP1 POP JUMP JUMPDEST PUSH0 DUP2 ISZERO ISZERO SWAP1 POP SWAP2 SWAP1 POP JUMP JUMPDEST PUSH2 0x1DE9 DUP2 PUSH2 0x1DD5 JUMP JUMPDEST DUP3 MSTORE POP POP JUMP JUMPDEST PUSH0 PUSH1 0x20 DUP3 ADD SWAP1 POP PUSH2 0x1E02 PUSH0 DUP4 ADD DUP5 PUSH2 0x1DE0 JUMP JUMPDEST SWAP3 SWAP2 POP POP JUMP JUMPDEST PUSH2 0x1E11 DUP2 PUSH2 0x1D64 JUMP JUMPDEST DUP3 MSTORE POP POP JUMP JUMPDEST PUSH0 PUSH1 0x20 DUP3 ADD SWAP1 POP PUSH2 0x1E2A PUSH0 DUP4 ADD DUP5 PUSH2 0x1E08 JUMP JUMPDEST SWAP3 SWAP2 POP POP JUMP JUMPDEST PUSH0 DUP1 PUSH1 0x40 DUP4 DUP6 SUB SLT ISZERO PUSH2 0x1E46 JUMPI PUSH2 0x1E45 PUSH2 0x1D06 JUMP JUMPDEST JUMPDEST PUSH0 PUSH2 0x1E53 DUP6 DUP3 DUP7 ADD PUSH2 0x1D83 JUMP JUMPDEST SWAP3 POP POP PUSH1 0x20 PUSH2 0x1E64 DUP6 DUP3 DUP7 ADD PUSH2 0x1D83 JUMP JUMPDEST SWAP2 POP POP SWAP3 POP SWAP3 SWAP1 POP JUMP JUMPDEST PUSH0 PUSH1 0x20 DUP3 DUP5 SUB SLT ISZERO PUSH2 0x1E83 JUMPI PUSH2 0x1E82 PUSH2 0x1D06 JUMP JUMPDEST JUMPDEST PUSH0 PUSH2 0x1E90 DUP5 DUP3 DUP6 ADD PUSH2 0x1D50 JUMP JUMPDEST SWAP2 POP POP SWAP3 SWAP2 POP POP JUMP JUMPDEST PUSH0 DUP1 PUSH0 PUSH1 0x60 DUP5 DUP7 SUB SLT ISZERO PUSH2 0x1EB0 JUMPI PUSH2 0x1EAF PUSH2 0x1D06 JUMP JUMPDEST JUMPDEST PUSH0 PUSH2 0x1EBD DUP7 DUP3 DUP8 ADD PUSH2 0x1D50 JUMP JUMPDEST SWAP4 POP POP PUSH1 0x20 PUSH2 0x1ECE DUP7 DUP3 DUP8 ADD PUSH2 0x1D50 JUMP JUMPDEST SWAP3 POP POP PUSH1 0x40 PUSH2 0x1EDF DUP7 DUP3 DUP8 ADD PUSH2 0x1D83 JUMP JUMPDEST SWAP2 POP POP SWAP3 POP SWAP3 POP SWAP3 JUMP JUMPDEST PUSH0 PUSH1 0xFF DUP3 AND SWAP1 POP SWAP2 SWAP1 POP JUMP JUMPDEST PUSH2 0x1EFE DUP2 PUSH2 0x1EE9 JUMP JUMPDEST DUP3 MSTORE POP POP JUMP JUMPDEST PUSH0 PUSH1 0x20 DUP3 ADD SWAP1 POP PUSH2 0x1F17 PUSH0 DUP4 ADD DUP5 PUSH2 0x1EF5 JUMP JUMPDEST SWAP3 SWAP2 POP POP JUMP JUMPDEST PUSH0 DUP2 SWAP1 POP SWAP2 SWAP1 POP JUMP JUMPDEST PUSH2 0x1F2F DUP2 PUSH2 0x1F1D JUMP JUMPDEST DUP3 MSTORE POP POP JUMP JUMPDEST PUSH0 PUSH1 0x20 DUP3 ADD SWAP1 POP PUSH2 0x1F48 PUSH0 DUP4 ADD DUP5 PUSH2 0x1F26 JUMP JUMPDEST SWAP3 SWAP2 POP POP JUMP JUMPDEST PUSH0 PUSH1 0x20 DUP3 DUP5 SUB SLT ISZERO PUSH2 0x1F63 JUMPI PUSH2 0x1F62 PUSH2 0x1D06 JUMP JUMPDEST JUMPDEST PUSH0 PUSH2 0x1F70 DUP5 DUP3 DUP6 ADD PUSH2 0x1D83 JUMP JUMPDEST SWAP2 POP POP SWAP3 SWAP2 POP POP JUMP JUMPDEST PUSH0 PUSH32 0xFF00000000000000000000000000000000000000000000000000000000000000 DUP3 AND SWAP1 POP SWAP2 SWAP1 POP JUMP JUMPDEST PUSH2 0x1FAD DUP2 PUSH2 0x1F79 JUMP JUMPDEST DUP3 MSTORE POP POP JUMP JUMPDEST PUSH2 0x1FBC DUP2 PUSH2 0x1D29 JUMP JUMPDEST DUP3 MSTORE POP POP JUMP JUMPDEST PUSH0 DUP2 MLOAD SWAP1 POP SWAP2 SWAP1 POP JUMP JUMPDEST PUSH0 DUP3 DUP3 MSTORE PUSH1 0x20 DUP3 ADD SWAP1 POP SWAP3 SWAP2 POP POP JUMP JUMPDEST PUSH0 DUP2 SWAP1 POP PUSH1 0x20 DUP3 ADD SWAP1 POP SWAP2 SWAP1 POP JUMP JUMPDEST PUSH2 0x1FF4 DUP2 PUSH2 0x1D64 JUMP JUMPDEST DUP3 MSTORE POP POP JUMP JUMPDEST PUSH0 PUSH2 0x2005 DUP4 DUP4 PUSH2 0x1FEB JUMP JUMPDEST PUSH1 0x20 DUP4 ADD SWAP1 POP SWAP3 SWAP2 POP POP JUMP JUMPDEST PUSH0 PUSH1 0x20 DUP3 ADD SWAP1 POP SWAP2 SWAP1 POP JUMP JUMPDEST PUSH0 PUSH2 0x2027 DUP3 PUSH2 0x1FC2 JUMP JUMPDEST PUSH2 0x2031 DUP2 DUP6 PUSH2 0x1FCC JUMP JUMPDEST SWAP4 POP PUSH2 0x203C DUP4 PUSH2 0x1FDC JUMP JUMPDEST DUP1 PUSH0 JUMPDEST DUP4 DUP2 LT ISZERO PUSH2 0x206C JUMPI DUP2 MLOAD PUSH2 0x2053 DUP9 DUP3 PUSH2 0x1FFA JUMP JUMPDEST SWAP8 POP PUSH2 0x205E DUP4 PUSH2 0x2011 JUMP JUMPDEST SWAP3 POP POP PUSH1 0x1 DUP2 ADD SWAP1 POP PUSH2 0x203F JUMP JUMPDEST POP DUP6 SWAP4 POP POP POP POP SWAP3 SWAP2 POP POP JUMP JUMPDEST PUSH0 PUSH1 0xE0 DUP3 ADD SWAP1 POP PUSH2 0x208C PUSH0 DUP4 ADD DUP11 PUSH2 0x1FA4 JUMP JUMPDEST DUP2 DUP2 SUB PUSH1 0x20 DUP4 ADD MSTORE PUSH2 0x209E DUP2 DUP10 PUSH2 0x1CAE JUMP JUMPDEST SWAP1 POP DUP2 DUP2 SUB PUSH1 0x40 DUP4 ADD MSTORE PUSH2 0x20B2 DUP2 DUP9 PUSH2 0x1CAE JUMP JUMPDEST SWAP1 POP PUSH2 0x20C1 PUSH1 0x60 DUP4 ADD DUP8 PUSH2 0x1E08 JUMP JUMPDEST PUSH2 0x20CE PUSH1 0x80 DUP4 ADD DUP7 PUSH2 0x1FB3 JUMP JUMPDEST PUSH2 0x20DB PUSH1 0xA0 DUP4 ADD DUP6 PUSH2 0x1F26 JUMP JUMPDEST DUP2 DUP2 SUB PUSH1 0xC0 DUP4 ADD MSTORE PUSH2 0x20ED DUP2 DUP5 PUSH2 0x201D JUMP JUMPDEST SWAP1 POP SWAP9 SWAP8 POP POP POP POP POP POP POP POP JUMP JUMPDEST PUSH0 PUSH1 0x20 DUP3 ADD SWAP1 POP PUSH2 0x210E PUSH0 DUP4 ADD DUP5 PUSH2 0x1FB3 JUMP JUMPDEST SWAP3 SWAP2 POP POP JUMP JUMPDEST PUSH2 0x211D DUP2 PUSH2 0x1EE9 JUMP JUMPDEST DUP2 EQ PUSH2 0x2127 JUMPI PUSH0 DUP1 REVERT JUMPDEST POP JUMP JUMPDEST PUSH0 DUP2 CALLDATALOAD SWAP1 POP PUSH2 0x2138 DUP2 PUSH2 0x2114 JUMP JUMPDEST SWAP3 SWAP2 POP POP JUMP JUMPDEST PUSH2 0x2147 DUP2 PUSH2 0x1F1D JUMP JUMPDEST DUP2 EQ PUSH2 0x2151 JUMPI PUSH0 DUP1 REVERT JUMPDEST POP JUMP JUMPDEST PUSH0 DUP2 CALLDATALOAD SWAP1 POP PUSH2 0x2162 DUP2 PUSH2 0x213E JUMP JUMPDEST SWAP3 SWAP2 POP POP JUMP JUMPDEST PUSH0 DUP1 PUSH0 DUP1 PUSH0 DUP1 PUSH0 PUSH1 0xE0 DUP9 DUP11 SUB SLT ISZERO PUSH2 0x2183 JUMPI PUSH2 0x2182 PUSH2 0x1D06 JUMP JUMPDEST JUMPDEST PUSH0 PUSH2 0x2190 DUP11 DUP3 DUP12 ADD PUSH2 0x1D50 JUMP JUMPDEST SWAP8 POP POP PUSH1 0x20 PUSH2 0x21A1 DUP11 DUP3 DUP12 ADD PUSH2 0x1D50 JUMP JUMPDEST SWAP7 POP POP PUSH1 0x40 PUSH2 0x21B2 DUP11 DUP3 DUP12 ADD PUSH2 0x1D83 JUMP JUMPDEST SWAP6 POP POP PUSH1 0x60 PUSH2 0x21C3 DUP11 DUP3 DUP12 ADD PUSH2 0x1D83 JUMP JUMPDEST SWAP5 POP POP PUSH1 0x80 PUSH2 0x21D4 DUP11 DUP3 DUP12 ADD PUSH2 0x212A JUMP JUMPDEST SWAP4 POP POP PUSH1 0xA0 PUSH2 0x21E5 DUP11 DUP3 DUP12 ADD PUSH2 0x2154 JUMP JUMPDEST SWAP3 POP POP PUSH1 0xC0 PUSH2 0x21F6 DUP11 DUP3 DUP12 ADD PUSH2 0x2154 JUMP JUMPDEST SWAP2 POP POP SWAP3 SWAP6 SWAP9 SWAP2 SWAP5 SWAP8 POP SWAP3 SWAP6 POP JUMP JUMPDEST PUSH0 DUP1 PUSH1 0x40 DUP4 DUP6 SUB SLT ISZERO PUSH2 0x221B JUMPI PUSH2 0x221A PUSH2 0x1D06 JUMP JUMPDEST JUMPDEST PUSH0 PUSH2 0x2228 DUP6 DUP3 DUP7 ADD PUSH2 0x1D50 JUMP JUMPDEST SWAP3 POP POP PUSH1 0x20 PUSH2 0x2239 DUP6 DUP3 DUP7 ADD PUSH2 0x1D50 JUMP JUMPDEST SWAP2 POP POP SWAP3 POP SWAP3 SWAP1 POP JUMP JUMPDEST PUSH32 0x4E487B7100000000000000000000000000000000000000000000000000000000 PUSH0 MSTORE PUSH1 0x22 PUSH1 0x4 MSTORE PUSH1 0x24 PUSH0 REVERT JUMPDEST PUSH0 PUSH1 0x2 DUP3 DIV SWAP1 POP PUSH1 0x1 DUP3 AND DUP1 PUSH2 0x2287 JUMPI PUSH1 0x7F DUP3 AND SWAP2 POP JUMPDEST PUSH1 0x20 DUP3 LT DUP2 SUB PUSH2 0x229A JUMPI PUSH2 0x2299 PUSH2 0x2243 JUMP JUMPDEST JUMPDEST POP SWAP2 SWAP1 POP JUMP JUMPDEST PUSH32 0x4E487B7100000000000000000000000000000000000000000000000000000000 PUSH0 MSTORE PUSH1 0x11 PUSH1 0x4 MSTORE PUSH1 0x24 PUSH0 REVERT JUMPDEST PUSH0 PUSH2 0x22D7 DUP3 PUSH2 0x1D64 JUMP JUMPDEST SWAP2 POP PUSH2 0x22E2 DUP4 PUSH2 0x1D64 JUMP JUMPDEST SWAP3 POP DUP3 DUP3 MUL PUSH2 0x22F0 DUP2 PUSH2 0x1D64 JUMP JUMPDEST SWAP2 POP DUP3 DUP3 DIV DUP5 EQ DUP4 ISZERO OR PUSH2 0x2307 JUMPI PUSH2 0x2306 PUSH2 0x22A0 JUMP JUMPDEST JUMPDEST POP SWAP3 SWAP2 POP POP JUMP JUMPDEST PUSH32 0x596F752073686F756C6420626520696E70757474696E6720612076616C756520 PUSH0 DUP3 ADD MSTORE PUSH32 0x746861742069732074686520616D74206F6620746F6B656E73202A20636F6E76 PUSH1 0x20 DUP3 ADD MSTORE PUSH32 0x657273696F6E5261746500000000000000000000000000000000000000000000 PUSH1 0x40 DUP3 ADD MSTORE POP JUMP JUMPDEST PUSH0 PUSH2 0x238E PUSH1 0x4A DUP4 PUSH2 0x1C66 JUMP JUMPDEST SWAP2 POP PUSH2 0x2399 DUP3 PUSH2 0x230E JUMP JUMPDEST PUSH1 0x60 DUP3 ADD SWAP1 POP SWAP2 SWAP1 POP JUMP JUMPDEST PUSH0 PUSH1 0x20 DUP3 ADD SWAP1 POP DUP2 DUP2 SUB PUSH0 DUP4 ADD MSTORE PUSH2 0x23BB DUP2 PUSH2 0x2382 JUMP JUMPDEST SWAP1 POP SWAP2 SWAP1 POP JUMP JUMPDEST PUSH0 PUSH2 0x23CC DUP3 PUSH2 0x1D64 JUMP JUMPDEST SWAP2 POP PUSH2 0x23D7 DUP4 PUSH2 0x1D64 JUMP JUMPDEST SWAP3 POP DUP3 DUP3 ADD SWAP1 POP DUP1 DUP3 GT ISZERO PUSH2 0x23EF JUMPI PUSH2 0x23EE PUSH2 0x22A0 JUMP JUMPDEST JUMPDEST SWAP3 SWAP2 POP POP JUMP JUMPDEST PUSH0 PUSH1 0x40 DUP3 ADD SWAP1 POP PUSH2 0x2408 PUSH0 DUP4 ADD DUP6 PUSH2 0x1E08 JUMP JUMPDEST PUSH2 0x2415 PUSH1 0x20 DUP4 ADD DUP5 PUSH2 0x1E08 JUMP JUMPDEST SWAP4 SWAP3 POP POP POP JUMP JUMPDEST PUSH32 0x596F75206D7573742068617665206D696E74656420746F6B656E7320746F2071 PUSH0 DUP3 ADD MSTORE PUSH32 0x75657279207468697320696E666F726D6174696F6E0000000000000000000000 PUSH1 0x20 DUP3 ADD MSTORE POP JUMP JUMPDEST PUSH0 PUSH2 0x2476 PUSH1 0x35 DUP4 PUSH2 0x1C66 JUMP JUMPDEST SWAP2 POP PUSH2 0x2481 DUP3 PUSH2 0x241C JUMP JUMPDEST PUSH1 0x40 DUP3 ADD SWAP1 POP SWAP2 SWAP1 POP JUMP JUMPDEST PUSH0 PUSH1 0x20 DUP3 ADD SWAP1 POP DUP2 DUP2 SUB PUSH0 DUP4 ADD MSTORE PUSH2 0x24A3 DUP2 PUSH2 0x246A JUMP JUMPDEST SWAP1 POP SWAP2 SWAP1 POP JUMP JUMPDEST PUSH32 0x4E487B7100000000000000000000000000000000000000000000000000000000 PUSH0 MSTORE PUSH1 0x12 PUSH1 0x4 MSTORE PUSH1 0x24 PUSH0 REVERT JUMPDEST PUSH0 PUSH2 0x24E1 DUP3 PUSH2 0x1D64 JUMP JUMPDEST SWAP2 POP PUSH2 0x24EC DUP4 PUSH2 0x1D64 JUMP JUMPDEST SWAP3 POP DUP3 PUSH2 0x24FC JUMPI PUSH2 0x24FB PUSH2 0x24AA JUMP JUMPDEST JUMPDEST DUP3 DUP3 DIV SWAP1 POP SWAP3 SWAP2 POP POP JUMP JUMPDEST PUSH32 0x4E487B7100000000000000000000000000000000000000000000000000000000 PUSH0 MSTORE PUSH1 0x41 PUSH1 0x4 MSTORE PUSH1 0x24 PUSH0 REVERT JUMPDEST PUSH0 PUSH1 0xC0 DUP3 ADD SWAP1 POP PUSH2 0x2547 PUSH0 DUP4 ADD DUP10 PUSH2 0x1F26 JUMP JUMPDEST PUSH2 0x2554 PUSH1 0x20 DUP4 ADD DUP9 PUSH2 0x1FB3 JUMP JUMPDEST PUSH2 0x2561 PUSH1 0x40 DUP4 ADD DUP8 PUSH2 0x1FB3 JUMP JUMPDEST PUSH2 0x256E PUSH1 0x60 DUP4 ADD DUP7 PUSH2 0x1E08 JUMP JUMPDEST PUSH2 0x257B PUSH1 0x80 DUP4 ADD DUP6 PUSH2 0x1E08 JUMP JUMPDEST PUSH2 0x2588 PUSH1 0xA0 DUP4 ADD DUP5 PUSH2 0x1E08 JUMP JUMPDEST SWAP8 SWAP7 POP POP POP POP POP POP POP JUMP JUMPDEST PUSH0 PUSH1 0x40 DUP3 ADD SWAP1 POP PUSH2 0x25A6 PUSH0 DUP4 ADD DUP6 PUSH2 0x1FB3 JUMP JUMPDEST PUSH2 0x25B3 PUSH1 0x20 DUP4 ADD DUP5 PUSH2 0x1FB3 JUMP JUMPDEST SWAP4 SWAP3 POP POP POP JUMP JUMPDEST PUSH0 PUSH1 0x60 DUP3 ADD SWAP1 POP PUSH2 0x25CD PUSH0 DUP4 ADD DUP7 PUSH2 0x1FB3 JUMP JUMPDEST PUSH2 0x25DA PUSH1 0x20 DUP4 ADD DUP6 PUSH2 0x1E08 JUMP JUMPDEST PUSH2 0x25E7 PUSH1 0x40 DUP4 ADD DUP5 PUSH2 0x1E08 JUMP JUMPDEST SWAP5 SWAP4 POP POP POP POP JUMP JUMPDEST PUSH0 PUSH1 0xA0 DUP3 ADD SWAP1 POP PUSH2 0x2602 PUSH0 DUP4 ADD DUP9 PUSH2 0x1F26 JUMP JUMPDEST PUSH2 0x260F PUSH1 0x20 DUP4 ADD DUP8 PUSH2 0x1F26 JUMP JUMPDEST PUSH2 0x261C PUSH1 0x40 DUP4 ADD DUP7 PUSH2 0x1F26 JUMP JUMPDEST PUSH2 0x2629 PUSH1 0x60 DUP4 ADD DUP6 PUSH2 0x1E08 JUMP JUMPDEST PUSH2 0x2636 PUSH1 0x80 DUP4 ADD DUP5 PUSH2 0x1FB3 JUMP JUMPDEST SWAP7 SWAP6 POP POP POP POP POP POP JUMP JUMPDEST PUSH0 PUSH1 0x80 DUP3 ADD SWAP1 POP PUSH2 0x2653 PUSH0 DUP4 ADD DUP8 PUSH2 0x1F26 JUMP JUMPDEST PUSH2 0x2660 PUSH1 0x20 DUP4 ADD DUP7 PUSH2 0x1EF5 JUMP JUMPDEST PUSH2 0x266D PUSH1 0x40 DUP4 ADD DUP6 PUSH2 0x1F26 JUMP JUMPDEST PUSH2 0x267A PUSH1 0x60 DUP4 ADD DUP5 PUSH2 0x1F26 JUMP JUMPDEST SWAP6 SWAP5 POP POP POP POP POP JUMP JUMPDEST PUSH32 0x4E487B7100000000000000000000000000000000000000000000000000000000 PUSH0 MSTORE PUSH1 0x21 PUSH1 0x4 MSTORE PUSH1 0x24 PUSH0 REVERT INVALID LOG2 PUSH5 0x6970667358 0x22 SLT KECCAK256 0xB5 0x4D SELFDESTRUCT EXTCODESIZE SWAP9 PUSH10 0x35ED05C27FA6EA720EE1 GASLIMIT CREATE2 SWAP1 PUSH1 0x12 PREVRANDAO STATICCALL SWAP1 RETURN LOG3 PUSH8 0x1BE82E73B464736F PUSH13 0x63430008140033000000000000 "
		},
		"gasEstimates": {
			"creation": {
				"codeDepositCost": "1991600",
				"executionCost": "infinite",
				"totalCost": "infinite"
			},
			"external": {
				"DOMAIN_SEPARATOR()": "infinite",
				"allowance(address,address)": "infinite",
				"approve(address,uint256)": "infinite",
				"balanceOf(address)": "2962",
				"burn(uint256)": "infinite",
				"burnFrom(address,uint256)": "infinite",
				"collateral(address)": "2824",
				"decimals()": "405",
				"eip712Domain()": "infinite",
				"getMyTokenInformation()": "infinite",
				"mint(uint256,uint256)": "infinite",
				"name()": "infinite",
				"nonces(address)": "2938",
				"owner()": "2626",
				"permit(address,address,uint256,uint256,uint8,bytes32,bytes32)": "infinite",
				"renounceOwnership()": "infinite",
				"symbol()": "infinite",
				"topUpMyCollateral(uint256)": "2996",
				"totalSupply()": "2500",
				"transfer(address,uint256)": "infinite",
				"transferFrom(address,address,uint256)": "infinite",
				"transferOwnership(address)": "infinite",
				"userConversionRate(address)": "2914"
			}
		},
		"methodIdentifiers": {
			"DOMAIN_SEPARATOR()": "3644e515",
			"allowance(address,address)": "dd62ed3e",
			"approve(address,uint256)": "095ea7b3",
			"balanceOf(address)": "70a08231",
			"burn(uint256)": "42966c68",
			"burnFrom(address,uint256)": "79cc6790",
			"collateral(address)": "a5fdc5de",
			"decimals()": "313ce567",
			"eip712Domain()": "84b0196e",
			"getMyTokenInformation()": "25f5a4a2",
			"mint(uint256,uint256)": "1b2ef1ca",
			"name()": "06fdde03",
			"nonces(address)": "7ecebe00",
			"owner()": "8da5cb5b",
			"permit(address,address,uint256,uint256,uint8,bytes32,bytes32)": "d505accf",
			"renounceOwnership()": "715018a6",
			"symbol()": "95d89b41",
			"topUpMyCollateral(uint256)": "f2c51f0d",
			"totalSupply()": "18160ddd",
			"transfer(address,uint256)": "a9059cbb",
			"transferFrom(address,address,uint256)": "23b872dd",
			"transferOwnership(address)": "f2fde38b",
			"userConversionRate(address)": "1f86956c"
		}
	},
	"abi": [
		{
			"inputs": [],
			"stateMutability": "payable",
			"type": "constructor"
		},
		{
			"inputs": [],
			"name": "ECDSAInvalidSignature",
			"type": "error"
		},
		{
			"inputs": [
				{
					"internalType": "uint256",
					"name": "length",
					"type": "uint256"
				}
			],
			"name": "ECDSAInvalidSignatureLength",
			"type": "error"
		},
		{
			"inputs": [
				{
					"internalType": "bytes32",
					"name": "s",
					"type": "bytes32"
				}
			],
			"name": "ECDSAInvalidSignatureS",
			"type": "error"
		},
		{
			"inputs": [
				{
					"internalType": "address",
					"name": "spender",
					"type": "address"
				},
				{
					"internalType": "uint256",
					"name": "allowance",
					"type": "uint256"
				},
				{
					"internalType": "uint256",
					"name": "needed",
					"type": "uint256"
				}
			],
			"name": "ERC20InsufficientAllowance",
			"type": "error"
		},
		{
			"inputs": [
				{
					"internalType": "address",
					"name": "sender",
					"type": "address"
				},
				{
					"internalType": "uint256",
					"name": "balance",
					"type": "uint256"
				},
				{
					"internalType": "uint256",
					"name": "needed",
					"type": "uint256"
				}
			],
			"name": "ERC20InsufficientBalance",
			"type": "error"
		},
		{
			"inputs": [
				{
					"internalType": "address",
					"name": "approver",
					"type": "address"
				}
			],
			"name": "ERC20InvalidApprover",
			"type": "error"
		},
		{
			"inputs": [
				{
					"internalType": "address",
					"name": "receiver",
					"type": "address"
				}
			],
			"name": "ERC20InvalidReceiver",
			"type": "error"
		},
		{
			"inputs": [
				{
					"internalType": "address",
					"name": "sender",
					"type": "address"
				}
			],
			"name": "ERC20InvalidSender",
			"type": "error"
		},
		{
			"inputs": [
				{
					"internalType": "address",
					"name": "spender",
					"type": "address"
				}
			],
			"name": "ERC20InvalidSpender",
			"type": "error"
		},
		{
			"inputs": [
				{
					"internalType": "uint256",
					"name": "deadline",
					"type": "uint256"
				}
			],
			"name": "ERC2612ExpiredSignature",
			"type": "error"
		},
		{
			"inputs": [
				{
					"internalType": "address",
					"name": "signer",
					"type": "address"
				},
				{
					"internalType": "address",
					"name": "owner",
					"type": "address"
				}
			],
			"name": "ERC2612InvalidSigner",
			"type": "error"
		},
		{
			"inputs": [
				{
					"internalType": "address",
					"name": "account",
					"type": "address"
				},
				{
					"internalType": "uint256",
					"name": "currentNonce",
					"type": "uint256"
				}
			],
			"name": "InvalidAccountNonce",
			"type": "error"
		},
		{
			"inputs": [],
			"name": "InvalidShortString",
			"type": "error"
		},
		{
			"inputs": [
				{
					"internalType": "address",
					"name": "owner",
					"type": "address"
				}
			],
			"name": "OwnableInvalidOwner",
			"type": "error"
		},
		{
			"inputs": [
				{
					"internalType": "address",
					"name": "account",
					"type": "address"
				}
			],
			"name": "OwnableUnauthorizedAccount",
			"type": "error"
		},
		{
			"inputs": [
				{
					"internalType": "string",
					"name": "str",
					"type": "string"
				}
			],
			"name": "StringTooLong",
			"type": "error"
		},
		{
			"anonymous": false,
			"inputs": [
				{
					"indexed": true,
					"internalType": "address",
					"name": "owner",
					"type": "address"
				},
				{
					"indexed": true,
					"internalType": "address",
					"name": "spender",
					"type": "address"
				},
				{
					"indexed": false,
					"internalType": "uint256",
					"name": "value",
					"type": "uint256"
				}
			],
			"name": "Approval",
			"type": "event"
		},
		{
			"anonymous": false,
			"inputs": [],
			"name": "EIP712DomainChanged",
			"type": "event"
		},
		{
			"anonymous": false,
			"inputs": [
				{
					"indexed": true,
					"internalType": "address",
					"name": "to",
					"type": "address"
				},
				{
					"indexed": false,
					"internalType": "uint256",
					"name": "amount",
					"type": "uint256"
				},
				{
					"indexed": false,
					"internalType": "uint256",
					"name": "collateral",
					"type": "uint256"
				}
			],
			"name": "Mint",
			"type": "event"
		},
		{
			"anonymous": false,
			"inputs": [
				{
					"indexed": true,
					"internalType": "address",
					"name": "previousOwner",
					"type": "address"
				},
				{
					"indexed": true,
					"internalType": "address",
					"name": "newOwner",
					"type": "address"
				}
			],
			"name": "OwnershipTransferred",
			"type": "event"
		},
		{
			"anonymous": false,
			"inputs": [
				{
					"indexed": true,
					"internalType": "address",
					"name": "from",
					"type": "address"
				},
				{
					"indexed": true,
					"internalType": "address",
					"name": "to",
					"type": "address"
				},
				{
					"indexed": false,
					"internalType": "uint256",
					"name": "value",
					"type": "uint256"
				}
			],
			"name": "Transfer",
			"type": "event"
		},
		{
			"anonymous": false,
			"inputs": [
				{
					"indexed": true,
					"internalType": "address",
					"name": "account",
					"type": "address"
				},
				{
					"indexed": false,
					"internalType": "uint256",
					"name": "amtTokens",
					"type": "uint256"
				},
				{
					"indexed": false,
					"internalType": "uint256",
					"name": "collateral",
					"type": "uint256"
				}
			],
			"name": "UserTokenInfo",
			"type": "event"
		},
		{
			"inputs": [],
			"name": "DOMAIN_SEPARATOR",
			"outputs": [
				{
					"internalType": "bytes32",
					"name": "",
					"type": "bytes32"
				}
			],
			"stateMutability": "view",
			"type": "function"
		},
		{
			"inputs": [
				{
					"internalType": "address",
					"name": "owner",
					"type": "address"
				},
				{
					"internalType": "address",
					"name": "spender",
					"type": "address"
				}
			],
			"name": "allowance",
			"outputs": [
				{
					"internalType": "uint256",
					"name": "",
					"type": "uint256"
				}
			],
			"stateMutability": "view",
			"type": "function"
		},
		{
			"inputs": [
				{
					"internalType": "address",
					"name": "spender",
					"type": "address"
				},
				{
					"internalType": "uint256",
					"name": "value",
					"type": "uint256"
				}
			],
			"name": "approve",
			"outputs": [
				{
					"internalType": "bool",
					"name": "",
					"type": "bool"
				}
			],
			"stateMutability": "nonpayable",
			"type": "function"
		},
		{
			"inputs": [
				{
					"internalType": "address",
					"name": "account",
					"type": "address"
				}
			],
			"name": "balanceOf",
			"outputs": [
				{
					"internalType": "uint256",
					"name": "",
					"type": "uint256"
				}
			],
			"stateMutability": "view",
			"type": "function"
		},
		{
			"inputs": [
				{
					"internalType": "uint256",
					"name": "amount",
					"type": "uint256"
				}
			],
			"name": "burn",
			"outputs": [],
			"stateMutability": "nonpayable",
			"type": "function"
		},
		{
			"inputs": [
				{
					"internalType": "address",
					"name": "account",
					"type": "address"
				},
				{
					"internalType": "uint256",
					"name": "value",
					"type": "uint256"
				}
			],
			"name": "burnFrom",
			"outputs": [],
			"stateMutability": "nonpayable",
			"type": "function"
		},
		{
			"inputs": [
				{
					"internalType": "address",
					"name": "",
					"type": "address"
				}
			],
			"name": "collateral",
			"outputs": [
				{
					"internalType": "uint256",
					"name": "",
					"type": "uint256"
				}
			],
			"stateMutability": "view",
			"type": "function"
		},
		{
			"inputs": [],
			"name": "decimals",
			"outputs": [
				{
					"internalType": "uint8",
					"name": "",
					"type": "uint8"
				}
			],
			"stateMutability": "view",
			"type": "function"
		},
		{
			"inputs": [],
			"name": "eip712Domain",
			"outputs": [
				{
					"internalType": "bytes1",
					"name": "fields",
					"type": "bytes1"
				},
				{
					"internalType": "string",
					"name": "name",
					"type": "string"
				},
				{
					"internalType": "string",
					"name": "version",
					"type": "string"
				},
				{
					"internalType": "uint256",
					"name": "chainId",
					"type": "uint256"
				},
				{
					"internalType": "address",
					"name": "verifyingContract",
					"type": "address"
				},
				{
					"internalType": "bytes32",
					"name": "salt",
					"type": "bytes32"
				},
				{
					"internalType": "uint256[]",
					"name": "extensions",
					"type": "uint256[]"
				}
			],
			"stateMutability": "view",
			"type": "function"
		},
		{
			"inputs": [],
			"name": "getMyTokenInformation",
			"outputs": [],
			"stateMutability": "nonpayable",
			"type": "function"
		},
		{
			"inputs": [
				{
					"internalType": "uint256",
					"name": "amount",
					"type": "uint256"
				},
				{
					"internalType": "uint256",
					"name": "conversionRate",
					"type": "uint256"
				}
			],
			"name": "mint",
			"outputs": [],
			"stateMutability": "payable",
			"type": "function"
		},
		{
			"inputs": [],
			"name": "name",
			"outputs": [
				{
					"internalType": "string",
					"name": "",
					"type": "string"
				}
			],
			"stateMutability": "view",
			"type": "function"
		},
		{
			"inputs": [
				{
					"internalType": "address",
					"name": "owner",
					"type": "address"
				}
			],
			"name": "nonces",
			"outputs": [
				{
					"internalType": "uint256",
					"name": "",
					"type": "uint256"
				}
			],
			"stateMutability": "view",
			"type": "function"
		},
		{
			"inputs": [],
			"name": "owner",
			"outputs": [
				{
					"internalType": "address",
					"name": "",
					"type": "address"
				}
			],
			"stateMutability": "view",
			"type": "function"
		},
		{
			"inputs": [
				{
					"internalType": "address",
					"name": "owner",
					"type": "address"
				},
				{
					"internalType": "address",
					"name": "spender",
					"type": "address"
				},
				{
					"internalType": "uint256",
					"name": "value",
					"type": "uint256"
				},
				{
					"internalType": "uint256",
					"name": "deadline",
					"type": "uint256"
				},
				{
					"internalType": "uint8",
					"name": "v",
					"type": "uint8"
				},
				{
					"internalType": "bytes32",
					"name": "r",
					"type": "bytes32"
				},
				{
					"internalType": "bytes32",
					"name": "s",
					"type": "bytes32"
				}
			],
			"name": "permit",
			"outputs": [],
			"stateMutability": "nonpayable",
			"type": "function"
		},
		{
			"inputs": [],
			"name": "renounceOwnership",
			"outputs": [],
			"stateMutability": "nonpayable",
			"type": "function"
		},
		{
			"inputs": [],
			"name": "symbol",
			"outputs": [
				{
					"internalType": "string",
					"name": "",
					"type": "string"
				}
			],
			"stateMutability": "view",
			"type": "function"
		},
		{
			"inputs": [
				{
					"internalType": "uint256",
					"name": "amount",
					"type": "uint256"
				}
			],
			"name": "topUpMyCollateral",
			"outputs": [],
			"stateMutability": "payable",
			"type": "function"
		},
		{
			"inputs": [],
			"name": "totalSupply",
			"outputs": [
				{
					"internalType": "uint256",
					"name": "",
					"type": "uint256"
				}
			],
			"stateMutability": "view",
			"type": "function"
		},
		{
			"inputs": [
				{
					"internalType": "address",
					"name": "to",
					"type": "address"
				},
				{
					"internalType": "uint256",
					"name": "value",
					"type": "uint256"
				}
			],
			"name": "transfer",
			"outputs": [
				{
					"internalType": "bool",
					"name": "",
					"type": "bool"
				}
			],
			"stateMutability": "nonpayable",
			"type": "function"
		},
		{
			"inputs": [
				{
					"internalType": "address",
					"name": "from",
					"type": "address"
				},
				{
					"internalType": "address",
					"name": "to",
					"type": "address"
				},
				{
					"internalType": "uint256",
					"name": "value",
					"type": "uint256"
				}
			],
			"name": "transferFrom",
			"outputs": [
				{
					"internalType": "bool",
					"name": "",
					"type": "bool"
				}
			],
			"stateMutability": "nonpayable",
			"type": "function"
		},
		{
			"inputs": [
				{
					"internalType": "address",
					"name": "newOwner",
					"type": "address"
				}
			],
			"name": "transferOwnership",
			"outputs": [],
			"stateMutability": "nonpayable",
			"type": "function"
		},
		{
			"inputs": [
				{
					"internalType": "address",
					"name": "",
					"type": "address"
				}
			],
			"name": "userConversionRate",
			"outputs": [
				{
					"internalType": "uint256",
					"name": "",
					"type": "uint256"
				}
			],
			"stateMutability": "view",
			"type": "function"
		}
	]
}