{
	"data": {
		"bytecode": {
			"linkReferences": {},
			"object": "60806040526040518060400160405280600e81526020017f436861696e53757265546f6b656e0000000000000000000000000000000000008152506040518060400160405280600381526020017f4353540000000000000000000000000000000000000000000000000000000000815250816003908161007f91906102d1565b50806004908161008f91906102d1565b5050506103a0565b5f81519050919050565b7f4e487b71000000000000000000000000000000000000000000000000000000005f52604160045260245ffd5b7f4e487b71000000000000000000000000000000000000000000000000000000005f52602260045260245ffd5b5f600282049050600182168061011257607f821691505b602082108103610125576101246100ce565b5b50919050565b5f819050815f5260205f209050919050565b5f6020601f8301049050919050565b5f82821b905092915050565b5f600883026101877fffffffffffffffffffffffffffffffffffffffffffffffffffffffffffffffff8261014c565b610191868361014c565b95508019841693508086168417925050509392505050565b5f819050919050565b5f819050919050565b5f6101d56101d06101cb846101a9565b6101b2565b6101a9565b9050919050565b5f819050919050565b6101ee836101bb565b6102026101fa826101dc565b848454610158565b825550505050565b5f90565b61021661020a565b6102218184846101e5565b505050565b5b81811015610244576102395f8261020e565b600181019050610227565b5050565b601f8211156102895761025a8161012b565b6102638461013d565b81016020851015610272578190505b61028661027e8561013d565b830182610226565b50505b505050565b5f82821c905092915050565b5f6102a95f198460080261028e565b1980831691505092915050565b5f6102c1838361029a565b9150826002028217905092915050565b6102da82610097565b67ffffffffffffffff8111156102f3576102f26100a1565b5b6102fd82546100fb565b610308828285610248565b5f60209050601f831160018114610339575f8415610327578287015190505b61033185826102b6565b865550610398565b601f1984166103478661012b565b5f5b8281101561036e57848901518255600182019150602085019450602081019050610349565b8683101561038b5784890151610387601f89168261029a565b8355505b6001600288020188555050505b505050505050565b6122b9806103ad5f395ff3fe60806040526004361061011e575f3560e01c80634763fbd21161009f578063a5fdc5de11610063578063a5fdc5de146103bc578063a9059cbb146103f8578063b6f7132f14610434578063cd60f59f14610470578063dd62ed3e146104985761011e565b80634763fbd2146102ca57806370a082311461030657806379cc67901461034257806395d89b411461036a5780639dc29fac146103945761011e565b806323b872dd116100e657806323b872dd1461020a57806325f5a4a2146102465780632d968e1a1461025c578063313ce5671461027857806342966c68146102a25761011e565b806306fdde0314610122578063095ea7b31461014c57806318160ddd146101885780631b2ef1ca146101b25780631f86956c146101ce575b5f80fd5b34801561012d575f80fd5b506101366104d4565b604051610143919061197d565b60405180910390f35b348015610157575f80fd5b50610172600480360381019061016d9190611a2e565b610564565b60405161017f9190611a86565b60405180910390f35b348015610193575f80fd5b5061019c610586565b6040516101a99190611aae565b60405180910390f35b6101cc60048036038101906101c79190611ac7565b61058f565b005b3480156101d9575f80fd5b506101f460048036038101906101ef9190611b05565b610834565b6040516102019190611aae565b60405180910390f35b348015610215575f80fd5b50610230600480360381019061022b9190611b30565b610849565b60405161023d9190611a86565b60405180910390f35b348015610251575f80fd5b5061025a610877565b005b61027660048036038101906102719190611b80565b6109df565b005b348015610283575f80fd5b5061028c610c33565b6040516102999190611bc6565b60405180910390f35b3480156102ad575f80fd5b506102c860048036038101906102c39190611b80565b610c3b565b005b3480156102d5575f80fd5b506102f060048036038101906102eb9190611b05565b610c4f565b6040516102fd9190611aae565b60405180910390f35b348015610311575f80fd5b5061032c60048036038101906103279190611b05565b610c95565b6040516103399190611aae565b60405180910390f35b34801561034d575f80fd5b5061036860048036038101906103639190611a2e565b610cda565b005b348015610375575f80fd5b5061037e610cfa565b60405161038b919061197d565b60405180910390f35b34801561039f575f80fd5b506103ba60048036038101906103b59190611a2e565b610d8a565b005b3480156103c7575f80fd5b506103e260048036038101906103dd9190611b05565b610e56565b6040516103ef9190611aae565b60405180910390f35b348015610403575f80fd5b5061041e60048036038101906104199190611a2e565b610e6b565b60405161042b9190611a86565b60405180910390f35b34801561043f575f80fd5b5061045a60048036038101906104559190611b05565b610e8d565b6040516104679190611aae565b60405180910390f35b34801561047b575f80fd5b5061049660048036038101906104919190611b30565b610ed3565b005b3480156104a3575f80fd5b506104be60048036038101906104b99190611bdf565b610fef565b6040516104cb9190611aae565b60405180910390f35b6060600380546104e390611c4a565b80601f016020809104026020016040519081016040528092919081815260200182805461050f90611c4a565b801561055a5780601f106105315761010080835404028352916020019161055a565b820191905f5260205f20905b81548152906001019060200180831161053d57829003601f168201915b5050505050905090565b5f8061056e611071565b905061057b818585611078565b600191505092915050565b5f600254905090565b5f60065f3373ffffffffffffffffffffffffffffffffffffffff1673ffffffffffffffffffffffffffffffffffffffff1681526020019081526020015f20541461060e576040517f08c379a000000000000000000000000000000000000000000000000000000000815260040161060590611cea565b60405180910390fd5b5f818361061b9190611d35565b90508034101561062a8261108a565b6106333461108a565b604051602001610644929190611eb4565b60405160208183030381529060405290610694576040517f08c379a000000000000000000000000000000000000000000000000000000000815260040161068b919061197d565b60405180910390fd5b505f81346106a29190611ef8565b90505f81111561073f573373ffffffffffffffffffffffffffffffffffffffff166108fc8290811502906040515f60405180830381858888f193505050501580156106ef573d5f803e3d5ffd5b503373ffffffffffffffffffffffffffffffffffffffff167f5b04a20647d5e66c17cb0451b11e553be5e09f9552d25b9f27d9b0c615c0b3d7826040516107369190611aae565b60405180910390a25b6107493385611154565b8160065f3373ffffffffffffffffffffffffffffffffffffffff1673ffffffffffffffffffffffffffffffffffffffff1681526020019081526020015f205f8282546107959190611f2b565b925050819055508260075f3373ffffffffffffffffffffffffffffffffffffffff1673ffffffffffffffffffffffffffffffffffffffff1681526020019081526020015f20819055503373ffffffffffffffffffffffffffffffffffffffff167f4c209b5fc8ad50758f13e2e1088ba56a560dff690a1c6fef26394f4c03821c4f8584604051610826929190611f5e565b60405180910390a250505050565b6007602052805f5260405f205f915090505481565b5f80610853611071565b90506108608582856111d3565b61086b858585611265565b60019150509392505050565b5f60065f3373ffffffffffffffffffffffffffffffffffffffff1673ffffffffffffffffffffffffffffffffffffffff1681526020019081526020015f2054116108f6576040517f08c379a00000000000000000000000000000000000000000000000000000000081526004016108ed90611ff5565b60405180910390fd5b60065f3373ffffffffffffffffffffffffffffffffffffffff1673ffffffffffffffffffffffffffffffffffffffff1681526020019081526020015f20546005819055505f60075f3373ffffffffffffffffffffffffffffffffffffffff1673ffffffffffffffffffffffffffffffffffffffff1681526020019081526020015f205490505f61098533610c95565b90503373ffffffffffffffffffffffffffffffffffffffff167f07aebacde2d071f5be831eebafe50c943e4fed4053c317af2f8e2a0cd9aa054382600554856040516109d393929190612013565b60405180910390a25050565b5f60065f3373ffffffffffffffffffffffffffffffffffffffff1673ffffffffffffffffffffffffffffffffffffffff1681526020019081526020015f205411610a5e576040517f08c379a0000000000000000000000000000000000000000000000000000000008152600401610a5590611ff5565b60405180910390fd5b5f60075f3373ffffffffffffffffffffffffffffffffffffffff1673ffffffffffffffffffffffffffffffffffffffff1681526020019081526020015f205490505f8183610aac9190611d35565b905080341015610abb8261108a565b610ac43461108a565b604051602001610ad5929190611eb4565b60405160208183030381529060405290610b25576040517f08c379a0000000000000000000000000000000000000000000000000000000008152600401610b1c919061197d565b60405180910390fd5b505f8134610b339190611ef8565b90505f811115610bd0573373ffffffffffffffffffffffffffffffffffffffff166108fc8290811502906040515f60405180830381858888f19350505050158015610b80573d5f803e3d5ffd5b503373ffffffffffffffffffffffffffffffffffffffff167f5b04a20647d5e66c17cb0451b11e553be5e09f9552d25b9f27d9b0c615c0b3d782604051610bc79190611aae565b60405180910390a25b610bda3385611154565b8160065f3373ffffffffffffffffffffffffffffffffffffffff1673ffffffffffffffffffffffffffffffffffffffff1681526020019081526020015f205f828254610c269190611f2b565b9250508190555050505050565b5f6012905090565b610c4c610c46611071565b82611355565b50565b5f60075f8373ffffffffffffffffffffffffffffffffffffffff1673ffffffffffffffffffffffffffffffffffffffff1681526020019081526020015f20549050919050565b5f805f8373ffffffffffffffffffffffffffffffffffffffff1673ffffffffffffffffffffffffffffffffffffffff1681526020019081526020015f20549050919050565b610cec82610ce6611071565b836111d3565b610cf68282611355565b5050565b606060048054610d0990611c4a565b80601f0160208091040260200160405190810160405280929190818152602001828054610d3590611c4a565b8015610d805780601f10610d5757610100808354040283529160200191610d80565b820191905f5260205f20905b815481529060010190602001808311610d6357829003601f168201915b5050505050905090565b5f73ffffffffffffffffffffffffffffffffffffffff168273ffffffffffffffffffffffffffffffffffffffff1603610df8576040517f08c379a0000000000000000000000000000000000000000000000000000000008152600401610def906120b8565b60405180910390fd5b5f610e0283610c95565b905081811015610e47576040517f08c379a0000000000000000000000000000000000000000000000000000000008152600401610e3e90612146565b60405180910390fd5b610e518383611355565b505050565b6006602052805f5260405f205f915090505481565b5f80610e75611071565b9050610e82818585611265565b600191505092915050565b5f60065f8373ffffffffffffffffffffffffffffffffffffffff1673ffffffffffffffffffffffffffffffffffffffff1681526020019081526020015f20549050919050565b8060065f8573ffffffffffffffffffffffffffffffffffffffff1673ffffffffffffffffffffffffffffffffffffffff1681526020019081526020015f20541015610f53576040517f08c379a0000000000000000000000000000000000000000000000000000000008152600401610f4a906121ae565b60405180910390fd5b8060065f8573ffffffffffffffffffffffffffffffffffffffff1673ffffffffffffffffffffffffffffffffffffffff1681526020019081526020015f205f828254610f9f9190611ef8565b925050819055508173ffffffffffffffffffffffffffffffffffffffff166108fc8290811502906040515f60405180830381858888f19350505050158015610fe9573d5f803e3d5ffd5b50505050565b5f60015f8473ffffffffffffffffffffffffffffffffffffffff1673ffffffffffffffffffffffffffffffffffffffff1681526020019081526020015f205f8373ffffffffffffffffffffffffffffffffffffffff1673ffffffffffffffffffffffffffffffffffffffff1681526020019081526020015f2054905092915050565b5f33905090565b61108583838360016113d4565b505050565b60605f6001611098846115a3565b0190505f8167ffffffffffffffff8111156110b6576110b56121cc565b5b6040519080825280601f01601f1916602001820160405280156110e85781602001600182028036833780820191505090505b5090505f82602001820190505b600115611149578080600190039150507f3031323334353637383961626364656600000000000000000000000000000000600a86061a8153600a858161113e5761113d6121f9565b5b0494505f85036110f5575b819350505050919050565b5f73ffffffffffffffffffffffffffffffffffffffff168273ffffffffffffffffffffffffffffffffffffffff16036111c4575f6040517fec442f050000000000000000000000000000000000000000000000000000000081526004016111bb9190612235565b60405180910390fd5b6111cf5f83836116f4565b5050565b5f6111de8484610fef565b90507fffffffffffffffffffffffffffffffffffffffffffffffffffffffffffffffff811461125f5781811015611250578281836040517ffb8f41b20000000000000000000000000000000000000000000000000000000081526004016112479392919061224e565b60405180910390fd5b61125e84848484035f6113d4565b5b50505050565b5f73ffffffffffffffffffffffffffffffffffffffff168373ffffffffffffffffffffffffffffffffffffffff16036112d5575f6040517f96c6fd1e0000000000000000000000000000000000000000000000000000000081526004016112cc9190612235565b60405180910390fd5b5f73ffffffffffffffffffffffffffffffffffffffff168273ffffffffffffffffffffffffffffffffffffffff1603611345575f6040517fec442f0500000000000000000000000000000000000000000000000000000000815260040161133c9190612235565b60405180910390fd5b6113508383836116f4565b505050565b5f73ffffffffffffffffffffffffffffffffffffffff168273ffffffffffffffffffffffffffffffffffffffff16036113c5575f6040517f96c6fd1e0000000000000000000000000000000000000000000000000000000081526004016113bc9190612235565b60405180910390fd5b6113d0825f836116f4565b5050565b5f73ffffffffffffffffffffffffffffffffffffffff168473ffffffffffffffffffffffffffffffffffffffff1603611444575f6040517fe602df0500000000000000000000000000000000000000000000000000000000815260040161143b9190612235565b60405180910390fd5b5f73ffffffffffffffffffffffffffffffffffffffff168373ffffffffffffffffffffffffffffffffffffffff16036114b4575f6040517f94280d620000000000000000000000000000000000000000000000000000000081526004016114ab9190612235565b60405180910390fd5b8160015f8673ffffffffffffffffffffffffffffffffffffffff1673ffffffffffffffffffffffffffffffffffffffff1681526020019081526020015f205f8573ffffffffffffffffffffffffffffffffffffffff1673ffffffffffffffffffffffffffffffffffffffff1681526020019081526020015f2081905550801561159d578273ffffffffffffffffffffffffffffffffffffffff168473ffffffffffffffffffffffffffffffffffffffff167f8c5be1e5ebec7d5bd14f71427d1e84f3dd0314c0f7b2291e5b200ac8c7c3b925846040516115949190611aae565b60405180910390a35b50505050565b5f805f90507a184f03e93ff9f4daa797ed6e38ed64bf6a1f01000000000000000083106115ff577a184f03e93ff9f4daa797ed6e38ed64bf6a1f01000000000000000083816115f5576115f46121f9565b5b0492506040810190505b6d04ee2d6d415b85acef8100000000831061163c576d04ee2d6d415b85acef81000000008381611632576116316121f9565b5b0492506020810190505b662386f26fc10000831061166b57662386f26fc100008381611661576116606121f9565b5b0492506010810190505b6305f5e1008310611694576305f5e100838161168a576116896121f9565b5b0492506008810190505b61271083106116b95761271083816116af576116ae6121f9565b5b0492506004810190505b606483106116dc57606483816116d2576116d16121f9565b5b0492506002810190505b600a83106116eb576001810190505b80915050919050565b5f73ffffffffffffffffffffffffffffffffffffffff168373ffffffffffffffffffffffffffffffffffffffff1603611744578060025f8282546117389190611f2b565b92505081905550611812565b5f805f8573ffffffffffffffffffffffffffffffffffffffff1673ffffffffffffffffffffffffffffffffffffffff1681526020019081526020015f20549050818110156117cd578381836040517fe450d38c0000000000000000000000000000000000000000000000000000000081526004016117c49392919061224e565b60405180910390fd5b8181035f808673ffffffffffffffffffffffffffffffffffffffff1673ffffffffffffffffffffffffffffffffffffffff1681526020019081526020015f2081905550505b5f73ffffffffffffffffffffffffffffffffffffffff168273ffffffffffffffffffffffffffffffffffffffff1603611859578060025f82825403925050819055506118a3565b805f808473ffffffffffffffffffffffffffffffffffffffff1673ffffffffffffffffffffffffffffffffffffffff1681526020019081526020015f205f82825401925050819055505b8173ffffffffffffffffffffffffffffffffffffffff168373ffffffffffffffffffffffffffffffffffffffff167fddf252ad1be2c89b69c2b068fc378daa952ba7f163c4a11628f55a4df523b3ef836040516119009190611aae565b60405180910390a3505050565b5f81519050919050565b5f82825260208201905092915050565b8281835e5f83830152505050565b5f601f19601f8301169050919050565b5f61194f8261190d565b6119598185611917565b9350611969818560208601611927565b61197281611935565b840191505092915050565b5f6020820190508181035f8301526119958184611945565b905092915050565b5f80fd5b5f73ffffffffffffffffffffffffffffffffffffffff82169050919050565b5f6119ca826119a1565b9050919050565b6119da816119c0565b81146119e4575f80fd5b50565b5f813590506119f5816119d1565b92915050565b5f819050919050565b611a0d816119fb565b8114611a17575f80fd5b50565b5f81359050611a2881611a04565b92915050565b5f8060408385031215611a4457611a4361199d565b5b5f611a51858286016119e7565b9250506020611a6285828601611a1a565b9150509250929050565b5f8115159050919050565b611a8081611a6c565b82525050565b5f602082019050611a995f830184611a77565b92915050565b611aa8816119fb565b82525050565b5f602082019050611ac15f830184611a9f565b92915050565b5f8060408385031215611add57611adc61199d565b5b5f611aea85828601611a1a565b9250506020611afb85828601611a1a565b9150509250929050565b5f60208284031215611b1a57611b1961199d565b5b5f611b27848285016119e7565b91505092915050565b5f805f60608486031215611b4757611b4661199d565b5b5f611b54868287016119e7565b9350506020611b65868287016119e7565b9250506040611b7686828701611a1a565b9150509250925092565b5f60208284031215611b9557611b9461199d565b5b5f611ba284828501611a1a565b91505092915050565b5f60ff82169050919050565b611bc081611bab565b82525050565b5f602082019050611bd95f830184611bb7565b92915050565b5f8060408385031215611bf557611bf461199d565b5b5f611c02858286016119e7565b9250506020611c13858286016119e7565b9150509250929050565b7f4e487b71000000000000000000000000000000000000000000000000000000005f52602260045260245ffd5b5f6002820490506001821680611c6157607f821691505b602082108103611c7457611c73611c1d565b5b50919050565b7f596f75206d757374206e6f742068617665206d696e74656420746f6b656e73205f8201527f746f207175657279207468697320696e666f726d6174696f6e00000000000000602082015250565b5f611cd4603983611917565b9150611cdf82611c7a565b604082019050919050565b5f6020820190508181035f830152611d0181611cc8565b9050919050565b7f4e487b71000000000000000000000000000000000000000000000000000000005f52601160045260245ffd5b5f611d3f826119fb565b9150611d4a836119fb565b9250828202611d58816119fb565b91508282048414831517611d6f57611d6e611d08565b5b5092915050565b5f81905092915050565b7f496e73756666696369656e7420636f6c6c61746572616c3a20526571756972655f8201527f6420000000000000000000000000000000000000000000000000000000000000602082015250565b5f611dda602283611d76565b9150611de582611d80565b602282019050919050565b5f611dfa8261190d565b611e048185611d76565b9350611e14818560208601611927565b80840191505092915050565b7f207765692c206275742070726f766964656420000000000000000000000000005f82015250565b5f611e54601383611d76565b9150611e5f82611e20565b601382019050919050565b7f207765692e0000000000000000000000000000000000000000000000000000005f82015250565b5f611e9e600583611d76565b9150611ea982611e6a565b600582019050919050565b5f611ebe82611dce565b9150611eca8285611df0565b9150611ed582611e48565b9150611ee18284611df0565b9150611eec82611e92565b91508190509392505050565b5f611f02826119fb565b9150611f0d836119fb565b9250828203905081811115611f2557611f24611d08565b5b92915050565b5f611f35826119fb565b9150611f40836119fb565b9250828201905080821115611f5857611f57611d08565b5b92915050565b5f604082019050611f715f830185611a9f565b611f7e6020830184611a9f565b9392505050565b7f596f75206d7573742068617665206d696e74656420746f6b656e7320746f20715f8201527f75657279207468697320696e666f726d6174696f6e0000000000000000000000602082015250565b5f611fdf603583611917565b9150611fea82611f85565b604082019050919050565b5f6020820190508181035f83015261200c81611fd3565b9050919050565b5f6060820190506120265f830186611a9f565b6120336020830185611a9f565b6120406040830184611a9f565b949350505050565b7f45524332303a206275726e2066726f6d20746865207a65726f206164647265735f8201527f7300000000000000000000000000000000000000000000000000000000000000602082015250565b5f6120a2602183611917565b91506120ad82612048565b604082019050919050565b5f6020820190508181035f8301526120cf81612096565b9050919050565b7f45524332303a206275726e20616d6f756e7420657863656564732062616c616e5f8201527f6365000000000000000000000000000000000000000000000000000000000000602082015250565b5f612130602283611917565b915061213b826120d6565b604082019050919050565b5f6020820190508181035f83015261215d81612124565b9050919050565b7f496e73756666696369656e7420636f6c6c61746572616c2062616c616e63652e5f82015250565b5f612198602083611917565b91506121a382612164565b602082019050919050565b5f6020820190508181035f8301526121c58161218c565b9050919050565b7f4e487b71000000000000000000000000000000000000000000000000000000005f52604160045260245ffd5b7f4e487b71000000000000000000000000000000000000000000000000000000005f52601260045260245ffd5b61222f816119c0565b82525050565b5f6020820190506122485f830184612226565b92915050565b5f6060820190506122615f830186612226565b61226e6020830185611a9f565b61227b6040830184611a9f565b94935050505056fea264697066735822122029587b7a19ef3629b3a386ec9212ed8ecad77f16b222e2e4c7326fb371ec1dbd64736f6c634300081a0033",
			"opcodes": "PUSH1 0x80 PUSH1 0x40 MSTORE PUSH1 0x40 MLOAD DUP1 PUSH1 0x40 ADD PUSH1 0x40 MSTORE DUP1 PUSH1 0xE DUP2 MSTORE PUSH1 0x20 ADD PUSH32 0x436861696E53757265546F6B656E000000000000000000000000000000000000 DUP2 MSTORE POP PUSH1 0x40 MLOAD DUP1 PUSH1 0x40 ADD PUSH1 0x40 MSTORE DUP1 PUSH1 0x3 DUP2 MSTORE PUSH1 0x20 ADD PUSH32 0x4353540000000000000000000000000000000000000000000000000000000000 DUP2 MSTORE POP DUP2 PUSH1 0x3 SWAP1 DUP2 PUSH2 0x7F SWAP2 SWAP1 PUSH2 0x2D1 JUMP JUMPDEST POP DUP1 PUSH1 0x4 SWAP1 DUP2 PUSH2 0x8F SWAP2 SWAP1 PUSH2 0x2D1 JUMP JUMPDEST POP POP POP PUSH2 0x3A0 JUMP JUMPDEST PUSH0 DUP2 MLOAD SWAP1 POP SWAP2 SWAP1 POP JUMP JUMPDEST PUSH32 0x4E487B7100000000000000000000000000000000000000000000000000000000 PUSH0 MSTORE PUSH1 0x41 PUSH1 0x4 MSTORE PUSH1 0x24 PUSH0 REVERT JUMPDEST PUSH32 0x4E487B7100000000000000000000000000000000000000000000000000000000 PUSH0 MSTORE PUSH1 0x22 PUSH1 0x4 MSTORE PUSH1 0x24 PUSH0 REVERT JUMPDEST PUSH0 PUSH1 0x2 DUP3 DIV SWAP1 POP PUSH1 0x1 DUP3 AND DUP1 PUSH2 0x112 JUMPI PUSH1 0x7F DUP3 AND SWAP2 POP JUMPDEST PUSH1 0x20 DUP3 LT DUP2 SUB PUSH2 0x125 JUMPI PUSH2 0x124 PUSH2 0xCE JUMP JUMPDEST JUMPDEST POP SWAP2 SWAP1 POP JUMP JUMPDEST PUSH0 DUP2 SWAP1 POP DUP2 PUSH0 MSTORE PUSH1 0x20 PUSH0 KECCAK256 SWAP1 POP SWAP2 SWAP1 POP JUMP JUMPDEST PUSH0 PUSH1 0x20 PUSH1 0x1F DUP4 ADD DIV SWAP1 POP SWAP2 SWAP1 POP JUMP JUMPDEST PUSH0 DUP3 DUP3 SHL SWAP1 POP SWAP3 SWAP2 POP POP JUMP JUMPDEST PUSH0 PUSH1 0x8 DUP4 MUL PUSH2 0x187 PUSH32 0xFFFFFFFFFFFFFFFFFFFFFFFFFFFFFFFFFFFFFFFFFFFFFFFFFFFFFFFFFFFFFFFF DUP3 PUSH2 0x14C JUMP JUMPDEST PUSH2 0x191 DUP7 DUP4 PUSH2 0x14C JUMP JUMPDEST SWAP6 POP DUP1 NOT DUP5 AND SWAP4 POP DUP1 DUP7 AND DUP5 OR SWAP3 POP POP POP SWAP4 SWAP3 POP POP POP JUMP JUMPDEST PUSH0 DUP2 SWAP1 POP SWAP2 SWAP1 POP JUMP JUMPDEST PUSH0 DUP2 SWAP1 POP SWAP2 SWAP1 POP JUMP JUMPDEST PUSH0 PUSH2 0x1D5 PUSH2 0x1D0 PUSH2 0x1CB DUP5 PUSH2 0x1A9 JUMP JUMPDEST PUSH2 0x1B2 JUMP JUMPDEST PUSH2 0x1A9 JUMP JUMPDEST SWAP1 POP SWAP2 SWAP1 POP JUMP JUMPDEST PUSH0 DUP2 SWAP1 POP SWAP2 SWAP1 POP JUMP JUMPDEST PUSH2 0x1EE DUP4 PUSH2 0x1BB JUMP JUMPDEST PUSH2 0x202 PUSH2 0x1FA DUP3 PUSH2 0x1DC JUMP JUMPDEST DUP5 DUP5 SLOAD PUSH2 0x158 JUMP JUMPDEST DUP3 SSTORE POP POP POP POP JUMP JUMPDEST PUSH0 SWAP1 JUMP JUMPDEST PUSH2 0x216 PUSH2 0x20A JUMP JUMPDEST PUSH2 0x221 DUP2 DUP5 DUP5 PUSH2 0x1E5 JUMP JUMPDEST POP POP POP JUMP JUMPDEST JUMPDEST DUP2 DUP2 LT ISZERO PUSH2 0x244 JUMPI PUSH2 0x239 PUSH0 DUP3 PUSH2 0x20E JUMP JUMPDEST PUSH1 0x1 DUP2 ADD SWAP1 POP PUSH2 0x227 JUMP JUMPDEST POP POP JUMP JUMPDEST PUSH1 0x1F DUP3 GT ISZERO PUSH2 0x289 JUMPI PUSH2 0x25A DUP2 PUSH2 0x12B JUMP JUMPDEST PUSH2 0x263 DUP5 PUSH2 0x13D JUMP JUMPDEST DUP2 ADD PUSH1 0x20 DUP6 LT ISZERO PUSH2 0x272 JUMPI DUP2 SWAP1 POP JUMPDEST PUSH2 0x286 PUSH2 0x27E DUP6 PUSH2 0x13D JUMP JUMPDEST DUP4 ADD DUP3 PUSH2 0x226 JUMP JUMPDEST POP POP JUMPDEST POP POP POP JUMP JUMPDEST PUSH0 DUP3 DUP3 SHR SWAP1 POP SWAP3 SWAP2 POP POP JUMP JUMPDEST PUSH0 PUSH2 0x2A9 PUSH0 NOT DUP5 PUSH1 0x8 MUL PUSH2 0x28E JUMP JUMPDEST NOT DUP1 DUP4 AND SWAP2 POP POP SWAP3 SWAP2 POP POP JUMP JUMPDEST PUSH0 PUSH2 0x2C1 DUP4 DUP4 PUSH2 0x29A JUMP JUMPDEST SWAP2 POP DUP3 PUSH1 0x2 MUL DUP3 OR SWAP1 POP SWAP3 SWAP2 POP POP JUMP JUMPDEST PUSH2 0x2DA DUP3 PUSH2 0x97 JUMP JUMPDEST PUSH8 0xFFFFFFFFFFFFFFFF DUP2 GT ISZERO PUSH2 0x2F3 JUMPI PUSH2 0x2F2 PUSH2 0xA1 JUMP JUMPDEST JUMPDEST PUSH2 0x2FD DUP3 SLOAD PUSH2 0xFB JUMP JUMPDEST PUSH2 0x308 DUP3 DUP3 DUP6 PUSH2 0x248 JUMP JUMPDEST PUSH0 PUSH1 0x20 SWAP1 POP PUSH1 0x1F DUP4 GT PUSH1 0x1 DUP2 EQ PUSH2 0x339 JUMPI PUSH0 DUP5 ISZERO PUSH2 0x327 JUMPI DUP3 DUP8 ADD MLOAD SWAP1 POP JUMPDEST PUSH2 0x331 DUP6 DUP3 PUSH2 0x2B6 JUMP JUMPDEST DUP7 SSTORE POP PUSH2 0x398 JUMP JUMPDEST PUSH1 0x1F NOT DUP5 AND PUSH2 0x347 DUP7 PUSH2 0x12B JUMP JUMPDEST PUSH0 JUMPDEST DUP3 DUP2 LT ISZERO PUSH2 0x36E JUMPI DUP5 DUP10 ADD MLOAD DUP3 SSTORE PUSH1 0x1 DUP3 ADD SWAP2 POP PUSH1 0x20 DUP6 ADD SWAP5 POP PUSH1 0x20 DUP2 ADD SWAP1 POP PUSH2 0x349 JUMP JUMPDEST DUP7 DUP4 LT ISZERO PUSH2 0x38B JUMPI DUP5 DUP10 ADD MLOAD PUSH2 0x387 PUSH1 0x1F DUP10 AND DUP3 PUSH2 0x29A JUMP JUMPDEST DUP4 SSTORE POP JUMPDEST PUSH1 0x1 PUSH1 0x2 DUP9 MUL ADD DUP9 SSTORE POP POP POP JUMPDEST POP POP POP POP POP POP JUMP JUMPDEST PUSH2 0x22B9 DUP1 PUSH2 0x3AD PUSH0 CODECOPY PUSH0 RETURN INVALID PUSH1 0x80 PUSH1 0x40 MSTORE PUSH1 0x4 CALLDATASIZE LT PUSH2 0x11E JUMPI PUSH0 CALLDATALOAD PUSH1 0xE0 SHR DUP1 PUSH4 0x4763FBD2 GT PUSH2 0x9F JUMPI DUP1 PUSH4 0xA5FDC5DE GT PUSH2 0x63 JUMPI DUP1 PUSH4 0xA5FDC5DE EQ PUSH2 0x3BC JUMPI DUP1 PUSH4 0xA9059CBB EQ PUSH2 0x3F8 JUMPI DUP1 PUSH4 0xB6F7132F EQ PUSH2 0x434 JUMPI DUP1 PUSH4 0xCD60F59F EQ PUSH2 0x470 JUMPI DUP1 PUSH4 0xDD62ED3E EQ PUSH2 0x498 JUMPI PUSH2 0x11E JUMP JUMPDEST DUP1 PUSH4 0x4763FBD2 EQ PUSH2 0x2CA JUMPI DUP1 PUSH4 0x70A08231 EQ PUSH2 0x306 JUMPI DUP1 PUSH4 0x79CC6790 EQ PUSH2 0x342 JUMPI DUP1 PUSH4 0x95D89B41 EQ PUSH2 0x36A JUMPI DUP1 PUSH4 0x9DC29FAC EQ PUSH2 0x394 JUMPI PUSH2 0x11E JUMP JUMPDEST DUP1 PUSH4 0x23B872DD GT PUSH2 0xE6 JUMPI DUP1 PUSH4 0x23B872DD EQ PUSH2 0x20A JUMPI DUP1 PUSH4 0x25F5A4A2 EQ PUSH2 0x246 JUMPI DUP1 PUSH4 0x2D968E1A EQ PUSH2 0x25C JUMPI DUP1 PUSH4 0x313CE567 EQ PUSH2 0x278 JUMPI DUP1 PUSH4 0x42966C68 EQ PUSH2 0x2A2 JUMPI PUSH2 0x11E JUMP JUMPDEST DUP1 PUSH4 0x6FDDE03 EQ PUSH2 0x122 JUMPI DUP1 PUSH4 0x95EA7B3 EQ PUSH2 0x14C JUMPI DUP1 PUSH4 0x18160DDD EQ PUSH2 0x188 JUMPI DUP1 PUSH4 0x1B2EF1CA EQ PUSH2 0x1B2 JUMPI DUP1 PUSH4 0x1F86956C EQ PUSH2 0x1CE JUMPI JUMPDEST PUSH0 DUP1 REVERT JUMPDEST CALLVALUE DUP1 ISZERO PUSH2 0x12D JUMPI PUSH0 DUP1 REVERT JUMPDEST POP PUSH2 0x136 PUSH2 0x4D4 JUMP JUMPDEST PUSH1 0x40 MLOAD PUSH2 0x143 SWAP2 SWAP1 PUSH2 0x197D JUMP JUMPDEST PUSH1 0x40 MLOAD DUP1 SWAP2 SUB SWAP1 RETURN JUMPDEST CALLVALUE DUP1 ISZERO PUSH2 0x157 JUMPI PUSH0 DUP1 REVERT JUMPDEST POP PUSH2 0x172 PUSH1 0x4 DUP1 CALLDATASIZE SUB DUP2 ADD SWAP1 PUSH2 0x16D SWAP2 SWAP1 PUSH2 0x1A2E JUMP JUMPDEST PUSH2 0x564 JUMP JUMPDEST PUSH1 0x40 MLOAD PUSH2 0x17F SWAP2 SWAP1 PUSH2 0x1A86 JUMP JUMPDEST PUSH1 0x40 MLOAD DUP1 SWAP2 SUB SWAP1 RETURN JUMPDEST CALLVALUE DUP1 ISZERO PUSH2 0x193 JUMPI PUSH0 DUP1 REVERT JUMPDEST POP PUSH2 0x19C PUSH2 0x586 JUMP JUMPDEST PUSH1 0x40 MLOAD PUSH2 0x1A9 SWAP2 SWAP1 PUSH2 0x1AAE JUMP JUMPDEST PUSH1 0x40 MLOAD DUP1 SWAP2 SUB SWAP1 RETURN JUMPDEST PUSH2 0x1CC PUSH1 0x4 DUP1 CALLDATASIZE SUB DUP2 ADD SWAP1 PUSH2 0x1C7 SWAP2 SWAP1 PUSH2 0x1AC7 JUMP JUMPDEST PUSH2 0x58F JUMP JUMPDEST STOP JUMPDEST CALLVALUE DUP1 ISZERO PUSH2 0x1D9 JUMPI PUSH0 DUP1 REVERT JUMPDEST POP PUSH2 0x1F4 PUSH1 0x4 DUP1 CALLDATASIZE SUB DUP2 ADD SWAP1 PUSH2 0x1EF SWAP2 SWAP1 PUSH2 0x1B05 JUMP JUMPDEST PUSH2 0x834 JUMP JUMPDEST PUSH1 0x40 MLOAD PUSH2 0x201 SWAP2 SWAP1 PUSH2 0x1AAE JUMP JUMPDEST PUSH1 0x40 MLOAD DUP1 SWAP2 SUB SWAP1 RETURN JUMPDEST CALLVALUE DUP1 ISZERO PUSH2 0x215 JUMPI PUSH0 DUP1 REVERT JUMPDEST POP PUSH2 0x230 PUSH1 0x4 DUP1 CALLDATASIZE SUB DUP2 ADD SWAP1 PUSH2 0x22B SWAP2 SWAP1 PUSH2 0x1B30 JUMP JUMPDEST PUSH2 0x849 JUMP JUMPDEST PUSH1 0x40 MLOAD PUSH2 0x23D SWAP2 SWAP1 PUSH2 0x1A86 JUMP JUMPDEST PUSH1 0x40 MLOAD DUP1 SWAP2 SUB SWAP1 RETURN JUMPDEST CALLVALUE DUP1 ISZERO PUSH2 0x251 JUMPI PUSH0 DUP1 REVERT JUMPDEST POP PUSH2 0x25A PUSH2 0x877 JUMP JUMPDEST STOP JUMPDEST PUSH2 0x276 PUSH1 0x4 DUP1 CALLDATASIZE SUB DUP2 ADD SWAP1 PUSH2 0x271 SWAP2 SWAP1 PUSH2 0x1B80 JUMP JUMPDEST PUSH2 0x9DF JUMP JUMPDEST STOP JUMPDEST CALLVALUE DUP1 ISZERO PUSH2 0x283 JUMPI PUSH0 DUP1 REVERT JUMPDEST POP PUSH2 0x28C PUSH2 0xC33 JUMP JUMPDEST PUSH1 0x40 MLOAD PUSH2 0x299 SWAP2 SWAP1 PUSH2 0x1BC6 JUMP JUMPDEST PUSH1 0x40 MLOAD DUP1 SWAP2 SUB SWAP1 RETURN JUMPDEST CALLVALUE DUP1 ISZERO PUSH2 0x2AD JUMPI PUSH0 DUP1 REVERT JUMPDEST POP PUSH2 0x2C8 PUSH1 0x4 DUP1 CALLDATASIZE SUB DUP2 ADD SWAP1 PUSH2 0x2C3 SWAP2 SWAP1 PUSH2 0x1B80 JUMP JUMPDEST PUSH2 0xC3B JUMP JUMPDEST STOP JUMPDEST CALLVALUE DUP1 ISZERO PUSH2 0x2D5 JUMPI PUSH0 DUP1 REVERT JUMPDEST POP PUSH2 0x2F0 PUSH1 0x4 DUP1 CALLDATASIZE SUB DUP2 ADD SWAP1 PUSH2 0x2EB SWAP2 SWAP1 PUSH2 0x1B05 JUMP JUMPDEST PUSH2 0xC4F JUMP JUMPDEST PUSH1 0x40 MLOAD PUSH2 0x2FD SWAP2 SWAP1 PUSH2 0x1AAE JUMP JUMPDEST PUSH1 0x40 MLOAD DUP1 SWAP2 SUB SWAP1 RETURN JUMPDEST CALLVALUE DUP1 ISZERO PUSH2 0x311 JUMPI PUSH0 DUP1 REVERT JUMPDEST POP PUSH2 0x32C PUSH1 0x4 DUP1 CALLDATASIZE SUB DUP2 ADD SWAP1 PUSH2 0x327 SWAP2 SWAP1 PUSH2 0x1B05 JUMP JUMPDEST PUSH2 0xC95 JUMP JUMPDEST PUSH1 0x40 MLOAD PUSH2 0x339 SWAP2 SWAP1 PUSH2 0x1AAE JUMP JUMPDEST PUSH1 0x40 MLOAD DUP1 SWAP2 SUB SWAP1 RETURN JUMPDEST CALLVALUE DUP1 ISZERO PUSH2 0x34D JUMPI PUSH0 DUP1 REVERT JUMPDEST POP PUSH2 0x368 PUSH1 0x4 DUP1 CALLDATASIZE SUB DUP2 ADD SWAP1 PUSH2 0x363 SWAP2 SWAP1 PUSH2 0x1A2E JUMP JUMPDEST PUSH2 0xCDA JUMP JUMPDEST STOP JUMPDEST CALLVALUE DUP1 ISZERO PUSH2 0x375 JUMPI PUSH0 DUP1 REVERT JUMPDEST POP PUSH2 0x37E PUSH2 0xCFA JUMP JUMPDEST PUSH1 0x40 MLOAD PUSH2 0x38B SWAP2 SWAP1 PUSH2 0x197D JUMP JUMPDEST PUSH1 0x40 MLOAD DUP1 SWAP2 SUB SWAP1 RETURN JUMPDEST CALLVALUE DUP1 ISZERO PUSH2 0x39F JUMPI PUSH0 DUP1 REVERT JUMPDEST POP PUSH2 0x3BA PUSH1 0x4 DUP1 CALLDATASIZE SUB DUP2 ADD SWAP1 PUSH2 0x3B5 SWAP2 SWAP1 PUSH2 0x1A2E JUMP JUMPDEST PUSH2 0xD8A JUMP JUMPDEST STOP JUMPDEST CALLVALUE DUP1 ISZERO PUSH2 0x3C7 JUMPI PUSH0 DUP1 REVERT JUMPDEST POP PUSH2 0x3E2 PUSH1 0x4 DUP1 CALLDATASIZE SUB DUP2 ADD SWAP1 PUSH2 0x3DD SWAP2 SWAP1 PUSH2 0x1B05 JUMP JUMPDEST PUSH2 0xE56 JUMP JUMPDEST PUSH1 0x40 MLOAD PUSH2 0x3EF SWAP2 SWAP1 PUSH2 0x1AAE JUMP JUMPDEST PUSH1 0x40 MLOAD DUP1 SWAP2 SUB SWAP1 RETURN JUMPDEST CALLVALUE DUP1 ISZERO PUSH2 0x403 JUMPI PUSH0 DUP1 REVERT JUMPDEST POP PUSH2 0x41E PUSH1 0x4 DUP1 CALLDATASIZE SUB DUP2 ADD SWAP1 PUSH2 0x419 SWAP2 SWAP1 PUSH2 0x1A2E JUMP JUMPDEST PUSH2 0xE6B JUMP JUMPDEST PUSH1 0x40 MLOAD PUSH2 0x42B SWAP2 SWAP1 PUSH2 0x1A86 JUMP JUMPDEST PUSH1 0x40 MLOAD DUP1 SWAP2 SUB SWAP1 RETURN JUMPDEST CALLVALUE DUP1 ISZERO PUSH2 0x43F JUMPI PUSH0 DUP1 REVERT JUMPDEST POP PUSH2 0x45A PUSH1 0x4 DUP1 CALLDATASIZE SUB DUP2 ADD SWAP1 PUSH2 0x455 SWAP2 SWAP1 PUSH2 0x1B05 JUMP JUMPDEST PUSH2 0xE8D JUMP JUMPDEST PUSH1 0x40 MLOAD PUSH2 0x467 SWAP2 SWAP1 PUSH2 0x1AAE JUMP JUMPDEST PUSH1 0x40 MLOAD DUP1 SWAP2 SUB SWAP1 RETURN JUMPDEST CALLVALUE DUP1 ISZERO PUSH2 0x47B JUMPI PUSH0 DUP1 REVERT JUMPDEST POP PUSH2 0x496 PUSH1 0x4 DUP1 CALLDATASIZE SUB DUP2 ADD SWAP1 PUSH2 0x491 SWAP2 SWAP1 PUSH2 0x1B30 JUMP JUMPDEST PUSH2 0xED3 JUMP JUMPDEST STOP JUMPDEST CALLVALUE DUP1 ISZERO PUSH2 0x4A3 JUMPI PUSH0 DUP1 REVERT JUMPDEST POP PUSH2 0x4BE PUSH1 0x4 DUP1 CALLDATASIZE SUB DUP2 ADD SWAP1 PUSH2 0x4B9 SWAP2 SWAP1 PUSH2 0x1BDF JUMP JUMPDEST PUSH2 0xFEF JUMP JUMPDEST PUSH1 0x40 MLOAD PUSH2 0x4CB SWAP2 SWAP1 PUSH2 0x1AAE JUMP JUMPDEST PUSH1 0x40 MLOAD DUP1 SWAP2 SUB SWAP1 RETURN JUMPDEST PUSH1 0x60 PUSH1 0x3 DUP1 SLOAD PUSH2 0x4E3 SWAP1 PUSH2 0x1C4A JUMP JUMPDEST DUP1 PUSH1 0x1F ADD PUSH1 0x20 DUP1 SWAP2 DIV MUL PUSH1 0x20 ADD PUSH1 0x40 MLOAD SWAP1 DUP2 ADD PUSH1 0x40 MSTORE DUP1 SWAP3 SWAP2 SWAP1 DUP2 DUP2 MSTORE PUSH1 0x20 ADD DUP3 DUP1 SLOAD PUSH2 0x50F SWAP1 PUSH2 0x1C4A JUMP JUMPDEST DUP1 ISZERO PUSH2 0x55A JUMPI DUP1 PUSH1 0x1F LT PUSH2 0x531 JUMPI PUSH2 0x100 DUP1 DUP4 SLOAD DIV MUL DUP4 MSTORE SWAP2 PUSH1 0x20 ADD SWAP2 PUSH2 0x55A JUMP JUMPDEST DUP3 ADD SWAP2 SWAP1 PUSH0 MSTORE PUSH1 0x20 PUSH0 KECCAK256 SWAP1 JUMPDEST DUP2 SLOAD DUP2 MSTORE SWAP1 PUSH1 0x1 ADD SWAP1 PUSH1 0x20 ADD DUP1 DUP4 GT PUSH2 0x53D JUMPI DUP3 SWAP1 SUB PUSH1 0x1F AND DUP3 ADD SWAP2 JUMPDEST POP POP POP POP POP SWAP1 POP SWAP1 JUMP JUMPDEST PUSH0 DUP1 PUSH2 0x56E PUSH2 0x1071 JUMP JUMPDEST SWAP1 POP PUSH2 0x57B DUP2 DUP6 DUP6 PUSH2 0x1078 JUMP JUMPDEST PUSH1 0x1 SWAP2 POP POP SWAP3 SWAP2 POP POP JUMP JUMPDEST PUSH0 PUSH1 0x2 SLOAD SWAP1 POP SWAP1 JUMP JUMPDEST PUSH0 PUSH1 0x6 PUSH0 CALLER PUSH20 0xFFFFFFFFFFFFFFFFFFFFFFFFFFFFFFFFFFFFFFFF AND PUSH20 0xFFFFFFFFFFFFFFFFFFFFFFFFFFFFFFFFFFFFFFFF AND DUP2 MSTORE PUSH1 0x20 ADD SWAP1 DUP2 MSTORE PUSH1 0x20 ADD PUSH0 KECCAK256 SLOAD EQ PUSH2 0x60E JUMPI PUSH1 0x40 MLOAD PUSH32 0x8C379A000000000000000000000000000000000000000000000000000000000 DUP2 MSTORE PUSH1 0x4 ADD PUSH2 0x605 SWAP1 PUSH2 0x1CEA JUMP JUMPDEST PUSH1 0x40 MLOAD DUP1 SWAP2 SUB SWAP1 REVERT JUMPDEST PUSH0 DUP2 DUP4 PUSH2 0x61B SWAP2 SWAP1 PUSH2 0x1D35 JUMP JUMPDEST SWAP1 POP DUP1 CALLVALUE LT ISZERO PUSH2 0x62A DUP3 PUSH2 0x108A JUMP JUMPDEST PUSH2 0x633 CALLVALUE PUSH2 0x108A JUMP JUMPDEST PUSH1 0x40 MLOAD PUSH1 0x20 ADD PUSH2 0x644 SWAP3 SWAP2 SWAP1 PUSH2 0x1EB4 JUMP JUMPDEST PUSH1 0x40 MLOAD PUSH1 0x20 DUP2 DUP4 SUB SUB DUP2 MSTORE SWAP1 PUSH1 0x40 MSTORE SWAP1 PUSH2 0x694 JUMPI PUSH1 0x40 MLOAD PUSH32 0x8C379A000000000000000000000000000000000000000000000000000000000 DUP2 MSTORE PUSH1 0x4 ADD PUSH2 0x68B SWAP2 SWAP1 PUSH2 0x197D JUMP JUMPDEST PUSH1 0x40 MLOAD DUP1 SWAP2 SUB SWAP1 REVERT JUMPDEST POP PUSH0 DUP2 CALLVALUE PUSH2 0x6A2 SWAP2 SWAP1 PUSH2 0x1EF8 JUMP JUMPDEST SWAP1 POP PUSH0 DUP2 GT ISZERO PUSH2 0x73F JUMPI CALLER PUSH20 0xFFFFFFFFFFFFFFFFFFFFFFFFFFFFFFFFFFFFFFFF AND PUSH2 0x8FC DUP3 SWAP1 DUP2 ISZERO MUL SWAP1 PUSH1 0x40 MLOAD PUSH0 PUSH1 0x40 MLOAD DUP1 DUP4 SUB DUP2 DUP6 DUP9 DUP9 CALL SWAP4 POP POP POP POP ISZERO DUP1 ISZERO PUSH2 0x6EF JUMPI RETURNDATASIZE PUSH0 DUP1 RETURNDATACOPY RETURNDATASIZE PUSH0 REVERT JUMPDEST POP CALLER PUSH20 0xFFFFFFFFFFFFFFFFFFFFFFFFFFFFFFFFFFFFFFFF AND PUSH32 0x5B04A20647D5E66C17CB0451B11E553BE5E09F9552D25B9F27D9B0C615C0B3D7 DUP3 PUSH1 0x40 MLOAD PUSH2 0x736 SWAP2 SWAP1 PUSH2 0x1AAE JUMP JUMPDEST PUSH1 0x40 MLOAD DUP1 SWAP2 SUB SWAP1 LOG2 JUMPDEST PUSH2 0x749 CALLER DUP6 PUSH2 0x1154 JUMP JUMPDEST DUP2 PUSH1 0x6 PUSH0 CALLER PUSH20 0xFFFFFFFFFFFFFFFFFFFFFFFFFFFFFFFFFFFFFFFF AND PUSH20 0xFFFFFFFFFFFFFFFFFFFFFFFFFFFFFFFFFFFFFFFF AND DUP2 MSTORE PUSH1 0x20 ADD SWAP1 DUP2 MSTORE PUSH1 0x20 ADD PUSH0 KECCAK256 PUSH0 DUP3 DUP3 SLOAD PUSH2 0x795 SWAP2 SWAP1 PUSH2 0x1F2B JUMP JUMPDEST SWAP3 POP POP DUP2 SWAP1 SSTORE POP DUP3 PUSH1 0x7 PUSH0 CALLER PUSH20 0xFFFFFFFFFFFFFFFFFFFFFFFFFFFFFFFFFFFFFFFF AND PUSH20 0xFFFFFFFFFFFFFFFFFFFFFFFFFFFFFFFFFFFFFFFF AND DUP2 MSTORE PUSH1 0x20 ADD SWAP1 DUP2 MSTORE PUSH1 0x20 ADD PUSH0 KECCAK256 DUP2 SWAP1 SSTORE POP CALLER PUSH20 0xFFFFFFFFFFFFFFFFFFFFFFFFFFFFFFFFFFFFFFFF AND PUSH32 0x4C209B5FC8AD50758F13E2E1088BA56A560DFF690A1C6FEF26394F4C03821C4F DUP6 DUP5 PUSH1 0x40 MLOAD PUSH2 0x826 SWAP3 SWAP2 SWAP1 PUSH2 0x1F5E JUMP JUMPDEST PUSH1 0x40 MLOAD DUP1 SWAP2 SUB SWAP1 LOG2 POP POP POP POP JUMP JUMPDEST PUSH1 0x7 PUSH1 0x20 MSTORE DUP1 PUSH0 MSTORE PUSH1 0x40 PUSH0 KECCAK256 PUSH0 SWAP2 POP SWAP1 POP SLOAD DUP2 JUMP JUMPDEST PUSH0 DUP1 PUSH2 0x853 PUSH2 0x1071 JUMP JUMPDEST SWAP1 POP PUSH2 0x860 DUP6 DUP3 DUP6 PUSH2 0x11D3 JUMP JUMPDEST PUSH2 0x86B DUP6 DUP6 DUP6 PUSH2 0x1265 JUMP JUMPDEST PUSH1 0x1 SWAP2 POP POP SWAP4 SWAP3 POP POP POP JUMP JUMPDEST PUSH0 PUSH1 0x6 PUSH0 CALLER PUSH20 0xFFFFFFFFFFFFFFFFFFFFFFFFFFFFFFFFFFFFFFFF AND PUSH20 0xFFFFFFFFFFFFFFFFFFFFFFFFFFFFFFFFFFFFFFFF AND DUP2 MSTORE PUSH1 0x20 ADD SWAP1 DUP2 MSTORE PUSH1 0x20 ADD PUSH0 KECCAK256 SLOAD GT PUSH2 0x8F6 JUMPI PUSH1 0x40 MLOAD PUSH32 0x8C379A000000000000000000000000000000000000000000000000000000000 DUP2 MSTORE PUSH1 0x4 ADD PUSH2 0x8ED SWAP1 PUSH2 0x1FF5 JUMP JUMPDEST PUSH1 0x40 MLOAD DUP1 SWAP2 SUB SWAP1 REVERT JUMPDEST PUSH1 0x6 PUSH0 CALLER PUSH20 0xFFFFFFFFFFFFFFFFFFFFFFFFFFFFFFFFFFFFFFFF AND PUSH20 0xFFFFFFFFFFFFFFFFFFFFFFFFFFFFFFFFFFFFFFFF AND DUP2 MSTORE PUSH1 0x20 ADD SWAP1 DUP2 MSTORE PUSH1 0x20 ADD PUSH0 KECCAK256 SLOAD PUSH1 0x5 DUP2 SWAP1 SSTORE POP PUSH0 PUSH1 0x7 PUSH0 CALLER PUSH20 0xFFFFFFFFFFFFFFFFFFFFFFFFFFFFFFFFFFFFFFFF AND PUSH20 0xFFFFFFFFFFFFFFFFFFFFFFFFFFFFFFFFFFFFFFFF AND DUP2 MSTORE PUSH1 0x20 ADD SWAP1 DUP2 MSTORE PUSH1 0x20 ADD PUSH0 KECCAK256 SLOAD SWAP1 POP PUSH0 PUSH2 0x985 CALLER PUSH2 0xC95 JUMP JUMPDEST SWAP1 POP CALLER PUSH20 0xFFFFFFFFFFFFFFFFFFFFFFFFFFFFFFFFFFFFFFFF AND PUSH32 0x7AEBACDE2D071F5BE831EEBAFE50C943E4FED4053C317AF2F8E2A0CD9AA0543 DUP3 PUSH1 0x5 SLOAD DUP6 PUSH1 0x40 MLOAD PUSH2 0x9D3 SWAP4 SWAP3 SWAP2 SWAP1 PUSH2 0x2013 JUMP JUMPDEST PUSH1 0x40 MLOAD DUP1 SWAP2 SUB SWAP1 LOG2 POP POP JUMP JUMPDEST PUSH0 PUSH1 0x6 PUSH0 CALLER PUSH20 0xFFFFFFFFFFFFFFFFFFFFFFFFFFFFFFFFFFFFFFFF AND PUSH20 0xFFFFFFFFFFFFFFFFFFFFFFFFFFFFFFFFFFFFFFFF AND DUP2 MSTORE PUSH1 0x20 ADD SWAP1 DUP2 MSTORE PUSH1 0x20 ADD PUSH0 KECCAK256 SLOAD GT PUSH2 0xA5E JUMPI PUSH1 0x40 MLOAD PUSH32 0x8C379A000000000000000000000000000000000000000000000000000000000 DUP2 MSTORE PUSH1 0x4 ADD PUSH2 0xA55 SWAP1 PUSH2 0x1FF5 JUMP JUMPDEST PUSH1 0x40 MLOAD DUP1 SWAP2 SUB SWAP1 REVERT JUMPDEST PUSH0 PUSH1 0x7 PUSH0 CALLER PUSH20 0xFFFFFFFFFFFFFFFFFFFFFFFFFFFFFFFFFFFFFFFF AND PUSH20 0xFFFFFFFFFFFFFFFFFFFFFFFFFFFFFFFFFFFFFFFF AND DUP2 MSTORE PUSH1 0x20 ADD SWAP1 DUP2 MSTORE PUSH1 0x20 ADD PUSH0 KECCAK256 SLOAD SWAP1 POP PUSH0 DUP2 DUP4 PUSH2 0xAAC SWAP2 SWAP1 PUSH2 0x1D35 JUMP JUMPDEST SWAP1 POP DUP1 CALLVALUE LT ISZERO PUSH2 0xABB DUP3 PUSH2 0x108A JUMP JUMPDEST PUSH2 0xAC4 CALLVALUE PUSH2 0x108A JUMP JUMPDEST PUSH1 0x40 MLOAD PUSH1 0x20 ADD PUSH2 0xAD5 SWAP3 SWAP2 SWAP1 PUSH2 0x1EB4 JUMP JUMPDEST PUSH1 0x40 MLOAD PUSH1 0x20 DUP2 DUP4 SUB SUB DUP2 MSTORE SWAP1 PUSH1 0x40 MSTORE SWAP1 PUSH2 0xB25 JUMPI PUSH1 0x40 MLOAD PUSH32 0x8C379A000000000000000000000000000000000000000000000000000000000 DUP2 MSTORE PUSH1 0x4 ADD PUSH2 0xB1C SWAP2 SWAP1 PUSH2 0x197D JUMP JUMPDEST PUSH1 0x40 MLOAD DUP1 SWAP2 SUB SWAP1 REVERT JUMPDEST POP PUSH0 DUP2 CALLVALUE PUSH2 0xB33 SWAP2 SWAP1 PUSH2 0x1EF8 JUMP JUMPDEST SWAP1 POP PUSH0 DUP2 GT ISZERO PUSH2 0xBD0 JUMPI CALLER PUSH20 0xFFFFFFFFFFFFFFFFFFFFFFFFFFFFFFFFFFFFFFFF AND PUSH2 0x8FC DUP3 SWAP1 DUP2 ISZERO MUL SWAP1 PUSH1 0x40 MLOAD PUSH0 PUSH1 0x40 MLOAD DUP1 DUP4 SUB DUP2 DUP6 DUP9 DUP9 CALL SWAP4 POP POP POP POP ISZERO DUP1 ISZERO PUSH2 0xB80 JUMPI RETURNDATASIZE PUSH0 DUP1 RETURNDATACOPY RETURNDATASIZE PUSH0 REVERT JUMPDEST POP CALLER PUSH20 0xFFFFFFFFFFFFFFFFFFFFFFFFFFFFFFFFFFFFFFFF AND PUSH32 0x5B04A20647D5E66C17CB0451B11E553BE5E09F9552D25B9F27D9B0C615C0B3D7 DUP3 PUSH1 0x40 MLOAD PUSH2 0xBC7 SWAP2 SWAP1 PUSH2 0x1AAE JUMP JUMPDEST PUSH1 0x40 MLOAD DUP1 SWAP2 SUB SWAP1 LOG2 JUMPDEST PUSH2 0xBDA CALLER DUP6 PUSH2 0x1154 JUMP JUMPDEST DUP2 PUSH1 0x6 PUSH0 CALLER PUSH20 0xFFFFFFFFFFFFFFFFFFFFFFFFFFFFFFFFFFFFFFFF AND PUSH20 0xFFFFFFFFFFFFFFFFFFFFFFFFFFFFFFFFFFFFFFFF AND DUP2 MSTORE PUSH1 0x20 ADD SWAP1 DUP2 MSTORE PUSH1 0x20 ADD PUSH0 KECCAK256 PUSH0 DUP3 DUP3 SLOAD PUSH2 0xC26 SWAP2 SWAP1 PUSH2 0x1F2B JUMP JUMPDEST SWAP3 POP POP DUP2 SWAP1 SSTORE POP POP POP POP POP JUMP JUMPDEST PUSH0 PUSH1 0x12 SWAP1 POP SWAP1 JUMP JUMPDEST PUSH2 0xC4C PUSH2 0xC46 PUSH2 0x1071 JUMP JUMPDEST DUP3 PUSH2 0x1355 JUMP JUMPDEST POP JUMP JUMPDEST PUSH0 PUSH1 0x7 PUSH0 DUP4 PUSH20 0xFFFFFFFFFFFFFFFFFFFFFFFFFFFFFFFFFFFFFFFF AND PUSH20 0xFFFFFFFFFFFFFFFFFFFFFFFFFFFFFFFFFFFFFFFF AND DUP2 MSTORE PUSH1 0x20 ADD SWAP1 DUP2 MSTORE PUSH1 0x20 ADD PUSH0 KECCAK256 SLOAD SWAP1 POP SWAP2 SWAP1 POP JUMP JUMPDEST PUSH0 DUP1 PUSH0 DUP4 PUSH20 0xFFFFFFFFFFFFFFFFFFFFFFFFFFFFFFFFFFFFFFFF AND PUSH20 0xFFFFFFFFFFFFFFFFFFFFFFFFFFFFFFFFFFFFFFFF AND DUP2 MSTORE PUSH1 0x20 ADD SWAP1 DUP2 MSTORE PUSH1 0x20 ADD PUSH0 KECCAK256 SLOAD SWAP1 POP SWAP2 SWAP1 POP JUMP JUMPDEST PUSH2 0xCEC DUP3 PUSH2 0xCE6 PUSH2 0x1071 JUMP JUMPDEST DUP4 PUSH2 0x11D3 JUMP JUMPDEST PUSH2 0xCF6 DUP3 DUP3 PUSH2 0x1355 JUMP JUMPDEST POP POP JUMP JUMPDEST PUSH1 0x60 PUSH1 0x4 DUP1 SLOAD PUSH2 0xD09 SWAP1 PUSH2 0x1C4A JUMP JUMPDEST DUP1 PUSH1 0x1F ADD PUSH1 0x20 DUP1 SWAP2 DIV MUL PUSH1 0x20 ADD PUSH1 0x40 MLOAD SWAP1 DUP2 ADD PUSH1 0x40 MSTORE DUP1 SWAP3 SWAP2 SWAP1 DUP2 DUP2 MSTORE PUSH1 0x20 ADD DUP3 DUP1 SLOAD PUSH2 0xD35 SWAP1 PUSH2 0x1C4A JUMP JUMPDEST DUP1 ISZERO PUSH2 0xD80 JUMPI DUP1 PUSH1 0x1F LT PUSH2 0xD57 JUMPI PUSH2 0x100 DUP1 DUP4 SLOAD DIV MUL DUP4 MSTORE SWAP2 PUSH1 0x20 ADD SWAP2 PUSH2 0xD80 JUMP JUMPDEST DUP3 ADD SWAP2 SWAP1 PUSH0 MSTORE PUSH1 0x20 PUSH0 KECCAK256 SWAP1 JUMPDEST DUP2 SLOAD DUP2 MSTORE SWAP1 PUSH1 0x1 ADD SWAP1 PUSH1 0x20 ADD DUP1 DUP4 GT PUSH2 0xD63 JUMPI DUP3 SWAP1 SUB PUSH1 0x1F AND DUP3 ADD SWAP2 JUMPDEST POP POP POP POP POP SWAP1 POP SWAP1 JUMP JUMPDEST PUSH0 PUSH20 0xFFFFFFFFFFFFFFFFFFFFFFFFFFFFFFFFFFFFFFFF AND DUP3 PUSH20 0xFFFFFFFFFFFFFFFFFFFFFFFFFFFFFFFFFFFFFFFF AND SUB PUSH2 0xDF8 JUMPI PUSH1 0x40 MLOAD PUSH32 0x8C379A000000000000000000000000000000000000000000000000000000000 DUP2 MSTORE PUSH1 0x4 ADD PUSH2 0xDEF SWAP1 PUSH2 0x20B8 JUMP JUMPDEST PUSH1 0x40 MLOAD DUP1 SWAP2 SUB SWAP1 REVERT JUMPDEST PUSH0 PUSH2 0xE02 DUP4 PUSH2 0xC95 JUMP JUMPDEST SWAP1 POP DUP2 DUP2 LT ISZERO PUSH2 0xE47 JUMPI PUSH1 0x40 MLOAD PUSH32 0x8C379A000000000000000000000000000000000000000000000000000000000 DUP2 MSTORE PUSH1 0x4 ADD PUSH2 0xE3E SWAP1 PUSH2 0x2146 JUMP JUMPDEST PUSH1 0x40 MLOAD DUP1 SWAP2 SUB SWAP1 REVERT JUMPDEST PUSH2 0xE51 DUP4 DUP4 PUSH2 0x1355 JUMP JUMPDEST POP POP POP JUMP JUMPDEST PUSH1 0x6 PUSH1 0x20 MSTORE DUP1 PUSH0 MSTORE PUSH1 0x40 PUSH0 KECCAK256 PUSH0 SWAP2 POP SWAP1 POP SLOAD DUP2 JUMP JUMPDEST PUSH0 DUP1 PUSH2 0xE75 PUSH2 0x1071 JUMP JUMPDEST SWAP1 POP PUSH2 0xE82 DUP2 DUP6 DUP6 PUSH2 0x1265 JUMP JUMPDEST PUSH1 0x1 SWAP2 POP POP SWAP3 SWAP2 POP POP JUMP JUMPDEST PUSH0 PUSH1 0x6 PUSH0 DUP4 PUSH20 0xFFFFFFFFFFFFFFFFFFFFFFFFFFFFFFFFFFFFFFFF AND PUSH20 0xFFFFFFFFFFFFFFFFFFFFFFFFFFFFFFFFFFFFFFFF AND DUP2 MSTORE PUSH1 0x20 ADD SWAP1 DUP2 MSTORE PUSH1 0x20 ADD PUSH0 KECCAK256 SLOAD SWAP1 POP SWAP2 SWAP1 POP JUMP JUMPDEST DUP1 PUSH1 0x6 PUSH0 DUP6 PUSH20 0xFFFFFFFFFFFFFFFFFFFFFFFFFFFFFFFFFFFFFFFF AND PUSH20 0xFFFFFFFFFFFFFFFFFFFFFFFFFFFFFFFFFFFFFFFF AND DUP2 MSTORE PUSH1 0x20 ADD SWAP1 DUP2 MSTORE PUSH1 0x20 ADD PUSH0 KECCAK256 SLOAD LT ISZERO PUSH2 0xF53 JUMPI PUSH1 0x40 MLOAD PUSH32 0x8C379A000000000000000000000000000000000000000000000000000000000 DUP2 MSTORE PUSH1 0x4 ADD PUSH2 0xF4A SWAP1 PUSH2 0x21AE JUMP JUMPDEST PUSH1 0x40 MLOAD DUP1 SWAP2 SUB SWAP1 REVERT JUMPDEST DUP1 PUSH1 0x6 PUSH0 DUP6 PUSH20 0xFFFFFFFFFFFFFFFFFFFFFFFFFFFFFFFFFFFFFFFF AND PUSH20 0xFFFFFFFFFFFFFFFFFFFFFFFFFFFFFFFFFFFFFFFF AND DUP2 MSTORE PUSH1 0x20 ADD SWAP1 DUP2 MSTORE PUSH1 0x20 ADD PUSH0 KECCAK256 PUSH0 DUP3 DUP3 SLOAD PUSH2 0xF9F SWAP2 SWAP1 PUSH2 0x1EF8 JUMP JUMPDEST SWAP3 POP POP DUP2 SWAP1 SSTORE POP DUP2 PUSH20 0xFFFFFFFFFFFFFFFFFFFFFFFFFFFFFFFFFFFFFFFF AND PUSH2 0x8FC DUP3 SWAP1 DUP2 ISZERO MUL SWAP1 PUSH1 0x40 MLOAD PUSH0 PUSH1 0x40 MLOAD DUP1 DUP4 SUB DUP2 DUP6 DUP9 DUP9 CALL SWAP4 POP POP POP POP ISZERO DUP1 ISZERO PUSH2 0xFE9 JUMPI RETURNDATASIZE PUSH0 DUP1 RETURNDATACOPY RETURNDATASIZE PUSH0 REVERT JUMPDEST POP POP POP POP JUMP JUMPDEST PUSH0 PUSH1 0x1 PUSH0 DUP5 PUSH20 0xFFFFFFFFFFFFFFFFFFFFFFFFFFFFFFFFFFFFFFFF AND PUSH20 0xFFFFFFFFFFFFFFFFFFFFFFFFFFFFFFFFFFFFFFFF AND DUP2 MSTORE PUSH1 0x20 ADD SWAP1 DUP2 MSTORE PUSH1 0x20 ADD PUSH0 KECCAK256 PUSH0 DUP4 PUSH20 0xFFFFFFFFFFFFFFFFFFFFFFFFFFFFFFFFFFFFFFFF AND PUSH20 0xFFFFFFFFFFFFFFFFFFFFFFFFFFFFFFFFFFFFFFFF AND DUP2 MSTORE PUSH1 0x20 ADD SWAP1 DUP2 MSTORE PUSH1 0x20 ADD PUSH0 KECCAK256 SLOAD SWAP1 POP SWAP3 SWAP2 POP POP JUMP JUMPDEST PUSH0 CALLER SWAP1 POP SWAP1 JUMP JUMPDEST PUSH2 0x1085 DUP4 DUP4 DUP4 PUSH1 0x1 PUSH2 0x13D4 JUMP JUMPDEST POP POP POP JUMP JUMPDEST PUSH1 0x60 PUSH0 PUSH1 0x1 PUSH2 0x1098 DUP5 PUSH2 0x15A3 JUMP JUMPDEST ADD SWAP1 POP PUSH0 DUP2 PUSH8 0xFFFFFFFFFFFFFFFF DUP2 GT ISZERO PUSH2 0x10B6 JUMPI PUSH2 0x10B5 PUSH2 0x21CC JUMP JUMPDEST JUMPDEST PUSH1 0x40 MLOAD SWAP1 DUP1 DUP3 MSTORE DUP1 PUSH1 0x1F ADD PUSH1 0x1F NOT AND PUSH1 0x20 ADD DUP3 ADD PUSH1 0x40 MSTORE DUP1 ISZERO PUSH2 0x10E8 JUMPI DUP2 PUSH1 0x20 ADD PUSH1 0x1 DUP3 MUL DUP1 CALLDATASIZE DUP4 CALLDATACOPY DUP1 DUP3 ADD SWAP2 POP POP SWAP1 POP JUMPDEST POP SWAP1 POP PUSH0 DUP3 PUSH1 0x20 ADD DUP3 ADD SWAP1 POP JUMPDEST PUSH1 0x1 ISZERO PUSH2 0x1149 JUMPI DUP1 DUP1 PUSH1 0x1 SWAP1 SUB SWAP2 POP POP PUSH32 0x3031323334353637383961626364656600000000000000000000000000000000 PUSH1 0xA DUP7 MOD BYTE DUP2 MSTORE8 PUSH1 0xA DUP6 DUP2 PUSH2 0x113E JUMPI PUSH2 0x113D PUSH2 0x21F9 JUMP JUMPDEST JUMPDEST DIV SWAP5 POP PUSH0 DUP6 SUB PUSH2 0x10F5 JUMPI JUMPDEST DUP2 SWAP4 POP POP POP POP SWAP2 SWAP1 POP JUMP JUMPDEST PUSH0 PUSH20 0xFFFFFFFFFFFFFFFFFFFFFFFFFFFFFFFFFFFFFFFF AND DUP3 PUSH20 0xFFFFFFFFFFFFFFFFFFFFFFFFFFFFFFFFFFFFFFFF AND SUB PUSH2 0x11C4 JUMPI PUSH0 PUSH1 0x40 MLOAD PUSH32 0xEC442F0500000000000000000000000000000000000000000000000000000000 DUP2 MSTORE PUSH1 0x4 ADD PUSH2 0x11BB SWAP2 SWAP1 PUSH2 0x2235 JUMP JUMPDEST PUSH1 0x40 MLOAD DUP1 SWAP2 SUB SWAP1 REVERT JUMPDEST PUSH2 0x11CF PUSH0 DUP4 DUP4 PUSH2 0x16F4 JUMP JUMPDEST POP POP JUMP JUMPDEST PUSH0 PUSH2 0x11DE DUP5 DUP5 PUSH2 0xFEF JUMP JUMPDEST SWAP1 POP PUSH32 0xFFFFFFFFFFFFFFFFFFFFFFFFFFFFFFFFFFFFFFFFFFFFFFFFFFFFFFFFFFFFFFFF DUP2 EQ PUSH2 0x125F JUMPI DUP2 DUP2 LT ISZERO PUSH2 0x1250 JUMPI DUP3 DUP2 DUP4 PUSH1 0x40 MLOAD PUSH32 0xFB8F41B200000000000000000000000000000000000000000000000000000000 DUP2 MSTORE PUSH1 0x4 ADD PUSH2 0x1247 SWAP4 SWAP3 SWAP2 SWAP1 PUSH2 0x224E JUMP JUMPDEST PUSH1 0x40 MLOAD DUP1 SWAP2 SUB SWAP1 REVERT JUMPDEST PUSH2 0x125E DUP5 DUP5 DUP5 DUP5 SUB PUSH0 PUSH2 0x13D4 JUMP JUMPDEST JUMPDEST POP POP POP POP JUMP JUMPDEST PUSH0 PUSH20 0xFFFFFFFFFFFFFFFFFFFFFFFFFFFFFFFFFFFFFFFF AND DUP4 PUSH20 0xFFFFFFFFFFFFFFFFFFFFFFFFFFFFFFFFFFFFFFFF AND SUB PUSH2 0x12D5 JUMPI PUSH0 PUSH1 0x40 MLOAD PUSH32 0x96C6FD1E00000000000000000000000000000000000000000000000000000000 DUP2 MSTORE PUSH1 0x4 ADD PUSH2 0x12CC SWAP2 SWAP1 PUSH2 0x2235 JUMP JUMPDEST PUSH1 0x40 MLOAD DUP1 SWAP2 SUB SWAP1 REVERT JUMPDEST PUSH0 PUSH20 0xFFFFFFFFFFFFFFFFFFFFFFFFFFFFFFFFFFFFFFFF AND DUP3 PUSH20 0xFFFFFFFFFFFFFFFFFFFFFFFFFFFFFFFFFFFFFFFF AND SUB PUSH2 0x1345 JUMPI PUSH0 PUSH1 0x40 MLOAD PUSH32 0xEC442F0500000000000000000000000000000000000000000000000000000000 DUP2 MSTORE PUSH1 0x4 ADD PUSH2 0x133C SWAP2 SWAP1 PUSH2 0x2235 JUMP JUMPDEST PUSH1 0x40 MLOAD DUP1 SWAP2 SUB SWAP1 REVERT JUMPDEST PUSH2 0x1350 DUP4 DUP4 DUP4 PUSH2 0x16F4 JUMP JUMPDEST POP POP POP JUMP JUMPDEST PUSH0 PUSH20 0xFFFFFFFFFFFFFFFFFFFFFFFFFFFFFFFFFFFFFFFF AND DUP3 PUSH20 0xFFFFFFFFFFFFFFFFFFFFFFFFFFFFFFFFFFFFFFFF AND SUB PUSH2 0x13C5 JUMPI PUSH0 PUSH1 0x40 MLOAD PUSH32 0x96C6FD1E00000000000000000000000000000000000000000000000000000000 DUP2 MSTORE PUSH1 0x4 ADD PUSH2 0x13BC SWAP2 SWAP1 PUSH2 0x2235 JUMP JUMPDEST PUSH1 0x40 MLOAD DUP1 SWAP2 SUB SWAP1 REVERT JUMPDEST PUSH2 0x13D0 DUP3 PUSH0 DUP4 PUSH2 0x16F4 JUMP JUMPDEST POP POP JUMP JUMPDEST PUSH0 PUSH20 0xFFFFFFFFFFFFFFFFFFFFFFFFFFFFFFFFFFFFFFFF AND DUP5 PUSH20 0xFFFFFFFFFFFFFFFFFFFFFFFFFFFFFFFFFFFFFFFF AND SUB PUSH2 0x1444 JUMPI PUSH0 PUSH1 0x40 MLOAD PUSH32 0xE602DF0500000000000000000000000000000000000000000000000000000000 DUP2 MSTORE PUSH1 0x4 ADD PUSH2 0x143B SWAP2 SWAP1 PUSH2 0x2235 JUMP JUMPDEST PUSH1 0x40 MLOAD DUP1 SWAP2 SUB SWAP1 REVERT JUMPDEST PUSH0 PUSH20 0xFFFFFFFFFFFFFFFFFFFFFFFFFFFFFFFFFFFFFFFF AND DUP4 PUSH20 0xFFFFFFFFFFFFFFFFFFFFFFFFFFFFFFFFFFFFFFFF AND SUB PUSH2 0x14B4 JUMPI PUSH0 PUSH1 0x40 MLOAD PUSH32 0x94280D6200000000000000000000000000000000000000000000000000000000 DUP2 MSTORE PUSH1 0x4 ADD PUSH2 0x14AB SWAP2 SWAP1 PUSH2 0x2235 JUMP JUMPDEST PUSH1 0x40 MLOAD DUP1 SWAP2 SUB SWAP1 REVERT JUMPDEST DUP2 PUSH1 0x1 PUSH0 DUP7 PUSH20 0xFFFFFFFFFFFFFFFFFFFFFFFFFFFFFFFFFFFFFFFF AND PUSH20 0xFFFFFFFFFFFFFFFFFFFFFFFFFFFFFFFFFFFFFFFF AND DUP2 MSTORE PUSH1 0x20 ADD SWAP1 DUP2 MSTORE PUSH1 0x20 ADD PUSH0 KECCAK256 PUSH0 DUP6 PUSH20 0xFFFFFFFFFFFFFFFFFFFFFFFFFFFFFFFFFFFFFFFF AND PUSH20 0xFFFFFFFFFFFFFFFFFFFFFFFFFFFFFFFFFFFFFFFF AND DUP2 MSTORE PUSH1 0x20 ADD SWAP1 DUP2 MSTORE PUSH1 0x20 ADD PUSH0 KECCAK256 DUP2 SWAP1 SSTORE POP DUP1 ISZERO PUSH2 0x159D JUMPI DUP3 PUSH20 0xFFFFFFFFFFFFFFFFFFFFFFFFFFFFFFFFFFFFFFFF AND DUP5 PUSH20 0xFFFFFFFFFFFFFFFFFFFFFFFFFFFFFFFFFFFFFFFF AND PUSH32 0x8C5BE1E5EBEC7D5BD14F71427D1E84F3DD0314C0F7B2291E5B200AC8C7C3B925 DUP5 PUSH1 0x40 MLOAD PUSH2 0x1594 SWAP2 SWAP1 PUSH2 0x1AAE JUMP JUMPDEST PUSH1 0x40 MLOAD DUP1 SWAP2 SUB SWAP1 LOG3 JUMPDEST POP POP POP POP JUMP JUMPDEST PUSH0 DUP1 PUSH0 SWAP1 POP PUSH27 0x184F03E93FF9F4DAA797ED6E38ED64BF6A1F010000000000000000 DUP4 LT PUSH2 0x15FF JUMPI PUSH27 0x184F03E93FF9F4DAA797ED6E38ED64BF6A1F010000000000000000 DUP4 DUP2 PUSH2 0x15F5 JUMPI PUSH2 0x15F4 PUSH2 0x21F9 JUMP JUMPDEST JUMPDEST DIV SWAP3 POP PUSH1 0x40 DUP2 ADD SWAP1 POP JUMPDEST PUSH14 0x4EE2D6D415B85ACEF8100000000 DUP4 LT PUSH2 0x163C JUMPI PUSH14 0x4EE2D6D415B85ACEF8100000000 DUP4 DUP2 PUSH2 0x1632 JUMPI PUSH2 0x1631 PUSH2 0x21F9 JUMP JUMPDEST JUMPDEST DIV SWAP3 POP PUSH1 0x20 DUP2 ADD SWAP1 POP JUMPDEST PUSH7 0x2386F26FC10000 DUP4 LT PUSH2 0x166B JUMPI PUSH7 0x2386F26FC10000 DUP4 DUP2 PUSH2 0x1661 JUMPI PUSH2 0x1660 PUSH2 0x21F9 JUMP JUMPDEST JUMPDEST DIV SWAP3 POP PUSH1 0x10 DUP2 ADD SWAP1 POP JUMPDEST PUSH4 0x5F5E100 DUP4 LT PUSH2 0x1694 JUMPI PUSH4 0x5F5E100 DUP4 DUP2 PUSH2 0x168A JUMPI PUSH2 0x1689 PUSH2 0x21F9 JUMP JUMPDEST JUMPDEST DIV SWAP3 POP PUSH1 0x8 DUP2 ADD SWAP1 POP JUMPDEST PUSH2 0x2710 DUP4 LT PUSH2 0x16B9 JUMPI PUSH2 0x2710 DUP4 DUP2 PUSH2 0x16AF JUMPI PUSH2 0x16AE PUSH2 0x21F9 JUMP JUMPDEST JUMPDEST DIV SWAP3 POP PUSH1 0x4 DUP2 ADD SWAP1 POP JUMPDEST PUSH1 0x64 DUP4 LT PUSH2 0x16DC JUMPI PUSH1 0x64 DUP4 DUP2 PUSH2 0x16D2 JUMPI PUSH2 0x16D1 PUSH2 0x21F9 JUMP JUMPDEST JUMPDEST DIV SWAP3 POP PUSH1 0x2 DUP2 ADD SWAP1 POP JUMPDEST PUSH1 0xA DUP4 LT PUSH2 0x16EB JUMPI PUSH1 0x1 DUP2 ADD SWAP1 POP JUMPDEST DUP1 SWAP2 POP POP SWAP2 SWAP1 POP JUMP JUMPDEST PUSH0 PUSH20 0xFFFFFFFFFFFFFFFFFFFFFFFFFFFFFFFFFFFFFFFF AND DUP4 PUSH20 0xFFFFFFFFFFFFFFFFFFFFFFFFFFFFFFFFFFFFFFFF AND SUB PUSH2 0x1744 JUMPI DUP1 PUSH1 0x2 PUSH0 DUP3 DUP3 SLOAD PUSH2 0x1738 SWAP2 SWAP1 PUSH2 0x1F2B JUMP JUMPDEST SWAP3 POP POP DUP2 SWAP1 SSTORE POP PUSH2 0x1812 JUMP JUMPDEST PUSH0 DUP1 PUSH0 DUP6 PUSH20 0xFFFFFFFFFFFFFFFFFFFFFFFFFFFFFFFFFFFFFFFF AND PUSH20 0xFFFFFFFFFFFFFFFFFFFFFFFFFFFFFFFFFFFFFFFF AND DUP2 MSTORE PUSH1 0x20 ADD SWAP1 DUP2 MSTORE PUSH1 0x20 ADD PUSH0 KECCAK256 SLOAD SWAP1 POP DUP2 DUP2 LT ISZERO PUSH2 0x17CD JUMPI DUP4 DUP2 DUP4 PUSH1 0x40 MLOAD PUSH32 0xE450D38C00000000000000000000000000000000000000000000000000000000 DUP2 MSTORE PUSH1 0x4 ADD PUSH2 0x17C4 SWAP4 SWAP3 SWAP2 SWAP1 PUSH2 0x224E JUMP JUMPDEST PUSH1 0x40 MLOAD DUP1 SWAP2 SUB SWAP1 REVERT JUMPDEST DUP2 DUP2 SUB PUSH0 DUP1 DUP7 PUSH20 0xFFFFFFFFFFFFFFFFFFFFFFFFFFFFFFFFFFFFFFFF AND PUSH20 0xFFFFFFFFFFFFFFFFFFFFFFFFFFFFFFFFFFFFFFFF AND DUP2 MSTORE PUSH1 0x20 ADD SWAP1 DUP2 MSTORE PUSH1 0x20 ADD PUSH0 KECCAK256 DUP2 SWAP1 SSTORE POP POP JUMPDEST PUSH0 PUSH20 0xFFFFFFFFFFFFFFFFFFFFFFFFFFFFFFFFFFFFFFFF AND DUP3 PUSH20 0xFFFFFFFFFFFFFFFFFFFFFFFFFFFFFFFFFFFFFFFF AND SUB PUSH2 0x1859 JUMPI DUP1 PUSH1 0x2 PUSH0 DUP3 DUP3 SLOAD SUB SWAP3 POP POP DUP2 SWAP1 SSTORE POP PUSH2 0x18A3 JUMP JUMPDEST DUP1 PUSH0 DUP1 DUP5 PUSH20 0xFFFFFFFFFFFFFFFFFFFFFFFFFFFFFFFFFFFFFFFF AND PUSH20 0xFFFFFFFFFFFFFFFFFFFFFFFFFFFFFFFFFFFFFFFF AND DUP2 MSTORE PUSH1 0x20 ADD SWAP1 DUP2 MSTORE PUSH1 0x20 ADD PUSH0 KECCAK256 PUSH0 DUP3 DUP3 SLOAD ADD SWAP3 POP POP DUP2 SWAP1 SSTORE POP JUMPDEST DUP2 PUSH20 0xFFFFFFFFFFFFFFFFFFFFFFFFFFFFFFFFFFFFFFFF AND DUP4 PUSH20 0xFFFFFFFFFFFFFFFFFFFFFFFFFFFFFFFFFFFFFFFF AND PUSH32 0xDDF252AD1BE2C89B69C2B068FC378DAA952BA7F163C4A11628F55A4DF523B3EF DUP4 PUSH1 0x40 MLOAD PUSH2 0x1900 SWAP2 SWAP1 PUSH2 0x1AAE JUMP JUMPDEST PUSH1 0x40 MLOAD DUP1 SWAP2 SUB SWAP1 LOG3 POP POP POP JUMP JUMPDEST PUSH0 DUP2 MLOAD SWAP1 POP SWAP2 SWAP1 POP JUMP JUMPDEST PUSH0 DUP3 DUP3 MSTORE PUSH1 0x20 DUP3 ADD SWAP1 POP SWAP3 SWAP2 POP POP JUMP JUMPDEST DUP3 DUP2 DUP4 MCOPY PUSH0 DUP4 DUP4 ADD MSTORE POP POP POP JUMP JUMPDEST PUSH0 PUSH1 0x1F NOT PUSH1 0x1F DUP4 ADD AND SWAP1 POP SWAP2 SWAP1 POP JUMP JUMPDEST PUSH0 PUSH2 0x194F DUP3 PUSH2 0x190D JUMP JUMPDEST PUSH2 0x1959 DUP2 DUP6 PUSH2 0x1917 JUMP JUMPDEST SWAP4 POP PUSH2 0x1969 DUP2 DUP6 PUSH1 0x20 DUP7 ADD PUSH2 0x1927 JUMP JUMPDEST PUSH2 0x1972 DUP2 PUSH2 0x1935 JUMP JUMPDEST DUP5 ADD SWAP2 POP POP SWAP3 SWAP2 POP POP JUMP JUMPDEST PUSH0 PUSH1 0x20 DUP3 ADD SWAP1 POP DUP2 DUP2 SUB PUSH0 DUP4 ADD MSTORE PUSH2 0x1995 DUP2 DUP5 PUSH2 0x1945 JUMP JUMPDEST SWAP1 POP SWAP3 SWAP2 POP POP JUMP JUMPDEST PUSH0 DUP1 REVERT JUMPDEST PUSH0 PUSH20 0xFFFFFFFFFFFFFFFFFFFFFFFFFFFFFFFFFFFFFFFF DUP3 AND SWAP1 POP SWAP2 SWAP1 POP JUMP JUMPDEST PUSH0 PUSH2 0x19CA DUP3 PUSH2 0x19A1 JUMP JUMPDEST SWAP1 POP SWAP2 SWAP1 POP JUMP JUMPDEST PUSH2 0x19DA DUP2 PUSH2 0x19C0 JUMP JUMPDEST DUP2 EQ PUSH2 0x19E4 JUMPI PUSH0 DUP1 REVERT JUMPDEST POP JUMP JUMPDEST PUSH0 DUP2 CALLDATALOAD SWAP1 POP PUSH2 0x19F5 DUP2 PUSH2 0x19D1 JUMP JUMPDEST SWAP3 SWAP2 POP POP JUMP JUMPDEST PUSH0 DUP2 SWAP1 POP SWAP2 SWAP1 POP JUMP JUMPDEST PUSH2 0x1A0D DUP2 PUSH2 0x19FB JUMP JUMPDEST DUP2 EQ PUSH2 0x1A17 JUMPI PUSH0 DUP1 REVERT JUMPDEST POP JUMP JUMPDEST PUSH0 DUP2 CALLDATALOAD SWAP1 POP PUSH2 0x1A28 DUP2 PUSH2 0x1A04 JUMP JUMPDEST SWAP3 SWAP2 POP POP JUMP JUMPDEST PUSH0 DUP1 PUSH1 0x40 DUP4 DUP6 SUB SLT ISZERO PUSH2 0x1A44 JUMPI PUSH2 0x1A43 PUSH2 0x199D JUMP JUMPDEST JUMPDEST PUSH0 PUSH2 0x1A51 DUP6 DUP3 DUP7 ADD PUSH2 0x19E7 JUMP JUMPDEST SWAP3 POP POP PUSH1 0x20 PUSH2 0x1A62 DUP6 DUP3 DUP7 ADD PUSH2 0x1A1A JUMP JUMPDEST SWAP2 POP POP SWAP3 POP SWAP3 SWAP1 POP JUMP JUMPDEST PUSH0 DUP2 ISZERO ISZERO SWAP1 POP SWAP2 SWAP1 POP JUMP JUMPDEST PUSH2 0x1A80 DUP2 PUSH2 0x1A6C JUMP JUMPDEST DUP3 MSTORE POP POP JUMP JUMPDEST PUSH0 PUSH1 0x20 DUP3 ADD SWAP1 POP PUSH2 0x1A99 PUSH0 DUP4 ADD DUP5 PUSH2 0x1A77 JUMP JUMPDEST SWAP3 SWAP2 POP POP JUMP JUMPDEST PUSH2 0x1AA8 DUP2 PUSH2 0x19FB JUMP JUMPDEST DUP3 MSTORE POP POP JUMP JUMPDEST PUSH0 PUSH1 0x20 DUP3 ADD SWAP1 POP PUSH2 0x1AC1 PUSH0 DUP4 ADD DUP5 PUSH2 0x1A9F JUMP JUMPDEST SWAP3 SWAP2 POP POP JUMP JUMPDEST PUSH0 DUP1 PUSH1 0x40 DUP4 DUP6 SUB SLT ISZERO PUSH2 0x1ADD JUMPI PUSH2 0x1ADC PUSH2 0x199D JUMP JUMPDEST JUMPDEST PUSH0 PUSH2 0x1AEA DUP6 DUP3 DUP7 ADD PUSH2 0x1A1A JUMP JUMPDEST SWAP3 POP POP PUSH1 0x20 PUSH2 0x1AFB DUP6 DUP3 DUP7 ADD PUSH2 0x1A1A JUMP JUMPDEST SWAP2 POP POP SWAP3 POP SWAP3 SWAP1 POP JUMP JUMPDEST PUSH0 PUSH1 0x20 DUP3 DUP5 SUB SLT ISZERO PUSH2 0x1B1A JUMPI PUSH2 0x1B19 PUSH2 0x199D JUMP JUMPDEST JUMPDEST PUSH0 PUSH2 0x1B27 DUP5 DUP3 DUP6 ADD PUSH2 0x19E7 JUMP JUMPDEST SWAP2 POP POP SWAP3 SWAP2 POP POP JUMP JUMPDEST PUSH0 DUP1 PUSH0 PUSH1 0x60 DUP5 DUP7 SUB SLT ISZERO PUSH2 0x1B47 JUMPI PUSH2 0x1B46 PUSH2 0x199D JUMP JUMPDEST JUMPDEST PUSH0 PUSH2 0x1B54 DUP7 DUP3 DUP8 ADD PUSH2 0x19E7 JUMP JUMPDEST SWAP4 POP POP PUSH1 0x20 PUSH2 0x1B65 DUP7 DUP3 DUP8 ADD PUSH2 0x19E7 JUMP JUMPDEST SWAP3 POP POP PUSH1 0x40 PUSH2 0x1B76 DUP7 DUP3 DUP8 ADD PUSH2 0x1A1A JUMP JUMPDEST SWAP2 POP POP SWAP3 POP SWAP3 POP SWAP3 JUMP JUMPDEST PUSH0 PUSH1 0x20 DUP3 DUP5 SUB SLT ISZERO PUSH2 0x1B95 JUMPI PUSH2 0x1B94 PUSH2 0x199D JUMP JUMPDEST JUMPDEST PUSH0 PUSH2 0x1BA2 DUP5 DUP3 DUP6 ADD PUSH2 0x1A1A JUMP JUMPDEST SWAP2 POP POP SWAP3 SWAP2 POP POP JUMP JUMPDEST PUSH0 PUSH1 0xFF DUP3 AND SWAP1 POP SWAP2 SWAP1 POP JUMP JUMPDEST PUSH2 0x1BC0 DUP2 PUSH2 0x1BAB JUMP JUMPDEST DUP3 MSTORE POP POP JUMP JUMPDEST PUSH0 PUSH1 0x20 DUP3 ADD SWAP1 POP PUSH2 0x1BD9 PUSH0 DUP4 ADD DUP5 PUSH2 0x1BB7 JUMP JUMPDEST SWAP3 SWAP2 POP POP JUMP JUMPDEST PUSH0 DUP1 PUSH1 0x40 DUP4 DUP6 SUB SLT ISZERO PUSH2 0x1BF5 JUMPI PUSH2 0x1BF4 PUSH2 0x199D JUMP JUMPDEST JUMPDEST PUSH0 PUSH2 0x1C02 DUP6 DUP3 DUP7 ADD PUSH2 0x19E7 JUMP JUMPDEST SWAP3 POP POP PUSH1 0x20 PUSH2 0x1C13 DUP6 DUP3 DUP7 ADD PUSH2 0x19E7 JUMP JUMPDEST SWAP2 POP POP SWAP3 POP SWAP3 SWAP1 POP JUMP JUMPDEST PUSH32 0x4E487B7100000000000000000000000000000000000000000000000000000000 PUSH0 MSTORE PUSH1 0x22 PUSH1 0x4 MSTORE PUSH1 0x24 PUSH0 REVERT JUMPDEST PUSH0 PUSH1 0x2 DUP3 DIV SWAP1 POP PUSH1 0x1 DUP3 AND DUP1 PUSH2 0x1C61 JUMPI PUSH1 0x7F DUP3 AND SWAP2 POP JUMPDEST PUSH1 0x20 DUP3 LT DUP2 SUB PUSH2 0x1C74 JUMPI PUSH2 0x1C73 PUSH2 0x1C1D JUMP JUMPDEST JUMPDEST POP SWAP2 SWAP1 POP JUMP JUMPDEST PUSH32 0x596F75206D757374206E6F742068617665206D696E74656420746F6B656E7320 PUSH0 DUP3 ADD MSTORE PUSH32 0x746F207175657279207468697320696E666F726D6174696F6E00000000000000 PUSH1 0x20 DUP3 ADD MSTORE POP JUMP JUMPDEST PUSH0 PUSH2 0x1CD4 PUSH1 0x39 DUP4 PUSH2 0x1917 JUMP JUMPDEST SWAP2 POP PUSH2 0x1CDF DUP3 PUSH2 0x1C7A JUMP JUMPDEST PUSH1 0x40 DUP3 ADD SWAP1 POP SWAP2 SWAP1 POP JUMP JUMPDEST PUSH0 PUSH1 0x20 DUP3 ADD SWAP1 POP DUP2 DUP2 SUB PUSH0 DUP4 ADD MSTORE PUSH2 0x1D01 DUP2 PUSH2 0x1CC8 JUMP JUMPDEST SWAP1 POP SWAP2 SWAP1 POP JUMP JUMPDEST PUSH32 0x4E487B7100000000000000000000000000000000000000000000000000000000 PUSH0 MSTORE PUSH1 0x11 PUSH1 0x4 MSTORE PUSH1 0x24 PUSH0 REVERT JUMPDEST PUSH0 PUSH2 0x1D3F DUP3 PUSH2 0x19FB JUMP JUMPDEST SWAP2 POP PUSH2 0x1D4A DUP4 PUSH2 0x19FB JUMP JUMPDEST SWAP3 POP DUP3 DUP3 MUL PUSH2 0x1D58 DUP2 PUSH2 0x19FB JUMP JUMPDEST SWAP2 POP DUP3 DUP3 DIV DUP5 EQ DUP4 ISZERO OR PUSH2 0x1D6F JUMPI PUSH2 0x1D6E PUSH2 0x1D08 JUMP JUMPDEST JUMPDEST POP SWAP3 SWAP2 POP POP JUMP JUMPDEST PUSH0 DUP2 SWAP1 POP SWAP3 SWAP2 POP POP JUMP JUMPDEST PUSH32 0x496E73756666696369656E7420636F6C6C61746572616C3A2052657175697265 PUSH0 DUP3 ADD MSTORE PUSH32 0x6420000000000000000000000000000000000000000000000000000000000000 PUSH1 0x20 DUP3 ADD MSTORE POP JUMP JUMPDEST PUSH0 PUSH2 0x1DDA PUSH1 0x22 DUP4 PUSH2 0x1D76 JUMP JUMPDEST SWAP2 POP PUSH2 0x1DE5 DUP3 PUSH2 0x1D80 JUMP JUMPDEST PUSH1 0x22 DUP3 ADD SWAP1 POP SWAP2 SWAP1 POP JUMP JUMPDEST PUSH0 PUSH2 0x1DFA DUP3 PUSH2 0x190D JUMP JUMPDEST PUSH2 0x1E04 DUP2 DUP6 PUSH2 0x1D76 JUMP JUMPDEST SWAP4 POP PUSH2 0x1E14 DUP2 DUP6 PUSH1 0x20 DUP7 ADD PUSH2 0x1927 JUMP JUMPDEST DUP1 DUP5 ADD SWAP2 POP POP SWAP3 SWAP2 POP POP JUMP JUMPDEST PUSH32 0x207765692C206275742070726F76696465642000000000000000000000000000 PUSH0 DUP3 ADD MSTORE POP JUMP JUMPDEST PUSH0 PUSH2 0x1E54 PUSH1 0x13 DUP4 PUSH2 0x1D76 JUMP JUMPDEST SWAP2 POP PUSH2 0x1E5F DUP3 PUSH2 0x1E20 JUMP JUMPDEST PUSH1 0x13 DUP3 ADD SWAP1 POP SWAP2 SWAP1 POP JUMP JUMPDEST PUSH32 0x207765692E000000000000000000000000000000000000000000000000000000 PUSH0 DUP3 ADD MSTORE POP JUMP JUMPDEST PUSH0 PUSH2 0x1E9E PUSH1 0x5 DUP4 PUSH2 0x1D76 JUMP JUMPDEST SWAP2 POP PUSH2 0x1EA9 DUP3 PUSH2 0x1E6A JUMP JUMPDEST PUSH1 0x5 DUP3 ADD SWAP1 POP SWAP2 SWAP1 POP JUMP JUMPDEST PUSH0 PUSH2 0x1EBE DUP3 PUSH2 0x1DCE JUMP JUMPDEST SWAP2 POP PUSH2 0x1ECA DUP3 DUP6 PUSH2 0x1DF0 JUMP JUMPDEST SWAP2 POP PUSH2 0x1ED5 DUP3 PUSH2 0x1E48 JUMP JUMPDEST SWAP2 POP PUSH2 0x1EE1 DUP3 DUP5 PUSH2 0x1DF0 JUMP JUMPDEST SWAP2 POP PUSH2 0x1EEC DUP3 PUSH2 0x1E92 JUMP JUMPDEST SWAP2 POP DUP2 SWAP1 POP SWAP4 SWAP3 POP POP POP JUMP JUMPDEST PUSH0 PUSH2 0x1F02 DUP3 PUSH2 0x19FB JUMP JUMPDEST SWAP2 POP PUSH2 0x1F0D DUP4 PUSH2 0x19FB JUMP JUMPDEST SWAP3 POP DUP3 DUP3 SUB SWAP1 POP DUP2 DUP2 GT ISZERO PUSH2 0x1F25 JUMPI PUSH2 0x1F24 PUSH2 0x1D08 JUMP JUMPDEST JUMPDEST SWAP3 SWAP2 POP POP JUMP JUMPDEST PUSH0 PUSH2 0x1F35 DUP3 PUSH2 0x19FB JUMP JUMPDEST SWAP2 POP PUSH2 0x1F40 DUP4 PUSH2 0x19FB JUMP JUMPDEST SWAP3 POP DUP3 DUP3 ADD SWAP1 POP DUP1 DUP3 GT ISZERO PUSH2 0x1F58 JUMPI PUSH2 0x1F57 PUSH2 0x1D08 JUMP JUMPDEST JUMPDEST SWAP3 SWAP2 POP POP JUMP JUMPDEST PUSH0 PUSH1 0x40 DUP3 ADD SWAP1 POP PUSH2 0x1F71 PUSH0 DUP4 ADD DUP6 PUSH2 0x1A9F JUMP JUMPDEST PUSH2 0x1F7E PUSH1 0x20 DUP4 ADD DUP5 PUSH2 0x1A9F JUMP JUMPDEST SWAP4 SWAP3 POP POP POP JUMP JUMPDEST PUSH32 0x596F75206D7573742068617665206D696E74656420746F6B656E7320746F2071 PUSH0 DUP3 ADD MSTORE PUSH32 0x75657279207468697320696E666F726D6174696F6E0000000000000000000000 PUSH1 0x20 DUP3 ADD MSTORE POP JUMP JUMPDEST PUSH0 PUSH2 0x1FDF PUSH1 0x35 DUP4 PUSH2 0x1917 JUMP JUMPDEST SWAP2 POP PUSH2 0x1FEA DUP3 PUSH2 0x1F85 JUMP JUMPDEST PUSH1 0x40 DUP3 ADD SWAP1 POP SWAP2 SWAP1 POP JUMP JUMPDEST PUSH0 PUSH1 0x20 DUP3 ADD SWAP1 POP DUP2 DUP2 SUB PUSH0 DUP4 ADD MSTORE PUSH2 0x200C DUP2 PUSH2 0x1FD3 JUMP JUMPDEST SWAP1 POP SWAP2 SWAP1 POP JUMP JUMPDEST PUSH0 PUSH1 0x60 DUP3 ADD SWAP1 POP PUSH2 0x2026 PUSH0 DUP4 ADD DUP7 PUSH2 0x1A9F JUMP JUMPDEST PUSH2 0x2033 PUSH1 0x20 DUP4 ADD DUP6 PUSH2 0x1A9F JUMP JUMPDEST PUSH2 0x2040 PUSH1 0x40 DUP4 ADD DUP5 PUSH2 0x1A9F JUMP JUMPDEST SWAP5 SWAP4 POP POP POP POP JUMP JUMPDEST PUSH32 0x45524332303A206275726E2066726F6D20746865207A65726F20616464726573 PUSH0 DUP3 ADD MSTORE PUSH32 0x7300000000000000000000000000000000000000000000000000000000000000 PUSH1 0x20 DUP3 ADD MSTORE POP JUMP JUMPDEST PUSH0 PUSH2 0x20A2 PUSH1 0x21 DUP4 PUSH2 0x1917 JUMP JUMPDEST SWAP2 POP PUSH2 0x20AD DUP3 PUSH2 0x2048 JUMP JUMPDEST PUSH1 0x40 DUP3 ADD SWAP1 POP SWAP2 SWAP1 POP JUMP JUMPDEST PUSH0 PUSH1 0x20 DUP3 ADD SWAP1 POP DUP2 DUP2 SUB PUSH0 DUP4 ADD MSTORE PUSH2 0x20CF DUP2 PUSH2 0x2096 JUMP JUMPDEST SWAP1 POP SWAP2 SWAP1 POP JUMP JUMPDEST PUSH32 0x45524332303A206275726E20616D6F756E7420657863656564732062616C616E PUSH0 DUP3 ADD MSTORE PUSH32 0x6365000000000000000000000000000000000000000000000000000000000000 PUSH1 0x20 DUP3 ADD MSTORE POP JUMP JUMPDEST PUSH0 PUSH2 0x2130 PUSH1 0x22 DUP4 PUSH2 0x1917 JUMP JUMPDEST SWAP2 POP PUSH2 0x213B DUP3 PUSH2 0x20D6 JUMP JUMPDEST PUSH1 0x40 DUP3 ADD SWAP1 POP SWAP2 SWAP1 POP JUMP JUMPDEST PUSH0 PUSH1 0x20 DUP3 ADD SWAP1 POP DUP2 DUP2 SUB PUSH0 DUP4 ADD MSTORE PUSH2 0x215D DUP2 PUSH2 0x2124 JUMP JUMPDEST SWAP1 POP SWAP2 SWAP1 POP JUMP JUMPDEST PUSH32 0x496E73756666696369656E7420636F6C6C61746572616C2062616C616E63652E PUSH0 DUP3 ADD MSTORE POP JUMP JUMPDEST PUSH0 PUSH2 0x2198 PUSH1 0x20 DUP4 PUSH2 0x1917 JUMP JUMPDEST SWAP2 POP PUSH2 0x21A3 DUP3 PUSH2 0x2164 JUMP JUMPDEST PUSH1 0x20 DUP3 ADD SWAP1 POP SWAP2 SWAP1 POP JUMP JUMPDEST PUSH0 PUSH1 0x20 DUP3 ADD SWAP1 POP DUP2 DUP2 SUB PUSH0 DUP4 ADD MSTORE PUSH2 0x21C5 DUP2 PUSH2 0x218C JUMP JUMPDEST SWAP1 POP SWAP2 SWAP1 POP JUMP JUMPDEST PUSH32 0x4E487B7100000000000000000000000000000000000000000000000000000000 PUSH0 MSTORE PUSH1 0x41 PUSH1 0x4 MSTORE PUSH1 0x24 PUSH0 REVERT JUMPDEST PUSH32 0x4E487B7100000000000000000000000000000000000000000000000000000000 PUSH0 MSTORE PUSH1 0x12 PUSH1 0x4 MSTORE PUSH1 0x24 PUSH0 REVERT JUMPDEST PUSH2 0x222F DUP2 PUSH2 0x19C0 JUMP JUMPDEST DUP3 MSTORE POP POP JUMP JUMPDEST PUSH0 PUSH1 0x20 DUP3 ADD SWAP1 POP PUSH2 0x2248 PUSH0 DUP4 ADD DUP5 PUSH2 0x2226 JUMP JUMPDEST SWAP3 SWAP2 POP POP JUMP JUMPDEST PUSH0 PUSH1 0x60 DUP3 ADD SWAP1 POP PUSH2 0x2261 PUSH0 DUP4 ADD DUP7 PUSH2 0x2226 JUMP JUMPDEST PUSH2 0x226E PUSH1 0x20 DUP4 ADD DUP6 PUSH2 0x1A9F JUMP JUMPDEST PUSH2 0x227B PUSH1 0x40 DUP4 ADD DUP5 PUSH2 0x1A9F JUMP JUMPDEST SWAP5 SWAP4 POP POP POP POP JUMP INVALID LOG2 PUSH5 0x6970667358 0x22 SLT KECCAK256 0x29 PC PUSH28 0x7A19EF3629B3A386EC9212ED8ECAD77F16B222E2E4C7326FB371EC1D 0xBD PUSH5 0x736F6C6343 STOP ADDMOD BYTE STOP CALLER "
		},
		"gasEstimates": {
			"creation": {
				"codeDepositCost": "1777800",
				"executionCost": "infinite",
				"totalCost": "infinite"
			},
			"external": {
				"allowance(address,address)": "infinite",
				"approve(address,uint256)": "infinite",
				"balanceOf(address)": "2874",
				"burn(address,uint256)": "infinite",
				"burn(uint256)": "infinite",
				"burnFrom(address,uint256)": "infinite",
				"collateral(address)": "2824",
				"decimals()": "427",
				"getMyTokenInformation()": "infinite",
				"getUserCollateral(address)": "2895",
				"getUserConversionRate(address)": "2852",
				"mint(uint256,uint256)": "infinite",
				"name()": "infinite",
				"symbol()": "infinite",
				"topUpMyTokens(uint256)": "infinite",
				"totalSupply()": "2500",
				"transfer(address,uint256)": "infinite",
				"transferCollateral(address,address,uint256)": "infinite",
				"transferFrom(address,address,uint256)": "infinite",
				"userConversionRate(address)": "2914"
			}
		},
		"methodIdentifiers": {
			"allowance(address,address)": "dd62ed3e",
			"approve(address,uint256)": "095ea7b3",
			"balanceOf(address)": "70a08231",
			"burn(address,uint256)": "9dc29fac",
			"burn(uint256)": "42966c68",
			"burnFrom(address,uint256)": "79cc6790",
			"collateral(address)": "a5fdc5de",
			"decimals()": "313ce567",
			"getMyTokenInformation()": "25f5a4a2",
			"getUserCollateral(address)": "b6f7132f",
			"getUserConversionRate(address)": "4763fbd2",
			"mint(uint256,uint256)": "1b2ef1ca",
			"name()": "06fdde03",
			"symbol()": "95d89b41",
			"topUpMyTokens(uint256)": "2d968e1a",
			"totalSupply()": "18160ddd",
			"transfer(address,uint256)": "a9059cbb",
			"transferCollateral(address,address,uint256)": "cd60f59f",
			"transferFrom(address,address,uint256)": "23b872dd",
			"userConversionRate(address)": "1f86956c"
		}
	},
	"abi": [
		{
			"inputs": [],
			"stateMutability": "payable",
			"type": "constructor"
		},
		{
			"inputs": [
				{
					"internalType": "address",
					"name": "spender",
					"type": "address"
				},
				{
					"internalType": "uint256",
					"name": "allowance",
					"type": "uint256"
				},
				{
					"internalType": "uint256",
					"name": "needed",
					"type": "uint256"
				}
			],
			"name": "ERC20InsufficientAllowance",
			"type": "error"
		},
		{
			"inputs": [
				{
					"internalType": "address",
					"name": "sender",
					"type": "address"
				},
				{
					"internalType": "uint256",
					"name": "balance",
					"type": "uint256"
				},
				{
					"internalType": "uint256",
					"name": "needed",
					"type": "uint256"
				}
			],
			"name": "ERC20InsufficientBalance",
			"type": "error"
		},
		{
			"inputs": [
				{
					"internalType": "address",
					"name": "approver",
					"type": "address"
				}
			],
			"name": "ERC20InvalidApprover",
			"type": "error"
		},
		{
			"inputs": [
				{
					"internalType": "address",
					"name": "receiver",
					"type": "address"
				}
			],
			"name": "ERC20InvalidReceiver",
			"type": "error"
		},
		{
			"inputs": [
				{
					"internalType": "address",
					"name": "sender",
					"type": "address"
				}
			],
			"name": "ERC20InvalidSender",
			"type": "error"
		},
		{
			"inputs": [
				{
					"internalType": "address",
					"name": "spender",
					"type": "address"
				}
			],
			"name": "ERC20InvalidSpender",
			"type": "error"
		},
		{
			"anonymous": false,
			"inputs": [
				{
					"indexed": true,
					"internalType": "address",
					"name": "owner",
					"type": "address"
				},
				{
					"indexed": true,
					"internalType": "address",
					"name": "spender",
					"type": "address"
				},
				{
					"indexed": false,
					"internalType": "uint256",
					"name": "value",
					"type": "uint256"
				}
			],
			"name": "Approval",
			"type": "event"
		},
		{
			"anonymous": false,
			"inputs": [
				{
					"indexed": true,
					"internalType": "address",
					"name": "to",
					"type": "address"
				},
				{
					"indexed": false,
					"internalType": "uint256",
					"name": "amount",
					"type": "uint256"
				},
				{
					"indexed": false,
					"internalType": "uint256",
					"name": "collateral",
					"type": "uint256"
				}
			],
			"name": "Mint",
			"type": "event"
		},
		{
			"anonymous": false,
			"inputs": [
				{
					"indexed": true,
					"internalType": "address",
					"name": "account",
					"type": "address"
				},
				{
					"indexed": false,
					"internalType": "uint256",
					"name": "excessAmt",
					"type": "uint256"
				}
			],
			"name": "ReturnExcess",
			"type": "event"
		},
		{
			"anonymous": false,
			"inputs": [
				{
					"indexed": true,
					"internalType": "address",
					"name": "from",
					"type": "address"
				},
				{
					"indexed": true,
					"internalType": "address",
					"name": "to",
					"type": "address"
				},
				{
					"indexed": false,
					"internalType": "uint256",
					"name": "value",
					"type": "uint256"
				}
			],
			"name": "Transfer",
			"type": "event"
		},
		{
			"anonymous": false,
			"inputs": [
				{
					"indexed": true,
					"internalType": "address",
					"name": "account",
					"type": "address"
				},
				{
					"indexed": false,
					"internalType": "uint256",
					"name": "amtTokens",
					"type": "uint256"
				},
				{
					"indexed": false,
					"internalType": "uint256",
					"name": "collateral",
					"type": "uint256"
				},
				{
					"indexed": false,
					"internalType": "uint256",
					"name": "conversionRate",
					"type": "uint256"
				}
			],
			"name": "UserTokenInfo",
			"type": "event"
		},
		{
			"inputs": [
				{
					"internalType": "address",
					"name": "owner",
					"type": "address"
				},
				{
					"internalType": "address",
					"name": "spender",
					"type": "address"
				}
			],
			"name": "allowance",
			"outputs": [
				{
					"internalType": "uint256",
					"name": "",
					"type": "uint256"
				}
			],
			"stateMutability": "view",
			"type": "function"
		},
		{
			"inputs": [
				{
					"internalType": "address",
					"name": "spender",
					"type": "address"
				},
				{
					"internalType": "uint256",
					"name": "value",
					"type": "uint256"
				}
			],
			"name": "approve",
			"outputs": [
				{
					"internalType": "bool",
					"name": "",
					"type": "bool"
				}
			],
			"stateMutability": "nonpayable",
			"type": "function"
		},
		{
			"inputs": [
				{
					"internalType": "address",
					"name": "account",
					"type": "address"
				}
			],
			"name": "balanceOf",
			"outputs": [
				{
					"internalType": "uint256",
					"name": "",
					"type": "uint256"
				}
			],
			"stateMutability": "view",
			"type": "function"
		},
		{
			"inputs": [
				{
					"internalType": "uint256",
					"name": "value",
					"type": "uint256"
				}
			],
			"name": "burn",
			"outputs": [],
			"stateMutability": "nonpayable",
			"type": "function"
		},
		{
			"inputs": [
				{
					"internalType": "address",
					"name": "from",
					"type": "address"
				},
				{
					"internalType": "uint256",
					"name": "amount",
					"type": "uint256"
				}
			],
			"name": "burn",
			"outputs": [],
			"stateMutability": "nonpayable",
			"type": "function"
		},
		{
			"inputs": [
				{
					"internalType": "address",
					"name": "account",
					"type": "address"
				},
				{
					"internalType": "uint256",
					"name": "value",
					"type": "uint256"
				}
			],
			"name": "burnFrom",
			"outputs": [],
			"stateMutability": "nonpayable",
			"type": "function"
		},
		{
			"inputs": [
				{
					"internalType": "address",
					"name": "",
					"type": "address"
				}
			],
			"name": "collateral",
			"outputs": [
				{
					"internalType": "uint256",
					"name": "",
					"type": "uint256"
				}
			],
			"stateMutability": "view",
			"type": "function"
		},
		{
			"inputs": [],
			"name": "decimals",
			"outputs": [
				{
					"internalType": "uint8",
					"name": "",
					"type": "uint8"
				}
			],
			"stateMutability": "view",
			"type": "function"
		},
		{
			"inputs": [],
			"name": "getMyTokenInformation",
			"outputs": [],
			"stateMutability": "nonpayable",
			"type": "function"
		},
		{
			"inputs": [
				{
					"internalType": "address",
					"name": "lister",
					"type": "address"
				}
			],
			"name": "getUserCollateral",
			"outputs": [
				{
					"internalType": "uint256",
					"name": "",
					"type": "uint256"
				}
			],
			"stateMutability": "view",
			"type": "function"
		},
		{
			"inputs": [
				{
					"internalType": "address",
					"name": "lister",
					"type": "address"
				}
			],
			"name": "getUserConversionRate",
			"outputs": [
				{
					"internalType": "uint256",
					"name": "",
					"type": "uint256"
				}
			],
			"stateMutability": "view",
			"type": "function"
		},
		{
			"inputs": [
				{
					"internalType": "uint256",
					"name": "amount",
					"type": "uint256"
				},
				{
					"internalType": "uint256",
					"name": "conversionRate",
					"type": "uint256"
				}
			],
			"name": "mint",
			"outputs": [],
			"stateMutability": "payable",
			"type": "function"
		},
		{
			"inputs": [],
			"name": "name",
			"outputs": [
				{
					"internalType": "string",
					"name": "",
					"type": "string"
				}
			],
			"stateMutability": "view",
			"type": "function"
		},
		{
			"inputs": [],
			"name": "symbol",
			"outputs": [
				{
					"internalType": "string",
					"name": "",
					"type": "string"
				}
			],
			"stateMutability": "view",
			"type": "function"
		},
		{
			"inputs": [
				{
					"internalType": "uint256",
					"name": "amount",
					"type": "uint256"
				}
			],
			"name": "topUpMyTokens",
			"outputs": [],
			"stateMutability": "payable",
			"type": "function"
		},
		{
			"inputs": [],
			"name": "totalSupply",
			"outputs": [
				{
					"internalType": "uint256",
					"name": "",
					"type": "uint256"
				}
			],
			"stateMutability": "view",
			"type": "function"
		},
		{
			"inputs": [
				{
					"internalType": "address",
					"name": "to",
					"type": "address"
				},
				{
					"internalType": "uint256",
					"name": "value",
					"type": "uint256"
				}
			],
			"name": "transfer",
			"outputs": [
				{
					"internalType": "bool",
					"name": "",
					"type": "bool"
				}
			],
			"stateMutability": "nonpayable",
			"type": "function"
		},
		{
			"inputs": [
				{
					"internalType": "address",
					"name": "from",
					"type": "address"
				},
				{
					"internalType": "address",
					"name": "to",
					"type": "address"
				},
				{
					"internalType": "uint256",
					"name": "amount",
					"type": "uint256"
				}
			],
			"name": "transferCollateral",
			"outputs": [],
			"stateMutability": "nonpayable",
			"type": "function"
		},
		{
			"inputs": [
				{
					"internalType": "address",
					"name": "from",
					"type": "address"
				},
				{
					"internalType": "address",
					"name": "to",
					"type": "address"
				},
				{
					"internalType": "uint256",
					"name": "value",
					"type": "uint256"
				}
			],
			"name": "transferFrom",
			"outputs": [
				{
					"internalType": "bool",
					"name": "",
					"type": "bool"
				}
			],
			"stateMutability": "nonpayable",
			"type": "function"
		},
		{
			"inputs": [
				{
					"internalType": "address",
					"name": "",
					"type": "address"
				}
			],
			"name": "userConversionRate",
			"outputs": [
				{
					"internalType": "uint256",
					"name": "",
					"type": "uint256"
				}
			],
			"stateMutability": "view",
			"type": "function"
		}
	]
}