{
	"data": {
		"bytecode": {
			"linkReferences": {},
			"object": "6101606040526040518060400160405280600e81526020017f436861696e53757265546f6b656e000000000000000000000000000000000000815250806040518060400160405280600181526020017f3100000000000000000000000000000000000000000000000000000000000000815250336040518060400160405280600e81526020017f436861696e53757265546f6b656e0000000000000000000000000000000000008152506040518060400160405280600381526020017f435354000000000000000000000000000000000000000000000000000000000081525081600390816100ee9190610643565b5080600490816100fe9190610643565b5050505f73ffffffffffffffffffffffffffffffffffffffff168173ffffffffffffffffffffffffffffffffffffffff1603610171575f6040517f1e4fbdf70000000000000000000000000000000000000000000000000000000081526004016101689190610751565b60405180910390fd5b6101808161023160201b60201c565b506101956006836102f460201b90919060201c565b61012081815250506101b16007826102f460201b90919060201c565b6101408181525050818051906020012060e08181525050808051906020012061010081815250504660a081815250506101ee61034160201b60201c565b608081815250503073ffffffffffffffffffffffffffffffffffffffff1660c08173ffffffffffffffffffffffffffffffffffffffff16815250505050506108fb565b5f60055f9054906101000a900473ffffffffffffffffffffffffffffffffffffffff1690508160055f6101000a81548173ffffffffffffffffffffffffffffffffffffffff021916908373ffffffffffffffffffffffffffffffffffffffff1602179055508173ffffffffffffffffffffffffffffffffffffffff168173ffffffffffffffffffffffffffffffffffffffff167f8be0079c531659141344cd1fd0a4f28419497f9722a3daafe3b4186f6b6457e060405160405180910390a35050565b5f6020835110156103155761030e8361039b60201b60201c565b905061033b565b826103258361040060201b60201c565b5f0190816103339190610643565b5060ff5f1b90505b92915050565b5f7f8b73c3c69bb8fe3d512ecc4cf759cc79239f7b179b0ffacaa9a75d522b39400f60e051610100514630604051602001610380959493929190610791565b60405160208183030381529060405280519060200120905090565b5f80829050601f815111156103e757826040517f305a27a90000000000000000000000000000000000000000000000000000000081526004016103de9190610848565b60405180910390fd5b8051816103f390610895565b5f1c175f1b915050919050565b5f819050919050565b5f81519050919050565b7f4e487b71000000000000000000000000000000000000000000000000000000005f52604160045260245ffd5b7f4e487b71000000000000000000000000000000000000000000000000000000005f52602260045260245ffd5b5f600282049050600182168061048457607f821691505b60208210810361049757610496610440565b5b50919050565b5f819050815f5260205f209050919050565b5f6020601f8301049050919050565b5f82821b905092915050565b5f600883026104f97fffffffffffffffffffffffffffffffffffffffffffffffffffffffffffffffff826104be565b61050386836104be565b95508019841693508086168417925050509392505050565b5f819050919050565b5f819050919050565b5f61054761054261053d8461051b565b610524565b61051b565b9050919050565b5f819050919050565b6105608361052d565b61057461056c8261054e565b8484546104ca565b825550505050565b5f90565b61058861057c565b610593818484610557565b505050565b5b818110156105b6576105ab5f82610580565b600181019050610599565b5050565b601f8211156105fb576105cc8161049d565b6105d5846104af565b810160208510156105e4578190505b6105f86105f0856104af565b830182610598565b50505b505050565b5f82821c905092915050565b5f61061b5f1984600802610600565b1980831691505092915050565b5f610633838361060c565b9150826002028217905092915050565b61064c82610409565b67ffffffffffffffff81111561066557610664610413565b5b61066f825461046d565b61067a8282856105ba565b5f60209050601f8311600181146106ab575f8415610699578287015190505b6106a38582610628565b86555061070a565b601f1984166106b98661049d565b5f5b828110156106e0578489015182556001820191506020850194506020810190506106bb565b868310156106fd57848901516106f9601f89168261060c565b8355505b6001600288020188555050505b505050505050565b5f73ffffffffffffffffffffffffffffffffffffffff82169050919050565b5f61073b82610712565b9050919050565b61074b81610731565b82525050565b5f6020820190506107645f830184610742565b92915050565b5f819050919050565b61077c8161076a565b82525050565b61078b8161051b565b82525050565b5f60a0820190506107a45f830188610773565b6107b16020830187610773565b6107be6040830186610773565b6107cb6060830185610782565b6107d86080830184610742565b9695505050505050565b5f82825260208201905092915050565b8281835e5f83830152505050565b5f601f19601f8301169050919050565b5f61081a82610409565b61082481856107e2565b93506108348185602086016107f2565b61083d81610800565b840191505092915050565b5f6020820190508181035f8301526108608184610810565b905092915050565b5f81519050919050565b5f819050602082019050919050565b5f61088c825161076a565b80915050919050565b5f61089f82610868565b826108a984610872565b90506108b481610881565b925060208210156108f4576108ef7fffffffffffffffffffffffffffffffffffffffffffffffffffffffffffffffff836020036008026104be565b831692505b5050919050565b60805160a05160c05160e0516101005161012051610140516132e161094c5f395f611ac901525f611a8e01525f61211301525f6120f201525f6117c301525f61181901525f61184201526132e15ff3fe60806040526004361061019b575f3560e01c8063715018a6116100eb578063a5fdc5de11610089578063cd60f59f11610063578063cd60f59f146105c3578063d505accf146105eb578063dd62ed3e14610613578063f2fde38b1461064f5761019b565b8063a5fdc5de1461050f578063a9059cbb1461054b578063b6f7132f146105875761019b565b806384b0196e116100c557806384b0196e146104635780638da5cb5b1461049357806395d89b41146104bd5780639dc29fac146104e75761019b565b8063715018a6146103e957806379cc6790146103ff5780637ecebe00146104275761019b565b806325f5a4a2116101585780633644e515116101325780633644e5151461031f57806342966c68146103495780634763fbd21461037157806370a08231146103ad5761019b565b806325f5a4a2146102c35780632d968e1a146102d9578063313ce567146102f55761019b565b806306fdde031461019f578063095ea7b3146101c957806318160ddd146102055780631b2ef1ca1461022f5780631f86956c1461024b57806323b872dd14610287575b5f80fd5b3480156101aa575f80fd5b506101b3610677565b6040516101c091906125c9565b60405180910390f35b3480156101d4575f80fd5b506101ef60048036038101906101ea919061267a565b610707565b6040516101fc91906126d2565b60405180910390f35b348015610210575f80fd5b50610219610729565b60405161022691906126fa565b60405180910390f35b61024960048036038101906102449190612713565b610732565b005b348015610256575f80fd5b50610271600480360381019061026c9190612751565b6109d7565b60405161027e91906126fa565b60405180910390f35b348015610292575f80fd5b506102ad60048036038101906102a8919061277c565b6109ec565b6040516102ba91906126d2565b60405180910390f35b3480156102ce575f80fd5b506102d7610a1a565b005b6102f360048036038101906102ee91906127cc565b610b82565b005b348015610300575f80fd5b50610309610dd6565b6040516103169190612812565b60405180910390f35b34801561032a575f80fd5b50610333610dde565b6040516103409190612843565b60405180910390f35b348015610354575f80fd5b5061036f600480360381019061036a91906127cc565b610dec565b005b34801561037c575f80fd5b5061039760048036038101906103929190612751565b610e00565b6040516103a491906126fa565b60405180910390f35b3480156103b8575f80fd5b506103d360048036038101906103ce9190612751565b610e46565b6040516103e091906126fa565b60405180910390f35b3480156103f4575f80fd5b506103fd610e8b565b005b34801561040a575f80fd5b506104256004803603810190610420919061267a565b610e9e565b005b348015610432575f80fd5b5061044d60048036038101906104489190612751565b610ebe565b60405161045a91906126fa565b60405180910390f35b34801561046e575f80fd5b50610477610ecf565b60405161048a979695949392919061295c565b60405180910390f35b34801561049e575f80fd5b506104a7610f74565b6040516104b491906129de565b60405180910390f35b3480156104c8575f80fd5b506104d1610f9c565b6040516104de91906125c9565b60405180910390f35b3480156104f2575f80fd5b5061050d6004803603810190610508919061267a565b61102c565b005b34801561051a575f80fd5b5061053560048036038101906105309190612751565b6110f8565b60405161054291906126fa565b60405180910390f35b348015610556575f80fd5b50610571600480360381019061056c919061267a565b61110d565b60405161057e91906126d2565b60405180910390f35b348015610592575f80fd5b506105ad60048036038101906105a89190612751565b61112f565b6040516105ba91906126fa565b60405180910390f35b3480156105ce575f80fd5b506105e960048036038101906105e4919061277c565b611175565b005b3480156105f6575f80fd5b50610611600480360381019061060c9190612a4b565b611291565b005b34801561061e575f80fd5b5061063960048036038101906106349190612ae8565b6113d6565b60405161064691906126fa565b60405180910390f35b34801561065a575f80fd5b5061067560048036038101906106709190612751565b611458565b005b60606003805461068690612b53565b80601f01602080910402602001604051908101604052809291908181526020018280546106b290612b53565b80156106fd5780601f106106d4576101008083540402835291602001916106fd565b820191905f5260205f20905b8154815290600101906020018083116106e057829003601f168201915b5050505050905090565b5f806107116114dc565b905061071e8185856114e3565b600191505092915050565b5f600254905090565b5f600a5f3373ffffffffffffffffffffffffffffffffffffffff1673ffffffffffffffffffffffffffffffffffffffff1681526020019081526020015f2054146107b1576040517f08c379a00000000000000000000000000000000000000000000000000000000081526004016107a890612bf3565b60405180910390fd5b5f81836107be9190612c3e565b9050803410156107cd826114f5565b6107d6346114f5565b6040516020016107e7929190612dbd565b60405160208183030381529060405290610837576040517f08c379a000000000000000000000000000000000000000000000000000000000815260040161082e91906125c9565b60405180910390fd5b505f81346108459190612e01565b90505f8111156108e2573373ffffffffffffffffffffffffffffffffffffffff166108fc8290811502906040515f60405180830381858888f19350505050158015610892573d5f803e3d5ffd5b503373ffffffffffffffffffffffffffffffffffffffff167f5b04a20647d5e66c17cb0451b11e553be5e09f9552d25b9f27d9b0c615c0b3d7826040516108d991906126fa565b60405180910390a25b6108ec33856115bf565b81600a5f3373ffffffffffffffffffffffffffffffffffffffff1673ffffffffffffffffffffffffffffffffffffffff1681526020019081526020015f205f8282546109389190612e34565b9250508190555082600b5f3373ffffffffffffffffffffffffffffffffffffffff1673ffffffffffffffffffffffffffffffffffffffff1681526020019081526020015f20819055503373ffffffffffffffffffffffffffffffffffffffff167f4c209b5fc8ad50758f13e2e1088ba56a560dff690a1c6fef26394f4c03821c4f85846040516109c9929190612e67565b60405180910390a250505050565b600b602052805f5260405f205f915090505481565b5f806109f66114dc565b9050610a0385828561163e565b610a0e8585856116d0565b60019150509392505050565b5f600a5f3373ffffffffffffffffffffffffffffffffffffffff1673ffffffffffffffffffffffffffffffffffffffff1681526020019081526020015f205411610a99576040517f08c379a0000000000000000000000000000000000000000000000000000000008152600401610a9090612efe565b60405180910390fd5b600a5f3373ffffffffffffffffffffffffffffffffffffffff1673ffffffffffffffffffffffffffffffffffffffff1681526020019081526020015f20546009819055505f600b5f3373ffffffffffffffffffffffffffffffffffffffff1673ffffffffffffffffffffffffffffffffffffffff1681526020019081526020015f205490505f610b2833610e46565b90503373ffffffffffffffffffffffffffffffffffffffff167f07aebacde2d071f5be831eebafe50c943e4fed4053c317af2f8e2a0cd9aa05438260095485604051610b7693929190612f1c565b60405180910390a25050565b5f600a5f3373ffffffffffffffffffffffffffffffffffffffff1673ffffffffffffffffffffffffffffffffffffffff1681526020019081526020015f205411610c01576040517f08c379a0000000000000000000000000000000000000000000000000000000008152600401610bf890612efe565b60405180910390fd5b5f600b5f3373ffffffffffffffffffffffffffffffffffffffff1673ffffffffffffffffffffffffffffffffffffffff1681526020019081526020015f205490505f8183610c4f9190612c3e565b905080341015610c5e826114f5565b610c67346114f5565b604051602001610c78929190612dbd565b60405160208183030381529060405290610cc8576040517f08c379a0000000000000000000000000000000000000000000000000000000008152600401610cbf91906125c9565b60405180910390fd5b505f8134610cd69190612e01565b90505f811115610d73573373ffffffffffffffffffffffffffffffffffffffff166108fc8290811502906040515f60405180830381858888f19350505050158015610d23573d5f803e3d5ffd5b503373ffffffffffffffffffffffffffffffffffffffff167f5b04a20647d5e66c17cb0451b11e553be5e09f9552d25b9f27d9b0c615c0b3d782604051610d6a91906126fa565b60405180910390a25b610d7d33856115bf565b81600a5f3373ffffffffffffffffffffffffffffffffffffffff1673ffffffffffffffffffffffffffffffffffffffff1681526020019081526020015f205f828254610dc99190612e34565b9250508190555050505050565b5f6012905090565b5f610de76117c0565b905090565b610dfd610df76114dc565b82611876565b50565b5f600b5f8373ffffffffffffffffffffffffffffffffffffffff1673ffffffffffffffffffffffffffffffffffffffff1681526020019081526020015f20549050919050565b5f805f8373ffffffffffffffffffffffffffffffffffffffff1673ffffffffffffffffffffffffffffffffffffffff1681526020019081526020015f20549050919050565b610e936118f5565b610e9c5f61197c565b565b610eb082610eaa6114dc565b8361163e565b610eba8282611876565b5050565b5f610ec882611a3f565b9050919050565b5f6060805f805f6060610ee0611a85565b610ee8611ac0565b46305f801b5f67ffffffffffffffff811115610f0757610f06612f51565b5b604051908082528060200260200182016040528015610f355781602001602082028036833780820191505090505b507f0f00000000000000000000000000000000000000000000000000000000000000959493929190965096509650965096509650965090919293949596565b5f60055f9054906101000a900473ffffffffffffffffffffffffffffffffffffffff16905090565b606060048054610fab90612b53565b80601f0160208091040260200160405190810160405280929190818152602001828054610fd790612b53565b80156110225780601f10610ff957610100808354040283529160200191611022565b820191905f5260205f20905b81548152906001019060200180831161100557829003601f168201915b5050505050905090565b5f73ffffffffffffffffffffffffffffffffffffffff168273ffffffffffffffffffffffffffffffffffffffff160361109a576040517f08c379a000000000000000000000000000000000000000000000000000000000815260040161109190612fee565b60405180910390fd5b5f6110a483610e46565b9050818110156110e9576040517f08c379a00000000000000000000000000000000000000000000000000000000081526004016110e09061307c565b60405180910390fd5b6110f38383611876565b505050565b600a602052805f5260405f205f915090505481565b5f806111176114dc565b90506111248185856116d0565b600191505092915050565b5f600a5f8373ffffffffffffffffffffffffffffffffffffffff1673ffffffffffffffffffffffffffffffffffffffff1681526020019081526020015f20549050919050565b80600a5f8573ffffffffffffffffffffffffffffffffffffffff1673ffffffffffffffffffffffffffffffffffffffff1681526020019081526020015f205410156111f5576040517f08c379a00000000000000000000000000000000000000000000000000000000081526004016111ec906130e4565b60405180910390fd5b80600a5f8573ffffffffffffffffffffffffffffffffffffffff1673ffffffffffffffffffffffffffffffffffffffff1681526020019081526020015f205f8282546112419190612e01565b925050819055508173ffffffffffffffffffffffffffffffffffffffff166108fc8290811502906040515f60405180830381858888f1935050505015801561128b573d5f803e3d5ffd5b50505050565b834211156112d657836040517f627913020000000000000000000000000000000000000000000000000000000081526004016112cd91906126fa565b60405180910390fd5b5f7f6e71edae12b1b97f4d1f60370fef10105fa2faae0126114a169c64845d6126c98888886113048c611afb565b8960405160200161131a96959493929190613102565b6040516020818303038152906040528051906020012090505f61133c82611b4e565b90505f61134b82878787611b67565b90508973ffffffffffffffffffffffffffffffffffffffff168173ffffffffffffffffffffffffffffffffffffffff16146113bf57808a6040517f4b800e460000000000000000000000000000000000000000000000000000000081526004016113b6929190613161565b60405180910390fd5b6113ca8a8a8a6114e3565b50505050505050505050565b5f60015f8473ffffffffffffffffffffffffffffffffffffffff1673ffffffffffffffffffffffffffffffffffffffff1681526020019081526020015f205f8373ffffffffffffffffffffffffffffffffffffffff1673ffffffffffffffffffffffffffffffffffffffff1681526020019081526020015f2054905092915050565b6114606118f5565b5f73ffffffffffffffffffffffffffffffffffffffff168173ffffffffffffffffffffffffffffffffffffffff16036114d0575f6040517f1e4fbdf70000000000000000000000000000000000000000000000000000000081526004016114c791906129de565b60405180910390fd5b6114d98161197c565b50565b5f33905090565b6114f08383836001611b95565b505050565b60605f600161150384611d64565b0190505f8167ffffffffffffffff81111561152157611520612f51565b5b6040519080825280601f01601f1916602001820160405280156115535781602001600182028036833780820191505090505b5090505f82602001820190505b6001156115b4578080600190039150507f3031323334353637383961626364656600000000000000000000000000000000600a86061a8153600a85816115a9576115a8613188565b5b0494505f8503611560575b819350505050919050565b5f73ffffffffffffffffffffffffffffffffffffffff168273ffffffffffffffffffffffffffffffffffffffff160361162f575f6040517fec442f0500000000000000000000000000000000000000000000000000000000815260040161162691906129de565b60405180910390fd5b61163a5f8383611eb5565b5050565b5f61164984846113d6565b90507fffffffffffffffffffffffffffffffffffffffffffffffffffffffffffffffff81146116ca57818110156116bb578281836040517ffb8f41b20000000000000000000000000000000000000000000000000000000081526004016116b2939291906131b5565b60405180910390fd5b6116c984848484035f611b95565b5b50505050565b5f73ffffffffffffffffffffffffffffffffffffffff168373ffffffffffffffffffffffffffffffffffffffff1603611740575f6040517f96c6fd1e00000000000000000000000000000000000000000000000000000000815260040161173791906129de565b60405180910390fd5b5f73ffffffffffffffffffffffffffffffffffffffff168273ffffffffffffffffffffffffffffffffffffffff16036117b0575f6040517fec442f050000000000000000000000000000000000000000000000000000000081526004016117a791906129de565b60405180910390fd5b6117bb838383611eb5565b505050565b5f7f000000000000000000000000000000000000000000000000000000000000000073ffffffffffffffffffffffffffffffffffffffff163073ffffffffffffffffffffffffffffffffffffffff1614801561183b57507f000000000000000000000000000000000000000000000000000000000000000046145b15611868577f00000000000000000000000000000000000000000000000000000000000000009050611873565b6118706120ce565b90505b90565b5f73ffffffffffffffffffffffffffffffffffffffff168273ffffffffffffffffffffffffffffffffffffffff16036118e6575f6040517f96c6fd1e0000000000000000000000000000000000000000000000000000000081526004016118dd91906129de565b60405180910390fd5b6118f1825f83611eb5565b5050565b6118fd6114dc565b73ffffffffffffffffffffffffffffffffffffffff1661191b610f74565b73ffffffffffffffffffffffffffffffffffffffff161461197a5761193e6114dc565b6040517f118cdaa700000000000000000000000000000000000000000000000000000000815260040161197191906129de565b60405180910390fd5b565b5f60055f9054906101000a900473ffffffffffffffffffffffffffffffffffffffff1690508160055f6101000a81548173ffffffffffffffffffffffffffffffffffffffff021916908373ffffffffffffffffffffffffffffffffffffffff1602179055508173ffffffffffffffffffffffffffffffffffffffff168173ffffffffffffffffffffffffffffffffffffffff167f8be0079c531659141344cd1fd0a4f28419497f9722a3daafe3b4186f6b6457e060405160405180910390a35050565b5f60085f8373ffffffffffffffffffffffffffffffffffffffff1673ffffffffffffffffffffffffffffffffffffffff1681526020019081526020015f20549050919050565b6060611abb60067f000000000000000000000000000000000000000000000000000000000000000061216390919063ffffffff16565b905090565b6060611af660077f000000000000000000000000000000000000000000000000000000000000000061216390919063ffffffff16565b905090565b5f60085f8373ffffffffffffffffffffffffffffffffffffffff1673ffffffffffffffffffffffffffffffffffffffff1681526020019081526020015f205f815480929190600101919050559050919050565b5f611b60611b5a6117c0565b83612210565b9050919050565b5f805f80611b7788888888612250565b925092509250611b878282612337565b829350505050949350505050565b5f73ffffffffffffffffffffffffffffffffffffffff168473ffffffffffffffffffffffffffffffffffffffff1603611c05575f6040517fe602df05000000000000000000000000000000000000000000000000000000008152600401611bfc91906129de565b60405180910390fd5b5f73ffffffffffffffffffffffffffffffffffffffff168373ffffffffffffffffffffffffffffffffffffffff1603611c75575f6040517f94280d62000000000000000000000000000000000000000000000000000000008152600401611c6c91906129de565b60405180910390fd5b8160015f8673ffffffffffffffffffffffffffffffffffffffff1673ffffffffffffffffffffffffffffffffffffffff1681526020019081526020015f205f8573ffffffffffffffffffffffffffffffffffffffff1673ffffffffffffffffffffffffffffffffffffffff1681526020019081526020015f20819055508015611d5e578273ffffffffffffffffffffffffffffffffffffffff168473ffffffffffffffffffffffffffffffffffffffff167f8c5be1e5ebec7d5bd14f71427d1e84f3dd0314c0f7b2291e5b200ac8c7c3b92584604051611d5591906126fa565b60405180910390a35b50505050565b5f805f90507a184f03e93ff9f4daa797ed6e38ed64bf6a1f0100000000000000008310611dc0577a184f03e93ff9f4daa797ed6e38ed64bf6a1f0100000000000000008381611db657611db5613188565b5b0492506040810190505b6d04ee2d6d415b85acef81000000008310611dfd576d04ee2d6d415b85acef81000000008381611df357611df2613188565b5b0492506020810190505b662386f26fc100008310611e2c57662386f26fc100008381611e2257611e21613188565b5b0492506010810190505b6305f5e1008310611e55576305f5e1008381611e4b57611e4a613188565b5b0492506008810190505b6127108310611e7a576127108381611e7057611e6f613188565b5b0492506004810190505b60648310611e9d5760648381611e9357611e92613188565b5b0492506002810190505b600a8310611eac576001810190505b80915050919050565b5f73ffffffffffffffffffffffffffffffffffffffff168373ffffffffffffffffffffffffffffffffffffffff1603611f05578060025f828254611ef99190612e34565b92505081905550611fd3565b5f805f8573ffffffffffffffffffffffffffffffffffffffff1673ffffffffffffffffffffffffffffffffffffffff1681526020019081526020015f2054905081811015611f8e578381836040517fe450d38c000000000000000000000000000000000000000000000000000000008152600401611f85939291906131b5565b60405180910390fd5b8181035f808673ffffffffffffffffffffffffffffffffffffffff1673ffffffffffffffffffffffffffffffffffffffff1681526020019081526020015f2081905550505b5f73ffffffffffffffffffffffffffffffffffffffff168273ffffffffffffffffffffffffffffffffffffffff160361201a578060025f8282540392505081905550612064565b805f808473ffffffffffffffffffffffffffffffffffffffff1673ffffffffffffffffffffffffffffffffffffffff1681526020019081526020015f205f82825401925050819055505b8173ffffffffffffffffffffffffffffffffffffffff168373ffffffffffffffffffffffffffffffffffffffff167fddf252ad1be2c89b69c2b068fc378daa952ba7f163c4a11628f55a4df523b3ef836040516120c191906126fa565b60405180910390a3505050565b5f7f8b73c3c69bb8fe3d512ecc4cf759cc79239f7b179b0ffacaa9a75d522b39400f7f00000000000000000000000000000000000000000000000000000000000000007f000000000000000000000000000000000000000000000000000000000000000046306040516020016121489594939291906131ea565b60405160208183030381529060405280519060200120905090565b606060ff5f1b831461217f5761217883612499565b905061220a565b81805461218b90612b53565b80601f01602080910402602001604051908101604052809291908181526020018280546121b790612b53565b80156122025780601f106121d957610100808354040283529160200191612202565b820191905f5260205f20905b8154815290600101906020018083116121e557829003601f168201915b505050505090505b92915050565b5f6040517f190100000000000000000000000000000000000000000000000000000000000081528360028201528260228201526042812091505092915050565b5f805f7f7fffffffffffffffffffffffffffffff5d576e7357a4501ddfe92f46681b20a0845f1c111561228c575f60038592509250925061232d565b5f6001888888886040515f81526020016040526040516122af949392919061323b565b6020604051602081039080840390855afa1580156122cf573d5f803e3d5ffd5b5050506020604051035190505f73ffffffffffffffffffffffffffffffffffffffff168173ffffffffffffffffffffffffffffffffffffffff1603612320575f60015f801b9350935093505061232d565b805f805f1b935093509350505b9450945094915050565b5f600381111561234a5761234961327e565b5b82600381111561235d5761235c61327e565b5b031561249557600160038111156123775761237661327e565b5b82600381111561238a5761238961327e565b5b036123c1576040517ff645eedf00000000000000000000000000000000000000000000000000000000815260040160405180910390fd5b600260038111156123d5576123d461327e565b5b8260038111156123e8576123e761327e565b5b0361242c57805f1c6040517ffce698f700000000000000000000000000000000000000000000000000000000815260040161242391906126fa565b60405180910390fd5b60038081111561243f5761243e61327e565b5b8260038111156124525761245161327e565b5b0361249457806040517fd78bce0c00000000000000000000000000000000000000000000000000000000815260040161248b9190612843565b60405180910390fd5b5b5050565b60605f6124a58361250b565b90505f602067ffffffffffffffff8111156124c3576124c2612f51565b5b6040519080825280601f01601f1916602001820160405280156124f55781602001600182028036833780820191505090505b5090508181528360208201528092505050919050565b5f8060ff835f1c169050601f811115612550576040517fb3512b0c00000000000000000000000000000000000000000000000000000000815260040160405180910390fd5b80915050919050565b5f81519050919050565b5f82825260208201905092915050565b8281835e5f83830152505050565b5f601f19601f8301169050919050565b5f61259b82612559565b6125a58185612563565b93506125b5818560208601612573565b6125be81612581565b840191505092915050565b5f6020820190508181035f8301526125e18184612591565b905092915050565b5f80fd5b5f73ffffffffffffffffffffffffffffffffffffffff82169050919050565b5f612616826125ed565b9050919050565b6126268161260c565b8114612630575f80fd5b50565b5f813590506126418161261d565b92915050565b5f819050919050565b61265981612647565b8114612663575f80fd5b50565b5f8135905061267481612650565b92915050565b5f80604083850312156126905761268f6125e9565b5b5f61269d85828601612633565b92505060206126ae85828601612666565b9150509250929050565b5f8115159050919050565b6126cc816126b8565b82525050565b5f6020820190506126e55f8301846126c3565b92915050565b6126f481612647565b82525050565b5f60208201905061270d5f8301846126eb565b92915050565b5f8060408385031215612729576127286125e9565b5b5f61273685828601612666565b925050602061274785828601612666565b9150509250929050565b5f60208284031215612766576127656125e9565b5b5f61277384828501612633565b91505092915050565b5f805f60608486031215612793576127926125e9565b5b5f6127a086828701612633565b93505060206127b186828701612633565b92505060406127c286828701612666565b9150509250925092565b5f602082840312156127e1576127e06125e9565b5b5f6127ee84828501612666565b91505092915050565b5f60ff82169050919050565b61280c816127f7565b82525050565b5f6020820190506128255f830184612803565b92915050565b5f819050919050565b61283d8161282b565b82525050565b5f6020820190506128565f830184612834565b92915050565b5f7fff0000000000000000000000000000000000000000000000000000000000000082169050919050565b6128908161285c565b82525050565b61289f8161260c565b82525050565b5f81519050919050565b5f82825260208201905092915050565b5f819050602082019050919050565b6128d781612647565b82525050565b5f6128e883836128ce565b60208301905092915050565b5f602082019050919050565b5f61290a826128a5565b61291481856128af565b935061291f836128bf565b805f5b8381101561294f57815161293688826128dd565b9750612941836128f4565b925050600181019050612922565b5085935050505092915050565b5f60e08201905061296f5f83018a612887565b81810360208301526129818189612591565b905081810360408301526129958188612591565b90506129a460608301876126eb565b6129b16080830186612896565b6129be60a0830185612834565b81810360c08301526129d08184612900565b905098975050505050505050565b5f6020820190506129f15f830184612896565b92915050565b612a00816127f7565b8114612a0a575f80fd5b50565b5f81359050612a1b816129f7565b92915050565b612a2a8161282b565b8114612a34575f80fd5b50565b5f81359050612a4581612a21565b92915050565b5f805f805f805f60e0888a031215612a6657612a656125e9565b5b5f612a738a828b01612633565b9750506020612a848a828b01612633565b9650506040612a958a828b01612666565b9550506060612aa68a828b01612666565b9450506080612ab78a828b01612a0d565b93505060a0612ac88a828b01612a37565b92505060c0612ad98a828b01612a37565b91505092959891949750929550565b5f8060408385031215612afe57612afd6125e9565b5b5f612b0b85828601612633565b9250506020612b1c85828601612633565b9150509250929050565b7f4e487b71000000000000000000000000000000000000000000000000000000005f52602260045260245ffd5b5f6002820490506001821680612b6a57607f821691505b602082108103612b7d57612b7c612b26565b5b50919050565b7f596f75206d757374206e6f742068617665206d696e74656420746f6b656e73205f8201527f746f207175657279207468697320696e666f726d6174696f6e00000000000000602082015250565b5f612bdd603983612563565b9150612be882612b83565b604082019050919050565b5f6020820190508181035f830152612c0a81612bd1565b9050919050565b7f4e487b71000000000000000000000000000000000000000000000000000000005f52601160045260245ffd5b5f612c4882612647565b9150612c5383612647565b9250828202612c6181612647565b91508282048414831517612c7857612c77612c11565b5b5092915050565b5f81905092915050565b7f496e73756666696369656e7420636f6c6c61746572616c3a20526571756972655f8201527f6420000000000000000000000000000000000000000000000000000000000000602082015250565b5f612ce3602283612c7f565b9150612cee82612c89565b602282019050919050565b5f612d0382612559565b612d0d8185612c7f565b9350612d1d818560208601612573565b80840191505092915050565b7f207765692c206275742070726f766964656420000000000000000000000000005f82015250565b5f612d5d601383612c7f565b9150612d6882612d29565b601382019050919050565b7f207765692e0000000000000000000000000000000000000000000000000000005f82015250565b5f612da7600583612c7f565b9150612db282612d73565b600582019050919050565b5f612dc782612cd7565b9150612dd38285612cf9565b9150612dde82612d51565b9150612dea8284612cf9565b9150612df582612d9b565b91508190509392505050565b5f612e0b82612647565b9150612e1683612647565b9250828203905081811115612e2e57612e2d612c11565b5b92915050565b5f612e3e82612647565b9150612e4983612647565b9250828201905080821115612e6157612e60612c11565b5b92915050565b5f604082019050612e7a5f8301856126eb565b612e8760208301846126eb565b9392505050565b7f596f75206d7573742068617665206d696e74656420746f6b656e7320746f20715f8201527f75657279207468697320696e666f726d6174696f6e0000000000000000000000602082015250565b5f612ee8603583612563565b9150612ef382612e8e565b604082019050919050565b5f6020820190508181035f830152612f1581612edc565b9050919050565b5f606082019050612f2f5f8301866126eb565b612f3c60208301856126eb565b612f4960408301846126eb565b949350505050565b7f4e487b71000000000000000000000000000000000000000000000000000000005f52604160045260245ffd5b7f45524332303a206275726e2066726f6d20746865207a65726f206164647265735f8201527f7300000000000000000000000000000000000000000000000000000000000000602082015250565b5f612fd8602183612563565b9150612fe382612f7e565b604082019050919050565b5f6020820190508181035f83015261300581612fcc565b9050919050565b7f45524332303a206275726e20616d6f756e7420657863656564732062616c616e5f8201527f6365000000000000000000000000000000000000000000000000000000000000602082015250565b5f613066602283612563565b91506130718261300c565b604082019050919050565b5f6020820190508181035f8301526130938161305a565b9050919050565b7f496e73756666696369656e7420636f6c6c61746572616c2062616c616e63652e5f82015250565b5f6130ce602083612563565b91506130d98261309a565b602082019050919050565b5f6020820190508181035f8301526130fb816130c2565b9050919050565b5f60c0820190506131155f830189612834565b6131226020830188612896565b61312f6040830187612896565b61313c60608301866126eb565b61314960808301856126eb565b61315660a08301846126eb565b979650505050505050565b5f6040820190506131745f830185612896565b6131816020830184612896565b9392505050565b7f4e487b71000000000000000000000000000000000000000000000000000000005f52601260045260245ffd5b5f6060820190506131c85f830186612896565b6131d560208301856126eb565b6131e260408301846126eb565b949350505050565b5f60a0820190506131fd5f830188612834565b61320a6020830187612834565b6132176040830186612834565b61322460608301856126eb565b6132316080830184612896565b9695505050505050565b5f60808201905061324e5f830187612834565b61325b6020830186612803565b6132686040830185612834565b6132756060830184612834565b95945050505050565b7f4e487b71000000000000000000000000000000000000000000000000000000005f52602160045260245ffdfea26469706673582212201b29bc8b7285182592c27e6b18723af9d13b6733230c3d8167c414b9e78c0d6964736f6c634300081a0033",
			"opcodes": "PUSH2 0x160 PUSH1 0x40 MSTORE PUSH1 0x40 MLOAD DUP1 PUSH1 0x40 ADD PUSH1 0x40 MSTORE DUP1 PUSH1 0xE DUP2 MSTORE PUSH1 0x20 ADD PUSH32 0x436861696E53757265546F6B656E000000000000000000000000000000000000 DUP2 MSTORE POP DUP1 PUSH1 0x40 MLOAD DUP1 PUSH1 0x40 ADD PUSH1 0x40 MSTORE DUP1 PUSH1 0x1 DUP2 MSTORE PUSH1 0x20 ADD PUSH32 0x3100000000000000000000000000000000000000000000000000000000000000 DUP2 MSTORE POP CALLER PUSH1 0x40 MLOAD DUP1 PUSH1 0x40 ADD PUSH1 0x40 MSTORE DUP1 PUSH1 0xE DUP2 MSTORE PUSH1 0x20 ADD PUSH32 0x436861696E53757265546F6B656E000000000000000000000000000000000000 DUP2 MSTORE POP PUSH1 0x40 MLOAD DUP1 PUSH1 0x40 ADD PUSH1 0x40 MSTORE DUP1 PUSH1 0x3 DUP2 MSTORE PUSH1 0x20 ADD PUSH32 0x4353540000000000000000000000000000000000000000000000000000000000 DUP2 MSTORE POP DUP2 PUSH1 0x3 SWAP1 DUP2 PUSH2 0xEE SWAP2 SWAP1 PUSH2 0x643 JUMP JUMPDEST POP DUP1 PUSH1 0x4 SWAP1 DUP2 PUSH2 0xFE SWAP2 SWAP1 PUSH2 0x643 JUMP JUMPDEST POP POP POP PUSH0 PUSH20 0xFFFFFFFFFFFFFFFFFFFFFFFFFFFFFFFFFFFFFFFF AND DUP2 PUSH20 0xFFFFFFFFFFFFFFFFFFFFFFFFFFFFFFFFFFFFFFFF AND SUB PUSH2 0x171 JUMPI PUSH0 PUSH1 0x40 MLOAD PUSH32 0x1E4FBDF700000000000000000000000000000000000000000000000000000000 DUP2 MSTORE PUSH1 0x4 ADD PUSH2 0x168 SWAP2 SWAP1 PUSH2 0x751 JUMP JUMPDEST PUSH1 0x40 MLOAD DUP1 SWAP2 SUB SWAP1 REVERT JUMPDEST PUSH2 0x180 DUP2 PUSH2 0x231 PUSH1 0x20 SHL PUSH1 0x20 SHR JUMP JUMPDEST POP PUSH2 0x195 PUSH1 0x6 DUP4 PUSH2 0x2F4 PUSH1 0x20 SHL SWAP1 SWAP2 SWAP1 PUSH1 0x20 SHR JUMP JUMPDEST PUSH2 0x120 DUP2 DUP2 MSTORE POP POP PUSH2 0x1B1 PUSH1 0x7 DUP3 PUSH2 0x2F4 PUSH1 0x20 SHL SWAP1 SWAP2 SWAP1 PUSH1 0x20 SHR JUMP JUMPDEST PUSH2 0x140 DUP2 DUP2 MSTORE POP POP DUP2 DUP1 MLOAD SWAP1 PUSH1 0x20 ADD KECCAK256 PUSH1 0xE0 DUP2 DUP2 MSTORE POP POP DUP1 DUP1 MLOAD SWAP1 PUSH1 0x20 ADD KECCAK256 PUSH2 0x100 DUP2 DUP2 MSTORE POP POP CHAINID PUSH1 0xA0 DUP2 DUP2 MSTORE POP POP PUSH2 0x1EE PUSH2 0x341 PUSH1 0x20 SHL PUSH1 0x20 SHR JUMP JUMPDEST PUSH1 0x80 DUP2 DUP2 MSTORE POP POP ADDRESS PUSH20 0xFFFFFFFFFFFFFFFFFFFFFFFFFFFFFFFFFFFFFFFF AND PUSH1 0xC0 DUP2 PUSH20 0xFFFFFFFFFFFFFFFFFFFFFFFFFFFFFFFFFFFFFFFF AND DUP2 MSTORE POP POP POP POP POP PUSH2 0x8FB JUMP JUMPDEST PUSH0 PUSH1 0x5 PUSH0 SWAP1 SLOAD SWAP1 PUSH2 0x100 EXP SWAP1 DIV PUSH20 0xFFFFFFFFFFFFFFFFFFFFFFFFFFFFFFFFFFFFFFFF AND SWAP1 POP DUP2 PUSH1 0x5 PUSH0 PUSH2 0x100 EXP DUP2 SLOAD DUP2 PUSH20 0xFFFFFFFFFFFFFFFFFFFFFFFFFFFFFFFFFFFFFFFF MUL NOT AND SWAP1 DUP4 PUSH20 0xFFFFFFFFFFFFFFFFFFFFFFFFFFFFFFFFFFFFFFFF AND MUL OR SWAP1 SSTORE POP DUP2 PUSH20 0xFFFFFFFFFFFFFFFFFFFFFFFFFFFFFFFFFFFFFFFF AND DUP2 PUSH20 0xFFFFFFFFFFFFFFFFFFFFFFFFFFFFFFFFFFFFFFFF AND PUSH32 0x8BE0079C531659141344CD1FD0A4F28419497F9722A3DAAFE3B4186F6B6457E0 PUSH1 0x40 MLOAD PUSH1 0x40 MLOAD DUP1 SWAP2 SUB SWAP1 LOG3 POP POP JUMP JUMPDEST PUSH0 PUSH1 0x20 DUP4 MLOAD LT ISZERO PUSH2 0x315 JUMPI PUSH2 0x30E DUP4 PUSH2 0x39B PUSH1 0x20 SHL PUSH1 0x20 SHR JUMP JUMPDEST SWAP1 POP PUSH2 0x33B JUMP JUMPDEST DUP3 PUSH2 0x325 DUP4 PUSH2 0x400 PUSH1 0x20 SHL PUSH1 0x20 SHR JUMP JUMPDEST PUSH0 ADD SWAP1 DUP2 PUSH2 0x333 SWAP2 SWAP1 PUSH2 0x643 JUMP JUMPDEST POP PUSH1 0xFF PUSH0 SHL SWAP1 POP JUMPDEST SWAP3 SWAP2 POP POP JUMP JUMPDEST PUSH0 PUSH32 0x8B73C3C69BB8FE3D512ECC4CF759CC79239F7B179B0FFACAA9A75D522B39400F PUSH1 0xE0 MLOAD PUSH2 0x100 MLOAD CHAINID ADDRESS PUSH1 0x40 MLOAD PUSH1 0x20 ADD PUSH2 0x380 SWAP6 SWAP5 SWAP4 SWAP3 SWAP2 SWAP1 PUSH2 0x791 JUMP JUMPDEST PUSH1 0x40 MLOAD PUSH1 0x20 DUP2 DUP4 SUB SUB DUP2 MSTORE SWAP1 PUSH1 0x40 MSTORE DUP1 MLOAD SWAP1 PUSH1 0x20 ADD KECCAK256 SWAP1 POP SWAP1 JUMP JUMPDEST PUSH0 DUP1 DUP3 SWAP1 POP PUSH1 0x1F DUP2 MLOAD GT ISZERO PUSH2 0x3E7 JUMPI DUP3 PUSH1 0x40 MLOAD PUSH32 0x305A27A900000000000000000000000000000000000000000000000000000000 DUP2 MSTORE PUSH1 0x4 ADD PUSH2 0x3DE SWAP2 SWAP1 PUSH2 0x848 JUMP JUMPDEST PUSH1 0x40 MLOAD DUP1 SWAP2 SUB SWAP1 REVERT JUMPDEST DUP1 MLOAD DUP2 PUSH2 0x3F3 SWAP1 PUSH2 0x895 JUMP JUMPDEST PUSH0 SHR OR PUSH0 SHL SWAP2 POP POP SWAP2 SWAP1 POP JUMP JUMPDEST PUSH0 DUP2 SWAP1 POP SWAP2 SWAP1 POP JUMP JUMPDEST PUSH0 DUP2 MLOAD SWAP1 POP SWAP2 SWAP1 POP JUMP JUMPDEST PUSH32 0x4E487B7100000000000000000000000000000000000000000000000000000000 PUSH0 MSTORE PUSH1 0x41 PUSH1 0x4 MSTORE PUSH1 0x24 PUSH0 REVERT JUMPDEST PUSH32 0x4E487B7100000000000000000000000000000000000000000000000000000000 PUSH0 MSTORE PUSH1 0x22 PUSH1 0x4 MSTORE PUSH1 0x24 PUSH0 REVERT JUMPDEST PUSH0 PUSH1 0x2 DUP3 DIV SWAP1 POP PUSH1 0x1 DUP3 AND DUP1 PUSH2 0x484 JUMPI PUSH1 0x7F DUP3 AND SWAP2 POP JUMPDEST PUSH1 0x20 DUP3 LT DUP2 SUB PUSH2 0x497 JUMPI PUSH2 0x496 PUSH2 0x440 JUMP JUMPDEST JUMPDEST POP SWAP2 SWAP1 POP JUMP JUMPDEST PUSH0 DUP2 SWAP1 POP DUP2 PUSH0 MSTORE PUSH1 0x20 PUSH0 KECCAK256 SWAP1 POP SWAP2 SWAP1 POP JUMP JUMPDEST PUSH0 PUSH1 0x20 PUSH1 0x1F DUP4 ADD DIV SWAP1 POP SWAP2 SWAP1 POP JUMP JUMPDEST PUSH0 DUP3 DUP3 SHL SWAP1 POP SWAP3 SWAP2 POP POP JUMP JUMPDEST PUSH0 PUSH1 0x8 DUP4 MUL PUSH2 0x4F9 PUSH32 0xFFFFFFFFFFFFFFFFFFFFFFFFFFFFFFFFFFFFFFFFFFFFFFFFFFFFFFFFFFFFFFFF DUP3 PUSH2 0x4BE JUMP JUMPDEST PUSH2 0x503 DUP7 DUP4 PUSH2 0x4BE JUMP JUMPDEST SWAP6 POP DUP1 NOT DUP5 AND SWAP4 POP DUP1 DUP7 AND DUP5 OR SWAP3 POP POP POP SWAP4 SWAP3 POP POP POP JUMP JUMPDEST PUSH0 DUP2 SWAP1 POP SWAP2 SWAP1 POP JUMP JUMPDEST PUSH0 DUP2 SWAP1 POP SWAP2 SWAP1 POP JUMP JUMPDEST PUSH0 PUSH2 0x547 PUSH2 0x542 PUSH2 0x53D DUP5 PUSH2 0x51B JUMP JUMPDEST PUSH2 0x524 JUMP JUMPDEST PUSH2 0x51B JUMP JUMPDEST SWAP1 POP SWAP2 SWAP1 POP JUMP JUMPDEST PUSH0 DUP2 SWAP1 POP SWAP2 SWAP1 POP JUMP JUMPDEST PUSH2 0x560 DUP4 PUSH2 0x52D JUMP JUMPDEST PUSH2 0x574 PUSH2 0x56C DUP3 PUSH2 0x54E JUMP JUMPDEST DUP5 DUP5 SLOAD PUSH2 0x4CA JUMP JUMPDEST DUP3 SSTORE POP POP POP POP JUMP JUMPDEST PUSH0 SWAP1 JUMP JUMPDEST PUSH2 0x588 PUSH2 0x57C JUMP JUMPDEST PUSH2 0x593 DUP2 DUP5 DUP5 PUSH2 0x557 JUMP JUMPDEST POP POP POP JUMP JUMPDEST JUMPDEST DUP2 DUP2 LT ISZERO PUSH2 0x5B6 JUMPI PUSH2 0x5AB PUSH0 DUP3 PUSH2 0x580 JUMP JUMPDEST PUSH1 0x1 DUP2 ADD SWAP1 POP PUSH2 0x599 JUMP JUMPDEST POP POP JUMP JUMPDEST PUSH1 0x1F DUP3 GT ISZERO PUSH2 0x5FB JUMPI PUSH2 0x5CC DUP2 PUSH2 0x49D JUMP JUMPDEST PUSH2 0x5D5 DUP5 PUSH2 0x4AF JUMP JUMPDEST DUP2 ADD PUSH1 0x20 DUP6 LT ISZERO PUSH2 0x5E4 JUMPI DUP2 SWAP1 POP JUMPDEST PUSH2 0x5F8 PUSH2 0x5F0 DUP6 PUSH2 0x4AF JUMP JUMPDEST DUP4 ADD DUP3 PUSH2 0x598 JUMP JUMPDEST POP POP JUMPDEST POP POP POP JUMP JUMPDEST PUSH0 DUP3 DUP3 SHR SWAP1 POP SWAP3 SWAP2 POP POP JUMP JUMPDEST PUSH0 PUSH2 0x61B PUSH0 NOT DUP5 PUSH1 0x8 MUL PUSH2 0x600 JUMP JUMPDEST NOT DUP1 DUP4 AND SWAP2 POP POP SWAP3 SWAP2 POP POP JUMP JUMPDEST PUSH0 PUSH2 0x633 DUP4 DUP4 PUSH2 0x60C JUMP JUMPDEST SWAP2 POP DUP3 PUSH1 0x2 MUL DUP3 OR SWAP1 POP SWAP3 SWAP2 POP POP JUMP JUMPDEST PUSH2 0x64C DUP3 PUSH2 0x409 JUMP JUMPDEST PUSH8 0xFFFFFFFFFFFFFFFF DUP2 GT ISZERO PUSH2 0x665 JUMPI PUSH2 0x664 PUSH2 0x413 JUMP JUMPDEST JUMPDEST PUSH2 0x66F DUP3 SLOAD PUSH2 0x46D JUMP JUMPDEST PUSH2 0x67A DUP3 DUP3 DUP6 PUSH2 0x5BA JUMP JUMPDEST PUSH0 PUSH1 0x20 SWAP1 POP PUSH1 0x1F DUP4 GT PUSH1 0x1 DUP2 EQ PUSH2 0x6AB JUMPI PUSH0 DUP5 ISZERO PUSH2 0x699 JUMPI DUP3 DUP8 ADD MLOAD SWAP1 POP JUMPDEST PUSH2 0x6A3 DUP6 DUP3 PUSH2 0x628 JUMP JUMPDEST DUP7 SSTORE POP PUSH2 0x70A JUMP JUMPDEST PUSH1 0x1F NOT DUP5 AND PUSH2 0x6B9 DUP7 PUSH2 0x49D JUMP JUMPDEST PUSH0 JUMPDEST DUP3 DUP2 LT ISZERO PUSH2 0x6E0 JUMPI DUP5 DUP10 ADD MLOAD DUP3 SSTORE PUSH1 0x1 DUP3 ADD SWAP2 POP PUSH1 0x20 DUP6 ADD SWAP5 POP PUSH1 0x20 DUP2 ADD SWAP1 POP PUSH2 0x6BB JUMP JUMPDEST DUP7 DUP4 LT ISZERO PUSH2 0x6FD JUMPI DUP5 DUP10 ADD MLOAD PUSH2 0x6F9 PUSH1 0x1F DUP10 AND DUP3 PUSH2 0x60C JUMP JUMPDEST DUP4 SSTORE POP JUMPDEST PUSH1 0x1 PUSH1 0x2 DUP9 MUL ADD DUP9 SSTORE POP POP POP JUMPDEST POP POP POP POP POP POP JUMP JUMPDEST PUSH0 PUSH20 0xFFFFFFFFFFFFFFFFFFFFFFFFFFFFFFFFFFFFFFFF DUP3 AND SWAP1 POP SWAP2 SWAP1 POP JUMP JUMPDEST PUSH0 PUSH2 0x73B DUP3 PUSH2 0x712 JUMP JUMPDEST SWAP1 POP SWAP2 SWAP1 POP JUMP JUMPDEST PUSH2 0x74B DUP2 PUSH2 0x731 JUMP JUMPDEST DUP3 MSTORE POP POP JUMP JUMPDEST PUSH0 PUSH1 0x20 DUP3 ADD SWAP1 POP PUSH2 0x764 PUSH0 DUP4 ADD DUP5 PUSH2 0x742 JUMP JUMPDEST SWAP3 SWAP2 POP POP JUMP JUMPDEST PUSH0 DUP2 SWAP1 POP SWAP2 SWAP1 POP JUMP JUMPDEST PUSH2 0x77C DUP2 PUSH2 0x76A JUMP JUMPDEST DUP3 MSTORE POP POP JUMP JUMPDEST PUSH2 0x78B DUP2 PUSH2 0x51B JUMP JUMPDEST DUP3 MSTORE POP POP JUMP JUMPDEST PUSH0 PUSH1 0xA0 DUP3 ADD SWAP1 POP PUSH2 0x7A4 PUSH0 DUP4 ADD DUP9 PUSH2 0x773 JUMP JUMPDEST PUSH2 0x7B1 PUSH1 0x20 DUP4 ADD DUP8 PUSH2 0x773 JUMP JUMPDEST PUSH2 0x7BE PUSH1 0x40 DUP4 ADD DUP7 PUSH2 0x773 JUMP JUMPDEST PUSH2 0x7CB PUSH1 0x60 DUP4 ADD DUP6 PUSH2 0x782 JUMP JUMPDEST PUSH2 0x7D8 PUSH1 0x80 DUP4 ADD DUP5 PUSH2 0x742 JUMP JUMPDEST SWAP7 SWAP6 POP POP POP POP POP POP JUMP JUMPDEST PUSH0 DUP3 DUP3 MSTORE PUSH1 0x20 DUP3 ADD SWAP1 POP SWAP3 SWAP2 POP POP JUMP JUMPDEST DUP3 DUP2 DUP4 MCOPY PUSH0 DUP4 DUP4 ADD MSTORE POP POP POP JUMP JUMPDEST PUSH0 PUSH1 0x1F NOT PUSH1 0x1F DUP4 ADD AND SWAP1 POP SWAP2 SWAP1 POP JUMP JUMPDEST PUSH0 PUSH2 0x81A DUP3 PUSH2 0x409 JUMP JUMPDEST PUSH2 0x824 DUP2 DUP6 PUSH2 0x7E2 JUMP JUMPDEST SWAP4 POP PUSH2 0x834 DUP2 DUP6 PUSH1 0x20 DUP7 ADD PUSH2 0x7F2 JUMP JUMPDEST PUSH2 0x83D DUP2 PUSH2 0x800 JUMP JUMPDEST DUP5 ADD SWAP2 POP POP SWAP3 SWAP2 POP POP JUMP JUMPDEST PUSH0 PUSH1 0x20 DUP3 ADD SWAP1 POP DUP2 DUP2 SUB PUSH0 DUP4 ADD MSTORE PUSH2 0x860 DUP2 DUP5 PUSH2 0x810 JUMP JUMPDEST SWAP1 POP SWAP3 SWAP2 POP POP JUMP JUMPDEST PUSH0 DUP2 MLOAD SWAP1 POP SWAP2 SWAP1 POP JUMP JUMPDEST PUSH0 DUP2 SWAP1 POP PUSH1 0x20 DUP3 ADD SWAP1 POP SWAP2 SWAP1 POP JUMP JUMPDEST PUSH0 PUSH2 0x88C DUP3 MLOAD PUSH2 0x76A JUMP JUMPDEST DUP1 SWAP2 POP POP SWAP2 SWAP1 POP JUMP JUMPDEST PUSH0 PUSH2 0x89F DUP3 PUSH2 0x868 JUMP JUMPDEST DUP3 PUSH2 0x8A9 DUP5 PUSH2 0x872 JUMP JUMPDEST SWAP1 POP PUSH2 0x8B4 DUP2 PUSH2 0x881 JUMP JUMPDEST SWAP3 POP PUSH1 0x20 DUP3 LT ISZERO PUSH2 0x8F4 JUMPI PUSH2 0x8EF PUSH32 0xFFFFFFFFFFFFFFFFFFFFFFFFFFFFFFFFFFFFFFFFFFFFFFFFFFFFFFFFFFFFFFFF DUP4 PUSH1 0x20 SUB PUSH1 0x8 MUL PUSH2 0x4BE JUMP JUMPDEST DUP4 AND SWAP3 POP JUMPDEST POP POP SWAP2 SWAP1 POP JUMP JUMPDEST PUSH1 0x80 MLOAD PUSH1 0xA0 MLOAD PUSH1 0xC0 MLOAD PUSH1 0xE0 MLOAD PUSH2 0x100 MLOAD PUSH2 0x120 MLOAD PUSH2 0x140 MLOAD PUSH2 0x32E1 PUSH2 0x94C PUSH0 CODECOPY PUSH0 PUSH2 0x1AC9 ADD MSTORE PUSH0 PUSH2 0x1A8E ADD MSTORE PUSH0 PUSH2 0x2113 ADD MSTORE PUSH0 PUSH2 0x20F2 ADD MSTORE PUSH0 PUSH2 0x17C3 ADD MSTORE PUSH0 PUSH2 0x1819 ADD MSTORE PUSH0 PUSH2 0x1842 ADD MSTORE PUSH2 0x32E1 PUSH0 RETURN INVALID PUSH1 0x80 PUSH1 0x40 MSTORE PUSH1 0x4 CALLDATASIZE LT PUSH2 0x19B JUMPI PUSH0 CALLDATALOAD PUSH1 0xE0 SHR DUP1 PUSH4 0x715018A6 GT PUSH2 0xEB JUMPI DUP1 PUSH4 0xA5FDC5DE GT PUSH2 0x89 JUMPI DUP1 PUSH4 0xCD60F59F GT PUSH2 0x63 JUMPI DUP1 PUSH4 0xCD60F59F EQ PUSH2 0x5C3 JUMPI DUP1 PUSH4 0xD505ACCF EQ PUSH2 0x5EB JUMPI DUP1 PUSH4 0xDD62ED3E EQ PUSH2 0x613 JUMPI DUP1 PUSH4 0xF2FDE38B EQ PUSH2 0x64F JUMPI PUSH2 0x19B JUMP JUMPDEST DUP1 PUSH4 0xA5FDC5DE EQ PUSH2 0x50F JUMPI DUP1 PUSH4 0xA9059CBB EQ PUSH2 0x54B JUMPI DUP1 PUSH4 0xB6F7132F EQ PUSH2 0x587 JUMPI PUSH2 0x19B JUMP JUMPDEST DUP1 PUSH4 0x84B0196E GT PUSH2 0xC5 JUMPI DUP1 PUSH4 0x84B0196E EQ PUSH2 0x463 JUMPI DUP1 PUSH4 0x8DA5CB5B EQ PUSH2 0x493 JUMPI DUP1 PUSH4 0x95D89B41 EQ PUSH2 0x4BD JUMPI DUP1 PUSH4 0x9DC29FAC EQ PUSH2 0x4E7 JUMPI PUSH2 0x19B JUMP JUMPDEST DUP1 PUSH4 0x715018A6 EQ PUSH2 0x3E9 JUMPI DUP1 PUSH4 0x79CC6790 EQ PUSH2 0x3FF JUMPI DUP1 PUSH4 0x7ECEBE00 EQ PUSH2 0x427 JUMPI PUSH2 0x19B JUMP JUMPDEST DUP1 PUSH4 0x25F5A4A2 GT PUSH2 0x158 JUMPI DUP1 PUSH4 0x3644E515 GT PUSH2 0x132 JUMPI DUP1 PUSH4 0x3644E515 EQ PUSH2 0x31F JUMPI DUP1 PUSH4 0x42966C68 EQ PUSH2 0x349 JUMPI DUP1 PUSH4 0x4763FBD2 EQ PUSH2 0x371 JUMPI DUP1 PUSH4 0x70A08231 EQ PUSH2 0x3AD JUMPI PUSH2 0x19B JUMP JUMPDEST DUP1 PUSH4 0x25F5A4A2 EQ PUSH2 0x2C3 JUMPI DUP1 PUSH4 0x2D968E1A EQ PUSH2 0x2D9 JUMPI DUP1 PUSH4 0x313CE567 EQ PUSH2 0x2F5 JUMPI PUSH2 0x19B JUMP JUMPDEST DUP1 PUSH4 0x6FDDE03 EQ PUSH2 0x19F JUMPI DUP1 PUSH4 0x95EA7B3 EQ PUSH2 0x1C9 JUMPI DUP1 PUSH4 0x18160DDD EQ PUSH2 0x205 JUMPI DUP1 PUSH4 0x1B2EF1CA EQ PUSH2 0x22F JUMPI DUP1 PUSH4 0x1F86956C EQ PUSH2 0x24B JUMPI DUP1 PUSH4 0x23B872DD EQ PUSH2 0x287 JUMPI JUMPDEST PUSH0 DUP1 REVERT JUMPDEST CALLVALUE DUP1 ISZERO PUSH2 0x1AA JUMPI PUSH0 DUP1 REVERT JUMPDEST POP PUSH2 0x1B3 PUSH2 0x677 JUMP JUMPDEST PUSH1 0x40 MLOAD PUSH2 0x1C0 SWAP2 SWAP1 PUSH2 0x25C9 JUMP JUMPDEST PUSH1 0x40 MLOAD DUP1 SWAP2 SUB SWAP1 RETURN JUMPDEST CALLVALUE DUP1 ISZERO PUSH2 0x1D4 JUMPI PUSH0 DUP1 REVERT JUMPDEST POP PUSH2 0x1EF PUSH1 0x4 DUP1 CALLDATASIZE SUB DUP2 ADD SWAP1 PUSH2 0x1EA SWAP2 SWAP1 PUSH2 0x267A JUMP JUMPDEST PUSH2 0x707 JUMP JUMPDEST PUSH1 0x40 MLOAD PUSH2 0x1FC SWAP2 SWAP1 PUSH2 0x26D2 JUMP JUMPDEST PUSH1 0x40 MLOAD DUP1 SWAP2 SUB SWAP1 RETURN JUMPDEST CALLVALUE DUP1 ISZERO PUSH2 0x210 JUMPI PUSH0 DUP1 REVERT JUMPDEST POP PUSH2 0x219 PUSH2 0x729 JUMP JUMPDEST PUSH1 0x40 MLOAD PUSH2 0x226 SWAP2 SWAP1 PUSH2 0x26FA JUMP JUMPDEST PUSH1 0x40 MLOAD DUP1 SWAP2 SUB SWAP1 RETURN JUMPDEST PUSH2 0x249 PUSH1 0x4 DUP1 CALLDATASIZE SUB DUP2 ADD SWAP1 PUSH2 0x244 SWAP2 SWAP1 PUSH2 0x2713 JUMP JUMPDEST PUSH2 0x732 JUMP JUMPDEST STOP JUMPDEST CALLVALUE DUP1 ISZERO PUSH2 0x256 JUMPI PUSH0 DUP1 REVERT JUMPDEST POP PUSH2 0x271 PUSH1 0x4 DUP1 CALLDATASIZE SUB DUP2 ADD SWAP1 PUSH2 0x26C SWAP2 SWAP1 PUSH2 0x2751 JUMP JUMPDEST PUSH2 0x9D7 JUMP JUMPDEST PUSH1 0x40 MLOAD PUSH2 0x27E SWAP2 SWAP1 PUSH2 0x26FA JUMP JUMPDEST PUSH1 0x40 MLOAD DUP1 SWAP2 SUB SWAP1 RETURN JUMPDEST CALLVALUE DUP1 ISZERO PUSH2 0x292 JUMPI PUSH0 DUP1 REVERT JUMPDEST POP PUSH2 0x2AD PUSH1 0x4 DUP1 CALLDATASIZE SUB DUP2 ADD SWAP1 PUSH2 0x2A8 SWAP2 SWAP1 PUSH2 0x277C JUMP JUMPDEST PUSH2 0x9EC JUMP JUMPDEST PUSH1 0x40 MLOAD PUSH2 0x2BA SWAP2 SWAP1 PUSH2 0x26D2 JUMP JUMPDEST PUSH1 0x40 MLOAD DUP1 SWAP2 SUB SWAP1 RETURN JUMPDEST CALLVALUE DUP1 ISZERO PUSH2 0x2CE JUMPI PUSH0 DUP1 REVERT JUMPDEST POP PUSH2 0x2D7 PUSH2 0xA1A JUMP JUMPDEST STOP JUMPDEST PUSH2 0x2F3 PUSH1 0x4 DUP1 CALLDATASIZE SUB DUP2 ADD SWAP1 PUSH2 0x2EE SWAP2 SWAP1 PUSH2 0x27CC JUMP JUMPDEST PUSH2 0xB82 JUMP JUMPDEST STOP JUMPDEST CALLVALUE DUP1 ISZERO PUSH2 0x300 JUMPI PUSH0 DUP1 REVERT JUMPDEST POP PUSH2 0x309 PUSH2 0xDD6 JUMP JUMPDEST PUSH1 0x40 MLOAD PUSH2 0x316 SWAP2 SWAP1 PUSH2 0x2812 JUMP JUMPDEST PUSH1 0x40 MLOAD DUP1 SWAP2 SUB SWAP1 RETURN JUMPDEST CALLVALUE DUP1 ISZERO PUSH2 0x32A JUMPI PUSH0 DUP1 REVERT JUMPDEST POP PUSH2 0x333 PUSH2 0xDDE JUMP JUMPDEST PUSH1 0x40 MLOAD PUSH2 0x340 SWAP2 SWAP1 PUSH2 0x2843 JUMP JUMPDEST PUSH1 0x40 MLOAD DUP1 SWAP2 SUB SWAP1 RETURN JUMPDEST CALLVALUE DUP1 ISZERO PUSH2 0x354 JUMPI PUSH0 DUP1 REVERT JUMPDEST POP PUSH2 0x36F PUSH1 0x4 DUP1 CALLDATASIZE SUB DUP2 ADD SWAP1 PUSH2 0x36A SWAP2 SWAP1 PUSH2 0x27CC JUMP JUMPDEST PUSH2 0xDEC JUMP JUMPDEST STOP JUMPDEST CALLVALUE DUP1 ISZERO PUSH2 0x37C JUMPI PUSH0 DUP1 REVERT JUMPDEST POP PUSH2 0x397 PUSH1 0x4 DUP1 CALLDATASIZE SUB DUP2 ADD SWAP1 PUSH2 0x392 SWAP2 SWAP1 PUSH2 0x2751 JUMP JUMPDEST PUSH2 0xE00 JUMP JUMPDEST PUSH1 0x40 MLOAD PUSH2 0x3A4 SWAP2 SWAP1 PUSH2 0x26FA JUMP JUMPDEST PUSH1 0x40 MLOAD DUP1 SWAP2 SUB SWAP1 RETURN JUMPDEST CALLVALUE DUP1 ISZERO PUSH2 0x3B8 JUMPI PUSH0 DUP1 REVERT JUMPDEST POP PUSH2 0x3D3 PUSH1 0x4 DUP1 CALLDATASIZE SUB DUP2 ADD SWAP1 PUSH2 0x3CE SWAP2 SWAP1 PUSH2 0x2751 JUMP JUMPDEST PUSH2 0xE46 JUMP JUMPDEST PUSH1 0x40 MLOAD PUSH2 0x3E0 SWAP2 SWAP1 PUSH2 0x26FA JUMP JUMPDEST PUSH1 0x40 MLOAD DUP1 SWAP2 SUB SWAP1 RETURN JUMPDEST CALLVALUE DUP1 ISZERO PUSH2 0x3F4 JUMPI PUSH0 DUP1 REVERT JUMPDEST POP PUSH2 0x3FD PUSH2 0xE8B JUMP JUMPDEST STOP JUMPDEST CALLVALUE DUP1 ISZERO PUSH2 0x40A JUMPI PUSH0 DUP1 REVERT JUMPDEST POP PUSH2 0x425 PUSH1 0x4 DUP1 CALLDATASIZE SUB DUP2 ADD SWAP1 PUSH2 0x420 SWAP2 SWAP1 PUSH2 0x267A JUMP JUMPDEST PUSH2 0xE9E JUMP JUMPDEST STOP JUMPDEST CALLVALUE DUP1 ISZERO PUSH2 0x432 JUMPI PUSH0 DUP1 REVERT JUMPDEST POP PUSH2 0x44D PUSH1 0x4 DUP1 CALLDATASIZE SUB DUP2 ADD SWAP1 PUSH2 0x448 SWAP2 SWAP1 PUSH2 0x2751 JUMP JUMPDEST PUSH2 0xEBE JUMP JUMPDEST PUSH1 0x40 MLOAD PUSH2 0x45A SWAP2 SWAP1 PUSH2 0x26FA JUMP JUMPDEST PUSH1 0x40 MLOAD DUP1 SWAP2 SUB SWAP1 RETURN JUMPDEST CALLVALUE DUP1 ISZERO PUSH2 0x46E JUMPI PUSH0 DUP1 REVERT JUMPDEST POP PUSH2 0x477 PUSH2 0xECF JUMP JUMPDEST PUSH1 0x40 MLOAD PUSH2 0x48A SWAP8 SWAP7 SWAP6 SWAP5 SWAP4 SWAP3 SWAP2 SWAP1 PUSH2 0x295C JUMP JUMPDEST PUSH1 0x40 MLOAD DUP1 SWAP2 SUB SWAP1 RETURN JUMPDEST CALLVALUE DUP1 ISZERO PUSH2 0x49E JUMPI PUSH0 DUP1 REVERT JUMPDEST POP PUSH2 0x4A7 PUSH2 0xF74 JUMP JUMPDEST PUSH1 0x40 MLOAD PUSH2 0x4B4 SWAP2 SWAP1 PUSH2 0x29DE JUMP JUMPDEST PUSH1 0x40 MLOAD DUP1 SWAP2 SUB SWAP1 RETURN JUMPDEST CALLVALUE DUP1 ISZERO PUSH2 0x4C8 JUMPI PUSH0 DUP1 REVERT JUMPDEST POP PUSH2 0x4D1 PUSH2 0xF9C JUMP JUMPDEST PUSH1 0x40 MLOAD PUSH2 0x4DE SWAP2 SWAP1 PUSH2 0x25C9 JUMP JUMPDEST PUSH1 0x40 MLOAD DUP1 SWAP2 SUB SWAP1 RETURN JUMPDEST CALLVALUE DUP1 ISZERO PUSH2 0x4F2 JUMPI PUSH0 DUP1 REVERT JUMPDEST POP PUSH2 0x50D PUSH1 0x4 DUP1 CALLDATASIZE SUB DUP2 ADD SWAP1 PUSH2 0x508 SWAP2 SWAP1 PUSH2 0x267A JUMP JUMPDEST PUSH2 0x102C JUMP JUMPDEST STOP JUMPDEST CALLVALUE DUP1 ISZERO PUSH2 0x51A JUMPI PUSH0 DUP1 REVERT JUMPDEST POP PUSH2 0x535 PUSH1 0x4 DUP1 CALLDATASIZE SUB DUP2 ADD SWAP1 PUSH2 0x530 SWAP2 SWAP1 PUSH2 0x2751 JUMP JUMPDEST PUSH2 0x10F8 JUMP JUMPDEST PUSH1 0x40 MLOAD PUSH2 0x542 SWAP2 SWAP1 PUSH2 0x26FA JUMP JUMPDEST PUSH1 0x40 MLOAD DUP1 SWAP2 SUB SWAP1 RETURN JUMPDEST CALLVALUE DUP1 ISZERO PUSH2 0x556 JUMPI PUSH0 DUP1 REVERT JUMPDEST POP PUSH2 0x571 PUSH1 0x4 DUP1 CALLDATASIZE SUB DUP2 ADD SWAP1 PUSH2 0x56C SWAP2 SWAP1 PUSH2 0x267A JUMP JUMPDEST PUSH2 0x110D JUMP JUMPDEST PUSH1 0x40 MLOAD PUSH2 0x57E SWAP2 SWAP1 PUSH2 0x26D2 JUMP JUMPDEST PUSH1 0x40 MLOAD DUP1 SWAP2 SUB SWAP1 RETURN JUMPDEST CALLVALUE DUP1 ISZERO PUSH2 0x592 JUMPI PUSH0 DUP1 REVERT JUMPDEST POP PUSH2 0x5AD PUSH1 0x4 DUP1 CALLDATASIZE SUB DUP2 ADD SWAP1 PUSH2 0x5A8 SWAP2 SWAP1 PUSH2 0x2751 JUMP JUMPDEST PUSH2 0x112F JUMP JUMPDEST PUSH1 0x40 MLOAD PUSH2 0x5BA SWAP2 SWAP1 PUSH2 0x26FA JUMP JUMPDEST PUSH1 0x40 MLOAD DUP1 SWAP2 SUB SWAP1 RETURN JUMPDEST CALLVALUE DUP1 ISZERO PUSH2 0x5CE JUMPI PUSH0 DUP1 REVERT JUMPDEST POP PUSH2 0x5E9 PUSH1 0x4 DUP1 CALLDATASIZE SUB DUP2 ADD SWAP1 PUSH2 0x5E4 SWAP2 SWAP1 PUSH2 0x277C JUMP JUMPDEST PUSH2 0x1175 JUMP JUMPDEST STOP JUMPDEST CALLVALUE DUP1 ISZERO PUSH2 0x5F6 JUMPI PUSH0 DUP1 REVERT JUMPDEST POP PUSH2 0x611 PUSH1 0x4 DUP1 CALLDATASIZE SUB DUP2 ADD SWAP1 PUSH2 0x60C SWAP2 SWAP1 PUSH2 0x2A4B JUMP JUMPDEST PUSH2 0x1291 JUMP JUMPDEST STOP JUMPDEST CALLVALUE DUP1 ISZERO PUSH2 0x61E JUMPI PUSH0 DUP1 REVERT JUMPDEST POP PUSH2 0x639 PUSH1 0x4 DUP1 CALLDATASIZE SUB DUP2 ADD SWAP1 PUSH2 0x634 SWAP2 SWAP1 PUSH2 0x2AE8 JUMP JUMPDEST PUSH2 0x13D6 JUMP JUMPDEST PUSH1 0x40 MLOAD PUSH2 0x646 SWAP2 SWAP1 PUSH2 0x26FA JUMP JUMPDEST PUSH1 0x40 MLOAD DUP1 SWAP2 SUB SWAP1 RETURN JUMPDEST CALLVALUE DUP1 ISZERO PUSH2 0x65A JUMPI PUSH0 DUP1 REVERT JUMPDEST POP PUSH2 0x675 PUSH1 0x4 DUP1 CALLDATASIZE SUB DUP2 ADD SWAP1 PUSH2 0x670 SWAP2 SWAP1 PUSH2 0x2751 JUMP JUMPDEST PUSH2 0x1458 JUMP JUMPDEST STOP JUMPDEST PUSH1 0x60 PUSH1 0x3 DUP1 SLOAD PUSH2 0x686 SWAP1 PUSH2 0x2B53 JUMP JUMPDEST DUP1 PUSH1 0x1F ADD PUSH1 0x20 DUP1 SWAP2 DIV MUL PUSH1 0x20 ADD PUSH1 0x40 MLOAD SWAP1 DUP2 ADD PUSH1 0x40 MSTORE DUP1 SWAP3 SWAP2 SWAP1 DUP2 DUP2 MSTORE PUSH1 0x20 ADD DUP3 DUP1 SLOAD PUSH2 0x6B2 SWAP1 PUSH2 0x2B53 JUMP JUMPDEST DUP1 ISZERO PUSH2 0x6FD JUMPI DUP1 PUSH1 0x1F LT PUSH2 0x6D4 JUMPI PUSH2 0x100 DUP1 DUP4 SLOAD DIV MUL DUP4 MSTORE SWAP2 PUSH1 0x20 ADD SWAP2 PUSH2 0x6FD JUMP JUMPDEST DUP3 ADD SWAP2 SWAP1 PUSH0 MSTORE PUSH1 0x20 PUSH0 KECCAK256 SWAP1 JUMPDEST DUP2 SLOAD DUP2 MSTORE SWAP1 PUSH1 0x1 ADD SWAP1 PUSH1 0x20 ADD DUP1 DUP4 GT PUSH2 0x6E0 JUMPI DUP3 SWAP1 SUB PUSH1 0x1F AND DUP3 ADD SWAP2 JUMPDEST POP POP POP POP POP SWAP1 POP SWAP1 JUMP JUMPDEST PUSH0 DUP1 PUSH2 0x711 PUSH2 0x14DC JUMP JUMPDEST SWAP1 POP PUSH2 0x71E DUP2 DUP6 DUP6 PUSH2 0x14E3 JUMP JUMPDEST PUSH1 0x1 SWAP2 POP POP SWAP3 SWAP2 POP POP JUMP JUMPDEST PUSH0 PUSH1 0x2 SLOAD SWAP1 POP SWAP1 JUMP JUMPDEST PUSH0 PUSH1 0xA PUSH0 CALLER PUSH20 0xFFFFFFFFFFFFFFFFFFFFFFFFFFFFFFFFFFFFFFFF AND PUSH20 0xFFFFFFFFFFFFFFFFFFFFFFFFFFFFFFFFFFFFFFFF AND DUP2 MSTORE PUSH1 0x20 ADD SWAP1 DUP2 MSTORE PUSH1 0x20 ADD PUSH0 KECCAK256 SLOAD EQ PUSH2 0x7B1 JUMPI PUSH1 0x40 MLOAD PUSH32 0x8C379A000000000000000000000000000000000000000000000000000000000 DUP2 MSTORE PUSH1 0x4 ADD PUSH2 0x7A8 SWAP1 PUSH2 0x2BF3 JUMP JUMPDEST PUSH1 0x40 MLOAD DUP1 SWAP2 SUB SWAP1 REVERT JUMPDEST PUSH0 DUP2 DUP4 PUSH2 0x7BE SWAP2 SWAP1 PUSH2 0x2C3E JUMP JUMPDEST SWAP1 POP DUP1 CALLVALUE LT ISZERO PUSH2 0x7CD DUP3 PUSH2 0x14F5 JUMP JUMPDEST PUSH2 0x7D6 CALLVALUE PUSH2 0x14F5 JUMP JUMPDEST PUSH1 0x40 MLOAD PUSH1 0x20 ADD PUSH2 0x7E7 SWAP3 SWAP2 SWAP1 PUSH2 0x2DBD JUMP JUMPDEST PUSH1 0x40 MLOAD PUSH1 0x20 DUP2 DUP4 SUB SUB DUP2 MSTORE SWAP1 PUSH1 0x40 MSTORE SWAP1 PUSH2 0x837 JUMPI PUSH1 0x40 MLOAD PUSH32 0x8C379A000000000000000000000000000000000000000000000000000000000 DUP2 MSTORE PUSH1 0x4 ADD PUSH2 0x82E SWAP2 SWAP1 PUSH2 0x25C9 JUMP JUMPDEST PUSH1 0x40 MLOAD DUP1 SWAP2 SUB SWAP1 REVERT JUMPDEST POP PUSH0 DUP2 CALLVALUE PUSH2 0x845 SWAP2 SWAP1 PUSH2 0x2E01 JUMP JUMPDEST SWAP1 POP PUSH0 DUP2 GT ISZERO PUSH2 0x8E2 JUMPI CALLER PUSH20 0xFFFFFFFFFFFFFFFFFFFFFFFFFFFFFFFFFFFFFFFF AND PUSH2 0x8FC DUP3 SWAP1 DUP2 ISZERO MUL SWAP1 PUSH1 0x40 MLOAD PUSH0 PUSH1 0x40 MLOAD DUP1 DUP4 SUB DUP2 DUP6 DUP9 DUP9 CALL SWAP4 POP POP POP POP ISZERO DUP1 ISZERO PUSH2 0x892 JUMPI RETURNDATASIZE PUSH0 DUP1 RETURNDATACOPY RETURNDATASIZE PUSH0 REVERT JUMPDEST POP CALLER PUSH20 0xFFFFFFFFFFFFFFFFFFFFFFFFFFFFFFFFFFFFFFFF AND PUSH32 0x5B04A20647D5E66C17CB0451B11E553BE5E09F9552D25B9F27D9B0C615C0B3D7 DUP3 PUSH1 0x40 MLOAD PUSH2 0x8D9 SWAP2 SWAP1 PUSH2 0x26FA JUMP JUMPDEST PUSH1 0x40 MLOAD DUP1 SWAP2 SUB SWAP1 LOG2 JUMPDEST PUSH2 0x8EC CALLER DUP6 PUSH2 0x15BF JUMP JUMPDEST DUP2 PUSH1 0xA PUSH0 CALLER PUSH20 0xFFFFFFFFFFFFFFFFFFFFFFFFFFFFFFFFFFFFFFFF AND PUSH20 0xFFFFFFFFFFFFFFFFFFFFFFFFFFFFFFFFFFFFFFFF AND DUP2 MSTORE PUSH1 0x20 ADD SWAP1 DUP2 MSTORE PUSH1 0x20 ADD PUSH0 KECCAK256 PUSH0 DUP3 DUP3 SLOAD PUSH2 0x938 SWAP2 SWAP1 PUSH2 0x2E34 JUMP JUMPDEST SWAP3 POP POP DUP2 SWAP1 SSTORE POP DUP3 PUSH1 0xB PUSH0 CALLER PUSH20 0xFFFFFFFFFFFFFFFFFFFFFFFFFFFFFFFFFFFFFFFF AND PUSH20 0xFFFFFFFFFFFFFFFFFFFFFFFFFFFFFFFFFFFFFFFF AND DUP2 MSTORE PUSH1 0x20 ADD SWAP1 DUP2 MSTORE PUSH1 0x20 ADD PUSH0 KECCAK256 DUP2 SWAP1 SSTORE POP CALLER PUSH20 0xFFFFFFFFFFFFFFFFFFFFFFFFFFFFFFFFFFFFFFFF AND PUSH32 0x4C209B5FC8AD50758F13E2E1088BA56A560DFF690A1C6FEF26394F4C03821C4F DUP6 DUP5 PUSH1 0x40 MLOAD PUSH2 0x9C9 SWAP3 SWAP2 SWAP1 PUSH2 0x2E67 JUMP JUMPDEST PUSH1 0x40 MLOAD DUP1 SWAP2 SUB SWAP1 LOG2 POP POP POP POP JUMP JUMPDEST PUSH1 0xB PUSH1 0x20 MSTORE DUP1 PUSH0 MSTORE PUSH1 0x40 PUSH0 KECCAK256 PUSH0 SWAP2 POP SWAP1 POP SLOAD DUP2 JUMP JUMPDEST PUSH0 DUP1 PUSH2 0x9F6 PUSH2 0x14DC JUMP JUMPDEST SWAP1 POP PUSH2 0xA03 DUP6 DUP3 DUP6 PUSH2 0x163E JUMP JUMPDEST PUSH2 0xA0E DUP6 DUP6 DUP6 PUSH2 0x16D0 JUMP JUMPDEST PUSH1 0x1 SWAP2 POP POP SWAP4 SWAP3 POP POP POP JUMP JUMPDEST PUSH0 PUSH1 0xA PUSH0 CALLER PUSH20 0xFFFFFFFFFFFFFFFFFFFFFFFFFFFFFFFFFFFFFFFF AND PUSH20 0xFFFFFFFFFFFFFFFFFFFFFFFFFFFFFFFFFFFFFFFF AND DUP2 MSTORE PUSH1 0x20 ADD SWAP1 DUP2 MSTORE PUSH1 0x20 ADD PUSH0 KECCAK256 SLOAD GT PUSH2 0xA99 JUMPI PUSH1 0x40 MLOAD PUSH32 0x8C379A000000000000000000000000000000000000000000000000000000000 DUP2 MSTORE PUSH1 0x4 ADD PUSH2 0xA90 SWAP1 PUSH2 0x2EFE JUMP JUMPDEST PUSH1 0x40 MLOAD DUP1 SWAP2 SUB SWAP1 REVERT JUMPDEST PUSH1 0xA PUSH0 CALLER PUSH20 0xFFFFFFFFFFFFFFFFFFFFFFFFFFFFFFFFFFFFFFFF AND PUSH20 0xFFFFFFFFFFFFFFFFFFFFFFFFFFFFFFFFFFFFFFFF AND DUP2 MSTORE PUSH1 0x20 ADD SWAP1 DUP2 MSTORE PUSH1 0x20 ADD PUSH0 KECCAK256 SLOAD PUSH1 0x9 DUP2 SWAP1 SSTORE POP PUSH0 PUSH1 0xB PUSH0 CALLER PUSH20 0xFFFFFFFFFFFFFFFFFFFFFFFFFFFFFFFFFFFFFFFF AND PUSH20 0xFFFFFFFFFFFFFFFFFFFFFFFFFFFFFFFFFFFFFFFF AND DUP2 MSTORE PUSH1 0x20 ADD SWAP1 DUP2 MSTORE PUSH1 0x20 ADD PUSH0 KECCAK256 SLOAD SWAP1 POP PUSH0 PUSH2 0xB28 CALLER PUSH2 0xE46 JUMP JUMPDEST SWAP1 POP CALLER PUSH20 0xFFFFFFFFFFFFFFFFFFFFFFFFFFFFFFFFFFFFFFFF AND PUSH32 0x7AEBACDE2D071F5BE831EEBAFE50C943E4FED4053C317AF2F8E2A0CD9AA0543 DUP3 PUSH1 0x9 SLOAD DUP6 PUSH1 0x40 MLOAD PUSH2 0xB76 SWAP4 SWAP3 SWAP2 SWAP1 PUSH2 0x2F1C JUMP JUMPDEST PUSH1 0x40 MLOAD DUP1 SWAP2 SUB SWAP1 LOG2 POP POP JUMP JUMPDEST PUSH0 PUSH1 0xA PUSH0 CALLER PUSH20 0xFFFFFFFFFFFFFFFFFFFFFFFFFFFFFFFFFFFFFFFF AND PUSH20 0xFFFFFFFFFFFFFFFFFFFFFFFFFFFFFFFFFFFFFFFF AND DUP2 MSTORE PUSH1 0x20 ADD SWAP1 DUP2 MSTORE PUSH1 0x20 ADD PUSH0 KECCAK256 SLOAD GT PUSH2 0xC01 JUMPI PUSH1 0x40 MLOAD PUSH32 0x8C379A000000000000000000000000000000000000000000000000000000000 DUP2 MSTORE PUSH1 0x4 ADD PUSH2 0xBF8 SWAP1 PUSH2 0x2EFE JUMP JUMPDEST PUSH1 0x40 MLOAD DUP1 SWAP2 SUB SWAP1 REVERT JUMPDEST PUSH0 PUSH1 0xB PUSH0 CALLER PUSH20 0xFFFFFFFFFFFFFFFFFFFFFFFFFFFFFFFFFFFFFFFF AND PUSH20 0xFFFFFFFFFFFFFFFFFFFFFFFFFFFFFFFFFFFFFFFF AND DUP2 MSTORE PUSH1 0x20 ADD SWAP1 DUP2 MSTORE PUSH1 0x20 ADD PUSH0 KECCAK256 SLOAD SWAP1 POP PUSH0 DUP2 DUP4 PUSH2 0xC4F SWAP2 SWAP1 PUSH2 0x2C3E JUMP JUMPDEST SWAP1 POP DUP1 CALLVALUE LT ISZERO PUSH2 0xC5E DUP3 PUSH2 0x14F5 JUMP JUMPDEST PUSH2 0xC67 CALLVALUE PUSH2 0x14F5 JUMP JUMPDEST PUSH1 0x40 MLOAD PUSH1 0x20 ADD PUSH2 0xC78 SWAP3 SWAP2 SWAP1 PUSH2 0x2DBD JUMP JUMPDEST PUSH1 0x40 MLOAD PUSH1 0x20 DUP2 DUP4 SUB SUB DUP2 MSTORE SWAP1 PUSH1 0x40 MSTORE SWAP1 PUSH2 0xCC8 JUMPI PUSH1 0x40 MLOAD PUSH32 0x8C379A000000000000000000000000000000000000000000000000000000000 DUP2 MSTORE PUSH1 0x4 ADD PUSH2 0xCBF SWAP2 SWAP1 PUSH2 0x25C9 JUMP JUMPDEST PUSH1 0x40 MLOAD DUP1 SWAP2 SUB SWAP1 REVERT JUMPDEST POP PUSH0 DUP2 CALLVALUE PUSH2 0xCD6 SWAP2 SWAP1 PUSH2 0x2E01 JUMP JUMPDEST SWAP1 POP PUSH0 DUP2 GT ISZERO PUSH2 0xD73 JUMPI CALLER PUSH20 0xFFFFFFFFFFFFFFFFFFFFFFFFFFFFFFFFFFFFFFFF AND PUSH2 0x8FC DUP3 SWAP1 DUP2 ISZERO MUL SWAP1 PUSH1 0x40 MLOAD PUSH0 PUSH1 0x40 MLOAD DUP1 DUP4 SUB DUP2 DUP6 DUP9 DUP9 CALL SWAP4 POP POP POP POP ISZERO DUP1 ISZERO PUSH2 0xD23 JUMPI RETURNDATASIZE PUSH0 DUP1 RETURNDATACOPY RETURNDATASIZE PUSH0 REVERT JUMPDEST POP CALLER PUSH20 0xFFFFFFFFFFFFFFFFFFFFFFFFFFFFFFFFFFFFFFFF AND PUSH32 0x5B04A20647D5E66C17CB0451B11E553BE5E09F9552D25B9F27D9B0C615C0B3D7 DUP3 PUSH1 0x40 MLOAD PUSH2 0xD6A SWAP2 SWAP1 PUSH2 0x26FA JUMP JUMPDEST PUSH1 0x40 MLOAD DUP1 SWAP2 SUB SWAP1 LOG2 JUMPDEST PUSH2 0xD7D CALLER DUP6 PUSH2 0x15BF JUMP JUMPDEST DUP2 PUSH1 0xA PUSH0 CALLER PUSH20 0xFFFFFFFFFFFFFFFFFFFFFFFFFFFFFFFFFFFFFFFF AND PUSH20 0xFFFFFFFFFFFFFFFFFFFFFFFFFFFFFFFFFFFFFFFF AND DUP2 MSTORE PUSH1 0x20 ADD SWAP1 DUP2 MSTORE PUSH1 0x20 ADD PUSH0 KECCAK256 PUSH0 DUP3 DUP3 SLOAD PUSH2 0xDC9 SWAP2 SWAP1 PUSH2 0x2E34 JUMP JUMPDEST SWAP3 POP POP DUP2 SWAP1 SSTORE POP POP POP POP POP JUMP JUMPDEST PUSH0 PUSH1 0x12 SWAP1 POP SWAP1 JUMP JUMPDEST PUSH0 PUSH2 0xDE7 PUSH2 0x17C0 JUMP JUMPDEST SWAP1 POP SWAP1 JUMP JUMPDEST PUSH2 0xDFD PUSH2 0xDF7 PUSH2 0x14DC JUMP JUMPDEST DUP3 PUSH2 0x1876 JUMP JUMPDEST POP JUMP JUMPDEST PUSH0 PUSH1 0xB PUSH0 DUP4 PUSH20 0xFFFFFFFFFFFFFFFFFFFFFFFFFFFFFFFFFFFFFFFF AND PUSH20 0xFFFFFFFFFFFFFFFFFFFFFFFFFFFFFFFFFFFFFFFF AND DUP2 MSTORE PUSH1 0x20 ADD SWAP1 DUP2 MSTORE PUSH1 0x20 ADD PUSH0 KECCAK256 SLOAD SWAP1 POP SWAP2 SWAP1 POP JUMP JUMPDEST PUSH0 DUP1 PUSH0 DUP4 PUSH20 0xFFFFFFFFFFFFFFFFFFFFFFFFFFFFFFFFFFFFFFFF AND PUSH20 0xFFFFFFFFFFFFFFFFFFFFFFFFFFFFFFFFFFFFFFFF AND DUP2 MSTORE PUSH1 0x20 ADD SWAP1 DUP2 MSTORE PUSH1 0x20 ADD PUSH0 KECCAK256 SLOAD SWAP1 POP SWAP2 SWAP1 POP JUMP JUMPDEST PUSH2 0xE93 PUSH2 0x18F5 JUMP JUMPDEST PUSH2 0xE9C PUSH0 PUSH2 0x197C JUMP JUMPDEST JUMP JUMPDEST PUSH2 0xEB0 DUP3 PUSH2 0xEAA PUSH2 0x14DC JUMP JUMPDEST DUP4 PUSH2 0x163E JUMP JUMPDEST PUSH2 0xEBA DUP3 DUP3 PUSH2 0x1876 JUMP JUMPDEST POP POP JUMP JUMPDEST PUSH0 PUSH2 0xEC8 DUP3 PUSH2 0x1A3F JUMP JUMPDEST SWAP1 POP SWAP2 SWAP1 POP JUMP JUMPDEST PUSH0 PUSH1 0x60 DUP1 PUSH0 DUP1 PUSH0 PUSH1 0x60 PUSH2 0xEE0 PUSH2 0x1A85 JUMP JUMPDEST PUSH2 0xEE8 PUSH2 0x1AC0 JUMP JUMPDEST CHAINID ADDRESS PUSH0 DUP1 SHL PUSH0 PUSH8 0xFFFFFFFFFFFFFFFF DUP2 GT ISZERO PUSH2 0xF07 JUMPI PUSH2 0xF06 PUSH2 0x2F51 JUMP JUMPDEST JUMPDEST PUSH1 0x40 MLOAD SWAP1 DUP1 DUP3 MSTORE DUP1 PUSH1 0x20 MUL PUSH1 0x20 ADD DUP3 ADD PUSH1 0x40 MSTORE DUP1 ISZERO PUSH2 0xF35 JUMPI DUP2 PUSH1 0x20 ADD PUSH1 0x20 DUP3 MUL DUP1 CALLDATASIZE DUP4 CALLDATACOPY DUP1 DUP3 ADD SWAP2 POP POP SWAP1 POP JUMPDEST POP PUSH32 0xF00000000000000000000000000000000000000000000000000000000000000 SWAP6 SWAP5 SWAP4 SWAP3 SWAP2 SWAP1 SWAP7 POP SWAP7 POP SWAP7 POP SWAP7 POP SWAP7 POP SWAP7 POP SWAP7 POP SWAP1 SWAP2 SWAP3 SWAP4 SWAP5 SWAP6 SWAP7 JUMP JUMPDEST PUSH0 PUSH1 0x5 PUSH0 SWAP1 SLOAD SWAP1 PUSH2 0x100 EXP SWAP1 DIV PUSH20 0xFFFFFFFFFFFFFFFFFFFFFFFFFFFFFFFFFFFFFFFF AND SWAP1 POP SWAP1 JUMP JUMPDEST PUSH1 0x60 PUSH1 0x4 DUP1 SLOAD PUSH2 0xFAB SWAP1 PUSH2 0x2B53 JUMP JUMPDEST DUP1 PUSH1 0x1F ADD PUSH1 0x20 DUP1 SWAP2 DIV MUL PUSH1 0x20 ADD PUSH1 0x40 MLOAD SWAP1 DUP2 ADD PUSH1 0x40 MSTORE DUP1 SWAP3 SWAP2 SWAP1 DUP2 DUP2 MSTORE PUSH1 0x20 ADD DUP3 DUP1 SLOAD PUSH2 0xFD7 SWAP1 PUSH2 0x2B53 JUMP JUMPDEST DUP1 ISZERO PUSH2 0x1022 JUMPI DUP1 PUSH1 0x1F LT PUSH2 0xFF9 JUMPI PUSH2 0x100 DUP1 DUP4 SLOAD DIV MUL DUP4 MSTORE SWAP2 PUSH1 0x20 ADD SWAP2 PUSH2 0x1022 JUMP JUMPDEST DUP3 ADD SWAP2 SWAP1 PUSH0 MSTORE PUSH1 0x20 PUSH0 KECCAK256 SWAP1 JUMPDEST DUP2 SLOAD DUP2 MSTORE SWAP1 PUSH1 0x1 ADD SWAP1 PUSH1 0x20 ADD DUP1 DUP4 GT PUSH2 0x1005 JUMPI DUP3 SWAP1 SUB PUSH1 0x1F AND DUP3 ADD SWAP2 JUMPDEST POP POP POP POP POP SWAP1 POP SWAP1 JUMP JUMPDEST PUSH0 PUSH20 0xFFFFFFFFFFFFFFFFFFFFFFFFFFFFFFFFFFFFFFFF AND DUP3 PUSH20 0xFFFFFFFFFFFFFFFFFFFFFFFFFFFFFFFFFFFFFFFF AND SUB PUSH2 0x109A JUMPI PUSH1 0x40 MLOAD PUSH32 0x8C379A000000000000000000000000000000000000000000000000000000000 DUP2 MSTORE PUSH1 0x4 ADD PUSH2 0x1091 SWAP1 PUSH2 0x2FEE JUMP JUMPDEST PUSH1 0x40 MLOAD DUP1 SWAP2 SUB SWAP1 REVERT JUMPDEST PUSH0 PUSH2 0x10A4 DUP4 PUSH2 0xE46 JUMP JUMPDEST SWAP1 POP DUP2 DUP2 LT ISZERO PUSH2 0x10E9 JUMPI PUSH1 0x40 MLOAD PUSH32 0x8C379A000000000000000000000000000000000000000000000000000000000 DUP2 MSTORE PUSH1 0x4 ADD PUSH2 0x10E0 SWAP1 PUSH2 0x307C JUMP JUMPDEST PUSH1 0x40 MLOAD DUP1 SWAP2 SUB SWAP1 REVERT JUMPDEST PUSH2 0x10F3 DUP4 DUP4 PUSH2 0x1876 JUMP JUMPDEST POP POP POP JUMP JUMPDEST PUSH1 0xA PUSH1 0x20 MSTORE DUP1 PUSH0 MSTORE PUSH1 0x40 PUSH0 KECCAK256 PUSH0 SWAP2 POP SWAP1 POP SLOAD DUP2 JUMP JUMPDEST PUSH0 DUP1 PUSH2 0x1117 PUSH2 0x14DC JUMP JUMPDEST SWAP1 POP PUSH2 0x1124 DUP2 DUP6 DUP6 PUSH2 0x16D0 JUMP JUMPDEST PUSH1 0x1 SWAP2 POP POP SWAP3 SWAP2 POP POP JUMP JUMPDEST PUSH0 PUSH1 0xA PUSH0 DUP4 PUSH20 0xFFFFFFFFFFFFFFFFFFFFFFFFFFFFFFFFFFFFFFFF AND PUSH20 0xFFFFFFFFFFFFFFFFFFFFFFFFFFFFFFFFFFFFFFFF AND DUP2 MSTORE PUSH1 0x20 ADD SWAP1 DUP2 MSTORE PUSH1 0x20 ADD PUSH0 KECCAK256 SLOAD SWAP1 POP SWAP2 SWAP1 POP JUMP JUMPDEST DUP1 PUSH1 0xA PUSH0 DUP6 PUSH20 0xFFFFFFFFFFFFFFFFFFFFFFFFFFFFFFFFFFFFFFFF AND PUSH20 0xFFFFFFFFFFFFFFFFFFFFFFFFFFFFFFFFFFFFFFFF AND DUP2 MSTORE PUSH1 0x20 ADD SWAP1 DUP2 MSTORE PUSH1 0x20 ADD PUSH0 KECCAK256 SLOAD LT ISZERO PUSH2 0x11F5 JUMPI PUSH1 0x40 MLOAD PUSH32 0x8C379A000000000000000000000000000000000000000000000000000000000 DUP2 MSTORE PUSH1 0x4 ADD PUSH2 0x11EC SWAP1 PUSH2 0x30E4 JUMP JUMPDEST PUSH1 0x40 MLOAD DUP1 SWAP2 SUB SWAP1 REVERT JUMPDEST DUP1 PUSH1 0xA PUSH0 DUP6 PUSH20 0xFFFFFFFFFFFFFFFFFFFFFFFFFFFFFFFFFFFFFFFF AND PUSH20 0xFFFFFFFFFFFFFFFFFFFFFFFFFFFFFFFFFFFFFFFF AND DUP2 MSTORE PUSH1 0x20 ADD SWAP1 DUP2 MSTORE PUSH1 0x20 ADD PUSH0 KECCAK256 PUSH0 DUP3 DUP3 SLOAD PUSH2 0x1241 SWAP2 SWAP1 PUSH2 0x2E01 JUMP JUMPDEST SWAP3 POP POP DUP2 SWAP1 SSTORE POP DUP2 PUSH20 0xFFFFFFFFFFFFFFFFFFFFFFFFFFFFFFFFFFFFFFFF AND PUSH2 0x8FC DUP3 SWAP1 DUP2 ISZERO MUL SWAP1 PUSH1 0x40 MLOAD PUSH0 PUSH1 0x40 MLOAD DUP1 DUP4 SUB DUP2 DUP6 DUP9 DUP9 CALL SWAP4 POP POP POP POP ISZERO DUP1 ISZERO PUSH2 0x128B JUMPI RETURNDATASIZE PUSH0 DUP1 RETURNDATACOPY RETURNDATASIZE PUSH0 REVERT JUMPDEST POP POP POP POP JUMP JUMPDEST DUP4 TIMESTAMP GT ISZERO PUSH2 0x12D6 JUMPI DUP4 PUSH1 0x40 MLOAD PUSH32 0x6279130200000000000000000000000000000000000000000000000000000000 DUP2 MSTORE PUSH1 0x4 ADD PUSH2 0x12CD SWAP2 SWAP1 PUSH2 0x26FA JUMP JUMPDEST PUSH1 0x40 MLOAD DUP1 SWAP2 SUB SWAP1 REVERT JUMPDEST PUSH0 PUSH32 0x6E71EDAE12B1B97F4D1F60370FEF10105FA2FAAE0126114A169C64845D6126C9 DUP9 DUP9 DUP9 PUSH2 0x1304 DUP13 PUSH2 0x1AFB JUMP JUMPDEST DUP10 PUSH1 0x40 MLOAD PUSH1 0x20 ADD PUSH2 0x131A SWAP7 SWAP6 SWAP5 SWAP4 SWAP3 SWAP2 SWAP1 PUSH2 0x3102 JUMP JUMPDEST PUSH1 0x40 MLOAD PUSH1 0x20 DUP2 DUP4 SUB SUB DUP2 MSTORE SWAP1 PUSH1 0x40 MSTORE DUP1 MLOAD SWAP1 PUSH1 0x20 ADD KECCAK256 SWAP1 POP PUSH0 PUSH2 0x133C DUP3 PUSH2 0x1B4E JUMP JUMPDEST SWAP1 POP PUSH0 PUSH2 0x134B DUP3 DUP8 DUP8 DUP8 PUSH2 0x1B67 JUMP JUMPDEST SWAP1 POP DUP10 PUSH20 0xFFFFFFFFFFFFFFFFFFFFFFFFFFFFFFFFFFFFFFFF AND DUP2 PUSH20 0xFFFFFFFFFFFFFFFFFFFFFFFFFFFFFFFFFFFFFFFF AND EQ PUSH2 0x13BF JUMPI DUP1 DUP11 PUSH1 0x40 MLOAD PUSH32 0x4B800E4600000000000000000000000000000000000000000000000000000000 DUP2 MSTORE PUSH1 0x4 ADD PUSH2 0x13B6 SWAP3 SWAP2 SWAP1 PUSH2 0x3161 JUMP JUMPDEST PUSH1 0x40 MLOAD DUP1 SWAP2 SUB SWAP1 REVERT JUMPDEST PUSH2 0x13CA DUP11 DUP11 DUP11 PUSH2 0x14E3 JUMP JUMPDEST POP POP POP POP POP POP POP POP POP POP JUMP JUMPDEST PUSH0 PUSH1 0x1 PUSH0 DUP5 PUSH20 0xFFFFFFFFFFFFFFFFFFFFFFFFFFFFFFFFFFFFFFFF AND PUSH20 0xFFFFFFFFFFFFFFFFFFFFFFFFFFFFFFFFFFFFFFFF AND DUP2 MSTORE PUSH1 0x20 ADD SWAP1 DUP2 MSTORE PUSH1 0x20 ADD PUSH0 KECCAK256 PUSH0 DUP4 PUSH20 0xFFFFFFFFFFFFFFFFFFFFFFFFFFFFFFFFFFFFFFFF AND PUSH20 0xFFFFFFFFFFFFFFFFFFFFFFFFFFFFFFFFFFFFFFFF AND DUP2 MSTORE PUSH1 0x20 ADD SWAP1 DUP2 MSTORE PUSH1 0x20 ADD PUSH0 KECCAK256 SLOAD SWAP1 POP SWAP3 SWAP2 POP POP JUMP JUMPDEST PUSH2 0x1460 PUSH2 0x18F5 JUMP JUMPDEST PUSH0 PUSH20 0xFFFFFFFFFFFFFFFFFFFFFFFFFFFFFFFFFFFFFFFF AND DUP2 PUSH20 0xFFFFFFFFFFFFFFFFFFFFFFFFFFFFFFFFFFFFFFFF AND SUB PUSH2 0x14D0 JUMPI PUSH0 PUSH1 0x40 MLOAD PUSH32 0x1E4FBDF700000000000000000000000000000000000000000000000000000000 DUP2 MSTORE PUSH1 0x4 ADD PUSH2 0x14C7 SWAP2 SWAP1 PUSH2 0x29DE JUMP JUMPDEST PUSH1 0x40 MLOAD DUP1 SWAP2 SUB SWAP1 REVERT JUMPDEST PUSH2 0x14D9 DUP2 PUSH2 0x197C JUMP JUMPDEST POP JUMP JUMPDEST PUSH0 CALLER SWAP1 POP SWAP1 JUMP JUMPDEST PUSH2 0x14F0 DUP4 DUP4 DUP4 PUSH1 0x1 PUSH2 0x1B95 JUMP JUMPDEST POP POP POP JUMP JUMPDEST PUSH1 0x60 PUSH0 PUSH1 0x1 PUSH2 0x1503 DUP5 PUSH2 0x1D64 JUMP JUMPDEST ADD SWAP1 POP PUSH0 DUP2 PUSH8 0xFFFFFFFFFFFFFFFF DUP2 GT ISZERO PUSH2 0x1521 JUMPI PUSH2 0x1520 PUSH2 0x2F51 JUMP JUMPDEST JUMPDEST PUSH1 0x40 MLOAD SWAP1 DUP1 DUP3 MSTORE DUP1 PUSH1 0x1F ADD PUSH1 0x1F NOT AND PUSH1 0x20 ADD DUP3 ADD PUSH1 0x40 MSTORE DUP1 ISZERO PUSH2 0x1553 JUMPI DUP2 PUSH1 0x20 ADD PUSH1 0x1 DUP3 MUL DUP1 CALLDATASIZE DUP4 CALLDATACOPY DUP1 DUP3 ADD SWAP2 POP POP SWAP1 POP JUMPDEST POP SWAP1 POP PUSH0 DUP3 PUSH1 0x20 ADD DUP3 ADD SWAP1 POP JUMPDEST PUSH1 0x1 ISZERO PUSH2 0x15B4 JUMPI DUP1 DUP1 PUSH1 0x1 SWAP1 SUB SWAP2 POP POP PUSH32 0x3031323334353637383961626364656600000000000000000000000000000000 PUSH1 0xA DUP7 MOD BYTE DUP2 MSTORE8 PUSH1 0xA DUP6 DUP2 PUSH2 0x15A9 JUMPI PUSH2 0x15A8 PUSH2 0x3188 JUMP JUMPDEST JUMPDEST DIV SWAP5 POP PUSH0 DUP6 SUB PUSH2 0x1560 JUMPI JUMPDEST DUP2 SWAP4 POP POP POP POP SWAP2 SWAP1 POP JUMP JUMPDEST PUSH0 PUSH20 0xFFFFFFFFFFFFFFFFFFFFFFFFFFFFFFFFFFFFFFFF AND DUP3 PUSH20 0xFFFFFFFFFFFFFFFFFFFFFFFFFFFFFFFFFFFFFFFF AND SUB PUSH2 0x162F JUMPI PUSH0 PUSH1 0x40 MLOAD PUSH32 0xEC442F0500000000000000000000000000000000000000000000000000000000 DUP2 MSTORE PUSH1 0x4 ADD PUSH2 0x1626 SWAP2 SWAP1 PUSH2 0x29DE JUMP JUMPDEST PUSH1 0x40 MLOAD DUP1 SWAP2 SUB SWAP1 REVERT JUMPDEST PUSH2 0x163A PUSH0 DUP4 DUP4 PUSH2 0x1EB5 JUMP JUMPDEST POP POP JUMP JUMPDEST PUSH0 PUSH2 0x1649 DUP5 DUP5 PUSH2 0x13D6 JUMP JUMPDEST SWAP1 POP PUSH32 0xFFFFFFFFFFFFFFFFFFFFFFFFFFFFFFFFFFFFFFFFFFFFFFFFFFFFFFFFFFFFFFFF DUP2 EQ PUSH2 0x16CA JUMPI DUP2 DUP2 LT ISZERO PUSH2 0x16BB JUMPI DUP3 DUP2 DUP4 PUSH1 0x40 MLOAD PUSH32 0xFB8F41B200000000000000000000000000000000000000000000000000000000 DUP2 MSTORE PUSH1 0x4 ADD PUSH2 0x16B2 SWAP4 SWAP3 SWAP2 SWAP1 PUSH2 0x31B5 JUMP JUMPDEST PUSH1 0x40 MLOAD DUP1 SWAP2 SUB SWAP1 REVERT JUMPDEST PUSH2 0x16C9 DUP5 DUP5 DUP5 DUP5 SUB PUSH0 PUSH2 0x1B95 JUMP JUMPDEST JUMPDEST POP POP POP POP JUMP JUMPDEST PUSH0 PUSH20 0xFFFFFFFFFFFFFFFFFFFFFFFFFFFFFFFFFFFFFFFF AND DUP4 PUSH20 0xFFFFFFFFFFFFFFFFFFFFFFFFFFFFFFFFFFFFFFFF AND SUB PUSH2 0x1740 JUMPI PUSH0 PUSH1 0x40 MLOAD PUSH32 0x96C6FD1E00000000000000000000000000000000000000000000000000000000 DUP2 MSTORE PUSH1 0x4 ADD PUSH2 0x1737 SWAP2 SWAP1 PUSH2 0x29DE JUMP JUMPDEST PUSH1 0x40 MLOAD DUP1 SWAP2 SUB SWAP1 REVERT JUMPDEST PUSH0 PUSH20 0xFFFFFFFFFFFFFFFFFFFFFFFFFFFFFFFFFFFFFFFF AND DUP3 PUSH20 0xFFFFFFFFFFFFFFFFFFFFFFFFFFFFFFFFFFFFFFFF AND SUB PUSH2 0x17B0 JUMPI PUSH0 PUSH1 0x40 MLOAD PUSH32 0xEC442F0500000000000000000000000000000000000000000000000000000000 DUP2 MSTORE PUSH1 0x4 ADD PUSH2 0x17A7 SWAP2 SWAP1 PUSH2 0x29DE JUMP JUMPDEST PUSH1 0x40 MLOAD DUP1 SWAP2 SUB SWAP1 REVERT JUMPDEST PUSH2 0x17BB DUP4 DUP4 DUP4 PUSH2 0x1EB5 JUMP JUMPDEST POP POP POP JUMP JUMPDEST PUSH0 PUSH32 0x0 PUSH20 0xFFFFFFFFFFFFFFFFFFFFFFFFFFFFFFFFFFFFFFFF AND ADDRESS PUSH20 0xFFFFFFFFFFFFFFFFFFFFFFFFFFFFFFFFFFFFFFFF AND EQ DUP1 ISZERO PUSH2 0x183B JUMPI POP PUSH32 0x0 CHAINID EQ JUMPDEST ISZERO PUSH2 0x1868 JUMPI PUSH32 0x0 SWAP1 POP PUSH2 0x1873 JUMP JUMPDEST PUSH2 0x1870 PUSH2 0x20CE JUMP JUMPDEST SWAP1 POP JUMPDEST SWAP1 JUMP JUMPDEST PUSH0 PUSH20 0xFFFFFFFFFFFFFFFFFFFFFFFFFFFFFFFFFFFFFFFF AND DUP3 PUSH20 0xFFFFFFFFFFFFFFFFFFFFFFFFFFFFFFFFFFFFFFFF AND SUB PUSH2 0x18E6 JUMPI PUSH0 PUSH1 0x40 MLOAD PUSH32 0x96C6FD1E00000000000000000000000000000000000000000000000000000000 DUP2 MSTORE PUSH1 0x4 ADD PUSH2 0x18DD SWAP2 SWAP1 PUSH2 0x29DE JUMP JUMPDEST PUSH1 0x40 MLOAD DUP1 SWAP2 SUB SWAP1 REVERT JUMPDEST PUSH2 0x18F1 DUP3 PUSH0 DUP4 PUSH2 0x1EB5 JUMP JUMPDEST POP POP JUMP JUMPDEST PUSH2 0x18FD PUSH2 0x14DC JUMP JUMPDEST PUSH20 0xFFFFFFFFFFFFFFFFFFFFFFFFFFFFFFFFFFFFFFFF AND PUSH2 0x191B PUSH2 0xF74 JUMP JUMPDEST PUSH20 0xFFFFFFFFFFFFFFFFFFFFFFFFFFFFFFFFFFFFFFFF AND EQ PUSH2 0x197A JUMPI PUSH2 0x193E PUSH2 0x14DC JUMP JUMPDEST PUSH1 0x40 MLOAD PUSH32 0x118CDAA700000000000000000000000000000000000000000000000000000000 DUP2 MSTORE PUSH1 0x4 ADD PUSH2 0x1971 SWAP2 SWAP1 PUSH2 0x29DE JUMP JUMPDEST PUSH1 0x40 MLOAD DUP1 SWAP2 SUB SWAP1 REVERT JUMPDEST JUMP JUMPDEST PUSH0 PUSH1 0x5 PUSH0 SWAP1 SLOAD SWAP1 PUSH2 0x100 EXP SWAP1 DIV PUSH20 0xFFFFFFFFFFFFFFFFFFFFFFFFFFFFFFFFFFFFFFFF AND SWAP1 POP DUP2 PUSH1 0x5 PUSH0 PUSH2 0x100 EXP DUP2 SLOAD DUP2 PUSH20 0xFFFFFFFFFFFFFFFFFFFFFFFFFFFFFFFFFFFFFFFF MUL NOT AND SWAP1 DUP4 PUSH20 0xFFFFFFFFFFFFFFFFFFFFFFFFFFFFFFFFFFFFFFFF AND MUL OR SWAP1 SSTORE POP DUP2 PUSH20 0xFFFFFFFFFFFFFFFFFFFFFFFFFFFFFFFFFFFFFFFF AND DUP2 PUSH20 0xFFFFFFFFFFFFFFFFFFFFFFFFFFFFFFFFFFFFFFFF AND PUSH32 0x8BE0079C531659141344CD1FD0A4F28419497F9722A3DAAFE3B4186F6B6457E0 PUSH1 0x40 MLOAD PUSH1 0x40 MLOAD DUP1 SWAP2 SUB SWAP1 LOG3 POP POP JUMP JUMPDEST PUSH0 PUSH1 0x8 PUSH0 DUP4 PUSH20 0xFFFFFFFFFFFFFFFFFFFFFFFFFFFFFFFFFFFFFFFF AND PUSH20 0xFFFFFFFFFFFFFFFFFFFFFFFFFFFFFFFFFFFFFFFF AND DUP2 MSTORE PUSH1 0x20 ADD SWAP1 DUP2 MSTORE PUSH1 0x20 ADD PUSH0 KECCAK256 SLOAD SWAP1 POP SWAP2 SWAP1 POP JUMP JUMPDEST PUSH1 0x60 PUSH2 0x1ABB PUSH1 0x6 PUSH32 0x0 PUSH2 0x2163 SWAP1 SWAP2 SWAP1 PUSH4 0xFFFFFFFF AND JUMP JUMPDEST SWAP1 POP SWAP1 JUMP JUMPDEST PUSH1 0x60 PUSH2 0x1AF6 PUSH1 0x7 PUSH32 0x0 PUSH2 0x2163 SWAP1 SWAP2 SWAP1 PUSH4 0xFFFFFFFF AND JUMP JUMPDEST SWAP1 POP SWAP1 JUMP JUMPDEST PUSH0 PUSH1 0x8 PUSH0 DUP4 PUSH20 0xFFFFFFFFFFFFFFFFFFFFFFFFFFFFFFFFFFFFFFFF AND PUSH20 0xFFFFFFFFFFFFFFFFFFFFFFFFFFFFFFFFFFFFFFFF AND DUP2 MSTORE PUSH1 0x20 ADD SWAP1 DUP2 MSTORE PUSH1 0x20 ADD PUSH0 KECCAK256 PUSH0 DUP2 SLOAD DUP1 SWAP3 SWAP2 SWAP1 PUSH1 0x1 ADD SWAP2 SWAP1 POP SSTORE SWAP1 POP SWAP2 SWAP1 POP JUMP JUMPDEST PUSH0 PUSH2 0x1B60 PUSH2 0x1B5A PUSH2 0x17C0 JUMP JUMPDEST DUP4 PUSH2 0x2210 JUMP JUMPDEST SWAP1 POP SWAP2 SWAP1 POP JUMP JUMPDEST PUSH0 DUP1 PUSH0 DUP1 PUSH2 0x1B77 DUP9 DUP9 DUP9 DUP9 PUSH2 0x2250 JUMP JUMPDEST SWAP3 POP SWAP3 POP SWAP3 POP PUSH2 0x1B87 DUP3 DUP3 PUSH2 0x2337 JUMP JUMPDEST DUP3 SWAP4 POP POP POP POP SWAP5 SWAP4 POP POP POP POP JUMP JUMPDEST PUSH0 PUSH20 0xFFFFFFFFFFFFFFFFFFFFFFFFFFFFFFFFFFFFFFFF AND DUP5 PUSH20 0xFFFFFFFFFFFFFFFFFFFFFFFFFFFFFFFFFFFFFFFF AND SUB PUSH2 0x1C05 JUMPI PUSH0 PUSH1 0x40 MLOAD PUSH32 0xE602DF0500000000000000000000000000000000000000000000000000000000 DUP2 MSTORE PUSH1 0x4 ADD PUSH2 0x1BFC SWAP2 SWAP1 PUSH2 0x29DE JUMP JUMPDEST PUSH1 0x40 MLOAD DUP1 SWAP2 SUB SWAP1 REVERT JUMPDEST PUSH0 PUSH20 0xFFFFFFFFFFFFFFFFFFFFFFFFFFFFFFFFFFFFFFFF AND DUP4 PUSH20 0xFFFFFFFFFFFFFFFFFFFFFFFFFFFFFFFFFFFFFFFF AND SUB PUSH2 0x1C75 JUMPI PUSH0 PUSH1 0x40 MLOAD PUSH32 0x94280D6200000000000000000000000000000000000000000000000000000000 DUP2 MSTORE PUSH1 0x4 ADD PUSH2 0x1C6C SWAP2 SWAP1 PUSH2 0x29DE JUMP JUMPDEST PUSH1 0x40 MLOAD DUP1 SWAP2 SUB SWAP1 REVERT JUMPDEST DUP2 PUSH1 0x1 PUSH0 DUP7 PUSH20 0xFFFFFFFFFFFFFFFFFFFFFFFFFFFFFFFFFFFFFFFF AND PUSH20 0xFFFFFFFFFFFFFFFFFFFFFFFFFFFFFFFFFFFFFFFF AND DUP2 MSTORE PUSH1 0x20 ADD SWAP1 DUP2 MSTORE PUSH1 0x20 ADD PUSH0 KECCAK256 PUSH0 DUP6 PUSH20 0xFFFFFFFFFFFFFFFFFFFFFFFFFFFFFFFFFFFFFFFF AND PUSH20 0xFFFFFFFFFFFFFFFFFFFFFFFFFFFFFFFFFFFFFFFF AND DUP2 MSTORE PUSH1 0x20 ADD SWAP1 DUP2 MSTORE PUSH1 0x20 ADD PUSH0 KECCAK256 DUP2 SWAP1 SSTORE POP DUP1 ISZERO PUSH2 0x1D5E JUMPI DUP3 PUSH20 0xFFFFFFFFFFFFFFFFFFFFFFFFFFFFFFFFFFFFFFFF AND DUP5 PUSH20 0xFFFFFFFFFFFFFFFFFFFFFFFFFFFFFFFFFFFFFFFF AND PUSH32 0x8C5BE1E5EBEC7D5BD14F71427D1E84F3DD0314C0F7B2291E5B200AC8C7C3B925 DUP5 PUSH1 0x40 MLOAD PUSH2 0x1D55 SWAP2 SWAP1 PUSH2 0x26FA JUMP JUMPDEST PUSH1 0x40 MLOAD DUP1 SWAP2 SUB SWAP1 LOG3 JUMPDEST POP POP POP POP JUMP JUMPDEST PUSH0 DUP1 PUSH0 SWAP1 POP PUSH27 0x184F03E93FF9F4DAA797ED6E38ED64BF6A1F010000000000000000 DUP4 LT PUSH2 0x1DC0 JUMPI PUSH27 0x184F03E93FF9F4DAA797ED6E38ED64BF6A1F010000000000000000 DUP4 DUP2 PUSH2 0x1DB6 JUMPI PUSH2 0x1DB5 PUSH2 0x3188 JUMP JUMPDEST JUMPDEST DIV SWAP3 POP PUSH1 0x40 DUP2 ADD SWAP1 POP JUMPDEST PUSH14 0x4EE2D6D415B85ACEF8100000000 DUP4 LT PUSH2 0x1DFD JUMPI PUSH14 0x4EE2D6D415B85ACEF8100000000 DUP4 DUP2 PUSH2 0x1DF3 JUMPI PUSH2 0x1DF2 PUSH2 0x3188 JUMP JUMPDEST JUMPDEST DIV SWAP3 POP PUSH1 0x20 DUP2 ADD SWAP1 POP JUMPDEST PUSH7 0x2386F26FC10000 DUP4 LT PUSH2 0x1E2C JUMPI PUSH7 0x2386F26FC10000 DUP4 DUP2 PUSH2 0x1E22 JUMPI PUSH2 0x1E21 PUSH2 0x3188 JUMP JUMPDEST JUMPDEST DIV SWAP3 POP PUSH1 0x10 DUP2 ADD SWAP1 POP JUMPDEST PUSH4 0x5F5E100 DUP4 LT PUSH2 0x1E55 JUMPI PUSH4 0x5F5E100 DUP4 DUP2 PUSH2 0x1E4B JUMPI PUSH2 0x1E4A PUSH2 0x3188 JUMP JUMPDEST JUMPDEST DIV SWAP3 POP PUSH1 0x8 DUP2 ADD SWAP1 POP JUMPDEST PUSH2 0x2710 DUP4 LT PUSH2 0x1E7A JUMPI PUSH2 0x2710 DUP4 DUP2 PUSH2 0x1E70 JUMPI PUSH2 0x1E6F PUSH2 0x3188 JUMP JUMPDEST JUMPDEST DIV SWAP3 POP PUSH1 0x4 DUP2 ADD SWAP1 POP JUMPDEST PUSH1 0x64 DUP4 LT PUSH2 0x1E9D JUMPI PUSH1 0x64 DUP4 DUP2 PUSH2 0x1E93 JUMPI PUSH2 0x1E92 PUSH2 0x3188 JUMP JUMPDEST JUMPDEST DIV SWAP3 POP PUSH1 0x2 DUP2 ADD SWAP1 POP JUMPDEST PUSH1 0xA DUP4 LT PUSH2 0x1EAC JUMPI PUSH1 0x1 DUP2 ADD SWAP1 POP JUMPDEST DUP1 SWAP2 POP POP SWAP2 SWAP1 POP JUMP JUMPDEST PUSH0 PUSH20 0xFFFFFFFFFFFFFFFFFFFFFFFFFFFFFFFFFFFFFFFF AND DUP4 PUSH20 0xFFFFFFFFFFFFFFFFFFFFFFFFFFFFFFFFFFFFFFFF AND SUB PUSH2 0x1F05 JUMPI DUP1 PUSH1 0x2 PUSH0 DUP3 DUP3 SLOAD PUSH2 0x1EF9 SWAP2 SWAP1 PUSH2 0x2E34 JUMP JUMPDEST SWAP3 POP POP DUP2 SWAP1 SSTORE POP PUSH2 0x1FD3 JUMP JUMPDEST PUSH0 DUP1 PUSH0 DUP6 PUSH20 0xFFFFFFFFFFFFFFFFFFFFFFFFFFFFFFFFFFFFFFFF AND PUSH20 0xFFFFFFFFFFFFFFFFFFFFFFFFFFFFFFFFFFFFFFFF AND DUP2 MSTORE PUSH1 0x20 ADD SWAP1 DUP2 MSTORE PUSH1 0x20 ADD PUSH0 KECCAK256 SLOAD SWAP1 POP DUP2 DUP2 LT ISZERO PUSH2 0x1F8E JUMPI DUP4 DUP2 DUP4 PUSH1 0x40 MLOAD PUSH32 0xE450D38C00000000000000000000000000000000000000000000000000000000 DUP2 MSTORE PUSH1 0x4 ADD PUSH2 0x1F85 SWAP4 SWAP3 SWAP2 SWAP1 PUSH2 0x31B5 JUMP JUMPDEST PUSH1 0x40 MLOAD DUP1 SWAP2 SUB SWAP1 REVERT JUMPDEST DUP2 DUP2 SUB PUSH0 DUP1 DUP7 PUSH20 0xFFFFFFFFFFFFFFFFFFFFFFFFFFFFFFFFFFFFFFFF AND PUSH20 0xFFFFFFFFFFFFFFFFFFFFFFFFFFFFFFFFFFFFFFFF AND DUP2 MSTORE PUSH1 0x20 ADD SWAP1 DUP2 MSTORE PUSH1 0x20 ADD PUSH0 KECCAK256 DUP2 SWAP1 SSTORE POP POP JUMPDEST PUSH0 PUSH20 0xFFFFFFFFFFFFFFFFFFFFFFFFFFFFFFFFFFFFFFFF AND DUP3 PUSH20 0xFFFFFFFFFFFFFFFFFFFFFFFFFFFFFFFFFFFFFFFF AND SUB PUSH2 0x201A JUMPI DUP1 PUSH1 0x2 PUSH0 DUP3 DUP3 SLOAD SUB SWAP3 POP POP DUP2 SWAP1 SSTORE POP PUSH2 0x2064 JUMP JUMPDEST DUP1 PUSH0 DUP1 DUP5 PUSH20 0xFFFFFFFFFFFFFFFFFFFFFFFFFFFFFFFFFFFFFFFF AND PUSH20 0xFFFFFFFFFFFFFFFFFFFFFFFFFFFFFFFFFFFFFFFF AND DUP2 MSTORE PUSH1 0x20 ADD SWAP1 DUP2 MSTORE PUSH1 0x20 ADD PUSH0 KECCAK256 PUSH0 DUP3 DUP3 SLOAD ADD SWAP3 POP POP DUP2 SWAP1 SSTORE POP JUMPDEST DUP2 PUSH20 0xFFFFFFFFFFFFFFFFFFFFFFFFFFFFFFFFFFFFFFFF AND DUP4 PUSH20 0xFFFFFFFFFFFFFFFFFFFFFFFFFFFFFFFFFFFFFFFF AND PUSH32 0xDDF252AD1BE2C89B69C2B068FC378DAA952BA7F163C4A11628F55A4DF523B3EF DUP4 PUSH1 0x40 MLOAD PUSH2 0x20C1 SWAP2 SWAP1 PUSH2 0x26FA JUMP JUMPDEST PUSH1 0x40 MLOAD DUP1 SWAP2 SUB SWAP1 LOG3 POP POP POP JUMP JUMPDEST PUSH0 PUSH32 0x8B73C3C69BB8FE3D512ECC4CF759CC79239F7B179B0FFACAA9A75D522B39400F PUSH32 0x0 PUSH32 0x0 CHAINID ADDRESS PUSH1 0x40 MLOAD PUSH1 0x20 ADD PUSH2 0x2148 SWAP6 SWAP5 SWAP4 SWAP3 SWAP2 SWAP1 PUSH2 0x31EA JUMP JUMPDEST PUSH1 0x40 MLOAD PUSH1 0x20 DUP2 DUP4 SUB SUB DUP2 MSTORE SWAP1 PUSH1 0x40 MSTORE DUP1 MLOAD SWAP1 PUSH1 0x20 ADD KECCAK256 SWAP1 POP SWAP1 JUMP JUMPDEST PUSH1 0x60 PUSH1 0xFF PUSH0 SHL DUP4 EQ PUSH2 0x217F JUMPI PUSH2 0x2178 DUP4 PUSH2 0x2499 JUMP JUMPDEST SWAP1 POP PUSH2 0x220A JUMP JUMPDEST DUP2 DUP1 SLOAD PUSH2 0x218B SWAP1 PUSH2 0x2B53 JUMP JUMPDEST DUP1 PUSH1 0x1F ADD PUSH1 0x20 DUP1 SWAP2 DIV MUL PUSH1 0x20 ADD PUSH1 0x40 MLOAD SWAP1 DUP2 ADD PUSH1 0x40 MSTORE DUP1 SWAP3 SWAP2 SWAP1 DUP2 DUP2 MSTORE PUSH1 0x20 ADD DUP3 DUP1 SLOAD PUSH2 0x21B7 SWAP1 PUSH2 0x2B53 JUMP JUMPDEST DUP1 ISZERO PUSH2 0x2202 JUMPI DUP1 PUSH1 0x1F LT PUSH2 0x21D9 JUMPI PUSH2 0x100 DUP1 DUP4 SLOAD DIV MUL DUP4 MSTORE SWAP2 PUSH1 0x20 ADD SWAP2 PUSH2 0x2202 JUMP JUMPDEST DUP3 ADD SWAP2 SWAP1 PUSH0 MSTORE PUSH1 0x20 PUSH0 KECCAK256 SWAP1 JUMPDEST DUP2 SLOAD DUP2 MSTORE SWAP1 PUSH1 0x1 ADD SWAP1 PUSH1 0x20 ADD DUP1 DUP4 GT PUSH2 0x21E5 JUMPI DUP3 SWAP1 SUB PUSH1 0x1F AND DUP3 ADD SWAP2 JUMPDEST POP POP POP POP POP SWAP1 POP JUMPDEST SWAP3 SWAP2 POP POP JUMP JUMPDEST PUSH0 PUSH1 0x40 MLOAD PUSH32 0x1901000000000000000000000000000000000000000000000000000000000000 DUP2 MSTORE DUP4 PUSH1 0x2 DUP3 ADD MSTORE DUP3 PUSH1 0x22 DUP3 ADD MSTORE PUSH1 0x42 DUP2 KECCAK256 SWAP2 POP POP SWAP3 SWAP2 POP POP JUMP JUMPDEST PUSH0 DUP1 PUSH0 PUSH32 0x7FFFFFFFFFFFFFFFFFFFFFFFFFFFFFFF5D576E7357A4501DDFE92F46681B20A0 DUP5 PUSH0 SHR GT ISZERO PUSH2 0x228C JUMPI PUSH0 PUSH1 0x3 DUP6 SWAP3 POP SWAP3 POP SWAP3 POP PUSH2 0x232D JUMP JUMPDEST PUSH0 PUSH1 0x1 DUP9 DUP9 DUP9 DUP9 PUSH1 0x40 MLOAD PUSH0 DUP2 MSTORE PUSH1 0x20 ADD PUSH1 0x40 MSTORE PUSH1 0x40 MLOAD PUSH2 0x22AF SWAP5 SWAP4 SWAP3 SWAP2 SWAP1 PUSH2 0x323B JUMP JUMPDEST PUSH1 0x20 PUSH1 0x40 MLOAD PUSH1 0x20 DUP2 SUB SWAP1 DUP1 DUP5 SUB SWAP1 DUP6 GAS STATICCALL ISZERO DUP1 ISZERO PUSH2 0x22CF JUMPI RETURNDATASIZE PUSH0 DUP1 RETURNDATACOPY RETURNDATASIZE PUSH0 REVERT JUMPDEST POP POP POP PUSH1 0x20 PUSH1 0x40 MLOAD SUB MLOAD SWAP1 POP PUSH0 PUSH20 0xFFFFFFFFFFFFFFFFFFFFFFFFFFFFFFFFFFFFFFFF AND DUP2 PUSH20 0xFFFFFFFFFFFFFFFFFFFFFFFFFFFFFFFFFFFFFFFF AND SUB PUSH2 0x2320 JUMPI PUSH0 PUSH1 0x1 PUSH0 DUP1 SHL SWAP4 POP SWAP4 POP SWAP4 POP POP PUSH2 0x232D JUMP JUMPDEST DUP1 PUSH0 DUP1 PUSH0 SHL SWAP4 POP SWAP4 POP SWAP4 POP POP JUMPDEST SWAP5 POP SWAP5 POP SWAP5 SWAP2 POP POP JUMP JUMPDEST PUSH0 PUSH1 0x3 DUP2 GT ISZERO PUSH2 0x234A JUMPI PUSH2 0x2349 PUSH2 0x327E JUMP JUMPDEST JUMPDEST DUP3 PUSH1 0x3 DUP2 GT ISZERO PUSH2 0x235D JUMPI PUSH2 0x235C PUSH2 0x327E JUMP JUMPDEST JUMPDEST SUB ISZERO PUSH2 0x2495 JUMPI PUSH1 0x1 PUSH1 0x3 DUP2 GT ISZERO PUSH2 0x2377 JUMPI PUSH2 0x2376 PUSH2 0x327E JUMP JUMPDEST JUMPDEST DUP3 PUSH1 0x3 DUP2 GT ISZERO PUSH2 0x238A JUMPI PUSH2 0x2389 PUSH2 0x327E JUMP JUMPDEST JUMPDEST SUB PUSH2 0x23C1 JUMPI PUSH1 0x40 MLOAD PUSH32 0xF645EEDF00000000000000000000000000000000000000000000000000000000 DUP2 MSTORE PUSH1 0x4 ADD PUSH1 0x40 MLOAD DUP1 SWAP2 SUB SWAP1 REVERT JUMPDEST PUSH1 0x2 PUSH1 0x3 DUP2 GT ISZERO PUSH2 0x23D5 JUMPI PUSH2 0x23D4 PUSH2 0x327E JUMP JUMPDEST JUMPDEST DUP3 PUSH1 0x3 DUP2 GT ISZERO PUSH2 0x23E8 JUMPI PUSH2 0x23E7 PUSH2 0x327E JUMP JUMPDEST JUMPDEST SUB PUSH2 0x242C JUMPI DUP1 PUSH0 SHR PUSH1 0x40 MLOAD PUSH32 0xFCE698F700000000000000000000000000000000000000000000000000000000 DUP2 MSTORE PUSH1 0x4 ADD PUSH2 0x2423 SWAP2 SWAP1 PUSH2 0x26FA JUMP JUMPDEST PUSH1 0x40 MLOAD DUP1 SWAP2 SUB SWAP1 REVERT JUMPDEST PUSH1 0x3 DUP1 DUP2 GT ISZERO PUSH2 0x243F JUMPI PUSH2 0x243E PUSH2 0x327E JUMP JUMPDEST JUMPDEST DUP3 PUSH1 0x3 DUP2 GT ISZERO PUSH2 0x2452 JUMPI PUSH2 0x2451 PUSH2 0x327E JUMP JUMPDEST JUMPDEST SUB PUSH2 0x2494 JUMPI DUP1 PUSH1 0x40 MLOAD PUSH32 0xD78BCE0C00000000000000000000000000000000000000000000000000000000 DUP2 MSTORE PUSH1 0x4 ADD PUSH2 0x248B SWAP2 SWAP1 PUSH2 0x2843 JUMP JUMPDEST PUSH1 0x40 MLOAD DUP1 SWAP2 SUB SWAP1 REVERT JUMPDEST JUMPDEST POP POP JUMP JUMPDEST PUSH1 0x60 PUSH0 PUSH2 0x24A5 DUP4 PUSH2 0x250B JUMP JUMPDEST SWAP1 POP PUSH0 PUSH1 0x20 PUSH8 0xFFFFFFFFFFFFFFFF DUP2 GT ISZERO PUSH2 0x24C3 JUMPI PUSH2 0x24C2 PUSH2 0x2F51 JUMP JUMPDEST JUMPDEST PUSH1 0x40 MLOAD SWAP1 DUP1 DUP3 MSTORE DUP1 PUSH1 0x1F ADD PUSH1 0x1F NOT AND PUSH1 0x20 ADD DUP3 ADD PUSH1 0x40 MSTORE DUP1 ISZERO PUSH2 0x24F5 JUMPI DUP2 PUSH1 0x20 ADD PUSH1 0x1 DUP3 MUL DUP1 CALLDATASIZE DUP4 CALLDATACOPY DUP1 DUP3 ADD SWAP2 POP POP SWAP1 POP JUMPDEST POP SWAP1 POP DUP2 DUP2 MSTORE DUP4 PUSH1 0x20 DUP3 ADD MSTORE DUP1 SWAP3 POP POP POP SWAP2 SWAP1 POP JUMP JUMPDEST PUSH0 DUP1 PUSH1 0xFF DUP4 PUSH0 SHR AND SWAP1 POP PUSH1 0x1F DUP2 GT ISZERO PUSH2 0x2550 JUMPI PUSH1 0x40 MLOAD PUSH32 0xB3512B0C00000000000000000000000000000000000000000000000000000000 DUP2 MSTORE PUSH1 0x4 ADD PUSH1 0x40 MLOAD DUP1 SWAP2 SUB SWAP1 REVERT JUMPDEST DUP1 SWAP2 POP POP SWAP2 SWAP1 POP JUMP JUMPDEST PUSH0 DUP2 MLOAD SWAP1 POP SWAP2 SWAP1 POP JUMP JUMPDEST PUSH0 DUP3 DUP3 MSTORE PUSH1 0x20 DUP3 ADD SWAP1 POP SWAP3 SWAP2 POP POP JUMP JUMPDEST DUP3 DUP2 DUP4 MCOPY PUSH0 DUP4 DUP4 ADD MSTORE POP POP POP JUMP JUMPDEST PUSH0 PUSH1 0x1F NOT PUSH1 0x1F DUP4 ADD AND SWAP1 POP SWAP2 SWAP1 POP JUMP JUMPDEST PUSH0 PUSH2 0x259B DUP3 PUSH2 0x2559 JUMP JUMPDEST PUSH2 0x25A5 DUP2 DUP6 PUSH2 0x2563 JUMP JUMPDEST SWAP4 POP PUSH2 0x25B5 DUP2 DUP6 PUSH1 0x20 DUP7 ADD PUSH2 0x2573 JUMP JUMPDEST PUSH2 0x25BE DUP2 PUSH2 0x2581 JUMP JUMPDEST DUP5 ADD SWAP2 POP POP SWAP3 SWAP2 POP POP JUMP JUMPDEST PUSH0 PUSH1 0x20 DUP3 ADD SWAP1 POP DUP2 DUP2 SUB PUSH0 DUP4 ADD MSTORE PUSH2 0x25E1 DUP2 DUP5 PUSH2 0x2591 JUMP JUMPDEST SWAP1 POP SWAP3 SWAP2 POP POP JUMP JUMPDEST PUSH0 DUP1 REVERT JUMPDEST PUSH0 PUSH20 0xFFFFFFFFFFFFFFFFFFFFFFFFFFFFFFFFFFFFFFFF DUP3 AND SWAP1 POP SWAP2 SWAP1 POP JUMP JUMPDEST PUSH0 PUSH2 0x2616 DUP3 PUSH2 0x25ED JUMP JUMPDEST SWAP1 POP SWAP2 SWAP1 POP JUMP JUMPDEST PUSH2 0x2626 DUP2 PUSH2 0x260C JUMP JUMPDEST DUP2 EQ PUSH2 0x2630 JUMPI PUSH0 DUP1 REVERT JUMPDEST POP JUMP JUMPDEST PUSH0 DUP2 CALLDATALOAD SWAP1 POP PUSH2 0x2641 DUP2 PUSH2 0x261D JUMP JUMPDEST SWAP3 SWAP2 POP POP JUMP JUMPDEST PUSH0 DUP2 SWAP1 POP SWAP2 SWAP1 POP JUMP JUMPDEST PUSH2 0x2659 DUP2 PUSH2 0x2647 JUMP JUMPDEST DUP2 EQ PUSH2 0x2663 JUMPI PUSH0 DUP1 REVERT JUMPDEST POP JUMP JUMPDEST PUSH0 DUP2 CALLDATALOAD SWAP1 POP PUSH2 0x2674 DUP2 PUSH2 0x2650 JUMP JUMPDEST SWAP3 SWAP2 POP POP JUMP JUMPDEST PUSH0 DUP1 PUSH1 0x40 DUP4 DUP6 SUB SLT ISZERO PUSH2 0x2690 JUMPI PUSH2 0x268F PUSH2 0x25E9 JUMP JUMPDEST JUMPDEST PUSH0 PUSH2 0x269D DUP6 DUP3 DUP7 ADD PUSH2 0x2633 JUMP JUMPDEST SWAP3 POP POP PUSH1 0x20 PUSH2 0x26AE DUP6 DUP3 DUP7 ADD PUSH2 0x2666 JUMP JUMPDEST SWAP2 POP POP SWAP3 POP SWAP3 SWAP1 POP JUMP JUMPDEST PUSH0 DUP2 ISZERO ISZERO SWAP1 POP SWAP2 SWAP1 POP JUMP JUMPDEST PUSH2 0x26CC DUP2 PUSH2 0x26B8 JUMP JUMPDEST DUP3 MSTORE POP POP JUMP JUMPDEST PUSH0 PUSH1 0x20 DUP3 ADD SWAP1 POP PUSH2 0x26E5 PUSH0 DUP4 ADD DUP5 PUSH2 0x26C3 JUMP JUMPDEST SWAP3 SWAP2 POP POP JUMP JUMPDEST PUSH2 0x26F4 DUP2 PUSH2 0x2647 JUMP JUMPDEST DUP3 MSTORE POP POP JUMP JUMPDEST PUSH0 PUSH1 0x20 DUP3 ADD SWAP1 POP PUSH2 0x270D PUSH0 DUP4 ADD DUP5 PUSH2 0x26EB JUMP JUMPDEST SWAP3 SWAP2 POP POP JUMP JUMPDEST PUSH0 DUP1 PUSH1 0x40 DUP4 DUP6 SUB SLT ISZERO PUSH2 0x2729 JUMPI PUSH2 0x2728 PUSH2 0x25E9 JUMP JUMPDEST JUMPDEST PUSH0 PUSH2 0x2736 DUP6 DUP3 DUP7 ADD PUSH2 0x2666 JUMP JUMPDEST SWAP3 POP POP PUSH1 0x20 PUSH2 0x2747 DUP6 DUP3 DUP7 ADD PUSH2 0x2666 JUMP JUMPDEST SWAP2 POP POP SWAP3 POP SWAP3 SWAP1 POP JUMP JUMPDEST PUSH0 PUSH1 0x20 DUP3 DUP5 SUB SLT ISZERO PUSH2 0x2766 JUMPI PUSH2 0x2765 PUSH2 0x25E9 JUMP JUMPDEST JUMPDEST PUSH0 PUSH2 0x2773 DUP5 DUP3 DUP6 ADD PUSH2 0x2633 JUMP JUMPDEST SWAP2 POP POP SWAP3 SWAP2 POP POP JUMP JUMPDEST PUSH0 DUP1 PUSH0 PUSH1 0x60 DUP5 DUP7 SUB SLT ISZERO PUSH2 0x2793 JUMPI PUSH2 0x2792 PUSH2 0x25E9 JUMP JUMPDEST JUMPDEST PUSH0 PUSH2 0x27A0 DUP7 DUP3 DUP8 ADD PUSH2 0x2633 JUMP JUMPDEST SWAP4 POP POP PUSH1 0x20 PUSH2 0x27B1 DUP7 DUP3 DUP8 ADD PUSH2 0x2633 JUMP JUMPDEST SWAP3 POP POP PUSH1 0x40 PUSH2 0x27C2 DUP7 DUP3 DUP8 ADD PUSH2 0x2666 JUMP JUMPDEST SWAP2 POP POP SWAP3 POP SWAP3 POP SWAP3 JUMP JUMPDEST PUSH0 PUSH1 0x20 DUP3 DUP5 SUB SLT ISZERO PUSH2 0x27E1 JUMPI PUSH2 0x27E0 PUSH2 0x25E9 JUMP JUMPDEST JUMPDEST PUSH0 PUSH2 0x27EE DUP5 DUP3 DUP6 ADD PUSH2 0x2666 JUMP JUMPDEST SWAP2 POP POP SWAP3 SWAP2 POP POP JUMP JUMPDEST PUSH0 PUSH1 0xFF DUP3 AND SWAP1 POP SWAP2 SWAP1 POP JUMP JUMPDEST PUSH2 0x280C DUP2 PUSH2 0x27F7 JUMP JUMPDEST DUP3 MSTORE POP POP JUMP JUMPDEST PUSH0 PUSH1 0x20 DUP3 ADD SWAP1 POP PUSH2 0x2825 PUSH0 DUP4 ADD DUP5 PUSH2 0x2803 JUMP JUMPDEST SWAP3 SWAP2 POP POP JUMP JUMPDEST PUSH0 DUP2 SWAP1 POP SWAP2 SWAP1 POP JUMP JUMPDEST PUSH2 0x283D DUP2 PUSH2 0x282B JUMP JUMPDEST DUP3 MSTORE POP POP JUMP JUMPDEST PUSH0 PUSH1 0x20 DUP3 ADD SWAP1 POP PUSH2 0x2856 PUSH0 DUP4 ADD DUP5 PUSH2 0x2834 JUMP JUMPDEST SWAP3 SWAP2 POP POP JUMP JUMPDEST PUSH0 PUSH32 0xFF00000000000000000000000000000000000000000000000000000000000000 DUP3 AND SWAP1 POP SWAP2 SWAP1 POP JUMP JUMPDEST PUSH2 0x2890 DUP2 PUSH2 0x285C JUMP JUMPDEST DUP3 MSTORE POP POP JUMP JUMPDEST PUSH2 0x289F DUP2 PUSH2 0x260C JUMP JUMPDEST DUP3 MSTORE POP POP JUMP JUMPDEST PUSH0 DUP2 MLOAD SWAP1 POP SWAP2 SWAP1 POP JUMP JUMPDEST PUSH0 DUP3 DUP3 MSTORE PUSH1 0x20 DUP3 ADD SWAP1 POP SWAP3 SWAP2 POP POP JUMP JUMPDEST PUSH0 DUP2 SWAP1 POP PUSH1 0x20 DUP3 ADD SWAP1 POP SWAP2 SWAP1 POP JUMP JUMPDEST PUSH2 0x28D7 DUP2 PUSH2 0x2647 JUMP JUMPDEST DUP3 MSTORE POP POP JUMP JUMPDEST PUSH0 PUSH2 0x28E8 DUP4 DUP4 PUSH2 0x28CE JUMP JUMPDEST PUSH1 0x20 DUP4 ADD SWAP1 POP SWAP3 SWAP2 POP POP JUMP JUMPDEST PUSH0 PUSH1 0x20 DUP3 ADD SWAP1 POP SWAP2 SWAP1 POP JUMP JUMPDEST PUSH0 PUSH2 0x290A DUP3 PUSH2 0x28A5 JUMP JUMPDEST PUSH2 0x2914 DUP2 DUP6 PUSH2 0x28AF JUMP JUMPDEST SWAP4 POP PUSH2 0x291F DUP4 PUSH2 0x28BF JUMP JUMPDEST DUP1 PUSH0 JUMPDEST DUP4 DUP2 LT ISZERO PUSH2 0x294F JUMPI DUP2 MLOAD PUSH2 0x2936 DUP9 DUP3 PUSH2 0x28DD JUMP JUMPDEST SWAP8 POP PUSH2 0x2941 DUP4 PUSH2 0x28F4 JUMP JUMPDEST SWAP3 POP POP PUSH1 0x1 DUP2 ADD SWAP1 POP PUSH2 0x2922 JUMP JUMPDEST POP DUP6 SWAP4 POP POP POP POP SWAP3 SWAP2 POP POP JUMP JUMPDEST PUSH0 PUSH1 0xE0 DUP3 ADD SWAP1 POP PUSH2 0x296F PUSH0 DUP4 ADD DUP11 PUSH2 0x2887 JUMP JUMPDEST DUP2 DUP2 SUB PUSH1 0x20 DUP4 ADD MSTORE PUSH2 0x2981 DUP2 DUP10 PUSH2 0x2591 JUMP JUMPDEST SWAP1 POP DUP2 DUP2 SUB PUSH1 0x40 DUP4 ADD MSTORE PUSH2 0x2995 DUP2 DUP9 PUSH2 0x2591 JUMP JUMPDEST SWAP1 POP PUSH2 0x29A4 PUSH1 0x60 DUP4 ADD DUP8 PUSH2 0x26EB JUMP JUMPDEST PUSH2 0x29B1 PUSH1 0x80 DUP4 ADD DUP7 PUSH2 0x2896 JUMP JUMPDEST PUSH2 0x29BE PUSH1 0xA0 DUP4 ADD DUP6 PUSH2 0x2834 JUMP JUMPDEST DUP2 DUP2 SUB PUSH1 0xC0 DUP4 ADD MSTORE PUSH2 0x29D0 DUP2 DUP5 PUSH2 0x2900 JUMP JUMPDEST SWAP1 POP SWAP9 SWAP8 POP POP POP POP POP POP POP POP JUMP JUMPDEST PUSH0 PUSH1 0x20 DUP3 ADD SWAP1 POP PUSH2 0x29F1 PUSH0 DUP4 ADD DUP5 PUSH2 0x2896 JUMP JUMPDEST SWAP3 SWAP2 POP POP JUMP JUMPDEST PUSH2 0x2A00 DUP2 PUSH2 0x27F7 JUMP JUMPDEST DUP2 EQ PUSH2 0x2A0A JUMPI PUSH0 DUP1 REVERT JUMPDEST POP JUMP JUMPDEST PUSH0 DUP2 CALLDATALOAD SWAP1 POP PUSH2 0x2A1B DUP2 PUSH2 0x29F7 JUMP JUMPDEST SWAP3 SWAP2 POP POP JUMP JUMPDEST PUSH2 0x2A2A DUP2 PUSH2 0x282B JUMP JUMPDEST DUP2 EQ PUSH2 0x2A34 JUMPI PUSH0 DUP1 REVERT JUMPDEST POP JUMP JUMPDEST PUSH0 DUP2 CALLDATALOAD SWAP1 POP PUSH2 0x2A45 DUP2 PUSH2 0x2A21 JUMP JUMPDEST SWAP3 SWAP2 POP POP JUMP JUMPDEST PUSH0 DUP1 PUSH0 DUP1 PUSH0 DUP1 PUSH0 PUSH1 0xE0 DUP9 DUP11 SUB SLT ISZERO PUSH2 0x2A66 JUMPI PUSH2 0x2A65 PUSH2 0x25E9 JUMP JUMPDEST JUMPDEST PUSH0 PUSH2 0x2A73 DUP11 DUP3 DUP12 ADD PUSH2 0x2633 JUMP JUMPDEST SWAP8 POP POP PUSH1 0x20 PUSH2 0x2A84 DUP11 DUP3 DUP12 ADD PUSH2 0x2633 JUMP JUMPDEST SWAP7 POP POP PUSH1 0x40 PUSH2 0x2A95 DUP11 DUP3 DUP12 ADD PUSH2 0x2666 JUMP JUMPDEST SWAP6 POP POP PUSH1 0x60 PUSH2 0x2AA6 DUP11 DUP3 DUP12 ADD PUSH2 0x2666 JUMP JUMPDEST SWAP5 POP POP PUSH1 0x80 PUSH2 0x2AB7 DUP11 DUP3 DUP12 ADD PUSH2 0x2A0D JUMP JUMPDEST SWAP4 POP POP PUSH1 0xA0 PUSH2 0x2AC8 DUP11 DUP3 DUP12 ADD PUSH2 0x2A37 JUMP JUMPDEST SWAP3 POP POP PUSH1 0xC0 PUSH2 0x2AD9 DUP11 DUP3 DUP12 ADD PUSH2 0x2A37 JUMP JUMPDEST SWAP2 POP POP SWAP3 SWAP6 SWAP9 SWAP2 SWAP5 SWAP8 POP SWAP3 SWAP6 POP JUMP JUMPDEST PUSH0 DUP1 PUSH1 0x40 DUP4 DUP6 SUB SLT ISZERO PUSH2 0x2AFE JUMPI PUSH2 0x2AFD PUSH2 0x25E9 JUMP JUMPDEST JUMPDEST PUSH0 PUSH2 0x2B0B DUP6 DUP3 DUP7 ADD PUSH2 0x2633 JUMP JUMPDEST SWAP3 POP POP PUSH1 0x20 PUSH2 0x2B1C DUP6 DUP3 DUP7 ADD PUSH2 0x2633 JUMP JUMPDEST SWAP2 POP POP SWAP3 POP SWAP3 SWAP1 POP JUMP JUMPDEST PUSH32 0x4E487B7100000000000000000000000000000000000000000000000000000000 PUSH0 MSTORE PUSH1 0x22 PUSH1 0x4 MSTORE PUSH1 0x24 PUSH0 REVERT JUMPDEST PUSH0 PUSH1 0x2 DUP3 DIV SWAP1 POP PUSH1 0x1 DUP3 AND DUP1 PUSH2 0x2B6A JUMPI PUSH1 0x7F DUP3 AND SWAP2 POP JUMPDEST PUSH1 0x20 DUP3 LT DUP2 SUB PUSH2 0x2B7D JUMPI PUSH2 0x2B7C PUSH2 0x2B26 JUMP JUMPDEST JUMPDEST POP SWAP2 SWAP1 POP JUMP JUMPDEST PUSH32 0x596F75206D757374206E6F742068617665206D696E74656420746F6B656E7320 PUSH0 DUP3 ADD MSTORE PUSH32 0x746F207175657279207468697320696E666F726D6174696F6E00000000000000 PUSH1 0x20 DUP3 ADD MSTORE POP JUMP JUMPDEST PUSH0 PUSH2 0x2BDD PUSH1 0x39 DUP4 PUSH2 0x2563 JUMP JUMPDEST SWAP2 POP PUSH2 0x2BE8 DUP3 PUSH2 0x2B83 JUMP JUMPDEST PUSH1 0x40 DUP3 ADD SWAP1 POP SWAP2 SWAP1 POP JUMP JUMPDEST PUSH0 PUSH1 0x20 DUP3 ADD SWAP1 POP DUP2 DUP2 SUB PUSH0 DUP4 ADD MSTORE PUSH2 0x2C0A DUP2 PUSH2 0x2BD1 JUMP JUMPDEST SWAP1 POP SWAP2 SWAP1 POP JUMP JUMPDEST PUSH32 0x4E487B7100000000000000000000000000000000000000000000000000000000 PUSH0 MSTORE PUSH1 0x11 PUSH1 0x4 MSTORE PUSH1 0x24 PUSH0 REVERT JUMPDEST PUSH0 PUSH2 0x2C48 DUP3 PUSH2 0x2647 JUMP JUMPDEST SWAP2 POP PUSH2 0x2C53 DUP4 PUSH2 0x2647 JUMP JUMPDEST SWAP3 POP DUP3 DUP3 MUL PUSH2 0x2C61 DUP2 PUSH2 0x2647 JUMP JUMPDEST SWAP2 POP DUP3 DUP3 DIV DUP5 EQ DUP4 ISZERO OR PUSH2 0x2C78 JUMPI PUSH2 0x2C77 PUSH2 0x2C11 JUMP JUMPDEST JUMPDEST POP SWAP3 SWAP2 POP POP JUMP JUMPDEST PUSH0 DUP2 SWAP1 POP SWAP3 SWAP2 POP POP JUMP JUMPDEST PUSH32 0x496E73756666696369656E7420636F6C6C61746572616C3A2052657175697265 PUSH0 DUP3 ADD MSTORE PUSH32 0x6420000000000000000000000000000000000000000000000000000000000000 PUSH1 0x20 DUP3 ADD MSTORE POP JUMP JUMPDEST PUSH0 PUSH2 0x2CE3 PUSH1 0x22 DUP4 PUSH2 0x2C7F JUMP JUMPDEST SWAP2 POP PUSH2 0x2CEE DUP3 PUSH2 0x2C89 JUMP JUMPDEST PUSH1 0x22 DUP3 ADD SWAP1 POP SWAP2 SWAP1 POP JUMP JUMPDEST PUSH0 PUSH2 0x2D03 DUP3 PUSH2 0x2559 JUMP JUMPDEST PUSH2 0x2D0D DUP2 DUP6 PUSH2 0x2C7F JUMP JUMPDEST SWAP4 POP PUSH2 0x2D1D DUP2 DUP6 PUSH1 0x20 DUP7 ADD PUSH2 0x2573 JUMP JUMPDEST DUP1 DUP5 ADD SWAP2 POP POP SWAP3 SWAP2 POP POP JUMP JUMPDEST PUSH32 0x207765692C206275742070726F76696465642000000000000000000000000000 PUSH0 DUP3 ADD MSTORE POP JUMP JUMPDEST PUSH0 PUSH2 0x2D5D PUSH1 0x13 DUP4 PUSH2 0x2C7F JUMP JUMPDEST SWAP2 POP PUSH2 0x2D68 DUP3 PUSH2 0x2D29 JUMP JUMPDEST PUSH1 0x13 DUP3 ADD SWAP1 POP SWAP2 SWAP1 POP JUMP JUMPDEST PUSH32 0x207765692E000000000000000000000000000000000000000000000000000000 PUSH0 DUP3 ADD MSTORE POP JUMP JUMPDEST PUSH0 PUSH2 0x2DA7 PUSH1 0x5 DUP4 PUSH2 0x2C7F JUMP JUMPDEST SWAP2 POP PUSH2 0x2DB2 DUP3 PUSH2 0x2D73 JUMP JUMPDEST PUSH1 0x5 DUP3 ADD SWAP1 POP SWAP2 SWAP1 POP JUMP JUMPDEST PUSH0 PUSH2 0x2DC7 DUP3 PUSH2 0x2CD7 JUMP JUMPDEST SWAP2 POP PUSH2 0x2DD3 DUP3 DUP6 PUSH2 0x2CF9 JUMP JUMPDEST SWAP2 POP PUSH2 0x2DDE DUP3 PUSH2 0x2D51 JUMP JUMPDEST SWAP2 POP PUSH2 0x2DEA DUP3 DUP5 PUSH2 0x2CF9 JUMP JUMPDEST SWAP2 POP PUSH2 0x2DF5 DUP3 PUSH2 0x2D9B JUMP JUMPDEST SWAP2 POP DUP2 SWAP1 POP SWAP4 SWAP3 POP POP POP JUMP JUMPDEST PUSH0 PUSH2 0x2E0B DUP3 PUSH2 0x2647 JUMP JUMPDEST SWAP2 POP PUSH2 0x2E16 DUP4 PUSH2 0x2647 JUMP JUMPDEST SWAP3 POP DUP3 DUP3 SUB SWAP1 POP DUP2 DUP2 GT ISZERO PUSH2 0x2E2E JUMPI PUSH2 0x2E2D PUSH2 0x2C11 JUMP JUMPDEST JUMPDEST SWAP3 SWAP2 POP POP JUMP JUMPDEST PUSH0 PUSH2 0x2E3E DUP3 PUSH2 0x2647 JUMP JUMPDEST SWAP2 POP PUSH2 0x2E49 DUP4 PUSH2 0x2647 JUMP JUMPDEST SWAP3 POP DUP3 DUP3 ADD SWAP1 POP DUP1 DUP3 GT ISZERO PUSH2 0x2E61 JUMPI PUSH2 0x2E60 PUSH2 0x2C11 JUMP JUMPDEST JUMPDEST SWAP3 SWAP2 POP POP JUMP JUMPDEST PUSH0 PUSH1 0x40 DUP3 ADD SWAP1 POP PUSH2 0x2E7A PUSH0 DUP4 ADD DUP6 PUSH2 0x26EB JUMP JUMPDEST PUSH2 0x2E87 PUSH1 0x20 DUP4 ADD DUP5 PUSH2 0x26EB JUMP JUMPDEST SWAP4 SWAP3 POP POP POP JUMP JUMPDEST PUSH32 0x596F75206D7573742068617665206D696E74656420746F6B656E7320746F2071 PUSH0 DUP3 ADD MSTORE PUSH32 0x75657279207468697320696E666F726D6174696F6E0000000000000000000000 PUSH1 0x20 DUP3 ADD MSTORE POP JUMP JUMPDEST PUSH0 PUSH2 0x2EE8 PUSH1 0x35 DUP4 PUSH2 0x2563 JUMP JUMPDEST SWAP2 POP PUSH2 0x2EF3 DUP3 PUSH2 0x2E8E JUMP JUMPDEST PUSH1 0x40 DUP3 ADD SWAP1 POP SWAP2 SWAP1 POP JUMP JUMPDEST PUSH0 PUSH1 0x20 DUP3 ADD SWAP1 POP DUP2 DUP2 SUB PUSH0 DUP4 ADD MSTORE PUSH2 0x2F15 DUP2 PUSH2 0x2EDC JUMP JUMPDEST SWAP1 POP SWAP2 SWAP1 POP JUMP JUMPDEST PUSH0 PUSH1 0x60 DUP3 ADD SWAP1 POP PUSH2 0x2F2F PUSH0 DUP4 ADD DUP7 PUSH2 0x26EB JUMP JUMPDEST PUSH2 0x2F3C PUSH1 0x20 DUP4 ADD DUP6 PUSH2 0x26EB JUMP JUMPDEST PUSH2 0x2F49 PUSH1 0x40 DUP4 ADD DUP5 PUSH2 0x26EB JUMP JUMPDEST SWAP5 SWAP4 POP POP POP POP JUMP JUMPDEST PUSH32 0x4E487B7100000000000000000000000000000000000000000000000000000000 PUSH0 MSTORE PUSH1 0x41 PUSH1 0x4 MSTORE PUSH1 0x24 PUSH0 REVERT JUMPDEST PUSH32 0x45524332303A206275726E2066726F6D20746865207A65726F20616464726573 PUSH0 DUP3 ADD MSTORE PUSH32 0x7300000000000000000000000000000000000000000000000000000000000000 PUSH1 0x20 DUP3 ADD MSTORE POP JUMP JUMPDEST PUSH0 PUSH2 0x2FD8 PUSH1 0x21 DUP4 PUSH2 0x2563 JUMP JUMPDEST SWAP2 POP PUSH2 0x2FE3 DUP3 PUSH2 0x2F7E JUMP JUMPDEST PUSH1 0x40 DUP3 ADD SWAP1 POP SWAP2 SWAP1 POP JUMP JUMPDEST PUSH0 PUSH1 0x20 DUP3 ADD SWAP1 POP DUP2 DUP2 SUB PUSH0 DUP4 ADD MSTORE PUSH2 0x3005 DUP2 PUSH2 0x2FCC JUMP JUMPDEST SWAP1 POP SWAP2 SWAP1 POP JUMP JUMPDEST PUSH32 0x45524332303A206275726E20616D6F756E7420657863656564732062616C616E PUSH0 DUP3 ADD MSTORE PUSH32 0x6365000000000000000000000000000000000000000000000000000000000000 PUSH1 0x20 DUP3 ADD MSTORE POP JUMP JUMPDEST PUSH0 PUSH2 0x3066 PUSH1 0x22 DUP4 PUSH2 0x2563 JUMP JUMPDEST SWAP2 POP PUSH2 0x3071 DUP3 PUSH2 0x300C JUMP JUMPDEST PUSH1 0x40 DUP3 ADD SWAP1 POP SWAP2 SWAP1 POP JUMP JUMPDEST PUSH0 PUSH1 0x20 DUP3 ADD SWAP1 POP DUP2 DUP2 SUB PUSH0 DUP4 ADD MSTORE PUSH2 0x3093 DUP2 PUSH2 0x305A JUMP JUMPDEST SWAP1 POP SWAP2 SWAP1 POP JUMP JUMPDEST PUSH32 0x496E73756666696369656E7420636F6C6C61746572616C2062616C616E63652E PUSH0 DUP3 ADD MSTORE POP JUMP JUMPDEST PUSH0 PUSH2 0x30CE PUSH1 0x20 DUP4 PUSH2 0x2563 JUMP JUMPDEST SWAP2 POP PUSH2 0x30D9 DUP3 PUSH2 0x309A JUMP JUMPDEST PUSH1 0x20 DUP3 ADD SWAP1 POP SWAP2 SWAP1 POP JUMP JUMPDEST PUSH0 PUSH1 0x20 DUP3 ADD SWAP1 POP DUP2 DUP2 SUB PUSH0 DUP4 ADD MSTORE PUSH2 0x30FB DUP2 PUSH2 0x30C2 JUMP JUMPDEST SWAP1 POP SWAP2 SWAP1 POP JUMP JUMPDEST PUSH0 PUSH1 0xC0 DUP3 ADD SWAP1 POP PUSH2 0x3115 PUSH0 DUP4 ADD DUP10 PUSH2 0x2834 JUMP JUMPDEST PUSH2 0x3122 PUSH1 0x20 DUP4 ADD DUP9 PUSH2 0x2896 JUMP JUMPDEST PUSH2 0x312F PUSH1 0x40 DUP4 ADD DUP8 PUSH2 0x2896 JUMP JUMPDEST PUSH2 0x313C PUSH1 0x60 DUP4 ADD DUP7 PUSH2 0x26EB JUMP JUMPDEST PUSH2 0x3149 PUSH1 0x80 DUP4 ADD DUP6 PUSH2 0x26EB JUMP JUMPDEST PUSH2 0x3156 PUSH1 0xA0 DUP4 ADD DUP5 PUSH2 0x26EB JUMP JUMPDEST SWAP8 SWAP7 POP POP POP POP POP POP POP JUMP JUMPDEST PUSH0 PUSH1 0x40 DUP3 ADD SWAP1 POP PUSH2 0x3174 PUSH0 DUP4 ADD DUP6 PUSH2 0x2896 JUMP JUMPDEST PUSH2 0x3181 PUSH1 0x20 DUP4 ADD DUP5 PUSH2 0x2896 JUMP JUMPDEST SWAP4 SWAP3 POP POP POP JUMP JUMPDEST PUSH32 0x4E487B7100000000000000000000000000000000000000000000000000000000 PUSH0 MSTORE PUSH1 0x12 PUSH1 0x4 MSTORE PUSH1 0x24 PUSH0 REVERT JUMPDEST PUSH0 PUSH1 0x60 DUP3 ADD SWAP1 POP PUSH2 0x31C8 PUSH0 DUP4 ADD DUP7 PUSH2 0x2896 JUMP JUMPDEST PUSH2 0x31D5 PUSH1 0x20 DUP4 ADD DUP6 PUSH2 0x26EB JUMP JUMPDEST PUSH2 0x31E2 PUSH1 0x40 DUP4 ADD DUP5 PUSH2 0x26EB JUMP JUMPDEST SWAP5 SWAP4 POP POP POP POP JUMP JUMPDEST PUSH0 PUSH1 0xA0 DUP3 ADD SWAP1 POP PUSH2 0x31FD PUSH0 DUP4 ADD DUP9 PUSH2 0x2834 JUMP JUMPDEST PUSH2 0x320A PUSH1 0x20 DUP4 ADD DUP8 PUSH2 0x2834 JUMP JUMPDEST PUSH2 0x3217 PUSH1 0x40 DUP4 ADD DUP7 PUSH2 0x2834 JUMP JUMPDEST PUSH2 0x3224 PUSH1 0x60 DUP4 ADD DUP6 PUSH2 0x26EB JUMP JUMPDEST PUSH2 0x3231 PUSH1 0x80 DUP4 ADD DUP5 PUSH2 0x2896 JUMP JUMPDEST SWAP7 SWAP6 POP POP POP POP POP POP JUMP JUMPDEST PUSH0 PUSH1 0x80 DUP3 ADD SWAP1 POP PUSH2 0x324E PUSH0 DUP4 ADD DUP8 PUSH2 0x2834 JUMP JUMPDEST PUSH2 0x325B PUSH1 0x20 DUP4 ADD DUP7 PUSH2 0x2803 JUMP JUMPDEST PUSH2 0x3268 PUSH1 0x40 DUP4 ADD DUP6 PUSH2 0x2834 JUMP JUMPDEST PUSH2 0x3275 PUSH1 0x60 DUP4 ADD DUP5 PUSH2 0x2834 JUMP JUMPDEST SWAP6 SWAP5 POP POP POP POP POP JUMP JUMPDEST PUSH32 0x4E487B7100000000000000000000000000000000000000000000000000000000 PUSH0 MSTORE PUSH1 0x21 PUSH1 0x4 MSTORE PUSH1 0x24 PUSH0 REVERT INVALID LOG2 PUSH5 0x6970667358 0x22 SLT KECCAK256 SHL 0x29 0xBC DUP12 PUSH19 0x85182592C27E6B18723AF9D13B6733230C3D81 PUSH8 0xC414B9E78C0D6964 PUSH20 0x6F6C634300081A00330000000000000000000000 "
		},
		"gasEstimates": {
			"creation": {
				"codeDepositCost": "2605000",
				"executionCost": "infinite",
				"totalCost": "infinite"
			},
			"external": {
				"DOMAIN_SEPARATOR()": "infinite",
				"allowance(address,address)": "infinite",
				"approve(address,uint256)": "infinite",
				"balanceOf(address)": "2940",
				"burn(address,uint256)": "infinite",
				"burn(uint256)": "infinite",
				"burnFrom(address,uint256)": "infinite",
				"collateral(address)": "2847",
				"decimals()": "428",
				"eip712Domain()": "infinite",
				"getMyTokenInformation()": "infinite",
				"getUserCollateral(address)": "2918",
				"getUserConversionRate(address)": "2918",
				"mint(uint256,uint256)": "infinite",
				"name()": "infinite",
				"nonces(address)": "2961",
				"owner()": "2582",
				"permit(address,address,uint256,uint256,uint8,bytes32,bytes32)": "infinite",
				"renounceOwnership()": "infinite",
				"symbol()": "infinite",
				"topUpMyTokens(uint256)": "infinite",
				"totalSupply()": "2500",
				"transfer(address,uint256)": "infinite",
				"transferCollateral(address,address,uint256)": "infinite",
				"transferFrom(address,address,uint256)": "infinite",
				"transferOwnership(address)": "infinite",
				"userConversionRate(address)": "2914"
			}
		},
		"methodIdentifiers": {
			"DOMAIN_SEPARATOR()": "3644e515",
			"allowance(address,address)": "dd62ed3e",
			"approve(address,uint256)": "095ea7b3",
			"balanceOf(address)": "70a08231",
			"burn(address,uint256)": "9dc29fac",
			"burn(uint256)": "42966c68",
			"burnFrom(address,uint256)": "79cc6790",
			"collateral(address)": "a5fdc5de",
			"decimals()": "313ce567",
			"eip712Domain()": "84b0196e",
			"getMyTokenInformation()": "25f5a4a2",
			"getUserCollateral(address)": "b6f7132f",
			"getUserConversionRate(address)": "4763fbd2",
			"mint(uint256,uint256)": "1b2ef1ca",
			"name()": "06fdde03",
			"nonces(address)": "7ecebe00",
			"owner()": "8da5cb5b",
			"permit(address,address,uint256,uint256,uint8,bytes32,bytes32)": "d505accf",
			"renounceOwnership()": "715018a6",
			"symbol()": "95d89b41",
			"topUpMyTokens(uint256)": "2d968e1a",
			"totalSupply()": "18160ddd",
			"transfer(address,uint256)": "a9059cbb",
			"transferCollateral(address,address,uint256)": "cd60f59f",
			"transferFrom(address,address,uint256)": "23b872dd",
			"transferOwnership(address)": "f2fde38b",
			"userConversionRate(address)": "1f86956c"
		}
	},
	"abi": [
		{
			"inputs": [],
			"stateMutability": "payable",
			"type": "constructor"
		},
		{
			"inputs": [],
			"name": "ECDSAInvalidSignature",
			"type": "error"
		},
		{
			"inputs": [
				{
					"internalType": "uint256",
					"name": "length",
					"type": "uint256"
				}
			],
			"name": "ECDSAInvalidSignatureLength",
			"type": "error"
		},
		{
			"inputs": [
				{
					"internalType": "bytes32",
					"name": "s",
					"type": "bytes32"
				}
			],
			"name": "ECDSAInvalidSignatureS",
			"type": "error"
		},
		{
			"inputs": [
				{
					"internalType": "address",
					"name": "spender",
					"type": "address"
				},
				{
					"internalType": "uint256",
					"name": "allowance",
					"type": "uint256"
				},
				{
					"internalType": "uint256",
					"name": "needed",
					"type": "uint256"
				}
			],
			"name": "ERC20InsufficientAllowance",
			"type": "error"
		},
		{
			"inputs": [
				{
					"internalType": "address",
					"name": "sender",
					"type": "address"
				},
				{
					"internalType": "uint256",
					"name": "balance",
					"type": "uint256"
				},
				{
					"internalType": "uint256",
					"name": "needed",
					"type": "uint256"
				}
			],
			"name": "ERC20InsufficientBalance",
			"type": "error"
		},
		{
			"inputs": [
				{
					"internalType": "address",
					"name": "approver",
					"type": "address"
				}
			],
			"name": "ERC20InvalidApprover",
			"type": "error"
		},
		{
			"inputs": [
				{
					"internalType": "address",
					"name": "receiver",
					"type": "address"
				}
			],
			"name": "ERC20InvalidReceiver",
			"type": "error"
		},
		{
			"inputs": [
				{
					"internalType": "address",
					"name": "sender",
					"type": "address"
				}
			],
			"name": "ERC20InvalidSender",
			"type": "error"
		},
		{
			"inputs": [
				{
					"internalType": "address",
					"name": "spender",
					"type": "address"
				}
			],
			"name": "ERC20InvalidSpender",
			"type": "error"
		},
		{
			"inputs": [
				{
					"internalType": "uint256",
					"name": "deadline",
					"type": "uint256"
				}
			],
			"name": "ERC2612ExpiredSignature",
			"type": "error"
		},
		{
			"inputs": [
				{
					"internalType": "address",
					"name": "signer",
					"type": "address"
				},
				{
					"internalType": "address",
					"name": "owner",
					"type": "address"
				}
			],
			"name": "ERC2612InvalidSigner",
			"type": "error"
		},
		{
			"inputs": [
				{
					"internalType": "address",
					"name": "account",
					"type": "address"
				},
				{
					"internalType": "uint256",
					"name": "currentNonce",
					"type": "uint256"
				}
			],
			"name": "InvalidAccountNonce",
			"type": "error"
		},
		{
			"inputs": [],
			"name": "InvalidShortString",
			"type": "error"
		},
		{
			"inputs": [
				{
					"internalType": "address",
					"name": "owner",
					"type": "address"
				}
			],
			"name": "OwnableInvalidOwner",
			"type": "error"
		},
		{
			"inputs": [
				{
					"internalType": "address",
					"name": "account",
					"type": "address"
				}
			],
			"name": "OwnableUnauthorizedAccount",
			"type": "error"
		},
		{
			"inputs": [
				{
					"internalType": "string",
					"name": "str",
					"type": "string"
				}
			],
			"name": "StringTooLong",
			"type": "error"
		},
		{
			"anonymous": false,
			"inputs": [
				{
					"indexed": true,
					"internalType": "address",
					"name": "owner",
					"type": "address"
				},
				{
					"indexed": true,
					"internalType": "address",
					"name": "spender",
					"type": "address"
				},
				{
					"indexed": false,
					"internalType": "uint256",
					"name": "value",
					"type": "uint256"
				}
			],
			"name": "Approval",
			"type": "event"
		},
		{
			"anonymous": false,
			"inputs": [],
			"name": "EIP712DomainChanged",
			"type": "event"
		},
		{
			"anonymous": false,
			"inputs": [
				{
					"indexed": true,
					"internalType": "address",
					"name": "to",
					"type": "address"
				},
				{
					"indexed": false,
					"internalType": "uint256",
					"name": "amount",
					"type": "uint256"
				},
				{
					"indexed": false,
					"internalType": "uint256",
					"name": "collateral",
					"type": "uint256"
				}
			],
			"name": "Mint",
			"type": "event"
		},
		{
			"anonymous": false,
			"inputs": [
				{
					"indexed": true,
					"internalType": "address",
					"name": "previousOwner",
					"type": "address"
				},
				{
					"indexed": true,
					"internalType": "address",
					"name": "newOwner",
					"type": "address"
				}
			],
			"name": "OwnershipTransferred",
			"type": "event"
		},
		{
			"anonymous": false,
			"inputs": [
				{
					"indexed": true,
					"internalType": "address",
					"name": "account",
					"type": "address"
				},
				{
					"indexed": false,
					"internalType": "uint256",
					"name": "excessAmt",
					"type": "uint256"
				}
			],
			"name": "ReturnExcess",
			"type": "event"
		},
		{
			"anonymous": false,
			"inputs": [
				{
					"indexed": true,
					"internalType": "address",
					"name": "from",
					"type": "address"
				},
				{
					"indexed": true,
					"internalType": "address",
					"name": "to",
					"type": "address"
				},
				{
					"indexed": false,
					"internalType": "uint256",
					"name": "value",
					"type": "uint256"
				}
			],
			"name": "Transfer",
			"type": "event"
		},
		{
			"anonymous": false,
			"inputs": [
				{
					"indexed": true,
					"internalType": "address",
					"name": "account",
					"type": "address"
				},
				{
					"indexed": false,
					"internalType": "uint256",
					"name": "amtTokens",
					"type": "uint256"
				},
				{
					"indexed": false,
					"internalType": "uint256",
					"name": "collateral",
					"type": "uint256"
				},
				{
					"indexed": false,
					"internalType": "uint256",
					"name": "conversionRate",
					"type": "uint256"
				}
			],
			"name": "UserTokenInfo",
			"type": "event"
		},
		{
			"inputs": [],
			"name": "DOMAIN_SEPARATOR",
			"outputs": [
				{
					"internalType": "bytes32",
					"name": "",
					"type": "bytes32"
				}
			],
			"stateMutability": "view",
			"type": "function"
		},
		{
			"inputs": [
				{
					"internalType": "address",
					"name": "owner",
					"type": "address"
				},
				{
					"internalType": "address",
					"name": "spender",
					"type": "address"
				}
			],
			"name": "allowance",
			"outputs": [
				{
					"internalType": "uint256",
					"name": "",
					"type": "uint256"
				}
			],
			"stateMutability": "view",
			"type": "function"
		},
		{
			"inputs": [
				{
					"internalType": "address",
					"name": "spender",
					"type": "address"
				},
				{
					"internalType": "uint256",
					"name": "value",
					"type": "uint256"
				}
			],
			"name": "approve",
			"outputs": [
				{
					"internalType": "bool",
					"name": "",
					"type": "bool"
				}
			],
			"stateMutability": "nonpayable",
			"type": "function"
		},
		{
			"inputs": [
				{
					"internalType": "address",
					"name": "account",
					"type": "address"
				}
			],
			"name": "balanceOf",
			"outputs": [
				{
					"internalType": "uint256",
					"name": "",
					"type": "uint256"
				}
			],
			"stateMutability": "view",
			"type": "function"
		},
		{
			"inputs": [
				{
					"internalType": "uint256",
					"name": "value",
					"type": "uint256"
				}
			],
			"name": "burn",
			"outputs": [],
			"stateMutability": "nonpayable",
			"type": "function"
		},
		{
			"inputs": [
				{
					"internalType": "address",
					"name": "from",
					"type": "address"
				},
				{
					"internalType": "uint256",
					"name": "amount",
					"type": "uint256"
				}
			],
			"name": "burn",
			"outputs": [],
			"stateMutability": "nonpayable",
			"type": "function"
		},
		{
			"inputs": [
				{
					"internalType": "address",
					"name": "account",
					"type": "address"
				},
				{
					"internalType": "uint256",
					"name": "value",
					"type": "uint256"
				}
			],
			"name": "burnFrom",
			"outputs": [],
			"stateMutability": "nonpayable",
			"type": "function"
		},
		{
			"inputs": [
				{
					"internalType": "address",
					"name": "",
					"type": "address"
				}
			],
			"name": "collateral",
			"outputs": [
				{
					"internalType": "uint256",
					"name": "",
					"type": "uint256"
				}
			],
			"stateMutability": "view",
			"type": "function"
		},
		{
			"inputs": [],
			"name": "decimals",
			"outputs": [
				{
					"internalType": "uint8",
					"name": "",
					"type": "uint8"
				}
			],
			"stateMutability": "view",
			"type": "function"
		},
		{
			"inputs": [],
			"name": "eip712Domain",
			"outputs": [
				{
					"internalType": "bytes1",
					"name": "fields",
					"type": "bytes1"
				},
				{
					"internalType": "string",
					"name": "name",
					"type": "string"
				},
				{
					"internalType": "string",
					"name": "version",
					"type": "string"
				},
				{
					"internalType": "uint256",
					"name": "chainId",
					"type": "uint256"
				},
				{
					"internalType": "address",
					"name": "verifyingContract",
					"type": "address"
				},
				{
					"internalType": "bytes32",
					"name": "salt",
					"type": "bytes32"
				},
				{
					"internalType": "uint256[]",
					"name": "extensions",
					"type": "uint256[]"
				}
			],
			"stateMutability": "view",
			"type": "function"
		},
		{
			"inputs": [],
			"name": "getMyTokenInformation",
			"outputs": [],
			"stateMutability": "nonpayable",
			"type": "function"
		},
		{
			"inputs": [
				{
					"internalType": "address",
					"name": "lister",
					"type": "address"
				}
			],
			"name": "getUserCollateral",
			"outputs": [
				{
					"internalType": "uint256",
					"name": "",
					"type": "uint256"
				}
			],
			"stateMutability": "view",
			"type": "function"
		},
		{
			"inputs": [
				{
					"internalType": "address",
					"name": "lister",
					"type": "address"
				}
			],
			"name": "getUserConversionRate",
			"outputs": [
				{
					"internalType": "uint256",
					"name": "",
					"type": "uint256"
				}
			],
			"stateMutability": "view",
			"type": "function"
		},
		{
			"inputs": [
				{
					"internalType": "uint256",
					"name": "amount",
					"type": "uint256"
				},
				{
					"internalType": "uint256",
					"name": "conversionRate",
					"type": "uint256"
				}
			],
			"name": "mint",
			"outputs": [],
			"stateMutability": "payable",
			"type": "function"
		},
		{
			"inputs": [],
			"name": "name",
			"outputs": [
				{
					"internalType": "string",
					"name": "",
					"type": "string"
				}
			],
			"stateMutability": "view",
			"type": "function"
		},
		{
			"inputs": [
				{
					"internalType": "address",
					"name": "owner",
					"type": "address"
				}
			],
			"name": "nonces",
			"outputs": [
				{
					"internalType": "uint256",
					"name": "",
					"type": "uint256"
				}
			],
			"stateMutability": "view",
			"type": "function"
		},
		{
			"inputs": [],
			"name": "owner",
			"outputs": [
				{
					"internalType": "address",
					"name": "",
					"type": "address"
				}
			],
			"stateMutability": "view",
			"type": "function"
		},
		{
			"inputs": [
				{
					"internalType": "address",
					"name": "owner",
					"type": "address"
				},
				{
					"internalType": "address",
					"name": "spender",
					"type": "address"
				},
				{
					"internalType": "uint256",
					"name": "value",
					"type": "uint256"
				},
				{
					"internalType": "uint256",
					"name": "deadline",
					"type": "uint256"
				},
				{
					"internalType": "uint8",
					"name": "v",
					"type": "uint8"
				},
				{
					"internalType": "bytes32",
					"name": "r",
					"type": "bytes32"
				},
				{
					"internalType": "bytes32",
					"name": "s",
					"type": "bytes32"
				}
			],
			"name": "permit",
			"outputs": [],
			"stateMutability": "nonpayable",
			"type": "function"
		},
		{
			"inputs": [],
			"name": "renounceOwnership",
			"outputs": [],
			"stateMutability": "nonpayable",
			"type": "function"
		},
		{
			"inputs": [],
			"name": "symbol",
			"outputs": [
				{
					"internalType": "string",
					"name": "",
					"type": "string"
				}
			],
			"stateMutability": "view",
			"type": "function"
		},
		{
			"inputs": [
				{
					"internalType": "uint256",
					"name": "amount",
					"type": "uint256"
				}
			],
			"name": "topUpMyTokens",
			"outputs": [],
			"stateMutability": "payable",
			"type": "function"
		},
		{
			"inputs": [],
			"name": "totalSupply",
			"outputs": [
				{
					"internalType": "uint256",
					"name": "",
					"type": "uint256"
				}
			],
			"stateMutability": "view",
			"type": "function"
		},
		{
			"inputs": [
				{
					"internalType": "address",
					"name": "to",
					"type": "address"
				},
				{
					"internalType": "uint256",
					"name": "value",
					"type": "uint256"
				}
			],
			"name": "transfer",
			"outputs": [
				{
					"internalType": "bool",
					"name": "",
					"type": "bool"
				}
			],
			"stateMutability": "nonpayable",
			"type": "function"
		},
		{
			"inputs": [
				{
					"internalType": "address",
					"name": "from",
					"type": "address"
				},
				{
					"internalType": "address",
					"name": "to",
					"type": "address"
				},
				{
					"internalType": "uint256",
					"name": "amount",
					"type": "uint256"
				}
			],
			"name": "transferCollateral",
			"outputs": [],
			"stateMutability": "nonpayable",
			"type": "function"
		},
		{
			"inputs": [
				{
					"internalType": "address",
					"name": "from",
					"type": "address"
				},
				{
					"internalType": "address",
					"name": "to",
					"type": "address"
				},
				{
					"internalType": "uint256",
					"name": "value",
					"type": "uint256"
				}
			],
			"name": "transferFrom",
			"outputs": [
				{
					"internalType": "bool",
					"name": "",
					"type": "bool"
				}
			],
			"stateMutability": "nonpayable",
			"type": "function"
		},
		{
			"inputs": [
				{
					"internalType": "address",
					"name": "newOwner",
					"type": "address"
				}
			],
			"name": "transferOwnership",
			"outputs": [],
			"stateMutability": "nonpayable",
			"type": "function"
		},
		{
			"inputs": [
				{
					"internalType": "address",
					"name": "",
					"type": "address"
				}
			],
			"name": "userConversionRate",
			"outputs": [
				{
					"internalType": "uint256",
					"name": "",
					"type": "uint256"
				}
			],
			"stateMutability": "view",
			"type": "function"
		}
	]
}