{
	"data": {
		"bytecode": {
			"linkReferences": {},
			"object": "608060405242600355348015610013575f80fd5b50604051612cc6380380612cc6833981810160405281019061003591906102c8565b335f73ffffffffffffffffffffffffffffffffffffffff168173ffffffffffffffffffffffffffffffffffffffff16036100a6575f6040517f1e4fbdf700000000000000000000000000000000000000000000000000000000815260040161009d9190610302565b60405180910390fd5b6100b58161019860201b60201c565b508060015f6101000a81548173ffffffffffffffffffffffffffffffffffffffff021916908373ffffffffffffffffffffffffffffffffffffffff160217905550600160026040516101069061036f565b90815260200160405180910390205f6101000a81548160ff0219169083151502179055506001600260405161013a906103cd565b90815260200160405180910390205f6101000a81548160ff0219169083151502179055506001600260405161016e9061042b565b90815260200160405180910390205f6101000a81548160ff0219169083151502179055505061043f565b5f805f9054906101000a900473ffffffffffffffffffffffffffffffffffffffff169050815f806101000a81548173ffffffffffffffffffffffffffffffffffffffff021916908373ffffffffffffffffffffffffffffffffffffffff1602179055508173ffffffffffffffffffffffffffffffffffffffff168173ffffffffffffffffffffffffffffffffffffffff167f8be0079c531659141344cd1fd0a4f28419497f9722a3daafe3b4186f6b6457e060405160405180910390a35050565b5f80fd5b5f73ffffffffffffffffffffffffffffffffffffffff82169050919050565b5f6102868261025d565b9050919050565b5f6102978261027c565b9050919050565b6102a78161028d565b81146102b1575f80fd5b50565b5f815190506102c28161029e565b92915050565b5f602082840312156102dd576102dc610259565b5b5f6102ea848285016102b4565b91505092915050565b6102fc8161027c565b82525050565b5f6020820190506103155f8301846102f3565b92915050565b5f81905092915050565b7f54726176656c00000000000000000000000000000000000000000000000000005f82015250565b5f61035960068361031b565b915061036482610325565b600682019050919050565b5f6103798261034d565b9150819050919050565b7f50726f70657274790000000000000000000000000000000000000000000000005f82015250565b5f6103b760088361031b565b91506103c282610383565b600882019050919050565b5f6103d7826103ab565b9150819050919050565b7f4c696665000000000000000000000000000000000000000000000000000000005f82015250565b5f61041560048361031b565b9150610420826103e1565b600482019050919050565b5f61043582610409565b9150819050919050565b61287a8061044c5f395ff3fe608060405234801561000f575f80fd5b50600436106100b2575f3560e01c8063a719a9cb1161006f578063a719a9cb14610164578063bcc46e8314610180578063dc156a271461019c578063de54d429146101cc578063f2fde38b146101ea578063fc0c546a14610206576100b2565b80630c6ab3fa146100b65780632b07fce3146100d2578063715018a6146101025780638da5cb5b1461010c57806396945f3e1461012a5780639d3db26814610146575b5f80fd5b6100d060048036038101906100cb919061161e565b610224565b005b6100ec60048036038101906100e7919061165c565b6102e1565b6040516100f991906118bc565b60405180910390f35b61010a610594565b005b6101146105a7565b60405161012191906118eb565b60405180910390f35b610144600480360381019061013f919061165c565b6105ce565b005b61014e610659565b60405161015b9190611913565b60405180910390f35b61017e60048036038101906101799190611a58565b6108f1565b005b61019a6004803603810190610195919061165c565b610e7d565b005b6101b660048036038101906101b19190611d43565b610f9f565b6040516101c39190611913565b60405180910390f35b6101d4610ff0565b6040516101e19190611913565b60405180910390f35b61020460048036038101906101ff9190611d8a565b610ff6565b005b61020e61107a565b60405161021b9190611e10565b60405180910390f35b5f60055f8481526020019081526020015f2090508060080154816007015461024c9190611e56565b42111561028e576040517f08c379a000000000000000000000000000000000000000000000000000000000815260040161028590611ee3565b60405180910390fd5b82815f0154146102d3576040517f08c379a00000000000000000000000000000000000000000000000000000000081526004016102ca90611f4b565b60405180910390fd5b818160050181905550505050565b6102e9611539565b5f821180156102fa57506004548211155b610339576040517f08c379a000000000000000000000000000000000000000000000000000000000815260040161033090611fb3565b60405180910390fd5b60055f8381526020019081526020015f20604051806101a00160405290815f820154815260200160018201805461036f90611ffe565b80601f016020809104026020016040519081016040528092919081815260200182805461039b90611ffe565b80156103e65780601f106103bd576101008083540402835291602001916103e6565b820191905f5260205f20905b8154815290600101906020018083116103c957829003601f168201915b505050505081526020016002820180546103ff90611ffe565b80601f016020809104026020016040519081016040528092919081815260200182805461042b90611ffe565b80156104765780601f1061044d57610100808354040283529160200191610476565b820191905f5260205f20905b81548152906001019060200180831161045957829003601f168201915b50505050508152602001600382015481526020016004820154815260200160058201548152602001600682015481526020016007820154815260200160088201548152602001600982016040518060600160405290815f8201548152602001600182015481526020016002820154815250508152602001600c82016040518060600160405290815f8201548152602001600182015481526020016002820154815250508152602001600f82015f9054906101000a900473ffffffffffffffffffffffffffffffffffffffff1673ffffffffffffffffffffffffffffffffffffffff1673ffffffffffffffffffffffffffffffffffffffff168152602001600f820160149054906101000a900460ff1615151515815250509050919050565b61059c61109f565b6105a55f611126565b565b5f805f9054906101000a900473ffffffffffffffffffffffffffffffffffffffff16905090565b5f60055f8381526020019081526020015f20905081815f015414610627576040517f08c379a000000000000000000000000000000000000000000000000000000000815260040161061e90611f4b565b60405180910390fd5b80600f0160149054906101000a900460ff161581600f0160146101000a81548160ff0219169083151502179055505050565b5f805f90505f600190505b60045481116108e9576108c960055f8381526020019081526020015f20604051806101a00160405290815f82015481526020016001820180546106a690611ffe565b80601f01602080910402602001604051908101604052809291908181526020018280546106d290611ffe565b801561071d5780601f106106f45761010080835404028352916020019161071d565b820191905f5260205f20905b81548152906001019060200180831161070057829003601f168201915b5050505050815260200160028201805461073690611ffe565b80601f016020809104026020016040519081016040528092919081815260200182805461076290611ffe565b80156107ad5780601f10610784576101008083540402835291602001916107ad565b820191905f5260205f20905b81548152906001019060200180831161079057829003601f168201915b50505050508152602001600382015481526020016004820154815260200160058201548152602001600682015481526020016007820154815260200160088201548152602001600982016040518060600160405290815f8201548152602001600182015481526020016002820154815250508152602001600c82016040518060600160405290815f8201548152602001600182015481526020016002820154815250508152602001600f82015f9054906101000a900473ffffffffffffffffffffffffffffffffffffffff1673ffffffffffffffffffffffffffffffffffffffff1673ffffffffffffffffffffffffffffffffffffffff168152602001600f820160149054906101000a900460ff161515151581525050610f9f565b826108d49190611e56565b915080806108e19061202e565b915050610664565b508091505090565b828060015f9054906101000a900473ffffffffffffffffffffffffffffffffffffffff1673ffffffffffffffffffffffffffffffffffffffff166370a08231336040518263ffffffff1660e01b815260040161094d91906118eb565b602060405180830381865afa158015610968573d5f803e3d5ffd5b505050506040513d601f19601f8201168201806040525081019061098c9190612089565b1015610a2f60015f9054906101000a900473ffffffffffffffffffffffffffffffffffffffff1673ffffffffffffffffffffffffffffffffffffffff166370a08231336040518263ffffffff1660e01b81526004016109eb91906118eb565b602060405180830381865afa158015610a06573d5f803e3d5ffd5b505050506040513d601f19601f82011682018060405250810190610a2a9190612089565b6111e7565b610a38836111e7565b604051602001610a49929190612218565b60405160208183030381529060405290610a99576040517f08c379a0000000000000000000000000000000000000000000000000000000008152600401610a909190612294565b60405180910390fd5b5085600281604051610aab91906122b4565b90815260200160405180910390205f9054906101000a900460ff16610b05576040517f08c379a0000000000000000000000000000000000000000000000000000000008152600401610afc90612314565b60405180910390fd5b610b0d610659565b60015f9054906101000a900473ffffffffffffffffffffffffffffffffffffffff1673ffffffffffffffffffffffffffffffffffffffff166370a08231336040518263ffffffff1660e01b8152600401610b6791906118eb565b602060405180830381865afa158015610b82573d5f803e3d5ffd5b505050506040513d601f19601f82011682018060405250810190610ba69190612089565b11610be6576040517f08c379a0000000000000000000000000000000000000000000000000000000008152600401610bdd906123a2565b60405180910390fd5b60045f815480929190610bf89061202e565b9190505550610c056115bc565b610c106003546112b1565b835f0184602001856040018381525083815250838152505050505f6201518085610c3a91906123c0565b600354610c479190611e56565b9050610c516115bc565b610c5a826112b1565b835f018460200185604001838152508381525083815250505050604051806101a0016040528060045481526020018c81526020018b81526020018a81526020018981526020015f81526020018881526020014281526020016201518088610cc191906123c0565b81526020018481526020018281526020013373ffffffffffffffffffffffffffffffffffffffff1681526020015f151581525060055f60045481526020019081526020015f205f820151815f01556020820151816001019081610d249190612595565b506040820151816002019081610d3a9190612595565b50606082015181600301556080820151816004015560a0820151816005015560c0820151816006015560e082015181600701556101008201518160080155610120820151816009015f820151815f01556020820151816001015560408201518160020155505061014082015181600c015f820151815f01556020820151816001015560408201518160020155505061016082015181600f015f6101000a81548173ffffffffffffffffffffffffffffffffffffffff021916908373ffffffffffffffffffffffffffffffffffffffff16021790555061018082015181600f0160146101000a81548160ff0219169083151502179055509050507fe060903a71989416db77650c9585adbae8f4fc8633a778a547d25e3c78789f4c6004548c33604051610e6893929190612664565b60405180910390a15050505050505050505050565b5f8111610ebf576040517f08c379a0000000000000000000000000000000000000000000000000000000008152600401610eb6906126ea565b60405180910390fd5b60015f9054906101000a900473ffffffffffffffffffffffffffffffffffffffff1673ffffffffffffffffffffffffffffffffffffffff166323b872dd3330846040518463ffffffff1660e01b8152600401610f1d93929190612708565b6020604051808303815f875af1158015610f39573d5f803e3d5ffd5b505050506040513d601f19601f82011682018060405250810190610f5d9190612751565b610f9c576040517f08c379a0000000000000000000000000000000000000000000000000000000008152600401610f93906127c6565b60405180910390fd5b50565b5f600182606001511115610fd457816080015160018360600151610fc391906127e4565b610fcd91906123c0565b9050610feb565b81608001518260600151610fe891906123c0565b90505b919050565b60045481565b610ffe61109f565b5f73ffffffffffffffffffffffffffffffffffffffff168173ffffffffffffffffffffffffffffffffffffffff160361106e575f6040517f1e4fbdf700000000000000000000000000000000000000000000000000000000815260040161106591906118eb565b60405180910390fd5b61107781611126565b50565b60015f9054906101000a900473ffffffffffffffffffffffffffffffffffffffff1681565b6110a76112e3565b73ffffffffffffffffffffffffffffffffffffffff166110c56105a7565b73ffffffffffffffffffffffffffffffffffffffff1614611124576110e86112e3565b6040517f118cdaa700000000000000000000000000000000000000000000000000000000815260040161111b91906118eb565b60405180910390fd5b565b5f805f9054906101000a900473ffffffffffffffffffffffffffffffffffffffff169050815f806101000a81548173ffffffffffffffffffffffffffffffffffffffff021916908373ffffffffffffffffffffffffffffffffffffffff1602179055508173ffffffffffffffffffffffffffffffffffffffff168173ffffffffffffffffffffffffffffffffffffffff167f8be0079c531659141344cd1fd0a4f28419497f9722a3daafe3b4186f6b6457e060405160405180910390a35050565b60605f60016111f5846112ea565b0190505f8167ffffffffffffffff81111561121357611212611934565b5b6040519080825280601f01601f1916602001820160405280156112455781602001600182028036833780820191505090505b5090505f82602001820190505b6001156112a6578080600190039150507f3031323334353637383961626364656600000000000000000000000000000000600a86061a8153600a858161129b5761129a612817565b5b0494505f8503611252575b819350505050919050565b5f805f6112d06201518085816112ca576112c9612817565b5b0461143b565b8093508194508295505050509193909250565b5f33905090565b5f805f90507a184f03e93ff9f4daa797ed6e38ed64bf6a1f0100000000000000008310611346577a184f03e93ff9f4daa797ed6e38ed64bf6a1f010000000000000000838161133c5761133b612817565b5b0492506040810190505b6d04ee2d6d415b85acef81000000008310611383576d04ee2d6d415b85acef8100000000838161137957611378612817565b5b0492506020810190505b662386f26fc1000083106113b257662386f26fc1000083816113a8576113a7612817565b5b0492506010810190505b6305f5e10083106113db576305f5e10083816113d1576113d0612817565b5b0492506008810190505b61271083106114005761271083816113f6576113f5612817565b5b0492506004810190505b60648310611423576064838161141957611418612817565b5b0492506002810190505b600a8310611432576001810190505b80915050919050565b5f805f808490505f62253d8c62010bd983010190505f62023ab1826004028161146757611466612817565b5b059050600460038262023ab102018161148357611482612817565b5b05820391505f62164b0960018401610fa002816114a3576114a2612817565b5b059050601f6004826105b502816114bd576114bc612817565b5b0584030192505f61098f84605002816114d9576114d8612817565b5b0590505f60508261098f02816114f2576114f1612817565b5b0585039050600b828161150857611507612817565b5b05945084600c0260028301039150848360318603606402010192508298508197508096505050505050509193909250565b604051806101a001604052805f815260200160608152602001606081526020015f81526020015f81526020015f81526020015f81526020015f81526020015f81526020016115856115bc565b81526020016115926115bc565b81526020015f73ffffffffffffffffffffffffffffffffffffffff1681526020015f151581525090565b60405180606001604052805f81526020015f81526020015f81525090565b5f604051905090565b5f80fd5b5f80fd5b5f819050919050565b6115fd816115eb565b8114611607575f80fd5b50565b5f81359050611618816115f4565b92915050565b5f8060408385031215611634576116336115e3565b5b5f6116418582860161160a565b92505060206116528582860161160a565b9150509250929050565b5f60208284031215611671576116706115e3565b5b5f61167e8482850161160a565b91505092915050565b611690816115eb565b82525050565b5f81519050919050565b5f82825260208201905092915050565b8281835e5f83830152505050565b5f601f19601f8301169050919050565b5f6116d882611696565b6116e281856116a0565b93506116f28185602086016116b0565b6116fb816116be565b840191505092915050565b606082015f82015161171a5f850182611687565b50602082015161172d6020850182611687565b5060408201516117406040850182611687565b50505050565b5f73ffffffffffffffffffffffffffffffffffffffff82169050919050565b5f61176f82611746565b9050919050565b61177f81611765565b82525050565b5f8115159050919050565b61179981611785565b82525050565b5f61022083015f8301516117b55f860182611687565b50602083015184820360208601526117cd82826116ce565b915050604083015184820360408601526117e782826116ce565b91505060608301516117fc6060860182611687565b50608083015161180f6080860182611687565b5060a083015161182260a0860182611687565b5060c083015161183560c0860182611687565b5060e083015161184860e0860182611687565b5061010083015161185d610100860182611687565b50610120830151611872610120860182611706565b50610140830151611887610180860182611706565b5061016083015161189c6101e0860182611776565b506101808301516118b1610200860182611790565b508091505092915050565b5f6020820190508181035f8301526118d4818461179f565b905092915050565b6118e581611765565b82525050565b5f6020820190506118fe5f8301846118dc565b92915050565b61190d816115eb565b82525050565b5f6020820190506119265f830184611904565b92915050565b5f80fd5b5f80fd5b7f4e487b71000000000000000000000000000000000000000000000000000000005f52604160045260245ffd5b61196a826116be565b810181811067ffffffffffffffff8211171561198957611988611934565b5b80604052505050565b5f61199b6115da565b90506119a78282611961565b919050565b5f67ffffffffffffffff8211156119c6576119c5611934565b5b6119cf826116be565b9050602081019050919050565b828183375f83830152505050565b5f6119fc6119f7846119ac565b611992565b905082815260208101848484011115611a1857611a17611930565b5b611a238482856119dc565b509392505050565b5f82601f830112611a3f57611a3e61192c565b5b8135611a4f8482602086016119ea565b91505092915050565b5f805f805f8060c08789031215611a7257611a716115e3565b5b5f87013567ffffffffffffffff811115611a8f57611a8e6115e7565b5b611a9b89828a01611a2b565b965050602087013567ffffffffffffffff811115611abc57611abb6115e7565b5b611ac889828a01611a2b565b9550506040611ad989828a0161160a565b9450506060611aea89828a0161160a565b9350506080611afb89828a0161160a565b92505060a0611b0c89828a0161160a565b9150509295509295509295565b5f80fd5b5f80fd5b5f60608284031215611b3657611b35611b19565b5b611b406060611992565b90505f611b4f8482850161160a565b5f830152506020611b628482850161160a565b6020830152506040611b768482850161160a565b60408301525092915050565b611b8b81611765565b8114611b95575f80fd5b50565b5f81359050611ba681611b82565b92915050565b611bb581611785565b8114611bbf575f80fd5b50565b5f81359050611bd081611bac565b92915050565b5f6102208284031215611bec57611beb611b19565b5b611bf76101a0611992565b90505f611c068482850161160a565b5f83015250602082013567ffffffffffffffff811115611c2957611c28611b1d565b5b611c3584828501611a2b565b602083015250604082013567ffffffffffffffff811115611c5957611c58611b1d565b5b611c6584828501611a2b565b6040830152506060611c798482850161160a565b6060830152506080611c8d8482850161160a565b60808301525060a0611ca18482850161160a565b60a08301525060c0611cb58482850161160a565b60c08301525060e0611cc98482850161160a565b60e083015250610100611cde8482850161160a565b61010083015250610120611cf484828501611b21565b61012083015250610180611d0a84828501611b21565b610140830152506101e0611d2084828501611b98565b61016083015250610200611d3684828501611bc2565b6101808301525092915050565b5f60208284031215611d5857611d576115e3565b5b5f82013567ffffffffffffffff811115611d7557611d746115e7565b5b611d8184828501611bd6565b91505092915050565b5f60208284031215611d9f57611d9e6115e3565b5b5f611dac84828501611b98565b91505092915050565b5f819050919050565b5f611dd8611dd3611dce84611746565b611db5565b611746565b9050919050565b5f611de982611dbe565b9050919050565b5f611dfa82611ddf565b9050919050565b611e0a81611df0565b82525050565b5f602082019050611e235f830184611e01565b92915050565b7f4e487b71000000000000000000000000000000000000000000000000000000005f52601160045260245ffd5b5f611e60826115eb565b9150611e6b836115eb565b9250828201905080821115611e8357611e82611e29565b5b92915050565b5f82825260208201905092915050565b7f506f6c696379206973206e6f74206163746976650000000000000000000000005f82015250565b5f611ecd601483611e89565b9150611ed882611e99565b602082019050919050565b5f6020820190508181035f830152611efa81611ec1565b9050919050565b7f506f6c696379206e6f7420666f756e64000000000000000000000000000000005f82015250565b5f611f35601083611e89565b9150611f4082611f01565b602082019050919050565b5f6020820190508181035f830152611f6281611f29565b9050919050565b7f496e76616c696420706f6c6963792049440000000000000000000000000000005f82015250565b5f611f9d601183611e89565b9150611fa882611f69565b602082019050919050565b5f6020820190508181035f830152611fca81611f91565b9050919050565b7f4e487b71000000000000000000000000000000000000000000000000000000005f52602260045260245ffd5b5f600282049050600182168061201557607f821691505b60208210810361202857612027611fd1565b5b50919050565b5f612038826115eb565b91507fffffffffffffffffffffffffffffffffffffffffffffffffffffffffffffffff820361206a57612069611e29565b5b600182019050919050565b5f81519050612083816115f4565b92915050565b5f6020828403121561209e5761209d6115e3565b5b5f6120ab84828501612075565b91505092915050565b5f81905092915050565b7f596f752063757272656e746c79206861766520000000000000000000000000005f82015250565b5f6120f26013836120b4565b91506120fd826120be565b601382019050919050565b5f61211282611696565b61211c81856120b4565b935061212c8185602086016116b0565b80840191505092915050565b7f20746f6b656e732c207768696368206973206e6f7420656e6f75676820746f205f8201527f637265617465206120706f6c6963792077697468206d617820706f6f6c20766160208201527f6c7565206f662000000000000000000000000000000000000000000000000000604082015250565b5f6121b86047836120b4565b91506121c382612138565b604782019050919050565b7f20746f6b656e732e0000000000000000000000000000000000000000000000005f82015250565b5f6122026008836120b4565b915061220d826121ce565b600882019050919050565b5f612222826120e6565b915061222e8285612108565b9150612239826121ac565b91506122458284612108565b9150612250826121f6565b91508190509392505050565b5f61226682611696565b6122708185611e89565b93506122808185602086016116b0565b612289816116be565b840191505092915050565b5f6020820190508181035f8301526122ac818461225c565b905092915050565b5f6122bf8284612108565b915081905092915050565b7f496e76616c696420706f6c6963792074797065000000000000000000000000005f82015250565b5f6122fe601383611e89565b9150612309826122ca565b602082019050919050565b5f6020820190508181035f83015261232b816122f2565b9050919050565b7f5269736b206f662062616e6b7275707463793a2072656475636520746865206d5f8201527f617820706f6f6c2076616c756520666f72207468697320706f6c696379000000602082015250565b5f61238c603d83611e89565b915061239782612332565b604082019050919050565b5f6020820190508181035f8301526123b981612380565b9050919050565b5f6123ca826115eb565b91506123d5836115eb565b92508282026123e3816115eb565b915082820484148315176123fa576123f9611e29565b5b5092915050565b5f819050815f5260205f209050919050565b5f6020601f8301049050919050565b5f82821b905092915050565b5f6008830261245d7fffffffffffffffffffffffffffffffffffffffffffffffffffffffffffffffff82612422565b6124678683612422565b95508019841693508086168417925050509392505050565b5f61249961249461248f846115eb565b611db5565b6115eb565b9050919050565b5f819050919050565b6124b28361247f565b6124c66124be826124a0565b84845461242e565b825550505050565b5f90565b6124da6124ce565b6124e58184846124a9565b505050565b5b81811015612508576124fd5f826124d2565b6001810190506124eb565b5050565b601f82111561254d5761251e81612401565b61252784612413565b81016020851015612536578190505b61254a61254285612413565b8301826124ea565b50505b505050565b5f82821c905092915050565b5f61256d5f1984600802612552565b1980831691505092915050565b5f612585838361255e565b9150826002028217905092915050565b61259e82611696565b67ffffffffffffffff8111156125b7576125b6611934565b5b6125c18254611ffe565b6125cc82828561250c565b5f60209050601f8311600181146125fd575f84156125eb578287015190505b6125f5858261257a565b86555061265c565b601f19841661260b86612401565b5f5b828110156126325784890151825560018201915060208501945060208101905061260d565b8683101561264f578489015161264b601f89168261255e565b8355505b6001600288020188555050505b505050505050565b5f6060820190506126775f830186611904565b8181036020830152612689818561225c565b905061269860408301846118dc565b949350505050565b7f416d6f756e74206d7573742062652067726561746572207468616e207a65726f5f82015250565b5f6126d4602083611e89565b91506126df826126a0565b602082019050919050565b5f6020820190508181035f830152612701816126c8565b9050919050565b5f60608201905061271b5f8301866118dc565b61272860208301856118dc565b6127356040830184611904565b949350505050565b5f8151905061274b81611bac565b92915050565b5f60208284031215612766576127656115e3565b5b5f6127738482850161273d565b91505092915050565b7f546f6b656e207472616e73666572206661696c656400000000000000000000005f82015250565b5f6127b0601583611e89565b91506127bb8261277c565b602082019050919050565b5f6020820190508181035f8301526127dd816127a4565b9050919050565b5f6127ee826115eb565b91506127f9836115eb565b925082820390508181111561281157612810611e29565b5b92915050565b7f4e487b71000000000000000000000000000000000000000000000000000000005f52601260045260245ffdfea2646970667358221220cf17eca865d161b97d3a7d8c64a3f096c1ddfb4544d57b9407c10cffbd39e57464736f6c634300081a0033",
			"opcodes": "PUSH1 0x80 PUSH1 0x40 MSTORE TIMESTAMP PUSH1 0x3 SSTORE CALLVALUE DUP1 ISZERO PUSH2 0x13 JUMPI PUSH0 DUP1 REVERT JUMPDEST POP PUSH1 0x40 MLOAD PUSH2 0x2CC6 CODESIZE SUB DUP1 PUSH2 0x2CC6 DUP4 CODECOPY DUP2 DUP2 ADD PUSH1 0x40 MSTORE DUP2 ADD SWAP1 PUSH2 0x35 SWAP2 SWAP1 PUSH2 0x2C8 JUMP JUMPDEST CALLER PUSH0 PUSH20 0xFFFFFFFFFFFFFFFFFFFFFFFFFFFFFFFFFFFFFFFF AND DUP2 PUSH20 0xFFFFFFFFFFFFFFFFFFFFFFFFFFFFFFFFFFFFFFFF AND SUB PUSH2 0xA6 JUMPI PUSH0 PUSH1 0x40 MLOAD PUSH32 0x1E4FBDF700000000000000000000000000000000000000000000000000000000 DUP2 MSTORE PUSH1 0x4 ADD PUSH2 0x9D SWAP2 SWAP1 PUSH2 0x302 JUMP JUMPDEST PUSH1 0x40 MLOAD DUP1 SWAP2 SUB SWAP1 REVERT JUMPDEST PUSH2 0xB5 DUP2 PUSH2 0x198 PUSH1 0x20 SHL PUSH1 0x20 SHR JUMP JUMPDEST POP DUP1 PUSH1 0x1 PUSH0 PUSH2 0x100 EXP DUP2 SLOAD DUP2 PUSH20 0xFFFFFFFFFFFFFFFFFFFFFFFFFFFFFFFFFFFFFFFF MUL NOT AND SWAP1 DUP4 PUSH20 0xFFFFFFFFFFFFFFFFFFFFFFFFFFFFFFFFFFFFFFFF AND MUL OR SWAP1 SSTORE POP PUSH1 0x1 PUSH1 0x2 PUSH1 0x40 MLOAD PUSH2 0x106 SWAP1 PUSH2 0x36F JUMP JUMPDEST SWAP1 DUP2 MSTORE PUSH1 0x20 ADD PUSH1 0x40 MLOAD DUP1 SWAP2 SUB SWAP1 KECCAK256 PUSH0 PUSH2 0x100 EXP DUP2 SLOAD DUP2 PUSH1 0xFF MUL NOT AND SWAP1 DUP4 ISZERO ISZERO MUL OR SWAP1 SSTORE POP PUSH1 0x1 PUSH1 0x2 PUSH1 0x40 MLOAD PUSH2 0x13A SWAP1 PUSH2 0x3CD JUMP JUMPDEST SWAP1 DUP2 MSTORE PUSH1 0x20 ADD PUSH1 0x40 MLOAD DUP1 SWAP2 SUB SWAP1 KECCAK256 PUSH0 PUSH2 0x100 EXP DUP2 SLOAD DUP2 PUSH1 0xFF MUL NOT AND SWAP1 DUP4 ISZERO ISZERO MUL OR SWAP1 SSTORE POP PUSH1 0x1 PUSH1 0x2 PUSH1 0x40 MLOAD PUSH2 0x16E SWAP1 PUSH2 0x42B JUMP JUMPDEST SWAP1 DUP2 MSTORE PUSH1 0x20 ADD PUSH1 0x40 MLOAD DUP1 SWAP2 SUB SWAP1 KECCAK256 PUSH0 PUSH2 0x100 EXP DUP2 SLOAD DUP2 PUSH1 0xFF MUL NOT AND SWAP1 DUP4 ISZERO ISZERO MUL OR SWAP1 SSTORE POP POP PUSH2 0x43F JUMP JUMPDEST PUSH0 DUP1 PUSH0 SWAP1 SLOAD SWAP1 PUSH2 0x100 EXP SWAP1 DIV PUSH20 0xFFFFFFFFFFFFFFFFFFFFFFFFFFFFFFFFFFFFFFFF AND SWAP1 POP DUP2 PUSH0 DUP1 PUSH2 0x100 EXP DUP2 SLOAD DUP2 PUSH20 0xFFFFFFFFFFFFFFFFFFFFFFFFFFFFFFFFFFFFFFFF MUL NOT AND SWAP1 DUP4 PUSH20 0xFFFFFFFFFFFFFFFFFFFFFFFFFFFFFFFFFFFFFFFF AND MUL OR SWAP1 SSTORE POP DUP2 PUSH20 0xFFFFFFFFFFFFFFFFFFFFFFFFFFFFFFFFFFFFFFFF AND DUP2 PUSH20 0xFFFFFFFFFFFFFFFFFFFFFFFFFFFFFFFFFFFFFFFF AND PUSH32 0x8BE0079C531659141344CD1FD0A4F28419497F9722A3DAAFE3B4186F6B6457E0 PUSH1 0x40 MLOAD PUSH1 0x40 MLOAD DUP1 SWAP2 SUB SWAP1 LOG3 POP POP JUMP JUMPDEST PUSH0 DUP1 REVERT JUMPDEST PUSH0 PUSH20 0xFFFFFFFFFFFFFFFFFFFFFFFFFFFFFFFFFFFFFFFF DUP3 AND SWAP1 POP SWAP2 SWAP1 POP JUMP JUMPDEST PUSH0 PUSH2 0x286 DUP3 PUSH2 0x25D JUMP JUMPDEST SWAP1 POP SWAP2 SWAP1 POP JUMP JUMPDEST PUSH0 PUSH2 0x297 DUP3 PUSH2 0x27C JUMP JUMPDEST SWAP1 POP SWAP2 SWAP1 POP JUMP JUMPDEST PUSH2 0x2A7 DUP2 PUSH2 0x28D JUMP JUMPDEST DUP2 EQ PUSH2 0x2B1 JUMPI PUSH0 DUP1 REVERT JUMPDEST POP JUMP JUMPDEST PUSH0 DUP2 MLOAD SWAP1 POP PUSH2 0x2C2 DUP2 PUSH2 0x29E JUMP JUMPDEST SWAP3 SWAP2 POP POP JUMP JUMPDEST PUSH0 PUSH1 0x20 DUP3 DUP5 SUB SLT ISZERO PUSH2 0x2DD JUMPI PUSH2 0x2DC PUSH2 0x259 JUMP JUMPDEST JUMPDEST PUSH0 PUSH2 0x2EA DUP5 DUP3 DUP6 ADD PUSH2 0x2B4 JUMP JUMPDEST SWAP2 POP POP SWAP3 SWAP2 POP POP JUMP JUMPDEST PUSH2 0x2FC DUP2 PUSH2 0x27C JUMP JUMPDEST DUP3 MSTORE POP POP JUMP JUMPDEST PUSH0 PUSH1 0x20 DUP3 ADD SWAP1 POP PUSH2 0x315 PUSH0 DUP4 ADD DUP5 PUSH2 0x2F3 JUMP JUMPDEST SWAP3 SWAP2 POP POP JUMP JUMPDEST PUSH0 DUP2 SWAP1 POP SWAP3 SWAP2 POP POP JUMP JUMPDEST PUSH32 0x54726176656C0000000000000000000000000000000000000000000000000000 PUSH0 DUP3 ADD MSTORE POP JUMP JUMPDEST PUSH0 PUSH2 0x359 PUSH1 0x6 DUP4 PUSH2 0x31B JUMP JUMPDEST SWAP2 POP PUSH2 0x364 DUP3 PUSH2 0x325 JUMP JUMPDEST PUSH1 0x6 DUP3 ADD SWAP1 POP SWAP2 SWAP1 POP JUMP JUMPDEST PUSH0 PUSH2 0x379 DUP3 PUSH2 0x34D JUMP JUMPDEST SWAP2 POP DUP2 SWAP1 POP SWAP2 SWAP1 POP JUMP JUMPDEST PUSH32 0x50726F7065727479000000000000000000000000000000000000000000000000 PUSH0 DUP3 ADD MSTORE POP JUMP JUMPDEST PUSH0 PUSH2 0x3B7 PUSH1 0x8 DUP4 PUSH2 0x31B JUMP JUMPDEST SWAP2 POP PUSH2 0x3C2 DUP3 PUSH2 0x383 JUMP JUMPDEST PUSH1 0x8 DUP3 ADD SWAP1 POP SWAP2 SWAP1 POP JUMP JUMPDEST PUSH0 PUSH2 0x3D7 DUP3 PUSH2 0x3AB JUMP JUMPDEST SWAP2 POP DUP2 SWAP1 POP SWAP2 SWAP1 POP JUMP JUMPDEST PUSH32 0x4C69666500000000000000000000000000000000000000000000000000000000 PUSH0 DUP3 ADD MSTORE POP JUMP JUMPDEST PUSH0 PUSH2 0x415 PUSH1 0x4 DUP4 PUSH2 0x31B JUMP JUMPDEST SWAP2 POP PUSH2 0x420 DUP3 PUSH2 0x3E1 JUMP JUMPDEST PUSH1 0x4 DUP3 ADD SWAP1 POP SWAP2 SWAP1 POP JUMP JUMPDEST PUSH0 PUSH2 0x435 DUP3 PUSH2 0x409 JUMP JUMPDEST SWAP2 POP DUP2 SWAP1 POP SWAP2 SWAP1 POP JUMP JUMPDEST PUSH2 0x287A DUP1 PUSH2 0x44C PUSH0 CODECOPY PUSH0 RETURN INVALID PUSH1 0x80 PUSH1 0x40 MSTORE CALLVALUE DUP1 ISZERO PUSH2 0xF JUMPI PUSH0 DUP1 REVERT JUMPDEST POP PUSH1 0x4 CALLDATASIZE LT PUSH2 0xB2 JUMPI PUSH0 CALLDATALOAD PUSH1 0xE0 SHR DUP1 PUSH4 0xA719A9CB GT PUSH2 0x6F JUMPI DUP1 PUSH4 0xA719A9CB EQ PUSH2 0x164 JUMPI DUP1 PUSH4 0xBCC46E83 EQ PUSH2 0x180 JUMPI DUP1 PUSH4 0xDC156A27 EQ PUSH2 0x19C JUMPI DUP1 PUSH4 0xDE54D429 EQ PUSH2 0x1CC JUMPI DUP1 PUSH4 0xF2FDE38B EQ PUSH2 0x1EA JUMPI DUP1 PUSH4 0xFC0C546A EQ PUSH2 0x206 JUMPI PUSH2 0xB2 JUMP JUMPDEST DUP1 PUSH4 0xC6AB3FA EQ PUSH2 0xB6 JUMPI DUP1 PUSH4 0x2B07FCE3 EQ PUSH2 0xD2 JUMPI DUP1 PUSH4 0x715018A6 EQ PUSH2 0x102 JUMPI DUP1 PUSH4 0x8DA5CB5B EQ PUSH2 0x10C JUMPI DUP1 PUSH4 0x96945F3E EQ PUSH2 0x12A JUMPI DUP1 PUSH4 0x9D3DB268 EQ PUSH2 0x146 JUMPI JUMPDEST PUSH0 DUP1 REVERT JUMPDEST PUSH2 0xD0 PUSH1 0x4 DUP1 CALLDATASIZE SUB DUP2 ADD SWAP1 PUSH2 0xCB SWAP2 SWAP1 PUSH2 0x161E JUMP JUMPDEST PUSH2 0x224 JUMP JUMPDEST STOP JUMPDEST PUSH2 0xEC PUSH1 0x4 DUP1 CALLDATASIZE SUB DUP2 ADD SWAP1 PUSH2 0xE7 SWAP2 SWAP1 PUSH2 0x165C JUMP JUMPDEST PUSH2 0x2E1 JUMP JUMPDEST PUSH1 0x40 MLOAD PUSH2 0xF9 SWAP2 SWAP1 PUSH2 0x18BC JUMP JUMPDEST PUSH1 0x40 MLOAD DUP1 SWAP2 SUB SWAP1 RETURN JUMPDEST PUSH2 0x10A PUSH2 0x594 JUMP JUMPDEST STOP JUMPDEST PUSH2 0x114 PUSH2 0x5A7 JUMP JUMPDEST PUSH1 0x40 MLOAD PUSH2 0x121 SWAP2 SWAP1 PUSH2 0x18EB JUMP JUMPDEST PUSH1 0x40 MLOAD DUP1 SWAP2 SUB SWAP1 RETURN JUMPDEST PUSH2 0x144 PUSH1 0x4 DUP1 CALLDATASIZE SUB DUP2 ADD SWAP1 PUSH2 0x13F SWAP2 SWAP1 PUSH2 0x165C JUMP JUMPDEST PUSH2 0x5CE JUMP JUMPDEST STOP JUMPDEST PUSH2 0x14E PUSH2 0x659 JUMP JUMPDEST PUSH1 0x40 MLOAD PUSH2 0x15B SWAP2 SWAP1 PUSH2 0x1913 JUMP JUMPDEST PUSH1 0x40 MLOAD DUP1 SWAP2 SUB SWAP1 RETURN JUMPDEST PUSH2 0x17E PUSH1 0x4 DUP1 CALLDATASIZE SUB DUP2 ADD SWAP1 PUSH2 0x179 SWAP2 SWAP1 PUSH2 0x1A58 JUMP JUMPDEST PUSH2 0x8F1 JUMP JUMPDEST STOP JUMPDEST PUSH2 0x19A PUSH1 0x4 DUP1 CALLDATASIZE SUB DUP2 ADD SWAP1 PUSH2 0x195 SWAP2 SWAP1 PUSH2 0x165C JUMP JUMPDEST PUSH2 0xE7D JUMP JUMPDEST STOP JUMPDEST PUSH2 0x1B6 PUSH1 0x4 DUP1 CALLDATASIZE SUB DUP2 ADD SWAP1 PUSH2 0x1B1 SWAP2 SWAP1 PUSH2 0x1D43 JUMP JUMPDEST PUSH2 0xF9F JUMP JUMPDEST PUSH1 0x40 MLOAD PUSH2 0x1C3 SWAP2 SWAP1 PUSH2 0x1913 JUMP JUMPDEST PUSH1 0x40 MLOAD DUP1 SWAP2 SUB SWAP1 RETURN JUMPDEST PUSH2 0x1D4 PUSH2 0xFF0 JUMP JUMPDEST PUSH1 0x40 MLOAD PUSH2 0x1E1 SWAP2 SWAP1 PUSH2 0x1913 JUMP JUMPDEST PUSH1 0x40 MLOAD DUP1 SWAP2 SUB SWAP1 RETURN JUMPDEST PUSH2 0x204 PUSH1 0x4 DUP1 CALLDATASIZE SUB DUP2 ADD SWAP1 PUSH2 0x1FF SWAP2 SWAP1 PUSH2 0x1D8A JUMP JUMPDEST PUSH2 0xFF6 JUMP JUMPDEST STOP JUMPDEST PUSH2 0x20E PUSH2 0x107A JUMP JUMPDEST PUSH1 0x40 MLOAD PUSH2 0x21B SWAP2 SWAP1 PUSH2 0x1E10 JUMP JUMPDEST PUSH1 0x40 MLOAD DUP1 SWAP2 SUB SWAP1 RETURN JUMPDEST PUSH0 PUSH1 0x5 PUSH0 DUP5 DUP2 MSTORE PUSH1 0x20 ADD SWAP1 DUP2 MSTORE PUSH1 0x20 ADD PUSH0 KECCAK256 SWAP1 POP DUP1 PUSH1 0x8 ADD SLOAD DUP2 PUSH1 0x7 ADD SLOAD PUSH2 0x24C SWAP2 SWAP1 PUSH2 0x1E56 JUMP JUMPDEST TIMESTAMP GT ISZERO PUSH2 0x28E JUMPI PUSH1 0x40 MLOAD PUSH32 0x8C379A000000000000000000000000000000000000000000000000000000000 DUP2 MSTORE PUSH1 0x4 ADD PUSH2 0x285 SWAP1 PUSH2 0x1EE3 JUMP JUMPDEST PUSH1 0x40 MLOAD DUP1 SWAP2 SUB SWAP1 REVERT JUMPDEST DUP3 DUP2 PUSH0 ADD SLOAD EQ PUSH2 0x2D3 JUMPI PUSH1 0x40 MLOAD PUSH32 0x8C379A000000000000000000000000000000000000000000000000000000000 DUP2 MSTORE PUSH1 0x4 ADD PUSH2 0x2CA SWAP1 PUSH2 0x1F4B JUMP JUMPDEST PUSH1 0x40 MLOAD DUP1 SWAP2 SUB SWAP1 REVERT JUMPDEST DUP2 DUP2 PUSH1 0x5 ADD DUP2 SWAP1 SSTORE POP POP POP POP JUMP JUMPDEST PUSH2 0x2E9 PUSH2 0x1539 JUMP JUMPDEST PUSH0 DUP3 GT DUP1 ISZERO PUSH2 0x2FA JUMPI POP PUSH1 0x4 SLOAD DUP3 GT ISZERO JUMPDEST PUSH2 0x339 JUMPI PUSH1 0x40 MLOAD PUSH32 0x8C379A000000000000000000000000000000000000000000000000000000000 DUP2 MSTORE PUSH1 0x4 ADD PUSH2 0x330 SWAP1 PUSH2 0x1FB3 JUMP JUMPDEST PUSH1 0x40 MLOAD DUP1 SWAP2 SUB SWAP1 REVERT JUMPDEST PUSH1 0x5 PUSH0 DUP4 DUP2 MSTORE PUSH1 0x20 ADD SWAP1 DUP2 MSTORE PUSH1 0x20 ADD PUSH0 KECCAK256 PUSH1 0x40 MLOAD DUP1 PUSH2 0x1A0 ADD PUSH1 0x40 MSTORE SWAP1 DUP2 PUSH0 DUP3 ADD SLOAD DUP2 MSTORE PUSH1 0x20 ADD PUSH1 0x1 DUP3 ADD DUP1 SLOAD PUSH2 0x36F SWAP1 PUSH2 0x1FFE JUMP JUMPDEST DUP1 PUSH1 0x1F ADD PUSH1 0x20 DUP1 SWAP2 DIV MUL PUSH1 0x20 ADD PUSH1 0x40 MLOAD SWAP1 DUP2 ADD PUSH1 0x40 MSTORE DUP1 SWAP3 SWAP2 SWAP1 DUP2 DUP2 MSTORE PUSH1 0x20 ADD DUP3 DUP1 SLOAD PUSH2 0x39B SWAP1 PUSH2 0x1FFE JUMP JUMPDEST DUP1 ISZERO PUSH2 0x3E6 JUMPI DUP1 PUSH1 0x1F LT PUSH2 0x3BD JUMPI PUSH2 0x100 DUP1 DUP4 SLOAD DIV MUL DUP4 MSTORE SWAP2 PUSH1 0x20 ADD SWAP2 PUSH2 0x3E6 JUMP JUMPDEST DUP3 ADD SWAP2 SWAP1 PUSH0 MSTORE PUSH1 0x20 PUSH0 KECCAK256 SWAP1 JUMPDEST DUP2 SLOAD DUP2 MSTORE SWAP1 PUSH1 0x1 ADD SWAP1 PUSH1 0x20 ADD DUP1 DUP4 GT PUSH2 0x3C9 JUMPI DUP3 SWAP1 SUB PUSH1 0x1F AND DUP3 ADD SWAP2 JUMPDEST POP POP POP POP POP DUP2 MSTORE PUSH1 0x20 ADD PUSH1 0x2 DUP3 ADD DUP1 SLOAD PUSH2 0x3FF SWAP1 PUSH2 0x1FFE JUMP JUMPDEST DUP1 PUSH1 0x1F ADD PUSH1 0x20 DUP1 SWAP2 DIV MUL PUSH1 0x20 ADD PUSH1 0x40 MLOAD SWAP1 DUP2 ADD PUSH1 0x40 MSTORE DUP1 SWAP3 SWAP2 SWAP1 DUP2 DUP2 MSTORE PUSH1 0x20 ADD DUP3 DUP1 SLOAD PUSH2 0x42B SWAP1 PUSH2 0x1FFE JUMP JUMPDEST DUP1 ISZERO PUSH2 0x476 JUMPI DUP1 PUSH1 0x1F LT PUSH2 0x44D JUMPI PUSH2 0x100 DUP1 DUP4 SLOAD DIV MUL DUP4 MSTORE SWAP2 PUSH1 0x20 ADD SWAP2 PUSH2 0x476 JUMP JUMPDEST DUP3 ADD SWAP2 SWAP1 PUSH0 MSTORE PUSH1 0x20 PUSH0 KECCAK256 SWAP1 JUMPDEST DUP2 SLOAD DUP2 MSTORE SWAP1 PUSH1 0x1 ADD SWAP1 PUSH1 0x20 ADD DUP1 DUP4 GT PUSH2 0x459 JUMPI DUP3 SWAP1 SUB PUSH1 0x1F AND DUP3 ADD SWAP2 JUMPDEST POP POP POP POP POP DUP2 MSTORE PUSH1 0x20 ADD PUSH1 0x3 DUP3 ADD SLOAD DUP2 MSTORE PUSH1 0x20 ADD PUSH1 0x4 DUP3 ADD SLOAD DUP2 MSTORE PUSH1 0x20 ADD PUSH1 0x5 DUP3 ADD SLOAD DUP2 MSTORE PUSH1 0x20 ADD PUSH1 0x6 DUP3 ADD SLOAD DUP2 MSTORE PUSH1 0x20 ADD PUSH1 0x7 DUP3 ADD SLOAD DUP2 MSTORE PUSH1 0x20 ADD PUSH1 0x8 DUP3 ADD SLOAD DUP2 MSTORE PUSH1 0x20 ADD PUSH1 0x9 DUP3 ADD PUSH1 0x40 MLOAD DUP1 PUSH1 0x60 ADD PUSH1 0x40 MSTORE SWAP1 DUP2 PUSH0 DUP3 ADD SLOAD DUP2 MSTORE PUSH1 0x20 ADD PUSH1 0x1 DUP3 ADD SLOAD DUP2 MSTORE PUSH1 0x20 ADD PUSH1 0x2 DUP3 ADD SLOAD DUP2 MSTORE POP POP DUP2 MSTORE PUSH1 0x20 ADD PUSH1 0xC DUP3 ADD PUSH1 0x40 MLOAD DUP1 PUSH1 0x60 ADD PUSH1 0x40 MSTORE SWAP1 DUP2 PUSH0 DUP3 ADD SLOAD DUP2 MSTORE PUSH1 0x20 ADD PUSH1 0x1 DUP3 ADD SLOAD DUP2 MSTORE PUSH1 0x20 ADD PUSH1 0x2 DUP3 ADD SLOAD DUP2 MSTORE POP POP DUP2 MSTORE PUSH1 0x20 ADD PUSH1 0xF DUP3 ADD PUSH0 SWAP1 SLOAD SWAP1 PUSH2 0x100 EXP SWAP1 DIV PUSH20 0xFFFFFFFFFFFFFFFFFFFFFFFFFFFFFFFFFFFFFFFF AND PUSH20 0xFFFFFFFFFFFFFFFFFFFFFFFFFFFFFFFFFFFFFFFF AND PUSH20 0xFFFFFFFFFFFFFFFFFFFFFFFFFFFFFFFFFFFFFFFF AND DUP2 MSTORE PUSH1 0x20 ADD PUSH1 0xF DUP3 ADD PUSH1 0x14 SWAP1 SLOAD SWAP1 PUSH2 0x100 EXP SWAP1 DIV PUSH1 0xFF AND ISZERO ISZERO ISZERO ISZERO DUP2 MSTORE POP POP SWAP1 POP SWAP2 SWAP1 POP JUMP JUMPDEST PUSH2 0x59C PUSH2 0x109F JUMP JUMPDEST PUSH2 0x5A5 PUSH0 PUSH2 0x1126 JUMP JUMPDEST JUMP JUMPDEST PUSH0 DUP1 PUSH0 SWAP1 SLOAD SWAP1 PUSH2 0x100 EXP SWAP1 DIV PUSH20 0xFFFFFFFFFFFFFFFFFFFFFFFFFFFFFFFFFFFFFFFF AND SWAP1 POP SWAP1 JUMP JUMPDEST PUSH0 PUSH1 0x5 PUSH0 DUP4 DUP2 MSTORE PUSH1 0x20 ADD SWAP1 DUP2 MSTORE PUSH1 0x20 ADD PUSH0 KECCAK256 SWAP1 POP DUP2 DUP2 PUSH0 ADD SLOAD EQ PUSH2 0x627 JUMPI PUSH1 0x40 MLOAD PUSH32 0x8C379A000000000000000000000000000000000000000000000000000000000 DUP2 MSTORE PUSH1 0x4 ADD PUSH2 0x61E SWAP1 PUSH2 0x1F4B JUMP JUMPDEST PUSH1 0x40 MLOAD DUP1 SWAP2 SUB SWAP1 REVERT JUMPDEST DUP1 PUSH1 0xF ADD PUSH1 0x14 SWAP1 SLOAD SWAP1 PUSH2 0x100 EXP SWAP1 DIV PUSH1 0xFF AND ISZERO DUP2 PUSH1 0xF ADD PUSH1 0x14 PUSH2 0x100 EXP DUP2 SLOAD DUP2 PUSH1 0xFF MUL NOT AND SWAP1 DUP4 ISZERO ISZERO MUL OR SWAP1 SSTORE POP POP POP JUMP JUMPDEST PUSH0 DUP1 PUSH0 SWAP1 POP PUSH0 PUSH1 0x1 SWAP1 POP JUMPDEST PUSH1 0x4 SLOAD DUP2 GT PUSH2 0x8E9 JUMPI PUSH2 0x8C9 PUSH1 0x5 PUSH0 DUP4 DUP2 MSTORE PUSH1 0x20 ADD SWAP1 DUP2 MSTORE PUSH1 0x20 ADD PUSH0 KECCAK256 PUSH1 0x40 MLOAD DUP1 PUSH2 0x1A0 ADD PUSH1 0x40 MSTORE SWAP1 DUP2 PUSH0 DUP3 ADD SLOAD DUP2 MSTORE PUSH1 0x20 ADD PUSH1 0x1 DUP3 ADD DUP1 SLOAD PUSH2 0x6A6 SWAP1 PUSH2 0x1FFE JUMP JUMPDEST DUP1 PUSH1 0x1F ADD PUSH1 0x20 DUP1 SWAP2 DIV MUL PUSH1 0x20 ADD PUSH1 0x40 MLOAD SWAP1 DUP2 ADD PUSH1 0x40 MSTORE DUP1 SWAP3 SWAP2 SWAP1 DUP2 DUP2 MSTORE PUSH1 0x20 ADD DUP3 DUP1 SLOAD PUSH2 0x6D2 SWAP1 PUSH2 0x1FFE JUMP JUMPDEST DUP1 ISZERO PUSH2 0x71D JUMPI DUP1 PUSH1 0x1F LT PUSH2 0x6F4 JUMPI PUSH2 0x100 DUP1 DUP4 SLOAD DIV MUL DUP4 MSTORE SWAP2 PUSH1 0x20 ADD SWAP2 PUSH2 0x71D JUMP JUMPDEST DUP3 ADD SWAP2 SWAP1 PUSH0 MSTORE PUSH1 0x20 PUSH0 KECCAK256 SWAP1 JUMPDEST DUP2 SLOAD DUP2 MSTORE SWAP1 PUSH1 0x1 ADD SWAP1 PUSH1 0x20 ADD DUP1 DUP4 GT PUSH2 0x700 JUMPI DUP3 SWAP1 SUB PUSH1 0x1F AND DUP3 ADD SWAP2 JUMPDEST POP POP POP POP POP DUP2 MSTORE PUSH1 0x20 ADD PUSH1 0x2 DUP3 ADD DUP1 SLOAD PUSH2 0x736 SWAP1 PUSH2 0x1FFE JUMP JUMPDEST DUP1 PUSH1 0x1F ADD PUSH1 0x20 DUP1 SWAP2 DIV MUL PUSH1 0x20 ADD PUSH1 0x40 MLOAD SWAP1 DUP2 ADD PUSH1 0x40 MSTORE DUP1 SWAP3 SWAP2 SWAP1 DUP2 DUP2 MSTORE PUSH1 0x20 ADD DUP3 DUP1 SLOAD PUSH2 0x762 SWAP1 PUSH2 0x1FFE JUMP JUMPDEST DUP1 ISZERO PUSH2 0x7AD JUMPI DUP1 PUSH1 0x1F LT PUSH2 0x784 JUMPI PUSH2 0x100 DUP1 DUP4 SLOAD DIV MUL DUP4 MSTORE SWAP2 PUSH1 0x20 ADD SWAP2 PUSH2 0x7AD JUMP JUMPDEST DUP3 ADD SWAP2 SWAP1 PUSH0 MSTORE PUSH1 0x20 PUSH0 KECCAK256 SWAP1 JUMPDEST DUP2 SLOAD DUP2 MSTORE SWAP1 PUSH1 0x1 ADD SWAP1 PUSH1 0x20 ADD DUP1 DUP4 GT PUSH2 0x790 JUMPI DUP3 SWAP1 SUB PUSH1 0x1F AND DUP3 ADD SWAP2 JUMPDEST POP POP POP POP POP DUP2 MSTORE PUSH1 0x20 ADD PUSH1 0x3 DUP3 ADD SLOAD DUP2 MSTORE PUSH1 0x20 ADD PUSH1 0x4 DUP3 ADD SLOAD DUP2 MSTORE PUSH1 0x20 ADD PUSH1 0x5 DUP3 ADD SLOAD DUP2 MSTORE PUSH1 0x20 ADD PUSH1 0x6 DUP3 ADD SLOAD DUP2 MSTORE PUSH1 0x20 ADD PUSH1 0x7 DUP3 ADD SLOAD DUP2 MSTORE PUSH1 0x20 ADD PUSH1 0x8 DUP3 ADD SLOAD DUP2 MSTORE PUSH1 0x20 ADD PUSH1 0x9 DUP3 ADD PUSH1 0x40 MLOAD DUP1 PUSH1 0x60 ADD PUSH1 0x40 MSTORE SWAP1 DUP2 PUSH0 DUP3 ADD SLOAD DUP2 MSTORE PUSH1 0x20 ADD PUSH1 0x1 DUP3 ADD SLOAD DUP2 MSTORE PUSH1 0x20 ADD PUSH1 0x2 DUP3 ADD SLOAD DUP2 MSTORE POP POP DUP2 MSTORE PUSH1 0x20 ADD PUSH1 0xC DUP3 ADD PUSH1 0x40 MLOAD DUP1 PUSH1 0x60 ADD PUSH1 0x40 MSTORE SWAP1 DUP2 PUSH0 DUP3 ADD SLOAD DUP2 MSTORE PUSH1 0x20 ADD PUSH1 0x1 DUP3 ADD SLOAD DUP2 MSTORE PUSH1 0x20 ADD PUSH1 0x2 DUP3 ADD SLOAD DUP2 MSTORE POP POP DUP2 MSTORE PUSH1 0x20 ADD PUSH1 0xF DUP3 ADD PUSH0 SWAP1 SLOAD SWAP1 PUSH2 0x100 EXP SWAP1 DIV PUSH20 0xFFFFFFFFFFFFFFFFFFFFFFFFFFFFFFFFFFFFFFFF AND PUSH20 0xFFFFFFFFFFFFFFFFFFFFFFFFFFFFFFFFFFFFFFFF AND PUSH20 0xFFFFFFFFFFFFFFFFFFFFFFFFFFFFFFFFFFFFFFFF AND DUP2 MSTORE PUSH1 0x20 ADD PUSH1 0xF DUP3 ADD PUSH1 0x14 SWAP1 SLOAD SWAP1 PUSH2 0x100 EXP SWAP1 DIV PUSH1 0xFF AND ISZERO ISZERO ISZERO ISZERO DUP2 MSTORE POP POP PUSH2 0xF9F JUMP JUMPDEST DUP3 PUSH2 0x8D4 SWAP2 SWAP1 PUSH2 0x1E56 JUMP JUMPDEST SWAP2 POP DUP1 DUP1 PUSH2 0x8E1 SWAP1 PUSH2 0x202E JUMP JUMPDEST SWAP2 POP POP PUSH2 0x664 JUMP JUMPDEST POP DUP1 SWAP2 POP POP SWAP1 JUMP JUMPDEST DUP3 DUP1 PUSH1 0x1 PUSH0 SWAP1 SLOAD SWAP1 PUSH2 0x100 EXP SWAP1 DIV PUSH20 0xFFFFFFFFFFFFFFFFFFFFFFFFFFFFFFFFFFFFFFFF AND PUSH20 0xFFFFFFFFFFFFFFFFFFFFFFFFFFFFFFFFFFFFFFFF AND PUSH4 0x70A08231 CALLER PUSH1 0x40 MLOAD DUP3 PUSH4 0xFFFFFFFF AND PUSH1 0xE0 SHL DUP2 MSTORE PUSH1 0x4 ADD PUSH2 0x94D SWAP2 SWAP1 PUSH2 0x18EB JUMP JUMPDEST PUSH1 0x20 PUSH1 0x40 MLOAD DUP1 DUP4 SUB DUP2 DUP7 GAS STATICCALL ISZERO DUP1 ISZERO PUSH2 0x968 JUMPI RETURNDATASIZE PUSH0 DUP1 RETURNDATACOPY RETURNDATASIZE PUSH0 REVERT JUMPDEST POP POP POP POP PUSH1 0x40 MLOAD RETURNDATASIZE PUSH1 0x1F NOT PUSH1 0x1F DUP3 ADD AND DUP3 ADD DUP1 PUSH1 0x40 MSTORE POP DUP2 ADD SWAP1 PUSH2 0x98C SWAP2 SWAP1 PUSH2 0x2089 JUMP JUMPDEST LT ISZERO PUSH2 0xA2F PUSH1 0x1 PUSH0 SWAP1 SLOAD SWAP1 PUSH2 0x100 EXP SWAP1 DIV PUSH20 0xFFFFFFFFFFFFFFFFFFFFFFFFFFFFFFFFFFFFFFFF AND PUSH20 0xFFFFFFFFFFFFFFFFFFFFFFFFFFFFFFFFFFFFFFFF AND PUSH4 0x70A08231 CALLER PUSH1 0x40 MLOAD DUP3 PUSH4 0xFFFFFFFF AND PUSH1 0xE0 SHL DUP2 MSTORE PUSH1 0x4 ADD PUSH2 0x9EB SWAP2 SWAP1 PUSH2 0x18EB JUMP JUMPDEST PUSH1 0x20 PUSH1 0x40 MLOAD DUP1 DUP4 SUB DUP2 DUP7 GAS STATICCALL ISZERO DUP1 ISZERO PUSH2 0xA06 JUMPI RETURNDATASIZE PUSH0 DUP1 RETURNDATACOPY RETURNDATASIZE PUSH0 REVERT JUMPDEST POP POP POP POP PUSH1 0x40 MLOAD RETURNDATASIZE PUSH1 0x1F NOT PUSH1 0x1F DUP3 ADD AND DUP3 ADD DUP1 PUSH1 0x40 MSTORE POP DUP2 ADD SWAP1 PUSH2 0xA2A SWAP2 SWAP1 PUSH2 0x2089 JUMP JUMPDEST PUSH2 0x11E7 JUMP JUMPDEST PUSH2 0xA38 DUP4 PUSH2 0x11E7 JUMP JUMPDEST PUSH1 0x40 MLOAD PUSH1 0x20 ADD PUSH2 0xA49 SWAP3 SWAP2 SWAP1 PUSH2 0x2218 JUMP JUMPDEST PUSH1 0x40 MLOAD PUSH1 0x20 DUP2 DUP4 SUB SUB DUP2 MSTORE SWAP1 PUSH1 0x40 MSTORE SWAP1 PUSH2 0xA99 JUMPI PUSH1 0x40 MLOAD PUSH32 0x8C379A000000000000000000000000000000000000000000000000000000000 DUP2 MSTORE PUSH1 0x4 ADD PUSH2 0xA90 SWAP2 SWAP1 PUSH2 0x2294 JUMP JUMPDEST PUSH1 0x40 MLOAD DUP1 SWAP2 SUB SWAP1 REVERT JUMPDEST POP DUP6 PUSH1 0x2 DUP2 PUSH1 0x40 MLOAD PUSH2 0xAAB SWAP2 SWAP1 PUSH2 0x22B4 JUMP JUMPDEST SWAP1 DUP2 MSTORE PUSH1 0x20 ADD PUSH1 0x40 MLOAD DUP1 SWAP2 SUB SWAP1 KECCAK256 PUSH0 SWAP1 SLOAD SWAP1 PUSH2 0x100 EXP SWAP1 DIV PUSH1 0xFF AND PUSH2 0xB05 JUMPI PUSH1 0x40 MLOAD PUSH32 0x8C379A000000000000000000000000000000000000000000000000000000000 DUP2 MSTORE PUSH1 0x4 ADD PUSH2 0xAFC SWAP1 PUSH2 0x2314 JUMP JUMPDEST PUSH1 0x40 MLOAD DUP1 SWAP2 SUB SWAP1 REVERT JUMPDEST PUSH2 0xB0D PUSH2 0x659 JUMP JUMPDEST PUSH1 0x1 PUSH0 SWAP1 SLOAD SWAP1 PUSH2 0x100 EXP SWAP1 DIV PUSH20 0xFFFFFFFFFFFFFFFFFFFFFFFFFFFFFFFFFFFFFFFF AND PUSH20 0xFFFFFFFFFFFFFFFFFFFFFFFFFFFFFFFFFFFFFFFF AND PUSH4 0x70A08231 CALLER PUSH1 0x40 MLOAD DUP3 PUSH4 0xFFFFFFFF AND PUSH1 0xE0 SHL DUP2 MSTORE PUSH1 0x4 ADD PUSH2 0xB67 SWAP2 SWAP1 PUSH2 0x18EB JUMP JUMPDEST PUSH1 0x20 PUSH1 0x40 MLOAD DUP1 DUP4 SUB DUP2 DUP7 GAS STATICCALL ISZERO DUP1 ISZERO PUSH2 0xB82 JUMPI RETURNDATASIZE PUSH0 DUP1 RETURNDATACOPY RETURNDATASIZE PUSH0 REVERT JUMPDEST POP POP POP POP PUSH1 0x40 MLOAD RETURNDATASIZE PUSH1 0x1F NOT PUSH1 0x1F DUP3 ADD AND DUP3 ADD DUP1 PUSH1 0x40 MSTORE POP DUP2 ADD SWAP1 PUSH2 0xBA6 SWAP2 SWAP1 PUSH2 0x2089 JUMP JUMPDEST GT PUSH2 0xBE6 JUMPI PUSH1 0x40 MLOAD PUSH32 0x8C379A000000000000000000000000000000000000000000000000000000000 DUP2 MSTORE PUSH1 0x4 ADD PUSH2 0xBDD SWAP1 PUSH2 0x23A2 JUMP JUMPDEST PUSH1 0x40 MLOAD DUP1 SWAP2 SUB SWAP1 REVERT JUMPDEST PUSH1 0x4 PUSH0 DUP2 SLOAD DUP1 SWAP3 SWAP2 SWAP1 PUSH2 0xBF8 SWAP1 PUSH2 0x202E JUMP JUMPDEST SWAP2 SWAP1 POP SSTORE POP PUSH2 0xC05 PUSH2 0x15BC JUMP JUMPDEST PUSH2 0xC10 PUSH1 0x3 SLOAD PUSH2 0x12B1 JUMP JUMPDEST DUP4 PUSH0 ADD DUP5 PUSH1 0x20 ADD DUP6 PUSH1 0x40 ADD DUP4 DUP2 MSTORE POP DUP4 DUP2 MSTORE POP DUP4 DUP2 MSTORE POP POP POP POP PUSH0 PUSH3 0x15180 DUP6 PUSH2 0xC3A SWAP2 SWAP1 PUSH2 0x23C0 JUMP JUMPDEST PUSH1 0x3 SLOAD PUSH2 0xC47 SWAP2 SWAP1 PUSH2 0x1E56 JUMP JUMPDEST SWAP1 POP PUSH2 0xC51 PUSH2 0x15BC JUMP JUMPDEST PUSH2 0xC5A DUP3 PUSH2 0x12B1 JUMP JUMPDEST DUP4 PUSH0 ADD DUP5 PUSH1 0x20 ADD DUP6 PUSH1 0x40 ADD DUP4 DUP2 MSTORE POP DUP4 DUP2 MSTORE POP DUP4 DUP2 MSTORE POP POP POP POP PUSH1 0x40 MLOAD DUP1 PUSH2 0x1A0 ADD PUSH1 0x40 MSTORE DUP1 PUSH1 0x4 SLOAD DUP2 MSTORE PUSH1 0x20 ADD DUP13 DUP2 MSTORE PUSH1 0x20 ADD DUP12 DUP2 MSTORE PUSH1 0x20 ADD DUP11 DUP2 MSTORE PUSH1 0x20 ADD DUP10 DUP2 MSTORE PUSH1 0x20 ADD PUSH0 DUP2 MSTORE PUSH1 0x20 ADD DUP9 DUP2 MSTORE PUSH1 0x20 ADD TIMESTAMP DUP2 MSTORE PUSH1 0x20 ADD PUSH3 0x15180 DUP9 PUSH2 0xCC1 SWAP2 SWAP1 PUSH2 0x23C0 JUMP JUMPDEST DUP2 MSTORE PUSH1 0x20 ADD DUP5 DUP2 MSTORE PUSH1 0x20 ADD DUP3 DUP2 MSTORE PUSH1 0x20 ADD CALLER PUSH20 0xFFFFFFFFFFFFFFFFFFFFFFFFFFFFFFFFFFFFFFFF AND DUP2 MSTORE PUSH1 0x20 ADD PUSH0 ISZERO ISZERO DUP2 MSTORE POP PUSH1 0x5 PUSH0 PUSH1 0x4 SLOAD DUP2 MSTORE PUSH1 0x20 ADD SWAP1 DUP2 MSTORE PUSH1 0x20 ADD PUSH0 KECCAK256 PUSH0 DUP3 ADD MLOAD DUP2 PUSH0 ADD SSTORE PUSH1 0x20 DUP3 ADD MLOAD DUP2 PUSH1 0x1 ADD SWAP1 DUP2 PUSH2 0xD24 SWAP2 SWAP1 PUSH2 0x2595 JUMP JUMPDEST POP PUSH1 0x40 DUP3 ADD MLOAD DUP2 PUSH1 0x2 ADD SWAP1 DUP2 PUSH2 0xD3A SWAP2 SWAP1 PUSH2 0x2595 JUMP JUMPDEST POP PUSH1 0x60 DUP3 ADD MLOAD DUP2 PUSH1 0x3 ADD SSTORE PUSH1 0x80 DUP3 ADD MLOAD DUP2 PUSH1 0x4 ADD SSTORE PUSH1 0xA0 DUP3 ADD MLOAD DUP2 PUSH1 0x5 ADD SSTORE PUSH1 0xC0 DUP3 ADD MLOAD DUP2 PUSH1 0x6 ADD SSTORE PUSH1 0xE0 DUP3 ADD MLOAD DUP2 PUSH1 0x7 ADD SSTORE PUSH2 0x100 DUP3 ADD MLOAD DUP2 PUSH1 0x8 ADD SSTORE PUSH2 0x120 DUP3 ADD MLOAD DUP2 PUSH1 0x9 ADD PUSH0 DUP3 ADD MLOAD DUP2 PUSH0 ADD SSTORE PUSH1 0x20 DUP3 ADD MLOAD DUP2 PUSH1 0x1 ADD SSTORE PUSH1 0x40 DUP3 ADD MLOAD DUP2 PUSH1 0x2 ADD SSTORE POP POP PUSH2 0x140 DUP3 ADD MLOAD DUP2 PUSH1 0xC ADD PUSH0 DUP3 ADD MLOAD DUP2 PUSH0 ADD SSTORE PUSH1 0x20 DUP3 ADD MLOAD DUP2 PUSH1 0x1 ADD SSTORE PUSH1 0x40 DUP3 ADD MLOAD DUP2 PUSH1 0x2 ADD SSTORE POP POP PUSH2 0x160 DUP3 ADD MLOAD DUP2 PUSH1 0xF ADD PUSH0 PUSH2 0x100 EXP DUP2 SLOAD DUP2 PUSH20 0xFFFFFFFFFFFFFFFFFFFFFFFFFFFFFFFFFFFFFFFF MUL NOT AND SWAP1 DUP4 PUSH20 0xFFFFFFFFFFFFFFFFFFFFFFFFFFFFFFFFFFFFFFFF AND MUL OR SWAP1 SSTORE POP PUSH2 0x180 DUP3 ADD MLOAD DUP2 PUSH1 0xF ADD PUSH1 0x14 PUSH2 0x100 EXP DUP2 SLOAD DUP2 PUSH1 0xFF MUL NOT AND SWAP1 DUP4 ISZERO ISZERO MUL OR SWAP1 SSTORE POP SWAP1 POP POP PUSH32 0xE060903A71989416DB77650C9585ADBAE8F4FC8633A778A547D25E3C78789F4C PUSH1 0x4 SLOAD DUP13 CALLER PUSH1 0x40 MLOAD PUSH2 0xE68 SWAP4 SWAP3 SWAP2 SWAP1 PUSH2 0x2664 JUMP JUMPDEST PUSH1 0x40 MLOAD DUP1 SWAP2 SUB SWAP1 LOG1 POP POP POP POP POP POP POP POP POP POP POP JUMP JUMPDEST PUSH0 DUP2 GT PUSH2 0xEBF JUMPI PUSH1 0x40 MLOAD PUSH32 0x8C379A000000000000000000000000000000000000000000000000000000000 DUP2 MSTORE PUSH1 0x4 ADD PUSH2 0xEB6 SWAP1 PUSH2 0x26EA JUMP JUMPDEST PUSH1 0x40 MLOAD DUP1 SWAP2 SUB SWAP1 REVERT JUMPDEST PUSH1 0x1 PUSH0 SWAP1 SLOAD SWAP1 PUSH2 0x100 EXP SWAP1 DIV PUSH20 0xFFFFFFFFFFFFFFFFFFFFFFFFFFFFFFFFFFFFFFFF AND PUSH20 0xFFFFFFFFFFFFFFFFFFFFFFFFFFFFFFFFFFFFFFFF AND PUSH4 0x23B872DD CALLER ADDRESS DUP5 PUSH1 0x40 MLOAD DUP5 PUSH4 0xFFFFFFFF AND PUSH1 0xE0 SHL DUP2 MSTORE PUSH1 0x4 ADD PUSH2 0xF1D SWAP4 SWAP3 SWAP2 SWAP1 PUSH2 0x2708 JUMP JUMPDEST PUSH1 0x20 PUSH1 0x40 MLOAD DUP1 DUP4 SUB DUP2 PUSH0 DUP8 GAS CALL ISZERO DUP1 ISZERO PUSH2 0xF39 JUMPI RETURNDATASIZE PUSH0 DUP1 RETURNDATACOPY RETURNDATASIZE PUSH0 REVERT JUMPDEST POP POP POP POP PUSH1 0x40 MLOAD RETURNDATASIZE PUSH1 0x1F NOT PUSH1 0x1F DUP3 ADD AND DUP3 ADD DUP1 PUSH1 0x40 MSTORE POP DUP2 ADD SWAP1 PUSH2 0xF5D SWAP2 SWAP1 PUSH2 0x2751 JUMP JUMPDEST PUSH2 0xF9C JUMPI PUSH1 0x40 MLOAD PUSH32 0x8C379A000000000000000000000000000000000000000000000000000000000 DUP2 MSTORE PUSH1 0x4 ADD PUSH2 0xF93 SWAP1 PUSH2 0x27C6 JUMP JUMPDEST PUSH1 0x40 MLOAD DUP1 SWAP2 SUB SWAP1 REVERT JUMPDEST POP JUMP JUMPDEST PUSH0 PUSH1 0x1 DUP3 PUSH1 0x60 ADD MLOAD GT ISZERO PUSH2 0xFD4 JUMPI DUP2 PUSH1 0x80 ADD MLOAD PUSH1 0x1 DUP4 PUSH1 0x60 ADD MLOAD PUSH2 0xFC3 SWAP2 SWAP1 PUSH2 0x27E4 JUMP JUMPDEST PUSH2 0xFCD SWAP2 SWAP1 PUSH2 0x23C0 JUMP JUMPDEST SWAP1 POP PUSH2 0xFEB JUMP JUMPDEST DUP2 PUSH1 0x80 ADD MLOAD DUP3 PUSH1 0x60 ADD MLOAD PUSH2 0xFE8 SWAP2 SWAP1 PUSH2 0x23C0 JUMP JUMPDEST SWAP1 POP JUMPDEST SWAP2 SWAP1 POP JUMP JUMPDEST PUSH1 0x4 SLOAD DUP2 JUMP JUMPDEST PUSH2 0xFFE PUSH2 0x109F JUMP JUMPDEST PUSH0 PUSH20 0xFFFFFFFFFFFFFFFFFFFFFFFFFFFFFFFFFFFFFFFF AND DUP2 PUSH20 0xFFFFFFFFFFFFFFFFFFFFFFFFFFFFFFFFFFFFFFFF AND SUB PUSH2 0x106E JUMPI PUSH0 PUSH1 0x40 MLOAD PUSH32 0x1E4FBDF700000000000000000000000000000000000000000000000000000000 DUP2 MSTORE PUSH1 0x4 ADD PUSH2 0x1065 SWAP2 SWAP1 PUSH2 0x18EB JUMP JUMPDEST PUSH1 0x40 MLOAD DUP1 SWAP2 SUB SWAP1 REVERT JUMPDEST PUSH2 0x1077 DUP2 PUSH2 0x1126 JUMP JUMPDEST POP JUMP JUMPDEST PUSH1 0x1 PUSH0 SWAP1 SLOAD SWAP1 PUSH2 0x100 EXP SWAP1 DIV PUSH20 0xFFFFFFFFFFFFFFFFFFFFFFFFFFFFFFFFFFFFFFFF AND DUP2 JUMP JUMPDEST PUSH2 0x10A7 PUSH2 0x12E3 JUMP JUMPDEST PUSH20 0xFFFFFFFFFFFFFFFFFFFFFFFFFFFFFFFFFFFFFFFF AND PUSH2 0x10C5 PUSH2 0x5A7 JUMP JUMPDEST PUSH20 0xFFFFFFFFFFFFFFFFFFFFFFFFFFFFFFFFFFFFFFFF AND EQ PUSH2 0x1124 JUMPI PUSH2 0x10E8 PUSH2 0x12E3 JUMP JUMPDEST PUSH1 0x40 MLOAD PUSH32 0x118CDAA700000000000000000000000000000000000000000000000000000000 DUP2 MSTORE PUSH1 0x4 ADD PUSH2 0x111B SWAP2 SWAP1 PUSH2 0x18EB JUMP JUMPDEST PUSH1 0x40 MLOAD DUP1 SWAP2 SUB SWAP1 REVERT JUMPDEST JUMP JUMPDEST PUSH0 DUP1 PUSH0 SWAP1 SLOAD SWAP1 PUSH2 0x100 EXP SWAP1 DIV PUSH20 0xFFFFFFFFFFFFFFFFFFFFFFFFFFFFFFFFFFFFFFFF AND SWAP1 POP DUP2 PUSH0 DUP1 PUSH2 0x100 EXP DUP2 SLOAD DUP2 PUSH20 0xFFFFFFFFFFFFFFFFFFFFFFFFFFFFFFFFFFFFFFFF MUL NOT AND SWAP1 DUP4 PUSH20 0xFFFFFFFFFFFFFFFFFFFFFFFFFFFFFFFFFFFFFFFF AND MUL OR SWAP1 SSTORE POP DUP2 PUSH20 0xFFFFFFFFFFFFFFFFFFFFFFFFFFFFFFFFFFFFFFFF AND DUP2 PUSH20 0xFFFFFFFFFFFFFFFFFFFFFFFFFFFFFFFFFFFFFFFF AND PUSH32 0x8BE0079C531659141344CD1FD0A4F28419497F9722A3DAAFE3B4186F6B6457E0 PUSH1 0x40 MLOAD PUSH1 0x40 MLOAD DUP1 SWAP2 SUB SWAP1 LOG3 POP POP JUMP JUMPDEST PUSH1 0x60 PUSH0 PUSH1 0x1 PUSH2 0x11F5 DUP5 PUSH2 0x12EA JUMP JUMPDEST ADD SWAP1 POP PUSH0 DUP2 PUSH8 0xFFFFFFFFFFFFFFFF DUP2 GT ISZERO PUSH2 0x1213 JUMPI PUSH2 0x1212 PUSH2 0x1934 JUMP JUMPDEST JUMPDEST PUSH1 0x40 MLOAD SWAP1 DUP1 DUP3 MSTORE DUP1 PUSH1 0x1F ADD PUSH1 0x1F NOT AND PUSH1 0x20 ADD DUP3 ADD PUSH1 0x40 MSTORE DUP1 ISZERO PUSH2 0x1245 JUMPI DUP2 PUSH1 0x20 ADD PUSH1 0x1 DUP3 MUL DUP1 CALLDATASIZE DUP4 CALLDATACOPY DUP1 DUP3 ADD SWAP2 POP POP SWAP1 POP JUMPDEST POP SWAP1 POP PUSH0 DUP3 PUSH1 0x20 ADD DUP3 ADD SWAP1 POP JUMPDEST PUSH1 0x1 ISZERO PUSH2 0x12A6 JUMPI DUP1 DUP1 PUSH1 0x1 SWAP1 SUB SWAP2 POP POP PUSH32 0x3031323334353637383961626364656600000000000000000000000000000000 PUSH1 0xA DUP7 MOD BYTE DUP2 MSTORE8 PUSH1 0xA DUP6 DUP2 PUSH2 0x129B JUMPI PUSH2 0x129A PUSH2 0x2817 JUMP JUMPDEST JUMPDEST DIV SWAP5 POP PUSH0 DUP6 SUB PUSH2 0x1252 JUMPI JUMPDEST DUP2 SWAP4 POP POP POP POP SWAP2 SWAP1 POP JUMP JUMPDEST PUSH0 DUP1 PUSH0 PUSH2 0x12D0 PUSH3 0x15180 DUP6 DUP2 PUSH2 0x12CA JUMPI PUSH2 0x12C9 PUSH2 0x2817 JUMP JUMPDEST JUMPDEST DIV PUSH2 0x143B JUMP JUMPDEST DUP1 SWAP4 POP DUP2 SWAP5 POP DUP3 SWAP6 POP POP POP POP SWAP2 SWAP4 SWAP1 SWAP3 POP JUMP JUMPDEST PUSH0 CALLER SWAP1 POP SWAP1 JUMP JUMPDEST PUSH0 DUP1 PUSH0 SWAP1 POP PUSH27 0x184F03E93FF9F4DAA797ED6E38ED64BF6A1F010000000000000000 DUP4 LT PUSH2 0x1346 JUMPI PUSH27 0x184F03E93FF9F4DAA797ED6E38ED64BF6A1F010000000000000000 DUP4 DUP2 PUSH2 0x133C JUMPI PUSH2 0x133B PUSH2 0x2817 JUMP JUMPDEST JUMPDEST DIV SWAP3 POP PUSH1 0x40 DUP2 ADD SWAP1 POP JUMPDEST PUSH14 0x4EE2D6D415B85ACEF8100000000 DUP4 LT PUSH2 0x1383 JUMPI PUSH14 0x4EE2D6D415B85ACEF8100000000 DUP4 DUP2 PUSH2 0x1379 JUMPI PUSH2 0x1378 PUSH2 0x2817 JUMP JUMPDEST JUMPDEST DIV SWAP3 POP PUSH1 0x20 DUP2 ADD SWAP1 POP JUMPDEST PUSH7 0x2386F26FC10000 DUP4 LT PUSH2 0x13B2 JUMPI PUSH7 0x2386F26FC10000 DUP4 DUP2 PUSH2 0x13A8 JUMPI PUSH2 0x13A7 PUSH2 0x2817 JUMP JUMPDEST JUMPDEST DIV SWAP3 POP PUSH1 0x10 DUP2 ADD SWAP1 POP JUMPDEST PUSH4 0x5F5E100 DUP4 LT PUSH2 0x13DB JUMPI PUSH4 0x5F5E100 DUP4 DUP2 PUSH2 0x13D1 JUMPI PUSH2 0x13D0 PUSH2 0x2817 JUMP JUMPDEST JUMPDEST DIV SWAP3 POP PUSH1 0x8 DUP2 ADD SWAP1 POP JUMPDEST PUSH2 0x2710 DUP4 LT PUSH2 0x1400 JUMPI PUSH2 0x2710 DUP4 DUP2 PUSH2 0x13F6 JUMPI PUSH2 0x13F5 PUSH2 0x2817 JUMP JUMPDEST JUMPDEST DIV SWAP3 POP PUSH1 0x4 DUP2 ADD SWAP1 POP JUMPDEST PUSH1 0x64 DUP4 LT PUSH2 0x1423 JUMPI PUSH1 0x64 DUP4 DUP2 PUSH2 0x1419 JUMPI PUSH2 0x1418 PUSH2 0x2817 JUMP JUMPDEST JUMPDEST DIV SWAP3 POP PUSH1 0x2 DUP2 ADD SWAP1 POP JUMPDEST PUSH1 0xA DUP4 LT PUSH2 0x1432 JUMPI PUSH1 0x1 DUP2 ADD SWAP1 POP JUMPDEST DUP1 SWAP2 POP POP SWAP2 SWAP1 POP JUMP JUMPDEST PUSH0 DUP1 PUSH0 DUP1 DUP5 SWAP1 POP PUSH0 PUSH3 0x253D8C PUSH3 0x10BD9 DUP4 ADD ADD SWAP1 POP PUSH0 PUSH3 0x23AB1 DUP3 PUSH1 0x4 MUL DUP2 PUSH2 0x1467 JUMPI PUSH2 0x1466 PUSH2 0x2817 JUMP JUMPDEST JUMPDEST SDIV SWAP1 POP PUSH1 0x4 PUSH1 0x3 DUP3 PUSH3 0x23AB1 MUL ADD DUP2 PUSH2 0x1483 JUMPI PUSH2 0x1482 PUSH2 0x2817 JUMP JUMPDEST JUMPDEST SDIV DUP3 SUB SWAP2 POP PUSH0 PUSH3 0x164B09 PUSH1 0x1 DUP5 ADD PUSH2 0xFA0 MUL DUP2 PUSH2 0x14A3 JUMPI PUSH2 0x14A2 PUSH2 0x2817 JUMP JUMPDEST JUMPDEST SDIV SWAP1 POP PUSH1 0x1F PUSH1 0x4 DUP3 PUSH2 0x5B5 MUL DUP2 PUSH2 0x14BD JUMPI PUSH2 0x14BC PUSH2 0x2817 JUMP JUMPDEST JUMPDEST SDIV DUP5 SUB ADD SWAP3 POP PUSH0 PUSH2 0x98F DUP5 PUSH1 0x50 MUL DUP2 PUSH2 0x14D9 JUMPI PUSH2 0x14D8 PUSH2 0x2817 JUMP JUMPDEST JUMPDEST SDIV SWAP1 POP PUSH0 PUSH1 0x50 DUP3 PUSH2 0x98F MUL DUP2 PUSH2 0x14F2 JUMPI PUSH2 0x14F1 PUSH2 0x2817 JUMP JUMPDEST JUMPDEST SDIV DUP6 SUB SWAP1 POP PUSH1 0xB DUP3 DUP2 PUSH2 0x1508 JUMPI PUSH2 0x1507 PUSH2 0x2817 JUMP JUMPDEST JUMPDEST SDIV SWAP5 POP DUP5 PUSH1 0xC MUL PUSH1 0x2 DUP4 ADD SUB SWAP2 POP DUP5 DUP4 PUSH1 0x31 DUP7 SUB PUSH1 0x64 MUL ADD ADD SWAP3 POP DUP3 SWAP9 POP DUP2 SWAP8 POP DUP1 SWAP7 POP POP POP POP POP POP POP SWAP2 SWAP4 SWAP1 SWAP3 POP JUMP JUMPDEST PUSH1 0x40 MLOAD DUP1 PUSH2 0x1A0 ADD PUSH1 0x40 MSTORE DUP1 PUSH0 DUP2 MSTORE PUSH1 0x20 ADD PUSH1 0x60 DUP2 MSTORE PUSH1 0x20 ADD PUSH1 0x60 DUP2 MSTORE PUSH1 0x20 ADD PUSH0 DUP2 MSTORE PUSH1 0x20 ADD PUSH0 DUP2 MSTORE PUSH1 0x20 ADD PUSH0 DUP2 MSTORE PUSH1 0x20 ADD PUSH0 DUP2 MSTORE PUSH1 0x20 ADD PUSH0 DUP2 MSTORE PUSH1 0x20 ADD PUSH0 DUP2 MSTORE PUSH1 0x20 ADD PUSH2 0x1585 PUSH2 0x15BC JUMP JUMPDEST DUP2 MSTORE PUSH1 0x20 ADD PUSH2 0x1592 PUSH2 0x15BC JUMP JUMPDEST DUP2 MSTORE PUSH1 0x20 ADD PUSH0 PUSH20 0xFFFFFFFFFFFFFFFFFFFFFFFFFFFFFFFFFFFFFFFF AND DUP2 MSTORE PUSH1 0x20 ADD PUSH0 ISZERO ISZERO DUP2 MSTORE POP SWAP1 JUMP JUMPDEST PUSH1 0x40 MLOAD DUP1 PUSH1 0x60 ADD PUSH1 0x40 MSTORE DUP1 PUSH0 DUP2 MSTORE PUSH1 0x20 ADD PUSH0 DUP2 MSTORE PUSH1 0x20 ADD PUSH0 DUP2 MSTORE POP SWAP1 JUMP JUMPDEST PUSH0 PUSH1 0x40 MLOAD SWAP1 POP SWAP1 JUMP JUMPDEST PUSH0 DUP1 REVERT JUMPDEST PUSH0 DUP1 REVERT JUMPDEST PUSH0 DUP2 SWAP1 POP SWAP2 SWAP1 POP JUMP JUMPDEST PUSH2 0x15FD DUP2 PUSH2 0x15EB JUMP JUMPDEST DUP2 EQ PUSH2 0x1607 JUMPI PUSH0 DUP1 REVERT JUMPDEST POP JUMP JUMPDEST PUSH0 DUP2 CALLDATALOAD SWAP1 POP PUSH2 0x1618 DUP2 PUSH2 0x15F4 JUMP JUMPDEST SWAP3 SWAP2 POP POP JUMP JUMPDEST PUSH0 DUP1 PUSH1 0x40 DUP4 DUP6 SUB SLT ISZERO PUSH2 0x1634 JUMPI PUSH2 0x1633 PUSH2 0x15E3 JUMP JUMPDEST JUMPDEST PUSH0 PUSH2 0x1641 DUP6 DUP3 DUP7 ADD PUSH2 0x160A JUMP JUMPDEST SWAP3 POP POP PUSH1 0x20 PUSH2 0x1652 DUP6 DUP3 DUP7 ADD PUSH2 0x160A JUMP JUMPDEST SWAP2 POP POP SWAP3 POP SWAP3 SWAP1 POP JUMP JUMPDEST PUSH0 PUSH1 0x20 DUP3 DUP5 SUB SLT ISZERO PUSH2 0x1671 JUMPI PUSH2 0x1670 PUSH2 0x15E3 JUMP JUMPDEST JUMPDEST PUSH0 PUSH2 0x167E DUP5 DUP3 DUP6 ADD PUSH2 0x160A JUMP JUMPDEST SWAP2 POP POP SWAP3 SWAP2 POP POP JUMP JUMPDEST PUSH2 0x1690 DUP2 PUSH2 0x15EB JUMP JUMPDEST DUP3 MSTORE POP POP JUMP JUMPDEST PUSH0 DUP2 MLOAD SWAP1 POP SWAP2 SWAP1 POP JUMP JUMPDEST PUSH0 DUP3 DUP3 MSTORE PUSH1 0x20 DUP3 ADD SWAP1 POP SWAP3 SWAP2 POP POP JUMP JUMPDEST DUP3 DUP2 DUP4 MCOPY PUSH0 DUP4 DUP4 ADD MSTORE POP POP POP JUMP JUMPDEST PUSH0 PUSH1 0x1F NOT PUSH1 0x1F DUP4 ADD AND SWAP1 POP SWAP2 SWAP1 POP JUMP JUMPDEST PUSH0 PUSH2 0x16D8 DUP3 PUSH2 0x1696 JUMP JUMPDEST PUSH2 0x16E2 DUP2 DUP6 PUSH2 0x16A0 JUMP JUMPDEST SWAP4 POP PUSH2 0x16F2 DUP2 DUP6 PUSH1 0x20 DUP7 ADD PUSH2 0x16B0 JUMP JUMPDEST PUSH2 0x16FB DUP2 PUSH2 0x16BE JUMP JUMPDEST DUP5 ADD SWAP2 POP POP SWAP3 SWAP2 POP POP JUMP JUMPDEST PUSH1 0x60 DUP3 ADD PUSH0 DUP3 ADD MLOAD PUSH2 0x171A PUSH0 DUP6 ADD DUP3 PUSH2 0x1687 JUMP JUMPDEST POP PUSH1 0x20 DUP3 ADD MLOAD PUSH2 0x172D PUSH1 0x20 DUP6 ADD DUP3 PUSH2 0x1687 JUMP JUMPDEST POP PUSH1 0x40 DUP3 ADD MLOAD PUSH2 0x1740 PUSH1 0x40 DUP6 ADD DUP3 PUSH2 0x1687 JUMP JUMPDEST POP POP POP POP JUMP JUMPDEST PUSH0 PUSH20 0xFFFFFFFFFFFFFFFFFFFFFFFFFFFFFFFFFFFFFFFF DUP3 AND SWAP1 POP SWAP2 SWAP1 POP JUMP JUMPDEST PUSH0 PUSH2 0x176F DUP3 PUSH2 0x1746 JUMP JUMPDEST SWAP1 POP SWAP2 SWAP1 POP JUMP JUMPDEST PUSH2 0x177F DUP2 PUSH2 0x1765 JUMP JUMPDEST DUP3 MSTORE POP POP JUMP JUMPDEST PUSH0 DUP2 ISZERO ISZERO SWAP1 POP SWAP2 SWAP1 POP JUMP JUMPDEST PUSH2 0x1799 DUP2 PUSH2 0x1785 JUMP JUMPDEST DUP3 MSTORE POP POP JUMP JUMPDEST PUSH0 PUSH2 0x220 DUP4 ADD PUSH0 DUP4 ADD MLOAD PUSH2 0x17B5 PUSH0 DUP7 ADD DUP3 PUSH2 0x1687 JUMP JUMPDEST POP PUSH1 0x20 DUP4 ADD MLOAD DUP5 DUP3 SUB PUSH1 0x20 DUP7 ADD MSTORE PUSH2 0x17CD DUP3 DUP3 PUSH2 0x16CE JUMP JUMPDEST SWAP2 POP POP PUSH1 0x40 DUP4 ADD MLOAD DUP5 DUP3 SUB PUSH1 0x40 DUP7 ADD MSTORE PUSH2 0x17E7 DUP3 DUP3 PUSH2 0x16CE JUMP JUMPDEST SWAP2 POP POP PUSH1 0x60 DUP4 ADD MLOAD PUSH2 0x17FC PUSH1 0x60 DUP7 ADD DUP3 PUSH2 0x1687 JUMP JUMPDEST POP PUSH1 0x80 DUP4 ADD MLOAD PUSH2 0x180F PUSH1 0x80 DUP7 ADD DUP3 PUSH2 0x1687 JUMP JUMPDEST POP PUSH1 0xA0 DUP4 ADD MLOAD PUSH2 0x1822 PUSH1 0xA0 DUP7 ADD DUP3 PUSH2 0x1687 JUMP JUMPDEST POP PUSH1 0xC0 DUP4 ADD MLOAD PUSH2 0x1835 PUSH1 0xC0 DUP7 ADD DUP3 PUSH2 0x1687 JUMP JUMPDEST POP PUSH1 0xE0 DUP4 ADD MLOAD PUSH2 0x1848 PUSH1 0xE0 DUP7 ADD DUP3 PUSH2 0x1687 JUMP JUMPDEST POP PUSH2 0x100 DUP4 ADD MLOAD PUSH2 0x185D PUSH2 0x100 DUP7 ADD DUP3 PUSH2 0x1687 JUMP JUMPDEST POP PUSH2 0x120 DUP4 ADD MLOAD PUSH2 0x1872 PUSH2 0x120 DUP7 ADD DUP3 PUSH2 0x1706 JUMP JUMPDEST POP PUSH2 0x140 DUP4 ADD MLOAD PUSH2 0x1887 PUSH2 0x180 DUP7 ADD DUP3 PUSH2 0x1706 JUMP JUMPDEST POP PUSH2 0x160 DUP4 ADD MLOAD PUSH2 0x189C PUSH2 0x1E0 DUP7 ADD DUP3 PUSH2 0x1776 JUMP JUMPDEST POP PUSH2 0x180 DUP4 ADD MLOAD PUSH2 0x18B1 PUSH2 0x200 DUP7 ADD DUP3 PUSH2 0x1790 JUMP JUMPDEST POP DUP1 SWAP2 POP POP SWAP3 SWAP2 POP POP JUMP JUMPDEST PUSH0 PUSH1 0x20 DUP3 ADD SWAP1 POP DUP2 DUP2 SUB PUSH0 DUP4 ADD MSTORE PUSH2 0x18D4 DUP2 DUP5 PUSH2 0x179F JUMP JUMPDEST SWAP1 POP SWAP3 SWAP2 POP POP JUMP JUMPDEST PUSH2 0x18E5 DUP2 PUSH2 0x1765 JUMP JUMPDEST DUP3 MSTORE POP POP JUMP JUMPDEST PUSH0 PUSH1 0x20 DUP3 ADD SWAP1 POP PUSH2 0x18FE PUSH0 DUP4 ADD DUP5 PUSH2 0x18DC JUMP JUMPDEST SWAP3 SWAP2 POP POP JUMP JUMPDEST PUSH2 0x190D DUP2 PUSH2 0x15EB JUMP JUMPDEST DUP3 MSTORE POP POP JUMP JUMPDEST PUSH0 PUSH1 0x20 DUP3 ADD SWAP1 POP PUSH2 0x1926 PUSH0 DUP4 ADD DUP5 PUSH2 0x1904 JUMP JUMPDEST SWAP3 SWAP2 POP POP JUMP JUMPDEST PUSH0 DUP1 REVERT JUMPDEST PUSH0 DUP1 REVERT JUMPDEST PUSH32 0x4E487B7100000000000000000000000000000000000000000000000000000000 PUSH0 MSTORE PUSH1 0x41 PUSH1 0x4 MSTORE PUSH1 0x24 PUSH0 REVERT JUMPDEST PUSH2 0x196A DUP3 PUSH2 0x16BE JUMP JUMPDEST DUP2 ADD DUP2 DUP2 LT PUSH8 0xFFFFFFFFFFFFFFFF DUP3 GT OR ISZERO PUSH2 0x1989 JUMPI PUSH2 0x1988 PUSH2 0x1934 JUMP JUMPDEST JUMPDEST DUP1 PUSH1 0x40 MSTORE POP POP POP JUMP JUMPDEST PUSH0 PUSH2 0x199B PUSH2 0x15DA JUMP JUMPDEST SWAP1 POP PUSH2 0x19A7 DUP3 DUP3 PUSH2 0x1961 JUMP JUMPDEST SWAP2 SWAP1 POP JUMP JUMPDEST PUSH0 PUSH8 0xFFFFFFFFFFFFFFFF DUP3 GT ISZERO PUSH2 0x19C6 JUMPI PUSH2 0x19C5 PUSH2 0x1934 JUMP JUMPDEST JUMPDEST PUSH2 0x19CF DUP3 PUSH2 0x16BE JUMP JUMPDEST SWAP1 POP PUSH1 0x20 DUP2 ADD SWAP1 POP SWAP2 SWAP1 POP JUMP JUMPDEST DUP3 DUP2 DUP4 CALLDATACOPY PUSH0 DUP4 DUP4 ADD MSTORE POP POP POP JUMP JUMPDEST PUSH0 PUSH2 0x19FC PUSH2 0x19F7 DUP5 PUSH2 0x19AC JUMP JUMPDEST PUSH2 0x1992 JUMP JUMPDEST SWAP1 POP DUP3 DUP2 MSTORE PUSH1 0x20 DUP2 ADD DUP5 DUP5 DUP5 ADD GT ISZERO PUSH2 0x1A18 JUMPI PUSH2 0x1A17 PUSH2 0x1930 JUMP JUMPDEST JUMPDEST PUSH2 0x1A23 DUP5 DUP3 DUP6 PUSH2 0x19DC JUMP JUMPDEST POP SWAP4 SWAP3 POP POP POP JUMP JUMPDEST PUSH0 DUP3 PUSH1 0x1F DUP4 ADD SLT PUSH2 0x1A3F JUMPI PUSH2 0x1A3E PUSH2 0x192C JUMP JUMPDEST JUMPDEST DUP2 CALLDATALOAD PUSH2 0x1A4F DUP5 DUP3 PUSH1 0x20 DUP7 ADD PUSH2 0x19EA JUMP JUMPDEST SWAP2 POP POP SWAP3 SWAP2 POP POP JUMP JUMPDEST PUSH0 DUP1 PUSH0 DUP1 PUSH0 DUP1 PUSH1 0xC0 DUP8 DUP10 SUB SLT ISZERO PUSH2 0x1A72 JUMPI PUSH2 0x1A71 PUSH2 0x15E3 JUMP JUMPDEST JUMPDEST PUSH0 DUP8 ADD CALLDATALOAD PUSH8 0xFFFFFFFFFFFFFFFF DUP2 GT ISZERO PUSH2 0x1A8F JUMPI PUSH2 0x1A8E PUSH2 0x15E7 JUMP JUMPDEST JUMPDEST PUSH2 0x1A9B DUP10 DUP3 DUP11 ADD PUSH2 0x1A2B JUMP JUMPDEST SWAP7 POP POP PUSH1 0x20 DUP8 ADD CALLDATALOAD PUSH8 0xFFFFFFFFFFFFFFFF DUP2 GT ISZERO PUSH2 0x1ABC JUMPI PUSH2 0x1ABB PUSH2 0x15E7 JUMP JUMPDEST JUMPDEST PUSH2 0x1AC8 DUP10 DUP3 DUP11 ADD PUSH2 0x1A2B JUMP JUMPDEST SWAP6 POP POP PUSH1 0x40 PUSH2 0x1AD9 DUP10 DUP3 DUP11 ADD PUSH2 0x160A JUMP JUMPDEST SWAP5 POP POP PUSH1 0x60 PUSH2 0x1AEA DUP10 DUP3 DUP11 ADD PUSH2 0x160A JUMP JUMPDEST SWAP4 POP POP PUSH1 0x80 PUSH2 0x1AFB DUP10 DUP3 DUP11 ADD PUSH2 0x160A JUMP JUMPDEST SWAP3 POP POP PUSH1 0xA0 PUSH2 0x1B0C DUP10 DUP3 DUP11 ADD PUSH2 0x160A JUMP JUMPDEST SWAP2 POP POP SWAP3 SWAP6 POP SWAP3 SWAP6 POP SWAP3 SWAP6 JUMP JUMPDEST PUSH0 DUP1 REVERT JUMPDEST PUSH0 DUP1 REVERT JUMPDEST PUSH0 PUSH1 0x60 DUP3 DUP5 SUB SLT ISZERO PUSH2 0x1B36 JUMPI PUSH2 0x1B35 PUSH2 0x1B19 JUMP JUMPDEST JUMPDEST PUSH2 0x1B40 PUSH1 0x60 PUSH2 0x1992 JUMP JUMPDEST SWAP1 POP PUSH0 PUSH2 0x1B4F DUP5 DUP3 DUP6 ADD PUSH2 0x160A JUMP JUMPDEST PUSH0 DUP4 ADD MSTORE POP PUSH1 0x20 PUSH2 0x1B62 DUP5 DUP3 DUP6 ADD PUSH2 0x160A JUMP JUMPDEST PUSH1 0x20 DUP4 ADD MSTORE POP PUSH1 0x40 PUSH2 0x1B76 DUP5 DUP3 DUP6 ADD PUSH2 0x160A JUMP JUMPDEST PUSH1 0x40 DUP4 ADD MSTORE POP SWAP3 SWAP2 POP POP JUMP JUMPDEST PUSH2 0x1B8B DUP2 PUSH2 0x1765 JUMP JUMPDEST DUP2 EQ PUSH2 0x1B95 JUMPI PUSH0 DUP1 REVERT JUMPDEST POP JUMP JUMPDEST PUSH0 DUP2 CALLDATALOAD SWAP1 POP PUSH2 0x1BA6 DUP2 PUSH2 0x1B82 JUMP JUMPDEST SWAP3 SWAP2 POP POP JUMP JUMPDEST PUSH2 0x1BB5 DUP2 PUSH2 0x1785 JUMP JUMPDEST DUP2 EQ PUSH2 0x1BBF JUMPI PUSH0 DUP1 REVERT JUMPDEST POP JUMP JUMPDEST PUSH0 DUP2 CALLDATALOAD SWAP1 POP PUSH2 0x1BD0 DUP2 PUSH2 0x1BAC JUMP JUMPDEST SWAP3 SWAP2 POP POP JUMP JUMPDEST PUSH0 PUSH2 0x220 DUP3 DUP5 SUB SLT ISZERO PUSH2 0x1BEC JUMPI PUSH2 0x1BEB PUSH2 0x1B19 JUMP JUMPDEST JUMPDEST PUSH2 0x1BF7 PUSH2 0x1A0 PUSH2 0x1992 JUMP JUMPDEST SWAP1 POP PUSH0 PUSH2 0x1C06 DUP5 DUP3 DUP6 ADD PUSH2 0x160A JUMP JUMPDEST PUSH0 DUP4 ADD MSTORE POP PUSH1 0x20 DUP3 ADD CALLDATALOAD PUSH8 0xFFFFFFFFFFFFFFFF DUP2 GT ISZERO PUSH2 0x1C29 JUMPI PUSH2 0x1C28 PUSH2 0x1B1D JUMP JUMPDEST JUMPDEST PUSH2 0x1C35 DUP5 DUP3 DUP6 ADD PUSH2 0x1A2B JUMP JUMPDEST PUSH1 0x20 DUP4 ADD MSTORE POP PUSH1 0x40 DUP3 ADD CALLDATALOAD PUSH8 0xFFFFFFFFFFFFFFFF DUP2 GT ISZERO PUSH2 0x1C59 JUMPI PUSH2 0x1C58 PUSH2 0x1B1D JUMP JUMPDEST JUMPDEST PUSH2 0x1C65 DUP5 DUP3 DUP6 ADD PUSH2 0x1A2B JUMP JUMPDEST PUSH1 0x40 DUP4 ADD MSTORE POP PUSH1 0x60 PUSH2 0x1C79 DUP5 DUP3 DUP6 ADD PUSH2 0x160A JUMP JUMPDEST PUSH1 0x60 DUP4 ADD MSTORE POP PUSH1 0x80 PUSH2 0x1C8D DUP5 DUP3 DUP6 ADD PUSH2 0x160A JUMP JUMPDEST PUSH1 0x80 DUP4 ADD MSTORE POP PUSH1 0xA0 PUSH2 0x1CA1 DUP5 DUP3 DUP6 ADD PUSH2 0x160A JUMP JUMPDEST PUSH1 0xA0 DUP4 ADD MSTORE POP PUSH1 0xC0 PUSH2 0x1CB5 DUP5 DUP3 DUP6 ADD PUSH2 0x160A JUMP JUMPDEST PUSH1 0xC0 DUP4 ADD MSTORE POP PUSH1 0xE0 PUSH2 0x1CC9 DUP5 DUP3 DUP6 ADD PUSH2 0x160A JUMP JUMPDEST PUSH1 0xE0 DUP4 ADD MSTORE POP PUSH2 0x100 PUSH2 0x1CDE DUP5 DUP3 DUP6 ADD PUSH2 0x160A JUMP JUMPDEST PUSH2 0x100 DUP4 ADD MSTORE POP PUSH2 0x120 PUSH2 0x1CF4 DUP5 DUP3 DUP6 ADD PUSH2 0x1B21 JUMP JUMPDEST PUSH2 0x120 DUP4 ADD MSTORE POP PUSH2 0x180 PUSH2 0x1D0A DUP5 DUP3 DUP6 ADD PUSH2 0x1B21 JUMP JUMPDEST PUSH2 0x140 DUP4 ADD MSTORE POP PUSH2 0x1E0 PUSH2 0x1D20 DUP5 DUP3 DUP6 ADD PUSH2 0x1B98 JUMP JUMPDEST PUSH2 0x160 DUP4 ADD MSTORE POP PUSH2 0x200 PUSH2 0x1D36 DUP5 DUP3 DUP6 ADD PUSH2 0x1BC2 JUMP JUMPDEST PUSH2 0x180 DUP4 ADD MSTORE POP SWAP3 SWAP2 POP POP JUMP JUMPDEST PUSH0 PUSH1 0x20 DUP3 DUP5 SUB SLT ISZERO PUSH2 0x1D58 JUMPI PUSH2 0x1D57 PUSH2 0x15E3 JUMP JUMPDEST JUMPDEST PUSH0 DUP3 ADD CALLDATALOAD PUSH8 0xFFFFFFFFFFFFFFFF DUP2 GT ISZERO PUSH2 0x1D75 JUMPI PUSH2 0x1D74 PUSH2 0x15E7 JUMP JUMPDEST JUMPDEST PUSH2 0x1D81 DUP5 DUP3 DUP6 ADD PUSH2 0x1BD6 JUMP JUMPDEST SWAP2 POP POP SWAP3 SWAP2 POP POP JUMP JUMPDEST PUSH0 PUSH1 0x20 DUP3 DUP5 SUB SLT ISZERO PUSH2 0x1D9F JUMPI PUSH2 0x1D9E PUSH2 0x15E3 JUMP JUMPDEST JUMPDEST PUSH0 PUSH2 0x1DAC DUP5 DUP3 DUP6 ADD PUSH2 0x1B98 JUMP JUMPDEST SWAP2 POP POP SWAP3 SWAP2 POP POP JUMP JUMPDEST PUSH0 DUP2 SWAP1 POP SWAP2 SWAP1 POP JUMP JUMPDEST PUSH0 PUSH2 0x1DD8 PUSH2 0x1DD3 PUSH2 0x1DCE DUP5 PUSH2 0x1746 JUMP JUMPDEST PUSH2 0x1DB5 JUMP JUMPDEST PUSH2 0x1746 JUMP JUMPDEST SWAP1 POP SWAP2 SWAP1 POP JUMP JUMPDEST PUSH0 PUSH2 0x1DE9 DUP3 PUSH2 0x1DBE JUMP JUMPDEST SWAP1 POP SWAP2 SWAP1 POP JUMP JUMPDEST PUSH0 PUSH2 0x1DFA DUP3 PUSH2 0x1DDF JUMP JUMPDEST SWAP1 POP SWAP2 SWAP1 POP JUMP JUMPDEST PUSH2 0x1E0A DUP2 PUSH2 0x1DF0 JUMP JUMPDEST DUP3 MSTORE POP POP JUMP JUMPDEST PUSH0 PUSH1 0x20 DUP3 ADD SWAP1 POP PUSH2 0x1E23 PUSH0 DUP4 ADD DUP5 PUSH2 0x1E01 JUMP JUMPDEST SWAP3 SWAP2 POP POP JUMP JUMPDEST PUSH32 0x4E487B7100000000000000000000000000000000000000000000000000000000 PUSH0 MSTORE PUSH1 0x11 PUSH1 0x4 MSTORE PUSH1 0x24 PUSH0 REVERT JUMPDEST PUSH0 PUSH2 0x1E60 DUP3 PUSH2 0x15EB JUMP JUMPDEST SWAP2 POP PUSH2 0x1E6B DUP4 PUSH2 0x15EB JUMP JUMPDEST SWAP3 POP DUP3 DUP3 ADD SWAP1 POP DUP1 DUP3 GT ISZERO PUSH2 0x1E83 JUMPI PUSH2 0x1E82 PUSH2 0x1E29 JUMP JUMPDEST JUMPDEST SWAP3 SWAP2 POP POP JUMP JUMPDEST PUSH0 DUP3 DUP3 MSTORE PUSH1 0x20 DUP3 ADD SWAP1 POP SWAP3 SWAP2 POP POP JUMP JUMPDEST PUSH32 0x506F6C696379206973206E6F7420616374697665000000000000000000000000 PUSH0 DUP3 ADD MSTORE POP JUMP JUMPDEST PUSH0 PUSH2 0x1ECD PUSH1 0x14 DUP4 PUSH2 0x1E89 JUMP JUMPDEST SWAP2 POP PUSH2 0x1ED8 DUP3 PUSH2 0x1E99 JUMP JUMPDEST PUSH1 0x20 DUP3 ADD SWAP1 POP SWAP2 SWAP1 POP JUMP JUMPDEST PUSH0 PUSH1 0x20 DUP3 ADD SWAP1 POP DUP2 DUP2 SUB PUSH0 DUP4 ADD MSTORE PUSH2 0x1EFA DUP2 PUSH2 0x1EC1 JUMP JUMPDEST SWAP1 POP SWAP2 SWAP1 POP JUMP JUMPDEST PUSH32 0x506F6C696379206E6F7420666F756E6400000000000000000000000000000000 PUSH0 DUP3 ADD MSTORE POP JUMP JUMPDEST PUSH0 PUSH2 0x1F35 PUSH1 0x10 DUP4 PUSH2 0x1E89 JUMP JUMPDEST SWAP2 POP PUSH2 0x1F40 DUP3 PUSH2 0x1F01 JUMP JUMPDEST PUSH1 0x20 DUP3 ADD SWAP1 POP SWAP2 SWAP1 POP JUMP JUMPDEST PUSH0 PUSH1 0x20 DUP3 ADD SWAP1 POP DUP2 DUP2 SUB PUSH0 DUP4 ADD MSTORE PUSH2 0x1F62 DUP2 PUSH2 0x1F29 JUMP JUMPDEST SWAP1 POP SWAP2 SWAP1 POP JUMP JUMPDEST PUSH32 0x496E76616C696420706F6C696379204944000000000000000000000000000000 PUSH0 DUP3 ADD MSTORE POP JUMP JUMPDEST PUSH0 PUSH2 0x1F9D PUSH1 0x11 DUP4 PUSH2 0x1E89 JUMP JUMPDEST SWAP2 POP PUSH2 0x1FA8 DUP3 PUSH2 0x1F69 JUMP JUMPDEST PUSH1 0x20 DUP3 ADD SWAP1 POP SWAP2 SWAP1 POP JUMP JUMPDEST PUSH0 PUSH1 0x20 DUP3 ADD SWAP1 POP DUP2 DUP2 SUB PUSH0 DUP4 ADD MSTORE PUSH2 0x1FCA DUP2 PUSH2 0x1F91 JUMP JUMPDEST SWAP1 POP SWAP2 SWAP1 POP JUMP JUMPDEST PUSH32 0x4E487B7100000000000000000000000000000000000000000000000000000000 PUSH0 MSTORE PUSH1 0x22 PUSH1 0x4 MSTORE PUSH1 0x24 PUSH0 REVERT JUMPDEST PUSH0 PUSH1 0x2 DUP3 DIV SWAP1 POP PUSH1 0x1 DUP3 AND DUP1 PUSH2 0x2015 JUMPI PUSH1 0x7F DUP3 AND SWAP2 POP JUMPDEST PUSH1 0x20 DUP3 LT DUP2 SUB PUSH2 0x2028 JUMPI PUSH2 0x2027 PUSH2 0x1FD1 JUMP JUMPDEST JUMPDEST POP SWAP2 SWAP1 POP JUMP JUMPDEST PUSH0 PUSH2 0x2038 DUP3 PUSH2 0x15EB JUMP JUMPDEST SWAP2 POP PUSH32 0xFFFFFFFFFFFFFFFFFFFFFFFFFFFFFFFFFFFFFFFFFFFFFFFFFFFFFFFFFFFFFFFF DUP3 SUB PUSH2 0x206A JUMPI PUSH2 0x2069 PUSH2 0x1E29 JUMP JUMPDEST JUMPDEST PUSH1 0x1 DUP3 ADD SWAP1 POP SWAP2 SWAP1 POP JUMP JUMPDEST PUSH0 DUP2 MLOAD SWAP1 POP PUSH2 0x2083 DUP2 PUSH2 0x15F4 JUMP JUMPDEST SWAP3 SWAP2 POP POP JUMP JUMPDEST PUSH0 PUSH1 0x20 DUP3 DUP5 SUB SLT ISZERO PUSH2 0x209E JUMPI PUSH2 0x209D PUSH2 0x15E3 JUMP JUMPDEST JUMPDEST PUSH0 PUSH2 0x20AB DUP5 DUP3 DUP6 ADD PUSH2 0x2075 JUMP JUMPDEST SWAP2 POP POP SWAP3 SWAP2 POP POP JUMP JUMPDEST PUSH0 DUP2 SWAP1 POP SWAP3 SWAP2 POP POP JUMP JUMPDEST PUSH32 0x596F752063757272656E746C7920686176652000000000000000000000000000 PUSH0 DUP3 ADD MSTORE POP JUMP JUMPDEST PUSH0 PUSH2 0x20F2 PUSH1 0x13 DUP4 PUSH2 0x20B4 JUMP JUMPDEST SWAP2 POP PUSH2 0x20FD DUP3 PUSH2 0x20BE JUMP JUMPDEST PUSH1 0x13 DUP3 ADD SWAP1 POP SWAP2 SWAP1 POP JUMP JUMPDEST PUSH0 PUSH2 0x2112 DUP3 PUSH2 0x1696 JUMP JUMPDEST PUSH2 0x211C DUP2 DUP6 PUSH2 0x20B4 JUMP JUMPDEST SWAP4 POP PUSH2 0x212C DUP2 DUP6 PUSH1 0x20 DUP7 ADD PUSH2 0x16B0 JUMP JUMPDEST DUP1 DUP5 ADD SWAP2 POP POP SWAP3 SWAP2 POP POP JUMP JUMPDEST PUSH32 0x20746F6B656E732C207768696368206973206E6F7420656E6F75676820746F20 PUSH0 DUP3 ADD MSTORE PUSH32 0x637265617465206120706F6C6963792077697468206D617820706F6F6C207661 PUSH1 0x20 DUP3 ADD MSTORE PUSH32 0x6C7565206F662000000000000000000000000000000000000000000000000000 PUSH1 0x40 DUP3 ADD MSTORE POP JUMP JUMPDEST PUSH0 PUSH2 0x21B8 PUSH1 0x47 DUP4 PUSH2 0x20B4 JUMP JUMPDEST SWAP2 POP PUSH2 0x21C3 DUP3 PUSH2 0x2138 JUMP JUMPDEST PUSH1 0x47 DUP3 ADD SWAP1 POP SWAP2 SWAP1 POP JUMP JUMPDEST PUSH32 0x20746F6B656E732E000000000000000000000000000000000000000000000000 PUSH0 DUP3 ADD MSTORE POP JUMP JUMPDEST PUSH0 PUSH2 0x2202 PUSH1 0x8 DUP4 PUSH2 0x20B4 JUMP JUMPDEST SWAP2 POP PUSH2 0x220D DUP3 PUSH2 0x21CE JUMP JUMPDEST PUSH1 0x8 DUP3 ADD SWAP1 POP SWAP2 SWAP1 POP JUMP JUMPDEST PUSH0 PUSH2 0x2222 DUP3 PUSH2 0x20E6 JUMP JUMPDEST SWAP2 POP PUSH2 0x222E DUP3 DUP6 PUSH2 0x2108 JUMP JUMPDEST SWAP2 POP PUSH2 0x2239 DUP3 PUSH2 0x21AC JUMP JUMPDEST SWAP2 POP PUSH2 0x2245 DUP3 DUP5 PUSH2 0x2108 JUMP JUMPDEST SWAP2 POP PUSH2 0x2250 DUP3 PUSH2 0x21F6 JUMP JUMPDEST SWAP2 POP DUP2 SWAP1 POP SWAP4 SWAP3 POP POP POP JUMP JUMPDEST PUSH0 PUSH2 0x2266 DUP3 PUSH2 0x1696 JUMP JUMPDEST PUSH2 0x2270 DUP2 DUP6 PUSH2 0x1E89 JUMP JUMPDEST SWAP4 POP PUSH2 0x2280 DUP2 DUP6 PUSH1 0x20 DUP7 ADD PUSH2 0x16B0 JUMP JUMPDEST PUSH2 0x2289 DUP2 PUSH2 0x16BE JUMP JUMPDEST DUP5 ADD SWAP2 POP POP SWAP3 SWAP2 POP POP JUMP JUMPDEST PUSH0 PUSH1 0x20 DUP3 ADD SWAP1 POP DUP2 DUP2 SUB PUSH0 DUP4 ADD MSTORE PUSH2 0x22AC DUP2 DUP5 PUSH2 0x225C JUMP JUMPDEST SWAP1 POP SWAP3 SWAP2 POP POP JUMP JUMPDEST PUSH0 PUSH2 0x22BF DUP3 DUP5 PUSH2 0x2108 JUMP JUMPDEST SWAP2 POP DUP2 SWAP1 POP SWAP3 SWAP2 POP POP JUMP JUMPDEST PUSH32 0x496E76616C696420706F6C696379207479706500000000000000000000000000 PUSH0 DUP3 ADD MSTORE POP JUMP JUMPDEST PUSH0 PUSH2 0x22FE PUSH1 0x13 DUP4 PUSH2 0x1E89 JUMP JUMPDEST SWAP2 POP PUSH2 0x2309 DUP3 PUSH2 0x22CA JUMP JUMPDEST PUSH1 0x20 DUP3 ADD SWAP1 POP SWAP2 SWAP1 POP JUMP JUMPDEST PUSH0 PUSH1 0x20 DUP3 ADD SWAP1 POP DUP2 DUP2 SUB PUSH0 DUP4 ADD MSTORE PUSH2 0x232B DUP2 PUSH2 0x22F2 JUMP JUMPDEST SWAP1 POP SWAP2 SWAP1 POP JUMP JUMPDEST PUSH32 0x5269736B206F662062616E6B7275707463793A2072656475636520746865206D PUSH0 DUP3 ADD MSTORE PUSH32 0x617820706F6F6C2076616C756520666F72207468697320706F6C696379000000 PUSH1 0x20 DUP3 ADD MSTORE POP JUMP JUMPDEST PUSH0 PUSH2 0x238C PUSH1 0x3D DUP4 PUSH2 0x1E89 JUMP JUMPDEST SWAP2 POP PUSH2 0x2397 DUP3 PUSH2 0x2332 JUMP JUMPDEST PUSH1 0x40 DUP3 ADD SWAP1 POP SWAP2 SWAP1 POP JUMP JUMPDEST PUSH0 PUSH1 0x20 DUP3 ADD SWAP1 POP DUP2 DUP2 SUB PUSH0 DUP4 ADD MSTORE PUSH2 0x23B9 DUP2 PUSH2 0x2380 JUMP JUMPDEST SWAP1 POP SWAP2 SWAP1 POP JUMP JUMPDEST PUSH0 PUSH2 0x23CA DUP3 PUSH2 0x15EB JUMP JUMPDEST SWAP2 POP PUSH2 0x23D5 DUP4 PUSH2 0x15EB JUMP JUMPDEST SWAP3 POP DUP3 DUP3 MUL PUSH2 0x23E3 DUP2 PUSH2 0x15EB JUMP JUMPDEST SWAP2 POP DUP3 DUP3 DIV DUP5 EQ DUP4 ISZERO OR PUSH2 0x23FA JUMPI PUSH2 0x23F9 PUSH2 0x1E29 JUMP JUMPDEST JUMPDEST POP SWAP3 SWAP2 POP POP JUMP JUMPDEST PUSH0 DUP2 SWAP1 POP DUP2 PUSH0 MSTORE PUSH1 0x20 PUSH0 KECCAK256 SWAP1 POP SWAP2 SWAP1 POP JUMP JUMPDEST PUSH0 PUSH1 0x20 PUSH1 0x1F DUP4 ADD DIV SWAP1 POP SWAP2 SWAP1 POP JUMP JUMPDEST PUSH0 DUP3 DUP3 SHL SWAP1 POP SWAP3 SWAP2 POP POP JUMP JUMPDEST PUSH0 PUSH1 0x8 DUP4 MUL PUSH2 0x245D PUSH32 0xFFFFFFFFFFFFFFFFFFFFFFFFFFFFFFFFFFFFFFFFFFFFFFFFFFFFFFFFFFFFFFFF DUP3 PUSH2 0x2422 JUMP JUMPDEST PUSH2 0x2467 DUP7 DUP4 PUSH2 0x2422 JUMP JUMPDEST SWAP6 POP DUP1 NOT DUP5 AND SWAP4 POP DUP1 DUP7 AND DUP5 OR SWAP3 POP POP POP SWAP4 SWAP3 POP POP POP JUMP JUMPDEST PUSH0 PUSH2 0x2499 PUSH2 0x2494 PUSH2 0x248F DUP5 PUSH2 0x15EB JUMP JUMPDEST PUSH2 0x1DB5 JUMP JUMPDEST PUSH2 0x15EB JUMP JUMPDEST SWAP1 POP SWAP2 SWAP1 POP JUMP JUMPDEST PUSH0 DUP2 SWAP1 POP SWAP2 SWAP1 POP JUMP JUMPDEST PUSH2 0x24B2 DUP4 PUSH2 0x247F JUMP JUMPDEST PUSH2 0x24C6 PUSH2 0x24BE DUP3 PUSH2 0x24A0 JUMP JUMPDEST DUP5 DUP5 SLOAD PUSH2 0x242E JUMP JUMPDEST DUP3 SSTORE POP POP POP POP JUMP JUMPDEST PUSH0 SWAP1 JUMP JUMPDEST PUSH2 0x24DA PUSH2 0x24CE JUMP JUMPDEST PUSH2 0x24E5 DUP2 DUP5 DUP5 PUSH2 0x24A9 JUMP JUMPDEST POP POP POP JUMP JUMPDEST JUMPDEST DUP2 DUP2 LT ISZERO PUSH2 0x2508 JUMPI PUSH2 0x24FD PUSH0 DUP3 PUSH2 0x24D2 JUMP JUMPDEST PUSH1 0x1 DUP2 ADD SWAP1 POP PUSH2 0x24EB JUMP JUMPDEST POP POP JUMP JUMPDEST PUSH1 0x1F DUP3 GT ISZERO PUSH2 0x254D JUMPI PUSH2 0x251E DUP2 PUSH2 0x2401 JUMP JUMPDEST PUSH2 0x2527 DUP5 PUSH2 0x2413 JUMP JUMPDEST DUP2 ADD PUSH1 0x20 DUP6 LT ISZERO PUSH2 0x2536 JUMPI DUP2 SWAP1 POP JUMPDEST PUSH2 0x254A PUSH2 0x2542 DUP6 PUSH2 0x2413 JUMP JUMPDEST DUP4 ADD DUP3 PUSH2 0x24EA JUMP JUMPDEST POP POP JUMPDEST POP POP POP JUMP JUMPDEST PUSH0 DUP3 DUP3 SHR SWAP1 POP SWAP3 SWAP2 POP POP JUMP JUMPDEST PUSH0 PUSH2 0x256D PUSH0 NOT DUP5 PUSH1 0x8 MUL PUSH2 0x2552 JUMP JUMPDEST NOT DUP1 DUP4 AND SWAP2 POP POP SWAP3 SWAP2 POP POP JUMP JUMPDEST PUSH0 PUSH2 0x2585 DUP4 DUP4 PUSH2 0x255E JUMP JUMPDEST SWAP2 POP DUP3 PUSH1 0x2 MUL DUP3 OR SWAP1 POP SWAP3 SWAP2 POP POP JUMP JUMPDEST PUSH2 0x259E DUP3 PUSH2 0x1696 JUMP JUMPDEST PUSH8 0xFFFFFFFFFFFFFFFF DUP2 GT ISZERO PUSH2 0x25B7 JUMPI PUSH2 0x25B6 PUSH2 0x1934 JUMP JUMPDEST JUMPDEST PUSH2 0x25C1 DUP3 SLOAD PUSH2 0x1FFE JUMP JUMPDEST PUSH2 0x25CC DUP3 DUP3 DUP6 PUSH2 0x250C JUMP JUMPDEST PUSH0 PUSH1 0x20 SWAP1 POP PUSH1 0x1F DUP4 GT PUSH1 0x1 DUP2 EQ PUSH2 0x25FD JUMPI PUSH0 DUP5 ISZERO PUSH2 0x25EB JUMPI DUP3 DUP8 ADD MLOAD SWAP1 POP JUMPDEST PUSH2 0x25F5 DUP6 DUP3 PUSH2 0x257A JUMP JUMPDEST DUP7 SSTORE POP PUSH2 0x265C JUMP JUMPDEST PUSH1 0x1F NOT DUP5 AND PUSH2 0x260B DUP7 PUSH2 0x2401 JUMP JUMPDEST PUSH0 JUMPDEST DUP3 DUP2 LT ISZERO PUSH2 0x2632 JUMPI DUP5 DUP10 ADD MLOAD DUP3 SSTORE PUSH1 0x1 DUP3 ADD SWAP2 POP PUSH1 0x20 DUP6 ADD SWAP5 POP PUSH1 0x20 DUP2 ADD SWAP1 POP PUSH2 0x260D JUMP JUMPDEST DUP7 DUP4 LT ISZERO PUSH2 0x264F JUMPI DUP5 DUP10 ADD MLOAD PUSH2 0x264B PUSH1 0x1F DUP10 AND DUP3 PUSH2 0x255E JUMP JUMPDEST DUP4 SSTORE POP JUMPDEST PUSH1 0x1 PUSH1 0x2 DUP9 MUL ADD DUP9 SSTORE POP POP POP JUMPDEST POP POP POP POP POP POP JUMP JUMPDEST PUSH0 PUSH1 0x60 DUP3 ADD SWAP1 POP PUSH2 0x2677 PUSH0 DUP4 ADD DUP7 PUSH2 0x1904 JUMP JUMPDEST DUP2 DUP2 SUB PUSH1 0x20 DUP4 ADD MSTORE PUSH2 0x2689 DUP2 DUP6 PUSH2 0x225C JUMP JUMPDEST SWAP1 POP PUSH2 0x2698 PUSH1 0x40 DUP4 ADD DUP5 PUSH2 0x18DC JUMP JUMPDEST SWAP5 SWAP4 POP POP POP POP JUMP JUMPDEST PUSH32 0x416D6F756E74206D7573742062652067726561746572207468616E207A65726F PUSH0 DUP3 ADD MSTORE POP JUMP JUMPDEST PUSH0 PUSH2 0x26D4 PUSH1 0x20 DUP4 PUSH2 0x1E89 JUMP JUMPDEST SWAP2 POP PUSH2 0x26DF DUP3 PUSH2 0x26A0 JUMP JUMPDEST PUSH1 0x20 DUP3 ADD SWAP1 POP SWAP2 SWAP1 POP JUMP JUMPDEST PUSH0 PUSH1 0x20 DUP3 ADD SWAP1 POP DUP2 DUP2 SUB PUSH0 DUP4 ADD MSTORE PUSH2 0x2701 DUP2 PUSH2 0x26C8 JUMP JUMPDEST SWAP1 POP SWAP2 SWAP1 POP JUMP JUMPDEST PUSH0 PUSH1 0x60 DUP3 ADD SWAP1 POP PUSH2 0x271B PUSH0 DUP4 ADD DUP7 PUSH2 0x18DC JUMP JUMPDEST PUSH2 0x2728 PUSH1 0x20 DUP4 ADD DUP6 PUSH2 0x18DC JUMP JUMPDEST PUSH2 0x2735 PUSH1 0x40 DUP4 ADD DUP5 PUSH2 0x1904 JUMP JUMPDEST SWAP5 SWAP4 POP POP POP POP JUMP JUMPDEST PUSH0 DUP2 MLOAD SWAP1 POP PUSH2 0x274B DUP2 PUSH2 0x1BAC JUMP JUMPDEST SWAP3 SWAP2 POP POP JUMP JUMPDEST PUSH0 PUSH1 0x20 DUP3 DUP5 SUB SLT ISZERO PUSH2 0x2766 JUMPI PUSH2 0x2765 PUSH2 0x15E3 JUMP JUMPDEST JUMPDEST PUSH0 PUSH2 0x2773 DUP5 DUP3 DUP6 ADD PUSH2 0x273D JUMP JUMPDEST SWAP2 POP POP SWAP3 SWAP2 POP POP JUMP JUMPDEST PUSH32 0x546F6B656E207472616E73666572206661696C65640000000000000000000000 PUSH0 DUP3 ADD MSTORE POP JUMP JUMPDEST PUSH0 PUSH2 0x27B0 PUSH1 0x15 DUP4 PUSH2 0x1E89 JUMP JUMPDEST SWAP2 POP PUSH2 0x27BB DUP3 PUSH2 0x277C JUMP JUMPDEST PUSH1 0x20 DUP3 ADD SWAP1 POP SWAP2 SWAP1 POP JUMP JUMPDEST PUSH0 PUSH1 0x20 DUP3 ADD SWAP1 POP DUP2 DUP2 SUB PUSH0 DUP4 ADD MSTORE PUSH2 0x27DD DUP2 PUSH2 0x27A4 JUMP JUMPDEST SWAP1 POP SWAP2 SWAP1 POP JUMP JUMPDEST PUSH0 PUSH2 0x27EE DUP3 PUSH2 0x15EB JUMP JUMPDEST SWAP2 POP PUSH2 0x27F9 DUP4 PUSH2 0x15EB JUMP JUMPDEST SWAP3 POP DUP3 DUP3 SUB SWAP1 POP DUP2 DUP2 GT ISZERO PUSH2 0x2811 JUMPI PUSH2 0x2810 PUSH2 0x1E29 JUMP JUMPDEST JUMPDEST SWAP3 SWAP2 POP POP JUMP JUMPDEST PUSH32 0x4E487B7100000000000000000000000000000000000000000000000000000000 PUSH0 MSTORE PUSH1 0x12 PUSH1 0x4 MSTORE PUSH1 0x24 PUSH0 REVERT INVALID LOG2 PUSH5 0x6970667358 0x22 SLT KECCAK256 0xCF OR 0xEC 0xA8 PUSH6 0xD161B97D3A7D DUP13 PUSH5 0xA3F096C1DD 0xFB GASLIMIT PREVRANDAO 0xD5 PUSH28 0x9407C10CFFBD39E57464736F6C634300081A00330000000000000000 "
		},
		"gasEstimates": {
			"creation": {
				"codeDepositCost": "2072400",
				"executionCost": "infinite",
				"totalCost": "infinite"
			},
			"external": {
				"addCollateral(uint256)": "infinite",
				"calculateAllNetClaimValue()": "infinite",
				"calculateNetClaimValue((uint256,string,string,uint256,uint256,uint256,uint256,uint256,uint256,(uint256,uint256,uint256),(uint256,uint256,uint256),address,bool))": "infinite",
				"changePolicyListedStatus(uint256)": "29224",
				"createNewPolicy(string,string,uint256,uint256,uint256,uint256)": "infinite",
				"getPolicy(uint256)": "infinite",
				"owner()": "2582",
				"policyCount()": "2491",
				"renounceOwnership()": "infinite",
				"token()": "infinite",
				"transferOwnership(address)": "infinite",
				"updatePolicyPoolValue(uint256,uint256)": "infinite"
			}
		},
		"methodIdentifiers": {
			"addCollateral(uint256)": "bcc46e83",
			"calculateAllNetClaimValue()": "9d3db268",
			"calculateNetClaimValue((uint256,string,string,uint256,uint256,uint256,uint256,uint256,uint256,(uint256,uint256,uint256),(uint256,uint256,uint256),address,bool))": "dc156a27",
			"changePolicyListedStatus(uint256)": "96945f3e",
			"createNewPolicy(string,string,uint256,uint256,uint256,uint256)": "a719a9cb",
			"getPolicy(uint256)": "2b07fce3",
			"owner()": "8da5cb5b",
			"policyCount()": "de54d429",
			"renounceOwnership()": "715018a6",
			"token()": "fc0c546a",
			"transferOwnership(address)": "f2fde38b",
			"updatePolicyPoolValue(uint256,uint256)": "0c6ab3fa"
		}
	},
	"abi": [
		{
			"inputs": [
				{
					"internalType": "contract CSToken",
					"name": "_token",
					"type": "address"
				}
			],
			"stateMutability": "nonpayable",
			"type": "constructor"
		},
		{
			"inputs": [
				{
					"internalType": "address",
					"name": "owner",
					"type": "address"
				}
			],
			"name": "OwnableInvalidOwner",
			"type": "error"
		},
		{
			"inputs": [
				{
					"internalType": "address",
					"name": "account",
					"type": "address"
				}
			],
			"name": "OwnableUnauthorizedAccount",
			"type": "error"
		},
		{
			"anonymous": false,
			"inputs": [
				{
					"indexed": true,
					"internalType": "address",
					"name": "previousOwner",
					"type": "address"
				},
				{
					"indexed": true,
					"internalType": "address",
					"name": "newOwner",
					"type": "address"
				}
			],
			"name": "OwnershipTransferred",
			"type": "event"
		},
		{
			"anonymous": false,
			"inputs": [
				{
					"indexed": false,
					"internalType": "uint256",
					"name": "policyId",
					"type": "uint256"
				},
				{
					"indexed": false,
					"internalType": "uint256",
					"name": "claimValue",
					"type": "uint256"
				}
			],
			"name": "PolicyClaimed",
			"type": "event"
		},
		{
			"anonymous": false,
			"inputs": [
				{
					"indexed": false,
					"internalType": "uint256",
					"name": "policyId",
					"type": "uint256"
				},
				{
					"indexed": false,
					"internalType": "string",
					"name": "policyName",
					"type": "string"
				},
				{
					"indexed": false,
					"internalType": "address",
					"name": "creator",
					"type": "address"
				}
			],
			"name": "PolicyCreated",
			"type": "event"
		},
		{
			"inputs": [
				{
					"internalType": "uint256",
					"name": "amount",
					"type": "uint256"
				}
			],
			"name": "addCollateral",
			"outputs": [],
			"stateMutability": "nonpayable",
			"type": "function"
		},
		{
			"inputs": [],
			"name": "calculateAllNetClaimValue",
			"outputs": [
				{
					"internalType": "uint256",
					"name": "",
					"type": "uint256"
				}
			],
			"stateMutability": "view",
			"type": "function"
		},
		{
			"inputs": [
				{
					"components": [
						{
							"internalType": "uint256",
							"name": "policyId",
							"type": "uint256"
						},
						{
							"internalType": "string",
							"name": "policyName",
							"type": "string"
						},
						{
							"internalType": "string",
							"name": "policyType",
							"type": "string"
						},
						{
							"internalType": "uint256",
							"name": "claimBackRate",
							"type": "uint256"
						},
						{
							"internalType": "uint256",
							"name": "maxPoolValue",
							"type": "uint256"
						},
						{
							"internalType": "uint256",
							"name": "currPoolValue",
							"type": "uint256"
						},
						{
							"internalType": "uint256",
							"name": "minStake",
							"type": "uint256"
						},
						{
							"internalType": "uint256",
							"name": "creationTime",
							"type": "uint256"
						},
						{
							"internalType": "uint256",
							"name": "coveragePeriod",
							"type": "uint256"
						},
						{
							"components": [
								{
									"internalType": "uint256",
									"name": "year",
									"type": "uint256"
								},
								{
									"internalType": "uint256",
									"name": "month",
									"type": "uint256"
								},
								{
									"internalType": "uint256",
									"name": "day",
									"type": "uint256"
								}
							],
							"internalType": "struct InsuranceCompany.Date",
							"name": "creationDate",
							"type": "tuple"
						},
						{
							"components": [
								{
									"internalType": "uint256",
									"name": "year",
									"type": "uint256"
								},
								{
									"internalType": "uint256",
									"name": "month",
									"type": "uint256"
								},
								{
									"internalType": "uint256",
									"name": "day",
									"type": "uint256"
								}
							],
							"internalType": "struct InsuranceCompany.Date",
							"name": "coverageEndDate",
							"type": "tuple"
						},
						{
							"internalType": "address",
							"name": "creator",
							"type": "address"
						},
						{
							"internalType": "bool",
							"name": "listed",
							"type": "bool"
						}
					],
					"internalType": "struct InsuranceCompany.Policy",
					"name": "p",
					"type": "tuple"
				}
			],
			"name": "calculateNetClaimValue",
			"outputs": [
				{
					"internalType": "uint256",
					"name": "",
					"type": "uint256"
				}
			],
			"stateMutability": "pure",
			"type": "function"
		},
		{
			"inputs": [
				{
					"internalType": "uint256",
					"name": "policyId",
					"type": "uint256"
				}
			],
			"name": "changePolicyListedStatus",
			"outputs": [],
			"stateMutability": "nonpayable",
			"type": "function"
		},
		{
			"inputs": [
				{
					"internalType": "string",
					"name": "_policyName",
					"type": "string"
				},
				{
					"internalType": "string",
					"name": "_policyType",
					"type": "string"
				},
				{
					"internalType": "uint256",
					"name": "_claimBackRate",
					"type": "uint256"
				},
				{
					"internalType": "uint256",
					"name": "_maxPoolValue",
					"type": "uint256"
				},
				{
					"internalType": "uint256",
					"name": "_minStake",
					"type": "uint256"
				},
				{
					"internalType": "uint256",
					"name": "_coveragePeriod",
					"type": "uint256"
				}
			],
			"name": "createNewPolicy",
			"outputs": [],
			"stateMutability": "nonpayable",
			"type": "function"
		},
		{
			"inputs": [
				{
					"internalType": "uint256",
					"name": "policyId",
					"type": "uint256"
				}
			],
			"name": "getPolicy",
			"outputs": [
				{
					"components": [
						{
							"internalType": "uint256",
							"name": "policyId",
							"type": "uint256"
						},
						{
							"internalType": "string",
							"name": "policyName",
							"type": "string"
						},
						{
							"internalType": "string",
							"name": "policyType",
							"type": "string"
						},
						{
							"internalType": "uint256",
							"name": "claimBackRate",
							"type": "uint256"
						},
						{
							"internalType": "uint256",
							"name": "maxPoolValue",
							"type": "uint256"
						},
						{
							"internalType": "uint256",
							"name": "currPoolValue",
							"type": "uint256"
						},
						{
							"internalType": "uint256",
							"name": "minStake",
							"type": "uint256"
						},
						{
							"internalType": "uint256",
							"name": "creationTime",
							"type": "uint256"
						},
						{
							"internalType": "uint256",
							"name": "coveragePeriod",
							"type": "uint256"
						},
						{
							"components": [
								{
									"internalType": "uint256",
									"name": "year",
									"type": "uint256"
								},
								{
									"internalType": "uint256",
									"name": "month",
									"type": "uint256"
								},
								{
									"internalType": "uint256",
									"name": "day",
									"type": "uint256"
								}
							],
							"internalType": "struct InsuranceCompany.Date",
							"name": "creationDate",
							"type": "tuple"
						},
						{
							"components": [
								{
									"internalType": "uint256",
									"name": "year",
									"type": "uint256"
								},
								{
									"internalType": "uint256",
									"name": "month",
									"type": "uint256"
								},
								{
									"internalType": "uint256",
									"name": "day",
									"type": "uint256"
								}
							],
							"internalType": "struct InsuranceCompany.Date",
							"name": "coverageEndDate",
							"type": "tuple"
						},
						{
							"internalType": "address",
							"name": "creator",
							"type": "address"
						},
						{
							"internalType": "bool",
							"name": "listed",
							"type": "bool"
						}
					],
					"internalType": "struct InsuranceCompany.Policy",
					"name": "",
					"type": "tuple"
				}
			],
			"stateMutability": "view",
			"type": "function"
		},
		{
			"inputs": [],
			"name": "owner",
			"outputs": [
				{
					"internalType": "address",
					"name": "",
					"type": "address"
				}
			],
			"stateMutability": "view",
			"type": "function"
		},
		{
			"inputs": [],
			"name": "policyCount",
			"outputs": [
				{
					"internalType": "uint256",
					"name": "",
					"type": "uint256"
				}
			],
			"stateMutability": "view",
			"type": "function"
		},
		{
			"inputs": [],
			"name": "renounceOwnership",
			"outputs": [],
			"stateMutability": "nonpayable",
			"type": "function"
		},
		{
			"inputs": [],
			"name": "token",
			"outputs": [
				{
					"internalType": "contract CSToken",
					"name": "",
					"type": "address"
				}
			],
			"stateMutability": "view",
			"type": "function"
		},
		{
			"inputs": [
				{
					"internalType": "address",
					"name": "newOwner",
					"type": "address"
				}
			],
			"name": "transferOwnership",
			"outputs": [],
			"stateMutability": "nonpayable",
			"type": "function"
		},
		{
			"inputs": [
				{
					"internalType": "uint256",
					"name": "policyId",
					"type": "uint256"
				},
				{
					"internalType": "uint256",
					"name": "newPoolValue",
					"type": "uint256"
				}
			],
			"name": "updatePolicyPoolValue",
			"outputs": [],
			"stateMutability": "nonpayable",
			"type": "function"
		}
	]
}