{
	"data": {
		"bytecode": {
			"linkReferences": {},
			"object": "608060405242600355348015610013575f80fd5b50604051612d7d380380612d7d833981810160405281019061003591906102c8565b335f73ffffffffffffffffffffffffffffffffffffffff168173ffffffffffffffffffffffffffffffffffffffff16036100a6575f6040517f1e4fbdf700000000000000000000000000000000000000000000000000000000815260040161009d9190610302565b60405180910390fd5b6100b58161019860201b60201c565b508060015f6101000a81548173ffffffffffffffffffffffffffffffffffffffff021916908373ffffffffffffffffffffffffffffffffffffffff160217905550600160026040516101069061036f565b90815260200160405180910390205f6101000a81548160ff0219169083151502179055506001600260405161013a906103cd565b90815260200160405180910390205f6101000a81548160ff0219169083151502179055506001600260405161016e9061042b565b90815260200160405180910390205f6101000a81548160ff0219169083151502179055505061043f565b5f805f9054906101000a900473ffffffffffffffffffffffffffffffffffffffff169050815f806101000a81548173ffffffffffffffffffffffffffffffffffffffff021916908373ffffffffffffffffffffffffffffffffffffffff1602179055508173ffffffffffffffffffffffffffffffffffffffff168173ffffffffffffffffffffffffffffffffffffffff167f8be0079c531659141344cd1fd0a4f28419497f9722a3daafe3b4186f6b6457e060405160405180910390a35050565b5f80fd5b5f73ffffffffffffffffffffffffffffffffffffffff82169050919050565b5f6102868261025d565b9050919050565b5f6102978261027c565b9050919050565b6102a78161028d565b81146102b1575f80fd5b50565b5f815190506102c28161029e565b92915050565b5f602082840312156102dd576102dc610259565b5b5f6102ea848285016102b4565b91505092915050565b6102fc8161027c565b82525050565b5f6020820190506103155f8301846102f3565b92915050565b5f81905092915050565b7f54726176656c00000000000000000000000000000000000000000000000000005f82015250565b5f61035960068361031b565b915061036482610325565b600682019050919050565b5f6103798261034d565b9150819050919050565b7f50726f70657274790000000000000000000000000000000000000000000000005f82015250565b5f6103b760088361031b565b91506103c282610383565b600882019050919050565b5f6103d7826103ab565b9150819050919050565b7f4c696665000000000000000000000000000000000000000000000000000000005f82015250565b5f61041560048361031b565b9150610420826103e1565b600482019050919050565b5f61043582610409565b9150819050919050565b6129318061044c5f395ff3fe608060405234801561000f575f80fd5b50600436106100a7575f3560e01c8063a56cf0671161006f578063a56cf0671461013d578063a719a9cb14610159578063dc156a2714610175578063de54d429146101a5578063f2fde38b146101c3578063fc0c546a146101df576100a7565b80632b07fce3146100ab5780634e5e5d10146100db578063715018a6146100f75780638da5cb5b146101015780639d3db2681461011f575b5f80fd5b6100c560048036038101906100c0919061164f565b6101fd565b6040516100d291906118af565b60405180910390f35b6100f560048036038101906100f0919061164f565b6104b0565b005b6100ff610560565b005b610109610573565b60405161011691906118de565b60405180910390f35b61012761059a565b6040516101349190611906565b60405180910390f35b6101576004803603810190610152919061164f565b610899565b005b610173600480360381019061016e9190611a4b565b6109b9565b005b61018f600480360381019061018a9190611d36565b610f45565b60405161019c9190611906565b60405180910390f35b6101ad610f96565b6040516101ba9190611906565b60405180910390f35b6101dd60048036038101906101d89190611d7d565b610f9c565b005b6101e7611020565b6040516101f49190611e03565b60405180910390f35b61020561156a565b5f8211801561021657506004548211155b610255576040517f08c379a000000000000000000000000000000000000000000000000000000000815260040161024c90611e76565b60405180910390fd5b60055f8381526020019081526020015f20604051806101a00160405290815f820154815260200160018201805461028b90611ec1565b80601f01602080910402602001604051908101604052809291908181526020018280546102b790611ec1565b80156103025780601f106102d957610100808354040283529160200191610302565b820191905f5260205f20905b8154815290600101906020018083116102e557829003601f168201915b5050505050815260200160028201805461031b90611ec1565b80601f016020809104026020016040519081016040528092919081815260200182805461034790611ec1565b80156103925780601f1061036957610100808354040283529160200191610392565b820191905f5260205f20905b81548152906001019060200180831161037557829003601f168201915b50505050508152602001600382015481526020016004820154815260200160058201548152602001600682015481526020016007820154815260200160088201548152602001600982016040518060600160405290815f8201548152602001600182015481526020016002820154815250508152602001600c82016040518060600160405290815f8201548152602001600182015481526020016002820154815250508152602001600f82015f9054906101000a900473ffffffffffffffffffffffffffffffffffffffff1673ffffffffffffffffffffffffffffffffffffffff1673ffffffffffffffffffffffffffffffffffffffff168152602001600f820160149054906101000a900460ff1615151515815250509050919050565b5f60055f8381526020019081526020015f2090506001151581600f0160149054906101000a900460ff1615151461051c576040517f08c379a000000000000000000000000000000000000000000000000000000000815260040161051390611f3b565b60405180910390fd5b61052582611045565b7f6a2d58f48f0bc03d33f9cea945a7ec99d443e5a0537350da563ba1f36db4fa24826040516105549190611fc9565b60405180910390a15050565b6105686110d0565b6105715f611157565b565b5f805f9054906101000a900473ffffffffffffffffffffffffffffffffffffffff16905090565b5f805f90505f600190505b6004548111610891573373ffffffffffffffffffffffffffffffffffffffff1660055f8381526020019081526020015f20600f015f9054906101000a900473ffffffffffffffffffffffffffffffffffffffff1673ffffffffffffffffffffffffffffffffffffffff160361087e5761087060055f8381526020019081526020015f20604051806101a00160405290815f820154815260200160018201805461064d90611ec1565b80601f016020809104026020016040519081016040528092919081815260200182805461067990611ec1565b80156106c45780601f1061069b576101008083540402835291602001916106c4565b820191905f5260205f20905b8154815290600101906020018083116106a757829003601f168201915b505050505081526020016002820180546106dd90611ec1565b80601f016020809104026020016040519081016040528092919081815260200182805461070990611ec1565b80156107545780601f1061072b57610100808354040283529160200191610754565b820191905f5260205f20905b81548152906001019060200180831161073757829003601f168201915b50505050508152602001600382015481526020016004820154815260200160058201548152602001600682015481526020016007820154815260200160088201548152602001600982016040518060600160405290815f8201548152602001600182015481526020016002820154815250508152602001600c82016040518060600160405290815f8201548152602001600182015481526020016002820154815250508152602001600f82015f9054906101000a900473ffffffffffffffffffffffffffffffffffffffff1673ffffffffffffffffffffffffffffffffffffffff1673ffffffffffffffffffffffffffffffffffffffff168152602001600f820160149054906101000a900460ff161515151581525050610f45565b8261087b9190612022565b91505b808061088990612055565b9150506105a5565b508091505090565b805f60055f8381526020019081526020015f2090508060040154816006015482600501546108c79190612022565b1115610908576040517f08c379a00000000000000000000000000000000000000000000000000000000081526004016108ff906120e6565b60405180910390fd5b5f60055f8581526020019081526020015f2090505f151581600f0160149054906101000a900460ff16151514610973576040517f08c379a000000000000000000000000000000000000000000000000000000000815260040161096a9061214e565b60405180910390fd5b61097c84611045565b7f916898311b7bd03c784627f7278dbce7ce91f3378dc4359b8b1568568a1e7c84846040516109ab91906121dc565b60405180910390a150505050565b828060015f9054906101000a900473ffffffffffffffffffffffffffffffffffffffff1673ffffffffffffffffffffffffffffffffffffffff166370a08231336040518263ffffffff1660e01b8152600401610a1591906118de565b602060405180830381865afa158015610a30573d5f803e3d5ffd5b505050506040513d601f19601f82011682018060405250810190610a54919061221c565b1015610af760015f9054906101000a900473ffffffffffffffffffffffffffffffffffffffff1673ffffffffffffffffffffffffffffffffffffffff166370a08231336040518263ffffffff1660e01b8152600401610ab391906118de565b602060405180830381865afa158015610ace573d5f803e3d5ffd5b505050506040513d601f19601f82011682018060405250810190610af2919061221c565b611218565b610b0083611218565b604051602001610b119291906123ab565b60405160208183030381529060405290610b61576040517f08c379a0000000000000000000000000000000000000000000000000000000008152600401610b589190612427565b60405180910390fd5b5085600281604051610b739190612447565b90815260200160405180910390205f9054906101000a900460ff16610bcd576040517f08c379a0000000000000000000000000000000000000000000000000000000008152600401610bc4906124a7565b60405180910390fd5b610bd561059a565b60015f9054906101000a900473ffffffffffffffffffffffffffffffffffffffff1673ffffffffffffffffffffffffffffffffffffffff166370a08231336040518263ffffffff1660e01b8152600401610c2f91906118de565b602060405180830381865afa158015610c4a573d5f803e3d5ffd5b505050506040513d601f19601f82011682018060405250810190610c6e919061221c565b11610cae576040517f08c379a0000000000000000000000000000000000000000000000000000000008152600401610ca590612535565b60405180910390fd5b60045f815480929190610cc090612055565b9190505550610ccd6115ed565b610cd86003546112e2565b835f0184602001856040018381525083815250838152505050505f6201518085610d029190612553565b600354610d0f9190612022565b9050610d196115ed565b610d22826112e2565b835f018460200185604001838152508381525083815250505050604051806101a0016040528060045481526020018c81526020018b81526020018a81526020018981526020015f81526020018881526020014281526020016201518088610d899190612553565b81526020018481526020018281526020013373ffffffffffffffffffffffffffffffffffffffff1681526020015f151581525060055f60045481526020019081526020015f205f820151815f01556020820151816001019081610dec9190612728565b506040820151816002019081610e029190612728565b50606082015181600301556080820151816004015560a0820151816005015560c0820151816006015560e082015181600701556101008201518160080155610120820151816009015f820151815f01556020820151816001015560408201518160020155505061014082015181600c015f820151815f01556020820151816001015560408201518160020155505061016082015181600f015f6101000a81548173ffffffffffffffffffffffffffffffffffffffff021916908373ffffffffffffffffffffffffffffffffffffffff16021790555061018082015181600f0160146101000a81548160ff0219169083151502179055509050507fe060903a71989416db77650c9585adbae8f4fc8633a778a547d25e3c78789f4c6004548c33604051610f30939291906127f7565b60405180910390a15050505050505050505050565b5f600182606001511115610f7a57816080015160018360600151610f699190612833565b610f739190612553565b9050610f91565b81608001518260600151610f8e9190612553565b90505b919050565b60045481565b610fa46110d0565b5f73ffffffffffffffffffffffffffffffffffffffff168173ffffffffffffffffffffffffffffffffffffffff1603611014575f6040517f1e4fbdf700000000000000000000000000000000000000000000000000000000815260040161100b91906118de565b60405180910390fd5b61101d81611157565b50565b60015f9054906101000a900473ffffffffffffffffffffffffffffffffffffffff1681565b5f60055f8381526020019081526020015f20905081815f01541461109e576040517f08c379a0000000000000000000000000000000000000000000000000000000008152600401611095906128b0565b60405180910390fd5b80600f0160149054906101000a900460ff161581600f0160146101000a81548160ff0219169083151502179055505050565b6110d8611314565b73ffffffffffffffffffffffffffffffffffffffff166110f6610573565b73ffffffffffffffffffffffffffffffffffffffff161461115557611119611314565b6040517f118cdaa700000000000000000000000000000000000000000000000000000000815260040161114c91906118de565b60405180910390fd5b565b5f805f9054906101000a900473ffffffffffffffffffffffffffffffffffffffff169050815f806101000a81548173ffffffffffffffffffffffffffffffffffffffff021916908373ffffffffffffffffffffffffffffffffffffffff1602179055508173ffffffffffffffffffffffffffffffffffffffff168173ffffffffffffffffffffffffffffffffffffffff167f8be0079c531659141344cd1fd0a4f28419497f9722a3daafe3b4186f6b6457e060405160405180910390a35050565b60605f60016112268461131b565b0190505f8167ffffffffffffffff81111561124457611243611927565b5b6040519080825280601f01601f1916602001820160405280156112765781602001600182028036833780820191505090505b5090505f82602001820190505b6001156112d7578080600190039150507f3031323334353637383961626364656600000000000000000000000000000000600a86061a8153600a85816112cc576112cb6128ce565b5b0494505f8503611283575b819350505050919050565b5f805f6113016201518085816112fb576112fa6128ce565b5b0461146c565b8093508194508295505050509193909250565b5f33905090565b5f805f90507a184f03e93ff9f4daa797ed6e38ed64bf6a1f0100000000000000008310611377577a184f03e93ff9f4daa797ed6e38ed64bf6a1f010000000000000000838161136d5761136c6128ce565b5b0492506040810190505b6d04ee2d6d415b85acef810000000083106113b4576d04ee2d6d415b85acef810000000083816113aa576113a96128ce565b5b0492506020810190505b662386f26fc1000083106113e357662386f26fc1000083816113d9576113d86128ce565b5b0492506010810190505b6305f5e100831061140c576305f5e1008381611402576114016128ce565b5b0492506008810190505b6127108310611431576127108381611427576114266128ce565b5b0492506004810190505b60648310611454576064838161144a576114496128ce565b5b0492506002810190505b600a8310611463576001810190505b80915050919050565b5f805f808490505f62253d8c62010bd983010190505f62023ab18260040281611498576114976128ce565b5b059050600460038262023ab10201816114b4576114b36128ce565b5b05820391505f62164b0960018401610fa002816114d4576114d36128ce565b5b059050601f6004826105b502816114ee576114ed6128ce565b5b0584030192505f61098f846050028161150a576115096128ce565b5b0590505f60508261098f0281611523576115226128ce565b5b0585039050600b8281611539576115386128ce565b5b05945084600c0260028301039150848360318603606402010192508298508197508096505050505050509193909250565b604051806101a001604052805f815260200160608152602001606081526020015f81526020015f81526020015f81526020015f81526020015f81526020015f81526020016115b66115ed565b81526020016115c36115ed565b81526020015f73ffffffffffffffffffffffffffffffffffffffff1681526020015f151581525090565b60405180606001604052805f81526020015f81526020015f81525090565b5f604051905090565b5f80fd5b5f80fd5b5f819050919050565b61162e8161161c565b8114611638575f80fd5b50565b5f8135905061164981611625565b92915050565b5f6020828403121561166457611663611614565b5b5f6116718482850161163b565b91505092915050565b6116838161161c565b82525050565b5f81519050919050565b5f82825260208201905092915050565b8281835e5f83830152505050565b5f601f19601f8301169050919050565b5f6116cb82611689565b6116d58185611693565b93506116e58185602086016116a3565b6116ee816116b1565b840191505092915050565b606082015f82015161170d5f85018261167a565b506020820151611720602085018261167a565b506040820151611733604085018261167a565b50505050565b5f73ffffffffffffffffffffffffffffffffffffffff82169050919050565b5f61176282611739565b9050919050565b61177281611758565b82525050565b5f8115159050919050565b61178c81611778565b82525050565b5f61022083015f8301516117a85f86018261167a565b50602083015184820360208601526117c082826116c1565b915050604083015184820360408601526117da82826116c1565b91505060608301516117ef606086018261167a565b506080830151611802608086018261167a565b5060a083015161181560a086018261167a565b5060c083015161182860c086018261167a565b5060e083015161183b60e086018261167a565b5061010083015161185061010086018261167a565b506101208301516118656101208601826116f9565b5061014083015161187a6101808601826116f9565b5061016083015161188f6101e0860182611769565b506101808301516118a4610200860182611783565b508091505092915050565b5f6020820190508181035f8301526118c78184611792565b905092915050565b6118d881611758565b82525050565b5f6020820190506118f15f8301846118cf565b92915050565b6119008161161c565b82525050565b5f6020820190506119195f8301846118f7565b92915050565b5f80fd5b5f80fd5b7f4e487b71000000000000000000000000000000000000000000000000000000005f52604160045260245ffd5b61195d826116b1565b810181811067ffffffffffffffff8211171561197c5761197b611927565b5b80604052505050565b5f61198e61160b565b905061199a8282611954565b919050565b5f67ffffffffffffffff8211156119b9576119b8611927565b5b6119c2826116b1565b9050602081019050919050565b828183375f83830152505050565b5f6119ef6119ea8461199f565b611985565b905082815260208101848484011115611a0b57611a0a611923565b5b611a168482856119cf565b509392505050565b5f82601f830112611a3257611a3161191f565b5b8135611a428482602086016119dd565b91505092915050565b5f805f805f8060c08789031215611a6557611a64611614565b5b5f87013567ffffffffffffffff811115611a8257611a81611618565b5b611a8e89828a01611a1e565b965050602087013567ffffffffffffffff811115611aaf57611aae611618565b5b611abb89828a01611a1e565b9550506040611acc89828a0161163b565b9450506060611add89828a0161163b565b9350506080611aee89828a0161163b565b92505060a0611aff89828a0161163b565b9150509295509295509295565b5f80fd5b5f80fd5b5f60608284031215611b2957611b28611b0c565b5b611b336060611985565b90505f611b428482850161163b565b5f830152506020611b558482850161163b565b6020830152506040611b698482850161163b565b60408301525092915050565b611b7e81611758565b8114611b88575f80fd5b50565b5f81359050611b9981611b75565b92915050565b611ba881611778565b8114611bb2575f80fd5b50565b5f81359050611bc381611b9f565b92915050565b5f6102208284031215611bdf57611bde611b0c565b5b611bea6101a0611985565b90505f611bf98482850161163b565b5f83015250602082013567ffffffffffffffff811115611c1c57611c1b611b10565b5b611c2884828501611a1e565b602083015250604082013567ffffffffffffffff811115611c4c57611c4b611b10565b5b611c5884828501611a1e565b6040830152506060611c6c8482850161163b565b6060830152506080611c808482850161163b565b60808301525060a0611c948482850161163b565b60a08301525060c0611ca88482850161163b565b60c08301525060e0611cbc8482850161163b565b60e083015250610100611cd18482850161163b565b61010083015250610120611ce784828501611b14565b61012083015250610180611cfd84828501611b14565b610140830152506101e0611d1384828501611b8b565b61016083015250610200611d2984828501611bb5565b6101808301525092915050565b5f60208284031215611d4b57611d4a611614565b5b5f82013567ffffffffffffffff811115611d6857611d67611618565b5b611d7484828501611bc9565b91505092915050565b5f60208284031215611d9257611d91611614565b5b5f611d9f84828501611b8b565b91505092915050565b5f819050919050565b5f611dcb611dc6611dc184611739565b611da8565b611739565b9050919050565b5f611ddc82611db1565b9050919050565b5f611ded82611dd2565b9050919050565b611dfd81611de3565b82525050565b5f602082019050611e165f830184611df4565b92915050565b5f82825260208201905092915050565b7f496e76616c696420706f6c6963792049440000000000000000000000000000005f82015250565b5f611e60601183611e1c565b9150611e6b82611e2c565b602082019050919050565b5f6020820190508181035f830152611e8d81611e54565b9050919050565b7f4e487b71000000000000000000000000000000000000000000000000000000005f52602260045260245ffd5b5f6002820490506001821680611ed857607f821691505b602082108103611eeb57611eea611e94565b5b50919050565b7f506f6c69637920697320616c72656164792064656c69737465640000000000005f82015250565b5f611f25601a83611e1c565b9150611f3082611ef1565b602082019050919050565b5f6020820190508181035f830152611f5281611f19565b9050919050565b7f506f6c69637920686173206265656e2064656c697374656420737563636573735f8201527f66756c6c79210000000000000000000000000000000000000000000000000000602082015250565b5f611fb3602683611e1c565b9150611fbe82611f59565b604082019050919050565b5f604082019050611fdc5f8301846118f7565b8181036020830152611fed81611fa7565b905092915050565b7f4e487b71000000000000000000000000000000000000000000000000000000005f52601160045260245ffd5b5f61202c8261161c565b91506120378361161c565b925082820190508082111561204f5761204e611ff5565b5b92915050565b5f61205f8261161c565b91507fffffffffffffffffffffffffffffffffffffffffffffffffffffffffffffffff820361209157612090611ff5565b5b600182019050919050565b7f596f752063616e6e6f74206c697374207468697320706f6c69637921000000005f82015250565b5f6120d0601c83611e1c565b91506120db8261209c565b602082019050919050565b5f6020820190508181035f8301526120fd816120c4565b9050919050565b7f506f6c69637920697320616c7265616479206c697374656400000000000000005f82015250565b5f612138601883611e1c565b915061214382612104565b602082019050919050565b5f6020820190508181035f8301526121658161212c565b9050919050565b7f506f6c69637920686173206265656e206c6973746564207375636365737366755f8201527f6c6c792100000000000000000000000000000000000000000000000000000000602082015250565b5f6121c6602483611e1c565b91506121d18261216c565b604082019050919050565b5f6040820190506121ef5f8301846118f7565b8181036020830152612200816121ba565b905092915050565b5f8151905061221681611625565b92915050565b5f6020828403121561223157612230611614565b5b5f61223e84828501612208565b91505092915050565b5f81905092915050565b7f596f752063757272656e746c79206861766520000000000000000000000000005f82015250565b5f612285601383612247565b915061229082612251565b601382019050919050565b5f6122a582611689565b6122af8185612247565b93506122bf8185602086016116a3565b80840191505092915050565b7f20746f6b656e732c207768696368206973206e6f7420656e6f75676820746f205f8201527f637265617465206120706f6c6963792077697468206d617820706f6f6c20766160208201527f6c7565206f662000000000000000000000000000000000000000000000000000604082015250565b5f61234b604783612247565b9150612356826122cb565b604782019050919050565b7f20746f6b656e732e0000000000000000000000000000000000000000000000005f82015250565b5f612395600883612247565b91506123a082612361565b600882019050919050565b5f6123b582612279565b91506123c1828561229b565b91506123cc8261233f565b91506123d8828461229b565b91506123e382612389565b91508190509392505050565b5f6123f982611689565b6124038185611e1c565b93506124138185602086016116a3565b61241c816116b1565b840191505092915050565b5f6020820190508181035f83015261243f81846123ef565b905092915050565b5f612452828461229b565b915081905092915050565b7f496e76616c696420706f6c6963792074797065000000000000000000000000005f82015250565b5f612491601383611e1c565b915061249c8261245d565b602082019050919050565b5f6020820190508181035f8301526124be81612485565b9050919050565b7f5269736b206f662062616e6b7275707463793a2072656475636520746865206d5f8201527f617820706f6f6c2076616c756520666f72207468697320706f6c696379000000602082015250565b5f61251f603d83611e1c565b915061252a826124c5565b604082019050919050565b5f6020820190508181035f83015261254c81612513565b9050919050565b5f61255d8261161c565b91506125688361161c565b92508282026125768161161c565b9150828204841483151761258d5761258c611ff5565b5b5092915050565b5f819050815f5260205f209050919050565b5f6020601f8301049050919050565b5f82821b905092915050565b5f600883026125f07fffffffffffffffffffffffffffffffffffffffffffffffffffffffffffffffff826125b5565b6125fa86836125b5565b95508019841693508086168417925050509392505050565b5f61262c6126276126228461161c565b611da8565b61161c565b9050919050565b5f819050919050565b61264583612612565b61265961265182612633565b8484546125c1565b825550505050565b5f90565b61266d612661565b61267881848461263c565b505050565b5b8181101561269b576126905f82612665565b60018101905061267e565b5050565b601f8211156126e0576126b181612594565b6126ba846125a6565b810160208510156126c9578190505b6126dd6126d5856125a6565b83018261267d565b50505b505050565b5f82821c905092915050565b5f6127005f19846008026126e5565b1980831691505092915050565b5f61271883836126f1565b9150826002028217905092915050565b61273182611689565b67ffffffffffffffff81111561274a57612749611927565b5b6127548254611ec1565b61275f82828561269f565b5f60209050601f831160018114612790575f841561277e578287015190505b612788858261270d565b8655506127ef565b601f19841661279e86612594565b5f5b828110156127c5578489015182556001820191506020850194506020810190506127a0565b868310156127e257848901516127de601f8916826126f1565b8355505b6001600288020188555050505b505050505050565b5f60608201905061280a5f8301866118f7565b818103602083015261281c81856123ef565b905061282b60408301846118cf565b949350505050565b5f61283d8261161c565b91506128488361161c565b92508282039050818111156128605761285f611ff5565b5b92915050565b7f506f6c696379206e6f7420666f756e64000000000000000000000000000000005f82015250565b5f61289a601083611e1c565b91506128a582612866565b602082019050919050565b5f6020820190508181035f8301526128c78161288e565b9050919050565b7f4e487b71000000000000000000000000000000000000000000000000000000005f52601260045260245ffdfea2646970667358221220a76ffcdc7207341a7728af1450ff7aa5b16a2793cfa9d8085053e87c77342ae864736f6c634300081a0033",
			"opcodes": "PUSH1 0x80 PUSH1 0x40 MSTORE TIMESTAMP PUSH1 0x3 SSTORE CALLVALUE DUP1 ISZERO PUSH2 0x13 JUMPI PUSH0 DUP1 REVERT JUMPDEST POP PUSH1 0x40 MLOAD PUSH2 0x2D7D CODESIZE SUB DUP1 PUSH2 0x2D7D DUP4 CODECOPY DUP2 DUP2 ADD PUSH1 0x40 MSTORE DUP2 ADD SWAP1 PUSH2 0x35 SWAP2 SWAP1 PUSH2 0x2C8 JUMP JUMPDEST CALLER PUSH0 PUSH20 0xFFFFFFFFFFFFFFFFFFFFFFFFFFFFFFFFFFFFFFFF AND DUP2 PUSH20 0xFFFFFFFFFFFFFFFFFFFFFFFFFFFFFFFFFFFFFFFF AND SUB PUSH2 0xA6 JUMPI PUSH0 PUSH1 0x40 MLOAD PUSH32 0x1E4FBDF700000000000000000000000000000000000000000000000000000000 DUP2 MSTORE PUSH1 0x4 ADD PUSH2 0x9D SWAP2 SWAP1 PUSH2 0x302 JUMP JUMPDEST PUSH1 0x40 MLOAD DUP1 SWAP2 SUB SWAP1 REVERT JUMPDEST PUSH2 0xB5 DUP2 PUSH2 0x198 PUSH1 0x20 SHL PUSH1 0x20 SHR JUMP JUMPDEST POP DUP1 PUSH1 0x1 PUSH0 PUSH2 0x100 EXP DUP2 SLOAD DUP2 PUSH20 0xFFFFFFFFFFFFFFFFFFFFFFFFFFFFFFFFFFFFFFFF MUL NOT AND SWAP1 DUP4 PUSH20 0xFFFFFFFFFFFFFFFFFFFFFFFFFFFFFFFFFFFFFFFF AND MUL OR SWAP1 SSTORE POP PUSH1 0x1 PUSH1 0x2 PUSH1 0x40 MLOAD PUSH2 0x106 SWAP1 PUSH2 0x36F JUMP JUMPDEST SWAP1 DUP2 MSTORE PUSH1 0x20 ADD PUSH1 0x40 MLOAD DUP1 SWAP2 SUB SWAP1 KECCAK256 PUSH0 PUSH2 0x100 EXP DUP2 SLOAD DUP2 PUSH1 0xFF MUL NOT AND SWAP1 DUP4 ISZERO ISZERO MUL OR SWAP1 SSTORE POP PUSH1 0x1 PUSH1 0x2 PUSH1 0x40 MLOAD PUSH2 0x13A SWAP1 PUSH2 0x3CD JUMP JUMPDEST SWAP1 DUP2 MSTORE PUSH1 0x20 ADD PUSH1 0x40 MLOAD DUP1 SWAP2 SUB SWAP1 KECCAK256 PUSH0 PUSH2 0x100 EXP DUP2 SLOAD DUP2 PUSH1 0xFF MUL NOT AND SWAP1 DUP4 ISZERO ISZERO MUL OR SWAP1 SSTORE POP PUSH1 0x1 PUSH1 0x2 PUSH1 0x40 MLOAD PUSH2 0x16E SWAP1 PUSH2 0x42B JUMP JUMPDEST SWAP1 DUP2 MSTORE PUSH1 0x20 ADD PUSH1 0x40 MLOAD DUP1 SWAP2 SUB SWAP1 KECCAK256 PUSH0 PUSH2 0x100 EXP DUP2 SLOAD DUP2 PUSH1 0xFF MUL NOT AND SWAP1 DUP4 ISZERO ISZERO MUL OR SWAP1 SSTORE POP POP PUSH2 0x43F JUMP JUMPDEST PUSH0 DUP1 PUSH0 SWAP1 SLOAD SWAP1 PUSH2 0x100 EXP SWAP1 DIV PUSH20 0xFFFFFFFFFFFFFFFFFFFFFFFFFFFFFFFFFFFFFFFF AND SWAP1 POP DUP2 PUSH0 DUP1 PUSH2 0x100 EXP DUP2 SLOAD DUP2 PUSH20 0xFFFFFFFFFFFFFFFFFFFFFFFFFFFFFFFFFFFFFFFF MUL NOT AND SWAP1 DUP4 PUSH20 0xFFFFFFFFFFFFFFFFFFFFFFFFFFFFFFFFFFFFFFFF AND MUL OR SWAP1 SSTORE POP DUP2 PUSH20 0xFFFFFFFFFFFFFFFFFFFFFFFFFFFFFFFFFFFFFFFF AND DUP2 PUSH20 0xFFFFFFFFFFFFFFFFFFFFFFFFFFFFFFFFFFFFFFFF AND PUSH32 0x8BE0079C531659141344CD1FD0A4F28419497F9722A3DAAFE3B4186F6B6457E0 PUSH1 0x40 MLOAD PUSH1 0x40 MLOAD DUP1 SWAP2 SUB SWAP1 LOG3 POP POP JUMP JUMPDEST PUSH0 DUP1 REVERT JUMPDEST PUSH0 PUSH20 0xFFFFFFFFFFFFFFFFFFFFFFFFFFFFFFFFFFFFFFFF DUP3 AND SWAP1 POP SWAP2 SWAP1 POP JUMP JUMPDEST PUSH0 PUSH2 0x286 DUP3 PUSH2 0x25D JUMP JUMPDEST SWAP1 POP SWAP2 SWAP1 POP JUMP JUMPDEST PUSH0 PUSH2 0x297 DUP3 PUSH2 0x27C JUMP JUMPDEST SWAP1 POP SWAP2 SWAP1 POP JUMP JUMPDEST PUSH2 0x2A7 DUP2 PUSH2 0x28D JUMP JUMPDEST DUP2 EQ PUSH2 0x2B1 JUMPI PUSH0 DUP1 REVERT JUMPDEST POP JUMP JUMPDEST PUSH0 DUP2 MLOAD SWAP1 POP PUSH2 0x2C2 DUP2 PUSH2 0x29E JUMP JUMPDEST SWAP3 SWAP2 POP POP JUMP JUMPDEST PUSH0 PUSH1 0x20 DUP3 DUP5 SUB SLT ISZERO PUSH2 0x2DD JUMPI PUSH2 0x2DC PUSH2 0x259 JUMP JUMPDEST JUMPDEST PUSH0 PUSH2 0x2EA DUP5 DUP3 DUP6 ADD PUSH2 0x2B4 JUMP JUMPDEST SWAP2 POP POP SWAP3 SWAP2 POP POP JUMP JUMPDEST PUSH2 0x2FC DUP2 PUSH2 0x27C JUMP JUMPDEST DUP3 MSTORE POP POP JUMP JUMPDEST PUSH0 PUSH1 0x20 DUP3 ADD SWAP1 POP PUSH2 0x315 PUSH0 DUP4 ADD DUP5 PUSH2 0x2F3 JUMP JUMPDEST SWAP3 SWAP2 POP POP JUMP JUMPDEST PUSH0 DUP2 SWAP1 POP SWAP3 SWAP2 POP POP JUMP JUMPDEST PUSH32 0x54726176656C0000000000000000000000000000000000000000000000000000 PUSH0 DUP3 ADD MSTORE POP JUMP JUMPDEST PUSH0 PUSH2 0x359 PUSH1 0x6 DUP4 PUSH2 0x31B JUMP JUMPDEST SWAP2 POP PUSH2 0x364 DUP3 PUSH2 0x325 JUMP JUMPDEST PUSH1 0x6 DUP3 ADD SWAP1 POP SWAP2 SWAP1 POP JUMP JUMPDEST PUSH0 PUSH2 0x379 DUP3 PUSH2 0x34D JUMP JUMPDEST SWAP2 POP DUP2 SWAP1 POP SWAP2 SWAP1 POP JUMP JUMPDEST PUSH32 0x50726F7065727479000000000000000000000000000000000000000000000000 PUSH0 DUP3 ADD MSTORE POP JUMP JUMPDEST PUSH0 PUSH2 0x3B7 PUSH1 0x8 DUP4 PUSH2 0x31B JUMP JUMPDEST SWAP2 POP PUSH2 0x3C2 DUP3 PUSH2 0x383 JUMP JUMPDEST PUSH1 0x8 DUP3 ADD SWAP1 POP SWAP2 SWAP1 POP JUMP JUMPDEST PUSH0 PUSH2 0x3D7 DUP3 PUSH2 0x3AB JUMP JUMPDEST SWAP2 POP DUP2 SWAP1 POP SWAP2 SWAP1 POP JUMP JUMPDEST PUSH32 0x4C69666500000000000000000000000000000000000000000000000000000000 PUSH0 DUP3 ADD MSTORE POP JUMP JUMPDEST PUSH0 PUSH2 0x415 PUSH1 0x4 DUP4 PUSH2 0x31B JUMP JUMPDEST SWAP2 POP PUSH2 0x420 DUP3 PUSH2 0x3E1 JUMP JUMPDEST PUSH1 0x4 DUP3 ADD SWAP1 POP SWAP2 SWAP1 POP JUMP JUMPDEST PUSH0 PUSH2 0x435 DUP3 PUSH2 0x409 JUMP JUMPDEST SWAP2 POP DUP2 SWAP1 POP SWAP2 SWAP1 POP JUMP JUMPDEST PUSH2 0x2931 DUP1 PUSH2 0x44C PUSH0 CODECOPY PUSH0 RETURN INVALID PUSH1 0x80 PUSH1 0x40 MSTORE CALLVALUE DUP1 ISZERO PUSH2 0xF JUMPI PUSH0 DUP1 REVERT JUMPDEST POP PUSH1 0x4 CALLDATASIZE LT PUSH2 0xA7 JUMPI PUSH0 CALLDATALOAD PUSH1 0xE0 SHR DUP1 PUSH4 0xA56CF067 GT PUSH2 0x6F JUMPI DUP1 PUSH4 0xA56CF067 EQ PUSH2 0x13D JUMPI DUP1 PUSH4 0xA719A9CB EQ PUSH2 0x159 JUMPI DUP1 PUSH4 0xDC156A27 EQ PUSH2 0x175 JUMPI DUP1 PUSH4 0xDE54D429 EQ PUSH2 0x1A5 JUMPI DUP1 PUSH4 0xF2FDE38B EQ PUSH2 0x1C3 JUMPI DUP1 PUSH4 0xFC0C546A EQ PUSH2 0x1DF JUMPI PUSH2 0xA7 JUMP JUMPDEST DUP1 PUSH4 0x2B07FCE3 EQ PUSH2 0xAB JUMPI DUP1 PUSH4 0x4E5E5D10 EQ PUSH2 0xDB JUMPI DUP1 PUSH4 0x715018A6 EQ PUSH2 0xF7 JUMPI DUP1 PUSH4 0x8DA5CB5B EQ PUSH2 0x101 JUMPI DUP1 PUSH4 0x9D3DB268 EQ PUSH2 0x11F JUMPI JUMPDEST PUSH0 DUP1 REVERT JUMPDEST PUSH2 0xC5 PUSH1 0x4 DUP1 CALLDATASIZE SUB DUP2 ADD SWAP1 PUSH2 0xC0 SWAP2 SWAP1 PUSH2 0x164F JUMP JUMPDEST PUSH2 0x1FD JUMP JUMPDEST PUSH1 0x40 MLOAD PUSH2 0xD2 SWAP2 SWAP1 PUSH2 0x18AF JUMP JUMPDEST PUSH1 0x40 MLOAD DUP1 SWAP2 SUB SWAP1 RETURN JUMPDEST PUSH2 0xF5 PUSH1 0x4 DUP1 CALLDATASIZE SUB DUP2 ADD SWAP1 PUSH2 0xF0 SWAP2 SWAP1 PUSH2 0x164F JUMP JUMPDEST PUSH2 0x4B0 JUMP JUMPDEST STOP JUMPDEST PUSH2 0xFF PUSH2 0x560 JUMP JUMPDEST STOP JUMPDEST PUSH2 0x109 PUSH2 0x573 JUMP JUMPDEST PUSH1 0x40 MLOAD PUSH2 0x116 SWAP2 SWAP1 PUSH2 0x18DE JUMP JUMPDEST PUSH1 0x40 MLOAD DUP1 SWAP2 SUB SWAP1 RETURN JUMPDEST PUSH2 0x127 PUSH2 0x59A JUMP JUMPDEST PUSH1 0x40 MLOAD PUSH2 0x134 SWAP2 SWAP1 PUSH2 0x1906 JUMP JUMPDEST PUSH1 0x40 MLOAD DUP1 SWAP2 SUB SWAP1 RETURN JUMPDEST PUSH2 0x157 PUSH1 0x4 DUP1 CALLDATASIZE SUB DUP2 ADD SWAP1 PUSH2 0x152 SWAP2 SWAP1 PUSH2 0x164F JUMP JUMPDEST PUSH2 0x899 JUMP JUMPDEST STOP JUMPDEST PUSH2 0x173 PUSH1 0x4 DUP1 CALLDATASIZE SUB DUP2 ADD SWAP1 PUSH2 0x16E SWAP2 SWAP1 PUSH2 0x1A4B JUMP JUMPDEST PUSH2 0x9B9 JUMP JUMPDEST STOP JUMPDEST PUSH2 0x18F PUSH1 0x4 DUP1 CALLDATASIZE SUB DUP2 ADD SWAP1 PUSH2 0x18A SWAP2 SWAP1 PUSH2 0x1D36 JUMP JUMPDEST PUSH2 0xF45 JUMP JUMPDEST PUSH1 0x40 MLOAD PUSH2 0x19C SWAP2 SWAP1 PUSH2 0x1906 JUMP JUMPDEST PUSH1 0x40 MLOAD DUP1 SWAP2 SUB SWAP1 RETURN JUMPDEST PUSH2 0x1AD PUSH2 0xF96 JUMP JUMPDEST PUSH1 0x40 MLOAD PUSH2 0x1BA SWAP2 SWAP1 PUSH2 0x1906 JUMP JUMPDEST PUSH1 0x40 MLOAD DUP1 SWAP2 SUB SWAP1 RETURN JUMPDEST PUSH2 0x1DD PUSH1 0x4 DUP1 CALLDATASIZE SUB DUP2 ADD SWAP1 PUSH2 0x1D8 SWAP2 SWAP1 PUSH2 0x1D7D JUMP JUMPDEST PUSH2 0xF9C JUMP JUMPDEST STOP JUMPDEST PUSH2 0x1E7 PUSH2 0x1020 JUMP JUMPDEST PUSH1 0x40 MLOAD PUSH2 0x1F4 SWAP2 SWAP1 PUSH2 0x1E03 JUMP JUMPDEST PUSH1 0x40 MLOAD DUP1 SWAP2 SUB SWAP1 RETURN JUMPDEST PUSH2 0x205 PUSH2 0x156A JUMP JUMPDEST PUSH0 DUP3 GT DUP1 ISZERO PUSH2 0x216 JUMPI POP PUSH1 0x4 SLOAD DUP3 GT ISZERO JUMPDEST PUSH2 0x255 JUMPI PUSH1 0x40 MLOAD PUSH32 0x8C379A000000000000000000000000000000000000000000000000000000000 DUP2 MSTORE PUSH1 0x4 ADD PUSH2 0x24C SWAP1 PUSH2 0x1E76 JUMP JUMPDEST PUSH1 0x40 MLOAD DUP1 SWAP2 SUB SWAP1 REVERT JUMPDEST PUSH1 0x5 PUSH0 DUP4 DUP2 MSTORE PUSH1 0x20 ADD SWAP1 DUP2 MSTORE PUSH1 0x20 ADD PUSH0 KECCAK256 PUSH1 0x40 MLOAD DUP1 PUSH2 0x1A0 ADD PUSH1 0x40 MSTORE SWAP1 DUP2 PUSH0 DUP3 ADD SLOAD DUP2 MSTORE PUSH1 0x20 ADD PUSH1 0x1 DUP3 ADD DUP1 SLOAD PUSH2 0x28B SWAP1 PUSH2 0x1EC1 JUMP JUMPDEST DUP1 PUSH1 0x1F ADD PUSH1 0x20 DUP1 SWAP2 DIV MUL PUSH1 0x20 ADD PUSH1 0x40 MLOAD SWAP1 DUP2 ADD PUSH1 0x40 MSTORE DUP1 SWAP3 SWAP2 SWAP1 DUP2 DUP2 MSTORE PUSH1 0x20 ADD DUP3 DUP1 SLOAD PUSH2 0x2B7 SWAP1 PUSH2 0x1EC1 JUMP JUMPDEST DUP1 ISZERO PUSH2 0x302 JUMPI DUP1 PUSH1 0x1F LT PUSH2 0x2D9 JUMPI PUSH2 0x100 DUP1 DUP4 SLOAD DIV MUL DUP4 MSTORE SWAP2 PUSH1 0x20 ADD SWAP2 PUSH2 0x302 JUMP JUMPDEST DUP3 ADD SWAP2 SWAP1 PUSH0 MSTORE PUSH1 0x20 PUSH0 KECCAK256 SWAP1 JUMPDEST DUP2 SLOAD DUP2 MSTORE SWAP1 PUSH1 0x1 ADD SWAP1 PUSH1 0x20 ADD DUP1 DUP4 GT PUSH2 0x2E5 JUMPI DUP3 SWAP1 SUB PUSH1 0x1F AND DUP3 ADD SWAP2 JUMPDEST POP POP POP POP POP DUP2 MSTORE PUSH1 0x20 ADD PUSH1 0x2 DUP3 ADD DUP1 SLOAD PUSH2 0x31B SWAP1 PUSH2 0x1EC1 JUMP JUMPDEST DUP1 PUSH1 0x1F ADD PUSH1 0x20 DUP1 SWAP2 DIV MUL PUSH1 0x20 ADD PUSH1 0x40 MLOAD SWAP1 DUP2 ADD PUSH1 0x40 MSTORE DUP1 SWAP3 SWAP2 SWAP1 DUP2 DUP2 MSTORE PUSH1 0x20 ADD DUP3 DUP1 SLOAD PUSH2 0x347 SWAP1 PUSH2 0x1EC1 JUMP JUMPDEST DUP1 ISZERO PUSH2 0x392 JUMPI DUP1 PUSH1 0x1F LT PUSH2 0x369 JUMPI PUSH2 0x100 DUP1 DUP4 SLOAD DIV MUL DUP4 MSTORE SWAP2 PUSH1 0x20 ADD SWAP2 PUSH2 0x392 JUMP JUMPDEST DUP3 ADD SWAP2 SWAP1 PUSH0 MSTORE PUSH1 0x20 PUSH0 KECCAK256 SWAP1 JUMPDEST DUP2 SLOAD DUP2 MSTORE SWAP1 PUSH1 0x1 ADD SWAP1 PUSH1 0x20 ADD DUP1 DUP4 GT PUSH2 0x375 JUMPI DUP3 SWAP1 SUB PUSH1 0x1F AND DUP3 ADD SWAP2 JUMPDEST POP POP POP POP POP DUP2 MSTORE PUSH1 0x20 ADD PUSH1 0x3 DUP3 ADD SLOAD DUP2 MSTORE PUSH1 0x20 ADD PUSH1 0x4 DUP3 ADD SLOAD DUP2 MSTORE PUSH1 0x20 ADD PUSH1 0x5 DUP3 ADD SLOAD DUP2 MSTORE PUSH1 0x20 ADD PUSH1 0x6 DUP3 ADD SLOAD DUP2 MSTORE PUSH1 0x20 ADD PUSH1 0x7 DUP3 ADD SLOAD DUP2 MSTORE PUSH1 0x20 ADD PUSH1 0x8 DUP3 ADD SLOAD DUP2 MSTORE PUSH1 0x20 ADD PUSH1 0x9 DUP3 ADD PUSH1 0x40 MLOAD DUP1 PUSH1 0x60 ADD PUSH1 0x40 MSTORE SWAP1 DUP2 PUSH0 DUP3 ADD SLOAD DUP2 MSTORE PUSH1 0x20 ADD PUSH1 0x1 DUP3 ADD SLOAD DUP2 MSTORE PUSH1 0x20 ADD PUSH1 0x2 DUP3 ADD SLOAD DUP2 MSTORE POP POP DUP2 MSTORE PUSH1 0x20 ADD PUSH1 0xC DUP3 ADD PUSH1 0x40 MLOAD DUP1 PUSH1 0x60 ADD PUSH1 0x40 MSTORE SWAP1 DUP2 PUSH0 DUP3 ADD SLOAD DUP2 MSTORE PUSH1 0x20 ADD PUSH1 0x1 DUP3 ADD SLOAD DUP2 MSTORE PUSH1 0x20 ADD PUSH1 0x2 DUP3 ADD SLOAD DUP2 MSTORE POP POP DUP2 MSTORE PUSH1 0x20 ADD PUSH1 0xF DUP3 ADD PUSH0 SWAP1 SLOAD SWAP1 PUSH2 0x100 EXP SWAP1 DIV PUSH20 0xFFFFFFFFFFFFFFFFFFFFFFFFFFFFFFFFFFFFFFFF AND PUSH20 0xFFFFFFFFFFFFFFFFFFFFFFFFFFFFFFFFFFFFFFFF AND PUSH20 0xFFFFFFFFFFFFFFFFFFFFFFFFFFFFFFFFFFFFFFFF AND DUP2 MSTORE PUSH1 0x20 ADD PUSH1 0xF DUP3 ADD PUSH1 0x14 SWAP1 SLOAD SWAP1 PUSH2 0x100 EXP SWAP1 DIV PUSH1 0xFF AND ISZERO ISZERO ISZERO ISZERO DUP2 MSTORE POP POP SWAP1 POP SWAP2 SWAP1 POP JUMP JUMPDEST PUSH0 PUSH1 0x5 PUSH0 DUP4 DUP2 MSTORE PUSH1 0x20 ADD SWAP1 DUP2 MSTORE PUSH1 0x20 ADD PUSH0 KECCAK256 SWAP1 POP PUSH1 0x1 ISZERO ISZERO DUP2 PUSH1 0xF ADD PUSH1 0x14 SWAP1 SLOAD SWAP1 PUSH2 0x100 EXP SWAP1 DIV PUSH1 0xFF AND ISZERO ISZERO EQ PUSH2 0x51C JUMPI PUSH1 0x40 MLOAD PUSH32 0x8C379A000000000000000000000000000000000000000000000000000000000 DUP2 MSTORE PUSH1 0x4 ADD PUSH2 0x513 SWAP1 PUSH2 0x1F3B JUMP JUMPDEST PUSH1 0x40 MLOAD DUP1 SWAP2 SUB SWAP1 REVERT JUMPDEST PUSH2 0x525 DUP3 PUSH2 0x1045 JUMP JUMPDEST PUSH32 0x6A2D58F48F0BC03D33F9CEA945A7EC99D443E5A0537350DA563BA1F36DB4FA24 DUP3 PUSH1 0x40 MLOAD PUSH2 0x554 SWAP2 SWAP1 PUSH2 0x1FC9 JUMP JUMPDEST PUSH1 0x40 MLOAD DUP1 SWAP2 SUB SWAP1 LOG1 POP POP JUMP JUMPDEST PUSH2 0x568 PUSH2 0x10D0 JUMP JUMPDEST PUSH2 0x571 PUSH0 PUSH2 0x1157 JUMP JUMPDEST JUMP JUMPDEST PUSH0 DUP1 PUSH0 SWAP1 SLOAD SWAP1 PUSH2 0x100 EXP SWAP1 DIV PUSH20 0xFFFFFFFFFFFFFFFFFFFFFFFFFFFFFFFFFFFFFFFF AND SWAP1 POP SWAP1 JUMP JUMPDEST PUSH0 DUP1 PUSH0 SWAP1 POP PUSH0 PUSH1 0x1 SWAP1 POP JUMPDEST PUSH1 0x4 SLOAD DUP2 GT PUSH2 0x891 JUMPI CALLER PUSH20 0xFFFFFFFFFFFFFFFFFFFFFFFFFFFFFFFFFFFFFFFF AND PUSH1 0x5 PUSH0 DUP4 DUP2 MSTORE PUSH1 0x20 ADD SWAP1 DUP2 MSTORE PUSH1 0x20 ADD PUSH0 KECCAK256 PUSH1 0xF ADD PUSH0 SWAP1 SLOAD SWAP1 PUSH2 0x100 EXP SWAP1 DIV PUSH20 0xFFFFFFFFFFFFFFFFFFFFFFFFFFFFFFFFFFFFFFFF AND PUSH20 0xFFFFFFFFFFFFFFFFFFFFFFFFFFFFFFFFFFFFFFFF AND SUB PUSH2 0x87E JUMPI PUSH2 0x870 PUSH1 0x5 PUSH0 DUP4 DUP2 MSTORE PUSH1 0x20 ADD SWAP1 DUP2 MSTORE PUSH1 0x20 ADD PUSH0 KECCAK256 PUSH1 0x40 MLOAD DUP1 PUSH2 0x1A0 ADD PUSH1 0x40 MSTORE SWAP1 DUP2 PUSH0 DUP3 ADD SLOAD DUP2 MSTORE PUSH1 0x20 ADD PUSH1 0x1 DUP3 ADD DUP1 SLOAD PUSH2 0x64D SWAP1 PUSH2 0x1EC1 JUMP JUMPDEST DUP1 PUSH1 0x1F ADD PUSH1 0x20 DUP1 SWAP2 DIV MUL PUSH1 0x20 ADD PUSH1 0x40 MLOAD SWAP1 DUP2 ADD PUSH1 0x40 MSTORE DUP1 SWAP3 SWAP2 SWAP1 DUP2 DUP2 MSTORE PUSH1 0x20 ADD DUP3 DUP1 SLOAD PUSH2 0x679 SWAP1 PUSH2 0x1EC1 JUMP JUMPDEST DUP1 ISZERO PUSH2 0x6C4 JUMPI DUP1 PUSH1 0x1F LT PUSH2 0x69B JUMPI PUSH2 0x100 DUP1 DUP4 SLOAD DIV MUL DUP4 MSTORE SWAP2 PUSH1 0x20 ADD SWAP2 PUSH2 0x6C4 JUMP JUMPDEST DUP3 ADD SWAP2 SWAP1 PUSH0 MSTORE PUSH1 0x20 PUSH0 KECCAK256 SWAP1 JUMPDEST DUP2 SLOAD DUP2 MSTORE SWAP1 PUSH1 0x1 ADD SWAP1 PUSH1 0x20 ADD DUP1 DUP4 GT PUSH2 0x6A7 JUMPI DUP3 SWAP1 SUB PUSH1 0x1F AND DUP3 ADD SWAP2 JUMPDEST POP POP POP POP POP DUP2 MSTORE PUSH1 0x20 ADD PUSH1 0x2 DUP3 ADD DUP1 SLOAD PUSH2 0x6DD SWAP1 PUSH2 0x1EC1 JUMP JUMPDEST DUP1 PUSH1 0x1F ADD PUSH1 0x20 DUP1 SWAP2 DIV MUL PUSH1 0x20 ADD PUSH1 0x40 MLOAD SWAP1 DUP2 ADD PUSH1 0x40 MSTORE DUP1 SWAP3 SWAP2 SWAP1 DUP2 DUP2 MSTORE PUSH1 0x20 ADD DUP3 DUP1 SLOAD PUSH2 0x709 SWAP1 PUSH2 0x1EC1 JUMP JUMPDEST DUP1 ISZERO PUSH2 0x754 JUMPI DUP1 PUSH1 0x1F LT PUSH2 0x72B JUMPI PUSH2 0x100 DUP1 DUP4 SLOAD DIV MUL DUP4 MSTORE SWAP2 PUSH1 0x20 ADD SWAP2 PUSH2 0x754 JUMP JUMPDEST DUP3 ADD SWAP2 SWAP1 PUSH0 MSTORE PUSH1 0x20 PUSH0 KECCAK256 SWAP1 JUMPDEST DUP2 SLOAD DUP2 MSTORE SWAP1 PUSH1 0x1 ADD SWAP1 PUSH1 0x20 ADD DUP1 DUP4 GT PUSH2 0x737 JUMPI DUP3 SWAP1 SUB PUSH1 0x1F AND DUP3 ADD SWAP2 JUMPDEST POP POP POP POP POP DUP2 MSTORE PUSH1 0x20 ADD PUSH1 0x3 DUP3 ADD SLOAD DUP2 MSTORE PUSH1 0x20 ADD PUSH1 0x4 DUP3 ADD SLOAD DUP2 MSTORE PUSH1 0x20 ADD PUSH1 0x5 DUP3 ADD SLOAD DUP2 MSTORE PUSH1 0x20 ADD PUSH1 0x6 DUP3 ADD SLOAD DUP2 MSTORE PUSH1 0x20 ADD PUSH1 0x7 DUP3 ADD SLOAD DUP2 MSTORE PUSH1 0x20 ADD PUSH1 0x8 DUP3 ADD SLOAD DUP2 MSTORE PUSH1 0x20 ADD PUSH1 0x9 DUP3 ADD PUSH1 0x40 MLOAD DUP1 PUSH1 0x60 ADD PUSH1 0x40 MSTORE SWAP1 DUP2 PUSH0 DUP3 ADD SLOAD DUP2 MSTORE PUSH1 0x20 ADD PUSH1 0x1 DUP3 ADD SLOAD DUP2 MSTORE PUSH1 0x20 ADD PUSH1 0x2 DUP3 ADD SLOAD DUP2 MSTORE POP POP DUP2 MSTORE PUSH1 0x20 ADD PUSH1 0xC DUP3 ADD PUSH1 0x40 MLOAD DUP1 PUSH1 0x60 ADD PUSH1 0x40 MSTORE SWAP1 DUP2 PUSH0 DUP3 ADD SLOAD DUP2 MSTORE PUSH1 0x20 ADD PUSH1 0x1 DUP3 ADD SLOAD DUP2 MSTORE PUSH1 0x20 ADD PUSH1 0x2 DUP3 ADD SLOAD DUP2 MSTORE POP POP DUP2 MSTORE PUSH1 0x20 ADD PUSH1 0xF DUP3 ADD PUSH0 SWAP1 SLOAD SWAP1 PUSH2 0x100 EXP SWAP1 DIV PUSH20 0xFFFFFFFFFFFFFFFFFFFFFFFFFFFFFFFFFFFFFFFF AND PUSH20 0xFFFFFFFFFFFFFFFFFFFFFFFFFFFFFFFFFFFFFFFF AND PUSH20 0xFFFFFFFFFFFFFFFFFFFFFFFFFFFFFFFFFFFFFFFF AND DUP2 MSTORE PUSH1 0x20 ADD PUSH1 0xF DUP3 ADD PUSH1 0x14 SWAP1 SLOAD SWAP1 PUSH2 0x100 EXP SWAP1 DIV PUSH1 0xFF AND ISZERO ISZERO ISZERO ISZERO DUP2 MSTORE POP POP PUSH2 0xF45 JUMP JUMPDEST DUP3 PUSH2 0x87B SWAP2 SWAP1 PUSH2 0x2022 JUMP JUMPDEST SWAP2 POP JUMPDEST DUP1 DUP1 PUSH2 0x889 SWAP1 PUSH2 0x2055 JUMP JUMPDEST SWAP2 POP POP PUSH2 0x5A5 JUMP JUMPDEST POP DUP1 SWAP2 POP POP SWAP1 JUMP JUMPDEST DUP1 PUSH0 PUSH1 0x5 PUSH0 DUP4 DUP2 MSTORE PUSH1 0x20 ADD SWAP1 DUP2 MSTORE PUSH1 0x20 ADD PUSH0 KECCAK256 SWAP1 POP DUP1 PUSH1 0x4 ADD SLOAD DUP2 PUSH1 0x6 ADD SLOAD DUP3 PUSH1 0x5 ADD SLOAD PUSH2 0x8C7 SWAP2 SWAP1 PUSH2 0x2022 JUMP JUMPDEST GT ISZERO PUSH2 0x908 JUMPI PUSH1 0x40 MLOAD PUSH32 0x8C379A000000000000000000000000000000000000000000000000000000000 DUP2 MSTORE PUSH1 0x4 ADD PUSH2 0x8FF SWAP1 PUSH2 0x20E6 JUMP JUMPDEST PUSH1 0x40 MLOAD DUP1 SWAP2 SUB SWAP1 REVERT JUMPDEST PUSH0 PUSH1 0x5 PUSH0 DUP6 DUP2 MSTORE PUSH1 0x20 ADD SWAP1 DUP2 MSTORE PUSH1 0x20 ADD PUSH0 KECCAK256 SWAP1 POP PUSH0 ISZERO ISZERO DUP2 PUSH1 0xF ADD PUSH1 0x14 SWAP1 SLOAD SWAP1 PUSH2 0x100 EXP SWAP1 DIV PUSH1 0xFF AND ISZERO ISZERO EQ PUSH2 0x973 JUMPI PUSH1 0x40 MLOAD PUSH32 0x8C379A000000000000000000000000000000000000000000000000000000000 DUP2 MSTORE PUSH1 0x4 ADD PUSH2 0x96A SWAP1 PUSH2 0x214E JUMP JUMPDEST PUSH1 0x40 MLOAD DUP1 SWAP2 SUB SWAP1 REVERT JUMPDEST PUSH2 0x97C DUP5 PUSH2 0x1045 JUMP JUMPDEST PUSH32 0x916898311B7BD03C784627F7278DBCE7CE91F3378DC4359B8B1568568A1E7C84 DUP5 PUSH1 0x40 MLOAD PUSH2 0x9AB SWAP2 SWAP1 PUSH2 0x21DC JUMP JUMPDEST PUSH1 0x40 MLOAD DUP1 SWAP2 SUB SWAP1 LOG1 POP POP POP POP JUMP JUMPDEST DUP3 DUP1 PUSH1 0x1 PUSH0 SWAP1 SLOAD SWAP1 PUSH2 0x100 EXP SWAP1 DIV PUSH20 0xFFFFFFFFFFFFFFFFFFFFFFFFFFFFFFFFFFFFFFFF AND PUSH20 0xFFFFFFFFFFFFFFFFFFFFFFFFFFFFFFFFFFFFFFFF AND PUSH4 0x70A08231 CALLER PUSH1 0x40 MLOAD DUP3 PUSH4 0xFFFFFFFF AND PUSH1 0xE0 SHL DUP2 MSTORE PUSH1 0x4 ADD PUSH2 0xA15 SWAP2 SWAP1 PUSH2 0x18DE JUMP JUMPDEST PUSH1 0x20 PUSH1 0x40 MLOAD DUP1 DUP4 SUB DUP2 DUP7 GAS STATICCALL ISZERO DUP1 ISZERO PUSH2 0xA30 JUMPI RETURNDATASIZE PUSH0 DUP1 RETURNDATACOPY RETURNDATASIZE PUSH0 REVERT JUMPDEST POP POP POP POP PUSH1 0x40 MLOAD RETURNDATASIZE PUSH1 0x1F NOT PUSH1 0x1F DUP3 ADD AND DUP3 ADD DUP1 PUSH1 0x40 MSTORE POP DUP2 ADD SWAP1 PUSH2 0xA54 SWAP2 SWAP1 PUSH2 0x221C JUMP JUMPDEST LT ISZERO PUSH2 0xAF7 PUSH1 0x1 PUSH0 SWAP1 SLOAD SWAP1 PUSH2 0x100 EXP SWAP1 DIV PUSH20 0xFFFFFFFFFFFFFFFFFFFFFFFFFFFFFFFFFFFFFFFF AND PUSH20 0xFFFFFFFFFFFFFFFFFFFFFFFFFFFFFFFFFFFFFFFF AND PUSH4 0x70A08231 CALLER PUSH1 0x40 MLOAD DUP3 PUSH4 0xFFFFFFFF AND PUSH1 0xE0 SHL DUP2 MSTORE PUSH1 0x4 ADD PUSH2 0xAB3 SWAP2 SWAP1 PUSH2 0x18DE JUMP JUMPDEST PUSH1 0x20 PUSH1 0x40 MLOAD DUP1 DUP4 SUB DUP2 DUP7 GAS STATICCALL ISZERO DUP1 ISZERO PUSH2 0xACE JUMPI RETURNDATASIZE PUSH0 DUP1 RETURNDATACOPY RETURNDATASIZE PUSH0 REVERT JUMPDEST POP POP POP POP PUSH1 0x40 MLOAD RETURNDATASIZE PUSH1 0x1F NOT PUSH1 0x1F DUP3 ADD AND DUP3 ADD DUP1 PUSH1 0x40 MSTORE POP DUP2 ADD SWAP1 PUSH2 0xAF2 SWAP2 SWAP1 PUSH2 0x221C JUMP JUMPDEST PUSH2 0x1218 JUMP JUMPDEST PUSH2 0xB00 DUP4 PUSH2 0x1218 JUMP JUMPDEST PUSH1 0x40 MLOAD PUSH1 0x20 ADD PUSH2 0xB11 SWAP3 SWAP2 SWAP1 PUSH2 0x23AB JUMP JUMPDEST PUSH1 0x40 MLOAD PUSH1 0x20 DUP2 DUP4 SUB SUB DUP2 MSTORE SWAP1 PUSH1 0x40 MSTORE SWAP1 PUSH2 0xB61 JUMPI PUSH1 0x40 MLOAD PUSH32 0x8C379A000000000000000000000000000000000000000000000000000000000 DUP2 MSTORE PUSH1 0x4 ADD PUSH2 0xB58 SWAP2 SWAP1 PUSH2 0x2427 JUMP JUMPDEST PUSH1 0x40 MLOAD DUP1 SWAP2 SUB SWAP1 REVERT JUMPDEST POP DUP6 PUSH1 0x2 DUP2 PUSH1 0x40 MLOAD PUSH2 0xB73 SWAP2 SWAP1 PUSH2 0x2447 JUMP JUMPDEST SWAP1 DUP2 MSTORE PUSH1 0x20 ADD PUSH1 0x40 MLOAD DUP1 SWAP2 SUB SWAP1 KECCAK256 PUSH0 SWAP1 SLOAD SWAP1 PUSH2 0x100 EXP SWAP1 DIV PUSH1 0xFF AND PUSH2 0xBCD JUMPI PUSH1 0x40 MLOAD PUSH32 0x8C379A000000000000000000000000000000000000000000000000000000000 DUP2 MSTORE PUSH1 0x4 ADD PUSH2 0xBC4 SWAP1 PUSH2 0x24A7 JUMP JUMPDEST PUSH1 0x40 MLOAD DUP1 SWAP2 SUB SWAP1 REVERT JUMPDEST PUSH2 0xBD5 PUSH2 0x59A JUMP JUMPDEST PUSH1 0x1 PUSH0 SWAP1 SLOAD SWAP1 PUSH2 0x100 EXP SWAP1 DIV PUSH20 0xFFFFFFFFFFFFFFFFFFFFFFFFFFFFFFFFFFFFFFFF AND PUSH20 0xFFFFFFFFFFFFFFFFFFFFFFFFFFFFFFFFFFFFFFFF AND PUSH4 0x70A08231 CALLER PUSH1 0x40 MLOAD DUP3 PUSH4 0xFFFFFFFF AND PUSH1 0xE0 SHL DUP2 MSTORE PUSH1 0x4 ADD PUSH2 0xC2F SWAP2 SWAP1 PUSH2 0x18DE JUMP JUMPDEST PUSH1 0x20 PUSH1 0x40 MLOAD DUP1 DUP4 SUB DUP2 DUP7 GAS STATICCALL ISZERO DUP1 ISZERO PUSH2 0xC4A JUMPI RETURNDATASIZE PUSH0 DUP1 RETURNDATACOPY RETURNDATASIZE PUSH0 REVERT JUMPDEST POP POP POP POP PUSH1 0x40 MLOAD RETURNDATASIZE PUSH1 0x1F NOT PUSH1 0x1F DUP3 ADD AND DUP3 ADD DUP1 PUSH1 0x40 MSTORE POP DUP2 ADD SWAP1 PUSH2 0xC6E SWAP2 SWAP1 PUSH2 0x221C JUMP JUMPDEST GT PUSH2 0xCAE JUMPI PUSH1 0x40 MLOAD PUSH32 0x8C379A000000000000000000000000000000000000000000000000000000000 DUP2 MSTORE PUSH1 0x4 ADD PUSH2 0xCA5 SWAP1 PUSH2 0x2535 JUMP JUMPDEST PUSH1 0x40 MLOAD DUP1 SWAP2 SUB SWAP1 REVERT JUMPDEST PUSH1 0x4 PUSH0 DUP2 SLOAD DUP1 SWAP3 SWAP2 SWAP1 PUSH2 0xCC0 SWAP1 PUSH2 0x2055 JUMP JUMPDEST SWAP2 SWAP1 POP SSTORE POP PUSH2 0xCCD PUSH2 0x15ED JUMP JUMPDEST PUSH2 0xCD8 PUSH1 0x3 SLOAD PUSH2 0x12E2 JUMP JUMPDEST DUP4 PUSH0 ADD DUP5 PUSH1 0x20 ADD DUP6 PUSH1 0x40 ADD DUP4 DUP2 MSTORE POP DUP4 DUP2 MSTORE POP DUP4 DUP2 MSTORE POP POP POP POP PUSH0 PUSH3 0x15180 DUP6 PUSH2 0xD02 SWAP2 SWAP1 PUSH2 0x2553 JUMP JUMPDEST PUSH1 0x3 SLOAD PUSH2 0xD0F SWAP2 SWAP1 PUSH2 0x2022 JUMP JUMPDEST SWAP1 POP PUSH2 0xD19 PUSH2 0x15ED JUMP JUMPDEST PUSH2 0xD22 DUP3 PUSH2 0x12E2 JUMP JUMPDEST DUP4 PUSH0 ADD DUP5 PUSH1 0x20 ADD DUP6 PUSH1 0x40 ADD DUP4 DUP2 MSTORE POP DUP4 DUP2 MSTORE POP DUP4 DUP2 MSTORE POP POP POP POP PUSH1 0x40 MLOAD DUP1 PUSH2 0x1A0 ADD PUSH1 0x40 MSTORE DUP1 PUSH1 0x4 SLOAD DUP2 MSTORE PUSH1 0x20 ADD DUP13 DUP2 MSTORE PUSH1 0x20 ADD DUP12 DUP2 MSTORE PUSH1 0x20 ADD DUP11 DUP2 MSTORE PUSH1 0x20 ADD DUP10 DUP2 MSTORE PUSH1 0x20 ADD PUSH0 DUP2 MSTORE PUSH1 0x20 ADD DUP9 DUP2 MSTORE PUSH1 0x20 ADD TIMESTAMP DUP2 MSTORE PUSH1 0x20 ADD PUSH3 0x15180 DUP9 PUSH2 0xD89 SWAP2 SWAP1 PUSH2 0x2553 JUMP JUMPDEST DUP2 MSTORE PUSH1 0x20 ADD DUP5 DUP2 MSTORE PUSH1 0x20 ADD DUP3 DUP2 MSTORE PUSH1 0x20 ADD CALLER PUSH20 0xFFFFFFFFFFFFFFFFFFFFFFFFFFFFFFFFFFFFFFFF AND DUP2 MSTORE PUSH1 0x20 ADD PUSH0 ISZERO ISZERO DUP2 MSTORE POP PUSH1 0x5 PUSH0 PUSH1 0x4 SLOAD DUP2 MSTORE PUSH1 0x20 ADD SWAP1 DUP2 MSTORE PUSH1 0x20 ADD PUSH0 KECCAK256 PUSH0 DUP3 ADD MLOAD DUP2 PUSH0 ADD SSTORE PUSH1 0x20 DUP3 ADD MLOAD DUP2 PUSH1 0x1 ADD SWAP1 DUP2 PUSH2 0xDEC SWAP2 SWAP1 PUSH2 0x2728 JUMP JUMPDEST POP PUSH1 0x40 DUP3 ADD MLOAD DUP2 PUSH1 0x2 ADD SWAP1 DUP2 PUSH2 0xE02 SWAP2 SWAP1 PUSH2 0x2728 JUMP JUMPDEST POP PUSH1 0x60 DUP3 ADD MLOAD DUP2 PUSH1 0x3 ADD SSTORE PUSH1 0x80 DUP3 ADD MLOAD DUP2 PUSH1 0x4 ADD SSTORE PUSH1 0xA0 DUP3 ADD MLOAD DUP2 PUSH1 0x5 ADD SSTORE PUSH1 0xC0 DUP3 ADD MLOAD DUP2 PUSH1 0x6 ADD SSTORE PUSH1 0xE0 DUP3 ADD MLOAD DUP2 PUSH1 0x7 ADD SSTORE PUSH2 0x100 DUP3 ADD MLOAD DUP2 PUSH1 0x8 ADD SSTORE PUSH2 0x120 DUP3 ADD MLOAD DUP2 PUSH1 0x9 ADD PUSH0 DUP3 ADD MLOAD DUP2 PUSH0 ADD SSTORE PUSH1 0x20 DUP3 ADD MLOAD DUP2 PUSH1 0x1 ADD SSTORE PUSH1 0x40 DUP3 ADD MLOAD DUP2 PUSH1 0x2 ADD SSTORE POP POP PUSH2 0x140 DUP3 ADD MLOAD DUP2 PUSH1 0xC ADD PUSH0 DUP3 ADD MLOAD DUP2 PUSH0 ADD SSTORE PUSH1 0x20 DUP3 ADD MLOAD DUP2 PUSH1 0x1 ADD SSTORE PUSH1 0x40 DUP3 ADD MLOAD DUP2 PUSH1 0x2 ADD SSTORE POP POP PUSH2 0x160 DUP3 ADD MLOAD DUP2 PUSH1 0xF ADD PUSH0 PUSH2 0x100 EXP DUP2 SLOAD DUP2 PUSH20 0xFFFFFFFFFFFFFFFFFFFFFFFFFFFFFFFFFFFFFFFF MUL NOT AND SWAP1 DUP4 PUSH20 0xFFFFFFFFFFFFFFFFFFFFFFFFFFFFFFFFFFFFFFFF AND MUL OR SWAP1 SSTORE POP PUSH2 0x180 DUP3 ADD MLOAD DUP2 PUSH1 0xF ADD PUSH1 0x14 PUSH2 0x100 EXP DUP2 SLOAD DUP2 PUSH1 0xFF MUL NOT AND SWAP1 DUP4 ISZERO ISZERO MUL OR SWAP1 SSTORE POP SWAP1 POP POP PUSH32 0xE060903A71989416DB77650C9585ADBAE8F4FC8633A778A547D25E3C78789F4C PUSH1 0x4 SLOAD DUP13 CALLER PUSH1 0x40 MLOAD PUSH2 0xF30 SWAP4 SWAP3 SWAP2 SWAP1 PUSH2 0x27F7 JUMP JUMPDEST PUSH1 0x40 MLOAD DUP1 SWAP2 SUB SWAP1 LOG1 POP POP POP POP POP POP POP POP POP POP POP JUMP JUMPDEST PUSH0 PUSH1 0x1 DUP3 PUSH1 0x60 ADD MLOAD GT ISZERO PUSH2 0xF7A JUMPI DUP2 PUSH1 0x80 ADD MLOAD PUSH1 0x1 DUP4 PUSH1 0x60 ADD MLOAD PUSH2 0xF69 SWAP2 SWAP1 PUSH2 0x2833 JUMP JUMPDEST PUSH2 0xF73 SWAP2 SWAP1 PUSH2 0x2553 JUMP JUMPDEST SWAP1 POP PUSH2 0xF91 JUMP JUMPDEST DUP2 PUSH1 0x80 ADD MLOAD DUP3 PUSH1 0x60 ADD MLOAD PUSH2 0xF8E SWAP2 SWAP1 PUSH2 0x2553 JUMP JUMPDEST SWAP1 POP JUMPDEST SWAP2 SWAP1 POP JUMP JUMPDEST PUSH1 0x4 SLOAD DUP2 JUMP JUMPDEST PUSH2 0xFA4 PUSH2 0x10D0 JUMP JUMPDEST PUSH0 PUSH20 0xFFFFFFFFFFFFFFFFFFFFFFFFFFFFFFFFFFFFFFFF AND DUP2 PUSH20 0xFFFFFFFFFFFFFFFFFFFFFFFFFFFFFFFFFFFFFFFF AND SUB PUSH2 0x1014 JUMPI PUSH0 PUSH1 0x40 MLOAD PUSH32 0x1E4FBDF700000000000000000000000000000000000000000000000000000000 DUP2 MSTORE PUSH1 0x4 ADD PUSH2 0x100B SWAP2 SWAP1 PUSH2 0x18DE JUMP JUMPDEST PUSH1 0x40 MLOAD DUP1 SWAP2 SUB SWAP1 REVERT JUMPDEST PUSH2 0x101D DUP2 PUSH2 0x1157 JUMP JUMPDEST POP JUMP JUMPDEST PUSH1 0x1 PUSH0 SWAP1 SLOAD SWAP1 PUSH2 0x100 EXP SWAP1 DIV PUSH20 0xFFFFFFFFFFFFFFFFFFFFFFFFFFFFFFFFFFFFFFFF AND DUP2 JUMP JUMPDEST PUSH0 PUSH1 0x5 PUSH0 DUP4 DUP2 MSTORE PUSH1 0x20 ADD SWAP1 DUP2 MSTORE PUSH1 0x20 ADD PUSH0 KECCAK256 SWAP1 POP DUP2 DUP2 PUSH0 ADD SLOAD EQ PUSH2 0x109E JUMPI PUSH1 0x40 MLOAD PUSH32 0x8C379A000000000000000000000000000000000000000000000000000000000 DUP2 MSTORE PUSH1 0x4 ADD PUSH2 0x1095 SWAP1 PUSH2 0x28B0 JUMP JUMPDEST PUSH1 0x40 MLOAD DUP1 SWAP2 SUB SWAP1 REVERT JUMPDEST DUP1 PUSH1 0xF ADD PUSH1 0x14 SWAP1 SLOAD SWAP1 PUSH2 0x100 EXP SWAP1 DIV PUSH1 0xFF AND ISZERO DUP2 PUSH1 0xF ADD PUSH1 0x14 PUSH2 0x100 EXP DUP2 SLOAD DUP2 PUSH1 0xFF MUL NOT AND SWAP1 DUP4 ISZERO ISZERO MUL OR SWAP1 SSTORE POP POP POP JUMP JUMPDEST PUSH2 0x10D8 PUSH2 0x1314 JUMP JUMPDEST PUSH20 0xFFFFFFFFFFFFFFFFFFFFFFFFFFFFFFFFFFFFFFFF AND PUSH2 0x10F6 PUSH2 0x573 JUMP JUMPDEST PUSH20 0xFFFFFFFFFFFFFFFFFFFFFFFFFFFFFFFFFFFFFFFF AND EQ PUSH2 0x1155 JUMPI PUSH2 0x1119 PUSH2 0x1314 JUMP JUMPDEST PUSH1 0x40 MLOAD PUSH32 0x118CDAA700000000000000000000000000000000000000000000000000000000 DUP2 MSTORE PUSH1 0x4 ADD PUSH2 0x114C SWAP2 SWAP1 PUSH2 0x18DE JUMP JUMPDEST PUSH1 0x40 MLOAD DUP1 SWAP2 SUB SWAP1 REVERT JUMPDEST JUMP JUMPDEST PUSH0 DUP1 PUSH0 SWAP1 SLOAD SWAP1 PUSH2 0x100 EXP SWAP1 DIV PUSH20 0xFFFFFFFFFFFFFFFFFFFFFFFFFFFFFFFFFFFFFFFF AND SWAP1 POP DUP2 PUSH0 DUP1 PUSH2 0x100 EXP DUP2 SLOAD DUP2 PUSH20 0xFFFFFFFFFFFFFFFFFFFFFFFFFFFFFFFFFFFFFFFF MUL NOT AND SWAP1 DUP4 PUSH20 0xFFFFFFFFFFFFFFFFFFFFFFFFFFFFFFFFFFFFFFFF AND MUL OR SWAP1 SSTORE POP DUP2 PUSH20 0xFFFFFFFFFFFFFFFFFFFFFFFFFFFFFFFFFFFFFFFF AND DUP2 PUSH20 0xFFFFFFFFFFFFFFFFFFFFFFFFFFFFFFFFFFFFFFFF AND PUSH32 0x8BE0079C531659141344CD1FD0A4F28419497F9722A3DAAFE3B4186F6B6457E0 PUSH1 0x40 MLOAD PUSH1 0x40 MLOAD DUP1 SWAP2 SUB SWAP1 LOG3 POP POP JUMP JUMPDEST PUSH1 0x60 PUSH0 PUSH1 0x1 PUSH2 0x1226 DUP5 PUSH2 0x131B JUMP JUMPDEST ADD SWAP1 POP PUSH0 DUP2 PUSH8 0xFFFFFFFFFFFFFFFF DUP2 GT ISZERO PUSH2 0x1244 JUMPI PUSH2 0x1243 PUSH2 0x1927 JUMP JUMPDEST JUMPDEST PUSH1 0x40 MLOAD SWAP1 DUP1 DUP3 MSTORE DUP1 PUSH1 0x1F ADD PUSH1 0x1F NOT AND PUSH1 0x20 ADD DUP3 ADD PUSH1 0x40 MSTORE DUP1 ISZERO PUSH2 0x1276 JUMPI DUP2 PUSH1 0x20 ADD PUSH1 0x1 DUP3 MUL DUP1 CALLDATASIZE DUP4 CALLDATACOPY DUP1 DUP3 ADD SWAP2 POP POP SWAP1 POP JUMPDEST POP SWAP1 POP PUSH0 DUP3 PUSH1 0x20 ADD DUP3 ADD SWAP1 POP JUMPDEST PUSH1 0x1 ISZERO PUSH2 0x12D7 JUMPI DUP1 DUP1 PUSH1 0x1 SWAP1 SUB SWAP2 POP POP PUSH32 0x3031323334353637383961626364656600000000000000000000000000000000 PUSH1 0xA DUP7 MOD BYTE DUP2 MSTORE8 PUSH1 0xA DUP6 DUP2 PUSH2 0x12CC JUMPI PUSH2 0x12CB PUSH2 0x28CE JUMP JUMPDEST JUMPDEST DIV SWAP5 POP PUSH0 DUP6 SUB PUSH2 0x1283 JUMPI JUMPDEST DUP2 SWAP4 POP POP POP POP SWAP2 SWAP1 POP JUMP JUMPDEST PUSH0 DUP1 PUSH0 PUSH2 0x1301 PUSH3 0x15180 DUP6 DUP2 PUSH2 0x12FB JUMPI PUSH2 0x12FA PUSH2 0x28CE JUMP JUMPDEST JUMPDEST DIV PUSH2 0x146C JUMP JUMPDEST DUP1 SWAP4 POP DUP2 SWAP5 POP DUP3 SWAP6 POP POP POP POP SWAP2 SWAP4 SWAP1 SWAP3 POP JUMP JUMPDEST PUSH0 CALLER SWAP1 POP SWAP1 JUMP JUMPDEST PUSH0 DUP1 PUSH0 SWAP1 POP PUSH27 0x184F03E93FF9F4DAA797ED6E38ED64BF6A1F010000000000000000 DUP4 LT PUSH2 0x1377 JUMPI PUSH27 0x184F03E93FF9F4DAA797ED6E38ED64BF6A1F010000000000000000 DUP4 DUP2 PUSH2 0x136D JUMPI PUSH2 0x136C PUSH2 0x28CE JUMP JUMPDEST JUMPDEST DIV SWAP3 POP PUSH1 0x40 DUP2 ADD SWAP1 POP JUMPDEST PUSH14 0x4EE2D6D415B85ACEF8100000000 DUP4 LT PUSH2 0x13B4 JUMPI PUSH14 0x4EE2D6D415B85ACEF8100000000 DUP4 DUP2 PUSH2 0x13AA JUMPI PUSH2 0x13A9 PUSH2 0x28CE JUMP JUMPDEST JUMPDEST DIV SWAP3 POP PUSH1 0x20 DUP2 ADD SWAP1 POP JUMPDEST PUSH7 0x2386F26FC10000 DUP4 LT PUSH2 0x13E3 JUMPI PUSH7 0x2386F26FC10000 DUP4 DUP2 PUSH2 0x13D9 JUMPI PUSH2 0x13D8 PUSH2 0x28CE JUMP JUMPDEST JUMPDEST DIV SWAP3 POP PUSH1 0x10 DUP2 ADD SWAP1 POP JUMPDEST PUSH4 0x5F5E100 DUP4 LT PUSH2 0x140C JUMPI PUSH4 0x5F5E100 DUP4 DUP2 PUSH2 0x1402 JUMPI PUSH2 0x1401 PUSH2 0x28CE JUMP JUMPDEST JUMPDEST DIV SWAP3 POP PUSH1 0x8 DUP2 ADD SWAP1 POP JUMPDEST PUSH2 0x2710 DUP4 LT PUSH2 0x1431 JUMPI PUSH2 0x2710 DUP4 DUP2 PUSH2 0x1427 JUMPI PUSH2 0x1426 PUSH2 0x28CE JUMP JUMPDEST JUMPDEST DIV SWAP3 POP PUSH1 0x4 DUP2 ADD SWAP1 POP JUMPDEST PUSH1 0x64 DUP4 LT PUSH2 0x1454 JUMPI PUSH1 0x64 DUP4 DUP2 PUSH2 0x144A JUMPI PUSH2 0x1449 PUSH2 0x28CE JUMP JUMPDEST JUMPDEST DIV SWAP3 POP PUSH1 0x2 DUP2 ADD SWAP1 POP JUMPDEST PUSH1 0xA DUP4 LT PUSH2 0x1463 JUMPI PUSH1 0x1 DUP2 ADD SWAP1 POP JUMPDEST DUP1 SWAP2 POP POP SWAP2 SWAP1 POP JUMP JUMPDEST PUSH0 DUP1 PUSH0 DUP1 DUP5 SWAP1 POP PUSH0 PUSH3 0x253D8C PUSH3 0x10BD9 DUP4 ADD ADD SWAP1 POP PUSH0 PUSH3 0x23AB1 DUP3 PUSH1 0x4 MUL DUP2 PUSH2 0x1498 JUMPI PUSH2 0x1497 PUSH2 0x28CE JUMP JUMPDEST JUMPDEST SDIV SWAP1 POP PUSH1 0x4 PUSH1 0x3 DUP3 PUSH3 0x23AB1 MUL ADD DUP2 PUSH2 0x14B4 JUMPI PUSH2 0x14B3 PUSH2 0x28CE JUMP JUMPDEST JUMPDEST SDIV DUP3 SUB SWAP2 POP PUSH0 PUSH3 0x164B09 PUSH1 0x1 DUP5 ADD PUSH2 0xFA0 MUL DUP2 PUSH2 0x14D4 JUMPI PUSH2 0x14D3 PUSH2 0x28CE JUMP JUMPDEST JUMPDEST SDIV SWAP1 POP PUSH1 0x1F PUSH1 0x4 DUP3 PUSH2 0x5B5 MUL DUP2 PUSH2 0x14EE JUMPI PUSH2 0x14ED PUSH2 0x28CE JUMP JUMPDEST JUMPDEST SDIV DUP5 SUB ADD SWAP3 POP PUSH0 PUSH2 0x98F DUP5 PUSH1 0x50 MUL DUP2 PUSH2 0x150A JUMPI PUSH2 0x1509 PUSH2 0x28CE JUMP JUMPDEST JUMPDEST SDIV SWAP1 POP PUSH0 PUSH1 0x50 DUP3 PUSH2 0x98F MUL DUP2 PUSH2 0x1523 JUMPI PUSH2 0x1522 PUSH2 0x28CE JUMP JUMPDEST JUMPDEST SDIV DUP6 SUB SWAP1 POP PUSH1 0xB DUP3 DUP2 PUSH2 0x1539 JUMPI PUSH2 0x1538 PUSH2 0x28CE JUMP JUMPDEST JUMPDEST SDIV SWAP5 POP DUP5 PUSH1 0xC MUL PUSH1 0x2 DUP4 ADD SUB SWAP2 POP DUP5 DUP4 PUSH1 0x31 DUP7 SUB PUSH1 0x64 MUL ADD ADD SWAP3 POP DUP3 SWAP9 POP DUP2 SWAP8 POP DUP1 SWAP7 POP POP POP POP POP POP POP SWAP2 SWAP4 SWAP1 SWAP3 POP JUMP JUMPDEST PUSH1 0x40 MLOAD DUP1 PUSH2 0x1A0 ADD PUSH1 0x40 MSTORE DUP1 PUSH0 DUP2 MSTORE PUSH1 0x20 ADD PUSH1 0x60 DUP2 MSTORE PUSH1 0x20 ADD PUSH1 0x60 DUP2 MSTORE PUSH1 0x20 ADD PUSH0 DUP2 MSTORE PUSH1 0x20 ADD PUSH0 DUP2 MSTORE PUSH1 0x20 ADD PUSH0 DUP2 MSTORE PUSH1 0x20 ADD PUSH0 DUP2 MSTORE PUSH1 0x20 ADD PUSH0 DUP2 MSTORE PUSH1 0x20 ADD PUSH0 DUP2 MSTORE PUSH1 0x20 ADD PUSH2 0x15B6 PUSH2 0x15ED JUMP JUMPDEST DUP2 MSTORE PUSH1 0x20 ADD PUSH2 0x15C3 PUSH2 0x15ED JUMP JUMPDEST DUP2 MSTORE PUSH1 0x20 ADD PUSH0 PUSH20 0xFFFFFFFFFFFFFFFFFFFFFFFFFFFFFFFFFFFFFFFF AND DUP2 MSTORE PUSH1 0x20 ADD PUSH0 ISZERO ISZERO DUP2 MSTORE POP SWAP1 JUMP JUMPDEST PUSH1 0x40 MLOAD DUP1 PUSH1 0x60 ADD PUSH1 0x40 MSTORE DUP1 PUSH0 DUP2 MSTORE PUSH1 0x20 ADD PUSH0 DUP2 MSTORE PUSH1 0x20 ADD PUSH0 DUP2 MSTORE POP SWAP1 JUMP JUMPDEST PUSH0 PUSH1 0x40 MLOAD SWAP1 POP SWAP1 JUMP JUMPDEST PUSH0 DUP1 REVERT JUMPDEST PUSH0 DUP1 REVERT JUMPDEST PUSH0 DUP2 SWAP1 POP SWAP2 SWAP1 POP JUMP JUMPDEST PUSH2 0x162E DUP2 PUSH2 0x161C JUMP JUMPDEST DUP2 EQ PUSH2 0x1638 JUMPI PUSH0 DUP1 REVERT JUMPDEST POP JUMP JUMPDEST PUSH0 DUP2 CALLDATALOAD SWAP1 POP PUSH2 0x1649 DUP2 PUSH2 0x1625 JUMP JUMPDEST SWAP3 SWAP2 POP POP JUMP JUMPDEST PUSH0 PUSH1 0x20 DUP3 DUP5 SUB SLT ISZERO PUSH2 0x1664 JUMPI PUSH2 0x1663 PUSH2 0x1614 JUMP JUMPDEST JUMPDEST PUSH0 PUSH2 0x1671 DUP5 DUP3 DUP6 ADD PUSH2 0x163B JUMP JUMPDEST SWAP2 POP POP SWAP3 SWAP2 POP POP JUMP JUMPDEST PUSH2 0x1683 DUP2 PUSH2 0x161C JUMP JUMPDEST DUP3 MSTORE POP POP JUMP JUMPDEST PUSH0 DUP2 MLOAD SWAP1 POP SWAP2 SWAP1 POP JUMP JUMPDEST PUSH0 DUP3 DUP3 MSTORE PUSH1 0x20 DUP3 ADD SWAP1 POP SWAP3 SWAP2 POP POP JUMP JUMPDEST DUP3 DUP2 DUP4 MCOPY PUSH0 DUP4 DUP4 ADD MSTORE POP POP POP JUMP JUMPDEST PUSH0 PUSH1 0x1F NOT PUSH1 0x1F DUP4 ADD AND SWAP1 POP SWAP2 SWAP1 POP JUMP JUMPDEST PUSH0 PUSH2 0x16CB DUP3 PUSH2 0x1689 JUMP JUMPDEST PUSH2 0x16D5 DUP2 DUP6 PUSH2 0x1693 JUMP JUMPDEST SWAP4 POP PUSH2 0x16E5 DUP2 DUP6 PUSH1 0x20 DUP7 ADD PUSH2 0x16A3 JUMP JUMPDEST PUSH2 0x16EE DUP2 PUSH2 0x16B1 JUMP JUMPDEST DUP5 ADD SWAP2 POP POP SWAP3 SWAP2 POP POP JUMP JUMPDEST PUSH1 0x60 DUP3 ADD PUSH0 DUP3 ADD MLOAD PUSH2 0x170D PUSH0 DUP6 ADD DUP3 PUSH2 0x167A JUMP JUMPDEST POP PUSH1 0x20 DUP3 ADD MLOAD PUSH2 0x1720 PUSH1 0x20 DUP6 ADD DUP3 PUSH2 0x167A JUMP JUMPDEST POP PUSH1 0x40 DUP3 ADD MLOAD PUSH2 0x1733 PUSH1 0x40 DUP6 ADD DUP3 PUSH2 0x167A JUMP JUMPDEST POP POP POP POP JUMP JUMPDEST PUSH0 PUSH20 0xFFFFFFFFFFFFFFFFFFFFFFFFFFFFFFFFFFFFFFFF DUP3 AND SWAP1 POP SWAP2 SWAP1 POP JUMP JUMPDEST PUSH0 PUSH2 0x1762 DUP3 PUSH2 0x1739 JUMP JUMPDEST SWAP1 POP SWAP2 SWAP1 POP JUMP JUMPDEST PUSH2 0x1772 DUP2 PUSH2 0x1758 JUMP JUMPDEST DUP3 MSTORE POP POP JUMP JUMPDEST PUSH0 DUP2 ISZERO ISZERO SWAP1 POP SWAP2 SWAP1 POP JUMP JUMPDEST PUSH2 0x178C DUP2 PUSH2 0x1778 JUMP JUMPDEST DUP3 MSTORE POP POP JUMP JUMPDEST PUSH0 PUSH2 0x220 DUP4 ADD PUSH0 DUP4 ADD MLOAD PUSH2 0x17A8 PUSH0 DUP7 ADD DUP3 PUSH2 0x167A JUMP JUMPDEST POP PUSH1 0x20 DUP4 ADD MLOAD DUP5 DUP3 SUB PUSH1 0x20 DUP7 ADD MSTORE PUSH2 0x17C0 DUP3 DUP3 PUSH2 0x16C1 JUMP JUMPDEST SWAP2 POP POP PUSH1 0x40 DUP4 ADD MLOAD DUP5 DUP3 SUB PUSH1 0x40 DUP7 ADD MSTORE PUSH2 0x17DA DUP3 DUP3 PUSH2 0x16C1 JUMP JUMPDEST SWAP2 POP POP PUSH1 0x60 DUP4 ADD MLOAD PUSH2 0x17EF PUSH1 0x60 DUP7 ADD DUP3 PUSH2 0x167A JUMP JUMPDEST POP PUSH1 0x80 DUP4 ADD MLOAD PUSH2 0x1802 PUSH1 0x80 DUP7 ADD DUP3 PUSH2 0x167A JUMP JUMPDEST POP PUSH1 0xA0 DUP4 ADD MLOAD PUSH2 0x1815 PUSH1 0xA0 DUP7 ADD DUP3 PUSH2 0x167A JUMP JUMPDEST POP PUSH1 0xC0 DUP4 ADD MLOAD PUSH2 0x1828 PUSH1 0xC0 DUP7 ADD DUP3 PUSH2 0x167A JUMP JUMPDEST POP PUSH1 0xE0 DUP4 ADD MLOAD PUSH2 0x183B PUSH1 0xE0 DUP7 ADD DUP3 PUSH2 0x167A JUMP JUMPDEST POP PUSH2 0x100 DUP4 ADD MLOAD PUSH2 0x1850 PUSH2 0x100 DUP7 ADD DUP3 PUSH2 0x167A JUMP JUMPDEST POP PUSH2 0x120 DUP4 ADD MLOAD PUSH2 0x1865 PUSH2 0x120 DUP7 ADD DUP3 PUSH2 0x16F9 JUMP JUMPDEST POP PUSH2 0x140 DUP4 ADD MLOAD PUSH2 0x187A PUSH2 0x180 DUP7 ADD DUP3 PUSH2 0x16F9 JUMP JUMPDEST POP PUSH2 0x160 DUP4 ADD MLOAD PUSH2 0x188F PUSH2 0x1E0 DUP7 ADD DUP3 PUSH2 0x1769 JUMP JUMPDEST POP PUSH2 0x180 DUP4 ADD MLOAD PUSH2 0x18A4 PUSH2 0x200 DUP7 ADD DUP3 PUSH2 0x1783 JUMP JUMPDEST POP DUP1 SWAP2 POP POP SWAP3 SWAP2 POP POP JUMP JUMPDEST PUSH0 PUSH1 0x20 DUP3 ADD SWAP1 POP DUP2 DUP2 SUB PUSH0 DUP4 ADD MSTORE PUSH2 0x18C7 DUP2 DUP5 PUSH2 0x1792 JUMP JUMPDEST SWAP1 POP SWAP3 SWAP2 POP POP JUMP JUMPDEST PUSH2 0x18D8 DUP2 PUSH2 0x1758 JUMP JUMPDEST DUP3 MSTORE POP POP JUMP JUMPDEST PUSH0 PUSH1 0x20 DUP3 ADD SWAP1 POP PUSH2 0x18F1 PUSH0 DUP4 ADD DUP5 PUSH2 0x18CF JUMP JUMPDEST SWAP3 SWAP2 POP POP JUMP JUMPDEST PUSH2 0x1900 DUP2 PUSH2 0x161C JUMP JUMPDEST DUP3 MSTORE POP POP JUMP JUMPDEST PUSH0 PUSH1 0x20 DUP3 ADD SWAP1 POP PUSH2 0x1919 PUSH0 DUP4 ADD DUP5 PUSH2 0x18F7 JUMP JUMPDEST SWAP3 SWAP2 POP POP JUMP JUMPDEST PUSH0 DUP1 REVERT JUMPDEST PUSH0 DUP1 REVERT JUMPDEST PUSH32 0x4E487B7100000000000000000000000000000000000000000000000000000000 PUSH0 MSTORE PUSH1 0x41 PUSH1 0x4 MSTORE PUSH1 0x24 PUSH0 REVERT JUMPDEST PUSH2 0x195D DUP3 PUSH2 0x16B1 JUMP JUMPDEST DUP2 ADD DUP2 DUP2 LT PUSH8 0xFFFFFFFFFFFFFFFF DUP3 GT OR ISZERO PUSH2 0x197C JUMPI PUSH2 0x197B PUSH2 0x1927 JUMP JUMPDEST JUMPDEST DUP1 PUSH1 0x40 MSTORE POP POP POP JUMP JUMPDEST PUSH0 PUSH2 0x198E PUSH2 0x160B JUMP JUMPDEST SWAP1 POP PUSH2 0x199A DUP3 DUP3 PUSH2 0x1954 JUMP JUMPDEST SWAP2 SWAP1 POP JUMP JUMPDEST PUSH0 PUSH8 0xFFFFFFFFFFFFFFFF DUP3 GT ISZERO PUSH2 0x19B9 JUMPI PUSH2 0x19B8 PUSH2 0x1927 JUMP JUMPDEST JUMPDEST PUSH2 0x19C2 DUP3 PUSH2 0x16B1 JUMP JUMPDEST SWAP1 POP PUSH1 0x20 DUP2 ADD SWAP1 POP SWAP2 SWAP1 POP JUMP JUMPDEST DUP3 DUP2 DUP4 CALLDATACOPY PUSH0 DUP4 DUP4 ADD MSTORE POP POP POP JUMP JUMPDEST PUSH0 PUSH2 0x19EF PUSH2 0x19EA DUP5 PUSH2 0x199F JUMP JUMPDEST PUSH2 0x1985 JUMP JUMPDEST SWAP1 POP DUP3 DUP2 MSTORE PUSH1 0x20 DUP2 ADD DUP5 DUP5 DUP5 ADD GT ISZERO PUSH2 0x1A0B JUMPI PUSH2 0x1A0A PUSH2 0x1923 JUMP JUMPDEST JUMPDEST PUSH2 0x1A16 DUP5 DUP3 DUP6 PUSH2 0x19CF JUMP JUMPDEST POP SWAP4 SWAP3 POP POP POP JUMP JUMPDEST PUSH0 DUP3 PUSH1 0x1F DUP4 ADD SLT PUSH2 0x1A32 JUMPI PUSH2 0x1A31 PUSH2 0x191F JUMP JUMPDEST JUMPDEST DUP2 CALLDATALOAD PUSH2 0x1A42 DUP5 DUP3 PUSH1 0x20 DUP7 ADD PUSH2 0x19DD JUMP JUMPDEST SWAP2 POP POP SWAP3 SWAP2 POP POP JUMP JUMPDEST PUSH0 DUP1 PUSH0 DUP1 PUSH0 DUP1 PUSH1 0xC0 DUP8 DUP10 SUB SLT ISZERO PUSH2 0x1A65 JUMPI PUSH2 0x1A64 PUSH2 0x1614 JUMP JUMPDEST JUMPDEST PUSH0 DUP8 ADD CALLDATALOAD PUSH8 0xFFFFFFFFFFFFFFFF DUP2 GT ISZERO PUSH2 0x1A82 JUMPI PUSH2 0x1A81 PUSH2 0x1618 JUMP JUMPDEST JUMPDEST PUSH2 0x1A8E DUP10 DUP3 DUP11 ADD PUSH2 0x1A1E JUMP JUMPDEST SWAP7 POP POP PUSH1 0x20 DUP8 ADD CALLDATALOAD PUSH8 0xFFFFFFFFFFFFFFFF DUP2 GT ISZERO PUSH2 0x1AAF JUMPI PUSH2 0x1AAE PUSH2 0x1618 JUMP JUMPDEST JUMPDEST PUSH2 0x1ABB DUP10 DUP3 DUP11 ADD PUSH2 0x1A1E JUMP JUMPDEST SWAP6 POP POP PUSH1 0x40 PUSH2 0x1ACC DUP10 DUP3 DUP11 ADD PUSH2 0x163B JUMP JUMPDEST SWAP5 POP POP PUSH1 0x60 PUSH2 0x1ADD DUP10 DUP3 DUP11 ADD PUSH2 0x163B JUMP JUMPDEST SWAP4 POP POP PUSH1 0x80 PUSH2 0x1AEE DUP10 DUP3 DUP11 ADD PUSH2 0x163B JUMP JUMPDEST SWAP3 POP POP PUSH1 0xA0 PUSH2 0x1AFF DUP10 DUP3 DUP11 ADD PUSH2 0x163B JUMP JUMPDEST SWAP2 POP POP SWAP3 SWAP6 POP SWAP3 SWAP6 POP SWAP3 SWAP6 JUMP JUMPDEST PUSH0 DUP1 REVERT JUMPDEST PUSH0 DUP1 REVERT JUMPDEST PUSH0 PUSH1 0x60 DUP3 DUP5 SUB SLT ISZERO PUSH2 0x1B29 JUMPI PUSH2 0x1B28 PUSH2 0x1B0C JUMP JUMPDEST JUMPDEST PUSH2 0x1B33 PUSH1 0x60 PUSH2 0x1985 JUMP JUMPDEST SWAP1 POP PUSH0 PUSH2 0x1B42 DUP5 DUP3 DUP6 ADD PUSH2 0x163B JUMP JUMPDEST PUSH0 DUP4 ADD MSTORE POP PUSH1 0x20 PUSH2 0x1B55 DUP5 DUP3 DUP6 ADD PUSH2 0x163B JUMP JUMPDEST PUSH1 0x20 DUP4 ADD MSTORE POP PUSH1 0x40 PUSH2 0x1B69 DUP5 DUP3 DUP6 ADD PUSH2 0x163B JUMP JUMPDEST PUSH1 0x40 DUP4 ADD MSTORE POP SWAP3 SWAP2 POP POP JUMP JUMPDEST PUSH2 0x1B7E DUP2 PUSH2 0x1758 JUMP JUMPDEST DUP2 EQ PUSH2 0x1B88 JUMPI PUSH0 DUP1 REVERT JUMPDEST POP JUMP JUMPDEST PUSH0 DUP2 CALLDATALOAD SWAP1 POP PUSH2 0x1B99 DUP2 PUSH2 0x1B75 JUMP JUMPDEST SWAP3 SWAP2 POP POP JUMP JUMPDEST PUSH2 0x1BA8 DUP2 PUSH2 0x1778 JUMP JUMPDEST DUP2 EQ PUSH2 0x1BB2 JUMPI PUSH0 DUP1 REVERT JUMPDEST POP JUMP JUMPDEST PUSH0 DUP2 CALLDATALOAD SWAP1 POP PUSH2 0x1BC3 DUP2 PUSH2 0x1B9F JUMP JUMPDEST SWAP3 SWAP2 POP POP JUMP JUMPDEST PUSH0 PUSH2 0x220 DUP3 DUP5 SUB SLT ISZERO PUSH2 0x1BDF JUMPI PUSH2 0x1BDE PUSH2 0x1B0C JUMP JUMPDEST JUMPDEST PUSH2 0x1BEA PUSH2 0x1A0 PUSH2 0x1985 JUMP JUMPDEST SWAP1 POP PUSH0 PUSH2 0x1BF9 DUP5 DUP3 DUP6 ADD PUSH2 0x163B JUMP JUMPDEST PUSH0 DUP4 ADD MSTORE POP PUSH1 0x20 DUP3 ADD CALLDATALOAD PUSH8 0xFFFFFFFFFFFFFFFF DUP2 GT ISZERO PUSH2 0x1C1C JUMPI PUSH2 0x1C1B PUSH2 0x1B10 JUMP JUMPDEST JUMPDEST PUSH2 0x1C28 DUP5 DUP3 DUP6 ADD PUSH2 0x1A1E JUMP JUMPDEST PUSH1 0x20 DUP4 ADD MSTORE POP PUSH1 0x40 DUP3 ADD CALLDATALOAD PUSH8 0xFFFFFFFFFFFFFFFF DUP2 GT ISZERO PUSH2 0x1C4C JUMPI PUSH2 0x1C4B PUSH2 0x1B10 JUMP JUMPDEST JUMPDEST PUSH2 0x1C58 DUP5 DUP3 DUP6 ADD PUSH2 0x1A1E JUMP JUMPDEST PUSH1 0x40 DUP4 ADD MSTORE POP PUSH1 0x60 PUSH2 0x1C6C DUP5 DUP3 DUP6 ADD PUSH2 0x163B JUMP JUMPDEST PUSH1 0x60 DUP4 ADD MSTORE POP PUSH1 0x80 PUSH2 0x1C80 DUP5 DUP3 DUP6 ADD PUSH2 0x163B JUMP JUMPDEST PUSH1 0x80 DUP4 ADD MSTORE POP PUSH1 0xA0 PUSH2 0x1C94 DUP5 DUP3 DUP6 ADD PUSH2 0x163B JUMP JUMPDEST PUSH1 0xA0 DUP4 ADD MSTORE POP PUSH1 0xC0 PUSH2 0x1CA8 DUP5 DUP3 DUP6 ADD PUSH2 0x163B JUMP JUMPDEST PUSH1 0xC0 DUP4 ADD MSTORE POP PUSH1 0xE0 PUSH2 0x1CBC DUP5 DUP3 DUP6 ADD PUSH2 0x163B JUMP JUMPDEST PUSH1 0xE0 DUP4 ADD MSTORE POP PUSH2 0x100 PUSH2 0x1CD1 DUP5 DUP3 DUP6 ADD PUSH2 0x163B JUMP JUMPDEST PUSH2 0x100 DUP4 ADD MSTORE POP PUSH2 0x120 PUSH2 0x1CE7 DUP5 DUP3 DUP6 ADD PUSH2 0x1B14 JUMP JUMPDEST PUSH2 0x120 DUP4 ADD MSTORE POP PUSH2 0x180 PUSH2 0x1CFD DUP5 DUP3 DUP6 ADD PUSH2 0x1B14 JUMP JUMPDEST PUSH2 0x140 DUP4 ADD MSTORE POP PUSH2 0x1E0 PUSH2 0x1D13 DUP5 DUP3 DUP6 ADD PUSH2 0x1B8B JUMP JUMPDEST PUSH2 0x160 DUP4 ADD MSTORE POP PUSH2 0x200 PUSH2 0x1D29 DUP5 DUP3 DUP6 ADD PUSH2 0x1BB5 JUMP JUMPDEST PUSH2 0x180 DUP4 ADD MSTORE POP SWAP3 SWAP2 POP POP JUMP JUMPDEST PUSH0 PUSH1 0x20 DUP3 DUP5 SUB SLT ISZERO PUSH2 0x1D4B JUMPI PUSH2 0x1D4A PUSH2 0x1614 JUMP JUMPDEST JUMPDEST PUSH0 DUP3 ADD CALLDATALOAD PUSH8 0xFFFFFFFFFFFFFFFF DUP2 GT ISZERO PUSH2 0x1D68 JUMPI PUSH2 0x1D67 PUSH2 0x1618 JUMP JUMPDEST JUMPDEST PUSH2 0x1D74 DUP5 DUP3 DUP6 ADD PUSH2 0x1BC9 JUMP JUMPDEST SWAP2 POP POP SWAP3 SWAP2 POP POP JUMP JUMPDEST PUSH0 PUSH1 0x20 DUP3 DUP5 SUB SLT ISZERO PUSH2 0x1D92 JUMPI PUSH2 0x1D91 PUSH2 0x1614 JUMP JUMPDEST JUMPDEST PUSH0 PUSH2 0x1D9F DUP5 DUP3 DUP6 ADD PUSH2 0x1B8B JUMP JUMPDEST SWAP2 POP POP SWAP3 SWAP2 POP POP JUMP JUMPDEST PUSH0 DUP2 SWAP1 POP SWAP2 SWAP1 POP JUMP JUMPDEST PUSH0 PUSH2 0x1DCB PUSH2 0x1DC6 PUSH2 0x1DC1 DUP5 PUSH2 0x1739 JUMP JUMPDEST PUSH2 0x1DA8 JUMP JUMPDEST PUSH2 0x1739 JUMP JUMPDEST SWAP1 POP SWAP2 SWAP1 POP JUMP JUMPDEST PUSH0 PUSH2 0x1DDC DUP3 PUSH2 0x1DB1 JUMP JUMPDEST SWAP1 POP SWAP2 SWAP1 POP JUMP JUMPDEST PUSH0 PUSH2 0x1DED DUP3 PUSH2 0x1DD2 JUMP JUMPDEST SWAP1 POP SWAP2 SWAP1 POP JUMP JUMPDEST PUSH2 0x1DFD DUP2 PUSH2 0x1DE3 JUMP JUMPDEST DUP3 MSTORE POP POP JUMP JUMPDEST PUSH0 PUSH1 0x20 DUP3 ADD SWAP1 POP PUSH2 0x1E16 PUSH0 DUP4 ADD DUP5 PUSH2 0x1DF4 JUMP JUMPDEST SWAP3 SWAP2 POP POP JUMP JUMPDEST PUSH0 DUP3 DUP3 MSTORE PUSH1 0x20 DUP3 ADD SWAP1 POP SWAP3 SWAP2 POP POP JUMP JUMPDEST PUSH32 0x496E76616C696420706F6C696379204944000000000000000000000000000000 PUSH0 DUP3 ADD MSTORE POP JUMP JUMPDEST PUSH0 PUSH2 0x1E60 PUSH1 0x11 DUP4 PUSH2 0x1E1C JUMP JUMPDEST SWAP2 POP PUSH2 0x1E6B DUP3 PUSH2 0x1E2C JUMP JUMPDEST PUSH1 0x20 DUP3 ADD SWAP1 POP SWAP2 SWAP1 POP JUMP JUMPDEST PUSH0 PUSH1 0x20 DUP3 ADD SWAP1 POP DUP2 DUP2 SUB PUSH0 DUP4 ADD MSTORE PUSH2 0x1E8D DUP2 PUSH2 0x1E54 JUMP JUMPDEST SWAP1 POP SWAP2 SWAP1 POP JUMP JUMPDEST PUSH32 0x4E487B7100000000000000000000000000000000000000000000000000000000 PUSH0 MSTORE PUSH1 0x22 PUSH1 0x4 MSTORE PUSH1 0x24 PUSH0 REVERT JUMPDEST PUSH0 PUSH1 0x2 DUP3 DIV SWAP1 POP PUSH1 0x1 DUP3 AND DUP1 PUSH2 0x1ED8 JUMPI PUSH1 0x7F DUP3 AND SWAP2 POP JUMPDEST PUSH1 0x20 DUP3 LT DUP2 SUB PUSH2 0x1EEB JUMPI PUSH2 0x1EEA PUSH2 0x1E94 JUMP JUMPDEST JUMPDEST POP SWAP2 SWAP1 POP JUMP JUMPDEST PUSH32 0x506F6C69637920697320616C72656164792064656C6973746564000000000000 PUSH0 DUP3 ADD MSTORE POP JUMP JUMPDEST PUSH0 PUSH2 0x1F25 PUSH1 0x1A DUP4 PUSH2 0x1E1C JUMP JUMPDEST SWAP2 POP PUSH2 0x1F30 DUP3 PUSH2 0x1EF1 JUMP JUMPDEST PUSH1 0x20 DUP3 ADD SWAP1 POP SWAP2 SWAP1 POP JUMP JUMPDEST PUSH0 PUSH1 0x20 DUP3 ADD SWAP1 POP DUP2 DUP2 SUB PUSH0 DUP4 ADD MSTORE PUSH2 0x1F52 DUP2 PUSH2 0x1F19 JUMP JUMPDEST SWAP1 POP SWAP2 SWAP1 POP JUMP JUMPDEST PUSH32 0x506F6C69637920686173206265656E2064656C69737465642073756363657373 PUSH0 DUP3 ADD MSTORE PUSH32 0x66756C6C79210000000000000000000000000000000000000000000000000000 PUSH1 0x20 DUP3 ADD MSTORE POP JUMP JUMPDEST PUSH0 PUSH2 0x1FB3 PUSH1 0x26 DUP4 PUSH2 0x1E1C JUMP JUMPDEST SWAP2 POP PUSH2 0x1FBE DUP3 PUSH2 0x1F59 JUMP JUMPDEST PUSH1 0x40 DUP3 ADD SWAP1 POP SWAP2 SWAP1 POP JUMP JUMPDEST PUSH0 PUSH1 0x40 DUP3 ADD SWAP1 POP PUSH2 0x1FDC PUSH0 DUP4 ADD DUP5 PUSH2 0x18F7 JUMP JUMPDEST DUP2 DUP2 SUB PUSH1 0x20 DUP4 ADD MSTORE PUSH2 0x1FED DUP2 PUSH2 0x1FA7 JUMP JUMPDEST SWAP1 POP SWAP3 SWAP2 POP POP JUMP JUMPDEST PUSH32 0x4E487B7100000000000000000000000000000000000000000000000000000000 PUSH0 MSTORE PUSH1 0x11 PUSH1 0x4 MSTORE PUSH1 0x24 PUSH0 REVERT JUMPDEST PUSH0 PUSH2 0x202C DUP3 PUSH2 0x161C JUMP JUMPDEST SWAP2 POP PUSH2 0x2037 DUP4 PUSH2 0x161C JUMP JUMPDEST SWAP3 POP DUP3 DUP3 ADD SWAP1 POP DUP1 DUP3 GT ISZERO PUSH2 0x204F JUMPI PUSH2 0x204E PUSH2 0x1FF5 JUMP JUMPDEST JUMPDEST SWAP3 SWAP2 POP POP JUMP JUMPDEST PUSH0 PUSH2 0x205F DUP3 PUSH2 0x161C JUMP JUMPDEST SWAP2 POP PUSH32 0xFFFFFFFFFFFFFFFFFFFFFFFFFFFFFFFFFFFFFFFFFFFFFFFFFFFFFFFFFFFFFFFF DUP3 SUB PUSH2 0x2091 JUMPI PUSH2 0x2090 PUSH2 0x1FF5 JUMP JUMPDEST JUMPDEST PUSH1 0x1 DUP3 ADD SWAP1 POP SWAP2 SWAP1 POP JUMP JUMPDEST PUSH32 0x596F752063616E6E6F74206C697374207468697320706F6C6963792100000000 PUSH0 DUP3 ADD MSTORE POP JUMP JUMPDEST PUSH0 PUSH2 0x20D0 PUSH1 0x1C DUP4 PUSH2 0x1E1C JUMP JUMPDEST SWAP2 POP PUSH2 0x20DB DUP3 PUSH2 0x209C JUMP JUMPDEST PUSH1 0x20 DUP3 ADD SWAP1 POP SWAP2 SWAP1 POP JUMP JUMPDEST PUSH0 PUSH1 0x20 DUP3 ADD SWAP1 POP DUP2 DUP2 SUB PUSH0 DUP4 ADD MSTORE PUSH2 0x20FD DUP2 PUSH2 0x20C4 JUMP JUMPDEST SWAP1 POP SWAP2 SWAP1 POP JUMP JUMPDEST PUSH32 0x506F6C69637920697320616C7265616479206C69737465640000000000000000 PUSH0 DUP3 ADD MSTORE POP JUMP JUMPDEST PUSH0 PUSH2 0x2138 PUSH1 0x18 DUP4 PUSH2 0x1E1C JUMP JUMPDEST SWAP2 POP PUSH2 0x2143 DUP3 PUSH2 0x2104 JUMP JUMPDEST PUSH1 0x20 DUP3 ADD SWAP1 POP SWAP2 SWAP1 POP JUMP JUMPDEST PUSH0 PUSH1 0x20 DUP3 ADD SWAP1 POP DUP2 DUP2 SUB PUSH0 DUP4 ADD MSTORE PUSH2 0x2165 DUP2 PUSH2 0x212C JUMP JUMPDEST SWAP1 POP SWAP2 SWAP1 POP JUMP JUMPDEST PUSH32 0x506F6C69637920686173206265656E206C697374656420737563636573736675 PUSH0 DUP3 ADD MSTORE PUSH32 0x6C6C792100000000000000000000000000000000000000000000000000000000 PUSH1 0x20 DUP3 ADD MSTORE POP JUMP JUMPDEST PUSH0 PUSH2 0x21C6 PUSH1 0x24 DUP4 PUSH2 0x1E1C JUMP JUMPDEST SWAP2 POP PUSH2 0x21D1 DUP3 PUSH2 0x216C JUMP JUMPDEST PUSH1 0x40 DUP3 ADD SWAP1 POP SWAP2 SWAP1 POP JUMP JUMPDEST PUSH0 PUSH1 0x40 DUP3 ADD SWAP1 POP PUSH2 0x21EF PUSH0 DUP4 ADD DUP5 PUSH2 0x18F7 JUMP JUMPDEST DUP2 DUP2 SUB PUSH1 0x20 DUP4 ADD MSTORE PUSH2 0x2200 DUP2 PUSH2 0x21BA JUMP JUMPDEST SWAP1 POP SWAP3 SWAP2 POP POP JUMP JUMPDEST PUSH0 DUP2 MLOAD SWAP1 POP PUSH2 0x2216 DUP2 PUSH2 0x1625 JUMP JUMPDEST SWAP3 SWAP2 POP POP JUMP JUMPDEST PUSH0 PUSH1 0x20 DUP3 DUP5 SUB SLT ISZERO PUSH2 0x2231 JUMPI PUSH2 0x2230 PUSH2 0x1614 JUMP JUMPDEST JUMPDEST PUSH0 PUSH2 0x223E DUP5 DUP3 DUP6 ADD PUSH2 0x2208 JUMP JUMPDEST SWAP2 POP POP SWAP3 SWAP2 POP POP JUMP JUMPDEST PUSH0 DUP2 SWAP1 POP SWAP3 SWAP2 POP POP JUMP JUMPDEST PUSH32 0x596F752063757272656E746C7920686176652000000000000000000000000000 PUSH0 DUP3 ADD MSTORE POP JUMP JUMPDEST PUSH0 PUSH2 0x2285 PUSH1 0x13 DUP4 PUSH2 0x2247 JUMP JUMPDEST SWAP2 POP PUSH2 0x2290 DUP3 PUSH2 0x2251 JUMP JUMPDEST PUSH1 0x13 DUP3 ADD SWAP1 POP SWAP2 SWAP1 POP JUMP JUMPDEST PUSH0 PUSH2 0x22A5 DUP3 PUSH2 0x1689 JUMP JUMPDEST PUSH2 0x22AF DUP2 DUP6 PUSH2 0x2247 JUMP JUMPDEST SWAP4 POP PUSH2 0x22BF DUP2 DUP6 PUSH1 0x20 DUP7 ADD PUSH2 0x16A3 JUMP JUMPDEST DUP1 DUP5 ADD SWAP2 POP POP SWAP3 SWAP2 POP POP JUMP JUMPDEST PUSH32 0x20746F6B656E732C207768696368206973206E6F7420656E6F75676820746F20 PUSH0 DUP3 ADD MSTORE PUSH32 0x637265617465206120706F6C6963792077697468206D617820706F6F6C207661 PUSH1 0x20 DUP3 ADD MSTORE PUSH32 0x6C7565206F662000000000000000000000000000000000000000000000000000 PUSH1 0x40 DUP3 ADD MSTORE POP JUMP JUMPDEST PUSH0 PUSH2 0x234B PUSH1 0x47 DUP4 PUSH2 0x2247 JUMP JUMPDEST SWAP2 POP PUSH2 0x2356 DUP3 PUSH2 0x22CB JUMP JUMPDEST PUSH1 0x47 DUP3 ADD SWAP1 POP SWAP2 SWAP1 POP JUMP JUMPDEST PUSH32 0x20746F6B656E732E000000000000000000000000000000000000000000000000 PUSH0 DUP3 ADD MSTORE POP JUMP JUMPDEST PUSH0 PUSH2 0x2395 PUSH1 0x8 DUP4 PUSH2 0x2247 JUMP JUMPDEST SWAP2 POP PUSH2 0x23A0 DUP3 PUSH2 0x2361 JUMP JUMPDEST PUSH1 0x8 DUP3 ADD SWAP1 POP SWAP2 SWAP1 POP JUMP JUMPDEST PUSH0 PUSH2 0x23B5 DUP3 PUSH2 0x2279 JUMP JUMPDEST SWAP2 POP PUSH2 0x23C1 DUP3 DUP6 PUSH2 0x229B JUMP JUMPDEST SWAP2 POP PUSH2 0x23CC DUP3 PUSH2 0x233F JUMP JUMPDEST SWAP2 POP PUSH2 0x23D8 DUP3 DUP5 PUSH2 0x229B JUMP JUMPDEST SWAP2 POP PUSH2 0x23E3 DUP3 PUSH2 0x2389 JUMP JUMPDEST SWAP2 POP DUP2 SWAP1 POP SWAP4 SWAP3 POP POP POP JUMP JUMPDEST PUSH0 PUSH2 0x23F9 DUP3 PUSH2 0x1689 JUMP JUMPDEST PUSH2 0x2403 DUP2 DUP6 PUSH2 0x1E1C JUMP JUMPDEST SWAP4 POP PUSH2 0x2413 DUP2 DUP6 PUSH1 0x20 DUP7 ADD PUSH2 0x16A3 JUMP JUMPDEST PUSH2 0x241C DUP2 PUSH2 0x16B1 JUMP JUMPDEST DUP5 ADD SWAP2 POP POP SWAP3 SWAP2 POP POP JUMP JUMPDEST PUSH0 PUSH1 0x20 DUP3 ADD SWAP1 POP DUP2 DUP2 SUB PUSH0 DUP4 ADD MSTORE PUSH2 0x243F DUP2 DUP5 PUSH2 0x23EF JUMP JUMPDEST SWAP1 POP SWAP3 SWAP2 POP POP JUMP JUMPDEST PUSH0 PUSH2 0x2452 DUP3 DUP5 PUSH2 0x229B JUMP JUMPDEST SWAP2 POP DUP2 SWAP1 POP SWAP3 SWAP2 POP POP JUMP JUMPDEST PUSH32 0x496E76616C696420706F6C696379207479706500000000000000000000000000 PUSH0 DUP3 ADD MSTORE POP JUMP JUMPDEST PUSH0 PUSH2 0x2491 PUSH1 0x13 DUP4 PUSH2 0x1E1C JUMP JUMPDEST SWAP2 POP PUSH2 0x249C DUP3 PUSH2 0x245D JUMP JUMPDEST PUSH1 0x20 DUP3 ADD SWAP1 POP SWAP2 SWAP1 POP JUMP JUMPDEST PUSH0 PUSH1 0x20 DUP3 ADD SWAP1 POP DUP2 DUP2 SUB PUSH0 DUP4 ADD MSTORE PUSH2 0x24BE DUP2 PUSH2 0x2485 JUMP JUMPDEST SWAP1 POP SWAP2 SWAP1 POP JUMP JUMPDEST PUSH32 0x5269736B206F662062616E6B7275707463793A2072656475636520746865206D PUSH0 DUP3 ADD MSTORE PUSH32 0x617820706F6F6C2076616C756520666F72207468697320706F6C696379000000 PUSH1 0x20 DUP3 ADD MSTORE POP JUMP JUMPDEST PUSH0 PUSH2 0x251F PUSH1 0x3D DUP4 PUSH2 0x1E1C JUMP JUMPDEST SWAP2 POP PUSH2 0x252A DUP3 PUSH2 0x24C5 JUMP JUMPDEST PUSH1 0x40 DUP3 ADD SWAP1 POP SWAP2 SWAP1 POP JUMP JUMPDEST PUSH0 PUSH1 0x20 DUP3 ADD SWAP1 POP DUP2 DUP2 SUB PUSH0 DUP4 ADD MSTORE PUSH2 0x254C DUP2 PUSH2 0x2513 JUMP JUMPDEST SWAP1 POP SWAP2 SWAP1 POP JUMP JUMPDEST PUSH0 PUSH2 0x255D DUP3 PUSH2 0x161C JUMP JUMPDEST SWAP2 POP PUSH2 0x2568 DUP4 PUSH2 0x161C JUMP JUMPDEST SWAP3 POP DUP3 DUP3 MUL PUSH2 0x2576 DUP2 PUSH2 0x161C JUMP JUMPDEST SWAP2 POP DUP3 DUP3 DIV DUP5 EQ DUP4 ISZERO OR PUSH2 0x258D JUMPI PUSH2 0x258C PUSH2 0x1FF5 JUMP JUMPDEST JUMPDEST POP SWAP3 SWAP2 POP POP JUMP JUMPDEST PUSH0 DUP2 SWAP1 POP DUP2 PUSH0 MSTORE PUSH1 0x20 PUSH0 KECCAK256 SWAP1 POP SWAP2 SWAP1 POP JUMP JUMPDEST PUSH0 PUSH1 0x20 PUSH1 0x1F DUP4 ADD DIV SWAP1 POP SWAP2 SWAP1 POP JUMP JUMPDEST PUSH0 DUP3 DUP3 SHL SWAP1 POP SWAP3 SWAP2 POP POP JUMP JUMPDEST PUSH0 PUSH1 0x8 DUP4 MUL PUSH2 0x25F0 PUSH32 0xFFFFFFFFFFFFFFFFFFFFFFFFFFFFFFFFFFFFFFFFFFFFFFFFFFFFFFFFFFFFFFFF DUP3 PUSH2 0x25B5 JUMP JUMPDEST PUSH2 0x25FA DUP7 DUP4 PUSH2 0x25B5 JUMP JUMPDEST SWAP6 POP DUP1 NOT DUP5 AND SWAP4 POP DUP1 DUP7 AND DUP5 OR SWAP3 POP POP POP SWAP4 SWAP3 POP POP POP JUMP JUMPDEST PUSH0 PUSH2 0x262C PUSH2 0x2627 PUSH2 0x2622 DUP5 PUSH2 0x161C JUMP JUMPDEST PUSH2 0x1DA8 JUMP JUMPDEST PUSH2 0x161C JUMP JUMPDEST SWAP1 POP SWAP2 SWAP1 POP JUMP JUMPDEST PUSH0 DUP2 SWAP1 POP SWAP2 SWAP1 POP JUMP JUMPDEST PUSH2 0x2645 DUP4 PUSH2 0x2612 JUMP JUMPDEST PUSH2 0x2659 PUSH2 0x2651 DUP3 PUSH2 0x2633 JUMP JUMPDEST DUP5 DUP5 SLOAD PUSH2 0x25C1 JUMP JUMPDEST DUP3 SSTORE POP POP POP POP JUMP JUMPDEST PUSH0 SWAP1 JUMP JUMPDEST PUSH2 0x266D PUSH2 0x2661 JUMP JUMPDEST PUSH2 0x2678 DUP2 DUP5 DUP5 PUSH2 0x263C JUMP JUMPDEST POP POP POP JUMP JUMPDEST JUMPDEST DUP2 DUP2 LT ISZERO PUSH2 0x269B JUMPI PUSH2 0x2690 PUSH0 DUP3 PUSH2 0x2665 JUMP JUMPDEST PUSH1 0x1 DUP2 ADD SWAP1 POP PUSH2 0x267E JUMP JUMPDEST POP POP JUMP JUMPDEST PUSH1 0x1F DUP3 GT ISZERO PUSH2 0x26E0 JUMPI PUSH2 0x26B1 DUP2 PUSH2 0x2594 JUMP JUMPDEST PUSH2 0x26BA DUP5 PUSH2 0x25A6 JUMP JUMPDEST DUP2 ADD PUSH1 0x20 DUP6 LT ISZERO PUSH2 0x26C9 JUMPI DUP2 SWAP1 POP JUMPDEST PUSH2 0x26DD PUSH2 0x26D5 DUP6 PUSH2 0x25A6 JUMP JUMPDEST DUP4 ADD DUP3 PUSH2 0x267D JUMP JUMPDEST POP POP JUMPDEST POP POP POP JUMP JUMPDEST PUSH0 DUP3 DUP3 SHR SWAP1 POP SWAP3 SWAP2 POP POP JUMP JUMPDEST PUSH0 PUSH2 0x2700 PUSH0 NOT DUP5 PUSH1 0x8 MUL PUSH2 0x26E5 JUMP JUMPDEST NOT DUP1 DUP4 AND SWAP2 POP POP SWAP3 SWAP2 POP POP JUMP JUMPDEST PUSH0 PUSH2 0x2718 DUP4 DUP4 PUSH2 0x26F1 JUMP JUMPDEST SWAP2 POP DUP3 PUSH1 0x2 MUL DUP3 OR SWAP1 POP SWAP3 SWAP2 POP POP JUMP JUMPDEST PUSH2 0x2731 DUP3 PUSH2 0x1689 JUMP JUMPDEST PUSH8 0xFFFFFFFFFFFFFFFF DUP2 GT ISZERO PUSH2 0x274A JUMPI PUSH2 0x2749 PUSH2 0x1927 JUMP JUMPDEST JUMPDEST PUSH2 0x2754 DUP3 SLOAD PUSH2 0x1EC1 JUMP JUMPDEST PUSH2 0x275F DUP3 DUP3 DUP6 PUSH2 0x269F JUMP JUMPDEST PUSH0 PUSH1 0x20 SWAP1 POP PUSH1 0x1F DUP4 GT PUSH1 0x1 DUP2 EQ PUSH2 0x2790 JUMPI PUSH0 DUP5 ISZERO PUSH2 0x277E JUMPI DUP3 DUP8 ADD MLOAD SWAP1 POP JUMPDEST PUSH2 0x2788 DUP6 DUP3 PUSH2 0x270D JUMP JUMPDEST DUP7 SSTORE POP PUSH2 0x27EF JUMP JUMPDEST PUSH1 0x1F NOT DUP5 AND PUSH2 0x279E DUP7 PUSH2 0x2594 JUMP JUMPDEST PUSH0 JUMPDEST DUP3 DUP2 LT ISZERO PUSH2 0x27C5 JUMPI DUP5 DUP10 ADD MLOAD DUP3 SSTORE PUSH1 0x1 DUP3 ADD SWAP2 POP PUSH1 0x20 DUP6 ADD SWAP5 POP PUSH1 0x20 DUP2 ADD SWAP1 POP PUSH2 0x27A0 JUMP JUMPDEST DUP7 DUP4 LT ISZERO PUSH2 0x27E2 JUMPI DUP5 DUP10 ADD MLOAD PUSH2 0x27DE PUSH1 0x1F DUP10 AND DUP3 PUSH2 0x26F1 JUMP JUMPDEST DUP4 SSTORE POP JUMPDEST PUSH1 0x1 PUSH1 0x2 DUP9 MUL ADD DUP9 SSTORE POP POP POP JUMPDEST POP POP POP POP POP POP JUMP JUMPDEST PUSH0 PUSH1 0x60 DUP3 ADD SWAP1 POP PUSH2 0x280A PUSH0 DUP4 ADD DUP7 PUSH2 0x18F7 JUMP JUMPDEST DUP2 DUP2 SUB PUSH1 0x20 DUP4 ADD MSTORE PUSH2 0x281C DUP2 DUP6 PUSH2 0x23EF JUMP JUMPDEST SWAP1 POP PUSH2 0x282B PUSH1 0x40 DUP4 ADD DUP5 PUSH2 0x18CF JUMP JUMPDEST SWAP5 SWAP4 POP POP POP POP JUMP JUMPDEST PUSH0 PUSH2 0x283D DUP3 PUSH2 0x161C JUMP JUMPDEST SWAP2 POP PUSH2 0x2848 DUP4 PUSH2 0x161C JUMP JUMPDEST SWAP3 POP DUP3 DUP3 SUB SWAP1 POP DUP2 DUP2 GT ISZERO PUSH2 0x2860 JUMPI PUSH2 0x285F PUSH2 0x1FF5 JUMP JUMPDEST JUMPDEST SWAP3 SWAP2 POP POP JUMP JUMPDEST PUSH32 0x506F6C696379206E6F7420666F756E6400000000000000000000000000000000 PUSH0 DUP3 ADD MSTORE POP JUMP JUMPDEST PUSH0 PUSH2 0x289A PUSH1 0x10 DUP4 PUSH2 0x1E1C JUMP JUMPDEST SWAP2 POP PUSH2 0x28A5 DUP3 PUSH2 0x2866 JUMP JUMPDEST PUSH1 0x20 DUP3 ADD SWAP1 POP SWAP2 SWAP1 POP JUMP JUMPDEST PUSH0 PUSH1 0x20 DUP3 ADD SWAP1 POP DUP2 DUP2 SUB PUSH0 DUP4 ADD MSTORE PUSH2 0x28C7 DUP2 PUSH2 0x288E JUMP JUMPDEST SWAP1 POP SWAP2 SWAP1 POP JUMP JUMPDEST PUSH32 0x4E487B7100000000000000000000000000000000000000000000000000000000 PUSH0 MSTORE PUSH1 0x12 PUSH1 0x4 MSTORE PUSH1 0x24 PUSH0 REVERT INVALID LOG2 PUSH5 0x6970667358 0x22 SLT KECCAK256 0xA7 PUSH16 0xFCDC7207341A7728AF1450FF7AA5B16A 0x27 SWAP4 0xCF 0xA9 0xD8 ADDMOD POP MSTORE8 0xE8 PUSH29 0x77342AE864736F6C634300081A00330000000000000000000000000000 "
		},
		"gasEstimates": {
			"creation": {
				"codeDepositCost": "2109000",
				"executionCost": "infinite",
				"totalCost": "infinite"
			},
			"external": {
				"calculateAllNetClaimValue()": "infinite",
				"calculateNetClaimValue((uint256,string,string,uint256,uint256,uint256,uint256,uint256,uint256,(uint256,uint256,uint256),(uint256,uint256,uint256),address,bool))": "infinite",
				"createNewPolicy(string,string,uint256,uint256,uint256,uint256)": "infinite",
				"deListPolicy(uint256)": "infinite",
				"getPolicy(uint256)": "infinite",
				"listPolicy(uint256)": "infinite",
				"owner()": "2582",
				"policyCount()": "2491",
				"renounceOwnership()": "infinite",
				"token()": "infinite",
				"transferOwnership(address)": "infinite"
			},
			"internal": {
				"changePolicyListedStatus(uint256)": "infinite"
			}
		},
		"methodIdentifiers": {
			"calculateAllNetClaimValue()": "9d3db268",
			"calculateNetClaimValue((uint256,string,string,uint256,uint256,uint256,uint256,uint256,uint256,(uint256,uint256,uint256),(uint256,uint256,uint256),address,bool))": "dc156a27",
			"createNewPolicy(string,string,uint256,uint256,uint256,uint256)": "a719a9cb",
			"deListPolicy(uint256)": "4e5e5d10",
			"getPolicy(uint256)": "2b07fce3",
			"listPolicy(uint256)": "a56cf067",
			"owner()": "8da5cb5b",
			"policyCount()": "de54d429",
			"renounceOwnership()": "715018a6",
			"token()": "fc0c546a",
			"transferOwnership(address)": "f2fde38b"
		}
	},
	"abi": [
		{
			"inputs": [
				{
					"internalType": "contract CSToken",
					"name": "_token",
					"type": "address"
				}
			],
			"stateMutability": "nonpayable",
			"type": "constructor"
		},
		{
			"inputs": [
				{
					"internalType": "address",
					"name": "owner",
					"type": "address"
				}
			],
			"name": "OwnableInvalidOwner",
			"type": "error"
		},
		{
			"inputs": [
				{
					"internalType": "address",
					"name": "account",
					"type": "address"
				}
			],
			"name": "OwnableUnauthorizedAccount",
			"type": "error"
		},
		{
			"anonymous": false,
			"inputs": [
				{
					"indexed": true,
					"internalType": "address",
					"name": "previousOwner",
					"type": "address"
				},
				{
					"indexed": true,
					"internalType": "address",
					"name": "newOwner",
					"type": "address"
				}
			],
			"name": "OwnershipTransferred",
			"type": "event"
		},
		{
			"anonymous": false,
			"inputs": [
				{
					"indexed": false,
					"internalType": "uint256",
					"name": "policyId",
					"type": "uint256"
				},
				{
					"indexed": false,
					"internalType": "uint256",
					"name": "claimValue",
					"type": "uint256"
				}
			],
			"name": "PolicyClaimed",
			"type": "event"
		},
		{
			"anonymous": false,
			"inputs": [
				{
					"indexed": false,
					"internalType": "uint256",
					"name": "policyId",
					"type": "uint256"
				},
				{
					"indexed": false,
					"internalType": "string",
					"name": "policyName",
					"type": "string"
				},
				{
					"indexed": false,
					"internalType": "address",
					"name": "creator",
					"type": "address"
				}
			],
			"name": "PolicyCreated",
			"type": "event"
		},
		{
			"anonymous": false,
			"inputs": [
				{
					"indexed": false,
					"internalType": "uint256",
					"name": "policyId",
					"type": "uint256"
				},
				{
					"indexed": false,
					"internalType": "string",
					"name": "listed",
					"type": "string"
				}
			],
			"name": "PolicyListed",
			"type": "event"
		},
		{
			"anonymous": false,
			"inputs": [
				{
					"indexed": false,
					"internalType": "uint256",
					"name": "policyId",
					"type": "uint256"
				},
				{
					"indexed": false,
					"internalType": "string",
					"name": "delisted",
					"type": "string"
				}
			],
			"name": "PolicydeListed",
			"type": "event"
		},
		{
			"inputs": [],
			"name": "calculateAllNetClaimValue",
			"outputs": [
				{
					"internalType": "uint256",
					"name": "",
					"type": "uint256"
				}
			],
			"stateMutability": "view",
			"type": "function"
		},
		{
			"inputs": [
				{
					"components": [
						{
							"internalType": "uint256",
							"name": "policyId",
							"type": "uint256"
						},
						{
							"internalType": "string",
							"name": "policyName",
							"type": "string"
						},
						{
							"internalType": "string",
							"name": "policyType",
							"type": "string"
						},
						{
							"internalType": "uint256",
							"name": "claimBackRate",
							"type": "uint256"
						},
						{
							"internalType": "uint256",
							"name": "maxPoolValue",
							"type": "uint256"
						},
						{
							"internalType": "uint256",
							"name": "currPoolValue",
							"type": "uint256"
						},
						{
							"internalType": "uint256",
							"name": "minStake",
							"type": "uint256"
						},
						{
							"internalType": "uint256",
							"name": "creationTime",
							"type": "uint256"
						},
						{
							"internalType": "uint256",
							"name": "coveragePeriod",
							"type": "uint256"
						},
						{
							"components": [
								{
									"internalType": "uint256",
									"name": "year",
									"type": "uint256"
								},
								{
									"internalType": "uint256",
									"name": "month",
									"type": "uint256"
								},
								{
									"internalType": "uint256",
									"name": "day",
									"type": "uint256"
								}
							],
							"internalType": "struct InsuranceCompany.Date",
							"name": "creationDate",
							"type": "tuple"
						},
						{
							"components": [
								{
									"internalType": "uint256",
									"name": "year",
									"type": "uint256"
								},
								{
									"internalType": "uint256",
									"name": "month",
									"type": "uint256"
								},
								{
									"internalType": "uint256",
									"name": "day",
									"type": "uint256"
								}
							],
							"internalType": "struct InsuranceCompany.Date",
							"name": "coverageEndDate",
							"type": "tuple"
						},
						{
							"internalType": "address",
							"name": "creator",
							"type": "address"
						},
						{
							"internalType": "bool",
							"name": "listed",
							"type": "bool"
						}
					],
					"internalType": "struct InsuranceCompany.Policy",
					"name": "p",
					"type": "tuple"
				}
			],
			"name": "calculateNetClaimValue",
			"outputs": [
				{
					"internalType": "uint256",
					"name": "",
					"type": "uint256"
				}
			],
			"stateMutability": "pure",
			"type": "function"
		},
		{
			"inputs": [
				{
					"internalType": "string",
					"name": "_policyName",
					"type": "string"
				},
				{
					"internalType": "string",
					"name": "_policyType",
					"type": "string"
				},
				{
					"internalType": "uint256",
					"name": "_claimBackRate",
					"type": "uint256"
				},
				{
					"internalType": "uint256",
					"name": "_maxPoolValue",
					"type": "uint256"
				},
				{
					"internalType": "uint256",
					"name": "_minStake",
					"type": "uint256"
				},
				{
					"internalType": "uint256",
					"name": "_coveragePeriod",
					"type": "uint256"
				}
			],
			"name": "createNewPolicy",
			"outputs": [],
			"stateMutability": "nonpayable",
			"type": "function"
		},
		{
			"inputs": [
				{
					"internalType": "uint256",
					"name": "policyId",
					"type": "uint256"
				}
			],
			"name": "deListPolicy",
			"outputs": [],
			"stateMutability": "nonpayable",
			"type": "function"
		},
		{
			"inputs": [
				{
					"internalType": "uint256",
					"name": "policyId",
					"type": "uint256"
				}
			],
			"name": "getPolicy",
			"outputs": [
				{
					"components": [
						{
							"internalType": "uint256",
							"name": "policyId",
							"type": "uint256"
						},
						{
							"internalType": "string",
							"name": "policyName",
							"type": "string"
						},
						{
							"internalType": "string",
							"name": "policyType",
							"type": "string"
						},
						{
							"internalType": "uint256",
							"name": "claimBackRate",
							"type": "uint256"
						},
						{
							"internalType": "uint256",
							"name": "maxPoolValue",
							"type": "uint256"
						},
						{
							"internalType": "uint256",
							"name": "currPoolValue",
							"type": "uint256"
						},
						{
							"internalType": "uint256",
							"name": "minStake",
							"type": "uint256"
						},
						{
							"internalType": "uint256",
							"name": "creationTime",
							"type": "uint256"
						},
						{
							"internalType": "uint256",
							"name": "coveragePeriod",
							"type": "uint256"
						},
						{
							"components": [
								{
									"internalType": "uint256",
									"name": "year",
									"type": "uint256"
								},
								{
									"internalType": "uint256",
									"name": "month",
									"type": "uint256"
								},
								{
									"internalType": "uint256",
									"name": "day",
									"type": "uint256"
								}
							],
							"internalType": "struct InsuranceCompany.Date",
							"name": "creationDate",
							"type": "tuple"
						},
						{
							"components": [
								{
									"internalType": "uint256",
									"name": "year",
									"type": "uint256"
								},
								{
									"internalType": "uint256",
									"name": "month",
									"type": "uint256"
								},
								{
									"internalType": "uint256",
									"name": "day",
									"type": "uint256"
								}
							],
							"internalType": "struct InsuranceCompany.Date",
							"name": "coverageEndDate",
							"type": "tuple"
						},
						{
							"internalType": "address",
							"name": "creator",
							"type": "address"
						},
						{
							"internalType": "bool",
							"name": "listed",
							"type": "bool"
						}
					],
					"internalType": "struct InsuranceCompany.Policy",
					"name": "",
					"type": "tuple"
				}
			],
			"stateMutability": "view",
			"type": "function"
		},
		{
			"inputs": [
				{
					"internalType": "uint256",
					"name": "policyId",
					"type": "uint256"
				}
			],
			"name": "listPolicy",
			"outputs": [],
			"stateMutability": "nonpayable",
			"type": "function"
		},
		{
			"inputs": [],
			"name": "owner",
			"outputs": [
				{
					"internalType": "address",
					"name": "",
					"type": "address"
				}
			],
			"stateMutability": "view",
			"type": "function"
		},
		{
			"inputs": [],
			"name": "policyCount",
			"outputs": [
				{
					"internalType": "uint256",
					"name": "",
					"type": "uint256"
				}
			],
			"stateMutability": "view",
			"type": "function"
		},
		{
			"inputs": [],
			"name": "renounceOwnership",
			"outputs": [],
			"stateMutability": "nonpayable",
			"type": "function"
		},
		{
			"inputs": [],
			"name": "token",
			"outputs": [
				{
					"internalType": "contract CSToken",
					"name": "",
					"type": "address"
				}
			],
			"stateMutability": "view",
			"type": "function"
		},
		{
			"inputs": [
				{
					"internalType": "address",
					"name": "newOwner",
					"type": "address"
				}
			],
			"name": "transferOwnership",
			"outputs": [],
			"stateMutability": "nonpayable",
			"type": "function"
		}
	]
}