{
	"data": {
		"bytecode": {
			"linkReferences": {},
			"object": "608060405234801561000f575f80fd5b5060405161288a38038061288a833981810160405281019061003191906102c4565b335f73ffffffffffffffffffffffffffffffffffffffff168173ffffffffffffffffffffffffffffffffffffffff16036100a2575f6040517f1e4fbdf700000000000000000000000000000000000000000000000000000000815260040161009991906102fe565b60405180910390fd5b6100b18161019460201b60201c565b508060015f6101000a81548173ffffffffffffffffffffffffffffffffffffffff021916908373ffffffffffffffffffffffffffffffffffffffff160217905550600160026040516101029061036b565b90815260200160405180910390205f6101000a81548160ff02191690831515021790555060016002604051610136906103c9565b90815260200160405180910390205f6101000a81548160ff0219169083151502179055506001600260405161016a90610427565b90815260200160405180910390205f6101000a81548160ff0219169083151502179055505061043b565b5f805f9054906101000a900473ffffffffffffffffffffffffffffffffffffffff169050815f806101000a81548173ffffffffffffffffffffffffffffffffffffffff021916908373ffffffffffffffffffffffffffffffffffffffff1602179055508173ffffffffffffffffffffffffffffffffffffffff168173ffffffffffffffffffffffffffffffffffffffff167f8be0079c531659141344cd1fd0a4f28419497f9722a3daafe3b4186f6b6457e060405160405180910390a35050565b5f80fd5b5f73ffffffffffffffffffffffffffffffffffffffff82169050919050565b5f61028282610259565b9050919050565b5f61029382610278565b9050919050565b6102a381610289565b81146102ad575f80fd5b50565b5f815190506102be8161029a565b92915050565b5f602082840312156102d9576102d8610255565b5b5f6102e6848285016102b0565b91505092915050565b6102f881610278565b82525050565b5f6020820190506103115f8301846102ef565b92915050565b5f81905092915050565b7f54726176656c00000000000000000000000000000000000000000000000000005f82015250565b5f610355600683610317565b915061036082610321565b600682019050919050565b5f61037582610349565b9150819050919050565b7f50726f70657274790000000000000000000000000000000000000000000000005f82015250565b5f6103b3600883610317565b91506103be8261037f565b600882019050919050565b5f6103d3826103a7565b9150819050919050565b7f4c696665000000000000000000000000000000000000000000000000000000005f82015250565b5f610411600483610317565b915061041c826103dd565b600482019050919050565b5f61043182610405565b9150819050919050565b612442806104485f395ff3fe608060405234801561000f575f80fd5b50600436106100b2575f3560e01c80639d3db2681161006f5780639d3db26814610162578063a4d453de14610180578063bcc46e83146101b0578063de54d429146101cc578063f2fde38b146101ea578063fc0c546a14610206576100b2565b80630c6ab3fa146100b65780632b07fce3146100d257806354f4d02614610102578063715018a61461011e5780638da5cb5b1461012857806396945f3e14610146575b5f80fd5b6100d060048036038101906100cb919061131a565b610224565b005b6100ec60048036038101906100e79190611358565b6102dc565b6040516100f99190611539565b60405180910390f35b61011c60048036038101906101179190611685565b610534565b005b6101266109e3565b005b6101306109f6565b60405161013d9190611743565b60405180910390f35b610160600480360381019061015b9190611358565b610a1d565b005b61016a610aa8565b604051610177919061176b565b60405180910390f35b61019a6004803603810190610195919061190b565b610ce5565b6040516101a7919061176b565b60405180910390f35b6101ca60048036038101906101c59190611358565b610d36565b005b6101d4610e58565b6040516101e1919061176b565b60405180910390f35b61020460048036038101906101ff9190611952565b610e5e565b005b61020e610ee2565b60405161021b91906119d8565b60405180910390f35b5f60045f8481526020019081526020015f2090508060070160159054906101000a900460ff16610289576040517f08c379a000000000000000000000000000000000000000000000000000000000815260040161028090611a4b565b60405180910390fd5b82815f0154146102ce576040517f08c379a00000000000000000000000000000000000000000000000000000000081526004016102c590611ab3565b60405180910390fd5b818160050181905550505050565b6102e4611271565b5f821180156102f557506003548211155b610334576040517f08c379a000000000000000000000000000000000000000000000000000000000815260040161032b90611b1b565b60405180910390fd5b60045f8381526020019081526020015f20604051806101400160405290815f820154815260200160018201805461036a90611b66565b80601f016020809104026020016040519081016040528092919081815260200182805461039690611b66565b80156103e15780601f106103b8576101008083540402835291602001916103e1565b820191905f5260205f20905b8154815290600101906020018083116103c457829003601f168201915b505050505081526020016002820180546103fa90611b66565b80601f016020809104026020016040519081016040528092919081815260200182805461042690611b66565b80156104715780601f1061044857610100808354040283529160200191610471565b820191905f5260205f20905b81548152906001019060200180831161045457829003601f168201915b5050505050815260200160038201548152602001600482015481526020016005820154815260200160068201548152602001600782015f9054906101000a900473ffffffffffffffffffffffffffffffffffffffff1673ffffffffffffffffffffffffffffffffffffffff1673ffffffffffffffffffffffffffffffffffffffff1681526020016007820160149054906101000a900460ff161515151581526020016007820160159054906101000a900460ff1615151515815250509050919050565b828060015f9054906101000a900473ffffffffffffffffffffffffffffffffffffffff1673ffffffffffffffffffffffffffffffffffffffff166370a08231336040518263ffffffff1660e01b81526004016105909190611743565b602060405180830381865afa1580156105ab573d5f803e3d5ffd5b505050506040513d601f19601f820116820180604052508101906105cf9190611baa565b101561067260015f9054906101000a900473ffffffffffffffffffffffffffffffffffffffff1673ffffffffffffffffffffffffffffffffffffffff166370a08231336040518263ffffffff1660e01b815260040161062e9190611743565b602060405180830381865afa158015610649573d5f803e3d5ffd5b505050506040513d601f19601f8201168201806040525081019061066d9190611baa565b610f07565b61067b83610f07565b60405160200161068c929190611d39565b604051602081830303815290604052906106dc576040517f08c379a00000000000000000000000000000000000000000000000000000000081526004016106d39190611db5565b60405180910390fd5b50846002816040516106ee9190611dd5565b90815260200160405180910390205f9054906101000a900460ff16610748576040517f08c379a000000000000000000000000000000000000000000000000000000000815260040161073f90611e35565b60405180910390fd5b610750610aa8565b60015f9054906101000a900473ffffffffffffffffffffffffffffffffffffffff1673ffffffffffffffffffffffffffffffffffffffff166370a08231306040518263ffffffff1660e01b81526004016107aa9190611743565b602060405180830381865afa1580156107c5573d5f803e3d5ffd5b505050506040513d601f19601f820116820180604052508101906107e99190611baa565b11610829576040517f08c379a000000000000000000000000000000000000000000000000000000000815260040161082090611ec3565b60405180910390fd5b60035f81548092919061083b90611f0e565b919050555060405180610140016040528060035481526020018881526020018781526020018481526020018681526020015f81526020018581526020013373ffffffffffffffffffffffffffffffffffffffff1681526020015f151581526020016001151581525060045f60035481526020019081526020015f205f820151815f015560208201518160010190816108d391906120e9565b5060408201518160020190816108e991906120e9565b50606082015181600301556080820151816004015560a0820151816005015560c0820151816006015560e0820151816007015f6101000a81548173ffffffffffffffffffffffffffffffffffffffff021916908373ffffffffffffffffffffffffffffffffffffffff1602179055506101008201518160070160146101000a81548160ff0219169083151502179055506101208201518160070160156101000a81548160ff0219169083151502179055509050507fe060903a71989416db77650c9585adbae8f4fc8633a778a547d25e3c78789f4c60035488336040516109d2939291906121b8565b60405180910390a150505050505050565b6109eb610fd1565b6109f45f611058565b565b5f805f9054906101000a900473ffffffffffffffffffffffffffffffffffffffff16905090565b5f60045f8381526020019081526020015f20905081815f015414610a76576040517f08c379a0000000000000000000000000000000000000000000000000000000008152600401610a6d90611ab3565b60405180910390fd5b8060070160149054906101000a900460ff16158160070160146101000a81548160ff0219169083151502179055505050565b5f805f90505f600190505b6003548111610cdd57610cbd60045f8381526020019081526020015f20604051806101400160405290815f8201548152602001600182018054610af590611b66565b80601f0160208091040260200160405190810160405280929190818152602001828054610b2190611b66565b8015610b6c5780601f10610b4357610100808354040283529160200191610b6c565b820191905f5260205f20905b815481529060010190602001808311610b4f57829003601f168201915b50505050508152602001600282018054610b8590611b66565b80601f0160208091040260200160405190810160405280929190818152602001828054610bb190611b66565b8015610bfc5780601f10610bd357610100808354040283529160200191610bfc565b820191905f5260205f20905b815481529060010190602001808311610bdf57829003601f168201915b5050505050815260200160038201548152602001600482015481526020016005820154815260200160068201548152602001600782015f9054906101000a900473ffffffffffffffffffffffffffffffffffffffff1673ffffffffffffffffffffffffffffffffffffffff1673ffffffffffffffffffffffffffffffffffffffff1681526020016007820160149054906101000a900460ff161515151581526020016007820160159054906101000a900460ff161515151581525050610ce5565b82610cc891906121f4565b91508080610cd590611f0e565b915050610ab3565b508091505090565b5f600182606001511115610d1a57816080015160018360600151610d099190612227565b610d13919061225a565b9050610d31565b81608001518260600151610d2e919061225a565b90505b919050565b5f8111610d78576040517f08c379a0000000000000000000000000000000000000000000000000000000008152600401610d6f906122e5565b60405180910390fd5b60015f9054906101000a900473ffffffffffffffffffffffffffffffffffffffff1673ffffffffffffffffffffffffffffffffffffffff166323b872dd3330846040518463ffffffff1660e01b8152600401610dd693929190612303565b6020604051808303815f875af1158015610df2573d5f803e3d5ffd5b505050506040513d601f19601f82011682018060405250810190610e16919061234c565b610e55576040517f08c379a0000000000000000000000000000000000000000000000000000000008152600401610e4c906123c1565b60405180910390fd5b50565b60035481565b610e66610fd1565b5f73ffffffffffffffffffffffffffffffffffffffff168173ffffffffffffffffffffffffffffffffffffffff1603610ed6575f6040517f1e4fbdf7000000000000000000000000000000000000000000000000000000008152600401610ecd9190611743565b60405180910390fd5b610edf81611058565b50565b60015f9054906101000a900473ffffffffffffffffffffffffffffffffffffffff1681565b60605f6001610f1584611119565b0190505f8167ffffffffffffffff811115610f3357610f32611561565b5b6040519080825280601f01601f191660200182016040528015610f655781602001600182028036833780820191505090505b5090505f82602001820190505b600115610fc6578080600190039150507f3031323334353637383961626364656600000000000000000000000000000000600a86061a8153600a8581610fbb57610fba6123df565b5b0494505f8503610f72575b819350505050919050565b610fd961126a565b73ffffffffffffffffffffffffffffffffffffffff16610ff76109f6565b73ffffffffffffffffffffffffffffffffffffffff16146110565761101a61126a565b6040517f118cdaa700000000000000000000000000000000000000000000000000000000815260040161104d9190611743565b60405180910390fd5b565b5f805f9054906101000a900473ffffffffffffffffffffffffffffffffffffffff169050815f806101000a81548173ffffffffffffffffffffffffffffffffffffffff021916908373ffffffffffffffffffffffffffffffffffffffff1602179055508173ffffffffffffffffffffffffffffffffffffffff168173ffffffffffffffffffffffffffffffffffffffff167f8be0079c531659141344cd1fd0a4f28419497f9722a3daafe3b4186f6b6457e060405160405180910390a35050565b5f805f90507a184f03e93ff9f4daa797ed6e38ed64bf6a1f0100000000000000008310611175577a184f03e93ff9f4daa797ed6e38ed64bf6a1f010000000000000000838161116b5761116a6123df565b5b0492506040810190505b6d04ee2d6d415b85acef810000000083106111b2576d04ee2d6d415b85acef810000000083816111a8576111a76123df565b5b0492506020810190505b662386f26fc1000083106111e157662386f26fc1000083816111d7576111d66123df565b5b0492506010810190505b6305f5e100831061120a576305f5e1008381611200576111ff6123df565b5b0492506008810190505b612710831061122f576127108381611225576112246123df565b5b0492506004810190505b606483106112525760648381611248576112476123df565b5b0492506002810190505b600a8310611261576001810190505b80915050919050565b5f33905090565b6040518061014001604052805f815260200160608152602001606081526020015f81526020015f81526020015f81526020015f81526020015f73ffffffffffffffffffffffffffffffffffffffff1681526020015f151581526020015f151581525090565b5f604051905090565b5f80fd5b5f80fd5b5f819050919050565b6112f9816112e7565b8114611303575f80fd5b50565b5f81359050611314816112f0565b92915050565b5f80604083850312156113305761132f6112df565b5b5f61133d85828601611306565b925050602061134e85828601611306565b9150509250929050565b5f6020828403121561136d5761136c6112df565b5b5f61137a84828501611306565b91505092915050565b61138c816112e7565b82525050565b5f81519050919050565b5f82825260208201905092915050565b8281835e5f83830152505050565b5f601f19601f8301169050919050565b5f6113d482611392565b6113de818561139c565b93506113ee8185602086016113ac565b6113f7816113ba565b840191505092915050565b5f73ffffffffffffffffffffffffffffffffffffffff82169050919050565b5f61142b82611402565b9050919050565b61143b81611421565b82525050565b5f8115159050919050565b61145581611441565b82525050565b5f61014083015f8301516114715f860182611383565b506020830151848203602086015261148982826113ca565b915050604083015184820360408601526114a382826113ca565b91505060608301516114b86060860182611383565b5060808301516114cb6080860182611383565b5060a08301516114de60a0860182611383565b5060c08301516114f160c0860182611383565b5060e083015161150460e0860182611432565b5061010083015161151961010086018261144c565b5061012083015161152e61012086018261144c565b508091505092915050565b5f6020820190508181035f830152611551818461145b565b905092915050565b5f80fd5b5f80fd5b7f4e487b71000000000000000000000000000000000000000000000000000000005f52604160045260245ffd5b611597826113ba565b810181811067ffffffffffffffff821117156115b6576115b5611561565b5b80604052505050565b5f6115c86112d6565b90506115d4828261158e565b919050565b5f67ffffffffffffffff8211156115f3576115f2611561565b5b6115fc826113ba565b9050602081019050919050565b828183375f83830152505050565b5f611629611624846115d9565b6115bf565b9050828152602081018484840111156116455761164461155d565b5b611650848285611609565b509392505050565b5f82601f83011261166c5761166b611559565b5b813561167c848260208601611617565b91505092915050565b5f805f805f60a0868803121561169e5761169d6112df565b5b5f86013567ffffffffffffffff8111156116bb576116ba6112e3565b5b6116c788828901611658565b955050602086013567ffffffffffffffff8111156116e8576116e76112e3565b5b6116f488828901611658565b945050604061170588828901611306565b935050606061171688828901611306565b925050608061172788828901611306565b9150509295509295909350565b61173d81611421565b82525050565b5f6020820190506117565f830184611734565b92915050565b611765816112e7565b82525050565b5f60208201905061177e5f83018461175c565b92915050565b5f80fd5b5f80fd5b61179581611421565b811461179f575f80fd5b50565b5f813590506117b08161178c565b92915050565b6117bf81611441565b81146117c9575f80fd5b50565b5f813590506117da816117b6565b92915050565b5f61014082840312156117f6576117f5611784565b5b6118016101406115bf565b90505f61181084828501611306565b5f83015250602082013567ffffffffffffffff81111561183357611832611788565b5b61183f84828501611658565b602083015250604082013567ffffffffffffffff81111561186357611862611788565b5b61186f84828501611658565b604083015250606061188384828501611306565b606083015250608061189784828501611306565b60808301525060a06118ab84828501611306565b60a08301525060c06118bf84828501611306565b60c08301525060e06118d3848285016117a2565b60e0830152506101006118e8848285016117cc565b610100830152506101206118fe848285016117cc565b6101208301525092915050565b5f602082840312156119205761191f6112df565b5b5f82013567ffffffffffffffff81111561193d5761193c6112e3565b5b611949848285016117e0565b91505092915050565b5f60208284031215611967576119666112df565b5b5f611974848285016117a2565b91505092915050565b5f819050919050565b5f6119a061199b61199684611402565b61197d565b611402565b9050919050565b5f6119b182611986565b9050919050565b5f6119c2826119a7565b9050919050565b6119d2816119b8565b82525050565b5f6020820190506119eb5f8301846119c9565b92915050565b5f82825260208201905092915050565b7f506f6c696379206973206e6f74206163746976650000000000000000000000005f82015250565b5f611a356014836119f1565b9150611a4082611a01565b602082019050919050565b5f6020820190508181035f830152611a6281611a29565b9050919050565b7f506f6c696379206e6f7420666f756e64000000000000000000000000000000005f82015250565b5f611a9d6010836119f1565b9150611aa882611a69565b602082019050919050565b5f6020820190508181035f830152611aca81611a91565b9050919050565b7f496e76616c696420706f6c6963792049440000000000000000000000000000005f82015250565b5f611b056011836119f1565b9150611b1082611ad1565b602082019050919050565b5f6020820190508181035f830152611b3281611af9565b9050919050565b7f4e487b71000000000000000000000000000000000000000000000000000000005f52602260045260245ffd5b5f6002820490506001821680611b7d57607f821691505b602082108103611b9057611b8f611b39565b5b50919050565b5f81519050611ba4816112f0565b92915050565b5f60208284031215611bbf57611bbe6112df565b5b5f611bcc84828501611b96565b91505092915050565b5f81905092915050565b7f596f752063757272656e746c79206861766520000000000000000000000000005f82015250565b5f611c13601383611bd5565b9150611c1e82611bdf565b601382019050919050565b5f611c3382611392565b611c3d8185611bd5565b9350611c4d8185602086016113ac565b80840191505092915050565b7f20746f6b656e732c207768696368206973206e6f7420656e6f75676820746f205f8201527f637265617465206120706f6c6963792077697468206d617820706f6f6c20766160208201527f6c7565206f662000000000000000000000000000000000000000000000000000604082015250565b5f611cd9604783611bd5565b9150611ce482611c59565b604782019050919050565b7f20746f6b656e732e0000000000000000000000000000000000000000000000005f82015250565b5f611d23600883611bd5565b9150611d2e82611cef565b600882019050919050565b5f611d4382611c07565b9150611d4f8285611c29565b9150611d5a82611ccd565b9150611d668284611c29565b9150611d7182611d17565b91508190509392505050565b5f611d8782611392565b611d9181856119f1565b9350611da18185602086016113ac565b611daa816113ba565b840191505092915050565b5f6020820190508181035f830152611dcd8184611d7d565b905092915050565b5f611de08284611c29565b915081905092915050565b7f496e76616c696420706f6c6963792074797065000000000000000000000000005f82015250565b5f611e1f6013836119f1565b9150611e2a82611deb565b602082019050919050565b5f6020820190508181035f830152611e4c81611e13565b9050919050565b7f5269736b206f662062616e6b7275707463793a2072656475636520746865206d5f8201527f617820706f6f6c2076616c756520666f72207468697320706f6c696379000000602082015250565b5f611ead603d836119f1565b9150611eb882611e53565b604082019050919050565b5f6020820190508181035f830152611eda81611ea1565b9050919050565b7f4e487b71000000000000000000000000000000000000000000000000000000005f52601160045260245ffd5b5f611f18826112e7565b91507fffffffffffffffffffffffffffffffffffffffffffffffffffffffffffffffff8203611f4a57611f49611ee1565b5b600182019050919050565b5f819050815f5260205f209050919050565b5f6020601f8301049050919050565b5f82821b905092915050565b5f60088302611fb17fffffffffffffffffffffffffffffffffffffffffffffffffffffffffffffffff82611f76565b611fbb8683611f76565b95508019841693508086168417925050509392505050565b5f611fed611fe8611fe3846112e7565b61197d565b6112e7565b9050919050565b5f819050919050565b61200683611fd3565b61201a61201282611ff4565b848454611f82565b825550505050565b5f90565b61202e612022565b612039818484611ffd565b505050565b5b8181101561205c576120515f82612026565b60018101905061203f565b5050565b601f8211156120a15761207281611f55565b61207b84611f67565b8101602085101561208a578190505b61209e61209685611f67565b83018261203e565b50505b505050565b5f82821c905092915050565b5f6120c15f19846008026120a6565b1980831691505092915050565b5f6120d983836120b2565b9150826002028217905092915050565b6120f282611392565b67ffffffffffffffff81111561210b5761210a611561565b5b6121158254611b66565b612120828285612060565b5f60209050601f831160018114612151575f841561213f578287015190505b61214985826120ce565b8655506121b0565b601f19841661215f86611f55565b5f5b8281101561218657848901518255600182019150602085019450602081019050612161565b868310156121a3578489015161219f601f8916826120b2565b8355505b6001600288020188555050505b505050505050565b5f6060820190506121cb5f83018661175c565b81810360208301526121dd8185611d7d565b90506121ec6040830184611734565b949350505050565b5f6121fe826112e7565b9150612209836112e7565b925082820190508082111561222157612220611ee1565b5b92915050565b5f612231826112e7565b915061223c836112e7565b925082820390508181111561225457612253611ee1565b5b92915050565b5f612264826112e7565b915061226f836112e7565b925082820261227d816112e7565b9150828204841483151761229457612293611ee1565b5b5092915050565b7f416d6f756e74206d7573742062652067726561746572207468616e207a65726f5f82015250565b5f6122cf6020836119f1565b91506122da8261229b565b602082019050919050565b5f6020820190508181035f8301526122fc816122c3565b9050919050565b5f6060820190506123165f830186611734565b6123236020830185611734565b612330604083018461175c565b949350505050565b5f81519050612346816117b6565b92915050565b5f60208284031215612361576123606112df565b5b5f61236e84828501612338565b91505092915050565b7f546f6b656e207472616e73666572206661696c656400000000000000000000005f82015250565b5f6123ab6015836119f1565b91506123b682612377565b602082019050919050565b5f6020820190508181035f8301526123d88161239f565b9050919050565b7f4e487b71000000000000000000000000000000000000000000000000000000005f52601260045260245ffdfea2646970667358221220f49d03ebe4d8d01709eb80ba168c5c9563eb38413a209cec2a6d7f549106502264736f6c634300081a0033",
			"opcodes": "PUSH1 0x80 PUSH1 0x40 MSTORE CALLVALUE DUP1 ISZERO PUSH2 0xF JUMPI PUSH0 DUP1 REVERT JUMPDEST POP PUSH1 0x40 MLOAD PUSH2 0x288A CODESIZE SUB DUP1 PUSH2 0x288A DUP4 CODECOPY DUP2 DUP2 ADD PUSH1 0x40 MSTORE DUP2 ADD SWAP1 PUSH2 0x31 SWAP2 SWAP1 PUSH2 0x2C4 JUMP JUMPDEST CALLER PUSH0 PUSH20 0xFFFFFFFFFFFFFFFFFFFFFFFFFFFFFFFFFFFFFFFF AND DUP2 PUSH20 0xFFFFFFFFFFFFFFFFFFFFFFFFFFFFFFFFFFFFFFFF AND SUB PUSH2 0xA2 JUMPI PUSH0 PUSH1 0x40 MLOAD PUSH32 0x1E4FBDF700000000000000000000000000000000000000000000000000000000 DUP2 MSTORE PUSH1 0x4 ADD PUSH2 0x99 SWAP2 SWAP1 PUSH2 0x2FE JUMP JUMPDEST PUSH1 0x40 MLOAD DUP1 SWAP2 SUB SWAP1 REVERT JUMPDEST PUSH2 0xB1 DUP2 PUSH2 0x194 PUSH1 0x20 SHL PUSH1 0x20 SHR JUMP JUMPDEST POP DUP1 PUSH1 0x1 PUSH0 PUSH2 0x100 EXP DUP2 SLOAD DUP2 PUSH20 0xFFFFFFFFFFFFFFFFFFFFFFFFFFFFFFFFFFFFFFFF MUL NOT AND SWAP1 DUP4 PUSH20 0xFFFFFFFFFFFFFFFFFFFFFFFFFFFFFFFFFFFFFFFF AND MUL OR SWAP1 SSTORE POP PUSH1 0x1 PUSH1 0x2 PUSH1 0x40 MLOAD PUSH2 0x102 SWAP1 PUSH2 0x36B JUMP JUMPDEST SWAP1 DUP2 MSTORE PUSH1 0x20 ADD PUSH1 0x40 MLOAD DUP1 SWAP2 SUB SWAP1 KECCAK256 PUSH0 PUSH2 0x100 EXP DUP2 SLOAD DUP2 PUSH1 0xFF MUL NOT AND SWAP1 DUP4 ISZERO ISZERO MUL OR SWAP1 SSTORE POP PUSH1 0x1 PUSH1 0x2 PUSH1 0x40 MLOAD PUSH2 0x136 SWAP1 PUSH2 0x3C9 JUMP JUMPDEST SWAP1 DUP2 MSTORE PUSH1 0x20 ADD PUSH1 0x40 MLOAD DUP1 SWAP2 SUB SWAP1 KECCAK256 PUSH0 PUSH2 0x100 EXP DUP2 SLOAD DUP2 PUSH1 0xFF MUL NOT AND SWAP1 DUP4 ISZERO ISZERO MUL OR SWAP1 SSTORE POP PUSH1 0x1 PUSH1 0x2 PUSH1 0x40 MLOAD PUSH2 0x16A SWAP1 PUSH2 0x427 JUMP JUMPDEST SWAP1 DUP2 MSTORE PUSH1 0x20 ADD PUSH1 0x40 MLOAD DUP1 SWAP2 SUB SWAP1 KECCAK256 PUSH0 PUSH2 0x100 EXP DUP2 SLOAD DUP2 PUSH1 0xFF MUL NOT AND SWAP1 DUP4 ISZERO ISZERO MUL OR SWAP1 SSTORE POP POP PUSH2 0x43B JUMP JUMPDEST PUSH0 DUP1 PUSH0 SWAP1 SLOAD SWAP1 PUSH2 0x100 EXP SWAP1 DIV PUSH20 0xFFFFFFFFFFFFFFFFFFFFFFFFFFFFFFFFFFFFFFFF AND SWAP1 POP DUP2 PUSH0 DUP1 PUSH2 0x100 EXP DUP2 SLOAD DUP2 PUSH20 0xFFFFFFFFFFFFFFFFFFFFFFFFFFFFFFFFFFFFFFFF MUL NOT AND SWAP1 DUP4 PUSH20 0xFFFFFFFFFFFFFFFFFFFFFFFFFFFFFFFFFFFFFFFF AND MUL OR SWAP1 SSTORE POP DUP2 PUSH20 0xFFFFFFFFFFFFFFFFFFFFFFFFFFFFFFFFFFFFFFFF AND DUP2 PUSH20 0xFFFFFFFFFFFFFFFFFFFFFFFFFFFFFFFFFFFFFFFF AND PUSH32 0x8BE0079C531659141344CD1FD0A4F28419497F9722A3DAAFE3B4186F6B6457E0 PUSH1 0x40 MLOAD PUSH1 0x40 MLOAD DUP1 SWAP2 SUB SWAP1 LOG3 POP POP JUMP JUMPDEST PUSH0 DUP1 REVERT JUMPDEST PUSH0 PUSH20 0xFFFFFFFFFFFFFFFFFFFFFFFFFFFFFFFFFFFFFFFF DUP3 AND SWAP1 POP SWAP2 SWAP1 POP JUMP JUMPDEST PUSH0 PUSH2 0x282 DUP3 PUSH2 0x259 JUMP JUMPDEST SWAP1 POP SWAP2 SWAP1 POP JUMP JUMPDEST PUSH0 PUSH2 0x293 DUP3 PUSH2 0x278 JUMP JUMPDEST SWAP1 POP SWAP2 SWAP1 POP JUMP JUMPDEST PUSH2 0x2A3 DUP2 PUSH2 0x289 JUMP JUMPDEST DUP2 EQ PUSH2 0x2AD JUMPI PUSH0 DUP1 REVERT JUMPDEST POP JUMP JUMPDEST PUSH0 DUP2 MLOAD SWAP1 POP PUSH2 0x2BE DUP2 PUSH2 0x29A JUMP JUMPDEST SWAP3 SWAP2 POP POP JUMP JUMPDEST PUSH0 PUSH1 0x20 DUP3 DUP5 SUB SLT ISZERO PUSH2 0x2D9 JUMPI PUSH2 0x2D8 PUSH2 0x255 JUMP JUMPDEST JUMPDEST PUSH0 PUSH2 0x2E6 DUP5 DUP3 DUP6 ADD PUSH2 0x2B0 JUMP JUMPDEST SWAP2 POP POP SWAP3 SWAP2 POP POP JUMP JUMPDEST PUSH2 0x2F8 DUP2 PUSH2 0x278 JUMP JUMPDEST DUP3 MSTORE POP POP JUMP JUMPDEST PUSH0 PUSH1 0x20 DUP3 ADD SWAP1 POP PUSH2 0x311 PUSH0 DUP4 ADD DUP5 PUSH2 0x2EF JUMP JUMPDEST SWAP3 SWAP2 POP POP JUMP JUMPDEST PUSH0 DUP2 SWAP1 POP SWAP3 SWAP2 POP POP JUMP JUMPDEST PUSH32 0x54726176656C0000000000000000000000000000000000000000000000000000 PUSH0 DUP3 ADD MSTORE POP JUMP JUMPDEST PUSH0 PUSH2 0x355 PUSH1 0x6 DUP4 PUSH2 0x317 JUMP JUMPDEST SWAP2 POP PUSH2 0x360 DUP3 PUSH2 0x321 JUMP JUMPDEST PUSH1 0x6 DUP3 ADD SWAP1 POP SWAP2 SWAP1 POP JUMP JUMPDEST PUSH0 PUSH2 0x375 DUP3 PUSH2 0x349 JUMP JUMPDEST SWAP2 POP DUP2 SWAP1 POP SWAP2 SWAP1 POP JUMP JUMPDEST PUSH32 0x50726F7065727479000000000000000000000000000000000000000000000000 PUSH0 DUP3 ADD MSTORE POP JUMP JUMPDEST PUSH0 PUSH2 0x3B3 PUSH1 0x8 DUP4 PUSH2 0x317 JUMP JUMPDEST SWAP2 POP PUSH2 0x3BE DUP3 PUSH2 0x37F JUMP JUMPDEST PUSH1 0x8 DUP3 ADD SWAP1 POP SWAP2 SWAP1 POP JUMP JUMPDEST PUSH0 PUSH2 0x3D3 DUP3 PUSH2 0x3A7 JUMP JUMPDEST SWAP2 POP DUP2 SWAP1 POP SWAP2 SWAP1 POP JUMP JUMPDEST PUSH32 0x4C69666500000000000000000000000000000000000000000000000000000000 PUSH0 DUP3 ADD MSTORE POP JUMP JUMPDEST PUSH0 PUSH2 0x411 PUSH1 0x4 DUP4 PUSH2 0x317 JUMP JUMPDEST SWAP2 POP PUSH2 0x41C DUP3 PUSH2 0x3DD JUMP JUMPDEST PUSH1 0x4 DUP3 ADD SWAP1 POP SWAP2 SWAP1 POP JUMP JUMPDEST PUSH0 PUSH2 0x431 DUP3 PUSH2 0x405 JUMP JUMPDEST SWAP2 POP DUP2 SWAP1 POP SWAP2 SWAP1 POP JUMP JUMPDEST PUSH2 0x2442 DUP1 PUSH2 0x448 PUSH0 CODECOPY PUSH0 RETURN INVALID PUSH1 0x80 PUSH1 0x40 MSTORE CALLVALUE DUP1 ISZERO PUSH2 0xF JUMPI PUSH0 DUP1 REVERT JUMPDEST POP PUSH1 0x4 CALLDATASIZE LT PUSH2 0xB2 JUMPI PUSH0 CALLDATALOAD PUSH1 0xE0 SHR DUP1 PUSH4 0x9D3DB268 GT PUSH2 0x6F JUMPI DUP1 PUSH4 0x9D3DB268 EQ PUSH2 0x162 JUMPI DUP1 PUSH4 0xA4D453DE EQ PUSH2 0x180 JUMPI DUP1 PUSH4 0xBCC46E83 EQ PUSH2 0x1B0 JUMPI DUP1 PUSH4 0xDE54D429 EQ PUSH2 0x1CC JUMPI DUP1 PUSH4 0xF2FDE38B EQ PUSH2 0x1EA JUMPI DUP1 PUSH4 0xFC0C546A EQ PUSH2 0x206 JUMPI PUSH2 0xB2 JUMP JUMPDEST DUP1 PUSH4 0xC6AB3FA EQ PUSH2 0xB6 JUMPI DUP1 PUSH4 0x2B07FCE3 EQ PUSH2 0xD2 JUMPI DUP1 PUSH4 0x54F4D026 EQ PUSH2 0x102 JUMPI DUP1 PUSH4 0x715018A6 EQ PUSH2 0x11E JUMPI DUP1 PUSH4 0x8DA5CB5B EQ PUSH2 0x128 JUMPI DUP1 PUSH4 0x96945F3E EQ PUSH2 0x146 JUMPI JUMPDEST PUSH0 DUP1 REVERT JUMPDEST PUSH2 0xD0 PUSH1 0x4 DUP1 CALLDATASIZE SUB DUP2 ADD SWAP1 PUSH2 0xCB SWAP2 SWAP1 PUSH2 0x131A JUMP JUMPDEST PUSH2 0x224 JUMP JUMPDEST STOP JUMPDEST PUSH2 0xEC PUSH1 0x4 DUP1 CALLDATASIZE SUB DUP2 ADD SWAP1 PUSH2 0xE7 SWAP2 SWAP1 PUSH2 0x1358 JUMP JUMPDEST PUSH2 0x2DC JUMP JUMPDEST PUSH1 0x40 MLOAD PUSH2 0xF9 SWAP2 SWAP1 PUSH2 0x1539 JUMP JUMPDEST PUSH1 0x40 MLOAD DUP1 SWAP2 SUB SWAP1 RETURN JUMPDEST PUSH2 0x11C PUSH1 0x4 DUP1 CALLDATASIZE SUB DUP2 ADD SWAP1 PUSH2 0x117 SWAP2 SWAP1 PUSH2 0x1685 JUMP JUMPDEST PUSH2 0x534 JUMP JUMPDEST STOP JUMPDEST PUSH2 0x126 PUSH2 0x9E3 JUMP JUMPDEST STOP JUMPDEST PUSH2 0x130 PUSH2 0x9F6 JUMP JUMPDEST PUSH1 0x40 MLOAD PUSH2 0x13D SWAP2 SWAP1 PUSH2 0x1743 JUMP JUMPDEST PUSH1 0x40 MLOAD DUP1 SWAP2 SUB SWAP1 RETURN JUMPDEST PUSH2 0x160 PUSH1 0x4 DUP1 CALLDATASIZE SUB DUP2 ADD SWAP1 PUSH2 0x15B SWAP2 SWAP1 PUSH2 0x1358 JUMP JUMPDEST PUSH2 0xA1D JUMP JUMPDEST STOP JUMPDEST PUSH2 0x16A PUSH2 0xAA8 JUMP JUMPDEST PUSH1 0x40 MLOAD PUSH2 0x177 SWAP2 SWAP1 PUSH2 0x176B JUMP JUMPDEST PUSH1 0x40 MLOAD DUP1 SWAP2 SUB SWAP1 RETURN JUMPDEST PUSH2 0x19A PUSH1 0x4 DUP1 CALLDATASIZE SUB DUP2 ADD SWAP1 PUSH2 0x195 SWAP2 SWAP1 PUSH2 0x190B JUMP JUMPDEST PUSH2 0xCE5 JUMP JUMPDEST PUSH1 0x40 MLOAD PUSH2 0x1A7 SWAP2 SWAP1 PUSH2 0x176B JUMP JUMPDEST PUSH1 0x40 MLOAD DUP1 SWAP2 SUB SWAP1 RETURN JUMPDEST PUSH2 0x1CA PUSH1 0x4 DUP1 CALLDATASIZE SUB DUP2 ADD SWAP1 PUSH2 0x1C5 SWAP2 SWAP1 PUSH2 0x1358 JUMP JUMPDEST PUSH2 0xD36 JUMP JUMPDEST STOP JUMPDEST PUSH2 0x1D4 PUSH2 0xE58 JUMP JUMPDEST PUSH1 0x40 MLOAD PUSH2 0x1E1 SWAP2 SWAP1 PUSH2 0x176B JUMP JUMPDEST PUSH1 0x40 MLOAD DUP1 SWAP2 SUB SWAP1 RETURN JUMPDEST PUSH2 0x204 PUSH1 0x4 DUP1 CALLDATASIZE SUB DUP2 ADD SWAP1 PUSH2 0x1FF SWAP2 SWAP1 PUSH2 0x1952 JUMP JUMPDEST PUSH2 0xE5E JUMP JUMPDEST STOP JUMPDEST PUSH2 0x20E PUSH2 0xEE2 JUMP JUMPDEST PUSH1 0x40 MLOAD PUSH2 0x21B SWAP2 SWAP1 PUSH2 0x19D8 JUMP JUMPDEST PUSH1 0x40 MLOAD DUP1 SWAP2 SUB SWAP1 RETURN JUMPDEST PUSH0 PUSH1 0x4 PUSH0 DUP5 DUP2 MSTORE PUSH1 0x20 ADD SWAP1 DUP2 MSTORE PUSH1 0x20 ADD PUSH0 KECCAK256 SWAP1 POP DUP1 PUSH1 0x7 ADD PUSH1 0x15 SWAP1 SLOAD SWAP1 PUSH2 0x100 EXP SWAP1 DIV PUSH1 0xFF AND PUSH2 0x289 JUMPI PUSH1 0x40 MLOAD PUSH32 0x8C379A000000000000000000000000000000000000000000000000000000000 DUP2 MSTORE PUSH1 0x4 ADD PUSH2 0x280 SWAP1 PUSH2 0x1A4B JUMP JUMPDEST PUSH1 0x40 MLOAD DUP1 SWAP2 SUB SWAP1 REVERT JUMPDEST DUP3 DUP2 PUSH0 ADD SLOAD EQ PUSH2 0x2CE JUMPI PUSH1 0x40 MLOAD PUSH32 0x8C379A000000000000000000000000000000000000000000000000000000000 DUP2 MSTORE PUSH1 0x4 ADD PUSH2 0x2C5 SWAP1 PUSH2 0x1AB3 JUMP JUMPDEST PUSH1 0x40 MLOAD DUP1 SWAP2 SUB SWAP1 REVERT JUMPDEST DUP2 DUP2 PUSH1 0x5 ADD DUP2 SWAP1 SSTORE POP POP POP POP JUMP JUMPDEST PUSH2 0x2E4 PUSH2 0x1271 JUMP JUMPDEST PUSH0 DUP3 GT DUP1 ISZERO PUSH2 0x2F5 JUMPI POP PUSH1 0x3 SLOAD DUP3 GT ISZERO JUMPDEST PUSH2 0x334 JUMPI PUSH1 0x40 MLOAD PUSH32 0x8C379A000000000000000000000000000000000000000000000000000000000 DUP2 MSTORE PUSH1 0x4 ADD PUSH2 0x32B SWAP1 PUSH2 0x1B1B JUMP JUMPDEST PUSH1 0x40 MLOAD DUP1 SWAP2 SUB SWAP1 REVERT JUMPDEST PUSH1 0x4 PUSH0 DUP4 DUP2 MSTORE PUSH1 0x20 ADD SWAP1 DUP2 MSTORE PUSH1 0x20 ADD PUSH0 KECCAK256 PUSH1 0x40 MLOAD DUP1 PUSH2 0x140 ADD PUSH1 0x40 MSTORE SWAP1 DUP2 PUSH0 DUP3 ADD SLOAD DUP2 MSTORE PUSH1 0x20 ADD PUSH1 0x1 DUP3 ADD DUP1 SLOAD PUSH2 0x36A SWAP1 PUSH2 0x1B66 JUMP JUMPDEST DUP1 PUSH1 0x1F ADD PUSH1 0x20 DUP1 SWAP2 DIV MUL PUSH1 0x20 ADD PUSH1 0x40 MLOAD SWAP1 DUP2 ADD PUSH1 0x40 MSTORE DUP1 SWAP3 SWAP2 SWAP1 DUP2 DUP2 MSTORE PUSH1 0x20 ADD DUP3 DUP1 SLOAD PUSH2 0x396 SWAP1 PUSH2 0x1B66 JUMP JUMPDEST DUP1 ISZERO PUSH2 0x3E1 JUMPI DUP1 PUSH1 0x1F LT PUSH2 0x3B8 JUMPI PUSH2 0x100 DUP1 DUP4 SLOAD DIV MUL DUP4 MSTORE SWAP2 PUSH1 0x20 ADD SWAP2 PUSH2 0x3E1 JUMP JUMPDEST DUP3 ADD SWAP2 SWAP1 PUSH0 MSTORE PUSH1 0x20 PUSH0 KECCAK256 SWAP1 JUMPDEST DUP2 SLOAD DUP2 MSTORE SWAP1 PUSH1 0x1 ADD SWAP1 PUSH1 0x20 ADD DUP1 DUP4 GT PUSH2 0x3C4 JUMPI DUP3 SWAP1 SUB PUSH1 0x1F AND DUP3 ADD SWAP2 JUMPDEST POP POP POP POP POP DUP2 MSTORE PUSH1 0x20 ADD PUSH1 0x2 DUP3 ADD DUP1 SLOAD PUSH2 0x3FA SWAP1 PUSH2 0x1B66 JUMP JUMPDEST DUP1 PUSH1 0x1F ADD PUSH1 0x20 DUP1 SWAP2 DIV MUL PUSH1 0x20 ADD PUSH1 0x40 MLOAD SWAP1 DUP2 ADD PUSH1 0x40 MSTORE DUP1 SWAP3 SWAP2 SWAP1 DUP2 DUP2 MSTORE PUSH1 0x20 ADD DUP3 DUP1 SLOAD PUSH2 0x426 SWAP1 PUSH2 0x1B66 JUMP JUMPDEST DUP1 ISZERO PUSH2 0x471 JUMPI DUP1 PUSH1 0x1F LT PUSH2 0x448 JUMPI PUSH2 0x100 DUP1 DUP4 SLOAD DIV MUL DUP4 MSTORE SWAP2 PUSH1 0x20 ADD SWAP2 PUSH2 0x471 JUMP JUMPDEST DUP3 ADD SWAP2 SWAP1 PUSH0 MSTORE PUSH1 0x20 PUSH0 KECCAK256 SWAP1 JUMPDEST DUP2 SLOAD DUP2 MSTORE SWAP1 PUSH1 0x1 ADD SWAP1 PUSH1 0x20 ADD DUP1 DUP4 GT PUSH2 0x454 JUMPI DUP3 SWAP1 SUB PUSH1 0x1F AND DUP3 ADD SWAP2 JUMPDEST POP POP POP POP POP DUP2 MSTORE PUSH1 0x20 ADD PUSH1 0x3 DUP3 ADD SLOAD DUP2 MSTORE PUSH1 0x20 ADD PUSH1 0x4 DUP3 ADD SLOAD DUP2 MSTORE PUSH1 0x20 ADD PUSH1 0x5 DUP3 ADD SLOAD DUP2 MSTORE PUSH1 0x20 ADD PUSH1 0x6 DUP3 ADD SLOAD DUP2 MSTORE PUSH1 0x20 ADD PUSH1 0x7 DUP3 ADD PUSH0 SWAP1 SLOAD SWAP1 PUSH2 0x100 EXP SWAP1 DIV PUSH20 0xFFFFFFFFFFFFFFFFFFFFFFFFFFFFFFFFFFFFFFFF AND PUSH20 0xFFFFFFFFFFFFFFFFFFFFFFFFFFFFFFFFFFFFFFFF AND PUSH20 0xFFFFFFFFFFFFFFFFFFFFFFFFFFFFFFFFFFFFFFFF AND DUP2 MSTORE PUSH1 0x20 ADD PUSH1 0x7 DUP3 ADD PUSH1 0x14 SWAP1 SLOAD SWAP1 PUSH2 0x100 EXP SWAP1 DIV PUSH1 0xFF AND ISZERO ISZERO ISZERO ISZERO DUP2 MSTORE PUSH1 0x20 ADD PUSH1 0x7 DUP3 ADD PUSH1 0x15 SWAP1 SLOAD SWAP1 PUSH2 0x100 EXP SWAP1 DIV PUSH1 0xFF AND ISZERO ISZERO ISZERO ISZERO DUP2 MSTORE POP POP SWAP1 POP SWAP2 SWAP1 POP JUMP JUMPDEST DUP3 DUP1 PUSH1 0x1 PUSH0 SWAP1 SLOAD SWAP1 PUSH2 0x100 EXP SWAP1 DIV PUSH20 0xFFFFFFFFFFFFFFFFFFFFFFFFFFFFFFFFFFFFFFFF AND PUSH20 0xFFFFFFFFFFFFFFFFFFFFFFFFFFFFFFFFFFFFFFFF AND PUSH4 0x70A08231 CALLER PUSH1 0x40 MLOAD DUP3 PUSH4 0xFFFFFFFF AND PUSH1 0xE0 SHL DUP2 MSTORE PUSH1 0x4 ADD PUSH2 0x590 SWAP2 SWAP1 PUSH2 0x1743 JUMP JUMPDEST PUSH1 0x20 PUSH1 0x40 MLOAD DUP1 DUP4 SUB DUP2 DUP7 GAS STATICCALL ISZERO DUP1 ISZERO PUSH2 0x5AB JUMPI RETURNDATASIZE PUSH0 DUP1 RETURNDATACOPY RETURNDATASIZE PUSH0 REVERT JUMPDEST POP POP POP POP PUSH1 0x40 MLOAD RETURNDATASIZE PUSH1 0x1F NOT PUSH1 0x1F DUP3 ADD AND DUP3 ADD DUP1 PUSH1 0x40 MSTORE POP DUP2 ADD SWAP1 PUSH2 0x5CF SWAP2 SWAP1 PUSH2 0x1BAA JUMP JUMPDEST LT ISZERO PUSH2 0x672 PUSH1 0x1 PUSH0 SWAP1 SLOAD SWAP1 PUSH2 0x100 EXP SWAP1 DIV PUSH20 0xFFFFFFFFFFFFFFFFFFFFFFFFFFFFFFFFFFFFFFFF AND PUSH20 0xFFFFFFFFFFFFFFFFFFFFFFFFFFFFFFFFFFFFFFFF AND PUSH4 0x70A08231 CALLER PUSH1 0x40 MLOAD DUP3 PUSH4 0xFFFFFFFF AND PUSH1 0xE0 SHL DUP2 MSTORE PUSH1 0x4 ADD PUSH2 0x62E SWAP2 SWAP1 PUSH2 0x1743 JUMP JUMPDEST PUSH1 0x20 PUSH1 0x40 MLOAD DUP1 DUP4 SUB DUP2 DUP7 GAS STATICCALL ISZERO DUP1 ISZERO PUSH2 0x649 JUMPI RETURNDATASIZE PUSH0 DUP1 RETURNDATACOPY RETURNDATASIZE PUSH0 REVERT JUMPDEST POP POP POP POP PUSH1 0x40 MLOAD RETURNDATASIZE PUSH1 0x1F NOT PUSH1 0x1F DUP3 ADD AND DUP3 ADD DUP1 PUSH1 0x40 MSTORE POP DUP2 ADD SWAP1 PUSH2 0x66D SWAP2 SWAP1 PUSH2 0x1BAA JUMP JUMPDEST PUSH2 0xF07 JUMP JUMPDEST PUSH2 0x67B DUP4 PUSH2 0xF07 JUMP JUMPDEST PUSH1 0x40 MLOAD PUSH1 0x20 ADD PUSH2 0x68C SWAP3 SWAP2 SWAP1 PUSH2 0x1D39 JUMP JUMPDEST PUSH1 0x40 MLOAD PUSH1 0x20 DUP2 DUP4 SUB SUB DUP2 MSTORE SWAP1 PUSH1 0x40 MSTORE SWAP1 PUSH2 0x6DC JUMPI PUSH1 0x40 MLOAD PUSH32 0x8C379A000000000000000000000000000000000000000000000000000000000 DUP2 MSTORE PUSH1 0x4 ADD PUSH2 0x6D3 SWAP2 SWAP1 PUSH2 0x1DB5 JUMP JUMPDEST PUSH1 0x40 MLOAD DUP1 SWAP2 SUB SWAP1 REVERT JUMPDEST POP DUP5 PUSH1 0x2 DUP2 PUSH1 0x40 MLOAD PUSH2 0x6EE SWAP2 SWAP1 PUSH2 0x1DD5 JUMP JUMPDEST SWAP1 DUP2 MSTORE PUSH1 0x20 ADD PUSH1 0x40 MLOAD DUP1 SWAP2 SUB SWAP1 KECCAK256 PUSH0 SWAP1 SLOAD SWAP1 PUSH2 0x100 EXP SWAP1 DIV PUSH1 0xFF AND PUSH2 0x748 JUMPI PUSH1 0x40 MLOAD PUSH32 0x8C379A000000000000000000000000000000000000000000000000000000000 DUP2 MSTORE PUSH1 0x4 ADD PUSH2 0x73F SWAP1 PUSH2 0x1E35 JUMP JUMPDEST PUSH1 0x40 MLOAD DUP1 SWAP2 SUB SWAP1 REVERT JUMPDEST PUSH2 0x750 PUSH2 0xAA8 JUMP JUMPDEST PUSH1 0x1 PUSH0 SWAP1 SLOAD SWAP1 PUSH2 0x100 EXP SWAP1 DIV PUSH20 0xFFFFFFFFFFFFFFFFFFFFFFFFFFFFFFFFFFFFFFFF AND PUSH20 0xFFFFFFFFFFFFFFFFFFFFFFFFFFFFFFFFFFFFFFFF AND PUSH4 0x70A08231 ADDRESS PUSH1 0x40 MLOAD DUP3 PUSH4 0xFFFFFFFF AND PUSH1 0xE0 SHL DUP2 MSTORE PUSH1 0x4 ADD PUSH2 0x7AA SWAP2 SWAP1 PUSH2 0x1743 JUMP JUMPDEST PUSH1 0x20 PUSH1 0x40 MLOAD DUP1 DUP4 SUB DUP2 DUP7 GAS STATICCALL ISZERO DUP1 ISZERO PUSH2 0x7C5 JUMPI RETURNDATASIZE PUSH0 DUP1 RETURNDATACOPY RETURNDATASIZE PUSH0 REVERT JUMPDEST POP POP POP POP PUSH1 0x40 MLOAD RETURNDATASIZE PUSH1 0x1F NOT PUSH1 0x1F DUP3 ADD AND DUP3 ADD DUP1 PUSH1 0x40 MSTORE POP DUP2 ADD SWAP1 PUSH2 0x7E9 SWAP2 SWAP1 PUSH2 0x1BAA JUMP JUMPDEST GT PUSH2 0x829 JUMPI PUSH1 0x40 MLOAD PUSH32 0x8C379A000000000000000000000000000000000000000000000000000000000 DUP2 MSTORE PUSH1 0x4 ADD PUSH2 0x820 SWAP1 PUSH2 0x1EC3 JUMP JUMPDEST PUSH1 0x40 MLOAD DUP1 SWAP2 SUB SWAP1 REVERT JUMPDEST PUSH1 0x3 PUSH0 DUP2 SLOAD DUP1 SWAP3 SWAP2 SWAP1 PUSH2 0x83B SWAP1 PUSH2 0x1F0E JUMP JUMPDEST SWAP2 SWAP1 POP SSTORE POP PUSH1 0x40 MLOAD DUP1 PUSH2 0x140 ADD PUSH1 0x40 MSTORE DUP1 PUSH1 0x3 SLOAD DUP2 MSTORE PUSH1 0x20 ADD DUP9 DUP2 MSTORE PUSH1 0x20 ADD DUP8 DUP2 MSTORE PUSH1 0x20 ADD DUP5 DUP2 MSTORE PUSH1 0x20 ADD DUP7 DUP2 MSTORE PUSH1 0x20 ADD PUSH0 DUP2 MSTORE PUSH1 0x20 ADD DUP6 DUP2 MSTORE PUSH1 0x20 ADD CALLER PUSH20 0xFFFFFFFFFFFFFFFFFFFFFFFFFFFFFFFFFFFFFFFF AND DUP2 MSTORE PUSH1 0x20 ADD PUSH0 ISZERO ISZERO DUP2 MSTORE PUSH1 0x20 ADD PUSH1 0x1 ISZERO ISZERO DUP2 MSTORE POP PUSH1 0x4 PUSH0 PUSH1 0x3 SLOAD DUP2 MSTORE PUSH1 0x20 ADD SWAP1 DUP2 MSTORE PUSH1 0x20 ADD PUSH0 KECCAK256 PUSH0 DUP3 ADD MLOAD DUP2 PUSH0 ADD SSTORE PUSH1 0x20 DUP3 ADD MLOAD DUP2 PUSH1 0x1 ADD SWAP1 DUP2 PUSH2 0x8D3 SWAP2 SWAP1 PUSH2 0x20E9 JUMP JUMPDEST POP PUSH1 0x40 DUP3 ADD MLOAD DUP2 PUSH1 0x2 ADD SWAP1 DUP2 PUSH2 0x8E9 SWAP2 SWAP1 PUSH2 0x20E9 JUMP JUMPDEST POP PUSH1 0x60 DUP3 ADD MLOAD DUP2 PUSH1 0x3 ADD SSTORE PUSH1 0x80 DUP3 ADD MLOAD DUP2 PUSH1 0x4 ADD SSTORE PUSH1 0xA0 DUP3 ADD MLOAD DUP2 PUSH1 0x5 ADD SSTORE PUSH1 0xC0 DUP3 ADD MLOAD DUP2 PUSH1 0x6 ADD SSTORE PUSH1 0xE0 DUP3 ADD MLOAD DUP2 PUSH1 0x7 ADD PUSH0 PUSH2 0x100 EXP DUP2 SLOAD DUP2 PUSH20 0xFFFFFFFFFFFFFFFFFFFFFFFFFFFFFFFFFFFFFFFF MUL NOT AND SWAP1 DUP4 PUSH20 0xFFFFFFFFFFFFFFFFFFFFFFFFFFFFFFFFFFFFFFFF AND MUL OR SWAP1 SSTORE POP PUSH2 0x100 DUP3 ADD MLOAD DUP2 PUSH1 0x7 ADD PUSH1 0x14 PUSH2 0x100 EXP DUP2 SLOAD DUP2 PUSH1 0xFF MUL NOT AND SWAP1 DUP4 ISZERO ISZERO MUL OR SWAP1 SSTORE POP PUSH2 0x120 DUP3 ADD MLOAD DUP2 PUSH1 0x7 ADD PUSH1 0x15 PUSH2 0x100 EXP DUP2 SLOAD DUP2 PUSH1 0xFF MUL NOT AND SWAP1 DUP4 ISZERO ISZERO MUL OR SWAP1 SSTORE POP SWAP1 POP POP PUSH32 0xE060903A71989416DB77650C9585ADBAE8F4FC8633A778A547D25E3C78789F4C PUSH1 0x3 SLOAD DUP9 CALLER PUSH1 0x40 MLOAD PUSH2 0x9D2 SWAP4 SWAP3 SWAP2 SWAP1 PUSH2 0x21B8 JUMP JUMPDEST PUSH1 0x40 MLOAD DUP1 SWAP2 SUB SWAP1 LOG1 POP POP POP POP POP POP POP JUMP JUMPDEST PUSH2 0x9EB PUSH2 0xFD1 JUMP JUMPDEST PUSH2 0x9F4 PUSH0 PUSH2 0x1058 JUMP JUMPDEST JUMP JUMPDEST PUSH0 DUP1 PUSH0 SWAP1 SLOAD SWAP1 PUSH2 0x100 EXP SWAP1 DIV PUSH20 0xFFFFFFFFFFFFFFFFFFFFFFFFFFFFFFFFFFFFFFFF AND SWAP1 POP SWAP1 JUMP JUMPDEST PUSH0 PUSH1 0x4 PUSH0 DUP4 DUP2 MSTORE PUSH1 0x20 ADD SWAP1 DUP2 MSTORE PUSH1 0x20 ADD PUSH0 KECCAK256 SWAP1 POP DUP2 DUP2 PUSH0 ADD SLOAD EQ PUSH2 0xA76 JUMPI PUSH1 0x40 MLOAD PUSH32 0x8C379A000000000000000000000000000000000000000000000000000000000 DUP2 MSTORE PUSH1 0x4 ADD PUSH2 0xA6D SWAP1 PUSH2 0x1AB3 JUMP JUMPDEST PUSH1 0x40 MLOAD DUP1 SWAP2 SUB SWAP1 REVERT JUMPDEST DUP1 PUSH1 0x7 ADD PUSH1 0x14 SWAP1 SLOAD SWAP1 PUSH2 0x100 EXP SWAP1 DIV PUSH1 0xFF AND ISZERO DUP2 PUSH1 0x7 ADD PUSH1 0x14 PUSH2 0x100 EXP DUP2 SLOAD DUP2 PUSH1 0xFF MUL NOT AND SWAP1 DUP4 ISZERO ISZERO MUL OR SWAP1 SSTORE POP POP POP JUMP JUMPDEST PUSH0 DUP1 PUSH0 SWAP1 POP PUSH0 PUSH1 0x1 SWAP1 POP JUMPDEST PUSH1 0x3 SLOAD DUP2 GT PUSH2 0xCDD JUMPI PUSH2 0xCBD PUSH1 0x4 PUSH0 DUP4 DUP2 MSTORE PUSH1 0x20 ADD SWAP1 DUP2 MSTORE PUSH1 0x20 ADD PUSH0 KECCAK256 PUSH1 0x40 MLOAD DUP1 PUSH2 0x140 ADD PUSH1 0x40 MSTORE SWAP1 DUP2 PUSH0 DUP3 ADD SLOAD DUP2 MSTORE PUSH1 0x20 ADD PUSH1 0x1 DUP3 ADD DUP1 SLOAD PUSH2 0xAF5 SWAP1 PUSH2 0x1B66 JUMP JUMPDEST DUP1 PUSH1 0x1F ADD PUSH1 0x20 DUP1 SWAP2 DIV MUL PUSH1 0x20 ADD PUSH1 0x40 MLOAD SWAP1 DUP2 ADD PUSH1 0x40 MSTORE DUP1 SWAP3 SWAP2 SWAP1 DUP2 DUP2 MSTORE PUSH1 0x20 ADD DUP3 DUP1 SLOAD PUSH2 0xB21 SWAP1 PUSH2 0x1B66 JUMP JUMPDEST DUP1 ISZERO PUSH2 0xB6C JUMPI DUP1 PUSH1 0x1F LT PUSH2 0xB43 JUMPI PUSH2 0x100 DUP1 DUP4 SLOAD DIV MUL DUP4 MSTORE SWAP2 PUSH1 0x20 ADD SWAP2 PUSH2 0xB6C JUMP JUMPDEST DUP3 ADD SWAP2 SWAP1 PUSH0 MSTORE PUSH1 0x20 PUSH0 KECCAK256 SWAP1 JUMPDEST DUP2 SLOAD DUP2 MSTORE SWAP1 PUSH1 0x1 ADD SWAP1 PUSH1 0x20 ADD DUP1 DUP4 GT PUSH2 0xB4F JUMPI DUP3 SWAP1 SUB PUSH1 0x1F AND DUP3 ADD SWAP2 JUMPDEST POP POP POP POP POP DUP2 MSTORE PUSH1 0x20 ADD PUSH1 0x2 DUP3 ADD DUP1 SLOAD PUSH2 0xB85 SWAP1 PUSH2 0x1B66 JUMP JUMPDEST DUP1 PUSH1 0x1F ADD PUSH1 0x20 DUP1 SWAP2 DIV MUL PUSH1 0x20 ADD PUSH1 0x40 MLOAD SWAP1 DUP2 ADD PUSH1 0x40 MSTORE DUP1 SWAP3 SWAP2 SWAP1 DUP2 DUP2 MSTORE PUSH1 0x20 ADD DUP3 DUP1 SLOAD PUSH2 0xBB1 SWAP1 PUSH2 0x1B66 JUMP JUMPDEST DUP1 ISZERO PUSH2 0xBFC JUMPI DUP1 PUSH1 0x1F LT PUSH2 0xBD3 JUMPI PUSH2 0x100 DUP1 DUP4 SLOAD DIV MUL DUP4 MSTORE SWAP2 PUSH1 0x20 ADD SWAP2 PUSH2 0xBFC JUMP JUMPDEST DUP3 ADD SWAP2 SWAP1 PUSH0 MSTORE PUSH1 0x20 PUSH0 KECCAK256 SWAP1 JUMPDEST DUP2 SLOAD DUP2 MSTORE SWAP1 PUSH1 0x1 ADD SWAP1 PUSH1 0x20 ADD DUP1 DUP4 GT PUSH2 0xBDF JUMPI DUP3 SWAP1 SUB PUSH1 0x1F AND DUP3 ADD SWAP2 JUMPDEST POP POP POP POP POP DUP2 MSTORE PUSH1 0x20 ADD PUSH1 0x3 DUP3 ADD SLOAD DUP2 MSTORE PUSH1 0x20 ADD PUSH1 0x4 DUP3 ADD SLOAD DUP2 MSTORE PUSH1 0x20 ADD PUSH1 0x5 DUP3 ADD SLOAD DUP2 MSTORE PUSH1 0x20 ADD PUSH1 0x6 DUP3 ADD SLOAD DUP2 MSTORE PUSH1 0x20 ADD PUSH1 0x7 DUP3 ADD PUSH0 SWAP1 SLOAD SWAP1 PUSH2 0x100 EXP SWAP1 DIV PUSH20 0xFFFFFFFFFFFFFFFFFFFFFFFFFFFFFFFFFFFFFFFF AND PUSH20 0xFFFFFFFFFFFFFFFFFFFFFFFFFFFFFFFFFFFFFFFF AND PUSH20 0xFFFFFFFFFFFFFFFFFFFFFFFFFFFFFFFFFFFFFFFF AND DUP2 MSTORE PUSH1 0x20 ADD PUSH1 0x7 DUP3 ADD PUSH1 0x14 SWAP1 SLOAD SWAP1 PUSH2 0x100 EXP SWAP1 DIV PUSH1 0xFF AND ISZERO ISZERO ISZERO ISZERO DUP2 MSTORE PUSH1 0x20 ADD PUSH1 0x7 DUP3 ADD PUSH1 0x15 SWAP1 SLOAD SWAP1 PUSH2 0x100 EXP SWAP1 DIV PUSH1 0xFF AND ISZERO ISZERO ISZERO ISZERO DUP2 MSTORE POP POP PUSH2 0xCE5 JUMP JUMPDEST DUP3 PUSH2 0xCC8 SWAP2 SWAP1 PUSH2 0x21F4 JUMP JUMPDEST SWAP2 POP DUP1 DUP1 PUSH2 0xCD5 SWAP1 PUSH2 0x1F0E JUMP JUMPDEST SWAP2 POP POP PUSH2 0xAB3 JUMP JUMPDEST POP DUP1 SWAP2 POP POP SWAP1 JUMP JUMPDEST PUSH0 PUSH1 0x1 DUP3 PUSH1 0x60 ADD MLOAD GT ISZERO PUSH2 0xD1A JUMPI DUP2 PUSH1 0x80 ADD MLOAD PUSH1 0x1 DUP4 PUSH1 0x60 ADD MLOAD PUSH2 0xD09 SWAP2 SWAP1 PUSH2 0x2227 JUMP JUMPDEST PUSH2 0xD13 SWAP2 SWAP1 PUSH2 0x225A JUMP JUMPDEST SWAP1 POP PUSH2 0xD31 JUMP JUMPDEST DUP2 PUSH1 0x80 ADD MLOAD DUP3 PUSH1 0x60 ADD MLOAD PUSH2 0xD2E SWAP2 SWAP1 PUSH2 0x225A JUMP JUMPDEST SWAP1 POP JUMPDEST SWAP2 SWAP1 POP JUMP JUMPDEST PUSH0 DUP2 GT PUSH2 0xD78 JUMPI PUSH1 0x40 MLOAD PUSH32 0x8C379A000000000000000000000000000000000000000000000000000000000 DUP2 MSTORE PUSH1 0x4 ADD PUSH2 0xD6F SWAP1 PUSH2 0x22E5 JUMP JUMPDEST PUSH1 0x40 MLOAD DUP1 SWAP2 SUB SWAP1 REVERT JUMPDEST PUSH1 0x1 PUSH0 SWAP1 SLOAD SWAP1 PUSH2 0x100 EXP SWAP1 DIV PUSH20 0xFFFFFFFFFFFFFFFFFFFFFFFFFFFFFFFFFFFFFFFF AND PUSH20 0xFFFFFFFFFFFFFFFFFFFFFFFFFFFFFFFFFFFFFFFF AND PUSH4 0x23B872DD CALLER ADDRESS DUP5 PUSH1 0x40 MLOAD DUP5 PUSH4 0xFFFFFFFF AND PUSH1 0xE0 SHL DUP2 MSTORE PUSH1 0x4 ADD PUSH2 0xDD6 SWAP4 SWAP3 SWAP2 SWAP1 PUSH2 0x2303 JUMP JUMPDEST PUSH1 0x20 PUSH1 0x40 MLOAD DUP1 DUP4 SUB DUP2 PUSH0 DUP8 GAS CALL ISZERO DUP1 ISZERO PUSH2 0xDF2 JUMPI RETURNDATASIZE PUSH0 DUP1 RETURNDATACOPY RETURNDATASIZE PUSH0 REVERT JUMPDEST POP POP POP POP PUSH1 0x40 MLOAD RETURNDATASIZE PUSH1 0x1F NOT PUSH1 0x1F DUP3 ADD AND DUP3 ADD DUP1 PUSH1 0x40 MSTORE POP DUP2 ADD SWAP1 PUSH2 0xE16 SWAP2 SWAP1 PUSH2 0x234C JUMP JUMPDEST PUSH2 0xE55 JUMPI PUSH1 0x40 MLOAD PUSH32 0x8C379A000000000000000000000000000000000000000000000000000000000 DUP2 MSTORE PUSH1 0x4 ADD PUSH2 0xE4C SWAP1 PUSH2 0x23C1 JUMP JUMPDEST PUSH1 0x40 MLOAD DUP1 SWAP2 SUB SWAP1 REVERT JUMPDEST POP JUMP JUMPDEST PUSH1 0x3 SLOAD DUP2 JUMP JUMPDEST PUSH2 0xE66 PUSH2 0xFD1 JUMP JUMPDEST PUSH0 PUSH20 0xFFFFFFFFFFFFFFFFFFFFFFFFFFFFFFFFFFFFFFFF AND DUP2 PUSH20 0xFFFFFFFFFFFFFFFFFFFFFFFFFFFFFFFFFFFFFFFF AND SUB PUSH2 0xED6 JUMPI PUSH0 PUSH1 0x40 MLOAD PUSH32 0x1E4FBDF700000000000000000000000000000000000000000000000000000000 DUP2 MSTORE PUSH1 0x4 ADD PUSH2 0xECD SWAP2 SWAP1 PUSH2 0x1743 JUMP JUMPDEST PUSH1 0x40 MLOAD DUP1 SWAP2 SUB SWAP1 REVERT JUMPDEST PUSH2 0xEDF DUP2 PUSH2 0x1058 JUMP JUMPDEST POP JUMP JUMPDEST PUSH1 0x1 PUSH0 SWAP1 SLOAD SWAP1 PUSH2 0x100 EXP SWAP1 DIV PUSH20 0xFFFFFFFFFFFFFFFFFFFFFFFFFFFFFFFFFFFFFFFF AND DUP2 JUMP JUMPDEST PUSH1 0x60 PUSH0 PUSH1 0x1 PUSH2 0xF15 DUP5 PUSH2 0x1119 JUMP JUMPDEST ADD SWAP1 POP PUSH0 DUP2 PUSH8 0xFFFFFFFFFFFFFFFF DUP2 GT ISZERO PUSH2 0xF33 JUMPI PUSH2 0xF32 PUSH2 0x1561 JUMP JUMPDEST JUMPDEST PUSH1 0x40 MLOAD SWAP1 DUP1 DUP3 MSTORE DUP1 PUSH1 0x1F ADD PUSH1 0x1F NOT AND PUSH1 0x20 ADD DUP3 ADD PUSH1 0x40 MSTORE DUP1 ISZERO PUSH2 0xF65 JUMPI DUP2 PUSH1 0x20 ADD PUSH1 0x1 DUP3 MUL DUP1 CALLDATASIZE DUP4 CALLDATACOPY DUP1 DUP3 ADD SWAP2 POP POP SWAP1 POP JUMPDEST POP SWAP1 POP PUSH0 DUP3 PUSH1 0x20 ADD DUP3 ADD SWAP1 POP JUMPDEST PUSH1 0x1 ISZERO PUSH2 0xFC6 JUMPI DUP1 DUP1 PUSH1 0x1 SWAP1 SUB SWAP2 POP POP PUSH32 0x3031323334353637383961626364656600000000000000000000000000000000 PUSH1 0xA DUP7 MOD BYTE DUP2 MSTORE8 PUSH1 0xA DUP6 DUP2 PUSH2 0xFBB JUMPI PUSH2 0xFBA PUSH2 0x23DF JUMP JUMPDEST JUMPDEST DIV SWAP5 POP PUSH0 DUP6 SUB PUSH2 0xF72 JUMPI JUMPDEST DUP2 SWAP4 POP POP POP POP SWAP2 SWAP1 POP JUMP JUMPDEST PUSH2 0xFD9 PUSH2 0x126A JUMP JUMPDEST PUSH20 0xFFFFFFFFFFFFFFFFFFFFFFFFFFFFFFFFFFFFFFFF AND PUSH2 0xFF7 PUSH2 0x9F6 JUMP JUMPDEST PUSH20 0xFFFFFFFFFFFFFFFFFFFFFFFFFFFFFFFFFFFFFFFF AND EQ PUSH2 0x1056 JUMPI PUSH2 0x101A PUSH2 0x126A JUMP JUMPDEST PUSH1 0x40 MLOAD PUSH32 0x118CDAA700000000000000000000000000000000000000000000000000000000 DUP2 MSTORE PUSH1 0x4 ADD PUSH2 0x104D SWAP2 SWAP1 PUSH2 0x1743 JUMP JUMPDEST PUSH1 0x40 MLOAD DUP1 SWAP2 SUB SWAP1 REVERT JUMPDEST JUMP JUMPDEST PUSH0 DUP1 PUSH0 SWAP1 SLOAD SWAP1 PUSH2 0x100 EXP SWAP1 DIV PUSH20 0xFFFFFFFFFFFFFFFFFFFFFFFFFFFFFFFFFFFFFFFF AND SWAP1 POP DUP2 PUSH0 DUP1 PUSH2 0x100 EXP DUP2 SLOAD DUP2 PUSH20 0xFFFFFFFFFFFFFFFFFFFFFFFFFFFFFFFFFFFFFFFF MUL NOT AND SWAP1 DUP4 PUSH20 0xFFFFFFFFFFFFFFFFFFFFFFFFFFFFFFFFFFFFFFFF AND MUL OR SWAP1 SSTORE POP DUP2 PUSH20 0xFFFFFFFFFFFFFFFFFFFFFFFFFFFFFFFFFFFFFFFF AND DUP2 PUSH20 0xFFFFFFFFFFFFFFFFFFFFFFFFFFFFFFFFFFFFFFFF AND PUSH32 0x8BE0079C531659141344CD1FD0A4F28419497F9722A3DAAFE3B4186F6B6457E0 PUSH1 0x40 MLOAD PUSH1 0x40 MLOAD DUP1 SWAP2 SUB SWAP1 LOG3 POP POP JUMP JUMPDEST PUSH0 DUP1 PUSH0 SWAP1 POP PUSH27 0x184F03E93FF9F4DAA797ED6E38ED64BF6A1F010000000000000000 DUP4 LT PUSH2 0x1175 JUMPI PUSH27 0x184F03E93FF9F4DAA797ED6E38ED64BF6A1F010000000000000000 DUP4 DUP2 PUSH2 0x116B JUMPI PUSH2 0x116A PUSH2 0x23DF JUMP JUMPDEST JUMPDEST DIV SWAP3 POP PUSH1 0x40 DUP2 ADD SWAP1 POP JUMPDEST PUSH14 0x4EE2D6D415B85ACEF8100000000 DUP4 LT PUSH2 0x11B2 JUMPI PUSH14 0x4EE2D6D415B85ACEF8100000000 DUP4 DUP2 PUSH2 0x11A8 JUMPI PUSH2 0x11A7 PUSH2 0x23DF JUMP JUMPDEST JUMPDEST DIV SWAP3 POP PUSH1 0x20 DUP2 ADD SWAP1 POP JUMPDEST PUSH7 0x2386F26FC10000 DUP4 LT PUSH2 0x11E1 JUMPI PUSH7 0x2386F26FC10000 DUP4 DUP2 PUSH2 0x11D7 JUMPI PUSH2 0x11D6 PUSH2 0x23DF JUMP JUMPDEST JUMPDEST DIV SWAP3 POP PUSH1 0x10 DUP2 ADD SWAP1 POP JUMPDEST PUSH4 0x5F5E100 DUP4 LT PUSH2 0x120A JUMPI PUSH4 0x5F5E100 DUP4 DUP2 PUSH2 0x1200 JUMPI PUSH2 0x11FF PUSH2 0x23DF JUMP JUMPDEST JUMPDEST DIV SWAP3 POP PUSH1 0x8 DUP2 ADD SWAP1 POP JUMPDEST PUSH2 0x2710 DUP4 LT PUSH2 0x122F JUMPI PUSH2 0x2710 DUP4 DUP2 PUSH2 0x1225 JUMPI PUSH2 0x1224 PUSH2 0x23DF JUMP JUMPDEST JUMPDEST DIV SWAP3 POP PUSH1 0x4 DUP2 ADD SWAP1 POP JUMPDEST PUSH1 0x64 DUP4 LT PUSH2 0x1252 JUMPI PUSH1 0x64 DUP4 DUP2 PUSH2 0x1248 JUMPI PUSH2 0x1247 PUSH2 0x23DF JUMP JUMPDEST JUMPDEST DIV SWAP3 POP PUSH1 0x2 DUP2 ADD SWAP1 POP JUMPDEST PUSH1 0xA DUP4 LT PUSH2 0x1261 JUMPI PUSH1 0x1 DUP2 ADD SWAP1 POP JUMPDEST DUP1 SWAP2 POP POP SWAP2 SWAP1 POP JUMP JUMPDEST PUSH0 CALLER SWAP1 POP SWAP1 JUMP JUMPDEST PUSH1 0x40 MLOAD DUP1 PUSH2 0x140 ADD PUSH1 0x40 MSTORE DUP1 PUSH0 DUP2 MSTORE PUSH1 0x20 ADD PUSH1 0x60 DUP2 MSTORE PUSH1 0x20 ADD PUSH1 0x60 DUP2 MSTORE PUSH1 0x20 ADD PUSH0 DUP2 MSTORE PUSH1 0x20 ADD PUSH0 DUP2 MSTORE PUSH1 0x20 ADD PUSH0 DUP2 MSTORE PUSH1 0x20 ADD PUSH0 DUP2 MSTORE PUSH1 0x20 ADD PUSH0 PUSH20 0xFFFFFFFFFFFFFFFFFFFFFFFFFFFFFFFFFFFFFFFF AND DUP2 MSTORE PUSH1 0x20 ADD PUSH0 ISZERO ISZERO DUP2 MSTORE PUSH1 0x20 ADD PUSH0 ISZERO ISZERO DUP2 MSTORE POP SWAP1 JUMP JUMPDEST PUSH0 PUSH1 0x40 MLOAD SWAP1 POP SWAP1 JUMP JUMPDEST PUSH0 DUP1 REVERT JUMPDEST PUSH0 DUP1 REVERT JUMPDEST PUSH0 DUP2 SWAP1 POP SWAP2 SWAP1 POP JUMP JUMPDEST PUSH2 0x12F9 DUP2 PUSH2 0x12E7 JUMP JUMPDEST DUP2 EQ PUSH2 0x1303 JUMPI PUSH0 DUP1 REVERT JUMPDEST POP JUMP JUMPDEST PUSH0 DUP2 CALLDATALOAD SWAP1 POP PUSH2 0x1314 DUP2 PUSH2 0x12F0 JUMP JUMPDEST SWAP3 SWAP2 POP POP JUMP JUMPDEST PUSH0 DUP1 PUSH1 0x40 DUP4 DUP6 SUB SLT ISZERO PUSH2 0x1330 JUMPI PUSH2 0x132F PUSH2 0x12DF JUMP JUMPDEST JUMPDEST PUSH0 PUSH2 0x133D DUP6 DUP3 DUP7 ADD PUSH2 0x1306 JUMP JUMPDEST SWAP3 POP POP PUSH1 0x20 PUSH2 0x134E DUP6 DUP3 DUP7 ADD PUSH2 0x1306 JUMP JUMPDEST SWAP2 POP POP SWAP3 POP SWAP3 SWAP1 POP JUMP JUMPDEST PUSH0 PUSH1 0x20 DUP3 DUP5 SUB SLT ISZERO PUSH2 0x136D JUMPI PUSH2 0x136C PUSH2 0x12DF JUMP JUMPDEST JUMPDEST PUSH0 PUSH2 0x137A DUP5 DUP3 DUP6 ADD PUSH2 0x1306 JUMP JUMPDEST SWAP2 POP POP SWAP3 SWAP2 POP POP JUMP JUMPDEST PUSH2 0x138C DUP2 PUSH2 0x12E7 JUMP JUMPDEST DUP3 MSTORE POP POP JUMP JUMPDEST PUSH0 DUP2 MLOAD SWAP1 POP SWAP2 SWAP1 POP JUMP JUMPDEST PUSH0 DUP3 DUP3 MSTORE PUSH1 0x20 DUP3 ADD SWAP1 POP SWAP3 SWAP2 POP POP JUMP JUMPDEST DUP3 DUP2 DUP4 MCOPY PUSH0 DUP4 DUP4 ADD MSTORE POP POP POP JUMP JUMPDEST PUSH0 PUSH1 0x1F NOT PUSH1 0x1F DUP4 ADD AND SWAP1 POP SWAP2 SWAP1 POP JUMP JUMPDEST PUSH0 PUSH2 0x13D4 DUP3 PUSH2 0x1392 JUMP JUMPDEST PUSH2 0x13DE DUP2 DUP6 PUSH2 0x139C JUMP JUMPDEST SWAP4 POP PUSH2 0x13EE DUP2 DUP6 PUSH1 0x20 DUP7 ADD PUSH2 0x13AC JUMP JUMPDEST PUSH2 0x13F7 DUP2 PUSH2 0x13BA JUMP JUMPDEST DUP5 ADD SWAP2 POP POP SWAP3 SWAP2 POP POP JUMP JUMPDEST PUSH0 PUSH20 0xFFFFFFFFFFFFFFFFFFFFFFFFFFFFFFFFFFFFFFFF DUP3 AND SWAP1 POP SWAP2 SWAP1 POP JUMP JUMPDEST PUSH0 PUSH2 0x142B DUP3 PUSH2 0x1402 JUMP JUMPDEST SWAP1 POP SWAP2 SWAP1 POP JUMP JUMPDEST PUSH2 0x143B DUP2 PUSH2 0x1421 JUMP JUMPDEST DUP3 MSTORE POP POP JUMP JUMPDEST PUSH0 DUP2 ISZERO ISZERO SWAP1 POP SWAP2 SWAP1 POP JUMP JUMPDEST PUSH2 0x1455 DUP2 PUSH2 0x1441 JUMP JUMPDEST DUP3 MSTORE POP POP JUMP JUMPDEST PUSH0 PUSH2 0x140 DUP4 ADD PUSH0 DUP4 ADD MLOAD PUSH2 0x1471 PUSH0 DUP7 ADD DUP3 PUSH2 0x1383 JUMP JUMPDEST POP PUSH1 0x20 DUP4 ADD MLOAD DUP5 DUP3 SUB PUSH1 0x20 DUP7 ADD MSTORE PUSH2 0x1489 DUP3 DUP3 PUSH2 0x13CA JUMP JUMPDEST SWAP2 POP POP PUSH1 0x40 DUP4 ADD MLOAD DUP5 DUP3 SUB PUSH1 0x40 DUP7 ADD MSTORE PUSH2 0x14A3 DUP3 DUP3 PUSH2 0x13CA JUMP JUMPDEST SWAP2 POP POP PUSH1 0x60 DUP4 ADD MLOAD PUSH2 0x14B8 PUSH1 0x60 DUP7 ADD DUP3 PUSH2 0x1383 JUMP JUMPDEST POP PUSH1 0x80 DUP4 ADD MLOAD PUSH2 0x14CB PUSH1 0x80 DUP7 ADD DUP3 PUSH2 0x1383 JUMP JUMPDEST POP PUSH1 0xA0 DUP4 ADD MLOAD PUSH2 0x14DE PUSH1 0xA0 DUP7 ADD DUP3 PUSH2 0x1383 JUMP JUMPDEST POP PUSH1 0xC0 DUP4 ADD MLOAD PUSH2 0x14F1 PUSH1 0xC0 DUP7 ADD DUP3 PUSH2 0x1383 JUMP JUMPDEST POP PUSH1 0xE0 DUP4 ADD MLOAD PUSH2 0x1504 PUSH1 0xE0 DUP7 ADD DUP3 PUSH2 0x1432 JUMP JUMPDEST POP PUSH2 0x100 DUP4 ADD MLOAD PUSH2 0x1519 PUSH2 0x100 DUP7 ADD DUP3 PUSH2 0x144C JUMP JUMPDEST POP PUSH2 0x120 DUP4 ADD MLOAD PUSH2 0x152E PUSH2 0x120 DUP7 ADD DUP3 PUSH2 0x144C JUMP JUMPDEST POP DUP1 SWAP2 POP POP SWAP3 SWAP2 POP POP JUMP JUMPDEST PUSH0 PUSH1 0x20 DUP3 ADD SWAP1 POP DUP2 DUP2 SUB PUSH0 DUP4 ADD MSTORE PUSH2 0x1551 DUP2 DUP5 PUSH2 0x145B JUMP JUMPDEST SWAP1 POP SWAP3 SWAP2 POP POP JUMP JUMPDEST PUSH0 DUP1 REVERT JUMPDEST PUSH0 DUP1 REVERT JUMPDEST PUSH32 0x4E487B7100000000000000000000000000000000000000000000000000000000 PUSH0 MSTORE PUSH1 0x41 PUSH1 0x4 MSTORE PUSH1 0x24 PUSH0 REVERT JUMPDEST PUSH2 0x1597 DUP3 PUSH2 0x13BA JUMP JUMPDEST DUP2 ADD DUP2 DUP2 LT PUSH8 0xFFFFFFFFFFFFFFFF DUP3 GT OR ISZERO PUSH2 0x15B6 JUMPI PUSH2 0x15B5 PUSH2 0x1561 JUMP JUMPDEST JUMPDEST DUP1 PUSH1 0x40 MSTORE POP POP POP JUMP JUMPDEST PUSH0 PUSH2 0x15C8 PUSH2 0x12D6 JUMP JUMPDEST SWAP1 POP PUSH2 0x15D4 DUP3 DUP3 PUSH2 0x158E JUMP JUMPDEST SWAP2 SWAP1 POP JUMP JUMPDEST PUSH0 PUSH8 0xFFFFFFFFFFFFFFFF DUP3 GT ISZERO PUSH2 0x15F3 JUMPI PUSH2 0x15F2 PUSH2 0x1561 JUMP JUMPDEST JUMPDEST PUSH2 0x15FC DUP3 PUSH2 0x13BA JUMP JUMPDEST SWAP1 POP PUSH1 0x20 DUP2 ADD SWAP1 POP SWAP2 SWAP1 POP JUMP JUMPDEST DUP3 DUP2 DUP4 CALLDATACOPY PUSH0 DUP4 DUP4 ADD MSTORE POP POP POP JUMP JUMPDEST PUSH0 PUSH2 0x1629 PUSH2 0x1624 DUP5 PUSH2 0x15D9 JUMP JUMPDEST PUSH2 0x15BF JUMP JUMPDEST SWAP1 POP DUP3 DUP2 MSTORE PUSH1 0x20 DUP2 ADD DUP5 DUP5 DUP5 ADD GT ISZERO PUSH2 0x1645 JUMPI PUSH2 0x1644 PUSH2 0x155D JUMP JUMPDEST JUMPDEST PUSH2 0x1650 DUP5 DUP3 DUP6 PUSH2 0x1609 JUMP JUMPDEST POP SWAP4 SWAP3 POP POP POP JUMP JUMPDEST PUSH0 DUP3 PUSH1 0x1F DUP4 ADD SLT PUSH2 0x166C JUMPI PUSH2 0x166B PUSH2 0x1559 JUMP JUMPDEST JUMPDEST DUP2 CALLDATALOAD PUSH2 0x167C DUP5 DUP3 PUSH1 0x20 DUP7 ADD PUSH2 0x1617 JUMP JUMPDEST SWAP2 POP POP SWAP3 SWAP2 POP POP JUMP JUMPDEST PUSH0 DUP1 PUSH0 DUP1 PUSH0 PUSH1 0xA0 DUP7 DUP9 SUB SLT ISZERO PUSH2 0x169E JUMPI PUSH2 0x169D PUSH2 0x12DF JUMP JUMPDEST JUMPDEST PUSH0 DUP7 ADD CALLDATALOAD PUSH8 0xFFFFFFFFFFFFFFFF DUP2 GT ISZERO PUSH2 0x16BB JUMPI PUSH2 0x16BA PUSH2 0x12E3 JUMP JUMPDEST JUMPDEST PUSH2 0x16C7 DUP9 DUP3 DUP10 ADD PUSH2 0x1658 JUMP JUMPDEST SWAP6 POP POP PUSH1 0x20 DUP7 ADD CALLDATALOAD PUSH8 0xFFFFFFFFFFFFFFFF DUP2 GT ISZERO PUSH2 0x16E8 JUMPI PUSH2 0x16E7 PUSH2 0x12E3 JUMP JUMPDEST JUMPDEST PUSH2 0x16F4 DUP9 DUP3 DUP10 ADD PUSH2 0x1658 JUMP JUMPDEST SWAP5 POP POP PUSH1 0x40 PUSH2 0x1705 DUP9 DUP3 DUP10 ADD PUSH2 0x1306 JUMP JUMPDEST SWAP4 POP POP PUSH1 0x60 PUSH2 0x1716 DUP9 DUP3 DUP10 ADD PUSH2 0x1306 JUMP JUMPDEST SWAP3 POP POP PUSH1 0x80 PUSH2 0x1727 DUP9 DUP3 DUP10 ADD PUSH2 0x1306 JUMP JUMPDEST SWAP2 POP POP SWAP3 SWAP6 POP SWAP3 SWAP6 SWAP1 SWAP4 POP JUMP JUMPDEST PUSH2 0x173D DUP2 PUSH2 0x1421 JUMP JUMPDEST DUP3 MSTORE POP POP JUMP JUMPDEST PUSH0 PUSH1 0x20 DUP3 ADD SWAP1 POP PUSH2 0x1756 PUSH0 DUP4 ADD DUP5 PUSH2 0x1734 JUMP JUMPDEST SWAP3 SWAP2 POP POP JUMP JUMPDEST PUSH2 0x1765 DUP2 PUSH2 0x12E7 JUMP JUMPDEST DUP3 MSTORE POP POP JUMP JUMPDEST PUSH0 PUSH1 0x20 DUP3 ADD SWAP1 POP PUSH2 0x177E PUSH0 DUP4 ADD DUP5 PUSH2 0x175C JUMP JUMPDEST SWAP3 SWAP2 POP POP JUMP JUMPDEST PUSH0 DUP1 REVERT JUMPDEST PUSH0 DUP1 REVERT JUMPDEST PUSH2 0x1795 DUP2 PUSH2 0x1421 JUMP JUMPDEST DUP2 EQ PUSH2 0x179F JUMPI PUSH0 DUP1 REVERT JUMPDEST POP JUMP JUMPDEST PUSH0 DUP2 CALLDATALOAD SWAP1 POP PUSH2 0x17B0 DUP2 PUSH2 0x178C JUMP JUMPDEST SWAP3 SWAP2 POP POP JUMP JUMPDEST PUSH2 0x17BF DUP2 PUSH2 0x1441 JUMP JUMPDEST DUP2 EQ PUSH2 0x17C9 JUMPI PUSH0 DUP1 REVERT JUMPDEST POP JUMP JUMPDEST PUSH0 DUP2 CALLDATALOAD SWAP1 POP PUSH2 0x17DA DUP2 PUSH2 0x17B6 JUMP JUMPDEST SWAP3 SWAP2 POP POP JUMP JUMPDEST PUSH0 PUSH2 0x140 DUP3 DUP5 SUB SLT ISZERO PUSH2 0x17F6 JUMPI PUSH2 0x17F5 PUSH2 0x1784 JUMP JUMPDEST JUMPDEST PUSH2 0x1801 PUSH2 0x140 PUSH2 0x15BF JUMP JUMPDEST SWAP1 POP PUSH0 PUSH2 0x1810 DUP5 DUP3 DUP6 ADD PUSH2 0x1306 JUMP JUMPDEST PUSH0 DUP4 ADD MSTORE POP PUSH1 0x20 DUP3 ADD CALLDATALOAD PUSH8 0xFFFFFFFFFFFFFFFF DUP2 GT ISZERO PUSH2 0x1833 JUMPI PUSH2 0x1832 PUSH2 0x1788 JUMP JUMPDEST JUMPDEST PUSH2 0x183F DUP5 DUP3 DUP6 ADD PUSH2 0x1658 JUMP JUMPDEST PUSH1 0x20 DUP4 ADD MSTORE POP PUSH1 0x40 DUP3 ADD CALLDATALOAD PUSH8 0xFFFFFFFFFFFFFFFF DUP2 GT ISZERO PUSH2 0x1863 JUMPI PUSH2 0x1862 PUSH2 0x1788 JUMP JUMPDEST JUMPDEST PUSH2 0x186F DUP5 DUP3 DUP6 ADD PUSH2 0x1658 JUMP JUMPDEST PUSH1 0x40 DUP4 ADD MSTORE POP PUSH1 0x60 PUSH2 0x1883 DUP5 DUP3 DUP6 ADD PUSH2 0x1306 JUMP JUMPDEST PUSH1 0x60 DUP4 ADD MSTORE POP PUSH1 0x80 PUSH2 0x1897 DUP5 DUP3 DUP6 ADD PUSH2 0x1306 JUMP JUMPDEST PUSH1 0x80 DUP4 ADD MSTORE POP PUSH1 0xA0 PUSH2 0x18AB DUP5 DUP3 DUP6 ADD PUSH2 0x1306 JUMP JUMPDEST PUSH1 0xA0 DUP4 ADD MSTORE POP PUSH1 0xC0 PUSH2 0x18BF DUP5 DUP3 DUP6 ADD PUSH2 0x1306 JUMP JUMPDEST PUSH1 0xC0 DUP4 ADD MSTORE POP PUSH1 0xE0 PUSH2 0x18D3 DUP5 DUP3 DUP6 ADD PUSH2 0x17A2 JUMP JUMPDEST PUSH1 0xE0 DUP4 ADD MSTORE POP PUSH2 0x100 PUSH2 0x18E8 DUP5 DUP3 DUP6 ADD PUSH2 0x17CC JUMP JUMPDEST PUSH2 0x100 DUP4 ADD MSTORE POP PUSH2 0x120 PUSH2 0x18FE DUP5 DUP3 DUP6 ADD PUSH2 0x17CC JUMP JUMPDEST PUSH2 0x120 DUP4 ADD MSTORE POP SWAP3 SWAP2 POP POP JUMP JUMPDEST PUSH0 PUSH1 0x20 DUP3 DUP5 SUB SLT ISZERO PUSH2 0x1920 JUMPI PUSH2 0x191F PUSH2 0x12DF JUMP JUMPDEST JUMPDEST PUSH0 DUP3 ADD CALLDATALOAD PUSH8 0xFFFFFFFFFFFFFFFF DUP2 GT ISZERO PUSH2 0x193D JUMPI PUSH2 0x193C PUSH2 0x12E3 JUMP JUMPDEST JUMPDEST PUSH2 0x1949 DUP5 DUP3 DUP6 ADD PUSH2 0x17E0 JUMP JUMPDEST SWAP2 POP POP SWAP3 SWAP2 POP POP JUMP JUMPDEST PUSH0 PUSH1 0x20 DUP3 DUP5 SUB SLT ISZERO PUSH2 0x1967 JUMPI PUSH2 0x1966 PUSH2 0x12DF JUMP JUMPDEST JUMPDEST PUSH0 PUSH2 0x1974 DUP5 DUP3 DUP6 ADD PUSH2 0x17A2 JUMP JUMPDEST SWAP2 POP POP SWAP3 SWAP2 POP POP JUMP JUMPDEST PUSH0 DUP2 SWAP1 POP SWAP2 SWAP1 POP JUMP JUMPDEST PUSH0 PUSH2 0x19A0 PUSH2 0x199B PUSH2 0x1996 DUP5 PUSH2 0x1402 JUMP JUMPDEST PUSH2 0x197D JUMP JUMPDEST PUSH2 0x1402 JUMP JUMPDEST SWAP1 POP SWAP2 SWAP1 POP JUMP JUMPDEST PUSH0 PUSH2 0x19B1 DUP3 PUSH2 0x1986 JUMP JUMPDEST SWAP1 POP SWAP2 SWAP1 POP JUMP JUMPDEST PUSH0 PUSH2 0x19C2 DUP3 PUSH2 0x19A7 JUMP JUMPDEST SWAP1 POP SWAP2 SWAP1 POP JUMP JUMPDEST PUSH2 0x19D2 DUP2 PUSH2 0x19B8 JUMP JUMPDEST DUP3 MSTORE POP POP JUMP JUMPDEST PUSH0 PUSH1 0x20 DUP3 ADD SWAP1 POP PUSH2 0x19EB PUSH0 DUP4 ADD DUP5 PUSH2 0x19C9 JUMP JUMPDEST SWAP3 SWAP2 POP POP JUMP JUMPDEST PUSH0 DUP3 DUP3 MSTORE PUSH1 0x20 DUP3 ADD SWAP1 POP SWAP3 SWAP2 POP POP JUMP JUMPDEST PUSH32 0x506F6C696379206973206E6F7420616374697665000000000000000000000000 PUSH0 DUP3 ADD MSTORE POP JUMP JUMPDEST PUSH0 PUSH2 0x1A35 PUSH1 0x14 DUP4 PUSH2 0x19F1 JUMP JUMPDEST SWAP2 POP PUSH2 0x1A40 DUP3 PUSH2 0x1A01 JUMP JUMPDEST PUSH1 0x20 DUP3 ADD SWAP1 POP SWAP2 SWAP1 POP JUMP JUMPDEST PUSH0 PUSH1 0x20 DUP3 ADD SWAP1 POP DUP2 DUP2 SUB PUSH0 DUP4 ADD MSTORE PUSH2 0x1A62 DUP2 PUSH2 0x1A29 JUMP JUMPDEST SWAP1 POP SWAP2 SWAP1 POP JUMP JUMPDEST PUSH32 0x506F6C696379206E6F7420666F756E6400000000000000000000000000000000 PUSH0 DUP3 ADD MSTORE POP JUMP JUMPDEST PUSH0 PUSH2 0x1A9D PUSH1 0x10 DUP4 PUSH2 0x19F1 JUMP JUMPDEST SWAP2 POP PUSH2 0x1AA8 DUP3 PUSH2 0x1A69 JUMP JUMPDEST PUSH1 0x20 DUP3 ADD SWAP1 POP SWAP2 SWAP1 POP JUMP JUMPDEST PUSH0 PUSH1 0x20 DUP3 ADD SWAP1 POP DUP2 DUP2 SUB PUSH0 DUP4 ADD MSTORE PUSH2 0x1ACA DUP2 PUSH2 0x1A91 JUMP JUMPDEST SWAP1 POP SWAP2 SWAP1 POP JUMP JUMPDEST PUSH32 0x496E76616C696420706F6C696379204944000000000000000000000000000000 PUSH0 DUP3 ADD MSTORE POP JUMP JUMPDEST PUSH0 PUSH2 0x1B05 PUSH1 0x11 DUP4 PUSH2 0x19F1 JUMP JUMPDEST SWAP2 POP PUSH2 0x1B10 DUP3 PUSH2 0x1AD1 JUMP JUMPDEST PUSH1 0x20 DUP3 ADD SWAP1 POP SWAP2 SWAP1 POP JUMP JUMPDEST PUSH0 PUSH1 0x20 DUP3 ADD SWAP1 POP DUP2 DUP2 SUB PUSH0 DUP4 ADD MSTORE PUSH2 0x1B32 DUP2 PUSH2 0x1AF9 JUMP JUMPDEST SWAP1 POP SWAP2 SWAP1 POP JUMP JUMPDEST PUSH32 0x4E487B7100000000000000000000000000000000000000000000000000000000 PUSH0 MSTORE PUSH1 0x22 PUSH1 0x4 MSTORE PUSH1 0x24 PUSH0 REVERT JUMPDEST PUSH0 PUSH1 0x2 DUP3 DIV SWAP1 POP PUSH1 0x1 DUP3 AND DUP1 PUSH2 0x1B7D JUMPI PUSH1 0x7F DUP3 AND SWAP2 POP JUMPDEST PUSH1 0x20 DUP3 LT DUP2 SUB PUSH2 0x1B90 JUMPI PUSH2 0x1B8F PUSH2 0x1B39 JUMP JUMPDEST JUMPDEST POP SWAP2 SWAP1 POP JUMP JUMPDEST PUSH0 DUP2 MLOAD SWAP1 POP PUSH2 0x1BA4 DUP2 PUSH2 0x12F0 JUMP JUMPDEST SWAP3 SWAP2 POP POP JUMP JUMPDEST PUSH0 PUSH1 0x20 DUP3 DUP5 SUB SLT ISZERO PUSH2 0x1BBF JUMPI PUSH2 0x1BBE PUSH2 0x12DF JUMP JUMPDEST JUMPDEST PUSH0 PUSH2 0x1BCC DUP5 DUP3 DUP6 ADD PUSH2 0x1B96 JUMP JUMPDEST SWAP2 POP POP SWAP3 SWAP2 POP POP JUMP JUMPDEST PUSH0 DUP2 SWAP1 POP SWAP3 SWAP2 POP POP JUMP JUMPDEST PUSH32 0x596F752063757272656E746C7920686176652000000000000000000000000000 PUSH0 DUP3 ADD MSTORE POP JUMP JUMPDEST PUSH0 PUSH2 0x1C13 PUSH1 0x13 DUP4 PUSH2 0x1BD5 JUMP JUMPDEST SWAP2 POP PUSH2 0x1C1E DUP3 PUSH2 0x1BDF JUMP JUMPDEST PUSH1 0x13 DUP3 ADD SWAP1 POP SWAP2 SWAP1 POP JUMP JUMPDEST PUSH0 PUSH2 0x1C33 DUP3 PUSH2 0x1392 JUMP JUMPDEST PUSH2 0x1C3D DUP2 DUP6 PUSH2 0x1BD5 JUMP JUMPDEST SWAP4 POP PUSH2 0x1C4D DUP2 DUP6 PUSH1 0x20 DUP7 ADD PUSH2 0x13AC JUMP JUMPDEST DUP1 DUP5 ADD SWAP2 POP POP SWAP3 SWAP2 POP POP JUMP JUMPDEST PUSH32 0x20746F6B656E732C207768696368206973206E6F7420656E6F75676820746F20 PUSH0 DUP3 ADD MSTORE PUSH32 0x637265617465206120706F6C6963792077697468206D617820706F6F6C207661 PUSH1 0x20 DUP3 ADD MSTORE PUSH32 0x6C7565206F662000000000000000000000000000000000000000000000000000 PUSH1 0x40 DUP3 ADD MSTORE POP JUMP JUMPDEST PUSH0 PUSH2 0x1CD9 PUSH1 0x47 DUP4 PUSH2 0x1BD5 JUMP JUMPDEST SWAP2 POP PUSH2 0x1CE4 DUP3 PUSH2 0x1C59 JUMP JUMPDEST PUSH1 0x47 DUP3 ADD SWAP1 POP SWAP2 SWAP1 POP JUMP JUMPDEST PUSH32 0x20746F6B656E732E000000000000000000000000000000000000000000000000 PUSH0 DUP3 ADD MSTORE POP JUMP JUMPDEST PUSH0 PUSH2 0x1D23 PUSH1 0x8 DUP4 PUSH2 0x1BD5 JUMP JUMPDEST SWAP2 POP PUSH2 0x1D2E DUP3 PUSH2 0x1CEF JUMP JUMPDEST PUSH1 0x8 DUP3 ADD SWAP1 POP SWAP2 SWAP1 POP JUMP JUMPDEST PUSH0 PUSH2 0x1D43 DUP3 PUSH2 0x1C07 JUMP JUMPDEST SWAP2 POP PUSH2 0x1D4F DUP3 DUP6 PUSH2 0x1C29 JUMP JUMPDEST SWAP2 POP PUSH2 0x1D5A DUP3 PUSH2 0x1CCD JUMP JUMPDEST SWAP2 POP PUSH2 0x1D66 DUP3 DUP5 PUSH2 0x1C29 JUMP JUMPDEST SWAP2 POP PUSH2 0x1D71 DUP3 PUSH2 0x1D17 JUMP JUMPDEST SWAP2 POP DUP2 SWAP1 POP SWAP4 SWAP3 POP POP POP JUMP JUMPDEST PUSH0 PUSH2 0x1D87 DUP3 PUSH2 0x1392 JUMP JUMPDEST PUSH2 0x1D91 DUP2 DUP6 PUSH2 0x19F1 JUMP JUMPDEST SWAP4 POP PUSH2 0x1DA1 DUP2 DUP6 PUSH1 0x20 DUP7 ADD PUSH2 0x13AC JUMP JUMPDEST PUSH2 0x1DAA DUP2 PUSH2 0x13BA JUMP JUMPDEST DUP5 ADD SWAP2 POP POP SWAP3 SWAP2 POP POP JUMP JUMPDEST PUSH0 PUSH1 0x20 DUP3 ADD SWAP1 POP DUP2 DUP2 SUB PUSH0 DUP4 ADD MSTORE PUSH2 0x1DCD DUP2 DUP5 PUSH2 0x1D7D JUMP JUMPDEST SWAP1 POP SWAP3 SWAP2 POP POP JUMP JUMPDEST PUSH0 PUSH2 0x1DE0 DUP3 DUP5 PUSH2 0x1C29 JUMP JUMPDEST SWAP2 POP DUP2 SWAP1 POP SWAP3 SWAP2 POP POP JUMP JUMPDEST PUSH32 0x496E76616C696420706F6C696379207479706500000000000000000000000000 PUSH0 DUP3 ADD MSTORE POP JUMP JUMPDEST PUSH0 PUSH2 0x1E1F PUSH1 0x13 DUP4 PUSH2 0x19F1 JUMP JUMPDEST SWAP2 POP PUSH2 0x1E2A DUP3 PUSH2 0x1DEB JUMP JUMPDEST PUSH1 0x20 DUP3 ADD SWAP1 POP SWAP2 SWAP1 POP JUMP JUMPDEST PUSH0 PUSH1 0x20 DUP3 ADD SWAP1 POP DUP2 DUP2 SUB PUSH0 DUP4 ADD MSTORE PUSH2 0x1E4C DUP2 PUSH2 0x1E13 JUMP JUMPDEST SWAP1 POP SWAP2 SWAP1 POP JUMP JUMPDEST PUSH32 0x5269736B206F662062616E6B7275707463793A2072656475636520746865206D PUSH0 DUP3 ADD MSTORE PUSH32 0x617820706F6F6C2076616C756520666F72207468697320706F6C696379000000 PUSH1 0x20 DUP3 ADD MSTORE POP JUMP JUMPDEST PUSH0 PUSH2 0x1EAD PUSH1 0x3D DUP4 PUSH2 0x19F1 JUMP JUMPDEST SWAP2 POP PUSH2 0x1EB8 DUP3 PUSH2 0x1E53 JUMP JUMPDEST PUSH1 0x40 DUP3 ADD SWAP1 POP SWAP2 SWAP1 POP JUMP JUMPDEST PUSH0 PUSH1 0x20 DUP3 ADD SWAP1 POP DUP2 DUP2 SUB PUSH0 DUP4 ADD MSTORE PUSH2 0x1EDA DUP2 PUSH2 0x1EA1 JUMP JUMPDEST SWAP1 POP SWAP2 SWAP1 POP JUMP JUMPDEST PUSH32 0x4E487B7100000000000000000000000000000000000000000000000000000000 PUSH0 MSTORE PUSH1 0x11 PUSH1 0x4 MSTORE PUSH1 0x24 PUSH0 REVERT JUMPDEST PUSH0 PUSH2 0x1F18 DUP3 PUSH2 0x12E7 JUMP JUMPDEST SWAP2 POP PUSH32 0xFFFFFFFFFFFFFFFFFFFFFFFFFFFFFFFFFFFFFFFFFFFFFFFFFFFFFFFFFFFFFFFF DUP3 SUB PUSH2 0x1F4A JUMPI PUSH2 0x1F49 PUSH2 0x1EE1 JUMP JUMPDEST JUMPDEST PUSH1 0x1 DUP3 ADD SWAP1 POP SWAP2 SWAP1 POP JUMP JUMPDEST PUSH0 DUP2 SWAP1 POP DUP2 PUSH0 MSTORE PUSH1 0x20 PUSH0 KECCAK256 SWAP1 POP SWAP2 SWAP1 POP JUMP JUMPDEST PUSH0 PUSH1 0x20 PUSH1 0x1F DUP4 ADD DIV SWAP1 POP SWAP2 SWAP1 POP JUMP JUMPDEST PUSH0 DUP3 DUP3 SHL SWAP1 POP SWAP3 SWAP2 POP POP JUMP JUMPDEST PUSH0 PUSH1 0x8 DUP4 MUL PUSH2 0x1FB1 PUSH32 0xFFFFFFFFFFFFFFFFFFFFFFFFFFFFFFFFFFFFFFFFFFFFFFFFFFFFFFFFFFFFFFFF DUP3 PUSH2 0x1F76 JUMP JUMPDEST PUSH2 0x1FBB DUP7 DUP4 PUSH2 0x1F76 JUMP JUMPDEST SWAP6 POP DUP1 NOT DUP5 AND SWAP4 POP DUP1 DUP7 AND DUP5 OR SWAP3 POP POP POP SWAP4 SWAP3 POP POP POP JUMP JUMPDEST PUSH0 PUSH2 0x1FED PUSH2 0x1FE8 PUSH2 0x1FE3 DUP5 PUSH2 0x12E7 JUMP JUMPDEST PUSH2 0x197D JUMP JUMPDEST PUSH2 0x12E7 JUMP JUMPDEST SWAP1 POP SWAP2 SWAP1 POP JUMP JUMPDEST PUSH0 DUP2 SWAP1 POP SWAP2 SWAP1 POP JUMP JUMPDEST PUSH2 0x2006 DUP4 PUSH2 0x1FD3 JUMP JUMPDEST PUSH2 0x201A PUSH2 0x2012 DUP3 PUSH2 0x1FF4 JUMP JUMPDEST DUP5 DUP5 SLOAD PUSH2 0x1F82 JUMP JUMPDEST DUP3 SSTORE POP POP POP POP JUMP JUMPDEST PUSH0 SWAP1 JUMP JUMPDEST PUSH2 0x202E PUSH2 0x2022 JUMP JUMPDEST PUSH2 0x2039 DUP2 DUP5 DUP5 PUSH2 0x1FFD JUMP JUMPDEST POP POP POP JUMP JUMPDEST JUMPDEST DUP2 DUP2 LT ISZERO PUSH2 0x205C JUMPI PUSH2 0x2051 PUSH0 DUP3 PUSH2 0x2026 JUMP JUMPDEST PUSH1 0x1 DUP2 ADD SWAP1 POP PUSH2 0x203F JUMP JUMPDEST POP POP JUMP JUMPDEST PUSH1 0x1F DUP3 GT ISZERO PUSH2 0x20A1 JUMPI PUSH2 0x2072 DUP2 PUSH2 0x1F55 JUMP JUMPDEST PUSH2 0x207B DUP5 PUSH2 0x1F67 JUMP JUMPDEST DUP2 ADD PUSH1 0x20 DUP6 LT ISZERO PUSH2 0x208A JUMPI DUP2 SWAP1 POP JUMPDEST PUSH2 0x209E PUSH2 0x2096 DUP6 PUSH2 0x1F67 JUMP JUMPDEST DUP4 ADD DUP3 PUSH2 0x203E JUMP JUMPDEST POP POP JUMPDEST POP POP POP JUMP JUMPDEST PUSH0 DUP3 DUP3 SHR SWAP1 POP SWAP3 SWAP2 POP POP JUMP JUMPDEST PUSH0 PUSH2 0x20C1 PUSH0 NOT DUP5 PUSH1 0x8 MUL PUSH2 0x20A6 JUMP JUMPDEST NOT DUP1 DUP4 AND SWAP2 POP POP SWAP3 SWAP2 POP POP JUMP JUMPDEST PUSH0 PUSH2 0x20D9 DUP4 DUP4 PUSH2 0x20B2 JUMP JUMPDEST SWAP2 POP DUP3 PUSH1 0x2 MUL DUP3 OR SWAP1 POP SWAP3 SWAP2 POP POP JUMP JUMPDEST PUSH2 0x20F2 DUP3 PUSH2 0x1392 JUMP JUMPDEST PUSH8 0xFFFFFFFFFFFFFFFF DUP2 GT ISZERO PUSH2 0x210B JUMPI PUSH2 0x210A PUSH2 0x1561 JUMP JUMPDEST JUMPDEST PUSH2 0x2115 DUP3 SLOAD PUSH2 0x1B66 JUMP JUMPDEST PUSH2 0x2120 DUP3 DUP3 DUP6 PUSH2 0x2060 JUMP JUMPDEST PUSH0 PUSH1 0x20 SWAP1 POP PUSH1 0x1F DUP4 GT PUSH1 0x1 DUP2 EQ PUSH2 0x2151 JUMPI PUSH0 DUP5 ISZERO PUSH2 0x213F JUMPI DUP3 DUP8 ADD MLOAD SWAP1 POP JUMPDEST PUSH2 0x2149 DUP6 DUP3 PUSH2 0x20CE JUMP JUMPDEST DUP7 SSTORE POP PUSH2 0x21B0 JUMP JUMPDEST PUSH1 0x1F NOT DUP5 AND PUSH2 0x215F DUP7 PUSH2 0x1F55 JUMP JUMPDEST PUSH0 JUMPDEST DUP3 DUP2 LT ISZERO PUSH2 0x2186 JUMPI DUP5 DUP10 ADD MLOAD DUP3 SSTORE PUSH1 0x1 DUP3 ADD SWAP2 POP PUSH1 0x20 DUP6 ADD SWAP5 POP PUSH1 0x20 DUP2 ADD SWAP1 POP PUSH2 0x2161 JUMP JUMPDEST DUP7 DUP4 LT ISZERO PUSH2 0x21A3 JUMPI DUP5 DUP10 ADD MLOAD PUSH2 0x219F PUSH1 0x1F DUP10 AND DUP3 PUSH2 0x20B2 JUMP JUMPDEST DUP4 SSTORE POP JUMPDEST PUSH1 0x1 PUSH1 0x2 DUP9 MUL ADD DUP9 SSTORE POP POP POP JUMPDEST POP POP POP POP POP POP JUMP JUMPDEST PUSH0 PUSH1 0x60 DUP3 ADD SWAP1 POP PUSH2 0x21CB PUSH0 DUP4 ADD DUP7 PUSH2 0x175C JUMP JUMPDEST DUP2 DUP2 SUB PUSH1 0x20 DUP4 ADD MSTORE PUSH2 0x21DD DUP2 DUP6 PUSH2 0x1D7D JUMP JUMPDEST SWAP1 POP PUSH2 0x21EC PUSH1 0x40 DUP4 ADD DUP5 PUSH2 0x1734 JUMP JUMPDEST SWAP5 SWAP4 POP POP POP POP JUMP JUMPDEST PUSH0 PUSH2 0x21FE DUP3 PUSH2 0x12E7 JUMP JUMPDEST SWAP2 POP PUSH2 0x2209 DUP4 PUSH2 0x12E7 JUMP JUMPDEST SWAP3 POP DUP3 DUP3 ADD SWAP1 POP DUP1 DUP3 GT ISZERO PUSH2 0x2221 JUMPI PUSH2 0x2220 PUSH2 0x1EE1 JUMP JUMPDEST JUMPDEST SWAP3 SWAP2 POP POP JUMP JUMPDEST PUSH0 PUSH2 0x2231 DUP3 PUSH2 0x12E7 JUMP JUMPDEST SWAP2 POP PUSH2 0x223C DUP4 PUSH2 0x12E7 JUMP JUMPDEST SWAP3 POP DUP3 DUP3 SUB SWAP1 POP DUP2 DUP2 GT ISZERO PUSH2 0x2254 JUMPI PUSH2 0x2253 PUSH2 0x1EE1 JUMP JUMPDEST JUMPDEST SWAP3 SWAP2 POP POP JUMP JUMPDEST PUSH0 PUSH2 0x2264 DUP3 PUSH2 0x12E7 JUMP JUMPDEST SWAP2 POP PUSH2 0x226F DUP4 PUSH2 0x12E7 JUMP JUMPDEST SWAP3 POP DUP3 DUP3 MUL PUSH2 0x227D DUP2 PUSH2 0x12E7 JUMP JUMPDEST SWAP2 POP DUP3 DUP3 DIV DUP5 EQ DUP4 ISZERO OR PUSH2 0x2294 JUMPI PUSH2 0x2293 PUSH2 0x1EE1 JUMP JUMPDEST JUMPDEST POP SWAP3 SWAP2 POP POP JUMP JUMPDEST PUSH32 0x416D6F756E74206D7573742062652067726561746572207468616E207A65726F PUSH0 DUP3 ADD MSTORE POP JUMP JUMPDEST PUSH0 PUSH2 0x22CF PUSH1 0x20 DUP4 PUSH2 0x19F1 JUMP JUMPDEST SWAP2 POP PUSH2 0x22DA DUP3 PUSH2 0x229B JUMP JUMPDEST PUSH1 0x20 DUP3 ADD SWAP1 POP SWAP2 SWAP1 POP JUMP JUMPDEST PUSH0 PUSH1 0x20 DUP3 ADD SWAP1 POP DUP2 DUP2 SUB PUSH0 DUP4 ADD MSTORE PUSH2 0x22FC DUP2 PUSH2 0x22C3 JUMP JUMPDEST SWAP1 POP SWAP2 SWAP1 POP JUMP JUMPDEST PUSH0 PUSH1 0x60 DUP3 ADD SWAP1 POP PUSH2 0x2316 PUSH0 DUP4 ADD DUP7 PUSH2 0x1734 JUMP JUMPDEST PUSH2 0x2323 PUSH1 0x20 DUP4 ADD DUP6 PUSH2 0x1734 JUMP JUMPDEST PUSH2 0x2330 PUSH1 0x40 DUP4 ADD DUP5 PUSH2 0x175C JUMP JUMPDEST SWAP5 SWAP4 POP POP POP POP JUMP JUMPDEST PUSH0 DUP2 MLOAD SWAP1 POP PUSH2 0x2346 DUP2 PUSH2 0x17B6 JUMP JUMPDEST SWAP3 SWAP2 POP POP JUMP JUMPDEST PUSH0 PUSH1 0x20 DUP3 DUP5 SUB SLT ISZERO PUSH2 0x2361 JUMPI PUSH2 0x2360 PUSH2 0x12DF JUMP JUMPDEST JUMPDEST PUSH0 PUSH2 0x236E DUP5 DUP3 DUP6 ADD PUSH2 0x2338 JUMP JUMPDEST SWAP2 POP POP SWAP3 SWAP2 POP POP JUMP JUMPDEST PUSH32 0x546F6B656E207472616E73666572206661696C65640000000000000000000000 PUSH0 DUP3 ADD MSTORE POP JUMP JUMPDEST PUSH0 PUSH2 0x23AB PUSH1 0x15 DUP4 PUSH2 0x19F1 JUMP JUMPDEST SWAP2 POP PUSH2 0x23B6 DUP3 PUSH2 0x2377 JUMP JUMPDEST PUSH1 0x20 DUP3 ADD SWAP1 POP SWAP2 SWAP1 POP JUMP JUMPDEST PUSH0 PUSH1 0x20 DUP3 ADD SWAP1 POP DUP2 DUP2 SUB PUSH0 DUP4 ADD MSTORE PUSH2 0x23D8 DUP2 PUSH2 0x239F JUMP JUMPDEST SWAP1 POP SWAP2 SWAP1 POP JUMP JUMPDEST PUSH32 0x4E487B7100000000000000000000000000000000000000000000000000000000 PUSH0 MSTORE PUSH1 0x12 PUSH1 0x4 MSTORE PUSH1 0x24 PUSH0 REVERT INVALID LOG2 PUSH5 0x6970667358 0x22 SLT KECCAK256 DELEGATECALL SWAP14 SUB 0xEB 0xE4 0xD8 0xD0 OR MULMOD 0xEB DUP1 0xBA AND DUP13 TLOAD SWAP6 PUSH4 0xEB38413A KECCAK256 SWAP13 0xEC 0x2A PUSH14 0x7F549106502264736F6C63430008 BYTE STOP CALLER "
		},
		"gasEstimates": {
			"creation": {
				"codeDepositCost": "1856400",
				"executionCost": "infinite",
				"totalCost": "infinite"
			},
			"external": {
				"addCollateral(uint256)": "infinite",
				"calculateAllNetClaimValue()": "infinite",
				"calculateNetClaimValue((uint256,string,string,uint256,uint256,uint256,uint256,address,bool,bool))": "infinite",
				"changePolicyListedStatus(uint256)": "29246",
				"createNewPolicy(string,string,uint256,uint256,uint256)": "infinite",
				"getPolicy(uint256)": "infinite",
				"owner()": "2604",
				"policyCount()": "2491",
				"renounceOwnership()": "infinite",
				"token()": "infinite",
				"transferOwnership(address)": "infinite",
				"updatePolicyPoolValue(uint256,uint256)": "infinite"
			}
		},
		"methodIdentifiers": {
			"addCollateral(uint256)": "bcc46e83",
			"calculateAllNetClaimValue()": "9d3db268",
			"calculateNetClaimValue((uint256,string,string,uint256,uint256,uint256,uint256,address,bool,bool))": "a4d453de",
			"changePolicyListedStatus(uint256)": "96945f3e",
			"createNewPolicy(string,string,uint256,uint256,uint256)": "54f4d026",
			"getPolicy(uint256)": "2b07fce3",
			"owner()": "8da5cb5b",
			"policyCount()": "de54d429",
			"renounceOwnership()": "715018a6",
			"token()": "fc0c546a",
			"transferOwnership(address)": "f2fde38b",
			"updatePolicyPoolValue(uint256,uint256)": "0c6ab3fa"
		}
	},
	"abi": [
		{
			"inputs": [
				{
					"internalType": "contract CIToken",
					"name": "_token",
					"type": "address"
				}
			],
			"stateMutability": "nonpayable",
			"type": "constructor"
		},
		{
			"inputs": [
				{
					"internalType": "address",
					"name": "owner",
					"type": "address"
				}
			],
			"name": "OwnableInvalidOwner",
			"type": "error"
		},
		{
			"inputs": [
				{
					"internalType": "address",
					"name": "account",
					"type": "address"
				}
			],
			"name": "OwnableUnauthorizedAccount",
			"type": "error"
		},
		{
			"anonymous": false,
			"inputs": [
				{
					"indexed": true,
					"internalType": "address",
					"name": "previousOwner",
					"type": "address"
				},
				{
					"indexed": true,
					"internalType": "address",
					"name": "newOwner",
					"type": "address"
				}
			],
			"name": "OwnershipTransferred",
			"type": "event"
		},
		{
			"anonymous": false,
			"inputs": [
				{
					"indexed": false,
					"internalType": "uint256",
					"name": "policyId",
					"type": "uint256"
				},
				{
					"indexed": false,
					"internalType": "uint256",
					"name": "claimValue",
					"type": "uint256"
				}
			],
			"name": "PolicyClaimed",
			"type": "event"
		},
		{
			"anonymous": false,
			"inputs": [
				{
					"indexed": false,
					"internalType": "uint256",
					"name": "policyId",
					"type": "uint256"
				},
				{
					"indexed": false,
					"internalType": "string",
					"name": "policyName",
					"type": "string"
				},
				{
					"indexed": false,
					"internalType": "address",
					"name": "creator",
					"type": "address"
				}
			],
			"name": "PolicyCreated",
			"type": "event"
		},
		{
			"inputs": [
				{
					"internalType": "uint256",
					"name": "amount",
					"type": "uint256"
				}
			],
			"name": "addCollateral",
			"outputs": [],
			"stateMutability": "nonpayable",
			"type": "function"
		},
		{
			"inputs": [],
			"name": "calculateAllNetClaimValue",
			"outputs": [
				{
					"internalType": "uint256",
					"name": "",
					"type": "uint256"
				}
			],
			"stateMutability": "view",
			"type": "function"
		},
		{
			"inputs": [
				{
					"components": [
						{
							"internalType": "uint256",
							"name": "policyId",
							"type": "uint256"
						},
						{
							"internalType": "string",
							"name": "policyName",
							"type": "string"
						},
						{
							"internalType": "string",
							"name": "policyType",
							"type": "string"
						},
						{
							"internalType": "uint256",
							"name": "claimBackRate",
							"type": "uint256"
						},
						{
							"internalType": "uint256",
							"name": "maxPoolValue",
							"type": "uint256"
						},
						{
							"internalType": "uint256",
							"name": "currPoolValue",
							"type": "uint256"
						},
						{
							"internalType": "uint256",
							"name": "minStake",
							"type": "uint256"
						},
						{
							"internalType": "address",
							"name": "creator",
							"type": "address"
						},
						{
							"internalType": "bool",
							"name": "listed",
							"type": "bool"
						},
						{
							"internalType": "bool",
							"name": "active",
							"type": "bool"
						}
					],
					"internalType": "struct InsuranceCompany.Policy",
					"name": "p",
					"type": "tuple"
				}
			],
			"name": "calculateNetClaimValue",
			"outputs": [
				{
					"internalType": "uint256",
					"name": "",
					"type": "uint256"
				}
			],
			"stateMutability": "pure",
			"type": "function"
		},
		{
			"inputs": [
				{
					"internalType": "uint256",
					"name": "policyId",
					"type": "uint256"
				}
			],
			"name": "changePolicyListedStatus",
			"outputs": [],
			"stateMutability": "nonpayable",
			"type": "function"
		},
		{
			"inputs": [
				{
					"internalType": "string",
					"name": "_policyName",
					"type": "string"
				},
				{
					"internalType": "string",
					"name": "_policyType",
					"type": "string"
				},
				{
					"internalType": "uint256",
					"name": "_maxPoolValue",
					"type": "uint256"
				},
				{
					"internalType": "uint256",
					"name": "_minStake",
					"type": "uint256"
				},
				{
					"internalType": "uint256",
					"name": "_claimBackRate",
					"type": "uint256"
				}
			],
			"name": "createNewPolicy",
			"outputs": [],
			"stateMutability": "nonpayable",
			"type": "function"
		},
		{
			"inputs": [
				{
					"internalType": "uint256",
					"name": "policyId",
					"type": "uint256"
				}
			],
			"name": "getPolicy",
			"outputs": [
				{
					"components": [
						{
							"internalType": "uint256",
							"name": "policyId",
							"type": "uint256"
						},
						{
							"internalType": "string",
							"name": "policyName",
							"type": "string"
						},
						{
							"internalType": "string",
							"name": "policyType",
							"type": "string"
						},
						{
							"internalType": "uint256",
							"name": "claimBackRate",
							"type": "uint256"
						},
						{
							"internalType": "uint256",
							"name": "maxPoolValue",
							"type": "uint256"
						},
						{
							"internalType": "uint256",
							"name": "currPoolValue",
							"type": "uint256"
						},
						{
							"internalType": "uint256",
							"name": "minStake",
							"type": "uint256"
						},
						{
							"internalType": "address",
							"name": "creator",
							"type": "address"
						},
						{
							"internalType": "bool",
							"name": "listed",
							"type": "bool"
						},
						{
							"internalType": "bool",
							"name": "active",
							"type": "bool"
						}
					],
					"internalType": "struct InsuranceCompany.Policy",
					"name": "",
					"type": "tuple"
				}
			],
			"stateMutability": "view",
			"type": "function"
		},
		{
			"inputs": [],
			"name": "owner",
			"outputs": [
				{
					"internalType": "address",
					"name": "",
					"type": "address"
				}
			],
			"stateMutability": "view",
			"type": "function"
		},
		{
			"inputs": [],
			"name": "policyCount",
			"outputs": [
				{
					"internalType": "uint256",
					"name": "",
					"type": "uint256"
				}
			],
			"stateMutability": "view",
			"type": "function"
		},
		{
			"inputs": [],
			"name": "renounceOwnership",
			"outputs": [],
			"stateMutability": "nonpayable",
			"type": "function"
		},
		{
			"inputs": [],
			"name": "token",
			"outputs": [
				{
					"internalType": "contract CIToken",
					"name": "",
					"type": "address"
				}
			],
			"stateMutability": "view",
			"type": "function"
		},
		{
			"inputs": [
				{
					"internalType": "address",
					"name": "newOwner",
					"type": "address"
				}
			],
			"name": "transferOwnership",
			"outputs": [],
			"stateMutability": "nonpayable",
			"type": "function"
		},
		{
			"inputs": [
				{
					"internalType": "uint256",
					"name": "policyId",
					"type": "uint256"
				},
				{
					"internalType": "uint256",
					"name": "newPoolValue",
					"type": "uint256"
				}
			],
			"name": "updatePolicyPoolValue",
			"outputs": [],
			"stateMutability": "nonpayable",
			"type": "function"
		}
	]
}