{
	"data": {
		"bytecode": {
			"linkReferences": {},
			"object": "608060405242600255348015610013575f80fd5b50604051612ea3380380612ea383398181016040528101906100359190610182565b805f806101000a81548173ffffffffffffffffffffffffffffffffffffffff021916908373ffffffffffffffffffffffffffffffffffffffff16021790555060018060405161008390610201565b90815260200160405180910390205f6101000a81548160ff0219169083151502179055506001806040516100b69061025f565b90815260200160405180910390205f6101000a81548160ff0219169083151502179055506001806040516100e9906102bd565b90815260200160405180910390205f6101000a81548160ff021916908315150217905550506102d1565b5f80fd5b5f73ffffffffffffffffffffffffffffffffffffffff82169050919050565b5f61014082610117565b9050919050565b5f61015182610136565b9050919050565b61016181610147565b811461016b575f80fd5b50565b5f8151905061017c81610158565b92915050565b5f6020828403121561019757610196610113565b5b5f6101a48482850161016e565b91505092915050565b5f81905092915050565b7f54726176656c00000000000000000000000000000000000000000000000000005f82015250565b5f6101eb6006836101ad565b91506101f6826101b7565b600682019050919050565b5f61020b826101df565b9150819050919050565b7f50726f70657274790000000000000000000000000000000000000000000000005f82015250565b5f6102496008836101ad565b915061025482610215565b600882019050919050565b5f6102698261023d565b9150819050919050565b7f4c696665000000000000000000000000000000000000000000000000000000005f82015250565b5f6102a76004836101ad565b91506102b282610273565b600482019050919050565b5f6102c78261029b565b9150819050919050565b612bc5806102de5f395ff3fe608060405234801561000f575f80fd5b50600436106100a7575f3560e01c80635b2a36461161006f5780635b2a36461461015f5780639d3db2681461017b578063a719a9cb14610199578063de54d429146101b5578063de8cba8d146101d3578063fc0c546a14610203576100a7565b80630c6ab3fa146100ab57806316807d31146100c757806322191f72146100f75780632b07fce314610113578063420deaed14610143575b5f80fd5b6100c560048036038101906100c09190611749565b610221565b005b6100e160048036038101906100dc91906117e1565b610288565b6040516100ee919061182e565b60405180910390f35b610111600480360381019061010c9190611847565b6102b3565b005b61012d60048036038101906101289190611847565b610363565b60405161013a91906119f8565b60405180910390f35b61015d60048036038101906101589190611a18565b6105aa565b005b61017960048036038101906101749190611847565b610914565b005b610183610a34565b604051610190919061182e565b60405180910390f35b6101b360048036038101906101ae9190611b6f565b610cc7565b005b6101bd6113b7565b6040516101ca919061182e565b60405180910390f35b6101ed60048036038101906101e89190611d8d565b6113bd565b6040516101fa919061182e565b60405180910390f35b61020b6113d9565b6040516102189190611e2f565b60405180910390f35b5f60045f8481526020019081526020015f20905082815f01541461027a576040517f08c379a000000000000000000000000000000000000000000000000000000000815260040161027190611ea2565b60405180910390fd5b818160050181905550505050565b6005602052815f5260405f2081815481106102a1575f80fd5b905f5260205f20015f91509150505481565b5f60045f8381526020019081526020015f209050600115158160080160149054906101000a900460ff1615151461031f576040517f08c379a000000000000000000000000000000000000000000000000000000000815260040161031690611f0a565b60405180910390fd5b610328826113fc565b7f6a2d58f48f0bc03d33f9cea945a7ec99d443e5a0537350da563ba1f36db4fa24826040516103579190611f98565b60405180910390a15050565b61036b6116a2565b5f8211801561037c57506003548211155b6103bb576040517f08c379a00000000000000000000000000000000000000000000000000000000081526004016103b29061200e565b60405180910390fd5b60045f8381526020019081526020015f20604051806101400160405290815f82015481526020016001820180546103f190612059565b80601f016020809104026020016040519081016040528092919081815260200182805461041d90612059565b80156104685780601f1061043f57610100808354040283529160200191610468565b820191905f5260205f20905b81548152906001019060200180831161044b57829003601f168201915b5050505050815260200160028201805461048190612059565b80601f01602080910402602001604051908101604052809291908181526020018280546104ad90612059565b80156104f85780601f106104cf576101008083540402835291602001916104f8565b820191905f5260205f20905b8154815290600101906020018083116104db57829003601f168201915b505050505081526020016003820154815260200160048201548152602001600582015481526020016006820154815260200160078201548152602001600882015f9054906101000a900473ffffffffffffffffffffffffffffffffffffffff1673ffffffffffffffffffffffffffffffffffffffff1673ffffffffffffffffffffffffffffffffffffffff1681526020016008820160149054906101000a900460ff1615151515815250509050919050565b5f60055f8373ffffffffffffffffffffffffffffffffffffffff1673ffffffffffffffffffffffffffffffffffffffff1681526020019081526020015f2080548060200260200160405190810160405280929190818152602001828054801561063057602002820191905f5260205f20905b81548152602001906001019080831161061c575b505050505090505f81511161067a576040517f08c379a0000000000000000000000000000000000000000000000000000000008152600401610671906120f9565b60405180910390fd5b5f5b815181101561090f575f82828151811061069957610698612117565b5b602002602001015190505f60045f8381526020019081526020015f20604051806101400160405290815f82015481526020016001820180546106da90612059565b80601f016020809104026020016040519081016040528092919081815260200182805461070690612059565b80156107515780601f1061072857610100808354040283529160200191610751565b820191905f5260205f20905b81548152906001019060200180831161073457829003601f168201915b5050505050815260200160028201805461076a90612059565b80601f016020809104026020016040519081016040528092919081815260200182805461079690612059565b80156107e15780601f106107b8576101008083540402835291602001916107e1565b820191905f5260205f20905b8154815290600101906020018083116107c457829003601f168201915b505050505081526020016003820154815260200160048201548152602001600582015481526020016006820154815260200160078201548152602001600882015f9054906101000a900473ffffffffffffffffffffffffffffffffffffffff1673ffffffffffffffffffffffffffffffffffffffff1673ffffffffffffffffffffffffffffffffffffffff1681526020016008820160149054906101000a900460ff16151515158152505090507f8f6f3a26b5daffc95e1f342d18e1af6fa9ffa1f75ced6e001b199d08e1933fcb815f015182602001518360400151846060015185608001518660a001518760c001518860e001518961010001518a61012001516040516108f89a9998979695949392919061219a565b60405180910390a15050808060010191505061067c565b505050565b805f60045f8381526020019081526020015f209050806004015481600601548260050154610942919061226f565b1115610983576040517f08c379a000000000000000000000000000000000000000000000000000000000815260040161097a906122ec565b60405180910390fd5b5f60045f8581526020019081526020015f2090505f15158160080160149054906101000a900460ff161515146109ee576040517f08c379a00000000000000000000000000000000000000000000000000000000081526004016109e590612354565b60405180910390fd5b6109f7846113fc565b7f916898311b7bd03c784627f7278dbce7ce91f3378dc4359b8b1568568a1e7c8484604051610a2691906123e2565b60405180910390a150505050565b5f805f90505f600190505b6003548111610cbf573373ffffffffffffffffffffffffffffffffffffffff1660045f8381526020019081526020015f206008015f9054906101000a900473ffffffffffffffffffffffffffffffffffffffff1673ffffffffffffffffffffffffffffffffffffffff1603610cac57610c9e60045f8381526020019081526020015f20604051806101400160405290815f8201548152602001600182018054610ae790612059565b80601f0160208091040260200160405190810160405280929190818152602001828054610b1390612059565b8015610b5e5780601f10610b3557610100808354040283529160200191610b5e565b820191905f5260205f20905b815481529060010190602001808311610b4157829003601f168201915b50505050508152602001600282018054610b7790612059565b80601f0160208091040260200160405190810160405280929190818152602001828054610ba390612059565b8015610bee5780601f10610bc557610100808354040283529160200191610bee565b820191905f5260205f20905b815481529060010190602001808311610bd157829003601f168201915b505050505081526020016003820154815260200160048201548152602001600582015481526020016006820154815260200160078201548152602001600882015f9054906101000a900473ffffffffffffffffffffffffffffffffffffffff1673ffffffffffffffffffffffffffffffffffffffff1673ffffffffffffffffffffffffffffffffffffffff1681526020016008820160149054906101000a900460ff1615151515815250506113bd565b82610ca9919061226f565b91505b8080610cb79061240e565b915050610a3f565b508091505090565b82805f8054906101000a900473ffffffffffffffffffffffffffffffffffffffff1673ffffffffffffffffffffffffffffffffffffffff166370a08231336040518263ffffffff1660e01b8152600401610d219190612455565b602060405180830381865afa158015610d3c573d5f803e3d5ffd5b505050506040513d601f19601f82011682018060405250810190610d609190612482565b1015610e015f8054906101000a900473ffffffffffffffffffffffffffffffffffffffff1673ffffffffffffffffffffffffffffffffffffffff166370a08231336040518263ffffffff1660e01b8152600401610dbd9190612455565b602060405180830381865afa158015610dd8573d5f803e3d5ffd5b505050506040513d601f19601f82011682018060405250810190610dfc9190612482565b611487565b610e0a83611487565b604051602001610e1b929190612611565b60405160208183030381529060405290610e6b576040517f08c379a0000000000000000000000000000000000000000000000000000000008152600401610e629190612655565b60405180910390fd5b5085600181604051610e7d9190612675565b90815260200160405180910390205f9054906101000a900460ff16610ed7576040517f08c379a0000000000000000000000000000000000000000000000000000000008152600401610ece906126d5565b60405180910390fd5b85335f8054906101000a900473ffffffffffffffffffffffffffffffffffffffff1673ffffffffffffffffffffffffffffffffffffffff16634763fbd2826040518263ffffffff1660e01b8152600401610f319190612455565b602060405180830381865afa158015610f4c573d5f803e3d5ffd5b505050506040513d601f19601f82011682018060405250810190610f709190612482565b8211610fb1576040517f08c379a0000000000000000000000000000000000000000000000000000000008152600401610fa890612763565b60405180910390fd5b60035f815480929190610fc39061240e565b91905055505f60405180610140016040528060035481526020018c81526020018b81526020018a81526020018981526020015f815260200188815260200162015180886110109190612781565b81526020013373ffffffffffffffffffffffffffffffffffffffff1681526020015f151581525090505f611042610a34565b90505f61104e836113bd565b9050808261105c919061226f565b91505f805f9054906101000a900473ffffffffffffffffffffffffffffffffffffffff1673ffffffffffffffffffffffffffffffffffffffff1663b6f7132f336040518263ffffffff1660e01b81526004016110b89190612455565b602060405180830381865afa1580156110d3573d5f803e3d5ffd5b505050506040513d601f19601f820116820180604052508101906110f79190612482565b90508281101561113c576040517f08c379a00000000000000000000000000000000000000000000000000000000081526004016111339061287e565b60405180910390fd5b3373ffffffffffffffffffffffffffffffffffffffff167f04484b36e875b9c97f73d7144393b0b9b54fe28058cb0f612a10b50932e7db5b5f8054906101000a900473ffffffffffffffffffffffffffffffffffffffff1673ffffffffffffffffffffffffffffffffffffffff1663b6f7132f336040518263ffffffff1660e01b81526004016111cc9190612455565b602060405180830381865afa1580156111e7573d5f803e3d5ffd5b505050506040513d601f19601f8201168201806040525081019061120b9190612482565b8560405161121a92919061289c565b60405180910390a28360045f60035481526020019081526020015f205f820151815f015560208201518160010190816112539190612a57565b5060408201518160020190816112699190612a57565b50606082015181600301556080820151816004015560a0820151816005015560c0820151816006015560e08201518160070155610100820151816008015f6101000a81548173ffffffffffffffffffffffffffffffffffffffff021916908373ffffffffffffffffffffffffffffffffffffffff1602179055506101208201518160080160146101000a81548160ff02191690831515021790555090505060055f3373ffffffffffffffffffffffffffffffffffffffff1673ffffffffffffffffffffffffffffffffffffffff1681526020019081526020015f20600354908060018154018082558091505060019003905f5260205f20015f90919091909150557fe060903a71989416db77650c9585adbae8f4fc8633a778a547d25e3c78789f4c6003548f3360405161139f93929190612b26565b60405180910390a15050505050505050505050505050565b60035481565b5f816080015182606001516113d29190612781565b9050919050565b5f8054906101000a900473ffffffffffffffffffffffffffffffffffffffff1681565b5f60045f8381526020019081526020015f20905081815f015414611455576040517f08c379a000000000000000000000000000000000000000000000000000000000815260040161144c90611ea2565b60405180910390fd5b8060080160149054906101000a900460ff16158160080160146101000a81548160ff0219169083151502179055505050565b60605f600161149584611551565b0190505f8167ffffffffffffffff8111156114b3576114b2611a4b565b5b6040519080825280601f01601f1916602001820160405280156114e55781602001600182028036833780820191505090505b5090505f82602001820190505b600115611546578080600190039150507f3031323334353637383961626364656600000000000000000000000000000000600a86061a8153600a858161153b5761153a612b62565b5b0494505f85036114f2575b819350505050919050565b5f805f90507a184f03e93ff9f4daa797ed6e38ed64bf6a1f01000000000000000083106115ad577a184f03e93ff9f4daa797ed6e38ed64bf6a1f01000000000000000083816115a3576115a2612b62565b5b0492506040810190505b6d04ee2d6d415b85acef810000000083106115ea576d04ee2d6d415b85acef810000000083816115e0576115df612b62565b5b0492506020810190505b662386f26fc10000831061161957662386f26fc10000838161160f5761160e612b62565b5b0492506010810190505b6305f5e1008310611642576305f5e100838161163857611637612b62565b5b0492506008810190505b612710831061166757612710838161165d5761165c612b62565b5b0492506004810190505b6064831061168a57606483816116805761167f612b62565b5b0492506002810190505b600a8310611699576001810190505b80915050919050565b6040518061014001604052805f815260200160608152602001606081526020015f81526020015f81526020015f81526020015f81526020015f81526020015f73ffffffffffffffffffffffffffffffffffffffff1681526020015f151581525090565b5f604051905090565b5f80fd5b5f80fd5b5f819050919050565b61172881611716565b8114611732575f80fd5b50565b5f813590506117438161171f565b92915050565b5f806040838503121561175f5761175e61170e565b5b5f61176c85828601611735565b925050602061177d85828601611735565b9150509250929050565b5f73ffffffffffffffffffffffffffffffffffffffff82169050919050565b5f6117b082611787565b9050919050565b6117c0816117a6565b81146117ca575f80fd5b50565b5f813590506117db816117b7565b92915050565b5f80604083850312156117f7576117f661170e565b5b5f611804858286016117cd565b925050602061181585828601611735565b9150509250929050565b61182881611716565b82525050565b5f6020820190506118415f83018461181f565b92915050565b5f6020828403121561185c5761185b61170e565b5b5f61186984828501611735565b91505092915050565b61187b81611716565b82525050565b5f81519050919050565b5f82825260208201905092915050565b8281835e5f83830152505050565b5f601f19601f8301169050919050565b5f6118c382611881565b6118cd818561188b565b93506118dd81856020860161189b565b6118e6816118a9565b840191505092915050565b6118fa816117a6565b82525050565b5f8115159050919050565b61191481611900565b82525050565b5f61014083015f8301516119305f860182611872565b506020830151848203602086015261194882826118b9565b9150506040830151848203604086015261196282826118b9565b91505060608301516119776060860182611872565b50608083015161198a6080860182611872565b5060a083015161199d60a0860182611872565b5060c08301516119b060c0860182611872565b5060e08301516119c360e0860182611872565b506101008301516119d86101008601826118f1565b506101208301516119ed61012086018261190b565b508091505092915050565b5f6020820190508181035f830152611a10818461191a565b905092915050565b5f60208284031215611a2d57611a2c61170e565b5b5f611a3a848285016117cd565b91505092915050565b5f80fd5b5f80fd5b7f4e487b71000000000000000000000000000000000000000000000000000000005f52604160045260245ffd5b611a81826118a9565b810181811067ffffffffffffffff82111715611aa057611a9f611a4b565b5b80604052505050565b5f611ab2611705565b9050611abe8282611a78565b919050565b5f67ffffffffffffffff821115611add57611adc611a4b565b5b611ae6826118a9565b9050602081019050919050565b828183375f83830152505050565b5f611b13611b0e84611ac3565b611aa9565b905082815260208101848484011115611b2f57611b2e611a47565b5b611b3a848285611af3565b509392505050565b5f82601f830112611b5657611b55611a43565b5b8135611b66848260208601611b01565b91505092915050565b5f805f805f8060c08789031215611b8957611b8861170e565b5b5f87013567ffffffffffffffff811115611ba657611ba5611712565b5b611bb289828a01611b42565b965050602087013567ffffffffffffffff811115611bd357611bd2611712565b5b611bdf89828a01611b42565b9550506040611bf089828a01611735565b9450506060611c0189828a01611735565b9350506080611c1289828a01611735565b92505060a0611c2389828a01611735565b9150509295509295509295565b5f80fd5b5f80fd5b611c4181611900565b8114611c4b575f80fd5b50565b5f81359050611c5c81611c38565b92915050565b5f6101408284031215611c7857611c77611c30565b5b611c83610140611aa9565b90505f611c9284828501611735565b5f83015250602082013567ffffffffffffffff811115611cb557611cb4611c34565b5b611cc184828501611b42565b602083015250604082013567ffffffffffffffff811115611ce557611ce4611c34565b5b611cf184828501611b42565b6040830152506060611d0584828501611735565b6060830152506080611d1984828501611735565b60808301525060a0611d2d84828501611735565b60a08301525060c0611d4184828501611735565b60c08301525060e0611d5584828501611735565b60e083015250610100611d6a848285016117cd565b61010083015250610120611d8084828501611c4e565b6101208301525092915050565b5f60208284031215611da257611da161170e565b5b5f82013567ffffffffffffffff811115611dbf57611dbe611712565b5b611dcb84828501611c62565b91505092915050565b5f819050919050565b5f611df7611df2611ded84611787565b611dd4565b611787565b9050919050565b5f611e0882611ddd565b9050919050565b5f611e1982611dfe565b9050919050565b611e2981611e0f565b82525050565b5f602082019050611e425f830184611e20565b92915050565b5f82825260208201905092915050565b7f506f6c696379206e6f7420666f756e64000000000000000000000000000000005f82015250565b5f611e8c601083611e48565b9150611e9782611e58565b602082019050919050565b5f6020820190508181035f830152611eb981611e80565b9050919050565b7f506f6c69637920697320616c72656164792064656c69737465640000000000005f82015250565b5f611ef4601a83611e48565b9150611eff82611ec0565b602082019050919050565b5f6020820190508181035f830152611f2181611ee8565b9050919050565b7f506f6c69637920686173206265656e2064656c697374656420737563636573735f8201527f66756c6c79210000000000000000000000000000000000000000000000000000602082015250565b5f611f82602683611e48565b9150611f8d82611f28565b604082019050919050565b5f604082019050611fab5f83018461181f565b8181036020830152611fbc81611f76565b905092915050565b7f496e76616c696420706f6c6963792049440000000000000000000000000000005f82015250565b5f611ff8601183611e48565b915061200382611fc4565b602082019050919050565b5f6020820190508181035f83015261202581611fec565b9050919050565b7f4e487b71000000000000000000000000000000000000000000000000000000005f52602260045260245ffd5b5f600282049050600182168061207057607f821691505b6020821081036120835761208261202c565b5b50919050565b7f4c697374657220686173206e6f74206372656174656420616e7920706f6c69635f8201527f6965730000000000000000000000000000000000000000000000000000000000602082015250565b5f6120e3602383611e48565b91506120ee82612089565b604082019050919050565b5f6020820190508181035f830152612110816120d7565b9050919050565b7f4e487b71000000000000000000000000000000000000000000000000000000005f52603260045260245ffd5b5f61214e82611881565b6121588185611e48565b935061216881856020860161189b565b612171816118a9565b840191505092915050565b612185816117a6565b82525050565b61219481611900565b82525050565b5f610140820190506121ae5f83018d61181f565b81810360208301526121c0818c612144565b905081810360408301526121d4818b612144565b90506121e3606083018a61181f565b6121f0608083018961181f565b6121fd60a083018861181f565b61220a60c083018761181f565b61221760e083018661181f565b61222561010083018561217c565b61223361012083018461218b565b9b9a5050505050505050505050565b7f4e487b71000000000000000000000000000000000000000000000000000000005f52601160045260245ffd5b5f61227982611716565b915061228483611716565b925082820190508082111561229c5761229b612242565b5b92915050565b7f596f752063616e6e6f74206c697374207468697320706f6c69637921000000005f82015250565b5f6122d6601c83611e48565b91506122e1826122a2565b602082019050919050565b5f6020820190508181035f830152612303816122ca565b9050919050565b7f506f6c69637920697320616c7265616479206c697374656400000000000000005f82015250565b5f61233e601883611e48565b91506123498261230a565b602082019050919050565b5f6020820190508181035f83015261236b81612332565b9050919050565b7f506f6c69637920686173206265656e206c6973746564207375636365737366755f8201527f6c6c792100000000000000000000000000000000000000000000000000000000602082015250565b5f6123cc602483611e48565b91506123d782612372565b604082019050919050565b5f6040820190506123f55f83018461181f565b8181036020830152612406816123c0565b905092915050565b5f61241882611716565b91507fffffffffffffffffffffffffffffffffffffffffffffffffffffffffffffffff820361244a57612449612242565b5b600182019050919050565b5f6020820190506124685f83018461217c565b92915050565b5f8151905061247c8161171f565b92915050565b5f602082840312156124975761249661170e565b5b5f6124a48482850161246e565b91505092915050565b5f81905092915050565b7f596f752063757272656e746c79206861766520000000000000000000000000005f82015250565b5f6124eb6013836124ad565b91506124f6826124b7565b601382019050919050565b5f61250b82611881565b61251581856124ad565b935061252581856020860161189b565b80840191505092915050565b7f20746f6b656e732c207768696368206973206e6f7420656e6f75676820746f205f8201527f637265617465206120706f6c6963792077697468206d617820706f6f6c20766160208201527f6c7565206f662000000000000000000000000000000000000000000000000000604082015250565b5f6125b16047836124ad565b91506125bc82612531565b604782019050919050565b7f20746f6b656e732e0000000000000000000000000000000000000000000000005f82015250565b5f6125fb6008836124ad565b9150612606826125c7565b600882019050919050565b5f61261b826124df565b91506126278285612501565b9150612632826125a5565b915061263e8284612501565b9150612649826125ef565b91508190509392505050565b5f6020820190508181035f83015261266d8184612144565b905092915050565b5f6126808284612501565b915081905092915050565b7f496e76616c696420706f6c6963792074797065000000000000000000000000005f82015250565b5f6126bf601383611e48565b91506126ca8261268b565b602082019050919050565b5f6020820190508181035f8301526126ec816126b3565b9050919050565b7f596f757220636c61696d206261636b20726174652073686f756c6420626520685f8201527f6967686572207468616e20796f757220636f6e76657273696f6e207261746500602082015250565b5f61274d603f83611e48565b9150612758826126f3565b604082019050919050565b5f6020820190508181035f83015261277a81612741565b9050919050565b5f61278b82611716565b915061279683611716565b92508282026127a481611716565b915082820484148315176127bb576127ba612242565b5b5092915050565b7f496e73756666696369656e7420636f6c6c61746572616c3a20726564756365205f8201527f746865206d617820706f6f6c2076616c756520666f72207468697320706f6c6960208201527f6379206f7220746f70207570206d6f726520435320746f6b656e7320746f206960408201527f6e63726561736520796f757220636f6c6c61746572616c000000000000000000606082015250565b5f612868607783611e48565b9150612873826127c2565b608082019050919050565b5f6020820190508181035f8301526128958161285c565b9050919050565b5f6040820190506128af5f83018561181f565b6128bc602083018461181f565b9392505050565b5f819050815f5260205f209050919050565b5f6020601f8301049050919050565b5f82821b905092915050565b5f6008830261291f7fffffffffffffffffffffffffffffffffffffffffffffffffffffffffffffffff826128e4565b61292986836128e4565b95508019841693508086168417925050509392505050565b5f61295b61295661295184611716565b611dd4565b611716565b9050919050565b5f819050919050565b61297483612941565b61298861298082612962565b8484546128f0565b825550505050565b5f90565b61299c612990565b6129a781848461296b565b505050565b5b818110156129ca576129bf5f82612994565b6001810190506129ad565b5050565b601f821115612a0f576129e0816128c3565b6129e9846128d5565b810160208510156129f8578190505b612a0c612a04856128d5565b8301826129ac565b50505b505050565b5f82821c905092915050565b5f612a2f5f1984600802612a14565b1980831691505092915050565b5f612a478383612a20565b9150826002028217905092915050565b612a6082611881565b67ffffffffffffffff811115612a7957612a78611a4b565b5b612a838254612059565b612a8e8282856129ce565b5f60209050601f831160018114612abf575f8415612aad578287015190505b612ab78582612a3c565b865550612b1e565b601f198416612acd866128c3565b5f5b82811015612af457848901518255600182019150602085019450602081019050612acf565b86831015612b115784890151612b0d601f891682612a20565b8355505b6001600288020188555050505b505050505050565b5f606082019050612b395f83018661181f565b8181036020830152612b4b8185612144565b9050612b5a604083018461217c565b949350505050565b7f4e487b71000000000000000000000000000000000000000000000000000000005f52601260045260245ffdfea26469706673582212202cce2923c00b48ad7c9d4fcd2e2ed70ec898fbf410d63089228e5788d3be5d7364736f6c634300081a0033",
			"opcodes": "PUSH1 0x80 PUSH1 0x40 MSTORE TIMESTAMP PUSH1 0x2 SSTORE CALLVALUE DUP1 ISZERO PUSH2 0x13 JUMPI PUSH0 DUP1 REVERT JUMPDEST POP PUSH1 0x40 MLOAD PUSH2 0x2EA3 CODESIZE SUB DUP1 PUSH2 0x2EA3 DUP4 CODECOPY DUP2 DUP2 ADD PUSH1 0x40 MSTORE DUP2 ADD SWAP1 PUSH2 0x35 SWAP2 SWAP1 PUSH2 0x182 JUMP JUMPDEST DUP1 PUSH0 DUP1 PUSH2 0x100 EXP DUP2 SLOAD DUP2 PUSH20 0xFFFFFFFFFFFFFFFFFFFFFFFFFFFFFFFFFFFFFFFF MUL NOT AND SWAP1 DUP4 PUSH20 0xFFFFFFFFFFFFFFFFFFFFFFFFFFFFFFFFFFFFFFFF AND MUL OR SWAP1 SSTORE POP PUSH1 0x1 DUP1 PUSH1 0x40 MLOAD PUSH2 0x83 SWAP1 PUSH2 0x201 JUMP JUMPDEST SWAP1 DUP2 MSTORE PUSH1 0x20 ADD PUSH1 0x40 MLOAD DUP1 SWAP2 SUB SWAP1 KECCAK256 PUSH0 PUSH2 0x100 EXP DUP2 SLOAD DUP2 PUSH1 0xFF MUL NOT AND SWAP1 DUP4 ISZERO ISZERO MUL OR SWAP1 SSTORE POP PUSH1 0x1 DUP1 PUSH1 0x40 MLOAD PUSH2 0xB6 SWAP1 PUSH2 0x25F JUMP JUMPDEST SWAP1 DUP2 MSTORE PUSH1 0x20 ADD PUSH1 0x40 MLOAD DUP1 SWAP2 SUB SWAP1 KECCAK256 PUSH0 PUSH2 0x100 EXP DUP2 SLOAD DUP2 PUSH1 0xFF MUL NOT AND SWAP1 DUP4 ISZERO ISZERO MUL OR SWAP1 SSTORE POP PUSH1 0x1 DUP1 PUSH1 0x40 MLOAD PUSH2 0xE9 SWAP1 PUSH2 0x2BD JUMP JUMPDEST SWAP1 DUP2 MSTORE PUSH1 0x20 ADD PUSH1 0x40 MLOAD DUP1 SWAP2 SUB SWAP1 KECCAK256 PUSH0 PUSH2 0x100 EXP DUP2 SLOAD DUP2 PUSH1 0xFF MUL NOT AND SWAP1 DUP4 ISZERO ISZERO MUL OR SWAP1 SSTORE POP POP PUSH2 0x2D1 JUMP JUMPDEST PUSH0 DUP1 REVERT JUMPDEST PUSH0 PUSH20 0xFFFFFFFFFFFFFFFFFFFFFFFFFFFFFFFFFFFFFFFF DUP3 AND SWAP1 POP SWAP2 SWAP1 POP JUMP JUMPDEST PUSH0 PUSH2 0x140 DUP3 PUSH2 0x117 JUMP JUMPDEST SWAP1 POP SWAP2 SWAP1 POP JUMP JUMPDEST PUSH0 PUSH2 0x151 DUP3 PUSH2 0x136 JUMP JUMPDEST SWAP1 POP SWAP2 SWAP1 POP JUMP JUMPDEST PUSH2 0x161 DUP2 PUSH2 0x147 JUMP JUMPDEST DUP2 EQ PUSH2 0x16B JUMPI PUSH0 DUP1 REVERT JUMPDEST POP JUMP JUMPDEST PUSH0 DUP2 MLOAD SWAP1 POP PUSH2 0x17C DUP2 PUSH2 0x158 JUMP JUMPDEST SWAP3 SWAP2 POP POP JUMP JUMPDEST PUSH0 PUSH1 0x20 DUP3 DUP5 SUB SLT ISZERO PUSH2 0x197 JUMPI PUSH2 0x196 PUSH2 0x113 JUMP JUMPDEST JUMPDEST PUSH0 PUSH2 0x1A4 DUP5 DUP3 DUP6 ADD PUSH2 0x16E JUMP JUMPDEST SWAP2 POP POP SWAP3 SWAP2 POP POP JUMP JUMPDEST PUSH0 DUP2 SWAP1 POP SWAP3 SWAP2 POP POP JUMP JUMPDEST PUSH32 0x54726176656C0000000000000000000000000000000000000000000000000000 PUSH0 DUP3 ADD MSTORE POP JUMP JUMPDEST PUSH0 PUSH2 0x1EB PUSH1 0x6 DUP4 PUSH2 0x1AD JUMP JUMPDEST SWAP2 POP PUSH2 0x1F6 DUP3 PUSH2 0x1B7 JUMP JUMPDEST PUSH1 0x6 DUP3 ADD SWAP1 POP SWAP2 SWAP1 POP JUMP JUMPDEST PUSH0 PUSH2 0x20B DUP3 PUSH2 0x1DF JUMP JUMPDEST SWAP2 POP DUP2 SWAP1 POP SWAP2 SWAP1 POP JUMP JUMPDEST PUSH32 0x50726F7065727479000000000000000000000000000000000000000000000000 PUSH0 DUP3 ADD MSTORE POP JUMP JUMPDEST PUSH0 PUSH2 0x249 PUSH1 0x8 DUP4 PUSH2 0x1AD JUMP JUMPDEST SWAP2 POP PUSH2 0x254 DUP3 PUSH2 0x215 JUMP JUMPDEST PUSH1 0x8 DUP3 ADD SWAP1 POP SWAP2 SWAP1 POP JUMP JUMPDEST PUSH0 PUSH2 0x269 DUP3 PUSH2 0x23D JUMP JUMPDEST SWAP2 POP DUP2 SWAP1 POP SWAP2 SWAP1 POP JUMP JUMPDEST PUSH32 0x4C69666500000000000000000000000000000000000000000000000000000000 PUSH0 DUP3 ADD MSTORE POP JUMP JUMPDEST PUSH0 PUSH2 0x2A7 PUSH1 0x4 DUP4 PUSH2 0x1AD JUMP JUMPDEST SWAP2 POP PUSH2 0x2B2 DUP3 PUSH2 0x273 JUMP JUMPDEST PUSH1 0x4 DUP3 ADD SWAP1 POP SWAP2 SWAP1 POP JUMP JUMPDEST PUSH0 PUSH2 0x2C7 DUP3 PUSH2 0x29B JUMP JUMPDEST SWAP2 POP DUP2 SWAP1 POP SWAP2 SWAP1 POP JUMP JUMPDEST PUSH2 0x2BC5 DUP1 PUSH2 0x2DE PUSH0 CODECOPY PUSH0 RETURN INVALID PUSH1 0x80 PUSH1 0x40 MSTORE CALLVALUE DUP1 ISZERO PUSH2 0xF JUMPI PUSH0 DUP1 REVERT JUMPDEST POP PUSH1 0x4 CALLDATASIZE LT PUSH2 0xA7 JUMPI PUSH0 CALLDATALOAD PUSH1 0xE0 SHR DUP1 PUSH4 0x5B2A3646 GT PUSH2 0x6F JUMPI DUP1 PUSH4 0x5B2A3646 EQ PUSH2 0x15F JUMPI DUP1 PUSH4 0x9D3DB268 EQ PUSH2 0x17B JUMPI DUP1 PUSH4 0xA719A9CB EQ PUSH2 0x199 JUMPI DUP1 PUSH4 0xDE54D429 EQ PUSH2 0x1B5 JUMPI DUP1 PUSH4 0xDE8CBA8D EQ PUSH2 0x1D3 JUMPI DUP1 PUSH4 0xFC0C546A EQ PUSH2 0x203 JUMPI PUSH2 0xA7 JUMP JUMPDEST DUP1 PUSH4 0xC6AB3FA EQ PUSH2 0xAB JUMPI DUP1 PUSH4 0x16807D31 EQ PUSH2 0xC7 JUMPI DUP1 PUSH4 0x22191F72 EQ PUSH2 0xF7 JUMPI DUP1 PUSH4 0x2B07FCE3 EQ PUSH2 0x113 JUMPI DUP1 PUSH4 0x420DEAED EQ PUSH2 0x143 JUMPI JUMPDEST PUSH0 DUP1 REVERT JUMPDEST PUSH2 0xC5 PUSH1 0x4 DUP1 CALLDATASIZE SUB DUP2 ADD SWAP1 PUSH2 0xC0 SWAP2 SWAP1 PUSH2 0x1749 JUMP JUMPDEST PUSH2 0x221 JUMP JUMPDEST STOP JUMPDEST PUSH2 0xE1 PUSH1 0x4 DUP1 CALLDATASIZE SUB DUP2 ADD SWAP1 PUSH2 0xDC SWAP2 SWAP1 PUSH2 0x17E1 JUMP JUMPDEST PUSH2 0x288 JUMP JUMPDEST PUSH1 0x40 MLOAD PUSH2 0xEE SWAP2 SWAP1 PUSH2 0x182E JUMP JUMPDEST PUSH1 0x40 MLOAD DUP1 SWAP2 SUB SWAP1 RETURN JUMPDEST PUSH2 0x111 PUSH1 0x4 DUP1 CALLDATASIZE SUB DUP2 ADD SWAP1 PUSH2 0x10C SWAP2 SWAP1 PUSH2 0x1847 JUMP JUMPDEST PUSH2 0x2B3 JUMP JUMPDEST STOP JUMPDEST PUSH2 0x12D PUSH1 0x4 DUP1 CALLDATASIZE SUB DUP2 ADD SWAP1 PUSH2 0x128 SWAP2 SWAP1 PUSH2 0x1847 JUMP JUMPDEST PUSH2 0x363 JUMP JUMPDEST PUSH1 0x40 MLOAD PUSH2 0x13A SWAP2 SWAP1 PUSH2 0x19F8 JUMP JUMPDEST PUSH1 0x40 MLOAD DUP1 SWAP2 SUB SWAP1 RETURN JUMPDEST PUSH2 0x15D PUSH1 0x4 DUP1 CALLDATASIZE SUB DUP2 ADD SWAP1 PUSH2 0x158 SWAP2 SWAP1 PUSH2 0x1A18 JUMP JUMPDEST PUSH2 0x5AA JUMP JUMPDEST STOP JUMPDEST PUSH2 0x179 PUSH1 0x4 DUP1 CALLDATASIZE SUB DUP2 ADD SWAP1 PUSH2 0x174 SWAP2 SWAP1 PUSH2 0x1847 JUMP JUMPDEST PUSH2 0x914 JUMP JUMPDEST STOP JUMPDEST PUSH2 0x183 PUSH2 0xA34 JUMP JUMPDEST PUSH1 0x40 MLOAD PUSH2 0x190 SWAP2 SWAP1 PUSH2 0x182E JUMP JUMPDEST PUSH1 0x40 MLOAD DUP1 SWAP2 SUB SWAP1 RETURN JUMPDEST PUSH2 0x1B3 PUSH1 0x4 DUP1 CALLDATASIZE SUB DUP2 ADD SWAP1 PUSH2 0x1AE SWAP2 SWAP1 PUSH2 0x1B6F JUMP JUMPDEST PUSH2 0xCC7 JUMP JUMPDEST STOP JUMPDEST PUSH2 0x1BD PUSH2 0x13B7 JUMP JUMPDEST PUSH1 0x40 MLOAD PUSH2 0x1CA SWAP2 SWAP1 PUSH2 0x182E JUMP JUMPDEST PUSH1 0x40 MLOAD DUP1 SWAP2 SUB SWAP1 RETURN JUMPDEST PUSH2 0x1ED PUSH1 0x4 DUP1 CALLDATASIZE SUB DUP2 ADD SWAP1 PUSH2 0x1E8 SWAP2 SWAP1 PUSH2 0x1D8D JUMP JUMPDEST PUSH2 0x13BD JUMP JUMPDEST PUSH1 0x40 MLOAD PUSH2 0x1FA SWAP2 SWAP1 PUSH2 0x182E JUMP JUMPDEST PUSH1 0x40 MLOAD DUP1 SWAP2 SUB SWAP1 RETURN JUMPDEST PUSH2 0x20B PUSH2 0x13D9 JUMP JUMPDEST PUSH1 0x40 MLOAD PUSH2 0x218 SWAP2 SWAP1 PUSH2 0x1E2F JUMP JUMPDEST PUSH1 0x40 MLOAD DUP1 SWAP2 SUB SWAP1 RETURN JUMPDEST PUSH0 PUSH1 0x4 PUSH0 DUP5 DUP2 MSTORE PUSH1 0x20 ADD SWAP1 DUP2 MSTORE PUSH1 0x20 ADD PUSH0 KECCAK256 SWAP1 POP DUP3 DUP2 PUSH0 ADD SLOAD EQ PUSH2 0x27A JUMPI PUSH1 0x40 MLOAD PUSH32 0x8C379A000000000000000000000000000000000000000000000000000000000 DUP2 MSTORE PUSH1 0x4 ADD PUSH2 0x271 SWAP1 PUSH2 0x1EA2 JUMP JUMPDEST PUSH1 0x40 MLOAD DUP1 SWAP2 SUB SWAP1 REVERT JUMPDEST DUP2 DUP2 PUSH1 0x5 ADD DUP2 SWAP1 SSTORE POP POP POP POP JUMP JUMPDEST PUSH1 0x5 PUSH1 0x20 MSTORE DUP2 PUSH0 MSTORE PUSH1 0x40 PUSH0 KECCAK256 DUP2 DUP2 SLOAD DUP2 LT PUSH2 0x2A1 JUMPI PUSH0 DUP1 REVERT JUMPDEST SWAP1 PUSH0 MSTORE PUSH1 0x20 PUSH0 KECCAK256 ADD PUSH0 SWAP2 POP SWAP2 POP POP SLOAD DUP2 JUMP JUMPDEST PUSH0 PUSH1 0x4 PUSH0 DUP4 DUP2 MSTORE PUSH1 0x20 ADD SWAP1 DUP2 MSTORE PUSH1 0x20 ADD PUSH0 KECCAK256 SWAP1 POP PUSH1 0x1 ISZERO ISZERO DUP2 PUSH1 0x8 ADD PUSH1 0x14 SWAP1 SLOAD SWAP1 PUSH2 0x100 EXP SWAP1 DIV PUSH1 0xFF AND ISZERO ISZERO EQ PUSH2 0x31F JUMPI PUSH1 0x40 MLOAD PUSH32 0x8C379A000000000000000000000000000000000000000000000000000000000 DUP2 MSTORE PUSH1 0x4 ADD PUSH2 0x316 SWAP1 PUSH2 0x1F0A JUMP JUMPDEST PUSH1 0x40 MLOAD DUP1 SWAP2 SUB SWAP1 REVERT JUMPDEST PUSH2 0x328 DUP3 PUSH2 0x13FC JUMP JUMPDEST PUSH32 0x6A2D58F48F0BC03D33F9CEA945A7EC99D443E5A0537350DA563BA1F36DB4FA24 DUP3 PUSH1 0x40 MLOAD PUSH2 0x357 SWAP2 SWAP1 PUSH2 0x1F98 JUMP JUMPDEST PUSH1 0x40 MLOAD DUP1 SWAP2 SUB SWAP1 LOG1 POP POP JUMP JUMPDEST PUSH2 0x36B PUSH2 0x16A2 JUMP JUMPDEST PUSH0 DUP3 GT DUP1 ISZERO PUSH2 0x37C JUMPI POP PUSH1 0x3 SLOAD DUP3 GT ISZERO JUMPDEST PUSH2 0x3BB JUMPI PUSH1 0x40 MLOAD PUSH32 0x8C379A000000000000000000000000000000000000000000000000000000000 DUP2 MSTORE PUSH1 0x4 ADD PUSH2 0x3B2 SWAP1 PUSH2 0x200E JUMP JUMPDEST PUSH1 0x40 MLOAD DUP1 SWAP2 SUB SWAP1 REVERT JUMPDEST PUSH1 0x4 PUSH0 DUP4 DUP2 MSTORE PUSH1 0x20 ADD SWAP1 DUP2 MSTORE PUSH1 0x20 ADD PUSH0 KECCAK256 PUSH1 0x40 MLOAD DUP1 PUSH2 0x140 ADD PUSH1 0x40 MSTORE SWAP1 DUP2 PUSH0 DUP3 ADD SLOAD DUP2 MSTORE PUSH1 0x20 ADD PUSH1 0x1 DUP3 ADD DUP1 SLOAD PUSH2 0x3F1 SWAP1 PUSH2 0x2059 JUMP JUMPDEST DUP1 PUSH1 0x1F ADD PUSH1 0x20 DUP1 SWAP2 DIV MUL PUSH1 0x20 ADD PUSH1 0x40 MLOAD SWAP1 DUP2 ADD PUSH1 0x40 MSTORE DUP1 SWAP3 SWAP2 SWAP1 DUP2 DUP2 MSTORE PUSH1 0x20 ADD DUP3 DUP1 SLOAD PUSH2 0x41D SWAP1 PUSH2 0x2059 JUMP JUMPDEST DUP1 ISZERO PUSH2 0x468 JUMPI DUP1 PUSH1 0x1F LT PUSH2 0x43F JUMPI PUSH2 0x100 DUP1 DUP4 SLOAD DIV MUL DUP4 MSTORE SWAP2 PUSH1 0x20 ADD SWAP2 PUSH2 0x468 JUMP JUMPDEST DUP3 ADD SWAP2 SWAP1 PUSH0 MSTORE PUSH1 0x20 PUSH0 KECCAK256 SWAP1 JUMPDEST DUP2 SLOAD DUP2 MSTORE SWAP1 PUSH1 0x1 ADD SWAP1 PUSH1 0x20 ADD DUP1 DUP4 GT PUSH2 0x44B JUMPI DUP3 SWAP1 SUB PUSH1 0x1F AND DUP3 ADD SWAP2 JUMPDEST POP POP POP POP POP DUP2 MSTORE PUSH1 0x20 ADD PUSH1 0x2 DUP3 ADD DUP1 SLOAD PUSH2 0x481 SWAP1 PUSH2 0x2059 JUMP JUMPDEST DUP1 PUSH1 0x1F ADD PUSH1 0x20 DUP1 SWAP2 DIV MUL PUSH1 0x20 ADD PUSH1 0x40 MLOAD SWAP1 DUP2 ADD PUSH1 0x40 MSTORE DUP1 SWAP3 SWAP2 SWAP1 DUP2 DUP2 MSTORE PUSH1 0x20 ADD DUP3 DUP1 SLOAD PUSH2 0x4AD SWAP1 PUSH2 0x2059 JUMP JUMPDEST DUP1 ISZERO PUSH2 0x4F8 JUMPI DUP1 PUSH1 0x1F LT PUSH2 0x4CF JUMPI PUSH2 0x100 DUP1 DUP4 SLOAD DIV MUL DUP4 MSTORE SWAP2 PUSH1 0x20 ADD SWAP2 PUSH2 0x4F8 JUMP JUMPDEST DUP3 ADD SWAP2 SWAP1 PUSH0 MSTORE PUSH1 0x20 PUSH0 KECCAK256 SWAP1 JUMPDEST DUP2 SLOAD DUP2 MSTORE SWAP1 PUSH1 0x1 ADD SWAP1 PUSH1 0x20 ADD DUP1 DUP4 GT PUSH2 0x4DB JUMPI DUP3 SWAP1 SUB PUSH1 0x1F AND DUP3 ADD SWAP2 JUMPDEST POP POP POP POP POP DUP2 MSTORE PUSH1 0x20 ADD PUSH1 0x3 DUP3 ADD SLOAD DUP2 MSTORE PUSH1 0x20 ADD PUSH1 0x4 DUP3 ADD SLOAD DUP2 MSTORE PUSH1 0x20 ADD PUSH1 0x5 DUP3 ADD SLOAD DUP2 MSTORE PUSH1 0x20 ADD PUSH1 0x6 DUP3 ADD SLOAD DUP2 MSTORE PUSH1 0x20 ADD PUSH1 0x7 DUP3 ADD SLOAD DUP2 MSTORE PUSH1 0x20 ADD PUSH1 0x8 DUP3 ADD PUSH0 SWAP1 SLOAD SWAP1 PUSH2 0x100 EXP SWAP1 DIV PUSH20 0xFFFFFFFFFFFFFFFFFFFFFFFFFFFFFFFFFFFFFFFF AND PUSH20 0xFFFFFFFFFFFFFFFFFFFFFFFFFFFFFFFFFFFFFFFF AND PUSH20 0xFFFFFFFFFFFFFFFFFFFFFFFFFFFFFFFFFFFFFFFF AND DUP2 MSTORE PUSH1 0x20 ADD PUSH1 0x8 DUP3 ADD PUSH1 0x14 SWAP1 SLOAD SWAP1 PUSH2 0x100 EXP SWAP1 DIV PUSH1 0xFF AND ISZERO ISZERO ISZERO ISZERO DUP2 MSTORE POP POP SWAP1 POP SWAP2 SWAP1 POP JUMP JUMPDEST PUSH0 PUSH1 0x5 PUSH0 DUP4 PUSH20 0xFFFFFFFFFFFFFFFFFFFFFFFFFFFFFFFFFFFFFFFF AND PUSH20 0xFFFFFFFFFFFFFFFFFFFFFFFFFFFFFFFFFFFFFFFF AND DUP2 MSTORE PUSH1 0x20 ADD SWAP1 DUP2 MSTORE PUSH1 0x20 ADD PUSH0 KECCAK256 DUP1 SLOAD DUP1 PUSH1 0x20 MUL PUSH1 0x20 ADD PUSH1 0x40 MLOAD SWAP1 DUP2 ADD PUSH1 0x40 MSTORE DUP1 SWAP3 SWAP2 SWAP1 DUP2 DUP2 MSTORE PUSH1 0x20 ADD DUP3 DUP1 SLOAD DUP1 ISZERO PUSH2 0x630 JUMPI PUSH1 0x20 MUL DUP3 ADD SWAP2 SWAP1 PUSH0 MSTORE PUSH1 0x20 PUSH0 KECCAK256 SWAP1 JUMPDEST DUP2 SLOAD DUP2 MSTORE PUSH1 0x20 ADD SWAP1 PUSH1 0x1 ADD SWAP1 DUP1 DUP4 GT PUSH2 0x61C JUMPI JUMPDEST POP POP POP POP POP SWAP1 POP PUSH0 DUP2 MLOAD GT PUSH2 0x67A JUMPI PUSH1 0x40 MLOAD PUSH32 0x8C379A000000000000000000000000000000000000000000000000000000000 DUP2 MSTORE PUSH1 0x4 ADD PUSH2 0x671 SWAP1 PUSH2 0x20F9 JUMP JUMPDEST PUSH1 0x40 MLOAD DUP1 SWAP2 SUB SWAP1 REVERT JUMPDEST PUSH0 JUMPDEST DUP2 MLOAD DUP2 LT ISZERO PUSH2 0x90F JUMPI PUSH0 DUP3 DUP3 DUP2 MLOAD DUP2 LT PUSH2 0x699 JUMPI PUSH2 0x698 PUSH2 0x2117 JUMP JUMPDEST JUMPDEST PUSH1 0x20 MUL PUSH1 0x20 ADD ADD MLOAD SWAP1 POP PUSH0 PUSH1 0x4 PUSH0 DUP4 DUP2 MSTORE PUSH1 0x20 ADD SWAP1 DUP2 MSTORE PUSH1 0x20 ADD PUSH0 KECCAK256 PUSH1 0x40 MLOAD DUP1 PUSH2 0x140 ADD PUSH1 0x40 MSTORE SWAP1 DUP2 PUSH0 DUP3 ADD SLOAD DUP2 MSTORE PUSH1 0x20 ADD PUSH1 0x1 DUP3 ADD DUP1 SLOAD PUSH2 0x6DA SWAP1 PUSH2 0x2059 JUMP JUMPDEST DUP1 PUSH1 0x1F ADD PUSH1 0x20 DUP1 SWAP2 DIV MUL PUSH1 0x20 ADD PUSH1 0x40 MLOAD SWAP1 DUP2 ADD PUSH1 0x40 MSTORE DUP1 SWAP3 SWAP2 SWAP1 DUP2 DUP2 MSTORE PUSH1 0x20 ADD DUP3 DUP1 SLOAD PUSH2 0x706 SWAP1 PUSH2 0x2059 JUMP JUMPDEST DUP1 ISZERO PUSH2 0x751 JUMPI DUP1 PUSH1 0x1F LT PUSH2 0x728 JUMPI PUSH2 0x100 DUP1 DUP4 SLOAD DIV MUL DUP4 MSTORE SWAP2 PUSH1 0x20 ADD SWAP2 PUSH2 0x751 JUMP JUMPDEST DUP3 ADD SWAP2 SWAP1 PUSH0 MSTORE PUSH1 0x20 PUSH0 KECCAK256 SWAP1 JUMPDEST DUP2 SLOAD DUP2 MSTORE SWAP1 PUSH1 0x1 ADD SWAP1 PUSH1 0x20 ADD DUP1 DUP4 GT PUSH2 0x734 JUMPI DUP3 SWAP1 SUB PUSH1 0x1F AND DUP3 ADD SWAP2 JUMPDEST POP POP POP POP POP DUP2 MSTORE PUSH1 0x20 ADD PUSH1 0x2 DUP3 ADD DUP1 SLOAD PUSH2 0x76A SWAP1 PUSH2 0x2059 JUMP JUMPDEST DUP1 PUSH1 0x1F ADD PUSH1 0x20 DUP1 SWAP2 DIV MUL PUSH1 0x20 ADD PUSH1 0x40 MLOAD SWAP1 DUP2 ADD PUSH1 0x40 MSTORE DUP1 SWAP3 SWAP2 SWAP1 DUP2 DUP2 MSTORE PUSH1 0x20 ADD DUP3 DUP1 SLOAD PUSH2 0x796 SWAP1 PUSH2 0x2059 JUMP JUMPDEST DUP1 ISZERO PUSH2 0x7E1 JUMPI DUP1 PUSH1 0x1F LT PUSH2 0x7B8 JUMPI PUSH2 0x100 DUP1 DUP4 SLOAD DIV MUL DUP4 MSTORE SWAP2 PUSH1 0x20 ADD SWAP2 PUSH2 0x7E1 JUMP JUMPDEST DUP3 ADD SWAP2 SWAP1 PUSH0 MSTORE PUSH1 0x20 PUSH0 KECCAK256 SWAP1 JUMPDEST DUP2 SLOAD DUP2 MSTORE SWAP1 PUSH1 0x1 ADD SWAP1 PUSH1 0x20 ADD DUP1 DUP4 GT PUSH2 0x7C4 JUMPI DUP3 SWAP1 SUB PUSH1 0x1F AND DUP3 ADD SWAP2 JUMPDEST POP POP POP POP POP DUP2 MSTORE PUSH1 0x20 ADD PUSH1 0x3 DUP3 ADD SLOAD DUP2 MSTORE PUSH1 0x20 ADD PUSH1 0x4 DUP3 ADD SLOAD DUP2 MSTORE PUSH1 0x20 ADD PUSH1 0x5 DUP3 ADD SLOAD DUP2 MSTORE PUSH1 0x20 ADD PUSH1 0x6 DUP3 ADD SLOAD DUP2 MSTORE PUSH1 0x20 ADD PUSH1 0x7 DUP3 ADD SLOAD DUP2 MSTORE PUSH1 0x20 ADD PUSH1 0x8 DUP3 ADD PUSH0 SWAP1 SLOAD SWAP1 PUSH2 0x100 EXP SWAP1 DIV PUSH20 0xFFFFFFFFFFFFFFFFFFFFFFFFFFFFFFFFFFFFFFFF AND PUSH20 0xFFFFFFFFFFFFFFFFFFFFFFFFFFFFFFFFFFFFFFFF AND PUSH20 0xFFFFFFFFFFFFFFFFFFFFFFFFFFFFFFFFFFFFFFFF AND DUP2 MSTORE PUSH1 0x20 ADD PUSH1 0x8 DUP3 ADD PUSH1 0x14 SWAP1 SLOAD SWAP1 PUSH2 0x100 EXP SWAP1 DIV PUSH1 0xFF AND ISZERO ISZERO ISZERO ISZERO DUP2 MSTORE POP POP SWAP1 POP PUSH32 0x8F6F3A26B5DAFFC95E1F342D18E1AF6FA9FFA1F75CED6E001B199D08E1933FCB DUP2 PUSH0 ADD MLOAD DUP3 PUSH1 0x20 ADD MLOAD DUP4 PUSH1 0x40 ADD MLOAD DUP5 PUSH1 0x60 ADD MLOAD DUP6 PUSH1 0x80 ADD MLOAD DUP7 PUSH1 0xA0 ADD MLOAD DUP8 PUSH1 0xC0 ADD MLOAD DUP9 PUSH1 0xE0 ADD MLOAD DUP10 PUSH2 0x100 ADD MLOAD DUP11 PUSH2 0x120 ADD MLOAD PUSH1 0x40 MLOAD PUSH2 0x8F8 SWAP11 SWAP10 SWAP9 SWAP8 SWAP7 SWAP6 SWAP5 SWAP4 SWAP3 SWAP2 SWAP1 PUSH2 0x219A JUMP JUMPDEST PUSH1 0x40 MLOAD DUP1 SWAP2 SUB SWAP1 LOG1 POP POP DUP1 DUP1 PUSH1 0x1 ADD SWAP2 POP POP PUSH2 0x67C JUMP JUMPDEST POP POP POP JUMP JUMPDEST DUP1 PUSH0 PUSH1 0x4 PUSH0 DUP4 DUP2 MSTORE PUSH1 0x20 ADD SWAP1 DUP2 MSTORE PUSH1 0x20 ADD PUSH0 KECCAK256 SWAP1 POP DUP1 PUSH1 0x4 ADD SLOAD DUP2 PUSH1 0x6 ADD SLOAD DUP3 PUSH1 0x5 ADD SLOAD PUSH2 0x942 SWAP2 SWAP1 PUSH2 0x226F JUMP JUMPDEST GT ISZERO PUSH2 0x983 JUMPI PUSH1 0x40 MLOAD PUSH32 0x8C379A000000000000000000000000000000000000000000000000000000000 DUP2 MSTORE PUSH1 0x4 ADD PUSH2 0x97A SWAP1 PUSH2 0x22EC JUMP JUMPDEST PUSH1 0x40 MLOAD DUP1 SWAP2 SUB SWAP1 REVERT JUMPDEST PUSH0 PUSH1 0x4 PUSH0 DUP6 DUP2 MSTORE PUSH1 0x20 ADD SWAP1 DUP2 MSTORE PUSH1 0x20 ADD PUSH0 KECCAK256 SWAP1 POP PUSH0 ISZERO ISZERO DUP2 PUSH1 0x8 ADD PUSH1 0x14 SWAP1 SLOAD SWAP1 PUSH2 0x100 EXP SWAP1 DIV PUSH1 0xFF AND ISZERO ISZERO EQ PUSH2 0x9EE JUMPI PUSH1 0x40 MLOAD PUSH32 0x8C379A000000000000000000000000000000000000000000000000000000000 DUP2 MSTORE PUSH1 0x4 ADD PUSH2 0x9E5 SWAP1 PUSH2 0x2354 JUMP JUMPDEST PUSH1 0x40 MLOAD DUP1 SWAP2 SUB SWAP1 REVERT JUMPDEST PUSH2 0x9F7 DUP5 PUSH2 0x13FC JUMP JUMPDEST PUSH32 0x916898311B7BD03C784627F7278DBCE7CE91F3378DC4359B8B1568568A1E7C84 DUP5 PUSH1 0x40 MLOAD PUSH2 0xA26 SWAP2 SWAP1 PUSH2 0x23E2 JUMP JUMPDEST PUSH1 0x40 MLOAD DUP1 SWAP2 SUB SWAP1 LOG1 POP POP POP POP JUMP JUMPDEST PUSH0 DUP1 PUSH0 SWAP1 POP PUSH0 PUSH1 0x1 SWAP1 POP JUMPDEST PUSH1 0x3 SLOAD DUP2 GT PUSH2 0xCBF JUMPI CALLER PUSH20 0xFFFFFFFFFFFFFFFFFFFFFFFFFFFFFFFFFFFFFFFF AND PUSH1 0x4 PUSH0 DUP4 DUP2 MSTORE PUSH1 0x20 ADD SWAP1 DUP2 MSTORE PUSH1 0x20 ADD PUSH0 KECCAK256 PUSH1 0x8 ADD PUSH0 SWAP1 SLOAD SWAP1 PUSH2 0x100 EXP SWAP1 DIV PUSH20 0xFFFFFFFFFFFFFFFFFFFFFFFFFFFFFFFFFFFFFFFF AND PUSH20 0xFFFFFFFFFFFFFFFFFFFFFFFFFFFFFFFFFFFFFFFF AND SUB PUSH2 0xCAC JUMPI PUSH2 0xC9E PUSH1 0x4 PUSH0 DUP4 DUP2 MSTORE PUSH1 0x20 ADD SWAP1 DUP2 MSTORE PUSH1 0x20 ADD PUSH0 KECCAK256 PUSH1 0x40 MLOAD DUP1 PUSH2 0x140 ADD PUSH1 0x40 MSTORE SWAP1 DUP2 PUSH0 DUP3 ADD SLOAD DUP2 MSTORE PUSH1 0x20 ADD PUSH1 0x1 DUP3 ADD DUP1 SLOAD PUSH2 0xAE7 SWAP1 PUSH2 0x2059 JUMP JUMPDEST DUP1 PUSH1 0x1F ADD PUSH1 0x20 DUP1 SWAP2 DIV MUL PUSH1 0x20 ADD PUSH1 0x40 MLOAD SWAP1 DUP2 ADD PUSH1 0x40 MSTORE DUP1 SWAP3 SWAP2 SWAP1 DUP2 DUP2 MSTORE PUSH1 0x20 ADD DUP3 DUP1 SLOAD PUSH2 0xB13 SWAP1 PUSH2 0x2059 JUMP JUMPDEST DUP1 ISZERO PUSH2 0xB5E JUMPI DUP1 PUSH1 0x1F LT PUSH2 0xB35 JUMPI PUSH2 0x100 DUP1 DUP4 SLOAD DIV MUL DUP4 MSTORE SWAP2 PUSH1 0x20 ADD SWAP2 PUSH2 0xB5E JUMP JUMPDEST DUP3 ADD SWAP2 SWAP1 PUSH0 MSTORE PUSH1 0x20 PUSH0 KECCAK256 SWAP1 JUMPDEST DUP2 SLOAD DUP2 MSTORE SWAP1 PUSH1 0x1 ADD SWAP1 PUSH1 0x20 ADD DUP1 DUP4 GT PUSH2 0xB41 JUMPI DUP3 SWAP1 SUB PUSH1 0x1F AND DUP3 ADD SWAP2 JUMPDEST POP POP POP POP POP DUP2 MSTORE PUSH1 0x20 ADD PUSH1 0x2 DUP3 ADD DUP1 SLOAD PUSH2 0xB77 SWAP1 PUSH2 0x2059 JUMP JUMPDEST DUP1 PUSH1 0x1F ADD PUSH1 0x20 DUP1 SWAP2 DIV MUL PUSH1 0x20 ADD PUSH1 0x40 MLOAD SWAP1 DUP2 ADD PUSH1 0x40 MSTORE DUP1 SWAP3 SWAP2 SWAP1 DUP2 DUP2 MSTORE PUSH1 0x20 ADD DUP3 DUP1 SLOAD PUSH2 0xBA3 SWAP1 PUSH2 0x2059 JUMP JUMPDEST DUP1 ISZERO PUSH2 0xBEE JUMPI DUP1 PUSH1 0x1F LT PUSH2 0xBC5 JUMPI PUSH2 0x100 DUP1 DUP4 SLOAD DIV MUL DUP4 MSTORE SWAP2 PUSH1 0x20 ADD SWAP2 PUSH2 0xBEE JUMP JUMPDEST DUP3 ADD SWAP2 SWAP1 PUSH0 MSTORE PUSH1 0x20 PUSH0 KECCAK256 SWAP1 JUMPDEST DUP2 SLOAD DUP2 MSTORE SWAP1 PUSH1 0x1 ADD SWAP1 PUSH1 0x20 ADD DUP1 DUP4 GT PUSH2 0xBD1 JUMPI DUP3 SWAP1 SUB PUSH1 0x1F AND DUP3 ADD SWAP2 JUMPDEST POP POP POP POP POP DUP2 MSTORE PUSH1 0x20 ADD PUSH1 0x3 DUP3 ADD SLOAD DUP2 MSTORE PUSH1 0x20 ADD PUSH1 0x4 DUP3 ADD SLOAD DUP2 MSTORE PUSH1 0x20 ADD PUSH1 0x5 DUP3 ADD SLOAD DUP2 MSTORE PUSH1 0x20 ADD PUSH1 0x6 DUP3 ADD SLOAD DUP2 MSTORE PUSH1 0x20 ADD PUSH1 0x7 DUP3 ADD SLOAD DUP2 MSTORE PUSH1 0x20 ADD PUSH1 0x8 DUP3 ADD PUSH0 SWAP1 SLOAD SWAP1 PUSH2 0x100 EXP SWAP1 DIV PUSH20 0xFFFFFFFFFFFFFFFFFFFFFFFFFFFFFFFFFFFFFFFF AND PUSH20 0xFFFFFFFFFFFFFFFFFFFFFFFFFFFFFFFFFFFFFFFF AND PUSH20 0xFFFFFFFFFFFFFFFFFFFFFFFFFFFFFFFFFFFFFFFF AND DUP2 MSTORE PUSH1 0x20 ADD PUSH1 0x8 DUP3 ADD PUSH1 0x14 SWAP1 SLOAD SWAP1 PUSH2 0x100 EXP SWAP1 DIV PUSH1 0xFF AND ISZERO ISZERO ISZERO ISZERO DUP2 MSTORE POP POP PUSH2 0x13BD JUMP JUMPDEST DUP3 PUSH2 0xCA9 SWAP2 SWAP1 PUSH2 0x226F JUMP JUMPDEST SWAP2 POP JUMPDEST DUP1 DUP1 PUSH2 0xCB7 SWAP1 PUSH2 0x240E JUMP JUMPDEST SWAP2 POP POP PUSH2 0xA3F JUMP JUMPDEST POP DUP1 SWAP2 POP POP SWAP1 JUMP JUMPDEST DUP3 DUP1 PUSH0 DUP1 SLOAD SWAP1 PUSH2 0x100 EXP SWAP1 DIV PUSH20 0xFFFFFFFFFFFFFFFFFFFFFFFFFFFFFFFFFFFFFFFF AND PUSH20 0xFFFFFFFFFFFFFFFFFFFFFFFFFFFFFFFFFFFFFFFF AND PUSH4 0x70A08231 CALLER PUSH1 0x40 MLOAD DUP3 PUSH4 0xFFFFFFFF AND PUSH1 0xE0 SHL DUP2 MSTORE PUSH1 0x4 ADD PUSH2 0xD21 SWAP2 SWAP1 PUSH2 0x2455 JUMP JUMPDEST PUSH1 0x20 PUSH1 0x40 MLOAD DUP1 DUP4 SUB DUP2 DUP7 GAS STATICCALL ISZERO DUP1 ISZERO PUSH2 0xD3C JUMPI RETURNDATASIZE PUSH0 DUP1 RETURNDATACOPY RETURNDATASIZE PUSH0 REVERT JUMPDEST POP POP POP POP PUSH1 0x40 MLOAD RETURNDATASIZE PUSH1 0x1F NOT PUSH1 0x1F DUP3 ADD AND DUP3 ADD DUP1 PUSH1 0x40 MSTORE POP DUP2 ADD SWAP1 PUSH2 0xD60 SWAP2 SWAP1 PUSH2 0x2482 JUMP JUMPDEST LT ISZERO PUSH2 0xE01 PUSH0 DUP1 SLOAD SWAP1 PUSH2 0x100 EXP SWAP1 DIV PUSH20 0xFFFFFFFFFFFFFFFFFFFFFFFFFFFFFFFFFFFFFFFF AND PUSH20 0xFFFFFFFFFFFFFFFFFFFFFFFFFFFFFFFFFFFFFFFF AND PUSH4 0x70A08231 CALLER PUSH1 0x40 MLOAD DUP3 PUSH4 0xFFFFFFFF AND PUSH1 0xE0 SHL DUP2 MSTORE PUSH1 0x4 ADD PUSH2 0xDBD SWAP2 SWAP1 PUSH2 0x2455 JUMP JUMPDEST PUSH1 0x20 PUSH1 0x40 MLOAD DUP1 DUP4 SUB DUP2 DUP7 GAS STATICCALL ISZERO DUP1 ISZERO PUSH2 0xDD8 JUMPI RETURNDATASIZE PUSH0 DUP1 RETURNDATACOPY RETURNDATASIZE PUSH0 REVERT JUMPDEST POP POP POP POP PUSH1 0x40 MLOAD RETURNDATASIZE PUSH1 0x1F NOT PUSH1 0x1F DUP3 ADD AND DUP3 ADD DUP1 PUSH1 0x40 MSTORE POP DUP2 ADD SWAP1 PUSH2 0xDFC SWAP2 SWAP1 PUSH2 0x2482 JUMP JUMPDEST PUSH2 0x1487 JUMP JUMPDEST PUSH2 0xE0A DUP4 PUSH2 0x1487 JUMP JUMPDEST PUSH1 0x40 MLOAD PUSH1 0x20 ADD PUSH2 0xE1B SWAP3 SWAP2 SWAP1 PUSH2 0x2611 JUMP JUMPDEST PUSH1 0x40 MLOAD PUSH1 0x20 DUP2 DUP4 SUB SUB DUP2 MSTORE SWAP1 PUSH1 0x40 MSTORE SWAP1 PUSH2 0xE6B JUMPI PUSH1 0x40 MLOAD PUSH32 0x8C379A000000000000000000000000000000000000000000000000000000000 DUP2 MSTORE PUSH1 0x4 ADD PUSH2 0xE62 SWAP2 SWAP1 PUSH2 0x2655 JUMP JUMPDEST PUSH1 0x40 MLOAD DUP1 SWAP2 SUB SWAP1 REVERT JUMPDEST POP DUP6 PUSH1 0x1 DUP2 PUSH1 0x40 MLOAD PUSH2 0xE7D SWAP2 SWAP1 PUSH2 0x2675 JUMP JUMPDEST SWAP1 DUP2 MSTORE PUSH1 0x20 ADD PUSH1 0x40 MLOAD DUP1 SWAP2 SUB SWAP1 KECCAK256 PUSH0 SWAP1 SLOAD SWAP1 PUSH2 0x100 EXP SWAP1 DIV PUSH1 0xFF AND PUSH2 0xED7 JUMPI PUSH1 0x40 MLOAD PUSH32 0x8C379A000000000000000000000000000000000000000000000000000000000 DUP2 MSTORE PUSH1 0x4 ADD PUSH2 0xECE SWAP1 PUSH2 0x26D5 JUMP JUMPDEST PUSH1 0x40 MLOAD DUP1 SWAP2 SUB SWAP1 REVERT JUMPDEST DUP6 CALLER PUSH0 DUP1 SLOAD SWAP1 PUSH2 0x100 EXP SWAP1 DIV PUSH20 0xFFFFFFFFFFFFFFFFFFFFFFFFFFFFFFFFFFFFFFFF AND PUSH20 0xFFFFFFFFFFFFFFFFFFFFFFFFFFFFFFFFFFFFFFFF AND PUSH4 0x4763FBD2 DUP3 PUSH1 0x40 MLOAD DUP3 PUSH4 0xFFFFFFFF AND PUSH1 0xE0 SHL DUP2 MSTORE PUSH1 0x4 ADD PUSH2 0xF31 SWAP2 SWAP1 PUSH2 0x2455 JUMP JUMPDEST PUSH1 0x20 PUSH1 0x40 MLOAD DUP1 DUP4 SUB DUP2 DUP7 GAS STATICCALL ISZERO DUP1 ISZERO PUSH2 0xF4C JUMPI RETURNDATASIZE PUSH0 DUP1 RETURNDATACOPY RETURNDATASIZE PUSH0 REVERT JUMPDEST POP POP POP POP PUSH1 0x40 MLOAD RETURNDATASIZE PUSH1 0x1F NOT PUSH1 0x1F DUP3 ADD AND DUP3 ADD DUP1 PUSH1 0x40 MSTORE POP DUP2 ADD SWAP1 PUSH2 0xF70 SWAP2 SWAP1 PUSH2 0x2482 JUMP JUMPDEST DUP3 GT PUSH2 0xFB1 JUMPI PUSH1 0x40 MLOAD PUSH32 0x8C379A000000000000000000000000000000000000000000000000000000000 DUP2 MSTORE PUSH1 0x4 ADD PUSH2 0xFA8 SWAP1 PUSH2 0x2763 JUMP JUMPDEST PUSH1 0x40 MLOAD DUP1 SWAP2 SUB SWAP1 REVERT JUMPDEST PUSH1 0x3 PUSH0 DUP2 SLOAD DUP1 SWAP3 SWAP2 SWAP1 PUSH2 0xFC3 SWAP1 PUSH2 0x240E JUMP JUMPDEST SWAP2 SWAP1 POP SSTORE POP PUSH0 PUSH1 0x40 MLOAD DUP1 PUSH2 0x140 ADD PUSH1 0x40 MSTORE DUP1 PUSH1 0x3 SLOAD DUP2 MSTORE PUSH1 0x20 ADD DUP13 DUP2 MSTORE PUSH1 0x20 ADD DUP12 DUP2 MSTORE PUSH1 0x20 ADD DUP11 DUP2 MSTORE PUSH1 0x20 ADD DUP10 DUP2 MSTORE PUSH1 0x20 ADD PUSH0 DUP2 MSTORE PUSH1 0x20 ADD DUP9 DUP2 MSTORE PUSH1 0x20 ADD PUSH3 0x15180 DUP9 PUSH2 0x1010 SWAP2 SWAP1 PUSH2 0x2781 JUMP JUMPDEST DUP2 MSTORE PUSH1 0x20 ADD CALLER PUSH20 0xFFFFFFFFFFFFFFFFFFFFFFFFFFFFFFFFFFFFFFFF AND DUP2 MSTORE PUSH1 0x20 ADD PUSH0 ISZERO ISZERO DUP2 MSTORE POP SWAP1 POP PUSH0 PUSH2 0x1042 PUSH2 0xA34 JUMP JUMPDEST SWAP1 POP PUSH0 PUSH2 0x104E DUP4 PUSH2 0x13BD JUMP JUMPDEST SWAP1 POP DUP1 DUP3 PUSH2 0x105C SWAP2 SWAP1 PUSH2 0x226F JUMP JUMPDEST SWAP2 POP PUSH0 DUP1 PUSH0 SWAP1 SLOAD SWAP1 PUSH2 0x100 EXP SWAP1 DIV PUSH20 0xFFFFFFFFFFFFFFFFFFFFFFFFFFFFFFFFFFFFFFFF AND PUSH20 0xFFFFFFFFFFFFFFFFFFFFFFFFFFFFFFFFFFFFFFFF AND PUSH4 0xB6F7132F CALLER PUSH1 0x40 MLOAD DUP3 PUSH4 0xFFFFFFFF AND PUSH1 0xE0 SHL DUP2 MSTORE PUSH1 0x4 ADD PUSH2 0x10B8 SWAP2 SWAP1 PUSH2 0x2455 JUMP JUMPDEST PUSH1 0x20 PUSH1 0x40 MLOAD DUP1 DUP4 SUB DUP2 DUP7 GAS STATICCALL ISZERO DUP1 ISZERO PUSH2 0x10D3 JUMPI RETURNDATASIZE PUSH0 DUP1 RETURNDATACOPY RETURNDATASIZE PUSH0 REVERT JUMPDEST POP POP POP POP PUSH1 0x40 MLOAD RETURNDATASIZE PUSH1 0x1F NOT PUSH1 0x1F DUP3 ADD AND DUP3 ADD DUP1 PUSH1 0x40 MSTORE POP DUP2 ADD SWAP1 PUSH2 0x10F7 SWAP2 SWAP1 PUSH2 0x2482 JUMP JUMPDEST SWAP1 POP DUP3 DUP2 LT ISZERO PUSH2 0x113C JUMPI PUSH1 0x40 MLOAD PUSH32 0x8C379A000000000000000000000000000000000000000000000000000000000 DUP2 MSTORE PUSH1 0x4 ADD PUSH2 0x1133 SWAP1 PUSH2 0x287E JUMP JUMPDEST PUSH1 0x40 MLOAD DUP1 SWAP2 SUB SWAP1 REVERT JUMPDEST CALLER PUSH20 0xFFFFFFFFFFFFFFFFFFFFFFFFFFFFFFFFFFFFFFFF AND PUSH32 0x4484B36E875B9C97F73D7144393B0B9B54FE28058CB0F612A10B50932E7DB5B PUSH0 DUP1 SLOAD SWAP1 PUSH2 0x100 EXP SWAP1 DIV PUSH20 0xFFFFFFFFFFFFFFFFFFFFFFFFFFFFFFFFFFFFFFFF AND PUSH20 0xFFFFFFFFFFFFFFFFFFFFFFFFFFFFFFFFFFFFFFFF AND PUSH4 0xB6F7132F CALLER PUSH1 0x40 MLOAD DUP3 PUSH4 0xFFFFFFFF AND PUSH1 0xE0 SHL DUP2 MSTORE PUSH1 0x4 ADD PUSH2 0x11CC SWAP2 SWAP1 PUSH2 0x2455 JUMP JUMPDEST PUSH1 0x20 PUSH1 0x40 MLOAD DUP1 DUP4 SUB DUP2 DUP7 GAS STATICCALL ISZERO DUP1 ISZERO PUSH2 0x11E7 JUMPI RETURNDATASIZE PUSH0 DUP1 RETURNDATACOPY RETURNDATASIZE PUSH0 REVERT JUMPDEST POP POP POP POP PUSH1 0x40 MLOAD RETURNDATASIZE PUSH1 0x1F NOT PUSH1 0x1F DUP3 ADD AND DUP3 ADD DUP1 PUSH1 0x40 MSTORE POP DUP2 ADD SWAP1 PUSH2 0x120B SWAP2 SWAP1 PUSH2 0x2482 JUMP JUMPDEST DUP6 PUSH1 0x40 MLOAD PUSH2 0x121A SWAP3 SWAP2 SWAP1 PUSH2 0x289C JUMP JUMPDEST PUSH1 0x40 MLOAD DUP1 SWAP2 SUB SWAP1 LOG2 DUP4 PUSH1 0x4 PUSH0 PUSH1 0x3 SLOAD DUP2 MSTORE PUSH1 0x20 ADD SWAP1 DUP2 MSTORE PUSH1 0x20 ADD PUSH0 KECCAK256 PUSH0 DUP3 ADD MLOAD DUP2 PUSH0 ADD SSTORE PUSH1 0x20 DUP3 ADD MLOAD DUP2 PUSH1 0x1 ADD SWAP1 DUP2 PUSH2 0x1253 SWAP2 SWAP1 PUSH2 0x2A57 JUMP JUMPDEST POP PUSH1 0x40 DUP3 ADD MLOAD DUP2 PUSH1 0x2 ADD SWAP1 DUP2 PUSH2 0x1269 SWAP2 SWAP1 PUSH2 0x2A57 JUMP JUMPDEST POP PUSH1 0x60 DUP3 ADD MLOAD DUP2 PUSH1 0x3 ADD SSTORE PUSH1 0x80 DUP3 ADD MLOAD DUP2 PUSH1 0x4 ADD SSTORE PUSH1 0xA0 DUP3 ADD MLOAD DUP2 PUSH1 0x5 ADD SSTORE PUSH1 0xC0 DUP3 ADD MLOAD DUP2 PUSH1 0x6 ADD SSTORE PUSH1 0xE0 DUP3 ADD MLOAD DUP2 PUSH1 0x7 ADD SSTORE PUSH2 0x100 DUP3 ADD MLOAD DUP2 PUSH1 0x8 ADD PUSH0 PUSH2 0x100 EXP DUP2 SLOAD DUP2 PUSH20 0xFFFFFFFFFFFFFFFFFFFFFFFFFFFFFFFFFFFFFFFF MUL NOT AND SWAP1 DUP4 PUSH20 0xFFFFFFFFFFFFFFFFFFFFFFFFFFFFFFFFFFFFFFFF AND MUL OR SWAP1 SSTORE POP PUSH2 0x120 DUP3 ADD MLOAD DUP2 PUSH1 0x8 ADD PUSH1 0x14 PUSH2 0x100 EXP DUP2 SLOAD DUP2 PUSH1 0xFF MUL NOT AND SWAP1 DUP4 ISZERO ISZERO MUL OR SWAP1 SSTORE POP SWAP1 POP POP PUSH1 0x5 PUSH0 CALLER PUSH20 0xFFFFFFFFFFFFFFFFFFFFFFFFFFFFFFFFFFFFFFFF AND PUSH20 0xFFFFFFFFFFFFFFFFFFFFFFFFFFFFFFFFFFFFFFFF AND DUP2 MSTORE PUSH1 0x20 ADD SWAP1 DUP2 MSTORE PUSH1 0x20 ADD PUSH0 KECCAK256 PUSH1 0x3 SLOAD SWAP1 DUP1 PUSH1 0x1 DUP2 SLOAD ADD DUP1 DUP3 SSTORE DUP1 SWAP2 POP POP PUSH1 0x1 SWAP1 SUB SWAP1 PUSH0 MSTORE PUSH1 0x20 PUSH0 KECCAK256 ADD PUSH0 SWAP1 SWAP2 SWAP1 SWAP2 SWAP1 SWAP2 POP SSTORE PUSH32 0xE060903A71989416DB77650C9585ADBAE8F4FC8633A778A547D25E3C78789F4C PUSH1 0x3 SLOAD DUP16 CALLER PUSH1 0x40 MLOAD PUSH2 0x139F SWAP4 SWAP3 SWAP2 SWAP1 PUSH2 0x2B26 JUMP JUMPDEST PUSH1 0x40 MLOAD DUP1 SWAP2 SUB SWAP1 LOG1 POP POP POP POP POP POP POP POP POP POP POP POP POP POP JUMP JUMPDEST PUSH1 0x3 SLOAD DUP2 JUMP JUMPDEST PUSH0 DUP2 PUSH1 0x80 ADD MLOAD DUP3 PUSH1 0x60 ADD MLOAD PUSH2 0x13D2 SWAP2 SWAP1 PUSH2 0x2781 JUMP JUMPDEST SWAP1 POP SWAP2 SWAP1 POP JUMP JUMPDEST PUSH0 DUP1 SLOAD SWAP1 PUSH2 0x100 EXP SWAP1 DIV PUSH20 0xFFFFFFFFFFFFFFFFFFFFFFFFFFFFFFFFFFFFFFFF AND DUP2 JUMP JUMPDEST PUSH0 PUSH1 0x4 PUSH0 DUP4 DUP2 MSTORE PUSH1 0x20 ADD SWAP1 DUP2 MSTORE PUSH1 0x20 ADD PUSH0 KECCAK256 SWAP1 POP DUP2 DUP2 PUSH0 ADD SLOAD EQ PUSH2 0x1455 JUMPI PUSH1 0x40 MLOAD PUSH32 0x8C379A000000000000000000000000000000000000000000000000000000000 DUP2 MSTORE PUSH1 0x4 ADD PUSH2 0x144C SWAP1 PUSH2 0x1EA2 JUMP JUMPDEST PUSH1 0x40 MLOAD DUP1 SWAP2 SUB SWAP1 REVERT JUMPDEST DUP1 PUSH1 0x8 ADD PUSH1 0x14 SWAP1 SLOAD SWAP1 PUSH2 0x100 EXP SWAP1 DIV PUSH1 0xFF AND ISZERO DUP2 PUSH1 0x8 ADD PUSH1 0x14 PUSH2 0x100 EXP DUP2 SLOAD DUP2 PUSH1 0xFF MUL NOT AND SWAP1 DUP4 ISZERO ISZERO MUL OR SWAP1 SSTORE POP POP POP JUMP JUMPDEST PUSH1 0x60 PUSH0 PUSH1 0x1 PUSH2 0x1495 DUP5 PUSH2 0x1551 JUMP JUMPDEST ADD SWAP1 POP PUSH0 DUP2 PUSH8 0xFFFFFFFFFFFFFFFF DUP2 GT ISZERO PUSH2 0x14B3 JUMPI PUSH2 0x14B2 PUSH2 0x1A4B JUMP JUMPDEST JUMPDEST PUSH1 0x40 MLOAD SWAP1 DUP1 DUP3 MSTORE DUP1 PUSH1 0x1F ADD PUSH1 0x1F NOT AND PUSH1 0x20 ADD DUP3 ADD PUSH1 0x40 MSTORE DUP1 ISZERO PUSH2 0x14E5 JUMPI DUP2 PUSH1 0x20 ADD PUSH1 0x1 DUP3 MUL DUP1 CALLDATASIZE DUP4 CALLDATACOPY DUP1 DUP3 ADD SWAP2 POP POP SWAP1 POP JUMPDEST POP SWAP1 POP PUSH0 DUP3 PUSH1 0x20 ADD DUP3 ADD SWAP1 POP JUMPDEST PUSH1 0x1 ISZERO PUSH2 0x1546 JUMPI DUP1 DUP1 PUSH1 0x1 SWAP1 SUB SWAP2 POP POP PUSH32 0x3031323334353637383961626364656600000000000000000000000000000000 PUSH1 0xA DUP7 MOD BYTE DUP2 MSTORE8 PUSH1 0xA DUP6 DUP2 PUSH2 0x153B JUMPI PUSH2 0x153A PUSH2 0x2B62 JUMP JUMPDEST JUMPDEST DIV SWAP5 POP PUSH0 DUP6 SUB PUSH2 0x14F2 JUMPI JUMPDEST DUP2 SWAP4 POP POP POP POP SWAP2 SWAP1 POP JUMP JUMPDEST PUSH0 DUP1 PUSH0 SWAP1 POP PUSH27 0x184F03E93FF9F4DAA797ED6E38ED64BF6A1F010000000000000000 DUP4 LT PUSH2 0x15AD JUMPI PUSH27 0x184F03E93FF9F4DAA797ED6E38ED64BF6A1F010000000000000000 DUP4 DUP2 PUSH2 0x15A3 JUMPI PUSH2 0x15A2 PUSH2 0x2B62 JUMP JUMPDEST JUMPDEST DIV SWAP3 POP PUSH1 0x40 DUP2 ADD SWAP1 POP JUMPDEST PUSH14 0x4EE2D6D415B85ACEF8100000000 DUP4 LT PUSH2 0x15EA JUMPI PUSH14 0x4EE2D6D415B85ACEF8100000000 DUP4 DUP2 PUSH2 0x15E0 JUMPI PUSH2 0x15DF PUSH2 0x2B62 JUMP JUMPDEST JUMPDEST DIV SWAP3 POP PUSH1 0x20 DUP2 ADD SWAP1 POP JUMPDEST PUSH7 0x2386F26FC10000 DUP4 LT PUSH2 0x1619 JUMPI PUSH7 0x2386F26FC10000 DUP4 DUP2 PUSH2 0x160F JUMPI PUSH2 0x160E PUSH2 0x2B62 JUMP JUMPDEST JUMPDEST DIV SWAP3 POP PUSH1 0x10 DUP2 ADD SWAP1 POP JUMPDEST PUSH4 0x5F5E100 DUP4 LT PUSH2 0x1642 JUMPI PUSH4 0x5F5E100 DUP4 DUP2 PUSH2 0x1638 JUMPI PUSH2 0x1637 PUSH2 0x2B62 JUMP JUMPDEST JUMPDEST DIV SWAP3 POP PUSH1 0x8 DUP2 ADD SWAP1 POP JUMPDEST PUSH2 0x2710 DUP4 LT PUSH2 0x1667 JUMPI PUSH2 0x2710 DUP4 DUP2 PUSH2 0x165D JUMPI PUSH2 0x165C PUSH2 0x2B62 JUMP JUMPDEST JUMPDEST DIV SWAP3 POP PUSH1 0x4 DUP2 ADD SWAP1 POP JUMPDEST PUSH1 0x64 DUP4 LT PUSH2 0x168A JUMPI PUSH1 0x64 DUP4 DUP2 PUSH2 0x1680 JUMPI PUSH2 0x167F PUSH2 0x2B62 JUMP JUMPDEST JUMPDEST DIV SWAP3 POP PUSH1 0x2 DUP2 ADD SWAP1 POP JUMPDEST PUSH1 0xA DUP4 LT PUSH2 0x1699 JUMPI PUSH1 0x1 DUP2 ADD SWAP1 POP JUMPDEST DUP1 SWAP2 POP POP SWAP2 SWAP1 POP JUMP JUMPDEST PUSH1 0x40 MLOAD DUP1 PUSH2 0x140 ADD PUSH1 0x40 MSTORE DUP1 PUSH0 DUP2 MSTORE PUSH1 0x20 ADD PUSH1 0x60 DUP2 MSTORE PUSH1 0x20 ADD PUSH1 0x60 DUP2 MSTORE PUSH1 0x20 ADD PUSH0 DUP2 MSTORE PUSH1 0x20 ADD PUSH0 DUP2 MSTORE PUSH1 0x20 ADD PUSH0 DUP2 MSTORE PUSH1 0x20 ADD PUSH0 DUP2 MSTORE PUSH1 0x20 ADD PUSH0 DUP2 MSTORE PUSH1 0x20 ADD PUSH0 PUSH20 0xFFFFFFFFFFFFFFFFFFFFFFFFFFFFFFFFFFFFFFFF AND DUP2 MSTORE PUSH1 0x20 ADD PUSH0 ISZERO ISZERO DUP2 MSTORE POP SWAP1 JUMP JUMPDEST PUSH0 PUSH1 0x40 MLOAD SWAP1 POP SWAP1 JUMP JUMPDEST PUSH0 DUP1 REVERT JUMPDEST PUSH0 DUP1 REVERT JUMPDEST PUSH0 DUP2 SWAP1 POP SWAP2 SWAP1 POP JUMP JUMPDEST PUSH2 0x1728 DUP2 PUSH2 0x1716 JUMP JUMPDEST DUP2 EQ PUSH2 0x1732 JUMPI PUSH0 DUP1 REVERT JUMPDEST POP JUMP JUMPDEST PUSH0 DUP2 CALLDATALOAD SWAP1 POP PUSH2 0x1743 DUP2 PUSH2 0x171F JUMP JUMPDEST SWAP3 SWAP2 POP POP JUMP JUMPDEST PUSH0 DUP1 PUSH1 0x40 DUP4 DUP6 SUB SLT ISZERO PUSH2 0x175F JUMPI PUSH2 0x175E PUSH2 0x170E JUMP JUMPDEST JUMPDEST PUSH0 PUSH2 0x176C DUP6 DUP3 DUP7 ADD PUSH2 0x1735 JUMP JUMPDEST SWAP3 POP POP PUSH1 0x20 PUSH2 0x177D DUP6 DUP3 DUP7 ADD PUSH2 0x1735 JUMP JUMPDEST SWAP2 POP POP SWAP3 POP SWAP3 SWAP1 POP JUMP JUMPDEST PUSH0 PUSH20 0xFFFFFFFFFFFFFFFFFFFFFFFFFFFFFFFFFFFFFFFF DUP3 AND SWAP1 POP SWAP2 SWAP1 POP JUMP JUMPDEST PUSH0 PUSH2 0x17B0 DUP3 PUSH2 0x1787 JUMP JUMPDEST SWAP1 POP SWAP2 SWAP1 POP JUMP JUMPDEST PUSH2 0x17C0 DUP2 PUSH2 0x17A6 JUMP JUMPDEST DUP2 EQ PUSH2 0x17CA JUMPI PUSH0 DUP1 REVERT JUMPDEST POP JUMP JUMPDEST PUSH0 DUP2 CALLDATALOAD SWAP1 POP PUSH2 0x17DB DUP2 PUSH2 0x17B7 JUMP JUMPDEST SWAP3 SWAP2 POP POP JUMP JUMPDEST PUSH0 DUP1 PUSH1 0x40 DUP4 DUP6 SUB SLT ISZERO PUSH2 0x17F7 JUMPI PUSH2 0x17F6 PUSH2 0x170E JUMP JUMPDEST JUMPDEST PUSH0 PUSH2 0x1804 DUP6 DUP3 DUP7 ADD PUSH2 0x17CD JUMP JUMPDEST SWAP3 POP POP PUSH1 0x20 PUSH2 0x1815 DUP6 DUP3 DUP7 ADD PUSH2 0x1735 JUMP JUMPDEST SWAP2 POP POP SWAP3 POP SWAP3 SWAP1 POP JUMP JUMPDEST PUSH2 0x1828 DUP2 PUSH2 0x1716 JUMP JUMPDEST DUP3 MSTORE POP POP JUMP JUMPDEST PUSH0 PUSH1 0x20 DUP3 ADD SWAP1 POP PUSH2 0x1841 PUSH0 DUP4 ADD DUP5 PUSH2 0x181F JUMP JUMPDEST SWAP3 SWAP2 POP POP JUMP JUMPDEST PUSH0 PUSH1 0x20 DUP3 DUP5 SUB SLT ISZERO PUSH2 0x185C JUMPI PUSH2 0x185B PUSH2 0x170E JUMP JUMPDEST JUMPDEST PUSH0 PUSH2 0x1869 DUP5 DUP3 DUP6 ADD PUSH2 0x1735 JUMP JUMPDEST SWAP2 POP POP SWAP3 SWAP2 POP POP JUMP JUMPDEST PUSH2 0x187B DUP2 PUSH2 0x1716 JUMP JUMPDEST DUP3 MSTORE POP POP JUMP JUMPDEST PUSH0 DUP2 MLOAD SWAP1 POP SWAP2 SWAP1 POP JUMP JUMPDEST PUSH0 DUP3 DUP3 MSTORE PUSH1 0x20 DUP3 ADD SWAP1 POP SWAP3 SWAP2 POP POP JUMP JUMPDEST DUP3 DUP2 DUP4 MCOPY PUSH0 DUP4 DUP4 ADD MSTORE POP POP POP JUMP JUMPDEST PUSH0 PUSH1 0x1F NOT PUSH1 0x1F DUP4 ADD AND SWAP1 POP SWAP2 SWAP1 POP JUMP JUMPDEST PUSH0 PUSH2 0x18C3 DUP3 PUSH2 0x1881 JUMP JUMPDEST PUSH2 0x18CD DUP2 DUP6 PUSH2 0x188B JUMP JUMPDEST SWAP4 POP PUSH2 0x18DD DUP2 DUP6 PUSH1 0x20 DUP7 ADD PUSH2 0x189B JUMP JUMPDEST PUSH2 0x18E6 DUP2 PUSH2 0x18A9 JUMP JUMPDEST DUP5 ADD SWAP2 POP POP SWAP3 SWAP2 POP POP JUMP JUMPDEST PUSH2 0x18FA DUP2 PUSH2 0x17A6 JUMP JUMPDEST DUP3 MSTORE POP POP JUMP JUMPDEST PUSH0 DUP2 ISZERO ISZERO SWAP1 POP SWAP2 SWAP1 POP JUMP JUMPDEST PUSH2 0x1914 DUP2 PUSH2 0x1900 JUMP JUMPDEST DUP3 MSTORE POP POP JUMP JUMPDEST PUSH0 PUSH2 0x140 DUP4 ADD PUSH0 DUP4 ADD MLOAD PUSH2 0x1930 PUSH0 DUP7 ADD DUP3 PUSH2 0x1872 JUMP JUMPDEST POP PUSH1 0x20 DUP4 ADD MLOAD DUP5 DUP3 SUB PUSH1 0x20 DUP7 ADD MSTORE PUSH2 0x1948 DUP3 DUP3 PUSH2 0x18B9 JUMP JUMPDEST SWAP2 POP POP PUSH1 0x40 DUP4 ADD MLOAD DUP5 DUP3 SUB PUSH1 0x40 DUP7 ADD MSTORE PUSH2 0x1962 DUP3 DUP3 PUSH2 0x18B9 JUMP JUMPDEST SWAP2 POP POP PUSH1 0x60 DUP4 ADD MLOAD PUSH2 0x1977 PUSH1 0x60 DUP7 ADD DUP3 PUSH2 0x1872 JUMP JUMPDEST POP PUSH1 0x80 DUP4 ADD MLOAD PUSH2 0x198A PUSH1 0x80 DUP7 ADD DUP3 PUSH2 0x1872 JUMP JUMPDEST POP PUSH1 0xA0 DUP4 ADD MLOAD PUSH2 0x199D PUSH1 0xA0 DUP7 ADD DUP3 PUSH2 0x1872 JUMP JUMPDEST POP PUSH1 0xC0 DUP4 ADD MLOAD PUSH2 0x19B0 PUSH1 0xC0 DUP7 ADD DUP3 PUSH2 0x1872 JUMP JUMPDEST POP PUSH1 0xE0 DUP4 ADD MLOAD PUSH2 0x19C3 PUSH1 0xE0 DUP7 ADD DUP3 PUSH2 0x1872 JUMP JUMPDEST POP PUSH2 0x100 DUP4 ADD MLOAD PUSH2 0x19D8 PUSH2 0x100 DUP7 ADD DUP3 PUSH2 0x18F1 JUMP JUMPDEST POP PUSH2 0x120 DUP4 ADD MLOAD PUSH2 0x19ED PUSH2 0x120 DUP7 ADD DUP3 PUSH2 0x190B JUMP JUMPDEST POP DUP1 SWAP2 POP POP SWAP3 SWAP2 POP POP JUMP JUMPDEST PUSH0 PUSH1 0x20 DUP3 ADD SWAP1 POP DUP2 DUP2 SUB PUSH0 DUP4 ADD MSTORE PUSH2 0x1A10 DUP2 DUP5 PUSH2 0x191A JUMP JUMPDEST SWAP1 POP SWAP3 SWAP2 POP POP JUMP JUMPDEST PUSH0 PUSH1 0x20 DUP3 DUP5 SUB SLT ISZERO PUSH2 0x1A2D JUMPI PUSH2 0x1A2C PUSH2 0x170E JUMP JUMPDEST JUMPDEST PUSH0 PUSH2 0x1A3A DUP5 DUP3 DUP6 ADD PUSH2 0x17CD JUMP JUMPDEST SWAP2 POP POP SWAP3 SWAP2 POP POP JUMP JUMPDEST PUSH0 DUP1 REVERT JUMPDEST PUSH0 DUP1 REVERT JUMPDEST PUSH32 0x4E487B7100000000000000000000000000000000000000000000000000000000 PUSH0 MSTORE PUSH1 0x41 PUSH1 0x4 MSTORE PUSH1 0x24 PUSH0 REVERT JUMPDEST PUSH2 0x1A81 DUP3 PUSH2 0x18A9 JUMP JUMPDEST DUP2 ADD DUP2 DUP2 LT PUSH8 0xFFFFFFFFFFFFFFFF DUP3 GT OR ISZERO PUSH2 0x1AA0 JUMPI PUSH2 0x1A9F PUSH2 0x1A4B JUMP JUMPDEST JUMPDEST DUP1 PUSH1 0x40 MSTORE POP POP POP JUMP JUMPDEST PUSH0 PUSH2 0x1AB2 PUSH2 0x1705 JUMP JUMPDEST SWAP1 POP PUSH2 0x1ABE DUP3 DUP3 PUSH2 0x1A78 JUMP JUMPDEST SWAP2 SWAP1 POP JUMP JUMPDEST PUSH0 PUSH8 0xFFFFFFFFFFFFFFFF DUP3 GT ISZERO PUSH2 0x1ADD JUMPI PUSH2 0x1ADC PUSH2 0x1A4B JUMP JUMPDEST JUMPDEST PUSH2 0x1AE6 DUP3 PUSH2 0x18A9 JUMP JUMPDEST SWAP1 POP PUSH1 0x20 DUP2 ADD SWAP1 POP SWAP2 SWAP1 POP JUMP JUMPDEST DUP3 DUP2 DUP4 CALLDATACOPY PUSH0 DUP4 DUP4 ADD MSTORE POP POP POP JUMP JUMPDEST PUSH0 PUSH2 0x1B13 PUSH2 0x1B0E DUP5 PUSH2 0x1AC3 JUMP JUMPDEST PUSH2 0x1AA9 JUMP JUMPDEST SWAP1 POP DUP3 DUP2 MSTORE PUSH1 0x20 DUP2 ADD DUP5 DUP5 DUP5 ADD GT ISZERO PUSH2 0x1B2F JUMPI PUSH2 0x1B2E PUSH2 0x1A47 JUMP JUMPDEST JUMPDEST PUSH2 0x1B3A DUP5 DUP3 DUP6 PUSH2 0x1AF3 JUMP JUMPDEST POP SWAP4 SWAP3 POP POP POP JUMP JUMPDEST PUSH0 DUP3 PUSH1 0x1F DUP4 ADD SLT PUSH2 0x1B56 JUMPI PUSH2 0x1B55 PUSH2 0x1A43 JUMP JUMPDEST JUMPDEST DUP2 CALLDATALOAD PUSH2 0x1B66 DUP5 DUP3 PUSH1 0x20 DUP7 ADD PUSH2 0x1B01 JUMP JUMPDEST SWAP2 POP POP SWAP3 SWAP2 POP POP JUMP JUMPDEST PUSH0 DUP1 PUSH0 DUP1 PUSH0 DUP1 PUSH1 0xC0 DUP8 DUP10 SUB SLT ISZERO PUSH2 0x1B89 JUMPI PUSH2 0x1B88 PUSH2 0x170E JUMP JUMPDEST JUMPDEST PUSH0 DUP8 ADD CALLDATALOAD PUSH8 0xFFFFFFFFFFFFFFFF DUP2 GT ISZERO PUSH2 0x1BA6 JUMPI PUSH2 0x1BA5 PUSH2 0x1712 JUMP JUMPDEST JUMPDEST PUSH2 0x1BB2 DUP10 DUP3 DUP11 ADD PUSH2 0x1B42 JUMP JUMPDEST SWAP7 POP POP PUSH1 0x20 DUP8 ADD CALLDATALOAD PUSH8 0xFFFFFFFFFFFFFFFF DUP2 GT ISZERO PUSH2 0x1BD3 JUMPI PUSH2 0x1BD2 PUSH2 0x1712 JUMP JUMPDEST JUMPDEST PUSH2 0x1BDF DUP10 DUP3 DUP11 ADD PUSH2 0x1B42 JUMP JUMPDEST SWAP6 POP POP PUSH1 0x40 PUSH2 0x1BF0 DUP10 DUP3 DUP11 ADD PUSH2 0x1735 JUMP JUMPDEST SWAP5 POP POP PUSH1 0x60 PUSH2 0x1C01 DUP10 DUP3 DUP11 ADD PUSH2 0x1735 JUMP JUMPDEST SWAP4 POP POP PUSH1 0x80 PUSH2 0x1C12 DUP10 DUP3 DUP11 ADD PUSH2 0x1735 JUMP JUMPDEST SWAP3 POP POP PUSH1 0xA0 PUSH2 0x1C23 DUP10 DUP3 DUP11 ADD PUSH2 0x1735 JUMP JUMPDEST SWAP2 POP POP SWAP3 SWAP6 POP SWAP3 SWAP6 POP SWAP3 SWAP6 JUMP JUMPDEST PUSH0 DUP1 REVERT JUMPDEST PUSH0 DUP1 REVERT JUMPDEST PUSH2 0x1C41 DUP2 PUSH2 0x1900 JUMP JUMPDEST DUP2 EQ PUSH2 0x1C4B JUMPI PUSH0 DUP1 REVERT JUMPDEST POP JUMP JUMPDEST PUSH0 DUP2 CALLDATALOAD SWAP1 POP PUSH2 0x1C5C DUP2 PUSH2 0x1C38 JUMP JUMPDEST SWAP3 SWAP2 POP POP JUMP JUMPDEST PUSH0 PUSH2 0x140 DUP3 DUP5 SUB SLT ISZERO PUSH2 0x1C78 JUMPI PUSH2 0x1C77 PUSH2 0x1C30 JUMP JUMPDEST JUMPDEST PUSH2 0x1C83 PUSH2 0x140 PUSH2 0x1AA9 JUMP JUMPDEST SWAP1 POP PUSH0 PUSH2 0x1C92 DUP5 DUP3 DUP6 ADD PUSH2 0x1735 JUMP JUMPDEST PUSH0 DUP4 ADD MSTORE POP PUSH1 0x20 DUP3 ADD CALLDATALOAD PUSH8 0xFFFFFFFFFFFFFFFF DUP2 GT ISZERO PUSH2 0x1CB5 JUMPI PUSH2 0x1CB4 PUSH2 0x1C34 JUMP JUMPDEST JUMPDEST PUSH2 0x1CC1 DUP5 DUP3 DUP6 ADD PUSH2 0x1B42 JUMP JUMPDEST PUSH1 0x20 DUP4 ADD MSTORE POP PUSH1 0x40 DUP3 ADD CALLDATALOAD PUSH8 0xFFFFFFFFFFFFFFFF DUP2 GT ISZERO PUSH2 0x1CE5 JUMPI PUSH2 0x1CE4 PUSH2 0x1C34 JUMP JUMPDEST JUMPDEST PUSH2 0x1CF1 DUP5 DUP3 DUP6 ADD PUSH2 0x1B42 JUMP JUMPDEST PUSH1 0x40 DUP4 ADD MSTORE POP PUSH1 0x60 PUSH2 0x1D05 DUP5 DUP3 DUP6 ADD PUSH2 0x1735 JUMP JUMPDEST PUSH1 0x60 DUP4 ADD MSTORE POP PUSH1 0x80 PUSH2 0x1D19 DUP5 DUP3 DUP6 ADD PUSH2 0x1735 JUMP JUMPDEST PUSH1 0x80 DUP4 ADD MSTORE POP PUSH1 0xA0 PUSH2 0x1D2D DUP5 DUP3 DUP6 ADD PUSH2 0x1735 JUMP JUMPDEST PUSH1 0xA0 DUP4 ADD MSTORE POP PUSH1 0xC0 PUSH2 0x1D41 DUP5 DUP3 DUP6 ADD PUSH2 0x1735 JUMP JUMPDEST PUSH1 0xC0 DUP4 ADD MSTORE POP PUSH1 0xE0 PUSH2 0x1D55 DUP5 DUP3 DUP6 ADD PUSH2 0x1735 JUMP JUMPDEST PUSH1 0xE0 DUP4 ADD MSTORE POP PUSH2 0x100 PUSH2 0x1D6A DUP5 DUP3 DUP6 ADD PUSH2 0x17CD JUMP JUMPDEST PUSH2 0x100 DUP4 ADD MSTORE POP PUSH2 0x120 PUSH2 0x1D80 DUP5 DUP3 DUP6 ADD PUSH2 0x1C4E JUMP JUMPDEST PUSH2 0x120 DUP4 ADD MSTORE POP SWAP3 SWAP2 POP POP JUMP JUMPDEST PUSH0 PUSH1 0x20 DUP3 DUP5 SUB SLT ISZERO PUSH2 0x1DA2 JUMPI PUSH2 0x1DA1 PUSH2 0x170E JUMP JUMPDEST JUMPDEST PUSH0 DUP3 ADD CALLDATALOAD PUSH8 0xFFFFFFFFFFFFFFFF DUP2 GT ISZERO PUSH2 0x1DBF JUMPI PUSH2 0x1DBE PUSH2 0x1712 JUMP JUMPDEST JUMPDEST PUSH2 0x1DCB DUP5 DUP3 DUP6 ADD PUSH2 0x1C62 JUMP JUMPDEST SWAP2 POP POP SWAP3 SWAP2 POP POP JUMP JUMPDEST PUSH0 DUP2 SWAP1 POP SWAP2 SWAP1 POP JUMP JUMPDEST PUSH0 PUSH2 0x1DF7 PUSH2 0x1DF2 PUSH2 0x1DED DUP5 PUSH2 0x1787 JUMP JUMPDEST PUSH2 0x1DD4 JUMP JUMPDEST PUSH2 0x1787 JUMP JUMPDEST SWAP1 POP SWAP2 SWAP1 POP JUMP JUMPDEST PUSH0 PUSH2 0x1E08 DUP3 PUSH2 0x1DDD JUMP JUMPDEST SWAP1 POP SWAP2 SWAP1 POP JUMP JUMPDEST PUSH0 PUSH2 0x1E19 DUP3 PUSH2 0x1DFE JUMP JUMPDEST SWAP1 POP SWAP2 SWAP1 POP JUMP JUMPDEST PUSH2 0x1E29 DUP2 PUSH2 0x1E0F JUMP JUMPDEST DUP3 MSTORE POP POP JUMP JUMPDEST PUSH0 PUSH1 0x20 DUP3 ADD SWAP1 POP PUSH2 0x1E42 PUSH0 DUP4 ADD DUP5 PUSH2 0x1E20 JUMP JUMPDEST SWAP3 SWAP2 POP POP JUMP JUMPDEST PUSH0 DUP3 DUP3 MSTORE PUSH1 0x20 DUP3 ADD SWAP1 POP SWAP3 SWAP2 POP POP JUMP JUMPDEST PUSH32 0x506F6C696379206E6F7420666F756E6400000000000000000000000000000000 PUSH0 DUP3 ADD MSTORE POP JUMP JUMPDEST PUSH0 PUSH2 0x1E8C PUSH1 0x10 DUP4 PUSH2 0x1E48 JUMP JUMPDEST SWAP2 POP PUSH2 0x1E97 DUP3 PUSH2 0x1E58 JUMP JUMPDEST PUSH1 0x20 DUP3 ADD SWAP1 POP SWAP2 SWAP1 POP JUMP JUMPDEST PUSH0 PUSH1 0x20 DUP3 ADD SWAP1 POP DUP2 DUP2 SUB PUSH0 DUP4 ADD MSTORE PUSH2 0x1EB9 DUP2 PUSH2 0x1E80 JUMP JUMPDEST SWAP1 POP SWAP2 SWAP1 POP JUMP JUMPDEST PUSH32 0x506F6C69637920697320616C72656164792064656C6973746564000000000000 PUSH0 DUP3 ADD MSTORE POP JUMP JUMPDEST PUSH0 PUSH2 0x1EF4 PUSH1 0x1A DUP4 PUSH2 0x1E48 JUMP JUMPDEST SWAP2 POP PUSH2 0x1EFF DUP3 PUSH2 0x1EC0 JUMP JUMPDEST PUSH1 0x20 DUP3 ADD SWAP1 POP SWAP2 SWAP1 POP JUMP JUMPDEST PUSH0 PUSH1 0x20 DUP3 ADD SWAP1 POP DUP2 DUP2 SUB PUSH0 DUP4 ADD MSTORE PUSH2 0x1F21 DUP2 PUSH2 0x1EE8 JUMP JUMPDEST SWAP1 POP SWAP2 SWAP1 POP JUMP JUMPDEST PUSH32 0x506F6C69637920686173206265656E2064656C69737465642073756363657373 PUSH0 DUP3 ADD MSTORE PUSH32 0x66756C6C79210000000000000000000000000000000000000000000000000000 PUSH1 0x20 DUP3 ADD MSTORE POP JUMP JUMPDEST PUSH0 PUSH2 0x1F82 PUSH1 0x26 DUP4 PUSH2 0x1E48 JUMP JUMPDEST SWAP2 POP PUSH2 0x1F8D DUP3 PUSH2 0x1F28 JUMP JUMPDEST PUSH1 0x40 DUP3 ADD SWAP1 POP SWAP2 SWAP1 POP JUMP JUMPDEST PUSH0 PUSH1 0x40 DUP3 ADD SWAP1 POP PUSH2 0x1FAB PUSH0 DUP4 ADD DUP5 PUSH2 0x181F JUMP JUMPDEST DUP2 DUP2 SUB PUSH1 0x20 DUP4 ADD MSTORE PUSH2 0x1FBC DUP2 PUSH2 0x1F76 JUMP JUMPDEST SWAP1 POP SWAP3 SWAP2 POP POP JUMP JUMPDEST PUSH32 0x496E76616C696420706F6C696379204944000000000000000000000000000000 PUSH0 DUP3 ADD MSTORE POP JUMP JUMPDEST PUSH0 PUSH2 0x1FF8 PUSH1 0x11 DUP4 PUSH2 0x1E48 JUMP JUMPDEST SWAP2 POP PUSH2 0x2003 DUP3 PUSH2 0x1FC4 JUMP JUMPDEST PUSH1 0x20 DUP3 ADD SWAP1 POP SWAP2 SWAP1 POP JUMP JUMPDEST PUSH0 PUSH1 0x20 DUP3 ADD SWAP1 POP DUP2 DUP2 SUB PUSH0 DUP4 ADD MSTORE PUSH2 0x2025 DUP2 PUSH2 0x1FEC JUMP JUMPDEST SWAP1 POP SWAP2 SWAP1 POP JUMP JUMPDEST PUSH32 0x4E487B7100000000000000000000000000000000000000000000000000000000 PUSH0 MSTORE PUSH1 0x22 PUSH1 0x4 MSTORE PUSH1 0x24 PUSH0 REVERT JUMPDEST PUSH0 PUSH1 0x2 DUP3 DIV SWAP1 POP PUSH1 0x1 DUP3 AND DUP1 PUSH2 0x2070 JUMPI PUSH1 0x7F DUP3 AND SWAP2 POP JUMPDEST PUSH1 0x20 DUP3 LT DUP2 SUB PUSH2 0x2083 JUMPI PUSH2 0x2082 PUSH2 0x202C JUMP JUMPDEST JUMPDEST POP SWAP2 SWAP1 POP JUMP JUMPDEST PUSH32 0x4C697374657220686173206E6F74206372656174656420616E7920706F6C6963 PUSH0 DUP3 ADD MSTORE PUSH32 0x6965730000000000000000000000000000000000000000000000000000000000 PUSH1 0x20 DUP3 ADD MSTORE POP JUMP JUMPDEST PUSH0 PUSH2 0x20E3 PUSH1 0x23 DUP4 PUSH2 0x1E48 JUMP JUMPDEST SWAP2 POP PUSH2 0x20EE DUP3 PUSH2 0x2089 JUMP JUMPDEST PUSH1 0x40 DUP3 ADD SWAP1 POP SWAP2 SWAP1 POP JUMP JUMPDEST PUSH0 PUSH1 0x20 DUP3 ADD SWAP1 POP DUP2 DUP2 SUB PUSH0 DUP4 ADD MSTORE PUSH2 0x2110 DUP2 PUSH2 0x20D7 JUMP JUMPDEST SWAP1 POP SWAP2 SWAP1 POP JUMP JUMPDEST PUSH32 0x4E487B7100000000000000000000000000000000000000000000000000000000 PUSH0 MSTORE PUSH1 0x32 PUSH1 0x4 MSTORE PUSH1 0x24 PUSH0 REVERT JUMPDEST PUSH0 PUSH2 0x214E DUP3 PUSH2 0x1881 JUMP JUMPDEST PUSH2 0x2158 DUP2 DUP6 PUSH2 0x1E48 JUMP JUMPDEST SWAP4 POP PUSH2 0x2168 DUP2 DUP6 PUSH1 0x20 DUP7 ADD PUSH2 0x189B JUMP JUMPDEST PUSH2 0x2171 DUP2 PUSH2 0x18A9 JUMP JUMPDEST DUP5 ADD SWAP2 POP POP SWAP3 SWAP2 POP POP JUMP JUMPDEST PUSH2 0x2185 DUP2 PUSH2 0x17A6 JUMP JUMPDEST DUP3 MSTORE POP POP JUMP JUMPDEST PUSH2 0x2194 DUP2 PUSH2 0x1900 JUMP JUMPDEST DUP3 MSTORE POP POP JUMP JUMPDEST PUSH0 PUSH2 0x140 DUP3 ADD SWAP1 POP PUSH2 0x21AE PUSH0 DUP4 ADD DUP14 PUSH2 0x181F JUMP JUMPDEST DUP2 DUP2 SUB PUSH1 0x20 DUP4 ADD MSTORE PUSH2 0x21C0 DUP2 DUP13 PUSH2 0x2144 JUMP JUMPDEST SWAP1 POP DUP2 DUP2 SUB PUSH1 0x40 DUP4 ADD MSTORE PUSH2 0x21D4 DUP2 DUP12 PUSH2 0x2144 JUMP JUMPDEST SWAP1 POP PUSH2 0x21E3 PUSH1 0x60 DUP4 ADD DUP11 PUSH2 0x181F JUMP JUMPDEST PUSH2 0x21F0 PUSH1 0x80 DUP4 ADD DUP10 PUSH2 0x181F JUMP JUMPDEST PUSH2 0x21FD PUSH1 0xA0 DUP4 ADD DUP9 PUSH2 0x181F JUMP JUMPDEST PUSH2 0x220A PUSH1 0xC0 DUP4 ADD DUP8 PUSH2 0x181F JUMP JUMPDEST PUSH2 0x2217 PUSH1 0xE0 DUP4 ADD DUP7 PUSH2 0x181F JUMP JUMPDEST PUSH2 0x2225 PUSH2 0x100 DUP4 ADD DUP6 PUSH2 0x217C JUMP JUMPDEST PUSH2 0x2233 PUSH2 0x120 DUP4 ADD DUP5 PUSH2 0x218B JUMP JUMPDEST SWAP12 SWAP11 POP POP POP POP POP POP POP POP POP POP POP JUMP JUMPDEST PUSH32 0x4E487B7100000000000000000000000000000000000000000000000000000000 PUSH0 MSTORE PUSH1 0x11 PUSH1 0x4 MSTORE PUSH1 0x24 PUSH0 REVERT JUMPDEST PUSH0 PUSH2 0x2279 DUP3 PUSH2 0x1716 JUMP JUMPDEST SWAP2 POP PUSH2 0x2284 DUP4 PUSH2 0x1716 JUMP JUMPDEST SWAP3 POP DUP3 DUP3 ADD SWAP1 POP DUP1 DUP3 GT ISZERO PUSH2 0x229C JUMPI PUSH2 0x229B PUSH2 0x2242 JUMP JUMPDEST JUMPDEST SWAP3 SWAP2 POP POP JUMP JUMPDEST PUSH32 0x596F752063616E6E6F74206C697374207468697320706F6C6963792100000000 PUSH0 DUP3 ADD MSTORE POP JUMP JUMPDEST PUSH0 PUSH2 0x22D6 PUSH1 0x1C DUP4 PUSH2 0x1E48 JUMP JUMPDEST SWAP2 POP PUSH2 0x22E1 DUP3 PUSH2 0x22A2 JUMP JUMPDEST PUSH1 0x20 DUP3 ADD SWAP1 POP SWAP2 SWAP1 POP JUMP JUMPDEST PUSH0 PUSH1 0x20 DUP3 ADD SWAP1 POP DUP2 DUP2 SUB PUSH0 DUP4 ADD MSTORE PUSH2 0x2303 DUP2 PUSH2 0x22CA JUMP JUMPDEST SWAP1 POP SWAP2 SWAP1 POP JUMP JUMPDEST PUSH32 0x506F6C69637920697320616C7265616479206C69737465640000000000000000 PUSH0 DUP3 ADD MSTORE POP JUMP JUMPDEST PUSH0 PUSH2 0x233E PUSH1 0x18 DUP4 PUSH2 0x1E48 JUMP JUMPDEST SWAP2 POP PUSH2 0x2349 DUP3 PUSH2 0x230A JUMP JUMPDEST PUSH1 0x20 DUP3 ADD SWAP1 POP SWAP2 SWAP1 POP JUMP JUMPDEST PUSH0 PUSH1 0x20 DUP3 ADD SWAP1 POP DUP2 DUP2 SUB PUSH0 DUP4 ADD MSTORE PUSH2 0x236B DUP2 PUSH2 0x2332 JUMP JUMPDEST SWAP1 POP SWAP2 SWAP1 POP JUMP JUMPDEST PUSH32 0x506F6C69637920686173206265656E206C697374656420737563636573736675 PUSH0 DUP3 ADD MSTORE PUSH32 0x6C6C792100000000000000000000000000000000000000000000000000000000 PUSH1 0x20 DUP3 ADD MSTORE POP JUMP JUMPDEST PUSH0 PUSH2 0x23CC PUSH1 0x24 DUP4 PUSH2 0x1E48 JUMP JUMPDEST SWAP2 POP PUSH2 0x23D7 DUP3 PUSH2 0x2372 JUMP JUMPDEST PUSH1 0x40 DUP3 ADD SWAP1 POP SWAP2 SWAP1 POP JUMP JUMPDEST PUSH0 PUSH1 0x40 DUP3 ADD SWAP1 POP PUSH2 0x23F5 PUSH0 DUP4 ADD DUP5 PUSH2 0x181F JUMP JUMPDEST DUP2 DUP2 SUB PUSH1 0x20 DUP4 ADD MSTORE PUSH2 0x2406 DUP2 PUSH2 0x23C0 JUMP JUMPDEST SWAP1 POP SWAP3 SWAP2 POP POP JUMP JUMPDEST PUSH0 PUSH2 0x2418 DUP3 PUSH2 0x1716 JUMP JUMPDEST SWAP2 POP PUSH32 0xFFFFFFFFFFFFFFFFFFFFFFFFFFFFFFFFFFFFFFFFFFFFFFFFFFFFFFFFFFFFFFFF DUP3 SUB PUSH2 0x244A JUMPI PUSH2 0x2449 PUSH2 0x2242 JUMP JUMPDEST JUMPDEST PUSH1 0x1 DUP3 ADD SWAP1 POP SWAP2 SWAP1 POP JUMP JUMPDEST PUSH0 PUSH1 0x20 DUP3 ADD SWAP1 POP PUSH2 0x2468 PUSH0 DUP4 ADD DUP5 PUSH2 0x217C JUMP JUMPDEST SWAP3 SWAP2 POP POP JUMP JUMPDEST PUSH0 DUP2 MLOAD SWAP1 POP PUSH2 0x247C DUP2 PUSH2 0x171F JUMP JUMPDEST SWAP3 SWAP2 POP POP JUMP JUMPDEST PUSH0 PUSH1 0x20 DUP3 DUP5 SUB SLT ISZERO PUSH2 0x2497 JUMPI PUSH2 0x2496 PUSH2 0x170E JUMP JUMPDEST JUMPDEST PUSH0 PUSH2 0x24A4 DUP5 DUP3 DUP6 ADD PUSH2 0x246E JUMP JUMPDEST SWAP2 POP POP SWAP3 SWAP2 POP POP JUMP JUMPDEST PUSH0 DUP2 SWAP1 POP SWAP3 SWAP2 POP POP JUMP JUMPDEST PUSH32 0x596F752063757272656E746C7920686176652000000000000000000000000000 PUSH0 DUP3 ADD MSTORE POP JUMP JUMPDEST PUSH0 PUSH2 0x24EB PUSH1 0x13 DUP4 PUSH2 0x24AD JUMP JUMPDEST SWAP2 POP PUSH2 0x24F6 DUP3 PUSH2 0x24B7 JUMP JUMPDEST PUSH1 0x13 DUP3 ADD SWAP1 POP SWAP2 SWAP1 POP JUMP JUMPDEST PUSH0 PUSH2 0x250B DUP3 PUSH2 0x1881 JUMP JUMPDEST PUSH2 0x2515 DUP2 DUP6 PUSH2 0x24AD JUMP JUMPDEST SWAP4 POP PUSH2 0x2525 DUP2 DUP6 PUSH1 0x20 DUP7 ADD PUSH2 0x189B JUMP JUMPDEST DUP1 DUP5 ADD SWAP2 POP POP SWAP3 SWAP2 POP POP JUMP JUMPDEST PUSH32 0x20746F6B656E732C207768696368206973206E6F7420656E6F75676820746F20 PUSH0 DUP3 ADD MSTORE PUSH32 0x637265617465206120706F6C6963792077697468206D617820706F6F6C207661 PUSH1 0x20 DUP3 ADD MSTORE PUSH32 0x6C7565206F662000000000000000000000000000000000000000000000000000 PUSH1 0x40 DUP3 ADD MSTORE POP JUMP JUMPDEST PUSH0 PUSH2 0x25B1 PUSH1 0x47 DUP4 PUSH2 0x24AD JUMP JUMPDEST SWAP2 POP PUSH2 0x25BC DUP3 PUSH2 0x2531 JUMP JUMPDEST PUSH1 0x47 DUP3 ADD SWAP1 POP SWAP2 SWAP1 POP JUMP JUMPDEST PUSH32 0x20746F6B656E732E000000000000000000000000000000000000000000000000 PUSH0 DUP3 ADD MSTORE POP JUMP JUMPDEST PUSH0 PUSH2 0x25FB PUSH1 0x8 DUP4 PUSH2 0x24AD JUMP JUMPDEST SWAP2 POP PUSH2 0x2606 DUP3 PUSH2 0x25C7 JUMP JUMPDEST PUSH1 0x8 DUP3 ADD SWAP1 POP SWAP2 SWAP1 POP JUMP JUMPDEST PUSH0 PUSH2 0x261B DUP3 PUSH2 0x24DF JUMP JUMPDEST SWAP2 POP PUSH2 0x2627 DUP3 DUP6 PUSH2 0x2501 JUMP JUMPDEST SWAP2 POP PUSH2 0x2632 DUP3 PUSH2 0x25A5 JUMP JUMPDEST SWAP2 POP PUSH2 0x263E DUP3 DUP5 PUSH2 0x2501 JUMP JUMPDEST SWAP2 POP PUSH2 0x2649 DUP3 PUSH2 0x25EF JUMP JUMPDEST SWAP2 POP DUP2 SWAP1 POP SWAP4 SWAP3 POP POP POP JUMP JUMPDEST PUSH0 PUSH1 0x20 DUP3 ADD SWAP1 POP DUP2 DUP2 SUB PUSH0 DUP4 ADD MSTORE PUSH2 0x266D DUP2 DUP5 PUSH2 0x2144 JUMP JUMPDEST SWAP1 POP SWAP3 SWAP2 POP POP JUMP JUMPDEST PUSH0 PUSH2 0x2680 DUP3 DUP5 PUSH2 0x2501 JUMP JUMPDEST SWAP2 POP DUP2 SWAP1 POP SWAP3 SWAP2 POP POP JUMP JUMPDEST PUSH32 0x496E76616C696420706F6C696379207479706500000000000000000000000000 PUSH0 DUP3 ADD MSTORE POP JUMP JUMPDEST PUSH0 PUSH2 0x26BF PUSH1 0x13 DUP4 PUSH2 0x1E48 JUMP JUMPDEST SWAP2 POP PUSH2 0x26CA DUP3 PUSH2 0x268B JUMP JUMPDEST PUSH1 0x20 DUP3 ADD SWAP1 POP SWAP2 SWAP1 POP JUMP JUMPDEST PUSH0 PUSH1 0x20 DUP3 ADD SWAP1 POP DUP2 DUP2 SUB PUSH0 DUP4 ADD MSTORE PUSH2 0x26EC DUP2 PUSH2 0x26B3 JUMP JUMPDEST SWAP1 POP SWAP2 SWAP1 POP JUMP JUMPDEST PUSH32 0x596F757220636C61696D206261636B20726174652073686F756C642062652068 PUSH0 DUP3 ADD MSTORE PUSH32 0x6967686572207468616E20796F757220636F6E76657273696F6E207261746500 PUSH1 0x20 DUP3 ADD MSTORE POP JUMP JUMPDEST PUSH0 PUSH2 0x274D PUSH1 0x3F DUP4 PUSH2 0x1E48 JUMP JUMPDEST SWAP2 POP PUSH2 0x2758 DUP3 PUSH2 0x26F3 JUMP JUMPDEST PUSH1 0x40 DUP3 ADD SWAP1 POP SWAP2 SWAP1 POP JUMP JUMPDEST PUSH0 PUSH1 0x20 DUP3 ADD SWAP1 POP DUP2 DUP2 SUB PUSH0 DUP4 ADD MSTORE PUSH2 0x277A DUP2 PUSH2 0x2741 JUMP JUMPDEST SWAP1 POP SWAP2 SWAP1 POP JUMP JUMPDEST PUSH0 PUSH2 0x278B DUP3 PUSH2 0x1716 JUMP JUMPDEST SWAP2 POP PUSH2 0x2796 DUP4 PUSH2 0x1716 JUMP JUMPDEST SWAP3 POP DUP3 DUP3 MUL PUSH2 0x27A4 DUP2 PUSH2 0x1716 JUMP JUMPDEST SWAP2 POP DUP3 DUP3 DIV DUP5 EQ DUP4 ISZERO OR PUSH2 0x27BB JUMPI PUSH2 0x27BA PUSH2 0x2242 JUMP JUMPDEST JUMPDEST POP SWAP3 SWAP2 POP POP JUMP JUMPDEST PUSH32 0x496E73756666696369656E7420636F6C6C61746572616C3A2072656475636520 PUSH0 DUP3 ADD MSTORE PUSH32 0x746865206D617820706F6F6C2076616C756520666F72207468697320706F6C69 PUSH1 0x20 DUP3 ADD MSTORE PUSH32 0x6379206F7220746F70207570206D6F726520435320746F6B656E7320746F2069 PUSH1 0x40 DUP3 ADD MSTORE PUSH32 0x6E63726561736520796F757220636F6C6C61746572616C000000000000000000 PUSH1 0x60 DUP3 ADD MSTORE POP JUMP JUMPDEST PUSH0 PUSH2 0x2868 PUSH1 0x77 DUP4 PUSH2 0x1E48 JUMP JUMPDEST SWAP2 POP PUSH2 0x2873 DUP3 PUSH2 0x27C2 JUMP JUMPDEST PUSH1 0x80 DUP3 ADD SWAP1 POP SWAP2 SWAP1 POP JUMP JUMPDEST PUSH0 PUSH1 0x20 DUP3 ADD SWAP1 POP DUP2 DUP2 SUB PUSH0 DUP4 ADD MSTORE PUSH2 0x2895 DUP2 PUSH2 0x285C JUMP JUMPDEST SWAP1 POP SWAP2 SWAP1 POP JUMP JUMPDEST PUSH0 PUSH1 0x40 DUP3 ADD SWAP1 POP PUSH2 0x28AF PUSH0 DUP4 ADD DUP6 PUSH2 0x181F JUMP JUMPDEST PUSH2 0x28BC PUSH1 0x20 DUP4 ADD DUP5 PUSH2 0x181F JUMP JUMPDEST SWAP4 SWAP3 POP POP POP JUMP JUMPDEST PUSH0 DUP2 SWAP1 POP DUP2 PUSH0 MSTORE PUSH1 0x20 PUSH0 KECCAK256 SWAP1 POP SWAP2 SWAP1 POP JUMP JUMPDEST PUSH0 PUSH1 0x20 PUSH1 0x1F DUP4 ADD DIV SWAP1 POP SWAP2 SWAP1 POP JUMP JUMPDEST PUSH0 DUP3 DUP3 SHL SWAP1 POP SWAP3 SWAP2 POP POP JUMP JUMPDEST PUSH0 PUSH1 0x8 DUP4 MUL PUSH2 0x291F PUSH32 0xFFFFFFFFFFFFFFFFFFFFFFFFFFFFFFFFFFFFFFFFFFFFFFFFFFFFFFFFFFFFFFFF DUP3 PUSH2 0x28E4 JUMP JUMPDEST PUSH2 0x2929 DUP7 DUP4 PUSH2 0x28E4 JUMP JUMPDEST SWAP6 POP DUP1 NOT DUP5 AND SWAP4 POP DUP1 DUP7 AND DUP5 OR SWAP3 POP POP POP SWAP4 SWAP3 POP POP POP JUMP JUMPDEST PUSH0 PUSH2 0x295B PUSH2 0x2956 PUSH2 0x2951 DUP5 PUSH2 0x1716 JUMP JUMPDEST PUSH2 0x1DD4 JUMP JUMPDEST PUSH2 0x1716 JUMP JUMPDEST SWAP1 POP SWAP2 SWAP1 POP JUMP JUMPDEST PUSH0 DUP2 SWAP1 POP SWAP2 SWAP1 POP JUMP JUMPDEST PUSH2 0x2974 DUP4 PUSH2 0x2941 JUMP JUMPDEST PUSH2 0x2988 PUSH2 0x2980 DUP3 PUSH2 0x2962 JUMP JUMPDEST DUP5 DUP5 SLOAD PUSH2 0x28F0 JUMP JUMPDEST DUP3 SSTORE POP POP POP POP JUMP JUMPDEST PUSH0 SWAP1 JUMP JUMPDEST PUSH2 0x299C PUSH2 0x2990 JUMP JUMPDEST PUSH2 0x29A7 DUP2 DUP5 DUP5 PUSH2 0x296B JUMP JUMPDEST POP POP POP JUMP JUMPDEST JUMPDEST DUP2 DUP2 LT ISZERO PUSH2 0x29CA JUMPI PUSH2 0x29BF PUSH0 DUP3 PUSH2 0x2994 JUMP JUMPDEST PUSH1 0x1 DUP2 ADD SWAP1 POP PUSH2 0x29AD JUMP JUMPDEST POP POP JUMP JUMPDEST PUSH1 0x1F DUP3 GT ISZERO PUSH2 0x2A0F JUMPI PUSH2 0x29E0 DUP2 PUSH2 0x28C3 JUMP JUMPDEST PUSH2 0x29E9 DUP5 PUSH2 0x28D5 JUMP JUMPDEST DUP2 ADD PUSH1 0x20 DUP6 LT ISZERO PUSH2 0x29F8 JUMPI DUP2 SWAP1 POP JUMPDEST PUSH2 0x2A0C PUSH2 0x2A04 DUP6 PUSH2 0x28D5 JUMP JUMPDEST DUP4 ADD DUP3 PUSH2 0x29AC JUMP JUMPDEST POP POP JUMPDEST POP POP POP JUMP JUMPDEST PUSH0 DUP3 DUP3 SHR SWAP1 POP SWAP3 SWAP2 POP POP JUMP JUMPDEST PUSH0 PUSH2 0x2A2F PUSH0 NOT DUP5 PUSH1 0x8 MUL PUSH2 0x2A14 JUMP JUMPDEST NOT DUP1 DUP4 AND SWAP2 POP POP SWAP3 SWAP2 POP POP JUMP JUMPDEST PUSH0 PUSH2 0x2A47 DUP4 DUP4 PUSH2 0x2A20 JUMP JUMPDEST SWAP2 POP DUP3 PUSH1 0x2 MUL DUP3 OR SWAP1 POP SWAP3 SWAP2 POP POP JUMP JUMPDEST PUSH2 0x2A60 DUP3 PUSH2 0x1881 JUMP JUMPDEST PUSH8 0xFFFFFFFFFFFFFFFF DUP2 GT ISZERO PUSH2 0x2A79 JUMPI PUSH2 0x2A78 PUSH2 0x1A4B JUMP JUMPDEST JUMPDEST PUSH2 0x2A83 DUP3 SLOAD PUSH2 0x2059 JUMP JUMPDEST PUSH2 0x2A8E DUP3 DUP3 DUP6 PUSH2 0x29CE JUMP JUMPDEST PUSH0 PUSH1 0x20 SWAP1 POP PUSH1 0x1F DUP4 GT PUSH1 0x1 DUP2 EQ PUSH2 0x2ABF JUMPI PUSH0 DUP5 ISZERO PUSH2 0x2AAD JUMPI DUP3 DUP8 ADD MLOAD SWAP1 POP JUMPDEST PUSH2 0x2AB7 DUP6 DUP3 PUSH2 0x2A3C JUMP JUMPDEST DUP7 SSTORE POP PUSH2 0x2B1E JUMP JUMPDEST PUSH1 0x1F NOT DUP5 AND PUSH2 0x2ACD DUP7 PUSH2 0x28C3 JUMP JUMPDEST PUSH0 JUMPDEST DUP3 DUP2 LT ISZERO PUSH2 0x2AF4 JUMPI DUP5 DUP10 ADD MLOAD DUP3 SSTORE PUSH1 0x1 DUP3 ADD SWAP2 POP PUSH1 0x20 DUP6 ADD SWAP5 POP PUSH1 0x20 DUP2 ADD SWAP1 POP PUSH2 0x2ACF JUMP JUMPDEST DUP7 DUP4 LT ISZERO PUSH2 0x2B11 JUMPI DUP5 DUP10 ADD MLOAD PUSH2 0x2B0D PUSH1 0x1F DUP10 AND DUP3 PUSH2 0x2A20 JUMP JUMPDEST DUP4 SSTORE POP JUMPDEST PUSH1 0x1 PUSH1 0x2 DUP9 MUL ADD DUP9 SSTORE POP POP POP JUMPDEST POP POP POP POP POP POP JUMP JUMPDEST PUSH0 PUSH1 0x60 DUP3 ADD SWAP1 POP PUSH2 0x2B39 PUSH0 DUP4 ADD DUP7 PUSH2 0x181F JUMP JUMPDEST DUP2 DUP2 SUB PUSH1 0x20 DUP4 ADD MSTORE PUSH2 0x2B4B DUP2 DUP6 PUSH2 0x2144 JUMP JUMPDEST SWAP1 POP PUSH2 0x2B5A PUSH1 0x40 DUP4 ADD DUP5 PUSH2 0x217C JUMP JUMPDEST SWAP5 SWAP4 POP POP POP POP JUMP JUMPDEST PUSH32 0x4E487B7100000000000000000000000000000000000000000000000000000000 PUSH0 MSTORE PUSH1 0x12 PUSH1 0x4 MSTORE PUSH1 0x24 PUSH0 REVERT INVALID LOG2 PUSH5 0x6970667358 0x22 SLT KECCAK256 0x2C 0xCE 0x29 0x23 0xC0 SIGNEXTEND BASEFEE 0xAD PUSH29 0x9D4FCD2E2ED70EC898FBF410D63089228E5788D3BE5D7364736F6C6343 STOP ADDMOD BYTE STOP CALLER "
		},
		"gasEstimates": {
			"creation": {
				"codeDepositCost": "2241000",
				"executionCost": "infinite",
				"totalCost": "infinite"
			},
			"external": {
				"_deListPolicy(uint256)": "infinite",
				"_listPolicy(uint256)": "infinite",
				"calculateAllNetClaimValue()": "infinite",
				"calculateNetClaimValue((uint256,string,string,uint256,uint256,uint256,uint256,uint256,address,bool))": "infinite",
				"createNewPolicy(string,string,uint256,uint256,uint256,uint256)": "infinite",
				"getListerPolicyDetails(address)": "infinite",
				"getPolicy(uint256)": "infinite",
				"listerPolicies(address,uint256)": "infinite",
				"policyCount()": "2491",
				"token()": "infinite",
				"updatePolicyPoolValue(uint256,uint256)": "infinite"
			},
			"internal": {
				"changePolicyListedStatus(uint256)": "infinite"
			}
		},
		"methodIdentifiers": {
			"_deListPolicy(uint256)": "22191f72",
			"_listPolicy(uint256)": "5b2a3646",
			"calculateAllNetClaimValue()": "9d3db268",
			"calculateNetClaimValue((uint256,string,string,uint256,uint256,uint256,uint256,uint256,address,bool))": "de8cba8d",
			"createNewPolicy(string,string,uint256,uint256,uint256,uint256)": "a719a9cb",
			"getListerPolicyDetails(address)": "420deaed",
			"getPolicy(uint256)": "2b07fce3",
			"listerPolicies(address,uint256)": "16807d31",
			"policyCount()": "de54d429",
			"token()": "fc0c546a",
			"updatePolicyPoolValue(uint256,uint256)": "0c6ab3fa"
		}
	},
	"abi": [
		{
			"inputs": [
				{
					"internalType": "contract CSToken",
					"name": "_token",
					"type": "address"
				}
			],
			"stateMutability": "nonpayable",
			"type": "constructor"
		},
		{
			"anonymous": false,
			"inputs": [
				{
					"indexed": true,
					"internalType": "address",
					"name": "user",
					"type": "address"
				},
				{
					"indexed": false,
					"internalType": "uint256",
					"name": "collateral",
					"type": "uint256"
				},
				{
					"indexed": false,
					"internalType": "uint256",
					"name": "netClaimValue",
					"type": "uint256"
				}
			],
			"name": "CheckSufficientCollateral",
			"type": "event"
		},
		{
			"anonymous": false,
			"inputs": [
				{
					"indexed": false,
					"internalType": "uint256",
					"name": "policyId",
					"type": "uint256"
				},
				{
					"indexed": false,
					"internalType": "string",
					"name": "policyName",
					"type": "string"
				},
				{
					"indexed": false,
					"internalType": "address",
					"name": "creator",
					"type": "address"
				}
			],
			"name": "PolicyCreated",
			"type": "event"
		},
		{
			"anonymous": false,
			"inputs": [
				{
					"indexed": false,
					"internalType": "uint256",
					"name": "policyId",
					"type": "uint256"
				},
				{
					"indexed": false,
					"internalType": "string",
					"name": "policyName",
					"type": "string"
				},
				{
					"indexed": false,
					"internalType": "string",
					"name": "policyType",
					"type": "string"
				},
				{
					"indexed": false,
					"internalType": "uint256",
					"name": "claimBackRate",
					"type": "uint256"
				},
				{
					"indexed": false,
					"internalType": "uint256",
					"name": "maxPoolValue",
					"type": "uint256"
				},
				{
					"indexed": false,
					"internalType": "uint256",
					"name": "currPoolValue",
					"type": "uint256"
				},
				{
					"indexed": false,
					"internalType": "uint256",
					"name": "minStake",
					"type": "uint256"
				},
				{
					"indexed": false,
					"internalType": "uint256",
					"name": "coveragePeriod",
					"type": "uint256"
				},
				{
					"indexed": false,
					"internalType": "address",
					"name": "creator",
					"type": "address"
				},
				{
					"indexed": false,
					"internalType": "bool",
					"name": "listed",
					"type": "bool"
				}
			],
			"name": "PolicyDetails",
			"type": "event"
		},
		{
			"anonymous": false,
			"inputs": [
				{
					"indexed": false,
					"internalType": "uint256",
					"name": "policyId",
					"type": "uint256"
				},
				{
					"indexed": false,
					"internalType": "string",
					"name": "listed",
					"type": "string"
				}
			],
			"name": "PolicyListed",
			"type": "event"
		},
		{
			"anonymous": false,
			"inputs": [
				{
					"indexed": false,
					"internalType": "uint256",
					"name": "policyId",
					"type": "uint256"
				},
				{
					"indexed": false,
					"internalType": "string",
					"name": "delisted",
					"type": "string"
				}
			],
			"name": "PolicydeListed",
			"type": "event"
		},
		{
			"inputs": [
				{
					"internalType": "uint256",
					"name": "policyId",
					"type": "uint256"
				}
			],
			"name": "_deListPolicy",
			"outputs": [],
			"stateMutability": "nonpayable",
			"type": "function"
		},
		{
			"inputs": [
				{
					"internalType": "uint256",
					"name": "policyId",
					"type": "uint256"
				}
			],
			"name": "_listPolicy",
			"outputs": [],
			"stateMutability": "nonpayable",
			"type": "function"
		},
		{
			"inputs": [],
			"name": "calculateAllNetClaimValue",
			"outputs": [
				{
					"internalType": "uint256",
					"name": "",
					"type": "uint256"
				}
			],
			"stateMutability": "view",
			"type": "function"
		},
		{
			"inputs": [
				{
					"components": [
						{
							"internalType": "uint256",
							"name": "policyId",
							"type": "uint256"
						},
						{
							"internalType": "string",
							"name": "policyName",
							"type": "string"
						},
						{
							"internalType": "string",
							"name": "policyType",
							"type": "string"
						},
						{
							"internalType": "uint256",
							"name": "claimBackRate",
							"type": "uint256"
						},
						{
							"internalType": "uint256",
							"name": "maxPoolValue",
							"type": "uint256"
						},
						{
							"internalType": "uint256",
							"name": "currPoolValue",
							"type": "uint256"
						},
						{
							"internalType": "uint256",
							"name": "minStake",
							"type": "uint256"
						},
						{
							"internalType": "uint256",
							"name": "coveragePeriod",
							"type": "uint256"
						},
						{
							"internalType": "address",
							"name": "creator",
							"type": "address"
						},
						{
							"internalType": "bool",
							"name": "listed",
							"type": "bool"
						}
					],
					"internalType": "struct InsuranceCompany.Policy",
					"name": "p",
					"type": "tuple"
				}
			],
			"name": "calculateNetClaimValue",
			"outputs": [
				{
					"internalType": "uint256",
					"name": "",
					"type": "uint256"
				}
			],
			"stateMutability": "pure",
			"type": "function"
		},
		{
			"inputs": [
				{
					"internalType": "string",
					"name": "_policyName",
					"type": "string"
				},
				{
					"internalType": "string",
					"name": "_policyType",
					"type": "string"
				},
				{
					"internalType": "uint256",
					"name": "_claimBackRate",
					"type": "uint256"
				},
				{
					"internalType": "uint256",
					"name": "_maxPoolValue",
					"type": "uint256"
				},
				{
					"internalType": "uint256",
					"name": "_minStake",
					"type": "uint256"
				},
				{
					"internalType": "uint256",
					"name": "_coveragePeriod",
					"type": "uint256"
				}
			],
			"name": "createNewPolicy",
			"outputs": [],
			"stateMutability": "nonpayable",
			"type": "function"
		},
		{
			"inputs": [
				{
					"internalType": "address",
					"name": "_lister",
					"type": "address"
				}
			],
			"name": "getListerPolicyDetails",
			"outputs": [],
			"stateMutability": "nonpayable",
			"type": "function"
		},
		{
			"inputs": [
				{
					"internalType": "uint256",
					"name": "policyId",
					"type": "uint256"
				}
			],
			"name": "getPolicy",
			"outputs": [
				{
					"components": [
						{
							"internalType": "uint256",
							"name": "policyId",
							"type": "uint256"
						},
						{
							"internalType": "string",
							"name": "policyName",
							"type": "string"
						},
						{
							"internalType": "string",
							"name": "policyType",
							"type": "string"
						},
						{
							"internalType": "uint256",
							"name": "claimBackRate",
							"type": "uint256"
						},
						{
							"internalType": "uint256",
							"name": "maxPoolValue",
							"type": "uint256"
						},
						{
							"internalType": "uint256",
							"name": "currPoolValue",
							"type": "uint256"
						},
						{
							"internalType": "uint256",
							"name": "minStake",
							"type": "uint256"
						},
						{
							"internalType": "uint256",
							"name": "coveragePeriod",
							"type": "uint256"
						},
						{
							"internalType": "address",
							"name": "creator",
							"type": "address"
						},
						{
							"internalType": "bool",
							"name": "listed",
							"type": "bool"
						}
					],
					"internalType": "struct InsuranceCompany.Policy",
					"name": "",
					"type": "tuple"
				}
			],
			"stateMutability": "view",
			"type": "function"
		},
		{
			"inputs": [
				{
					"internalType": "address",
					"name": "",
					"type": "address"
				},
				{
					"internalType": "uint256",
					"name": "",
					"type": "uint256"
				}
			],
			"name": "listerPolicies",
			"outputs": [
				{
					"internalType": "uint256",
					"name": "",
					"type": "uint256"
				}
			],
			"stateMutability": "view",
			"type": "function"
		},
		{
			"inputs": [],
			"name": "policyCount",
			"outputs": [
				{
					"internalType": "uint256",
					"name": "",
					"type": "uint256"
				}
			],
			"stateMutability": "view",
			"type": "function"
		},
		{
			"inputs": [],
			"name": "token",
			"outputs": [
				{
					"internalType": "contract CSToken",
					"name": "",
					"type": "address"
				}
			],
			"stateMutability": "view",
			"type": "function"
		},
		{
			"inputs": [
				{
					"internalType": "uint256",
					"name": "policyId",
					"type": "uint256"
				},
				{
					"internalType": "uint256",
					"name": "newPoolValue",
					"type": "uint256"
				}
			],
			"name": "updatePolicyPoolValue",
			"outputs": [],
			"stateMutability": "nonpayable",
			"type": "function"
		}
	]
}