{
	"data": {
		"bytecode": {
			"linkReferences": {},
			"object": "608060405242600255348015610013575f80fd5b5060405161216838038061216883398181016040528101906100359190610165565b815f806101000a81548173ffffffffffffffffffffffffffffffffffffffff021916908373ffffffffffffffffffffffffffffffffffffffff1602179055508060015f6101000a81548173ffffffffffffffffffffffffffffffffffffffff021916908373ffffffffffffffffffffffffffffffffffffffff16021790555050506101a3565b5f80fd5b5f73ffffffffffffffffffffffffffffffffffffffff82169050919050565b5f6100e8826100bf565b9050919050565b5f6100f9826100de565b9050919050565b610109816100ef565b8114610113575f80fd5b50565b5f8151905061012481610100565b92915050565b5f610134826100de565b9050919050565b6101448161012a565b811461014e575f80fd5b50565b5f8151905061015f8161013b565b92915050565b5f806040838503121561017b5761017a6100bb565b5b5f61018885828601610116565b925050602061019985828601610151565b9150509250929050565b611fb8806101b05f395ff3fe608060405260043610610049575f3560e01c806379c888941461004d5780639d61dba814610069578063a56cf06714610093578063bb529068146100bb578063bf58fa3714610101575b5f80fd5b61006760048036038101906100629190611074565b61012b565b005b348015610074575f80fd5b5061007d610580565b60405161008a9190611325565b60405180910390f35b34801561009e575f80fd5b506100b960048036038101906100b49190611074565b61076e565b005b3480156100c6575f80fd5b506100e160048036038101906100dc919061136f565b61090d565b6040516100f89b9a99989796959493929190611422565b60405180910390f35b34801561010c575f80fd5b50610115610ab5565b6040516101229190611325565b60405180910390f35b5f60015f9054906101000a900473ffffffffffffffffffffffffffffffffffffffff1673ffffffffffffffffffffffffffffffffffffffff16632b07fce3836040518263ffffffff1660e01b815260040161018691906114d9565b5f60405180830381865afa1580156101a0573d5f803e3d5ffd5b505050506040513d5f823e3d601f19601f820116820180604052508101906101c891906117ab565b905060011515816101400151151514610216576040517f08c379a000000000000000000000000000000000000000000000000000000000815260040161020d90611862565b60405180910390fd5b5f805f9054906101000a900473ffffffffffffffffffffffffffffffffffffffff1673ffffffffffffffffffffffffffffffffffffffff1663c393f7566040518163ffffffff1660e01b8152600401602060405180830381865afa158015610280573d5f803e3d5ffd5b505050506040513d601f19601f820116820180604052508101906102a49190611880565b8260c001516102b391906118d8565b9050803410156102c282610d22565b6102cb34610d22565b6040516020016102dc929190611a57565b6040516020818303038152906040529061032c576040517f08c379a00000000000000000000000000000000000000000000000000000000081526004016103239190611a9b565b60405180910390fd5b508160a00151826080015111610377576040517f08c379a000000000000000000000000000000000000000000000000000000000815260040161036e90611b05565b60405180910390fd5b60035f3373ffffffffffffffffffffffffffffffffffffffff1673ffffffffffffffffffffffffffffffffffffffff1681526020019081526020015f2082908060018154018082558091505060019003905f5260205f2090600a02015f909190919091505f820151815f015560208201518160010190816103f89190611d1d565b50604082015181600201908161040e9190611d1d565b50606082015181600301556080820151816004015560a0820151816005015560c0820151816006015560e082015181600701556101008201518160080155610120820151816009015f6101000a81548173ffffffffffffffffffffffffffffffffffffffff021916908373ffffffffffffffffffffffffffffffffffffffff1602179055506101408201518160090160146101000a81548160ff021916908315150217905550505060015f9054906101000a900473ffffffffffffffffffffffffffffffffffffffff1673ffffffffffffffffffffffffffffffffffffffff16630c6ab3fa848460c001518560a001516105089190611dec565b6040518363ffffffff1660e01b8152600401610525929190611e1f565b5f604051808303815f87803b15801561053c575f80fd5b505af115801561054e573d5f803e3d5ffd5b505050508160c001518260a00151836080015161056b9190611e46565b101561057b5761057a83610dec565b5b505050565b60605f60015f9054906101000a900473ffffffffffffffffffffffffffffffffffffffff1673ffffffffffffffffffffffffffffffffffffffff1663de54d4296040518163ffffffff1660e01b8152600401602060405180830381865afa1580156105ed573d5f803e3d5ffd5b505050506040513d601f19601f820116820180604052508101906106119190611880565b90505f8167ffffffffffffffff81111561062e5761062d6114f6565b5b60405190808252806020026020018201604052801561066757816020015b610654610fc7565b81526020019060019003908161064c5790505b5090505f80600190505b838111610764575f60015f9054906101000a900473ffffffffffffffffffffffffffffffffffffffff1673ffffffffffffffffffffffffffffffffffffffff16632b07fce3836040518263ffffffff1660e01b81526004016106d391906114d9565b5f60405180830381865afa1580156106ed573d5f803e3d5ffd5b505050506040513d5f823e3d601f19601f8201168201806040525081019061071591906117ab565b905080610140015115610750578084848151811061073657610735611e79565b5b6020026020010181905250828061074c90611ea6565b9350505b50808061075c90611ea6565b915050610671565b5081935050505090565b805f60015f9054906101000a900473ffffffffffffffffffffffffffffffffffffffff1673ffffffffffffffffffffffffffffffffffffffff16632b07fce3836040518263ffffffff1660e01b81526004016107ca91906114d9565b5f60405180830381865afa1580156107e4573d5f803e3d5ffd5b505050506040513d5f823e3d601f19601f8201168201806040525081019061080c91906117ab565b905080610120015173ffffffffffffffffffffffffffffffffffffffff163373ffffffffffffffffffffffffffffffffffffffff1614610881576040517f08c379a000000000000000000000000000000000000000000000000000000000815260040161087890611f37565b60405180910390fd5b60015f9054906101000a900473ffffffffffffffffffffffffffffffffffffffff1673ffffffffffffffffffffffffffffffffffffffff16635b2a3646846040518263ffffffff1660e01b81526004016108db91906114d9565b5f604051808303815f87803b1580156108f2575f80fd5b505af1158015610904573d5f803e3d5ffd5b50505050505050565b6003602052815f5260405f208181548110610926575f80fd5b905f5260205f2090600a02015f9150915050805f01549080600101805461094c90611b50565b80601f016020809104026020016040519081016040528092919081815260200182805461097890611b50565b80156109c35780601f1061099a576101008083540402835291602001916109c3565b820191905f5260205f20905b8154815290600101906020018083116109a657829003601f168201915b5050505050908060020180546109d890611b50565b80601f0160208091040260200160405190810160405280929190818152602001828054610a0490611b50565b8015610a4f5780601f10610a2657610100808354040283529160200191610a4f565b820191905f5260205f20905b815481529060010190602001808311610a3257829003601f168201915b505050505090806003015490806004015490806005015490806006015490806007015490806008015490806009015f9054906101000a900473ffffffffffffffffffffffffffffffffffffffff16908060090160149054906101000a900460ff1690508b565b606060035f3373ffffffffffffffffffffffffffffffffffffffff1673ffffffffffffffffffffffffffffffffffffffff1681526020019081526020015f20805480602002602001604051908101604052809291908181526020015f905b82821015610d19578382905f5260205f2090600a0201604051806101600160405290815f8201548152602001600182018054610b4e90611b50565b80601f0160208091040260200160405190810160405280929190818152602001828054610b7a90611b50565b8015610bc55780601f10610b9c57610100808354040283529160200191610bc5565b820191905f5260205f20905b815481529060010190602001808311610ba857829003601f168201915b50505050508152602001600282018054610bde90611b50565b80601f0160208091040260200160405190810160405280929190818152602001828054610c0a90611b50565b8015610c555780601f10610c2c57610100808354040283529160200191610c55565b820191905f5260205f20905b815481529060010190602001808311610c3857829003601f168201915b50505050508152602001600382015481526020016004820154815260200160058201548152602001600682015481526020016007820154815260200160088201548152602001600982015f9054906101000a900473ffffffffffffffffffffffffffffffffffffffff1673ffffffffffffffffffffffffffffffffffffffff1673ffffffffffffffffffffffffffffffffffffffff1681526020016009820160149054906101000a900460ff16151515158152505081526020019060010190610b13565b50505050905090565b60605f6001610d3084610e76565b0190505f8167ffffffffffffffff811115610d4e57610d4d6114f6565b5b6040519080825280601f01601f191660200182016040528015610d805781602001600182028036833780820191505090505b5090505f82602001820190505b600115610de1578080600190039150507f3031323334353637383961626364656600000000000000000000000000000000600a86061a8153600a8581610dd657610dd5611f55565b5b0494505f8503610d8d575b819350505050919050565b60015f9054906101000a900473ffffffffffffffffffffffffffffffffffffffff1673ffffffffffffffffffffffffffffffffffffffff166322191f72826040518263ffffffff1660e01b8152600401610e4691906114d9565b5f604051808303815f87803b158015610e5d575f80fd5b505af1158015610e6f573d5f803e3d5ffd5b5050505050565b5f805f90507a184f03e93ff9f4daa797ed6e38ed64bf6a1f0100000000000000008310610ed2577a184f03e93ff9f4daa797ed6e38ed64bf6a1f0100000000000000008381610ec857610ec7611f55565b5b0492506040810190505b6d04ee2d6d415b85acef81000000008310610f0f576d04ee2d6d415b85acef81000000008381610f0557610f04611f55565b5b0492506020810190505b662386f26fc100008310610f3e57662386f26fc100008381610f3457610f33611f55565b5b0492506010810190505b6305f5e1008310610f67576305f5e1008381610f5d57610f5c611f55565b5b0492506008810190505b6127108310610f8c576127108381610f8257610f81611f55565b5b0492506004810190505b60648310610faf5760648381610fa557610fa4611f55565b5b0492506002810190505b600a8310610fbe576001810190505b80915050919050565b6040518061016001604052805f815260200160608152602001606081526020015f81526020015f81526020015f81526020015f81526020015f81526020015f81526020015f73ffffffffffffffffffffffffffffffffffffffff1681526020015f151581525090565b5f604051905090565b5f80fd5b5f80fd5b5f819050919050565b61105381611041565b811461105d575f80fd5b50565b5f8135905061106e8161104a565b92915050565b5f6020828403121561108957611088611039565b5b5f61109684828501611060565b91505092915050565b5f81519050919050565b5f82825260208201905092915050565b5f819050602082019050919050565b6110d181611041565b82525050565b5f81519050919050565b5f82825260208201905092915050565b8281835e5f83830152505050565b5f601f19601f8301169050919050565b5f611119826110d7565b61112381856110e1565b93506111338185602086016110f1565b61113c816110ff565b840191505092915050565b5f73ffffffffffffffffffffffffffffffffffffffff82169050919050565b5f61117082611147565b9050919050565b61118081611166565b82525050565b5f8115159050919050565b61119a81611186565b82525050565b5f61016083015f8301516111b65f8601826110c8565b50602083015184820360208601526111ce828261110f565b915050604083015184820360408601526111e8828261110f565b91505060608301516111fd60608601826110c8565b50608083015161121060808601826110c8565b5060a083015161122360a08601826110c8565b5060c083015161123660c08601826110c8565b5060e083015161124960e08601826110c8565b5061010083015161125e6101008601826110c8565b50610120830151611273610120860182611177565b50610140830151611288610140860182611191565b508091505092915050565b5f61129e83836111a0565b905092915050565b5f602082019050919050565b5f6112bc8261109f565b6112c681856110a9565b9350836020820285016112d8856110b9565b805f5b8581101561131357848403895281516112f48582611293565b94506112ff836112a6565b925060208a019950506001810190506112db565b50829750879550505050505092915050565b5f6020820190508181035f83015261133d81846112b2565b905092915050565b61134e81611166565b8114611358575f80fd5b50565b5f8135905061136981611345565b92915050565b5f806040838503121561138557611384611039565b5b5f6113928582860161135b565b92505060206113a385828601611060565b9150509250929050565b6113b681611041565b82525050565b5f82825260208201905092915050565b5f6113d6826110d7565b6113e081856113bc565b93506113f08185602086016110f1565b6113f9816110ff565b840191505092915050565b61140d81611166565b82525050565b61141c81611186565b82525050565b5f610160820190506114365f83018e6113ad565b8181036020830152611448818d6113cc565b9050818103604083015261145c818c6113cc565b905061146b606083018b6113ad565b611478608083018a6113ad565b61148560a08301896113ad565b61149260c08301886113ad565b61149f60e08301876113ad565b6114ad6101008301866113ad565b6114bb610120830185611404565b6114c9610140830184611413565b9c9b505050505050505050505050565b5f6020820190506114ec5f8301846113ad565b92915050565b5f80fd5b7f4e487b71000000000000000000000000000000000000000000000000000000005f52604160045260245ffd5b61152c826110ff565b810181811067ffffffffffffffff8211171561154b5761154a6114f6565b5b80604052505050565b5f61155d611030565b90506115698282611523565b919050565b5f80fd5b5f815190506115808161104a565b92915050565b5f80fd5b5f80fd5b5f67ffffffffffffffff8211156115a8576115a76114f6565b5b6115b1826110ff565b9050602081019050919050565b5f6115d06115cb8461158e565b611554565b9050828152602081018484840111156115ec576115eb61158a565b5b6115f78482856110f1565b509392505050565b5f82601f83011261161357611612611586565b5b81516116238482602086016115be565b91505092915050565b5f8151905061163a81611345565b92915050565b61164981611186565b8114611653575f80fd5b50565b5f8151905061166481611640565b92915050565b5f61016082840312156116805761167f6114f2565b5b61168b610160611554565b90505f61169a84828501611572565b5f83015250602082015167ffffffffffffffff8111156116bd576116bc61156e565b5b6116c9848285016115ff565b602083015250604082015167ffffffffffffffff8111156116ed576116ec61156e565b5b6116f9848285016115ff565b604083015250606061170d84828501611572565b606083015250608061172184828501611572565b60808301525060a061173584828501611572565b60a08301525060c061174984828501611572565b60c08301525060e061175d84828501611572565b60e08301525061010061177284828501611572565b610100830152506101206117888482850161162c565b6101208301525061014061179e84828501611656565b6101408301525092915050565b5f602082840312156117c0576117bf611039565b5b5f82015167ffffffffffffffff8111156117dd576117dc61103d565b5b6117e98482850161166a565b91505092915050565b7f596f752063616e6e6f7420627579206120706f6c6963792074686174206861735f8201527f206e6f74206265656e206c697374656421000000000000000000000000000000602082015250565b5f61184c6031836113bc565b9150611857826117f2565b604082019050919050565b5f6020820190508181035f83015261187981611840565b9050919050565b5f6020828403121561189557611894611039565b5b5f6118a284828501611572565b91505092915050565b7f4e487b71000000000000000000000000000000000000000000000000000000005f52601160045260245ffd5b5f6118e282611041565b91506118ed83611041565b92508282026118fb81611041565b91508282048414831517611912576119116118ab565b5b5092915050565b5f81905092915050565b7f596f75206e65656420746f20706179206174206c6561737420746865207072655f8201527f6d69756d206f6620000000000000000000000000000000000000000000000000602082015250565b5f61197d602883611919565b915061198882611923565b602882019050919050565b5f61199d826110d7565b6119a78185611919565b93506119b78185602086016110f1565b80840191505092915050565b7f207765692c206275742070726f766964656420000000000000000000000000005f82015250565b5f6119f7601383611919565b9150611a02826119c3565b601382019050919050565b7f207765692e0000000000000000000000000000000000000000000000000000005f82015250565b5f611a41600583611919565b9150611a4c82611a0d565b600582019050919050565b5f611a6182611971565b9150611a6d8285611993565b9150611a78826119eb565b9150611a848284611993565b9150611a8f82611a35565b91508190509392505050565b5f6020820190508181035f830152611ab381846113cc565b905092915050565b7f506f6c69637920636170616369747920657863656564656400000000000000005f82015250565b5f611aef6018836113bc565b9150611afa82611abb565b602082019050919050565b5f6020820190508181035f830152611b1c81611ae3565b9050919050565b7f4e487b71000000000000000000000000000000000000000000000000000000005f52602260045260245ffd5b5f6002820490506001821680611b6757607f821691505b602082108103611b7a57611b79611b23565b5b50919050565b5f819050815f5260205f209050919050565b5f6020601f8301049050919050565b5f82821b905092915050565b5f60088302611bdc7fffffffffffffffffffffffffffffffffffffffffffffffffffffffffffffffff82611ba1565b611be68683611ba1565b95508019841693508086168417925050509392505050565b5f819050919050565b5f611c21611c1c611c1784611041565b611bfe565b611041565b9050919050565b5f819050919050565b611c3a83611c07565b611c4e611c4682611c28565b848454611bad565b825550505050565b5f90565b611c62611c56565b611c6d818484611c31565b505050565b5b81811015611c9057611c855f82611c5a565b600181019050611c73565b5050565b601f821115611cd557611ca681611b80565b611caf84611b92565b81016020851015611cbe578190505b611cd2611cca85611b92565b830182611c72565b50505b505050565b5f82821c905092915050565b5f611cf55f1984600802611cda565b1980831691505092915050565b5f611d0d8383611ce6565b9150826002028217905092915050565b611d26826110d7565b67ffffffffffffffff811115611d3f57611d3e6114f6565b5b611d498254611b50565b611d54828285611c94565b5f60209050601f831160018114611d85575f8415611d73578287015190505b611d7d8582611d02565b865550611de4565b601f198416611d9386611b80565b5f5b82811015611dba57848901518255600182019150602085019450602081019050611d95565b86831015611dd75784890151611dd3601f891682611ce6565b8355505b6001600288020188555050505b505050505050565b5f611df682611041565b9150611e0183611041565b9250828201905080821115611e1957611e186118ab565b5b92915050565b5f604082019050611e325f8301856113ad565b611e3f60208301846113ad565b9392505050565b5f611e5082611041565b9150611e5b83611041565b9250828203905081811115611e7357611e726118ab565b5b92915050565b7f4e487b71000000000000000000000000000000000000000000000000000000005f52603260045260245ffd5b5f611eb082611041565b91507fffffffffffffffffffffffffffffffffffffffffffffffffffffffffffffffff8203611ee257611ee16118ab565b5b600182019050919050565b7f596f7520646f206e6f74206f776e207468697320706f6c6963790000000000005f82015250565b5f611f21601a836113bc565b9150611f2c82611eed565b602082019050919050565b5f6020820190508181035f830152611f4e81611f15565b9050919050565b7f4e487b71000000000000000000000000000000000000000000000000000000005f52601260045260245ffdfea2646970667358221220c28f5cb72598926280a2dd9e3b7c070e75488bab5669d187ec6f3f225b0cb0b264736f6c634300081a0033",
			"opcodes": "PUSH1 0x80 PUSH1 0x40 MSTORE TIMESTAMP PUSH1 0x2 SSTORE CALLVALUE DUP1 ISZERO PUSH2 0x13 JUMPI PUSH0 DUP1 REVERT JUMPDEST POP PUSH1 0x40 MLOAD PUSH2 0x2168 CODESIZE SUB DUP1 PUSH2 0x2168 DUP4 CODECOPY DUP2 DUP2 ADD PUSH1 0x40 MSTORE DUP2 ADD SWAP1 PUSH2 0x35 SWAP2 SWAP1 PUSH2 0x165 JUMP JUMPDEST DUP2 PUSH0 DUP1 PUSH2 0x100 EXP DUP2 SLOAD DUP2 PUSH20 0xFFFFFFFFFFFFFFFFFFFFFFFFFFFFFFFFFFFFFFFF MUL NOT AND SWAP1 DUP4 PUSH20 0xFFFFFFFFFFFFFFFFFFFFFFFFFFFFFFFFFFFFFFFF AND MUL OR SWAP1 SSTORE POP DUP1 PUSH1 0x1 PUSH0 PUSH2 0x100 EXP DUP2 SLOAD DUP2 PUSH20 0xFFFFFFFFFFFFFFFFFFFFFFFFFFFFFFFFFFFFFFFF MUL NOT AND SWAP1 DUP4 PUSH20 0xFFFFFFFFFFFFFFFFFFFFFFFFFFFFFFFFFFFFFFFF AND MUL OR SWAP1 SSTORE POP POP POP PUSH2 0x1A3 JUMP JUMPDEST PUSH0 DUP1 REVERT JUMPDEST PUSH0 PUSH20 0xFFFFFFFFFFFFFFFFFFFFFFFFFFFFFFFFFFFFFFFF DUP3 AND SWAP1 POP SWAP2 SWAP1 POP JUMP JUMPDEST PUSH0 PUSH2 0xE8 DUP3 PUSH2 0xBF JUMP JUMPDEST SWAP1 POP SWAP2 SWAP1 POP JUMP JUMPDEST PUSH0 PUSH2 0xF9 DUP3 PUSH2 0xDE JUMP JUMPDEST SWAP1 POP SWAP2 SWAP1 POP JUMP JUMPDEST PUSH2 0x109 DUP2 PUSH2 0xEF JUMP JUMPDEST DUP2 EQ PUSH2 0x113 JUMPI PUSH0 DUP1 REVERT JUMPDEST POP JUMP JUMPDEST PUSH0 DUP2 MLOAD SWAP1 POP PUSH2 0x124 DUP2 PUSH2 0x100 JUMP JUMPDEST SWAP3 SWAP2 POP POP JUMP JUMPDEST PUSH0 PUSH2 0x134 DUP3 PUSH2 0xDE JUMP JUMPDEST SWAP1 POP SWAP2 SWAP1 POP JUMP JUMPDEST PUSH2 0x144 DUP2 PUSH2 0x12A JUMP JUMPDEST DUP2 EQ PUSH2 0x14E JUMPI PUSH0 DUP1 REVERT JUMPDEST POP JUMP JUMPDEST PUSH0 DUP2 MLOAD SWAP1 POP PUSH2 0x15F DUP2 PUSH2 0x13B JUMP JUMPDEST SWAP3 SWAP2 POP POP JUMP JUMPDEST PUSH0 DUP1 PUSH1 0x40 DUP4 DUP6 SUB SLT ISZERO PUSH2 0x17B JUMPI PUSH2 0x17A PUSH2 0xBB JUMP JUMPDEST JUMPDEST PUSH0 PUSH2 0x188 DUP6 DUP3 DUP7 ADD PUSH2 0x116 JUMP JUMPDEST SWAP3 POP POP PUSH1 0x20 PUSH2 0x199 DUP6 DUP3 DUP7 ADD PUSH2 0x151 JUMP JUMPDEST SWAP2 POP POP SWAP3 POP SWAP3 SWAP1 POP JUMP JUMPDEST PUSH2 0x1FB8 DUP1 PUSH2 0x1B0 PUSH0 CODECOPY PUSH0 RETURN INVALID PUSH1 0x80 PUSH1 0x40 MSTORE PUSH1 0x4 CALLDATASIZE LT PUSH2 0x49 JUMPI PUSH0 CALLDATALOAD PUSH1 0xE0 SHR DUP1 PUSH4 0x79C88894 EQ PUSH2 0x4D JUMPI DUP1 PUSH4 0x9D61DBA8 EQ PUSH2 0x69 JUMPI DUP1 PUSH4 0xA56CF067 EQ PUSH2 0x93 JUMPI DUP1 PUSH4 0xBB529068 EQ PUSH2 0xBB JUMPI DUP1 PUSH4 0xBF58FA37 EQ PUSH2 0x101 JUMPI JUMPDEST PUSH0 DUP1 REVERT JUMPDEST PUSH2 0x67 PUSH1 0x4 DUP1 CALLDATASIZE SUB DUP2 ADD SWAP1 PUSH2 0x62 SWAP2 SWAP1 PUSH2 0x1074 JUMP JUMPDEST PUSH2 0x12B JUMP JUMPDEST STOP JUMPDEST CALLVALUE DUP1 ISZERO PUSH2 0x74 JUMPI PUSH0 DUP1 REVERT JUMPDEST POP PUSH2 0x7D PUSH2 0x580 JUMP JUMPDEST PUSH1 0x40 MLOAD PUSH2 0x8A SWAP2 SWAP1 PUSH2 0x1325 JUMP JUMPDEST PUSH1 0x40 MLOAD DUP1 SWAP2 SUB SWAP1 RETURN JUMPDEST CALLVALUE DUP1 ISZERO PUSH2 0x9E JUMPI PUSH0 DUP1 REVERT JUMPDEST POP PUSH2 0xB9 PUSH1 0x4 DUP1 CALLDATASIZE SUB DUP2 ADD SWAP1 PUSH2 0xB4 SWAP2 SWAP1 PUSH2 0x1074 JUMP JUMPDEST PUSH2 0x76E JUMP JUMPDEST STOP JUMPDEST CALLVALUE DUP1 ISZERO PUSH2 0xC6 JUMPI PUSH0 DUP1 REVERT JUMPDEST POP PUSH2 0xE1 PUSH1 0x4 DUP1 CALLDATASIZE SUB DUP2 ADD SWAP1 PUSH2 0xDC SWAP2 SWAP1 PUSH2 0x136F JUMP JUMPDEST PUSH2 0x90D JUMP JUMPDEST PUSH1 0x40 MLOAD PUSH2 0xF8 SWAP12 SWAP11 SWAP10 SWAP9 SWAP8 SWAP7 SWAP6 SWAP5 SWAP4 SWAP3 SWAP2 SWAP1 PUSH2 0x1422 JUMP JUMPDEST PUSH1 0x40 MLOAD DUP1 SWAP2 SUB SWAP1 RETURN JUMPDEST CALLVALUE DUP1 ISZERO PUSH2 0x10C JUMPI PUSH0 DUP1 REVERT JUMPDEST POP PUSH2 0x115 PUSH2 0xAB5 JUMP JUMPDEST PUSH1 0x40 MLOAD PUSH2 0x122 SWAP2 SWAP1 PUSH2 0x1325 JUMP JUMPDEST PUSH1 0x40 MLOAD DUP1 SWAP2 SUB SWAP1 RETURN JUMPDEST PUSH0 PUSH1 0x1 PUSH0 SWAP1 SLOAD SWAP1 PUSH2 0x100 EXP SWAP1 DIV PUSH20 0xFFFFFFFFFFFFFFFFFFFFFFFFFFFFFFFFFFFFFFFF AND PUSH20 0xFFFFFFFFFFFFFFFFFFFFFFFFFFFFFFFFFFFFFFFF AND PUSH4 0x2B07FCE3 DUP4 PUSH1 0x40 MLOAD DUP3 PUSH4 0xFFFFFFFF AND PUSH1 0xE0 SHL DUP2 MSTORE PUSH1 0x4 ADD PUSH2 0x186 SWAP2 SWAP1 PUSH2 0x14D9 JUMP JUMPDEST PUSH0 PUSH1 0x40 MLOAD DUP1 DUP4 SUB DUP2 DUP7 GAS STATICCALL ISZERO DUP1 ISZERO PUSH2 0x1A0 JUMPI RETURNDATASIZE PUSH0 DUP1 RETURNDATACOPY RETURNDATASIZE PUSH0 REVERT JUMPDEST POP POP POP POP PUSH1 0x40 MLOAD RETURNDATASIZE PUSH0 DUP3 RETURNDATACOPY RETURNDATASIZE PUSH1 0x1F NOT PUSH1 0x1F DUP3 ADD AND DUP3 ADD DUP1 PUSH1 0x40 MSTORE POP DUP2 ADD SWAP1 PUSH2 0x1C8 SWAP2 SWAP1 PUSH2 0x17AB JUMP JUMPDEST SWAP1 POP PUSH1 0x1 ISZERO ISZERO DUP2 PUSH2 0x140 ADD MLOAD ISZERO ISZERO EQ PUSH2 0x216 JUMPI PUSH1 0x40 MLOAD PUSH32 0x8C379A000000000000000000000000000000000000000000000000000000000 DUP2 MSTORE PUSH1 0x4 ADD PUSH2 0x20D SWAP1 PUSH2 0x1862 JUMP JUMPDEST PUSH1 0x40 MLOAD DUP1 SWAP2 SUB SWAP1 REVERT JUMPDEST PUSH0 DUP1 PUSH0 SWAP1 SLOAD SWAP1 PUSH2 0x100 EXP SWAP1 DIV PUSH20 0xFFFFFFFFFFFFFFFFFFFFFFFFFFFFFFFFFFFFFFFF AND PUSH20 0xFFFFFFFFFFFFFFFFFFFFFFFFFFFFFFFFFFFFFFFF AND PUSH4 0xC393F756 PUSH1 0x40 MLOAD DUP2 PUSH4 0xFFFFFFFF AND PUSH1 0xE0 SHL DUP2 MSTORE PUSH1 0x4 ADD PUSH1 0x20 PUSH1 0x40 MLOAD DUP1 DUP4 SUB DUP2 DUP7 GAS STATICCALL ISZERO DUP1 ISZERO PUSH2 0x280 JUMPI RETURNDATASIZE PUSH0 DUP1 RETURNDATACOPY RETURNDATASIZE PUSH0 REVERT JUMPDEST POP POP POP POP PUSH1 0x40 MLOAD RETURNDATASIZE PUSH1 0x1F NOT PUSH1 0x1F DUP3 ADD AND DUP3 ADD DUP1 PUSH1 0x40 MSTORE POP DUP2 ADD SWAP1 PUSH2 0x2A4 SWAP2 SWAP1 PUSH2 0x1880 JUMP JUMPDEST DUP3 PUSH1 0xC0 ADD MLOAD PUSH2 0x2B3 SWAP2 SWAP1 PUSH2 0x18D8 JUMP JUMPDEST SWAP1 POP DUP1 CALLVALUE LT ISZERO PUSH2 0x2C2 DUP3 PUSH2 0xD22 JUMP JUMPDEST PUSH2 0x2CB CALLVALUE PUSH2 0xD22 JUMP JUMPDEST PUSH1 0x40 MLOAD PUSH1 0x20 ADD PUSH2 0x2DC SWAP3 SWAP2 SWAP1 PUSH2 0x1A57 JUMP JUMPDEST PUSH1 0x40 MLOAD PUSH1 0x20 DUP2 DUP4 SUB SUB DUP2 MSTORE SWAP1 PUSH1 0x40 MSTORE SWAP1 PUSH2 0x32C JUMPI PUSH1 0x40 MLOAD PUSH32 0x8C379A000000000000000000000000000000000000000000000000000000000 DUP2 MSTORE PUSH1 0x4 ADD PUSH2 0x323 SWAP2 SWAP1 PUSH2 0x1A9B JUMP JUMPDEST PUSH1 0x40 MLOAD DUP1 SWAP2 SUB SWAP1 REVERT JUMPDEST POP DUP2 PUSH1 0xA0 ADD MLOAD DUP3 PUSH1 0x80 ADD MLOAD GT PUSH2 0x377 JUMPI PUSH1 0x40 MLOAD PUSH32 0x8C379A000000000000000000000000000000000000000000000000000000000 DUP2 MSTORE PUSH1 0x4 ADD PUSH2 0x36E SWAP1 PUSH2 0x1B05 JUMP JUMPDEST PUSH1 0x40 MLOAD DUP1 SWAP2 SUB SWAP1 REVERT JUMPDEST PUSH1 0x3 PUSH0 CALLER PUSH20 0xFFFFFFFFFFFFFFFFFFFFFFFFFFFFFFFFFFFFFFFF AND PUSH20 0xFFFFFFFFFFFFFFFFFFFFFFFFFFFFFFFFFFFFFFFF AND DUP2 MSTORE PUSH1 0x20 ADD SWAP1 DUP2 MSTORE PUSH1 0x20 ADD PUSH0 KECCAK256 DUP3 SWAP1 DUP1 PUSH1 0x1 DUP2 SLOAD ADD DUP1 DUP3 SSTORE DUP1 SWAP2 POP POP PUSH1 0x1 SWAP1 SUB SWAP1 PUSH0 MSTORE PUSH1 0x20 PUSH0 KECCAK256 SWAP1 PUSH1 0xA MUL ADD PUSH0 SWAP1 SWAP2 SWAP1 SWAP2 SWAP1 SWAP2 POP PUSH0 DUP3 ADD MLOAD DUP2 PUSH0 ADD SSTORE PUSH1 0x20 DUP3 ADD MLOAD DUP2 PUSH1 0x1 ADD SWAP1 DUP2 PUSH2 0x3F8 SWAP2 SWAP1 PUSH2 0x1D1D JUMP JUMPDEST POP PUSH1 0x40 DUP3 ADD MLOAD DUP2 PUSH1 0x2 ADD SWAP1 DUP2 PUSH2 0x40E SWAP2 SWAP1 PUSH2 0x1D1D JUMP JUMPDEST POP PUSH1 0x60 DUP3 ADD MLOAD DUP2 PUSH1 0x3 ADD SSTORE PUSH1 0x80 DUP3 ADD MLOAD DUP2 PUSH1 0x4 ADD SSTORE PUSH1 0xA0 DUP3 ADD MLOAD DUP2 PUSH1 0x5 ADD SSTORE PUSH1 0xC0 DUP3 ADD MLOAD DUP2 PUSH1 0x6 ADD SSTORE PUSH1 0xE0 DUP3 ADD MLOAD DUP2 PUSH1 0x7 ADD SSTORE PUSH2 0x100 DUP3 ADD MLOAD DUP2 PUSH1 0x8 ADD SSTORE PUSH2 0x120 DUP3 ADD MLOAD DUP2 PUSH1 0x9 ADD PUSH0 PUSH2 0x100 EXP DUP2 SLOAD DUP2 PUSH20 0xFFFFFFFFFFFFFFFFFFFFFFFFFFFFFFFFFFFFFFFF MUL NOT AND SWAP1 DUP4 PUSH20 0xFFFFFFFFFFFFFFFFFFFFFFFFFFFFFFFFFFFFFFFF AND MUL OR SWAP1 SSTORE POP PUSH2 0x140 DUP3 ADD MLOAD DUP2 PUSH1 0x9 ADD PUSH1 0x14 PUSH2 0x100 EXP DUP2 SLOAD DUP2 PUSH1 0xFF MUL NOT AND SWAP1 DUP4 ISZERO ISZERO MUL OR SWAP1 SSTORE POP POP POP PUSH1 0x1 PUSH0 SWAP1 SLOAD SWAP1 PUSH2 0x100 EXP SWAP1 DIV PUSH20 0xFFFFFFFFFFFFFFFFFFFFFFFFFFFFFFFFFFFFFFFF AND PUSH20 0xFFFFFFFFFFFFFFFFFFFFFFFFFFFFFFFFFFFFFFFF AND PUSH4 0xC6AB3FA DUP5 DUP5 PUSH1 0xC0 ADD MLOAD DUP6 PUSH1 0xA0 ADD MLOAD PUSH2 0x508 SWAP2 SWAP1 PUSH2 0x1DEC JUMP JUMPDEST PUSH1 0x40 MLOAD DUP4 PUSH4 0xFFFFFFFF AND PUSH1 0xE0 SHL DUP2 MSTORE PUSH1 0x4 ADD PUSH2 0x525 SWAP3 SWAP2 SWAP1 PUSH2 0x1E1F JUMP JUMPDEST PUSH0 PUSH1 0x40 MLOAD DUP1 DUP4 SUB DUP2 PUSH0 DUP8 DUP1 EXTCODESIZE ISZERO DUP1 ISZERO PUSH2 0x53C JUMPI PUSH0 DUP1 REVERT JUMPDEST POP GAS CALL ISZERO DUP1 ISZERO PUSH2 0x54E JUMPI RETURNDATASIZE PUSH0 DUP1 RETURNDATACOPY RETURNDATASIZE PUSH0 REVERT JUMPDEST POP POP POP POP DUP2 PUSH1 0xC0 ADD MLOAD DUP3 PUSH1 0xA0 ADD MLOAD DUP4 PUSH1 0x80 ADD MLOAD PUSH2 0x56B SWAP2 SWAP1 PUSH2 0x1E46 JUMP JUMPDEST LT ISZERO PUSH2 0x57B JUMPI PUSH2 0x57A DUP4 PUSH2 0xDEC JUMP JUMPDEST JUMPDEST POP POP POP JUMP JUMPDEST PUSH1 0x60 PUSH0 PUSH1 0x1 PUSH0 SWAP1 SLOAD SWAP1 PUSH2 0x100 EXP SWAP1 DIV PUSH20 0xFFFFFFFFFFFFFFFFFFFFFFFFFFFFFFFFFFFFFFFF AND PUSH20 0xFFFFFFFFFFFFFFFFFFFFFFFFFFFFFFFFFFFFFFFF AND PUSH4 0xDE54D429 PUSH1 0x40 MLOAD DUP2 PUSH4 0xFFFFFFFF AND PUSH1 0xE0 SHL DUP2 MSTORE PUSH1 0x4 ADD PUSH1 0x20 PUSH1 0x40 MLOAD DUP1 DUP4 SUB DUP2 DUP7 GAS STATICCALL ISZERO DUP1 ISZERO PUSH2 0x5ED JUMPI RETURNDATASIZE PUSH0 DUP1 RETURNDATACOPY RETURNDATASIZE PUSH0 REVERT JUMPDEST POP POP POP POP PUSH1 0x40 MLOAD RETURNDATASIZE PUSH1 0x1F NOT PUSH1 0x1F DUP3 ADD AND DUP3 ADD DUP1 PUSH1 0x40 MSTORE POP DUP2 ADD SWAP1 PUSH2 0x611 SWAP2 SWAP1 PUSH2 0x1880 JUMP JUMPDEST SWAP1 POP PUSH0 DUP2 PUSH8 0xFFFFFFFFFFFFFFFF DUP2 GT ISZERO PUSH2 0x62E JUMPI PUSH2 0x62D PUSH2 0x14F6 JUMP JUMPDEST JUMPDEST PUSH1 0x40 MLOAD SWAP1 DUP1 DUP3 MSTORE DUP1 PUSH1 0x20 MUL PUSH1 0x20 ADD DUP3 ADD PUSH1 0x40 MSTORE DUP1 ISZERO PUSH2 0x667 JUMPI DUP2 PUSH1 0x20 ADD JUMPDEST PUSH2 0x654 PUSH2 0xFC7 JUMP JUMPDEST DUP2 MSTORE PUSH1 0x20 ADD SWAP1 PUSH1 0x1 SWAP1 SUB SWAP1 DUP2 PUSH2 0x64C JUMPI SWAP1 POP JUMPDEST POP SWAP1 POP PUSH0 DUP1 PUSH1 0x1 SWAP1 POP JUMPDEST DUP4 DUP2 GT PUSH2 0x764 JUMPI PUSH0 PUSH1 0x1 PUSH0 SWAP1 SLOAD SWAP1 PUSH2 0x100 EXP SWAP1 DIV PUSH20 0xFFFFFFFFFFFFFFFFFFFFFFFFFFFFFFFFFFFFFFFF AND PUSH20 0xFFFFFFFFFFFFFFFFFFFFFFFFFFFFFFFFFFFFFFFF AND PUSH4 0x2B07FCE3 DUP4 PUSH1 0x40 MLOAD DUP3 PUSH4 0xFFFFFFFF AND PUSH1 0xE0 SHL DUP2 MSTORE PUSH1 0x4 ADD PUSH2 0x6D3 SWAP2 SWAP1 PUSH2 0x14D9 JUMP JUMPDEST PUSH0 PUSH1 0x40 MLOAD DUP1 DUP4 SUB DUP2 DUP7 GAS STATICCALL ISZERO DUP1 ISZERO PUSH2 0x6ED JUMPI RETURNDATASIZE PUSH0 DUP1 RETURNDATACOPY RETURNDATASIZE PUSH0 REVERT JUMPDEST POP POP POP POP PUSH1 0x40 MLOAD RETURNDATASIZE PUSH0 DUP3 RETURNDATACOPY RETURNDATASIZE PUSH1 0x1F NOT PUSH1 0x1F DUP3 ADD AND DUP3 ADD DUP1 PUSH1 0x40 MSTORE POP DUP2 ADD SWAP1 PUSH2 0x715 SWAP2 SWAP1 PUSH2 0x17AB JUMP JUMPDEST SWAP1 POP DUP1 PUSH2 0x140 ADD MLOAD ISZERO PUSH2 0x750 JUMPI DUP1 DUP5 DUP5 DUP2 MLOAD DUP2 LT PUSH2 0x736 JUMPI PUSH2 0x735 PUSH2 0x1E79 JUMP JUMPDEST JUMPDEST PUSH1 0x20 MUL PUSH1 0x20 ADD ADD DUP2 SWAP1 MSTORE POP DUP3 DUP1 PUSH2 0x74C SWAP1 PUSH2 0x1EA6 JUMP JUMPDEST SWAP4 POP POP JUMPDEST POP DUP1 DUP1 PUSH2 0x75C SWAP1 PUSH2 0x1EA6 JUMP JUMPDEST SWAP2 POP POP PUSH2 0x671 JUMP JUMPDEST POP DUP2 SWAP4 POP POP POP POP SWAP1 JUMP JUMPDEST DUP1 PUSH0 PUSH1 0x1 PUSH0 SWAP1 SLOAD SWAP1 PUSH2 0x100 EXP SWAP1 DIV PUSH20 0xFFFFFFFFFFFFFFFFFFFFFFFFFFFFFFFFFFFFFFFF AND PUSH20 0xFFFFFFFFFFFFFFFFFFFFFFFFFFFFFFFFFFFFFFFF AND PUSH4 0x2B07FCE3 DUP4 PUSH1 0x40 MLOAD DUP3 PUSH4 0xFFFFFFFF AND PUSH1 0xE0 SHL DUP2 MSTORE PUSH1 0x4 ADD PUSH2 0x7CA SWAP2 SWAP1 PUSH2 0x14D9 JUMP JUMPDEST PUSH0 PUSH1 0x40 MLOAD DUP1 DUP4 SUB DUP2 DUP7 GAS STATICCALL ISZERO DUP1 ISZERO PUSH2 0x7E4 JUMPI RETURNDATASIZE PUSH0 DUP1 RETURNDATACOPY RETURNDATASIZE PUSH0 REVERT JUMPDEST POP POP POP POP PUSH1 0x40 MLOAD RETURNDATASIZE PUSH0 DUP3 RETURNDATACOPY RETURNDATASIZE PUSH1 0x1F NOT PUSH1 0x1F DUP3 ADD AND DUP3 ADD DUP1 PUSH1 0x40 MSTORE POP DUP2 ADD SWAP1 PUSH2 0x80C SWAP2 SWAP1 PUSH2 0x17AB JUMP JUMPDEST SWAP1 POP DUP1 PUSH2 0x120 ADD MLOAD PUSH20 0xFFFFFFFFFFFFFFFFFFFFFFFFFFFFFFFFFFFFFFFF AND CALLER PUSH20 0xFFFFFFFFFFFFFFFFFFFFFFFFFFFFFFFFFFFFFFFF AND EQ PUSH2 0x881 JUMPI PUSH1 0x40 MLOAD PUSH32 0x8C379A000000000000000000000000000000000000000000000000000000000 DUP2 MSTORE PUSH1 0x4 ADD PUSH2 0x878 SWAP1 PUSH2 0x1F37 JUMP JUMPDEST PUSH1 0x40 MLOAD DUP1 SWAP2 SUB SWAP1 REVERT JUMPDEST PUSH1 0x1 PUSH0 SWAP1 SLOAD SWAP1 PUSH2 0x100 EXP SWAP1 DIV PUSH20 0xFFFFFFFFFFFFFFFFFFFFFFFFFFFFFFFFFFFFFFFF AND PUSH20 0xFFFFFFFFFFFFFFFFFFFFFFFFFFFFFFFFFFFFFFFF AND PUSH4 0x5B2A3646 DUP5 PUSH1 0x40 MLOAD DUP3 PUSH4 0xFFFFFFFF AND PUSH1 0xE0 SHL DUP2 MSTORE PUSH1 0x4 ADD PUSH2 0x8DB SWAP2 SWAP1 PUSH2 0x14D9 JUMP JUMPDEST PUSH0 PUSH1 0x40 MLOAD DUP1 DUP4 SUB DUP2 PUSH0 DUP8 DUP1 EXTCODESIZE ISZERO DUP1 ISZERO PUSH2 0x8F2 JUMPI PUSH0 DUP1 REVERT JUMPDEST POP GAS CALL ISZERO DUP1 ISZERO PUSH2 0x904 JUMPI RETURNDATASIZE PUSH0 DUP1 RETURNDATACOPY RETURNDATASIZE PUSH0 REVERT JUMPDEST POP POP POP POP POP POP POP JUMP JUMPDEST PUSH1 0x3 PUSH1 0x20 MSTORE DUP2 PUSH0 MSTORE PUSH1 0x40 PUSH0 KECCAK256 DUP2 DUP2 SLOAD DUP2 LT PUSH2 0x926 JUMPI PUSH0 DUP1 REVERT JUMPDEST SWAP1 PUSH0 MSTORE PUSH1 0x20 PUSH0 KECCAK256 SWAP1 PUSH1 0xA MUL ADD PUSH0 SWAP2 POP SWAP2 POP POP DUP1 PUSH0 ADD SLOAD SWAP1 DUP1 PUSH1 0x1 ADD DUP1 SLOAD PUSH2 0x94C SWAP1 PUSH2 0x1B50 JUMP JUMPDEST DUP1 PUSH1 0x1F ADD PUSH1 0x20 DUP1 SWAP2 DIV MUL PUSH1 0x20 ADD PUSH1 0x40 MLOAD SWAP1 DUP2 ADD PUSH1 0x40 MSTORE DUP1 SWAP3 SWAP2 SWAP1 DUP2 DUP2 MSTORE PUSH1 0x20 ADD DUP3 DUP1 SLOAD PUSH2 0x978 SWAP1 PUSH2 0x1B50 JUMP JUMPDEST DUP1 ISZERO PUSH2 0x9C3 JUMPI DUP1 PUSH1 0x1F LT PUSH2 0x99A JUMPI PUSH2 0x100 DUP1 DUP4 SLOAD DIV MUL DUP4 MSTORE SWAP2 PUSH1 0x20 ADD SWAP2 PUSH2 0x9C3 JUMP JUMPDEST DUP3 ADD SWAP2 SWAP1 PUSH0 MSTORE PUSH1 0x20 PUSH0 KECCAK256 SWAP1 JUMPDEST DUP2 SLOAD DUP2 MSTORE SWAP1 PUSH1 0x1 ADD SWAP1 PUSH1 0x20 ADD DUP1 DUP4 GT PUSH2 0x9A6 JUMPI DUP3 SWAP1 SUB PUSH1 0x1F AND DUP3 ADD SWAP2 JUMPDEST POP POP POP POP POP SWAP1 DUP1 PUSH1 0x2 ADD DUP1 SLOAD PUSH2 0x9D8 SWAP1 PUSH2 0x1B50 JUMP JUMPDEST DUP1 PUSH1 0x1F ADD PUSH1 0x20 DUP1 SWAP2 DIV MUL PUSH1 0x20 ADD PUSH1 0x40 MLOAD SWAP1 DUP2 ADD PUSH1 0x40 MSTORE DUP1 SWAP3 SWAP2 SWAP1 DUP2 DUP2 MSTORE PUSH1 0x20 ADD DUP3 DUP1 SLOAD PUSH2 0xA04 SWAP1 PUSH2 0x1B50 JUMP JUMPDEST DUP1 ISZERO PUSH2 0xA4F JUMPI DUP1 PUSH1 0x1F LT PUSH2 0xA26 JUMPI PUSH2 0x100 DUP1 DUP4 SLOAD DIV MUL DUP4 MSTORE SWAP2 PUSH1 0x20 ADD SWAP2 PUSH2 0xA4F JUMP JUMPDEST DUP3 ADD SWAP2 SWAP1 PUSH0 MSTORE PUSH1 0x20 PUSH0 KECCAK256 SWAP1 JUMPDEST DUP2 SLOAD DUP2 MSTORE SWAP1 PUSH1 0x1 ADD SWAP1 PUSH1 0x20 ADD DUP1 DUP4 GT PUSH2 0xA32 JUMPI DUP3 SWAP1 SUB PUSH1 0x1F AND DUP3 ADD SWAP2 JUMPDEST POP POP POP POP POP SWAP1 DUP1 PUSH1 0x3 ADD SLOAD SWAP1 DUP1 PUSH1 0x4 ADD SLOAD SWAP1 DUP1 PUSH1 0x5 ADD SLOAD SWAP1 DUP1 PUSH1 0x6 ADD SLOAD SWAP1 DUP1 PUSH1 0x7 ADD SLOAD SWAP1 DUP1 PUSH1 0x8 ADD SLOAD SWAP1 DUP1 PUSH1 0x9 ADD PUSH0 SWAP1 SLOAD SWAP1 PUSH2 0x100 EXP SWAP1 DIV PUSH20 0xFFFFFFFFFFFFFFFFFFFFFFFFFFFFFFFFFFFFFFFF AND SWAP1 DUP1 PUSH1 0x9 ADD PUSH1 0x14 SWAP1 SLOAD SWAP1 PUSH2 0x100 EXP SWAP1 DIV PUSH1 0xFF AND SWAP1 POP DUP12 JUMP JUMPDEST PUSH1 0x60 PUSH1 0x3 PUSH0 CALLER PUSH20 0xFFFFFFFFFFFFFFFFFFFFFFFFFFFFFFFFFFFFFFFF AND PUSH20 0xFFFFFFFFFFFFFFFFFFFFFFFFFFFFFFFFFFFFFFFF AND DUP2 MSTORE PUSH1 0x20 ADD SWAP1 DUP2 MSTORE PUSH1 0x20 ADD PUSH0 KECCAK256 DUP1 SLOAD DUP1 PUSH1 0x20 MUL PUSH1 0x20 ADD PUSH1 0x40 MLOAD SWAP1 DUP2 ADD PUSH1 0x40 MSTORE DUP1 SWAP3 SWAP2 SWAP1 DUP2 DUP2 MSTORE PUSH1 0x20 ADD PUSH0 SWAP1 JUMPDEST DUP3 DUP3 LT ISZERO PUSH2 0xD19 JUMPI DUP4 DUP3 SWAP1 PUSH0 MSTORE PUSH1 0x20 PUSH0 KECCAK256 SWAP1 PUSH1 0xA MUL ADD PUSH1 0x40 MLOAD DUP1 PUSH2 0x160 ADD PUSH1 0x40 MSTORE SWAP1 DUP2 PUSH0 DUP3 ADD SLOAD DUP2 MSTORE PUSH1 0x20 ADD PUSH1 0x1 DUP3 ADD DUP1 SLOAD PUSH2 0xB4E SWAP1 PUSH2 0x1B50 JUMP JUMPDEST DUP1 PUSH1 0x1F ADD PUSH1 0x20 DUP1 SWAP2 DIV MUL PUSH1 0x20 ADD PUSH1 0x40 MLOAD SWAP1 DUP2 ADD PUSH1 0x40 MSTORE DUP1 SWAP3 SWAP2 SWAP1 DUP2 DUP2 MSTORE PUSH1 0x20 ADD DUP3 DUP1 SLOAD PUSH2 0xB7A SWAP1 PUSH2 0x1B50 JUMP JUMPDEST DUP1 ISZERO PUSH2 0xBC5 JUMPI DUP1 PUSH1 0x1F LT PUSH2 0xB9C JUMPI PUSH2 0x100 DUP1 DUP4 SLOAD DIV MUL DUP4 MSTORE SWAP2 PUSH1 0x20 ADD SWAP2 PUSH2 0xBC5 JUMP JUMPDEST DUP3 ADD SWAP2 SWAP1 PUSH0 MSTORE PUSH1 0x20 PUSH0 KECCAK256 SWAP1 JUMPDEST DUP2 SLOAD DUP2 MSTORE SWAP1 PUSH1 0x1 ADD SWAP1 PUSH1 0x20 ADD DUP1 DUP4 GT PUSH2 0xBA8 JUMPI DUP3 SWAP1 SUB PUSH1 0x1F AND DUP3 ADD SWAP2 JUMPDEST POP POP POP POP POP DUP2 MSTORE PUSH1 0x20 ADD PUSH1 0x2 DUP3 ADD DUP1 SLOAD PUSH2 0xBDE SWAP1 PUSH2 0x1B50 JUMP JUMPDEST DUP1 PUSH1 0x1F ADD PUSH1 0x20 DUP1 SWAP2 DIV MUL PUSH1 0x20 ADD PUSH1 0x40 MLOAD SWAP1 DUP2 ADD PUSH1 0x40 MSTORE DUP1 SWAP3 SWAP2 SWAP1 DUP2 DUP2 MSTORE PUSH1 0x20 ADD DUP3 DUP1 SLOAD PUSH2 0xC0A SWAP1 PUSH2 0x1B50 JUMP JUMPDEST DUP1 ISZERO PUSH2 0xC55 JUMPI DUP1 PUSH1 0x1F LT PUSH2 0xC2C JUMPI PUSH2 0x100 DUP1 DUP4 SLOAD DIV MUL DUP4 MSTORE SWAP2 PUSH1 0x20 ADD SWAP2 PUSH2 0xC55 JUMP JUMPDEST DUP3 ADD SWAP2 SWAP1 PUSH0 MSTORE PUSH1 0x20 PUSH0 KECCAK256 SWAP1 JUMPDEST DUP2 SLOAD DUP2 MSTORE SWAP1 PUSH1 0x1 ADD SWAP1 PUSH1 0x20 ADD DUP1 DUP4 GT PUSH2 0xC38 JUMPI DUP3 SWAP1 SUB PUSH1 0x1F AND DUP3 ADD SWAP2 JUMPDEST POP POP POP POP POP DUP2 MSTORE PUSH1 0x20 ADD PUSH1 0x3 DUP3 ADD SLOAD DUP2 MSTORE PUSH1 0x20 ADD PUSH1 0x4 DUP3 ADD SLOAD DUP2 MSTORE PUSH1 0x20 ADD PUSH1 0x5 DUP3 ADD SLOAD DUP2 MSTORE PUSH1 0x20 ADD PUSH1 0x6 DUP3 ADD SLOAD DUP2 MSTORE PUSH1 0x20 ADD PUSH1 0x7 DUP3 ADD SLOAD DUP2 MSTORE PUSH1 0x20 ADD PUSH1 0x8 DUP3 ADD SLOAD DUP2 MSTORE PUSH1 0x20 ADD PUSH1 0x9 DUP3 ADD PUSH0 SWAP1 SLOAD SWAP1 PUSH2 0x100 EXP SWAP1 DIV PUSH20 0xFFFFFFFFFFFFFFFFFFFFFFFFFFFFFFFFFFFFFFFF AND PUSH20 0xFFFFFFFFFFFFFFFFFFFFFFFFFFFFFFFFFFFFFFFF AND PUSH20 0xFFFFFFFFFFFFFFFFFFFFFFFFFFFFFFFFFFFFFFFF AND DUP2 MSTORE PUSH1 0x20 ADD PUSH1 0x9 DUP3 ADD PUSH1 0x14 SWAP1 SLOAD SWAP1 PUSH2 0x100 EXP SWAP1 DIV PUSH1 0xFF AND ISZERO ISZERO ISZERO ISZERO DUP2 MSTORE POP POP DUP2 MSTORE PUSH1 0x20 ADD SWAP1 PUSH1 0x1 ADD SWAP1 PUSH2 0xB13 JUMP JUMPDEST POP POP POP POP SWAP1 POP SWAP1 JUMP JUMPDEST PUSH1 0x60 PUSH0 PUSH1 0x1 PUSH2 0xD30 DUP5 PUSH2 0xE76 JUMP JUMPDEST ADD SWAP1 POP PUSH0 DUP2 PUSH8 0xFFFFFFFFFFFFFFFF DUP2 GT ISZERO PUSH2 0xD4E JUMPI PUSH2 0xD4D PUSH2 0x14F6 JUMP JUMPDEST JUMPDEST PUSH1 0x40 MLOAD SWAP1 DUP1 DUP3 MSTORE DUP1 PUSH1 0x1F ADD PUSH1 0x1F NOT AND PUSH1 0x20 ADD DUP3 ADD PUSH1 0x40 MSTORE DUP1 ISZERO PUSH2 0xD80 JUMPI DUP2 PUSH1 0x20 ADD PUSH1 0x1 DUP3 MUL DUP1 CALLDATASIZE DUP4 CALLDATACOPY DUP1 DUP3 ADD SWAP2 POP POP SWAP1 POP JUMPDEST POP SWAP1 POP PUSH0 DUP3 PUSH1 0x20 ADD DUP3 ADD SWAP1 POP JUMPDEST PUSH1 0x1 ISZERO PUSH2 0xDE1 JUMPI DUP1 DUP1 PUSH1 0x1 SWAP1 SUB SWAP2 POP POP PUSH32 0x3031323334353637383961626364656600000000000000000000000000000000 PUSH1 0xA DUP7 MOD BYTE DUP2 MSTORE8 PUSH1 0xA DUP6 DUP2 PUSH2 0xDD6 JUMPI PUSH2 0xDD5 PUSH2 0x1F55 JUMP JUMPDEST JUMPDEST DIV SWAP5 POP PUSH0 DUP6 SUB PUSH2 0xD8D JUMPI JUMPDEST DUP2 SWAP4 POP POP POP POP SWAP2 SWAP1 POP JUMP JUMPDEST PUSH1 0x1 PUSH0 SWAP1 SLOAD SWAP1 PUSH2 0x100 EXP SWAP1 DIV PUSH20 0xFFFFFFFFFFFFFFFFFFFFFFFFFFFFFFFFFFFFFFFF AND PUSH20 0xFFFFFFFFFFFFFFFFFFFFFFFFFFFFFFFFFFFFFFFF AND PUSH4 0x22191F72 DUP3 PUSH1 0x40 MLOAD DUP3 PUSH4 0xFFFFFFFF AND PUSH1 0xE0 SHL DUP2 MSTORE PUSH1 0x4 ADD PUSH2 0xE46 SWAP2 SWAP1 PUSH2 0x14D9 JUMP JUMPDEST PUSH0 PUSH1 0x40 MLOAD DUP1 DUP4 SUB DUP2 PUSH0 DUP8 DUP1 EXTCODESIZE ISZERO DUP1 ISZERO PUSH2 0xE5D JUMPI PUSH0 DUP1 REVERT JUMPDEST POP GAS CALL ISZERO DUP1 ISZERO PUSH2 0xE6F JUMPI RETURNDATASIZE PUSH0 DUP1 RETURNDATACOPY RETURNDATASIZE PUSH0 REVERT JUMPDEST POP POP POP POP POP JUMP JUMPDEST PUSH0 DUP1 PUSH0 SWAP1 POP PUSH27 0x184F03E93FF9F4DAA797ED6E38ED64BF6A1F010000000000000000 DUP4 LT PUSH2 0xED2 JUMPI PUSH27 0x184F03E93FF9F4DAA797ED6E38ED64BF6A1F010000000000000000 DUP4 DUP2 PUSH2 0xEC8 JUMPI PUSH2 0xEC7 PUSH2 0x1F55 JUMP JUMPDEST JUMPDEST DIV SWAP3 POP PUSH1 0x40 DUP2 ADD SWAP1 POP JUMPDEST PUSH14 0x4EE2D6D415B85ACEF8100000000 DUP4 LT PUSH2 0xF0F JUMPI PUSH14 0x4EE2D6D415B85ACEF8100000000 DUP4 DUP2 PUSH2 0xF05 JUMPI PUSH2 0xF04 PUSH2 0x1F55 JUMP JUMPDEST JUMPDEST DIV SWAP3 POP PUSH1 0x20 DUP2 ADD SWAP1 POP JUMPDEST PUSH7 0x2386F26FC10000 DUP4 LT PUSH2 0xF3E JUMPI PUSH7 0x2386F26FC10000 DUP4 DUP2 PUSH2 0xF34 JUMPI PUSH2 0xF33 PUSH2 0x1F55 JUMP JUMPDEST JUMPDEST DIV SWAP3 POP PUSH1 0x10 DUP2 ADD SWAP1 POP JUMPDEST PUSH4 0x5F5E100 DUP4 LT PUSH2 0xF67 JUMPI PUSH4 0x5F5E100 DUP4 DUP2 PUSH2 0xF5D JUMPI PUSH2 0xF5C PUSH2 0x1F55 JUMP JUMPDEST JUMPDEST DIV SWAP3 POP PUSH1 0x8 DUP2 ADD SWAP1 POP JUMPDEST PUSH2 0x2710 DUP4 LT PUSH2 0xF8C JUMPI PUSH2 0x2710 DUP4 DUP2 PUSH2 0xF82 JUMPI PUSH2 0xF81 PUSH2 0x1F55 JUMP JUMPDEST JUMPDEST DIV SWAP3 POP PUSH1 0x4 DUP2 ADD SWAP1 POP JUMPDEST PUSH1 0x64 DUP4 LT PUSH2 0xFAF JUMPI PUSH1 0x64 DUP4 DUP2 PUSH2 0xFA5 JUMPI PUSH2 0xFA4 PUSH2 0x1F55 JUMP JUMPDEST JUMPDEST DIV SWAP3 POP PUSH1 0x2 DUP2 ADD SWAP1 POP JUMPDEST PUSH1 0xA DUP4 LT PUSH2 0xFBE JUMPI PUSH1 0x1 DUP2 ADD SWAP1 POP JUMPDEST DUP1 SWAP2 POP POP SWAP2 SWAP1 POP JUMP JUMPDEST PUSH1 0x40 MLOAD DUP1 PUSH2 0x160 ADD PUSH1 0x40 MSTORE DUP1 PUSH0 DUP2 MSTORE PUSH1 0x20 ADD PUSH1 0x60 DUP2 MSTORE PUSH1 0x20 ADD PUSH1 0x60 DUP2 MSTORE PUSH1 0x20 ADD PUSH0 DUP2 MSTORE PUSH1 0x20 ADD PUSH0 DUP2 MSTORE PUSH1 0x20 ADD PUSH0 DUP2 MSTORE PUSH1 0x20 ADD PUSH0 DUP2 MSTORE PUSH1 0x20 ADD PUSH0 DUP2 MSTORE PUSH1 0x20 ADD PUSH0 DUP2 MSTORE PUSH1 0x20 ADD PUSH0 PUSH20 0xFFFFFFFFFFFFFFFFFFFFFFFFFFFFFFFFFFFFFFFF AND DUP2 MSTORE PUSH1 0x20 ADD PUSH0 ISZERO ISZERO DUP2 MSTORE POP SWAP1 JUMP JUMPDEST PUSH0 PUSH1 0x40 MLOAD SWAP1 POP SWAP1 JUMP JUMPDEST PUSH0 DUP1 REVERT JUMPDEST PUSH0 DUP1 REVERT JUMPDEST PUSH0 DUP2 SWAP1 POP SWAP2 SWAP1 POP JUMP JUMPDEST PUSH2 0x1053 DUP2 PUSH2 0x1041 JUMP JUMPDEST DUP2 EQ PUSH2 0x105D JUMPI PUSH0 DUP1 REVERT JUMPDEST POP JUMP JUMPDEST PUSH0 DUP2 CALLDATALOAD SWAP1 POP PUSH2 0x106E DUP2 PUSH2 0x104A JUMP JUMPDEST SWAP3 SWAP2 POP POP JUMP JUMPDEST PUSH0 PUSH1 0x20 DUP3 DUP5 SUB SLT ISZERO PUSH2 0x1089 JUMPI PUSH2 0x1088 PUSH2 0x1039 JUMP JUMPDEST JUMPDEST PUSH0 PUSH2 0x1096 DUP5 DUP3 DUP6 ADD PUSH2 0x1060 JUMP JUMPDEST SWAP2 POP POP SWAP3 SWAP2 POP POP JUMP JUMPDEST PUSH0 DUP2 MLOAD SWAP1 POP SWAP2 SWAP1 POP JUMP JUMPDEST PUSH0 DUP3 DUP3 MSTORE PUSH1 0x20 DUP3 ADD SWAP1 POP SWAP3 SWAP2 POP POP JUMP JUMPDEST PUSH0 DUP2 SWAP1 POP PUSH1 0x20 DUP3 ADD SWAP1 POP SWAP2 SWAP1 POP JUMP JUMPDEST PUSH2 0x10D1 DUP2 PUSH2 0x1041 JUMP JUMPDEST DUP3 MSTORE POP POP JUMP JUMPDEST PUSH0 DUP2 MLOAD SWAP1 POP SWAP2 SWAP1 POP JUMP JUMPDEST PUSH0 DUP3 DUP3 MSTORE PUSH1 0x20 DUP3 ADD SWAP1 POP SWAP3 SWAP2 POP POP JUMP JUMPDEST DUP3 DUP2 DUP4 MCOPY PUSH0 DUP4 DUP4 ADD MSTORE POP POP POP JUMP JUMPDEST PUSH0 PUSH1 0x1F NOT PUSH1 0x1F DUP4 ADD AND SWAP1 POP SWAP2 SWAP1 POP JUMP JUMPDEST PUSH0 PUSH2 0x1119 DUP3 PUSH2 0x10D7 JUMP JUMPDEST PUSH2 0x1123 DUP2 DUP6 PUSH2 0x10E1 JUMP JUMPDEST SWAP4 POP PUSH2 0x1133 DUP2 DUP6 PUSH1 0x20 DUP7 ADD PUSH2 0x10F1 JUMP JUMPDEST PUSH2 0x113C DUP2 PUSH2 0x10FF JUMP JUMPDEST DUP5 ADD SWAP2 POP POP SWAP3 SWAP2 POP POP JUMP JUMPDEST PUSH0 PUSH20 0xFFFFFFFFFFFFFFFFFFFFFFFFFFFFFFFFFFFFFFFF DUP3 AND SWAP1 POP SWAP2 SWAP1 POP JUMP JUMPDEST PUSH0 PUSH2 0x1170 DUP3 PUSH2 0x1147 JUMP JUMPDEST SWAP1 POP SWAP2 SWAP1 POP JUMP JUMPDEST PUSH2 0x1180 DUP2 PUSH2 0x1166 JUMP JUMPDEST DUP3 MSTORE POP POP JUMP JUMPDEST PUSH0 DUP2 ISZERO ISZERO SWAP1 POP SWAP2 SWAP1 POP JUMP JUMPDEST PUSH2 0x119A DUP2 PUSH2 0x1186 JUMP JUMPDEST DUP3 MSTORE POP POP JUMP JUMPDEST PUSH0 PUSH2 0x160 DUP4 ADD PUSH0 DUP4 ADD MLOAD PUSH2 0x11B6 PUSH0 DUP7 ADD DUP3 PUSH2 0x10C8 JUMP JUMPDEST POP PUSH1 0x20 DUP4 ADD MLOAD DUP5 DUP3 SUB PUSH1 0x20 DUP7 ADD MSTORE PUSH2 0x11CE DUP3 DUP3 PUSH2 0x110F JUMP JUMPDEST SWAP2 POP POP PUSH1 0x40 DUP4 ADD MLOAD DUP5 DUP3 SUB PUSH1 0x40 DUP7 ADD MSTORE PUSH2 0x11E8 DUP3 DUP3 PUSH2 0x110F JUMP JUMPDEST SWAP2 POP POP PUSH1 0x60 DUP4 ADD MLOAD PUSH2 0x11FD PUSH1 0x60 DUP7 ADD DUP3 PUSH2 0x10C8 JUMP JUMPDEST POP PUSH1 0x80 DUP4 ADD MLOAD PUSH2 0x1210 PUSH1 0x80 DUP7 ADD DUP3 PUSH2 0x10C8 JUMP JUMPDEST POP PUSH1 0xA0 DUP4 ADD MLOAD PUSH2 0x1223 PUSH1 0xA0 DUP7 ADD DUP3 PUSH2 0x10C8 JUMP JUMPDEST POP PUSH1 0xC0 DUP4 ADD MLOAD PUSH2 0x1236 PUSH1 0xC0 DUP7 ADD DUP3 PUSH2 0x10C8 JUMP JUMPDEST POP PUSH1 0xE0 DUP4 ADD MLOAD PUSH2 0x1249 PUSH1 0xE0 DUP7 ADD DUP3 PUSH2 0x10C8 JUMP JUMPDEST POP PUSH2 0x100 DUP4 ADD MLOAD PUSH2 0x125E PUSH2 0x100 DUP7 ADD DUP3 PUSH2 0x10C8 JUMP JUMPDEST POP PUSH2 0x120 DUP4 ADD MLOAD PUSH2 0x1273 PUSH2 0x120 DUP7 ADD DUP3 PUSH2 0x1177 JUMP JUMPDEST POP PUSH2 0x140 DUP4 ADD MLOAD PUSH2 0x1288 PUSH2 0x140 DUP7 ADD DUP3 PUSH2 0x1191 JUMP JUMPDEST POP DUP1 SWAP2 POP POP SWAP3 SWAP2 POP POP JUMP JUMPDEST PUSH0 PUSH2 0x129E DUP4 DUP4 PUSH2 0x11A0 JUMP JUMPDEST SWAP1 POP SWAP3 SWAP2 POP POP JUMP JUMPDEST PUSH0 PUSH1 0x20 DUP3 ADD SWAP1 POP SWAP2 SWAP1 POP JUMP JUMPDEST PUSH0 PUSH2 0x12BC DUP3 PUSH2 0x109F JUMP JUMPDEST PUSH2 0x12C6 DUP2 DUP6 PUSH2 0x10A9 JUMP JUMPDEST SWAP4 POP DUP4 PUSH1 0x20 DUP3 MUL DUP6 ADD PUSH2 0x12D8 DUP6 PUSH2 0x10B9 JUMP JUMPDEST DUP1 PUSH0 JUMPDEST DUP6 DUP2 LT ISZERO PUSH2 0x1313 JUMPI DUP5 DUP5 SUB DUP10 MSTORE DUP2 MLOAD PUSH2 0x12F4 DUP6 DUP3 PUSH2 0x1293 JUMP JUMPDEST SWAP5 POP PUSH2 0x12FF DUP4 PUSH2 0x12A6 JUMP JUMPDEST SWAP3 POP PUSH1 0x20 DUP11 ADD SWAP10 POP POP PUSH1 0x1 DUP2 ADD SWAP1 POP PUSH2 0x12DB JUMP JUMPDEST POP DUP3 SWAP8 POP DUP8 SWAP6 POP POP POP POP POP POP SWAP3 SWAP2 POP POP JUMP JUMPDEST PUSH0 PUSH1 0x20 DUP3 ADD SWAP1 POP DUP2 DUP2 SUB PUSH0 DUP4 ADD MSTORE PUSH2 0x133D DUP2 DUP5 PUSH2 0x12B2 JUMP JUMPDEST SWAP1 POP SWAP3 SWAP2 POP POP JUMP JUMPDEST PUSH2 0x134E DUP2 PUSH2 0x1166 JUMP JUMPDEST DUP2 EQ PUSH2 0x1358 JUMPI PUSH0 DUP1 REVERT JUMPDEST POP JUMP JUMPDEST PUSH0 DUP2 CALLDATALOAD SWAP1 POP PUSH2 0x1369 DUP2 PUSH2 0x1345 JUMP JUMPDEST SWAP3 SWAP2 POP POP JUMP JUMPDEST PUSH0 DUP1 PUSH1 0x40 DUP4 DUP6 SUB SLT ISZERO PUSH2 0x1385 JUMPI PUSH2 0x1384 PUSH2 0x1039 JUMP JUMPDEST JUMPDEST PUSH0 PUSH2 0x1392 DUP6 DUP3 DUP7 ADD PUSH2 0x135B JUMP JUMPDEST SWAP3 POP POP PUSH1 0x20 PUSH2 0x13A3 DUP6 DUP3 DUP7 ADD PUSH2 0x1060 JUMP JUMPDEST SWAP2 POP POP SWAP3 POP SWAP3 SWAP1 POP JUMP JUMPDEST PUSH2 0x13B6 DUP2 PUSH2 0x1041 JUMP JUMPDEST DUP3 MSTORE POP POP JUMP JUMPDEST PUSH0 DUP3 DUP3 MSTORE PUSH1 0x20 DUP3 ADD SWAP1 POP SWAP3 SWAP2 POP POP JUMP JUMPDEST PUSH0 PUSH2 0x13D6 DUP3 PUSH2 0x10D7 JUMP JUMPDEST PUSH2 0x13E0 DUP2 DUP6 PUSH2 0x13BC JUMP JUMPDEST SWAP4 POP PUSH2 0x13F0 DUP2 DUP6 PUSH1 0x20 DUP7 ADD PUSH2 0x10F1 JUMP JUMPDEST PUSH2 0x13F9 DUP2 PUSH2 0x10FF JUMP JUMPDEST DUP5 ADD SWAP2 POP POP SWAP3 SWAP2 POP POP JUMP JUMPDEST PUSH2 0x140D DUP2 PUSH2 0x1166 JUMP JUMPDEST DUP3 MSTORE POP POP JUMP JUMPDEST PUSH2 0x141C DUP2 PUSH2 0x1186 JUMP JUMPDEST DUP3 MSTORE POP POP JUMP JUMPDEST PUSH0 PUSH2 0x160 DUP3 ADD SWAP1 POP PUSH2 0x1436 PUSH0 DUP4 ADD DUP15 PUSH2 0x13AD JUMP JUMPDEST DUP2 DUP2 SUB PUSH1 0x20 DUP4 ADD MSTORE PUSH2 0x1448 DUP2 DUP14 PUSH2 0x13CC JUMP JUMPDEST SWAP1 POP DUP2 DUP2 SUB PUSH1 0x40 DUP4 ADD MSTORE PUSH2 0x145C DUP2 DUP13 PUSH2 0x13CC JUMP JUMPDEST SWAP1 POP PUSH2 0x146B PUSH1 0x60 DUP4 ADD DUP12 PUSH2 0x13AD JUMP JUMPDEST PUSH2 0x1478 PUSH1 0x80 DUP4 ADD DUP11 PUSH2 0x13AD JUMP JUMPDEST PUSH2 0x1485 PUSH1 0xA0 DUP4 ADD DUP10 PUSH2 0x13AD JUMP JUMPDEST PUSH2 0x1492 PUSH1 0xC0 DUP4 ADD DUP9 PUSH2 0x13AD JUMP JUMPDEST PUSH2 0x149F PUSH1 0xE0 DUP4 ADD DUP8 PUSH2 0x13AD JUMP JUMPDEST PUSH2 0x14AD PUSH2 0x100 DUP4 ADD DUP7 PUSH2 0x13AD JUMP JUMPDEST PUSH2 0x14BB PUSH2 0x120 DUP4 ADD DUP6 PUSH2 0x1404 JUMP JUMPDEST PUSH2 0x14C9 PUSH2 0x140 DUP4 ADD DUP5 PUSH2 0x1413 JUMP JUMPDEST SWAP13 SWAP12 POP POP POP POP POP POP POP POP POP POP POP POP JUMP JUMPDEST PUSH0 PUSH1 0x20 DUP3 ADD SWAP1 POP PUSH2 0x14EC PUSH0 DUP4 ADD DUP5 PUSH2 0x13AD JUMP JUMPDEST SWAP3 SWAP2 POP POP JUMP JUMPDEST PUSH0 DUP1 REVERT JUMPDEST PUSH32 0x4E487B7100000000000000000000000000000000000000000000000000000000 PUSH0 MSTORE PUSH1 0x41 PUSH1 0x4 MSTORE PUSH1 0x24 PUSH0 REVERT JUMPDEST PUSH2 0x152C DUP3 PUSH2 0x10FF JUMP JUMPDEST DUP2 ADD DUP2 DUP2 LT PUSH8 0xFFFFFFFFFFFFFFFF DUP3 GT OR ISZERO PUSH2 0x154B JUMPI PUSH2 0x154A PUSH2 0x14F6 JUMP JUMPDEST JUMPDEST DUP1 PUSH1 0x40 MSTORE POP POP POP JUMP JUMPDEST PUSH0 PUSH2 0x155D PUSH2 0x1030 JUMP JUMPDEST SWAP1 POP PUSH2 0x1569 DUP3 DUP3 PUSH2 0x1523 JUMP JUMPDEST SWAP2 SWAP1 POP JUMP JUMPDEST PUSH0 DUP1 REVERT JUMPDEST PUSH0 DUP2 MLOAD SWAP1 POP PUSH2 0x1580 DUP2 PUSH2 0x104A JUMP JUMPDEST SWAP3 SWAP2 POP POP JUMP JUMPDEST PUSH0 DUP1 REVERT JUMPDEST PUSH0 DUP1 REVERT JUMPDEST PUSH0 PUSH8 0xFFFFFFFFFFFFFFFF DUP3 GT ISZERO PUSH2 0x15A8 JUMPI PUSH2 0x15A7 PUSH2 0x14F6 JUMP JUMPDEST JUMPDEST PUSH2 0x15B1 DUP3 PUSH2 0x10FF JUMP JUMPDEST SWAP1 POP PUSH1 0x20 DUP2 ADD SWAP1 POP SWAP2 SWAP1 POP JUMP JUMPDEST PUSH0 PUSH2 0x15D0 PUSH2 0x15CB DUP5 PUSH2 0x158E JUMP JUMPDEST PUSH2 0x1554 JUMP JUMPDEST SWAP1 POP DUP3 DUP2 MSTORE PUSH1 0x20 DUP2 ADD DUP5 DUP5 DUP5 ADD GT ISZERO PUSH2 0x15EC JUMPI PUSH2 0x15EB PUSH2 0x158A JUMP JUMPDEST JUMPDEST PUSH2 0x15F7 DUP5 DUP3 DUP6 PUSH2 0x10F1 JUMP JUMPDEST POP SWAP4 SWAP3 POP POP POP JUMP JUMPDEST PUSH0 DUP3 PUSH1 0x1F DUP4 ADD SLT PUSH2 0x1613 JUMPI PUSH2 0x1612 PUSH2 0x1586 JUMP JUMPDEST JUMPDEST DUP2 MLOAD PUSH2 0x1623 DUP5 DUP3 PUSH1 0x20 DUP7 ADD PUSH2 0x15BE JUMP JUMPDEST SWAP2 POP POP SWAP3 SWAP2 POP POP JUMP JUMPDEST PUSH0 DUP2 MLOAD SWAP1 POP PUSH2 0x163A DUP2 PUSH2 0x1345 JUMP JUMPDEST SWAP3 SWAP2 POP POP JUMP JUMPDEST PUSH2 0x1649 DUP2 PUSH2 0x1186 JUMP JUMPDEST DUP2 EQ PUSH2 0x1653 JUMPI PUSH0 DUP1 REVERT JUMPDEST POP JUMP JUMPDEST PUSH0 DUP2 MLOAD SWAP1 POP PUSH2 0x1664 DUP2 PUSH2 0x1640 JUMP JUMPDEST SWAP3 SWAP2 POP POP JUMP JUMPDEST PUSH0 PUSH2 0x160 DUP3 DUP5 SUB SLT ISZERO PUSH2 0x1680 JUMPI PUSH2 0x167F PUSH2 0x14F2 JUMP JUMPDEST JUMPDEST PUSH2 0x168B PUSH2 0x160 PUSH2 0x1554 JUMP JUMPDEST SWAP1 POP PUSH0 PUSH2 0x169A DUP5 DUP3 DUP6 ADD PUSH2 0x1572 JUMP JUMPDEST PUSH0 DUP4 ADD MSTORE POP PUSH1 0x20 DUP3 ADD MLOAD PUSH8 0xFFFFFFFFFFFFFFFF DUP2 GT ISZERO PUSH2 0x16BD JUMPI PUSH2 0x16BC PUSH2 0x156E JUMP JUMPDEST JUMPDEST PUSH2 0x16C9 DUP5 DUP3 DUP6 ADD PUSH2 0x15FF JUMP JUMPDEST PUSH1 0x20 DUP4 ADD MSTORE POP PUSH1 0x40 DUP3 ADD MLOAD PUSH8 0xFFFFFFFFFFFFFFFF DUP2 GT ISZERO PUSH2 0x16ED JUMPI PUSH2 0x16EC PUSH2 0x156E JUMP JUMPDEST JUMPDEST PUSH2 0x16F9 DUP5 DUP3 DUP6 ADD PUSH2 0x15FF JUMP JUMPDEST PUSH1 0x40 DUP4 ADD MSTORE POP PUSH1 0x60 PUSH2 0x170D DUP5 DUP3 DUP6 ADD PUSH2 0x1572 JUMP JUMPDEST PUSH1 0x60 DUP4 ADD MSTORE POP PUSH1 0x80 PUSH2 0x1721 DUP5 DUP3 DUP6 ADD PUSH2 0x1572 JUMP JUMPDEST PUSH1 0x80 DUP4 ADD MSTORE POP PUSH1 0xA0 PUSH2 0x1735 DUP5 DUP3 DUP6 ADD PUSH2 0x1572 JUMP JUMPDEST PUSH1 0xA0 DUP4 ADD MSTORE POP PUSH1 0xC0 PUSH2 0x1749 DUP5 DUP3 DUP6 ADD PUSH2 0x1572 JUMP JUMPDEST PUSH1 0xC0 DUP4 ADD MSTORE POP PUSH1 0xE0 PUSH2 0x175D DUP5 DUP3 DUP6 ADD PUSH2 0x1572 JUMP JUMPDEST PUSH1 0xE0 DUP4 ADD MSTORE POP PUSH2 0x100 PUSH2 0x1772 DUP5 DUP3 DUP6 ADD PUSH2 0x1572 JUMP JUMPDEST PUSH2 0x100 DUP4 ADD MSTORE POP PUSH2 0x120 PUSH2 0x1788 DUP5 DUP3 DUP6 ADD PUSH2 0x162C JUMP JUMPDEST PUSH2 0x120 DUP4 ADD MSTORE POP PUSH2 0x140 PUSH2 0x179E DUP5 DUP3 DUP6 ADD PUSH2 0x1656 JUMP JUMPDEST PUSH2 0x140 DUP4 ADD MSTORE POP SWAP3 SWAP2 POP POP JUMP JUMPDEST PUSH0 PUSH1 0x20 DUP3 DUP5 SUB SLT ISZERO PUSH2 0x17C0 JUMPI PUSH2 0x17BF PUSH2 0x1039 JUMP JUMPDEST JUMPDEST PUSH0 DUP3 ADD MLOAD PUSH8 0xFFFFFFFFFFFFFFFF DUP2 GT ISZERO PUSH2 0x17DD JUMPI PUSH2 0x17DC PUSH2 0x103D JUMP JUMPDEST JUMPDEST PUSH2 0x17E9 DUP5 DUP3 DUP6 ADD PUSH2 0x166A JUMP JUMPDEST SWAP2 POP POP SWAP3 SWAP2 POP POP JUMP JUMPDEST PUSH32 0x596F752063616E6E6F7420627579206120706F6C696379207468617420686173 PUSH0 DUP3 ADD MSTORE PUSH32 0x206E6F74206265656E206C697374656421000000000000000000000000000000 PUSH1 0x20 DUP3 ADD MSTORE POP JUMP JUMPDEST PUSH0 PUSH2 0x184C PUSH1 0x31 DUP4 PUSH2 0x13BC JUMP JUMPDEST SWAP2 POP PUSH2 0x1857 DUP3 PUSH2 0x17F2 JUMP JUMPDEST PUSH1 0x40 DUP3 ADD SWAP1 POP SWAP2 SWAP1 POP JUMP JUMPDEST PUSH0 PUSH1 0x20 DUP3 ADD SWAP1 POP DUP2 DUP2 SUB PUSH0 DUP4 ADD MSTORE PUSH2 0x1879 DUP2 PUSH2 0x1840 JUMP JUMPDEST SWAP1 POP SWAP2 SWAP1 POP JUMP JUMPDEST PUSH0 PUSH1 0x20 DUP3 DUP5 SUB SLT ISZERO PUSH2 0x1895 JUMPI PUSH2 0x1894 PUSH2 0x1039 JUMP JUMPDEST JUMPDEST PUSH0 PUSH2 0x18A2 DUP5 DUP3 DUP6 ADD PUSH2 0x1572 JUMP JUMPDEST SWAP2 POP POP SWAP3 SWAP2 POP POP JUMP JUMPDEST PUSH32 0x4E487B7100000000000000000000000000000000000000000000000000000000 PUSH0 MSTORE PUSH1 0x11 PUSH1 0x4 MSTORE PUSH1 0x24 PUSH0 REVERT JUMPDEST PUSH0 PUSH2 0x18E2 DUP3 PUSH2 0x1041 JUMP JUMPDEST SWAP2 POP PUSH2 0x18ED DUP4 PUSH2 0x1041 JUMP JUMPDEST SWAP3 POP DUP3 DUP3 MUL PUSH2 0x18FB DUP2 PUSH2 0x1041 JUMP JUMPDEST SWAP2 POP DUP3 DUP3 DIV DUP5 EQ DUP4 ISZERO OR PUSH2 0x1912 JUMPI PUSH2 0x1911 PUSH2 0x18AB JUMP JUMPDEST JUMPDEST POP SWAP3 SWAP2 POP POP JUMP JUMPDEST PUSH0 DUP2 SWAP1 POP SWAP3 SWAP2 POP POP JUMP JUMPDEST PUSH32 0x596F75206E65656420746F20706179206174206C656173742074686520707265 PUSH0 DUP3 ADD MSTORE PUSH32 0x6D69756D206F6620000000000000000000000000000000000000000000000000 PUSH1 0x20 DUP3 ADD MSTORE POP JUMP JUMPDEST PUSH0 PUSH2 0x197D PUSH1 0x28 DUP4 PUSH2 0x1919 JUMP JUMPDEST SWAP2 POP PUSH2 0x1988 DUP3 PUSH2 0x1923 JUMP JUMPDEST PUSH1 0x28 DUP3 ADD SWAP1 POP SWAP2 SWAP1 POP JUMP JUMPDEST PUSH0 PUSH2 0x199D DUP3 PUSH2 0x10D7 JUMP JUMPDEST PUSH2 0x19A7 DUP2 DUP6 PUSH2 0x1919 JUMP JUMPDEST SWAP4 POP PUSH2 0x19B7 DUP2 DUP6 PUSH1 0x20 DUP7 ADD PUSH2 0x10F1 JUMP JUMPDEST DUP1 DUP5 ADD SWAP2 POP POP SWAP3 SWAP2 POP POP JUMP JUMPDEST PUSH32 0x207765692C206275742070726F76696465642000000000000000000000000000 PUSH0 DUP3 ADD MSTORE POP JUMP JUMPDEST PUSH0 PUSH2 0x19F7 PUSH1 0x13 DUP4 PUSH2 0x1919 JUMP JUMPDEST SWAP2 POP PUSH2 0x1A02 DUP3 PUSH2 0x19C3 JUMP JUMPDEST PUSH1 0x13 DUP3 ADD SWAP1 POP SWAP2 SWAP1 POP JUMP JUMPDEST PUSH32 0x207765692E000000000000000000000000000000000000000000000000000000 PUSH0 DUP3 ADD MSTORE POP JUMP JUMPDEST PUSH0 PUSH2 0x1A41 PUSH1 0x5 DUP4 PUSH2 0x1919 JUMP JUMPDEST SWAP2 POP PUSH2 0x1A4C DUP3 PUSH2 0x1A0D JUMP JUMPDEST PUSH1 0x5 DUP3 ADD SWAP1 POP SWAP2 SWAP1 POP JUMP JUMPDEST PUSH0 PUSH2 0x1A61 DUP3 PUSH2 0x1971 JUMP JUMPDEST SWAP2 POP PUSH2 0x1A6D DUP3 DUP6 PUSH2 0x1993 JUMP JUMPDEST SWAP2 POP PUSH2 0x1A78 DUP3 PUSH2 0x19EB JUMP JUMPDEST SWAP2 POP PUSH2 0x1A84 DUP3 DUP5 PUSH2 0x1993 JUMP JUMPDEST SWAP2 POP PUSH2 0x1A8F DUP3 PUSH2 0x1A35 JUMP JUMPDEST SWAP2 POP DUP2 SWAP1 POP SWAP4 SWAP3 POP POP POP JUMP JUMPDEST PUSH0 PUSH1 0x20 DUP3 ADD SWAP1 POP DUP2 DUP2 SUB PUSH0 DUP4 ADD MSTORE PUSH2 0x1AB3 DUP2 DUP5 PUSH2 0x13CC JUMP JUMPDEST SWAP1 POP SWAP3 SWAP2 POP POP JUMP JUMPDEST PUSH32 0x506F6C6963792063617061636974792065786365656465640000000000000000 PUSH0 DUP3 ADD MSTORE POP JUMP JUMPDEST PUSH0 PUSH2 0x1AEF PUSH1 0x18 DUP4 PUSH2 0x13BC JUMP JUMPDEST SWAP2 POP PUSH2 0x1AFA DUP3 PUSH2 0x1ABB JUMP JUMPDEST PUSH1 0x20 DUP3 ADD SWAP1 POP SWAP2 SWAP1 POP JUMP JUMPDEST PUSH0 PUSH1 0x20 DUP3 ADD SWAP1 POP DUP2 DUP2 SUB PUSH0 DUP4 ADD MSTORE PUSH2 0x1B1C DUP2 PUSH2 0x1AE3 JUMP JUMPDEST SWAP1 POP SWAP2 SWAP1 POP JUMP JUMPDEST PUSH32 0x4E487B7100000000000000000000000000000000000000000000000000000000 PUSH0 MSTORE PUSH1 0x22 PUSH1 0x4 MSTORE PUSH1 0x24 PUSH0 REVERT JUMPDEST PUSH0 PUSH1 0x2 DUP3 DIV SWAP1 POP PUSH1 0x1 DUP3 AND DUP1 PUSH2 0x1B67 JUMPI PUSH1 0x7F DUP3 AND SWAP2 POP JUMPDEST PUSH1 0x20 DUP3 LT DUP2 SUB PUSH2 0x1B7A JUMPI PUSH2 0x1B79 PUSH2 0x1B23 JUMP JUMPDEST JUMPDEST POP SWAP2 SWAP1 POP JUMP JUMPDEST PUSH0 DUP2 SWAP1 POP DUP2 PUSH0 MSTORE PUSH1 0x20 PUSH0 KECCAK256 SWAP1 POP SWAP2 SWAP1 POP JUMP JUMPDEST PUSH0 PUSH1 0x20 PUSH1 0x1F DUP4 ADD DIV SWAP1 POP SWAP2 SWAP1 POP JUMP JUMPDEST PUSH0 DUP3 DUP3 SHL SWAP1 POP SWAP3 SWAP2 POP POP JUMP JUMPDEST PUSH0 PUSH1 0x8 DUP4 MUL PUSH2 0x1BDC PUSH32 0xFFFFFFFFFFFFFFFFFFFFFFFFFFFFFFFFFFFFFFFFFFFFFFFFFFFFFFFFFFFFFFFF DUP3 PUSH2 0x1BA1 JUMP JUMPDEST PUSH2 0x1BE6 DUP7 DUP4 PUSH2 0x1BA1 JUMP JUMPDEST SWAP6 POP DUP1 NOT DUP5 AND SWAP4 POP DUP1 DUP7 AND DUP5 OR SWAP3 POP POP POP SWAP4 SWAP3 POP POP POP JUMP JUMPDEST PUSH0 DUP2 SWAP1 POP SWAP2 SWAP1 POP JUMP JUMPDEST PUSH0 PUSH2 0x1C21 PUSH2 0x1C1C PUSH2 0x1C17 DUP5 PUSH2 0x1041 JUMP JUMPDEST PUSH2 0x1BFE JUMP JUMPDEST PUSH2 0x1041 JUMP JUMPDEST SWAP1 POP SWAP2 SWAP1 POP JUMP JUMPDEST PUSH0 DUP2 SWAP1 POP SWAP2 SWAP1 POP JUMP JUMPDEST PUSH2 0x1C3A DUP4 PUSH2 0x1C07 JUMP JUMPDEST PUSH2 0x1C4E PUSH2 0x1C46 DUP3 PUSH2 0x1C28 JUMP JUMPDEST DUP5 DUP5 SLOAD PUSH2 0x1BAD JUMP JUMPDEST DUP3 SSTORE POP POP POP POP JUMP JUMPDEST PUSH0 SWAP1 JUMP JUMPDEST PUSH2 0x1C62 PUSH2 0x1C56 JUMP JUMPDEST PUSH2 0x1C6D DUP2 DUP5 DUP5 PUSH2 0x1C31 JUMP JUMPDEST POP POP POP JUMP JUMPDEST JUMPDEST DUP2 DUP2 LT ISZERO PUSH2 0x1C90 JUMPI PUSH2 0x1C85 PUSH0 DUP3 PUSH2 0x1C5A JUMP JUMPDEST PUSH1 0x1 DUP2 ADD SWAP1 POP PUSH2 0x1C73 JUMP JUMPDEST POP POP JUMP JUMPDEST PUSH1 0x1F DUP3 GT ISZERO PUSH2 0x1CD5 JUMPI PUSH2 0x1CA6 DUP2 PUSH2 0x1B80 JUMP JUMPDEST PUSH2 0x1CAF DUP5 PUSH2 0x1B92 JUMP JUMPDEST DUP2 ADD PUSH1 0x20 DUP6 LT ISZERO PUSH2 0x1CBE JUMPI DUP2 SWAP1 POP JUMPDEST PUSH2 0x1CD2 PUSH2 0x1CCA DUP6 PUSH2 0x1B92 JUMP JUMPDEST DUP4 ADD DUP3 PUSH2 0x1C72 JUMP JUMPDEST POP POP JUMPDEST POP POP POP JUMP JUMPDEST PUSH0 DUP3 DUP3 SHR SWAP1 POP SWAP3 SWAP2 POP POP JUMP JUMPDEST PUSH0 PUSH2 0x1CF5 PUSH0 NOT DUP5 PUSH1 0x8 MUL PUSH2 0x1CDA JUMP JUMPDEST NOT DUP1 DUP4 AND SWAP2 POP POP SWAP3 SWAP2 POP POP JUMP JUMPDEST PUSH0 PUSH2 0x1D0D DUP4 DUP4 PUSH2 0x1CE6 JUMP JUMPDEST SWAP2 POP DUP3 PUSH1 0x2 MUL DUP3 OR SWAP1 POP SWAP3 SWAP2 POP POP JUMP JUMPDEST PUSH2 0x1D26 DUP3 PUSH2 0x10D7 JUMP JUMPDEST PUSH8 0xFFFFFFFFFFFFFFFF DUP2 GT ISZERO PUSH2 0x1D3F JUMPI PUSH2 0x1D3E PUSH2 0x14F6 JUMP JUMPDEST JUMPDEST PUSH2 0x1D49 DUP3 SLOAD PUSH2 0x1B50 JUMP JUMPDEST PUSH2 0x1D54 DUP3 DUP3 DUP6 PUSH2 0x1C94 JUMP JUMPDEST PUSH0 PUSH1 0x20 SWAP1 POP PUSH1 0x1F DUP4 GT PUSH1 0x1 DUP2 EQ PUSH2 0x1D85 JUMPI PUSH0 DUP5 ISZERO PUSH2 0x1D73 JUMPI DUP3 DUP8 ADD MLOAD SWAP1 POP JUMPDEST PUSH2 0x1D7D DUP6 DUP3 PUSH2 0x1D02 JUMP JUMPDEST DUP7 SSTORE POP PUSH2 0x1DE4 JUMP JUMPDEST PUSH1 0x1F NOT DUP5 AND PUSH2 0x1D93 DUP7 PUSH2 0x1B80 JUMP JUMPDEST PUSH0 JUMPDEST DUP3 DUP2 LT ISZERO PUSH2 0x1DBA JUMPI DUP5 DUP10 ADD MLOAD DUP3 SSTORE PUSH1 0x1 DUP3 ADD SWAP2 POP PUSH1 0x20 DUP6 ADD SWAP5 POP PUSH1 0x20 DUP2 ADD SWAP1 POP PUSH2 0x1D95 JUMP JUMPDEST DUP7 DUP4 LT ISZERO PUSH2 0x1DD7 JUMPI DUP5 DUP10 ADD MLOAD PUSH2 0x1DD3 PUSH1 0x1F DUP10 AND DUP3 PUSH2 0x1CE6 JUMP JUMPDEST DUP4 SSTORE POP JUMPDEST PUSH1 0x1 PUSH1 0x2 DUP9 MUL ADD DUP9 SSTORE POP POP POP JUMPDEST POP POP POP POP POP POP JUMP JUMPDEST PUSH0 PUSH2 0x1DF6 DUP3 PUSH2 0x1041 JUMP JUMPDEST SWAP2 POP PUSH2 0x1E01 DUP4 PUSH2 0x1041 JUMP JUMPDEST SWAP3 POP DUP3 DUP3 ADD SWAP1 POP DUP1 DUP3 GT ISZERO PUSH2 0x1E19 JUMPI PUSH2 0x1E18 PUSH2 0x18AB JUMP JUMPDEST JUMPDEST SWAP3 SWAP2 POP POP JUMP JUMPDEST PUSH0 PUSH1 0x40 DUP3 ADD SWAP1 POP PUSH2 0x1E32 PUSH0 DUP4 ADD DUP6 PUSH2 0x13AD JUMP JUMPDEST PUSH2 0x1E3F PUSH1 0x20 DUP4 ADD DUP5 PUSH2 0x13AD JUMP JUMPDEST SWAP4 SWAP3 POP POP POP JUMP JUMPDEST PUSH0 PUSH2 0x1E50 DUP3 PUSH2 0x1041 JUMP JUMPDEST SWAP2 POP PUSH2 0x1E5B DUP4 PUSH2 0x1041 JUMP JUMPDEST SWAP3 POP DUP3 DUP3 SUB SWAP1 POP DUP2 DUP2 GT ISZERO PUSH2 0x1E73 JUMPI PUSH2 0x1E72 PUSH2 0x18AB JUMP JUMPDEST JUMPDEST SWAP3 SWAP2 POP POP JUMP JUMPDEST PUSH32 0x4E487B7100000000000000000000000000000000000000000000000000000000 PUSH0 MSTORE PUSH1 0x32 PUSH1 0x4 MSTORE PUSH1 0x24 PUSH0 REVERT JUMPDEST PUSH0 PUSH2 0x1EB0 DUP3 PUSH2 0x1041 JUMP JUMPDEST SWAP2 POP PUSH32 0xFFFFFFFFFFFFFFFFFFFFFFFFFFFFFFFFFFFFFFFFFFFFFFFFFFFFFFFFFFFFFFFF DUP3 SUB PUSH2 0x1EE2 JUMPI PUSH2 0x1EE1 PUSH2 0x18AB JUMP JUMPDEST JUMPDEST PUSH1 0x1 DUP3 ADD SWAP1 POP SWAP2 SWAP1 POP JUMP JUMPDEST PUSH32 0x596F7520646F206E6F74206F776E207468697320706F6C696379000000000000 PUSH0 DUP3 ADD MSTORE POP JUMP JUMPDEST PUSH0 PUSH2 0x1F21 PUSH1 0x1A DUP4 PUSH2 0x13BC JUMP JUMPDEST SWAP2 POP PUSH2 0x1F2C DUP3 PUSH2 0x1EED JUMP JUMPDEST PUSH1 0x20 DUP3 ADD SWAP1 POP SWAP2 SWAP1 POP JUMP JUMPDEST PUSH0 PUSH1 0x20 DUP3 ADD SWAP1 POP DUP2 DUP2 SUB PUSH0 DUP4 ADD MSTORE PUSH2 0x1F4E DUP2 PUSH2 0x1F15 JUMP JUMPDEST SWAP1 POP SWAP2 SWAP1 POP JUMP JUMPDEST PUSH32 0x4E487B7100000000000000000000000000000000000000000000000000000000 PUSH0 MSTORE PUSH1 0x12 PUSH1 0x4 MSTORE PUSH1 0x24 PUSH0 REVERT INVALID LOG2 PUSH5 0x6970667358 0x22 SLT KECCAK256 0xC2 DUP16 TLOAD 0xB7 0x25 SWAP9 SWAP3 PUSH3 0x80A2DD SWAP15 EXTCODESIZE PUSH29 0x70E75488BAB5669D187EC6F3F225B0CB0B264736F6C634300081A0033 "
		},
		"gasEstimates": {
			"creation": {
				"codeDepositCost": "1624000",
				"executionCost": "infinite",
				"totalCost": "infinite"
			},
			"external": {
				"buyPolicy(uint256)": "infinite",
				"listPolicy(uint256)": "infinite",
				"policyHolders(address,uint256)": "infinite",
				"viewListedPolicies()": "infinite",
				"viewMyActivePolicies()": "infinite"
			},
			"internal": {
				"delistPolicy(uint256)": "infinite"
			}
		},
		"methodIdentifiers": {
			"buyPolicy(uint256)": "79c88894",
			"listPolicy(uint256)": "a56cf067",
			"policyHolders(address,uint256)": "bb529068",
			"viewListedPolicies()": "9d61dba8",
			"viewMyActivePolicies()": "bf58fa37"
		}
	},
	"abi": [
		{
			"inputs": [
				{
					"internalType": "contract CSToken",
					"name": "_token",
					"type": "address"
				},
				{
					"internalType": "contract InsuranceCompany",
					"name": "_company",
					"type": "address"
				}
			],
			"stateMutability": "nonpayable",
			"type": "constructor"
		},
		{
			"inputs": [
				{
					"internalType": "uint256",
					"name": "policyId",
					"type": "uint256"
				}
			],
			"name": "buyPolicy",
			"outputs": [],
			"stateMutability": "payable",
			"type": "function"
		},
		{
			"inputs": [
				{
					"internalType": "uint256",
					"name": "policyId",
					"type": "uint256"
				}
			],
			"name": "listPolicy",
			"outputs": [],
			"stateMutability": "nonpayable",
			"type": "function"
		},
		{
			"inputs": [
				{
					"internalType": "address",
					"name": "",
					"type": "address"
				},
				{
					"internalType": "uint256",
					"name": "",
					"type": "uint256"
				}
			],
			"name": "policyHolders",
			"outputs": [
				{
					"internalType": "uint256",
					"name": "policyId",
					"type": "uint256"
				},
				{
					"internalType": "string",
					"name": "policyName",
					"type": "string"
				},
				{
					"internalType": "string",
					"name": "policyType",
					"type": "string"
				},
				{
					"internalType": "uint256",
					"name": "claimBackRate",
					"type": "uint256"
				},
				{
					"internalType": "uint256",
					"name": "maxPoolValue",
					"type": "uint256"
				},
				{
					"internalType": "uint256",
					"name": "currPoolValue",
					"type": "uint256"
				},
				{
					"internalType": "uint256",
					"name": "minStake",
					"type": "uint256"
				},
				{
					"internalType": "uint256",
					"name": "creationTime",
					"type": "uint256"
				},
				{
					"internalType": "uint256",
					"name": "coveragePeriod",
					"type": "uint256"
				},
				{
					"internalType": "address",
					"name": "creator",
					"type": "address"
				},
				{
					"internalType": "bool",
					"name": "listed",
					"type": "bool"
				}
			],
			"stateMutability": "view",
			"type": "function"
		},
		{
			"inputs": [],
			"name": "viewListedPolicies",
			"outputs": [
				{
					"components": [
						{
							"internalType": "uint256",
							"name": "policyId",
							"type": "uint256"
						},
						{
							"internalType": "string",
							"name": "policyName",
							"type": "string"
						},
						{
							"internalType": "string",
							"name": "policyType",
							"type": "string"
						},
						{
							"internalType": "uint256",
							"name": "claimBackRate",
							"type": "uint256"
						},
						{
							"internalType": "uint256",
							"name": "maxPoolValue",
							"type": "uint256"
						},
						{
							"internalType": "uint256",
							"name": "currPoolValue",
							"type": "uint256"
						},
						{
							"internalType": "uint256",
							"name": "minStake",
							"type": "uint256"
						},
						{
							"internalType": "uint256",
							"name": "creationTime",
							"type": "uint256"
						},
						{
							"internalType": "uint256",
							"name": "coveragePeriod",
							"type": "uint256"
						},
						{
							"internalType": "address",
							"name": "creator",
							"type": "address"
						},
						{
							"internalType": "bool",
							"name": "listed",
							"type": "bool"
						}
					],
					"internalType": "struct InsuranceCompany.Policy[]",
					"name": "",
					"type": "tuple[]"
				}
			],
			"stateMutability": "view",
			"type": "function"
		},
		{
			"inputs": [],
			"name": "viewMyActivePolicies",
			"outputs": [
				{
					"components": [
						{
							"internalType": "uint256",
							"name": "policyId",
							"type": "uint256"
						},
						{
							"internalType": "string",
							"name": "policyName",
							"type": "string"
						},
						{
							"internalType": "string",
							"name": "policyType",
							"type": "string"
						},
						{
							"internalType": "uint256",
							"name": "claimBackRate",
							"type": "uint256"
						},
						{
							"internalType": "uint256",
							"name": "maxPoolValue",
							"type": "uint256"
						},
						{
							"internalType": "uint256",
							"name": "currPoolValue",
							"type": "uint256"
						},
						{
							"internalType": "uint256",
							"name": "minStake",
							"type": "uint256"
						},
						{
							"internalType": "uint256",
							"name": "creationTime",
							"type": "uint256"
						},
						{
							"internalType": "uint256",
							"name": "coveragePeriod",
							"type": "uint256"
						},
						{
							"internalType": "address",
							"name": "creator",
							"type": "address"
						},
						{
							"internalType": "bool",
							"name": "listed",
							"type": "bool"
						}
					],
					"internalType": "struct InsuranceCompany.Policy[]",
					"name": "",
					"type": "tuple[]"
				}
			],
			"stateMutability": "view",
			"type": "function"
		}
	]
}