{
	"data": {
		"bytecode": {
			"linkReferences": {},
			"object": "608060405242600255348015610013575f80fd5b50604051612e97380380612e9783398181016040528101906100359190610165565b815f806101000a81548173ffffffffffffffffffffffffffffffffffffffff021916908373ffffffffffffffffffffffffffffffffffffffff1602179055508060015f6101000a81548173ffffffffffffffffffffffffffffffffffffffff021916908373ffffffffffffffffffffffffffffffffffffffff16021790555050506101a3565b5f80fd5b5f73ffffffffffffffffffffffffffffffffffffffff82169050919050565b5f6100e8826100bf565b9050919050565b5f6100f9826100de565b9050919050565b610109816100ef565b8114610113575f80fd5b50565b5f8151905061012481610100565b92915050565b5f610134826100de565b9050919050565b6101448161012a565b811461014e575f80fd5b50565b5f8151905061015f8161013b565b92915050565b5f806040838503121561017b5761017a6100bb565b5b5f61018885828601610116565b925050602061019985828601610151565b9150509250929050565b612ce7806101b05f395ff3fe608060405260043610610049575f3560e01c806379c888941461004d5780639d61dba814610069578063a56cf06714610093578063ac5d8185146100bb578063bb529068146100e5575b5f80fd5b61006760048036038101906100629190611962565b610126565b005b348015610074575f80fd5b5061007d61071a565b60405161008a9190611c13565b60405180910390f35b34801561009e575f80fd5b506100b960048036038101906100b49190611962565b610ab8565b005b3480156100c6575f80fd5b506100cf610d96565b6040516100dc9190611db6565b60405180910390f35b3480156100f0575f80fd5b5061010b60048036038101906101069190611e00565b6111fd565b60405161011d96959493929190611f80565b60405180910390f35b5f60015f9054906101000a900473ffffffffffffffffffffffffffffffffffffffff1673ffffffffffffffffffffffffffffffffffffffff16632b07fce3836040518263ffffffff1660e01b81526004016101819190611fe8565b5f60405180830381865afa15801561019b573d5f803e3d5ffd5b505050506040513d5f823e3d601f19601f820116820180604052508101906101c391906122ba565b905060011515816101400151151514610211576040517f08c379a000000000000000000000000000000000000000000000000000000000815260040161020890612381565b60405180910390fd5b3373ffffffffffffffffffffffffffffffffffffffff1681610120015173ffffffffffffffffffffffffffffffffffffffff1603610284576040517f08c379a000000000000000000000000000000000000000000000000000000000815260040161027b906123e9565b60405180910390fd5b5f805f9054906101000a900473ffffffffffffffffffffffffffffffffffffffff1673ffffffffffffffffffffffffffffffffffffffff16634763fbd28361012001516040518263ffffffff1660e01b81526004016102e39190612416565b602060405180830381865afa1580156102fe573d5f803e3d5ffd5b505050506040513d601f19601f82011682018060405250810190610322919061242f565b8260c001516103319190612487565b9050803410156103408261147d565b6103493461147d565b60405160200161035a929190612606565b604051602081830303815290604052906103aa576040517f08c379a00000000000000000000000000000000000000000000000000000000081526004016103a19190612682565b60405180910390fd5b508160a001518260800151116103f5576040517f08c379a00000000000000000000000000000000000000000000000000000000081526004016103ec906126ec565b60405180910390fd5b5f4290505f8361010001514261040b919061270a565b9050610415611852565b61041e83611547565b835f018460200185604001838152508381525083815250505050610440611852565b61044983611547565b835f0184602001856040018381525083815250838152505050505f6040518060c001604052808881526020018681526020018581526020018481526020018381526020018860c00151815250905060035f3373ffffffffffffffffffffffffffffffffffffffff1673ffffffffffffffffffffffffffffffffffffffff1681526020019081526020015f2081908060018154018082558091505060019003905f5260205f2090601302015f909190919091505f820151815f015f820151815f0155602082015181600101908161051f9190612937565b5060408201518160020190816105359190612937565b50606082015181600301556080820151816004015560a0820151816005015560c0820151816006015560e082015181600701556101008201518160080155610120820151816009015f6101000a81548173ffffffffffffffffffffffffffffffffffffffff021916908373ffffffffffffffffffffffffffffffffffffffff1602179055506101408201518160090160146101000a81548160ff0219169083151502179055505050602082015181600a0155604082015181600b0155606082015181600c015f820151815f015560208201518160010155604082015181600201555050608082015181600f015f820151815f01556020820151816001015560408201518160020155505060a08201518160120155505060015f9054906101000a900473ffffffffffffffffffffffffffffffffffffffff1673ffffffffffffffffffffffffffffffffffffffff16630c6ab3fa898960c001518a60a0015161069d919061270a565b6040518363ffffffff1660e01b81526004016106ba929190612a06565b5f604051808303815f87803b1580156106d1575f80fd5b505af11580156106e3573d5f803e3d5ffd5b505050508660c001518760a0015188608001516107009190612a2d565b10156107105761070f88611579565b5b5050505050505050565b60605f60015f9054906101000a900473ffffffffffffffffffffffffffffffffffffffff1673ffffffffffffffffffffffffffffffffffffffff1663de54d4296040518163ffffffff1660e01b8152600401602060405180830381865afa158015610787573d5f803e3d5ffd5b505050506040513d601f19601f820116820180604052508101906107ab919061242f565b90505f80600190505b828111610888575f60015f9054906101000a900473ffffffffffffffffffffffffffffffffffffffff1673ffffffffffffffffffffffffffffffffffffffff16632b07fce3836040518263ffffffff1660e01b81526004016108169190611fe8565b5f60405180830381865afa158015610830573d5f803e3d5ffd5b505050506040513d5f823e3d601f19601f8201168201806040525081019061085891906122ba565b90508061014001511561087457828061087090612a60565b9350505b50808061088090612a60565b9150506107b4565b505f81116108cb576040517f08c379a00000000000000000000000000000000000000000000000000000000081526004016108c290612b17565b60405180910390fd5b5f8167ffffffffffffffff8111156108e6576108e5612005565b5b60405190808252806020026020018201604052801561091f57816020015b61090c611870565b8152602001906001900390816109045790505b5090505f80600190505b848111610aad575f60015f9054906101000a900473ffffffffffffffffffffffffffffffffffffffff1673ffffffffffffffffffffffffffffffffffffffff16632b07fce3836040518263ffffffff1660e01b815260040161098b9190611fe8565b5f60405180830381865afa1580156109a5573d5f803e3d5ffd5b505050506040513d5f823e3d601f19601f820116820180604052508101906109cd91906122ba565b905080610140015115610a9957604051806101600160405280825f01518152602001826020015181526020018260400151815260200182606001518152602001826080015181526020018260a0015181526020018260c0015181526020018260e001518152602001826101000151815260200182610120015173ffffffffffffffffffffffffffffffffffffffff1681526020018261014001511515815250848481518110610a7f57610a7e612b35565b5b60200260200101819052508280610a9590612a60565b9350505b508080610aa590612a60565b915050610929565b508194505050505090565b805f60015f9054906101000a900473ffffffffffffffffffffffffffffffffffffffff1673ffffffffffffffffffffffffffffffffffffffff16632b07fce3836040518263ffffffff1660e01b8152600401610b149190611fe8565b5f60405180830381865afa158015610b2e573d5f803e3d5ffd5b505050506040513d5f823e3d601f19601f82011682018060405250810190610b5691906122ba565b905080610120015173ffffffffffffffffffffffffffffffffffffffff163373ffffffffffffffffffffffffffffffffffffffff1614610bcb576040517f08c379a0000000000000000000000000000000000000000000000000000000008152600401610bc290612bac565b60405180910390fd5b5f60015f9054906101000a900473ffffffffffffffffffffffffffffffffffffffff1673ffffffffffffffffffffffffffffffffffffffff16632b07fce3856040518263ffffffff1660e01b8152600401610c269190611fe8565b5f60405180830381865afa158015610c40573d5f803e3d5ffd5b505050506040513d5f823e3d601f19601f82011682018060405250810190610c6891906122ba565b90505f8054906101000a900473ffffffffffffffffffffffffffffffffffffffff1673ffffffffffffffffffffffffffffffffffffffff1663095ea7b33083608001516040518363ffffffff1660e01b8152600401610cc8929190612bca565b6020604051808303815f875af1158015610ce4573d5f803e3d5ffd5b505050506040513d601f19601f82011682018060405250810190610d089190612bf1565b5060015f9054906101000a900473ffffffffffffffffffffffffffffffffffffffff1673ffffffffffffffffffffffffffffffffffffffff16635b2a3646856040518263ffffffff1660e01b8152600401610d639190611fe8565b5f604051808303815f87803b158015610d7a575f80fd5b505af1158015610d8c573d5f803e3d5ffd5b5050505050505050565b60605f60035f3373ffffffffffffffffffffffffffffffffffffffff1673ffffffffffffffffffffffffffffffffffffffff1681526020019081526020015f208054905011610e1a576040517f08c379a0000000000000000000000000000000000000000000000000000000008152600401610e1190612c66565b60405180910390fd5b5f60035f3373ffffffffffffffffffffffffffffffffffffffff1673ffffffffffffffffffffffffffffffffffffffff1681526020019081526020015f208054905067ffffffffffffffff811115610e7557610e74612005565b5b604051908082528060200260200182016040528015610eae57816020015b610e9b6118d9565b815260200190600190039081610e935790505b5090505f5b60035f3373ffffffffffffffffffffffffffffffffffffffff1673ffffffffffffffffffffffffffffffffffffffff1681526020019081526020015f20805490508110156111f55760035f3373ffffffffffffffffffffffffffffffffffffffff1673ffffffffffffffffffffffffffffffffffffffff1681526020019081526020015f208181548110610f4a57610f49612b35565b5b905f5260205f2090601302016040518060c00160405290815f8201604051806101600160405290815f8201548152602001600182018054610f8a9061276a565b80601f0160208091040260200160405190810160405280929190818152602001828054610fb69061276a565b80156110015780601f10610fd857610100808354040283529160200191611001565b820191905f5260205f20905b815481529060010190602001808311610fe457829003601f168201915b5050505050815260200160028201805461101a9061276a565b80601f01602080910402602001604051908101604052809291908181526020018280546110469061276a565b80156110915780601f1061106857610100808354040283529160200191611091565b820191905f5260205f20905b81548152906001019060200180831161107457829003601f168201915b50505050508152602001600382015481526020016004820154815260200160058201548152602001600682015481526020016007820154815260200160088201548152602001600982015f9054906101000a900473ffffffffffffffffffffffffffffffffffffffff1673ffffffffffffffffffffffffffffffffffffffff1673ffffffffffffffffffffffffffffffffffffffff1681526020016009820160149054906101000a900460ff1615151515815250508152602001600a8201548152602001600b8201548152602001600c82016040518060600160405290815f8201548152602001600182015481526020016002820154815250508152602001600f82016040518060600160405290815f82015481526020016001820154815260200160028201548152505081526020016012820154815250508282815181106111dd576111dc612b35565b5b60200260200101819052508080600101915050610eb3565b508091505090565b6003602052815f5260405f208181548110611216575f80fd5b905f5260205f2090601302015f9150915050805f01604051806101600160405290815f82015481526020016001820180546112509061276a565b80601f016020809104026020016040519081016040528092919081815260200182805461127c9061276a565b80156112c75780601f1061129e576101008083540402835291602001916112c7565b820191905f5260205f20905b8154815290600101906020018083116112aa57829003601f168201915b505050505081526020016002820180546112e09061276a565b80601f016020809104026020016040519081016040528092919081815260200182805461130c9061276a565b80156113575780601f1061132e57610100808354040283529160200191611357565b820191905f5260205f20905b81548152906001019060200180831161133a57829003601f168201915b50505050508152602001600382015481526020016004820154815260200160058201548152602001600682015481526020016007820154815260200160088201548152602001600982015f9054906101000a900473ffffffffffffffffffffffffffffffffffffffff1673ffffffffffffffffffffffffffffffffffffffff1673ffffffffffffffffffffffffffffffffffffffff1681526020016009820160149054906101000a900460ff1615151515815250509080600a01549080600b01549080600c016040518060600160405290815f8201548152602001600182015481526020016002820154815250509080600f016040518060600160405290815f820154815260200160018201548152602001600282015481525050908060120154905086565b60605f600161148b84611603565b0190505f8167ffffffffffffffff8111156114a9576114a8612005565b5b6040519080825280601f01601f1916602001820160405280156114db5781602001600182028036833780820191505090505b5090505f82602001820190505b60011561153c578080600190039150507f3031323334353637383961626364656600000000000000000000000000000000600a86061a8153600a858161153157611530612c84565b5b0494505f85036114e8575b819350505050919050565b5f805f6115666201518085816115605761155f612c84565b5b04611754565b8093508194508295505050509193909250565b60015f9054906101000a900473ffffffffffffffffffffffffffffffffffffffff1673ffffffffffffffffffffffffffffffffffffffff166322191f72826040518263ffffffff1660e01b81526004016115d39190611fe8565b5f604051808303815f87803b1580156115ea575f80fd5b505af11580156115fc573d5f803e3d5ffd5b5050505050565b5f805f90507a184f03e93ff9f4daa797ed6e38ed64bf6a1f010000000000000000831061165f577a184f03e93ff9f4daa797ed6e38ed64bf6a1f010000000000000000838161165557611654612c84565b5b0492506040810190505b6d04ee2d6d415b85acef8100000000831061169c576d04ee2d6d415b85acef8100000000838161169257611691612c84565b5b0492506020810190505b662386f26fc1000083106116cb57662386f26fc1000083816116c1576116c0612c84565b5b0492506010810190505b6305f5e10083106116f4576305f5e10083816116ea576116e9612c84565b5b0492506008810190505b612710831061171957612710838161170f5761170e612c84565b5b0492506004810190505b6064831061173c576064838161173257611731612c84565b5b0492506002810190505b600a831061174b576001810190505b80915050919050565b5f805f808490505f62253d8c62010bd983010190505f62023ab182600402816117805761177f612c84565b5b059050600460038262023ab102018161179c5761179b612c84565b5b05820391505f62164b0960018401610fa002816117bc576117bb612c84565b5b059050601f6004826105b502816117d6576117d5612c84565b5b0584030192505f61098f84605002816117f2576117f1612c84565b5b0590505f60508261098f028161180b5761180a612c84565b5b0585039050600b828161182157611820612c84565b5b05945084600c0260028301039150848360318603606402010192508298508197508096505050505050509193909250565b60405180606001604052805f81526020015f81526020015f81525090565b6040518061016001604052805f815260200160608152602001606081526020015f81526020015f81526020015f81526020015f81526020015f81526020015f81526020015f73ffffffffffffffffffffffffffffffffffffffff1681526020015f151581525090565b6040518060c001604052806118ec611870565b81526020015f81526020015f8152602001611905611852565b8152602001611912611852565b81526020015f81525090565b5f604051905090565b5f80fd5b5f80fd5b5f819050919050565b6119418161192f565b811461194b575f80fd5b50565b5f8135905061195c81611938565b92915050565b5f6020828403121561197757611976611927565b5b5f6119848482850161194e565b91505092915050565b5f81519050919050565b5f82825260208201905092915050565b5f819050602082019050919050565b6119bf8161192f565b82525050565b5f81519050919050565b5f82825260208201905092915050565b8281835e5f83830152505050565b5f601f19601f8301169050919050565b5f611a07826119c5565b611a1181856119cf565b9350611a218185602086016119df565b611a2a816119ed565b840191505092915050565b5f73ffffffffffffffffffffffffffffffffffffffff82169050919050565b5f611a5e82611a35565b9050919050565b611a6e81611a54565b82525050565b5f8115159050919050565b611a8881611a74565b82525050565b5f61016083015f830151611aa45f8601826119b6565b5060208301518482036020860152611abc82826119fd565b91505060408301518482036040860152611ad682826119fd565b9150506060830151611aeb60608601826119b6565b506080830151611afe60808601826119b6565b5060a0830151611b1160a08601826119b6565b5060c0830151611b2460c08601826119b6565b5060e0830151611b3760e08601826119b6565b50610100830151611b4c6101008601826119b6565b50610120830151611b61610120860182611a65565b50610140830151611b76610140860182611a7f565b508091505092915050565b5f611b8c8383611a8e565b905092915050565b5f602082019050919050565b5f611baa8261198d565b611bb48185611997565b935083602082028501611bc6856119a7565b805f5b85811015611c015784840389528151611be28582611b81565b9450611bed83611b94565b925060208a01995050600181019050611bc9565b50829750879550505050505092915050565b5f6020820190508181035f830152611c2b8184611ba0565b905092915050565b5f81519050919050565b5f82825260208201905092915050565b5f819050602082019050919050565b606082015f820151611c705f8501826119b6565b506020820151611c8360208501826119b6565b506040820151611c9660408501826119b6565b50505050565b5f61014083015f8301518482035f860152611cb78282611a8e565b9150506020830151611ccc60208601826119b6565b506040830151611cdf60408601826119b6565b506060830151611cf26060860182611c5c565b506080830151611d0560c0860182611c5c565b5060a0830151611d196101208601826119b6565b508091505092915050565b5f611d2f8383611c9c565b905092915050565b5f602082019050919050565b5f611d4d82611c33565b611d578185611c3d565b935083602082028501611d6985611c4d565b805f5b85811015611da45784840389528151611d858582611d24565b9450611d9083611d37565b925060208a01995050600181019050611d6c565b50829750879550505050505092915050565b5f6020820190508181035f830152611dce8184611d43565b905092915050565b611ddf81611a54565b8114611de9575f80fd5b50565b5f81359050611dfa81611dd6565b92915050565b5f8060408385031215611e1657611e15611927565b5b5f611e2385828601611dec565b9250506020611e348582860161194e565b9150509250929050565b5f61016083015f830151611e545f8601826119b6565b5060208301518482036020860152611e6c82826119fd565b91505060408301518482036040860152611e8682826119fd565b9150506060830151611e9b60608601826119b6565b506080830151611eae60808601826119b6565b5060a0830151611ec160a08601826119b6565b5060c0830151611ed460c08601826119b6565b5060e0830151611ee760e08601826119b6565b50610100830151611efc6101008601826119b6565b50610120830151611f11610120860182611a65565b50610140830151611f26610140860182611a7f565b508091505092915050565b611f3a8161192f565b82525050565b606082015f820151611f545f8501826119b6565b506020820151611f6760208501826119b6565b506040820151611f7a60408501826119b6565b50505050565b5f610140820190508181035f830152611f998189611e3e565b9050611fa86020830188611f31565b611fb56040830187611f31565b611fc26060830186611f40565b611fcf60c0830185611f40565b611fdd610120830184611f31565b979650505050505050565b5f602082019050611ffb5f830184611f31565b92915050565b5f80fd5b7f4e487b71000000000000000000000000000000000000000000000000000000005f52604160045260245ffd5b61203b826119ed565b810181811067ffffffffffffffff8211171561205a57612059612005565b5b80604052505050565b5f61206c61191e565b90506120788282612032565b919050565b5f80fd5b5f8151905061208f81611938565b92915050565b5f80fd5b5f80fd5b5f67ffffffffffffffff8211156120b7576120b6612005565b5b6120c0826119ed565b9050602081019050919050565b5f6120df6120da8461209d565b612063565b9050828152602081018484840111156120fb576120fa612099565b5b6121068482856119df565b509392505050565b5f82601f83011261212257612121612095565b5b81516121328482602086016120cd565b91505092915050565b5f8151905061214981611dd6565b92915050565b61215881611a74565b8114612162575f80fd5b50565b5f815190506121738161214f565b92915050565b5f610160828403121561218f5761218e612001565b5b61219a610160612063565b90505f6121a984828501612081565b5f83015250602082015167ffffffffffffffff8111156121cc576121cb61207d565b5b6121d88482850161210e565b602083015250604082015167ffffffffffffffff8111156121fc576121fb61207d565b5b6122088482850161210e565b604083015250606061221c84828501612081565b606083015250608061223084828501612081565b60808301525060a061224484828501612081565b60a08301525060c061225884828501612081565b60c08301525060e061226c84828501612081565b60e08301525061010061228184828501612081565b610100830152506101206122978482850161213b565b610120830152506101406122ad84828501612165565b6101408301525092915050565b5f602082840312156122cf576122ce611927565b5b5f82015167ffffffffffffffff8111156122ec576122eb61192b565b5b6122f884828501612179565b91505092915050565b5f82825260208201905092915050565b7f596f752063616e6e6f7420627579206120706f6c6963792074686174206861735f8201527f206e6f74206265656e206c697374656421000000000000000000000000000000602082015250565b5f61236b603183612301565b915061237682612311565b604082019050919050565b5f6020820190508181035f8301526123988161235f565b9050919050565b7f596f752063616e6e6f742062757920796f7572206f776e20706f6c69637900005f82015250565b5f6123d3601e83612301565b91506123de8261239f565b602082019050919050565b5f6020820190508181035f830152612400816123c7565b9050919050565b61241081611a54565b82525050565b5f6020820190506124295f830184612407565b92915050565b5f6020828403121561244457612443611927565b5b5f61245184828501612081565b91505092915050565b7f4e487b71000000000000000000000000000000000000000000000000000000005f52601160045260245ffd5b5f6124918261192f565b915061249c8361192f565b92508282026124aa8161192f565b915082820484148315176124c1576124c061245a565b5b5092915050565b5f81905092915050565b7f596f75206e65656420746f20706179206174206c6561737420746865207072655f8201527f6d69756d206f6620000000000000000000000000000000000000000000000000602082015250565b5f61252c6028836124c8565b9150612537826124d2565b602882019050919050565b5f61254c826119c5565b61255681856124c8565b93506125668185602086016119df565b80840191505092915050565b7f207765692c206275742070726f766964656420000000000000000000000000005f82015250565b5f6125a66013836124c8565b91506125b182612572565b601382019050919050565b7f207765692e0000000000000000000000000000000000000000000000000000005f82015250565b5f6125f06005836124c8565b91506125fb826125bc565b600582019050919050565b5f61261082612520565b915061261c8285612542565b91506126278261259a565b91506126338284612542565b915061263e826125e4565b91508190509392505050565b5f612654826119c5565b61265e8185612301565b935061266e8185602086016119df565b612677816119ed565b840191505092915050565b5f6020820190508181035f83015261269a818461264a565b905092915050565b7f506f6c69637920636170616369747920657863656564656400000000000000005f82015250565b5f6126d6601883612301565b91506126e1826126a2565b602082019050919050565b5f6020820190508181035f830152612703816126ca565b9050919050565b5f6127148261192f565b915061271f8361192f565b92508282019050808211156127375761273661245a565b5b92915050565b7f4e487b71000000000000000000000000000000000000000000000000000000005f52602260045260245ffd5b5f600282049050600182168061278157607f821691505b6020821081036127945761279361273d565b5b50919050565b5f819050815f5260205f209050919050565b5f6020601f8301049050919050565b5f82821b905092915050565b5f600883026127f67fffffffffffffffffffffffffffffffffffffffffffffffffffffffffffffffff826127bb565b61280086836127bb565b95508019841693508086168417925050509392505050565b5f819050919050565b5f61283b6128366128318461192f565b612818565b61192f565b9050919050565b5f819050919050565b61285483612821565b61286861286082612842565b8484546127c7565b825550505050565b5f90565b61287c612870565b61288781848461284b565b505050565b5b818110156128aa5761289f5f82612874565b60018101905061288d565b5050565b601f8211156128ef576128c08161279a565b6128c9846127ac565b810160208510156128d8578190505b6128ec6128e4856127ac565b83018261288c565b50505b505050565b5f82821c905092915050565b5f61290f5f19846008026128f4565b1980831691505092915050565b5f6129278383612900565b9150826002028217905092915050565b612940826119c5565b67ffffffffffffffff81111561295957612958612005565b5b612963825461276a565b61296e8282856128ae565b5f60209050601f83116001811461299f575f841561298d578287015190505b612997858261291c565b8655506129fe565b601f1984166129ad8661279a565b5f5b828110156129d4578489015182556001820191506020850194506020810190506129af565b868310156129f157848901516129ed601f891682612900565b8355505b6001600288020188555050505b505050505050565b5f604082019050612a195f830185611f31565b612a266020830184611f31565b9392505050565b5f612a378261192f565b9150612a428361192f565b9250828203905081811115612a5a57612a5961245a565b5b92915050565b5f612a6a8261192f565b91507fffffffffffffffffffffffffffffffffffffffffffffffffffffffffffffffff8203612a9c57612a9b61245a565b5b600182019050919050565b7f5468657265206172652063757272656e746c79206e6f206c697374656420706f5f8201527f6c696369657320746f2062757900000000000000000000000000000000000000602082015250565b5f612b01602d83612301565b9150612b0c82612aa7565b604082019050919050565b5f6020820190508181035f830152612b2e81612af5565b9050919050565b7f4e487b71000000000000000000000000000000000000000000000000000000005f52603260045260245ffd5b7f596f7520646f206e6f74206f776e207468697320706f6c6963790000000000005f82015250565b5f612b96601a83612301565b9150612ba182612b62565b602082019050919050565b5f6020820190508181035f830152612bc381612b8a565b9050919050565b5f604082019050612bdd5f830185612407565b612bea6020830184611f31565b9392505050565b5f60208284031215612c0657612c05611927565b5b5f612c1384828501612165565b91505092915050565b7f596f7520646f6e2774206f776e20616e7920706f6c69636965730000000000005f82015250565b5f612c50601a83612301565b9150612c5b82612c1c565b602082019050919050565b5f6020820190508181035f830152612c7d81612c44565b9050919050565b7f4e487b71000000000000000000000000000000000000000000000000000000005f52601260045260245ffdfea26469706673582212202fa97b0ce5dbf85780a9a8874ddd0a5eb226dc3610d9371aa0e4f5a5769abcb564736f6c634300081a0033",
			"opcodes": "PUSH1 0x80 PUSH1 0x40 MSTORE TIMESTAMP PUSH1 0x2 SSTORE CALLVALUE DUP1 ISZERO PUSH2 0x13 JUMPI PUSH0 DUP1 REVERT JUMPDEST POP PUSH1 0x40 MLOAD PUSH2 0x2E97 CODESIZE SUB DUP1 PUSH2 0x2E97 DUP4 CODECOPY DUP2 DUP2 ADD PUSH1 0x40 MSTORE DUP2 ADD SWAP1 PUSH2 0x35 SWAP2 SWAP1 PUSH2 0x165 JUMP JUMPDEST DUP2 PUSH0 DUP1 PUSH2 0x100 EXP DUP2 SLOAD DUP2 PUSH20 0xFFFFFFFFFFFFFFFFFFFFFFFFFFFFFFFFFFFFFFFF MUL NOT AND SWAP1 DUP4 PUSH20 0xFFFFFFFFFFFFFFFFFFFFFFFFFFFFFFFFFFFFFFFF AND MUL OR SWAP1 SSTORE POP DUP1 PUSH1 0x1 PUSH0 PUSH2 0x100 EXP DUP2 SLOAD DUP2 PUSH20 0xFFFFFFFFFFFFFFFFFFFFFFFFFFFFFFFFFFFFFFFF MUL NOT AND SWAP1 DUP4 PUSH20 0xFFFFFFFFFFFFFFFFFFFFFFFFFFFFFFFFFFFFFFFF AND MUL OR SWAP1 SSTORE POP POP POP PUSH2 0x1A3 JUMP JUMPDEST PUSH0 DUP1 REVERT JUMPDEST PUSH0 PUSH20 0xFFFFFFFFFFFFFFFFFFFFFFFFFFFFFFFFFFFFFFFF DUP3 AND SWAP1 POP SWAP2 SWAP1 POP JUMP JUMPDEST PUSH0 PUSH2 0xE8 DUP3 PUSH2 0xBF JUMP JUMPDEST SWAP1 POP SWAP2 SWAP1 POP JUMP JUMPDEST PUSH0 PUSH2 0xF9 DUP3 PUSH2 0xDE JUMP JUMPDEST SWAP1 POP SWAP2 SWAP1 POP JUMP JUMPDEST PUSH2 0x109 DUP2 PUSH2 0xEF JUMP JUMPDEST DUP2 EQ PUSH2 0x113 JUMPI PUSH0 DUP1 REVERT JUMPDEST POP JUMP JUMPDEST PUSH0 DUP2 MLOAD SWAP1 POP PUSH2 0x124 DUP2 PUSH2 0x100 JUMP JUMPDEST SWAP3 SWAP2 POP POP JUMP JUMPDEST PUSH0 PUSH2 0x134 DUP3 PUSH2 0xDE JUMP JUMPDEST SWAP1 POP SWAP2 SWAP1 POP JUMP JUMPDEST PUSH2 0x144 DUP2 PUSH2 0x12A JUMP JUMPDEST DUP2 EQ PUSH2 0x14E JUMPI PUSH0 DUP1 REVERT JUMPDEST POP JUMP JUMPDEST PUSH0 DUP2 MLOAD SWAP1 POP PUSH2 0x15F DUP2 PUSH2 0x13B JUMP JUMPDEST SWAP3 SWAP2 POP POP JUMP JUMPDEST PUSH0 DUP1 PUSH1 0x40 DUP4 DUP6 SUB SLT ISZERO PUSH2 0x17B JUMPI PUSH2 0x17A PUSH2 0xBB JUMP JUMPDEST JUMPDEST PUSH0 PUSH2 0x188 DUP6 DUP3 DUP7 ADD PUSH2 0x116 JUMP JUMPDEST SWAP3 POP POP PUSH1 0x20 PUSH2 0x199 DUP6 DUP3 DUP7 ADD PUSH2 0x151 JUMP JUMPDEST SWAP2 POP POP SWAP3 POP SWAP3 SWAP1 POP JUMP JUMPDEST PUSH2 0x2CE7 DUP1 PUSH2 0x1B0 PUSH0 CODECOPY PUSH0 RETURN INVALID PUSH1 0x80 PUSH1 0x40 MSTORE PUSH1 0x4 CALLDATASIZE LT PUSH2 0x49 JUMPI PUSH0 CALLDATALOAD PUSH1 0xE0 SHR DUP1 PUSH4 0x79C88894 EQ PUSH2 0x4D JUMPI DUP1 PUSH4 0x9D61DBA8 EQ PUSH2 0x69 JUMPI DUP1 PUSH4 0xA56CF067 EQ PUSH2 0x93 JUMPI DUP1 PUSH4 0xAC5D8185 EQ PUSH2 0xBB JUMPI DUP1 PUSH4 0xBB529068 EQ PUSH2 0xE5 JUMPI JUMPDEST PUSH0 DUP1 REVERT JUMPDEST PUSH2 0x67 PUSH1 0x4 DUP1 CALLDATASIZE SUB DUP2 ADD SWAP1 PUSH2 0x62 SWAP2 SWAP1 PUSH2 0x1962 JUMP JUMPDEST PUSH2 0x126 JUMP JUMPDEST STOP JUMPDEST CALLVALUE DUP1 ISZERO PUSH2 0x74 JUMPI PUSH0 DUP1 REVERT JUMPDEST POP PUSH2 0x7D PUSH2 0x71A JUMP JUMPDEST PUSH1 0x40 MLOAD PUSH2 0x8A SWAP2 SWAP1 PUSH2 0x1C13 JUMP JUMPDEST PUSH1 0x40 MLOAD DUP1 SWAP2 SUB SWAP1 RETURN JUMPDEST CALLVALUE DUP1 ISZERO PUSH2 0x9E JUMPI PUSH0 DUP1 REVERT JUMPDEST POP PUSH2 0xB9 PUSH1 0x4 DUP1 CALLDATASIZE SUB DUP2 ADD SWAP1 PUSH2 0xB4 SWAP2 SWAP1 PUSH2 0x1962 JUMP JUMPDEST PUSH2 0xAB8 JUMP JUMPDEST STOP JUMPDEST CALLVALUE DUP1 ISZERO PUSH2 0xC6 JUMPI PUSH0 DUP1 REVERT JUMPDEST POP PUSH2 0xCF PUSH2 0xD96 JUMP JUMPDEST PUSH1 0x40 MLOAD PUSH2 0xDC SWAP2 SWAP1 PUSH2 0x1DB6 JUMP JUMPDEST PUSH1 0x40 MLOAD DUP1 SWAP2 SUB SWAP1 RETURN JUMPDEST CALLVALUE DUP1 ISZERO PUSH2 0xF0 JUMPI PUSH0 DUP1 REVERT JUMPDEST POP PUSH2 0x10B PUSH1 0x4 DUP1 CALLDATASIZE SUB DUP2 ADD SWAP1 PUSH2 0x106 SWAP2 SWAP1 PUSH2 0x1E00 JUMP JUMPDEST PUSH2 0x11FD JUMP JUMPDEST PUSH1 0x40 MLOAD PUSH2 0x11D SWAP7 SWAP6 SWAP5 SWAP4 SWAP3 SWAP2 SWAP1 PUSH2 0x1F80 JUMP JUMPDEST PUSH1 0x40 MLOAD DUP1 SWAP2 SUB SWAP1 RETURN JUMPDEST PUSH0 PUSH1 0x1 PUSH0 SWAP1 SLOAD SWAP1 PUSH2 0x100 EXP SWAP1 DIV PUSH20 0xFFFFFFFFFFFFFFFFFFFFFFFFFFFFFFFFFFFFFFFF AND PUSH20 0xFFFFFFFFFFFFFFFFFFFFFFFFFFFFFFFFFFFFFFFF AND PUSH4 0x2B07FCE3 DUP4 PUSH1 0x40 MLOAD DUP3 PUSH4 0xFFFFFFFF AND PUSH1 0xE0 SHL DUP2 MSTORE PUSH1 0x4 ADD PUSH2 0x181 SWAP2 SWAP1 PUSH2 0x1FE8 JUMP JUMPDEST PUSH0 PUSH1 0x40 MLOAD DUP1 DUP4 SUB DUP2 DUP7 GAS STATICCALL ISZERO DUP1 ISZERO PUSH2 0x19B JUMPI RETURNDATASIZE PUSH0 DUP1 RETURNDATACOPY RETURNDATASIZE PUSH0 REVERT JUMPDEST POP POP POP POP PUSH1 0x40 MLOAD RETURNDATASIZE PUSH0 DUP3 RETURNDATACOPY RETURNDATASIZE PUSH1 0x1F NOT PUSH1 0x1F DUP3 ADD AND DUP3 ADD DUP1 PUSH1 0x40 MSTORE POP DUP2 ADD SWAP1 PUSH2 0x1C3 SWAP2 SWAP1 PUSH2 0x22BA JUMP JUMPDEST SWAP1 POP PUSH1 0x1 ISZERO ISZERO DUP2 PUSH2 0x140 ADD MLOAD ISZERO ISZERO EQ PUSH2 0x211 JUMPI PUSH1 0x40 MLOAD PUSH32 0x8C379A000000000000000000000000000000000000000000000000000000000 DUP2 MSTORE PUSH1 0x4 ADD PUSH2 0x208 SWAP1 PUSH2 0x2381 JUMP JUMPDEST PUSH1 0x40 MLOAD DUP1 SWAP2 SUB SWAP1 REVERT JUMPDEST CALLER PUSH20 0xFFFFFFFFFFFFFFFFFFFFFFFFFFFFFFFFFFFFFFFF AND DUP2 PUSH2 0x120 ADD MLOAD PUSH20 0xFFFFFFFFFFFFFFFFFFFFFFFFFFFFFFFFFFFFFFFF AND SUB PUSH2 0x284 JUMPI PUSH1 0x40 MLOAD PUSH32 0x8C379A000000000000000000000000000000000000000000000000000000000 DUP2 MSTORE PUSH1 0x4 ADD PUSH2 0x27B SWAP1 PUSH2 0x23E9 JUMP JUMPDEST PUSH1 0x40 MLOAD DUP1 SWAP2 SUB SWAP1 REVERT JUMPDEST PUSH0 DUP1 PUSH0 SWAP1 SLOAD SWAP1 PUSH2 0x100 EXP SWAP1 DIV PUSH20 0xFFFFFFFFFFFFFFFFFFFFFFFFFFFFFFFFFFFFFFFF AND PUSH20 0xFFFFFFFFFFFFFFFFFFFFFFFFFFFFFFFFFFFFFFFF AND PUSH4 0x4763FBD2 DUP4 PUSH2 0x120 ADD MLOAD PUSH1 0x40 MLOAD DUP3 PUSH4 0xFFFFFFFF AND PUSH1 0xE0 SHL DUP2 MSTORE PUSH1 0x4 ADD PUSH2 0x2E3 SWAP2 SWAP1 PUSH2 0x2416 JUMP JUMPDEST PUSH1 0x20 PUSH1 0x40 MLOAD DUP1 DUP4 SUB DUP2 DUP7 GAS STATICCALL ISZERO DUP1 ISZERO PUSH2 0x2FE JUMPI RETURNDATASIZE PUSH0 DUP1 RETURNDATACOPY RETURNDATASIZE PUSH0 REVERT JUMPDEST POP POP POP POP PUSH1 0x40 MLOAD RETURNDATASIZE PUSH1 0x1F NOT PUSH1 0x1F DUP3 ADD AND DUP3 ADD DUP1 PUSH1 0x40 MSTORE POP DUP2 ADD SWAP1 PUSH2 0x322 SWAP2 SWAP1 PUSH2 0x242F JUMP JUMPDEST DUP3 PUSH1 0xC0 ADD MLOAD PUSH2 0x331 SWAP2 SWAP1 PUSH2 0x2487 JUMP JUMPDEST SWAP1 POP DUP1 CALLVALUE LT ISZERO PUSH2 0x340 DUP3 PUSH2 0x147D JUMP JUMPDEST PUSH2 0x349 CALLVALUE PUSH2 0x147D JUMP JUMPDEST PUSH1 0x40 MLOAD PUSH1 0x20 ADD PUSH2 0x35A SWAP3 SWAP2 SWAP1 PUSH2 0x2606 JUMP JUMPDEST PUSH1 0x40 MLOAD PUSH1 0x20 DUP2 DUP4 SUB SUB DUP2 MSTORE SWAP1 PUSH1 0x40 MSTORE SWAP1 PUSH2 0x3AA JUMPI PUSH1 0x40 MLOAD PUSH32 0x8C379A000000000000000000000000000000000000000000000000000000000 DUP2 MSTORE PUSH1 0x4 ADD PUSH2 0x3A1 SWAP2 SWAP1 PUSH2 0x2682 JUMP JUMPDEST PUSH1 0x40 MLOAD DUP1 SWAP2 SUB SWAP1 REVERT JUMPDEST POP DUP2 PUSH1 0xA0 ADD MLOAD DUP3 PUSH1 0x80 ADD MLOAD GT PUSH2 0x3F5 JUMPI PUSH1 0x40 MLOAD PUSH32 0x8C379A000000000000000000000000000000000000000000000000000000000 DUP2 MSTORE PUSH1 0x4 ADD PUSH2 0x3EC SWAP1 PUSH2 0x26EC JUMP JUMPDEST PUSH1 0x40 MLOAD DUP1 SWAP2 SUB SWAP1 REVERT JUMPDEST PUSH0 TIMESTAMP SWAP1 POP PUSH0 DUP4 PUSH2 0x100 ADD MLOAD TIMESTAMP PUSH2 0x40B SWAP2 SWAP1 PUSH2 0x270A JUMP JUMPDEST SWAP1 POP PUSH2 0x415 PUSH2 0x1852 JUMP JUMPDEST PUSH2 0x41E DUP4 PUSH2 0x1547 JUMP JUMPDEST DUP4 PUSH0 ADD DUP5 PUSH1 0x20 ADD DUP6 PUSH1 0x40 ADD DUP4 DUP2 MSTORE POP DUP4 DUP2 MSTORE POP DUP4 DUP2 MSTORE POP POP POP POP PUSH2 0x440 PUSH2 0x1852 JUMP JUMPDEST PUSH2 0x449 DUP4 PUSH2 0x1547 JUMP JUMPDEST DUP4 PUSH0 ADD DUP5 PUSH1 0x20 ADD DUP6 PUSH1 0x40 ADD DUP4 DUP2 MSTORE POP DUP4 DUP2 MSTORE POP DUP4 DUP2 MSTORE POP POP POP POP PUSH0 PUSH1 0x40 MLOAD DUP1 PUSH1 0xC0 ADD PUSH1 0x40 MSTORE DUP1 DUP9 DUP2 MSTORE PUSH1 0x20 ADD DUP7 DUP2 MSTORE PUSH1 0x20 ADD DUP6 DUP2 MSTORE PUSH1 0x20 ADD DUP5 DUP2 MSTORE PUSH1 0x20 ADD DUP4 DUP2 MSTORE PUSH1 0x20 ADD DUP9 PUSH1 0xC0 ADD MLOAD DUP2 MSTORE POP SWAP1 POP PUSH1 0x3 PUSH0 CALLER PUSH20 0xFFFFFFFFFFFFFFFFFFFFFFFFFFFFFFFFFFFFFFFF AND PUSH20 0xFFFFFFFFFFFFFFFFFFFFFFFFFFFFFFFFFFFFFFFF AND DUP2 MSTORE PUSH1 0x20 ADD SWAP1 DUP2 MSTORE PUSH1 0x20 ADD PUSH0 KECCAK256 DUP2 SWAP1 DUP1 PUSH1 0x1 DUP2 SLOAD ADD DUP1 DUP3 SSTORE DUP1 SWAP2 POP POP PUSH1 0x1 SWAP1 SUB SWAP1 PUSH0 MSTORE PUSH1 0x20 PUSH0 KECCAK256 SWAP1 PUSH1 0x13 MUL ADD PUSH0 SWAP1 SWAP2 SWAP1 SWAP2 SWAP1 SWAP2 POP PUSH0 DUP3 ADD MLOAD DUP2 PUSH0 ADD PUSH0 DUP3 ADD MLOAD DUP2 PUSH0 ADD SSTORE PUSH1 0x20 DUP3 ADD MLOAD DUP2 PUSH1 0x1 ADD SWAP1 DUP2 PUSH2 0x51F SWAP2 SWAP1 PUSH2 0x2937 JUMP JUMPDEST POP PUSH1 0x40 DUP3 ADD MLOAD DUP2 PUSH1 0x2 ADD SWAP1 DUP2 PUSH2 0x535 SWAP2 SWAP1 PUSH2 0x2937 JUMP JUMPDEST POP PUSH1 0x60 DUP3 ADD MLOAD DUP2 PUSH1 0x3 ADD SSTORE PUSH1 0x80 DUP3 ADD MLOAD DUP2 PUSH1 0x4 ADD SSTORE PUSH1 0xA0 DUP3 ADD MLOAD DUP2 PUSH1 0x5 ADD SSTORE PUSH1 0xC0 DUP3 ADD MLOAD DUP2 PUSH1 0x6 ADD SSTORE PUSH1 0xE0 DUP3 ADD MLOAD DUP2 PUSH1 0x7 ADD SSTORE PUSH2 0x100 DUP3 ADD MLOAD DUP2 PUSH1 0x8 ADD SSTORE PUSH2 0x120 DUP3 ADD MLOAD DUP2 PUSH1 0x9 ADD PUSH0 PUSH2 0x100 EXP DUP2 SLOAD DUP2 PUSH20 0xFFFFFFFFFFFFFFFFFFFFFFFFFFFFFFFFFFFFFFFF MUL NOT AND SWAP1 DUP4 PUSH20 0xFFFFFFFFFFFFFFFFFFFFFFFFFFFFFFFFFFFFFFFF AND MUL OR SWAP1 SSTORE POP PUSH2 0x140 DUP3 ADD MLOAD DUP2 PUSH1 0x9 ADD PUSH1 0x14 PUSH2 0x100 EXP DUP2 SLOAD DUP2 PUSH1 0xFF MUL NOT AND SWAP1 DUP4 ISZERO ISZERO MUL OR SWAP1 SSTORE POP POP POP PUSH1 0x20 DUP3 ADD MLOAD DUP2 PUSH1 0xA ADD SSTORE PUSH1 0x40 DUP3 ADD MLOAD DUP2 PUSH1 0xB ADD SSTORE PUSH1 0x60 DUP3 ADD MLOAD DUP2 PUSH1 0xC ADD PUSH0 DUP3 ADD MLOAD DUP2 PUSH0 ADD SSTORE PUSH1 0x20 DUP3 ADD MLOAD DUP2 PUSH1 0x1 ADD SSTORE PUSH1 0x40 DUP3 ADD MLOAD DUP2 PUSH1 0x2 ADD SSTORE POP POP PUSH1 0x80 DUP3 ADD MLOAD DUP2 PUSH1 0xF ADD PUSH0 DUP3 ADD MLOAD DUP2 PUSH0 ADD SSTORE PUSH1 0x20 DUP3 ADD MLOAD DUP2 PUSH1 0x1 ADD SSTORE PUSH1 0x40 DUP3 ADD MLOAD DUP2 PUSH1 0x2 ADD SSTORE POP POP PUSH1 0xA0 DUP3 ADD MLOAD DUP2 PUSH1 0x12 ADD SSTORE POP POP PUSH1 0x1 PUSH0 SWAP1 SLOAD SWAP1 PUSH2 0x100 EXP SWAP1 DIV PUSH20 0xFFFFFFFFFFFFFFFFFFFFFFFFFFFFFFFFFFFFFFFF AND PUSH20 0xFFFFFFFFFFFFFFFFFFFFFFFFFFFFFFFFFFFFFFFF AND PUSH4 0xC6AB3FA DUP10 DUP10 PUSH1 0xC0 ADD MLOAD DUP11 PUSH1 0xA0 ADD MLOAD PUSH2 0x69D SWAP2 SWAP1 PUSH2 0x270A JUMP JUMPDEST PUSH1 0x40 MLOAD DUP4 PUSH4 0xFFFFFFFF AND PUSH1 0xE0 SHL DUP2 MSTORE PUSH1 0x4 ADD PUSH2 0x6BA SWAP3 SWAP2 SWAP1 PUSH2 0x2A06 JUMP JUMPDEST PUSH0 PUSH1 0x40 MLOAD DUP1 DUP4 SUB DUP2 PUSH0 DUP8 DUP1 EXTCODESIZE ISZERO DUP1 ISZERO PUSH2 0x6D1 JUMPI PUSH0 DUP1 REVERT JUMPDEST POP GAS CALL ISZERO DUP1 ISZERO PUSH2 0x6E3 JUMPI RETURNDATASIZE PUSH0 DUP1 RETURNDATACOPY RETURNDATASIZE PUSH0 REVERT JUMPDEST POP POP POP POP DUP7 PUSH1 0xC0 ADD MLOAD DUP8 PUSH1 0xA0 ADD MLOAD DUP9 PUSH1 0x80 ADD MLOAD PUSH2 0x700 SWAP2 SWAP1 PUSH2 0x2A2D JUMP JUMPDEST LT ISZERO PUSH2 0x710 JUMPI PUSH2 0x70F DUP9 PUSH2 0x1579 JUMP JUMPDEST JUMPDEST POP POP POP POP POP POP POP POP JUMP JUMPDEST PUSH1 0x60 PUSH0 PUSH1 0x1 PUSH0 SWAP1 SLOAD SWAP1 PUSH2 0x100 EXP SWAP1 DIV PUSH20 0xFFFFFFFFFFFFFFFFFFFFFFFFFFFFFFFFFFFFFFFF AND PUSH20 0xFFFFFFFFFFFFFFFFFFFFFFFFFFFFFFFFFFFFFFFF AND PUSH4 0xDE54D429 PUSH1 0x40 MLOAD DUP2 PUSH4 0xFFFFFFFF AND PUSH1 0xE0 SHL DUP2 MSTORE PUSH1 0x4 ADD PUSH1 0x20 PUSH1 0x40 MLOAD DUP1 DUP4 SUB DUP2 DUP7 GAS STATICCALL ISZERO DUP1 ISZERO PUSH2 0x787 JUMPI RETURNDATASIZE PUSH0 DUP1 RETURNDATACOPY RETURNDATASIZE PUSH0 REVERT JUMPDEST POP POP POP POP PUSH1 0x40 MLOAD RETURNDATASIZE PUSH1 0x1F NOT PUSH1 0x1F DUP3 ADD AND DUP3 ADD DUP1 PUSH1 0x40 MSTORE POP DUP2 ADD SWAP1 PUSH2 0x7AB SWAP2 SWAP1 PUSH2 0x242F JUMP JUMPDEST SWAP1 POP PUSH0 DUP1 PUSH1 0x1 SWAP1 POP JUMPDEST DUP3 DUP2 GT PUSH2 0x888 JUMPI PUSH0 PUSH1 0x1 PUSH0 SWAP1 SLOAD SWAP1 PUSH2 0x100 EXP SWAP1 DIV PUSH20 0xFFFFFFFFFFFFFFFFFFFFFFFFFFFFFFFFFFFFFFFF AND PUSH20 0xFFFFFFFFFFFFFFFFFFFFFFFFFFFFFFFFFFFFFFFF AND PUSH4 0x2B07FCE3 DUP4 PUSH1 0x40 MLOAD DUP3 PUSH4 0xFFFFFFFF AND PUSH1 0xE0 SHL DUP2 MSTORE PUSH1 0x4 ADD PUSH2 0x816 SWAP2 SWAP1 PUSH2 0x1FE8 JUMP JUMPDEST PUSH0 PUSH1 0x40 MLOAD DUP1 DUP4 SUB DUP2 DUP7 GAS STATICCALL ISZERO DUP1 ISZERO PUSH2 0x830 JUMPI RETURNDATASIZE PUSH0 DUP1 RETURNDATACOPY RETURNDATASIZE PUSH0 REVERT JUMPDEST POP POP POP POP PUSH1 0x40 MLOAD RETURNDATASIZE PUSH0 DUP3 RETURNDATACOPY RETURNDATASIZE PUSH1 0x1F NOT PUSH1 0x1F DUP3 ADD AND DUP3 ADD DUP1 PUSH1 0x40 MSTORE POP DUP2 ADD SWAP1 PUSH2 0x858 SWAP2 SWAP1 PUSH2 0x22BA JUMP JUMPDEST SWAP1 POP DUP1 PUSH2 0x140 ADD MLOAD ISZERO PUSH2 0x874 JUMPI DUP3 DUP1 PUSH2 0x870 SWAP1 PUSH2 0x2A60 JUMP JUMPDEST SWAP4 POP POP JUMPDEST POP DUP1 DUP1 PUSH2 0x880 SWAP1 PUSH2 0x2A60 JUMP JUMPDEST SWAP2 POP POP PUSH2 0x7B4 JUMP JUMPDEST POP PUSH0 DUP2 GT PUSH2 0x8CB JUMPI PUSH1 0x40 MLOAD PUSH32 0x8C379A000000000000000000000000000000000000000000000000000000000 DUP2 MSTORE PUSH1 0x4 ADD PUSH2 0x8C2 SWAP1 PUSH2 0x2B17 JUMP JUMPDEST PUSH1 0x40 MLOAD DUP1 SWAP2 SUB SWAP1 REVERT JUMPDEST PUSH0 DUP2 PUSH8 0xFFFFFFFFFFFFFFFF DUP2 GT ISZERO PUSH2 0x8E6 JUMPI PUSH2 0x8E5 PUSH2 0x2005 JUMP JUMPDEST JUMPDEST PUSH1 0x40 MLOAD SWAP1 DUP1 DUP3 MSTORE DUP1 PUSH1 0x20 MUL PUSH1 0x20 ADD DUP3 ADD PUSH1 0x40 MSTORE DUP1 ISZERO PUSH2 0x91F JUMPI DUP2 PUSH1 0x20 ADD JUMPDEST PUSH2 0x90C PUSH2 0x1870 JUMP JUMPDEST DUP2 MSTORE PUSH1 0x20 ADD SWAP1 PUSH1 0x1 SWAP1 SUB SWAP1 DUP2 PUSH2 0x904 JUMPI SWAP1 POP JUMPDEST POP SWAP1 POP PUSH0 DUP1 PUSH1 0x1 SWAP1 POP JUMPDEST DUP5 DUP2 GT PUSH2 0xAAD JUMPI PUSH0 PUSH1 0x1 PUSH0 SWAP1 SLOAD SWAP1 PUSH2 0x100 EXP SWAP1 DIV PUSH20 0xFFFFFFFFFFFFFFFFFFFFFFFFFFFFFFFFFFFFFFFF AND PUSH20 0xFFFFFFFFFFFFFFFFFFFFFFFFFFFFFFFFFFFFFFFF AND PUSH4 0x2B07FCE3 DUP4 PUSH1 0x40 MLOAD DUP3 PUSH4 0xFFFFFFFF AND PUSH1 0xE0 SHL DUP2 MSTORE PUSH1 0x4 ADD PUSH2 0x98B SWAP2 SWAP1 PUSH2 0x1FE8 JUMP JUMPDEST PUSH0 PUSH1 0x40 MLOAD DUP1 DUP4 SUB DUP2 DUP7 GAS STATICCALL ISZERO DUP1 ISZERO PUSH2 0x9A5 JUMPI RETURNDATASIZE PUSH0 DUP1 RETURNDATACOPY RETURNDATASIZE PUSH0 REVERT JUMPDEST POP POP POP POP PUSH1 0x40 MLOAD RETURNDATASIZE PUSH0 DUP3 RETURNDATACOPY RETURNDATASIZE PUSH1 0x1F NOT PUSH1 0x1F DUP3 ADD AND DUP3 ADD DUP1 PUSH1 0x40 MSTORE POP DUP2 ADD SWAP1 PUSH2 0x9CD SWAP2 SWAP1 PUSH2 0x22BA JUMP JUMPDEST SWAP1 POP DUP1 PUSH2 0x140 ADD MLOAD ISZERO PUSH2 0xA99 JUMPI PUSH1 0x40 MLOAD DUP1 PUSH2 0x160 ADD PUSH1 0x40 MSTORE DUP1 DUP3 PUSH0 ADD MLOAD DUP2 MSTORE PUSH1 0x20 ADD DUP3 PUSH1 0x20 ADD MLOAD DUP2 MSTORE PUSH1 0x20 ADD DUP3 PUSH1 0x40 ADD MLOAD DUP2 MSTORE PUSH1 0x20 ADD DUP3 PUSH1 0x60 ADD MLOAD DUP2 MSTORE PUSH1 0x20 ADD DUP3 PUSH1 0x80 ADD MLOAD DUP2 MSTORE PUSH1 0x20 ADD DUP3 PUSH1 0xA0 ADD MLOAD DUP2 MSTORE PUSH1 0x20 ADD DUP3 PUSH1 0xC0 ADD MLOAD DUP2 MSTORE PUSH1 0x20 ADD DUP3 PUSH1 0xE0 ADD MLOAD DUP2 MSTORE PUSH1 0x20 ADD DUP3 PUSH2 0x100 ADD MLOAD DUP2 MSTORE PUSH1 0x20 ADD DUP3 PUSH2 0x120 ADD MLOAD PUSH20 0xFFFFFFFFFFFFFFFFFFFFFFFFFFFFFFFFFFFFFFFF AND DUP2 MSTORE PUSH1 0x20 ADD DUP3 PUSH2 0x140 ADD MLOAD ISZERO ISZERO DUP2 MSTORE POP DUP5 DUP5 DUP2 MLOAD DUP2 LT PUSH2 0xA7F JUMPI PUSH2 0xA7E PUSH2 0x2B35 JUMP JUMPDEST JUMPDEST PUSH1 0x20 MUL PUSH1 0x20 ADD ADD DUP2 SWAP1 MSTORE POP DUP3 DUP1 PUSH2 0xA95 SWAP1 PUSH2 0x2A60 JUMP JUMPDEST SWAP4 POP POP JUMPDEST POP DUP1 DUP1 PUSH2 0xAA5 SWAP1 PUSH2 0x2A60 JUMP JUMPDEST SWAP2 POP POP PUSH2 0x929 JUMP JUMPDEST POP DUP2 SWAP5 POP POP POP POP POP SWAP1 JUMP JUMPDEST DUP1 PUSH0 PUSH1 0x1 PUSH0 SWAP1 SLOAD SWAP1 PUSH2 0x100 EXP SWAP1 DIV PUSH20 0xFFFFFFFFFFFFFFFFFFFFFFFFFFFFFFFFFFFFFFFF AND PUSH20 0xFFFFFFFFFFFFFFFFFFFFFFFFFFFFFFFFFFFFFFFF AND PUSH4 0x2B07FCE3 DUP4 PUSH1 0x40 MLOAD DUP3 PUSH4 0xFFFFFFFF AND PUSH1 0xE0 SHL DUP2 MSTORE PUSH1 0x4 ADD PUSH2 0xB14 SWAP2 SWAP1 PUSH2 0x1FE8 JUMP JUMPDEST PUSH0 PUSH1 0x40 MLOAD DUP1 DUP4 SUB DUP2 DUP7 GAS STATICCALL ISZERO DUP1 ISZERO PUSH2 0xB2E JUMPI RETURNDATASIZE PUSH0 DUP1 RETURNDATACOPY RETURNDATASIZE PUSH0 REVERT JUMPDEST POP POP POP POP PUSH1 0x40 MLOAD RETURNDATASIZE PUSH0 DUP3 RETURNDATACOPY RETURNDATASIZE PUSH1 0x1F NOT PUSH1 0x1F DUP3 ADD AND DUP3 ADD DUP1 PUSH1 0x40 MSTORE POP DUP2 ADD SWAP1 PUSH2 0xB56 SWAP2 SWAP1 PUSH2 0x22BA JUMP JUMPDEST SWAP1 POP DUP1 PUSH2 0x120 ADD MLOAD PUSH20 0xFFFFFFFFFFFFFFFFFFFFFFFFFFFFFFFFFFFFFFFF AND CALLER PUSH20 0xFFFFFFFFFFFFFFFFFFFFFFFFFFFFFFFFFFFFFFFF AND EQ PUSH2 0xBCB JUMPI PUSH1 0x40 MLOAD PUSH32 0x8C379A000000000000000000000000000000000000000000000000000000000 DUP2 MSTORE PUSH1 0x4 ADD PUSH2 0xBC2 SWAP1 PUSH2 0x2BAC JUMP JUMPDEST PUSH1 0x40 MLOAD DUP1 SWAP2 SUB SWAP1 REVERT JUMPDEST PUSH0 PUSH1 0x1 PUSH0 SWAP1 SLOAD SWAP1 PUSH2 0x100 EXP SWAP1 DIV PUSH20 0xFFFFFFFFFFFFFFFFFFFFFFFFFFFFFFFFFFFFFFFF AND PUSH20 0xFFFFFFFFFFFFFFFFFFFFFFFFFFFFFFFFFFFFFFFF AND PUSH4 0x2B07FCE3 DUP6 PUSH1 0x40 MLOAD DUP3 PUSH4 0xFFFFFFFF AND PUSH1 0xE0 SHL DUP2 MSTORE PUSH1 0x4 ADD PUSH2 0xC26 SWAP2 SWAP1 PUSH2 0x1FE8 JUMP JUMPDEST PUSH0 PUSH1 0x40 MLOAD DUP1 DUP4 SUB DUP2 DUP7 GAS STATICCALL ISZERO DUP1 ISZERO PUSH2 0xC40 JUMPI RETURNDATASIZE PUSH0 DUP1 RETURNDATACOPY RETURNDATASIZE PUSH0 REVERT JUMPDEST POP POP POP POP PUSH1 0x40 MLOAD RETURNDATASIZE PUSH0 DUP3 RETURNDATACOPY RETURNDATASIZE PUSH1 0x1F NOT PUSH1 0x1F DUP3 ADD AND DUP3 ADD DUP1 PUSH1 0x40 MSTORE POP DUP2 ADD SWAP1 PUSH2 0xC68 SWAP2 SWAP1 PUSH2 0x22BA JUMP JUMPDEST SWAP1 POP PUSH0 DUP1 SLOAD SWAP1 PUSH2 0x100 EXP SWAP1 DIV PUSH20 0xFFFFFFFFFFFFFFFFFFFFFFFFFFFFFFFFFFFFFFFF AND PUSH20 0xFFFFFFFFFFFFFFFFFFFFFFFFFFFFFFFFFFFFFFFF AND PUSH4 0x95EA7B3 ADDRESS DUP4 PUSH1 0x80 ADD MLOAD PUSH1 0x40 MLOAD DUP4 PUSH4 0xFFFFFFFF AND PUSH1 0xE0 SHL DUP2 MSTORE PUSH1 0x4 ADD PUSH2 0xCC8 SWAP3 SWAP2 SWAP1 PUSH2 0x2BCA JUMP JUMPDEST PUSH1 0x20 PUSH1 0x40 MLOAD DUP1 DUP4 SUB DUP2 PUSH0 DUP8 GAS CALL ISZERO DUP1 ISZERO PUSH2 0xCE4 JUMPI RETURNDATASIZE PUSH0 DUP1 RETURNDATACOPY RETURNDATASIZE PUSH0 REVERT JUMPDEST POP POP POP POP PUSH1 0x40 MLOAD RETURNDATASIZE PUSH1 0x1F NOT PUSH1 0x1F DUP3 ADD AND DUP3 ADD DUP1 PUSH1 0x40 MSTORE POP DUP2 ADD SWAP1 PUSH2 0xD08 SWAP2 SWAP1 PUSH2 0x2BF1 JUMP JUMPDEST POP PUSH1 0x1 PUSH0 SWAP1 SLOAD SWAP1 PUSH2 0x100 EXP SWAP1 DIV PUSH20 0xFFFFFFFFFFFFFFFFFFFFFFFFFFFFFFFFFFFFFFFF AND PUSH20 0xFFFFFFFFFFFFFFFFFFFFFFFFFFFFFFFFFFFFFFFF AND PUSH4 0x5B2A3646 DUP6 PUSH1 0x40 MLOAD DUP3 PUSH4 0xFFFFFFFF AND PUSH1 0xE0 SHL DUP2 MSTORE PUSH1 0x4 ADD PUSH2 0xD63 SWAP2 SWAP1 PUSH2 0x1FE8 JUMP JUMPDEST PUSH0 PUSH1 0x40 MLOAD DUP1 DUP4 SUB DUP2 PUSH0 DUP8 DUP1 EXTCODESIZE ISZERO DUP1 ISZERO PUSH2 0xD7A JUMPI PUSH0 DUP1 REVERT JUMPDEST POP GAS CALL ISZERO DUP1 ISZERO PUSH2 0xD8C JUMPI RETURNDATASIZE PUSH0 DUP1 RETURNDATACOPY RETURNDATASIZE PUSH0 REVERT JUMPDEST POP POP POP POP POP POP POP POP JUMP JUMPDEST PUSH1 0x60 PUSH0 PUSH1 0x3 PUSH0 CALLER PUSH20 0xFFFFFFFFFFFFFFFFFFFFFFFFFFFFFFFFFFFFFFFF AND PUSH20 0xFFFFFFFFFFFFFFFFFFFFFFFFFFFFFFFFFFFFFFFF AND DUP2 MSTORE PUSH1 0x20 ADD SWAP1 DUP2 MSTORE PUSH1 0x20 ADD PUSH0 KECCAK256 DUP1 SLOAD SWAP1 POP GT PUSH2 0xE1A JUMPI PUSH1 0x40 MLOAD PUSH32 0x8C379A000000000000000000000000000000000000000000000000000000000 DUP2 MSTORE PUSH1 0x4 ADD PUSH2 0xE11 SWAP1 PUSH2 0x2C66 JUMP JUMPDEST PUSH1 0x40 MLOAD DUP1 SWAP2 SUB SWAP1 REVERT JUMPDEST PUSH0 PUSH1 0x3 PUSH0 CALLER PUSH20 0xFFFFFFFFFFFFFFFFFFFFFFFFFFFFFFFFFFFFFFFF AND PUSH20 0xFFFFFFFFFFFFFFFFFFFFFFFFFFFFFFFFFFFFFFFF AND DUP2 MSTORE PUSH1 0x20 ADD SWAP1 DUP2 MSTORE PUSH1 0x20 ADD PUSH0 KECCAK256 DUP1 SLOAD SWAP1 POP PUSH8 0xFFFFFFFFFFFFFFFF DUP2 GT ISZERO PUSH2 0xE75 JUMPI PUSH2 0xE74 PUSH2 0x2005 JUMP JUMPDEST JUMPDEST PUSH1 0x40 MLOAD SWAP1 DUP1 DUP3 MSTORE DUP1 PUSH1 0x20 MUL PUSH1 0x20 ADD DUP3 ADD PUSH1 0x40 MSTORE DUP1 ISZERO PUSH2 0xEAE JUMPI DUP2 PUSH1 0x20 ADD JUMPDEST PUSH2 0xE9B PUSH2 0x18D9 JUMP JUMPDEST DUP2 MSTORE PUSH1 0x20 ADD SWAP1 PUSH1 0x1 SWAP1 SUB SWAP1 DUP2 PUSH2 0xE93 JUMPI SWAP1 POP JUMPDEST POP SWAP1 POP PUSH0 JUMPDEST PUSH1 0x3 PUSH0 CALLER PUSH20 0xFFFFFFFFFFFFFFFFFFFFFFFFFFFFFFFFFFFFFFFF AND PUSH20 0xFFFFFFFFFFFFFFFFFFFFFFFFFFFFFFFFFFFFFFFF AND DUP2 MSTORE PUSH1 0x20 ADD SWAP1 DUP2 MSTORE PUSH1 0x20 ADD PUSH0 KECCAK256 DUP1 SLOAD SWAP1 POP DUP2 LT ISZERO PUSH2 0x11F5 JUMPI PUSH1 0x3 PUSH0 CALLER PUSH20 0xFFFFFFFFFFFFFFFFFFFFFFFFFFFFFFFFFFFFFFFF AND PUSH20 0xFFFFFFFFFFFFFFFFFFFFFFFFFFFFFFFFFFFFFFFF AND DUP2 MSTORE PUSH1 0x20 ADD SWAP1 DUP2 MSTORE PUSH1 0x20 ADD PUSH0 KECCAK256 DUP2 DUP2 SLOAD DUP2 LT PUSH2 0xF4A JUMPI PUSH2 0xF49 PUSH2 0x2B35 JUMP JUMPDEST JUMPDEST SWAP1 PUSH0 MSTORE PUSH1 0x20 PUSH0 KECCAK256 SWAP1 PUSH1 0x13 MUL ADD PUSH1 0x40 MLOAD DUP1 PUSH1 0xC0 ADD PUSH1 0x40 MSTORE SWAP1 DUP2 PUSH0 DUP3 ADD PUSH1 0x40 MLOAD DUP1 PUSH2 0x160 ADD PUSH1 0x40 MSTORE SWAP1 DUP2 PUSH0 DUP3 ADD SLOAD DUP2 MSTORE PUSH1 0x20 ADD PUSH1 0x1 DUP3 ADD DUP1 SLOAD PUSH2 0xF8A SWAP1 PUSH2 0x276A JUMP JUMPDEST DUP1 PUSH1 0x1F ADD PUSH1 0x20 DUP1 SWAP2 DIV MUL PUSH1 0x20 ADD PUSH1 0x40 MLOAD SWAP1 DUP2 ADD PUSH1 0x40 MSTORE DUP1 SWAP3 SWAP2 SWAP1 DUP2 DUP2 MSTORE PUSH1 0x20 ADD DUP3 DUP1 SLOAD PUSH2 0xFB6 SWAP1 PUSH2 0x276A JUMP JUMPDEST DUP1 ISZERO PUSH2 0x1001 JUMPI DUP1 PUSH1 0x1F LT PUSH2 0xFD8 JUMPI PUSH2 0x100 DUP1 DUP4 SLOAD DIV MUL DUP4 MSTORE SWAP2 PUSH1 0x20 ADD SWAP2 PUSH2 0x1001 JUMP JUMPDEST DUP3 ADD SWAP2 SWAP1 PUSH0 MSTORE PUSH1 0x20 PUSH0 KECCAK256 SWAP1 JUMPDEST DUP2 SLOAD DUP2 MSTORE SWAP1 PUSH1 0x1 ADD SWAP1 PUSH1 0x20 ADD DUP1 DUP4 GT PUSH2 0xFE4 JUMPI DUP3 SWAP1 SUB PUSH1 0x1F AND DUP3 ADD SWAP2 JUMPDEST POP POP POP POP POP DUP2 MSTORE PUSH1 0x20 ADD PUSH1 0x2 DUP3 ADD DUP1 SLOAD PUSH2 0x101A SWAP1 PUSH2 0x276A JUMP JUMPDEST DUP1 PUSH1 0x1F ADD PUSH1 0x20 DUP1 SWAP2 DIV MUL PUSH1 0x20 ADD PUSH1 0x40 MLOAD SWAP1 DUP2 ADD PUSH1 0x40 MSTORE DUP1 SWAP3 SWAP2 SWAP1 DUP2 DUP2 MSTORE PUSH1 0x20 ADD DUP3 DUP1 SLOAD PUSH2 0x1046 SWAP1 PUSH2 0x276A JUMP JUMPDEST DUP1 ISZERO PUSH2 0x1091 JUMPI DUP1 PUSH1 0x1F LT PUSH2 0x1068 JUMPI PUSH2 0x100 DUP1 DUP4 SLOAD DIV MUL DUP4 MSTORE SWAP2 PUSH1 0x20 ADD SWAP2 PUSH2 0x1091 JUMP JUMPDEST DUP3 ADD SWAP2 SWAP1 PUSH0 MSTORE PUSH1 0x20 PUSH0 KECCAK256 SWAP1 JUMPDEST DUP2 SLOAD DUP2 MSTORE SWAP1 PUSH1 0x1 ADD SWAP1 PUSH1 0x20 ADD DUP1 DUP4 GT PUSH2 0x1074 JUMPI DUP3 SWAP1 SUB PUSH1 0x1F AND DUP3 ADD SWAP2 JUMPDEST POP POP POP POP POP DUP2 MSTORE PUSH1 0x20 ADD PUSH1 0x3 DUP3 ADD SLOAD DUP2 MSTORE PUSH1 0x20 ADD PUSH1 0x4 DUP3 ADD SLOAD DUP2 MSTORE PUSH1 0x20 ADD PUSH1 0x5 DUP3 ADD SLOAD DUP2 MSTORE PUSH1 0x20 ADD PUSH1 0x6 DUP3 ADD SLOAD DUP2 MSTORE PUSH1 0x20 ADD PUSH1 0x7 DUP3 ADD SLOAD DUP2 MSTORE PUSH1 0x20 ADD PUSH1 0x8 DUP3 ADD SLOAD DUP2 MSTORE PUSH1 0x20 ADD PUSH1 0x9 DUP3 ADD PUSH0 SWAP1 SLOAD SWAP1 PUSH2 0x100 EXP SWAP1 DIV PUSH20 0xFFFFFFFFFFFFFFFFFFFFFFFFFFFFFFFFFFFFFFFF AND PUSH20 0xFFFFFFFFFFFFFFFFFFFFFFFFFFFFFFFFFFFFFFFF AND PUSH20 0xFFFFFFFFFFFFFFFFFFFFFFFFFFFFFFFFFFFFFFFF AND DUP2 MSTORE PUSH1 0x20 ADD PUSH1 0x9 DUP3 ADD PUSH1 0x14 SWAP1 SLOAD SWAP1 PUSH2 0x100 EXP SWAP1 DIV PUSH1 0xFF AND ISZERO ISZERO ISZERO ISZERO DUP2 MSTORE POP POP DUP2 MSTORE PUSH1 0x20 ADD PUSH1 0xA DUP3 ADD SLOAD DUP2 MSTORE PUSH1 0x20 ADD PUSH1 0xB DUP3 ADD SLOAD DUP2 MSTORE PUSH1 0x20 ADD PUSH1 0xC DUP3 ADD PUSH1 0x40 MLOAD DUP1 PUSH1 0x60 ADD PUSH1 0x40 MSTORE SWAP1 DUP2 PUSH0 DUP3 ADD SLOAD DUP2 MSTORE PUSH1 0x20 ADD PUSH1 0x1 DUP3 ADD SLOAD DUP2 MSTORE PUSH1 0x20 ADD PUSH1 0x2 DUP3 ADD SLOAD DUP2 MSTORE POP POP DUP2 MSTORE PUSH1 0x20 ADD PUSH1 0xF DUP3 ADD PUSH1 0x40 MLOAD DUP1 PUSH1 0x60 ADD PUSH1 0x40 MSTORE SWAP1 DUP2 PUSH0 DUP3 ADD SLOAD DUP2 MSTORE PUSH1 0x20 ADD PUSH1 0x1 DUP3 ADD SLOAD DUP2 MSTORE PUSH1 0x20 ADD PUSH1 0x2 DUP3 ADD SLOAD DUP2 MSTORE POP POP DUP2 MSTORE PUSH1 0x20 ADD PUSH1 0x12 DUP3 ADD SLOAD DUP2 MSTORE POP POP DUP3 DUP3 DUP2 MLOAD DUP2 LT PUSH2 0x11DD JUMPI PUSH2 0x11DC PUSH2 0x2B35 JUMP JUMPDEST JUMPDEST PUSH1 0x20 MUL PUSH1 0x20 ADD ADD DUP2 SWAP1 MSTORE POP DUP1 DUP1 PUSH1 0x1 ADD SWAP2 POP POP PUSH2 0xEB3 JUMP JUMPDEST POP DUP1 SWAP2 POP POP SWAP1 JUMP JUMPDEST PUSH1 0x3 PUSH1 0x20 MSTORE DUP2 PUSH0 MSTORE PUSH1 0x40 PUSH0 KECCAK256 DUP2 DUP2 SLOAD DUP2 LT PUSH2 0x1216 JUMPI PUSH0 DUP1 REVERT JUMPDEST SWAP1 PUSH0 MSTORE PUSH1 0x20 PUSH0 KECCAK256 SWAP1 PUSH1 0x13 MUL ADD PUSH0 SWAP2 POP SWAP2 POP POP DUP1 PUSH0 ADD PUSH1 0x40 MLOAD DUP1 PUSH2 0x160 ADD PUSH1 0x40 MSTORE SWAP1 DUP2 PUSH0 DUP3 ADD SLOAD DUP2 MSTORE PUSH1 0x20 ADD PUSH1 0x1 DUP3 ADD DUP1 SLOAD PUSH2 0x1250 SWAP1 PUSH2 0x276A JUMP JUMPDEST DUP1 PUSH1 0x1F ADD PUSH1 0x20 DUP1 SWAP2 DIV MUL PUSH1 0x20 ADD PUSH1 0x40 MLOAD SWAP1 DUP2 ADD PUSH1 0x40 MSTORE DUP1 SWAP3 SWAP2 SWAP1 DUP2 DUP2 MSTORE PUSH1 0x20 ADD DUP3 DUP1 SLOAD PUSH2 0x127C SWAP1 PUSH2 0x276A JUMP JUMPDEST DUP1 ISZERO PUSH2 0x12C7 JUMPI DUP1 PUSH1 0x1F LT PUSH2 0x129E JUMPI PUSH2 0x100 DUP1 DUP4 SLOAD DIV MUL DUP4 MSTORE SWAP2 PUSH1 0x20 ADD SWAP2 PUSH2 0x12C7 JUMP JUMPDEST DUP3 ADD SWAP2 SWAP1 PUSH0 MSTORE PUSH1 0x20 PUSH0 KECCAK256 SWAP1 JUMPDEST DUP2 SLOAD DUP2 MSTORE SWAP1 PUSH1 0x1 ADD SWAP1 PUSH1 0x20 ADD DUP1 DUP4 GT PUSH2 0x12AA JUMPI DUP3 SWAP1 SUB PUSH1 0x1F AND DUP3 ADD SWAP2 JUMPDEST POP POP POP POP POP DUP2 MSTORE PUSH1 0x20 ADD PUSH1 0x2 DUP3 ADD DUP1 SLOAD PUSH2 0x12E0 SWAP1 PUSH2 0x276A JUMP JUMPDEST DUP1 PUSH1 0x1F ADD PUSH1 0x20 DUP1 SWAP2 DIV MUL PUSH1 0x20 ADD PUSH1 0x40 MLOAD SWAP1 DUP2 ADD PUSH1 0x40 MSTORE DUP1 SWAP3 SWAP2 SWAP1 DUP2 DUP2 MSTORE PUSH1 0x20 ADD DUP3 DUP1 SLOAD PUSH2 0x130C SWAP1 PUSH2 0x276A JUMP JUMPDEST DUP1 ISZERO PUSH2 0x1357 JUMPI DUP1 PUSH1 0x1F LT PUSH2 0x132E JUMPI PUSH2 0x100 DUP1 DUP4 SLOAD DIV MUL DUP4 MSTORE SWAP2 PUSH1 0x20 ADD SWAP2 PUSH2 0x1357 JUMP JUMPDEST DUP3 ADD SWAP2 SWAP1 PUSH0 MSTORE PUSH1 0x20 PUSH0 KECCAK256 SWAP1 JUMPDEST DUP2 SLOAD DUP2 MSTORE SWAP1 PUSH1 0x1 ADD SWAP1 PUSH1 0x20 ADD DUP1 DUP4 GT PUSH2 0x133A JUMPI DUP3 SWAP1 SUB PUSH1 0x1F AND DUP3 ADD SWAP2 JUMPDEST POP POP POP POP POP DUP2 MSTORE PUSH1 0x20 ADD PUSH1 0x3 DUP3 ADD SLOAD DUP2 MSTORE PUSH1 0x20 ADD PUSH1 0x4 DUP3 ADD SLOAD DUP2 MSTORE PUSH1 0x20 ADD PUSH1 0x5 DUP3 ADD SLOAD DUP2 MSTORE PUSH1 0x20 ADD PUSH1 0x6 DUP3 ADD SLOAD DUP2 MSTORE PUSH1 0x20 ADD PUSH1 0x7 DUP3 ADD SLOAD DUP2 MSTORE PUSH1 0x20 ADD PUSH1 0x8 DUP3 ADD SLOAD DUP2 MSTORE PUSH1 0x20 ADD PUSH1 0x9 DUP3 ADD PUSH0 SWAP1 SLOAD SWAP1 PUSH2 0x100 EXP SWAP1 DIV PUSH20 0xFFFFFFFFFFFFFFFFFFFFFFFFFFFFFFFFFFFFFFFF AND PUSH20 0xFFFFFFFFFFFFFFFFFFFFFFFFFFFFFFFFFFFFFFFF AND PUSH20 0xFFFFFFFFFFFFFFFFFFFFFFFFFFFFFFFFFFFFFFFF AND DUP2 MSTORE PUSH1 0x20 ADD PUSH1 0x9 DUP3 ADD PUSH1 0x14 SWAP1 SLOAD SWAP1 PUSH2 0x100 EXP SWAP1 DIV PUSH1 0xFF AND ISZERO ISZERO ISZERO ISZERO DUP2 MSTORE POP POP SWAP1 DUP1 PUSH1 0xA ADD SLOAD SWAP1 DUP1 PUSH1 0xB ADD SLOAD SWAP1 DUP1 PUSH1 0xC ADD PUSH1 0x40 MLOAD DUP1 PUSH1 0x60 ADD PUSH1 0x40 MSTORE SWAP1 DUP2 PUSH0 DUP3 ADD SLOAD DUP2 MSTORE PUSH1 0x20 ADD PUSH1 0x1 DUP3 ADD SLOAD DUP2 MSTORE PUSH1 0x20 ADD PUSH1 0x2 DUP3 ADD SLOAD DUP2 MSTORE POP POP SWAP1 DUP1 PUSH1 0xF ADD PUSH1 0x40 MLOAD DUP1 PUSH1 0x60 ADD PUSH1 0x40 MSTORE SWAP1 DUP2 PUSH0 DUP3 ADD SLOAD DUP2 MSTORE PUSH1 0x20 ADD PUSH1 0x1 DUP3 ADD SLOAD DUP2 MSTORE PUSH1 0x20 ADD PUSH1 0x2 DUP3 ADD SLOAD DUP2 MSTORE POP POP SWAP1 DUP1 PUSH1 0x12 ADD SLOAD SWAP1 POP DUP7 JUMP JUMPDEST PUSH1 0x60 PUSH0 PUSH1 0x1 PUSH2 0x148B DUP5 PUSH2 0x1603 JUMP JUMPDEST ADD SWAP1 POP PUSH0 DUP2 PUSH8 0xFFFFFFFFFFFFFFFF DUP2 GT ISZERO PUSH2 0x14A9 JUMPI PUSH2 0x14A8 PUSH2 0x2005 JUMP JUMPDEST JUMPDEST PUSH1 0x40 MLOAD SWAP1 DUP1 DUP3 MSTORE DUP1 PUSH1 0x1F ADD PUSH1 0x1F NOT AND PUSH1 0x20 ADD DUP3 ADD PUSH1 0x40 MSTORE DUP1 ISZERO PUSH2 0x14DB JUMPI DUP2 PUSH1 0x20 ADD PUSH1 0x1 DUP3 MUL DUP1 CALLDATASIZE DUP4 CALLDATACOPY DUP1 DUP3 ADD SWAP2 POP POP SWAP1 POP JUMPDEST POP SWAP1 POP PUSH0 DUP3 PUSH1 0x20 ADD DUP3 ADD SWAP1 POP JUMPDEST PUSH1 0x1 ISZERO PUSH2 0x153C JUMPI DUP1 DUP1 PUSH1 0x1 SWAP1 SUB SWAP2 POP POP PUSH32 0x3031323334353637383961626364656600000000000000000000000000000000 PUSH1 0xA DUP7 MOD BYTE DUP2 MSTORE8 PUSH1 0xA DUP6 DUP2 PUSH2 0x1531 JUMPI PUSH2 0x1530 PUSH2 0x2C84 JUMP JUMPDEST JUMPDEST DIV SWAP5 POP PUSH0 DUP6 SUB PUSH2 0x14E8 JUMPI JUMPDEST DUP2 SWAP4 POP POP POP POP SWAP2 SWAP1 POP JUMP JUMPDEST PUSH0 DUP1 PUSH0 PUSH2 0x1566 PUSH3 0x15180 DUP6 DUP2 PUSH2 0x1560 JUMPI PUSH2 0x155F PUSH2 0x2C84 JUMP JUMPDEST JUMPDEST DIV PUSH2 0x1754 JUMP JUMPDEST DUP1 SWAP4 POP DUP2 SWAP5 POP DUP3 SWAP6 POP POP POP POP SWAP2 SWAP4 SWAP1 SWAP3 POP JUMP JUMPDEST PUSH1 0x1 PUSH0 SWAP1 SLOAD SWAP1 PUSH2 0x100 EXP SWAP1 DIV PUSH20 0xFFFFFFFFFFFFFFFFFFFFFFFFFFFFFFFFFFFFFFFF AND PUSH20 0xFFFFFFFFFFFFFFFFFFFFFFFFFFFFFFFFFFFFFFFF AND PUSH4 0x22191F72 DUP3 PUSH1 0x40 MLOAD DUP3 PUSH4 0xFFFFFFFF AND PUSH1 0xE0 SHL DUP2 MSTORE PUSH1 0x4 ADD PUSH2 0x15D3 SWAP2 SWAP1 PUSH2 0x1FE8 JUMP JUMPDEST PUSH0 PUSH1 0x40 MLOAD DUP1 DUP4 SUB DUP2 PUSH0 DUP8 DUP1 EXTCODESIZE ISZERO DUP1 ISZERO PUSH2 0x15EA JUMPI PUSH0 DUP1 REVERT JUMPDEST POP GAS CALL ISZERO DUP1 ISZERO PUSH2 0x15FC JUMPI RETURNDATASIZE PUSH0 DUP1 RETURNDATACOPY RETURNDATASIZE PUSH0 REVERT JUMPDEST POP POP POP POP POP JUMP JUMPDEST PUSH0 DUP1 PUSH0 SWAP1 POP PUSH27 0x184F03E93FF9F4DAA797ED6E38ED64BF6A1F010000000000000000 DUP4 LT PUSH2 0x165F JUMPI PUSH27 0x184F03E93FF9F4DAA797ED6E38ED64BF6A1F010000000000000000 DUP4 DUP2 PUSH2 0x1655 JUMPI PUSH2 0x1654 PUSH2 0x2C84 JUMP JUMPDEST JUMPDEST DIV SWAP3 POP PUSH1 0x40 DUP2 ADD SWAP1 POP JUMPDEST PUSH14 0x4EE2D6D415B85ACEF8100000000 DUP4 LT PUSH2 0x169C JUMPI PUSH14 0x4EE2D6D415B85ACEF8100000000 DUP4 DUP2 PUSH2 0x1692 JUMPI PUSH2 0x1691 PUSH2 0x2C84 JUMP JUMPDEST JUMPDEST DIV SWAP3 POP PUSH1 0x20 DUP2 ADD SWAP1 POP JUMPDEST PUSH7 0x2386F26FC10000 DUP4 LT PUSH2 0x16CB JUMPI PUSH7 0x2386F26FC10000 DUP4 DUP2 PUSH2 0x16C1 JUMPI PUSH2 0x16C0 PUSH2 0x2C84 JUMP JUMPDEST JUMPDEST DIV SWAP3 POP PUSH1 0x10 DUP2 ADD SWAP1 POP JUMPDEST PUSH4 0x5F5E100 DUP4 LT PUSH2 0x16F4 JUMPI PUSH4 0x5F5E100 DUP4 DUP2 PUSH2 0x16EA JUMPI PUSH2 0x16E9 PUSH2 0x2C84 JUMP JUMPDEST JUMPDEST DIV SWAP3 POP PUSH1 0x8 DUP2 ADD SWAP1 POP JUMPDEST PUSH2 0x2710 DUP4 LT PUSH2 0x1719 JUMPI PUSH2 0x2710 DUP4 DUP2 PUSH2 0x170F JUMPI PUSH2 0x170E PUSH2 0x2C84 JUMP JUMPDEST JUMPDEST DIV SWAP3 POP PUSH1 0x4 DUP2 ADD SWAP1 POP JUMPDEST PUSH1 0x64 DUP4 LT PUSH2 0x173C JUMPI PUSH1 0x64 DUP4 DUP2 PUSH2 0x1732 JUMPI PUSH2 0x1731 PUSH2 0x2C84 JUMP JUMPDEST JUMPDEST DIV SWAP3 POP PUSH1 0x2 DUP2 ADD SWAP1 POP JUMPDEST PUSH1 0xA DUP4 LT PUSH2 0x174B JUMPI PUSH1 0x1 DUP2 ADD SWAP1 POP JUMPDEST DUP1 SWAP2 POP POP SWAP2 SWAP1 POP JUMP JUMPDEST PUSH0 DUP1 PUSH0 DUP1 DUP5 SWAP1 POP PUSH0 PUSH3 0x253D8C PUSH3 0x10BD9 DUP4 ADD ADD SWAP1 POP PUSH0 PUSH3 0x23AB1 DUP3 PUSH1 0x4 MUL DUP2 PUSH2 0x1780 JUMPI PUSH2 0x177F PUSH2 0x2C84 JUMP JUMPDEST JUMPDEST SDIV SWAP1 POP PUSH1 0x4 PUSH1 0x3 DUP3 PUSH3 0x23AB1 MUL ADD DUP2 PUSH2 0x179C JUMPI PUSH2 0x179B PUSH2 0x2C84 JUMP JUMPDEST JUMPDEST SDIV DUP3 SUB SWAP2 POP PUSH0 PUSH3 0x164B09 PUSH1 0x1 DUP5 ADD PUSH2 0xFA0 MUL DUP2 PUSH2 0x17BC JUMPI PUSH2 0x17BB PUSH2 0x2C84 JUMP JUMPDEST JUMPDEST SDIV SWAP1 POP PUSH1 0x1F PUSH1 0x4 DUP3 PUSH2 0x5B5 MUL DUP2 PUSH2 0x17D6 JUMPI PUSH2 0x17D5 PUSH2 0x2C84 JUMP JUMPDEST JUMPDEST SDIV DUP5 SUB ADD SWAP3 POP PUSH0 PUSH2 0x98F DUP5 PUSH1 0x50 MUL DUP2 PUSH2 0x17F2 JUMPI PUSH2 0x17F1 PUSH2 0x2C84 JUMP JUMPDEST JUMPDEST SDIV SWAP1 POP PUSH0 PUSH1 0x50 DUP3 PUSH2 0x98F MUL DUP2 PUSH2 0x180B JUMPI PUSH2 0x180A PUSH2 0x2C84 JUMP JUMPDEST JUMPDEST SDIV DUP6 SUB SWAP1 POP PUSH1 0xB DUP3 DUP2 PUSH2 0x1821 JUMPI PUSH2 0x1820 PUSH2 0x2C84 JUMP JUMPDEST JUMPDEST SDIV SWAP5 POP DUP5 PUSH1 0xC MUL PUSH1 0x2 DUP4 ADD SUB SWAP2 POP DUP5 DUP4 PUSH1 0x31 DUP7 SUB PUSH1 0x64 MUL ADD ADD SWAP3 POP DUP3 SWAP9 POP DUP2 SWAP8 POP DUP1 SWAP7 POP POP POP POP POP POP POP SWAP2 SWAP4 SWAP1 SWAP3 POP JUMP JUMPDEST PUSH1 0x40 MLOAD DUP1 PUSH1 0x60 ADD PUSH1 0x40 MSTORE DUP1 PUSH0 DUP2 MSTORE PUSH1 0x20 ADD PUSH0 DUP2 MSTORE PUSH1 0x20 ADD PUSH0 DUP2 MSTORE POP SWAP1 JUMP JUMPDEST PUSH1 0x40 MLOAD DUP1 PUSH2 0x160 ADD PUSH1 0x40 MSTORE DUP1 PUSH0 DUP2 MSTORE PUSH1 0x20 ADD PUSH1 0x60 DUP2 MSTORE PUSH1 0x20 ADD PUSH1 0x60 DUP2 MSTORE PUSH1 0x20 ADD PUSH0 DUP2 MSTORE PUSH1 0x20 ADD PUSH0 DUP2 MSTORE PUSH1 0x20 ADD PUSH0 DUP2 MSTORE PUSH1 0x20 ADD PUSH0 DUP2 MSTORE PUSH1 0x20 ADD PUSH0 DUP2 MSTORE PUSH1 0x20 ADD PUSH0 DUP2 MSTORE PUSH1 0x20 ADD PUSH0 PUSH20 0xFFFFFFFFFFFFFFFFFFFFFFFFFFFFFFFFFFFFFFFF AND DUP2 MSTORE PUSH1 0x20 ADD PUSH0 ISZERO ISZERO DUP2 MSTORE POP SWAP1 JUMP JUMPDEST PUSH1 0x40 MLOAD DUP1 PUSH1 0xC0 ADD PUSH1 0x40 MSTORE DUP1 PUSH2 0x18EC PUSH2 0x1870 JUMP JUMPDEST DUP2 MSTORE PUSH1 0x20 ADD PUSH0 DUP2 MSTORE PUSH1 0x20 ADD PUSH0 DUP2 MSTORE PUSH1 0x20 ADD PUSH2 0x1905 PUSH2 0x1852 JUMP JUMPDEST DUP2 MSTORE PUSH1 0x20 ADD PUSH2 0x1912 PUSH2 0x1852 JUMP JUMPDEST DUP2 MSTORE PUSH1 0x20 ADD PUSH0 DUP2 MSTORE POP SWAP1 JUMP JUMPDEST PUSH0 PUSH1 0x40 MLOAD SWAP1 POP SWAP1 JUMP JUMPDEST PUSH0 DUP1 REVERT JUMPDEST PUSH0 DUP1 REVERT JUMPDEST PUSH0 DUP2 SWAP1 POP SWAP2 SWAP1 POP JUMP JUMPDEST PUSH2 0x1941 DUP2 PUSH2 0x192F JUMP JUMPDEST DUP2 EQ PUSH2 0x194B JUMPI PUSH0 DUP1 REVERT JUMPDEST POP JUMP JUMPDEST PUSH0 DUP2 CALLDATALOAD SWAP1 POP PUSH2 0x195C DUP2 PUSH2 0x1938 JUMP JUMPDEST SWAP3 SWAP2 POP POP JUMP JUMPDEST PUSH0 PUSH1 0x20 DUP3 DUP5 SUB SLT ISZERO PUSH2 0x1977 JUMPI PUSH2 0x1976 PUSH2 0x1927 JUMP JUMPDEST JUMPDEST PUSH0 PUSH2 0x1984 DUP5 DUP3 DUP6 ADD PUSH2 0x194E JUMP JUMPDEST SWAP2 POP POP SWAP3 SWAP2 POP POP JUMP JUMPDEST PUSH0 DUP2 MLOAD SWAP1 POP SWAP2 SWAP1 POP JUMP JUMPDEST PUSH0 DUP3 DUP3 MSTORE PUSH1 0x20 DUP3 ADD SWAP1 POP SWAP3 SWAP2 POP POP JUMP JUMPDEST PUSH0 DUP2 SWAP1 POP PUSH1 0x20 DUP3 ADD SWAP1 POP SWAP2 SWAP1 POP JUMP JUMPDEST PUSH2 0x19BF DUP2 PUSH2 0x192F JUMP JUMPDEST DUP3 MSTORE POP POP JUMP JUMPDEST PUSH0 DUP2 MLOAD SWAP1 POP SWAP2 SWAP1 POP JUMP JUMPDEST PUSH0 DUP3 DUP3 MSTORE PUSH1 0x20 DUP3 ADD SWAP1 POP SWAP3 SWAP2 POP POP JUMP JUMPDEST DUP3 DUP2 DUP4 MCOPY PUSH0 DUP4 DUP4 ADD MSTORE POP POP POP JUMP JUMPDEST PUSH0 PUSH1 0x1F NOT PUSH1 0x1F DUP4 ADD AND SWAP1 POP SWAP2 SWAP1 POP JUMP JUMPDEST PUSH0 PUSH2 0x1A07 DUP3 PUSH2 0x19C5 JUMP JUMPDEST PUSH2 0x1A11 DUP2 DUP6 PUSH2 0x19CF JUMP JUMPDEST SWAP4 POP PUSH2 0x1A21 DUP2 DUP6 PUSH1 0x20 DUP7 ADD PUSH2 0x19DF JUMP JUMPDEST PUSH2 0x1A2A DUP2 PUSH2 0x19ED JUMP JUMPDEST DUP5 ADD SWAP2 POP POP SWAP3 SWAP2 POP POP JUMP JUMPDEST PUSH0 PUSH20 0xFFFFFFFFFFFFFFFFFFFFFFFFFFFFFFFFFFFFFFFF DUP3 AND SWAP1 POP SWAP2 SWAP1 POP JUMP JUMPDEST PUSH0 PUSH2 0x1A5E DUP3 PUSH2 0x1A35 JUMP JUMPDEST SWAP1 POP SWAP2 SWAP1 POP JUMP JUMPDEST PUSH2 0x1A6E DUP2 PUSH2 0x1A54 JUMP JUMPDEST DUP3 MSTORE POP POP JUMP JUMPDEST PUSH0 DUP2 ISZERO ISZERO SWAP1 POP SWAP2 SWAP1 POP JUMP JUMPDEST PUSH2 0x1A88 DUP2 PUSH2 0x1A74 JUMP JUMPDEST DUP3 MSTORE POP POP JUMP JUMPDEST PUSH0 PUSH2 0x160 DUP4 ADD PUSH0 DUP4 ADD MLOAD PUSH2 0x1AA4 PUSH0 DUP7 ADD DUP3 PUSH2 0x19B6 JUMP JUMPDEST POP PUSH1 0x20 DUP4 ADD MLOAD DUP5 DUP3 SUB PUSH1 0x20 DUP7 ADD MSTORE PUSH2 0x1ABC DUP3 DUP3 PUSH2 0x19FD JUMP JUMPDEST SWAP2 POP POP PUSH1 0x40 DUP4 ADD MLOAD DUP5 DUP3 SUB PUSH1 0x40 DUP7 ADD MSTORE PUSH2 0x1AD6 DUP3 DUP3 PUSH2 0x19FD JUMP JUMPDEST SWAP2 POP POP PUSH1 0x60 DUP4 ADD MLOAD PUSH2 0x1AEB PUSH1 0x60 DUP7 ADD DUP3 PUSH2 0x19B6 JUMP JUMPDEST POP PUSH1 0x80 DUP4 ADD MLOAD PUSH2 0x1AFE PUSH1 0x80 DUP7 ADD DUP3 PUSH2 0x19B6 JUMP JUMPDEST POP PUSH1 0xA0 DUP4 ADD MLOAD PUSH2 0x1B11 PUSH1 0xA0 DUP7 ADD DUP3 PUSH2 0x19B6 JUMP JUMPDEST POP PUSH1 0xC0 DUP4 ADD MLOAD PUSH2 0x1B24 PUSH1 0xC0 DUP7 ADD DUP3 PUSH2 0x19B6 JUMP JUMPDEST POP PUSH1 0xE0 DUP4 ADD MLOAD PUSH2 0x1B37 PUSH1 0xE0 DUP7 ADD DUP3 PUSH2 0x19B6 JUMP JUMPDEST POP PUSH2 0x100 DUP4 ADD MLOAD PUSH2 0x1B4C PUSH2 0x100 DUP7 ADD DUP3 PUSH2 0x19B6 JUMP JUMPDEST POP PUSH2 0x120 DUP4 ADD MLOAD PUSH2 0x1B61 PUSH2 0x120 DUP7 ADD DUP3 PUSH2 0x1A65 JUMP JUMPDEST POP PUSH2 0x140 DUP4 ADD MLOAD PUSH2 0x1B76 PUSH2 0x140 DUP7 ADD DUP3 PUSH2 0x1A7F JUMP JUMPDEST POP DUP1 SWAP2 POP POP SWAP3 SWAP2 POP POP JUMP JUMPDEST PUSH0 PUSH2 0x1B8C DUP4 DUP4 PUSH2 0x1A8E JUMP JUMPDEST SWAP1 POP SWAP3 SWAP2 POP POP JUMP JUMPDEST PUSH0 PUSH1 0x20 DUP3 ADD SWAP1 POP SWAP2 SWAP1 POP JUMP JUMPDEST PUSH0 PUSH2 0x1BAA DUP3 PUSH2 0x198D JUMP JUMPDEST PUSH2 0x1BB4 DUP2 DUP6 PUSH2 0x1997 JUMP JUMPDEST SWAP4 POP DUP4 PUSH1 0x20 DUP3 MUL DUP6 ADD PUSH2 0x1BC6 DUP6 PUSH2 0x19A7 JUMP JUMPDEST DUP1 PUSH0 JUMPDEST DUP6 DUP2 LT ISZERO PUSH2 0x1C01 JUMPI DUP5 DUP5 SUB DUP10 MSTORE DUP2 MLOAD PUSH2 0x1BE2 DUP6 DUP3 PUSH2 0x1B81 JUMP JUMPDEST SWAP5 POP PUSH2 0x1BED DUP4 PUSH2 0x1B94 JUMP JUMPDEST SWAP3 POP PUSH1 0x20 DUP11 ADD SWAP10 POP POP PUSH1 0x1 DUP2 ADD SWAP1 POP PUSH2 0x1BC9 JUMP JUMPDEST POP DUP3 SWAP8 POP DUP8 SWAP6 POP POP POP POP POP POP SWAP3 SWAP2 POP POP JUMP JUMPDEST PUSH0 PUSH1 0x20 DUP3 ADD SWAP1 POP DUP2 DUP2 SUB PUSH0 DUP4 ADD MSTORE PUSH2 0x1C2B DUP2 DUP5 PUSH2 0x1BA0 JUMP JUMPDEST SWAP1 POP SWAP3 SWAP2 POP POP JUMP JUMPDEST PUSH0 DUP2 MLOAD SWAP1 POP SWAP2 SWAP1 POP JUMP JUMPDEST PUSH0 DUP3 DUP3 MSTORE PUSH1 0x20 DUP3 ADD SWAP1 POP SWAP3 SWAP2 POP POP JUMP JUMPDEST PUSH0 DUP2 SWAP1 POP PUSH1 0x20 DUP3 ADD SWAP1 POP SWAP2 SWAP1 POP JUMP JUMPDEST PUSH1 0x60 DUP3 ADD PUSH0 DUP3 ADD MLOAD PUSH2 0x1C70 PUSH0 DUP6 ADD DUP3 PUSH2 0x19B6 JUMP JUMPDEST POP PUSH1 0x20 DUP3 ADD MLOAD PUSH2 0x1C83 PUSH1 0x20 DUP6 ADD DUP3 PUSH2 0x19B6 JUMP JUMPDEST POP PUSH1 0x40 DUP3 ADD MLOAD PUSH2 0x1C96 PUSH1 0x40 DUP6 ADD DUP3 PUSH2 0x19B6 JUMP JUMPDEST POP POP POP POP JUMP JUMPDEST PUSH0 PUSH2 0x140 DUP4 ADD PUSH0 DUP4 ADD MLOAD DUP5 DUP3 SUB PUSH0 DUP7 ADD MSTORE PUSH2 0x1CB7 DUP3 DUP3 PUSH2 0x1A8E JUMP JUMPDEST SWAP2 POP POP PUSH1 0x20 DUP4 ADD MLOAD PUSH2 0x1CCC PUSH1 0x20 DUP7 ADD DUP3 PUSH2 0x19B6 JUMP JUMPDEST POP PUSH1 0x40 DUP4 ADD MLOAD PUSH2 0x1CDF PUSH1 0x40 DUP7 ADD DUP3 PUSH2 0x19B6 JUMP JUMPDEST POP PUSH1 0x60 DUP4 ADD MLOAD PUSH2 0x1CF2 PUSH1 0x60 DUP7 ADD DUP3 PUSH2 0x1C5C JUMP JUMPDEST POP PUSH1 0x80 DUP4 ADD MLOAD PUSH2 0x1D05 PUSH1 0xC0 DUP7 ADD DUP3 PUSH2 0x1C5C JUMP JUMPDEST POP PUSH1 0xA0 DUP4 ADD MLOAD PUSH2 0x1D19 PUSH2 0x120 DUP7 ADD DUP3 PUSH2 0x19B6 JUMP JUMPDEST POP DUP1 SWAP2 POP POP SWAP3 SWAP2 POP POP JUMP JUMPDEST PUSH0 PUSH2 0x1D2F DUP4 DUP4 PUSH2 0x1C9C JUMP JUMPDEST SWAP1 POP SWAP3 SWAP2 POP POP JUMP JUMPDEST PUSH0 PUSH1 0x20 DUP3 ADD SWAP1 POP SWAP2 SWAP1 POP JUMP JUMPDEST PUSH0 PUSH2 0x1D4D DUP3 PUSH2 0x1C33 JUMP JUMPDEST PUSH2 0x1D57 DUP2 DUP6 PUSH2 0x1C3D JUMP JUMPDEST SWAP4 POP DUP4 PUSH1 0x20 DUP3 MUL DUP6 ADD PUSH2 0x1D69 DUP6 PUSH2 0x1C4D JUMP JUMPDEST DUP1 PUSH0 JUMPDEST DUP6 DUP2 LT ISZERO PUSH2 0x1DA4 JUMPI DUP5 DUP5 SUB DUP10 MSTORE DUP2 MLOAD PUSH2 0x1D85 DUP6 DUP3 PUSH2 0x1D24 JUMP JUMPDEST SWAP5 POP PUSH2 0x1D90 DUP4 PUSH2 0x1D37 JUMP JUMPDEST SWAP3 POP PUSH1 0x20 DUP11 ADD SWAP10 POP POP PUSH1 0x1 DUP2 ADD SWAP1 POP PUSH2 0x1D6C JUMP JUMPDEST POP DUP3 SWAP8 POP DUP8 SWAP6 POP POP POP POP POP POP SWAP3 SWAP2 POP POP JUMP JUMPDEST PUSH0 PUSH1 0x20 DUP3 ADD SWAP1 POP DUP2 DUP2 SUB PUSH0 DUP4 ADD MSTORE PUSH2 0x1DCE DUP2 DUP5 PUSH2 0x1D43 JUMP JUMPDEST SWAP1 POP SWAP3 SWAP2 POP POP JUMP JUMPDEST PUSH2 0x1DDF DUP2 PUSH2 0x1A54 JUMP JUMPDEST DUP2 EQ PUSH2 0x1DE9 JUMPI PUSH0 DUP1 REVERT JUMPDEST POP JUMP JUMPDEST PUSH0 DUP2 CALLDATALOAD SWAP1 POP PUSH2 0x1DFA DUP2 PUSH2 0x1DD6 JUMP JUMPDEST SWAP3 SWAP2 POP POP JUMP JUMPDEST PUSH0 DUP1 PUSH1 0x40 DUP4 DUP6 SUB SLT ISZERO PUSH2 0x1E16 JUMPI PUSH2 0x1E15 PUSH2 0x1927 JUMP JUMPDEST JUMPDEST PUSH0 PUSH2 0x1E23 DUP6 DUP3 DUP7 ADD PUSH2 0x1DEC JUMP JUMPDEST SWAP3 POP POP PUSH1 0x20 PUSH2 0x1E34 DUP6 DUP3 DUP7 ADD PUSH2 0x194E JUMP JUMPDEST SWAP2 POP POP SWAP3 POP SWAP3 SWAP1 POP JUMP JUMPDEST PUSH0 PUSH2 0x160 DUP4 ADD PUSH0 DUP4 ADD MLOAD PUSH2 0x1E54 PUSH0 DUP7 ADD DUP3 PUSH2 0x19B6 JUMP JUMPDEST POP PUSH1 0x20 DUP4 ADD MLOAD DUP5 DUP3 SUB PUSH1 0x20 DUP7 ADD MSTORE PUSH2 0x1E6C DUP3 DUP3 PUSH2 0x19FD JUMP JUMPDEST SWAP2 POP POP PUSH1 0x40 DUP4 ADD MLOAD DUP5 DUP3 SUB PUSH1 0x40 DUP7 ADD MSTORE PUSH2 0x1E86 DUP3 DUP3 PUSH2 0x19FD JUMP JUMPDEST SWAP2 POP POP PUSH1 0x60 DUP4 ADD MLOAD PUSH2 0x1E9B PUSH1 0x60 DUP7 ADD DUP3 PUSH2 0x19B6 JUMP JUMPDEST POP PUSH1 0x80 DUP4 ADD MLOAD PUSH2 0x1EAE PUSH1 0x80 DUP7 ADD DUP3 PUSH2 0x19B6 JUMP JUMPDEST POP PUSH1 0xA0 DUP4 ADD MLOAD PUSH2 0x1EC1 PUSH1 0xA0 DUP7 ADD DUP3 PUSH2 0x19B6 JUMP JUMPDEST POP PUSH1 0xC0 DUP4 ADD MLOAD PUSH2 0x1ED4 PUSH1 0xC0 DUP7 ADD DUP3 PUSH2 0x19B6 JUMP JUMPDEST POP PUSH1 0xE0 DUP4 ADD MLOAD PUSH2 0x1EE7 PUSH1 0xE0 DUP7 ADD DUP3 PUSH2 0x19B6 JUMP JUMPDEST POP PUSH2 0x100 DUP4 ADD MLOAD PUSH2 0x1EFC PUSH2 0x100 DUP7 ADD DUP3 PUSH2 0x19B6 JUMP JUMPDEST POP PUSH2 0x120 DUP4 ADD MLOAD PUSH2 0x1F11 PUSH2 0x120 DUP7 ADD DUP3 PUSH2 0x1A65 JUMP JUMPDEST POP PUSH2 0x140 DUP4 ADD MLOAD PUSH2 0x1F26 PUSH2 0x140 DUP7 ADD DUP3 PUSH2 0x1A7F JUMP JUMPDEST POP DUP1 SWAP2 POP POP SWAP3 SWAP2 POP POP JUMP JUMPDEST PUSH2 0x1F3A DUP2 PUSH2 0x192F JUMP JUMPDEST DUP3 MSTORE POP POP JUMP JUMPDEST PUSH1 0x60 DUP3 ADD PUSH0 DUP3 ADD MLOAD PUSH2 0x1F54 PUSH0 DUP6 ADD DUP3 PUSH2 0x19B6 JUMP JUMPDEST POP PUSH1 0x20 DUP3 ADD MLOAD PUSH2 0x1F67 PUSH1 0x20 DUP6 ADD DUP3 PUSH2 0x19B6 JUMP JUMPDEST POP PUSH1 0x40 DUP3 ADD MLOAD PUSH2 0x1F7A PUSH1 0x40 DUP6 ADD DUP3 PUSH2 0x19B6 JUMP JUMPDEST POP POP POP POP JUMP JUMPDEST PUSH0 PUSH2 0x140 DUP3 ADD SWAP1 POP DUP2 DUP2 SUB PUSH0 DUP4 ADD MSTORE PUSH2 0x1F99 DUP2 DUP10 PUSH2 0x1E3E JUMP JUMPDEST SWAP1 POP PUSH2 0x1FA8 PUSH1 0x20 DUP4 ADD DUP9 PUSH2 0x1F31 JUMP JUMPDEST PUSH2 0x1FB5 PUSH1 0x40 DUP4 ADD DUP8 PUSH2 0x1F31 JUMP JUMPDEST PUSH2 0x1FC2 PUSH1 0x60 DUP4 ADD DUP7 PUSH2 0x1F40 JUMP JUMPDEST PUSH2 0x1FCF PUSH1 0xC0 DUP4 ADD DUP6 PUSH2 0x1F40 JUMP JUMPDEST PUSH2 0x1FDD PUSH2 0x120 DUP4 ADD DUP5 PUSH2 0x1F31 JUMP JUMPDEST SWAP8 SWAP7 POP POP POP POP POP POP POP JUMP JUMPDEST PUSH0 PUSH1 0x20 DUP3 ADD SWAP1 POP PUSH2 0x1FFB PUSH0 DUP4 ADD DUP5 PUSH2 0x1F31 JUMP JUMPDEST SWAP3 SWAP2 POP POP JUMP JUMPDEST PUSH0 DUP1 REVERT JUMPDEST PUSH32 0x4E487B7100000000000000000000000000000000000000000000000000000000 PUSH0 MSTORE PUSH1 0x41 PUSH1 0x4 MSTORE PUSH1 0x24 PUSH0 REVERT JUMPDEST PUSH2 0x203B DUP3 PUSH2 0x19ED JUMP JUMPDEST DUP2 ADD DUP2 DUP2 LT PUSH8 0xFFFFFFFFFFFFFFFF DUP3 GT OR ISZERO PUSH2 0x205A JUMPI PUSH2 0x2059 PUSH2 0x2005 JUMP JUMPDEST JUMPDEST DUP1 PUSH1 0x40 MSTORE POP POP POP JUMP JUMPDEST PUSH0 PUSH2 0x206C PUSH2 0x191E JUMP JUMPDEST SWAP1 POP PUSH2 0x2078 DUP3 DUP3 PUSH2 0x2032 JUMP JUMPDEST SWAP2 SWAP1 POP JUMP JUMPDEST PUSH0 DUP1 REVERT JUMPDEST PUSH0 DUP2 MLOAD SWAP1 POP PUSH2 0x208F DUP2 PUSH2 0x1938 JUMP JUMPDEST SWAP3 SWAP2 POP POP JUMP JUMPDEST PUSH0 DUP1 REVERT JUMPDEST PUSH0 DUP1 REVERT JUMPDEST PUSH0 PUSH8 0xFFFFFFFFFFFFFFFF DUP3 GT ISZERO PUSH2 0x20B7 JUMPI PUSH2 0x20B6 PUSH2 0x2005 JUMP JUMPDEST JUMPDEST PUSH2 0x20C0 DUP3 PUSH2 0x19ED JUMP JUMPDEST SWAP1 POP PUSH1 0x20 DUP2 ADD SWAP1 POP SWAP2 SWAP1 POP JUMP JUMPDEST PUSH0 PUSH2 0x20DF PUSH2 0x20DA DUP5 PUSH2 0x209D JUMP JUMPDEST PUSH2 0x2063 JUMP JUMPDEST SWAP1 POP DUP3 DUP2 MSTORE PUSH1 0x20 DUP2 ADD DUP5 DUP5 DUP5 ADD GT ISZERO PUSH2 0x20FB JUMPI PUSH2 0x20FA PUSH2 0x2099 JUMP JUMPDEST JUMPDEST PUSH2 0x2106 DUP5 DUP3 DUP6 PUSH2 0x19DF JUMP JUMPDEST POP SWAP4 SWAP3 POP POP POP JUMP JUMPDEST PUSH0 DUP3 PUSH1 0x1F DUP4 ADD SLT PUSH2 0x2122 JUMPI PUSH2 0x2121 PUSH2 0x2095 JUMP JUMPDEST JUMPDEST DUP2 MLOAD PUSH2 0x2132 DUP5 DUP3 PUSH1 0x20 DUP7 ADD PUSH2 0x20CD JUMP JUMPDEST SWAP2 POP POP SWAP3 SWAP2 POP POP JUMP JUMPDEST PUSH0 DUP2 MLOAD SWAP1 POP PUSH2 0x2149 DUP2 PUSH2 0x1DD6 JUMP JUMPDEST SWAP3 SWAP2 POP POP JUMP JUMPDEST PUSH2 0x2158 DUP2 PUSH2 0x1A74 JUMP JUMPDEST DUP2 EQ PUSH2 0x2162 JUMPI PUSH0 DUP1 REVERT JUMPDEST POP JUMP JUMPDEST PUSH0 DUP2 MLOAD SWAP1 POP PUSH2 0x2173 DUP2 PUSH2 0x214F JUMP JUMPDEST SWAP3 SWAP2 POP POP JUMP JUMPDEST PUSH0 PUSH2 0x160 DUP3 DUP5 SUB SLT ISZERO PUSH2 0x218F JUMPI PUSH2 0x218E PUSH2 0x2001 JUMP JUMPDEST JUMPDEST PUSH2 0x219A PUSH2 0x160 PUSH2 0x2063 JUMP JUMPDEST SWAP1 POP PUSH0 PUSH2 0x21A9 DUP5 DUP3 DUP6 ADD PUSH2 0x2081 JUMP JUMPDEST PUSH0 DUP4 ADD MSTORE POP PUSH1 0x20 DUP3 ADD MLOAD PUSH8 0xFFFFFFFFFFFFFFFF DUP2 GT ISZERO PUSH2 0x21CC JUMPI PUSH2 0x21CB PUSH2 0x207D JUMP JUMPDEST JUMPDEST PUSH2 0x21D8 DUP5 DUP3 DUP6 ADD PUSH2 0x210E JUMP JUMPDEST PUSH1 0x20 DUP4 ADD MSTORE POP PUSH1 0x40 DUP3 ADD MLOAD PUSH8 0xFFFFFFFFFFFFFFFF DUP2 GT ISZERO PUSH2 0x21FC JUMPI PUSH2 0x21FB PUSH2 0x207D JUMP JUMPDEST JUMPDEST PUSH2 0x2208 DUP5 DUP3 DUP6 ADD PUSH2 0x210E JUMP JUMPDEST PUSH1 0x40 DUP4 ADD MSTORE POP PUSH1 0x60 PUSH2 0x221C DUP5 DUP3 DUP6 ADD PUSH2 0x2081 JUMP JUMPDEST PUSH1 0x60 DUP4 ADD MSTORE POP PUSH1 0x80 PUSH2 0x2230 DUP5 DUP3 DUP6 ADD PUSH2 0x2081 JUMP JUMPDEST PUSH1 0x80 DUP4 ADD MSTORE POP PUSH1 0xA0 PUSH2 0x2244 DUP5 DUP3 DUP6 ADD PUSH2 0x2081 JUMP JUMPDEST PUSH1 0xA0 DUP4 ADD MSTORE POP PUSH1 0xC0 PUSH2 0x2258 DUP5 DUP3 DUP6 ADD PUSH2 0x2081 JUMP JUMPDEST PUSH1 0xC0 DUP4 ADD MSTORE POP PUSH1 0xE0 PUSH2 0x226C DUP5 DUP3 DUP6 ADD PUSH2 0x2081 JUMP JUMPDEST PUSH1 0xE0 DUP4 ADD MSTORE POP PUSH2 0x100 PUSH2 0x2281 DUP5 DUP3 DUP6 ADD PUSH2 0x2081 JUMP JUMPDEST PUSH2 0x100 DUP4 ADD MSTORE POP PUSH2 0x120 PUSH2 0x2297 DUP5 DUP3 DUP6 ADD PUSH2 0x213B JUMP JUMPDEST PUSH2 0x120 DUP4 ADD MSTORE POP PUSH2 0x140 PUSH2 0x22AD DUP5 DUP3 DUP6 ADD PUSH2 0x2165 JUMP JUMPDEST PUSH2 0x140 DUP4 ADD MSTORE POP SWAP3 SWAP2 POP POP JUMP JUMPDEST PUSH0 PUSH1 0x20 DUP3 DUP5 SUB SLT ISZERO PUSH2 0x22CF JUMPI PUSH2 0x22CE PUSH2 0x1927 JUMP JUMPDEST JUMPDEST PUSH0 DUP3 ADD MLOAD PUSH8 0xFFFFFFFFFFFFFFFF DUP2 GT ISZERO PUSH2 0x22EC JUMPI PUSH2 0x22EB PUSH2 0x192B JUMP JUMPDEST JUMPDEST PUSH2 0x22F8 DUP5 DUP3 DUP6 ADD PUSH2 0x2179 JUMP JUMPDEST SWAP2 POP POP SWAP3 SWAP2 POP POP JUMP JUMPDEST PUSH0 DUP3 DUP3 MSTORE PUSH1 0x20 DUP3 ADD SWAP1 POP SWAP3 SWAP2 POP POP JUMP JUMPDEST PUSH32 0x596F752063616E6E6F7420627579206120706F6C696379207468617420686173 PUSH0 DUP3 ADD MSTORE PUSH32 0x206E6F74206265656E206C697374656421000000000000000000000000000000 PUSH1 0x20 DUP3 ADD MSTORE POP JUMP JUMPDEST PUSH0 PUSH2 0x236B PUSH1 0x31 DUP4 PUSH2 0x2301 JUMP JUMPDEST SWAP2 POP PUSH2 0x2376 DUP3 PUSH2 0x2311 JUMP JUMPDEST PUSH1 0x40 DUP3 ADD SWAP1 POP SWAP2 SWAP1 POP JUMP JUMPDEST PUSH0 PUSH1 0x20 DUP3 ADD SWAP1 POP DUP2 DUP2 SUB PUSH0 DUP4 ADD MSTORE PUSH2 0x2398 DUP2 PUSH2 0x235F JUMP JUMPDEST SWAP1 POP SWAP2 SWAP1 POP JUMP JUMPDEST PUSH32 0x596F752063616E6E6F742062757920796F7572206F776E20706F6C6963790000 PUSH0 DUP3 ADD MSTORE POP JUMP JUMPDEST PUSH0 PUSH2 0x23D3 PUSH1 0x1E DUP4 PUSH2 0x2301 JUMP JUMPDEST SWAP2 POP PUSH2 0x23DE DUP3 PUSH2 0x239F JUMP JUMPDEST PUSH1 0x20 DUP3 ADD SWAP1 POP SWAP2 SWAP1 POP JUMP JUMPDEST PUSH0 PUSH1 0x20 DUP3 ADD SWAP1 POP DUP2 DUP2 SUB PUSH0 DUP4 ADD MSTORE PUSH2 0x2400 DUP2 PUSH2 0x23C7 JUMP JUMPDEST SWAP1 POP SWAP2 SWAP1 POP JUMP JUMPDEST PUSH2 0x2410 DUP2 PUSH2 0x1A54 JUMP JUMPDEST DUP3 MSTORE POP POP JUMP JUMPDEST PUSH0 PUSH1 0x20 DUP3 ADD SWAP1 POP PUSH2 0x2429 PUSH0 DUP4 ADD DUP5 PUSH2 0x2407 JUMP JUMPDEST SWAP3 SWAP2 POP POP JUMP JUMPDEST PUSH0 PUSH1 0x20 DUP3 DUP5 SUB SLT ISZERO PUSH2 0x2444 JUMPI PUSH2 0x2443 PUSH2 0x1927 JUMP JUMPDEST JUMPDEST PUSH0 PUSH2 0x2451 DUP5 DUP3 DUP6 ADD PUSH2 0x2081 JUMP JUMPDEST SWAP2 POP POP SWAP3 SWAP2 POP POP JUMP JUMPDEST PUSH32 0x4E487B7100000000000000000000000000000000000000000000000000000000 PUSH0 MSTORE PUSH1 0x11 PUSH1 0x4 MSTORE PUSH1 0x24 PUSH0 REVERT JUMPDEST PUSH0 PUSH2 0x2491 DUP3 PUSH2 0x192F JUMP JUMPDEST SWAP2 POP PUSH2 0x249C DUP4 PUSH2 0x192F JUMP JUMPDEST SWAP3 POP DUP3 DUP3 MUL PUSH2 0x24AA DUP2 PUSH2 0x192F JUMP JUMPDEST SWAP2 POP DUP3 DUP3 DIV DUP5 EQ DUP4 ISZERO OR PUSH2 0x24C1 JUMPI PUSH2 0x24C0 PUSH2 0x245A JUMP JUMPDEST JUMPDEST POP SWAP3 SWAP2 POP POP JUMP JUMPDEST PUSH0 DUP2 SWAP1 POP SWAP3 SWAP2 POP POP JUMP JUMPDEST PUSH32 0x596F75206E65656420746F20706179206174206C656173742074686520707265 PUSH0 DUP3 ADD MSTORE PUSH32 0x6D69756D206F6620000000000000000000000000000000000000000000000000 PUSH1 0x20 DUP3 ADD MSTORE POP JUMP JUMPDEST PUSH0 PUSH2 0x252C PUSH1 0x28 DUP4 PUSH2 0x24C8 JUMP JUMPDEST SWAP2 POP PUSH2 0x2537 DUP3 PUSH2 0x24D2 JUMP JUMPDEST PUSH1 0x28 DUP3 ADD SWAP1 POP SWAP2 SWAP1 POP JUMP JUMPDEST PUSH0 PUSH2 0x254C DUP3 PUSH2 0x19C5 JUMP JUMPDEST PUSH2 0x2556 DUP2 DUP6 PUSH2 0x24C8 JUMP JUMPDEST SWAP4 POP PUSH2 0x2566 DUP2 DUP6 PUSH1 0x20 DUP7 ADD PUSH2 0x19DF JUMP JUMPDEST DUP1 DUP5 ADD SWAP2 POP POP SWAP3 SWAP2 POP POP JUMP JUMPDEST PUSH32 0x207765692C206275742070726F76696465642000000000000000000000000000 PUSH0 DUP3 ADD MSTORE POP JUMP JUMPDEST PUSH0 PUSH2 0x25A6 PUSH1 0x13 DUP4 PUSH2 0x24C8 JUMP JUMPDEST SWAP2 POP PUSH2 0x25B1 DUP3 PUSH2 0x2572 JUMP JUMPDEST PUSH1 0x13 DUP3 ADD SWAP1 POP SWAP2 SWAP1 POP JUMP JUMPDEST PUSH32 0x207765692E000000000000000000000000000000000000000000000000000000 PUSH0 DUP3 ADD MSTORE POP JUMP JUMPDEST PUSH0 PUSH2 0x25F0 PUSH1 0x5 DUP4 PUSH2 0x24C8 JUMP JUMPDEST SWAP2 POP PUSH2 0x25FB DUP3 PUSH2 0x25BC JUMP JUMPDEST PUSH1 0x5 DUP3 ADD SWAP1 POP SWAP2 SWAP1 POP JUMP JUMPDEST PUSH0 PUSH2 0x2610 DUP3 PUSH2 0x2520 JUMP JUMPDEST SWAP2 POP PUSH2 0x261C DUP3 DUP6 PUSH2 0x2542 JUMP JUMPDEST SWAP2 POP PUSH2 0x2627 DUP3 PUSH2 0x259A JUMP JUMPDEST SWAP2 POP PUSH2 0x2633 DUP3 DUP5 PUSH2 0x2542 JUMP JUMPDEST SWAP2 POP PUSH2 0x263E DUP3 PUSH2 0x25E4 JUMP JUMPDEST SWAP2 POP DUP2 SWAP1 POP SWAP4 SWAP3 POP POP POP JUMP JUMPDEST PUSH0 PUSH2 0x2654 DUP3 PUSH2 0x19C5 JUMP JUMPDEST PUSH2 0x265E DUP2 DUP6 PUSH2 0x2301 JUMP JUMPDEST SWAP4 POP PUSH2 0x266E DUP2 DUP6 PUSH1 0x20 DUP7 ADD PUSH2 0x19DF JUMP JUMPDEST PUSH2 0x2677 DUP2 PUSH2 0x19ED JUMP JUMPDEST DUP5 ADD SWAP2 POP POP SWAP3 SWAP2 POP POP JUMP JUMPDEST PUSH0 PUSH1 0x20 DUP3 ADD SWAP1 POP DUP2 DUP2 SUB PUSH0 DUP4 ADD MSTORE PUSH2 0x269A DUP2 DUP5 PUSH2 0x264A JUMP JUMPDEST SWAP1 POP SWAP3 SWAP2 POP POP JUMP JUMPDEST PUSH32 0x506F6C6963792063617061636974792065786365656465640000000000000000 PUSH0 DUP3 ADD MSTORE POP JUMP JUMPDEST PUSH0 PUSH2 0x26D6 PUSH1 0x18 DUP4 PUSH2 0x2301 JUMP JUMPDEST SWAP2 POP PUSH2 0x26E1 DUP3 PUSH2 0x26A2 JUMP JUMPDEST PUSH1 0x20 DUP3 ADD SWAP1 POP SWAP2 SWAP1 POP JUMP JUMPDEST PUSH0 PUSH1 0x20 DUP3 ADD SWAP1 POP DUP2 DUP2 SUB PUSH0 DUP4 ADD MSTORE PUSH2 0x2703 DUP2 PUSH2 0x26CA JUMP JUMPDEST SWAP1 POP SWAP2 SWAP1 POP JUMP JUMPDEST PUSH0 PUSH2 0x2714 DUP3 PUSH2 0x192F JUMP JUMPDEST SWAP2 POP PUSH2 0x271F DUP4 PUSH2 0x192F JUMP JUMPDEST SWAP3 POP DUP3 DUP3 ADD SWAP1 POP DUP1 DUP3 GT ISZERO PUSH2 0x2737 JUMPI PUSH2 0x2736 PUSH2 0x245A JUMP JUMPDEST JUMPDEST SWAP3 SWAP2 POP POP JUMP JUMPDEST PUSH32 0x4E487B7100000000000000000000000000000000000000000000000000000000 PUSH0 MSTORE PUSH1 0x22 PUSH1 0x4 MSTORE PUSH1 0x24 PUSH0 REVERT JUMPDEST PUSH0 PUSH1 0x2 DUP3 DIV SWAP1 POP PUSH1 0x1 DUP3 AND DUP1 PUSH2 0x2781 JUMPI PUSH1 0x7F DUP3 AND SWAP2 POP JUMPDEST PUSH1 0x20 DUP3 LT DUP2 SUB PUSH2 0x2794 JUMPI PUSH2 0x2793 PUSH2 0x273D JUMP JUMPDEST JUMPDEST POP SWAP2 SWAP1 POP JUMP JUMPDEST PUSH0 DUP2 SWAP1 POP DUP2 PUSH0 MSTORE PUSH1 0x20 PUSH0 KECCAK256 SWAP1 POP SWAP2 SWAP1 POP JUMP JUMPDEST PUSH0 PUSH1 0x20 PUSH1 0x1F DUP4 ADD DIV SWAP1 POP SWAP2 SWAP1 POP JUMP JUMPDEST PUSH0 DUP3 DUP3 SHL SWAP1 POP SWAP3 SWAP2 POP POP JUMP JUMPDEST PUSH0 PUSH1 0x8 DUP4 MUL PUSH2 0x27F6 PUSH32 0xFFFFFFFFFFFFFFFFFFFFFFFFFFFFFFFFFFFFFFFFFFFFFFFFFFFFFFFFFFFFFFFF DUP3 PUSH2 0x27BB JUMP JUMPDEST PUSH2 0x2800 DUP7 DUP4 PUSH2 0x27BB JUMP JUMPDEST SWAP6 POP DUP1 NOT DUP5 AND SWAP4 POP DUP1 DUP7 AND DUP5 OR SWAP3 POP POP POP SWAP4 SWAP3 POP POP POP JUMP JUMPDEST PUSH0 DUP2 SWAP1 POP SWAP2 SWAP1 POP JUMP JUMPDEST PUSH0 PUSH2 0x283B PUSH2 0x2836 PUSH2 0x2831 DUP5 PUSH2 0x192F JUMP JUMPDEST PUSH2 0x2818 JUMP JUMPDEST PUSH2 0x192F JUMP JUMPDEST SWAP1 POP SWAP2 SWAP1 POP JUMP JUMPDEST PUSH0 DUP2 SWAP1 POP SWAP2 SWAP1 POP JUMP JUMPDEST PUSH2 0x2854 DUP4 PUSH2 0x2821 JUMP JUMPDEST PUSH2 0x2868 PUSH2 0x2860 DUP3 PUSH2 0x2842 JUMP JUMPDEST DUP5 DUP5 SLOAD PUSH2 0x27C7 JUMP JUMPDEST DUP3 SSTORE POP POP POP POP JUMP JUMPDEST PUSH0 SWAP1 JUMP JUMPDEST PUSH2 0x287C PUSH2 0x2870 JUMP JUMPDEST PUSH2 0x2887 DUP2 DUP5 DUP5 PUSH2 0x284B JUMP JUMPDEST POP POP POP JUMP JUMPDEST JUMPDEST DUP2 DUP2 LT ISZERO PUSH2 0x28AA JUMPI PUSH2 0x289F PUSH0 DUP3 PUSH2 0x2874 JUMP JUMPDEST PUSH1 0x1 DUP2 ADD SWAP1 POP PUSH2 0x288D JUMP JUMPDEST POP POP JUMP JUMPDEST PUSH1 0x1F DUP3 GT ISZERO PUSH2 0x28EF JUMPI PUSH2 0x28C0 DUP2 PUSH2 0x279A JUMP JUMPDEST PUSH2 0x28C9 DUP5 PUSH2 0x27AC JUMP JUMPDEST DUP2 ADD PUSH1 0x20 DUP6 LT ISZERO PUSH2 0x28D8 JUMPI DUP2 SWAP1 POP JUMPDEST PUSH2 0x28EC PUSH2 0x28E4 DUP6 PUSH2 0x27AC JUMP JUMPDEST DUP4 ADD DUP3 PUSH2 0x288C JUMP JUMPDEST POP POP JUMPDEST POP POP POP JUMP JUMPDEST PUSH0 DUP3 DUP3 SHR SWAP1 POP SWAP3 SWAP2 POP POP JUMP JUMPDEST PUSH0 PUSH2 0x290F PUSH0 NOT DUP5 PUSH1 0x8 MUL PUSH2 0x28F4 JUMP JUMPDEST NOT DUP1 DUP4 AND SWAP2 POP POP SWAP3 SWAP2 POP POP JUMP JUMPDEST PUSH0 PUSH2 0x2927 DUP4 DUP4 PUSH2 0x2900 JUMP JUMPDEST SWAP2 POP DUP3 PUSH1 0x2 MUL DUP3 OR SWAP1 POP SWAP3 SWAP2 POP POP JUMP JUMPDEST PUSH2 0x2940 DUP3 PUSH2 0x19C5 JUMP JUMPDEST PUSH8 0xFFFFFFFFFFFFFFFF DUP2 GT ISZERO PUSH2 0x2959 JUMPI PUSH2 0x2958 PUSH2 0x2005 JUMP JUMPDEST JUMPDEST PUSH2 0x2963 DUP3 SLOAD PUSH2 0x276A JUMP JUMPDEST PUSH2 0x296E DUP3 DUP3 DUP6 PUSH2 0x28AE JUMP JUMPDEST PUSH0 PUSH1 0x20 SWAP1 POP PUSH1 0x1F DUP4 GT PUSH1 0x1 DUP2 EQ PUSH2 0x299F JUMPI PUSH0 DUP5 ISZERO PUSH2 0x298D JUMPI DUP3 DUP8 ADD MLOAD SWAP1 POP JUMPDEST PUSH2 0x2997 DUP6 DUP3 PUSH2 0x291C JUMP JUMPDEST DUP7 SSTORE POP PUSH2 0x29FE JUMP JUMPDEST PUSH1 0x1F NOT DUP5 AND PUSH2 0x29AD DUP7 PUSH2 0x279A JUMP JUMPDEST PUSH0 JUMPDEST DUP3 DUP2 LT ISZERO PUSH2 0x29D4 JUMPI DUP5 DUP10 ADD MLOAD DUP3 SSTORE PUSH1 0x1 DUP3 ADD SWAP2 POP PUSH1 0x20 DUP6 ADD SWAP5 POP PUSH1 0x20 DUP2 ADD SWAP1 POP PUSH2 0x29AF JUMP JUMPDEST DUP7 DUP4 LT ISZERO PUSH2 0x29F1 JUMPI DUP5 DUP10 ADD MLOAD PUSH2 0x29ED PUSH1 0x1F DUP10 AND DUP3 PUSH2 0x2900 JUMP JUMPDEST DUP4 SSTORE POP JUMPDEST PUSH1 0x1 PUSH1 0x2 DUP9 MUL ADD DUP9 SSTORE POP POP POP JUMPDEST POP POP POP POP POP POP JUMP JUMPDEST PUSH0 PUSH1 0x40 DUP3 ADD SWAP1 POP PUSH2 0x2A19 PUSH0 DUP4 ADD DUP6 PUSH2 0x1F31 JUMP JUMPDEST PUSH2 0x2A26 PUSH1 0x20 DUP4 ADD DUP5 PUSH2 0x1F31 JUMP JUMPDEST SWAP4 SWAP3 POP POP POP JUMP JUMPDEST PUSH0 PUSH2 0x2A37 DUP3 PUSH2 0x192F JUMP JUMPDEST SWAP2 POP PUSH2 0x2A42 DUP4 PUSH2 0x192F JUMP JUMPDEST SWAP3 POP DUP3 DUP3 SUB SWAP1 POP DUP2 DUP2 GT ISZERO PUSH2 0x2A5A JUMPI PUSH2 0x2A59 PUSH2 0x245A JUMP JUMPDEST JUMPDEST SWAP3 SWAP2 POP POP JUMP JUMPDEST PUSH0 PUSH2 0x2A6A DUP3 PUSH2 0x192F JUMP JUMPDEST SWAP2 POP PUSH32 0xFFFFFFFFFFFFFFFFFFFFFFFFFFFFFFFFFFFFFFFFFFFFFFFFFFFFFFFFFFFFFFFF DUP3 SUB PUSH2 0x2A9C JUMPI PUSH2 0x2A9B PUSH2 0x245A JUMP JUMPDEST JUMPDEST PUSH1 0x1 DUP3 ADD SWAP1 POP SWAP2 SWAP1 POP JUMP JUMPDEST PUSH32 0x5468657265206172652063757272656E746C79206E6F206C697374656420706F PUSH0 DUP3 ADD MSTORE PUSH32 0x6C696369657320746F2062757900000000000000000000000000000000000000 PUSH1 0x20 DUP3 ADD MSTORE POP JUMP JUMPDEST PUSH0 PUSH2 0x2B01 PUSH1 0x2D DUP4 PUSH2 0x2301 JUMP JUMPDEST SWAP2 POP PUSH2 0x2B0C DUP3 PUSH2 0x2AA7 JUMP JUMPDEST PUSH1 0x40 DUP3 ADD SWAP1 POP SWAP2 SWAP1 POP JUMP JUMPDEST PUSH0 PUSH1 0x20 DUP3 ADD SWAP1 POP DUP2 DUP2 SUB PUSH0 DUP4 ADD MSTORE PUSH2 0x2B2E DUP2 PUSH2 0x2AF5 JUMP JUMPDEST SWAP1 POP SWAP2 SWAP1 POP JUMP JUMPDEST PUSH32 0x4E487B7100000000000000000000000000000000000000000000000000000000 PUSH0 MSTORE PUSH1 0x32 PUSH1 0x4 MSTORE PUSH1 0x24 PUSH0 REVERT JUMPDEST PUSH32 0x596F7520646F206E6F74206F776E207468697320706F6C696379000000000000 PUSH0 DUP3 ADD MSTORE POP JUMP JUMPDEST PUSH0 PUSH2 0x2B96 PUSH1 0x1A DUP4 PUSH2 0x2301 JUMP JUMPDEST SWAP2 POP PUSH2 0x2BA1 DUP3 PUSH2 0x2B62 JUMP JUMPDEST PUSH1 0x20 DUP3 ADD SWAP1 POP SWAP2 SWAP1 POP JUMP JUMPDEST PUSH0 PUSH1 0x20 DUP3 ADD SWAP1 POP DUP2 DUP2 SUB PUSH0 DUP4 ADD MSTORE PUSH2 0x2BC3 DUP2 PUSH2 0x2B8A JUMP JUMPDEST SWAP1 POP SWAP2 SWAP1 POP JUMP JUMPDEST PUSH0 PUSH1 0x40 DUP3 ADD SWAP1 POP PUSH2 0x2BDD PUSH0 DUP4 ADD DUP6 PUSH2 0x2407 JUMP JUMPDEST PUSH2 0x2BEA PUSH1 0x20 DUP4 ADD DUP5 PUSH2 0x1F31 JUMP JUMPDEST SWAP4 SWAP3 POP POP POP JUMP JUMPDEST PUSH0 PUSH1 0x20 DUP3 DUP5 SUB SLT ISZERO PUSH2 0x2C06 JUMPI PUSH2 0x2C05 PUSH2 0x1927 JUMP JUMPDEST JUMPDEST PUSH0 PUSH2 0x2C13 DUP5 DUP3 DUP6 ADD PUSH2 0x2165 JUMP JUMPDEST SWAP2 POP POP SWAP3 SWAP2 POP POP JUMP JUMPDEST PUSH32 0x596F7520646F6E2774206F776E20616E7920706F6C6963696573000000000000 PUSH0 DUP3 ADD MSTORE POP JUMP JUMPDEST PUSH0 PUSH2 0x2C50 PUSH1 0x1A DUP4 PUSH2 0x2301 JUMP JUMPDEST SWAP2 POP PUSH2 0x2C5B DUP3 PUSH2 0x2C1C JUMP JUMPDEST PUSH1 0x20 DUP3 ADD SWAP1 POP SWAP2 SWAP1 POP JUMP JUMPDEST PUSH0 PUSH1 0x20 DUP3 ADD SWAP1 POP DUP2 DUP2 SUB PUSH0 DUP4 ADD MSTORE PUSH2 0x2C7D DUP2 PUSH2 0x2C44 JUMP JUMPDEST SWAP1 POP SWAP2 SWAP1 POP JUMP JUMPDEST PUSH32 0x4E487B7100000000000000000000000000000000000000000000000000000000 PUSH0 MSTORE PUSH1 0x12 PUSH1 0x4 MSTORE PUSH1 0x24 PUSH0 REVERT INVALID LOG2 PUSH5 0x6970667358 0x22 SLT KECCAK256 0x2F 0xA9 PUSH28 0xCE5DBF85780A9A8874DDD0A5EB226DC3610D9371AA0E4F5A5769ABC 0xB5 PUSH5 0x736F6C6343 STOP ADDMOD BYTE STOP CALLER "
		},
		"gasEstimates": {
			"creation": {
				"codeDepositCost": "2299000",
				"executionCost": "infinite",
				"totalCost": "infinite"
			},
			"external": {
				"buyPolicy(uint256)": "infinite",
				"listPolicy(uint256)": "infinite",
				"policyHolders(address,uint256)": "infinite",
				"viewListedPolicies()": "infinite",
				"viewMyBoughtPolicies()": "infinite"
			},
			"internal": {
				"delistPolicy(uint256)": "infinite"
			}
		},
		"methodIdentifiers": {
			"buyPolicy(uint256)": "79c88894",
			"listPolicy(uint256)": "a56cf067",
			"policyHolders(address,uint256)": "bb529068",
			"viewListedPolicies()": "9d61dba8",
			"viewMyBoughtPolicies()": "ac5d8185"
		}
	},
	"abi": [
		{
			"inputs": [
				{
					"internalType": "contract CSToken",
					"name": "_token",
					"type": "address"
				},
				{
					"internalType": "contract InsuranceCompany",
					"name": "_company",
					"type": "address"
				}
			],
			"stateMutability": "nonpayable",
			"type": "constructor"
		},
		{
			"inputs": [
				{
					"internalType": "uint256",
					"name": "policyId",
					"type": "uint256"
				}
			],
			"name": "buyPolicy",
			"outputs": [],
			"stateMutability": "payable",
			"type": "function"
		},
		{
			"inputs": [
				{
					"internalType": "uint256",
					"name": "policyId",
					"type": "uint256"
				}
			],
			"name": "listPolicy",
			"outputs": [],
			"stateMutability": "nonpayable",
			"type": "function"
		},
		{
			"inputs": [
				{
					"internalType": "address",
					"name": "",
					"type": "address"
				},
				{
					"internalType": "uint256",
					"name": "",
					"type": "uint256"
				}
			],
			"name": "policyHolders",
			"outputs": [
				{
					"components": [
						{
							"internalType": "uint256",
							"name": "policyId",
							"type": "uint256"
						},
						{
							"internalType": "string",
							"name": "policyName",
							"type": "string"
						},
						{
							"internalType": "string",
							"name": "policyType",
							"type": "string"
						},
						{
							"internalType": "uint256",
							"name": "claimBackRate",
							"type": "uint256"
						},
						{
							"internalType": "uint256",
							"name": "maxPoolValue",
							"type": "uint256"
						},
						{
							"internalType": "uint256",
							"name": "currPoolValue",
							"type": "uint256"
						},
						{
							"internalType": "uint256",
							"name": "minStake",
							"type": "uint256"
						},
						{
							"internalType": "uint256",
							"name": "creationTime",
							"type": "uint256"
						},
						{
							"internalType": "uint256",
							"name": "coveragePeriod",
							"type": "uint256"
						},
						{
							"internalType": "address",
							"name": "creator",
							"type": "address"
						},
						{
							"internalType": "bool",
							"name": "listed",
							"type": "bool"
						}
					],
					"internalType": "struct InsuranceCompany.Policy",
					"name": "boughtPolicy",
					"type": "tuple"
				},
				{
					"internalType": "uint256",
					"name": "coverageStartTimestamp",
					"type": "uint256"
				},
				{
					"internalType": "uint256",
					"name": "coverageEndTimestamp",
					"type": "uint256"
				},
				{
					"components": [
						{
							"internalType": "uint256",
							"name": "year",
							"type": "uint256"
						},
						{
							"internalType": "uint256",
							"name": "month",
							"type": "uint256"
						},
						{
							"internalType": "uint256",
							"name": "day",
							"type": "uint256"
						}
					],
					"internalType": "struct Marketplace.Date",
					"name": "coverageStartDate",
					"type": "tuple"
				},
				{
					"components": [
						{
							"internalType": "uint256",
							"name": "year",
							"type": "uint256"
						},
						{
							"internalType": "uint256",
							"name": "month",
							"type": "uint256"
						},
						{
							"internalType": "uint256",
							"name": "day",
							"type": "uint256"
						}
					],
					"internalType": "struct Marketplace.Date",
					"name": "coverageEndDate",
					"type": "tuple"
				},
				{
					"internalType": "uint256",
					"name": "ownedCSTokens",
					"type": "uint256"
				}
			],
			"stateMutability": "view",
			"type": "function"
		},
		{
			"inputs": [],
			"name": "viewListedPolicies",
			"outputs": [
				{
					"components": [
						{
							"internalType": "uint256",
							"name": "policyId",
							"type": "uint256"
						},
						{
							"internalType": "string",
							"name": "policyName",
							"type": "string"
						},
						{
							"internalType": "string",
							"name": "policyType",
							"type": "string"
						},
						{
							"internalType": "uint256",
							"name": "claimBackRate",
							"type": "uint256"
						},
						{
							"internalType": "uint256",
							"name": "maxPoolValue",
							"type": "uint256"
						},
						{
							"internalType": "uint256",
							"name": "currPoolValue",
							"type": "uint256"
						},
						{
							"internalType": "uint256",
							"name": "minStake",
							"type": "uint256"
						},
						{
							"internalType": "uint256",
							"name": "creationTime",
							"type": "uint256"
						},
						{
							"internalType": "uint256",
							"name": "coveragePeriod",
							"type": "uint256"
						},
						{
							"internalType": "address",
							"name": "creator",
							"type": "address"
						},
						{
							"internalType": "bool",
							"name": "listed",
							"type": "bool"
						}
					],
					"internalType": "struct InsuranceCompany.Policy[]",
					"name": "",
					"type": "tuple[]"
				}
			],
			"stateMutability": "view",
			"type": "function"
		},
		{
			"inputs": [],
			"name": "viewMyBoughtPolicies",
			"outputs": [
				{
					"components": [
						{
							"components": [
								{
									"internalType": "uint256",
									"name": "policyId",
									"type": "uint256"
								},
								{
									"internalType": "string",
									"name": "policyName",
									"type": "string"
								},
								{
									"internalType": "string",
									"name": "policyType",
									"type": "string"
								},
								{
									"internalType": "uint256",
									"name": "claimBackRate",
									"type": "uint256"
								},
								{
									"internalType": "uint256",
									"name": "maxPoolValue",
									"type": "uint256"
								},
								{
									"internalType": "uint256",
									"name": "currPoolValue",
									"type": "uint256"
								},
								{
									"internalType": "uint256",
									"name": "minStake",
									"type": "uint256"
								},
								{
									"internalType": "uint256",
									"name": "creationTime",
									"type": "uint256"
								},
								{
									"internalType": "uint256",
									"name": "coveragePeriod",
									"type": "uint256"
								},
								{
									"internalType": "address",
									"name": "creator",
									"type": "address"
								},
								{
									"internalType": "bool",
									"name": "listed",
									"type": "bool"
								}
							],
							"internalType": "struct InsuranceCompany.Policy",
							"name": "boughtPolicy",
							"type": "tuple"
						},
						{
							"internalType": "uint256",
							"name": "coverageStartTimestamp",
							"type": "uint256"
						},
						{
							"internalType": "uint256",
							"name": "coverageEndTimestamp",
							"type": "uint256"
						},
						{
							"components": [
								{
									"internalType": "uint256",
									"name": "year",
									"type": "uint256"
								},
								{
									"internalType": "uint256",
									"name": "month",
									"type": "uint256"
								},
								{
									"internalType": "uint256",
									"name": "day",
									"type": "uint256"
								}
							],
							"internalType": "struct Marketplace.Date",
							"name": "coverageStartDate",
							"type": "tuple"
						},
						{
							"components": [
								{
									"internalType": "uint256",
									"name": "year",
									"type": "uint256"
								},
								{
									"internalType": "uint256",
									"name": "month",
									"type": "uint256"
								},
								{
									"internalType": "uint256",
									"name": "day",
									"type": "uint256"
								}
							],
							"internalType": "struct Marketplace.Date",
							"name": "coverageEndDate",
							"type": "tuple"
						},
						{
							"internalType": "uint256",
							"name": "ownedCSTokens",
							"type": "uint256"
						}
					],
					"internalType": "struct Marketplace.BuyerPolicy[]",
					"name": "",
					"type": "tuple[]"
				}
			],
			"stateMutability": "view",
			"type": "function"
		}
	]
}