{
	"data": {
		"bytecode": {
			"linkReferences": {},
			"object": "608060405242600255348015610013575f80fd5b5060405161487738038061487783398181016040528101906100359190610165565b815f806101000a81548173ffffffffffffffffffffffffffffffffffffffff021916908373ffffffffffffffffffffffffffffffffffffffff1602179055508060015f6101000a81548173ffffffffffffffffffffffffffffffffffffffff021916908373ffffffffffffffffffffffffffffffffffffffff16021790555050506101a3565b5f80fd5b5f73ffffffffffffffffffffffffffffffffffffffff82169050919050565b5f6100e8826100bf565b9050919050565b5f6100f9826100de565b9050919050565b610109816100ef565b8114610113575f80fd5b50565b5f8151905061012481610100565b92915050565b5f610134826100de565b9050919050565b6101448161012a565b811461014e575f80fd5b50565b5f8151905061015f8161013b565b92915050565b5f806040838503121561017b5761017a6100bb565b5b5f61018885828601610116565b925050602061019985828601610151565b9150509250929050565b6146c7806101b05f395ff3fe60806040526004361061006f575f3560e01c80639d61dba81161004d5780639d61dba8146100f3578063a56cf0671461011d578063ac5d818514610145578063bb5290681461016f5761006f565b80630744b4e3146100735780632aea118d146100af57806379c88894146100d7575b5f80fd5b34801561007e575f80fd5b5061009960048036038101906100949190612d6a565b6101b0565b6040516100a69190612da4565b60405180910390f35b3480156100ba575f80fd5b506100d560048036038101906100d09190612d6a565b6101c5565b005b6100f160048036038101906100ec9190612d6a565b6109f3565b005b3480156100fe575f80fd5b5061010761147e565b604051610114919061302e565b60405180910390f35b348015610128575f80fd5b50610143600480360381019061013e9190612d6a565b611811565b005b348015610150575f80fd5b50610159611cb5565b60405161016691906131d1565b60405180910390f35b34801561017a575f80fd5b506101956004803603810190610190919061321b565b612194565b6040516101a796959493929190613377565b60405180910390f35b6003602052805f5260405f205f915090505481565b5f60045f3373ffffffffffffffffffffffffffffffffffffffff1673ffffffffffffffffffffffffffffffffffffffff1681526020019081526020015f208054905011610247576040517f08c379a000000000000000000000000000000000000000000000000000000000815260040161023e90613439565b60405180910390fd5b805f805b60045f3373ffffffffffffffffffffffffffffffffffffffff1673ffffffffffffffffffffffffffffffffffffffff1681526020019081526020015f20805490508110156105e7578260045f3373ffffffffffffffffffffffffffffffffffffffff1673ffffffffffffffffffffffffffffffffffffffff1681526020019081526020015f2082815481106102e3576102e2613457565b5b905f5260205f2090601202015f015f0154036105da575f60045f3373ffffffffffffffffffffffffffffffffffffffff1673ffffffffffffffffffffffffffffffffffffffff1681526020019081526020015f20828154811061034957610348613457565b5b905f5260205f2090601202016040518060c00160405290815f8201604051806101400160405290815f8201548152602001600182018054610389906134b1565b80601f01602080910402602001604051908101604052809291908181526020018280546103b5906134b1565b80156104005780601f106103d757610100808354040283529160200191610400565b820191905f5260205f20905b8154815290600101906020018083116103e357829003601f168201915b50505050508152602001600282018054610419906134b1565b80601f0160208091040260200160405190810160405280929190818152602001828054610445906134b1565b80156104905780601f1061046757610100808354040283529160200191610490565b820191905f5260205f20905b81548152906001019060200180831161047357829003601f168201915b505050505081526020016003820154815260200160048201548152602001600582015481526020016006820154815260200160078201548152602001600882015f9054906101000a900473ffffffffffffffffffffffffffffffffffffffff1673ffffffffffffffffffffffffffffffffffffffff1673ffffffffffffffffffffffffffffffffffffffff1681526020016008820160149054906101000a900460ff161515151581525050815260200160098201548152602001600a8201548152602001600b82016040518060600160405290815f8201548152602001600182015481526020016002820154815250508152602001600e82016040518060600160405290815f82015481526020016001820154815260200160028201548152505081526020016011820154815250509050428160400151116105d0575f80fd5b60019250506105e7565b808060010191505061024b565b5080610628576040517f08c379a000000000000000000000000000000000000000000000000000000000815260040161061f9061352b565b60405180910390fd5b5f805f5b60045f3373ffffffffffffffffffffffffffffffffffffffff1673ffffffffffffffffffffffffffffffffffffffff1681526020019081526020015f20805490508110156106f3578560045f3373ffffffffffffffffffffffffffffffffffffffff1673ffffffffffffffffffffffffffffffffffffffff1681526020019081526020015f2082815481106106c4576106c3613457565b5b905f5260205f2090601202015f015f0154036106e657600192508091506106f3565b808060010191505061062c565b50600115158215151461073b576040517f08c379a000000000000000000000000000000000000000000000000000000000815260040161073290613593565b60405180910390fd5b5f60045f3373ffffffffffffffffffffffffffffffffffffffff1673ffffffffffffffffffffffffffffffffffffffff1681526020019081526020015f20828154811061078b5761078a613457565b5b905f5260205f2090601202016011015490505f81116107df576040517f08c379a00000000000000000000000000000000000000000000000000000000081526004016107d690613621565b60405180910390fd5b5f60015f9054906101000a900473ffffffffffffffffffffffffffffffffffffffff1673ffffffffffffffffffffffffffffffffffffffff16632b07fce3886040518263ffffffff1660e01b815260040161083a9190612da4565b5f60405180830381865afa158015610854573d5f803e3d5ffd5b505050506040513d5f823e3d601f19601f8201168201806040525081019061087c91906138e2565b90505f81606001518361088f9190613956565b90505f8054906101000a900473ffffffffffffffffffffffffffffffffffffffff1673ffffffffffffffffffffffffffffffffffffffff1663cd60f59f83610100015133846040518463ffffffff1660e01b81526004016108f2939291906139a6565b5f604051808303815f87803b158015610909575f80fd5b505af115801561091b573d5f803e3d5ffd5b505050505f8054906101000a900473ffffffffffffffffffffffffffffffffffffffff1673ffffffffffffffffffffffffffffffffffffffff16639dc29fac33856040518363ffffffff1660e01b81526004016109799291906139db565b5f604051808303815f87803b158015610990575f80fd5b505af11580156109a2573d5f803e3d5ffd5b505050506109b0338561240a565b7fc9d92d603dc7645c578a271dc9dec46855d3c0cdbdc48d00399a438907cfa1cb88826040516109e1929190613a02565b60405180910390a15050505050505050565b5f60015f9054906101000a900473ffffffffffffffffffffffffffffffffffffffff1673ffffffffffffffffffffffffffffffffffffffff16632b07fce3836040518263ffffffff1660e01b8152600401610a4e9190612da4565b5f60405180830381865afa158015610a68573d5f803e3d5ffd5b505050506040513d5f823e3d601f19601f82011682018060405250810190610a9091906138e2565b905060011515816101200151151514610ade576040517f08c379a0000000000000000000000000000000000000000000000000000000008152600401610ad590613a99565b60405180910390fd5b3373ffffffffffffffffffffffffffffffffffffffff1681610100015173ffffffffffffffffffffffffffffffffffffffff1603610b51576040517f08c379a0000000000000000000000000000000000000000000000000000000008152600401610b4890613b01565b60405180910390fd5b5f805f9054906101000a900473ffffffffffffffffffffffffffffffffffffffff1673ffffffffffffffffffffffffffffffffffffffff16634763fbd28361010001516040518263ffffffff1660e01b8152600401610bb09190613b1f565b602060405180830381865afa158015610bcb573d5f803e3d5ffd5b505050506040513d601f19601f82011682018060405250810190610bef9190613b38565b8260c00151610bfe9190613956565b905080341015610c0d82612833565b610c1634612833565b604051602001610c27929190613ca1565b60405160208183030381529060405290610c77576040517f08c379a0000000000000000000000000000000000000000000000000000000008152600401610c6e9190613d1d565b60405180910390fd5b508160a00151826080015111610cc2576040517f08c379a0000000000000000000000000000000000000000000000000000000008152600401610cb990613d87565b60405180910390fd5b5f4290505f8360e0015142610cd79190613da5565b9050610ce1612c08565b610cea836128fd565b835f018460200185604001838152508381525083815250505050610d0c612c08565b610d15836128fd565b835f0184602001856040018381525083815250838152505050505f6040518060c001604052808881526020018681526020018581526020018481526020018381526020015f8054906101000a900473ffffffffffffffffffffffffffffffffffffffff1673ffffffffffffffffffffffffffffffffffffffff16634763fbd28a61010001516040518263ffffffff1660e01b8152600401610db69190613b1f565b602060405180830381865afa158015610dd1573d5f803e3d5ffd5b505050506040513d601f19601f82011682018060405250810190610df59190613b38565b34610e009190613e05565b81525090505f8054906101000a900473ffffffffffffffffffffffffffffffffffffffff1673ffffffffffffffffffffffffffffffffffffffff16634763fbd28861010001516040518263ffffffff1660e01b8152600401610e629190613b1f565b602060405180830381865afa158015610e7d573d5f803e3d5ffd5b505050506040513d601f19601f82011682018060405250810190610ea19190613b38565b34610eac9190613e05565b60035f8a81526020019081526020015f20541015610eff576040517f08c379a0000000000000000000000000000000000000000000000000000000008152600401610ef690613ea5565b60405180910390fd5b5f8054906101000a900473ffffffffffffffffffffffffffffffffffffffff1673ffffffffffffffffffffffffffffffffffffffff1663a9059cbb335f8054906101000a900473ffffffffffffffffffffffffffffffffffffffff1673ffffffffffffffffffffffffffffffffffffffff16634763fbd28b61010001516040518263ffffffff1660e01b8152600401610f989190613b1f565b602060405180830381865afa158015610fb3573d5f803e3d5ffd5b505050506040513d601f19601f82011682018060405250810190610fd79190613b38565b34610fe29190613e05565b6040518363ffffffff1660e01b8152600401610fff9291906139db565b6020604051808303815f875af115801561101b573d5f803e3d5ffd5b505050506040513d601f19601f8201168201806040525081019061103f9190613ec3565b505f8054906101000a900473ffffffffffffffffffffffffffffffffffffffff1673ffffffffffffffffffffffffffffffffffffffff16634763fbd28861010001516040518263ffffffff1660e01b815260040161109d9190613b1f565b602060405180830381865afa1580156110b8573d5f803e3d5ffd5b505050506040513d601f19601f820116820180604052508101906110dc9190613b38565b346110e79190613e05565b60035f8a81526020019081526020015f205f8282546111069190613eee565b9250508190555060045f3373ffffffffffffffffffffffffffffffffffffffff1673ffffffffffffffffffffffffffffffffffffffff1681526020019081526020015f2081908060018154018082558091505060019003905f5260205f2090601202015f909190919091505f820151815f015f820151815f0155602082015181600101908161119591906140be565b5060408201518160020190816111ab91906140be565b50606082015181600301556080820151816004015560a0820151816005015560c0820151816006015560e08201518160070155610100820151816008015f6101000a81548173ffffffffffffffffffffffffffffffffffffffff021916908373ffffffffffffffffffffffffffffffffffffffff1602179055506101208201518160080160146101000a81548160ff021916908315150217905550505060208201518160090155604082015181600a0155606082015181600b015f820151815f015560208201518160010155604082015181600201555050608082015181600e015f820151815f01556020820151816001015560408201518160020155505060a08201518160110155505060015f9054906101000a900473ffffffffffffffffffffffffffffffffffffffff1673ffffffffffffffffffffffffffffffffffffffff16630c6ab3fa895f8054906101000a900473ffffffffffffffffffffffffffffffffffffffff1673ffffffffffffffffffffffffffffffffffffffff16634763fbd28b61010001516040518263ffffffff1660e01b81526004016113519190613b1f565b602060405180830381865afa15801561136c573d5f803e3d5ffd5b505050506040513d601f19601f820116820180604052508101906113909190613b38565b3461139b9190613e05565b8a60a001516113aa9190613da5565b6040518363ffffffff1660e01b81526004016113c7929190613a02565b5f604051808303815f87803b1580156113de575f80fd5b505af11580156113f0573d5f803e3d5ffd5b505050508660c001518760a00151886080015161140d9190613eee565b101561141d5761141c8861292f565b5b873373ffffffffffffffffffffffffffffffffffffffff167f0627dc19242d5f3c617bd2030ba778ec1038d5ccac88b09a96d608f357398ceb85858b60c0015160405161146c9392919061418d565b60405180910390a35050505050505050565b60605f60015f9054906101000a900473ffffffffffffffffffffffffffffffffffffffff1673ffffffffffffffffffffffffffffffffffffffff1663de54d4296040518163ffffffff1660e01b8152600401602060405180830381865afa1580156114eb573d5f803e3d5ffd5b505050506040513d601f19601f8201168201806040525081019061150f9190613b38565b90505f80600190505b8281116115ec575f60015f9054906101000a900473ffffffffffffffffffffffffffffffffffffffff1673ffffffffffffffffffffffffffffffffffffffff16632b07fce3836040518263ffffffff1660e01b815260040161157a9190612da4565b5f60405180830381865afa158015611594573d5f803e3d5ffd5b505050506040513d5f823e3d601f19601f820116820180604052508101906115bc91906138e2565b9050806101200151156115d85782806115d4906141c2565b9350505b5080806115e4906141c2565b915050611518565b505f811161162f576040517f08c379a000000000000000000000000000000000000000000000000000000000815260040161162690614279565b60405180910390fd5b5f8167ffffffffffffffff81111561164a57611649613643565b5b60405190808252806020026020018201604052801561168357816020015b611670612c26565b8152602001906001900390816116685790505b5090505f80600190505b848111611806575f60015f9054906101000a900473ffffffffffffffffffffffffffffffffffffffff1673ffffffffffffffffffffffffffffffffffffffff16632b07fce3836040518263ffffffff1660e01b81526004016116ef9190612da4565b5f60405180830381865afa158015611709573d5f803e3d5ffd5b505050506040513d5f823e3d601f19601f8201168201806040525081019061173191906138e2565b9050806101200151156117f257604051806101400160405280825f01518152602001826020015181526020018260400151815260200182606001518152602001826080015181526020018260a0015181526020018260c0015181526020018260e00151815260200182610100015173ffffffffffffffffffffffffffffffffffffffff16815260200182610120015115158152508484815181106117d8576117d7613457565b5b602002602001018190525082806117ee906141c2565b9350505b5080806117fe906141c2565b91505061168d565b508194505050505090565b805f60015f9054906101000a900473ffffffffffffffffffffffffffffffffffffffff1673ffffffffffffffffffffffffffffffffffffffff16632b07fce3836040518263ffffffff1660e01b815260040161186d9190612da4565b5f60405180830381865afa158015611887573d5f803e3d5ffd5b505050506040513d5f823e3d601f19601f820116820180604052508101906118af91906138e2565b905080610100015173ffffffffffffffffffffffffffffffffffffffff163373ffffffffffffffffffffffffffffffffffffffff1614611924576040517f08c379a000000000000000000000000000000000000000000000000000000000815260040161191b906142e1565b60405180910390fd5b5f60015f9054906101000a900473ffffffffffffffffffffffffffffffffffffffff1673ffffffffffffffffffffffffffffffffffffffff16632b07fce3856040518263ffffffff1660e01b815260040161197f9190612da4565b5f60405180830381865afa158015611999573d5f803e3d5ffd5b505050506040513d5f823e3d601f19601f820116820180604052508101906119c191906138e2565b90505f805f9054906101000a900473ffffffffffffffffffffffffffffffffffffffff1673ffffffffffffffffffffffffffffffffffffffff1663dd62ed3e33306040518363ffffffff1660e01b8152600401611a1f9291906142ff565b602060405180830381865afa158015611a3a573d5f803e3d5ffd5b505050506040513d601f19601f82011682018060405250810190611a5e9190613b38565b90508160800151811015611a758360800151612833565b604051602001611a859190614406565b60405160208183030381529060405290611ad5576040517f08c379a0000000000000000000000000000000000000000000000000000000008152600401611acc9190613d1d565b60405180910390fd5b505f805f9054906101000a900473ffffffffffffffffffffffffffffffffffffffff1673ffffffffffffffffffffffffffffffffffffffff166323b872dd333086608001516040518463ffffffff1660e01b8152600401611b38939291906139a6565b6020604051808303815f875af1158015611b54573d5f803e3d5ffd5b505050506040513d601f19601f82011682018060405250810190611b789190613ec3565b905080611bba576040517f08c379a0000000000000000000000000000000000000000000000000000000008152600401611bb19061447c565b60405180910390fd5b826080015160035f8881526020019081526020015f20819055503373ffffffffffffffffffffffffffffffffffffffff167f31fe01aa97e3e611897437e7242632143c46a245d1fc9c93699d3072504fd9a18460800151604051611c1e9190612da4565b60405180910390a260015f9054906101000a900473ffffffffffffffffffffffffffffffffffffffff1673ffffffffffffffffffffffffffffffffffffffff16635b2a3646876040518263ffffffff1660e01b8152600401611c809190612da4565b5f604051808303815f87803b158015611c97575f80fd5b505af1158015611ca9573d5f803e3d5ffd5b50505050505050505050565b60605f60045f3373ffffffffffffffffffffffffffffffffffffffff1673ffffffffffffffffffffffffffffffffffffffff1681526020019081526020015f208054905011611d39576040517f08c379a0000000000000000000000000000000000000000000000000000000008152600401611d3090613439565b60405180910390fd5b5f60045f3373ffffffffffffffffffffffffffffffffffffffff1673ffffffffffffffffffffffffffffffffffffffff1681526020019081526020015f208054905011611dbb576040517f08c379a0000000000000000000000000000000000000000000000000000000008152600401611db2906144e4565b60405180910390fd5b5f60045f3373ffffffffffffffffffffffffffffffffffffffff1673ffffffffffffffffffffffffffffffffffffffff1681526020019081526020015f208054905067ffffffffffffffff811115611e1657611e15613643565b5b604051908082528060200260200182016040528015611e4f57816020015b611e3c612c89565b815260200190600190039081611e345790505b5090505f5b60045f3373ffffffffffffffffffffffffffffffffffffffff1673ffffffffffffffffffffffffffffffffffffffff1681526020019081526020015f208054905081101561218c5760045f3373ffffffffffffffffffffffffffffffffffffffff1673ffffffffffffffffffffffffffffffffffffffff1681526020019081526020015f208181548110611eeb57611eea613457565b5b905f5260205f2090601202016040518060c00160405290815f8201604051806101400160405290815f8201548152602001600182018054611f2b906134b1565b80601f0160208091040260200160405190810160405280929190818152602001828054611f57906134b1565b8015611fa25780601f10611f7957610100808354040283529160200191611fa2565b820191905f5260205f20905b815481529060010190602001808311611f8557829003601f168201915b50505050508152602001600282018054611fbb906134b1565b80601f0160208091040260200160405190810160405280929190818152602001828054611fe7906134b1565b80156120325780601f1061200957610100808354040283529160200191612032565b820191905f5260205f20905b81548152906001019060200180831161201557829003601f168201915b505050505081526020016003820154815260200160048201548152602001600582015481526020016006820154815260200160078201548152602001600882015f9054906101000a900473ffffffffffffffffffffffffffffffffffffffff1673ffffffffffffffffffffffffffffffffffffffff1673ffffffffffffffffffffffffffffffffffffffff1681526020016008820160149054906101000a900460ff161515151581525050815260200160098201548152602001600a8201548152602001600b82016040518060600160405290815f8201548152602001600182015481526020016002820154815250508152602001600e82016040518060600160405290815f820154815260200160018201548152602001600282015481525050815260200160118201548152505082828151811061217457612173613457565b5b60200260200101819052508080600101915050611e54565b508091505090565b6004602052815f5260405f2081815481106121ad575f80fd5b905f5260205f2090601202015f9150915050805f01604051806101400160405290815f82015481526020016001820180546121e7906134b1565b80601f0160208091040260200160405190810160405280929190818152602001828054612213906134b1565b801561225e5780601f106122355761010080835404028352916020019161225e565b820191905f5260205f20905b81548152906001019060200180831161224157829003601f168201915b50505050508152602001600282018054612277906134b1565b80601f01602080910402602001604051908101604052809291908181526020018280546122a3906134b1565b80156122ee5780601f106122c5576101008083540402835291602001916122ee565b820191905f5260205f20905b8154815290600101906020018083116122d157829003601f168201915b505050505081526020016003820154815260200160048201548152602001600582015481526020016006820154815260200160078201548152602001600882015f9054906101000a900473ffffffffffffffffffffffffffffffffffffffff1673ffffffffffffffffffffffffffffffffffffffff1673ffffffffffffffffffffffffffffffffffffffff1681526020016008820160149054906101000a900460ff1615151515815250509080600901549080600a01549080600b016040518060600160405290815f8201548152602001600182015481526020016002820154815250509080600e016040518060600160405290815f820154815260200160018201548152602001600282015481525050908060110154905086565b60045f8373ffffffffffffffffffffffffffffffffffffffff1673ffffffffffffffffffffffffffffffffffffffff1681526020019081526020015f2080549050811061248c576040517f08c379a00000000000000000000000000000000000000000000000000000000081526004016124839061454c565b60405180910390fd5b60045f8373ffffffffffffffffffffffffffffffffffffffff1673ffffffffffffffffffffffffffffffffffffffff1681526020019081526020015f20600160045f8573ffffffffffffffffffffffffffffffffffffffff1673ffffffffffffffffffffffffffffffffffffffff1681526020019081526020015f20805490506125169190613eee565b8154811061252757612526613457565b5b905f5260205f20906012020160045f8473ffffffffffffffffffffffffffffffffffffffff1673ffffffffffffffffffffffffffffffffffffffff1681526020019081526020015f20828154811061258257612581613457565b5b905f5260205f2090601202015f8201815f015f820154815f0155600182018160010190816125b0919061457f565b50600282018160020190816125c5919061457f565b506003820154816003015560048201548160040155600582015481600501556006820154816006015560078201548160070155600882015f9054906101000a900473ffffffffffffffffffffffffffffffffffffffff16816008015f6101000a81548173ffffffffffffffffffffffffffffffffffffffff021916908373ffffffffffffffffffffffffffffffffffffffff1602179055506008820160149054906101000a900460ff168160080160146101000a81548160ff021916908315150217905550505060098201548160090155600a82015481600a0155600b820181600b015f820154815f015560018201548160010155600282015481600201555050600e820181600e015f820154815f0155600182015481600101556002820154816002015550506011820154816011015590505060045f8373ffffffffffffffffffffffffffffffffffffffff1673ffffffffffffffffffffffffffffffffffffffff1681526020019081526020015f2080548061274657612745614664565b5b600190038181905f5260205f2090601202015f8082015f8082015f9055600182015f6127729190612cce565b600282015f6127819190612cce565b600382015f9055600482015f9055600582015f9055600682015f9055600782015f9055600882015f6101000a81549073ffffffffffffffffffffffffffffffffffffffff02191690556008820160146101000a81549060ff02191690555050600982015f9055600a82015f9055600b82015f8082015f9055600182015f9055600282015f90555050600e82015f8082015f9055600182015f9055600282015f90555050601182015f9055505090555050565b60605f6001612841846129b9565b0190505f8167ffffffffffffffff81111561285f5761285e613643565b5b6040519080825280601f01601f1916602001820160405280156128915781602001600182028036833780820191505090505b5090505f82602001820190505b6001156128f2578080600190039150507f3031323334353637383961626364656600000000000000000000000000000000600a86061a8153600a85816128e7576128e6613dd8565b5b0494505f850361289e575b819350505050919050565b5f805f61291c62015180858161291657612915613dd8565b5b04612b0a565b8093508194508295505050509193909250565b60015f9054906101000a900473ffffffffffffffffffffffffffffffffffffffff1673ffffffffffffffffffffffffffffffffffffffff166322191f72826040518263ffffffff1660e01b81526004016129899190612da4565b5f604051808303815f87803b1580156129a0575f80fd5b505af11580156129b2573d5f803e3d5ffd5b5050505050565b5f805f90507a184f03e93ff9f4daa797ed6e38ed64bf6a1f0100000000000000008310612a15577a184f03e93ff9f4daa797ed6e38ed64bf6a1f0100000000000000008381612a0b57612a0a613dd8565b5b0492506040810190505b6d04ee2d6d415b85acef81000000008310612a52576d04ee2d6d415b85acef81000000008381612a4857612a47613dd8565b5b0492506020810190505b662386f26fc100008310612a8157662386f26fc100008381612a7757612a76613dd8565b5b0492506010810190505b6305f5e1008310612aaa576305f5e1008381612aa057612a9f613dd8565b5b0492506008810190505b6127108310612acf576127108381612ac557612ac4613dd8565b5b0492506004810190505b60648310612af25760648381612ae857612ae7613dd8565b5b0492506002810190505b600a8310612b01576001810190505b80915050919050565b5f805f808490505f62253d8c62010bd983010190505f62023ab18260040281612b3657612b35613dd8565b5b059050600460038262023ab1020181612b5257612b51613dd8565b5b05820391505f62164b0960018401610fa00281612b7257612b71613dd8565b5b059050601f6004826105b50281612b8c57612b8b613dd8565b5b0584030192505f61098f8460500281612ba857612ba7613dd8565b5b0590505f60508261098f0281612bc157612bc0613dd8565b5b0585039050600b8281612bd757612bd6613dd8565b5b05945084600c0260028301039150848360318603606402010192508298508197508096505050505050509193909250565b60405180606001604052805f81526020015f81526020015f81525090565b6040518061014001604052805f815260200160608152602001606081526020015f81526020015f81526020015f81526020015f81526020015f81526020015f73ffffffffffffffffffffffffffffffffffffffff1681526020015f151581525090565b6040518060c00160405280612c9c612c26565b81526020015f81526020015f8152602001612cb5612c08565b8152602001612cc2612c08565b81526020015f81525090565b508054612cda906134b1565b5f825580601f10612ceb5750612d08565b601f0160209004905f5260205f2090810190612d079190612d0b565b5b50565b5b80821115612d22575f815f905550600101612d0c565b5090565b5f604051905090565b5f80fd5b5f80fd5b5f819050919050565b612d4981612d37565b8114612d53575f80fd5b50565b5f81359050612d6481612d40565b92915050565b5f60208284031215612d7f57612d7e612d2f565b5b5f612d8c84828501612d56565b91505092915050565b612d9e81612d37565b82525050565b5f602082019050612db75f830184612d95565b92915050565b5f81519050919050565b5f82825260208201905092915050565b5f819050602082019050919050565b612def81612d37565b82525050565b5f81519050919050565b5f82825260208201905092915050565b8281835e5f83830152505050565b5f601f19601f8301169050919050565b5f612e3782612df5565b612e418185612dff565b9350612e51818560208601612e0f565b612e5a81612e1d565b840191505092915050565b5f73ffffffffffffffffffffffffffffffffffffffff82169050919050565b5f612e8e82612e65565b9050919050565b612e9e81612e84565b82525050565b5f8115159050919050565b612eb881612ea4565b82525050565b5f61014083015f830151612ed45f860182612de6565b5060208301518482036020860152612eec8282612e2d565b91505060408301518482036040860152612f068282612e2d565b9150506060830151612f1b6060860182612de6565b506080830151612f2e6080860182612de6565b5060a0830151612f4160a0860182612de6565b5060c0830151612f5460c0860182612de6565b5060e0830151612f6760e0860182612de6565b50610100830151612f7c610100860182612e95565b50610120830151612f91610120860182612eaf565b508091505092915050565b5f612fa78383612ebe565b905092915050565b5f602082019050919050565b5f612fc582612dbd565b612fcf8185612dc7565b935083602082028501612fe185612dd7565b805f5b8581101561301c5784840389528151612ffd8582612f9c565b945061300883612faf565b925060208a01995050600181019050612fe4565b50829750879550505050505092915050565b5f6020820190508181035f8301526130468184612fbb565b905092915050565b5f81519050919050565b5f82825260208201905092915050565b5f819050602082019050919050565b606082015f82015161308b5f850182612de6565b50602082015161309e6020850182612de6565b5060408201516130b16040850182612de6565b50505050565b5f61014083015f8301518482035f8601526130d28282612ebe565b91505060208301516130e76020860182612de6565b5060408301516130fa6040860182612de6565b50606083015161310d6060860182613077565b50608083015161312060c0860182613077565b5060a0830151613134610120860182612de6565b508091505092915050565b5f61314a83836130b7565b905092915050565b5f602082019050919050565b5f6131688261304e565b6131728185613058565b93508360208202850161318485613068565b805f5b858110156131bf57848403895281516131a0858261313f565b94506131ab83613152565b925060208a01995050600181019050613187565b50829750879550505050505092915050565b5f6020820190508181035f8301526131e9818461315e565b905092915050565b6131fa81612e84565b8114613204575f80fd5b50565b5f81359050613215816131f1565b92915050565b5f806040838503121561323157613230612d2f565b5b5f61323e85828601613207565b925050602061324f85828601612d56565b9150509250929050565b5f61014083015f83015161326f5f860182612de6565b50602083015184820360208601526132878282612e2d565b915050604083015184820360408601526132a18282612e2d565b91505060608301516132b66060860182612de6565b5060808301516132c96080860182612de6565b5060a08301516132dc60a0860182612de6565b5060c08301516132ef60c0860182612de6565b5060e083015161330260e0860182612de6565b50610100830151613317610100860182612e95565b5061012083015161332c610120860182612eaf565b508091505092915050565b606082015f82015161334b5f850182612de6565b50602082015161335e6020850182612de6565b5060408201516133716040850182612de6565b50505050565b5f610140820190508181035f8301526133908189613259565b905061339f6020830188612d95565b6133ac6040830187612d95565b6133b96060830186613337565b6133c660c0830185613337565b6133d4610120830184612d95565b979650505050505050565b5f82825260208201905092915050565b7f596f7520617265206e6f74206120706f6c696379686f6c6465720000000000005f82015250565b5f613423601a836133df565b915061342e826133ef565b602082019050919050565b5f6020820190508181035f83015261345081613417565b9050919050565b7f4e487b71000000000000000000000000000000000000000000000000000000005f52603260045260245ffd5b7f4e487b71000000000000000000000000000000000000000000000000000000005f52602260045260245ffd5b5f60028204905060018216806134c857607f821691505b6020821081036134db576134da613484565b5b50919050565b7f5468697320706f6c696379206973206e6f74206163746976652e0000000000005f82015250565b5f613515601a836133df565b9150613520826134e1565b602082019050919050565b5f6020820190508181035f83015261354281613509565b9050919050565b7f596f752068617665206e6f7420626f75676874207468697320706f6c696379215f82015250565b5f61357d6020836133df565b915061358882613549565b602082019050919050565b5f6020820190508181035f8301526135aa81613571565b9050919050565b7f596f7520646f206e6f74206f776e20746f6b656e7320666f72207468697320705f8201527f6f6c696379210000000000000000000000000000000000000000000000000000602082015250565b5f61360b6026836133df565b9150613616826135b1565b604082019050919050565b5f6020820190508181035f830152613638816135ff565b9050919050565b5f80fd5b7f4e487b71000000000000000000000000000000000000000000000000000000005f52604160045260245ffd5b61367982612e1d565b810181811067ffffffffffffffff8211171561369857613697613643565b5b80604052505050565b5f6136aa612d26565b90506136b68282613670565b919050565b5f80fd5b5f815190506136cd81612d40565b92915050565b5f80fd5b5f80fd5b5f67ffffffffffffffff8211156136f5576136f4613643565b5b6136fe82612e1d565b9050602081019050919050565b5f61371d613718846136db565b6136a1565b905082815260208101848484011115613739576137386136d7565b5b613744848285612e0f565b509392505050565b5f82601f8301126137605761375f6136d3565b5b815161377084826020860161370b565b91505092915050565b5f81519050613787816131f1565b92915050565b61379681612ea4565b81146137a0575f80fd5b50565b5f815190506137b18161378d565b92915050565b5f61014082840312156137cd576137cc61363f565b5b6137d86101406136a1565b90505f6137e7848285016136bf565b5f83015250602082015167ffffffffffffffff81111561380a576138096136bb565b5b6138168482850161374c565b602083015250604082015167ffffffffffffffff81111561383a576138396136bb565b5b6138468482850161374c565b604083015250606061385a848285016136bf565b606083015250608061386e848285016136bf565b60808301525060a0613882848285016136bf565b60a08301525060c0613896848285016136bf565b60c08301525060e06138aa848285016136bf565b60e0830152506101006138bf84828501613779565b610100830152506101206138d5848285016137a3565b6101208301525092915050565b5f602082840312156138f7576138f6612d2f565b5b5f82015167ffffffffffffffff81111561391457613913612d33565b5b613920848285016137b7565b91505092915050565b7f4e487b71000000000000000000000000000000000000000000000000000000005f52601160045260245ffd5b5f61396082612d37565b915061396b83612d37565b925082820261397981612d37565b915082820484148315176139905761398f613929565b5b5092915050565b6139a081612e84565b82525050565b5f6060820190506139b95f830186613997565b6139c66020830185613997565b6139d36040830184612d95565b949350505050565b5f6040820190506139ee5f830185613997565b6139fb6020830184612d95565b9392505050565b5f604082019050613a155f830185612d95565b613a226020830184612d95565b9392505050565b7f596f752063616e6e6f7420627579206120706f6c6963792074686174206861735f8201527f206e6f74206265656e206c697374656421000000000000000000000000000000602082015250565b5f613a836031836133df565b9150613a8e82613a29565b604082019050919050565b5f6020820190508181035f830152613ab081613a77565b9050919050565b7f596f752063616e6e6f742062757920796f7572206f776e20706f6c69637900005f82015250565b5f613aeb601e836133df565b9150613af682613ab7565b602082019050919050565b5f6020820190508181035f830152613b1881613adf565b9050919050565b5f602082019050613b325f830184613997565b92915050565b5f60208284031215613b4d57613b4c612d2f565b5b5f613b5a848285016136bf565b91505092915050565b5f81905092915050565b7f596f75206e65656420746f20706179206174206c6561737420746865207072655f8201527f6d69756d206f6620000000000000000000000000000000000000000000000000602082015250565b5f613bc7602883613b63565b9150613bd282613b6d565b602882019050919050565b5f613be782612df5565b613bf18185613b63565b9350613c01818560208601612e0f565b80840191505092915050565b7f207765692c206275742070726f766964656420000000000000000000000000005f82015250565b5f613c41601383613b63565b9150613c4c82613c0d565b601382019050919050565b7f207765692e0000000000000000000000000000000000000000000000000000005f82015250565b5f613c8b600583613b63565b9150613c9682613c57565b600582019050919050565b5f613cab82613bbb565b9150613cb78285613bdd565b9150613cc282613c35565b9150613cce8284613bdd565b9150613cd982613c7f565b91508190509392505050565b5f613cef82612df5565b613cf981856133df565b9350613d09818560208601612e0f565b613d1281612e1d565b840191505092915050565b5f6020820190508181035f830152613d358184613ce5565b905092915050565b7f506f6c69637920636170616369747920657863656564656400000000000000005f82015250565b5f613d716018836133df565b9150613d7c82613d3d565b602082019050919050565b5f6020820190508181035f830152613d9e81613d65565b9050919050565b5f613daf82612d37565b9150613dba83612d37565b9250828201905080821115613dd257613dd1613929565b5b92915050565b7f4e487b71000000000000000000000000000000000000000000000000000000005f52601260045260245ffd5b5f613e0f82612d37565b9150613e1a83612d37565b925082613e2a57613e29613dd8565b5b828204905092915050565b7f496e73756666696369656e7420746f6b656e73206c65667420746f2070726f765f8201527f6964652000000000000000000000000000000000000000000000000000000000602082015250565b5f613e8f6024836133df565b9150613e9a82613e35565b604082019050919050565b5f6020820190508181035f830152613ebc81613e83565b9050919050565b5f60208284031215613ed857613ed7612d2f565b5b5f613ee5848285016137a3565b91505092915050565b5f613ef882612d37565b9150613f0383612d37565b9250828203905081811115613f1b57613f1a613929565b5b92915050565b5f819050815f5260205f209050919050565b5f6020601f8301049050919050565b5f82821b905092915050565b5f60088302613f7d7fffffffffffffffffffffffffffffffffffffffffffffffffffffffffffffffff82613f42565b613f878683613f42565b95508019841693508086168417925050509392505050565b5f819050919050565b5f613fc2613fbd613fb884612d37565b613f9f565b612d37565b9050919050565b5f819050919050565b613fdb83613fa8565b613fef613fe782613fc9565b848454613f4e565b825550505050565b5f90565b614003613ff7565b61400e818484613fd2565b505050565b5b81811015614031576140265f82613ffb565b600181019050614014565b5050565b601f8211156140765761404781613f21565b61405084613f33565b8101602085101561405f578190505b61407361406b85613f33565b830182614013565b50505b505050565b5f82821c905092915050565b5f6140965f198460080261407b565b1980831691505092915050565b5f6140ae8383614087565b9150826002028217905092915050565b6140c782612df5565b67ffffffffffffffff8111156140e0576140df613643565b5b6140ea82546134b1565b6140f5828285614035565b5f60209050601f831160018114614126575f8415614114578287015190505b61411e85826140a3565b865550614185565b601f19841661413486613f21565b5f5b8281101561415b57848901518255600182019150602085019450602081019050614136565b868310156141785784890151614174601f891682614087565b8355505b6001600288020188555050505b505050505050565b5f60e0820190506141a05f830186613337565b6141ad6060830185613337565b6141ba60c0830184612d95565b949350505050565b5f6141cc82612d37565b91507fffffffffffffffffffffffffffffffffffffffffffffffffffffffffffffffff82036141fe576141fd613929565b5b600182019050919050565b7f5468657265206172652063757272656e746c79206e6f206c697374656420706f5f8201527f6c696369657320746f2062757900000000000000000000000000000000000000602082015250565b5f614263602d836133df565b915061426e82614209565b604082019050919050565b5f6020820190508181035f83015261429081614257565b9050919050565b7f596f7520646f206e6f74206f776e207468697320706f6c6963790000000000005f82015250565b5f6142cb601a836133df565b91506142d682614297565b602082019050919050565b5f6020820190508181035f8301526142f8816142bf565b9050919050565b5f6040820190506143125f830185613997565b61431f6020830184613997565b9392505050565b7f596f75206e65656420746f20617070726f766520746865206d61726b6574706c5f8201527f61636520746f207370656e642000000000000000000000000000000000000000602082015250565b5f614380602d83613b63565b915061438b82614326565b602d82019050919050565b7f206d617820706f6f6c2076616c756520746f6b656e73206f6e20796f757220625f8201527f6568616c6620666f72207468697320706f6c6963792e00000000000000000000602082015250565b5f6143f0603683613b63565b91506143fb82614396565b603682019050919050565b5f61441082614374565b915061441c8284613bdd565b9150614427826143e4565b915081905092915050565b7f546f6b656e207472616e73666572206661696c65642e000000000000000000005f82015250565b5f6144666016836133df565b915061447182614432565b602082019050919050565b5f6020820190508181035f8301526144938161445a565b9050919050565b7f596f7520646f6e2774206f776e20616e7920706f6c69636965730000000000005f82015250565b5f6144ce601a836133df565b91506144d98261449a565b602082019050919050565b5f6020820190508181035f8301526144fb816144c2565b9050919050565b7f496e646578206f7574206f6620626f756e6473000000000000000000000000005f82015250565b5f6145366013836133df565b915061454182614502565b602082019050919050565b5f6020820190508181035f8301526145638161452a565b9050919050565b5f81549050614578816134b1565b9050919050565b81810361458d575050614662565b6145968261456a565b67ffffffffffffffff8111156145af576145ae613643565b5b6145b982546134b1565b6145c4828285614035565b5f601f8311600181146145f1575f84156145df578287015490505b6145e985826140a3565b86555061465b565b601f1984166145ff87613f21565b965061460a86613f21565b5f5b828110156146315784890154825560018201915060018501945060208101905061460c565b8683101561464e578489015461464a601f891682614087565b8355505b6001600288020188555050505b5050505050505b565b7f4e487b71000000000000000000000000000000000000000000000000000000005f52603160045260245ffdfea264697066735822122028f87728eec52d5fe8731996246476bbeadef63316e48cd8767bc076768014f264736f6c634300081a0033",
			"opcodes": "PUSH1 0x80 PUSH1 0x40 MSTORE TIMESTAMP PUSH1 0x2 SSTORE CALLVALUE DUP1 ISZERO PUSH2 0x13 JUMPI PUSH0 DUP1 REVERT JUMPDEST POP PUSH1 0x40 MLOAD PUSH2 0x4877 CODESIZE SUB DUP1 PUSH2 0x4877 DUP4 CODECOPY DUP2 DUP2 ADD PUSH1 0x40 MSTORE DUP2 ADD SWAP1 PUSH2 0x35 SWAP2 SWAP1 PUSH2 0x165 JUMP JUMPDEST DUP2 PUSH0 DUP1 PUSH2 0x100 EXP DUP2 SLOAD DUP2 PUSH20 0xFFFFFFFFFFFFFFFFFFFFFFFFFFFFFFFFFFFFFFFF MUL NOT AND SWAP1 DUP4 PUSH20 0xFFFFFFFFFFFFFFFFFFFFFFFFFFFFFFFFFFFFFFFF AND MUL OR SWAP1 SSTORE POP DUP1 PUSH1 0x1 PUSH0 PUSH2 0x100 EXP DUP2 SLOAD DUP2 PUSH20 0xFFFFFFFFFFFFFFFFFFFFFFFFFFFFFFFFFFFFFFFF MUL NOT AND SWAP1 DUP4 PUSH20 0xFFFFFFFFFFFFFFFFFFFFFFFFFFFFFFFFFFFFFFFF AND MUL OR SWAP1 SSTORE POP POP POP PUSH2 0x1A3 JUMP JUMPDEST PUSH0 DUP1 REVERT JUMPDEST PUSH0 PUSH20 0xFFFFFFFFFFFFFFFFFFFFFFFFFFFFFFFFFFFFFFFF DUP3 AND SWAP1 POP SWAP2 SWAP1 POP JUMP JUMPDEST PUSH0 PUSH2 0xE8 DUP3 PUSH2 0xBF JUMP JUMPDEST SWAP1 POP SWAP2 SWAP1 POP JUMP JUMPDEST PUSH0 PUSH2 0xF9 DUP3 PUSH2 0xDE JUMP JUMPDEST SWAP1 POP SWAP2 SWAP1 POP JUMP JUMPDEST PUSH2 0x109 DUP2 PUSH2 0xEF JUMP JUMPDEST DUP2 EQ PUSH2 0x113 JUMPI PUSH0 DUP1 REVERT JUMPDEST POP JUMP JUMPDEST PUSH0 DUP2 MLOAD SWAP1 POP PUSH2 0x124 DUP2 PUSH2 0x100 JUMP JUMPDEST SWAP3 SWAP2 POP POP JUMP JUMPDEST PUSH0 PUSH2 0x134 DUP3 PUSH2 0xDE JUMP JUMPDEST SWAP1 POP SWAP2 SWAP1 POP JUMP JUMPDEST PUSH2 0x144 DUP2 PUSH2 0x12A JUMP JUMPDEST DUP2 EQ PUSH2 0x14E JUMPI PUSH0 DUP1 REVERT JUMPDEST POP JUMP JUMPDEST PUSH0 DUP2 MLOAD SWAP1 POP PUSH2 0x15F DUP2 PUSH2 0x13B JUMP JUMPDEST SWAP3 SWAP2 POP POP JUMP JUMPDEST PUSH0 DUP1 PUSH1 0x40 DUP4 DUP6 SUB SLT ISZERO PUSH2 0x17B JUMPI PUSH2 0x17A PUSH2 0xBB JUMP JUMPDEST JUMPDEST PUSH0 PUSH2 0x188 DUP6 DUP3 DUP7 ADD PUSH2 0x116 JUMP JUMPDEST SWAP3 POP POP PUSH1 0x20 PUSH2 0x199 DUP6 DUP3 DUP7 ADD PUSH2 0x151 JUMP JUMPDEST SWAP2 POP POP SWAP3 POP SWAP3 SWAP1 POP JUMP JUMPDEST PUSH2 0x46C7 DUP1 PUSH2 0x1B0 PUSH0 CODECOPY PUSH0 RETURN INVALID PUSH1 0x80 PUSH1 0x40 MSTORE PUSH1 0x4 CALLDATASIZE LT PUSH2 0x6F JUMPI PUSH0 CALLDATALOAD PUSH1 0xE0 SHR DUP1 PUSH4 0x9D61DBA8 GT PUSH2 0x4D JUMPI DUP1 PUSH4 0x9D61DBA8 EQ PUSH2 0xF3 JUMPI DUP1 PUSH4 0xA56CF067 EQ PUSH2 0x11D JUMPI DUP1 PUSH4 0xAC5D8185 EQ PUSH2 0x145 JUMPI DUP1 PUSH4 0xBB529068 EQ PUSH2 0x16F JUMPI PUSH2 0x6F JUMP JUMPDEST DUP1 PUSH4 0x744B4E3 EQ PUSH2 0x73 JUMPI DUP1 PUSH4 0x2AEA118D EQ PUSH2 0xAF JUMPI DUP1 PUSH4 0x79C88894 EQ PUSH2 0xD7 JUMPI JUMPDEST PUSH0 DUP1 REVERT JUMPDEST CALLVALUE DUP1 ISZERO PUSH2 0x7E JUMPI PUSH0 DUP1 REVERT JUMPDEST POP PUSH2 0x99 PUSH1 0x4 DUP1 CALLDATASIZE SUB DUP2 ADD SWAP1 PUSH2 0x94 SWAP2 SWAP1 PUSH2 0x2D6A JUMP JUMPDEST PUSH2 0x1B0 JUMP JUMPDEST PUSH1 0x40 MLOAD PUSH2 0xA6 SWAP2 SWAP1 PUSH2 0x2DA4 JUMP JUMPDEST PUSH1 0x40 MLOAD DUP1 SWAP2 SUB SWAP1 RETURN JUMPDEST CALLVALUE DUP1 ISZERO PUSH2 0xBA JUMPI PUSH0 DUP1 REVERT JUMPDEST POP PUSH2 0xD5 PUSH1 0x4 DUP1 CALLDATASIZE SUB DUP2 ADD SWAP1 PUSH2 0xD0 SWAP2 SWAP1 PUSH2 0x2D6A JUMP JUMPDEST PUSH2 0x1C5 JUMP JUMPDEST STOP JUMPDEST PUSH2 0xF1 PUSH1 0x4 DUP1 CALLDATASIZE SUB DUP2 ADD SWAP1 PUSH2 0xEC SWAP2 SWAP1 PUSH2 0x2D6A JUMP JUMPDEST PUSH2 0x9F3 JUMP JUMPDEST STOP JUMPDEST CALLVALUE DUP1 ISZERO PUSH2 0xFE JUMPI PUSH0 DUP1 REVERT JUMPDEST POP PUSH2 0x107 PUSH2 0x147E JUMP JUMPDEST PUSH1 0x40 MLOAD PUSH2 0x114 SWAP2 SWAP1 PUSH2 0x302E JUMP JUMPDEST PUSH1 0x40 MLOAD DUP1 SWAP2 SUB SWAP1 RETURN JUMPDEST CALLVALUE DUP1 ISZERO PUSH2 0x128 JUMPI PUSH0 DUP1 REVERT JUMPDEST POP PUSH2 0x143 PUSH1 0x4 DUP1 CALLDATASIZE SUB DUP2 ADD SWAP1 PUSH2 0x13E SWAP2 SWAP1 PUSH2 0x2D6A JUMP JUMPDEST PUSH2 0x1811 JUMP JUMPDEST STOP JUMPDEST CALLVALUE DUP1 ISZERO PUSH2 0x150 JUMPI PUSH0 DUP1 REVERT JUMPDEST POP PUSH2 0x159 PUSH2 0x1CB5 JUMP JUMPDEST PUSH1 0x40 MLOAD PUSH2 0x166 SWAP2 SWAP1 PUSH2 0x31D1 JUMP JUMPDEST PUSH1 0x40 MLOAD DUP1 SWAP2 SUB SWAP1 RETURN JUMPDEST CALLVALUE DUP1 ISZERO PUSH2 0x17A JUMPI PUSH0 DUP1 REVERT JUMPDEST POP PUSH2 0x195 PUSH1 0x4 DUP1 CALLDATASIZE SUB DUP2 ADD SWAP1 PUSH2 0x190 SWAP2 SWAP1 PUSH2 0x321B JUMP JUMPDEST PUSH2 0x2194 JUMP JUMPDEST PUSH1 0x40 MLOAD PUSH2 0x1A7 SWAP7 SWAP6 SWAP5 SWAP4 SWAP3 SWAP2 SWAP1 PUSH2 0x3377 JUMP JUMPDEST PUSH1 0x40 MLOAD DUP1 SWAP2 SUB SWAP1 RETURN JUMPDEST PUSH1 0x3 PUSH1 0x20 MSTORE DUP1 PUSH0 MSTORE PUSH1 0x40 PUSH0 KECCAK256 PUSH0 SWAP2 POP SWAP1 POP SLOAD DUP2 JUMP JUMPDEST PUSH0 PUSH1 0x4 PUSH0 CALLER PUSH20 0xFFFFFFFFFFFFFFFFFFFFFFFFFFFFFFFFFFFFFFFF AND PUSH20 0xFFFFFFFFFFFFFFFFFFFFFFFFFFFFFFFFFFFFFFFF AND DUP2 MSTORE PUSH1 0x20 ADD SWAP1 DUP2 MSTORE PUSH1 0x20 ADD PUSH0 KECCAK256 DUP1 SLOAD SWAP1 POP GT PUSH2 0x247 JUMPI PUSH1 0x40 MLOAD PUSH32 0x8C379A000000000000000000000000000000000000000000000000000000000 DUP2 MSTORE PUSH1 0x4 ADD PUSH2 0x23E SWAP1 PUSH2 0x3439 JUMP JUMPDEST PUSH1 0x40 MLOAD DUP1 SWAP2 SUB SWAP1 REVERT JUMPDEST DUP1 PUSH0 DUP1 JUMPDEST PUSH1 0x4 PUSH0 CALLER PUSH20 0xFFFFFFFFFFFFFFFFFFFFFFFFFFFFFFFFFFFFFFFF AND PUSH20 0xFFFFFFFFFFFFFFFFFFFFFFFFFFFFFFFFFFFFFFFF AND DUP2 MSTORE PUSH1 0x20 ADD SWAP1 DUP2 MSTORE PUSH1 0x20 ADD PUSH0 KECCAK256 DUP1 SLOAD SWAP1 POP DUP2 LT ISZERO PUSH2 0x5E7 JUMPI DUP3 PUSH1 0x4 PUSH0 CALLER PUSH20 0xFFFFFFFFFFFFFFFFFFFFFFFFFFFFFFFFFFFFFFFF AND PUSH20 0xFFFFFFFFFFFFFFFFFFFFFFFFFFFFFFFFFFFFFFFF AND DUP2 MSTORE PUSH1 0x20 ADD SWAP1 DUP2 MSTORE PUSH1 0x20 ADD PUSH0 KECCAK256 DUP3 DUP2 SLOAD DUP2 LT PUSH2 0x2E3 JUMPI PUSH2 0x2E2 PUSH2 0x3457 JUMP JUMPDEST JUMPDEST SWAP1 PUSH0 MSTORE PUSH1 0x20 PUSH0 KECCAK256 SWAP1 PUSH1 0x12 MUL ADD PUSH0 ADD PUSH0 ADD SLOAD SUB PUSH2 0x5DA JUMPI PUSH0 PUSH1 0x4 PUSH0 CALLER PUSH20 0xFFFFFFFFFFFFFFFFFFFFFFFFFFFFFFFFFFFFFFFF AND PUSH20 0xFFFFFFFFFFFFFFFFFFFFFFFFFFFFFFFFFFFFFFFF AND DUP2 MSTORE PUSH1 0x20 ADD SWAP1 DUP2 MSTORE PUSH1 0x20 ADD PUSH0 KECCAK256 DUP3 DUP2 SLOAD DUP2 LT PUSH2 0x349 JUMPI PUSH2 0x348 PUSH2 0x3457 JUMP JUMPDEST JUMPDEST SWAP1 PUSH0 MSTORE PUSH1 0x20 PUSH0 KECCAK256 SWAP1 PUSH1 0x12 MUL ADD PUSH1 0x40 MLOAD DUP1 PUSH1 0xC0 ADD PUSH1 0x40 MSTORE SWAP1 DUP2 PUSH0 DUP3 ADD PUSH1 0x40 MLOAD DUP1 PUSH2 0x140 ADD PUSH1 0x40 MSTORE SWAP1 DUP2 PUSH0 DUP3 ADD SLOAD DUP2 MSTORE PUSH1 0x20 ADD PUSH1 0x1 DUP3 ADD DUP1 SLOAD PUSH2 0x389 SWAP1 PUSH2 0x34B1 JUMP JUMPDEST DUP1 PUSH1 0x1F ADD PUSH1 0x20 DUP1 SWAP2 DIV MUL PUSH1 0x20 ADD PUSH1 0x40 MLOAD SWAP1 DUP2 ADD PUSH1 0x40 MSTORE DUP1 SWAP3 SWAP2 SWAP1 DUP2 DUP2 MSTORE PUSH1 0x20 ADD DUP3 DUP1 SLOAD PUSH2 0x3B5 SWAP1 PUSH2 0x34B1 JUMP JUMPDEST DUP1 ISZERO PUSH2 0x400 JUMPI DUP1 PUSH1 0x1F LT PUSH2 0x3D7 JUMPI PUSH2 0x100 DUP1 DUP4 SLOAD DIV MUL DUP4 MSTORE SWAP2 PUSH1 0x20 ADD SWAP2 PUSH2 0x400 JUMP JUMPDEST DUP3 ADD SWAP2 SWAP1 PUSH0 MSTORE PUSH1 0x20 PUSH0 KECCAK256 SWAP1 JUMPDEST DUP2 SLOAD DUP2 MSTORE SWAP1 PUSH1 0x1 ADD SWAP1 PUSH1 0x20 ADD DUP1 DUP4 GT PUSH2 0x3E3 JUMPI DUP3 SWAP1 SUB PUSH1 0x1F AND DUP3 ADD SWAP2 JUMPDEST POP POP POP POP POP DUP2 MSTORE PUSH1 0x20 ADD PUSH1 0x2 DUP3 ADD DUP1 SLOAD PUSH2 0x419 SWAP1 PUSH2 0x34B1 JUMP JUMPDEST DUP1 PUSH1 0x1F ADD PUSH1 0x20 DUP1 SWAP2 DIV MUL PUSH1 0x20 ADD PUSH1 0x40 MLOAD SWAP1 DUP2 ADD PUSH1 0x40 MSTORE DUP1 SWAP3 SWAP2 SWAP1 DUP2 DUP2 MSTORE PUSH1 0x20 ADD DUP3 DUP1 SLOAD PUSH2 0x445 SWAP1 PUSH2 0x34B1 JUMP JUMPDEST DUP1 ISZERO PUSH2 0x490 JUMPI DUP1 PUSH1 0x1F LT PUSH2 0x467 JUMPI PUSH2 0x100 DUP1 DUP4 SLOAD DIV MUL DUP4 MSTORE SWAP2 PUSH1 0x20 ADD SWAP2 PUSH2 0x490 JUMP JUMPDEST DUP3 ADD SWAP2 SWAP1 PUSH0 MSTORE PUSH1 0x20 PUSH0 KECCAK256 SWAP1 JUMPDEST DUP2 SLOAD DUP2 MSTORE SWAP1 PUSH1 0x1 ADD SWAP1 PUSH1 0x20 ADD DUP1 DUP4 GT PUSH2 0x473 JUMPI DUP3 SWAP1 SUB PUSH1 0x1F AND DUP3 ADD SWAP2 JUMPDEST POP POP POP POP POP DUP2 MSTORE PUSH1 0x20 ADD PUSH1 0x3 DUP3 ADD SLOAD DUP2 MSTORE PUSH1 0x20 ADD PUSH1 0x4 DUP3 ADD SLOAD DUP2 MSTORE PUSH1 0x20 ADD PUSH1 0x5 DUP3 ADD SLOAD DUP2 MSTORE PUSH1 0x20 ADD PUSH1 0x6 DUP3 ADD SLOAD DUP2 MSTORE PUSH1 0x20 ADD PUSH1 0x7 DUP3 ADD SLOAD DUP2 MSTORE PUSH1 0x20 ADD PUSH1 0x8 DUP3 ADD PUSH0 SWAP1 SLOAD SWAP1 PUSH2 0x100 EXP SWAP1 DIV PUSH20 0xFFFFFFFFFFFFFFFFFFFFFFFFFFFFFFFFFFFFFFFF AND PUSH20 0xFFFFFFFFFFFFFFFFFFFFFFFFFFFFFFFFFFFFFFFF AND PUSH20 0xFFFFFFFFFFFFFFFFFFFFFFFFFFFFFFFFFFFFFFFF AND DUP2 MSTORE PUSH1 0x20 ADD PUSH1 0x8 DUP3 ADD PUSH1 0x14 SWAP1 SLOAD SWAP1 PUSH2 0x100 EXP SWAP1 DIV PUSH1 0xFF AND ISZERO ISZERO ISZERO ISZERO DUP2 MSTORE POP POP DUP2 MSTORE PUSH1 0x20 ADD PUSH1 0x9 DUP3 ADD SLOAD DUP2 MSTORE PUSH1 0x20 ADD PUSH1 0xA DUP3 ADD SLOAD DUP2 MSTORE PUSH1 0x20 ADD PUSH1 0xB DUP3 ADD PUSH1 0x40 MLOAD DUP1 PUSH1 0x60 ADD PUSH1 0x40 MSTORE SWAP1 DUP2 PUSH0 DUP3 ADD SLOAD DUP2 MSTORE PUSH1 0x20 ADD PUSH1 0x1 DUP3 ADD SLOAD DUP2 MSTORE PUSH1 0x20 ADD PUSH1 0x2 DUP3 ADD SLOAD DUP2 MSTORE POP POP DUP2 MSTORE PUSH1 0x20 ADD PUSH1 0xE DUP3 ADD PUSH1 0x40 MLOAD DUP1 PUSH1 0x60 ADD PUSH1 0x40 MSTORE SWAP1 DUP2 PUSH0 DUP3 ADD SLOAD DUP2 MSTORE PUSH1 0x20 ADD PUSH1 0x1 DUP3 ADD SLOAD DUP2 MSTORE PUSH1 0x20 ADD PUSH1 0x2 DUP3 ADD SLOAD DUP2 MSTORE POP POP DUP2 MSTORE PUSH1 0x20 ADD PUSH1 0x11 DUP3 ADD SLOAD DUP2 MSTORE POP POP SWAP1 POP TIMESTAMP DUP2 PUSH1 0x40 ADD MLOAD GT PUSH2 0x5D0 JUMPI PUSH0 DUP1 REVERT JUMPDEST PUSH1 0x1 SWAP3 POP POP PUSH2 0x5E7 JUMP JUMPDEST DUP1 DUP1 PUSH1 0x1 ADD SWAP2 POP POP PUSH2 0x24B JUMP JUMPDEST POP DUP1 PUSH2 0x628 JUMPI PUSH1 0x40 MLOAD PUSH32 0x8C379A000000000000000000000000000000000000000000000000000000000 DUP2 MSTORE PUSH1 0x4 ADD PUSH2 0x61F SWAP1 PUSH2 0x352B JUMP JUMPDEST PUSH1 0x40 MLOAD DUP1 SWAP2 SUB SWAP1 REVERT JUMPDEST PUSH0 DUP1 PUSH0 JUMPDEST PUSH1 0x4 PUSH0 CALLER PUSH20 0xFFFFFFFFFFFFFFFFFFFFFFFFFFFFFFFFFFFFFFFF AND PUSH20 0xFFFFFFFFFFFFFFFFFFFFFFFFFFFFFFFFFFFFFFFF AND DUP2 MSTORE PUSH1 0x20 ADD SWAP1 DUP2 MSTORE PUSH1 0x20 ADD PUSH0 KECCAK256 DUP1 SLOAD SWAP1 POP DUP2 LT ISZERO PUSH2 0x6F3 JUMPI DUP6 PUSH1 0x4 PUSH0 CALLER PUSH20 0xFFFFFFFFFFFFFFFFFFFFFFFFFFFFFFFFFFFFFFFF AND PUSH20 0xFFFFFFFFFFFFFFFFFFFFFFFFFFFFFFFFFFFFFFFF AND DUP2 MSTORE PUSH1 0x20 ADD SWAP1 DUP2 MSTORE PUSH1 0x20 ADD PUSH0 KECCAK256 DUP3 DUP2 SLOAD DUP2 LT PUSH2 0x6C4 JUMPI PUSH2 0x6C3 PUSH2 0x3457 JUMP JUMPDEST JUMPDEST SWAP1 PUSH0 MSTORE PUSH1 0x20 PUSH0 KECCAK256 SWAP1 PUSH1 0x12 MUL ADD PUSH0 ADD PUSH0 ADD SLOAD SUB PUSH2 0x6E6 JUMPI PUSH1 0x1 SWAP3 POP DUP1 SWAP2 POP PUSH2 0x6F3 JUMP JUMPDEST DUP1 DUP1 PUSH1 0x1 ADD SWAP2 POP POP PUSH2 0x62C JUMP JUMPDEST POP PUSH1 0x1 ISZERO ISZERO DUP3 ISZERO ISZERO EQ PUSH2 0x73B JUMPI PUSH1 0x40 MLOAD PUSH32 0x8C379A000000000000000000000000000000000000000000000000000000000 DUP2 MSTORE PUSH1 0x4 ADD PUSH2 0x732 SWAP1 PUSH2 0x3593 JUMP JUMPDEST PUSH1 0x40 MLOAD DUP1 SWAP2 SUB SWAP1 REVERT JUMPDEST PUSH0 PUSH1 0x4 PUSH0 CALLER PUSH20 0xFFFFFFFFFFFFFFFFFFFFFFFFFFFFFFFFFFFFFFFF AND PUSH20 0xFFFFFFFFFFFFFFFFFFFFFFFFFFFFFFFFFFFFFFFF AND DUP2 MSTORE PUSH1 0x20 ADD SWAP1 DUP2 MSTORE PUSH1 0x20 ADD PUSH0 KECCAK256 DUP3 DUP2 SLOAD DUP2 LT PUSH2 0x78B JUMPI PUSH2 0x78A PUSH2 0x3457 JUMP JUMPDEST JUMPDEST SWAP1 PUSH0 MSTORE PUSH1 0x20 PUSH0 KECCAK256 SWAP1 PUSH1 0x12 MUL ADD PUSH1 0x11 ADD SLOAD SWAP1 POP PUSH0 DUP2 GT PUSH2 0x7DF JUMPI PUSH1 0x40 MLOAD PUSH32 0x8C379A000000000000000000000000000000000000000000000000000000000 DUP2 MSTORE PUSH1 0x4 ADD PUSH2 0x7D6 SWAP1 PUSH2 0x3621 JUMP JUMPDEST PUSH1 0x40 MLOAD DUP1 SWAP2 SUB SWAP1 REVERT JUMPDEST PUSH0 PUSH1 0x1 PUSH0 SWAP1 SLOAD SWAP1 PUSH2 0x100 EXP SWAP1 DIV PUSH20 0xFFFFFFFFFFFFFFFFFFFFFFFFFFFFFFFFFFFFFFFF AND PUSH20 0xFFFFFFFFFFFFFFFFFFFFFFFFFFFFFFFFFFFFFFFF AND PUSH4 0x2B07FCE3 DUP9 PUSH1 0x40 MLOAD DUP3 PUSH4 0xFFFFFFFF AND PUSH1 0xE0 SHL DUP2 MSTORE PUSH1 0x4 ADD PUSH2 0x83A SWAP2 SWAP1 PUSH2 0x2DA4 JUMP JUMPDEST PUSH0 PUSH1 0x40 MLOAD DUP1 DUP4 SUB DUP2 DUP7 GAS STATICCALL ISZERO DUP1 ISZERO PUSH2 0x854 JUMPI RETURNDATASIZE PUSH0 DUP1 RETURNDATACOPY RETURNDATASIZE PUSH0 REVERT JUMPDEST POP POP POP POP PUSH1 0x40 MLOAD RETURNDATASIZE PUSH0 DUP3 RETURNDATACOPY RETURNDATASIZE PUSH1 0x1F NOT PUSH1 0x1F DUP3 ADD AND DUP3 ADD DUP1 PUSH1 0x40 MSTORE POP DUP2 ADD SWAP1 PUSH2 0x87C SWAP2 SWAP1 PUSH2 0x38E2 JUMP JUMPDEST SWAP1 POP PUSH0 DUP2 PUSH1 0x60 ADD MLOAD DUP4 PUSH2 0x88F SWAP2 SWAP1 PUSH2 0x3956 JUMP JUMPDEST SWAP1 POP PUSH0 DUP1 SLOAD SWAP1 PUSH2 0x100 EXP SWAP1 DIV PUSH20 0xFFFFFFFFFFFFFFFFFFFFFFFFFFFFFFFFFFFFFFFF AND PUSH20 0xFFFFFFFFFFFFFFFFFFFFFFFFFFFFFFFFFFFFFFFF AND PUSH4 0xCD60F59F DUP4 PUSH2 0x100 ADD MLOAD CALLER DUP5 PUSH1 0x40 MLOAD DUP5 PUSH4 0xFFFFFFFF AND PUSH1 0xE0 SHL DUP2 MSTORE PUSH1 0x4 ADD PUSH2 0x8F2 SWAP4 SWAP3 SWAP2 SWAP1 PUSH2 0x39A6 JUMP JUMPDEST PUSH0 PUSH1 0x40 MLOAD DUP1 DUP4 SUB DUP2 PUSH0 DUP8 DUP1 EXTCODESIZE ISZERO DUP1 ISZERO PUSH2 0x909 JUMPI PUSH0 DUP1 REVERT JUMPDEST POP GAS CALL ISZERO DUP1 ISZERO PUSH2 0x91B JUMPI RETURNDATASIZE PUSH0 DUP1 RETURNDATACOPY RETURNDATASIZE PUSH0 REVERT JUMPDEST POP POP POP POP PUSH0 DUP1 SLOAD SWAP1 PUSH2 0x100 EXP SWAP1 DIV PUSH20 0xFFFFFFFFFFFFFFFFFFFFFFFFFFFFFFFFFFFFFFFF AND PUSH20 0xFFFFFFFFFFFFFFFFFFFFFFFFFFFFFFFFFFFFFFFF AND PUSH4 0x9DC29FAC CALLER DUP6 PUSH1 0x40 MLOAD DUP4 PUSH4 0xFFFFFFFF AND PUSH1 0xE0 SHL DUP2 MSTORE PUSH1 0x4 ADD PUSH2 0x979 SWAP3 SWAP2 SWAP1 PUSH2 0x39DB JUMP JUMPDEST PUSH0 PUSH1 0x40 MLOAD DUP1 DUP4 SUB DUP2 PUSH0 DUP8 DUP1 EXTCODESIZE ISZERO DUP1 ISZERO PUSH2 0x990 JUMPI PUSH0 DUP1 REVERT JUMPDEST POP GAS CALL ISZERO DUP1 ISZERO PUSH2 0x9A2 JUMPI RETURNDATASIZE PUSH0 DUP1 RETURNDATACOPY RETURNDATASIZE PUSH0 REVERT JUMPDEST POP POP POP POP PUSH2 0x9B0 CALLER DUP6 PUSH2 0x240A JUMP JUMPDEST PUSH32 0xC9D92D603DC7645C578A271DC9DEC46855D3C0CDBDC48D00399A438907CFA1CB DUP9 DUP3 PUSH1 0x40 MLOAD PUSH2 0x9E1 SWAP3 SWAP2 SWAP1 PUSH2 0x3A02 JUMP JUMPDEST PUSH1 0x40 MLOAD DUP1 SWAP2 SUB SWAP1 LOG1 POP POP POP POP POP POP POP POP JUMP JUMPDEST PUSH0 PUSH1 0x1 PUSH0 SWAP1 SLOAD SWAP1 PUSH2 0x100 EXP SWAP1 DIV PUSH20 0xFFFFFFFFFFFFFFFFFFFFFFFFFFFFFFFFFFFFFFFF AND PUSH20 0xFFFFFFFFFFFFFFFFFFFFFFFFFFFFFFFFFFFFFFFF AND PUSH4 0x2B07FCE3 DUP4 PUSH1 0x40 MLOAD DUP3 PUSH4 0xFFFFFFFF AND PUSH1 0xE0 SHL DUP2 MSTORE PUSH1 0x4 ADD PUSH2 0xA4E SWAP2 SWAP1 PUSH2 0x2DA4 JUMP JUMPDEST PUSH0 PUSH1 0x40 MLOAD DUP1 DUP4 SUB DUP2 DUP7 GAS STATICCALL ISZERO DUP1 ISZERO PUSH2 0xA68 JUMPI RETURNDATASIZE PUSH0 DUP1 RETURNDATACOPY RETURNDATASIZE PUSH0 REVERT JUMPDEST POP POP POP POP PUSH1 0x40 MLOAD RETURNDATASIZE PUSH0 DUP3 RETURNDATACOPY RETURNDATASIZE PUSH1 0x1F NOT PUSH1 0x1F DUP3 ADD AND DUP3 ADD DUP1 PUSH1 0x40 MSTORE POP DUP2 ADD SWAP1 PUSH2 0xA90 SWAP2 SWAP1 PUSH2 0x38E2 JUMP JUMPDEST SWAP1 POP PUSH1 0x1 ISZERO ISZERO DUP2 PUSH2 0x120 ADD MLOAD ISZERO ISZERO EQ PUSH2 0xADE JUMPI PUSH1 0x40 MLOAD PUSH32 0x8C379A000000000000000000000000000000000000000000000000000000000 DUP2 MSTORE PUSH1 0x4 ADD PUSH2 0xAD5 SWAP1 PUSH2 0x3A99 JUMP JUMPDEST PUSH1 0x40 MLOAD DUP1 SWAP2 SUB SWAP1 REVERT JUMPDEST CALLER PUSH20 0xFFFFFFFFFFFFFFFFFFFFFFFFFFFFFFFFFFFFFFFF AND DUP2 PUSH2 0x100 ADD MLOAD PUSH20 0xFFFFFFFFFFFFFFFFFFFFFFFFFFFFFFFFFFFFFFFF AND SUB PUSH2 0xB51 JUMPI PUSH1 0x40 MLOAD PUSH32 0x8C379A000000000000000000000000000000000000000000000000000000000 DUP2 MSTORE PUSH1 0x4 ADD PUSH2 0xB48 SWAP1 PUSH2 0x3B01 JUMP JUMPDEST PUSH1 0x40 MLOAD DUP1 SWAP2 SUB SWAP1 REVERT JUMPDEST PUSH0 DUP1 PUSH0 SWAP1 SLOAD SWAP1 PUSH2 0x100 EXP SWAP1 DIV PUSH20 0xFFFFFFFFFFFFFFFFFFFFFFFFFFFFFFFFFFFFFFFF AND PUSH20 0xFFFFFFFFFFFFFFFFFFFFFFFFFFFFFFFFFFFFFFFF AND PUSH4 0x4763FBD2 DUP4 PUSH2 0x100 ADD MLOAD PUSH1 0x40 MLOAD DUP3 PUSH4 0xFFFFFFFF AND PUSH1 0xE0 SHL DUP2 MSTORE PUSH1 0x4 ADD PUSH2 0xBB0 SWAP2 SWAP1 PUSH2 0x3B1F JUMP JUMPDEST PUSH1 0x20 PUSH1 0x40 MLOAD DUP1 DUP4 SUB DUP2 DUP7 GAS STATICCALL ISZERO DUP1 ISZERO PUSH2 0xBCB JUMPI RETURNDATASIZE PUSH0 DUP1 RETURNDATACOPY RETURNDATASIZE PUSH0 REVERT JUMPDEST POP POP POP POP PUSH1 0x40 MLOAD RETURNDATASIZE PUSH1 0x1F NOT PUSH1 0x1F DUP3 ADD AND DUP3 ADD DUP1 PUSH1 0x40 MSTORE POP DUP2 ADD SWAP1 PUSH2 0xBEF SWAP2 SWAP1 PUSH2 0x3B38 JUMP JUMPDEST DUP3 PUSH1 0xC0 ADD MLOAD PUSH2 0xBFE SWAP2 SWAP1 PUSH2 0x3956 JUMP JUMPDEST SWAP1 POP DUP1 CALLVALUE LT ISZERO PUSH2 0xC0D DUP3 PUSH2 0x2833 JUMP JUMPDEST PUSH2 0xC16 CALLVALUE PUSH2 0x2833 JUMP JUMPDEST PUSH1 0x40 MLOAD PUSH1 0x20 ADD PUSH2 0xC27 SWAP3 SWAP2 SWAP1 PUSH2 0x3CA1 JUMP JUMPDEST PUSH1 0x40 MLOAD PUSH1 0x20 DUP2 DUP4 SUB SUB DUP2 MSTORE SWAP1 PUSH1 0x40 MSTORE SWAP1 PUSH2 0xC77 JUMPI PUSH1 0x40 MLOAD PUSH32 0x8C379A000000000000000000000000000000000000000000000000000000000 DUP2 MSTORE PUSH1 0x4 ADD PUSH2 0xC6E SWAP2 SWAP1 PUSH2 0x3D1D JUMP JUMPDEST PUSH1 0x40 MLOAD DUP1 SWAP2 SUB SWAP1 REVERT JUMPDEST POP DUP2 PUSH1 0xA0 ADD MLOAD DUP3 PUSH1 0x80 ADD MLOAD GT PUSH2 0xCC2 JUMPI PUSH1 0x40 MLOAD PUSH32 0x8C379A000000000000000000000000000000000000000000000000000000000 DUP2 MSTORE PUSH1 0x4 ADD PUSH2 0xCB9 SWAP1 PUSH2 0x3D87 JUMP JUMPDEST PUSH1 0x40 MLOAD DUP1 SWAP2 SUB SWAP1 REVERT JUMPDEST PUSH0 TIMESTAMP SWAP1 POP PUSH0 DUP4 PUSH1 0xE0 ADD MLOAD TIMESTAMP PUSH2 0xCD7 SWAP2 SWAP1 PUSH2 0x3DA5 JUMP JUMPDEST SWAP1 POP PUSH2 0xCE1 PUSH2 0x2C08 JUMP JUMPDEST PUSH2 0xCEA DUP4 PUSH2 0x28FD JUMP JUMPDEST DUP4 PUSH0 ADD DUP5 PUSH1 0x20 ADD DUP6 PUSH1 0x40 ADD DUP4 DUP2 MSTORE POP DUP4 DUP2 MSTORE POP DUP4 DUP2 MSTORE POP POP POP POP PUSH2 0xD0C PUSH2 0x2C08 JUMP JUMPDEST PUSH2 0xD15 DUP4 PUSH2 0x28FD JUMP JUMPDEST DUP4 PUSH0 ADD DUP5 PUSH1 0x20 ADD DUP6 PUSH1 0x40 ADD DUP4 DUP2 MSTORE POP DUP4 DUP2 MSTORE POP DUP4 DUP2 MSTORE POP POP POP POP PUSH0 PUSH1 0x40 MLOAD DUP1 PUSH1 0xC0 ADD PUSH1 0x40 MSTORE DUP1 DUP9 DUP2 MSTORE PUSH1 0x20 ADD DUP7 DUP2 MSTORE PUSH1 0x20 ADD DUP6 DUP2 MSTORE PUSH1 0x20 ADD DUP5 DUP2 MSTORE PUSH1 0x20 ADD DUP4 DUP2 MSTORE PUSH1 0x20 ADD PUSH0 DUP1 SLOAD SWAP1 PUSH2 0x100 EXP SWAP1 DIV PUSH20 0xFFFFFFFFFFFFFFFFFFFFFFFFFFFFFFFFFFFFFFFF AND PUSH20 0xFFFFFFFFFFFFFFFFFFFFFFFFFFFFFFFFFFFFFFFF AND PUSH4 0x4763FBD2 DUP11 PUSH2 0x100 ADD MLOAD PUSH1 0x40 MLOAD DUP3 PUSH4 0xFFFFFFFF AND PUSH1 0xE0 SHL DUP2 MSTORE PUSH1 0x4 ADD PUSH2 0xDB6 SWAP2 SWAP1 PUSH2 0x3B1F JUMP JUMPDEST PUSH1 0x20 PUSH1 0x40 MLOAD DUP1 DUP4 SUB DUP2 DUP7 GAS STATICCALL ISZERO DUP1 ISZERO PUSH2 0xDD1 JUMPI RETURNDATASIZE PUSH0 DUP1 RETURNDATACOPY RETURNDATASIZE PUSH0 REVERT JUMPDEST POP POP POP POP PUSH1 0x40 MLOAD RETURNDATASIZE PUSH1 0x1F NOT PUSH1 0x1F DUP3 ADD AND DUP3 ADD DUP1 PUSH1 0x40 MSTORE POP DUP2 ADD SWAP1 PUSH2 0xDF5 SWAP2 SWAP1 PUSH2 0x3B38 JUMP JUMPDEST CALLVALUE PUSH2 0xE00 SWAP2 SWAP1 PUSH2 0x3E05 JUMP JUMPDEST DUP2 MSTORE POP SWAP1 POP PUSH0 DUP1 SLOAD SWAP1 PUSH2 0x100 EXP SWAP1 DIV PUSH20 0xFFFFFFFFFFFFFFFFFFFFFFFFFFFFFFFFFFFFFFFF AND PUSH20 0xFFFFFFFFFFFFFFFFFFFFFFFFFFFFFFFFFFFFFFFF AND PUSH4 0x4763FBD2 DUP9 PUSH2 0x100 ADD MLOAD PUSH1 0x40 MLOAD DUP3 PUSH4 0xFFFFFFFF AND PUSH1 0xE0 SHL DUP2 MSTORE PUSH1 0x4 ADD PUSH2 0xE62 SWAP2 SWAP1 PUSH2 0x3B1F JUMP JUMPDEST PUSH1 0x20 PUSH1 0x40 MLOAD DUP1 DUP4 SUB DUP2 DUP7 GAS STATICCALL ISZERO DUP1 ISZERO PUSH2 0xE7D JUMPI RETURNDATASIZE PUSH0 DUP1 RETURNDATACOPY RETURNDATASIZE PUSH0 REVERT JUMPDEST POP POP POP POP PUSH1 0x40 MLOAD RETURNDATASIZE PUSH1 0x1F NOT PUSH1 0x1F DUP3 ADD AND DUP3 ADD DUP1 PUSH1 0x40 MSTORE POP DUP2 ADD SWAP1 PUSH2 0xEA1 SWAP2 SWAP1 PUSH2 0x3B38 JUMP JUMPDEST CALLVALUE PUSH2 0xEAC SWAP2 SWAP1 PUSH2 0x3E05 JUMP JUMPDEST PUSH1 0x3 PUSH0 DUP11 DUP2 MSTORE PUSH1 0x20 ADD SWAP1 DUP2 MSTORE PUSH1 0x20 ADD PUSH0 KECCAK256 SLOAD LT ISZERO PUSH2 0xEFF JUMPI PUSH1 0x40 MLOAD PUSH32 0x8C379A000000000000000000000000000000000000000000000000000000000 DUP2 MSTORE PUSH1 0x4 ADD PUSH2 0xEF6 SWAP1 PUSH2 0x3EA5 JUMP JUMPDEST PUSH1 0x40 MLOAD DUP1 SWAP2 SUB SWAP1 REVERT JUMPDEST PUSH0 DUP1 SLOAD SWAP1 PUSH2 0x100 EXP SWAP1 DIV PUSH20 0xFFFFFFFFFFFFFFFFFFFFFFFFFFFFFFFFFFFFFFFF AND PUSH20 0xFFFFFFFFFFFFFFFFFFFFFFFFFFFFFFFFFFFFFFFF AND PUSH4 0xA9059CBB CALLER PUSH0 DUP1 SLOAD SWAP1 PUSH2 0x100 EXP SWAP1 DIV PUSH20 0xFFFFFFFFFFFFFFFFFFFFFFFFFFFFFFFFFFFFFFFF AND PUSH20 0xFFFFFFFFFFFFFFFFFFFFFFFFFFFFFFFFFFFFFFFF AND PUSH4 0x4763FBD2 DUP12 PUSH2 0x100 ADD MLOAD PUSH1 0x40 MLOAD DUP3 PUSH4 0xFFFFFFFF AND PUSH1 0xE0 SHL DUP2 MSTORE PUSH1 0x4 ADD PUSH2 0xF98 SWAP2 SWAP1 PUSH2 0x3B1F JUMP JUMPDEST PUSH1 0x20 PUSH1 0x40 MLOAD DUP1 DUP4 SUB DUP2 DUP7 GAS STATICCALL ISZERO DUP1 ISZERO PUSH2 0xFB3 JUMPI RETURNDATASIZE PUSH0 DUP1 RETURNDATACOPY RETURNDATASIZE PUSH0 REVERT JUMPDEST POP POP POP POP PUSH1 0x40 MLOAD RETURNDATASIZE PUSH1 0x1F NOT PUSH1 0x1F DUP3 ADD AND DUP3 ADD DUP1 PUSH1 0x40 MSTORE POP DUP2 ADD SWAP1 PUSH2 0xFD7 SWAP2 SWAP1 PUSH2 0x3B38 JUMP JUMPDEST CALLVALUE PUSH2 0xFE2 SWAP2 SWAP1 PUSH2 0x3E05 JUMP JUMPDEST PUSH1 0x40 MLOAD DUP4 PUSH4 0xFFFFFFFF AND PUSH1 0xE0 SHL DUP2 MSTORE PUSH1 0x4 ADD PUSH2 0xFFF SWAP3 SWAP2 SWAP1 PUSH2 0x39DB JUMP JUMPDEST PUSH1 0x20 PUSH1 0x40 MLOAD DUP1 DUP4 SUB DUP2 PUSH0 DUP8 GAS CALL ISZERO DUP1 ISZERO PUSH2 0x101B JUMPI RETURNDATASIZE PUSH0 DUP1 RETURNDATACOPY RETURNDATASIZE PUSH0 REVERT JUMPDEST POP POP POP POP PUSH1 0x40 MLOAD RETURNDATASIZE PUSH1 0x1F NOT PUSH1 0x1F DUP3 ADD AND DUP3 ADD DUP1 PUSH1 0x40 MSTORE POP DUP2 ADD SWAP1 PUSH2 0x103F SWAP2 SWAP1 PUSH2 0x3EC3 JUMP JUMPDEST POP PUSH0 DUP1 SLOAD SWAP1 PUSH2 0x100 EXP SWAP1 DIV PUSH20 0xFFFFFFFFFFFFFFFFFFFFFFFFFFFFFFFFFFFFFFFF AND PUSH20 0xFFFFFFFFFFFFFFFFFFFFFFFFFFFFFFFFFFFFFFFF AND PUSH4 0x4763FBD2 DUP9 PUSH2 0x100 ADD MLOAD PUSH1 0x40 MLOAD DUP3 PUSH4 0xFFFFFFFF AND PUSH1 0xE0 SHL DUP2 MSTORE PUSH1 0x4 ADD PUSH2 0x109D SWAP2 SWAP1 PUSH2 0x3B1F JUMP JUMPDEST PUSH1 0x20 PUSH1 0x40 MLOAD DUP1 DUP4 SUB DUP2 DUP7 GAS STATICCALL ISZERO DUP1 ISZERO PUSH2 0x10B8 JUMPI RETURNDATASIZE PUSH0 DUP1 RETURNDATACOPY RETURNDATASIZE PUSH0 REVERT JUMPDEST POP POP POP POP PUSH1 0x40 MLOAD RETURNDATASIZE PUSH1 0x1F NOT PUSH1 0x1F DUP3 ADD AND DUP3 ADD DUP1 PUSH1 0x40 MSTORE POP DUP2 ADD SWAP1 PUSH2 0x10DC SWAP2 SWAP1 PUSH2 0x3B38 JUMP JUMPDEST CALLVALUE PUSH2 0x10E7 SWAP2 SWAP1 PUSH2 0x3E05 JUMP JUMPDEST PUSH1 0x3 PUSH0 DUP11 DUP2 MSTORE PUSH1 0x20 ADD SWAP1 DUP2 MSTORE PUSH1 0x20 ADD PUSH0 KECCAK256 PUSH0 DUP3 DUP3 SLOAD PUSH2 0x1106 SWAP2 SWAP1 PUSH2 0x3EEE JUMP JUMPDEST SWAP3 POP POP DUP2 SWAP1 SSTORE POP PUSH1 0x4 PUSH0 CALLER PUSH20 0xFFFFFFFFFFFFFFFFFFFFFFFFFFFFFFFFFFFFFFFF AND PUSH20 0xFFFFFFFFFFFFFFFFFFFFFFFFFFFFFFFFFFFFFFFF AND DUP2 MSTORE PUSH1 0x20 ADD SWAP1 DUP2 MSTORE PUSH1 0x20 ADD PUSH0 KECCAK256 DUP2 SWAP1 DUP1 PUSH1 0x1 DUP2 SLOAD ADD DUP1 DUP3 SSTORE DUP1 SWAP2 POP POP PUSH1 0x1 SWAP1 SUB SWAP1 PUSH0 MSTORE PUSH1 0x20 PUSH0 KECCAK256 SWAP1 PUSH1 0x12 MUL ADD PUSH0 SWAP1 SWAP2 SWAP1 SWAP2 SWAP1 SWAP2 POP PUSH0 DUP3 ADD MLOAD DUP2 PUSH0 ADD PUSH0 DUP3 ADD MLOAD DUP2 PUSH0 ADD SSTORE PUSH1 0x20 DUP3 ADD MLOAD DUP2 PUSH1 0x1 ADD SWAP1 DUP2 PUSH2 0x1195 SWAP2 SWAP1 PUSH2 0x40BE JUMP JUMPDEST POP PUSH1 0x40 DUP3 ADD MLOAD DUP2 PUSH1 0x2 ADD SWAP1 DUP2 PUSH2 0x11AB SWAP2 SWAP1 PUSH2 0x40BE JUMP JUMPDEST POP PUSH1 0x60 DUP3 ADD MLOAD DUP2 PUSH1 0x3 ADD SSTORE PUSH1 0x80 DUP3 ADD MLOAD DUP2 PUSH1 0x4 ADD SSTORE PUSH1 0xA0 DUP3 ADD MLOAD DUP2 PUSH1 0x5 ADD SSTORE PUSH1 0xC0 DUP3 ADD MLOAD DUP2 PUSH1 0x6 ADD SSTORE PUSH1 0xE0 DUP3 ADD MLOAD DUP2 PUSH1 0x7 ADD SSTORE PUSH2 0x100 DUP3 ADD MLOAD DUP2 PUSH1 0x8 ADD PUSH0 PUSH2 0x100 EXP DUP2 SLOAD DUP2 PUSH20 0xFFFFFFFFFFFFFFFFFFFFFFFFFFFFFFFFFFFFFFFF MUL NOT AND SWAP1 DUP4 PUSH20 0xFFFFFFFFFFFFFFFFFFFFFFFFFFFFFFFFFFFFFFFF AND MUL OR SWAP1 SSTORE POP PUSH2 0x120 DUP3 ADD MLOAD DUP2 PUSH1 0x8 ADD PUSH1 0x14 PUSH2 0x100 EXP DUP2 SLOAD DUP2 PUSH1 0xFF MUL NOT AND SWAP1 DUP4 ISZERO ISZERO MUL OR SWAP1 SSTORE POP POP POP PUSH1 0x20 DUP3 ADD MLOAD DUP2 PUSH1 0x9 ADD SSTORE PUSH1 0x40 DUP3 ADD MLOAD DUP2 PUSH1 0xA ADD SSTORE PUSH1 0x60 DUP3 ADD MLOAD DUP2 PUSH1 0xB ADD PUSH0 DUP3 ADD MLOAD DUP2 PUSH0 ADD SSTORE PUSH1 0x20 DUP3 ADD MLOAD DUP2 PUSH1 0x1 ADD SSTORE PUSH1 0x40 DUP3 ADD MLOAD DUP2 PUSH1 0x2 ADD SSTORE POP POP PUSH1 0x80 DUP3 ADD MLOAD DUP2 PUSH1 0xE ADD PUSH0 DUP3 ADD MLOAD DUP2 PUSH0 ADD SSTORE PUSH1 0x20 DUP3 ADD MLOAD DUP2 PUSH1 0x1 ADD SSTORE PUSH1 0x40 DUP3 ADD MLOAD DUP2 PUSH1 0x2 ADD SSTORE POP POP PUSH1 0xA0 DUP3 ADD MLOAD DUP2 PUSH1 0x11 ADD SSTORE POP POP PUSH1 0x1 PUSH0 SWAP1 SLOAD SWAP1 PUSH2 0x100 EXP SWAP1 DIV PUSH20 0xFFFFFFFFFFFFFFFFFFFFFFFFFFFFFFFFFFFFFFFF AND PUSH20 0xFFFFFFFFFFFFFFFFFFFFFFFFFFFFFFFFFFFFFFFF AND PUSH4 0xC6AB3FA DUP10 PUSH0 DUP1 SLOAD SWAP1 PUSH2 0x100 EXP SWAP1 DIV PUSH20 0xFFFFFFFFFFFFFFFFFFFFFFFFFFFFFFFFFFFFFFFF AND PUSH20 0xFFFFFFFFFFFFFFFFFFFFFFFFFFFFFFFFFFFFFFFF AND PUSH4 0x4763FBD2 DUP12 PUSH2 0x100 ADD MLOAD PUSH1 0x40 MLOAD DUP3 PUSH4 0xFFFFFFFF AND PUSH1 0xE0 SHL DUP2 MSTORE PUSH1 0x4 ADD PUSH2 0x1351 SWAP2 SWAP1 PUSH2 0x3B1F JUMP JUMPDEST PUSH1 0x20 PUSH1 0x40 MLOAD DUP1 DUP4 SUB DUP2 DUP7 GAS STATICCALL ISZERO DUP1 ISZERO PUSH2 0x136C JUMPI RETURNDATASIZE PUSH0 DUP1 RETURNDATACOPY RETURNDATASIZE PUSH0 REVERT JUMPDEST POP POP POP POP PUSH1 0x40 MLOAD RETURNDATASIZE PUSH1 0x1F NOT PUSH1 0x1F DUP3 ADD AND DUP3 ADD DUP1 PUSH1 0x40 MSTORE POP DUP2 ADD SWAP1 PUSH2 0x1390 SWAP2 SWAP1 PUSH2 0x3B38 JUMP JUMPDEST CALLVALUE PUSH2 0x139B SWAP2 SWAP1 PUSH2 0x3E05 JUMP JUMPDEST DUP11 PUSH1 0xA0 ADD MLOAD PUSH2 0x13AA SWAP2 SWAP1 PUSH2 0x3DA5 JUMP JUMPDEST PUSH1 0x40 MLOAD DUP4 PUSH4 0xFFFFFFFF AND PUSH1 0xE0 SHL DUP2 MSTORE PUSH1 0x4 ADD PUSH2 0x13C7 SWAP3 SWAP2 SWAP1 PUSH2 0x3A02 JUMP JUMPDEST PUSH0 PUSH1 0x40 MLOAD DUP1 DUP4 SUB DUP2 PUSH0 DUP8 DUP1 EXTCODESIZE ISZERO DUP1 ISZERO PUSH2 0x13DE JUMPI PUSH0 DUP1 REVERT JUMPDEST POP GAS CALL ISZERO DUP1 ISZERO PUSH2 0x13F0 JUMPI RETURNDATASIZE PUSH0 DUP1 RETURNDATACOPY RETURNDATASIZE PUSH0 REVERT JUMPDEST POP POP POP POP DUP7 PUSH1 0xC0 ADD MLOAD DUP8 PUSH1 0xA0 ADD MLOAD DUP9 PUSH1 0x80 ADD MLOAD PUSH2 0x140D SWAP2 SWAP1 PUSH2 0x3EEE JUMP JUMPDEST LT ISZERO PUSH2 0x141D JUMPI PUSH2 0x141C DUP9 PUSH2 0x292F JUMP JUMPDEST JUMPDEST DUP8 CALLER PUSH20 0xFFFFFFFFFFFFFFFFFFFFFFFFFFFFFFFFFFFFFFFF AND PUSH32 0x627DC19242D5F3C617BD2030BA778EC1038D5CCAC88B09A96D608F357398CEB DUP6 DUP6 DUP12 PUSH1 0xC0 ADD MLOAD PUSH1 0x40 MLOAD PUSH2 0x146C SWAP4 SWAP3 SWAP2 SWAP1 PUSH2 0x418D JUMP JUMPDEST PUSH1 0x40 MLOAD DUP1 SWAP2 SUB SWAP1 LOG3 POP POP POP POP POP POP POP POP JUMP JUMPDEST PUSH1 0x60 PUSH0 PUSH1 0x1 PUSH0 SWAP1 SLOAD SWAP1 PUSH2 0x100 EXP SWAP1 DIV PUSH20 0xFFFFFFFFFFFFFFFFFFFFFFFFFFFFFFFFFFFFFFFF AND PUSH20 0xFFFFFFFFFFFFFFFFFFFFFFFFFFFFFFFFFFFFFFFF AND PUSH4 0xDE54D429 PUSH1 0x40 MLOAD DUP2 PUSH4 0xFFFFFFFF AND PUSH1 0xE0 SHL DUP2 MSTORE PUSH1 0x4 ADD PUSH1 0x20 PUSH1 0x40 MLOAD DUP1 DUP4 SUB DUP2 DUP7 GAS STATICCALL ISZERO DUP1 ISZERO PUSH2 0x14EB JUMPI RETURNDATASIZE PUSH0 DUP1 RETURNDATACOPY RETURNDATASIZE PUSH0 REVERT JUMPDEST POP POP POP POP PUSH1 0x40 MLOAD RETURNDATASIZE PUSH1 0x1F NOT PUSH1 0x1F DUP3 ADD AND DUP3 ADD DUP1 PUSH1 0x40 MSTORE POP DUP2 ADD SWAP1 PUSH2 0x150F SWAP2 SWAP1 PUSH2 0x3B38 JUMP JUMPDEST SWAP1 POP PUSH0 DUP1 PUSH1 0x1 SWAP1 POP JUMPDEST DUP3 DUP2 GT PUSH2 0x15EC JUMPI PUSH0 PUSH1 0x1 PUSH0 SWAP1 SLOAD SWAP1 PUSH2 0x100 EXP SWAP1 DIV PUSH20 0xFFFFFFFFFFFFFFFFFFFFFFFFFFFFFFFFFFFFFFFF AND PUSH20 0xFFFFFFFFFFFFFFFFFFFFFFFFFFFFFFFFFFFFFFFF AND PUSH4 0x2B07FCE3 DUP4 PUSH1 0x40 MLOAD DUP3 PUSH4 0xFFFFFFFF AND PUSH1 0xE0 SHL DUP2 MSTORE PUSH1 0x4 ADD PUSH2 0x157A SWAP2 SWAP1 PUSH2 0x2DA4 JUMP JUMPDEST PUSH0 PUSH1 0x40 MLOAD DUP1 DUP4 SUB DUP2 DUP7 GAS STATICCALL ISZERO DUP1 ISZERO PUSH2 0x1594 JUMPI RETURNDATASIZE PUSH0 DUP1 RETURNDATACOPY RETURNDATASIZE PUSH0 REVERT JUMPDEST POP POP POP POP PUSH1 0x40 MLOAD RETURNDATASIZE PUSH0 DUP3 RETURNDATACOPY RETURNDATASIZE PUSH1 0x1F NOT PUSH1 0x1F DUP3 ADD AND DUP3 ADD DUP1 PUSH1 0x40 MSTORE POP DUP2 ADD SWAP1 PUSH2 0x15BC SWAP2 SWAP1 PUSH2 0x38E2 JUMP JUMPDEST SWAP1 POP DUP1 PUSH2 0x120 ADD MLOAD ISZERO PUSH2 0x15D8 JUMPI DUP3 DUP1 PUSH2 0x15D4 SWAP1 PUSH2 0x41C2 JUMP JUMPDEST SWAP4 POP POP JUMPDEST POP DUP1 DUP1 PUSH2 0x15E4 SWAP1 PUSH2 0x41C2 JUMP JUMPDEST SWAP2 POP POP PUSH2 0x1518 JUMP JUMPDEST POP PUSH0 DUP2 GT PUSH2 0x162F JUMPI PUSH1 0x40 MLOAD PUSH32 0x8C379A000000000000000000000000000000000000000000000000000000000 DUP2 MSTORE PUSH1 0x4 ADD PUSH2 0x1626 SWAP1 PUSH2 0x4279 JUMP JUMPDEST PUSH1 0x40 MLOAD DUP1 SWAP2 SUB SWAP1 REVERT JUMPDEST PUSH0 DUP2 PUSH8 0xFFFFFFFFFFFFFFFF DUP2 GT ISZERO PUSH2 0x164A JUMPI PUSH2 0x1649 PUSH2 0x3643 JUMP JUMPDEST JUMPDEST PUSH1 0x40 MLOAD SWAP1 DUP1 DUP3 MSTORE DUP1 PUSH1 0x20 MUL PUSH1 0x20 ADD DUP3 ADD PUSH1 0x40 MSTORE DUP1 ISZERO PUSH2 0x1683 JUMPI DUP2 PUSH1 0x20 ADD JUMPDEST PUSH2 0x1670 PUSH2 0x2C26 JUMP JUMPDEST DUP2 MSTORE PUSH1 0x20 ADD SWAP1 PUSH1 0x1 SWAP1 SUB SWAP1 DUP2 PUSH2 0x1668 JUMPI SWAP1 POP JUMPDEST POP SWAP1 POP PUSH0 DUP1 PUSH1 0x1 SWAP1 POP JUMPDEST DUP5 DUP2 GT PUSH2 0x1806 JUMPI PUSH0 PUSH1 0x1 PUSH0 SWAP1 SLOAD SWAP1 PUSH2 0x100 EXP SWAP1 DIV PUSH20 0xFFFFFFFFFFFFFFFFFFFFFFFFFFFFFFFFFFFFFFFF AND PUSH20 0xFFFFFFFFFFFFFFFFFFFFFFFFFFFFFFFFFFFFFFFF AND PUSH4 0x2B07FCE3 DUP4 PUSH1 0x40 MLOAD DUP3 PUSH4 0xFFFFFFFF AND PUSH1 0xE0 SHL DUP2 MSTORE PUSH1 0x4 ADD PUSH2 0x16EF SWAP2 SWAP1 PUSH2 0x2DA4 JUMP JUMPDEST PUSH0 PUSH1 0x40 MLOAD DUP1 DUP4 SUB DUP2 DUP7 GAS STATICCALL ISZERO DUP1 ISZERO PUSH2 0x1709 JUMPI RETURNDATASIZE PUSH0 DUP1 RETURNDATACOPY RETURNDATASIZE PUSH0 REVERT JUMPDEST POP POP POP POP PUSH1 0x40 MLOAD RETURNDATASIZE PUSH0 DUP3 RETURNDATACOPY RETURNDATASIZE PUSH1 0x1F NOT PUSH1 0x1F DUP3 ADD AND DUP3 ADD DUP1 PUSH1 0x40 MSTORE POP DUP2 ADD SWAP1 PUSH2 0x1731 SWAP2 SWAP1 PUSH2 0x38E2 JUMP JUMPDEST SWAP1 POP DUP1 PUSH2 0x120 ADD MLOAD ISZERO PUSH2 0x17F2 JUMPI PUSH1 0x40 MLOAD DUP1 PUSH2 0x140 ADD PUSH1 0x40 MSTORE DUP1 DUP3 PUSH0 ADD MLOAD DUP2 MSTORE PUSH1 0x20 ADD DUP3 PUSH1 0x20 ADD MLOAD DUP2 MSTORE PUSH1 0x20 ADD DUP3 PUSH1 0x40 ADD MLOAD DUP2 MSTORE PUSH1 0x20 ADD DUP3 PUSH1 0x60 ADD MLOAD DUP2 MSTORE PUSH1 0x20 ADD DUP3 PUSH1 0x80 ADD MLOAD DUP2 MSTORE PUSH1 0x20 ADD DUP3 PUSH1 0xA0 ADD MLOAD DUP2 MSTORE PUSH1 0x20 ADD DUP3 PUSH1 0xC0 ADD MLOAD DUP2 MSTORE PUSH1 0x20 ADD DUP3 PUSH1 0xE0 ADD MLOAD DUP2 MSTORE PUSH1 0x20 ADD DUP3 PUSH2 0x100 ADD MLOAD PUSH20 0xFFFFFFFFFFFFFFFFFFFFFFFFFFFFFFFFFFFFFFFF AND DUP2 MSTORE PUSH1 0x20 ADD DUP3 PUSH2 0x120 ADD MLOAD ISZERO ISZERO DUP2 MSTORE POP DUP5 DUP5 DUP2 MLOAD DUP2 LT PUSH2 0x17D8 JUMPI PUSH2 0x17D7 PUSH2 0x3457 JUMP JUMPDEST JUMPDEST PUSH1 0x20 MUL PUSH1 0x20 ADD ADD DUP2 SWAP1 MSTORE POP DUP3 DUP1 PUSH2 0x17EE SWAP1 PUSH2 0x41C2 JUMP JUMPDEST SWAP4 POP POP JUMPDEST POP DUP1 DUP1 PUSH2 0x17FE SWAP1 PUSH2 0x41C2 JUMP JUMPDEST SWAP2 POP POP PUSH2 0x168D JUMP JUMPDEST POP DUP2 SWAP5 POP POP POP POP POP SWAP1 JUMP JUMPDEST DUP1 PUSH0 PUSH1 0x1 PUSH0 SWAP1 SLOAD SWAP1 PUSH2 0x100 EXP SWAP1 DIV PUSH20 0xFFFFFFFFFFFFFFFFFFFFFFFFFFFFFFFFFFFFFFFF AND PUSH20 0xFFFFFFFFFFFFFFFFFFFFFFFFFFFFFFFFFFFFFFFF AND PUSH4 0x2B07FCE3 DUP4 PUSH1 0x40 MLOAD DUP3 PUSH4 0xFFFFFFFF AND PUSH1 0xE0 SHL DUP2 MSTORE PUSH1 0x4 ADD PUSH2 0x186D SWAP2 SWAP1 PUSH2 0x2DA4 JUMP JUMPDEST PUSH0 PUSH1 0x40 MLOAD DUP1 DUP4 SUB DUP2 DUP7 GAS STATICCALL ISZERO DUP1 ISZERO PUSH2 0x1887 JUMPI RETURNDATASIZE PUSH0 DUP1 RETURNDATACOPY RETURNDATASIZE PUSH0 REVERT JUMPDEST POP POP POP POP PUSH1 0x40 MLOAD RETURNDATASIZE PUSH0 DUP3 RETURNDATACOPY RETURNDATASIZE PUSH1 0x1F NOT PUSH1 0x1F DUP3 ADD AND DUP3 ADD DUP1 PUSH1 0x40 MSTORE POP DUP2 ADD SWAP1 PUSH2 0x18AF SWAP2 SWAP1 PUSH2 0x38E2 JUMP JUMPDEST SWAP1 POP DUP1 PUSH2 0x100 ADD MLOAD PUSH20 0xFFFFFFFFFFFFFFFFFFFFFFFFFFFFFFFFFFFFFFFF AND CALLER PUSH20 0xFFFFFFFFFFFFFFFFFFFFFFFFFFFFFFFFFFFFFFFF AND EQ PUSH2 0x1924 JUMPI PUSH1 0x40 MLOAD PUSH32 0x8C379A000000000000000000000000000000000000000000000000000000000 DUP2 MSTORE PUSH1 0x4 ADD PUSH2 0x191B SWAP1 PUSH2 0x42E1 JUMP JUMPDEST PUSH1 0x40 MLOAD DUP1 SWAP2 SUB SWAP1 REVERT JUMPDEST PUSH0 PUSH1 0x1 PUSH0 SWAP1 SLOAD SWAP1 PUSH2 0x100 EXP SWAP1 DIV PUSH20 0xFFFFFFFFFFFFFFFFFFFFFFFFFFFFFFFFFFFFFFFF AND PUSH20 0xFFFFFFFFFFFFFFFFFFFFFFFFFFFFFFFFFFFFFFFF AND PUSH4 0x2B07FCE3 DUP6 PUSH1 0x40 MLOAD DUP3 PUSH4 0xFFFFFFFF AND PUSH1 0xE0 SHL DUP2 MSTORE PUSH1 0x4 ADD PUSH2 0x197F SWAP2 SWAP1 PUSH2 0x2DA4 JUMP JUMPDEST PUSH0 PUSH1 0x40 MLOAD DUP1 DUP4 SUB DUP2 DUP7 GAS STATICCALL ISZERO DUP1 ISZERO PUSH2 0x1999 JUMPI RETURNDATASIZE PUSH0 DUP1 RETURNDATACOPY RETURNDATASIZE PUSH0 REVERT JUMPDEST POP POP POP POP PUSH1 0x40 MLOAD RETURNDATASIZE PUSH0 DUP3 RETURNDATACOPY RETURNDATASIZE PUSH1 0x1F NOT PUSH1 0x1F DUP3 ADD AND DUP3 ADD DUP1 PUSH1 0x40 MSTORE POP DUP2 ADD SWAP1 PUSH2 0x19C1 SWAP2 SWAP1 PUSH2 0x38E2 JUMP JUMPDEST SWAP1 POP PUSH0 DUP1 PUSH0 SWAP1 SLOAD SWAP1 PUSH2 0x100 EXP SWAP1 DIV PUSH20 0xFFFFFFFFFFFFFFFFFFFFFFFFFFFFFFFFFFFFFFFF AND PUSH20 0xFFFFFFFFFFFFFFFFFFFFFFFFFFFFFFFFFFFFFFFF AND PUSH4 0xDD62ED3E CALLER ADDRESS PUSH1 0x40 MLOAD DUP4 PUSH4 0xFFFFFFFF AND PUSH1 0xE0 SHL DUP2 MSTORE PUSH1 0x4 ADD PUSH2 0x1A1F SWAP3 SWAP2 SWAP1 PUSH2 0x42FF JUMP JUMPDEST PUSH1 0x20 PUSH1 0x40 MLOAD DUP1 DUP4 SUB DUP2 DUP7 GAS STATICCALL ISZERO DUP1 ISZERO PUSH2 0x1A3A JUMPI RETURNDATASIZE PUSH0 DUP1 RETURNDATACOPY RETURNDATASIZE PUSH0 REVERT JUMPDEST POP POP POP POP PUSH1 0x40 MLOAD RETURNDATASIZE PUSH1 0x1F NOT PUSH1 0x1F DUP3 ADD AND DUP3 ADD DUP1 PUSH1 0x40 MSTORE POP DUP2 ADD SWAP1 PUSH2 0x1A5E SWAP2 SWAP1 PUSH2 0x3B38 JUMP JUMPDEST SWAP1 POP DUP2 PUSH1 0x80 ADD MLOAD DUP2 LT ISZERO PUSH2 0x1A75 DUP4 PUSH1 0x80 ADD MLOAD PUSH2 0x2833 JUMP JUMPDEST PUSH1 0x40 MLOAD PUSH1 0x20 ADD PUSH2 0x1A85 SWAP2 SWAP1 PUSH2 0x4406 JUMP JUMPDEST PUSH1 0x40 MLOAD PUSH1 0x20 DUP2 DUP4 SUB SUB DUP2 MSTORE SWAP1 PUSH1 0x40 MSTORE SWAP1 PUSH2 0x1AD5 JUMPI PUSH1 0x40 MLOAD PUSH32 0x8C379A000000000000000000000000000000000000000000000000000000000 DUP2 MSTORE PUSH1 0x4 ADD PUSH2 0x1ACC SWAP2 SWAP1 PUSH2 0x3D1D JUMP JUMPDEST PUSH1 0x40 MLOAD DUP1 SWAP2 SUB SWAP1 REVERT JUMPDEST POP PUSH0 DUP1 PUSH0 SWAP1 SLOAD SWAP1 PUSH2 0x100 EXP SWAP1 DIV PUSH20 0xFFFFFFFFFFFFFFFFFFFFFFFFFFFFFFFFFFFFFFFF AND PUSH20 0xFFFFFFFFFFFFFFFFFFFFFFFFFFFFFFFFFFFFFFFF AND PUSH4 0x23B872DD CALLER ADDRESS DUP7 PUSH1 0x80 ADD MLOAD PUSH1 0x40 MLOAD DUP5 PUSH4 0xFFFFFFFF AND PUSH1 0xE0 SHL DUP2 MSTORE PUSH1 0x4 ADD PUSH2 0x1B38 SWAP4 SWAP3 SWAP2 SWAP1 PUSH2 0x39A6 JUMP JUMPDEST PUSH1 0x20 PUSH1 0x40 MLOAD DUP1 DUP4 SUB DUP2 PUSH0 DUP8 GAS CALL ISZERO DUP1 ISZERO PUSH2 0x1B54 JUMPI RETURNDATASIZE PUSH0 DUP1 RETURNDATACOPY RETURNDATASIZE PUSH0 REVERT JUMPDEST POP POP POP POP PUSH1 0x40 MLOAD RETURNDATASIZE PUSH1 0x1F NOT PUSH1 0x1F DUP3 ADD AND DUP3 ADD DUP1 PUSH1 0x40 MSTORE POP DUP2 ADD SWAP1 PUSH2 0x1B78 SWAP2 SWAP1 PUSH2 0x3EC3 JUMP JUMPDEST SWAP1 POP DUP1 PUSH2 0x1BBA JUMPI PUSH1 0x40 MLOAD PUSH32 0x8C379A000000000000000000000000000000000000000000000000000000000 DUP2 MSTORE PUSH1 0x4 ADD PUSH2 0x1BB1 SWAP1 PUSH2 0x447C JUMP JUMPDEST PUSH1 0x40 MLOAD DUP1 SWAP2 SUB SWAP1 REVERT JUMPDEST DUP3 PUSH1 0x80 ADD MLOAD PUSH1 0x3 PUSH0 DUP9 DUP2 MSTORE PUSH1 0x20 ADD SWAP1 DUP2 MSTORE PUSH1 0x20 ADD PUSH0 KECCAK256 DUP2 SWAP1 SSTORE POP CALLER PUSH20 0xFFFFFFFFFFFFFFFFFFFFFFFFFFFFFFFFFFFFFFFF AND PUSH32 0x31FE01AA97E3E611897437E7242632143C46A245D1FC9C93699D3072504FD9A1 DUP5 PUSH1 0x80 ADD MLOAD PUSH1 0x40 MLOAD PUSH2 0x1C1E SWAP2 SWAP1 PUSH2 0x2DA4 JUMP JUMPDEST PUSH1 0x40 MLOAD DUP1 SWAP2 SUB SWAP1 LOG2 PUSH1 0x1 PUSH0 SWAP1 SLOAD SWAP1 PUSH2 0x100 EXP SWAP1 DIV PUSH20 0xFFFFFFFFFFFFFFFFFFFFFFFFFFFFFFFFFFFFFFFF AND PUSH20 0xFFFFFFFFFFFFFFFFFFFFFFFFFFFFFFFFFFFFFFFF AND PUSH4 0x5B2A3646 DUP8 PUSH1 0x40 MLOAD DUP3 PUSH4 0xFFFFFFFF AND PUSH1 0xE0 SHL DUP2 MSTORE PUSH1 0x4 ADD PUSH2 0x1C80 SWAP2 SWAP1 PUSH2 0x2DA4 JUMP JUMPDEST PUSH0 PUSH1 0x40 MLOAD DUP1 DUP4 SUB DUP2 PUSH0 DUP8 DUP1 EXTCODESIZE ISZERO DUP1 ISZERO PUSH2 0x1C97 JUMPI PUSH0 DUP1 REVERT JUMPDEST POP GAS CALL ISZERO DUP1 ISZERO PUSH2 0x1CA9 JUMPI RETURNDATASIZE PUSH0 DUP1 RETURNDATACOPY RETURNDATASIZE PUSH0 REVERT JUMPDEST POP POP POP POP POP POP POP POP POP POP JUMP JUMPDEST PUSH1 0x60 PUSH0 PUSH1 0x4 PUSH0 CALLER PUSH20 0xFFFFFFFFFFFFFFFFFFFFFFFFFFFFFFFFFFFFFFFF AND PUSH20 0xFFFFFFFFFFFFFFFFFFFFFFFFFFFFFFFFFFFFFFFF AND DUP2 MSTORE PUSH1 0x20 ADD SWAP1 DUP2 MSTORE PUSH1 0x20 ADD PUSH0 KECCAK256 DUP1 SLOAD SWAP1 POP GT PUSH2 0x1D39 JUMPI PUSH1 0x40 MLOAD PUSH32 0x8C379A000000000000000000000000000000000000000000000000000000000 DUP2 MSTORE PUSH1 0x4 ADD PUSH2 0x1D30 SWAP1 PUSH2 0x3439 JUMP JUMPDEST PUSH1 0x40 MLOAD DUP1 SWAP2 SUB SWAP1 REVERT JUMPDEST PUSH0 PUSH1 0x4 PUSH0 CALLER PUSH20 0xFFFFFFFFFFFFFFFFFFFFFFFFFFFFFFFFFFFFFFFF AND PUSH20 0xFFFFFFFFFFFFFFFFFFFFFFFFFFFFFFFFFFFFFFFF AND DUP2 MSTORE PUSH1 0x20 ADD SWAP1 DUP2 MSTORE PUSH1 0x20 ADD PUSH0 KECCAK256 DUP1 SLOAD SWAP1 POP GT PUSH2 0x1DBB JUMPI PUSH1 0x40 MLOAD PUSH32 0x8C379A000000000000000000000000000000000000000000000000000000000 DUP2 MSTORE PUSH1 0x4 ADD PUSH2 0x1DB2 SWAP1 PUSH2 0x44E4 JUMP JUMPDEST PUSH1 0x40 MLOAD DUP1 SWAP2 SUB SWAP1 REVERT JUMPDEST PUSH0 PUSH1 0x4 PUSH0 CALLER PUSH20 0xFFFFFFFFFFFFFFFFFFFFFFFFFFFFFFFFFFFFFFFF AND PUSH20 0xFFFFFFFFFFFFFFFFFFFFFFFFFFFFFFFFFFFFFFFF AND DUP2 MSTORE PUSH1 0x20 ADD SWAP1 DUP2 MSTORE PUSH1 0x20 ADD PUSH0 KECCAK256 DUP1 SLOAD SWAP1 POP PUSH8 0xFFFFFFFFFFFFFFFF DUP2 GT ISZERO PUSH2 0x1E16 JUMPI PUSH2 0x1E15 PUSH2 0x3643 JUMP JUMPDEST JUMPDEST PUSH1 0x40 MLOAD SWAP1 DUP1 DUP3 MSTORE DUP1 PUSH1 0x20 MUL PUSH1 0x20 ADD DUP3 ADD PUSH1 0x40 MSTORE DUP1 ISZERO PUSH2 0x1E4F JUMPI DUP2 PUSH1 0x20 ADD JUMPDEST PUSH2 0x1E3C PUSH2 0x2C89 JUMP JUMPDEST DUP2 MSTORE PUSH1 0x20 ADD SWAP1 PUSH1 0x1 SWAP1 SUB SWAP1 DUP2 PUSH2 0x1E34 JUMPI SWAP1 POP JUMPDEST POP SWAP1 POP PUSH0 JUMPDEST PUSH1 0x4 PUSH0 CALLER PUSH20 0xFFFFFFFFFFFFFFFFFFFFFFFFFFFFFFFFFFFFFFFF AND PUSH20 0xFFFFFFFFFFFFFFFFFFFFFFFFFFFFFFFFFFFFFFFF AND DUP2 MSTORE PUSH1 0x20 ADD SWAP1 DUP2 MSTORE PUSH1 0x20 ADD PUSH0 KECCAK256 DUP1 SLOAD SWAP1 POP DUP2 LT ISZERO PUSH2 0x218C JUMPI PUSH1 0x4 PUSH0 CALLER PUSH20 0xFFFFFFFFFFFFFFFFFFFFFFFFFFFFFFFFFFFFFFFF AND PUSH20 0xFFFFFFFFFFFFFFFFFFFFFFFFFFFFFFFFFFFFFFFF AND DUP2 MSTORE PUSH1 0x20 ADD SWAP1 DUP2 MSTORE PUSH1 0x20 ADD PUSH0 KECCAK256 DUP2 DUP2 SLOAD DUP2 LT PUSH2 0x1EEB JUMPI PUSH2 0x1EEA PUSH2 0x3457 JUMP JUMPDEST JUMPDEST SWAP1 PUSH0 MSTORE PUSH1 0x20 PUSH0 KECCAK256 SWAP1 PUSH1 0x12 MUL ADD PUSH1 0x40 MLOAD DUP1 PUSH1 0xC0 ADD PUSH1 0x40 MSTORE SWAP1 DUP2 PUSH0 DUP3 ADD PUSH1 0x40 MLOAD DUP1 PUSH2 0x140 ADD PUSH1 0x40 MSTORE SWAP1 DUP2 PUSH0 DUP3 ADD SLOAD DUP2 MSTORE PUSH1 0x20 ADD PUSH1 0x1 DUP3 ADD DUP1 SLOAD PUSH2 0x1F2B SWAP1 PUSH2 0x34B1 JUMP JUMPDEST DUP1 PUSH1 0x1F ADD PUSH1 0x20 DUP1 SWAP2 DIV MUL PUSH1 0x20 ADD PUSH1 0x40 MLOAD SWAP1 DUP2 ADD PUSH1 0x40 MSTORE DUP1 SWAP3 SWAP2 SWAP1 DUP2 DUP2 MSTORE PUSH1 0x20 ADD DUP3 DUP1 SLOAD PUSH2 0x1F57 SWAP1 PUSH2 0x34B1 JUMP JUMPDEST DUP1 ISZERO PUSH2 0x1FA2 JUMPI DUP1 PUSH1 0x1F LT PUSH2 0x1F79 JUMPI PUSH2 0x100 DUP1 DUP4 SLOAD DIV MUL DUP4 MSTORE SWAP2 PUSH1 0x20 ADD SWAP2 PUSH2 0x1FA2 JUMP JUMPDEST DUP3 ADD SWAP2 SWAP1 PUSH0 MSTORE PUSH1 0x20 PUSH0 KECCAK256 SWAP1 JUMPDEST DUP2 SLOAD DUP2 MSTORE SWAP1 PUSH1 0x1 ADD SWAP1 PUSH1 0x20 ADD DUP1 DUP4 GT PUSH2 0x1F85 JUMPI DUP3 SWAP1 SUB PUSH1 0x1F AND DUP3 ADD SWAP2 JUMPDEST POP POP POP POP POP DUP2 MSTORE PUSH1 0x20 ADD PUSH1 0x2 DUP3 ADD DUP1 SLOAD PUSH2 0x1FBB SWAP1 PUSH2 0x34B1 JUMP JUMPDEST DUP1 PUSH1 0x1F ADD PUSH1 0x20 DUP1 SWAP2 DIV MUL PUSH1 0x20 ADD PUSH1 0x40 MLOAD SWAP1 DUP2 ADD PUSH1 0x40 MSTORE DUP1 SWAP3 SWAP2 SWAP1 DUP2 DUP2 MSTORE PUSH1 0x20 ADD DUP3 DUP1 SLOAD PUSH2 0x1FE7 SWAP1 PUSH2 0x34B1 JUMP JUMPDEST DUP1 ISZERO PUSH2 0x2032 JUMPI DUP1 PUSH1 0x1F LT PUSH2 0x2009 JUMPI PUSH2 0x100 DUP1 DUP4 SLOAD DIV MUL DUP4 MSTORE SWAP2 PUSH1 0x20 ADD SWAP2 PUSH2 0x2032 JUMP JUMPDEST DUP3 ADD SWAP2 SWAP1 PUSH0 MSTORE PUSH1 0x20 PUSH0 KECCAK256 SWAP1 JUMPDEST DUP2 SLOAD DUP2 MSTORE SWAP1 PUSH1 0x1 ADD SWAP1 PUSH1 0x20 ADD DUP1 DUP4 GT PUSH2 0x2015 JUMPI DUP3 SWAP1 SUB PUSH1 0x1F AND DUP3 ADD SWAP2 JUMPDEST POP POP POP POP POP DUP2 MSTORE PUSH1 0x20 ADD PUSH1 0x3 DUP3 ADD SLOAD DUP2 MSTORE PUSH1 0x20 ADD PUSH1 0x4 DUP3 ADD SLOAD DUP2 MSTORE PUSH1 0x20 ADD PUSH1 0x5 DUP3 ADD SLOAD DUP2 MSTORE PUSH1 0x20 ADD PUSH1 0x6 DUP3 ADD SLOAD DUP2 MSTORE PUSH1 0x20 ADD PUSH1 0x7 DUP3 ADD SLOAD DUP2 MSTORE PUSH1 0x20 ADD PUSH1 0x8 DUP3 ADD PUSH0 SWAP1 SLOAD SWAP1 PUSH2 0x100 EXP SWAP1 DIV PUSH20 0xFFFFFFFFFFFFFFFFFFFFFFFFFFFFFFFFFFFFFFFF AND PUSH20 0xFFFFFFFFFFFFFFFFFFFFFFFFFFFFFFFFFFFFFFFF AND PUSH20 0xFFFFFFFFFFFFFFFFFFFFFFFFFFFFFFFFFFFFFFFF AND DUP2 MSTORE PUSH1 0x20 ADD PUSH1 0x8 DUP3 ADD PUSH1 0x14 SWAP1 SLOAD SWAP1 PUSH2 0x100 EXP SWAP1 DIV PUSH1 0xFF AND ISZERO ISZERO ISZERO ISZERO DUP2 MSTORE POP POP DUP2 MSTORE PUSH1 0x20 ADD PUSH1 0x9 DUP3 ADD SLOAD DUP2 MSTORE PUSH1 0x20 ADD PUSH1 0xA DUP3 ADD SLOAD DUP2 MSTORE PUSH1 0x20 ADD PUSH1 0xB DUP3 ADD PUSH1 0x40 MLOAD DUP1 PUSH1 0x60 ADD PUSH1 0x40 MSTORE SWAP1 DUP2 PUSH0 DUP3 ADD SLOAD DUP2 MSTORE PUSH1 0x20 ADD PUSH1 0x1 DUP3 ADD SLOAD DUP2 MSTORE PUSH1 0x20 ADD PUSH1 0x2 DUP3 ADD SLOAD DUP2 MSTORE POP POP DUP2 MSTORE PUSH1 0x20 ADD PUSH1 0xE DUP3 ADD PUSH1 0x40 MLOAD DUP1 PUSH1 0x60 ADD PUSH1 0x40 MSTORE SWAP1 DUP2 PUSH0 DUP3 ADD SLOAD DUP2 MSTORE PUSH1 0x20 ADD PUSH1 0x1 DUP3 ADD SLOAD DUP2 MSTORE PUSH1 0x20 ADD PUSH1 0x2 DUP3 ADD SLOAD DUP2 MSTORE POP POP DUP2 MSTORE PUSH1 0x20 ADD PUSH1 0x11 DUP3 ADD SLOAD DUP2 MSTORE POP POP DUP3 DUP3 DUP2 MLOAD DUP2 LT PUSH2 0x2174 JUMPI PUSH2 0x2173 PUSH2 0x3457 JUMP JUMPDEST JUMPDEST PUSH1 0x20 MUL PUSH1 0x20 ADD ADD DUP2 SWAP1 MSTORE POP DUP1 DUP1 PUSH1 0x1 ADD SWAP2 POP POP PUSH2 0x1E54 JUMP JUMPDEST POP DUP1 SWAP2 POP POP SWAP1 JUMP JUMPDEST PUSH1 0x4 PUSH1 0x20 MSTORE DUP2 PUSH0 MSTORE PUSH1 0x40 PUSH0 KECCAK256 DUP2 DUP2 SLOAD DUP2 LT PUSH2 0x21AD JUMPI PUSH0 DUP1 REVERT JUMPDEST SWAP1 PUSH0 MSTORE PUSH1 0x20 PUSH0 KECCAK256 SWAP1 PUSH1 0x12 MUL ADD PUSH0 SWAP2 POP SWAP2 POP POP DUP1 PUSH0 ADD PUSH1 0x40 MLOAD DUP1 PUSH2 0x140 ADD PUSH1 0x40 MSTORE SWAP1 DUP2 PUSH0 DUP3 ADD SLOAD DUP2 MSTORE PUSH1 0x20 ADD PUSH1 0x1 DUP3 ADD DUP1 SLOAD PUSH2 0x21E7 SWAP1 PUSH2 0x34B1 JUMP JUMPDEST DUP1 PUSH1 0x1F ADD PUSH1 0x20 DUP1 SWAP2 DIV MUL PUSH1 0x20 ADD PUSH1 0x40 MLOAD SWAP1 DUP2 ADD PUSH1 0x40 MSTORE DUP1 SWAP3 SWAP2 SWAP1 DUP2 DUP2 MSTORE PUSH1 0x20 ADD DUP3 DUP1 SLOAD PUSH2 0x2213 SWAP1 PUSH2 0x34B1 JUMP JUMPDEST DUP1 ISZERO PUSH2 0x225E JUMPI DUP1 PUSH1 0x1F LT PUSH2 0x2235 JUMPI PUSH2 0x100 DUP1 DUP4 SLOAD DIV MUL DUP4 MSTORE SWAP2 PUSH1 0x20 ADD SWAP2 PUSH2 0x225E JUMP JUMPDEST DUP3 ADD SWAP2 SWAP1 PUSH0 MSTORE PUSH1 0x20 PUSH0 KECCAK256 SWAP1 JUMPDEST DUP2 SLOAD DUP2 MSTORE SWAP1 PUSH1 0x1 ADD SWAP1 PUSH1 0x20 ADD DUP1 DUP4 GT PUSH2 0x2241 JUMPI DUP3 SWAP1 SUB PUSH1 0x1F AND DUP3 ADD SWAP2 JUMPDEST POP POP POP POP POP DUP2 MSTORE PUSH1 0x20 ADD PUSH1 0x2 DUP3 ADD DUP1 SLOAD PUSH2 0x2277 SWAP1 PUSH2 0x34B1 JUMP JUMPDEST DUP1 PUSH1 0x1F ADD PUSH1 0x20 DUP1 SWAP2 DIV MUL PUSH1 0x20 ADD PUSH1 0x40 MLOAD SWAP1 DUP2 ADD PUSH1 0x40 MSTORE DUP1 SWAP3 SWAP2 SWAP1 DUP2 DUP2 MSTORE PUSH1 0x20 ADD DUP3 DUP1 SLOAD PUSH2 0x22A3 SWAP1 PUSH2 0x34B1 JUMP JUMPDEST DUP1 ISZERO PUSH2 0x22EE JUMPI DUP1 PUSH1 0x1F LT PUSH2 0x22C5 JUMPI PUSH2 0x100 DUP1 DUP4 SLOAD DIV MUL DUP4 MSTORE SWAP2 PUSH1 0x20 ADD SWAP2 PUSH2 0x22EE JUMP JUMPDEST DUP3 ADD SWAP2 SWAP1 PUSH0 MSTORE PUSH1 0x20 PUSH0 KECCAK256 SWAP1 JUMPDEST DUP2 SLOAD DUP2 MSTORE SWAP1 PUSH1 0x1 ADD SWAP1 PUSH1 0x20 ADD DUP1 DUP4 GT PUSH2 0x22D1 JUMPI DUP3 SWAP1 SUB PUSH1 0x1F AND DUP3 ADD SWAP2 JUMPDEST POP POP POP POP POP DUP2 MSTORE PUSH1 0x20 ADD PUSH1 0x3 DUP3 ADD SLOAD DUP2 MSTORE PUSH1 0x20 ADD PUSH1 0x4 DUP3 ADD SLOAD DUP2 MSTORE PUSH1 0x20 ADD PUSH1 0x5 DUP3 ADD SLOAD DUP2 MSTORE PUSH1 0x20 ADD PUSH1 0x6 DUP3 ADD SLOAD DUP2 MSTORE PUSH1 0x20 ADD PUSH1 0x7 DUP3 ADD SLOAD DUP2 MSTORE PUSH1 0x20 ADD PUSH1 0x8 DUP3 ADD PUSH0 SWAP1 SLOAD SWAP1 PUSH2 0x100 EXP SWAP1 DIV PUSH20 0xFFFFFFFFFFFFFFFFFFFFFFFFFFFFFFFFFFFFFFFF AND PUSH20 0xFFFFFFFFFFFFFFFFFFFFFFFFFFFFFFFFFFFFFFFF AND PUSH20 0xFFFFFFFFFFFFFFFFFFFFFFFFFFFFFFFFFFFFFFFF AND DUP2 MSTORE PUSH1 0x20 ADD PUSH1 0x8 DUP3 ADD PUSH1 0x14 SWAP1 SLOAD SWAP1 PUSH2 0x100 EXP SWAP1 DIV PUSH1 0xFF AND ISZERO ISZERO ISZERO ISZERO DUP2 MSTORE POP POP SWAP1 DUP1 PUSH1 0x9 ADD SLOAD SWAP1 DUP1 PUSH1 0xA ADD SLOAD SWAP1 DUP1 PUSH1 0xB ADD PUSH1 0x40 MLOAD DUP1 PUSH1 0x60 ADD PUSH1 0x40 MSTORE SWAP1 DUP2 PUSH0 DUP3 ADD SLOAD DUP2 MSTORE PUSH1 0x20 ADD PUSH1 0x1 DUP3 ADD SLOAD DUP2 MSTORE PUSH1 0x20 ADD PUSH1 0x2 DUP3 ADD SLOAD DUP2 MSTORE POP POP SWAP1 DUP1 PUSH1 0xE ADD PUSH1 0x40 MLOAD DUP1 PUSH1 0x60 ADD PUSH1 0x40 MSTORE SWAP1 DUP2 PUSH0 DUP3 ADD SLOAD DUP2 MSTORE PUSH1 0x20 ADD PUSH1 0x1 DUP3 ADD SLOAD DUP2 MSTORE PUSH1 0x20 ADD PUSH1 0x2 DUP3 ADD SLOAD DUP2 MSTORE POP POP SWAP1 DUP1 PUSH1 0x11 ADD SLOAD SWAP1 POP DUP7 JUMP JUMPDEST PUSH1 0x4 PUSH0 DUP4 PUSH20 0xFFFFFFFFFFFFFFFFFFFFFFFFFFFFFFFFFFFFFFFF AND PUSH20 0xFFFFFFFFFFFFFFFFFFFFFFFFFFFFFFFFFFFFFFFF AND DUP2 MSTORE PUSH1 0x20 ADD SWAP1 DUP2 MSTORE PUSH1 0x20 ADD PUSH0 KECCAK256 DUP1 SLOAD SWAP1 POP DUP2 LT PUSH2 0x248C JUMPI PUSH1 0x40 MLOAD PUSH32 0x8C379A000000000000000000000000000000000000000000000000000000000 DUP2 MSTORE PUSH1 0x4 ADD PUSH2 0x2483 SWAP1 PUSH2 0x454C JUMP JUMPDEST PUSH1 0x40 MLOAD DUP1 SWAP2 SUB SWAP1 REVERT JUMPDEST PUSH1 0x4 PUSH0 DUP4 PUSH20 0xFFFFFFFFFFFFFFFFFFFFFFFFFFFFFFFFFFFFFFFF AND PUSH20 0xFFFFFFFFFFFFFFFFFFFFFFFFFFFFFFFFFFFFFFFF AND DUP2 MSTORE PUSH1 0x20 ADD SWAP1 DUP2 MSTORE PUSH1 0x20 ADD PUSH0 KECCAK256 PUSH1 0x1 PUSH1 0x4 PUSH0 DUP6 PUSH20 0xFFFFFFFFFFFFFFFFFFFFFFFFFFFFFFFFFFFFFFFF AND PUSH20 0xFFFFFFFFFFFFFFFFFFFFFFFFFFFFFFFFFFFFFFFF AND DUP2 MSTORE PUSH1 0x20 ADD SWAP1 DUP2 MSTORE PUSH1 0x20 ADD PUSH0 KECCAK256 DUP1 SLOAD SWAP1 POP PUSH2 0x2516 SWAP2 SWAP1 PUSH2 0x3EEE JUMP JUMPDEST DUP2 SLOAD DUP2 LT PUSH2 0x2527 JUMPI PUSH2 0x2526 PUSH2 0x3457 JUMP JUMPDEST JUMPDEST SWAP1 PUSH0 MSTORE PUSH1 0x20 PUSH0 KECCAK256 SWAP1 PUSH1 0x12 MUL ADD PUSH1 0x4 PUSH0 DUP5 PUSH20 0xFFFFFFFFFFFFFFFFFFFFFFFFFFFFFFFFFFFFFFFF AND PUSH20 0xFFFFFFFFFFFFFFFFFFFFFFFFFFFFFFFFFFFFFFFF AND DUP2 MSTORE PUSH1 0x20 ADD SWAP1 DUP2 MSTORE PUSH1 0x20 ADD PUSH0 KECCAK256 DUP3 DUP2 SLOAD DUP2 LT PUSH2 0x2582 JUMPI PUSH2 0x2581 PUSH2 0x3457 JUMP JUMPDEST JUMPDEST SWAP1 PUSH0 MSTORE PUSH1 0x20 PUSH0 KECCAK256 SWAP1 PUSH1 0x12 MUL ADD PUSH0 DUP3 ADD DUP2 PUSH0 ADD PUSH0 DUP3 ADD SLOAD DUP2 PUSH0 ADD SSTORE PUSH1 0x1 DUP3 ADD DUP2 PUSH1 0x1 ADD SWAP1 DUP2 PUSH2 0x25B0 SWAP2 SWAP1 PUSH2 0x457F JUMP JUMPDEST POP PUSH1 0x2 DUP3 ADD DUP2 PUSH1 0x2 ADD SWAP1 DUP2 PUSH2 0x25C5 SWAP2 SWAP1 PUSH2 0x457F JUMP JUMPDEST POP PUSH1 0x3 DUP3 ADD SLOAD DUP2 PUSH1 0x3 ADD SSTORE PUSH1 0x4 DUP3 ADD SLOAD DUP2 PUSH1 0x4 ADD SSTORE PUSH1 0x5 DUP3 ADD SLOAD DUP2 PUSH1 0x5 ADD SSTORE PUSH1 0x6 DUP3 ADD SLOAD DUP2 PUSH1 0x6 ADD SSTORE PUSH1 0x7 DUP3 ADD SLOAD DUP2 PUSH1 0x7 ADD SSTORE PUSH1 0x8 DUP3 ADD PUSH0 SWAP1 SLOAD SWAP1 PUSH2 0x100 EXP SWAP1 DIV PUSH20 0xFFFFFFFFFFFFFFFFFFFFFFFFFFFFFFFFFFFFFFFF AND DUP2 PUSH1 0x8 ADD PUSH0 PUSH2 0x100 EXP DUP2 SLOAD DUP2 PUSH20 0xFFFFFFFFFFFFFFFFFFFFFFFFFFFFFFFFFFFFFFFF MUL NOT AND SWAP1 DUP4 PUSH20 0xFFFFFFFFFFFFFFFFFFFFFFFFFFFFFFFFFFFFFFFF AND MUL OR SWAP1 SSTORE POP PUSH1 0x8 DUP3 ADD PUSH1 0x14 SWAP1 SLOAD SWAP1 PUSH2 0x100 EXP SWAP1 DIV PUSH1 0xFF AND DUP2 PUSH1 0x8 ADD PUSH1 0x14 PUSH2 0x100 EXP DUP2 SLOAD DUP2 PUSH1 0xFF MUL NOT AND SWAP1 DUP4 ISZERO ISZERO MUL OR SWAP1 SSTORE POP POP POP PUSH1 0x9 DUP3 ADD SLOAD DUP2 PUSH1 0x9 ADD SSTORE PUSH1 0xA DUP3 ADD SLOAD DUP2 PUSH1 0xA ADD SSTORE PUSH1 0xB DUP3 ADD DUP2 PUSH1 0xB ADD PUSH0 DUP3 ADD SLOAD DUP2 PUSH0 ADD SSTORE PUSH1 0x1 DUP3 ADD SLOAD DUP2 PUSH1 0x1 ADD SSTORE PUSH1 0x2 DUP3 ADD SLOAD DUP2 PUSH1 0x2 ADD SSTORE POP POP PUSH1 0xE DUP3 ADD DUP2 PUSH1 0xE ADD PUSH0 DUP3 ADD SLOAD DUP2 PUSH0 ADD SSTORE PUSH1 0x1 DUP3 ADD SLOAD DUP2 PUSH1 0x1 ADD SSTORE PUSH1 0x2 DUP3 ADD SLOAD DUP2 PUSH1 0x2 ADD SSTORE POP POP PUSH1 0x11 DUP3 ADD SLOAD DUP2 PUSH1 0x11 ADD SSTORE SWAP1 POP POP PUSH1 0x4 PUSH0 DUP4 PUSH20 0xFFFFFFFFFFFFFFFFFFFFFFFFFFFFFFFFFFFFFFFF AND PUSH20 0xFFFFFFFFFFFFFFFFFFFFFFFFFFFFFFFFFFFFFFFF AND DUP2 MSTORE PUSH1 0x20 ADD SWAP1 DUP2 MSTORE PUSH1 0x20 ADD PUSH0 KECCAK256 DUP1 SLOAD DUP1 PUSH2 0x2746 JUMPI PUSH2 0x2745 PUSH2 0x4664 JUMP JUMPDEST JUMPDEST PUSH1 0x1 SWAP1 SUB DUP2 DUP2 SWAP1 PUSH0 MSTORE PUSH1 0x20 PUSH0 KECCAK256 SWAP1 PUSH1 0x12 MUL ADD PUSH0 DUP1 DUP3 ADD PUSH0 DUP1 DUP3 ADD PUSH0 SWAP1 SSTORE PUSH1 0x1 DUP3 ADD PUSH0 PUSH2 0x2772 SWAP2 SWAP1 PUSH2 0x2CCE JUMP JUMPDEST PUSH1 0x2 DUP3 ADD PUSH0 PUSH2 0x2781 SWAP2 SWAP1 PUSH2 0x2CCE JUMP JUMPDEST PUSH1 0x3 DUP3 ADD PUSH0 SWAP1 SSTORE PUSH1 0x4 DUP3 ADD PUSH0 SWAP1 SSTORE PUSH1 0x5 DUP3 ADD PUSH0 SWAP1 SSTORE PUSH1 0x6 DUP3 ADD PUSH0 SWAP1 SSTORE PUSH1 0x7 DUP3 ADD PUSH0 SWAP1 SSTORE PUSH1 0x8 DUP3 ADD PUSH0 PUSH2 0x100 EXP DUP2 SLOAD SWAP1 PUSH20 0xFFFFFFFFFFFFFFFFFFFFFFFFFFFFFFFFFFFFFFFF MUL NOT AND SWAP1 SSTORE PUSH1 0x8 DUP3 ADD PUSH1 0x14 PUSH2 0x100 EXP DUP2 SLOAD SWAP1 PUSH1 0xFF MUL NOT AND SWAP1 SSTORE POP POP PUSH1 0x9 DUP3 ADD PUSH0 SWAP1 SSTORE PUSH1 0xA DUP3 ADD PUSH0 SWAP1 SSTORE PUSH1 0xB DUP3 ADD PUSH0 DUP1 DUP3 ADD PUSH0 SWAP1 SSTORE PUSH1 0x1 DUP3 ADD PUSH0 SWAP1 SSTORE PUSH1 0x2 DUP3 ADD PUSH0 SWAP1 SSTORE POP POP PUSH1 0xE DUP3 ADD PUSH0 DUP1 DUP3 ADD PUSH0 SWAP1 SSTORE PUSH1 0x1 DUP3 ADD PUSH0 SWAP1 SSTORE PUSH1 0x2 DUP3 ADD PUSH0 SWAP1 SSTORE POP POP PUSH1 0x11 DUP3 ADD PUSH0 SWAP1 SSTORE POP POP SWAP1 SSTORE POP POP JUMP JUMPDEST PUSH1 0x60 PUSH0 PUSH1 0x1 PUSH2 0x2841 DUP5 PUSH2 0x29B9 JUMP JUMPDEST ADD SWAP1 POP PUSH0 DUP2 PUSH8 0xFFFFFFFFFFFFFFFF DUP2 GT ISZERO PUSH2 0x285F JUMPI PUSH2 0x285E PUSH2 0x3643 JUMP JUMPDEST JUMPDEST PUSH1 0x40 MLOAD SWAP1 DUP1 DUP3 MSTORE DUP1 PUSH1 0x1F ADD PUSH1 0x1F NOT AND PUSH1 0x20 ADD DUP3 ADD PUSH1 0x40 MSTORE DUP1 ISZERO PUSH2 0x2891 JUMPI DUP2 PUSH1 0x20 ADD PUSH1 0x1 DUP3 MUL DUP1 CALLDATASIZE DUP4 CALLDATACOPY DUP1 DUP3 ADD SWAP2 POP POP SWAP1 POP JUMPDEST POP SWAP1 POP PUSH0 DUP3 PUSH1 0x20 ADD DUP3 ADD SWAP1 POP JUMPDEST PUSH1 0x1 ISZERO PUSH2 0x28F2 JUMPI DUP1 DUP1 PUSH1 0x1 SWAP1 SUB SWAP2 POP POP PUSH32 0x3031323334353637383961626364656600000000000000000000000000000000 PUSH1 0xA DUP7 MOD BYTE DUP2 MSTORE8 PUSH1 0xA DUP6 DUP2 PUSH2 0x28E7 JUMPI PUSH2 0x28E6 PUSH2 0x3DD8 JUMP JUMPDEST JUMPDEST DIV SWAP5 POP PUSH0 DUP6 SUB PUSH2 0x289E JUMPI JUMPDEST DUP2 SWAP4 POP POP POP POP SWAP2 SWAP1 POP JUMP JUMPDEST PUSH0 DUP1 PUSH0 PUSH2 0x291C PUSH3 0x15180 DUP6 DUP2 PUSH2 0x2916 JUMPI PUSH2 0x2915 PUSH2 0x3DD8 JUMP JUMPDEST JUMPDEST DIV PUSH2 0x2B0A JUMP JUMPDEST DUP1 SWAP4 POP DUP2 SWAP5 POP DUP3 SWAP6 POP POP POP POP SWAP2 SWAP4 SWAP1 SWAP3 POP JUMP JUMPDEST PUSH1 0x1 PUSH0 SWAP1 SLOAD SWAP1 PUSH2 0x100 EXP SWAP1 DIV PUSH20 0xFFFFFFFFFFFFFFFFFFFFFFFFFFFFFFFFFFFFFFFF AND PUSH20 0xFFFFFFFFFFFFFFFFFFFFFFFFFFFFFFFFFFFFFFFF AND PUSH4 0x22191F72 DUP3 PUSH1 0x40 MLOAD DUP3 PUSH4 0xFFFFFFFF AND PUSH1 0xE0 SHL DUP2 MSTORE PUSH1 0x4 ADD PUSH2 0x2989 SWAP2 SWAP1 PUSH2 0x2DA4 JUMP JUMPDEST PUSH0 PUSH1 0x40 MLOAD DUP1 DUP4 SUB DUP2 PUSH0 DUP8 DUP1 EXTCODESIZE ISZERO DUP1 ISZERO PUSH2 0x29A0 JUMPI PUSH0 DUP1 REVERT JUMPDEST POP GAS CALL ISZERO DUP1 ISZERO PUSH2 0x29B2 JUMPI RETURNDATASIZE PUSH0 DUP1 RETURNDATACOPY RETURNDATASIZE PUSH0 REVERT JUMPDEST POP POP POP POP POP JUMP JUMPDEST PUSH0 DUP1 PUSH0 SWAP1 POP PUSH27 0x184F03E93FF9F4DAA797ED6E38ED64BF6A1F010000000000000000 DUP4 LT PUSH2 0x2A15 JUMPI PUSH27 0x184F03E93FF9F4DAA797ED6E38ED64BF6A1F010000000000000000 DUP4 DUP2 PUSH2 0x2A0B JUMPI PUSH2 0x2A0A PUSH2 0x3DD8 JUMP JUMPDEST JUMPDEST DIV SWAP3 POP PUSH1 0x40 DUP2 ADD SWAP1 POP JUMPDEST PUSH14 0x4EE2D6D415B85ACEF8100000000 DUP4 LT PUSH2 0x2A52 JUMPI PUSH14 0x4EE2D6D415B85ACEF8100000000 DUP4 DUP2 PUSH2 0x2A48 JUMPI PUSH2 0x2A47 PUSH2 0x3DD8 JUMP JUMPDEST JUMPDEST DIV SWAP3 POP PUSH1 0x20 DUP2 ADD SWAP1 POP JUMPDEST PUSH7 0x2386F26FC10000 DUP4 LT PUSH2 0x2A81 JUMPI PUSH7 0x2386F26FC10000 DUP4 DUP2 PUSH2 0x2A77 JUMPI PUSH2 0x2A76 PUSH2 0x3DD8 JUMP JUMPDEST JUMPDEST DIV SWAP3 POP PUSH1 0x10 DUP2 ADD SWAP1 POP JUMPDEST PUSH4 0x5F5E100 DUP4 LT PUSH2 0x2AAA JUMPI PUSH4 0x5F5E100 DUP4 DUP2 PUSH2 0x2AA0 JUMPI PUSH2 0x2A9F PUSH2 0x3DD8 JUMP JUMPDEST JUMPDEST DIV SWAP3 POP PUSH1 0x8 DUP2 ADD SWAP1 POP JUMPDEST PUSH2 0x2710 DUP4 LT PUSH2 0x2ACF JUMPI PUSH2 0x2710 DUP4 DUP2 PUSH2 0x2AC5 JUMPI PUSH2 0x2AC4 PUSH2 0x3DD8 JUMP JUMPDEST JUMPDEST DIV SWAP3 POP PUSH1 0x4 DUP2 ADD SWAP1 POP JUMPDEST PUSH1 0x64 DUP4 LT PUSH2 0x2AF2 JUMPI PUSH1 0x64 DUP4 DUP2 PUSH2 0x2AE8 JUMPI PUSH2 0x2AE7 PUSH2 0x3DD8 JUMP JUMPDEST JUMPDEST DIV SWAP3 POP PUSH1 0x2 DUP2 ADD SWAP1 POP JUMPDEST PUSH1 0xA DUP4 LT PUSH2 0x2B01 JUMPI PUSH1 0x1 DUP2 ADD SWAP1 POP JUMPDEST DUP1 SWAP2 POP POP SWAP2 SWAP1 POP JUMP JUMPDEST PUSH0 DUP1 PUSH0 DUP1 DUP5 SWAP1 POP PUSH0 PUSH3 0x253D8C PUSH3 0x10BD9 DUP4 ADD ADD SWAP1 POP PUSH0 PUSH3 0x23AB1 DUP3 PUSH1 0x4 MUL DUP2 PUSH2 0x2B36 JUMPI PUSH2 0x2B35 PUSH2 0x3DD8 JUMP JUMPDEST JUMPDEST SDIV SWAP1 POP PUSH1 0x4 PUSH1 0x3 DUP3 PUSH3 0x23AB1 MUL ADD DUP2 PUSH2 0x2B52 JUMPI PUSH2 0x2B51 PUSH2 0x3DD8 JUMP JUMPDEST JUMPDEST SDIV DUP3 SUB SWAP2 POP PUSH0 PUSH3 0x164B09 PUSH1 0x1 DUP5 ADD PUSH2 0xFA0 MUL DUP2 PUSH2 0x2B72 JUMPI PUSH2 0x2B71 PUSH2 0x3DD8 JUMP JUMPDEST JUMPDEST SDIV SWAP1 POP PUSH1 0x1F PUSH1 0x4 DUP3 PUSH2 0x5B5 MUL DUP2 PUSH2 0x2B8C JUMPI PUSH2 0x2B8B PUSH2 0x3DD8 JUMP JUMPDEST JUMPDEST SDIV DUP5 SUB ADD SWAP3 POP PUSH0 PUSH2 0x98F DUP5 PUSH1 0x50 MUL DUP2 PUSH2 0x2BA8 JUMPI PUSH2 0x2BA7 PUSH2 0x3DD8 JUMP JUMPDEST JUMPDEST SDIV SWAP1 POP PUSH0 PUSH1 0x50 DUP3 PUSH2 0x98F MUL DUP2 PUSH2 0x2BC1 JUMPI PUSH2 0x2BC0 PUSH2 0x3DD8 JUMP JUMPDEST JUMPDEST SDIV DUP6 SUB SWAP1 POP PUSH1 0xB DUP3 DUP2 PUSH2 0x2BD7 JUMPI PUSH2 0x2BD6 PUSH2 0x3DD8 JUMP JUMPDEST JUMPDEST SDIV SWAP5 POP DUP5 PUSH1 0xC MUL PUSH1 0x2 DUP4 ADD SUB SWAP2 POP DUP5 DUP4 PUSH1 0x31 DUP7 SUB PUSH1 0x64 MUL ADD ADD SWAP3 POP DUP3 SWAP9 POP DUP2 SWAP8 POP DUP1 SWAP7 POP POP POP POP POP POP POP SWAP2 SWAP4 SWAP1 SWAP3 POP JUMP JUMPDEST PUSH1 0x40 MLOAD DUP1 PUSH1 0x60 ADD PUSH1 0x40 MSTORE DUP1 PUSH0 DUP2 MSTORE PUSH1 0x20 ADD PUSH0 DUP2 MSTORE PUSH1 0x20 ADD PUSH0 DUP2 MSTORE POP SWAP1 JUMP JUMPDEST PUSH1 0x40 MLOAD DUP1 PUSH2 0x140 ADD PUSH1 0x40 MSTORE DUP1 PUSH0 DUP2 MSTORE PUSH1 0x20 ADD PUSH1 0x60 DUP2 MSTORE PUSH1 0x20 ADD PUSH1 0x60 DUP2 MSTORE PUSH1 0x20 ADD PUSH0 DUP2 MSTORE PUSH1 0x20 ADD PUSH0 DUP2 MSTORE PUSH1 0x20 ADD PUSH0 DUP2 MSTORE PUSH1 0x20 ADD PUSH0 DUP2 MSTORE PUSH1 0x20 ADD PUSH0 DUP2 MSTORE PUSH1 0x20 ADD PUSH0 PUSH20 0xFFFFFFFFFFFFFFFFFFFFFFFFFFFFFFFFFFFFFFFF AND DUP2 MSTORE PUSH1 0x20 ADD PUSH0 ISZERO ISZERO DUP2 MSTORE POP SWAP1 JUMP JUMPDEST PUSH1 0x40 MLOAD DUP1 PUSH1 0xC0 ADD PUSH1 0x40 MSTORE DUP1 PUSH2 0x2C9C PUSH2 0x2C26 JUMP JUMPDEST DUP2 MSTORE PUSH1 0x20 ADD PUSH0 DUP2 MSTORE PUSH1 0x20 ADD PUSH0 DUP2 MSTORE PUSH1 0x20 ADD PUSH2 0x2CB5 PUSH2 0x2C08 JUMP JUMPDEST DUP2 MSTORE PUSH1 0x20 ADD PUSH2 0x2CC2 PUSH2 0x2C08 JUMP JUMPDEST DUP2 MSTORE PUSH1 0x20 ADD PUSH0 DUP2 MSTORE POP SWAP1 JUMP JUMPDEST POP DUP1 SLOAD PUSH2 0x2CDA SWAP1 PUSH2 0x34B1 JUMP JUMPDEST PUSH0 DUP3 SSTORE DUP1 PUSH1 0x1F LT PUSH2 0x2CEB JUMPI POP PUSH2 0x2D08 JUMP JUMPDEST PUSH1 0x1F ADD PUSH1 0x20 SWAP1 DIV SWAP1 PUSH0 MSTORE PUSH1 0x20 PUSH0 KECCAK256 SWAP1 DUP2 ADD SWAP1 PUSH2 0x2D07 SWAP2 SWAP1 PUSH2 0x2D0B JUMP JUMPDEST JUMPDEST POP JUMP JUMPDEST JUMPDEST DUP1 DUP3 GT ISZERO PUSH2 0x2D22 JUMPI PUSH0 DUP2 PUSH0 SWAP1 SSTORE POP PUSH1 0x1 ADD PUSH2 0x2D0C JUMP JUMPDEST POP SWAP1 JUMP JUMPDEST PUSH0 PUSH1 0x40 MLOAD SWAP1 POP SWAP1 JUMP JUMPDEST PUSH0 DUP1 REVERT JUMPDEST PUSH0 DUP1 REVERT JUMPDEST PUSH0 DUP2 SWAP1 POP SWAP2 SWAP1 POP JUMP JUMPDEST PUSH2 0x2D49 DUP2 PUSH2 0x2D37 JUMP JUMPDEST DUP2 EQ PUSH2 0x2D53 JUMPI PUSH0 DUP1 REVERT JUMPDEST POP JUMP JUMPDEST PUSH0 DUP2 CALLDATALOAD SWAP1 POP PUSH2 0x2D64 DUP2 PUSH2 0x2D40 JUMP JUMPDEST SWAP3 SWAP2 POP POP JUMP JUMPDEST PUSH0 PUSH1 0x20 DUP3 DUP5 SUB SLT ISZERO PUSH2 0x2D7F JUMPI PUSH2 0x2D7E PUSH2 0x2D2F JUMP JUMPDEST JUMPDEST PUSH0 PUSH2 0x2D8C DUP5 DUP3 DUP6 ADD PUSH2 0x2D56 JUMP JUMPDEST SWAP2 POP POP SWAP3 SWAP2 POP POP JUMP JUMPDEST PUSH2 0x2D9E DUP2 PUSH2 0x2D37 JUMP JUMPDEST DUP3 MSTORE POP POP JUMP JUMPDEST PUSH0 PUSH1 0x20 DUP3 ADD SWAP1 POP PUSH2 0x2DB7 PUSH0 DUP4 ADD DUP5 PUSH2 0x2D95 JUMP JUMPDEST SWAP3 SWAP2 POP POP JUMP JUMPDEST PUSH0 DUP2 MLOAD SWAP1 POP SWAP2 SWAP1 POP JUMP JUMPDEST PUSH0 DUP3 DUP3 MSTORE PUSH1 0x20 DUP3 ADD SWAP1 POP SWAP3 SWAP2 POP POP JUMP JUMPDEST PUSH0 DUP2 SWAP1 POP PUSH1 0x20 DUP3 ADD SWAP1 POP SWAP2 SWAP1 POP JUMP JUMPDEST PUSH2 0x2DEF DUP2 PUSH2 0x2D37 JUMP JUMPDEST DUP3 MSTORE POP POP JUMP JUMPDEST PUSH0 DUP2 MLOAD SWAP1 POP SWAP2 SWAP1 POP JUMP JUMPDEST PUSH0 DUP3 DUP3 MSTORE PUSH1 0x20 DUP3 ADD SWAP1 POP SWAP3 SWAP2 POP POP JUMP JUMPDEST DUP3 DUP2 DUP4 MCOPY PUSH0 DUP4 DUP4 ADD MSTORE POP POP POP JUMP JUMPDEST PUSH0 PUSH1 0x1F NOT PUSH1 0x1F DUP4 ADD AND SWAP1 POP SWAP2 SWAP1 POP JUMP JUMPDEST PUSH0 PUSH2 0x2E37 DUP3 PUSH2 0x2DF5 JUMP JUMPDEST PUSH2 0x2E41 DUP2 DUP6 PUSH2 0x2DFF JUMP JUMPDEST SWAP4 POP PUSH2 0x2E51 DUP2 DUP6 PUSH1 0x20 DUP7 ADD PUSH2 0x2E0F JUMP JUMPDEST PUSH2 0x2E5A DUP2 PUSH2 0x2E1D JUMP JUMPDEST DUP5 ADD SWAP2 POP POP SWAP3 SWAP2 POP POP JUMP JUMPDEST PUSH0 PUSH20 0xFFFFFFFFFFFFFFFFFFFFFFFFFFFFFFFFFFFFFFFF DUP3 AND SWAP1 POP SWAP2 SWAP1 POP JUMP JUMPDEST PUSH0 PUSH2 0x2E8E DUP3 PUSH2 0x2E65 JUMP JUMPDEST SWAP1 POP SWAP2 SWAP1 POP JUMP JUMPDEST PUSH2 0x2E9E DUP2 PUSH2 0x2E84 JUMP JUMPDEST DUP3 MSTORE POP POP JUMP JUMPDEST PUSH0 DUP2 ISZERO ISZERO SWAP1 POP SWAP2 SWAP1 POP JUMP JUMPDEST PUSH2 0x2EB8 DUP2 PUSH2 0x2EA4 JUMP JUMPDEST DUP3 MSTORE POP POP JUMP JUMPDEST PUSH0 PUSH2 0x140 DUP4 ADD PUSH0 DUP4 ADD MLOAD PUSH2 0x2ED4 PUSH0 DUP7 ADD DUP3 PUSH2 0x2DE6 JUMP JUMPDEST POP PUSH1 0x20 DUP4 ADD MLOAD DUP5 DUP3 SUB PUSH1 0x20 DUP7 ADD MSTORE PUSH2 0x2EEC DUP3 DUP3 PUSH2 0x2E2D JUMP JUMPDEST SWAP2 POP POP PUSH1 0x40 DUP4 ADD MLOAD DUP5 DUP3 SUB PUSH1 0x40 DUP7 ADD MSTORE PUSH2 0x2F06 DUP3 DUP3 PUSH2 0x2E2D JUMP JUMPDEST SWAP2 POP POP PUSH1 0x60 DUP4 ADD MLOAD PUSH2 0x2F1B PUSH1 0x60 DUP7 ADD DUP3 PUSH2 0x2DE6 JUMP JUMPDEST POP PUSH1 0x80 DUP4 ADD MLOAD PUSH2 0x2F2E PUSH1 0x80 DUP7 ADD DUP3 PUSH2 0x2DE6 JUMP JUMPDEST POP PUSH1 0xA0 DUP4 ADD MLOAD PUSH2 0x2F41 PUSH1 0xA0 DUP7 ADD DUP3 PUSH2 0x2DE6 JUMP JUMPDEST POP PUSH1 0xC0 DUP4 ADD MLOAD PUSH2 0x2F54 PUSH1 0xC0 DUP7 ADD DUP3 PUSH2 0x2DE6 JUMP JUMPDEST POP PUSH1 0xE0 DUP4 ADD MLOAD PUSH2 0x2F67 PUSH1 0xE0 DUP7 ADD DUP3 PUSH2 0x2DE6 JUMP JUMPDEST POP PUSH2 0x100 DUP4 ADD MLOAD PUSH2 0x2F7C PUSH2 0x100 DUP7 ADD DUP3 PUSH2 0x2E95 JUMP JUMPDEST POP PUSH2 0x120 DUP4 ADD MLOAD PUSH2 0x2F91 PUSH2 0x120 DUP7 ADD DUP3 PUSH2 0x2EAF JUMP JUMPDEST POP DUP1 SWAP2 POP POP SWAP3 SWAP2 POP POP JUMP JUMPDEST PUSH0 PUSH2 0x2FA7 DUP4 DUP4 PUSH2 0x2EBE JUMP JUMPDEST SWAP1 POP SWAP3 SWAP2 POP POP JUMP JUMPDEST PUSH0 PUSH1 0x20 DUP3 ADD SWAP1 POP SWAP2 SWAP1 POP JUMP JUMPDEST PUSH0 PUSH2 0x2FC5 DUP3 PUSH2 0x2DBD JUMP JUMPDEST PUSH2 0x2FCF DUP2 DUP6 PUSH2 0x2DC7 JUMP JUMPDEST SWAP4 POP DUP4 PUSH1 0x20 DUP3 MUL DUP6 ADD PUSH2 0x2FE1 DUP6 PUSH2 0x2DD7 JUMP JUMPDEST DUP1 PUSH0 JUMPDEST DUP6 DUP2 LT ISZERO PUSH2 0x301C JUMPI DUP5 DUP5 SUB DUP10 MSTORE DUP2 MLOAD PUSH2 0x2FFD DUP6 DUP3 PUSH2 0x2F9C JUMP JUMPDEST SWAP5 POP PUSH2 0x3008 DUP4 PUSH2 0x2FAF JUMP JUMPDEST SWAP3 POP PUSH1 0x20 DUP11 ADD SWAP10 POP POP PUSH1 0x1 DUP2 ADD SWAP1 POP PUSH2 0x2FE4 JUMP JUMPDEST POP DUP3 SWAP8 POP DUP8 SWAP6 POP POP POP POP POP POP SWAP3 SWAP2 POP POP JUMP JUMPDEST PUSH0 PUSH1 0x20 DUP3 ADD SWAP1 POP DUP2 DUP2 SUB PUSH0 DUP4 ADD MSTORE PUSH2 0x3046 DUP2 DUP5 PUSH2 0x2FBB JUMP JUMPDEST SWAP1 POP SWAP3 SWAP2 POP POP JUMP JUMPDEST PUSH0 DUP2 MLOAD SWAP1 POP SWAP2 SWAP1 POP JUMP JUMPDEST PUSH0 DUP3 DUP3 MSTORE PUSH1 0x20 DUP3 ADD SWAP1 POP SWAP3 SWAP2 POP POP JUMP JUMPDEST PUSH0 DUP2 SWAP1 POP PUSH1 0x20 DUP3 ADD SWAP1 POP SWAP2 SWAP1 POP JUMP JUMPDEST PUSH1 0x60 DUP3 ADD PUSH0 DUP3 ADD MLOAD PUSH2 0x308B PUSH0 DUP6 ADD DUP3 PUSH2 0x2DE6 JUMP JUMPDEST POP PUSH1 0x20 DUP3 ADD MLOAD PUSH2 0x309E PUSH1 0x20 DUP6 ADD DUP3 PUSH2 0x2DE6 JUMP JUMPDEST POP PUSH1 0x40 DUP3 ADD MLOAD PUSH2 0x30B1 PUSH1 0x40 DUP6 ADD DUP3 PUSH2 0x2DE6 JUMP JUMPDEST POP POP POP POP JUMP JUMPDEST PUSH0 PUSH2 0x140 DUP4 ADD PUSH0 DUP4 ADD MLOAD DUP5 DUP3 SUB PUSH0 DUP7 ADD MSTORE PUSH2 0x30D2 DUP3 DUP3 PUSH2 0x2EBE JUMP JUMPDEST SWAP2 POP POP PUSH1 0x20 DUP4 ADD MLOAD PUSH2 0x30E7 PUSH1 0x20 DUP7 ADD DUP3 PUSH2 0x2DE6 JUMP JUMPDEST POP PUSH1 0x40 DUP4 ADD MLOAD PUSH2 0x30FA PUSH1 0x40 DUP7 ADD DUP3 PUSH2 0x2DE6 JUMP JUMPDEST POP PUSH1 0x60 DUP4 ADD MLOAD PUSH2 0x310D PUSH1 0x60 DUP7 ADD DUP3 PUSH2 0x3077 JUMP JUMPDEST POP PUSH1 0x80 DUP4 ADD MLOAD PUSH2 0x3120 PUSH1 0xC0 DUP7 ADD DUP3 PUSH2 0x3077 JUMP JUMPDEST POP PUSH1 0xA0 DUP4 ADD MLOAD PUSH2 0x3134 PUSH2 0x120 DUP7 ADD DUP3 PUSH2 0x2DE6 JUMP JUMPDEST POP DUP1 SWAP2 POP POP SWAP3 SWAP2 POP POP JUMP JUMPDEST PUSH0 PUSH2 0x314A DUP4 DUP4 PUSH2 0x30B7 JUMP JUMPDEST SWAP1 POP SWAP3 SWAP2 POP POP JUMP JUMPDEST PUSH0 PUSH1 0x20 DUP3 ADD SWAP1 POP SWAP2 SWAP1 POP JUMP JUMPDEST PUSH0 PUSH2 0x3168 DUP3 PUSH2 0x304E JUMP JUMPDEST PUSH2 0x3172 DUP2 DUP6 PUSH2 0x3058 JUMP JUMPDEST SWAP4 POP DUP4 PUSH1 0x20 DUP3 MUL DUP6 ADD PUSH2 0x3184 DUP6 PUSH2 0x3068 JUMP JUMPDEST DUP1 PUSH0 JUMPDEST DUP6 DUP2 LT ISZERO PUSH2 0x31BF JUMPI DUP5 DUP5 SUB DUP10 MSTORE DUP2 MLOAD PUSH2 0x31A0 DUP6 DUP3 PUSH2 0x313F JUMP JUMPDEST SWAP5 POP PUSH2 0x31AB DUP4 PUSH2 0x3152 JUMP JUMPDEST SWAP3 POP PUSH1 0x20 DUP11 ADD SWAP10 POP POP PUSH1 0x1 DUP2 ADD SWAP1 POP PUSH2 0x3187 JUMP JUMPDEST POP DUP3 SWAP8 POP DUP8 SWAP6 POP POP POP POP POP POP SWAP3 SWAP2 POP POP JUMP JUMPDEST PUSH0 PUSH1 0x20 DUP3 ADD SWAP1 POP DUP2 DUP2 SUB PUSH0 DUP4 ADD MSTORE PUSH2 0x31E9 DUP2 DUP5 PUSH2 0x315E JUMP JUMPDEST SWAP1 POP SWAP3 SWAP2 POP POP JUMP JUMPDEST PUSH2 0x31FA DUP2 PUSH2 0x2E84 JUMP JUMPDEST DUP2 EQ PUSH2 0x3204 JUMPI PUSH0 DUP1 REVERT JUMPDEST POP JUMP JUMPDEST PUSH0 DUP2 CALLDATALOAD SWAP1 POP PUSH2 0x3215 DUP2 PUSH2 0x31F1 JUMP JUMPDEST SWAP3 SWAP2 POP POP JUMP JUMPDEST PUSH0 DUP1 PUSH1 0x40 DUP4 DUP6 SUB SLT ISZERO PUSH2 0x3231 JUMPI PUSH2 0x3230 PUSH2 0x2D2F JUMP JUMPDEST JUMPDEST PUSH0 PUSH2 0x323E DUP6 DUP3 DUP7 ADD PUSH2 0x3207 JUMP JUMPDEST SWAP3 POP POP PUSH1 0x20 PUSH2 0x324F DUP6 DUP3 DUP7 ADD PUSH2 0x2D56 JUMP JUMPDEST SWAP2 POP POP SWAP3 POP SWAP3 SWAP1 POP JUMP JUMPDEST PUSH0 PUSH2 0x140 DUP4 ADD PUSH0 DUP4 ADD MLOAD PUSH2 0x326F PUSH0 DUP7 ADD DUP3 PUSH2 0x2DE6 JUMP JUMPDEST POP PUSH1 0x20 DUP4 ADD MLOAD DUP5 DUP3 SUB PUSH1 0x20 DUP7 ADD MSTORE PUSH2 0x3287 DUP3 DUP3 PUSH2 0x2E2D JUMP JUMPDEST SWAP2 POP POP PUSH1 0x40 DUP4 ADD MLOAD DUP5 DUP3 SUB PUSH1 0x40 DUP7 ADD MSTORE PUSH2 0x32A1 DUP3 DUP3 PUSH2 0x2E2D JUMP JUMPDEST SWAP2 POP POP PUSH1 0x60 DUP4 ADD MLOAD PUSH2 0x32B6 PUSH1 0x60 DUP7 ADD DUP3 PUSH2 0x2DE6 JUMP JUMPDEST POP PUSH1 0x80 DUP4 ADD MLOAD PUSH2 0x32C9 PUSH1 0x80 DUP7 ADD DUP3 PUSH2 0x2DE6 JUMP JUMPDEST POP PUSH1 0xA0 DUP4 ADD MLOAD PUSH2 0x32DC PUSH1 0xA0 DUP7 ADD DUP3 PUSH2 0x2DE6 JUMP JUMPDEST POP PUSH1 0xC0 DUP4 ADD MLOAD PUSH2 0x32EF PUSH1 0xC0 DUP7 ADD DUP3 PUSH2 0x2DE6 JUMP JUMPDEST POP PUSH1 0xE0 DUP4 ADD MLOAD PUSH2 0x3302 PUSH1 0xE0 DUP7 ADD DUP3 PUSH2 0x2DE6 JUMP JUMPDEST POP PUSH2 0x100 DUP4 ADD MLOAD PUSH2 0x3317 PUSH2 0x100 DUP7 ADD DUP3 PUSH2 0x2E95 JUMP JUMPDEST POP PUSH2 0x120 DUP4 ADD MLOAD PUSH2 0x332C PUSH2 0x120 DUP7 ADD DUP3 PUSH2 0x2EAF JUMP JUMPDEST POP DUP1 SWAP2 POP POP SWAP3 SWAP2 POP POP JUMP JUMPDEST PUSH1 0x60 DUP3 ADD PUSH0 DUP3 ADD MLOAD PUSH2 0x334B PUSH0 DUP6 ADD DUP3 PUSH2 0x2DE6 JUMP JUMPDEST POP PUSH1 0x20 DUP3 ADD MLOAD PUSH2 0x335E PUSH1 0x20 DUP6 ADD DUP3 PUSH2 0x2DE6 JUMP JUMPDEST POP PUSH1 0x40 DUP3 ADD MLOAD PUSH2 0x3371 PUSH1 0x40 DUP6 ADD DUP3 PUSH2 0x2DE6 JUMP JUMPDEST POP POP POP POP JUMP JUMPDEST PUSH0 PUSH2 0x140 DUP3 ADD SWAP1 POP DUP2 DUP2 SUB PUSH0 DUP4 ADD MSTORE PUSH2 0x3390 DUP2 DUP10 PUSH2 0x3259 JUMP JUMPDEST SWAP1 POP PUSH2 0x339F PUSH1 0x20 DUP4 ADD DUP9 PUSH2 0x2D95 JUMP JUMPDEST PUSH2 0x33AC PUSH1 0x40 DUP4 ADD DUP8 PUSH2 0x2D95 JUMP JUMPDEST PUSH2 0x33B9 PUSH1 0x60 DUP4 ADD DUP7 PUSH2 0x3337 JUMP JUMPDEST PUSH2 0x33C6 PUSH1 0xC0 DUP4 ADD DUP6 PUSH2 0x3337 JUMP JUMPDEST PUSH2 0x33D4 PUSH2 0x120 DUP4 ADD DUP5 PUSH2 0x2D95 JUMP JUMPDEST SWAP8 SWAP7 POP POP POP POP POP POP POP JUMP JUMPDEST PUSH0 DUP3 DUP3 MSTORE PUSH1 0x20 DUP3 ADD SWAP1 POP SWAP3 SWAP2 POP POP JUMP JUMPDEST PUSH32 0x596F7520617265206E6F74206120706F6C696379686F6C646572000000000000 PUSH0 DUP3 ADD MSTORE POP JUMP JUMPDEST PUSH0 PUSH2 0x3423 PUSH1 0x1A DUP4 PUSH2 0x33DF JUMP JUMPDEST SWAP2 POP PUSH2 0x342E DUP3 PUSH2 0x33EF JUMP JUMPDEST PUSH1 0x20 DUP3 ADD SWAP1 POP SWAP2 SWAP1 POP JUMP JUMPDEST PUSH0 PUSH1 0x20 DUP3 ADD SWAP1 POP DUP2 DUP2 SUB PUSH0 DUP4 ADD MSTORE PUSH2 0x3450 DUP2 PUSH2 0x3417 JUMP JUMPDEST SWAP1 POP SWAP2 SWAP1 POP JUMP JUMPDEST PUSH32 0x4E487B7100000000000000000000000000000000000000000000000000000000 PUSH0 MSTORE PUSH1 0x32 PUSH1 0x4 MSTORE PUSH1 0x24 PUSH0 REVERT JUMPDEST PUSH32 0x4E487B7100000000000000000000000000000000000000000000000000000000 PUSH0 MSTORE PUSH1 0x22 PUSH1 0x4 MSTORE PUSH1 0x24 PUSH0 REVERT JUMPDEST PUSH0 PUSH1 0x2 DUP3 DIV SWAP1 POP PUSH1 0x1 DUP3 AND DUP1 PUSH2 0x34C8 JUMPI PUSH1 0x7F DUP3 AND SWAP2 POP JUMPDEST PUSH1 0x20 DUP3 LT DUP2 SUB PUSH2 0x34DB JUMPI PUSH2 0x34DA PUSH2 0x3484 JUMP JUMPDEST JUMPDEST POP SWAP2 SWAP1 POP JUMP JUMPDEST PUSH32 0x5468697320706F6C696379206973206E6F74206163746976652E000000000000 PUSH0 DUP3 ADD MSTORE POP JUMP JUMPDEST PUSH0 PUSH2 0x3515 PUSH1 0x1A DUP4 PUSH2 0x33DF JUMP JUMPDEST SWAP2 POP PUSH2 0x3520 DUP3 PUSH2 0x34E1 JUMP JUMPDEST PUSH1 0x20 DUP3 ADD SWAP1 POP SWAP2 SWAP1 POP JUMP JUMPDEST PUSH0 PUSH1 0x20 DUP3 ADD SWAP1 POP DUP2 DUP2 SUB PUSH0 DUP4 ADD MSTORE PUSH2 0x3542 DUP2 PUSH2 0x3509 JUMP JUMPDEST SWAP1 POP SWAP2 SWAP1 POP JUMP JUMPDEST PUSH32 0x596F752068617665206E6F7420626F75676874207468697320706F6C69637921 PUSH0 DUP3 ADD MSTORE POP JUMP JUMPDEST PUSH0 PUSH2 0x357D PUSH1 0x20 DUP4 PUSH2 0x33DF JUMP JUMPDEST SWAP2 POP PUSH2 0x3588 DUP3 PUSH2 0x3549 JUMP JUMPDEST PUSH1 0x20 DUP3 ADD SWAP1 POP SWAP2 SWAP1 POP JUMP JUMPDEST PUSH0 PUSH1 0x20 DUP3 ADD SWAP1 POP DUP2 DUP2 SUB PUSH0 DUP4 ADD MSTORE PUSH2 0x35AA DUP2 PUSH2 0x3571 JUMP JUMPDEST SWAP1 POP SWAP2 SWAP1 POP JUMP JUMPDEST PUSH32 0x596F7520646F206E6F74206F776E20746F6B656E7320666F7220746869732070 PUSH0 DUP3 ADD MSTORE PUSH32 0x6F6C696379210000000000000000000000000000000000000000000000000000 PUSH1 0x20 DUP3 ADD MSTORE POP JUMP JUMPDEST PUSH0 PUSH2 0x360B PUSH1 0x26 DUP4 PUSH2 0x33DF JUMP JUMPDEST SWAP2 POP PUSH2 0x3616 DUP3 PUSH2 0x35B1 JUMP JUMPDEST PUSH1 0x40 DUP3 ADD SWAP1 POP SWAP2 SWAP1 POP JUMP JUMPDEST PUSH0 PUSH1 0x20 DUP3 ADD SWAP1 POP DUP2 DUP2 SUB PUSH0 DUP4 ADD MSTORE PUSH2 0x3638 DUP2 PUSH2 0x35FF JUMP JUMPDEST SWAP1 POP SWAP2 SWAP1 POP JUMP JUMPDEST PUSH0 DUP1 REVERT JUMPDEST PUSH32 0x4E487B7100000000000000000000000000000000000000000000000000000000 PUSH0 MSTORE PUSH1 0x41 PUSH1 0x4 MSTORE PUSH1 0x24 PUSH0 REVERT JUMPDEST PUSH2 0x3679 DUP3 PUSH2 0x2E1D JUMP JUMPDEST DUP2 ADD DUP2 DUP2 LT PUSH8 0xFFFFFFFFFFFFFFFF DUP3 GT OR ISZERO PUSH2 0x3698 JUMPI PUSH2 0x3697 PUSH2 0x3643 JUMP JUMPDEST JUMPDEST DUP1 PUSH1 0x40 MSTORE POP POP POP JUMP JUMPDEST PUSH0 PUSH2 0x36AA PUSH2 0x2D26 JUMP JUMPDEST SWAP1 POP PUSH2 0x36B6 DUP3 DUP3 PUSH2 0x3670 JUMP JUMPDEST SWAP2 SWAP1 POP JUMP JUMPDEST PUSH0 DUP1 REVERT JUMPDEST PUSH0 DUP2 MLOAD SWAP1 POP PUSH2 0x36CD DUP2 PUSH2 0x2D40 JUMP JUMPDEST SWAP3 SWAP2 POP POP JUMP JUMPDEST PUSH0 DUP1 REVERT JUMPDEST PUSH0 DUP1 REVERT JUMPDEST PUSH0 PUSH8 0xFFFFFFFFFFFFFFFF DUP3 GT ISZERO PUSH2 0x36F5 JUMPI PUSH2 0x36F4 PUSH2 0x3643 JUMP JUMPDEST JUMPDEST PUSH2 0x36FE DUP3 PUSH2 0x2E1D JUMP JUMPDEST SWAP1 POP PUSH1 0x20 DUP2 ADD SWAP1 POP SWAP2 SWAP1 POP JUMP JUMPDEST PUSH0 PUSH2 0x371D PUSH2 0x3718 DUP5 PUSH2 0x36DB JUMP JUMPDEST PUSH2 0x36A1 JUMP JUMPDEST SWAP1 POP DUP3 DUP2 MSTORE PUSH1 0x20 DUP2 ADD DUP5 DUP5 DUP5 ADD GT ISZERO PUSH2 0x3739 JUMPI PUSH2 0x3738 PUSH2 0x36D7 JUMP JUMPDEST JUMPDEST PUSH2 0x3744 DUP5 DUP3 DUP6 PUSH2 0x2E0F JUMP JUMPDEST POP SWAP4 SWAP3 POP POP POP JUMP JUMPDEST PUSH0 DUP3 PUSH1 0x1F DUP4 ADD SLT PUSH2 0x3760 JUMPI PUSH2 0x375F PUSH2 0x36D3 JUMP JUMPDEST JUMPDEST DUP2 MLOAD PUSH2 0x3770 DUP5 DUP3 PUSH1 0x20 DUP7 ADD PUSH2 0x370B JUMP JUMPDEST SWAP2 POP POP SWAP3 SWAP2 POP POP JUMP JUMPDEST PUSH0 DUP2 MLOAD SWAP1 POP PUSH2 0x3787 DUP2 PUSH2 0x31F1 JUMP JUMPDEST SWAP3 SWAP2 POP POP JUMP JUMPDEST PUSH2 0x3796 DUP2 PUSH2 0x2EA4 JUMP JUMPDEST DUP2 EQ PUSH2 0x37A0 JUMPI PUSH0 DUP1 REVERT JUMPDEST POP JUMP JUMPDEST PUSH0 DUP2 MLOAD SWAP1 POP PUSH2 0x37B1 DUP2 PUSH2 0x378D JUMP JUMPDEST SWAP3 SWAP2 POP POP JUMP JUMPDEST PUSH0 PUSH2 0x140 DUP3 DUP5 SUB SLT ISZERO PUSH2 0x37CD JUMPI PUSH2 0x37CC PUSH2 0x363F JUMP JUMPDEST JUMPDEST PUSH2 0x37D8 PUSH2 0x140 PUSH2 0x36A1 JUMP JUMPDEST SWAP1 POP PUSH0 PUSH2 0x37E7 DUP5 DUP3 DUP6 ADD PUSH2 0x36BF JUMP JUMPDEST PUSH0 DUP4 ADD MSTORE POP PUSH1 0x20 DUP3 ADD MLOAD PUSH8 0xFFFFFFFFFFFFFFFF DUP2 GT ISZERO PUSH2 0x380A JUMPI PUSH2 0x3809 PUSH2 0x36BB JUMP JUMPDEST JUMPDEST PUSH2 0x3816 DUP5 DUP3 DUP6 ADD PUSH2 0x374C JUMP JUMPDEST PUSH1 0x20 DUP4 ADD MSTORE POP PUSH1 0x40 DUP3 ADD MLOAD PUSH8 0xFFFFFFFFFFFFFFFF DUP2 GT ISZERO PUSH2 0x383A JUMPI PUSH2 0x3839 PUSH2 0x36BB JUMP JUMPDEST JUMPDEST PUSH2 0x3846 DUP5 DUP3 DUP6 ADD PUSH2 0x374C JUMP JUMPDEST PUSH1 0x40 DUP4 ADD MSTORE POP PUSH1 0x60 PUSH2 0x385A DUP5 DUP3 DUP6 ADD PUSH2 0x36BF JUMP JUMPDEST PUSH1 0x60 DUP4 ADD MSTORE POP PUSH1 0x80 PUSH2 0x386E DUP5 DUP3 DUP6 ADD PUSH2 0x36BF JUMP JUMPDEST PUSH1 0x80 DUP4 ADD MSTORE POP PUSH1 0xA0 PUSH2 0x3882 DUP5 DUP3 DUP6 ADD PUSH2 0x36BF JUMP JUMPDEST PUSH1 0xA0 DUP4 ADD MSTORE POP PUSH1 0xC0 PUSH2 0x3896 DUP5 DUP3 DUP6 ADD PUSH2 0x36BF JUMP JUMPDEST PUSH1 0xC0 DUP4 ADD MSTORE POP PUSH1 0xE0 PUSH2 0x38AA DUP5 DUP3 DUP6 ADD PUSH2 0x36BF JUMP JUMPDEST PUSH1 0xE0 DUP4 ADD MSTORE POP PUSH2 0x100 PUSH2 0x38BF DUP5 DUP3 DUP6 ADD PUSH2 0x3779 JUMP JUMPDEST PUSH2 0x100 DUP4 ADD MSTORE POP PUSH2 0x120 PUSH2 0x38D5 DUP5 DUP3 DUP6 ADD PUSH2 0x37A3 JUMP JUMPDEST PUSH2 0x120 DUP4 ADD MSTORE POP SWAP3 SWAP2 POP POP JUMP JUMPDEST PUSH0 PUSH1 0x20 DUP3 DUP5 SUB SLT ISZERO PUSH2 0x38F7 JUMPI PUSH2 0x38F6 PUSH2 0x2D2F JUMP JUMPDEST JUMPDEST PUSH0 DUP3 ADD MLOAD PUSH8 0xFFFFFFFFFFFFFFFF DUP2 GT ISZERO PUSH2 0x3914 JUMPI PUSH2 0x3913 PUSH2 0x2D33 JUMP JUMPDEST JUMPDEST PUSH2 0x3920 DUP5 DUP3 DUP6 ADD PUSH2 0x37B7 JUMP JUMPDEST SWAP2 POP POP SWAP3 SWAP2 POP POP JUMP JUMPDEST PUSH32 0x4E487B7100000000000000000000000000000000000000000000000000000000 PUSH0 MSTORE PUSH1 0x11 PUSH1 0x4 MSTORE PUSH1 0x24 PUSH0 REVERT JUMPDEST PUSH0 PUSH2 0x3960 DUP3 PUSH2 0x2D37 JUMP JUMPDEST SWAP2 POP PUSH2 0x396B DUP4 PUSH2 0x2D37 JUMP JUMPDEST SWAP3 POP DUP3 DUP3 MUL PUSH2 0x3979 DUP2 PUSH2 0x2D37 JUMP JUMPDEST SWAP2 POP DUP3 DUP3 DIV DUP5 EQ DUP4 ISZERO OR PUSH2 0x3990 JUMPI PUSH2 0x398F PUSH2 0x3929 JUMP JUMPDEST JUMPDEST POP SWAP3 SWAP2 POP POP JUMP JUMPDEST PUSH2 0x39A0 DUP2 PUSH2 0x2E84 JUMP JUMPDEST DUP3 MSTORE POP POP JUMP JUMPDEST PUSH0 PUSH1 0x60 DUP3 ADD SWAP1 POP PUSH2 0x39B9 PUSH0 DUP4 ADD DUP7 PUSH2 0x3997 JUMP JUMPDEST PUSH2 0x39C6 PUSH1 0x20 DUP4 ADD DUP6 PUSH2 0x3997 JUMP JUMPDEST PUSH2 0x39D3 PUSH1 0x40 DUP4 ADD DUP5 PUSH2 0x2D95 JUMP JUMPDEST SWAP5 SWAP4 POP POP POP POP JUMP JUMPDEST PUSH0 PUSH1 0x40 DUP3 ADD SWAP1 POP PUSH2 0x39EE PUSH0 DUP4 ADD DUP6 PUSH2 0x3997 JUMP JUMPDEST PUSH2 0x39FB PUSH1 0x20 DUP4 ADD DUP5 PUSH2 0x2D95 JUMP JUMPDEST SWAP4 SWAP3 POP POP POP JUMP JUMPDEST PUSH0 PUSH1 0x40 DUP3 ADD SWAP1 POP PUSH2 0x3A15 PUSH0 DUP4 ADD DUP6 PUSH2 0x2D95 JUMP JUMPDEST PUSH2 0x3A22 PUSH1 0x20 DUP4 ADD DUP5 PUSH2 0x2D95 JUMP JUMPDEST SWAP4 SWAP3 POP POP POP JUMP JUMPDEST PUSH32 0x596F752063616E6E6F7420627579206120706F6C696379207468617420686173 PUSH0 DUP3 ADD MSTORE PUSH32 0x206E6F74206265656E206C697374656421000000000000000000000000000000 PUSH1 0x20 DUP3 ADD MSTORE POP JUMP JUMPDEST PUSH0 PUSH2 0x3A83 PUSH1 0x31 DUP4 PUSH2 0x33DF JUMP JUMPDEST SWAP2 POP PUSH2 0x3A8E DUP3 PUSH2 0x3A29 JUMP JUMPDEST PUSH1 0x40 DUP3 ADD SWAP1 POP SWAP2 SWAP1 POP JUMP JUMPDEST PUSH0 PUSH1 0x20 DUP3 ADD SWAP1 POP DUP2 DUP2 SUB PUSH0 DUP4 ADD MSTORE PUSH2 0x3AB0 DUP2 PUSH2 0x3A77 JUMP JUMPDEST SWAP1 POP SWAP2 SWAP1 POP JUMP JUMPDEST PUSH32 0x596F752063616E6E6F742062757920796F7572206F776E20706F6C6963790000 PUSH0 DUP3 ADD MSTORE POP JUMP JUMPDEST PUSH0 PUSH2 0x3AEB PUSH1 0x1E DUP4 PUSH2 0x33DF JUMP JUMPDEST SWAP2 POP PUSH2 0x3AF6 DUP3 PUSH2 0x3AB7 JUMP JUMPDEST PUSH1 0x20 DUP3 ADD SWAP1 POP SWAP2 SWAP1 POP JUMP JUMPDEST PUSH0 PUSH1 0x20 DUP3 ADD SWAP1 POP DUP2 DUP2 SUB PUSH0 DUP4 ADD MSTORE PUSH2 0x3B18 DUP2 PUSH2 0x3ADF JUMP JUMPDEST SWAP1 POP SWAP2 SWAP1 POP JUMP JUMPDEST PUSH0 PUSH1 0x20 DUP3 ADD SWAP1 POP PUSH2 0x3B32 PUSH0 DUP4 ADD DUP5 PUSH2 0x3997 JUMP JUMPDEST SWAP3 SWAP2 POP POP JUMP JUMPDEST PUSH0 PUSH1 0x20 DUP3 DUP5 SUB SLT ISZERO PUSH2 0x3B4D JUMPI PUSH2 0x3B4C PUSH2 0x2D2F JUMP JUMPDEST JUMPDEST PUSH0 PUSH2 0x3B5A DUP5 DUP3 DUP6 ADD PUSH2 0x36BF JUMP JUMPDEST SWAP2 POP POP SWAP3 SWAP2 POP POP JUMP JUMPDEST PUSH0 DUP2 SWAP1 POP SWAP3 SWAP2 POP POP JUMP JUMPDEST PUSH32 0x596F75206E65656420746F20706179206174206C656173742074686520707265 PUSH0 DUP3 ADD MSTORE PUSH32 0x6D69756D206F6620000000000000000000000000000000000000000000000000 PUSH1 0x20 DUP3 ADD MSTORE POP JUMP JUMPDEST PUSH0 PUSH2 0x3BC7 PUSH1 0x28 DUP4 PUSH2 0x3B63 JUMP JUMPDEST SWAP2 POP PUSH2 0x3BD2 DUP3 PUSH2 0x3B6D JUMP JUMPDEST PUSH1 0x28 DUP3 ADD SWAP1 POP SWAP2 SWAP1 POP JUMP JUMPDEST PUSH0 PUSH2 0x3BE7 DUP3 PUSH2 0x2DF5 JUMP JUMPDEST PUSH2 0x3BF1 DUP2 DUP6 PUSH2 0x3B63 JUMP JUMPDEST SWAP4 POP PUSH2 0x3C01 DUP2 DUP6 PUSH1 0x20 DUP7 ADD PUSH2 0x2E0F JUMP JUMPDEST DUP1 DUP5 ADD SWAP2 POP POP SWAP3 SWAP2 POP POP JUMP JUMPDEST PUSH32 0x207765692C206275742070726F76696465642000000000000000000000000000 PUSH0 DUP3 ADD MSTORE POP JUMP JUMPDEST PUSH0 PUSH2 0x3C41 PUSH1 0x13 DUP4 PUSH2 0x3B63 JUMP JUMPDEST SWAP2 POP PUSH2 0x3C4C DUP3 PUSH2 0x3C0D JUMP JUMPDEST PUSH1 0x13 DUP3 ADD SWAP1 POP SWAP2 SWAP1 POP JUMP JUMPDEST PUSH32 0x207765692E000000000000000000000000000000000000000000000000000000 PUSH0 DUP3 ADD MSTORE POP JUMP JUMPDEST PUSH0 PUSH2 0x3C8B PUSH1 0x5 DUP4 PUSH2 0x3B63 JUMP JUMPDEST SWAP2 POP PUSH2 0x3C96 DUP3 PUSH2 0x3C57 JUMP JUMPDEST PUSH1 0x5 DUP3 ADD SWAP1 POP SWAP2 SWAP1 POP JUMP JUMPDEST PUSH0 PUSH2 0x3CAB DUP3 PUSH2 0x3BBB JUMP JUMPDEST SWAP2 POP PUSH2 0x3CB7 DUP3 DUP6 PUSH2 0x3BDD JUMP JUMPDEST SWAP2 POP PUSH2 0x3CC2 DUP3 PUSH2 0x3C35 JUMP JUMPDEST SWAP2 POP PUSH2 0x3CCE DUP3 DUP5 PUSH2 0x3BDD JUMP JUMPDEST SWAP2 POP PUSH2 0x3CD9 DUP3 PUSH2 0x3C7F JUMP JUMPDEST SWAP2 POP DUP2 SWAP1 POP SWAP4 SWAP3 POP POP POP JUMP JUMPDEST PUSH0 PUSH2 0x3CEF DUP3 PUSH2 0x2DF5 JUMP JUMPDEST PUSH2 0x3CF9 DUP2 DUP6 PUSH2 0x33DF JUMP JUMPDEST SWAP4 POP PUSH2 0x3D09 DUP2 DUP6 PUSH1 0x20 DUP7 ADD PUSH2 0x2E0F JUMP JUMPDEST PUSH2 0x3D12 DUP2 PUSH2 0x2E1D JUMP JUMPDEST DUP5 ADD SWAP2 POP POP SWAP3 SWAP2 POP POP JUMP JUMPDEST PUSH0 PUSH1 0x20 DUP3 ADD SWAP1 POP DUP2 DUP2 SUB PUSH0 DUP4 ADD MSTORE PUSH2 0x3D35 DUP2 DUP5 PUSH2 0x3CE5 JUMP JUMPDEST SWAP1 POP SWAP3 SWAP2 POP POP JUMP JUMPDEST PUSH32 0x506F6C6963792063617061636974792065786365656465640000000000000000 PUSH0 DUP3 ADD MSTORE POP JUMP JUMPDEST PUSH0 PUSH2 0x3D71 PUSH1 0x18 DUP4 PUSH2 0x33DF JUMP JUMPDEST SWAP2 POP PUSH2 0x3D7C DUP3 PUSH2 0x3D3D JUMP JUMPDEST PUSH1 0x20 DUP3 ADD SWAP1 POP SWAP2 SWAP1 POP JUMP JUMPDEST PUSH0 PUSH1 0x20 DUP3 ADD SWAP1 POP DUP2 DUP2 SUB PUSH0 DUP4 ADD MSTORE PUSH2 0x3D9E DUP2 PUSH2 0x3D65 JUMP JUMPDEST SWAP1 POP SWAP2 SWAP1 POP JUMP JUMPDEST PUSH0 PUSH2 0x3DAF DUP3 PUSH2 0x2D37 JUMP JUMPDEST SWAP2 POP PUSH2 0x3DBA DUP4 PUSH2 0x2D37 JUMP JUMPDEST SWAP3 POP DUP3 DUP3 ADD SWAP1 POP DUP1 DUP3 GT ISZERO PUSH2 0x3DD2 JUMPI PUSH2 0x3DD1 PUSH2 0x3929 JUMP JUMPDEST JUMPDEST SWAP3 SWAP2 POP POP JUMP JUMPDEST PUSH32 0x4E487B7100000000000000000000000000000000000000000000000000000000 PUSH0 MSTORE PUSH1 0x12 PUSH1 0x4 MSTORE PUSH1 0x24 PUSH0 REVERT JUMPDEST PUSH0 PUSH2 0x3E0F DUP3 PUSH2 0x2D37 JUMP JUMPDEST SWAP2 POP PUSH2 0x3E1A DUP4 PUSH2 0x2D37 JUMP JUMPDEST SWAP3 POP DUP3 PUSH2 0x3E2A JUMPI PUSH2 0x3E29 PUSH2 0x3DD8 JUMP JUMPDEST JUMPDEST DUP3 DUP3 DIV SWAP1 POP SWAP3 SWAP2 POP POP JUMP JUMPDEST PUSH32 0x496E73756666696369656E7420746F6B656E73206C65667420746F2070726F76 PUSH0 DUP3 ADD MSTORE PUSH32 0x6964652000000000000000000000000000000000000000000000000000000000 PUSH1 0x20 DUP3 ADD MSTORE POP JUMP JUMPDEST PUSH0 PUSH2 0x3E8F PUSH1 0x24 DUP4 PUSH2 0x33DF JUMP JUMPDEST SWAP2 POP PUSH2 0x3E9A DUP3 PUSH2 0x3E35 JUMP JUMPDEST PUSH1 0x40 DUP3 ADD SWAP1 POP SWAP2 SWAP1 POP JUMP JUMPDEST PUSH0 PUSH1 0x20 DUP3 ADD SWAP1 POP DUP2 DUP2 SUB PUSH0 DUP4 ADD MSTORE PUSH2 0x3EBC DUP2 PUSH2 0x3E83 JUMP JUMPDEST SWAP1 POP SWAP2 SWAP1 POP JUMP JUMPDEST PUSH0 PUSH1 0x20 DUP3 DUP5 SUB SLT ISZERO PUSH2 0x3ED8 JUMPI PUSH2 0x3ED7 PUSH2 0x2D2F JUMP JUMPDEST JUMPDEST PUSH0 PUSH2 0x3EE5 DUP5 DUP3 DUP6 ADD PUSH2 0x37A3 JUMP JUMPDEST SWAP2 POP POP SWAP3 SWAP2 POP POP JUMP JUMPDEST PUSH0 PUSH2 0x3EF8 DUP3 PUSH2 0x2D37 JUMP JUMPDEST SWAP2 POP PUSH2 0x3F03 DUP4 PUSH2 0x2D37 JUMP JUMPDEST SWAP3 POP DUP3 DUP3 SUB SWAP1 POP DUP2 DUP2 GT ISZERO PUSH2 0x3F1B JUMPI PUSH2 0x3F1A PUSH2 0x3929 JUMP JUMPDEST JUMPDEST SWAP3 SWAP2 POP POP JUMP JUMPDEST PUSH0 DUP2 SWAP1 POP DUP2 PUSH0 MSTORE PUSH1 0x20 PUSH0 KECCAK256 SWAP1 POP SWAP2 SWAP1 POP JUMP JUMPDEST PUSH0 PUSH1 0x20 PUSH1 0x1F DUP4 ADD DIV SWAP1 POP SWAP2 SWAP1 POP JUMP JUMPDEST PUSH0 DUP3 DUP3 SHL SWAP1 POP SWAP3 SWAP2 POP POP JUMP JUMPDEST PUSH0 PUSH1 0x8 DUP4 MUL PUSH2 0x3F7D PUSH32 0xFFFFFFFFFFFFFFFFFFFFFFFFFFFFFFFFFFFFFFFFFFFFFFFFFFFFFFFFFFFFFFFF DUP3 PUSH2 0x3F42 JUMP JUMPDEST PUSH2 0x3F87 DUP7 DUP4 PUSH2 0x3F42 JUMP JUMPDEST SWAP6 POP DUP1 NOT DUP5 AND SWAP4 POP DUP1 DUP7 AND DUP5 OR SWAP3 POP POP POP SWAP4 SWAP3 POP POP POP JUMP JUMPDEST PUSH0 DUP2 SWAP1 POP SWAP2 SWAP1 POP JUMP JUMPDEST PUSH0 PUSH2 0x3FC2 PUSH2 0x3FBD PUSH2 0x3FB8 DUP5 PUSH2 0x2D37 JUMP JUMPDEST PUSH2 0x3F9F JUMP JUMPDEST PUSH2 0x2D37 JUMP JUMPDEST SWAP1 POP SWAP2 SWAP1 POP JUMP JUMPDEST PUSH0 DUP2 SWAP1 POP SWAP2 SWAP1 POP JUMP JUMPDEST PUSH2 0x3FDB DUP4 PUSH2 0x3FA8 JUMP JUMPDEST PUSH2 0x3FEF PUSH2 0x3FE7 DUP3 PUSH2 0x3FC9 JUMP JUMPDEST DUP5 DUP5 SLOAD PUSH2 0x3F4E JUMP JUMPDEST DUP3 SSTORE POP POP POP POP JUMP JUMPDEST PUSH0 SWAP1 JUMP JUMPDEST PUSH2 0x4003 PUSH2 0x3FF7 JUMP JUMPDEST PUSH2 0x400E DUP2 DUP5 DUP5 PUSH2 0x3FD2 JUMP JUMPDEST POP POP POP JUMP JUMPDEST JUMPDEST DUP2 DUP2 LT ISZERO PUSH2 0x4031 JUMPI PUSH2 0x4026 PUSH0 DUP3 PUSH2 0x3FFB JUMP JUMPDEST PUSH1 0x1 DUP2 ADD SWAP1 POP PUSH2 0x4014 JUMP JUMPDEST POP POP JUMP JUMPDEST PUSH1 0x1F DUP3 GT ISZERO PUSH2 0x4076 JUMPI PUSH2 0x4047 DUP2 PUSH2 0x3F21 JUMP JUMPDEST PUSH2 0x4050 DUP5 PUSH2 0x3F33 JUMP JUMPDEST DUP2 ADD PUSH1 0x20 DUP6 LT ISZERO PUSH2 0x405F JUMPI DUP2 SWAP1 POP JUMPDEST PUSH2 0x4073 PUSH2 0x406B DUP6 PUSH2 0x3F33 JUMP JUMPDEST DUP4 ADD DUP3 PUSH2 0x4013 JUMP JUMPDEST POP POP JUMPDEST POP POP POP JUMP JUMPDEST PUSH0 DUP3 DUP3 SHR SWAP1 POP SWAP3 SWAP2 POP POP JUMP JUMPDEST PUSH0 PUSH2 0x4096 PUSH0 NOT DUP5 PUSH1 0x8 MUL PUSH2 0x407B JUMP JUMPDEST NOT DUP1 DUP4 AND SWAP2 POP POP SWAP3 SWAP2 POP POP JUMP JUMPDEST PUSH0 PUSH2 0x40AE DUP4 DUP4 PUSH2 0x4087 JUMP JUMPDEST SWAP2 POP DUP3 PUSH1 0x2 MUL DUP3 OR SWAP1 POP SWAP3 SWAP2 POP POP JUMP JUMPDEST PUSH2 0x40C7 DUP3 PUSH2 0x2DF5 JUMP JUMPDEST PUSH8 0xFFFFFFFFFFFFFFFF DUP2 GT ISZERO PUSH2 0x40E0 JUMPI PUSH2 0x40DF PUSH2 0x3643 JUMP JUMPDEST JUMPDEST PUSH2 0x40EA DUP3 SLOAD PUSH2 0x34B1 JUMP JUMPDEST PUSH2 0x40F5 DUP3 DUP3 DUP6 PUSH2 0x4035 JUMP JUMPDEST PUSH0 PUSH1 0x20 SWAP1 POP PUSH1 0x1F DUP4 GT PUSH1 0x1 DUP2 EQ PUSH2 0x4126 JUMPI PUSH0 DUP5 ISZERO PUSH2 0x4114 JUMPI DUP3 DUP8 ADD MLOAD SWAP1 POP JUMPDEST PUSH2 0x411E DUP6 DUP3 PUSH2 0x40A3 JUMP JUMPDEST DUP7 SSTORE POP PUSH2 0x4185 JUMP JUMPDEST PUSH1 0x1F NOT DUP5 AND PUSH2 0x4134 DUP7 PUSH2 0x3F21 JUMP JUMPDEST PUSH0 JUMPDEST DUP3 DUP2 LT ISZERO PUSH2 0x415B JUMPI DUP5 DUP10 ADD MLOAD DUP3 SSTORE PUSH1 0x1 DUP3 ADD SWAP2 POP PUSH1 0x20 DUP6 ADD SWAP5 POP PUSH1 0x20 DUP2 ADD SWAP1 POP PUSH2 0x4136 JUMP JUMPDEST DUP7 DUP4 LT ISZERO PUSH2 0x4178 JUMPI DUP5 DUP10 ADD MLOAD PUSH2 0x4174 PUSH1 0x1F DUP10 AND DUP3 PUSH2 0x4087 JUMP JUMPDEST DUP4 SSTORE POP JUMPDEST PUSH1 0x1 PUSH1 0x2 DUP9 MUL ADD DUP9 SSTORE POP POP POP JUMPDEST POP POP POP POP POP POP JUMP JUMPDEST PUSH0 PUSH1 0xE0 DUP3 ADD SWAP1 POP PUSH2 0x41A0 PUSH0 DUP4 ADD DUP7 PUSH2 0x3337 JUMP JUMPDEST PUSH2 0x41AD PUSH1 0x60 DUP4 ADD DUP6 PUSH2 0x3337 JUMP JUMPDEST PUSH2 0x41BA PUSH1 0xC0 DUP4 ADD DUP5 PUSH2 0x2D95 JUMP JUMPDEST SWAP5 SWAP4 POP POP POP POP JUMP JUMPDEST PUSH0 PUSH2 0x41CC DUP3 PUSH2 0x2D37 JUMP JUMPDEST SWAP2 POP PUSH32 0xFFFFFFFFFFFFFFFFFFFFFFFFFFFFFFFFFFFFFFFFFFFFFFFFFFFFFFFFFFFFFFFF DUP3 SUB PUSH2 0x41FE JUMPI PUSH2 0x41FD PUSH2 0x3929 JUMP JUMPDEST JUMPDEST PUSH1 0x1 DUP3 ADD SWAP1 POP SWAP2 SWAP1 POP JUMP JUMPDEST PUSH32 0x5468657265206172652063757272656E746C79206E6F206C697374656420706F PUSH0 DUP3 ADD MSTORE PUSH32 0x6C696369657320746F2062757900000000000000000000000000000000000000 PUSH1 0x20 DUP3 ADD MSTORE POP JUMP JUMPDEST PUSH0 PUSH2 0x4263 PUSH1 0x2D DUP4 PUSH2 0x33DF JUMP JUMPDEST SWAP2 POP PUSH2 0x426E DUP3 PUSH2 0x4209 JUMP JUMPDEST PUSH1 0x40 DUP3 ADD SWAP1 POP SWAP2 SWAP1 POP JUMP JUMPDEST PUSH0 PUSH1 0x20 DUP3 ADD SWAP1 POP DUP2 DUP2 SUB PUSH0 DUP4 ADD MSTORE PUSH2 0x4290 DUP2 PUSH2 0x4257 JUMP JUMPDEST SWAP1 POP SWAP2 SWAP1 POP JUMP JUMPDEST PUSH32 0x596F7520646F206E6F74206F776E207468697320706F6C696379000000000000 PUSH0 DUP3 ADD MSTORE POP JUMP JUMPDEST PUSH0 PUSH2 0x42CB PUSH1 0x1A DUP4 PUSH2 0x33DF JUMP JUMPDEST SWAP2 POP PUSH2 0x42D6 DUP3 PUSH2 0x4297 JUMP JUMPDEST PUSH1 0x20 DUP3 ADD SWAP1 POP SWAP2 SWAP1 POP JUMP JUMPDEST PUSH0 PUSH1 0x20 DUP3 ADD SWAP1 POP DUP2 DUP2 SUB PUSH0 DUP4 ADD MSTORE PUSH2 0x42F8 DUP2 PUSH2 0x42BF JUMP JUMPDEST SWAP1 POP SWAP2 SWAP1 POP JUMP JUMPDEST PUSH0 PUSH1 0x40 DUP3 ADD SWAP1 POP PUSH2 0x4312 PUSH0 DUP4 ADD DUP6 PUSH2 0x3997 JUMP JUMPDEST PUSH2 0x431F PUSH1 0x20 DUP4 ADD DUP5 PUSH2 0x3997 JUMP JUMPDEST SWAP4 SWAP3 POP POP POP JUMP JUMPDEST PUSH32 0x596F75206E65656420746F20617070726F766520746865206D61726B6574706C PUSH0 DUP3 ADD MSTORE PUSH32 0x61636520746F207370656E642000000000000000000000000000000000000000 PUSH1 0x20 DUP3 ADD MSTORE POP JUMP JUMPDEST PUSH0 PUSH2 0x4380 PUSH1 0x2D DUP4 PUSH2 0x3B63 JUMP JUMPDEST SWAP2 POP PUSH2 0x438B DUP3 PUSH2 0x4326 JUMP JUMPDEST PUSH1 0x2D DUP3 ADD SWAP1 POP SWAP2 SWAP1 POP JUMP JUMPDEST PUSH32 0x206D617820706F6F6C2076616C756520746F6B656E73206F6E20796F75722062 PUSH0 DUP3 ADD MSTORE PUSH32 0x6568616C6620666F72207468697320706F6C6963792E00000000000000000000 PUSH1 0x20 DUP3 ADD MSTORE POP JUMP JUMPDEST PUSH0 PUSH2 0x43F0 PUSH1 0x36 DUP4 PUSH2 0x3B63 JUMP JUMPDEST SWAP2 POP PUSH2 0x43FB DUP3 PUSH2 0x4396 JUMP JUMPDEST PUSH1 0x36 DUP3 ADD SWAP1 POP SWAP2 SWAP1 POP JUMP JUMPDEST PUSH0 PUSH2 0x4410 DUP3 PUSH2 0x4374 JUMP JUMPDEST SWAP2 POP PUSH2 0x441C DUP3 DUP5 PUSH2 0x3BDD JUMP JUMPDEST SWAP2 POP PUSH2 0x4427 DUP3 PUSH2 0x43E4 JUMP JUMPDEST SWAP2 POP DUP2 SWAP1 POP SWAP3 SWAP2 POP POP JUMP JUMPDEST PUSH32 0x546F6B656E207472616E73666572206661696C65642E00000000000000000000 PUSH0 DUP3 ADD MSTORE POP JUMP JUMPDEST PUSH0 PUSH2 0x4466 PUSH1 0x16 DUP4 PUSH2 0x33DF JUMP JUMPDEST SWAP2 POP PUSH2 0x4471 DUP3 PUSH2 0x4432 JUMP JUMPDEST PUSH1 0x20 DUP3 ADD SWAP1 POP SWAP2 SWAP1 POP JUMP JUMPDEST PUSH0 PUSH1 0x20 DUP3 ADD SWAP1 POP DUP2 DUP2 SUB PUSH0 DUP4 ADD MSTORE PUSH2 0x4493 DUP2 PUSH2 0x445A JUMP JUMPDEST SWAP1 POP SWAP2 SWAP1 POP JUMP JUMPDEST PUSH32 0x596F7520646F6E2774206F776E20616E7920706F6C6963696573000000000000 PUSH0 DUP3 ADD MSTORE POP JUMP JUMPDEST PUSH0 PUSH2 0x44CE PUSH1 0x1A DUP4 PUSH2 0x33DF JUMP JUMPDEST SWAP2 POP PUSH2 0x44D9 DUP3 PUSH2 0x449A JUMP JUMPDEST PUSH1 0x20 DUP3 ADD SWAP1 POP SWAP2 SWAP1 POP JUMP JUMPDEST PUSH0 PUSH1 0x20 DUP3 ADD SWAP1 POP DUP2 DUP2 SUB PUSH0 DUP4 ADD MSTORE PUSH2 0x44FB DUP2 PUSH2 0x44C2 JUMP JUMPDEST SWAP1 POP SWAP2 SWAP1 POP JUMP JUMPDEST PUSH32 0x496E646578206F7574206F6620626F756E647300000000000000000000000000 PUSH0 DUP3 ADD MSTORE POP JUMP JUMPDEST PUSH0 PUSH2 0x4536 PUSH1 0x13 DUP4 PUSH2 0x33DF JUMP JUMPDEST SWAP2 POP PUSH2 0x4541 DUP3 PUSH2 0x4502 JUMP JUMPDEST PUSH1 0x20 DUP3 ADD SWAP1 POP SWAP2 SWAP1 POP JUMP JUMPDEST PUSH0 PUSH1 0x20 DUP3 ADD SWAP1 POP DUP2 DUP2 SUB PUSH0 DUP4 ADD MSTORE PUSH2 0x4563 DUP2 PUSH2 0x452A JUMP JUMPDEST SWAP1 POP SWAP2 SWAP1 POP JUMP JUMPDEST PUSH0 DUP2 SLOAD SWAP1 POP PUSH2 0x4578 DUP2 PUSH2 0x34B1 JUMP JUMPDEST SWAP1 POP SWAP2 SWAP1 POP JUMP JUMPDEST DUP2 DUP2 SUB PUSH2 0x458D JUMPI POP POP PUSH2 0x4662 JUMP JUMPDEST PUSH2 0x4596 DUP3 PUSH2 0x456A JUMP JUMPDEST PUSH8 0xFFFFFFFFFFFFFFFF DUP2 GT ISZERO PUSH2 0x45AF JUMPI PUSH2 0x45AE PUSH2 0x3643 JUMP JUMPDEST JUMPDEST PUSH2 0x45B9 DUP3 SLOAD PUSH2 0x34B1 JUMP JUMPDEST PUSH2 0x45C4 DUP3 DUP3 DUP6 PUSH2 0x4035 JUMP JUMPDEST PUSH0 PUSH1 0x1F DUP4 GT PUSH1 0x1 DUP2 EQ PUSH2 0x45F1 JUMPI PUSH0 DUP5 ISZERO PUSH2 0x45DF JUMPI DUP3 DUP8 ADD SLOAD SWAP1 POP JUMPDEST PUSH2 0x45E9 DUP6 DUP3 PUSH2 0x40A3 JUMP JUMPDEST DUP7 SSTORE POP PUSH2 0x465B JUMP JUMPDEST PUSH1 0x1F NOT DUP5 AND PUSH2 0x45FF DUP8 PUSH2 0x3F21 JUMP JUMPDEST SWAP7 POP PUSH2 0x460A DUP7 PUSH2 0x3F21 JUMP JUMPDEST PUSH0 JUMPDEST DUP3 DUP2 LT ISZERO PUSH2 0x4631 JUMPI DUP5 DUP10 ADD SLOAD DUP3 SSTORE PUSH1 0x1 DUP3 ADD SWAP2 POP PUSH1 0x1 DUP6 ADD SWAP5 POP PUSH1 0x20 DUP2 ADD SWAP1 POP PUSH2 0x460C JUMP JUMPDEST DUP7 DUP4 LT ISZERO PUSH2 0x464E JUMPI DUP5 DUP10 ADD SLOAD PUSH2 0x464A PUSH1 0x1F DUP10 AND DUP3 PUSH2 0x4087 JUMP JUMPDEST DUP4 SSTORE POP JUMPDEST PUSH1 0x1 PUSH1 0x2 DUP9 MUL ADD DUP9 SSTORE POP POP POP JUMPDEST POP POP POP POP POP POP JUMPDEST JUMP JUMPDEST PUSH32 0x4E487B7100000000000000000000000000000000000000000000000000000000 PUSH0 MSTORE PUSH1 0x31 PUSH1 0x4 MSTORE PUSH1 0x24 PUSH0 REVERT INVALID LOG2 PUSH5 0x6970667358 0x22 SLT KECCAK256 0x28 0xF8 PUSH24 0x28EEC52D5FE8731996246476BBEADEF63316E48CD8767BC0 PUSH23 0x768014F264736F6C634300081A00330000000000000000 "
		},
		"gasEstimates": {
			"creation": {
				"codeDepositCost": "3623800",
				"executionCost": "infinite",
				"totalCost": "infinite"
			},
			"external": {
				"buyPolicy(uint256)": "infinite",
				"claimPolicy(uint256)": "infinite",
				"listPolicy(uint256)": "infinite",
				"policyDeposits(uint256)": "infinite",
				"policyHolders(address,uint256)": "infinite",
				"viewListedPolicies()": "infinite",
				"viewMyBoughtPolicies()": "infinite"
			},
			"internal": {
				"delistPolicy(uint256)": "infinite",
				"removePolicy(address,uint256)": "infinite"
			}
		},
		"methodIdentifiers": {
			"buyPolicy(uint256)": "79c88894",
			"claimPolicy(uint256)": "2aea118d",
			"listPolicy(uint256)": "a56cf067",
			"policyDeposits(uint256)": "0744b4e3",
			"policyHolders(address,uint256)": "bb529068",
			"viewListedPolicies()": "9d61dba8",
			"viewMyBoughtPolicies()": "ac5d8185"
		}
	},
	"abi": [
		{
			"inputs": [
				{
					"internalType": "contract CSToken",
					"name": "_token",
					"type": "address"
				},
				{
					"internalType": "contract InsuranceCompany",
					"name": "_company",
					"type": "address"
				}
			],
			"stateMutability": "nonpayable",
			"type": "constructor"
		},
		{
			"anonymous": false,
			"inputs": [
				{
					"indexed": true,
					"internalType": "address",
					"name": "buyer",
					"type": "address"
				},
				{
					"indexed": true,
					"internalType": "uint256",
					"name": "policyId",
					"type": "uint256"
				},
				{
					"components": [
						{
							"internalType": "uint256",
							"name": "year",
							"type": "uint256"
						},
						{
							"internalType": "uint256",
							"name": "month",
							"type": "uint256"
						},
						{
							"internalType": "uint256",
							"name": "day",
							"type": "uint256"
						}
					],
					"indexed": false,
					"internalType": "struct Marketplace.Date",
					"name": "coverageStartTimestamp",
					"type": "tuple"
				},
				{
					"components": [
						{
							"internalType": "uint256",
							"name": "year",
							"type": "uint256"
						},
						{
							"internalType": "uint256",
							"name": "month",
							"type": "uint256"
						},
						{
							"internalType": "uint256",
							"name": "day",
							"type": "uint256"
						}
					],
					"indexed": false,
					"internalType": "struct Marketplace.Date",
					"name": "coverageEndTimestamp",
					"type": "tuple"
				},
				{
					"indexed": false,
					"internalType": "uint256",
					"name": "ownedCSTokens",
					"type": "uint256"
				}
			],
			"name": "PolicyBought",
			"type": "event"
		},
		{
			"anonymous": false,
			"inputs": [
				{
					"indexed": false,
					"internalType": "uint256",
					"name": "policyId",
					"type": "uint256"
				},
				{
					"indexed": false,
					"internalType": "uint256",
					"name": "claimAmount",
					"type": "uint256"
				}
			],
			"name": "PolicyClaimed",
			"type": "event"
		},
		{
			"anonymous": false,
			"inputs": [
				{
					"indexed": true,
					"internalType": "address",
					"name": "creator",
					"type": "address"
				},
				{
					"indexed": false,
					"internalType": "uint256",
					"name": "amount",
					"type": "uint256"
				}
			],
			"name": "TokensListed",
			"type": "event"
		},
		{
			"inputs": [
				{
					"internalType": "uint256",
					"name": "policyId",
					"type": "uint256"
				}
			],
			"name": "buyPolicy",
			"outputs": [],
			"stateMutability": "payable",
			"type": "function"
		},
		{
			"inputs": [
				{
					"internalType": "uint256",
					"name": "policyId",
					"type": "uint256"
				}
			],
			"name": "claimPolicy",
			"outputs": [],
			"stateMutability": "nonpayable",
			"type": "function"
		},
		{
			"inputs": [
				{
					"internalType": "uint256",
					"name": "policyId",
					"type": "uint256"
				}
			],
			"name": "listPolicy",
			"outputs": [],
			"stateMutability": "nonpayable",
			"type": "function"
		},
		{
			"inputs": [
				{
					"internalType": "uint256",
					"name": "",
					"type": "uint256"
				}
			],
			"name": "policyDeposits",
			"outputs": [
				{
					"internalType": "uint256",
					"name": "",
					"type": "uint256"
				}
			],
			"stateMutability": "view",
			"type": "function"
		},
		{
			"inputs": [
				{
					"internalType": "address",
					"name": "",
					"type": "address"
				},
				{
					"internalType": "uint256",
					"name": "",
					"type": "uint256"
				}
			],
			"name": "policyHolders",
			"outputs": [
				{
					"components": [
						{
							"internalType": "uint256",
							"name": "policyId",
							"type": "uint256"
						},
						{
							"internalType": "string",
							"name": "policyName",
							"type": "string"
						},
						{
							"internalType": "string",
							"name": "policyType",
							"type": "string"
						},
						{
							"internalType": "uint256",
							"name": "claimBackRate",
							"type": "uint256"
						},
						{
							"internalType": "uint256",
							"name": "maxPoolValue",
							"type": "uint256"
						},
						{
							"internalType": "uint256",
							"name": "currPoolValue",
							"type": "uint256"
						},
						{
							"internalType": "uint256",
							"name": "minStake",
							"type": "uint256"
						},
						{
							"internalType": "uint256",
							"name": "coveragePeriod",
							"type": "uint256"
						},
						{
							"internalType": "address",
							"name": "creator",
							"type": "address"
						},
						{
							"internalType": "bool",
							"name": "listed",
							"type": "bool"
						}
					],
					"internalType": "struct InsuranceCompany.Policy",
					"name": "boughtPolicy",
					"type": "tuple"
				},
				{
					"internalType": "uint256",
					"name": "coverageStartTimestamp",
					"type": "uint256"
				},
				{
					"internalType": "uint256",
					"name": "coverageEndTimestamp",
					"type": "uint256"
				},
				{
					"components": [
						{
							"internalType": "uint256",
							"name": "year",
							"type": "uint256"
						},
						{
							"internalType": "uint256",
							"name": "month",
							"type": "uint256"
						},
						{
							"internalType": "uint256",
							"name": "day",
							"type": "uint256"
						}
					],
					"internalType": "struct Marketplace.Date",
					"name": "coverageStartDate",
					"type": "tuple"
				},
				{
					"components": [
						{
							"internalType": "uint256",
							"name": "year",
							"type": "uint256"
						},
						{
							"internalType": "uint256",
							"name": "month",
							"type": "uint256"
						},
						{
							"internalType": "uint256",
							"name": "day",
							"type": "uint256"
						}
					],
					"internalType": "struct Marketplace.Date",
					"name": "coverageEndDate",
					"type": "tuple"
				},
				{
					"internalType": "uint256",
					"name": "ownedCSTokens",
					"type": "uint256"
				}
			],
			"stateMutability": "view",
			"type": "function"
		},
		{
			"inputs": [],
			"name": "viewListedPolicies",
			"outputs": [
				{
					"components": [
						{
							"internalType": "uint256",
							"name": "policyId",
							"type": "uint256"
						},
						{
							"internalType": "string",
							"name": "policyName",
							"type": "string"
						},
						{
							"internalType": "string",
							"name": "policyType",
							"type": "string"
						},
						{
							"internalType": "uint256",
							"name": "claimBackRate",
							"type": "uint256"
						},
						{
							"internalType": "uint256",
							"name": "maxPoolValue",
							"type": "uint256"
						},
						{
							"internalType": "uint256",
							"name": "currPoolValue",
							"type": "uint256"
						},
						{
							"internalType": "uint256",
							"name": "minStake",
							"type": "uint256"
						},
						{
							"internalType": "uint256",
							"name": "coveragePeriod",
							"type": "uint256"
						},
						{
							"internalType": "address",
							"name": "creator",
							"type": "address"
						},
						{
							"internalType": "bool",
							"name": "listed",
							"type": "bool"
						}
					],
					"internalType": "struct InsuranceCompany.Policy[]",
					"name": "",
					"type": "tuple[]"
				}
			],
			"stateMutability": "view",
			"type": "function"
		},
		{
			"inputs": [],
			"name": "viewMyBoughtPolicies",
			"outputs": [
				{
					"components": [
						{
							"components": [
								{
									"internalType": "uint256",
									"name": "policyId",
									"type": "uint256"
								},
								{
									"internalType": "string",
									"name": "policyName",
									"type": "string"
								},
								{
									"internalType": "string",
									"name": "policyType",
									"type": "string"
								},
								{
									"internalType": "uint256",
									"name": "claimBackRate",
									"type": "uint256"
								},
								{
									"internalType": "uint256",
									"name": "maxPoolValue",
									"type": "uint256"
								},
								{
									"internalType": "uint256",
									"name": "currPoolValue",
									"type": "uint256"
								},
								{
									"internalType": "uint256",
									"name": "minStake",
									"type": "uint256"
								},
								{
									"internalType": "uint256",
									"name": "coveragePeriod",
									"type": "uint256"
								},
								{
									"internalType": "address",
									"name": "creator",
									"type": "address"
								},
								{
									"internalType": "bool",
									"name": "listed",
									"type": "bool"
								}
							],
							"internalType": "struct InsuranceCompany.Policy",
							"name": "boughtPolicy",
							"type": "tuple"
						},
						{
							"internalType": "uint256",
							"name": "coverageStartTimestamp",
							"type": "uint256"
						},
						{
							"internalType": "uint256",
							"name": "coverageEndTimestamp",
							"type": "uint256"
						},
						{
							"components": [
								{
									"internalType": "uint256",
									"name": "year",
									"type": "uint256"
								},
								{
									"internalType": "uint256",
									"name": "month",
									"type": "uint256"
								},
								{
									"internalType": "uint256",
									"name": "day",
									"type": "uint256"
								}
							],
							"internalType": "struct Marketplace.Date",
							"name": "coverageStartDate",
							"type": "tuple"
						},
						{
							"components": [
								{
									"internalType": "uint256",
									"name": "year",
									"type": "uint256"
								},
								{
									"internalType": "uint256",
									"name": "month",
									"type": "uint256"
								},
								{
									"internalType": "uint256",
									"name": "day",
									"type": "uint256"
								}
							],
							"internalType": "struct Marketplace.Date",
							"name": "coverageEndDate",
							"type": "tuple"
						},
						{
							"internalType": "uint256",
							"name": "ownedCSTokens",
							"type": "uint256"
						}
					],
					"internalType": "struct Marketplace.BuyerPolicy[]",
					"name": "",
					"type": "tuple[]"
				}
			],
			"stateMutability": "view",
			"type": "function"
		}
	]
}