{
	"data": {
		"bytecode": {
			"linkReferences": {},
			"object": "608060405242600255348015610013575f80fd5b5060405161357838038061357883398181016040528101906100359190610165565b815f806101000a81548173ffffffffffffffffffffffffffffffffffffffff021916908373ffffffffffffffffffffffffffffffffffffffff1602179055508060015f6101000a81548173ffffffffffffffffffffffffffffffffffffffff021916908373ffffffffffffffffffffffffffffffffffffffff16021790555050506101a3565b5f80fd5b5f73ffffffffffffffffffffffffffffffffffffffff82169050919050565b5f6100e8826100bf565b9050919050565b5f6100f9826100de565b9050919050565b610109816100ef565b8114610113575f80fd5b50565b5f8151905061012481610100565b92915050565b5f610134826100de565b9050919050565b6101448161012a565b811461014e575f80fd5b50565b5f8151905061015f8161013b565b92915050565b5f806040838503121561017b5761017a6100bb565b5b5f61018885828601610116565b925050602061019985828601610151565b9150509250929050565b6133c8806101b05f395ff3fe608060405260043610610054575f3560e01c80630744b4e31461005857806379c88894146100945780639d61dba8146100b0578063a56cf067146100da578063ac5d818514610102578063bb5290681461012c575b5f80fd5b348015610063575f80fd5b5061007e60048036038101906100799190611d7d565b61016d565b60405161008b9190611db7565b60405180910390f35b6100ae60048036038101906100a99190611d7d565b610182565b005b3480156100bb575f80fd5b506100c461088c565b6040516100d19190612056565b60405180910390f35b3480156100e5575f80fd5b5061010060048036038101906100fb9190611d7d565b610c2a565b005b34801561010d575f80fd5b506101166111b1565b60405161012391906121f9565b60405180910390f35b348015610137575f80fd5b50610152600480360381019061014d9190612243565b611618565b604051610164969594939291906123b4565b60405180910390f35b6003602052805f5260405f205f915090505481565b5f60015f9054906101000a900473ffffffffffffffffffffffffffffffffffffffff1673ffffffffffffffffffffffffffffffffffffffff16632b07fce3836040518263ffffffff1660e01b81526004016101dd9190611db7565b5f60405180830381865afa1580156101f7573d5f803e3d5ffd5b505050506040513d5f823e3d601f19601f8201168201806040525081019061021f91906126d5565b90506001151581610140015115151461026d576040517f08c379a00000000000000000000000000000000000000000000000000000000081526004016102649061279c565b60405180910390fd5b3373ffffffffffffffffffffffffffffffffffffffff1681610120015173ffffffffffffffffffffffffffffffffffffffff16036102e0576040517f08c379a00000000000000000000000000000000000000000000000000000000081526004016102d790612804565b60405180910390fd5b5f805f9054906101000a900473ffffffffffffffffffffffffffffffffffffffff1673ffffffffffffffffffffffffffffffffffffffff16634763fbd28361012001516040518263ffffffff1660e01b815260040161033f9190612831565b602060405180830381865afa15801561035a573d5f803e3d5ffd5b505050506040513d601f19601f8201168201806040525081019061037e919061284a565b8260c0015161038d91906128a2565b90508034101561039c82611898565b6103a534611898565b6040516020016103b6929190612a21565b60405160208183030381529060405290610406576040517f08c379a00000000000000000000000000000000000000000000000000000000081526004016103fd9190612a9d565b60405180910390fd5b508160a00151826080015111610451576040517f08c379a000000000000000000000000000000000000000000000000000000000815260040161044890612b07565b60405180910390fd5b5f4290505f836101000151426104679190612b25565b9050610471611c6d565b61047a83611962565b835f01846020018560400183815250838152508381525050505061049c611c6d565b6104a583611962565b835f0184602001856040018381525083815250838152505050505f6040518060c001604052808881526020018681526020018581526020018481526020018381526020018860c0015181525090508560035f8a81526020019081526020015f20541015610547576040517f08c379a000000000000000000000000000000000000000000000000000000000815260040161053e90612bc8565b60405180910390fd5b5f8054906101000a900473ffffffffffffffffffffffffffffffffffffffff1673ffffffffffffffffffffffffffffffffffffffff1663a9059cbb33886040518363ffffffff1660e01b81526004016105a1929190612be6565b6020604051808303815f875af11580156105bd573d5f803e3d5ffd5b505050506040513d601f19601f820116820180604052508101906105e19190612c0d565b508560035f8a81526020019081526020015f205f8282546106029190612c38565b9250508190555060045f3373ffffffffffffffffffffffffffffffffffffffff1673ffffffffffffffffffffffffffffffffffffffff1681526020019081526020015f2081908060018154018082558091505060019003905f5260205f2090601302015f909190919091505f820151815f015f820151815f015560208201518160010190816106919190612e65565b5060408201518160020190816106a79190612e65565b50606082015181600301556080820151816004015560a0820151816005015560c0820151816006015560e082015181600701556101008201518160080155610120820151816009015f6101000a81548173ffffffffffffffffffffffffffffffffffffffff021916908373ffffffffffffffffffffffffffffffffffffffff1602179055506101408201518160090160146101000a81548160ff0219169083151502179055505050602082015181600a0155604082015181600b0155606082015181600c015f820151815f015560208201518160010155604082015181600201555050608082015181600f015f820151815f01556020820151816001015560408201518160020155505060a08201518160120155505060015f9054906101000a900473ffffffffffffffffffffffffffffffffffffffff1673ffffffffffffffffffffffffffffffffffffffff16630c6ab3fa898960c001518a60a0015161080f9190612b25565b6040518363ffffffff1660e01b815260040161082c929190612f34565b5f604051808303815f87803b158015610843575f80fd5b505af1158015610855573d5f803e3d5ffd5b505050508660c001518760a0015188608001516108729190612c38565b10156108825761088188611994565b5b5050505050505050565b60605f60015f9054906101000a900473ffffffffffffffffffffffffffffffffffffffff1673ffffffffffffffffffffffffffffffffffffffff1663de54d4296040518163ffffffff1660e01b8152600401602060405180830381865afa1580156108f9573d5f803e3d5ffd5b505050506040513d601f19601f8201168201806040525081019061091d919061284a565b90505f80600190505b8281116109fa575f60015f9054906101000a900473ffffffffffffffffffffffffffffffffffffffff1673ffffffffffffffffffffffffffffffffffffffff16632b07fce3836040518263ffffffff1660e01b81526004016109889190611db7565b5f60405180830381865afa1580156109a2573d5f803e3d5ffd5b505050506040513d5f823e3d601f19601f820116820180604052508101906109ca91906126d5565b9050806101400151156109e65782806109e290612f5b565b9350505b5080806109f290612f5b565b915050610926565b505f8111610a3d576040517f08c379a0000000000000000000000000000000000000000000000000000000008152600401610a3490613012565b60405180910390fd5b5f8167ffffffffffffffff811115610a5857610a57612420565b5b604051908082528060200260200182016040528015610a9157816020015b610a7e611c8b565b815260200190600190039081610a765790505b5090505f80600190505b848111610c1f575f60015f9054906101000a900473ffffffffffffffffffffffffffffffffffffffff1673ffffffffffffffffffffffffffffffffffffffff16632b07fce3836040518263ffffffff1660e01b8152600401610afd9190611db7565b5f60405180830381865afa158015610b17573d5f803e3d5ffd5b505050506040513d5f823e3d601f19601f82011682018060405250810190610b3f91906126d5565b905080610140015115610c0b57604051806101600160405280825f01518152602001826020015181526020018260400151815260200182606001518152602001826080015181526020018260a0015181526020018260c0015181526020018260e001518152602001826101000151815260200182610120015173ffffffffffffffffffffffffffffffffffffffff1681526020018261014001511515815250848481518110610bf157610bf0613030565b5b60200260200101819052508280610c0790612f5b565b9350505b508080610c1790612f5b565b915050610a9b565b508194505050505090565b805f60015f9054906101000a900473ffffffffffffffffffffffffffffffffffffffff1673ffffffffffffffffffffffffffffffffffffffff16632b07fce3836040518263ffffffff1660e01b8152600401610c869190611db7565b5f60405180830381865afa158015610ca0573d5f803e3d5ffd5b505050506040513d5f823e3d601f19601f82011682018060405250810190610cc891906126d5565b905080610120015173ffffffffffffffffffffffffffffffffffffffff163373ffffffffffffffffffffffffffffffffffffffff1614610d3d576040517f08c379a0000000000000000000000000000000000000000000000000000000008152600401610d34906130a7565b60405180910390fd5b5f60015f9054906101000a900473ffffffffffffffffffffffffffffffffffffffff1673ffffffffffffffffffffffffffffffffffffffff16632b07fce3856040518263ffffffff1660e01b8152600401610d989190611db7565b5f60405180830381865afa158015610db2573d5f803e3d5ffd5b505050506040513d5f823e3d601f19601f82011682018060405250810190610dda91906126d5565b90505f805f9054906101000a900473ffffffffffffffffffffffffffffffffffffffff1673ffffffffffffffffffffffffffffffffffffffff166370a08231336040518263ffffffff1660e01b8152600401610e369190612831565b602060405180830381865afa158015610e51573d5f803e3d5ffd5b505050506040513d601f19601f82011682018060405250810190610e75919061284a565b90508160800151811015610ebe576040517f08c379a0000000000000000000000000000000000000000000000000000000008152600401610eb59061310f565b60405180910390fd5b5f805f9054906101000a900473ffffffffffffffffffffffffffffffffffffffff1673ffffffffffffffffffffffffffffffffffffffff1663dd62ed3e33306040518363ffffffff1660e01b8152600401610f1a92919061312d565b602060405180830381865afa158015610f35573d5f803e3d5ffd5b505050506040513d601f19601f82011682018060405250810190610f59919061284a565b90508260800151811015610f708460800151611898565b604051602001610f809190613234565b60405160208183030381529060405290610fd0576040517f08c379a0000000000000000000000000000000000000000000000000000000008152600401610fc79190612a9d565b60405180910390fd5b505f805f9054906101000a900473ffffffffffffffffffffffffffffffffffffffff1673ffffffffffffffffffffffffffffffffffffffff166323b872dd333087608001516040518463ffffffff1660e01b815260040161103393929190613260565b6020604051808303815f875af115801561104f573d5f803e3d5ffd5b505050506040513d601f19601f820116820180604052508101906110739190612c0d565b9050806110b5576040517f08c379a00000000000000000000000000000000000000000000000000000000081526004016110ac906132df565b60405180910390fd5b836080015160035f8981526020019081526020015f20819055503373ffffffffffffffffffffffffffffffffffffffff167f31fe01aa97e3e611897437e7242632143c46a245d1fc9c93699d3072504fd9a185608001516040516111199190611db7565b60405180910390a260015f9054906101000a900473ffffffffffffffffffffffffffffffffffffffff1673ffffffffffffffffffffffffffffffffffffffff16635b2a3646886040518263ffffffff1660e01b815260040161117b9190611db7565b5f604051808303815f87803b158015611192575f80fd5b505af11580156111a4573d5f803e3d5ffd5b5050505050505050505050565b60605f60045f3373ffffffffffffffffffffffffffffffffffffffff1673ffffffffffffffffffffffffffffffffffffffff1681526020019081526020015f208054905011611235576040517f08c379a000000000000000000000000000000000000000000000000000000000815260040161122c90613347565b60405180910390fd5b5f60045f3373ffffffffffffffffffffffffffffffffffffffff1673ffffffffffffffffffffffffffffffffffffffff1681526020019081526020015f208054905067ffffffffffffffff8111156112905761128f612420565b5b6040519080825280602002602001820160405280156112c957816020015b6112b6611cf4565b8152602001906001900390816112ae5790505b5090505f5b60045f3373ffffffffffffffffffffffffffffffffffffffff1673ffffffffffffffffffffffffffffffffffffffff1681526020019081526020015f20805490508110156116105760045f3373ffffffffffffffffffffffffffffffffffffffff1673ffffffffffffffffffffffffffffffffffffffff1681526020019081526020015f20818154811061136557611364613030565b5b905f5260205f2090601302016040518060c00160405290815f8201604051806101600160405290815f82015481526020016001820180546113a590612c98565b80601f01602080910402602001604051908101604052809291908181526020018280546113d190612c98565b801561141c5780601f106113f35761010080835404028352916020019161141c565b820191905f5260205f20905b8154815290600101906020018083116113ff57829003601f168201915b5050505050815260200160028201805461143590612c98565b80601f016020809104026020016040519081016040528092919081815260200182805461146190612c98565b80156114ac5780601f10611483576101008083540402835291602001916114ac565b820191905f5260205f20905b81548152906001019060200180831161148f57829003601f168201915b50505050508152602001600382015481526020016004820154815260200160058201548152602001600682015481526020016007820154815260200160088201548152602001600982015f9054906101000a900473ffffffffffffffffffffffffffffffffffffffff1673ffffffffffffffffffffffffffffffffffffffff1673ffffffffffffffffffffffffffffffffffffffff1681526020016009820160149054906101000a900460ff1615151515815250508152602001600a8201548152602001600b8201548152602001600c82016040518060600160405290815f8201548152602001600182015481526020016002820154815250508152602001600f82016040518060600160405290815f82015481526020016001820154815260200160028201548152505081526020016012820154815250508282815181106115f8576115f7613030565b5b602002602001018190525080806001019150506112ce565b508091505090565b6004602052815f5260405f208181548110611631575f80fd5b905f5260205f2090601302015f9150915050805f01604051806101600160405290815f820154815260200160018201805461166b90612c98565b80601f016020809104026020016040519081016040528092919081815260200182805461169790612c98565b80156116e25780601f106116b9576101008083540402835291602001916116e2565b820191905f5260205f20905b8154815290600101906020018083116116c557829003601f168201915b505050505081526020016002820180546116fb90612c98565b80601f016020809104026020016040519081016040528092919081815260200182805461172790612c98565b80156117725780601f1061174957610100808354040283529160200191611772565b820191905f5260205f20905b81548152906001019060200180831161175557829003601f168201915b50505050508152602001600382015481526020016004820154815260200160058201548152602001600682015481526020016007820154815260200160088201548152602001600982015f9054906101000a900473ffffffffffffffffffffffffffffffffffffffff1673ffffffffffffffffffffffffffffffffffffffff1673ffffffffffffffffffffffffffffffffffffffff1681526020016009820160149054906101000a900460ff1615151515815250509080600a01549080600b01549080600c016040518060600160405290815f8201548152602001600182015481526020016002820154815250509080600f016040518060600160405290815f820154815260200160018201548152602001600282015481525050908060120154905086565b60605f60016118a684611a1e565b0190505f8167ffffffffffffffff8111156118c4576118c3612420565b5b6040519080825280601f01601f1916602001820160405280156118f65781602001600182028036833780820191505090505b5090505f82602001820190505b600115611957578080600190039150507f3031323334353637383961626364656600000000000000000000000000000000600a86061a8153600a858161194c5761194b613365565b5b0494505f8503611903575b819350505050919050565b5f805f61198162015180858161197b5761197a613365565b5b04611b6f565b8093508194508295505050509193909250565b60015f9054906101000a900473ffffffffffffffffffffffffffffffffffffffff1673ffffffffffffffffffffffffffffffffffffffff166322191f72826040518263ffffffff1660e01b81526004016119ee9190611db7565b5f604051808303815f87803b158015611a05575f80fd5b505af1158015611a17573d5f803e3d5ffd5b5050505050565b5f805f90507a184f03e93ff9f4daa797ed6e38ed64bf6a1f0100000000000000008310611a7a577a184f03e93ff9f4daa797ed6e38ed64bf6a1f0100000000000000008381611a7057611a6f613365565b5b0492506040810190505b6d04ee2d6d415b85acef81000000008310611ab7576d04ee2d6d415b85acef81000000008381611aad57611aac613365565b5b0492506020810190505b662386f26fc100008310611ae657662386f26fc100008381611adc57611adb613365565b5b0492506010810190505b6305f5e1008310611b0f576305f5e1008381611b0557611b04613365565b5b0492506008810190505b6127108310611b34576127108381611b2a57611b29613365565b5b0492506004810190505b60648310611b575760648381611b4d57611b4c613365565b5b0492506002810190505b600a8310611b66576001810190505b80915050919050565b5f805f808490505f62253d8c62010bd983010190505f62023ab18260040281611b9b57611b9a613365565b5b059050600460038262023ab1020181611bb757611bb6613365565b5b05820391505f62164b0960018401610fa00281611bd757611bd6613365565b5b059050601f6004826105b50281611bf157611bf0613365565b5b0584030192505f61098f8460500281611c0d57611c0c613365565b5b0590505f60508261098f0281611c2657611c25613365565b5b0585039050600b8281611c3c57611c3b613365565b5b05945084600c0260028301039150848360318603606402010192508298508197508096505050505050509193909250565b60405180606001604052805f81526020015f81526020015f81525090565b6040518061016001604052805f815260200160608152602001606081526020015f81526020015f81526020015f81526020015f81526020015f81526020015f81526020015f73ffffffffffffffffffffffffffffffffffffffff1681526020015f151581525090565b6040518060c00160405280611d07611c8b565b81526020015f81526020015f8152602001611d20611c6d565b8152602001611d2d611c6d565b81526020015f81525090565b5f604051905090565b5f80fd5b5f80fd5b5f819050919050565b611d5c81611d4a565b8114611d66575f80fd5b50565b5f81359050611d7781611d53565b92915050565b5f60208284031215611d9257611d91611d42565b5b5f611d9f84828501611d69565b91505092915050565b611db181611d4a565b82525050565b5f602082019050611dca5f830184611da8565b92915050565b5f81519050919050565b5f82825260208201905092915050565b5f819050602082019050919050565b611e0281611d4a565b82525050565b5f81519050919050565b5f82825260208201905092915050565b8281835e5f83830152505050565b5f601f19601f8301169050919050565b5f611e4a82611e08565b611e548185611e12565b9350611e64818560208601611e22565b611e6d81611e30565b840191505092915050565b5f73ffffffffffffffffffffffffffffffffffffffff82169050919050565b5f611ea182611e78565b9050919050565b611eb181611e97565b82525050565b5f8115159050919050565b611ecb81611eb7565b82525050565b5f61016083015f830151611ee75f860182611df9565b5060208301518482036020860152611eff8282611e40565b91505060408301518482036040860152611f198282611e40565b9150506060830151611f2e6060860182611df9565b506080830151611f416080860182611df9565b5060a0830151611f5460a0860182611df9565b5060c0830151611f6760c0860182611df9565b5060e0830151611f7a60e0860182611df9565b50610100830151611f8f610100860182611df9565b50610120830151611fa4610120860182611ea8565b50610140830151611fb9610140860182611ec2565b508091505092915050565b5f611fcf8383611ed1565b905092915050565b5f602082019050919050565b5f611fed82611dd0565b611ff78185611dda565b93508360208202850161200985611dea565b805f5b8581101561204457848403895281516120258582611fc4565b945061203083611fd7565b925060208a0199505060018101905061200c565b50829750879550505050505092915050565b5f6020820190508181035f83015261206e8184611fe3565b905092915050565b5f81519050919050565b5f82825260208201905092915050565b5f819050602082019050919050565b606082015f8201516120b35f850182611df9565b5060208201516120c66020850182611df9565b5060408201516120d96040850182611df9565b50505050565b5f61014083015f8301518482035f8601526120fa8282611ed1565b915050602083015161210f6020860182611df9565b5060408301516121226040860182611df9565b506060830151612135606086018261209f565b50608083015161214860c086018261209f565b5060a083015161215c610120860182611df9565b508091505092915050565b5f61217283836120df565b905092915050565b5f602082019050919050565b5f61219082612076565b61219a8185612080565b9350836020820285016121ac85612090565b805f5b858110156121e757848403895281516121c88582612167565b94506121d38361217a565b925060208a019950506001810190506121af565b50829750879550505050505092915050565b5f6020820190508181035f8301526122118184612186565b905092915050565b61222281611e97565b811461222c575f80fd5b50565b5f8135905061223d81612219565b92915050565b5f806040838503121561225957612258611d42565b5b5f6122668582860161222f565b925050602061227785828601611d69565b9150509250929050565b5f61016083015f8301516122975f860182611df9565b50602083015184820360208601526122af8282611e40565b915050604083015184820360408601526122c98282611e40565b91505060608301516122de6060860182611df9565b5060808301516122f16080860182611df9565b5060a083015161230460a0860182611df9565b5060c083015161231760c0860182611df9565b5060e083015161232a60e0860182611df9565b5061010083015161233f610100860182611df9565b50610120830151612354610120860182611ea8565b50610140830151612369610140860182611ec2565b508091505092915050565b606082015f8201516123885f850182611df9565b50602082015161239b6020850182611df9565b5060408201516123ae6040850182611df9565b50505050565b5f610140820190508181035f8301526123cd8189612281565b90506123dc6020830188611da8565b6123e96040830187611da8565b6123f66060830186612374565b61240360c0830185612374565b612411610120830184611da8565b979650505050505050565b5f80fd5b7f4e487b71000000000000000000000000000000000000000000000000000000005f52604160045260245ffd5b61245682611e30565b810181811067ffffffffffffffff8211171561247557612474612420565b5b80604052505050565b5f612487611d39565b9050612493828261244d565b919050565b5f80fd5b5f815190506124aa81611d53565b92915050565b5f80fd5b5f80fd5b5f67ffffffffffffffff8211156124d2576124d1612420565b5b6124db82611e30565b9050602081019050919050565b5f6124fa6124f5846124b8565b61247e565b905082815260208101848484011115612516576125156124b4565b5b612521848285611e22565b509392505050565b5f82601f83011261253d5761253c6124b0565b5b815161254d8482602086016124e8565b91505092915050565b5f8151905061256481612219565b92915050565b61257381611eb7565b811461257d575f80fd5b50565b5f8151905061258e8161256a565b92915050565b5f61016082840312156125aa576125a961241c565b5b6125b561016061247e565b90505f6125c48482850161249c565b5f83015250602082015167ffffffffffffffff8111156125e7576125e6612498565b5b6125f384828501612529565b602083015250604082015167ffffffffffffffff81111561261757612616612498565b5b61262384828501612529565b60408301525060606126378482850161249c565b606083015250608061264b8482850161249c565b60808301525060a061265f8482850161249c565b60a08301525060c06126738482850161249c565b60c08301525060e06126878482850161249c565b60e08301525061010061269c8482850161249c565b610100830152506101206126b284828501612556565b610120830152506101406126c884828501612580565b6101408301525092915050565b5f602082840312156126ea576126e9611d42565b5b5f82015167ffffffffffffffff81111561270757612706611d46565b5b61271384828501612594565b91505092915050565b5f82825260208201905092915050565b7f596f752063616e6e6f7420627579206120706f6c6963792074686174206861735f8201527f206e6f74206265656e206c697374656421000000000000000000000000000000602082015250565b5f61278660318361271c565b91506127918261272c565b604082019050919050565b5f6020820190508181035f8301526127b38161277a565b9050919050565b7f596f752063616e6e6f742062757920796f7572206f776e20706f6c69637900005f82015250565b5f6127ee601e8361271c565b91506127f9826127ba565b602082019050919050565b5f6020820190508181035f83015261281b816127e2565b9050919050565b61282b81611e97565b82525050565b5f6020820190506128445f830184612822565b92915050565b5f6020828403121561285f5761285e611d42565b5b5f61286c8482850161249c565b91505092915050565b7f4e487b71000000000000000000000000000000000000000000000000000000005f52601160045260245ffd5b5f6128ac82611d4a565b91506128b783611d4a565b92508282026128c581611d4a565b915082820484148315176128dc576128db612875565b5b5092915050565b5f81905092915050565b7f596f75206e65656420746f20706179206174206c6561737420746865207072655f8201527f6d69756d206f6620000000000000000000000000000000000000000000000000602082015250565b5f6129476028836128e3565b9150612952826128ed565b602882019050919050565b5f61296782611e08565b61297181856128e3565b9350612981818560208601611e22565b80840191505092915050565b7f207765692c206275742070726f766964656420000000000000000000000000005f82015250565b5f6129c16013836128e3565b91506129cc8261298d565b601382019050919050565b7f207765692e0000000000000000000000000000000000000000000000000000005f82015250565b5f612a0b6005836128e3565b9150612a16826129d7565b600582019050919050565b5f612a2b8261293b565b9150612a37828561295d565b9150612a42826129b5565b9150612a4e828461295d565b9150612a59826129ff565b91508190509392505050565b5f612a6f82611e08565b612a79818561271c565b9350612a89818560208601611e22565b612a9281611e30565b840191505092915050565b5f6020820190508181035f830152612ab58184612a65565b905092915050565b7f506f6c69637920636170616369747920657863656564656400000000000000005f82015250565b5f612af160188361271c565b9150612afc82612abd565b602082019050919050565b5f6020820190508181035f830152612b1e81612ae5565b9050919050565b5f612b2f82611d4a565b9150612b3a83611d4a565b9250828201905080821115612b5257612b51612875565b5b92915050565b7f496e73756666696369656e7420746f6b656e7320696e20706f6c6963792064655f8201527f706f7369742e0000000000000000000000000000000000000000000000000000602082015250565b5f612bb260268361271c565b9150612bbd82612b58565b604082019050919050565b5f6020820190508181035f830152612bdf81612ba6565b9050919050565b5f604082019050612bf95f830185612822565b612c066020830184611da8565b9392505050565b5f60208284031215612c2257612c21611d42565b5b5f612c2f84828501612580565b91505092915050565b5f612c4282611d4a565b9150612c4d83611d4a565b9250828203905081811115612c6557612c64612875565b5b92915050565b7f4e487b71000000000000000000000000000000000000000000000000000000005f52602260045260245ffd5b5f6002820490506001821680612caf57607f821691505b602082108103612cc257612cc1612c6b565b5b50919050565b5f819050815f5260205f209050919050565b5f6020601f8301049050919050565b5f82821b905092915050565b5f60088302612d247fffffffffffffffffffffffffffffffffffffffffffffffffffffffffffffffff82612ce9565b612d2e8683612ce9565b95508019841693508086168417925050509392505050565b5f819050919050565b5f612d69612d64612d5f84611d4a565b612d46565b611d4a565b9050919050565b5f819050919050565b612d8283612d4f565b612d96612d8e82612d70565b848454612cf5565b825550505050565b5f90565b612daa612d9e565b612db5818484612d79565b505050565b5b81811015612dd857612dcd5f82612da2565b600181019050612dbb565b5050565b601f821115612e1d57612dee81612cc8565b612df784612cda565b81016020851015612e06578190505b612e1a612e1285612cda565b830182612dba565b50505b505050565b5f82821c905092915050565b5f612e3d5f1984600802612e22565b1980831691505092915050565b5f612e558383612e2e565b9150826002028217905092915050565b612e6e82611e08565b67ffffffffffffffff811115612e8757612e86612420565b5b612e918254612c98565b612e9c828285612ddc565b5f60209050601f831160018114612ecd575f8415612ebb578287015190505b612ec58582612e4a565b865550612f2c565b601f198416612edb86612cc8565b5f5b82811015612f0257848901518255600182019150602085019450602081019050612edd565b86831015612f1f5784890151612f1b601f891682612e2e565b8355505b6001600288020188555050505b505050505050565b5f604082019050612f475f830185611da8565b612f546020830184611da8565b9392505050565b5f612f6582611d4a565b91507fffffffffffffffffffffffffffffffffffffffffffffffffffffffffffffffff8203612f9757612f96612875565b5b600182019050919050565b7f5468657265206172652063757272656e746c79206e6f206c697374656420706f5f8201527f6c696369657320746f2062757900000000000000000000000000000000000000602082015250565b5f612ffc602d8361271c565b915061300782612fa2565b604082019050919050565b5f6020820190508181035f83015261302981612ff0565b9050919050565b7f4e487b71000000000000000000000000000000000000000000000000000000005f52603260045260245ffd5b7f596f7520646f206e6f74206f776e207468697320706f6c6963790000000000005f82015250565b5f613091601a8361271c565b915061309c8261305d565b602082019050919050565b5f6020820190508181035f8301526130be81613085565b9050919050565b7f496e73756666696369656e7420746f6b656e2062616c616e63652e00000000005f82015250565b5f6130f9601b8361271c565b9150613104826130c5565b602082019050919050565b5f6020820190508181035f830152613126816130ed565b9050919050565b5f6040820190506131405f830185612822565b61314d6020830184612822565b9392505050565b7f596f75206e65656420746f20617070726f766520746865206d61726b6574706c5f8201527f61636520746f207370656e642000000000000000000000000000000000000000602082015250565b5f6131ae602d836128e3565b91506131b982613154565b602d82019050919050565b7f206d617820706f6f6c2076616c756520746f6b656e73206f6e20796f757220625f8201527f6568616c6620666f72207468697320706f6c6963792e00000000000000000000602082015250565b5f61321e6036836128e3565b9150613229826131c4565b603682019050919050565b5f61323e826131a2565b915061324a828461295d565b915061325582613212565b915081905092915050565b5f6060820190506132735f830186612822565b6132806020830185612822565b61328d6040830184611da8565b949350505050565b7f546f6b656e207472616e73666572206661696c65642e000000000000000000005f82015250565b5f6132c960168361271c565b91506132d482613295565b602082019050919050565b5f6020820190508181035f8301526132f6816132bd565b9050919050565b7f596f7520646f6e2774206f776e20616e7920706f6c69636965730000000000005f82015250565b5f613331601a8361271c565b915061333c826132fd565b602082019050919050565b5f6020820190508181035f83015261335e81613325565b9050919050565b7f4e487b71000000000000000000000000000000000000000000000000000000005f52601260045260245ffdfea26469706673582212207c6cad6e32a9fcc037b3cd55d308a749c548fb9523af89317fc227280b748a7764736f6c634300081a0033",
			"opcodes": "PUSH1 0x80 PUSH1 0x40 MSTORE TIMESTAMP PUSH1 0x2 SSTORE CALLVALUE DUP1 ISZERO PUSH2 0x13 JUMPI PUSH0 DUP1 REVERT JUMPDEST POP PUSH1 0x40 MLOAD PUSH2 0x3578 CODESIZE SUB DUP1 PUSH2 0x3578 DUP4 CODECOPY DUP2 DUP2 ADD PUSH1 0x40 MSTORE DUP2 ADD SWAP1 PUSH2 0x35 SWAP2 SWAP1 PUSH2 0x165 JUMP JUMPDEST DUP2 PUSH0 DUP1 PUSH2 0x100 EXP DUP2 SLOAD DUP2 PUSH20 0xFFFFFFFFFFFFFFFFFFFFFFFFFFFFFFFFFFFFFFFF MUL NOT AND SWAP1 DUP4 PUSH20 0xFFFFFFFFFFFFFFFFFFFFFFFFFFFFFFFFFFFFFFFF AND MUL OR SWAP1 SSTORE POP DUP1 PUSH1 0x1 PUSH0 PUSH2 0x100 EXP DUP2 SLOAD DUP2 PUSH20 0xFFFFFFFFFFFFFFFFFFFFFFFFFFFFFFFFFFFFFFFF MUL NOT AND SWAP1 DUP4 PUSH20 0xFFFFFFFFFFFFFFFFFFFFFFFFFFFFFFFFFFFFFFFF AND MUL OR SWAP1 SSTORE POP POP POP PUSH2 0x1A3 JUMP JUMPDEST PUSH0 DUP1 REVERT JUMPDEST PUSH0 PUSH20 0xFFFFFFFFFFFFFFFFFFFFFFFFFFFFFFFFFFFFFFFF DUP3 AND SWAP1 POP SWAP2 SWAP1 POP JUMP JUMPDEST PUSH0 PUSH2 0xE8 DUP3 PUSH2 0xBF JUMP JUMPDEST SWAP1 POP SWAP2 SWAP1 POP JUMP JUMPDEST PUSH0 PUSH2 0xF9 DUP3 PUSH2 0xDE JUMP JUMPDEST SWAP1 POP SWAP2 SWAP1 POP JUMP JUMPDEST PUSH2 0x109 DUP2 PUSH2 0xEF JUMP JUMPDEST DUP2 EQ PUSH2 0x113 JUMPI PUSH0 DUP1 REVERT JUMPDEST POP JUMP JUMPDEST PUSH0 DUP2 MLOAD SWAP1 POP PUSH2 0x124 DUP2 PUSH2 0x100 JUMP JUMPDEST SWAP3 SWAP2 POP POP JUMP JUMPDEST PUSH0 PUSH2 0x134 DUP3 PUSH2 0xDE JUMP JUMPDEST SWAP1 POP SWAP2 SWAP1 POP JUMP JUMPDEST PUSH2 0x144 DUP2 PUSH2 0x12A JUMP JUMPDEST DUP2 EQ PUSH2 0x14E JUMPI PUSH0 DUP1 REVERT JUMPDEST POP JUMP JUMPDEST PUSH0 DUP2 MLOAD SWAP1 POP PUSH2 0x15F DUP2 PUSH2 0x13B JUMP JUMPDEST SWAP3 SWAP2 POP POP JUMP JUMPDEST PUSH0 DUP1 PUSH1 0x40 DUP4 DUP6 SUB SLT ISZERO PUSH2 0x17B JUMPI PUSH2 0x17A PUSH2 0xBB JUMP JUMPDEST JUMPDEST PUSH0 PUSH2 0x188 DUP6 DUP3 DUP7 ADD PUSH2 0x116 JUMP JUMPDEST SWAP3 POP POP PUSH1 0x20 PUSH2 0x199 DUP6 DUP3 DUP7 ADD PUSH2 0x151 JUMP JUMPDEST SWAP2 POP POP SWAP3 POP SWAP3 SWAP1 POP JUMP JUMPDEST PUSH2 0x33C8 DUP1 PUSH2 0x1B0 PUSH0 CODECOPY PUSH0 RETURN INVALID PUSH1 0x80 PUSH1 0x40 MSTORE PUSH1 0x4 CALLDATASIZE LT PUSH2 0x54 JUMPI PUSH0 CALLDATALOAD PUSH1 0xE0 SHR DUP1 PUSH4 0x744B4E3 EQ PUSH2 0x58 JUMPI DUP1 PUSH4 0x79C88894 EQ PUSH2 0x94 JUMPI DUP1 PUSH4 0x9D61DBA8 EQ PUSH2 0xB0 JUMPI DUP1 PUSH4 0xA56CF067 EQ PUSH2 0xDA JUMPI DUP1 PUSH4 0xAC5D8185 EQ PUSH2 0x102 JUMPI DUP1 PUSH4 0xBB529068 EQ PUSH2 0x12C JUMPI JUMPDEST PUSH0 DUP1 REVERT JUMPDEST CALLVALUE DUP1 ISZERO PUSH2 0x63 JUMPI PUSH0 DUP1 REVERT JUMPDEST POP PUSH2 0x7E PUSH1 0x4 DUP1 CALLDATASIZE SUB DUP2 ADD SWAP1 PUSH2 0x79 SWAP2 SWAP1 PUSH2 0x1D7D JUMP JUMPDEST PUSH2 0x16D JUMP JUMPDEST PUSH1 0x40 MLOAD PUSH2 0x8B SWAP2 SWAP1 PUSH2 0x1DB7 JUMP JUMPDEST PUSH1 0x40 MLOAD DUP1 SWAP2 SUB SWAP1 RETURN JUMPDEST PUSH2 0xAE PUSH1 0x4 DUP1 CALLDATASIZE SUB DUP2 ADD SWAP1 PUSH2 0xA9 SWAP2 SWAP1 PUSH2 0x1D7D JUMP JUMPDEST PUSH2 0x182 JUMP JUMPDEST STOP JUMPDEST CALLVALUE DUP1 ISZERO PUSH2 0xBB JUMPI PUSH0 DUP1 REVERT JUMPDEST POP PUSH2 0xC4 PUSH2 0x88C JUMP JUMPDEST PUSH1 0x40 MLOAD PUSH2 0xD1 SWAP2 SWAP1 PUSH2 0x2056 JUMP JUMPDEST PUSH1 0x40 MLOAD DUP1 SWAP2 SUB SWAP1 RETURN JUMPDEST CALLVALUE DUP1 ISZERO PUSH2 0xE5 JUMPI PUSH0 DUP1 REVERT JUMPDEST POP PUSH2 0x100 PUSH1 0x4 DUP1 CALLDATASIZE SUB DUP2 ADD SWAP1 PUSH2 0xFB SWAP2 SWAP1 PUSH2 0x1D7D JUMP JUMPDEST PUSH2 0xC2A JUMP JUMPDEST STOP JUMPDEST CALLVALUE DUP1 ISZERO PUSH2 0x10D JUMPI PUSH0 DUP1 REVERT JUMPDEST POP PUSH2 0x116 PUSH2 0x11B1 JUMP JUMPDEST PUSH1 0x40 MLOAD PUSH2 0x123 SWAP2 SWAP1 PUSH2 0x21F9 JUMP JUMPDEST PUSH1 0x40 MLOAD DUP1 SWAP2 SUB SWAP1 RETURN JUMPDEST CALLVALUE DUP1 ISZERO PUSH2 0x137 JUMPI PUSH0 DUP1 REVERT JUMPDEST POP PUSH2 0x152 PUSH1 0x4 DUP1 CALLDATASIZE SUB DUP2 ADD SWAP1 PUSH2 0x14D SWAP2 SWAP1 PUSH2 0x2243 JUMP JUMPDEST PUSH2 0x1618 JUMP JUMPDEST PUSH1 0x40 MLOAD PUSH2 0x164 SWAP7 SWAP6 SWAP5 SWAP4 SWAP3 SWAP2 SWAP1 PUSH2 0x23B4 JUMP JUMPDEST PUSH1 0x40 MLOAD DUP1 SWAP2 SUB SWAP1 RETURN JUMPDEST PUSH1 0x3 PUSH1 0x20 MSTORE DUP1 PUSH0 MSTORE PUSH1 0x40 PUSH0 KECCAK256 PUSH0 SWAP2 POP SWAP1 POP SLOAD DUP2 JUMP JUMPDEST PUSH0 PUSH1 0x1 PUSH0 SWAP1 SLOAD SWAP1 PUSH2 0x100 EXP SWAP1 DIV PUSH20 0xFFFFFFFFFFFFFFFFFFFFFFFFFFFFFFFFFFFFFFFF AND PUSH20 0xFFFFFFFFFFFFFFFFFFFFFFFFFFFFFFFFFFFFFFFF AND PUSH4 0x2B07FCE3 DUP4 PUSH1 0x40 MLOAD DUP3 PUSH4 0xFFFFFFFF AND PUSH1 0xE0 SHL DUP2 MSTORE PUSH1 0x4 ADD PUSH2 0x1DD SWAP2 SWAP1 PUSH2 0x1DB7 JUMP JUMPDEST PUSH0 PUSH1 0x40 MLOAD DUP1 DUP4 SUB DUP2 DUP7 GAS STATICCALL ISZERO DUP1 ISZERO PUSH2 0x1F7 JUMPI RETURNDATASIZE PUSH0 DUP1 RETURNDATACOPY RETURNDATASIZE PUSH0 REVERT JUMPDEST POP POP POP POP PUSH1 0x40 MLOAD RETURNDATASIZE PUSH0 DUP3 RETURNDATACOPY RETURNDATASIZE PUSH1 0x1F NOT PUSH1 0x1F DUP3 ADD AND DUP3 ADD DUP1 PUSH1 0x40 MSTORE POP DUP2 ADD SWAP1 PUSH2 0x21F SWAP2 SWAP1 PUSH2 0x26D5 JUMP JUMPDEST SWAP1 POP PUSH1 0x1 ISZERO ISZERO DUP2 PUSH2 0x140 ADD MLOAD ISZERO ISZERO EQ PUSH2 0x26D JUMPI PUSH1 0x40 MLOAD PUSH32 0x8C379A000000000000000000000000000000000000000000000000000000000 DUP2 MSTORE PUSH1 0x4 ADD PUSH2 0x264 SWAP1 PUSH2 0x279C JUMP JUMPDEST PUSH1 0x40 MLOAD DUP1 SWAP2 SUB SWAP1 REVERT JUMPDEST CALLER PUSH20 0xFFFFFFFFFFFFFFFFFFFFFFFFFFFFFFFFFFFFFFFF AND DUP2 PUSH2 0x120 ADD MLOAD PUSH20 0xFFFFFFFFFFFFFFFFFFFFFFFFFFFFFFFFFFFFFFFF AND SUB PUSH2 0x2E0 JUMPI PUSH1 0x40 MLOAD PUSH32 0x8C379A000000000000000000000000000000000000000000000000000000000 DUP2 MSTORE PUSH1 0x4 ADD PUSH2 0x2D7 SWAP1 PUSH2 0x2804 JUMP JUMPDEST PUSH1 0x40 MLOAD DUP1 SWAP2 SUB SWAP1 REVERT JUMPDEST PUSH0 DUP1 PUSH0 SWAP1 SLOAD SWAP1 PUSH2 0x100 EXP SWAP1 DIV PUSH20 0xFFFFFFFFFFFFFFFFFFFFFFFFFFFFFFFFFFFFFFFF AND PUSH20 0xFFFFFFFFFFFFFFFFFFFFFFFFFFFFFFFFFFFFFFFF AND PUSH4 0x4763FBD2 DUP4 PUSH2 0x120 ADD MLOAD PUSH1 0x40 MLOAD DUP3 PUSH4 0xFFFFFFFF AND PUSH1 0xE0 SHL DUP2 MSTORE PUSH1 0x4 ADD PUSH2 0x33F SWAP2 SWAP1 PUSH2 0x2831 JUMP JUMPDEST PUSH1 0x20 PUSH1 0x40 MLOAD DUP1 DUP4 SUB DUP2 DUP7 GAS STATICCALL ISZERO DUP1 ISZERO PUSH2 0x35A JUMPI RETURNDATASIZE PUSH0 DUP1 RETURNDATACOPY RETURNDATASIZE PUSH0 REVERT JUMPDEST POP POP POP POP PUSH1 0x40 MLOAD RETURNDATASIZE PUSH1 0x1F NOT PUSH1 0x1F DUP3 ADD AND DUP3 ADD DUP1 PUSH1 0x40 MSTORE POP DUP2 ADD SWAP1 PUSH2 0x37E SWAP2 SWAP1 PUSH2 0x284A JUMP JUMPDEST DUP3 PUSH1 0xC0 ADD MLOAD PUSH2 0x38D SWAP2 SWAP1 PUSH2 0x28A2 JUMP JUMPDEST SWAP1 POP DUP1 CALLVALUE LT ISZERO PUSH2 0x39C DUP3 PUSH2 0x1898 JUMP JUMPDEST PUSH2 0x3A5 CALLVALUE PUSH2 0x1898 JUMP JUMPDEST PUSH1 0x40 MLOAD PUSH1 0x20 ADD PUSH2 0x3B6 SWAP3 SWAP2 SWAP1 PUSH2 0x2A21 JUMP JUMPDEST PUSH1 0x40 MLOAD PUSH1 0x20 DUP2 DUP4 SUB SUB DUP2 MSTORE SWAP1 PUSH1 0x40 MSTORE SWAP1 PUSH2 0x406 JUMPI PUSH1 0x40 MLOAD PUSH32 0x8C379A000000000000000000000000000000000000000000000000000000000 DUP2 MSTORE PUSH1 0x4 ADD PUSH2 0x3FD SWAP2 SWAP1 PUSH2 0x2A9D JUMP JUMPDEST PUSH1 0x40 MLOAD DUP1 SWAP2 SUB SWAP1 REVERT JUMPDEST POP DUP2 PUSH1 0xA0 ADD MLOAD DUP3 PUSH1 0x80 ADD MLOAD GT PUSH2 0x451 JUMPI PUSH1 0x40 MLOAD PUSH32 0x8C379A000000000000000000000000000000000000000000000000000000000 DUP2 MSTORE PUSH1 0x4 ADD PUSH2 0x448 SWAP1 PUSH2 0x2B07 JUMP JUMPDEST PUSH1 0x40 MLOAD DUP1 SWAP2 SUB SWAP1 REVERT JUMPDEST PUSH0 TIMESTAMP SWAP1 POP PUSH0 DUP4 PUSH2 0x100 ADD MLOAD TIMESTAMP PUSH2 0x467 SWAP2 SWAP1 PUSH2 0x2B25 JUMP JUMPDEST SWAP1 POP PUSH2 0x471 PUSH2 0x1C6D JUMP JUMPDEST PUSH2 0x47A DUP4 PUSH2 0x1962 JUMP JUMPDEST DUP4 PUSH0 ADD DUP5 PUSH1 0x20 ADD DUP6 PUSH1 0x40 ADD DUP4 DUP2 MSTORE POP DUP4 DUP2 MSTORE POP DUP4 DUP2 MSTORE POP POP POP POP PUSH2 0x49C PUSH2 0x1C6D JUMP JUMPDEST PUSH2 0x4A5 DUP4 PUSH2 0x1962 JUMP JUMPDEST DUP4 PUSH0 ADD DUP5 PUSH1 0x20 ADD DUP6 PUSH1 0x40 ADD DUP4 DUP2 MSTORE POP DUP4 DUP2 MSTORE POP DUP4 DUP2 MSTORE POP POP POP POP PUSH0 PUSH1 0x40 MLOAD DUP1 PUSH1 0xC0 ADD PUSH1 0x40 MSTORE DUP1 DUP9 DUP2 MSTORE PUSH1 0x20 ADD DUP7 DUP2 MSTORE PUSH1 0x20 ADD DUP6 DUP2 MSTORE PUSH1 0x20 ADD DUP5 DUP2 MSTORE PUSH1 0x20 ADD DUP4 DUP2 MSTORE PUSH1 0x20 ADD DUP9 PUSH1 0xC0 ADD MLOAD DUP2 MSTORE POP SWAP1 POP DUP6 PUSH1 0x3 PUSH0 DUP11 DUP2 MSTORE PUSH1 0x20 ADD SWAP1 DUP2 MSTORE PUSH1 0x20 ADD PUSH0 KECCAK256 SLOAD LT ISZERO PUSH2 0x547 JUMPI PUSH1 0x40 MLOAD PUSH32 0x8C379A000000000000000000000000000000000000000000000000000000000 DUP2 MSTORE PUSH1 0x4 ADD PUSH2 0x53E SWAP1 PUSH2 0x2BC8 JUMP JUMPDEST PUSH1 0x40 MLOAD DUP1 SWAP2 SUB SWAP1 REVERT JUMPDEST PUSH0 DUP1 SLOAD SWAP1 PUSH2 0x100 EXP SWAP1 DIV PUSH20 0xFFFFFFFFFFFFFFFFFFFFFFFFFFFFFFFFFFFFFFFF AND PUSH20 0xFFFFFFFFFFFFFFFFFFFFFFFFFFFFFFFFFFFFFFFF AND PUSH4 0xA9059CBB CALLER DUP9 PUSH1 0x40 MLOAD DUP4 PUSH4 0xFFFFFFFF AND PUSH1 0xE0 SHL DUP2 MSTORE PUSH1 0x4 ADD PUSH2 0x5A1 SWAP3 SWAP2 SWAP1 PUSH2 0x2BE6 JUMP JUMPDEST PUSH1 0x20 PUSH1 0x40 MLOAD DUP1 DUP4 SUB DUP2 PUSH0 DUP8 GAS CALL ISZERO DUP1 ISZERO PUSH2 0x5BD JUMPI RETURNDATASIZE PUSH0 DUP1 RETURNDATACOPY RETURNDATASIZE PUSH0 REVERT JUMPDEST POP POP POP POP PUSH1 0x40 MLOAD RETURNDATASIZE PUSH1 0x1F NOT PUSH1 0x1F DUP3 ADD AND DUP3 ADD DUP1 PUSH1 0x40 MSTORE POP DUP2 ADD SWAP1 PUSH2 0x5E1 SWAP2 SWAP1 PUSH2 0x2C0D JUMP JUMPDEST POP DUP6 PUSH1 0x3 PUSH0 DUP11 DUP2 MSTORE PUSH1 0x20 ADD SWAP1 DUP2 MSTORE PUSH1 0x20 ADD PUSH0 KECCAK256 PUSH0 DUP3 DUP3 SLOAD PUSH2 0x602 SWAP2 SWAP1 PUSH2 0x2C38 JUMP JUMPDEST SWAP3 POP POP DUP2 SWAP1 SSTORE POP PUSH1 0x4 PUSH0 CALLER PUSH20 0xFFFFFFFFFFFFFFFFFFFFFFFFFFFFFFFFFFFFFFFF AND PUSH20 0xFFFFFFFFFFFFFFFFFFFFFFFFFFFFFFFFFFFFFFFF AND DUP2 MSTORE PUSH1 0x20 ADD SWAP1 DUP2 MSTORE PUSH1 0x20 ADD PUSH0 KECCAK256 DUP2 SWAP1 DUP1 PUSH1 0x1 DUP2 SLOAD ADD DUP1 DUP3 SSTORE DUP1 SWAP2 POP POP PUSH1 0x1 SWAP1 SUB SWAP1 PUSH0 MSTORE PUSH1 0x20 PUSH0 KECCAK256 SWAP1 PUSH1 0x13 MUL ADD PUSH0 SWAP1 SWAP2 SWAP1 SWAP2 SWAP1 SWAP2 POP PUSH0 DUP3 ADD MLOAD DUP2 PUSH0 ADD PUSH0 DUP3 ADD MLOAD DUP2 PUSH0 ADD SSTORE PUSH1 0x20 DUP3 ADD MLOAD DUP2 PUSH1 0x1 ADD SWAP1 DUP2 PUSH2 0x691 SWAP2 SWAP1 PUSH2 0x2E65 JUMP JUMPDEST POP PUSH1 0x40 DUP3 ADD MLOAD DUP2 PUSH1 0x2 ADD SWAP1 DUP2 PUSH2 0x6A7 SWAP2 SWAP1 PUSH2 0x2E65 JUMP JUMPDEST POP PUSH1 0x60 DUP3 ADD MLOAD DUP2 PUSH1 0x3 ADD SSTORE PUSH1 0x80 DUP3 ADD MLOAD DUP2 PUSH1 0x4 ADD SSTORE PUSH1 0xA0 DUP3 ADD MLOAD DUP2 PUSH1 0x5 ADD SSTORE PUSH1 0xC0 DUP3 ADD MLOAD DUP2 PUSH1 0x6 ADD SSTORE PUSH1 0xE0 DUP3 ADD MLOAD DUP2 PUSH1 0x7 ADD SSTORE PUSH2 0x100 DUP3 ADD MLOAD DUP2 PUSH1 0x8 ADD SSTORE PUSH2 0x120 DUP3 ADD MLOAD DUP2 PUSH1 0x9 ADD PUSH0 PUSH2 0x100 EXP DUP2 SLOAD DUP2 PUSH20 0xFFFFFFFFFFFFFFFFFFFFFFFFFFFFFFFFFFFFFFFF MUL NOT AND SWAP1 DUP4 PUSH20 0xFFFFFFFFFFFFFFFFFFFFFFFFFFFFFFFFFFFFFFFF AND MUL OR SWAP1 SSTORE POP PUSH2 0x140 DUP3 ADD MLOAD DUP2 PUSH1 0x9 ADD PUSH1 0x14 PUSH2 0x100 EXP DUP2 SLOAD DUP2 PUSH1 0xFF MUL NOT AND SWAP1 DUP4 ISZERO ISZERO MUL OR SWAP1 SSTORE POP POP POP PUSH1 0x20 DUP3 ADD MLOAD DUP2 PUSH1 0xA ADD SSTORE PUSH1 0x40 DUP3 ADD MLOAD DUP2 PUSH1 0xB ADD SSTORE PUSH1 0x60 DUP3 ADD MLOAD DUP2 PUSH1 0xC ADD PUSH0 DUP3 ADD MLOAD DUP2 PUSH0 ADD SSTORE PUSH1 0x20 DUP3 ADD MLOAD DUP2 PUSH1 0x1 ADD SSTORE PUSH1 0x40 DUP3 ADD MLOAD DUP2 PUSH1 0x2 ADD SSTORE POP POP PUSH1 0x80 DUP3 ADD MLOAD DUP2 PUSH1 0xF ADD PUSH0 DUP3 ADD MLOAD DUP2 PUSH0 ADD SSTORE PUSH1 0x20 DUP3 ADD MLOAD DUP2 PUSH1 0x1 ADD SSTORE PUSH1 0x40 DUP3 ADD MLOAD DUP2 PUSH1 0x2 ADD SSTORE POP POP PUSH1 0xA0 DUP3 ADD MLOAD DUP2 PUSH1 0x12 ADD SSTORE POP POP PUSH1 0x1 PUSH0 SWAP1 SLOAD SWAP1 PUSH2 0x100 EXP SWAP1 DIV PUSH20 0xFFFFFFFFFFFFFFFFFFFFFFFFFFFFFFFFFFFFFFFF AND PUSH20 0xFFFFFFFFFFFFFFFFFFFFFFFFFFFFFFFFFFFFFFFF AND PUSH4 0xC6AB3FA DUP10 DUP10 PUSH1 0xC0 ADD MLOAD DUP11 PUSH1 0xA0 ADD MLOAD PUSH2 0x80F SWAP2 SWAP1 PUSH2 0x2B25 JUMP JUMPDEST PUSH1 0x40 MLOAD DUP4 PUSH4 0xFFFFFFFF AND PUSH1 0xE0 SHL DUP2 MSTORE PUSH1 0x4 ADD PUSH2 0x82C SWAP3 SWAP2 SWAP1 PUSH2 0x2F34 JUMP JUMPDEST PUSH0 PUSH1 0x40 MLOAD DUP1 DUP4 SUB DUP2 PUSH0 DUP8 DUP1 EXTCODESIZE ISZERO DUP1 ISZERO PUSH2 0x843 JUMPI PUSH0 DUP1 REVERT JUMPDEST POP GAS CALL ISZERO DUP1 ISZERO PUSH2 0x855 JUMPI RETURNDATASIZE PUSH0 DUP1 RETURNDATACOPY RETURNDATASIZE PUSH0 REVERT JUMPDEST POP POP POP POP DUP7 PUSH1 0xC0 ADD MLOAD DUP8 PUSH1 0xA0 ADD MLOAD DUP9 PUSH1 0x80 ADD MLOAD PUSH2 0x872 SWAP2 SWAP1 PUSH2 0x2C38 JUMP JUMPDEST LT ISZERO PUSH2 0x882 JUMPI PUSH2 0x881 DUP9 PUSH2 0x1994 JUMP JUMPDEST JUMPDEST POP POP POP POP POP POP POP POP JUMP JUMPDEST PUSH1 0x60 PUSH0 PUSH1 0x1 PUSH0 SWAP1 SLOAD SWAP1 PUSH2 0x100 EXP SWAP1 DIV PUSH20 0xFFFFFFFFFFFFFFFFFFFFFFFFFFFFFFFFFFFFFFFF AND PUSH20 0xFFFFFFFFFFFFFFFFFFFFFFFFFFFFFFFFFFFFFFFF AND PUSH4 0xDE54D429 PUSH1 0x40 MLOAD DUP2 PUSH4 0xFFFFFFFF AND PUSH1 0xE0 SHL DUP2 MSTORE PUSH1 0x4 ADD PUSH1 0x20 PUSH1 0x40 MLOAD DUP1 DUP4 SUB DUP2 DUP7 GAS STATICCALL ISZERO DUP1 ISZERO PUSH2 0x8F9 JUMPI RETURNDATASIZE PUSH0 DUP1 RETURNDATACOPY RETURNDATASIZE PUSH0 REVERT JUMPDEST POP POP POP POP PUSH1 0x40 MLOAD RETURNDATASIZE PUSH1 0x1F NOT PUSH1 0x1F DUP3 ADD AND DUP3 ADD DUP1 PUSH1 0x40 MSTORE POP DUP2 ADD SWAP1 PUSH2 0x91D SWAP2 SWAP1 PUSH2 0x284A JUMP JUMPDEST SWAP1 POP PUSH0 DUP1 PUSH1 0x1 SWAP1 POP JUMPDEST DUP3 DUP2 GT PUSH2 0x9FA JUMPI PUSH0 PUSH1 0x1 PUSH0 SWAP1 SLOAD SWAP1 PUSH2 0x100 EXP SWAP1 DIV PUSH20 0xFFFFFFFFFFFFFFFFFFFFFFFFFFFFFFFFFFFFFFFF AND PUSH20 0xFFFFFFFFFFFFFFFFFFFFFFFFFFFFFFFFFFFFFFFF AND PUSH4 0x2B07FCE3 DUP4 PUSH1 0x40 MLOAD DUP3 PUSH4 0xFFFFFFFF AND PUSH1 0xE0 SHL DUP2 MSTORE PUSH1 0x4 ADD PUSH2 0x988 SWAP2 SWAP1 PUSH2 0x1DB7 JUMP JUMPDEST PUSH0 PUSH1 0x40 MLOAD DUP1 DUP4 SUB DUP2 DUP7 GAS STATICCALL ISZERO DUP1 ISZERO PUSH2 0x9A2 JUMPI RETURNDATASIZE PUSH0 DUP1 RETURNDATACOPY RETURNDATASIZE PUSH0 REVERT JUMPDEST POP POP POP POP PUSH1 0x40 MLOAD RETURNDATASIZE PUSH0 DUP3 RETURNDATACOPY RETURNDATASIZE PUSH1 0x1F NOT PUSH1 0x1F DUP3 ADD AND DUP3 ADD DUP1 PUSH1 0x40 MSTORE POP DUP2 ADD SWAP1 PUSH2 0x9CA SWAP2 SWAP1 PUSH2 0x26D5 JUMP JUMPDEST SWAP1 POP DUP1 PUSH2 0x140 ADD MLOAD ISZERO PUSH2 0x9E6 JUMPI DUP3 DUP1 PUSH2 0x9E2 SWAP1 PUSH2 0x2F5B JUMP JUMPDEST SWAP4 POP POP JUMPDEST POP DUP1 DUP1 PUSH2 0x9F2 SWAP1 PUSH2 0x2F5B JUMP JUMPDEST SWAP2 POP POP PUSH2 0x926 JUMP JUMPDEST POP PUSH0 DUP2 GT PUSH2 0xA3D JUMPI PUSH1 0x40 MLOAD PUSH32 0x8C379A000000000000000000000000000000000000000000000000000000000 DUP2 MSTORE PUSH1 0x4 ADD PUSH2 0xA34 SWAP1 PUSH2 0x3012 JUMP JUMPDEST PUSH1 0x40 MLOAD DUP1 SWAP2 SUB SWAP1 REVERT JUMPDEST PUSH0 DUP2 PUSH8 0xFFFFFFFFFFFFFFFF DUP2 GT ISZERO PUSH2 0xA58 JUMPI PUSH2 0xA57 PUSH2 0x2420 JUMP JUMPDEST JUMPDEST PUSH1 0x40 MLOAD SWAP1 DUP1 DUP3 MSTORE DUP1 PUSH1 0x20 MUL PUSH1 0x20 ADD DUP3 ADD PUSH1 0x40 MSTORE DUP1 ISZERO PUSH2 0xA91 JUMPI DUP2 PUSH1 0x20 ADD JUMPDEST PUSH2 0xA7E PUSH2 0x1C8B JUMP JUMPDEST DUP2 MSTORE PUSH1 0x20 ADD SWAP1 PUSH1 0x1 SWAP1 SUB SWAP1 DUP2 PUSH2 0xA76 JUMPI SWAP1 POP JUMPDEST POP SWAP1 POP PUSH0 DUP1 PUSH1 0x1 SWAP1 POP JUMPDEST DUP5 DUP2 GT PUSH2 0xC1F JUMPI PUSH0 PUSH1 0x1 PUSH0 SWAP1 SLOAD SWAP1 PUSH2 0x100 EXP SWAP1 DIV PUSH20 0xFFFFFFFFFFFFFFFFFFFFFFFFFFFFFFFFFFFFFFFF AND PUSH20 0xFFFFFFFFFFFFFFFFFFFFFFFFFFFFFFFFFFFFFFFF AND PUSH4 0x2B07FCE3 DUP4 PUSH1 0x40 MLOAD DUP3 PUSH4 0xFFFFFFFF AND PUSH1 0xE0 SHL DUP2 MSTORE PUSH1 0x4 ADD PUSH2 0xAFD SWAP2 SWAP1 PUSH2 0x1DB7 JUMP JUMPDEST PUSH0 PUSH1 0x40 MLOAD DUP1 DUP4 SUB DUP2 DUP7 GAS STATICCALL ISZERO DUP1 ISZERO PUSH2 0xB17 JUMPI RETURNDATASIZE PUSH0 DUP1 RETURNDATACOPY RETURNDATASIZE PUSH0 REVERT JUMPDEST POP POP POP POP PUSH1 0x40 MLOAD RETURNDATASIZE PUSH0 DUP3 RETURNDATACOPY RETURNDATASIZE PUSH1 0x1F NOT PUSH1 0x1F DUP3 ADD AND DUP3 ADD DUP1 PUSH1 0x40 MSTORE POP DUP2 ADD SWAP1 PUSH2 0xB3F SWAP2 SWAP1 PUSH2 0x26D5 JUMP JUMPDEST SWAP1 POP DUP1 PUSH2 0x140 ADD MLOAD ISZERO PUSH2 0xC0B JUMPI PUSH1 0x40 MLOAD DUP1 PUSH2 0x160 ADD PUSH1 0x40 MSTORE DUP1 DUP3 PUSH0 ADD MLOAD DUP2 MSTORE PUSH1 0x20 ADD DUP3 PUSH1 0x20 ADD MLOAD DUP2 MSTORE PUSH1 0x20 ADD DUP3 PUSH1 0x40 ADD MLOAD DUP2 MSTORE PUSH1 0x20 ADD DUP3 PUSH1 0x60 ADD MLOAD DUP2 MSTORE PUSH1 0x20 ADD DUP3 PUSH1 0x80 ADD MLOAD DUP2 MSTORE PUSH1 0x20 ADD DUP3 PUSH1 0xA0 ADD MLOAD DUP2 MSTORE PUSH1 0x20 ADD DUP3 PUSH1 0xC0 ADD MLOAD DUP2 MSTORE PUSH1 0x20 ADD DUP3 PUSH1 0xE0 ADD MLOAD DUP2 MSTORE PUSH1 0x20 ADD DUP3 PUSH2 0x100 ADD MLOAD DUP2 MSTORE PUSH1 0x20 ADD DUP3 PUSH2 0x120 ADD MLOAD PUSH20 0xFFFFFFFFFFFFFFFFFFFFFFFFFFFFFFFFFFFFFFFF AND DUP2 MSTORE PUSH1 0x20 ADD DUP3 PUSH2 0x140 ADD MLOAD ISZERO ISZERO DUP2 MSTORE POP DUP5 DUP5 DUP2 MLOAD DUP2 LT PUSH2 0xBF1 JUMPI PUSH2 0xBF0 PUSH2 0x3030 JUMP JUMPDEST JUMPDEST PUSH1 0x20 MUL PUSH1 0x20 ADD ADD DUP2 SWAP1 MSTORE POP DUP3 DUP1 PUSH2 0xC07 SWAP1 PUSH2 0x2F5B JUMP JUMPDEST SWAP4 POP POP JUMPDEST POP DUP1 DUP1 PUSH2 0xC17 SWAP1 PUSH2 0x2F5B JUMP JUMPDEST SWAP2 POP POP PUSH2 0xA9B JUMP JUMPDEST POP DUP2 SWAP5 POP POP POP POP POP SWAP1 JUMP JUMPDEST DUP1 PUSH0 PUSH1 0x1 PUSH0 SWAP1 SLOAD SWAP1 PUSH2 0x100 EXP SWAP1 DIV PUSH20 0xFFFFFFFFFFFFFFFFFFFFFFFFFFFFFFFFFFFFFFFF AND PUSH20 0xFFFFFFFFFFFFFFFFFFFFFFFFFFFFFFFFFFFFFFFF AND PUSH4 0x2B07FCE3 DUP4 PUSH1 0x40 MLOAD DUP3 PUSH4 0xFFFFFFFF AND PUSH1 0xE0 SHL DUP2 MSTORE PUSH1 0x4 ADD PUSH2 0xC86 SWAP2 SWAP1 PUSH2 0x1DB7 JUMP JUMPDEST PUSH0 PUSH1 0x40 MLOAD DUP1 DUP4 SUB DUP2 DUP7 GAS STATICCALL ISZERO DUP1 ISZERO PUSH2 0xCA0 JUMPI RETURNDATASIZE PUSH0 DUP1 RETURNDATACOPY RETURNDATASIZE PUSH0 REVERT JUMPDEST POP POP POP POP PUSH1 0x40 MLOAD RETURNDATASIZE PUSH0 DUP3 RETURNDATACOPY RETURNDATASIZE PUSH1 0x1F NOT PUSH1 0x1F DUP3 ADD AND DUP3 ADD DUP1 PUSH1 0x40 MSTORE POP DUP2 ADD SWAP1 PUSH2 0xCC8 SWAP2 SWAP1 PUSH2 0x26D5 JUMP JUMPDEST SWAP1 POP DUP1 PUSH2 0x120 ADD MLOAD PUSH20 0xFFFFFFFFFFFFFFFFFFFFFFFFFFFFFFFFFFFFFFFF AND CALLER PUSH20 0xFFFFFFFFFFFFFFFFFFFFFFFFFFFFFFFFFFFFFFFF AND EQ PUSH2 0xD3D JUMPI PUSH1 0x40 MLOAD PUSH32 0x8C379A000000000000000000000000000000000000000000000000000000000 DUP2 MSTORE PUSH1 0x4 ADD PUSH2 0xD34 SWAP1 PUSH2 0x30A7 JUMP JUMPDEST PUSH1 0x40 MLOAD DUP1 SWAP2 SUB SWAP1 REVERT JUMPDEST PUSH0 PUSH1 0x1 PUSH0 SWAP1 SLOAD SWAP1 PUSH2 0x100 EXP SWAP1 DIV PUSH20 0xFFFFFFFFFFFFFFFFFFFFFFFFFFFFFFFFFFFFFFFF AND PUSH20 0xFFFFFFFFFFFFFFFFFFFFFFFFFFFFFFFFFFFFFFFF AND PUSH4 0x2B07FCE3 DUP6 PUSH1 0x40 MLOAD DUP3 PUSH4 0xFFFFFFFF AND PUSH1 0xE0 SHL DUP2 MSTORE PUSH1 0x4 ADD PUSH2 0xD98 SWAP2 SWAP1 PUSH2 0x1DB7 JUMP JUMPDEST PUSH0 PUSH1 0x40 MLOAD DUP1 DUP4 SUB DUP2 DUP7 GAS STATICCALL ISZERO DUP1 ISZERO PUSH2 0xDB2 JUMPI RETURNDATASIZE PUSH0 DUP1 RETURNDATACOPY RETURNDATASIZE PUSH0 REVERT JUMPDEST POP POP POP POP PUSH1 0x40 MLOAD RETURNDATASIZE PUSH0 DUP3 RETURNDATACOPY RETURNDATASIZE PUSH1 0x1F NOT PUSH1 0x1F DUP3 ADD AND DUP3 ADD DUP1 PUSH1 0x40 MSTORE POP DUP2 ADD SWAP1 PUSH2 0xDDA SWAP2 SWAP1 PUSH2 0x26D5 JUMP JUMPDEST SWAP1 POP PUSH0 DUP1 PUSH0 SWAP1 SLOAD SWAP1 PUSH2 0x100 EXP SWAP1 DIV PUSH20 0xFFFFFFFFFFFFFFFFFFFFFFFFFFFFFFFFFFFFFFFF AND PUSH20 0xFFFFFFFFFFFFFFFFFFFFFFFFFFFFFFFFFFFFFFFF AND PUSH4 0x70A08231 CALLER PUSH1 0x40 MLOAD DUP3 PUSH4 0xFFFFFFFF AND PUSH1 0xE0 SHL DUP2 MSTORE PUSH1 0x4 ADD PUSH2 0xE36 SWAP2 SWAP1 PUSH2 0x2831 JUMP JUMPDEST PUSH1 0x20 PUSH1 0x40 MLOAD DUP1 DUP4 SUB DUP2 DUP7 GAS STATICCALL ISZERO DUP1 ISZERO PUSH2 0xE51 JUMPI RETURNDATASIZE PUSH0 DUP1 RETURNDATACOPY RETURNDATASIZE PUSH0 REVERT JUMPDEST POP POP POP POP PUSH1 0x40 MLOAD RETURNDATASIZE PUSH1 0x1F NOT PUSH1 0x1F DUP3 ADD AND DUP3 ADD DUP1 PUSH1 0x40 MSTORE POP DUP2 ADD SWAP1 PUSH2 0xE75 SWAP2 SWAP1 PUSH2 0x284A JUMP JUMPDEST SWAP1 POP DUP2 PUSH1 0x80 ADD MLOAD DUP2 LT ISZERO PUSH2 0xEBE JUMPI PUSH1 0x40 MLOAD PUSH32 0x8C379A000000000000000000000000000000000000000000000000000000000 DUP2 MSTORE PUSH1 0x4 ADD PUSH2 0xEB5 SWAP1 PUSH2 0x310F JUMP JUMPDEST PUSH1 0x40 MLOAD DUP1 SWAP2 SUB SWAP1 REVERT JUMPDEST PUSH0 DUP1 PUSH0 SWAP1 SLOAD SWAP1 PUSH2 0x100 EXP SWAP1 DIV PUSH20 0xFFFFFFFFFFFFFFFFFFFFFFFFFFFFFFFFFFFFFFFF AND PUSH20 0xFFFFFFFFFFFFFFFFFFFFFFFFFFFFFFFFFFFFFFFF AND PUSH4 0xDD62ED3E CALLER ADDRESS PUSH1 0x40 MLOAD DUP4 PUSH4 0xFFFFFFFF AND PUSH1 0xE0 SHL DUP2 MSTORE PUSH1 0x4 ADD PUSH2 0xF1A SWAP3 SWAP2 SWAP1 PUSH2 0x312D JUMP JUMPDEST PUSH1 0x20 PUSH1 0x40 MLOAD DUP1 DUP4 SUB DUP2 DUP7 GAS STATICCALL ISZERO DUP1 ISZERO PUSH2 0xF35 JUMPI RETURNDATASIZE PUSH0 DUP1 RETURNDATACOPY RETURNDATASIZE PUSH0 REVERT JUMPDEST POP POP POP POP PUSH1 0x40 MLOAD RETURNDATASIZE PUSH1 0x1F NOT PUSH1 0x1F DUP3 ADD AND DUP3 ADD DUP1 PUSH1 0x40 MSTORE POP DUP2 ADD SWAP1 PUSH2 0xF59 SWAP2 SWAP1 PUSH2 0x284A JUMP JUMPDEST SWAP1 POP DUP3 PUSH1 0x80 ADD MLOAD DUP2 LT ISZERO PUSH2 0xF70 DUP5 PUSH1 0x80 ADD MLOAD PUSH2 0x1898 JUMP JUMPDEST PUSH1 0x40 MLOAD PUSH1 0x20 ADD PUSH2 0xF80 SWAP2 SWAP1 PUSH2 0x3234 JUMP JUMPDEST PUSH1 0x40 MLOAD PUSH1 0x20 DUP2 DUP4 SUB SUB DUP2 MSTORE SWAP1 PUSH1 0x40 MSTORE SWAP1 PUSH2 0xFD0 JUMPI PUSH1 0x40 MLOAD PUSH32 0x8C379A000000000000000000000000000000000000000000000000000000000 DUP2 MSTORE PUSH1 0x4 ADD PUSH2 0xFC7 SWAP2 SWAP1 PUSH2 0x2A9D JUMP JUMPDEST PUSH1 0x40 MLOAD DUP1 SWAP2 SUB SWAP1 REVERT JUMPDEST POP PUSH0 DUP1 PUSH0 SWAP1 SLOAD SWAP1 PUSH2 0x100 EXP SWAP1 DIV PUSH20 0xFFFFFFFFFFFFFFFFFFFFFFFFFFFFFFFFFFFFFFFF AND PUSH20 0xFFFFFFFFFFFFFFFFFFFFFFFFFFFFFFFFFFFFFFFF AND PUSH4 0x23B872DD CALLER ADDRESS DUP8 PUSH1 0x80 ADD MLOAD PUSH1 0x40 MLOAD DUP5 PUSH4 0xFFFFFFFF AND PUSH1 0xE0 SHL DUP2 MSTORE PUSH1 0x4 ADD PUSH2 0x1033 SWAP4 SWAP3 SWAP2 SWAP1 PUSH2 0x3260 JUMP JUMPDEST PUSH1 0x20 PUSH1 0x40 MLOAD DUP1 DUP4 SUB DUP2 PUSH0 DUP8 GAS CALL ISZERO DUP1 ISZERO PUSH2 0x104F JUMPI RETURNDATASIZE PUSH0 DUP1 RETURNDATACOPY RETURNDATASIZE PUSH0 REVERT JUMPDEST POP POP POP POP PUSH1 0x40 MLOAD RETURNDATASIZE PUSH1 0x1F NOT PUSH1 0x1F DUP3 ADD AND DUP3 ADD DUP1 PUSH1 0x40 MSTORE POP DUP2 ADD SWAP1 PUSH2 0x1073 SWAP2 SWAP1 PUSH2 0x2C0D JUMP JUMPDEST SWAP1 POP DUP1 PUSH2 0x10B5 JUMPI PUSH1 0x40 MLOAD PUSH32 0x8C379A000000000000000000000000000000000000000000000000000000000 DUP2 MSTORE PUSH1 0x4 ADD PUSH2 0x10AC SWAP1 PUSH2 0x32DF JUMP JUMPDEST PUSH1 0x40 MLOAD DUP1 SWAP2 SUB SWAP1 REVERT JUMPDEST DUP4 PUSH1 0x80 ADD MLOAD PUSH1 0x3 PUSH0 DUP10 DUP2 MSTORE PUSH1 0x20 ADD SWAP1 DUP2 MSTORE PUSH1 0x20 ADD PUSH0 KECCAK256 DUP2 SWAP1 SSTORE POP CALLER PUSH20 0xFFFFFFFFFFFFFFFFFFFFFFFFFFFFFFFFFFFFFFFF AND PUSH32 0x31FE01AA97E3E611897437E7242632143C46A245D1FC9C93699D3072504FD9A1 DUP6 PUSH1 0x80 ADD MLOAD PUSH1 0x40 MLOAD PUSH2 0x1119 SWAP2 SWAP1 PUSH2 0x1DB7 JUMP JUMPDEST PUSH1 0x40 MLOAD DUP1 SWAP2 SUB SWAP1 LOG2 PUSH1 0x1 PUSH0 SWAP1 SLOAD SWAP1 PUSH2 0x100 EXP SWAP1 DIV PUSH20 0xFFFFFFFFFFFFFFFFFFFFFFFFFFFFFFFFFFFFFFFF AND PUSH20 0xFFFFFFFFFFFFFFFFFFFFFFFFFFFFFFFFFFFFFFFF AND PUSH4 0x5B2A3646 DUP9 PUSH1 0x40 MLOAD DUP3 PUSH4 0xFFFFFFFF AND PUSH1 0xE0 SHL DUP2 MSTORE PUSH1 0x4 ADD PUSH2 0x117B SWAP2 SWAP1 PUSH2 0x1DB7 JUMP JUMPDEST PUSH0 PUSH1 0x40 MLOAD DUP1 DUP4 SUB DUP2 PUSH0 DUP8 DUP1 EXTCODESIZE ISZERO DUP1 ISZERO PUSH2 0x1192 JUMPI PUSH0 DUP1 REVERT JUMPDEST POP GAS CALL ISZERO DUP1 ISZERO PUSH2 0x11A4 JUMPI RETURNDATASIZE PUSH0 DUP1 RETURNDATACOPY RETURNDATASIZE PUSH0 REVERT JUMPDEST POP POP POP POP POP POP POP POP POP POP POP JUMP JUMPDEST PUSH1 0x60 PUSH0 PUSH1 0x4 PUSH0 CALLER PUSH20 0xFFFFFFFFFFFFFFFFFFFFFFFFFFFFFFFFFFFFFFFF AND PUSH20 0xFFFFFFFFFFFFFFFFFFFFFFFFFFFFFFFFFFFFFFFF AND DUP2 MSTORE PUSH1 0x20 ADD SWAP1 DUP2 MSTORE PUSH1 0x20 ADD PUSH0 KECCAK256 DUP1 SLOAD SWAP1 POP GT PUSH2 0x1235 JUMPI PUSH1 0x40 MLOAD PUSH32 0x8C379A000000000000000000000000000000000000000000000000000000000 DUP2 MSTORE PUSH1 0x4 ADD PUSH2 0x122C SWAP1 PUSH2 0x3347 JUMP JUMPDEST PUSH1 0x40 MLOAD DUP1 SWAP2 SUB SWAP1 REVERT JUMPDEST PUSH0 PUSH1 0x4 PUSH0 CALLER PUSH20 0xFFFFFFFFFFFFFFFFFFFFFFFFFFFFFFFFFFFFFFFF AND PUSH20 0xFFFFFFFFFFFFFFFFFFFFFFFFFFFFFFFFFFFFFFFF AND DUP2 MSTORE PUSH1 0x20 ADD SWAP1 DUP2 MSTORE PUSH1 0x20 ADD PUSH0 KECCAK256 DUP1 SLOAD SWAP1 POP PUSH8 0xFFFFFFFFFFFFFFFF DUP2 GT ISZERO PUSH2 0x1290 JUMPI PUSH2 0x128F PUSH2 0x2420 JUMP JUMPDEST JUMPDEST PUSH1 0x40 MLOAD SWAP1 DUP1 DUP3 MSTORE DUP1 PUSH1 0x20 MUL PUSH1 0x20 ADD DUP3 ADD PUSH1 0x40 MSTORE DUP1 ISZERO PUSH2 0x12C9 JUMPI DUP2 PUSH1 0x20 ADD JUMPDEST PUSH2 0x12B6 PUSH2 0x1CF4 JUMP JUMPDEST DUP2 MSTORE PUSH1 0x20 ADD SWAP1 PUSH1 0x1 SWAP1 SUB SWAP1 DUP2 PUSH2 0x12AE JUMPI SWAP1 POP JUMPDEST POP SWAP1 POP PUSH0 JUMPDEST PUSH1 0x4 PUSH0 CALLER PUSH20 0xFFFFFFFFFFFFFFFFFFFFFFFFFFFFFFFFFFFFFFFF AND PUSH20 0xFFFFFFFFFFFFFFFFFFFFFFFFFFFFFFFFFFFFFFFF AND DUP2 MSTORE PUSH1 0x20 ADD SWAP1 DUP2 MSTORE PUSH1 0x20 ADD PUSH0 KECCAK256 DUP1 SLOAD SWAP1 POP DUP2 LT ISZERO PUSH2 0x1610 JUMPI PUSH1 0x4 PUSH0 CALLER PUSH20 0xFFFFFFFFFFFFFFFFFFFFFFFFFFFFFFFFFFFFFFFF AND PUSH20 0xFFFFFFFFFFFFFFFFFFFFFFFFFFFFFFFFFFFFFFFF AND DUP2 MSTORE PUSH1 0x20 ADD SWAP1 DUP2 MSTORE PUSH1 0x20 ADD PUSH0 KECCAK256 DUP2 DUP2 SLOAD DUP2 LT PUSH2 0x1365 JUMPI PUSH2 0x1364 PUSH2 0x3030 JUMP JUMPDEST JUMPDEST SWAP1 PUSH0 MSTORE PUSH1 0x20 PUSH0 KECCAK256 SWAP1 PUSH1 0x13 MUL ADD PUSH1 0x40 MLOAD DUP1 PUSH1 0xC0 ADD PUSH1 0x40 MSTORE SWAP1 DUP2 PUSH0 DUP3 ADD PUSH1 0x40 MLOAD DUP1 PUSH2 0x160 ADD PUSH1 0x40 MSTORE SWAP1 DUP2 PUSH0 DUP3 ADD SLOAD DUP2 MSTORE PUSH1 0x20 ADD PUSH1 0x1 DUP3 ADD DUP1 SLOAD PUSH2 0x13A5 SWAP1 PUSH2 0x2C98 JUMP JUMPDEST DUP1 PUSH1 0x1F ADD PUSH1 0x20 DUP1 SWAP2 DIV MUL PUSH1 0x20 ADD PUSH1 0x40 MLOAD SWAP1 DUP2 ADD PUSH1 0x40 MSTORE DUP1 SWAP3 SWAP2 SWAP1 DUP2 DUP2 MSTORE PUSH1 0x20 ADD DUP3 DUP1 SLOAD PUSH2 0x13D1 SWAP1 PUSH2 0x2C98 JUMP JUMPDEST DUP1 ISZERO PUSH2 0x141C JUMPI DUP1 PUSH1 0x1F LT PUSH2 0x13F3 JUMPI PUSH2 0x100 DUP1 DUP4 SLOAD DIV MUL DUP4 MSTORE SWAP2 PUSH1 0x20 ADD SWAP2 PUSH2 0x141C JUMP JUMPDEST DUP3 ADD SWAP2 SWAP1 PUSH0 MSTORE PUSH1 0x20 PUSH0 KECCAK256 SWAP1 JUMPDEST DUP2 SLOAD DUP2 MSTORE SWAP1 PUSH1 0x1 ADD SWAP1 PUSH1 0x20 ADD DUP1 DUP4 GT PUSH2 0x13FF JUMPI DUP3 SWAP1 SUB PUSH1 0x1F AND DUP3 ADD SWAP2 JUMPDEST POP POP POP POP POP DUP2 MSTORE PUSH1 0x20 ADD PUSH1 0x2 DUP3 ADD DUP1 SLOAD PUSH2 0x1435 SWAP1 PUSH2 0x2C98 JUMP JUMPDEST DUP1 PUSH1 0x1F ADD PUSH1 0x20 DUP1 SWAP2 DIV MUL PUSH1 0x20 ADD PUSH1 0x40 MLOAD SWAP1 DUP2 ADD PUSH1 0x40 MSTORE DUP1 SWAP3 SWAP2 SWAP1 DUP2 DUP2 MSTORE PUSH1 0x20 ADD DUP3 DUP1 SLOAD PUSH2 0x1461 SWAP1 PUSH2 0x2C98 JUMP JUMPDEST DUP1 ISZERO PUSH2 0x14AC JUMPI DUP1 PUSH1 0x1F LT PUSH2 0x1483 JUMPI PUSH2 0x100 DUP1 DUP4 SLOAD DIV MUL DUP4 MSTORE SWAP2 PUSH1 0x20 ADD SWAP2 PUSH2 0x14AC JUMP JUMPDEST DUP3 ADD SWAP2 SWAP1 PUSH0 MSTORE PUSH1 0x20 PUSH0 KECCAK256 SWAP1 JUMPDEST DUP2 SLOAD DUP2 MSTORE SWAP1 PUSH1 0x1 ADD SWAP1 PUSH1 0x20 ADD DUP1 DUP4 GT PUSH2 0x148F JUMPI DUP3 SWAP1 SUB PUSH1 0x1F AND DUP3 ADD SWAP2 JUMPDEST POP POP POP POP POP DUP2 MSTORE PUSH1 0x20 ADD PUSH1 0x3 DUP3 ADD SLOAD DUP2 MSTORE PUSH1 0x20 ADD PUSH1 0x4 DUP3 ADD SLOAD DUP2 MSTORE PUSH1 0x20 ADD PUSH1 0x5 DUP3 ADD SLOAD DUP2 MSTORE PUSH1 0x20 ADD PUSH1 0x6 DUP3 ADD SLOAD DUP2 MSTORE PUSH1 0x20 ADD PUSH1 0x7 DUP3 ADD SLOAD DUP2 MSTORE PUSH1 0x20 ADD PUSH1 0x8 DUP3 ADD SLOAD DUP2 MSTORE PUSH1 0x20 ADD PUSH1 0x9 DUP3 ADD PUSH0 SWAP1 SLOAD SWAP1 PUSH2 0x100 EXP SWAP1 DIV PUSH20 0xFFFFFFFFFFFFFFFFFFFFFFFFFFFFFFFFFFFFFFFF AND PUSH20 0xFFFFFFFFFFFFFFFFFFFFFFFFFFFFFFFFFFFFFFFF AND PUSH20 0xFFFFFFFFFFFFFFFFFFFFFFFFFFFFFFFFFFFFFFFF AND DUP2 MSTORE PUSH1 0x20 ADD PUSH1 0x9 DUP3 ADD PUSH1 0x14 SWAP1 SLOAD SWAP1 PUSH2 0x100 EXP SWAP1 DIV PUSH1 0xFF AND ISZERO ISZERO ISZERO ISZERO DUP2 MSTORE POP POP DUP2 MSTORE PUSH1 0x20 ADD PUSH1 0xA DUP3 ADD SLOAD DUP2 MSTORE PUSH1 0x20 ADD PUSH1 0xB DUP3 ADD SLOAD DUP2 MSTORE PUSH1 0x20 ADD PUSH1 0xC DUP3 ADD PUSH1 0x40 MLOAD DUP1 PUSH1 0x60 ADD PUSH1 0x40 MSTORE SWAP1 DUP2 PUSH0 DUP3 ADD SLOAD DUP2 MSTORE PUSH1 0x20 ADD PUSH1 0x1 DUP3 ADD SLOAD DUP2 MSTORE PUSH1 0x20 ADD PUSH1 0x2 DUP3 ADD SLOAD DUP2 MSTORE POP POP DUP2 MSTORE PUSH1 0x20 ADD PUSH1 0xF DUP3 ADD PUSH1 0x40 MLOAD DUP1 PUSH1 0x60 ADD PUSH1 0x40 MSTORE SWAP1 DUP2 PUSH0 DUP3 ADD SLOAD DUP2 MSTORE PUSH1 0x20 ADD PUSH1 0x1 DUP3 ADD SLOAD DUP2 MSTORE PUSH1 0x20 ADD PUSH1 0x2 DUP3 ADD SLOAD DUP2 MSTORE POP POP DUP2 MSTORE PUSH1 0x20 ADD PUSH1 0x12 DUP3 ADD SLOAD DUP2 MSTORE POP POP DUP3 DUP3 DUP2 MLOAD DUP2 LT PUSH2 0x15F8 JUMPI PUSH2 0x15F7 PUSH2 0x3030 JUMP JUMPDEST JUMPDEST PUSH1 0x20 MUL PUSH1 0x20 ADD ADD DUP2 SWAP1 MSTORE POP DUP1 DUP1 PUSH1 0x1 ADD SWAP2 POP POP PUSH2 0x12CE JUMP JUMPDEST POP DUP1 SWAP2 POP POP SWAP1 JUMP JUMPDEST PUSH1 0x4 PUSH1 0x20 MSTORE DUP2 PUSH0 MSTORE PUSH1 0x40 PUSH0 KECCAK256 DUP2 DUP2 SLOAD DUP2 LT PUSH2 0x1631 JUMPI PUSH0 DUP1 REVERT JUMPDEST SWAP1 PUSH0 MSTORE PUSH1 0x20 PUSH0 KECCAK256 SWAP1 PUSH1 0x13 MUL ADD PUSH0 SWAP2 POP SWAP2 POP POP DUP1 PUSH0 ADD PUSH1 0x40 MLOAD DUP1 PUSH2 0x160 ADD PUSH1 0x40 MSTORE SWAP1 DUP2 PUSH0 DUP3 ADD SLOAD DUP2 MSTORE PUSH1 0x20 ADD PUSH1 0x1 DUP3 ADD DUP1 SLOAD PUSH2 0x166B SWAP1 PUSH2 0x2C98 JUMP JUMPDEST DUP1 PUSH1 0x1F ADD PUSH1 0x20 DUP1 SWAP2 DIV MUL PUSH1 0x20 ADD PUSH1 0x40 MLOAD SWAP1 DUP2 ADD PUSH1 0x40 MSTORE DUP1 SWAP3 SWAP2 SWAP1 DUP2 DUP2 MSTORE PUSH1 0x20 ADD DUP3 DUP1 SLOAD PUSH2 0x1697 SWAP1 PUSH2 0x2C98 JUMP JUMPDEST DUP1 ISZERO PUSH2 0x16E2 JUMPI DUP1 PUSH1 0x1F LT PUSH2 0x16B9 JUMPI PUSH2 0x100 DUP1 DUP4 SLOAD DIV MUL DUP4 MSTORE SWAP2 PUSH1 0x20 ADD SWAP2 PUSH2 0x16E2 JUMP JUMPDEST DUP3 ADD SWAP2 SWAP1 PUSH0 MSTORE PUSH1 0x20 PUSH0 KECCAK256 SWAP1 JUMPDEST DUP2 SLOAD DUP2 MSTORE SWAP1 PUSH1 0x1 ADD SWAP1 PUSH1 0x20 ADD DUP1 DUP4 GT PUSH2 0x16C5 JUMPI DUP3 SWAP1 SUB PUSH1 0x1F AND DUP3 ADD SWAP2 JUMPDEST POP POP POP POP POP DUP2 MSTORE PUSH1 0x20 ADD PUSH1 0x2 DUP3 ADD DUP1 SLOAD PUSH2 0x16FB SWAP1 PUSH2 0x2C98 JUMP JUMPDEST DUP1 PUSH1 0x1F ADD PUSH1 0x20 DUP1 SWAP2 DIV MUL PUSH1 0x20 ADD PUSH1 0x40 MLOAD SWAP1 DUP2 ADD PUSH1 0x40 MSTORE DUP1 SWAP3 SWAP2 SWAP1 DUP2 DUP2 MSTORE PUSH1 0x20 ADD DUP3 DUP1 SLOAD PUSH2 0x1727 SWAP1 PUSH2 0x2C98 JUMP JUMPDEST DUP1 ISZERO PUSH2 0x1772 JUMPI DUP1 PUSH1 0x1F LT PUSH2 0x1749 JUMPI PUSH2 0x100 DUP1 DUP4 SLOAD DIV MUL DUP4 MSTORE SWAP2 PUSH1 0x20 ADD SWAP2 PUSH2 0x1772 JUMP JUMPDEST DUP3 ADD SWAP2 SWAP1 PUSH0 MSTORE PUSH1 0x20 PUSH0 KECCAK256 SWAP1 JUMPDEST DUP2 SLOAD DUP2 MSTORE SWAP1 PUSH1 0x1 ADD SWAP1 PUSH1 0x20 ADD DUP1 DUP4 GT PUSH2 0x1755 JUMPI DUP3 SWAP1 SUB PUSH1 0x1F AND DUP3 ADD SWAP2 JUMPDEST POP POP POP POP POP DUP2 MSTORE PUSH1 0x20 ADD PUSH1 0x3 DUP3 ADD SLOAD DUP2 MSTORE PUSH1 0x20 ADD PUSH1 0x4 DUP3 ADD SLOAD DUP2 MSTORE PUSH1 0x20 ADD PUSH1 0x5 DUP3 ADD SLOAD DUP2 MSTORE PUSH1 0x20 ADD PUSH1 0x6 DUP3 ADD SLOAD DUP2 MSTORE PUSH1 0x20 ADD PUSH1 0x7 DUP3 ADD SLOAD DUP2 MSTORE PUSH1 0x20 ADD PUSH1 0x8 DUP3 ADD SLOAD DUP2 MSTORE PUSH1 0x20 ADD PUSH1 0x9 DUP3 ADD PUSH0 SWAP1 SLOAD SWAP1 PUSH2 0x100 EXP SWAP1 DIV PUSH20 0xFFFFFFFFFFFFFFFFFFFFFFFFFFFFFFFFFFFFFFFF AND PUSH20 0xFFFFFFFFFFFFFFFFFFFFFFFFFFFFFFFFFFFFFFFF AND PUSH20 0xFFFFFFFFFFFFFFFFFFFFFFFFFFFFFFFFFFFFFFFF AND DUP2 MSTORE PUSH1 0x20 ADD PUSH1 0x9 DUP3 ADD PUSH1 0x14 SWAP1 SLOAD SWAP1 PUSH2 0x100 EXP SWAP1 DIV PUSH1 0xFF AND ISZERO ISZERO ISZERO ISZERO DUP2 MSTORE POP POP SWAP1 DUP1 PUSH1 0xA ADD SLOAD SWAP1 DUP1 PUSH1 0xB ADD SLOAD SWAP1 DUP1 PUSH1 0xC ADD PUSH1 0x40 MLOAD DUP1 PUSH1 0x60 ADD PUSH1 0x40 MSTORE SWAP1 DUP2 PUSH0 DUP3 ADD SLOAD DUP2 MSTORE PUSH1 0x20 ADD PUSH1 0x1 DUP3 ADD SLOAD DUP2 MSTORE PUSH1 0x20 ADD PUSH1 0x2 DUP3 ADD SLOAD DUP2 MSTORE POP POP SWAP1 DUP1 PUSH1 0xF ADD PUSH1 0x40 MLOAD DUP1 PUSH1 0x60 ADD PUSH1 0x40 MSTORE SWAP1 DUP2 PUSH0 DUP3 ADD SLOAD DUP2 MSTORE PUSH1 0x20 ADD PUSH1 0x1 DUP3 ADD SLOAD DUP2 MSTORE PUSH1 0x20 ADD PUSH1 0x2 DUP3 ADD SLOAD DUP2 MSTORE POP POP SWAP1 DUP1 PUSH1 0x12 ADD SLOAD SWAP1 POP DUP7 JUMP JUMPDEST PUSH1 0x60 PUSH0 PUSH1 0x1 PUSH2 0x18A6 DUP5 PUSH2 0x1A1E JUMP JUMPDEST ADD SWAP1 POP PUSH0 DUP2 PUSH8 0xFFFFFFFFFFFFFFFF DUP2 GT ISZERO PUSH2 0x18C4 JUMPI PUSH2 0x18C3 PUSH2 0x2420 JUMP JUMPDEST JUMPDEST PUSH1 0x40 MLOAD SWAP1 DUP1 DUP3 MSTORE DUP1 PUSH1 0x1F ADD PUSH1 0x1F NOT AND PUSH1 0x20 ADD DUP3 ADD PUSH1 0x40 MSTORE DUP1 ISZERO PUSH2 0x18F6 JUMPI DUP2 PUSH1 0x20 ADD PUSH1 0x1 DUP3 MUL DUP1 CALLDATASIZE DUP4 CALLDATACOPY DUP1 DUP3 ADD SWAP2 POP POP SWAP1 POP JUMPDEST POP SWAP1 POP PUSH0 DUP3 PUSH1 0x20 ADD DUP3 ADD SWAP1 POP JUMPDEST PUSH1 0x1 ISZERO PUSH2 0x1957 JUMPI DUP1 DUP1 PUSH1 0x1 SWAP1 SUB SWAP2 POP POP PUSH32 0x3031323334353637383961626364656600000000000000000000000000000000 PUSH1 0xA DUP7 MOD BYTE DUP2 MSTORE8 PUSH1 0xA DUP6 DUP2 PUSH2 0x194C JUMPI PUSH2 0x194B PUSH2 0x3365 JUMP JUMPDEST JUMPDEST DIV SWAP5 POP PUSH0 DUP6 SUB PUSH2 0x1903 JUMPI JUMPDEST DUP2 SWAP4 POP POP POP POP SWAP2 SWAP1 POP JUMP JUMPDEST PUSH0 DUP1 PUSH0 PUSH2 0x1981 PUSH3 0x15180 DUP6 DUP2 PUSH2 0x197B JUMPI PUSH2 0x197A PUSH2 0x3365 JUMP JUMPDEST JUMPDEST DIV PUSH2 0x1B6F JUMP JUMPDEST DUP1 SWAP4 POP DUP2 SWAP5 POP DUP3 SWAP6 POP POP POP POP SWAP2 SWAP4 SWAP1 SWAP3 POP JUMP JUMPDEST PUSH1 0x1 PUSH0 SWAP1 SLOAD SWAP1 PUSH2 0x100 EXP SWAP1 DIV PUSH20 0xFFFFFFFFFFFFFFFFFFFFFFFFFFFFFFFFFFFFFFFF AND PUSH20 0xFFFFFFFFFFFFFFFFFFFFFFFFFFFFFFFFFFFFFFFF AND PUSH4 0x22191F72 DUP3 PUSH1 0x40 MLOAD DUP3 PUSH4 0xFFFFFFFF AND PUSH1 0xE0 SHL DUP2 MSTORE PUSH1 0x4 ADD PUSH2 0x19EE SWAP2 SWAP1 PUSH2 0x1DB7 JUMP JUMPDEST PUSH0 PUSH1 0x40 MLOAD DUP1 DUP4 SUB DUP2 PUSH0 DUP8 DUP1 EXTCODESIZE ISZERO DUP1 ISZERO PUSH2 0x1A05 JUMPI PUSH0 DUP1 REVERT JUMPDEST POP GAS CALL ISZERO DUP1 ISZERO PUSH2 0x1A17 JUMPI RETURNDATASIZE PUSH0 DUP1 RETURNDATACOPY RETURNDATASIZE PUSH0 REVERT JUMPDEST POP POP POP POP POP JUMP JUMPDEST PUSH0 DUP1 PUSH0 SWAP1 POP PUSH27 0x184F03E93FF9F4DAA797ED6E38ED64BF6A1F010000000000000000 DUP4 LT PUSH2 0x1A7A JUMPI PUSH27 0x184F03E93FF9F4DAA797ED6E38ED64BF6A1F010000000000000000 DUP4 DUP2 PUSH2 0x1A70 JUMPI PUSH2 0x1A6F PUSH2 0x3365 JUMP JUMPDEST JUMPDEST DIV SWAP3 POP PUSH1 0x40 DUP2 ADD SWAP1 POP JUMPDEST PUSH14 0x4EE2D6D415B85ACEF8100000000 DUP4 LT PUSH2 0x1AB7 JUMPI PUSH14 0x4EE2D6D415B85ACEF8100000000 DUP4 DUP2 PUSH2 0x1AAD JUMPI PUSH2 0x1AAC PUSH2 0x3365 JUMP JUMPDEST JUMPDEST DIV SWAP3 POP PUSH1 0x20 DUP2 ADD SWAP1 POP JUMPDEST PUSH7 0x2386F26FC10000 DUP4 LT PUSH2 0x1AE6 JUMPI PUSH7 0x2386F26FC10000 DUP4 DUP2 PUSH2 0x1ADC JUMPI PUSH2 0x1ADB PUSH2 0x3365 JUMP JUMPDEST JUMPDEST DIV SWAP3 POP PUSH1 0x10 DUP2 ADD SWAP1 POP JUMPDEST PUSH4 0x5F5E100 DUP4 LT PUSH2 0x1B0F JUMPI PUSH4 0x5F5E100 DUP4 DUP2 PUSH2 0x1B05 JUMPI PUSH2 0x1B04 PUSH2 0x3365 JUMP JUMPDEST JUMPDEST DIV SWAP3 POP PUSH1 0x8 DUP2 ADD SWAP1 POP JUMPDEST PUSH2 0x2710 DUP4 LT PUSH2 0x1B34 JUMPI PUSH2 0x2710 DUP4 DUP2 PUSH2 0x1B2A JUMPI PUSH2 0x1B29 PUSH2 0x3365 JUMP JUMPDEST JUMPDEST DIV SWAP3 POP PUSH1 0x4 DUP2 ADD SWAP1 POP JUMPDEST PUSH1 0x64 DUP4 LT PUSH2 0x1B57 JUMPI PUSH1 0x64 DUP4 DUP2 PUSH2 0x1B4D JUMPI PUSH2 0x1B4C PUSH2 0x3365 JUMP JUMPDEST JUMPDEST DIV SWAP3 POP PUSH1 0x2 DUP2 ADD SWAP1 POP JUMPDEST PUSH1 0xA DUP4 LT PUSH2 0x1B66 JUMPI PUSH1 0x1 DUP2 ADD SWAP1 POP JUMPDEST DUP1 SWAP2 POP POP SWAP2 SWAP1 POP JUMP JUMPDEST PUSH0 DUP1 PUSH0 DUP1 DUP5 SWAP1 POP PUSH0 PUSH3 0x253D8C PUSH3 0x10BD9 DUP4 ADD ADD SWAP1 POP PUSH0 PUSH3 0x23AB1 DUP3 PUSH1 0x4 MUL DUP2 PUSH2 0x1B9B JUMPI PUSH2 0x1B9A PUSH2 0x3365 JUMP JUMPDEST JUMPDEST SDIV SWAP1 POP PUSH1 0x4 PUSH1 0x3 DUP3 PUSH3 0x23AB1 MUL ADD DUP2 PUSH2 0x1BB7 JUMPI PUSH2 0x1BB6 PUSH2 0x3365 JUMP JUMPDEST JUMPDEST SDIV DUP3 SUB SWAP2 POP PUSH0 PUSH3 0x164B09 PUSH1 0x1 DUP5 ADD PUSH2 0xFA0 MUL DUP2 PUSH2 0x1BD7 JUMPI PUSH2 0x1BD6 PUSH2 0x3365 JUMP JUMPDEST JUMPDEST SDIV SWAP1 POP PUSH1 0x1F PUSH1 0x4 DUP3 PUSH2 0x5B5 MUL DUP2 PUSH2 0x1BF1 JUMPI PUSH2 0x1BF0 PUSH2 0x3365 JUMP JUMPDEST JUMPDEST SDIV DUP5 SUB ADD SWAP3 POP PUSH0 PUSH2 0x98F DUP5 PUSH1 0x50 MUL DUP2 PUSH2 0x1C0D JUMPI PUSH2 0x1C0C PUSH2 0x3365 JUMP JUMPDEST JUMPDEST SDIV SWAP1 POP PUSH0 PUSH1 0x50 DUP3 PUSH2 0x98F MUL DUP2 PUSH2 0x1C26 JUMPI PUSH2 0x1C25 PUSH2 0x3365 JUMP JUMPDEST JUMPDEST SDIV DUP6 SUB SWAP1 POP PUSH1 0xB DUP3 DUP2 PUSH2 0x1C3C JUMPI PUSH2 0x1C3B PUSH2 0x3365 JUMP JUMPDEST JUMPDEST SDIV SWAP5 POP DUP5 PUSH1 0xC MUL PUSH1 0x2 DUP4 ADD SUB SWAP2 POP DUP5 DUP4 PUSH1 0x31 DUP7 SUB PUSH1 0x64 MUL ADD ADD SWAP3 POP DUP3 SWAP9 POP DUP2 SWAP8 POP DUP1 SWAP7 POP POP POP POP POP POP POP SWAP2 SWAP4 SWAP1 SWAP3 POP JUMP JUMPDEST PUSH1 0x40 MLOAD DUP1 PUSH1 0x60 ADD PUSH1 0x40 MSTORE DUP1 PUSH0 DUP2 MSTORE PUSH1 0x20 ADD PUSH0 DUP2 MSTORE PUSH1 0x20 ADD PUSH0 DUP2 MSTORE POP SWAP1 JUMP JUMPDEST PUSH1 0x40 MLOAD DUP1 PUSH2 0x160 ADD PUSH1 0x40 MSTORE DUP1 PUSH0 DUP2 MSTORE PUSH1 0x20 ADD PUSH1 0x60 DUP2 MSTORE PUSH1 0x20 ADD PUSH1 0x60 DUP2 MSTORE PUSH1 0x20 ADD PUSH0 DUP2 MSTORE PUSH1 0x20 ADD PUSH0 DUP2 MSTORE PUSH1 0x20 ADD PUSH0 DUP2 MSTORE PUSH1 0x20 ADD PUSH0 DUP2 MSTORE PUSH1 0x20 ADD PUSH0 DUP2 MSTORE PUSH1 0x20 ADD PUSH0 DUP2 MSTORE PUSH1 0x20 ADD PUSH0 PUSH20 0xFFFFFFFFFFFFFFFFFFFFFFFFFFFFFFFFFFFFFFFF AND DUP2 MSTORE PUSH1 0x20 ADD PUSH0 ISZERO ISZERO DUP2 MSTORE POP SWAP1 JUMP JUMPDEST PUSH1 0x40 MLOAD DUP1 PUSH1 0xC0 ADD PUSH1 0x40 MSTORE DUP1 PUSH2 0x1D07 PUSH2 0x1C8B JUMP JUMPDEST DUP2 MSTORE PUSH1 0x20 ADD PUSH0 DUP2 MSTORE PUSH1 0x20 ADD PUSH0 DUP2 MSTORE PUSH1 0x20 ADD PUSH2 0x1D20 PUSH2 0x1C6D JUMP JUMPDEST DUP2 MSTORE PUSH1 0x20 ADD PUSH2 0x1D2D PUSH2 0x1C6D JUMP JUMPDEST DUP2 MSTORE PUSH1 0x20 ADD PUSH0 DUP2 MSTORE POP SWAP1 JUMP JUMPDEST PUSH0 PUSH1 0x40 MLOAD SWAP1 POP SWAP1 JUMP JUMPDEST PUSH0 DUP1 REVERT JUMPDEST PUSH0 DUP1 REVERT JUMPDEST PUSH0 DUP2 SWAP1 POP SWAP2 SWAP1 POP JUMP JUMPDEST PUSH2 0x1D5C DUP2 PUSH2 0x1D4A JUMP JUMPDEST DUP2 EQ PUSH2 0x1D66 JUMPI PUSH0 DUP1 REVERT JUMPDEST POP JUMP JUMPDEST PUSH0 DUP2 CALLDATALOAD SWAP1 POP PUSH2 0x1D77 DUP2 PUSH2 0x1D53 JUMP JUMPDEST SWAP3 SWAP2 POP POP JUMP JUMPDEST PUSH0 PUSH1 0x20 DUP3 DUP5 SUB SLT ISZERO PUSH2 0x1D92 JUMPI PUSH2 0x1D91 PUSH2 0x1D42 JUMP JUMPDEST JUMPDEST PUSH0 PUSH2 0x1D9F DUP5 DUP3 DUP6 ADD PUSH2 0x1D69 JUMP JUMPDEST SWAP2 POP POP SWAP3 SWAP2 POP POP JUMP JUMPDEST PUSH2 0x1DB1 DUP2 PUSH2 0x1D4A JUMP JUMPDEST DUP3 MSTORE POP POP JUMP JUMPDEST PUSH0 PUSH1 0x20 DUP3 ADD SWAP1 POP PUSH2 0x1DCA PUSH0 DUP4 ADD DUP5 PUSH2 0x1DA8 JUMP JUMPDEST SWAP3 SWAP2 POP POP JUMP JUMPDEST PUSH0 DUP2 MLOAD SWAP1 POP SWAP2 SWAP1 POP JUMP JUMPDEST PUSH0 DUP3 DUP3 MSTORE PUSH1 0x20 DUP3 ADD SWAP1 POP SWAP3 SWAP2 POP POP JUMP JUMPDEST PUSH0 DUP2 SWAP1 POP PUSH1 0x20 DUP3 ADD SWAP1 POP SWAP2 SWAP1 POP JUMP JUMPDEST PUSH2 0x1E02 DUP2 PUSH2 0x1D4A JUMP JUMPDEST DUP3 MSTORE POP POP JUMP JUMPDEST PUSH0 DUP2 MLOAD SWAP1 POP SWAP2 SWAP1 POP JUMP JUMPDEST PUSH0 DUP3 DUP3 MSTORE PUSH1 0x20 DUP3 ADD SWAP1 POP SWAP3 SWAP2 POP POP JUMP JUMPDEST DUP3 DUP2 DUP4 MCOPY PUSH0 DUP4 DUP4 ADD MSTORE POP POP POP JUMP JUMPDEST PUSH0 PUSH1 0x1F NOT PUSH1 0x1F DUP4 ADD AND SWAP1 POP SWAP2 SWAP1 POP JUMP JUMPDEST PUSH0 PUSH2 0x1E4A DUP3 PUSH2 0x1E08 JUMP JUMPDEST PUSH2 0x1E54 DUP2 DUP6 PUSH2 0x1E12 JUMP JUMPDEST SWAP4 POP PUSH2 0x1E64 DUP2 DUP6 PUSH1 0x20 DUP7 ADD PUSH2 0x1E22 JUMP JUMPDEST PUSH2 0x1E6D DUP2 PUSH2 0x1E30 JUMP JUMPDEST DUP5 ADD SWAP2 POP POP SWAP3 SWAP2 POP POP JUMP JUMPDEST PUSH0 PUSH20 0xFFFFFFFFFFFFFFFFFFFFFFFFFFFFFFFFFFFFFFFF DUP3 AND SWAP1 POP SWAP2 SWAP1 POP JUMP JUMPDEST PUSH0 PUSH2 0x1EA1 DUP3 PUSH2 0x1E78 JUMP JUMPDEST SWAP1 POP SWAP2 SWAP1 POP JUMP JUMPDEST PUSH2 0x1EB1 DUP2 PUSH2 0x1E97 JUMP JUMPDEST DUP3 MSTORE POP POP JUMP JUMPDEST PUSH0 DUP2 ISZERO ISZERO SWAP1 POP SWAP2 SWAP1 POP JUMP JUMPDEST PUSH2 0x1ECB DUP2 PUSH2 0x1EB7 JUMP JUMPDEST DUP3 MSTORE POP POP JUMP JUMPDEST PUSH0 PUSH2 0x160 DUP4 ADD PUSH0 DUP4 ADD MLOAD PUSH2 0x1EE7 PUSH0 DUP7 ADD DUP3 PUSH2 0x1DF9 JUMP JUMPDEST POP PUSH1 0x20 DUP4 ADD MLOAD DUP5 DUP3 SUB PUSH1 0x20 DUP7 ADD MSTORE PUSH2 0x1EFF DUP3 DUP3 PUSH2 0x1E40 JUMP JUMPDEST SWAP2 POP POP PUSH1 0x40 DUP4 ADD MLOAD DUP5 DUP3 SUB PUSH1 0x40 DUP7 ADD MSTORE PUSH2 0x1F19 DUP3 DUP3 PUSH2 0x1E40 JUMP JUMPDEST SWAP2 POP POP PUSH1 0x60 DUP4 ADD MLOAD PUSH2 0x1F2E PUSH1 0x60 DUP7 ADD DUP3 PUSH2 0x1DF9 JUMP JUMPDEST POP PUSH1 0x80 DUP4 ADD MLOAD PUSH2 0x1F41 PUSH1 0x80 DUP7 ADD DUP3 PUSH2 0x1DF9 JUMP JUMPDEST POP PUSH1 0xA0 DUP4 ADD MLOAD PUSH2 0x1F54 PUSH1 0xA0 DUP7 ADD DUP3 PUSH2 0x1DF9 JUMP JUMPDEST POP PUSH1 0xC0 DUP4 ADD MLOAD PUSH2 0x1F67 PUSH1 0xC0 DUP7 ADD DUP3 PUSH2 0x1DF9 JUMP JUMPDEST POP PUSH1 0xE0 DUP4 ADD MLOAD PUSH2 0x1F7A PUSH1 0xE0 DUP7 ADD DUP3 PUSH2 0x1DF9 JUMP JUMPDEST POP PUSH2 0x100 DUP4 ADD MLOAD PUSH2 0x1F8F PUSH2 0x100 DUP7 ADD DUP3 PUSH2 0x1DF9 JUMP JUMPDEST POP PUSH2 0x120 DUP4 ADD MLOAD PUSH2 0x1FA4 PUSH2 0x120 DUP7 ADD DUP3 PUSH2 0x1EA8 JUMP JUMPDEST POP PUSH2 0x140 DUP4 ADD MLOAD PUSH2 0x1FB9 PUSH2 0x140 DUP7 ADD DUP3 PUSH2 0x1EC2 JUMP JUMPDEST POP DUP1 SWAP2 POP POP SWAP3 SWAP2 POP POP JUMP JUMPDEST PUSH0 PUSH2 0x1FCF DUP4 DUP4 PUSH2 0x1ED1 JUMP JUMPDEST SWAP1 POP SWAP3 SWAP2 POP POP JUMP JUMPDEST PUSH0 PUSH1 0x20 DUP3 ADD SWAP1 POP SWAP2 SWAP1 POP JUMP JUMPDEST PUSH0 PUSH2 0x1FED DUP3 PUSH2 0x1DD0 JUMP JUMPDEST PUSH2 0x1FF7 DUP2 DUP6 PUSH2 0x1DDA JUMP JUMPDEST SWAP4 POP DUP4 PUSH1 0x20 DUP3 MUL DUP6 ADD PUSH2 0x2009 DUP6 PUSH2 0x1DEA JUMP JUMPDEST DUP1 PUSH0 JUMPDEST DUP6 DUP2 LT ISZERO PUSH2 0x2044 JUMPI DUP5 DUP5 SUB DUP10 MSTORE DUP2 MLOAD PUSH2 0x2025 DUP6 DUP3 PUSH2 0x1FC4 JUMP JUMPDEST SWAP5 POP PUSH2 0x2030 DUP4 PUSH2 0x1FD7 JUMP JUMPDEST SWAP3 POP PUSH1 0x20 DUP11 ADD SWAP10 POP POP PUSH1 0x1 DUP2 ADD SWAP1 POP PUSH2 0x200C JUMP JUMPDEST POP DUP3 SWAP8 POP DUP8 SWAP6 POP POP POP POP POP POP SWAP3 SWAP2 POP POP JUMP JUMPDEST PUSH0 PUSH1 0x20 DUP3 ADD SWAP1 POP DUP2 DUP2 SUB PUSH0 DUP4 ADD MSTORE PUSH2 0x206E DUP2 DUP5 PUSH2 0x1FE3 JUMP JUMPDEST SWAP1 POP SWAP3 SWAP2 POP POP JUMP JUMPDEST PUSH0 DUP2 MLOAD SWAP1 POP SWAP2 SWAP1 POP JUMP JUMPDEST PUSH0 DUP3 DUP3 MSTORE PUSH1 0x20 DUP3 ADD SWAP1 POP SWAP3 SWAP2 POP POP JUMP JUMPDEST PUSH0 DUP2 SWAP1 POP PUSH1 0x20 DUP3 ADD SWAP1 POP SWAP2 SWAP1 POP JUMP JUMPDEST PUSH1 0x60 DUP3 ADD PUSH0 DUP3 ADD MLOAD PUSH2 0x20B3 PUSH0 DUP6 ADD DUP3 PUSH2 0x1DF9 JUMP JUMPDEST POP PUSH1 0x20 DUP3 ADD MLOAD PUSH2 0x20C6 PUSH1 0x20 DUP6 ADD DUP3 PUSH2 0x1DF9 JUMP JUMPDEST POP PUSH1 0x40 DUP3 ADD MLOAD PUSH2 0x20D9 PUSH1 0x40 DUP6 ADD DUP3 PUSH2 0x1DF9 JUMP JUMPDEST POP POP POP POP JUMP JUMPDEST PUSH0 PUSH2 0x140 DUP4 ADD PUSH0 DUP4 ADD MLOAD DUP5 DUP3 SUB PUSH0 DUP7 ADD MSTORE PUSH2 0x20FA DUP3 DUP3 PUSH2 0x1ED1 JUMP JUMPDEST SWAP2 POP POP PUSH1 0x20 DUP4 ADD MLOAD PUSH2 0x210F PUSH1 0x20 DUP7 ADD DUP3 PUSH2 0x1DF9 JUMP JUMPDEST POP PUSH1 0x40 DUP4 ADD MLOAD PUSH2 0x2122 PUSH1 0x40 DUP7 ADD DUP3 PUSH2 0x1DF9 JUMP JUMPDEST POP PUSH1 0x60 DUP4 ADD MLOAD PUSH2 0x2135 PUSH1 0x60 DUP7 ADD DUP3 PUSH2 0x209F JUMP JUMPDEST POP PUSH1 0x80 DUP4 ADD MLOAD PUSH2 0x2148 PUSH1 0xC0 DUP7 ADD DUP3 PUSH2 0x209F JUMP JUMPDEST POP PUSH1 0xA0 DUP4 ADD MLOAD PUSH2 0x215C PUSH2 0x120 DUP7 ADD DUP3 PUSH2 0x1DF9 JUMP JUMPDEST POP DUP1 SWAP2 POP POP SWAP3 SWAP2 POP POP JUMP JUMPDEST PUSH0 PUSH2 0x2172 DUP4 DUP4 PUSH2 0x20DF JUMP JUMPDEST SWAP1 POP SWAP3 SWAP2 POP POP JUMP JUMPDEST PUSH0 PUSH1 0x20 DUP3 ADD SWAP1 POP SWAP2 SWAP1 POP JUMP JUMPDEST PUSH0 PUSH2 0x2190 DUP3 PUSH2 0x2076 JUMP JUMPDEST PUSH2 0x219A DUP2 DUP6 PUSH2 0x2080 JUMP JUMPDEST SWAP4 POP DUP4 PUSH1 0x20 DUP3 MUL DUP6 ADD PUSH2 0x21AC DUP6 PUSH2 0x2090 JUMP JUMPDEST DUP1 PUSH0 JUMPDEST DUP6 DUP2 LT ISZERO PUSH2 0x21E7 JUMPI DUP5 DUP5 SUB DUP10 MSTORE DUP2 MLOAD PUSH2 0x21C8 DUP6 DUP3 PUSH2 0x2167 JUMP JUMPDEST SWAP5 POP PUSH2 0x21D3 DUP4 PUSH2 0x217A JUMP JUMPDEST SWAP3 POP PUSH1 0x20 DUP11 ADD SWAP10 POP POP PUSH1 0x1 DUP2 ADD SWAP1 POP PUSH2 0x21AF JUMP JUMPDEST POP DUP3 SWAP8 POP DUP8 SWAP6 POP POP POP POP POP POP SWAP3 SWAP2 POP POP JUMP JUMPDEST PUSH0 PUSH1 0x20 DUP3 ADD SWAP1 POP DUP2 DUP2 SUB PUSH0 DUP4 ADD MSTORE PUSH2 0x2211 DUP2 DUP5 PUSH2 0x2186 JUMP JUMPDEST SWAP1 POP SWAP3 SWAP2 POP POP JUMP JUMPDEST PUSH2 0x2222 DUP2 PUSH2 0x1E97 JUMP JUMPDEST DUP2 EQ PUSH2 0x222C JUMPI PUSH0 DUP1 REVERT JUMPDEST POP JUMP JUMPDEST PUSH0 DUP2 CALLDATALOAD SWAP1 POP PUSH2 0x223D DUP2 PUSH2 0x2219 JUMP JUMPDEST SWAP3 SWAP2 POP POP JUMP JUMPDEST PUSH0 DUP1 PUSH1 0x40 DUP4 DUP6 SUB SLT ISZERO PUSH2 0x2259 JUMPI PUSH2 0x2258 PUSH2 0x1D42 JUMP JUMPDEST JUMPDEST PUSH0 PUSH2 0x2266 DUP6 DUP3 DUP7 ADD PUSH2 0x222F JUMP JUMPDEST SWAP3 POP POP PUSH1 0x20 PUSH2 0x2277 DUP6 DUP3 DUP7 ADD PUSH2 0x1D69 JUMP JUMPDEST SWAP2 POP POP SWAP3 POP SWAP3 SWAP1 POP JUMP JUMPDEST PUSH0 PUSH2 0x160 DUP4 ADD PUSH0 DUP4 ADD MLOAD PUSH2 0x2297 PUSH0 DUP7 ADD DUP3 PUSH2 0x1DF9 JUMP JUMPDEST POP PUSH1 0x20 DUP4 ADD MLOAD DUP5 DUP3 SUB PUSH1 0x20 DUP7 ADD MSTORE PUSH2 0x22AF DUP3 DUP3 PUSH2 0x1E40 JUMP JUMPDEST SWAP2 POP POP PUSH1 0x40 DUP4 ADD MLOAD DUP5 DUP3 SUB PUSH1 0x40 DUP7 ADD MSTORE PUSH2 0x22C9 DUP3 DUP3 PUSH2 0x1E40 JUMP JUMPDEST SWAP2 POP POP PUSH1 0x60 DUP4 ADD MLOAD PUSH2 0x22DE PUSH1 0x60 DUP7 ADD DUP3 PUSH2 0x1DF9 JUMP JUMPDEST POP PUSH1 0x80 DUP4 ADD MLOAD PUSH2 0x22F1 PUSH1 0x80 DUP7 ADD DUP3 PUSH2 0x1DF9 JUMP JUMPDEST POP PUSH1 0xA0 DUP4 ADD MLOAD PUSH2 0x2304 PUSH1 0xA0 DUP7 ADD DUP3 PUSH2 0x1DF9 JUMP JUMPDEST POP PUSH1 0xC0 DUP4 ADD MLOAD PUSH2 0x2317 PUSH1 0xC0 DUP7 ADD DUP3 PUSH2 0x1DF9 JUMP JUMPDEST POP PUSH1 0xE0 DUP4 ADD MLOAD PUSH2 0x232A PUSH1 0xE0 DUP7 ADD DUP3 PUSH2 0x1DF9 JUMP JUMPDEST POP PUSH2 0x100 DUP4 ADD MLOAD PUSH2 0x233F PUSH2 0x100 DUP7 ADD DUP3 PUSH2 0x1DF9 JUMP JUMPDEST POP PUSH2 0x120 DUP4 ADD MLOAD PUSH2 0x2354 PUSH2 0x120 DUP7 ADD DUP3 PUSH2 0x1EA8 JUMP JUMPDEST POP PUSH2 0x140 DUP4 ADD MLOAD PUSH2 0x2369 PUSH2 0x140 DUP7 ADD DUP3 PUSH2 0x1EC2 JUMP JUMPDEST POP DUP1 SWAP2 POP POP SWAP3 SWAP2 POP POP JUMP JUMPDEST PUSH1 0x60 DUP3 ADD PUSH0 DUP3 ADD MLOAD PUSH2 0x2388 PUSH0 DUP6 ADD DUP3 PUSH2 0x1DF9 JUMP JUMPDEST POP PUSH1 0x20 DUP3 ADD MLOAD PUSH2 0x239B PUSH1 0x20 DUP6 ADD DUP3 PUSH2 0x1DF9 JUMP JUMPDEST POP PUSH1 0x40 DUP3 ADD MLOAD PUSH2 0x23AE PUSH1 0x40 DUP6 ADD DUP3 PUSH2 0x1DF9 JUMP JUMPDEST POP POP POP POP JUMP JUMPDEST PUSH0 PUSH2 0x140 DUP3 ADD SWAP1 POP DUP2 DUP2 SUB PUSH0 DUP4 ADD MSTORE PUSH2 0x23CD DUP2 DUP10 PUSH2 0x2281 JUMP JUMPDEST SWAP1 POP PUSH2 0x23DC PUSH1 0x20 DUP4 ADD DUP9 PUSH2 0x1DA8 JUMP JUMPDEST PUSH2 0x23E9 PUSH1 0x40 DUP4 ADD DUP8 PUSH2 0x1DA8 JUMP JUMPDEST PUSH2 0x23F6 PUSH1 0x60 DUP4 ADD DUP7 PUSH2 0x2374 JUMP JUMPDEST PUSH2 0x2403 PUSH1 0xC0 DUP4 ADD DUP6 PUSH2 0x2374 JUMP JUMPDEST PUSH2 0x2411 PUSH2 0x120 DUP4 ADD DUP5 PUSH2 0x1DA8 JUMP JUMPDEST SWAP8 SWAP7 POP POP POP POP POP POP POP JUMP JUMPDEST PUSH0 DUP1 REVERT JUMPDEST PUSH32 0x4E487B7100000000000000000000000000000000000000000000000000000000 PUSH0 MSTORE PUSH1 0x41 PUSH1 0x4 MSTORE PUSH1 0x24 PUSH0 REVERT JUMPDEST PUSH2 0x2456 DUP3 PUSH2 0x1E30 JUMP JUMPDEST DUP2 ADD DUP2 DUP2 LT PUSH8 0xFFFFFFFFFFFFFFFF DUP3 GT OR ISZERO PUSH2 0x2475 JUMPI PUSH2 0x2474 PUSH2 0x2420 JUMP JUMPDEST JUMPDEST DUP1 PUSH1 0x40 MSTORE POP POP POP JUMP JUMPDEST PUSH0 PUSH2 0x2487 PUSH2 0x1D39 JUMP JUMPDEST SWAP1 POP PUSH2 0x2493 DUP3 DUP3 PUSH2 0x244D JUMP JUMPDEST SWAP2 SWAP1 POP JUMP JUMPDEST PUSH0 DUP1 REVERT JUMPDEST PUSH0 DUP2 MLOAD SWAP1 POP PUSH2 0x24AA DUP2 PUSH2 0x1D53 JUMP JUMPDEST SWAP3 SWAP2 POP POP JUMP JUMPDEST PUSH0 DUP1 REVERT JUMPDEST PUSH0 DUP1 REVERT JUMPDEST PUSH0 PUSH8 0xFFFFFFFFFFFFFFFF DUP3 GT ISZERO PUSH2 0x24D2 JUMPI PUSH2 0x24D1 PUSH2 0x2420 JUMP JUMPDEST JUMPDEST PUSH2 0x24DB DUP3 PUSH2 0x1E30 JUMP JUMPDEST SWAP1 POP PUSH1 0x20 DUP2 ADD SWAP1 POP SWAP2 SWAP1 POP JUMP JUMPDEST PUSH0 PUSH2 0x24FA PUSH2 0x24F5 DUP5 PUSH2 0x24B8 JUMP JUMPDEST PUSH2 0x247E JUMP JUMPDEST SWAP1 POP DUP3 DUP2 MSTORE PUSH1 0x20 DUP2 ADD DUP5 DUP5 DUP5 ADD GT ISZERO PUSH2 0x2516 JUMPI PUSH2 0x2515 PUSH2 0x24B4 JUMP JUMPDEST JUMPDEST PUSH2 0x2521 DUP5 DUP3 DUP6 PUSH2 0x1E22 JUMP JUMPDEST POP SWAP4 SWAP3 POP POP POP JUMP JUMPDEST PUSH0 DUP3 PUSH1 0x1F DUP4 ADD SLT PUSH2 0x253D JUMPI PUSH2 0x253C PUSH2 0x24B0 JUMP JUMPDEST JUMPDEST DUP2 MLOAD PUSH2 0x254D DUP5 DUP3 PUSH1 0x20 DUP7 ADD PUSH2 0x24E8 JUMP JUMPDEST SWAP2 POP POP SWAP3 SWAP2 POP POP JUMP JUMPDEST PUSH0 DUP2 MLOAD SWAP1 POP PUSH2 0x2564 DUP2 PUSH2 0x2219 JUMP JUMPDEST SWAP3 SWAP2 POP POP JUMP JUMPDEST PUSH2 0x2573 DUP2 PUSH2 0x1EB7 JUMP JUMPDEST DUP2 EQ PUSH2 0x257D JUMPI PUSH0 DUP1 REVERT JUMPDEST POP JUMP JUMPDEST PUSH0 DUP2 MLOAD SWAP1 POP PUSH2 0x258E DUP2 PUSH2 0x256A JUMP JUMPDEST SWAP3 SWAP2 POP POP JUMP JUMPDEST PUSH0 PUSH2 0x160 DUP3 DUP5 SUB SLT ISZERO PUSH2 0x25AA JUMPI PUSH2 0x25A9 PUSH2 0x241C JUMP JUMPDEST JUMPDEST PUSH2 0x25B5 PUSH2 0x160 PUSH2 0x247E JUMP JUMPDEST SWAP1 POP PUSH0 PUSH2 0x25C4 DUP5 DUP3 DUP6 ADD PUSH2 0x249C JUMP JUMPDEST PUSH0 DUP4 ADD MSTORE POP PUSH1 0x20 DUP3 ADD MLOAD PUSH8 0xFFFFFFFFFFFFFFFF DUP2 GT ISZERO PUSH2 0x25E7 JUMPI PUSH2 0x25E6 PUSH2 0x2498 JUMP JUMPDEST JUMPDEST PUSH2 0x25F3 DUP5 DUP3 DUP6 ADD PUSH2 0x2529 JUMP JUMPDEST PUSH1 0x20 DUP4 ADD MSTORE POP PUSH1 0x40 DUP3 ADD MLOAD PUSH8 0xFFFFFFFFFFFFFFFF DUP2 GT ISZERO PUSH2 0x2617 JUMPI PUSH2 0x2616 PUSH2 0x2498 JUMP JUMPDEST JUMPDEST PUSH2 0x2623 DUP5 DUP3 DUP6 ADD PUSH2 0x2529 JUMP JUMPDEST PUSH1 0x40 DUP4 ADD MSTORE POP PUSH1 0x60 PUSH2 0x2637 DUP5 DUP3 DUP6 ADD PUSH2 0x249C JUMP JUMPDEST PUSH1 0x60 DUP4 ADD MSTORE POP PUSH1 0x80 PUSH2 0x264B DUP5 DUP3 DUP6 ADD PUSH2 0x249C JUMP JUMPDEST PUSH1 0x80 DUP4 ADD MSTORE POP PUSH1 0xA0 PUSH2 0x265F DUP5 DUP3 DUP6 ADD PUSH2 0x249C JUMP JUMPDEST PUSH1 0xA0 DUP4 ADD MSTORE POP PUSH1 0xC0 PUSH2 0x2673 DUP5 DUP3 DUP6 ADD PUSH2 0x249C JUMP JUMPDEST PUSH1 0xC0 DUP4 ADD MSTORE POP PUSH1 0xE0 PUSH2 0x2687 DUP5 DUP3 DUP6 ADD PUSH2 0x249C JUMP JUMPDEST PUSH1 0xE0 DUP4 ADD MSTORE POP PUSH2 0x100 PUSH2 0x269C DUP5 DUP3 DUP6 ADD PUSH2 0x249C JUMP JUMPDEST PUSH2 0x100 DUP4 ADD MSTORE POP PUSH2 0x120 PUSH2 0x26B2 DUP5 DUP3 DUP6 ADD PUSH2 0x2556 JUMP JUMPDEST PUSH2 0x120 DUP4 ADD MSTORE POP PUSH2 0x140 PUSH2 0x26C8 DUP5 DUP3 DUP6 ADD PUSH2 0x2580 JUMP JUMPDEST PUSH2 0x140 DUP4 ADD MSTORE POP SWAP3 SWAP2 POP POP JUMP JUMPDEST PUSH0 PUSH1 0x20 DUP3 DUP5 SUB SLT ISZERO PUSH2 0x26EA JUMPI PUSH2 0x26E9 PUSH2 0x1D42 JUMP JUMPDEST JUMPDEST PUSH0 DUP3 ADD MLOAD PUSH8 0xFFFFFFFFFFFFFFFF DUP2 GT ISZERO PUSH2 0x2707 JUMPI PUSH2 0x2706 PUSH2 0x1D46 JUMP JUMPDEST JUMPDEST PUSH2 0x2713 DUP5 DUP3 DUP6 ADD PUSH2 0x2594 JUMP JUMPDEST SWAP2 POP POP SWAP3 SWAP2 POP POP JUMP JUMPDEST PUSH0 DUP3 DUP3 MSTORE PUSH1 0x20 DUP3 ADD SWAP1 POP SWAP3 SWAP2 POP POP JUMP JUMPDEST PUSH32 0x596F752063616E6E6F7420627579206120706F6C696379207468617420686173 PUSH0 DUP3 ADD MSTORE PUSH32 0x206E6F74206265656E206C697374656421000000000000000000000000000000 PUSH1 0x20 DUP3 ADD MSTORE POP JUMP JUMPDEST PUSH0 PUSH2 0x2786 PUSH1 0x31 DUP4 PUSH2 0x271C JUMP JUMPDEST SWAP2 POP PUSH2 0x2791 DUP3 PUSH2 0x272C JUMP JUMPDEST PUSH1 0x40 DUP3 ADD SWAP1 POP SWAP2 SWAP1 POP JUMP JUMPDEST PUSH0 PUSH1 0x20 DUP3 ADD SWAP1 POP DUP2 DUP2 SUB PUSH0 DUP4 ADD MSTORE PUSH2 0x27B3 DUP2 PUSH2 0x277A JUMP JUMPDEST SWAP1 POP SWAP2 SWAP1 POP JUMP JUMPDEST PUSH32 0x596F752063616E6E6F742062757920796F7572206F776E20706F6C6963790000 PUSH0 DUP3 ADD MSTORE POP JUMP JUMPDEST PUSH0 PUSH2 0x27EE PUSH1 0x1E DUP4 PUSH2 0x271C JUMP JUMPDEST SWAP2 POP PUSH2 0x27F9 DUP3 PUSH2 0x27BA JUMP JUMPDEST PUSH1 0x20 DUP3 ADD SWAP1 POP SWAP2 SWAP1 POP JUMP JUMPDEST PUSH0 PUSH1 0x20 DUP3 ADD SWAP1 POP DUP2 DUP2 SUB PUSH0 DUP4 ADD MSTORE PUSH2 0x281B DUP2 PUSH2 0x27E2 JUMP JUMPDEST SWAP1 POP SWAP2 SWAP1 POP JUMP JUMPDEST PUSH2 0x282B DUP2 PUSH2 0x1E97 JUMP JUMPDEST DUP3 MSTORE POP POP JUMP JUMPDEST PUSH0 PUSH1 0x20 DUP3 ADD SWAP1 POP PUSH2 0x2844 PUSH0 DUP4 ADD DUP5 PUSH2 0x2822 JUMP JUMPDEST SWAP3 SWAP2 POP POP JUMP JUMPDEST PUSH0 PUSH1 0x20 DUP3 DUP5 SUB SLT ISZERO PUSH2 0x285F JUMPI PUSH2 0x285E PUSH2 0x1D42 JUMP JUMPDEST JUMPDEST PUSH0 PUSH2 0x286C DUP5 DUP3 DUP6 ADD PUSH2 0x249C JUMP JUMPDEST SWAP2 POP POP SWAP3 SWAP2 POP POP JUMP JUMPDEST PUSH32 0x4E487B7100000000000000000000000000000000000000000000000000000000 PUSH0 MSTORE PUSH1 0x11 PUSH1 0x4 MSTORE PUSH1 0x24 PUSH0 REVERT JUMPDEST PUSH0 PUSH2 0x28AC DUP3 PUSH2 0x1D4A JUMP JUMPDEST SWAP2 POP PUSH2 0x28B7 DUP4 PUSH2 0x1D4A JUMP JUMPDEST SWAP3 POP DUP3 DUP3 MUL PUSH2 0x28C5 DUP2 PUSH2 0x1D4A JUMP JUMPDEST SWAP2 POP DUP3 DUP3 DIV DUP5 EQ DUP4 ISZERO OR PUSH2 0x28DC JUMPI PUSH2 0x28DB PUSH2 0x2875 JUMP JUMPDEST JUMPDEST POP SWAP3 SWAP2 POP POP JUMP JUMPDEST PUSH0 DUP2 SWAP1 POP SWAP3 SWAP2 POP POP JUMP JUMPDEST PUSH32 0x596F75206E65656420746F20706179206174206C656173742074686520707265 PUSH0 DUP3 ADD MSTORE PUSH32 0x6D69756D206F6620000000000000000000000000000000000000000000000000 PUSH1 0x20 DUP3 ADD MSTORE POP JUMP JUMPDEST PUSH0 PUSH2 0x2947 PUSH1 0x28 DUP4 PUSH2 0x28E3 JUMP JUMPDEST SWAP2 POP PUSH2 0x2952 DUP3 PUSH2 0x28ED JUMP JUMPDEST PUSH1 0x28 DUP3 ADD SWAP1 POP SWAP2 SWAP1 POP JUMP JUMPDEST PUSH0 PUSH2 0x2967 DUP3 PUSH2 0x1E08 JUMP JUMPDEST PUSH2 0x2971 DUP2 DUP6 PUSH2 0x28E3 JUMP JUMPDEST SWAP4 POP PUSH2 0x2981 DUP2 DUP6 PUSH1 0x20 DUP7 ADD PUSH2 0x1E22 JUMP JUMPDEST DUP1 DUP5 ADD SWAP2 POP POP SWAP3 SWAP2 POP POP JUMP JUMPDEST PUSH32 0x207765692C206275742070726F76696465642000000000000000000000000000 PUSH0 DUP3 ADD MSTORE POP JUMP JUMPDEST PUSH0 PUSH2 0x29C1 PUSH1 0x13 DUP4 PUSH2 0x28E3 JUMP JUMPDEST SWAP2 POP PUSH2 0x29CC DUP3 PUSH2 0x298D JUMP JUMPDEST PUSH1 0x13 DUP3 ADD SWAP1 POP SWAP2 SWAP1 POP JUMP JUMPDEST PUSH32 0x207765692E000000000000000000000000000000000000000000000000000000 PUSH0 DUP3 ADD MSTORE POP JUMP JUMPDEST PUSH0 PUSH2 0x2A0B PUSH1 0x5 DUP4 PUSH2 0x28E3 JUMP JUMPDEST SWAP2 POP PUSH2 0x2A16 DUP3 PUSH2 0x29D7 JUMP JUMPDEST PUSH1 0x5 DUP3 ADD SWAP1 POP SWAP2 SWAP1 POP JUMP JUMPDEST PUSH0 PUSH2 0x2A2B DUP3 PUSH2 0x293B JUMP JUMPDEST SWAP2 POP PUSH2 0x2A37 DUP3 DUP6 PUSH2 0x295D JUMP JUMPDEST SWAP2 POP PUSH2 0x2A42 DUP3 PUSH2 0x29B5 JUMP JUMPDEST SWAP2 POP PUSH2 0x2A4E DUP3 DUP5 PUSH2 0x295D JUMP JUMPDEST SWAP2 POP PUSH2 0x2A59 DUP3 PUSH2 0x29FF JUMP JUMPDEST SWAP2 POP DUP2 SWAP1 POP SWAP4 SWAP3 POP POP POP JUMP JUMPDEST PUSH0 PUSH2 0x2A6F DUP3 PUSH2 0x1E08 JUMP JUMPDEST PUSH2 0x2A79 DUP2 DUP6 PUSH2 0x271C JUMP JUMPDEST SWAP4 POP PUSH2 0x2A89 DUP2 DUP6 PUSH1 0x20 DUP7 ADD PUSH2 0x1E22 JUMP JUMPDEST PUSH2 0x2A92 DUP2 PUSH2 0x1E30 JUMP JUMPDEST DUP5 ADD SWAP2 POP POP SWAP3 SWAP2 POP POP JUMP JUMPDEST PUSH0 PUSH1 0x20 DUP3 ADD SWAP1 POP DUP2 DUP2 SUB PUSH0 DUP4 ADD MSTORE PUSH2 0x2AB5 DUP2 DUP5 PUSH2 0x2A65 JUMP JUMPDEST SWAP1 POP SWAP3 SWAP2 POP POP JUMP JUMPDEST PUSH32 0x506F6C6963792063617061636974792065786365656465640000000000000000 PUSH0 DUP3 ADD MSTORE POP JUMP JUMPDEST PUSH0 PUSH2 0x2AF1 PUSH1 0x18 DUP4 PUSH2 0x271C JUMP JUMPDEST SWAP2 POP PUSH2 0x2AFC DUP3 PUSH2 0x2ABD JUMP JUMPDEST PUSH1 0x20 DUP3 ADD SWAP1 POP SWAP2 SWAP1 POP JUMP JUMPDEST PUSH0 PUSH1 0x20 DUP3 ADD SWAP1 POP DUP2 DUP2 SUB PUSH0 DUP4 ADD MSTORE PUSH2 0x2B1E DUP2 PUSH2 0x2AE5 JUMP JUMPDEST SWAP1 POP SWAP2 SWAP1 POP JUMP JUMPDEST PUSH0 PUSH2 0x2B2F DUP3 PUSH2 0x1D4A JUMP JUMPDEST SWAP2 POP PUSH2 0x2B3A DUP4 PUSH2 0x1D4A JUMP JUMPDEST SWAP3 POP DUP3 DUP3 ADD SWAP1 POP DUP1 DUP3 GT ISZERO PUSH2 0x2B52 JUMPI PUSH2 0x2B51 PUSH2 0x2875 JUMP JUMPDEST JUMPDEST SWAP3 SWAP2 POP POP JUMP JUMPDEST PUSH32 0x496E73756666696369656E7420746F6B656E7320696E20706F6C696379206465 PUSH0 DUP3 ADD MSTORE PUSH32 0x706F7369742E0000000000000000000000000000000000000000000000000000 PUSH1 0x20 DUP3 ADD MSTORE POP JUMP JUMPDEST PUSH0 PUSH2 0x2BB2 PUSH1 0x26 DUP4 PUSH2 0x271C JUMP JUMPDEST SWAP2 POP PUSH2 0x2BBD DUP3 PUSH2 0x2B58 JUMP JUMPDEST PUSH1 0x40 DUP3 ADD SWAP1 POP SWAP2 SWAP1 POP JUMP JUMPDEST PUSH0 PUSH1 0x20 DUP3 ADD SWAP1 POP DUP2 DUP2 SUB PUSH0 DUP4 ADD MSTORE PUSH2 0x2BDF DUP2 PUSH2 0x2BA6 JUMP JUMPDEST SWAP1 POP SWAP2 SWAP1 POP JUMP JUMPDEST PUSH0 PUSH1 0x40 DUP3 ADD SWAP1 POP PUSH2 0x2BF9 PUSH0 DUP4 ADD DUP6 PUSH2 0x2822 JUMP JUMPDEST PUSH2 0x2C06 PUSH1 0x20 DUP4 ADD DUP5 PUSH2 0x1DA8 JUMP JUMPDEST SWAP4 SWAP3 POP POP POP JUMP JUMPDEST PUSH0 PUSH1 0x20 DUP3 DUP5 SUB SLT ISZERO PUSH2 0x2C22 JUMPI PUSH2 0x2C21 PUSH2 0x1D42 JUMP JUMPDEST JUMPDEST PUSH0 PUSH2 0x2C2F DUP5 DUP3 DUP6 ADD PUSH2 0x2580 JUMP JUMPDEST SWAP2 POP POP SWAP3 SWAP2 POP POP JUMP JUMPDEST PUSH0 PUSH2 0x2C42 DUP3 PUSH2 0x1D4A JUMP JUMPDEST SWAP2 POP PUSH2 0x2C4D DUP4 PUSH2 0x1D4A JUMP JUMPDEST SWAP3 POP DUP3 DUP3 SUB SWAP1 POP DUP2 DUP2 GT ISZERO PUSH2 0x2C65 JUMPI PUSH2 0x2C64 PUSH2 0x2875 JUMP JUMPDEST JUMPDEST SWAP3 SWAP2 POP POP JUMP JUMPDEST PUSH32 0x4E487B7100000000000000000000000000000000000000000000000000000000 PUSH0 MSTORE PUSH1 0x22 PUSH1 0x4 MSTORE PUSH1 0x24 PUSH0 REVERT JUMPDEST PUSH0 PUSH1 0x2 DUP3 DIV SWAP1 POP PUSH1 0x1 DUP3 AND DUP1 PUSH2 0x2CAF JUMPI PUSH1 0x7F DUP3 AND SWAP2 POP JUMPDEST PUSH1 0x20 DUP3 LT DUP2 SUB PUSH2 0x2CC2 JUMPI PUSH2 0x2CC1 PUSH2 0x2C6B JUMP JUMPDEST JUMPDEST POP SWAP2 SWAP1 POP JUMP JUMPDEST PUSH0 DUP2 SWAP1 POP DUP2 PUSH0 MSTORE PUSH1 0x20 PUSH0 KECCAK256 SWAP1 POP SWAP2 SWAP1 POP JUMP JUMPDEST PUSH0 PUSH1 0x20 PUSH1 0x1F DUP4 ADD DIV SWAP1 POP SWAP2 SWAP1 POP JUMP JUMPDEST PUSH0 DUP3 DUP3 SHL SWAP1 POP SWAP3 SWAP2 POP POP JUMP JUMPDEST PUSH0 PUSH1 0x8 DUP4 MUL PUSH2 0x2D24 PUSH32 0xFFFFFFFFFFFFFFFFFFFFFFFFFFFFFFFFFFFFFFFFFFFFFFFFFFFFFFFFFFFFFFFF DUP3 PUSH2 0x2CE9 JUMP JUMPDEST PUSH2 0x2D2E DUP7 DUP4 PUSH2 0x2CE9 JUMP JUMPDEST SWAP6 POP DUP1 NOT DUP5 AND SWAP4 POP DUP1 DUP7 AND DUP5 OR SWAP3 POP POP POP SWAP4 SWAP3 POP POP POP JUMP JUMPDEST PUSH0 DUP2 SWAP1 POP SWAP2 SWAP1 POP JUMP JUMPDEST PUSH0 PUSH2 0x2D69 PUSH2 0x2D64 PUSH2 0x2D5F DUP5 PUSH2 0x1D4A JUMP JUMPDEST PUSH2 0x2D46 JUMP JUMPDEST PUSH2 0x1D4A JUMP JUMPDEST SWAP1 POP SWAP2 SWAP1 POP JUMP JUMPDEST PUSH0 DUP2 SWAP1 POP SWAP2 SWAP1 POP JUMP JUMPDEST PUSH2 0x2D82 DUP4 PUSH2 0x2D4F JUMP JUMPDEST PUSH2 0x2D96 PUSH2 0x2D8E DUP3 PUSH2 0x2D70 JUMP JUMPDEST DUP5 DUP5 SLOAD PUSH2 0x2CF5 JUMP JUMPDEST DUP3 SSTORE POP POP POP POP JUMP JUMPDEST PUSH0 SWAP1 JUMP JUMPDEST PUSH2 0x2DAA PUSH2 0x2D9E JUMP JUMPDEST PUSH2 0x2DB5 DUP2 DUP5 DUP5 PUSH2 0x2D79 JUMP JUMPDEST POP POP POP JUMP JUMPDEST JUMPDEST DUP2 DUP2 LT ISZERO PUSH2 0x2DD8 JUMPI PUSH2 0x2DCD PUSH0 DUP3 PUSH2 0x2DA2 JUMP JUMPDEST PUSH1 0x1 DUP2 ADD SWAP1 POP PUSH2 0x2DBB JUMP JUMPDEST POP POP JUMP JUMPDEST PUSH1 0x1F DUP3 GT ISZERO PUSH2 0x2E1D JUMPI PUSH2 0x2DEE DUP2 PUSH2 0x2CC8 JUMP JUMPDEST PUSH2 0x2DF7 DUP5 PUSH2 0x2CDA JUMP JUMPDEST DUP2 ADD PUSH1 0x20 DUP6 LT ISZERO PUSH2 0x2E06 JUMPI DUP2 SWAP1 POP JUMPDEST PUSH2 0x2E1A PUSH2 0x2E12 DUP6 PUSH2 0x2CDA JUMP JUMPDEST DUP4 ADD DUP3 PUSH2 0x2DBA JUMP JUMPDEST POP POP JUMPDEST POP POP POP JUMP JUMPDEST PUSH0 DUP3 DUP3 SHR SWAP1 POP SWAP3 SWAP2 POP POP JUMP JUMPDEST PUSH0 PUSH2 0x2E3D PUSH0 NOT DUP5 PUSH1 0x8 MUL PUSH2 0x2E22 JUMP JUMPDEST NOT DUP1 DUP4 AND SWAP2 POP POP SWAP3 SWAP2 POP POP JUMP JUMPDEST PUSH0 PUSH2 0x2E55 DUP4 DUP4 PUSH2 0x2E2E JUMP JUMPDEST SWAP2 POP DUP3 PUSH1 0x2 MUL DUP3 OR SWAP1 POP SWAP3 SWAP2 POP POP JUMP JUMPDEST PUSH2 0x2E6E DUP3 PUSH2 0x1E08 JUMP JUMPDEST PUSH8 0xFFFFFFFFFFFFFFFF DUP2 GT ISZERO PUSH2 0x2E87 JUMPI PUSH2 0x2E86 PUSH2 0x2420 JUMP JUMPDEST JUMPDEST PUSH2 0x2E91 DUP3 SLOAD PUSH2 0x2C98 JUMP JUMPDEST PUSH2 0x2E9C DUP3 DUP3 DUP6 PUSH2 0x2DDC JUMP JUMPDEST PUSH0 PUSH1 0x20 SWAP1 POP PUSH1 0x1F DUP4 GT PUSH1 0x1 DUP2 EQ PUSH2 0x2ECD JUMPI PUSH0 DUP5 ISZERO PUSH2 0x2EBB JUMPI DUP3 DUP8 ADD MLOAD SWAP1 POP JUMPDEST PUSH2 0x2EC5 DUP6 DUP3 PUSH2 0x2E4A JUMP JUMPDEST DUP7 SSTORE POP PUSH2 0x2F2C JUMP JUMPDEST PUSH1 0x1F NOT DUP5 AND PUSH2 0x2EDB DUP7 PUSH2 0x2CC8 JUMP JUMPDEST PUSH0 JUMPDEST DUP3 DUP2 LT ISZERO PUSH2 0x2F02 JUMPI DUP5 DUP10 ADD MLOAD DUP3 SSTORE PUSH1 0x1 DUP3 ADD SWAP2 POP PUSH1 0x20 DUP6 ADD SWAP5 POP PUSH1 0x20 DUP2 ADD SWAP1 POP PUSH2 0x2EDD JUMP JUMPDEST DUP7 DUP4 LT ISZERO PUSH2 0x2F1F JUMPI DUP5 DUP10 ADD MLOAD PUSH2 0x2F1B PUSH1 0x1F DUP10 AND DUP3 PUSH2 0x2E2E JUMP JUMPDEST DUP4 SSTORE POP JUMPDEST PUSH1 0x1 PUSH1 0x2 DUP9 MUL ADD DUP9 SSTORE POP POP POP JUMPDEST POP POP POP POP POP POP JUMP JUMPDEST PUSH0 PUSH1 0x40 DUP3 ADD SWAP1 POP PUSH2 0x2F47 PUSH0 DUP4 ADD DUP6 PUSH2 0x1DA8 JUMP JUMPDEST PUSH2 0x2F54 PUSH1 0x20 DUP4 ADD DUP5 PUSH2 0x1DA8 JUMP JUMPDEST SWAP4 SWAP3 POP POP POP JUMP JUMPDEST PUSH0 PUSH2 0x2F65 DUP3 PUSH2 0x1D4A JUMP JUMPDEST SWAP2 POP PUSH32 0xFFFFFFFFFFFFFFFFFFFFFFFFFFFFFFFFFFFFFFFFFFFFFFFFFFFFFFFFFFFFFFFF DUP3 SUB PUSH2 0x2F97 JUMPI PUSH2 0x2F96 PUSH2 0x2875 JUMP JUMPDEST JUMPDEST PUSH1 0x1 DUP3 ADD SWAP1 POP SWAP2 SWAP1 POP JUMP JUMPDEST PUSH32 0x5468657265206172652063757272656E746C79206E6F206C697374656420706F PUSH0 DUP3 ADD MSTORE PUSH32 0x6C696369657320746F2062757900000000000000000000000000000000000000 PUSH1 0x20 DUP3 ADD MSTORE POP JUMP JUMPDEST PUSH0 PUSH2 0x2FFC PUSH1 0x2D DUP4 PUSH2 0x271C JUMP JUMPDEST SWAP2 POP PUSH2 0x3007 DUP3 PUSH2 0x2FA2 JUMP JUMPDEST PUSH1 0x40 DUP3 ADD SWAP1 POP SWAP2 SWAP1 POP JUMP JUMPDEST PUSH0 PUSH1 0x20 DUP3 ADD SWAP1 POP DUP2 DUP2 SUB PUSH0 DUP4 ADD MSTORE PUSH2 0x3029 DUP2 PUSH2 0x2FF0 JUMP JUMPDEST SWAP1 POP SWAP2 SWAP1 POP JUMP JUMPDEST PUSH32 0x4E487B7100000000000000000000000000000000000000000000000000000000 PUSH0 MSTORE PUSH1 0x32 PUSH1 0x4 MSTORE PUSH1 0x24 PUSH0 REVERT JUMPDEST PUSH32 0x596F7520646F206E6F74206F776E207468697320706F6C696379000000000000 PUSH0 DUP3 ADD MSTORE POP JUMP JUMPDEST PUSH0 PUSH2 0x3091 PUSH1 0x1A DUP4 PUSH2 0x271C JUMP JUMPDEST SWAP2 POP PUSH2 0x309C DUP3 PUSH2 0x305D JUMP JUMPDEST PUSH1 0x20 DUP3 ADD SWAP1 POP SWAP2 SWAP1 POP JUMP JUMPDEST PUSH0 PUSH1 0x20 DUP3 ADD SWAP1 POP DUP2 DUP2 SUB PUSH0 DUP4 ADD MSTORE PUSH2 0x30BE DUP2 PUSH2 0x3085 JUMP JUMPDEST SWAP1 POP SWAP2 SWAP1 POP JUMP JUMPDEST PUSH32 0x496E73756666696369656E7420746F6B656E2062616C616E63652E0000000000 PUSH0 DUP3 ADD MSTORE POP JUMP JUMPDEST PUSH0 PUSH2 0x30F9 PUSH1 0x1B DUP4 PUSH2 0x271C JUMP JUMPDEST SWAP2 POP PUSH2 0x3104 DUP3 PUSH2 0x30C5 JUMP JUMPDEST PUSH1 0x20 DUP3 ADD SWAP1 POP SWAP2 SWAP1 POP JUMP JUMPDEST PUSH0 PUSH1 0x20 DUP3 ADD SWAP1 POP DUP2 DUP2 SUB PUSH0 DUP4 ADD MSTORE PUSH2 0x3126 DUP2 PUSH2 0x30ED JUMP JUMPDEST SWAP1 POP SWAP2 SWAP1 POP JUMP JUMPDEST PUSH0 PUSH1 0x40 DUP3 ADD SWAP1 POP PUSH2 0x3140 PUSH0 DUP4 ADD DUP6 PUSH2 0x2822 JUMP JUMPDEST PUSH2 0x314D PUSH1 0x20 DUP4 ADD DUP5 PUSH2 0x2822 JUMP JUMPDEST SWAP4 SWAP3 POP POP POP JUMP JUMPDEST PUSH32 0x596F75206E65656420746F20617070726F766520746865206D61726B6574706C PUSH0 DUP3 ADD MSTORE PUSH32 0x61636520746F207370656E642000000000000000000000000000000000000000 PUSH1 0x20 DUP3 ADD MSTORE POP JUMP JUMPDEST PUSH0 PUSH2 0x31AE PUSH1 0x2D DUP4 PUSH2 0x28E3 JUMP JUMPDEST SWAP2 POP PUSH2 0x31B9 DUP3 PUSH2 0x3154 JUMP JUMPDEST PUSH1 0x2D DUP3 ADD SWAP1 POP SWAP2 SWAP1 POP JUMP JUMPDEST PUSH32 0x206D617820706F6F6C2076616C756520746F6B656E73206F6E20796F75722062 PUSH0 DUP3 ADD MSTORE PUSH32 0x6568616C6620666F72207468697320706F6C6963792E00000000000000000000 PUSH1 0x20 DUP3 ADD MSTORE POP JUMP JUMPDEST PUSH0 PUSH2 0x321E PUSH1 0x36 DUP4 PUSH2 0x28E3 JUMP JUMPDEST SWAP2 POP PUSH2 0x3229 DUP3 PUSH2 0x31C4 JUMP JUMPDEST PUSH1 0x36 DUP3 ADD SWAP1 POP SWAP2 SWAP1 POP JUMP JUMPDEST PUSH0 PUSH2 0x323E DUP3 PUSH2 0x31A2 JUMP JUMPDEST SWAP2 POP PUSH2 0x324A DUP3 DUP5 PUSH2 0x295D JUMP JUMPDEST SWAP2 POP PUSH2 0x3255 DUP3 PUSH2 0x3212 JUMP JUMPDEST SWAP2 POP DUP2 SWAP1 POP SWAP3 SWAP2 POP POP JUMP JUMPDEST PUSH0 PUSH1 0x60 DUP3 ADD SWAP1 POP PUSH2 0x3273 PUSH0 DUP4 ADD DUP7 PUSH2 0x2822 JUMP JUMPDEST PUSH2 0x3280 PUSH1 0x20 DUP4 ADD DUP6 PUSH2 0x2822 JUMP JUMPDEST PUSH2 0x328D PUSH1 0x40 DUP4 ADD DUP5 PUSH2 0x1DA8 JUMP JUMPDEST SWAP5 SWAP4 POP POP POP POP JUMP JUMPDEST PUSH32 0x546F6B656E207472616E73666572206661696C65642E00000000000000000000 PUSH0 DUP3 ADD MSTORE POP JUMP JUMPDEST PUSH0 PUSH2 0x32C9 PUSH1 0x16 DUP4 PUSH2 0x271C JUMP JUMPDEST SWAP2 POP PUSH2 0x32D4 DUP3 PUSH2 0x3295 JUMP JUMPDEST PUSH1 0x20 DUP3 ADD SWAP1 POP SWAP2 SWAP1 POP JUMP JUMPDEST PUSH0 PUSH1 0x20 DUP3 ADD SWAP1 POP DUP2 DUP2 SUB PUSH0 DUP4 ADD MSTORE PUSH2 0x32F6 DUP2 PUSH2 0x32BD JUMP JUMPDEST SWAP1 POP SWAP2 SWAP1 POP JUMP JUMPDEST PUSH32 0x596F7520646F6E2774206F776E20616E7920706F6C6963696573000000000000 PUSH0 DUP3 ADD MSTORE POP JUMP JUMPDEST PUSH0 PUSH2 0x3331 PUSH1 0x1A DUP4 PUSH2 0x271C JUMP JUMPDEST SWAP2 POP PUSH2 0x333C DUP3 PUSH2 0x32FD JUMP JUMPDEST PUSH1 0x20 DUP3 ADD SWAP1 POP SWAP2 SWAP1 POP JUMP JUMPDEST PUSH0 PUSH1 0x20 DUP3 ADD SWAP1 POP DUP2 DUP2 SUB PUSH0 DUP4 ADD MSTORE PUSH2 0x335E DUP2 PUSH2 0x3325 JUMP JUMPDEST SWAP1 POP SWAP2 SWAP1 POP JUMP JUMPDEST PUSH32 0x4E487B7100000000000000000000000000000000000000000000000000000000 PUSH0 MSTORE PUSH1 0x12 PUSH1 0x4 MSTORE PUSH1 0x24 PUSH0 REVERT INVALID LOG2 PUSH5 0x6970667358 0x22 SLT KECCAK256 PUSH29 0x6CAD6E32A9FCC037B3CD55D308A749C548FB9523AF89317FC227280B74 DUP11 PUSH24 0x64736F6C634300081A003300000000000000000000000000 "
		},
		"gasEstimates": {
			"creation": {
				"codeDepositCost": "2651200",
				"executionCost": "infinite",
				"totalCost": "infinite"
			},
			"external": {
				"buyPolicy(uint256)": "infinite",
				"listPolicy(uint256)": "infinite",
				"policyDeposits(uint256)": "infinite",
				"policyHolders(address,uint256)": "infinite",
				"viewListedPolicies()": "infinite",
				"viewMyBoughtPolicies()": "infinite"
			},
			"internal": {
				"delistPolicy(uint256)": "infinite"
			}
		},
		"methodIdentifiers": {
			"buyPolicy(uint256)": "79c88894",
			"listPolicy(uint256)": "a56cf067",
			"policyDeposits(uint256)": "0744b4e3",
			"policyHolders(address,uint256)": "bb529068",
			"viewListedPolicies()": "9d61dba8",
			"viewMyBoughtPolicies()": "ac5d8185"
		}
	},
	"abi": [
		{
			"inputs": [
				{
					"internalType": "contract CSToken",
					"name": "_token",
					"type": "address"
				},
				{
					"internalType": "contract InsuranceCompany",
					"name": "_company",
					"type": "address"
				}
			],
			"stateMutability": "nonpayable",
			"type": "constructor"
		},
		{
			"anonymous": false,
			"inputs": [
				{
					"indexed": true,
					"internalType": "address",
					"name": "creator",
					"type": "address"
				},
				{
					"indexed": false,
					"internalType": "uint256",
					"name": "amount",
					"type": "uint256"
				}
			],
			"name": "TokensListed",
			"type": "event"
		},
		{
			"inputs": [
				{
					"internalType": "uint256",
					"name": "policyId",
					"type": "uint256"
				}
			],
			"name": "buyPolicy",
			"outputs": [],
			"stateMutability": "payable",
			"type": "function"
		},
		{
			"inputs": [
				{
					"internalType": "uint256",
					"name": "policyId",
					"type": "uint256"
				}
			],
			"name": "listPolicy",
			"outputs": [],
			"stateMutability": "nonpayable",
			"type": "function"
		},
		{
			"inputs": [
				{
					"internalType": "uint256",
					"name": "",
					"type": "uint256"
				}
			],
			"name": "policyDeposits",
			"outputs": [
				{
					"internalType": "uint256",
					"name": "",
					"type": "uint256"
				}
			],
			"stateMutability": "view",
			"type": "function"
		},
		{
			"inputs": [
				{
					"internalType": "address",
					"name": "",
					"type": "address"
				},
				{
					"internalType": "uint256",
					"name": "",
					"type": "uint256"
				}
			],
			"name": "policyHolders",
			"outputs": [
				{
					"components": [
						{
							"internalType": "uint256",
							"name": "policyId",
							"type": "uint256"
						},
						{
							"internalType": "string",
							"name": "policyName",
							"type": "string"
						},
						{
							"internalType": "string",
							"name": "policyType",
							"type": "string"
						},
						{
							"internalType": "uint256",
							"name": "claimBackRate",
							"type": "uint256"
						},
						{
							"internalType": "uint256",
							"name": "maxPoolValue",
							"type": "uint256"
						},
						{
							"internalType": "uint256",
							"name": "currPoolValue",
							"type": "uint256"
						},
						{
							"internalType": "uint256",
							"name": "minStake",
							"type": "uint256"
						},
						{
							"internalType": "uint256",
							"name": "creationTime",
							"type": "uint256"
						},
						{
							"internalType": "uint256",
							"name": "coveragePeriod",
							"type": "uint256"
						},
						{
							"internalType": "address",
							"name": "creator",
							"type": "address"
						},
						{
							"internalType": "bool",
							"name": "listed",
							"type": "bool"
						}
					],
					"internalType": "struct InsuranceCompany.Policy",
					"name": "boughtPolicy",
					"type": "tuple"
				},
				{
					"internalType": "uint256",
					"name": "coverageStartTimestamp",
					"type": "uint256"
				},
				{
					"internalType": "uint256",
					"name": "coverageEndTimestamp",
					"type": "uint256"
				},
				{
					"components": [
						{
							"internalType": "uint256",
							"name": "year",
							"type": "uint256"
						},
						{
							"internalType": "uint256",
							"name": "month",
							"type": "uint256"
						},
						{
							"internalType": "uint256",
							"name": "day",
							"type": "uint256"
						}
					],
					"internalType": "struct Marketplace.Date",
					"name": "coverageStartDate",
					"type": "tuple"
				},
				{
					"components": [
						{
							"internalType": "uint256",
							"name": "year",
							"type": "uint256"
						},
						{
							"internalType": "uint256",
							"name": "month",
							"type": "uint256"
						},
						{
							"internalType": "uint256",
							"name": "day",
							"type": "uint256"
						}
					],
					"internalType": "struct Marketplace.Date",
					"name": "coverageEndDate",
					"type": "tuple"
				},
				{
					"internalType": "uint256",
					"name": "ownedCSTokens",
					"type": "uint256"
				}
			],
			"stateMutability": "view",
			"type": "function"
		},
		{
			"inputs": [],
			"name": "viewListedPolicies",
			"outputs": [
				{
					"components": [
						{
							"internalType": "uint256",
							"name": "policyId",
							"type": "uint256"
						},
						{
							"internalType": "string",
							"name": "policyName",
							"type": "string"
						},
						{
							"internalType": "string",
							"name": "policyType",
							"type": "string"
						},
						{
							"internalType": "uint256",
							"name": "claimBackRate",
							"type": "uint256"
						},
						{
							"internalType": "uint256",
							"name": "maxPoolValue",
							"type": "uint256"
						},
						{
							"internalType": "uint256",
							"name": "currPoolValue",
							"type": "uint256"
						},
						{
							"internalType": "uint256",
							"name": "minStake",
							"type": "uint256"
						},
						{
							"internalType": "uint256",
							"name": "creationTime",
							"type": "uint256"
						},
						{
							"internalType": "uint256",
							"name": "coveragePeriod",
							"type": "uint256"
						},
						{
							"internalType": "address",
							"name": "creator",
							"type": "address"
						},
						{
							"internalType": "bool",
							"name": "listed",
							"type": "bool"
						}
					],
					"internalType": "struct InsuranceCompany.Policy[]",
					"name": "",
					"type": "tuple[]"
				}
			],
			"stateMutability": "view",
			"type": "function"
		},
		{
			"inputs": [],
			"name": "viewMyBoughtPolicies",
			"outputs": [
				{
					"components": [
						{
							"components": [
								{
									"internalType": "uint256",
									"name": "policyId",
									"type": "uint256"
								},
								{
									"internalType": "string",
									"name": "policyName",
									"type": "string"
								},
								{
									"internalType": "string",
									"name": "policyType",
									"type": "string"
								},
								{
									"internalType": "uint256",
									"name": "claimBackRate",
									"type": "uint256"
								},
								{
									"internalType": "uint256",
									"name": "maxPoolValue",
									"type": "uint256"
								},
								{
									"internalType": "uint256",
									"name": "currPoolValue",
									"type": "uint256"
								},
								{
									"internalType": "uint256",
									"name": "minStake",
									"type": "uint256"
								},
								{
									"internalType": "uint256",
									"name": "creationTime",
									"type": "uint256"
								},
								{
									"internalType": "uint256",
									"name": "coveragePeriod",
									"type": "uint256"
								},
								{
									"internalType": "address",
									"name": "creator",
									"type": "address"
								},
								{
									"internalType": "bool",
									"name": "listed",
									"type": "bool"
								}
							],
							"internalType": "struct InsuranceCompany.Policy",
							"name": "boughtPolicy",
							"type": "tuple"
						},
						{
							"internalType": "uint256",
							"name": "coverageStartTimestamp",
							"type": "uint256"
						},
						{
							"internalType": "uint256",
							"name": "coverageEndTimestamp",
							"type": "uint256"
						},
						{
							"components": [
								{
									"internalType": "uint256",
									"name": "year",
									"type": "uint256"
								},
								{
									"internalType": "uint256",
									"name": "month",
									"type": "uint256"
								},
								{
									"internalType": "uint256",
									"name": "day",
									"type": "uint256"
								}
							],
							"internalType": "struct Marketplace.Date",
							"name": "coverageStartDate",
							"type": "tuple"
						},
						{
							"components": [
								{
									"internalType": "uint256",
									"name": "year",
									"type": "uint256"
								},
								{
									"internalType": "uint256",
									"name": "month",
									"type": "uint256"
								},
								{
									"internalType": "uint256",
									"name": "day",
									"type": "uint256"
								}
							],
							"internalType": "struct Marketplace.Date",
							"name": "coverageEndDate",
							"type": "tuple"
						},
						{
							"internalType": "uint256",
							"name": "ownedCSTokens",
							"type": "uint256"
						}
					],
					"internalType": "struct Marketplace.BuyerPolicy[]",
					"name": "",
					"type": "tuple[]"
				}
			],
			"stateMutability": "view",
			"type": "function"
		}
	]
}