{
	"data": {
		"bytecode": {
			"linkReferences": {},
			"object": "608060405234801561000f575f80fd5b50604051611a99380380611a9983398181016040528101906100319190610161565b815f806101000a81548173ffffffffffffffffffffffffffffffffffffffff021916908373ffffffffffffffffffffffffffffffffffffffff1602179055508060015f6101000a81548173ffffffffffffffffffffffffffffffffffffffff021916908373ffffffffffffffffffffffffffffffffffffffff160217905550505061019f565b5f80fd5b5f73ffffffffffffffffffffffffffffffffffffffff82169050919050565b5f6100e4826100bb565b9050919050565b5f6100f5826100da565b9050919050565b610105816100eb565b811461010f575f80fd5b50565b5f81519050610120816100fc565b92915050565b5f610130826100da565b9050919050565b61014081610126565b811461014a575f80fd5b50565b5f8151905061015b81610137565b92915050565b5f8060408385031215610177576101766100b7565b5b5f61018485828601610112565b92505060206101958582860161014d565b9150509250929050565b6118ed806101ac5f395ff3fe60806040526004361061003e575f3560e01c806379c88894146100425780639d61dba81461005e578063bb52906814610088578063bf58fa37146100cd575b5f80fd5b61005c60048036038101906100579190610c1a565b6100f7565b005b348015610069575f80fd5b506100726104d6565b60405161007f9190610eb6565b60405180910390f35b348015610093575f80fd5b506100ae60048036038101906100a99190610f00565b6106c4565b6040516100c49a99989796959493929190610fb3565b60405180910390f35b3480156100d8575f80fd5b506100e1610873565b6040516100ee9190610eb6565b60405180910390f35b5f60015f9054906101000a900473ffffffffffffffffffffffffffffffffffffffff1673ffffffffffffffffffffffffffffffffffffffff16632b07fce3836040518263ffffffff1660e01b8152600401610152919061105b565b5f60405180830381865afa15801561016c573d5f803e3d5ffd5b505050506040513d5f823e3d601f19601f820116820180604052508101906101949190611317565b90505f805f9054906101000a900473ffffffffffffffffffffffffffffffffffffffff1673ffffffffffffffffffffffffffffffffffffffff16637ffdf53e6040518163ffffffff1660e01b8152600401602060405180830381865afa158015610200573d5f803e3d5ffd5b505050506040513d601f19601f82011682018060405250810190610224919061135e565b8260c0015161023391906113b6565b905080341015610278576040517f08c379a000000000000000000000000000000000000000000000000000000000815260040161026f90611467565b60405180910390fd5b8160a001518260800151116102c2576040517f08c379a00000000000000000000000000000000000000000000000000000000081526004016102b9906114cf565b60405180910390fd5b8160c001518260a0015183608001516102db91906114ed565b10156102eb576102ea83610ae7565b5b60025f3373ffffffffffffffffffffffffffffffffffffffff1673ffffffffffffffffffffffffffffffffffffffff1681526020019081526020015f2082908060018154018082558091505060019003905f5260205f2090600802015f909190919091505f820151815f0155602082015181600101908161036c919061171a565b506040820151816002019081610382919061171a565b50606082015181600301556080820151816004015560a0820151816005015560c0820151816006015560e0820151816007015f6101000a81548173ffffffffffffffffffffffffffffffffffffffff021916908373ffffffffffffffffffffffffffffffffffffffff1602179055506101008201518160070160146101000a81548160ff0219169083151502179055506101208201518160070160156101000a81548160ff021916908315150217905550505060015f9054906101000a900473ffffffffffffffffffffffffffffffffffffffff1673ffffffffffffffffffffffffffffffffffffffff16630c6ab3fa848460c001518560a0015161048791906117e9565b6040518363ffffffff1660e01b81526004016104a492919061181c565b5f604051808303815f87803b1580156104bb575f80fd5b505af11580156104cd573d5f803e3d5ffd5b50505050505050565b60605f60015f9054906101000a900473ffffffffffffffffffffffffffffffffffffffff1673ffffffffffffffffffffffffffffffffffffffff1663de54d4296040518163ffffffff1660e01b8152600401602060405180830381865afa158015610543573d5f803e3d5ffd5b505050506040513d601f19601f82011682018060405250810190610567919061135e565b90505f8167ffffffffffffffff81111561058457610583611078565b5b6040519080825280602002602001820160405280156105bd57816020015b6105aa610b71565b8152602001906001900390816105a25790505b5090505f80600190505b8381116106ba575f60015f9054906101000a900473ffffffffffffffffffffffffffffffffffffffff1673ffffffffffffffffffffffffffffffffffffffff16632b07fce3836040518263ffffffff1660e01b8152600401610629919061105b565b5f60405180830381865afa158015610643573d5f803e3d5ffd5b505050506040513d5f823e3d601f19601f8201168201806040525081019061066b9190611317565b9050806101000151156106a6578084848151811061068c5761068b611843565b5b602002602001018190525082806106a290611870565b9350505b5080806106b290611870565b9150506105c7565b5081935050505090565b6002602052815f5260405f2081815481106106dd575f80fd5b905f5260205f2090600802015f9150915050805f0154908060010180546107039061154d565b80601f016020809104026020016040519081016040528092919081815260200182805461072f9061154d565b801561077a5780601f106107515761010080835404028352916020019161077a565b820191905f5260205f20905b81548152906001019060200180831161075d57829003601f168201915b50505050509080600201805461078f9061154d565b80601f01602080910402602001604051908101604052809291908181526020018280546107bb9061154d565b80156108065780601f106107dd57610100808354040283529160200191610806565b820191905f5260205f20905b8154815290600101906020018083116107e957829003601f168201915b505050505090806003015490806004015490806005015490806006015490806007015f9054906101000a900473ffffffffffffffffffffffffffffffffffffffff16908060070160149054906101000a900460ff16908060070160159054906101000a900460ff1690508a565b606060025f3373ffffffffffffffffffffffffffffffffffffffff1673ffffffffffffffffffffffffffffffffffffffff1681526020019081526020015f20805480602002602001604051908101604052809291908181526020015f905b82821015610ade578382905f5260205f209060080201604051806101400160405290815f820154815260200160018201805461090c9061154d565b80601f01602080910402602001604051908101604052809291908181526020018280546109389061154d565b80156109835780601f1061095a57610100808354040283529160200191610983565b820191905f5260205f20905b81548152906001019060200180831161096657829003601f168201915b5050505050815260200160028201805461099c9061154d565b80601f01602080910402602001604051908101604052809291908181526020018280546109c89061154d565b8015610a135780601f106109ea57610100808354040283529160200191610a13565b820191905f5260205f20905b8154815290600101906020018083116109f657829003601f168201915b5050505050815260200160038201548152602001600482015481526020016005820154815260200160068201548152602001600782015f9054906101000a900473ffffffffffffffffffffffffffffffffffffffff1673ffffffffffffffffffffffffffffffffffffffff1673ffffffffffffffffffffffffffffffffffffffff1681526020016007820160149054906101000a900460ff161515151581526020016007820160159054906101000a900460ff161515151581525050815260200190600101906108d1565b50505050905090565b60015f9054906101000a900473ffffffffffffffffffffffffffffffffffffffff1673ffffffffffffffffffffffffffffffffffffffff166396945f3e826040518263ffffffff1660e01b8152600401610b41919061105b565b5f604051808303815f87803b158015610b58575f80fd5b505af1158015610b6a573d5f803e3d5ffd5b5050505050565b6040518061014001604052805f815260200160608152602001606081526020015f81526020015f81526020015f81526020015f81526020015f73ffffffffffffffffffffffffffffffffffffffff1681526020015f151581526020015f151581525090565b5f604051905090565b5f80fd5b5f80fd5b5f819050919050565b610bf981610be7565b8114610c03575f80fd5b50565b5f81359050610c1481610bf0565b92915050565b5f60208284031215610c2f57610c2e610bdf565b5b5f610c3c84828501610c06565b91505092915050565b5f81519050919050565b5f82825260208201905092915050565b5f819050602082019050919050565b610c7781610be7565b82525050565b5f81519050919050565b5f82825260208201905092915050565b8281835e5f83830152505050565b5f601f19601f8301169050919050565b5f610cbf82610c7d565b610cc98185610c87565b9350610cd9818560208601610c97565b610ce281610ca5565b840191505092915050565b5f73ffffffffffffffffffffffffffffffffffffffff82169050919050565b5f610d1682610ced565b9050919050565b610d2681610d0c565b82525050565b5f8115159050919050565b610d4081610d2c565b82525050565b5f61014083015f830151610d5c5f860182610c6e565b5060208301518482036020860152610d748282610cb5565b91505060408301518482036040860152610d8e8282610cb5565b9150506060830151610da36060860182610c6e565b506080830151610db66080860182610c6e565b5060a0830151610dc960a0860182610c6e565b5060c0830151610ddc60c0860182610c6e565b5060e0830151610def60e0860182610d1d565b50610100830151610e04610100860182610d37565b50610120830151610e19610120860182610d37565b508091505092915050565b5f610e2f8383610d46565b905092915050565b5f602082019050919050565b5f610e4d82610c45565b610e578185610c4f565b935083602082028501610e6985610c5f565b805f5b85811015610ea45784840389528151610e858582610e24565b9450610e9083610e37565b925060208a01995050600181019050610e6c565b50829750879550505050505092915050565b5f6020820190508181035f830152610ece8184610e43565b905092915050565b610edf81610d0c565b8114610ee9575f80fd5b50565b5f81359050610efa81610ed6565b92915050565b5f8060408385031215610f1657610f15610bdf565b5b5f610f2385828601610eec565b9250506020610f3485828601610c06565b9150509250929050565b610f4781610be7565b82525050565b5f82825260208201905092915050565b5f610f6782610c7d565b610f718185610f4d565b9350610f81818560208601610c97565b610f8a81610ca5565b840191505092915050565b610f9e81610d0c565b82525050565b610fad81610d2c565b82525050565b5f61014082019050610fc75f83018d610f3e565b8181036020830152610fd9818c610f5d565b90508181036040830152610fed818b610f5d565b9050610ffc606083018a610f3e565b6110096080830189610f3e565b61101660a0830188610f3e565b61102360c0830187610f3e565b61103060e0830186610f95565b61103e610100830185610fa4565b61104c610120830184610fa4565b9b9a5050505050505050505050565b5f60208201905061106e5f830184610f3e565b92915050565b5f80fd5b7f4e487b71000000000000000000000000000000000000000000000000000000005f52604160045260245ffd5b6110ae82610ca5565b810181811067ffffffffffffffff821117156110cd576110cc611078565b5b80604052505050565b5f6110df610bd6565b90506110eb82826110a5565b919050565b5f80fd5b5f8151905061110281610bf0565b92915050565b5f80fd5b5f80fd5b5f67ffffffffffffffff82111561112a57611129611078565b5b61113382610ca5565b9050602081019050919050565b5f61115261114d84611110565b6110d6565b90508281526020810184848401111561116e5761116d61110c565b5b611179848285610c97565b509392505050565b5f82601f83011261119557611194611108565b5b81516111a5848260208601611140565b91505092915050565b5f815190506111bc81610ed6565b92915050565b6111cb81610d2c565b81146111d5575f80fd5b50565b5f815190506111e6816111c2565b92915050565b5f610140828403121561120257611201611074565b5b61120d6101406110d6565b90505f61121c848285016110f4565b5f83015250602082015167ffffffffffffffff81111561123f5761123e6110f0565b5b61124b84828501611181565b602083015250604082015167ffffffffffffffff81111561126f5761126e6110f0565b5b61127b84828501611181565b604083015250606061128f848285016110f4565b60608301525060806112a3848285016110f4565b60808301525060a06112b7848285016110f4565b60a08301525060c06112cb848285016110f4565b60c08301525060e06112df848285016111ae565b60e0830152506101006112f4848285016111d8565b6101008301525061012061130a848285016111d8565b6101208301525092915050565b5f6020828403121561132c5761132b610bdf565b5b5f82015167ffffffffffffffff81111561134957611348610be3565b5b611355848285016111ec565b91505092915050565b5f6020828403121561137357611372610bdf565b5b5f611380848285016110f4565b91505092915050565b7f4e487b71000000000000000000000000000000000000000000000000000000005f52601160045260245ffd5b5f6113c082610be7565b91506113cb83610be7565b92508282026113d981610be7565b915082820484148315176113f0576113ef611389565b5b5092915050565b7f596f75206e65656420746f20706179206174206c6561737420746865207072655f8201527f6d69756d00000000000000000000000000000000000000000000000000000000602082015250565b5f611451602483610f4d565b915061145c826113f7565b604082019050919050565b5f6020820190508181035f83015261147e81611445565b9050919050565b7f506f6c69637920636170616369747920657863656564656400000000000000005f82015250565b5f6114b9601883610f4d565b91506114c482611485565b602082019050919050565b5f6020820190508181035f8301526114e6816114ad565b9050919050565b5f6114f782610be7565b915061150283610be7565b925082820390508181111561151a57611519611389565b5b92915050565b7f4e487b71000000000000000000000000000000000000000000000000000000005f52602260045260245ffd5b5f600282049050600182168061156457607f821691505b60208210810361157757611576611520565b5b50919050565b5f819050815f5260205f209050919050565b5f6020601f8301049050919050565b5f82821b905092915050565b5f600883026115d97fffffffffffffffffffffffffffffffffffffffffffffffffffffffffffffffff8261159e565b6115e3868361159e565b95508019841693508086168417925050509392505050565b5f819050919050565b5f61161e61161961161484610be7565b6115fb565b610be7565b9050919050565b5f819050919050565b61163783611604565b61164b61164382611625565b8484546115aa565b825550505050565b5f90565b61165f611653565b61166a81848461162e565b505050565b5b8181101561168d576116825f82611657565b600181019050611670565b5050565b601f8211156116d2576116a38161157d565b6116ac8461158f565b810160208510156116bb578190505b6116cf6116c78561158f565b83018261166f565b50505b505050565b5f82821c905092915050565b5f6116f25f19846008026116d7565b1980831691505092915050565b5f61170a83836116e3565b9150826002028217905092915050565b61172382610c7d565b67ffffffffffffffff81111561173c5761173b611078565b5b611746825461154d565b611751828285611691565b5f60209050601f831160018114611782575f8415611770578287015190505b61177a85826116ff565b8655506117e1565b601f1984166117908661157d565b5f5b828110156117b757848901518255600182019150602085019450602081019050611792565b868310156117d457848901516117d0601f8916826116e3565b8355505b6001600288020188555050505b505050505050565b5f6117f382610be7565b91506117fe83610be7565b925082820190508082111561181657611815611389565b5b92915050565b5f60408201905061182f5f830185610f3e565b61183c6020830184610f3e565b9392505050565b7f4e487b71000000000000000000000000000000000000000000000000000000005f52603260045260245ffd5b5f61187a82610be7565b91507fffffffffffffffffffffffffffffffffffffffffffffffffffffffffffffffff82036118ac576118ab611389565b5b60018201905091905056fea264697066735822122029e439fe049a1ce3ebf5020ca7f1bf96bbcb06b8b01d368644339da65b3f961964736f6c634300081a0033",
			"opcodes": "PUSH1 0x80 PUSH1 0x40 MSTORE CALLVALUE DUP1 ISZERO PUSH2 0xF JUMPI PUSH0 DUP1 REVERT JUMPDEST POP PUSH1 0x40 MLOAD PUSH2 0x1A99 CODESIZE SUB DUP1 PUSH2 0x1A99 DUP4 CODECOPY DUP2 DUP2 ADD PUSH1 0x40 MSTORE DUP2 ADD SWAP1 PUSH2 0x31 SWAP2 SWAP1 PUSH2 0x161 JUMP JUMPDEST DUP2 PUSH0 DUP1 PUSH2 0x100 EXP DUP2 SLOAD DUP2 PUSH20 0xFFFFFFFFFFFFFFFFFFFFFFFFFFFFFFFFFFFFFFFF MUL NOT AND SWAP1 DUP4 PUSH20 0xFFFFFFFFFFFFFFFFFFFFFFFFFFFFFFFFFFFFFFFF AND MUL OR SWAP1 SSTORE POP DUP1 PUSH1 0x1 PUSH0 PUSH2 0x100 EXP DUP2 SLOAD DUP2 PUSH20 0xFFFFFFFFFFFFFFFFFFFFFFFFFFFFFFFFFFFFFFFF MUL NOT AND SWAP1 DUP4 PUSH20 0xFFFFFFFFFFFFFFFFFFFFFFFFFFFFFFFFFFFFFFFF AND MUL OR SWAP1 SSTORE POP POP POP PUSH2 0x19F JUMP JUMPDEST PUSH0 DUP1 REVERT JUMPDEST PUSH0 PUSH20 0xFFFFFFFFFFFFFFFFFFFFFFFFFFFFFFFFFFFFFFFF DUP3 AND SWAP1 POP SWAP2 SWAP1 POP JUMP JUMPDEST PUSH0 PUSH2 0xE4 DUP3 PUSH2 0xBB JUMP JUMPDEST SWAP1 POP SWAP2 SWAP1 POP JUMP JUMPDEST PUSH0 PUSH2 0xF5 DUP3 PUSH2 0xDA JUMP JUMPDEST SWAP1 POP SWAP2 SWAP1 POP JUMP JUMPDEST PUSH2 0x105 DUP2 PUSH2 0xEB JUMP JUMPDEST DUP2 EQ PUSH2 0x10F JUMPI PUSH0 DUP1 REVERT JUMPDEST POP JUMP JUMPDEST PUSH0 DUP2 MLOAD SWAP1 POP PUSH2 0x120 DUP2 PUSH2 0xFC JUMP JUMPDEST SWAP3 SWAP2 POP POP JUMP JUMPDEST PUSH0 PUSH2 0x130 DUP3 PUSH2 0xDA JUMP JUMPDEST SWAP1 POP SWAP2 SWAP1 POP JUMP JUMPDEST PUSH2 0x140 DUP2 PUSH2 0x126 JUMP JUMPDEST DUP2 EQ PUSH2 0x14A JUMPI PUSH0 DUP1 REVERT JUMPDEST POP JUMP JUMPDEST PUSH0 DUP2 MLOAD SWAP1 POP PUSH2 0x15B DUP2 PUSH2 0x137 JUMP JUMPDEST SWAP3 SWAP2 POP POP JUMP JUMPDEST PUSH0 DUP1 PUSH1 0x40 DUP4 DUP6 SUB SLT ISZERO PUSH2 0x177 JUMPI PUSH2 0x176 PUSH2 0xB7 JUMP JUMPDEST JUMPDEST PUSH0 PUSH2 0x184 DUP6 DUP3 DUP7 ADD PUSH2 0x112 JUMP JUMPDEST SWAP3 POP POP PUSH1 0x20 PUSH2 0x195 DUP6 DUP3 DUP7 ADD PUSH2 0x14D JUMP JUMPDEST SWAP2 POP POP SWAP3 POP SWAP3 SWAP1 POP JUMP JUMPDEST PUSH2 0x18ED DUP1 PUSH2 0x1AC PUSH0 CODECOPY PUSH0 RETURN INVALID PUSH1 0x80 PUSH1 0x40 MSTORE PUSH1 0x4 CALLDATASIZE LT PUSH2 0x3E JUMPI PUSH0 CALLDATALOAD PUSH1 0xE0 SHR DUP1 PUSH4 0x79C88894 EQ PUSH2 0x42 JUMPI DUP1 PUSH4 0x9D61DBA8 EQ PUSH2 0x5E JUMPI DUP1 PUSH4 0xBB529068 EQ PUSH2 0x88 JUMPI DUP1 PUSH4 0xBF58FA37 EQ PUSH2 0xCD JUMPI JUMPDEST PUSH0 DUP1 REVERT JUMPDEST PUSH2 0x5C PUSH1 0x4 DUP1 CALLDATASIZE SUB DUP2 ADD SWAP1 PUSH2 0x57 SWAP2 SWAP1 PUSH2 0xC1A JUMP JUMPDEST PUSH2 0xF7 JUMP JUMPDEST STOP JUMPDEST CALLVALUE DUP1 ISZERO PUSH2 0x69 JUMPI PUSH0 DUP1 REVERT JUMPDEST POP PUSH2 0x72 PUSH2 0x4D6 JUMP JUMPDEST PUSH1 0x40 MLOAD PUSH2 0x7F SWAP2 SWAP1 PUSH2 0xEB6 JUMP JUMPDEST PUSH1 0x40 MLOAD DUP1 SWAP2 SUB SWAP1 RETURN JUMPDEST CALLVALUE DUP1 ISZERO PUSH2 0x93 JUMPI PUSH0 DUP1 REVERT JUMPDEST POP PUSH2 0xAE PUSH1 0x4 DUP1 CALLDATASIZE SUB DUP2 ADD SWAP1 PUSH2 0xA9 SWAP2 SWAP1 PUSH2 0xF00 JUMP JUMPDEST PUSH2 0x6C4 JUMP JUMPDEST PUSH1 0x40 MLOAD PUSH2 0xC4 SWAP11 SWAP10 SWAP9 SWAP8 SWAP7 SWAP6 SWAP5 SWAP4 SWAP3 SWAP2 SWAP1 PUSH2 0xFB3 JUMP JUMPDEST PUSH1 0x40 MLOAD DUP1 SWAP2 SUB SWAP1 RETURN JUMPDEST CALLVALUE DUP1 ISZERO PUSH2 0xD8 JUMPI PUSH0 DUP1 REVERT JUMPDEST POP PUSH2 0xE1 PUSH2 0x873 JUMP JUMPDEST PUSH1 0x40 MLOAD PUSH2 0xEE SWAP2 SWAP1 PUSH2 0xEB6 JUMP JUMPDEST PUSH1 0x40 MLOAD DUP1 SWAP2 SUB SWAP1 RETURN JUMPDEST PUSH0 PUSH1 0x1 PUSH0 SWAP1 SLOAD SWAP1 PUSH2 0x100 EXP SWAP1 DIV PUSH20 0xFFFFFFFFFFFFFFFFFFFFFFFFFFFFFFFFFFFFFFFF AND PUSH20 0xFFFFFFFFFFFFFFFFFFFFFFFFFFFFFFFFFFFFFFFF AND PUSH4 0x2B07FCE3 DUP4 PUSH1 0x40 MLOAD DUP3 PUSH4 0xFFFFFFFF AND PUSH1 0xE0 SHL DUP2 MSTORE PUSH1 0x4 ADD PUSH2 0x152 SWAP2 SWAP1 PUSH2 0x105B JUMP JUMPDEST PUSH0 PUSH1 0x40 MLOAD DUP1 DUP4 SUB DUP2 DUP7 GAS STATICCALL ISZERO DUP1 ISZERO PUSH2 0x16C JUMPI RETURNDATASIZE PUSH0 DUP1 RETURNDATACOPY RETURNDATASIZE PUSH0 REVERT JUMPDEST POP POP POP POP PUSH1 0x40 MLOAD RETURNDATASIZE PUSH0 DUP3 RETURNDATACOPY RETURNDATASIZE PUSH1 0x1F NOT PUSH1 0x1F DUP3 ADD AND DUP3 ADD DUP1 PUSH1 0x40 MSTORE POP DUP2 ADD SWAP1 PUSH2 0x194 SWAP2 SWAP1 PUSH2 0x1317 JUMP JUMPDEST SWAP1 POP PUSH0 DUP1 PUSH0 SWAP1 SLOAD SWAP1 PUSH2 0x100 EXP SWAP1 DIV PUSH20 0xFFFFFFFFFFFFFFFFFFFFFFFFFFFFFFFFFFFFFFFF AND PUSH20 0xFFFFFFFFFFFFFFFFFFFFFFFFFFFFFFFFFFFFFFFF AND PUSH4 0x7FFDF53E PUSH1 0x40 MLOAD DUP2 PUSH4 0xFFFFFFFF AND PUSH1 0xE0 SHL DUP2 MSTORE PUSH1 0x4 ADD PUSH1 0x20 PUSH1 0x40 MLOAD DUP1 DUP4 SUB DUP2 DUP7 GAS STATICCALL ISZERO DUP1 ISZERO PUSH2 0x200 JUMPI RETURNDATASIZE PUSH0 DUP1 RETURNDATACOPY RETURNDATASIZE PUSH0 REVERT JUMPDEST POP POP POP POP PUSH1 0x40 MLOAD RETURNDATASIZE PUSH1 0x1F NOT PUSH1 0x1F DUP3 ADD AND DUP3 ADD DUP1 PUSH1 0x40 MSTORE POP DUP2 ADD SWAP1 PUSH2 0x224 SWAP2 SWAP1 PUSH2 0x135E JUMP JUMPDEST DUP3 PUSH1 0xC0 ADD MLOAD PUSH2 0x233 SWAP2 SWAP1 PUSH2 0x13B6 JUMP JUMPDEST SWAP1 POP DUP1 CALLVALUE LT ISZERO PUSH2 0x278 JUMPI PUSH1 0x40 MLOAD PUSH32 0x8C379A000000000000000000000000000000000000000000000000000000000 DUP2 MSTORE PUSH1 0x4 ADD PUSH2 0x26F SWAP1 PUSH2 0x1467 JUMP JUMPDEST PUSH1 0x40 MLOAD DUP1 SWAP2 SUB SWAP1 REVERT JUMPDEST DUP2 PUSH1 0xA0 ADD MLOAD DUP3 PUSH1 0x80 ADD MLOAD GT PUSH2 0x2C2 JUMPI PUSH1 0x40 MLOAD PUSH32 0x8C379A000000000000000000000000000000000000000000000000000000000 DUP2 MSTORE PUSH1 0x4 ADD PUSH2 0x2B9 SWAP1 PUSH2 0x14CF JUMP JUMPDEST PUSH1 0x40 MLOAD DUP1 SWAP2 SUB SWAP1 REVERT JUMPDEST DUP2 PUSH1 0xC0 ADD MLOAD DUP3 PUSH1 0xA0 ADD MLOAD DUP4 PUSH1 0x80 ADD MLOAD PUSH2 0x2DB SWAP2 SWAP1 PUSH2 0x14ED JUMP JUMPDEST LT ISZERO PUSH2 0x2EB JUMPI PUSH2 0x2EA DUP4 PUSH2 0xAE7 JUMP JUMPDEST JUMPDEST PUSH1 0x2 PUSH0 CALLER PUSH20 0xFFFFFFFFFFFFFFFFFFFFFFFFFFFFFFFFFFFFFFFF AND PUSH20 0xFFFFFFFFFFFFFFFFFFFFFFFFFFFFFFFFFFFFFFFF AND DUP2 MSTORE PUSH1 0x20 ADD SWAP1 DUP2 MSTORE PUSH1 0x20 ADD PUSH0 KECCAK256 DUP3 SWAP1 DUP1 PUSH1 0x1 DUP2 SLOAD ADD DUP1 DUP3 SSTORE DUP1 SWAP2 POP POP PUSH1 0x1 SWAP1 SUB SWAP1 PUSH0 MSTORE PUSH1 0x20 PUSH0 KECCAK256 SWAP1 PUSH1 0x8 MUL ADD PUSH0 SWAP1 SWAP2 SWAP1 SWAP2 SWAP1 SWAP2 POP PUSH0 DUP3 ADD MLOAD DUP2 PUSH0 ADD SSTORE PUSH1 0x20 DUP3 ADD MLOAD DUP2 PUSH1 0x1 ADD SWAP1 DUP2 PUSH2 0x36C SWAP2 SWAP1 PUSH2 0x171A JUMP JUMPDEST POP PUSH1 0x40 DUP3 ADD MLOAD DUP2 PUSH1 0x2 ADD SWAP1 DUP2 PUSH2 0x382 SWAP2 SWAP1 PUSH2 0x171A JUMP JUMPDEST POP PUSH1 0x60 DUP3 ADD MLOAD DUP2 PUSH1 0x3 ADD SSTORE PUSH1 0x80 DUP3 ADD MLOAD DUP2 PUSH1 0x4 ADD SSTORE PUSH1 0xA0 DUP3 ADD MLOAD DUP2 PUSH1 0x5 ADD SSTORE PUSH1 0xC0 DUP3 ADD MLOAD DUP2 PUSH1 0x6 ADD SSTORE PUSH1 0xE0 DUP3 ADD MLOAD DUP2 PUSH1 0x7 ADD PUSH0 PUSH2 0x100 EXP DUP2 SLOAD DUP2 PUSH20 0xFFFFFFFFFFFFFFFFFFFFFFFFFFFFFFFFFFFFFFFF MUL NOT AND SWAP1 DUP4 PUSH20 0xFFFFFFFFFFFFFFFFFFFFFFFFFFFFFFFFFFFFFFFF AND MUL OR SWAP1 SSTORE POP PUSH2 0x100 DUP3 ADD MLOAD DUP2 PUSH1 0x7 ADD PUSH1 0x14 PUSH2 0x100 EXP DUP2 SLOAD DUP2 PUSH1 0xFF MUL NOT AND SWAP1 DUP4 ISZERO ISZERO MUL OR SWAP1 SSTORE POP PUSH2 0x120 DUP3 ADD MLOAD DUP2 PUSH1 0x7 ADD PUSH1 0x15 PUSH2 0x100 EXP DUP2 SLOAD DUP2 PUSH1 0xFF MUL NOT AND SWAP1 DUP4 ISZERO ISZERO MUL OR SWAP1 SSTORE POP POP POP PUSH1 0x1 PUSH0 SWAP1 SLOAD SWAP1 PUSH2 0x100 EXP SWAP1 DIV PUSH20 0xFFFFFFFFFFFFFFFFFFFFFFFFFFFFFFFFFFFFFFFF AND PUSH20 0xFFFFFFFFFFFFFFFFFFFFFFFFFFFFFFFFFFFFFFFF AND PUSH4 0xC6AB3FA DUP5 DUP5 PUSH1 0xC0 ADD MLOAD DUP6 PUSH1 0xA0 ADD MLOAD PUSH2 0x487 SWAP2 SWAP1 PUSH2 0x17E9 JUMP JUMPDEST PUSH1 0x40 MLOAD DUP4 PUSH4 0xFFFFFFFF AND PUSH1 0xE0 SHL DUP2 MSTORE PUSH1 0x4 ADD PUSH2 0x4A4 SWAP3 SWAP2 SWAP1 PUSH2 0x181C JUMP JUMPDEST PUSH0 PUSH1 0x40 MLOAD DUP1 DUP4 SUB DUP2 PUSH0 DUP8 DUP1 EXTCODESIZE ISZERO DUP1 ISZERO PUSH2 0x4BB JUMPI PUSH0 DUP1 REVERT JUMPDEST POP GAS CALL ISZERO DUP1 ISZERO PUSH2 0x4CD JUMPI RETURNDATASIZE PUSH0 DUP1 RETURNDATACOPY RETURNDATASIZE PUSH0 REVERT JUMPDEST POP POP POP POP POP POP POP JUMP JUMPDEST PUSH1 0x60 PUSH0 PUSH1 0x1 PUSH0 SWAP1 SLOAD SWAP1 PUSH2 0x100 EXP SWAP1 DIV PUSH20 0xFFFFFFFFFFFFFFFFFFFFFFFFFFFFFFFFFFFFFFFF AND PUSH20 0xFFFFFFFFFFFFFFFFFFFFFFFFFFFFFFFFFFFFFFFF AND PUSH4 0xDE54D429 PUSH1 0x40 MLOAD DUP2 PUSH4 0xFFFFFFFF AND PUSH1 0xE0 SHL DUP2 MSTORE PUSH1 0x4 ADD PUSH1 0x20 PUSH1 0x40 MLOAD DUP1 DUP4 SUB DUP2 DUP7 GAS STATICCALL ISZERO DUP1 ISZERO PUSH2 0x543 JUMPI RETURNDATASIZE PUSH0 DUP1 RETURNDATACOPY RETURNDATASIZE PUSH0 REVERT JUMPDEST POP POP POP POP PUSH1 0x40 MLOAD RETURNDATASIZE PUSH1 0x1F NOT PUSH1 0x1F DUP3 ADD AND DUP3 ADD DUP1 PUSH1 0x40 MSTORE POP DUP2 ADD SWAP1 PUSH2 0x567 SWAP2 SWAP1 PUSH2 0x135E JUMP JUMPDEST SWAP1 POP PUSH0 DUP2 PUSH8 0xFFFFFFFFFFFFFFFF DUP2 GT ISZERO PUSH2 0x584 JUMPI PUSH2 0x583 PUSH2 0x1078 JUMP JUMPDEST JUMPDEST PUSH1 0x40 MLOAD SWAP1 DUP1 DUP3 MSTORE DUP1 PUSH1 0x20 MUL PUSH1 0x20 ADD DUP3 ADD PUSH1 0x40 MSTORE DUP1 ISZERO PUSH2 0x5BD JUMPI DUP2 PUSH1 0x20 ADD JUMPDEST PUSH2 0x5AA PUSH2 0xB71 JUMP JUMPDEST DUP2 MSTORE PUSH1 0x20 ADD SWAP1 PUSH1 0x1 SWAP1 SUB SWAP1 DUP2 PUSH2 0x5A2 JUMPI SWAP1 POP JUMPDEST POP SWAP1 POP PUSH0 DUP1 PUSH1 0x1 SWAP1 POP JUMPDEST DUP4 DUP2 GT PUSH2 0x6BA JUMPI PUSH0 PUSH1 0x1 PUSH0 SWAP1 SLOAD SWAP1 PUSH2 0x100 EXP SWAP1 DIV PUSH20 0xFFFFFFFFFFFFFFFFFFFFFFFFFFFFFFFFFFFFFFFF AND PUSH20 0xFFFFFFFFFFFFFFFFFFFFFFFFFFFFFFFFFFFFFFFF AND PUSH4 0x2B07FCE3 DUP4 PUSH1 0x40 MLOAD DUP3 PUSH4 0xFFFFFFFF AND PUSH1 0xE0 SHL DUP2 MSTORE PUSH1 0x4 ADD PUSH2 0x629 SWAP2 SWAP1 PUSH2 0x105B JUMP JUMPDEST PUSH0 PUSH1 0x40 MLOAD DUP1 DUP4 SUB DUP2 DUP7 GAS STATICCALL ISZERO DUP1 ISZERO PUSH2 0x643 JUMPI RETURNDATASIZE PUSH0 DUP1 RETURNDATACOPY RETURNDATASIZE PUSH0 REVERT JUMPDEST POP POP POP POP PUSH1 0x40 MLOAD RETURNDATASIZE PUSH0 DUP3 RETURNDATACOPY RETURNDATASIZE PUSH1 0x1F NOT PUSH1 0x1F DUP3 ADD AND DUP3 ADD DUP1 PUSH1 0x40 MSTORE POP DUP2 ADD SWAP1 PUSH2 0x66B SWAP2 SWAP1 PUSH2 0x1317 JUMP JUMPDEST SWAP1 POP DUP1 PUSH2 0x100 ADD MLOAD ISZERO PUSH2 0x6A6 JUMPI DUP1 DUP5 DUP5 DUP2 MLOAD DUP2 LT PUSH2 0x68C JUMPI PUSH2 0x68B PUSH2 0x1843 JUMP JUMPDEST JUMPDEST PUSH1 0x20 MUL PUSH1 0x20 ADD ADD DUP2 SWAP1 MSTORE POP DUP3 DUP1 PUSH2 0x6A2 SWAP1 PUSH2 0x1870 JUMP JUMPDEST SWAP4 POP POP JUMPDEST POP DUP1 DUP1 PUSH2 0x6B2 SWAP1 PUSH2 0x1870 JUMP JUMPDEST SWAP2 POP POP PUSH2 0x5C7 JUMP JUMPDEST POP DUP2 SWAP4 POP POP POP POP SWAP1 JUMP JUMPDEST PUSH1 0x2 PUSH1 0x20 MSTORE DUP2 PUSH0 MSTORE PUSH1 0x40 PUSH0 KECCAK256 DUP2 DUP2 SLOAD DUP2 LT PUSH2 0x6DD JUMPI PUSH0 DUP1 REVERT JUMPDEST SWAP1 PUSH0 MSTORE PUSH1 0x20 PUSH0 KECCAK256 SWAP1 PUSH1 0x8 MUL ADD PUSH0 SWAP2 POP SWAP2 POP POP DUP1 PUSH0 ADD SLOAD SWAP1 DUP1 PUSH1 0x1 ADD DUP1 SLOAD PUSH2 0x703 SWAP1 PUSH2 0x154D JUMP JUMPDEST DUP1 PUSH1 0x1F ADD PUSH1 0x20 DUP1 SWAP2 DIV MUL PUSH1 0x20 ADD PUSH1 0x40 MLOAD SWAP1 DUP2 ADD PUSH1 0x40 MSTORE DUP1 SWAP3 SWAP2 SWAP1 DUP2 DUP2 MSTORE PUSH1 0x20 ADD DUP3 DUP1 SLOAD PUSH2 0x72F SWAP1 PUSH2 0x154D JUMP JUMPDEST DUP1 ISZERO PUSH2 0x77A JUMPI DUP1 PUSH1 0x1F LT PUSH2 0x751 JUMPI PUSH2 0x100 DUP1 DUP4 SLOAD DIV MUL DUP4 MSTORE SWAP2 PUSH1 0x20 ADD SWAP2 PUSH2 0x77A JUMP JUMPDEST DUP3 ADD SWAP2 SWAP1 PUSH0 MSTORE PUSH1 0x20 PUSH0 KECCAK256 SWAP1 JUMPDEST DUP2 SLOAD DUP2 MSTORE SWAP1 PUSH1 0x1 ADD SWAP1 PUSH1 0x20 ADD DUP1 DUP4 GT PUSH2 0x75D JUMPI DUP3 SWAP1 SUB PUSH1 0x1F AND DUP3 ADD SWAP2 JUMPDEST POP POP POP POP POP SWAP1 DUP1 PUSH1 0x2 ADD DUP1 SLOAD PUSH2 0x78F SWAP1 PUSH2 0x154D JUMP JUMPDEST DUP1 PUSH1 0x1F ADD PUSH1 0x20 DUP1 SWAP2 DIV MUL PUSH1 0x20 ADD PUSH1 0x40 MLOAD SWAP1 DUP2 ADD PUSH1 0x40 MSTORE DUP1 SWAP3 SWAP2 SWAP1 DUP2 DUP2 MSTORE PUSH1 0x20 ADD DUP3 DUP1 SLOAD PUSH2 0x7BB SWAP1 PUSH2 0x154D JUMP JUMPDEST DUP1 ISZERO PUSH2 0x806 JUMPI DUP1 PUSH1 0x1F LT PUSH2 0x7DD JUMPI PUSH2 0x100 DUP1 DUP4 SLOAD DIV MUL DUP4 MSTORE SWAP2 PUSH1 0x20 ADD SWAP2 PUSH2 0x806 JUMP JUMPDEST DUP3 ADD SWAP2 SWAP1 PUSH0 MSTORE PUSH1 0x20 PUSH0 KECCAK256 SWAP1 JUMPDEST DUP2 SLOAD DUP2 MSTORE SWAP1 PUSH1 0x1 ADD SWAP1 PUSH1 0x20 ADD DUP1 DUP4 GT PUSH2 0x7E9 JUMPI DUP3 SWAP1 SUB PUSH1 0x1F AND DUP3 ADD SWAP2 JUMPDEST POP POP POP POP POP SWAP1 DUP1 PUSH1 0x3 ADD SLOAD SWAP1 DUP1 PUSH1 0x4 ADD SLOAD SWAP1 DUP1 PUSH1 0x5 ADD SLOAD SWAP1 DUP1 PUSH1 0x6 ADD SLOAD SWAP1 DUP1 PUSH1 0x7 ADD PUSH0 SWAP1 SLOAD SWAP1 PUSH2 0x100 EXP SWAP1 DIV PUSH20 0xFFFFFFFFFFFFFFFFFFFFFFFFFFFFFFFFFFFFFFFF AND SWAP1 DUP1 PUSH1 0x7 ADD PUSH1 0x14 SWAP1 SLOAD SWAP1 PUSH2 0x100 EXP SWAP1 DIV PUSH1 0xFF AND SWAP1 DUP1 PUSH1 0x7 ADD PUSH1 0x15 SWAP1 SLOAD SWAP1 PUSH2 0x100 EXP SWAP1 DIV PUSH1 0xFF AND SWAP1 POP DUP11 JUMP JUMPDEST PUSH1 0x60 PUSH1 0x2 PUSH0 CALLER PUSH20 0xFFFFFFFFFFFFFFFFFFFFFFFFFFFFFFFFFFFFFFFF AND PUSH20 0xFFFFFFFFFFFFFFFFFFFFFFFFFFFFFFFFFFFFFFFF AND DUP2 MSTORE PUSH1 0x20 ADD SWAP1 DUP2 MSTORE PUSH1 0x20 ADD PUSH0 KECCAK256 DUP1 SLOAD DUP1 PUSH1 0x20 MUL PUSH1 0x20 ADD PUSH1 0x40 MLOAD SWAP1 DUP2 ADD PUSH1 0x40 MSTORE DUP1 SWAP3 SWAP2 SWAP1 DUP2 DUP2 MSTORE PUSH1 0x20 ADD PUSH0 SWAP1 JUMPDEST DUP3 DUP3 LT ISZERO PUSH2 0xADE JUMPI DUP4 DUP3 SWAP1 PUSH0 MSTORE PUSH1 0x20 PUSH0 KECCAK256 SWAP1 PUSH1 0x8 MUL ADD PUSH1 0x40 MLOAD DUP1 PUSH2 0x140 ADD PUSH1 0x40 MSTORE SWAP1 DUP2 PUSH0 DUP3 ADD SLOAD DUP2 MSTORE PUSH1 0x20 ADD PUSH1 0x1 DUP3 ADD DUP1 SLOAD PUSH2 0x90C SWAP1 PUSH2 0x154D JUMP JUMPDEST DUP1 PUSH1 0x1F ADD PUSH1 0x20 DUP1 SWAP2 DIV MUL PUSH1 0x20 ADD PUSH1 0x40 MLOAD SWAP1 DUP2 ADD PUSH1 0x40 MSTORE DUP1 SWAP3 SWAP2 SWAP1 DUP2 DUP2 MSTORE PUSH1 0x20 ADD DUP3 DUP1 SLOAD PUSH2 0x938 SWAP1 PUSH2 0x154D JUMP JUMPDEST DUP1 ISZERO PUSH2 0x983 JUMPI DUP1 PUSH1 0x1F LT PUSH2 0x95A JUMPI PUSH2 0x100 DUP1 DUP4 SLOAD DIV MUL DUP4 MSTORE SWAP2 PUSH1 0x20 ADD SWAP2 PUSH2 0x983 JUMP JUMPDEST DUP3 ADD SWAP2 SWAP1 PUSH0 MSTORE PUSH1 0x20 PUSH0 KECCAK256 SWAP1 JUMPDEST DUP2 SLOAD DUP2 MSTORE SWAP1 PUSH1 0x1 ADD SWAP1 PUSH1 0x20 ADD DUP1 DUP4 GT PUSH2 0x966 JUMPI DUP3 SWAP1 SUB PUSH1 0x1F AND DUP3 ADD SWAP2 JUMPDEST POP POP POP POP POP DUP2 MSTORE PUSH1 0x20 ADD PUSH1 0x2 DUP3 ADD DUP1 SLOAD PUSH2 0x99C SWAP1 PUSH2 0x154D JUMP JUMPDEST DUP1 PUSH1 0x1F ADD PUSH1 0x20 DUP1 SWAP2 DIV MUL PUSH1 0x20 ADD PUSH1 0x40 MLOAD SWAP1 DUP2 ADD PUSH1 0x40 MSTORE DUP1 SWAP3 SWAP2 SWAP1 DUP2 DUP2 MSTORE PUSH1 0x20 ADD DUP3 DUP1 SLOAD PUSH2 0x9C8 SWAP1 PUSH2 0x154D JUMP JUMPDEST DUP1 ISZERO PUSH2 0xA13 JUMPI DUP1 PUSH1 0x1F LT PUSH2 0x9EA JUMPI PUSH2 0x100 DUP1 DUP4 SLOAD DIV MUL DUP4 MSTORE SWAP2 PUSH1 0x20 ADD SWAP2 PUSH2 0xA13 JUMP JUMPDEST DUP3 ADD SWAP2 SWAP1 PUSH0 MSTORE PUSH1 0x20 PUSH0 KECCAK256 SWAP1 JUMPDEST DUP2 SLOAD DUP2 MSTORE SWAP1 PUSH1 0x1 ADD SWAP1 PUSH1 0x20 ADD DUP1 DUP4 GT PUSH2 0x9F6 JUMPI DUP3 SWAP1 SUB PUSH1 0x1F AND DUP3 ADD SWAP2 JUMPDEST POP POP POP POP POP DUP2 MSTORE PUSH1 0x20 ADD PUSH1 0x3 DUP3 ADD SLOAD DUP2 MSTORE PUSH1 0x20 ADD PUSH1 0x4 DUP3 ADD SLOAD DUP2 MSTORE PUSH1 0x20 ADD PUSH1 0x5 DUP3 ADD SLOAD DUP2 MSTORE PUSH1 0x20 ADD PUSH1 0x6 DUP3 ADD SLOAD DUP2 MSTORE PUSH1 0x20 ADD PUSH1 0x7 DUP3 ADD PUSH0 SWAP1 SLOAD SWAP1 PUSH2 0x100 EXP SWAP1 DIV PUSH20 0xFFFFFFFFFFFFFFFFFFFFFFFFFFFFFFFFFFFFFFFF AND PUSH20 0xFFFFFFFFFFFFFFFFFFFFFFFFFFFFFFFFFFFFFFFF AND PUSH20 0xFFFFFFFFFFFFFFFFFFFFFFFFFFFFFFFFFFFFFFFF AND DUP2 MSTORE PUSH1 0x20 ADD PUSH1 0x7 DUP3 ADD PUSH1 0x14 SWAP1 SLOAD SWAP1 PUSH2 0x100 EXP SWAP1 DIV PUSH1 0xFF AND ISZERO ISZERO ISZERO ISZERO DUP2 MSTORE PUSH1 0x20 ADD PUSH1 0x7 DUP3 ADD PUSH1 0x15 SWAP1 SLOAD SWAP1 PUSH2 0x100 EXP SWAP1 DIV PUSH1 0xFF AND ISZERO ISZERO ISZERO ISZERO DUP2 MSTORE POP POP DUP2 MSTORE PUSH1 0x20 ADD SWAP1 PUSH1 0x1 ADD SWAP1 PUSH2 0x8D1 JUMP JUMPDEST POP POP POP POP SWAP1 POP SWAP1 JUMP JUMPDEST PUSH1 0x1 PUSH0 SWAP1 SLOAD SWAP1 PUSH2 0x100 EXP SWAP1 DIV PUSH20 0xFFFFFFFFFFFFFFFFFFFFFFFFFFFFFFFFFFFFFFFF AND PUSH20 0xFFFFFFFFFFFFFFFFFFFFFFFFFFFFFFFFFFFFFFFF AND PUSH4 0x96945F3E DUP3 PUSH1 0x40 MLOAD DUP3 PUSH4 0xFFFFFFFF AND PUSH1 0xE0 SHL DUP2 MSTORE PUSH1 0x4 ADD PUSH2 0xB41 SWAP2 SWAP1 PUSH2 0x105B JUMP JUMPDEST PUSH0 PUSH1 0x40 MLOAD DUP1 DUP4 SUB DUP2 PUSH0 DUP8 DUP1 EXTCODESIZE ISZERO DUP1 ISZERO PUSH2 0xB58 JUMPI PUSH0 DUP1 REVERT JUMPDEST POP GAS CALL ISZERO DUP1 ISZERO PUSH2 0xB6A JUMPI RETURNDATASIZE PUSH0 DUP1 RETURNDATACOPY RETURNDATASIZE PUSH0 REVERT JUMPDEST POP POP POP POP POP JUMP JUMPDEST PUSH1 0x40 MLOAD DUP1 PUSH2 0x140 ADD PUSH1 0x40 MSTORE DUP1 PUSH0 DUP2 MSTORE PUSH1 0x20 ADD PUSH1 0x60 DUP2 MSTORE PUSH1 0x20 ADD PUSH1 0x60 DUP2 MSTORE PUSH1 0x20 ADD PUSH0 DUP2 MSTORE PUSH1 0x20 ADD PUSH0 DUP2 MSTORE PUSH1 0x20 ADD PUSH0 DUP2 MSTORE PUSH1 0x20 ADD PUSH0 DUP2 MSTORE PUSH1 0x20 ADD PUSH0 PUSH20 0xFFFFFFFFFFFFFFFFFFFFFFFFFFFFFFFFFFFFFFFF AND DUP2 MSTORE PUSH1 0x20 ADD PUSH0 ISZERO ISZERO DUP2 MSTORE PUSH1 0x20 ADD PUSH0 ISZERO ISZERO DUP2 MSTORE POP SWAP1 JUMP JUMPDEST PUSH0 PUSH1 0x40 MLOAD SWAP1 POP SWAP1 JUMP JUMPDEST PUSH0 DUP1 REVERT JUMPDEST PUSH0 DUP1 REVERT JUMPDEST PUSH0 DUP2 SWAP1 POP SWAP2 SWAP1 POP JUMP JUMPDEST PUSH2 0xBF9 DUP2 PUSH2 0xBE7 JUMP JUMPDEST DUP2 EQ PUSH2 0xC03 JUMPI PUSH0 DUP1 REVERT JUMPDEST POP JUMP JUMPDEST PUSH0 DUP2 CALLDATALOAD SWAP1 POP PUSH2 0xC14 DUP2 PUSH2 0xBF0 JUMP JUMPDEST SWAP3 SWAP2 POP POP JUMP JUMPDEST PUSH0 PUSH1 0x20 DUP3 DUP5 SUB SLT ISZERO PUSH2 0xC2F JUMPI PUSH2 0xC2E PUSH2 0xBDF JUMP JUMPDEST JUMPDEST PUSH0 PUSH2 0xC3C DUP5 DUP3 DUP6 ADD PUSH2 0xC06 JUMP JUMPDEST SWAP2 POP POP SWAP3 SWAP2 POP POP JUMP JUMPDEST PUSH0 DUP2 MLOAD SWAP1 POP SWAP2 SWAP1 POP JUMP JUMPDEST PUSH0 DUP3 DUP3 MSTORE PUSH1 0x20 DUP3 ADD SWAP1 POP SWAP3 SWAP2 POP POP JUMP JUMPDEST PUSH0 DUP2 SWAP1 POP PUSH1 0x20 DUP3 ADD SWAP1 POP SWAP2 SWAP1 POP JUMP JUMPDEST PUSH2 0xC77 DUP2 PUSH2 0xBE7 JUMP JUMPDEST DUP3 MSTORE POP POP JUMP JUMPDEST PUSH0 DUP2 MLOAD SWAP1 POP SWAP2 SWAP1 POP JUMP JUMPDEST PUSH0 DUP3 DUP3 MSTORE PUSH1 0x20 DUP3 ADD SWAP1 POP SWAP3 SWAP2 POP POP JUMP JUMPDEST DUP3 DUP2 DUP4 MCOPY PUSH0 DUP4 DUP4 ADD MSTORE POP POP POP JUMP JUMPDEST PUSH0 PUSH1 0x1F NOT PUSH1 0x1F DUP4 ADD AND SWAP1 POP SWAP2 SWAP1 POP JUMP JUMPDEST PUSH0 PUSH2 0xCBF DUP3 PUSH2 0xC7D JUMP JUMPDEST PUSH2 0xCC9 DUP2 DUP6 PUSH2 0xC87 JUMP JUMPDEST SWAP4 POP PUSH2 0xCD9 DUP2 DUP6 PUSH1 0x20 DUP7 ADD PUSH2 0xC97 JUMP JUMPDEST PUSH2 0xCE2 DUP2 PUSH2 0xCA5 JUMP JUMPDEST DUP5 ADD SWAP2 POP POP SWAP3 SWAP2 POP POP JUMP JUMPDEST PUSH0 PUSH20 0xFFFFFFFFFFFFFFFFFFFFFFFFFFFFFFFFFFFFFFFF DUP3 AND SWAP1 POP SWAP2 SWAP1 POP JUMP JUMPDEST PUSH0 PUSH2 0xD16 DUP3 PUSH2 0xCED JUMP JUMPDEST SWAP1 POP SWAP2 SWAP1 POP JUMP JUMPDEST PUSH2 0xD26 DUP2 PUSH2 0xD0C JUMP JUMPDEST DUP3 MSTORE POP POP JUMP JUMPDEST PUSH0 DUP2 ISZERO ISZERO SWAP1 POP SWAP2 SWAP1 POP JUMP JUMPDEST PUSH2 0xD40 DUP2 PUSH2 0xD2C JUMP JUMPDEST DUP3 MSTORE POP POP JUMP JUMPDEST PUSH0 PUSH2 0x140 DUP4 ADD PUSH0 DUP4 ADD MLOAD PUSH2 0xD5C PUSH0 DUP7 ADD DUP3 PUSH2 0xC6E JUMP JUMPDEST POP PUSH1 0x20 DUP4 ADD MLOAD DUP5 DUP3 SUB PUSH1 0x20 DUP7 ADD MSTORE PUSH2 0xD74 DUP3 DUP3 PUSH2 0xCB5 JUMP JUMPDEST SWAP2 POP POP PUSH1 0x40 DUP4 ADD MLOAD DUP5 DUP3 SUB PUSH1 0x40 DUP7 ADD MSTORE PUSH2 0xD8E DUP3 DUP3 PUSH2 0xCB5 JUMP JUMPDEST SWAP2 POP POP PUSH1 0x60 DUP4 ADD MLOAD PUSH2 0xDA3 PUSH1 0x60 DUP7 ADD DUP3 PUSH2 0xC6E JUMP JUMPDEST POP PUSH1 0x80 DUP4 ADD MLOAD PUSH2 0xDB6 PUSH1 0x80 DUP7 ADD DUP3 PUSH2 0xC6E JUMP JUMPDEST POP PUSH1 0xA0 DUP4 ADD MLOAD PUSH2 0xDC9 PUSH1 0xA0 DUP7 ADD DUP3 PUSH2 0xC6E JUMP JUMPDEST POP PUSH1 0xC0 DUP4 ADD MLOAD PUSH2 0xDDC PUSH1 0xC0 DUP7 ADD DUP3 PUSH2 0xC6E JUMP JUMPDEST POP PUSH1 0xE0 DUP4 ADD MLOAD PUSH2 0xDEF PUSH1 0xE0 DUP7 ADD DUP3 PUSH2 0xD1D JUMP JUMPDEST POP PUSH2 0x100 DUP4 ADD MLOAD PUSH2 0xE04 PUSH2 0x100 DUP7 ADD DUP3 PUSH2 0xD37 JUMP JUMPDEST POP PUSH2 0x120 DUP4 ADD MLOAD PUSH2 0xE19 PUSH2 0x120 DUP7 ADD DUP3 PUSH2 0xD37 JUMP JUMPDEST POP DUP1 SWAP2 POP POP SWAP3 SWAP2 POP POP JUMP JUMPDEST PUSH0 PUSH2 0xE2F DUP4 DUP4 PUSH2 0xD46 JUMP JUMPDEST SWAP1 POP SWAP3 SWAP2 POP POP JUMP JUMPDEST PUSH0 PUSH1 0x20 DUP3 ADD SWAP1 POP SWAP2 SWAP1 POP JUMP JUMPDEST PUSH0 PUSH2 0xE4D DUP3 PUSH2 0xC45 JUMP JUMPDEST PUSH2 0xE57 DUP2 DUP6 PUSH2 0xC4F JUMP JUMPDEST SWAP4 POP DUP4 PUSH1 0x20 DUP3 MUL DUP6 ADD PUSH2 0xE69 DUP6 PUSH2 0xC5F JUMP JUMPDEST DUP1 PUSH0 JUMPDEST DUP6 DUP2 LT ISZERO PUSH2 0xEA4 JUMPI DUP5 DUP5 SUB DUP10 MSTORE DUP2 MLOAD PUSH2 0xE85 DUP6 DUP3 PUSH2 0xE24 JUMP JUMPDEST SWAP5 POP PUSH2 0xE90 DUP4 PUSH2 0xE37 JUMP JUMPDEST SWAP3 POP PUSH1 0x20 DUP11 ADD SWAP10 POP POP PUSH1 0x1 DUP2 ADD SWAP1 POP PUSH2 0xE6C JUMP JUMPDEST POP DUP3 SWAP8 POP DUP8 SWAP6 POP POP POP POP POP POP SWAP3 SWAP2 POP POP JUMP JUMPDEST PUSH0 PUSH1 0x20 DUP3 ADD SWAP1 POP DUP2 DUP2 SUB PUSH0 DUP4 ADD MSTORE PUSH2 0xECE DUP2 DUP5 PUSH2 0xE43 JUMP JUMPDEST SWAP1 POP SWAP3 SWAP2 POP POP JUMP JUMPDEST PUSH2 0xEDF DUP2 PUSH2 0xD0C JUMP JUMPDEST DUP2 EQ PUSH2 0xEE9 JUMPI PUSH0 DUP1 REVERT JUMPDEST POP JUMP JUMPDEST PUSH0 DUP2 CALLDATALOAD SWAP1 POP PUSH2 0xEFA DUP2 PUSH2 0xED6 JUMP JUMPDEST SWAP3 SWAP2 POP POP JUMP JUMPDEST PUSH0 DUP1 PUSH1 0x40 DUP4 DUP6 SUB SLT ISZERO PUSH2 0xF16 JUMPI PUSH2 0xF15 PUSH2 0xBDF JUMP JUMPDEST JUMPDEST PUSH0 PUSH2 0xF23 DUP6 DUP3 DUP7 ADD PUSH2 0xEEC JUMP JUMPDEST SWAP3 POP POP PUSH1 0x20 PUSH2 0xF34 DUP6 DUP3 DUP7 ADD PUSH2 0xC06 JUMP JUMPDEST SWAP2 POP POP SWAP3 POP SWAP3 SWAP1 POP JUMP JUMPDEST PUSH2 0xF47 DUP2 PUSH2 0xBE7 JUMP JUMPDEST DUP3 MSTORE POP POP JUMP JUMPDEST PUSH0 DUP3 DUP3 MSTORE PUSH1 0x20 DUP3 ADD SWAP1 POP SWAP3 SWAP2 POP POP JUMP JUMPDEST PUSH0 PUSH2 0xF67 DUP3 PUSH2 0xC7D JUMP JUMPDEST PUSH2 0xF71 DUP2 DUP6 PUSH2 0xF4D JUMP JUMPDEST SWAP4 POP PUSH2 0xF81 DUP2 DUP6 PUSH1 0x20 DUP7 ADD PUSH2 0xC97 JUMP JUMPDEST PUSH2 0xF8A DUP2 PUSH2 0xCA5 JUMP JUMPDEST DUP5 ADD SWAP2 POP POP SWAP3 SWAP2 POP POP JUMP JUMPDEST PUSH2 0xF9E DUP2 PUSH2 0xD0C JUMP JUMPDEST DUP3 MSTORE POP POP JUMP JUMPDEST PUSH2 0xFAD DUP2 PUSH2 0xD2C JUMP JUMPDEST DUP3 MSTORE POP POP JUMP JUMPDEST PUSH0 PUSH2 0x140 DUP3 ADD SWAP1 POP PUSH2 0xFC7 PUSH0 DUP4 ADD DUP14 PUSH2 0xF3E JUMP JUMPDEST DUP2 DUP2 SUB PUSH1 0x20 DUP4 ADD MSTORE PUSH2 0xFD9 DUP2 DUP13 PUSH2 0xF5D JUMP JUMPDEST SWAP1 POP DUP2 DUP2 SUB PUSH1 0x40 DUP4 ADD MSTORE PUSH2 0xFED DUP2 DUP12 PUSH2 0xF5D JUMP JUMPDEST SWAP1 POP PUSH2 0xFFC PUSH1 0x60 DUP4 ADD DUP11 PUSH2 0xF3E JUMP JUMPDEST PUSH2 0x1009 PUSH1 0x80 DUP4 ADD DUP10 PUSH2 0xF3E JUMP JUMPDEST PUSH2 0x1016 PUSH1 0xA0 DUP4 ADD DUP9 PUSH2 0xF3E JUMP JUMPDEST PUSH2 0x1023 PUSH1 0xC0 DUP4 ADD DUP8 PUSH2 0xF3E JUMP JUMPDEST PUSH2 0x1030 PUSH1 0xE0 DUP4 ADD DUP7 PUSH2 0xF95 JUMP JUMPDEST PUSH2 0x103E PUSH2 0x100 DUP4 ADD DUP6 PUSH2 0xFA4 JUMP JUMPDEST PUSH2 0x104C PUSH2 0x120 DUP4 ADD DUP5 PUSH2 0xFA4 JUMP JUMPDEST SWAP12 SWAP11 POP POP POP POP POP POP POP POP POP POP POP JUMP JUMPDEST PUSH0 PUSH1 0x20 DUP3 ADD SWAP1 POP PUSH2 0x106E PUSH0 DUP4 ADD DUP5 PUSH2 0xF3E JUMP JUMPDEST SWAP3 SWAP2 POP POP JUMP JUMPDEST PUSH0 DUP1 REVERT JUMPDEST PUSH32 0x4E487B7100000000000000000000000000000000000000000000000000000000 PUSH0 MSTORE PUSH1 0x41 PUSH1 0x4 MSTORE PUSH1 0x24 PUSH0 REVERT JUMPDEST PUSH2 0x10AE DUP3 PUSH2 0xCA5 JUMP JUMPDEST DUP2 ADD DUP2 DUP2 LT PUSH8 0xFFFFFFFFFFFFFFFF DUP3 GT OR ISZERO PUSH2 0x10CD JUMPI PUSH2 0x10CC PUSH2 0x1078 JUMP JUMPDEST JUMPDEST DUP1 PUSH1 0x40 MSTORE POP POP POP JUMP JUMPDEST PUSH0 PUSH2 0x10DF PUSH2 0xBD6 JUMP JUMPDEST SWAP1 POP PUSH2 0x10EB DUP3 DUP3 PUSH2 0x10A5 JUMP JUMPDEST SWAP2 SWAP1 POP JUMP JUMPDEST PUSH0 DUP1 REVERT JUMPDEST PUSH0 DUP2 MLOAD SWAP1 POP PUSH2 0x1102 DUP2 PUSH2 0xBF0 JUMP JUMPDEST SWAP3 SWAP2 POP POP JUMP JUMPDEST PUSH0 DUP1 REVERT JUMPDEST PUSH0 DUP1 REVERT JUMPDEST PUSH0 PUSH8 0xFFFFFFFFFFFFFFFF DUP3 GT ISZERO PUSH2 0x112A JUMPI PUSH2 0x1129 PUSH2 0x1078 JUMP JUMPDEST JUMPDEST PUSH2 0x1133 DUP3 PUSH2 0xCA5 JUMP JUMPDEST SWAP1 POP PUSH1 0x20 DUP2 ADD SWAP1 POP SWAP2 SWAP1 POP JUMP JUMPDEST PUSH0 PUSH2 0x1152 PUSH2 0x114D DUP5 PUSH2 0x1110 JUMP JUMPDEST PUSH2 0x10D6 JUMP JUMPDEST SWAP1 POP DUP3 DUP2 MSTORE PUSH1 0x20 DUP2 ADD DUP5 DUP5 DUP5 ADD GT ISZERO PUSH2 0x116E JUMPI PUSH2 0x116D PUSH2 0x110C JUMP JUMPDEST JUMPDEST PUSH2 0x1179 DUP5 DUP3 DUP6 PUSH2 0xC97 JUMP JUMPDEST POP SWAP4 SWAP3 POP POP POP JUMP JUMPDEST PUSH0 DUP3 PUSH1 0x1F DUP4 ADD SLT PUSH2 0x1195 JUMPI PUSH2 0x1194 PUSH2 0x1108 JUMP JUMPDEST JUMPDEST DUP2 MLOAD PUSH2 0x11A5 DUP5 DUP3 PUSH1 0x20 DUP7 ADD PUSH2 0x1140 JUMP JUMPDEST SWAP2 POP POP SWAP3 SWAP2 POP POP JUMP JUMPDEST PUSH0 DUP2 MLOAD SWAP1 POP PUSH2 0x11BC DUP2 PUSH2 0xED6 JUMP JUMPDEST SWAP3 SWAP2 POP POP JUMP JUMPDEST PUSH2 0x11CB DUP2 PUSH2 0xD2C JUMP JUMPDEST DUP2 EQ PUSH2 0x11D5 JUMPI PUSH0 DUP1 REVERT JUMPDEST POP JUMP JUMPDEST PUSH0 DUP2 MLOAD SWAP1 POP PUSH2 0x11E6 DUP2 PUSH2 0x11C2 JUMP JUMPDEST SWAP3 SWAP2 POP POP JUMP JUMPDEST PUSH0 PUSH2 0x140 DUP3 DUP5 SUB SLT ISZERO PUSH2 0x1202 JUMPI PUSH2 0x1201 PUSH2 0x1074 JUMP JUMPDEST JUMPDEST PUSH2 0x120D PUSH2 0x140 PUSH2 0x10D6 JUMP JUMPDEST SWAP1 POP PUSH0 PUSH2 0x121C DUP5 DUP3 DUP6 ADD PUSH2 0x10F4 JUMP JUMPDEST PUSH0 DUP4 ADD MSTORE POP PUSH1 0x20 DUP3 ADD MLOAD PUSH8 0xFFFFFFFFFFFFFFFF DUP2 GT ISZERO PUSH2 0x123F JUMPI PUSH2 0x123E PUSH2 0x10F0 JUMP JUMPDEST JUMPDEST PUSH2 0x124B DUP5 DUP3 DUP6 ADD PUSH2 0x1181 JUMP JUMPDEST PUSH1 0x20 DUP4 ADD MSTORE POP PUSH1 0x40 DUP3 ADD MLOAD PUSH8 0xFFFFFFFFFFFFFFFF DUP2 GT ISZERO PUSH2 0x126F JUMPI PUSH2 0x126E PUSH2 0x10F0 JUMP JUMPDEST JUMPDEST PUSH2 0x127B DUP5 DUP3 DUP6 ADD PUSH2 0x1181 JUMP JUMPDEST PUSH1 0x40 DUP4 ADD MSTORE POP PUSH1 0x60 PUSH2 0x128F DUP5 DUP3 DUP6 ADD PUSH2 0x10F4 JUMP JUMPDEST PUSH1 0x60 DUP4 ADD MSTORE POP PUSH1 0x80 PUSH2 0x12A3 DUP5 DUP3 DUP6 ADD PUSH2 0x10F4 JUMP JUMPDEST PUSH1 0x80 DUP4 ADD MSTORE POP PUSH1 0xA0 PUSH2 0x12B7 DUP5 DUP3 DUP6 ADD PUSH2 0x10F4 JUMP JUMPDEST PUSH1 0xA0 DUP4 ADD MSTORE POP PUSH1 0xC0 PUSH2 0x12CB DUP5 DUP3 DUP6 ADD PUSH2 0x10F4 JUMP JUMPDEST PUSH1 0xC0 DUP4 ADD MSTORE POP PUSH1 0xE0 PUSH2 0x12DF DUP5 DUP3 DUP6 ADD PUSH2 0x11AE JUMP JUMPDEST PUSH1 0xE0 DUP4 ADD MSTORE POP PUSH2 0x100 PUSH2 0x12F4 DUP5 DUP3 DUP6 ADD PUSH2 0x11D8 JUMP JUMPDEST PUSH2 0x100 DUP4 ADD MSTORE POP PUSH2 0x120 PUSH2 0x130A DUP5 DUP3 DUP6 ADD PUSH2 0x11D8 JUMP JUMPDEST PUSH2 0x120 DUP4 ADD MSTORE POP SWAP3 SWAP2 POP POP JUMP JUMPDEST PUSH0 PUSH1 0x20 DUP3 DUP5 SUB SLT ISZERO PUSH2 0x132C JUMPI PUSH2 0x132B PUSH2 0xBDF JUMP JUMPDEST JUMPDEST PUSH0 DUP3 ADD MLOAD PUSH8 0xFFFFFFFFFFFFFFFF DUP2 GT ISZERO PUSH2 0x1349 JUMPI PUSH2 0x1348 PUSH2 0xBE3 JUMP JUMPDEST JUMPDEST PUSH2 0x1355 DUP5 DUP3 DUP6 ADD PUSH2 0x11EC JUMP JUMPDEST SWAP2 POP POP SWAP3 SWAP2 POP POP JUMP JUMPDEST PUSH0 PUSH1 0x20 DUP3 DUP5 SUB SLT ISZERO PUSH2 0x1373 JUMPI PUSH2 0x1372 PUSH2 0xBDF JUMP JUMPDEST JUMPDEST PUSH0 PUSH2 0x1380 DUP5 DUP3 DUP6 ADD PUSH2 0x10F4 JUMP JUMPDEST SWAP2 POP POP SWAP3 SWAP2 POP POP JUMP JUMPDEST PUSH32 0x4E487B7100000000000000000000000000000000000000000000000000000000 PUSH0 MSTORE PUSH1 0x11 PUSH1 0x4 MSTORE PUSH1 0x24 PUSH0 REVERT JUMPDEST PUSH0 PUSH2 0x13C0 DUP3 PUSH2 0xBE7 JUMP JUMPDEST SWAP2 POP PUSH2 0x13CB DUP4 PUSH2 0xBE7 JUMP JUMPDEST SWAP3 POP DUP3 DUP3 MUL PUSH2 0x13D9 DUP2 PUSH2 0xBE7 JUMP JUMPDEST SWAP2 POP DUP3 DUP3 DIV DUP5 EQ DUP4 ISZERO OR PUSH2 0x13F0 JUMPI PUSH2 0x13EF PUSH2 0x1389 JUMP JUMPDEST JUMPDEST POP SWAP3 SWAP2 POP POP JUMP JUMPDEST PUSH32 0x596F75206E65656420746F20706179206174206C656173742074686520707265 PUSH0 DUP3 ADD MSTORE PUSH32 0x6D69756D00000000000000000000000000000000000000000000000000000000 PUSH1 0x20 DUP3 ADD MSTORE POP JUMP JUMPDEST PUSH0 PUSH2 0x1451 PUSH1 0x24 DUP4 PUSH2 0xF4D JUMP JUMPDEST SWAP2 POP PUSH2 0x145C DUP3 PUSH2 0x13F7 JUMP JUMPDEST PUSH1 0x40 DUP3 ADD SWAP1 POP SWAP2 SWAP1 POP JUMP JUMPDEST PUSH0 PUSH1 0x20 DUP3 ADD SWAP1 POP DUP2 DUP2 SUB PUSH0 DUP4 ADD MSTORE PUSH2 0x147E DUP2 PUSH2 0x1445 JUMP JUMPDEST SWAP1 POP SWAP2 SWAP1 POP JUMP JUMPDEST PUSH32 0x506F6C6963792063617061636974792065786365656465640000000000000000 PUSH0 DUP3 ADD MSTORE POP JUMP JUMPDEST PUSH0 PUSH2 0x14B9 PUSH1 0x18 DUP4 PUSH2 0xF4D JUMP JUMPDEST SWAP2 POP PUSH2 0x14C4 DUP3 PUSH2 0x1485 JUMP JUMPDEST PUSH1 0x20 DUP3 ADD SWAP1 POP SWAP2 SWAP1 POP JUMP JUMPDEST PUSH0 PUSH1 0x20 DUP3 ADD SWAP1 POP DUP2 DUP2 SUB PUSH0 DUP4 ADD MSTORE PUSH2 0x14E6 DUP2 PUSH2 0x14AD JUMP JUMPDEST SWAP1 POP SWAP2 SWAP1 POP JUMP JUMPDEST PUSH0 PUSH2 0x14F7 DUP3 PUSH2 0xBE7 JUMP JUMPDEST SWAP2 POP PUSH2 0x1502 DUP4 PUSH2 0xBE7 JUMP JUMPDEST SWAP3 POP DUP3 DUP3 SUB SWAP1 POP DUP2 DUP2 GT ISZERO PUSH2 0x151A JUMPI PUSH2 0x1519 PUSH2 0x1389 JUMP JUMPDEST JUMPDEST SWAP3 SWAP2 POP POP JUMP JUMPDEST PUSH32 0x4E487B7100000000000000000000000000000000000000000000000000000000 PUSH0 MSTORE PUSH1 0x22 PUSH1 0x4 MSTORE PUSH1 0x24 PUSH0 REVERT JUMPDEST PUSH0 PUSH1 0x2 DUP3 DIV SWAP1 POP PUSH1 0x1 DUP3 AND DUP1 PUSH2 0x1564 JUMPI PUSH1 0x7F DUP3 AND SWAP2 POP JUMPDEST PUSH1 0x20 DUP3 LT DUP2 SUB PUSH2 0x1577 JUMPI PUSH2 0x1576 PUSH2 0x1520 JUMP JUMPDEST JUMPDEST POP SWAP2 SWAP1 POP JUMP JUMPDEST PUSH0 DUP2 SWAP1 POP DUP2 PUSH0 MSTORE PUSH1 0x20 PUSH0 KECCAK256 SWAP1 POP SWAP2 SWAP1 POP JUMP JUMPDEST PUSH0 PUSH1 0x20 PUSH1 0x1F DUP4 ADD DIV SWAP1 POP SWAP2 SWAP1 POP JUMP JUMPDEST PUSH0 DUP3 DUP3 SHL SWAP1 POP SWAP3 SWAP2 POP POP JUMP JUMPDEST PUSH0 PUSH1 0x8 DUP4 MUL PUSH2 0x15D9 PUSH32 0xFFFFFFFFFFFFFFFFFFFFFFFFFFFFFFFFFFFFFFFFFFFFFFFFFFFFFFFFFFFFFFFF DUP3 PUSH2 0x159E JUMP JUMPDEST PUSH2 0x15E3 DUP7 DUP4 PUSH2 0x159E JUMP JUMPDEST SWAP6 POP DUP1 NOT DUP5 AND SWAP4 POP DUP1 DUP7 AND DUP5 OR SWAP3 POP POP POP SWAP4 SWAP3 POP POP POP JUMP JUMPDEST PUSH0 DUP2 SWAP1 POP SWAP2 SWAP1 POP JUMP JUMPDEST PUSH0 PUSH2 0x161E PUSH2 0x1619 PUSH2 0x1614 DUP5 PUSH2 0xBE7 JUMP JUMPDEST PUSH2 0x15FB JUMP JUMPDEST PUSH2 0xBE7 JUMP JUMPDEST SWAP1 POP SWAP2 SWAP1 POP JUMP JUMPDEST PUSH0 DUP2 SWAP1 POP SWAP2 SWAP1 POP JUMP JUMPDEST PUSH2 0x1637 DUP4 PUSH2 0x1604 JUMP JUMPDEST PUSH2 0x164B PUSH2 0x1643 DUP3 PUSH2 0x1625 JUMP JUMPDEST DUP5 DUP5 SLOAD PUSH2 0x15AA JUMP JUMPDEST DUP3 SSTORE POP POP POP POP JUMP JUMPDEST PUSH0 SWAP1 JUMP JUMPDEST PUSH2 0x165F PUSH2 0x1653 JUMP JUMPDEST PUSH2 0x166A DUP2 DUP5 DUP5 PUSH2 0x162E JUMP JUMPDEST POP POP POP JUMP JUMPDEST JUMPDEST DUP2 DUP2 LT ISZERO PUSH2 0x168D JUMPI PUSH2 0x1682 PUSH0 DUP3 PUSH2 0x1657 JUMP JUMPDEST PUSH1 0x1 DUP2 ADD SWAP1 POP PUSH2 0x1670 JUMP JUMPDEST POP POP JUMP JUMPDEST PUSH1 0x1F DUP3 GT ISZERO PUSH2 0x16D2 JUMPI PUSH2 0x16A3 DUP2 PUSH2 0x157D JUMP JUMPDEST PUSH2 0x16AC DUP5 PUSH2 0x158F JUMP JUMPDEST DUP2 ADD PUSH1 0x20 DUP6 LT ISZERO PUSH2 0x16BB JUMPI DUP2 SWAP1 POP JUMPDEST PUSH2 0x16CF PUSH2 0x16C7 DUP6 PUSH2 0x158F JUMP JUMPDEST DUP4 ADD DUP3 PUSH2 0x166F JUMP JUMPDEST POP POP JUMPDEST POP POP POP JUMP JUMPDEST PUSH0 DUP3 DUP3 SHR SWAP1 POP SWAP3 SWAP2 POP POP JUMP JUMPDEST PUSH0 PUSH2 0x16F2 PUSH0 NOT DUP5 PUSH1 0x8 MUL PUSH2 0x16D7 JUMP JUMPDEST NOT DUP1 DUP4 AND SWAP2 POP POP SWAP3 SWAP2 POP POP JUMP JUMPDEST PUSH0 PUSH2 0x170A DUP4 DUP4 PUSH2 0x16E3 JUMP JUMPDEST SWAP2 POP DUP3 PUSH1 0x2 MUL DUP3 OR SWAP1 POP SWAP3 SWAP2 POP POP JUMP JUMPDEST PUSH2 0x1723 DUP3 PUSH2 0xC7D JUMP JUMPDEST PUSH8 0xFFFFFFFFFFFFFFFF DUP2 GT ISZERO PUSH2 0x173C JUMPI PUSH2 0x173B PUSH2 0x1078 JUMP JUMPDEST JUMPDEST PUSH2 0x1746 DUP3 SLOAD PUSH2 0x154D JUMP JUMPDEST PUSH2 0x1751 DUP3 DUP3 DUP6 PUSH2 0x1691 JUMP JUMPDEST PUSH0 PUSH1 0x20 SWAP1 POP PUSH1 0x1F DUP4 GT PUSH1 0x1 DUP2 EQ PUSH2 0x1782 JUMPI PUSH0 DUP5 ISZERO PUSH2 0x1770 JUMPI DUP3 DUP8 ADD MLOAD SWAP1 POP JUMPDEST PUSH2 0x177A DUP6 DUP3 PUSH2 0x16FF JUMP JUMPDEST DUP7 SSTORE POP PUSH2 0x17E1 JUMP JUMPDEST PUSH1 0x1F NOT DUP5 AND PUSH2 0x1790 DUP7 PUSH2 0x157D JUMP JUMPDEST PUSH0 JUMPDEST DUP3 DUP2 LT ISZERO PUSH2 0x17B7 JUMPI DUP5 DUP10 ADD MLOAD DUP3 SSTORE PUSH1 0x1 DUP3 ADD SWAP2 POP PUSH1 0x20 DUP6 ADD SWAP5 POP PUSH1 0x20 DUP2 ADD SWAP1 POP PUSH2 0x1792 JUMP JUMPDEST DUP7 DUP4 LT ISZERO PUSH2 0x17D4 JUMPI DUP5 DUP10 ADD MLOAD PUSH2 0x17D0 PUSH1 0x1F DUP10 AND DUP3 PUSH2 0x16E3 JUMP JUMPDEST DUP4 SSTORE POP JUMPDEST PUSH1 0x1 PUSH1 0x2 DUP9 MUL ADD DUP9 SSTORE POP POP POP JUMPDEST POP POP POP POP POP POP JUMP JUMPDEST PUSH0 PUSH2 0x17F3 DUP3 PUSH2 0xBE7 JUMP JUMPDEST SWAP2 POP PUSH2 0x17FE DUP4 PUSH2 0xBE7 JUMP JUMPDEST SWAP3 POP DUP3 DUP3 ADD SWAP1 POP DUP1 DUP3 GT ISZERO PUSH2 0x1816 JUMPI PUSH2 0x1815 PUSH2 0x1389 JUMP JUMPDEST JUMPDEST SWAP3 SWAP2 POP POP JUMP JUMPDEST PUSH0 PUSH1 0x40 DUP3 ADD SWAP1 POP PUSH2 0x182F PUSH0 DUP4 ADD DUP6 PUSH2 0xF3E JUMP JUMPDEST PUSH2 0x183C PUSH1 0x20 DUP4 ADD DUP5 PUSH2 0xF3E JUMP JUMPDEST SWAP4 SWAP3 POP POP POP JUMP JUMPDEST PUSH32 0x4E487B7100000000000000000000000000000000000000000000000000000000 PUSH0 MSTORE PUSH1 0x32 PUSH1 0x4 MSTORE PUSH1 0x24 PUSH0 REVERT JUMPDEST PUSH0 PUSH2 0x187A DUP3 PUSH2 0xBE7 JUMP JUMPDEST SWAP2 POP PUSH32 0xFFFFFFFFFFFFFFFFFFFFFFFFFFFFFFFFFFFFFFFFFFFFFFFFFFFFFFFFFFFFFFFF DUP3 SUB PUSH2 0x18AC JUMPI PUSH2 0x18AB PUSH2 0x1389 JUMP JUMPDEST JUMPDEST PUSH1 0x1 DUP3 ADD SWAP1 POP SWAP2 SWAP1 POP JUMP INVALID LOG2 PUSH5 0x6970667358 0x22 SLT KECCAK256 0x29 0xE4 CODECOPY INVALID DIV SWAP11 SHR 0xE3 0xEB CREATE2 MUL 0xC 0xA7 CALL 0xBF SWAP7 0xBB 0xCB MOD 0xB8 0xB0 SAR CALLDATASIZE DUP7 PREVRANDAO CALLER SWAP14 0xA6 JUMPDEST EXTCODEHASH SWAP7 NOT PUSH5 0x736F6C6343 STOP ADDMOD BYTE STOP CALLER "
		},
		"gasEstimates": {
			"creation": {
				"codeDepositCost": "1276200",
				"executionCost": "infinite",
				"totalCost": "infinite"
			},
			"external": {
				"buyPolicy(uint256)": "infinite",
				"policyHolders(address,uint256)": "infinite",
				"viewListedPolicies()": "infinite",
				"viewMyActivePolicies()": "infinite"
			},
			"internal": {
				"_delistPolicy(uint256)": "infinite"
			}
		},
		"methodIdentifiers": {
			"buyPolicy(uint256)": "79c88894",
			"policyHolders(address,uint256)": "bb529068",
			"viewListedPolicies()": "9d61dba8",
			"viewMyActivePolicies()": "bf58fa37"
		}
	},
	"abi": [
		{
			"inputs": [
				{
					"internalType": "contract CIToken",
					"name": "_token",
					"type": "address"
				},
				{
					"internalType": "contract InsuranceCompany",
					"name": "_company",
					"type": "address"
				}
			],
			"stateMutability": "nonpayable",
			"type": "constructor"
		},
		{
			"inputs": [
				{
					"internalType": "uint256",
					"name": "policyId",
					"type": "uint256"
				}
			],
			"name": "buyPolicy",
			"outputs": [],
			"stateMutability": "payable",
			"type": "function"
		},
		{
			"inputs": [
				{
					"internalType": "address",
					"name": "",
					"type": "address"
				},
				{
					"internalType": "uint256",
					"name": "",
					"type": "uint256"
				}
			],
			"name": "policyHolders",
			"outputs": [
				{
					"internalType": "uint256",
					"name": "policyId",
					"type": "uint256"
				},
				{
					"internalType": "string",
					"name": "policyName",
					"type": "string"
				},
				{
					"internalType": "string",
					"name": "policyType",
					"type": "string"
				},
				{
					"internalType": "uint256",
					"name": "claimBackRate",
					"type": "uint256"
				},
				{
					"internalType": "uint256",
					"name": "maxPoolValue",
					"type": "uint256"
				},
				{
					"internalType": "uint256",
					"name": "currPoolValue",
					"type": "uint256"
				},
				{
					"internalType": "uint256",
					"name": "minStake",
					"type": "uint256"
				},
				{
					"internalType": "address",
					"name": "creator",
					"type": "address"
				},
				{
					"internalType": "bool",
					"name": "listed",
					"type": "bool"
				},
				{
					"internalType": "bool",
					"name": "active",
					"type": "bool"
				}
			],
			"stateMutability": "view",
			"type": "function"
		},
		{
			"inputs": [],
			"name": "viewListedPolicies",
			"outputs": [
				{
					"components": [
						{
							"internalType": "uint256",
							"name": "policyId",
							"type": "uint256"
						},
						{
							"internalType": "string",
							"name": "policyName",
							"type": "string"
						},
						{
							"internalType": "string",
							"name": "policyType",
							"type": "string"
						},
						{
							"internalType": "uint256",
							"name": "claimBackRate",
							"type": "uint256"
						},
						{
							"internalType": "uint256",
							"name": "maxPoolValue",
							"type": "uint256"
						},
						{
							"internalType": "uint256",
							"name": "currPoolValue",
							"type": "uint256"
						},
						{
							"internalType": "uint256",
							"name": "minStake",
							"type": "uint256"
						},
						{
							"internalType": "address",
							"name": "creator",
							"type": "address"
						},
						{
							"internalType": "bool",
							"name": "listed",
							"type": "bool"
						},
						{
							"internalType": "bool",
							"name": "active",
							"type": "bool"
						}
					],
					"internalType": "struct InsuranceCompany.Policy[]",
					"name": "",
					"type": "tuple[]"
				}
			],
			"stateMutability": "view",
			"type": "function"
		},
		{
			"inputs": [],
			"name": "viewMyActivePolicies",
			"outputs": [
				{
					"components": [
						{
							"internalType": "uint256",
							"name": "policyId",
							"type": "uint256"
						},
						{
							"internalType": "string",
							"name": "policyName",
							"type": "string"
						},
						{
							"internalType": "string",
							"name": "policyType",
							"type": "string"
						},
						{
							"internalType": "uint256",
							"name": "claimBackRate",
							"type": "uint256"
						},
						{
							"internalType": "uint256",
							"name": "maxPoolValue",
							"type": "uint256"
						},
						{
							"internalType": "uint256",
							"name": "currPoolValue",
							"type": "uint256"
						},
						{
							"internalType": "uint256",
							"name": "minStake",
							"type": "uint256"
						},
						{
							"internalType": "address",
							"name": "creator",
							"type": "address"
						},
						{
							"internalType": "bool",
							"name": "listed",
							"type": "bool"
						},
						{
							"internalType": "bool",
							"name": "active",
							"type": "bool"
						}
					],
					"internalType": "struct InsuranceCompany.Policy[]",
					"name": "",
					"type": "tuple[]"
				}
			],
			"stateMutability": "view",
			"type": "function"
		}
	]
}