{
	"data": {
		"bytecode": {
			"linkReferences": {},
			"object": "608060405234801561000f575f80fd5b506040516109df3803806109df8339818101604052810190610031919061047e565b805f806101000a81548173ffffffffffffffffffffffffffffffffffffffff021916908373ffffffffffffffffffffffffffffffffffffffff1602179055507f8b73c3c69bb8fe3d512ecc4cf759cc79239f7b179b0ffacaa9a75d522b39400f6040518060400160405280600781526020017f4353546f6b656e00000000000000000000000000000000000000000000000000815250805190602001206040518060400160405280600181526020017f31000000000000000000000000000000000000000000000000000000000000008152508051906020012046846040516020016101219594939291906104e8565b604051602081830303815290604052805190602001206002819055505f6040518060600160405280735b38da6a701c568545dcfcb03fcb875f56beddc473ffffffffffffffffffffffffffffffffffffffff1673ffffffffffffffffffffffffffffffffffffffff16815260200173ab8483f64d9c6d1ecf9b849ae677dd3315835cb273ffffffffffffffffffffffffffffffffffffffff1673ffffffffffffffffffffffffffffffffffffffff168152602001734b20993bc481177ec7e8f571cecae8a9e22c02db73ffffffffffffffffffffffffffffffffffffffff1673ffffffffffffffffffffffffffffffffffffffff1681525090505f6103e890505f807fffffffffffffffffffffffffffffffffffffffffffffffffffffffffffffffff90505f5b6003811015610404575f7f6e71edae12b1b97f4d1f60370fef10105fa2faae0126114a169c64845d6126c986836003811061028657610285610539565b5b6020020151308787876040516020016102a496959493929190610566565b6040516020818303038152906040528051906020012090505f600254826040516020016102d2929190610639565b6040516020818303038152906040528051906020012090505f601b90505f7f1234567890abcdef1234567890abcdef1234567890abcdef1234567890abcdef5f1b90505f7fabcdefabcdefabcdefabcdefabcdefabcdefabcdefabcdefabcdefabcdefabcd5f1b905060405180608001604052808460ff1681526020018381526020018281526020018881525060015f8c896003811061037557610374610539565b5b602002015173ffffffffffffffffffffffffffffffffffffffff1673ffffffffffffffffffffffffffffffffffffffff1681526020019081526020015f205f820151815f015f6101000a81548160ff021916908360ff16021790555060208201518160010155604082015181600201556060820151816003015590505050505050508080600101915050610248565b50505050505061066f565b5f80fd5b5f73ffffffffffffffffffffffffffffffffffffffff82169050919050565b5f61043c82610413565b9050919050565b5f61044d82610432565b9050919050565b61045d81610443565b8114610467575f80fd5b50565b5f8151905061047881610454565b92915050565b5f602082840312156104935761049261040f565b5b5f6104a08482850161046a565b91505092915050565b5f819050919050565b6104bb816104a9565b82525050565b5f819050919050565b6104d3816104c1565b82525050565b6104e281610432565b82525050565b5f60a0820190506104fb5f8301886104b2565b61050860208301876104b2565b61051560408301866104b2565b61052260608301856104ca565b61052f60808301846104d9565b9695505050505050565b7f4e487b71000000000000000000000000000000000000000000000000000000005f52603260045260245ffd5b5f60c0820190506105795f8301896104b2565b61058660208301886104d9565b61059360408301876104d9565b6105a060608301866104ca565b6105ad60808301856104ca565b6105ba60a08301846104ca565b979650505050505050565b5f81905092915050565b7f19010000000000000000000000000000000000000000000000000000000000005f82015250565b5f6106036002836105c5565b915061060e826105cf565b600282019050919050565b5f819050919050565b61063361062e826104a9565b610619565b82525050565b5f610643826105f7565b915061064f8285610622565b60208201915061065f8284610622565b6020820191508190509392505050565b6103638061067c5f395ff3fe608060405234801561000f575f80fd5b506004361061004a575f3560e01c806330adf81f1461004e5780633644e5151461006c57806359cae4c11461008a578063a13c8acd146100bd575b5f80fd5b6100566100f0565b6040516100639190610215565b60405180910390f35b610074610114565b6040516100819190610215565b60405180910390f35b6100a4600480360381019061009f919061028c565b61011a565b6040516100b494939291906102ea565b60405180910390f35b6100d760048036038101906100d2919061028c565b610152565b6040516100e794939291906102ea565b60405180910390f35b7f6e71edae12b1b97f4d1f60370fef10105fa2faae0126114a169c64845d6126c981565b60025481565b6001602052805f5260405f205f91509050805f015f9054906101000a900460ff16908060010154908060020154908060030154905084565b5f805f805f60015f8773ffffffffffffffffffffffffffffffffffffffff1673ffffffffffffffffffffffffffffffffffffffff1681526020019081526020015f206040518060800160405290815f82015f9054906101000a900460ff1660ff1660ff16815260200160018201548152602001600282015481526020016003820154815250509050805f01518160200151826040015183606001519450945094509450509193509193565b5f819050919050565b61020f816101fd565b82525050565b5f6020820190506102285f830184610206565b92915050565b5f80fd5b5f73ffffffffffffffffffffffffffffffffffffffff82169050919050565b5f61025b82610232565b9050919050565b61026b81610251565b8114610275575f80fd5b50565b5f8135905061028681610262565b92915050565b5f602082840312156102a1576102a061022e565b5b5f6102ae84828501610278565b91505092915050565b5f60ff82169050919050565b6102cc816102b7565b82525050565b5f819050919050565b6102e4816102d2565b82525050565b5f6080820190506102fd5f8301876102c3565b61030a6020830186610206565b6103176040830185610206565b61032460608301846102db565b9594505050505056fea26469706673582212204b8df7b73f25e5a7410badf32f5e2b121512611e9adc0deaee0b237591ec1f6764736f6c634300081a0033",
			"opcodes": "PUSH1 0x80 PUSH1 0x40 MSTORE CALLVALUE DUP1 ISZERO PUSH2 0xF JUMPI PUSH0 DUP1 REVERT JUMPDEST POP PUSH1 0x40 MLOAD PUSH2 0x9DF CODESIZE SUB DUP1 PUSH2 0x9DF DUP4 CODECOPY DUP2 DUP2 ADD PUSH1 0x40 MSTORE DUP2 ADD SWAP1 PUSH2 0x31 SWAP2 SWAP1 PUSH2 0x47E JUMP JUMPDEST DUP1 PUSH0 DUP1 PUSH2 0x100 EXP DUP2 SLOAD DUP2 PUSH20 0xFFFFFFFFFFFFFFFFFFFFFFFFFFFFFFFFFFFFFFFF MUL NOT AND SWAP1 DUP4 PUSH20 0xFFFFFFFFFFFFFFFFFFFFFFFFFFFFFFFFFFFFFFFF AND MUL OR SWAP1 SSTORE POP PUSH32 0x8B73C3C69BB8FE3D512ECC4CF759CC79239F7B179B0FFACAA9A75D522B39400F PUSH1 0x40 MLOAD DUP1 PUSH1 0x40 ADD PUSH1 0x40 MSTORE DUP1 PUSH1 0x7 DUP2 MSTORE PUSH1 0x20 ADD PUSH32 0x4353546F6B656E00000000000000000000000000000000000000000000000000 DUP2 MSTORE POP DUP1 MLOAD SWAP1 PUSH1 0x20 ADD KECCAK256 PUSH1 0x40 MLOAD DUP1 PUSH1 0x40 ADD PUSH1 0x40 MSTORE DUP1 PUSH1 0x1 DUP2 MSTORE PUSH1 0x20 ADD PUSH32 0x3100000000000000000000000000000000000000000000000000000000000000 DUP2 MSTORE POP DUP1 MLOAD SWAP1 PUSH1 0x20 ADD KECCAK256 CHAINID DUP5 PUSH1 0x40 MLOAD PUSH1 0x20 ADD PUSH2 0x121 SWAP6 SWAP5 SWAP4 SWAP3 SWAP2 SWAP1 PUSH2 0x4E8 JUMP JUMPDEST PUSH1 0x40 MLOAD PUSH1 0x20 DUP2 DUP4 SUB SUB DUP2 MSTORE SWAP1 PUSH1 0x40 MSTORE DUP1 MLOAD SWAP1 PUSH1 0x20 ADD KECCAK256 PUSH1 0x2 DUP2 SWAP1 SSTORE POP PUSH0 PUSH1 0x40 MLOAD DUP1 PUSH1 0x60 ADD PUSH1 0x40 MSTORE DUP1 PUSH20 0x5B38DA6A701C568545DCFCB03FCB875F56BEDDC4 PUSH20 0xFFFFFFFFFFFFFFFFFFFFFFFFFFFFFFFFFFFFFFFF AND PUSH20 0xFFFFFFFFFFFFFFFFFFFFFFFFFFFFFFFFFFFFFFFF AND DUP2 MSTORE PUSH1 0x20 ADD PUSH20 0xAB8483F64D9C6D1ECF9B849AE677DD3315835CB2 PUSH20 0xFFFFFFFFFFFFFFFFFFFFFFFFFFFFFFFFFFFFFFFF AND PUSH20 0xFFFFFFFFFFFFFFFFFFFFFFFFFFFFFFFFFFFFFFFF AND DUP2 MSTORE PUSH1 0x20 ADD PUSH20 0x4B20993BC481177EC7E8F571CECAE8A9E22C02DB PUSH20 0xFFFFFFFFFFFFFFFFFFFFFFFFFFFFFFFFFFFFFFFF AND PUSH20 0xFFFFFFFFFFFFFFFFFFFFFFFFFFFFFFFFFFFFFFFF AND DUP2 MSTORE POP SWAP1 POP PUSH0 PUSH2 0x3E8 SWAP1 POP PUSH0 DUP1 PUSH32 0xFFFFFFFFFFFFFFFFFFFFFFFFFFFFFFFFFFFFFFFFFFFFFFFFFFFFFFFFFFFFFFFF SWAP1 POP PUSH0 JUMPDEST PUSH1 0x3 DUP2 LT ISZERO PUSH2 0x404 JUMPI PUSH0 PUSH32 0x6E71EDAE12B1B97F4D1F60370FEF10105FA2FAAE0126114A169C64845D6126C9 DUP7 DUP4 PUSH1 0x3 DUP2 LT PUSH2 0x286 JUMPI PUSH2 0x285 PUSH2 0x539 JUMP JUMPDEST JUMPDEST PUSH1 0x20 MUL ADD MLOAD ADDRESS DUP8 DUP8 DUP8 PUSH1 0x40 MLOAD PUSH1 0x20 ADD PUSH2 0x2A4 SWAP7 SWAP6 SWAP5 SWAP4 SWAP3 SWAP2 SWAP1 PUSH2 0x566 JUMP JUMPDEST PUSH1 0x40 MLOAD PUSH1 0x20 DUP2 DUP4 SUB SUB DUP2 MSTORE SWAP1 PUSH1 0x40 MSTORE DUP1 MLOAD SWAP1 PUSH1 0x20 ADD KECCAK256 SWAP1 POP PUSH0 PUSH1 0x2 SLOAD DUP3 PUSH1 0x40 MLOAD PUSH1 0x20 ADD PUSH2 0x2D2 SWAP3 SWAP2 SWAP1 PUSH2 0x639 JUMP JUMPDEST PUSH1 0x40 MLOAD PUSH1 0x20 DUP2 DUP4 SUB SUB DUP2 MSTORE SWAP1 PUSH1 0x40 MSTORE DUP1 MLOAD SWAP1 PUSH1 0x20 ADD KECCAK256 SWAP1 POP PUSH0 PUSH1 0x1B SWAP1 POP PUSH0 PUSH32 0x1234567890ABCDEF1234567890ABCDEF1234567890ABCDEF1234567890ABCDEF PUSH0 SHL SWAP1 POP PUSH0 PUSH32 0xABCDEFABCDEFABCDEFABCDEFABCDEFABCDEFABCDEFABCDEFABCDEFABCDEFABCD PUSH0 SHL SWAP1 POP PUSH1 0x40 MLOAD DUP1 PUSH1 0x80 ADD PUSH1 0x40 MSTORE DUP1 DUP5 PUSH1 0xFF AND DUP2 MSTORE PUSH1 0x20 ADD DUP4 DUP2 MSTORE PUSH1 0x20 ADD DUP3 DUP2 MSTORE PUSH1 0x20 ADD DUP9 DUP2 MSTORE POP PUSH1 0x1 PUSH0 DUP13 DUP10 PUSH1 0x3 DUP2 LT PUSH2 0x375 JUMPI PUSH2 0x374 PUSH2 0x539 JUMP JUMPDEST JUMPDEST PUSH1 0x20 MUL ADD MLOAD PUSH20 0xFFFFFFFFFFFFFFFFFFFFFFFFFFFFFFFFFFFFFFFF AND PUSH20 0xFFFFFFFFFFFFFFFFFFFFFFFFFFFFFFFFFFFFFFFF AND DUP2 MSTORE PUSH1 0x20 ADD SWAP1 DUP2 MSTORE PUSH1 0x20 ADD PUSH0 KECCAK256 PUSH0 DUP3 ADD MLOAD DUP2 PUSH0 ADD PUSH0 PUSH2 0x100 EXP DUP2 SLOAD DUP2 PUSH1 0xFF MUL NOT AND SWAP1 DUP4 PUSH1 0xFF AND MUL OR SWAP1 SSTORE POP PUSH1 0x20 DUP3 ADD MLOAD DUP2 PUSH1 0x1 ADD SSTORE PUSH1 0x40 DUP3 ADD MLOAD DUP2 PUSH1 0x2 ADD SSTORE PUSH1 0x60 DUP3 ADD MLOAD DUP2 PUSH1 0x3 ADD SSTORE SWAP1 POP POP POP POP POP POP POP DUP1 DUP1 PUSH1 0x1 ADD SWAP2 POP POP PUSH2 0x248 JUMP JUMPDEST POP POP POP POP POP POP PUSH2 0x66F JUMP JUMPDEST PUSH0 DUP1 REVERT JUMPDEST PUSH0 PUSH20 0xFFFFFFFFFFFFFFFFFFFFFFFFFFFFFFFFFFFFFFFF DUP3 AND SWAP1 POP SWAP2 SWAP1 POP JUMP JUMPDEST PUSH0 PUSH2 0x43C DUP3 PUSH2 0x413 JUMP JUMPDEST SWAP1 POP SWAP2 SWAP1 POP JUMP JUMPDEST PUSH0 PUSH2 0x44D DUP3 PUSH2 0x432 JUMP JUMPDEST SWAP1 POP SWAP2 SWAP1 POP JUMP JUMPDEST PUSH2 0x45D DUP2 PUSH2 0x443 JUMP JUMPDEST DUP2 EQ PUSH2 0x467 JUMPI PUSH0 DUP1 REVERT JUMPDEST POP JUMP JUMPDEST PUSH0 DUP2 MLOAD SWAP1 POP PUSH2 0x478 DUP2 PUSH2 0x454 JUMP JUMPDEST SWAP3 SWAP2 POP POP JUMP JUMPDEST PUSH0 PUSH1 0x20 DUP3 DUP5 SUB SLT ISZERO PUSH2 0x493 JUMPI PUSH2 0x492 PUSH2 0x40F JUMP JUMPDEST JUMPDEST PUSH0 PUSH2 0x4A0 DUP5 DUP3 DUP6 ADD PUSH2 0x46A JUMP JUMPDEST SWAP2 POP POP SWAP3 SWAP2 POP POP JUMP JUMPDEST PUSH0 DUP2 SWAP1 POP SWAP2 SWAP1 POP JUMP JUMPDEST PUSH2 0x4BB DUP2 PUSH2 0x4A9 JUMP JUMPDEST DUP3 MSTORE POP POP JUMP JUMPDEST PUSH0 DUP2 SWAP1 POP SWAP2 SWAP1 POP JUMP JUMPDEST PUSH2 0x4D3 DUP2 PUSH2 0x4C1 JUMP JUMPDEST DUP3 MSTORE POP POP JUMP JUMPDEST PUSH2 0x4E2 DUP2 PUSH2 0x432 JUMP JUMPDEST DUP3 MSTORE POP POP JUMP JUMPDEST PUSH0 PUSH1 0xA0 DUP3 ADD SWAP1 POP PUSH2 0x4FB PUSH0 DUP4 ADD DUP9 PUSH2 0x4B2 JUMP JUMPDEST PUSH2 0x508 PUSH1 0x20 DUP4 ADD DUP8 PUSH2 0x4B2 JUMP JUMPDEST PUSH2 0x515 PUSH1 0x40 DUP4 ADD DUP7 PUSH2 0x4B2 JUMP JUMPDEST PUSH2 0x522 PUSH1 0x60 DUP4 ADD DUP6 PUSH2 0x4CA JUMP JUMPDEST PUSH2 0x52F PUSH1 0x80 DUP4 ADD DUP5 PUSH2 0x4D9 JUMP JUMPDEST SWAP7 SWAP6 POP POP POP POP POP POP JUMP JUMPDEST PUSH32 0x4E487B7100000000000000000000000000000000000000000000000000000000 PUSH0 MSTORE PUSH1 0x32 PUSH1 0x4 MSTORE PUSH1 0x24 PUSH0 REVERT JUMPDEST PUSH0 PUSH1 0xC0 DUP3 ADD SWAP1 POP PUSH2 0x579 PUSH0 DUP4 ADD DUP10 PUSH2 0x4B2 JUMP JUMPDEST PUSH2 0x586 PUSH1 0x20 DUP4 ADD DUP9 PUSH2 0x4D9 JUMP JUMPDEST PUSH2 0x593 PUSH1 0x40 DUP4 ADD DUP8 PUSH2 0x4D9 JUMP JUMPDEST PUSH2 0x5A0 PUSH1 0x60 DUP4 ADD DUP7 PUSH2 0x4CA JUMP JUMPDEST PUSH2 0x5AD PUSH1 0x80 DUP4 ADD DUP6 PUSH2 0x4CA JUMP JUMPDEST PUSH2 0x5BA PUSH1 0xA0 DUP4 ADD DUP5 PUSH2 0x4CA JUMP JUMPDEST SWAP8 SWAP7 POP POP POP POP POP POP POP JUMP JUMPDEST PUSH0 DUP2 SWAP1 POP SWAP3 SWAP2 POP POP JUMP JUMPDEST PUSH32 0x1901000000000000000000000000000000000000000000000000000000000000 PUSH0 DUP3 ADD MSTORE POP JUMP JUMPDEST PUSH0 PUSH2 0x603 PUSH1 0x2 DUP4 PUSH2 0x5C5 JUMP JUMPDEST SWAP2 POP PUSH2 0x60E DUP3 PUSH2 0x5CF JUMP JUMPDEST PUSH1 0x2 DUP3 ADD SWAP1 POP SWAP2 SWAP1 POP JUMP JUMPDEST PUSH0 DUP2 SWAP1 POP SWAP2 SWAP1 POP JUMP JUMPDEST PUSH2 0x633 PUSH2 0x62E DUP3 PUSH2 0x4A9 JUMP JUMPDEST PUSH2 0x619 JUMP JUMPDEST DUP3 MSTORE POP POP JUMP JUMPDEST PUSH0 PUSH2 0x643 DUP3 PUSH2 0x5F7 JUMP JUMPDEST SWAP2 POP PUSH2 0x64F DUP3 DUP6 PUSH2 0x622 JUMP JUMPDEST PUSH1 0x20 DUP3 ADD SWAP2 POP PUSH2 0x65F DUP3 DUP5 PUSH2 0x622 JUMP JUMPDEST PUSH1 0x20 DUP3 ADD SWAP2 POP DUP2 SWAP1 POP SWAP4 SWAP3 POP POP POP JUMP JUMPDEST PUSH2 0x363 DUP1 PUSH2 0x67C PUSH0 CODECOPY PUSH0 RETURN INVALID PUSH1 0x80 PUSH1 0x40 MSTORE CALLVALUE DUP1 ISZERO PUSH2 0xF JUMPI PUSH0 DUP1 REVERT JUMPDEST POP PUSH1 0x4 CALLDATASIZE LT PUSH2 0x4A JUMPI PUSH0 CALLDATALOAD PUSH1 0xE0 SHR DUP1 PUSH4 0x30ADF81F EQ PUSH2 0x4E JUMPI DUP1 PUSH4 0x3644E515 EQ PUSH2 0x6C JUMPI DUP1 PUSH4 0x59CAE4C1 EQ PUSH2 0x8A JUMPI DUP1 PUSH4 0xA13C8ACD EQ PUSH2 0xBD JUMPI JUMPDEST PUSH0 DUP1 REVERT JUMPDEST PUSH2 0x56 PUSH2 0xF0 JUMP JUMPDEST PUSH1 0x40 MLOAD PUSH2 0x63 SWAP2 SWAP1 PUSH2 0x215 JUMP JUMPDEST PUSH1 0x40 MLOAD DUP1 SWAP2 SUB SWAP1 RETURN JUMPDEST PUSH2 0x74 PUSH2 0x114 JUMP JUMPDEST PUSH1 0x40 MLOAD PUSH2 0x81 SWAP2 SWAP1 PUSH2 0x215 JUMP JUMPDEST PUSH1 0x40 MLOAD DUP1 SWAP2 SUB SWAP1 RETURN JUMPDEST PUSH2 0xA4 PUSH1 0x4 DUP1 CALLDATASIZE SUB DUP2 ADD SWAP1 PUSH2 0x9F SWAP2 SWAP1 PUSH2 0x28C JUMP JUMPDEST PUSH2 0x11A JUMP JUMPDEST PUSH1 0x40 MLOAD PUSH2 0xB4 SWAP5 SWAP4 SWAP3 SWAP2 SWAP1 PUSH2 0x2EA JUMP JUMPDEST PUSH1 0x40 MLOAD DUP1 SWAP2 SUB SWAP1 RETURN JUMPDEST PUSH2 0xD7 PUSH1 0x4 DUP1 CALLDATASIZE SUB DUP2 ADD SWAP1 PUSH2 0xD2 SWAP2 SWAP1 PUSH2 0x28C JUMP JUMPDEST PUSH2 0x152 JUMP JUMPDEST PUSH1 0x40 MLOAD PUSH2 0xE7 SWAP5 SWAP4 SWAP3 SWAP2 SWAP1 PUSH2 0x2EA JUMP JUMPDEST PUSH1 0x40 MLOAD DUP1 SWAP2 SUB SWAP1 RETURN JUMPDEST PUSH32 0x6E71EDAE12B1B97F4D1F60370FEF10105FA2FAAE0126114A169C64845D6126C9 DUP2 JUMP JUMPDEST PUSH1 0x2 SLOAD DUP2 JUMP JUMPDEST PUSH1 0x1 PUSH1 0x20 MSTORE DUP1 PUSH0 MSTORE PUSH1 0x40 PUSH0 KECCAK256 PUSH0 SWAP2 POP SWAP1 POP DUP1 PUSH0 ADD PUSH0 SWAP1 SLOAD SWAP1 PUSH2 0x100 EXP SWAP1 DIV PUSH1 0xFF AND SWAP1 DUP1 PUSH1 0x1 ADD SLOAD SWAP1 DUP1 PUSH1 0x2 ADD SLOAD SWAP1 DUP1 PUSH1 0x3 ADD SLOAD SWAP1 POP DUP5 JUMP JUMPDEST PUSH0 DUP1 PUSH0 DUP1 PUSH0 PUSH1 0x1 PUSH0 DUP8 PUSH20 0xFFFFFFFFFFFFFFFFFFFFFFFFFFFFFFFFFFFFFFFF AND PUSH20 0xFFFFFFFFFFFFFFFFFFFFFFFFFFFFFFFFFFFFFFFF AND DUP2 MSTORE PUSH1 0x20 ADD SWAP1 DUP2 MSTORE PUSH1 0x20 ADD PUSH0 KECCAK256 PUSH1 0x40 MLOAD DUP1 PUSH1 0x80 ADD PUSH1 0x40 MSTORE SWAP1 DUP2 PUSH0 DUP3 ADD PUSH0 SWAP1 SLOAD SWAP1 PUSH2 0x100 EXP SWAP1 DIV PUSH1 0xFF AND PUSH1 0xFF AND PUSH1 0xFF AND DUP2 MSTORE PUSH1 0x20 ADD PUSH1 0x1 DUP3 ADD SLOAD DUP2 MSTORE PUSH1 0x20 ADD PUSH1 0x2 DUP3 ADD SLOAD DUP2 MSTORE PUSH1 0x20 ADD PUSH1 0x3 DUP3 ADD SLOAD DUP2 MSTORE POP POP SWAP1 POP DUP1 PUSH0 ADD MLOAD DUP2 PUSH1 0x20 ADD MLOAD DUP3 PUSH1 0x40 ADD MLOAD DUP4 PUSH1 0x60 ADD MLOAD SWAP5 POP SWAP5 POP SWAP5 POP SWAP5 POP POP SWAP2 SWAP4 POP SWAP2 SWAP4 JUMP JUMPDEST PUSH0 DUP2 SWAP1 POP SWAP2 SWAP1 POP JUMP JUMPDEST PUSH2 0x20F DUP2 PUSH2 0x1FD JUMP JUMPDEST DUP3 MSTORE POP POP JUMP JUMPDEST PUSH0 PUSH1 0x20 DUP3 ADD SWAP1 POP PUSH2 0x228 PUSH0 DUP4 ADD DUP5 PUSH2 0x206 JUMP JUMPDEST SWAP3 SWAP2 POP POP JUMP JUMPDEST PUSH0 DUP1 REVERT JUMPDEST PUSH0 PUSH20 0xFFFFFFFFFFFFFFFFFFFFFFFFFFFFFFFFFFFFFFFF DUP3 AND SWAP1 POP SWAP2 SWAP1 POP JUMP JUMPDEST PUSH0 PUSH2 0x25B DUP3 PUSH2 0x232 JUMP JUMPDEST SWAP1 POP SWAP2 SWAP1 POP JUMP JUMPDEST PUSH2 0x26B DUP2 PUSH2 0x251 JUMP JUMPDEST DUP2 EQ PUSH2 0x275 JUMPI PUSH0 DUP1 REVERT JUMPDEST POP JUMP JUMPDEST PUSH0 DUP2 CALLDATALOAD SWAP1 POP PUSH2 0x286 DUP2 PUSH2 0x262 JUMP JUMPDEST SWAP3 SWAP2 POP POP JUMP JUMPDEST PUSH0 PUSH1 0x20 DUP3 DUP5 SUB SLT ISZERO PUSH2 0x2A1 JUMPI PUSH2 0x2A0 PUSH2 0x22E JUMP JUMPDEST JUMPDEST PUSH0 PUSH2 0x2AE DUP5 DUP3 DUP6 ADD PUSH2 0x278 JUMP JUMPDEST SWAP2 POP POP SWAP3 SWAP2 POP POP JUMP JUMPDEST PUSH0 PUSH1 0xFF DUP3 AND SWAP1 POP SWAP2 SWAP1 POP JUMP JUMPDEST PUSH2 0x2CC DUP2 PUSH2 0x2B7 JUMP JUMPDEST DUP3 MSTORE POP POP JUMP JUMPDEST PUSH0 DUP2 SWAP1 POP SWAP2 SWAP1 POP JUMP JUMPDEST PUSH2 0x2E4 DUP2 PUSH2 0x2D2 JUMP JUMPDEST DUP3 MSTORE POP POP JUMP JUMPDEST PUSH0 PUSH1 0x80 DUP3 ADD SWAP1 POP PUSH2 0x2FD PUSH0 DUP4 ADD DUP8 PUSH2 0x2C3 JUMP JUMPDEST PUSH2 0x30A PUSH1 0x20 DUP4 ADD DUP7 PUSH2 0x206 JUMP JUMPDEST PUSH2 0x317 PUSH1 0x40 DUP4 ADD DUP6 PUSH2 0x206 JUMP JUMPDEST PUSH2 0x324 PUSH1 0x60 DUP4 ADD DUP5 PUSH2 0x2DB JUMP JUMPDEST SWAP6 SWAP5 POP POP POP POP POP JUMP INVALID LOG2 PUSH5 0x6970667358 0x22 SLT KECCAK256 0x4B DUP14 0xF7 0xB7 EXTCODEHASH 0x25 0xE5 0xA7 COINBASE SIGNEXTEND 0xAD RETURN 0x2F MCOPY 0x2B SLT ISZERO SLT PUSH2 0x1E9A 0xDC 0xD 0xEA 0xEE SIGNEXTEND 0x23 PUSH22 0x91EC1F6764736F6C634300081A003300000000000000 "
		},
		"gasEstimates": {
			"creation": {
				"codeDepositCost": "173400",
				"executionCost": "infinite",
				"totalCost": "infinite"
			},
			"external": {
				"DOMAIN_SEPARATOR()": "2425",
				"PERMIT_TYPEHASH()": "303",
				"fetchSignature(address)": "infinite",
				"signatureStore(address)": "infinite"
			}
		},
		"methodIdentifiers": {
			"DOMAIN_SEPARATOR()": "3644e515",
			"PERMIT_TYPEHASH()": "30adf81f",
			"fetchSignature(address)": "a13c8acd",
			"signatureStore(address)": "59cae4c1"
		}
	},
	"abi": [
		{
			"inputs": [
				{
					"internalType": "contract CSToken",
					"name": "_token",
					"type": "address"
				}
			],
			"stateMutability": "nonpayable",
			"type": "constructor"
		},
		{
			"inputs": [],
			"name": "DOMAIN_SEPARATOR",
			"outputs": [
				{
					"internalType": "bytes32",
					"name": "",
					"type": "bytes32"
				}
			],
			"stateMutability": "view",
			"type": "function"
		},
		{
			"inputs": [],
			"name": "PERMIT_TYPEHASH",
			"outputs": [
				{
					"internalType": "bytes32",
					"name": "",
					"type": "bytes32"
				}
			],
			"stateMutability": "view",
			"type": "function"
		},
		{
			"inputs": [
				{
					"internalType": "address",
					"name": "owner",
					"type": "address"
				}
			],
			"name": "fetchSignature",
			"outputs": [
				{
					"internalType": "uint8",
					"name": "",
					"type": "uint8"
				},
				{
					"internalType": "bytes32",
					"name": "",
					"type": "bytes32"
				},
				{
					"internalType": "bytes32",
					"name": "",
					"type": "bytes32"
				},
				{
					"internalType": "uint256",
					"name": "",
					"type": "uint256"
				}
			],
			"stateMutability": "view",
			"type": "function"
		},
		{
			"inputs": [
				{
					"internalType": "address",
					"name": "",
					"type": "address"
				}
			],
			"name": "signatureStore",
			"outputs": [
				{
					"internalType": "uint8",
					"name": "v",
					"type": "uint8"
				},
				{
					"internalType": "bytes32",
					"name": "r",
					"type": "bytes32"
				},
				{
					"internalType": "bytes32",
					"name": "s",
					"type": "bytes32"
				},
				{
					"internalType": "uint256",
					"name": "deadline",
					"type": "uint256"
				}
			],
			"stateMutability": "view",
			"type": "function"
		}
	]
}