{
  "contractName": "Marketplace",
  "abi": [
    {
      "inputs": [
        {
          "internalType": "contract CSToken",
          "name": "_token",
          "type": "address"
        },
        {
          "internalType": "contract InsuranceCompany",
          "name": "_company",
          "type": "address"
        }
      ],
      "stateMutability": "nonpayable",
      "type": "constructor"
    },
    {
      "anonymous": false,
      "inputs": [
        {
          "indexed": true,
          "internalType": "address",
          "name": "buyer",
          "type": "address"
        },
        {
          "indexed": true,
          "internalType": "uint256",
          "name": "policyId",
          "type": "uint256"
        },
        {
          "components": [
            {
              "internalType": "uint256",
              "name": "year",
              "type": "uint256"
            },
            {
              "internalType": "uint256",
              "name": "month",
              "type": "uint256"
            },
            {
              "internalType": "uint256",
              "name": "day",
              "type": "uint256"
            }
          ],
          "indexed": false,
          "internalType": "struct Marketplace.Date",
          "name": "coverageStartTimestamp",
          "type": "tuple"
        },
        {
          "components": [
            {
              "internalType": "uint256",
              "name": "year",
              "type": "uint256"
            },
            {
              "internalType": "uint256",
              "name": "month",
              "type": "uint256"
            },
            {
              "internalType": "uint256",
              "name": "day",
              "type": "uint256"
            }
          ],
          "indexed": false,
          "internalType": "struct Marketplace.Date",
          "name": "coverageEndTimestamp",
          "type": "tuple"
        },
        {
          "indexed": false,
          "internalType": "uint256",
          "name": "ownedCSTokens",
          "type": "uint256"
        }
      ],
      "name": "PolicyBought",
      "type": "event"
    },
    {
      "anonymous": false,
      "inputs": [
        {
          "indexed": false,
          "internalType": "uint256",
          "name": "policyId",
          "type": "uint256"
        },
        {
          "indexed": false,
          "internalType": "uint256",
          "name": "claimAmount",
          "type": "uint256"
        }
      ],
      "name": "PolicyClaimed",
      "type": "event"
    },
    {
      "anonymous": false,
      "inputs": [
        {
          "indexed": true,
          "internalType": "address",
          "name": "creator",
          "type": "address"
        },
        {
          "indexed": false,
          "internalType": "uint256",
          "name": "amount",
          "type": "uint256"
        }
      ],
      "name": "TokensListed",
      "type": "event"
    },
    {
      "inputs": [
        {
          "internalType": "uint256",
          "name": "",
          "type": "uint256"
        }
      ],
      "name": "policyDeposits",
      "outputs": [
        {
          "internalType": "uint256",
          "name": "",
          "type": "uint256"
        }
      ],
      "stateMutability": "view",
      "type": "function"
    },
    {
      "inputs": [
        {
          "internalType": "address",
          "name": "",
          "type": "address"
        },
        {
          "internalType": "uint256",
          "name": "",
          "type": "uint256"
        }
      ],
      "name": "policyHolders",
      "outputs": [
        {
          "components": [
            {
              "internalType": "uint256",
              "name": "policyId",
              "type": "uint256"
            },
            {
              "internalType": "string",
              "name": "policyName",
              "type": "string"
            },
            {
              "internalType": "string",
              "name": "policyType",
              "type": "string"
            },
            {
              "internalType": "uint256",
              "name": "claimBackRate",
              "type": "uint256"
            },
            {
              "internalType": "uint256",
              "name": "maxPoolValue",
              "type": "uint256"
            },
            {
              "internalType": "uint256",
              "name": "currPoolValue",
              "type": "uint256"
            },
            {
              "internalType": "uint256",
              "name": "minStake",
              "type": "uint256"
            },
            {
              "internalType": "uint256",
              "name": "coveragePeriod",
              "type": "uint256"
            },
            {
              "internalType": "address",
              "name": "creator",
              "type": "address"
            },
            {
              "internalType": "bool",
              "name": "listed",
              "type": "bool"
            }
          ],
          "internalType": "struct InsuranceCompany.Policy",
          "name": "boughtPolicy",
          "type": "tuple"
        },
        {
          "internalType": "uint256",
          "name": "coverageStartTimestamp",
          "type": "uint256"
        },
        {
          "internalType": "uint256",
          "name": "coverageEndTimestamp",
          "type": "uint256"
        },
        {
          "components": [
            {
              "internalType": "uint256",
              "name": "year",
              "type": "uint256"
            },
            {
              "internalType": "uint256",
              "name": "month",
              "type": "uint256"
            },
            {
              "internalType": "uint256",
              "name": "day",
              "type": "uint256"
            }
          ],
          "internalType": "struct Marketplace.Date",
          "name": "coverageStartDate",
          "type": "tuple"
        },
        {
          "components": [
            {
              "internalType": "uint256",
              "name": "year",
              "type": "uint256"
            },
            {
              "internalType": "uint256",
              "name": "month",
              "type": "uint256"
            },
            {
              "internalType": "uint256",
              "name": "day",
              "type": "uint256"
            }
          ],
          "internalType": "struct Marketplace.Date",
          "name": "coverageEndDate",
          "type": "tuple"
        },
        {
          "internalType": "uint256",
          "name": "ownedCSTokens",
          "type": "uint256"
        }
      ],
      "stateMutability": "view",
      "type": "function"
    },
    {
      "inputs": [
        {
          "internalType": "uint256",
          "name": "policyId",
          "type": "uint256"
        }
      ],
      "name": "listPolicy",
      "outputs": [],
      "stateMutability": "nonpayable",
      "type": "function"
    },
    {
      "inputs": [],
      "name": "viewListedPolicies",
      "outputs": [
        {
          "components": [
            {
              "internalType": "uint256",
              "name": "policyId",
              "type": "uint256"
            },
            {
              "internalType": "string",
              "name": "policyName",
              "type": "string"
            },
            {
              "internalType": "string",
              "name": "policyType",
              "type": "string"
            },
            {
              "internalType": "uint256",
              "name": "claimBackRate",
              "type": "uint256"
            },
            {
              "internalType": "uint256",
              "name": "maxPoolValue",
              "type": "uint256"
            },
            {
              "internalType": "uint256",
              "name": "currPoolValue",
              "type": "uint256"
            },
            {
              "internalType": "uint256",
              "name": "minStake",
              "type": "uint256"
            },
            {
              "internalType": "uint256",
              "name": "coveragePeriod",
              "type": "uint256"
            },
            {
              "internalType": "address",
              "name": "creator",
              "type": "address"
            },
            {
              "internalType": "bool",
              "name": "listed",
              "type": "bool"
            }
          ],
          "internalType": "struct InsuranceCompany.Policy[]",
          "name": "",
          "type": "tuple[]"
        }
      ],
      "stateMutability": "view",
      "type": "function"
    },
    {
      "inputs": [
        {
          "internalType": "uint256",
          "name": "policyId",
          "type": "uint256"
        }
      ],
      "name": "buyPolicy",
      "outputs": [],
      "stateMutability": "payable",
      "type": "function"
    },
    {
      "inputs": [
        {
          "internalType": "uint256",
          "name": "policyId",
          "type": "uint256"
        }
      ],
      "name": "claimPolicy",
      "outputs": [],
      "stateMutability": "nonpayable",
      "type": "function"
    },
    {
      "inputs": [],
      "name": "viewMyBoughtPolicies",
      "outputs": [
        {
          "components": [
            {
              "components": [
                {
                  "internalType": "uint256",
                  "name": "policyId",
                  "type": "uint256"
                },
                {
                  "internalType": "string",
                  "name": "policyName",
                  "type": "string"
                },
                {
                  "internalType": "string",
                  "name": "policyType",
                  "type": "string"
                },
                {
                  "internalType": "uint256",
                  "name": "claimBackRate",
                  "type": "uint256"
                },
                {
                  "internalType": "uint256",
                  "name": "maxPoolValue",
                  "type": "uint256"
                },
                {
                  "internalType": "uint256",
                  "name": "currPoolValue",
                  "type": "uint256"
                },
                {
                  "internalType": "uint256",
                  "name": "minStake",
                  "type": "uint256"
                },
                {
                  "internalType": "uint256",
                  "name": "coveragePeriod",
                  "type": "uint256"
                },
                {
                  "internalType": "address",
                  "name": "creator",
                  "type": "address"
                },
                {
                  "internalType": "bool",
                  "name": "listed",
                  "type": "bool"
                }
              ],
              "internalType": "struct InsuranceCompany.Policy",
              "name": "boughtPolicy",
              "type": "tuple"
            },
            {
              "internalType": "uint256",
              "name": "coverageStartTimestamp",
              "type": "uint256"
            },
            {
              "internalType": "uint256",
              "name": "coverageEndTimestamp",
              "type": "uint256"
            },
            {
              "components": [
                {
                  "internalType": "uint256",
                  "name": "year",
                  "type": "uint256"
                },
                {
                  "internalType": "uint256",
                  "name": "month",
                  "type": "uint256"
                },
                {
                  "internalType": "uint256",
                  "name": "day",
                  "type": "uint256"
                }
              ],
              "internalType": "struct Marketplace.Date",
              "name": "coverageStartDate",
              "type": "tuple"
            },
            {
              "components": [
                {
                  "internalType": "uint256",
                  "name": "year",
                  "type": "uint256"
                },
                {
                  "internalType": "uint256",
                  "name": "month",
                  "type": "uint256"
                },
                {
                  "internalType": "uint256",
                  "name": "day",
                  "type": "uint256"
                }
              ],
              "internalType": "struct Marketplace.Date",
              "name": "coverageEndDate",
              "type": "tuple"
            },
            {
              "internalType": "uint256",
              "name": "ownedCSTokens",
              "type": "uint256"
            }
          ],
          "internalType": "struct Marketplace.BuyerPolicy[]",
          "name": "",
          "type": "tuple[]"
        }
      ],
      "stateMutability": "view",
      "type": "function"
    }
  ],
  "bytecode": "0x6080604052426002553480156200001557600080fd5b5060405162002eac38038062002eac833981016040819052620000389162000083565b600080546001600160a01b039384166001600160a01b03199182161790915560018054929093169116179055620000c2565b6001600160a01b03811681146200008057600080fd5b50565b600080604083850312156200009757600080fd5b8251620000a4816200006a565b6020840151909250620000b7816200006a565b809150509250929050565b612dda80620000d26000396000f3fe6080604052600436106100705760003560e01c80639d61dba81161004e5780639d61dba8146100ea578063a56cf0671461010c578063ac5d81851461012c578063bb5290681461014e57600080fd5b80630744b4e3146100755780632aea118d146100b557806379c88894146100d7575b600080fd5b34801561008157600080fd5b506100a261009036600461245f565b60036020526000908152604090205481565b6040519081526020015b60405180910390f35b3480156100c157600080fd5b506100d56100d036600461245f565b610180565b005b6100d56100e536600461245f565b61080e565b3480156100f657600080fd5b506100ff611105565b6040516100ac9190612567565b34801561011857600080fd5b506100d561012736600461245f565b61143b565b34801561013857600080fd5b506101416117de565b6040516100ac91906125c9565b34801561015a57600080fd5b5061016e6101693660046126b5565b611ba2565b6040516100ac969594939291906126e1565b336000908152600460205260409020546101e15760405162461bcd60e51b815260206004820152601a60248201527f596f7520617265206e6f74206120706f6c696379686f6c64657200000000000060448201526064015b60405180910390fd5b806000805b336000908152600460205260409020548110156104ba573360009081526004602052604090208054849190839081106102215761022161274f565b6000918252602090912060129091020154036104a8573360009081526004602052604081208054839081106102585761025861274f565b90600052602060002090601202016040518060c001604052908160008201604051806101400160405290816000820154815260200160018201805461029c90612765565b80601f01602080910402602001604051908101604052809291908181526020018280546102c890612765565b80156103155780601f106102ea57610100808354040283529160200191610315565b820191906000526020600020905b8154815290600101906020018083116102f857829003601f168201915b5050505050815260200160028201805461032e90612765565b80601f016020809104026020016040519081016040528092919081815260200182805461035a90612765565b80156103a75780601f1061037c576101008083540402835291602001916103a7565b820191906000526020600020905b81548152906001019060200180831161038a57829003601f168201915b50505091835250506003820154602080830191909152600483015460408084019190915260058401546060808501919091526006850154608080860191909152600786015460a0808701919091526008909601546001600160a01b03811660c0870152600160a01b900460ff16151560e090950194909452948652600987015486830152600a8701548682015280518086018252600b8801548152600c88015481840152600d880154818301528686015280519485018152600e8701548552600f87015491850191909152601086015484820152908401929092526011909301549190920152810151909150421061049e57600080fd5b60019250506104ba565b806104b2816127b5565b9150506101e6565b50806105085760405162461bcd60e51b815260206004820152601a60248201527f5468697320706f6c696379206973206e6f74206163746976652e00000000000060448201526064016101d8565b60008060005b3360009081526004602052604090205481101561057d573360009081526004602052604090208054879190839081106105495761054961274f565b60009182526020909120601290910201540361056b576001925080915061057d565b80610575816127b5565b91505061050e565b506001821515146105d05760405162461bcd60e51b815260206004820181905260248201527f596f752068617665206e6f7420626f75676874207468697320706f6c6963792160448201526064016101d8565b3360009081526004602052604081208054839081106105f1576105f161274f565b9060005260206000209060120201601101549050600081116106645760405162461bcd60e51b815260206004820152602660248201527f596f7520646f206e6f74206f776e20746f6b656e7320666f72207468697320706044820152656f6c6963792160d01b60648201526084016101d8565b600154604051632b07fce360e01b8152600481018890526000916001600160a01b031690632b07fce390602401600060405180830381865afa1580156106ae573d6000803e3d6000fd5b505050506040513d6000823e601f3d908101601f191682016040526106d691908101906128b6565b905060008160600151836106ea91906129ae565b60005461010084015160405163cd60f59f60e01b81526001600160a01b03918216600482015233602482015260448101849052929350169063cd60f59f90606401600060405180830381600087803b15801561074557600080fd5b505af1158015610759573d6000803e3d6000fd5b5050600054604051632770a7eb60e21b8152336004820152602481018790526001600160a01b039091169250639dc29fac9150604401600060405180830381600087803b1580156107a957600080fd5b505af11580156107bd573d6000803e3d6000fd5b505050506107cb3385611dd8565b60408051898152602081018390527fc9d92d603dc7645c578a271dc9dec46855d3c0cdbdc48d00399a438907cfa1cb910160405180910390a15050505050505050565b600154604051632b07fce360e01b8152600481018390526000916001600160a01b031690632b07fce390602401600060405180830381865afa158015610858573d6000803e3d6000fd5b505050506040513d6000823e601f3d908101601f1916820160405261088091908101906128b6565b9050806101200151151560011515146108f55760405162461bcd60e51b815260206004820152603160248201527f596f752063616e6e6f7420627579206120706f6c696379207468617420686173604482015270206e6f74206265656e206c69737465642160781b60648201526084016101d8565b336001600160a01b03168161010001516001600160a01b03160361095b5760405162461bcd60e51b815260206004820152601e60248201527f596f752063616e6e6f742062757920796f7572206f776e20706f6c696379000060448201526064016101d8565b600080546101008301516040516323b1fde960e11b81526001600160a01b039182166004820152911690634763fbd290602401602060405180830381865afa1580156109ab573d6000803e3d6000fd5b505050506040513d601f19601f820116820180604052508101906109cf91906129c5565b8260c001516109de91906129ae565b9050803410156109ed826120a3565b6109f6346120a3565b604051602001610a079291906129de565b60405160208183030381529060405290610a345760405162461bcd60e51b81526004016101d89190612a78565b508160a00151826080015111610a8c5760405162461bcd60e51b815260206004820152601860248201527f506f6c696379206361706163697479206578636565646564000000000000000060448201526064016101d8565b60e08201514290600090610aa09083612a92565b9050610ac660405180606001604052806000815260200160008152602001600081525090565b610acf83612136565b6040808501919091526020808501929092529183528151606081018352600080825291810182905291820152610b0483612136565b604084810191909152602080850192909252918352815160c0810183528881529081018690528082018590526060810184905260808101839052600080546101008a015193516323b1fde960e11b81526001600160a01b039485166004820152919360a0840192911690634763fbd290602401602060405180830381865afa158015610b94573d6000803e3d6000fd5b505050506040513d601f19601f82011682018060405250810190610bb891906129c5565b610bc29034612abb565b90526000546101008901516040516323b1fde960e11b81526001600160a01b0391821660048201529293501690634763fbd290602401602060405180830381865afa158015610c15573d6000803e3d6000fd5b505050506040513d601f19601f82011682018060405250810190610c3991906129c5565b610c439034612abb565b6000898152600360205260409020541015610cac5760405162461bcd60e51b8152602060048201526024808201527f496e73756666696369656e7420746f6b656e73206c65667420746f2070726f76604482015263034b232960e51b60648201526084016101d8565b6000546101008801516040516323b1fde960e11b81526001600160a01b03918216600482015291169063a9059cbb9033908390634763fbd290602401602060405180830381865afa158015610d05573d6000803e3d6000fd5b505050506040513d601f19601f82011682018060405250810190610d2991906129c5565b610d339034612abb565b6040516001600160e01b031960e085901b1681526001600160a01b03909216600483015260248201526044016020604051808303816000875af1158015610d7e573d6000803e3d6000fd5b505050506040513d601f19601f82011682018060405250810190610da29190612add565b506000546101008801516040516323b1fde960e11b81526001600160a01b039182166004820152911690634763fbd290602401602060405180830381865afa158015610df2573d6000803e3d6000fd5b505050506040513d601f19601f82011682018060405250810190610e1691906129c5565b610e209034612abb565b60008981526003602052604081208054909190610e3e908490612af8565b90915550503360009081526004602090815260408220805460018181018355918452928290208451805160129095029091019384559182015184939291839190820190610e8b9082612b5a565b5060408201516002820190610ea09082612b5a565b50606082810151600383015560808084015160048085019190915560a080860151600586015560c0860151600686015560e086015160078601556101008087015160089096018054610120909801511515600160a01b026001600160a81b03199098166001600160a01b03978816179790971790965560208881015160098901556040808a0151600a8a0155948901518051600b8a015580820151600c8a0155850151600d890155928801518051600e89015592830151600f880155918301516010870155950151601190940193909355600154600054928c015193516323b1fde960e11b815290821694630c6ab3fa948e9490931692634763fbd292610fb692016001600160a01b0391909116815260200190565b602060405180830381865afa158015610fd3573d6000803e3d6000fd5b505050506040513d601f19601f82011682018060405250810190610ff791906129c5565b6110019034612abb565b8a60a001516110109190612a92565b6040516001600160e01b031960e085901b16815260048101929092526024820152604401600060405180830381600087803b15801561104e57600080fd5b505af1158015611062573d6000803e3d6000fd5b505050508660c001518760a00151886080015161107f9190612af8565b101561108e5761108e88612155565b60c08088015160408051865181526020808801518183015282880151828401528651606083015286015160808201529085015160a082015291820152889033907f0627dc19242d5f3c617bd2030ba778ec1038d5ccac88b09a96d608f357398ceb9060e00160405180910390a35050505050505050565b60606000600160009054906101000a90046001600160a01b03166001600160a01b031663de54d4296040518163ffffffff1660e01b8152600401602060405180830381865afa15801561115c573d6000803e3d6000fd5b505050506040513d601f19601f8201168201806040525081019061118091906129c5565b9050600060015b82811161122e57600154604051632b07fce360e01b8152600481018390526000916001600160a01b031690632b07fce390602401600060405180830381865afa1580156111d8573d6000803e3d6000fd5b505050506040513d6000823e601f3d908101601f1916820160405261120091908101906128b6565b90508061012001511561121b5782611217816127b5565b9350505b5080611226816127b5565b915050611187565b50600081116112955760405162461bcd60e51b815260206004820152602d60248201527f5468657265206172652063757272656e746c79206e6f206c697374656420706f60448201526c6c696369657320746f2062757960981b60648201526084016101d8565b60008167ffffffffffffffff8111156112b0576112b06127ce565b6040519080825280602002602001820160405280156112e957816020015b6112d661232b565b8152602001906001900390816112ce5790505b509050600060015b84811161143157600154604051632b07fce360e01b8152600481018390526000916001600160a01b031690632b07fce390602401600060405180830381865afa158015611342573d6000803e3d6000fd5b505050506040513d6000823e601f3d908101601f1916820160405261136a91908101906128b6565b90508061012001511561141e5760405180610140016040528082600001518152602001826020015181526020018260400151815260200182606001518152602001826080015181526020018260a0015181526020018260c0015181526020018260e0015181526020018261010001516001600160a01b0316815260200182610120015115158152508484815181106114045761140461274f565b6020026020010181905250828061141a906127b5565b9350505b5080611429816127b5565b9150506112f1565b5090949350505050565b600154604051632b07fce360e01b81526004810183905282916000916001600160a01b0390911690632b07fce390602401600060405180830381865afa158015611489573d6000803e3d6000fd5b505050506040513d6000823e601f3d908101601f191682016040526114b191908101906128b6565b90508061010001516001600160a01b0316336001600160a01b0316146115195760405162461bcd60e51b815260206004820152601a60248201527f596f7520646f206e6f74206f776e207468697320706f6c69637900000000000060448201526064016101d8565b600154604051632b07fce360e01b8152600481018590526000916001600160a01b031690632b07fce390602401600060405180830381865afa158015611563573d6000803e3d6000fd5b505050506040513d6000823e601f3d908101601f1916820160405261158b91908101906128b6565b60008054604051636eb1769f60e11b815233600482015230602482015292935090916001600160a01b039091169063dd62ed3e90604401602060405180830381865afa1580156115df573d6000803e3d6000fd5b505050506040513d601f19601f8201168201806040525081019061160391906129c5565b9050816080015181101561161a83608001516120a3565b60405160200161162a9190612c1a565b604051602081830303815290604052906116575760405162461bcd60e51b81526004016101d89190612a78565b506000805460808401516040516323b872dd60e01b815233600482015230602482015260448101919091526001600160a01b03909116906323b872dd906064016020604051808303816000875af11580156116b6573d6000803e3d6000fd5b505050506040513d601f19601f820116820180604052508101906116da9190612add565b9050806117225760405162461bcd60e51b81526020600482015260166024820152752a37b5b2b7103a3930b739b332b9103330b4b632b21760511b60448201526064016101d8565b60808301805160008881526003602052604090819020919091559051905133917f31fe01aa97e3e611897437e7242632143c46a245d1fc9c93699d3072504fd9a19161177091815260200190565b60405180910390a2600154604051632d951b2360e11b8152600481018890526001600160a01b0390911690635b2a364690602401600060405180830381600087803b1580156117be57600080fd5b505af11580156117d2573d6000803e3d6000fd5b50505050505050505050565b3360009081526004602052604090205460609061183d5760405162461bcd60e51b815260206004820152601a60248201527f596f7520617265206e6f74206120706f6c696379686f6c64657200000000000060448201526064016101d8565b336000908152600460205260409020546118995760405162461bcd60e51b815260206004820152601a60248201527f596f7520646f6e2774206f776e20616e7920706f6c696369657300000000000060448201526064016101d8565b3360009081526004602052604081205467ffffffffffffffff8111156118c1576118c16127ce565b6040519080825280602002602001820160405280156118fa57816020015b6118e7612389565b8152602001906001900390816118df5790505b50905060005b33600090815260046020526040902054811015611b9c573360009081526004602052604090208054829081106119385761193861274f565b90600052602060002090601202016040518060c001604052908160008201604051806101400160405290816000820154815260200160018201805461197c90612765565b80601f01602080910402602001604051908101604052809291908181526020018280546119a890612765565b80156119f55780601f106119ca576101008083540402835291602001916119f5565b820191906000526020600020905b8154815290600101906020018083116119d857829003601f168201915b50505050508152602001600282018054611a0e90612765565b80601f0160208091040260200160405190810160405280929190818152602001828054611a3a90612765565b8015611a875780601f10611a5c57610100808354040283529160200191611a87565b820191906000526020600020905b815481529060010190602001808311611a6a57829003601f168201915b50505091835250506003820154602080830191909152600483015460408084019190915260058401546060808501919091526006850154608080860191909152600786015460a0808701919091526008909601546001600160a01b03811660c0870152600160a01b900460ff16151560e090950194909452948652600987015486830152600a8701548682015280518086018252600b8801548152600c88015481840152600d880154818301528686015280519485018152600e8701548552600f870154918501919091526010860154908401528301919091526011909201549101528251839083908110611b7e57611b7e61274f565b60200260200101819052508080611b94906127b5565b915050611900565b50905090565b60046020528160005260406000208181548110611bbe57600080fd5b906000526020600020906012020160009150915050806000016040518061014001604052908160008201548152602001600182018054611bfd90612765565b80601f0160208091040260200160405190810160405280929190818152602001828054611c2990612765565b8015611c765780601f10611c4b57610100808354040283529160200191611c76565b820191906000526020600020905b815481529060010190602001808311611c5957829003601f168201915b50505050508152602001600282018054611c8f90612765565b80601f0160208091040260200160405190810160405280929190818152602001828054611cbb90612765565b8015611d085780601f10611cdd57610100808354040283529160200191611d08565b820191906000526020600020905b815481529060010190602001808311611ceb57829003601f168201915b505050918352505060038201546020808301919091526004830154604080840191909152600584015460608085019190915260068501546080850152600785015460a08501526008909401546001600160a01b03811660c0850152600160a01b900460ff16151560e0909301929092526009850154600a86015483518086018552600b8801548152600c88015481850152600d8801548186015284519586018552600e8801548652600f880154938601939093526010870154938501939093526011909501549394939192909186565b6001600160a01b0382166000908152600460205260409020548110611e355760405162461bcd60e51b8152602060048201526013602482015272496e646578206f7574206f6620626f756e647360681b60448201526064016101d8565b6001600160a01b03821660009081526004602052604090208054611e5b90600190612af8565b81548110611e6b57611e6b61274f565b906000526020600020906012020160046000846001600160a01b03166001600160a01b031681526020019081526020016000208281548110611eaf57611eaf61274f565b6000918252602090912082546012909202019081558181600180820190611ed890840182612cbb565b50600281810190611eeb90840182612cbb565b506003828101549082015560048083015481830155600580840154908301556006808401549083015560078084015490830155600892830180549390920180546001600160a01b031981166001600160a01b039586169081178355935460ff600160a01b91829004161515026001600160a81b03199091169093179290921790915560098481015490840155600a8085015490840155600b8085015490840155600c8085015490840155600d8085015490840155600e8085015490840155600f8085015490840155601080850154908401556011938401549390920192909255908316600090815260209190915260409020805480611fec57611fec612d8e565b6000828152602081206012600019909301928302018181559081816120146001830182612409565b612022600283016000612409565b5060006003820181905560048201819055600582018190556006820181905560078201819055600890910180546001600160a81b031916905560098301819055600a8301819055600b8301819055600c8301819055600d8301819055600e8301819055600f8301819055601083018190556011909201919091555090555050565b606060006120b0836121b6565b600101905060008167ffffffffffffffff8111156120d0576120d06127ce565b6040519080825280601f01601f1916602001820160405280156120fa576020820181803683370190505b5090508181016020015b600019016f181899199a1a9b1b9c1cb0b131b232b360811b600a86061a8153600a850494508461210457509392505050565b6000808061214862015180850461228f565b9196909550909350915050565b60015460405163110c8fb960e11b8152600481018390526001600160a01b03909116906322191f7290602401600060405180830381600087803b15801561219b57600080fd5b505af11580156121af573d6000803e3d6000fd5b5050505050565b60008072184f03e93ff9f4daa797ed6e38ed64bf6a1f0160401b83106121f55772184f03e93ff9f4daa797ed6e38ed64bf6a1f0160401b830492506040015b6d04ee2d6d415b85acef81000000008310612221576d04ee2d6d415b85acef8100000000830492506020015b662386f26fc10000831061223f57662386f26fc10000830492506010015b6305f5e1008310612257576305f5e100830492506008015b612710831061226b57612710830492506004015b6064831061227d576064830492506002015b600a8310612289576001015b92915050565b60008080836226496581018262023ab1600483020590506004600362023ab18302010590910390600062164b09610fa0600185010205905060046105b58202058303601f019250600061098f84605002816122ec576122ec612aa5565b0590506000605061098f83020585039050600b820560301994909401606402929092018301996002600c90940290910392909201975095509350505050565b604051806101400160405280600081526020016060815260200160608152602001600081526020016000815260200160008152602001600081526020016000815260200160006001600160a01b031681526020016000151581525090565b6040518060c0016040528061239c61232b565b815260200160008152602001600081526020016123d360405180606001604052806000815260200160008152602001600081525090565b81526020016123fc60405180606001604052806000815260200160008152602001600081525090565b8152602001600081525090565b50805461241590612765565b6000825580601f10612425575050565b601f0160209004906000526020600020908101906124439190612446565b50565b5b8082111561245b5760008155600101612447565b5090565b60006020828403121561247157600080fd5b5035919050565b60005b8381101561249357818101518382015260200161247b565b50506000910152565b600081518084526124b4816020860160208601612478565b601f01601f19169290920160200192915050565b60006101408251845260208301518160208601526124e88286018261249c565b91505060408301518482036040860152612502828261249c565b915050606083015160608501526080830151608085015260a083015160a085015260c083015160c085015260e083015160e085015261010080840151612552828701826001600160a01b03169052565b50506101208381015180151586830152611431565b6000602080830181845280855180835260408601915060408160051b870101925083870160005b828110156125bc57603f198886030184526125aa8583516124c8565b9450928501929085019060010161258e565b5092979650505050505050565b60006020808301818452808551808352604092508286019150828160051b87010184880160005b8381101561269257603f1989840301855281516101408151818652612617828701826124c8565b838b0151878c0152898401518a8801526060808501518051828a0152602081015160808a0152604081015160a08a0152919350915050506080820151805160c0870152602081015160e087015260408101516101008701525060a09190910151610120949094019390935293860193908601906001016125f0565b509098975050505050505050565b6001600160a01b038116811461244357600080fd5b600080604083850312156126c857600080fd5b82356126d3816126a0565b946020939093013593505050565b60006101408083526126f58184018a6124c8565b91505086602083015285604083015261272560608301868051825260208082015190830152604090810151910152565b835160c0830152602084015160e08301526040909301516101008201526101200152949350505050565b634e487b7160e01b600052603260045260246000fd5b600181811c9082168061277957607f821691505b60208210810361279957634e487b7160e01b600052602260045260246000fd5b50919050565b634e487b7160e01b600052601160045260246000fd5b6000600182016127c7576127c761279f565b5060010190565b634e487b7160e01b600052604160045260246000fd5b604051610140810167ffffffffffffffff81118282101715612808576128086127ce565b60405290565b600082601f83011261281f57600080fd5b815167ffffffffffffffff8082111561283a5761283a6127ce565b604051601f8301601f19908116603f01168101908282118183101715612862576128626127ce565b8160405283815286602085880101111561287b57600080fd5b61288c846020830160208901612478565b9695505050505050565b80516128a1816126a0565b919050565b805180151581146128a157600080fd5b6000602082840312156128c857600080fd5b815167ffffffffffffffff808211156128e057600080fd5b9083019061014082860312156128f557600080fd5b6128fd6127e4565b8251815260208301518281111561291357600080fd5b61291f8782860161280e565b60208301525060408301518281111561293757600080fd5b6129438782860161280e565b604083015250606083015160608201526080830151608082015260a083015160a082015260c083015160c082015260e083015160e0820152610100915061298b828401612896565b82820152610120915061299f8284016128a6565b91810191909152949350505050565b80820281158282048414176122895761228961279f565b6000602082840312156129d757600080fd5b5051919050565b7f596f75206e65656420746f20706179206174206c656173742074686520707265815267036b4bab69037b3160c51b602082015260008351612a27816028850160208801612478565b720103bb2b49610313aba10383937bb34b232b21606d1b6028918401918201528351612a5a81603b840160208801612478565b64103bb2b49760d91b603b9290910191820152604001949350505050565b602081526000612a8b602083018461249c565b9392505050565b808201808211156122895761228961279f565b634e487b7160e01b600052601260045260246000fd5b600082612ad857634e487b7160e01b600052601260045260246000fd5b500490565b600060208284031215612aef57600080fd5b612a8b826128a6565b818103818111156122895761228961279f565b601f821115612b5557600081815260208120601f850160051c81016020861015612b325750805b601f850160051c820191505b81811015612b5157828155600101612b3e565b5050505b505050565b815167ffffffffffffffff811115612b7457612b746127ce565b612b8881612b828454612765565b84612b0b565b602080601f831160018114612bbd5760008415612ba55750858301515b600019600386901b1c1916600185901b178555612b51565b600085815260208120601f198616915b82811015612bec57888601518255948401946001909101908401612bcd565b5085821015612c0a5787850151600019600388901b60f8161c191681555b5050505050600190811b01905550565b7f596f75206e65656420746f20617070726f766520746865206d61726b6574706c81526c030b1b2903a379039b832b7321609d1b602082015260008251612c6881602d850160208701612478565b7f206d617820706f6f6c2076616c756520746f6b656e73206f6e20796f75722062602d9390910192830152507532b430b633103337b9103a3434b9903837b634b1bc9760511b604d820152606301919050565b818103612cc6575050565b612cd08254612765565b67ffffffffffffffff811115612ce857612ce86127ce565b612cf681612b828454612765565b6000601f821160018114612d2a5760008315612d125750848201545b600019600385901b1c1916600184901b1784556121af565b600085815260209020601f19841690600086815260209020845b83811015612d645782860154825560019586019590910190602001612d44565b5085831015612c0a5793015460001960f8600387901b161c19169092555050600190811b01905550565b634e487b7160e01b600052603160045260246000fdfea2646970667358221220863b7b279238cd4953388135d043f0d3f74fe5b4ceec3a7ac15ea1980113e9c964736f6c63430008140033",
  "immutableReferences": {},
  "source": "// SPDX-License-Identifier: MIT\npragma solidity 0.8.20;\n\nimport \"./CSToken.sol\";\nimport \"./InsuranceCompany.sol\";\nimport \"./.deps/github/0x00pluto/solidity-datetime/contracts/DateTime.sol\"; // for date time\nimport \"./.deps/npm/@openzeppelin/contracts/utils/Strings.sol\"; // for error specification\n\ncontract Marketplace {\n    CSToken token;\n    InsuranceCompany company;\n    uint currentTimestamp = block.timestamp;\n\n    constructor(CSToken _token, InsuranceCompany _company) {\n        token = _token;\n        company = _company;\n    }\n\n    // Checks that buyer's coverage period has not ended for them to be able to make claims on their policy\n    modifier isActive(uint256 policyId) {\n        bool active = false;\n        for (uint256 i = 0; i < policyHolders[msg.sender].length; i++) {\n            if (policyHolders[msg.sender][i].boughtPolicy.policyId == policyId) {\n                BuyerPolicy memory bp = policyHolders[msg.sender][i];\n                require(bp.coverageEndTimestamp > block.timestamp);\n                active = true;\n                break;\n            }\n        }\n        require(active, \"This policy is not active.\");\n        _;\n    }\n\n    // Policy lister must own a policy to be able to list that specific policy Id\n    modifier mustOwnPolicy(uint256 policyId) {\n        InsuranceCompany.Policy memory policy = company.getPolicy(policyId);\n        require(msg.sender == policy.creator, \"You do not own this policy\");\n        _;\n    }\n\n    // Policy buyer must have bought a policy to view their bought policies\n    modifier isPolicyHolder() {\n        require(policyHolders[msg.sender].length > 0, \"You are not a policyholder\");\n        _;\n    }\n\n\n    struct Date {\n        uint256 year;\n        uint256 month;\n        uint256 day;\n    }\n\n    // Struct to hold all information about a policy bought by a buyer, including coverage details\n    struct BuyerPolicy {\n        InsuranceCompany.Policy boughtPolicy; // The full policy details\n        uint256 coverageStartTimestamp; // Coverage start timestamp (when the buyer purchases)\n        uint256 coverageEndTimestamp; // Coverage end timestamp (calculated based on coverage period)\n        Date coverageStartDate; // Coverage start date (human-readable)\n        Date coverageEndDate; // Coverage end date (human-readable)\n        uint256 ownedCSTokens;\n    }\n\n    event TokensListed(address indexed creator, uint256 amount);\n    event PolicyBought(\n        address indexed buyer,           \n        uint256 indexed policyId, \n        Date coverageStartTimestamp,   \n        Date coverageEndTimestamp,   \n        uint256 ownedCSTokens \n    );\n    event PolicyClaimed(uint256 policyId, uint256 claimAmount);\n\n    mapping(uint256 => uint256) public policyDeposits; // Tracks tokens authorized for the marketplace to manage and transfer to policy buyers for each listed policy\n\n    mapping(address => BuyerPolicy[]) public policyHolders;   // Tracks bought policies associated with a policy buyer\n\n    // For policy listers to list a policy\n    function listPolicy(uint256 policyId) public mustOwnPolicy(policyId) {\n        InsuranceCompany.Policy memory listedPolicy = company.getPolicy(policyId);\n\n        /* Check if the policy creator has authorized the Marketplace to manage tokens up to the policy's max pool value. \n        If not, approval is required to enable the transer of CS tokens to policy buyers when they purchase a share of the listed policy */\n        uint256 allowance = token.allowance(msg.sender, address(this));\n        require(\n            allowance >= listedPolicy.maxPoolValue,\n            string(\n                abi.encodePacked(\n                    \"You need to approve the marketplace to spend \",\n                    Strings.toString(listedPolicy.maxPoolValue),\n                    \" max pool value tokens on your behalf for this policy.\"\n                )\n            )\n        );\n\n        // Transfer tokens directly to the Marketplace contract\n        bool success = token.transferFrom(\n            msg.sender,\n            address(this),\n            listedPolicy.maxPoolValue\n        );\n        require(success, \"Token transfer failed.\");\n\n        // Track the deposit for this policy\n        policyDeposits[policyId] = listedPolicy.maxPoolValue;\n\n        emit TokensListed(msg.sender, listedPolicy.maxPoolValue);\n\n        company._listPolicy(policyId);\n    }\n\n    // For everyone to view all listed policies\n    function viewListedPolicies() external view returns (InsuranceCompany.Policy[] memory)\n    {\n        uint256 totalPolicies = company.policyCount();\n        uint256 listedCount = 0;\n\n        // Count listed policies\n        for (uint256 i = 1; i <= totalPolicies; i++) {\n            InsuranceCompany.Policy memory policy = company.getPolicy(i);\n            if (policy.listed) {\n                listedCount++;\n            }\n        }\n\n        // Ensure at least one listed policy exists\n        require(\n            listedCount > 0,\n            \"There are currently no listed policies to buy\"\n        );\n\n        // Create an array for the listed policies\n        InsuranceCompany.Policy[] memory listed = new InsuranceCompany.Policy[](\n            listedCount\n        );\n        uint256 index = 0;\n\n        // Add the listed policies to the array\n        for (uint256 i = 1; i <= totalPolicies; i++) {\n            InsuranceCompany.Policy memory policy = company.getPolicy(i);\n            if (policy.listed) {\n                listed[index] = InsuranceCompany.Policy({\n                    policyId: policy.policyId,\n                    policyName: policy.policyName,\n                    policyType: policy.policyType,\n                    claimBackRate: policy.claimBackRate,\n                    maxPoolValue: policy.maxPoolValue,\n                    currPoolValue: policy.currPoolValue,\n                    minStake: policy.minStake,\n                    coveragePeriod: policy.coveragePeriod,\n                    creator: policy.creator,\n                    listed: policy.listed\n                });\n                index++;\n            }\n        }\n\n        return listed;\n    }\n\n    // For policy buyers to buy a listed policy. Minimally, they must provide an amount that is equivalent to the min.stake of the policy\n    function buyPolicy(uint256 policyId) external payable {\n        // Fetch the policy details\n        InsuranceCompany.Policy memory policy = company.getPolicy(policyId);\n        require(policy.listed == true, \"You cannot buy a policy that has not been listed!\");\n        require(policy.creator != msg.sender, \"You cannot buy your own policy\");\n\n        // Get required premium based on policy creator/lister's conversion rate\n        uint256 requiredValue = policy.minStake * token.getUserConversionRate(policy.creator);\n        require(\n            msg.value >= requiredValue,\n            string(\n                abi.encodePacked(\n                    \"You need to pay at least the premium of \", \n                    Strings.toString(requiredValue), \n                    \" wei, but provided \", \n                    Strings.toString(msg.value), \n                    \" wei.\"\n                )\n            )\n        );\n\n        // Ensure that the policy has enough capacity for more buyers\n        require(\n            policy.maxPoolValue > policy.currPoolValue,\n            \"Policy capacity exceeded\"\n        );\n\n        // Calculate coverage start and end timestamps\n        uint256 coverageStartTimestamp = block.timestamp;\n        uint256 coverageEndTimestamp = block.timestamp + policy.coveragePeriod;\n\n        Date memory coverageStartDate;\n        (\n            coverageStartDate.year,\n            coverageStartDate.month,\n            coverageStartDate.day\n        ) = DateTime.timestampToDate(coverageStartTimestamp);\n        \n        Date memory coverageEndDate;\n        (\n            coverageEndDate.year,\n            coverageEndDate.month,\n            coverageEndDate.day\n        ) = DateTime.timestampToDate(coverageEndTimestamp);\n\n        // Create a new BuyerPolicy struct with coverage dates\n        BuyerPolicy memory buyerPolicy = BuyerPolicy({\n            boughtPolicy: policy, // The Policy that the buyer is purchasing\n            coverageStartTimestamp: coverageStartTimestamp,\n            coverageEndTimestamp: coverageEndTimestamp,\n            coverageStartDate: coverageStartDate,\n            coverageEndDate: coverageEndDate,\n            ownedCSTokens: msg.value / token.getUserConversionRate(policy.creator)\n        });\n\n        // Ensure that marketplace has enough tokens approved to it by the policy kuster to transfer to the buyer\n        require(policyDeposits[policyId] >= msg.value / token.getUserConversionRate(policy.creator), \"Insufficient tokens left to provide \");\n\n        // Transfer tokens from Marketplace to buyer\n        token.transfer(msg.sender, msg.value / token.getUserConversionRate(policy.creator));\n\n        // Deduct from the policy deposit\n        policyDeposits[policyId] -= msg.value / token.getUserConversionRate(policy.creator);\n\n        // Add the buyer's policy to their list of purchased policies\n        policyHolders[msg.sender].push(buyerPolicy);\n\n        company.updatePolicyPoolValue(\n            policyId,\n            policy.currPoolValue + (msg.value / token.getUserConversionRate(policy.creator))\n        );\n\n        // Auto-delisting the policy if the policy no longer has sufficient CS tokens to meet the min.stake required for buyers to buy into the policy.\n        if (policy.maxPoolValue - policy.currPoolValue < policy.minStake) {\n            delistPolicy(policyId);\n        }\n\n        emit PolicyBought(\n            msg.sender,\n            policyId,\n            coverageStartDate,\n            coverageEndDate,\n            policy.minStake\n        );\n    }\n\n    // For policy buyers to make a claim on their bought policy, where their coverage period has not ended\n    function claimPolicy(uint256 policyId) external isPolicyHolder isActive(policyId) {\n        bool ownsPolicy = false;\n        uint256 index = 0;\n        for (uint256 i = 0; i < policyHolders[msg.sender].length; i++) {\n            if (policyHolders[msg.sender][i].boughtPolicy.policyId == policyId) {\n                ownsPolicy = true;\n                index = i;\n                break;\n            }\n        }\n\n        require(ownsPolicy == true, \"You have not bought this policy!\");\n\n        uint256 ownedTokens = policyHolders[msg.sender][index].ownedCSTokens;\n        require(ownedTokens > 0, \"You do not own tokens for this policy!\");\n        \n        InsuranceCompany.Policy memory policy = company.getPolicy(policyId);\n\n        // Calculate the total claim amount in Wei based on the claim back rate\n        uint256 totalClaimableWei = ownedTokens * policy.claimBackRate;\n\n        // Transfer claim amount from policy creator's parked collateral to the policy buyer/claimer (ie.msg.sender in this case);\n        token.transferCollateral(policy.creator, msg.sender, totalClaimableWei);\n\n        // Burns the policy buyer's owned tokens after they have claimed\n        token.burn(msg.sender, ownedTokens);\n\n        // Remove the claimed policy from the buyer's bought policy\n        removePolicy(msg.sender, index);\n\n        // Emit event for successful claim\n        emit PolicyClaimed(policyId, totalClaimableWei);\n    }\n\n    // Helper method to remove a claimed policy from the buyer's bought policies \n    function removePolicy(address policyHolder, uint256 index) internal {\n        require(index < policyHolders[policyHolder].length, \"Index out of bounds\");\n\n        // Swap the policy to be removed with the last policy in the array\n        policyHolders[policyHolder][index] = policyHolders[policyHolder][policyHolders[policyHolder].length - 1];\n\n        // Pop the last element\n        policyHolders[policyHolder].pop();\n    }\n\n    // For a policy buyer to view all their bought policies\n    function viewMyBoughtPolicies()\n        external isPolicyHolder\n        view\n        returns (BuyerPolicy[] memory)\n    {\n        // Check if the caller has any active policies\n        require(\n            policyHolders[msg.sender].length > 0,\n            \"You don't own any policies\"\n        );\n\n        // Create an array to store the complete BuyerPolicy structs (not just Policy)\n        BuyerPolicy[] memory buyerPolicies = new BuyerPolicy[](\n            policyHolders[msg.sender].length\n        );\n\n        // Loop through the buyer's policies and store the full BuyerPolicy struct\n        for (uint256 i = 0; i < policyHolders[msg.sender].length; i++) {\n            buyerPolicies[i] = policyHolders[msg.sender][i]; // Extract the full BuyerPolicy struct\n        }\n\n        return buyerPolicies; // Return the array of full BuyerPolicy structs\n    }\n\n\n    function delistPolicy(uint256 policyId) private {\n        company._deListPolicy(policyId);\n    }\n}\n",
  "sourcePath": "/Users/pojaroy/IS4302DecentralizedInsuranceMarketplace/backend/contracts/Marketplace.sol",
  "compiler": {
    "name": "solc",
    "version": "0.8.20+commit.a1b79de6.Emscripten.clang"
  },
  "schemaVersion": "3.4.16",
  "updatedAt": "2024-11-22T07:29:58.024Z",
  "devdoc": {
    "kind": "dev",
    "methods": {},
    "version": 1
  },
  "userdoc": {
    "kind": "user",
    "methods": {},
    "version": 1
  }
}