{
	"contracts/CSToken.sol": {
		"CSToken": {
			"abi": [
				{
					"inputs": [],
					"stateMutability": "payable",
					"type": "constructor"
				},
				{
					"inputs": [
						{
							"internalType": "address",
							"name": "spender",
							"type": "address"
						},
						{
							"internalType": "uint256",
							"name": "allowance",
							"type": "uint256"
						},
						{
							"internalType": "uint256",
							"name": "needed",
							"type": "uint256"
						}
					],
					"name": "ERC20InsufficientAllowance",
					"type": "error"
				},
				{
					"inputs": [
						{
							"internalType": "address",
							"name": "sender",
							"type": "address"
						},
						{
							"internalType": "uint256",
							"name": "balance",
							"type": "uint256"
						},
						{
							"internalType": "uint256",
							"name": "needed",
							"type": "uint256"
						}
					],
					"name": "ERC20InsufficientBalance",
					"type": "error"
				},
				{
					"inputs": [
						{
							"internalType": "address",
							"name": "approver",
							"type": "address"
						}
					],
					"name": "ERC20InvalidApprover",
					"type": "error"
				},
				{
					"inputs": [
						{
							"internalType": "address",
							"name": "receiver",
							"type": "address"
						}
					],
					"name": "ERC20InvalidReceiver",
					"type": "error"
				},
				{
					"inputs": [
						{
							"internalType": "address",
							"name": "sender",
							"type": "address"
						}
					],
					"name": "ERC20InvalidSender",
					"type": "error"
				},
				{
					"inputs": [
						{
							"internalType": "address",
							"name": "spender",
							"type": "address"
						}
					],
					"name": "ERC20InvalidSpender",
					"type": "error"
				},
				{
					"anonymous": false,
					"inputs": [
						{
							"indexed": true,
							"internalType": "address",
							"name": "owner",
							"type": "address"
						},
						{
							"indexed": true,
							"internalType": "address",
							"name": "spender",
							"type": "address"
						},
						{
							"indexed": false,
							"internalType": "uint256",
							"name": "value",
							"type": "uint256"
						}
					],
					"name": "Approval",
					"type": "event"
				},
				{
					"anonymous": false,
					"inputs": [
						{
							"indexed": true,
							"internalType": "address",
							"name": "to",
							"type": "address"
						},
						{
							"indexed": false,
							"internalType": "uint256",
							"name": "amount",
							"type": "uint256"
						},
						{
							"indexed": false,
							"internalType": "uint256",
							"name": "collateral",
							"type": "uint256"
						}
					],
					"name": "Mint",
					"type": "event"
				},
				{
					"anonymous": false,
					"inputs": [
						{
							"indexed": true,
							"internalType": "address",
							"name": "account",
							"type": "address"
						},
						{
							"indexed": false,
							"internalType": "uint256",
							"name": "excessAmt",
							"type": "uint256"
						}
					],
					"name": "ReturnExcess",
					"type": "event"
				},
				{
					"anonymous": false,
					"inputs": [
						{
							"indexed": true,
							"internalType": "address",
							"name": "from",
							"type": "address"
						},
						{
							"indexed": true,
							"internalType": "address",
							"name": "to",
							"type": "address"
						},
						{
							"indexed": false,
							"internalType": "uint256",
							"name": "value",
							"type": "uint256"
						}
					],
					"name": "Transfer",
					"type": "event"
				},
				{
					"anonymous": false,
					"inputs": [
						{
							"indexed": true,
							"internalType": "address",
							"name": "account",
							"type": "address"
						},
						{
							"indexed": false,
							"internalType": "uint256",
							"name": "amtTokens",
							"type": "uint256"
						},
						{
							"indexed": false,
							"internalType": "uint256",
							"name": "collateral",
							"type": "uint256"
						},
						{
							"indexed": false,
							"internalType": "uint256",
							"name": "conversionRate",
							"type": "uint256"
						}
					],
					"name": "UserTokenInfo",
					"type": "event"
				},
				{
					"inputs": [
						{
							"internalType": "address",
							"name": "owner",
							"type": "address"
						},
						{
							"internalType": "address",
							"name": "spender",
							"type": "address"
						}
					],
					"name": "allowance",
					"outputs": [
						{
							"internalType": "uint256",
							"name": "",
							"type": "uint256"
						}
					],
					"stateMutability": "view",
					"type": "function"
				},
				{
					"inputs": [
						{
							"internalType": "address",
							"name": "spender",
							"type": "address"
						},
						{
							"internalType": "uint256",
							"name": "value",
							"type": "uint256"
						}
					],
					"name": "approve",
					"outputs": [
						{
							"internalType": "bool",
							"name": "",
							"type": "bool"
						}
					],
					"stateMutability": "nonpayable",
					"type": "function"
				},
				{
					"inputs": [
						{
							"internalType": "address",
							"name": "account",
							"type": "address"
						}
					],
					"name": "balanceOf",
					"outputs": [
						{
							"internalType": "uint256",
							"name": "",
							"type": "uint256"
						}
					],
					"stateMutability": "view",
					"type": "function"
				},
				{
					"inputs": [
						{
							"internalType": "uint256",
							"name": "value",
							"type": "uint256"
						}
					],
					"name": "burn",
					"outputs": [],
					"stateMutability": "nonpayable",
					"type": "function"
				},
				{
					"inputs": [
						{
							"internalType": "address",
							"name": "from",
							"type": "address"
						},
						{
							"internalType": "uint256",
							"name": "amount",
							"type": "uint256"
						}
					],
					"name": "burn",
					"outputs": [],
					"stateMutability": "nonpayable",
					"type": "function"
				},
				{
					"inputs": [
						{
							"internalType": "address",
							"name": "account",
							"type": "address"
						},
						{
							"internalType": "uint256",
							"name": "value",
							"type": "uint256"
						}
					],
					"name": "burnFrom",
					"outputs": [],
					"stateMutability": "nonpayable",
					"type": "function"
				},
				{
					"inputs": [
						{
							"internalType": "address",
							"name": "",
							"type": "address"
						}
					],
					"name": "collateral",
					"outputs": [
						{
							"internalType": "uint256",
							"name": "",
							"type": "uint256"
						}
					],
					"stateMutability": "view",
					"type": "function"
				},
				{
					"inputs": [],
					"name": "decimals",
					"outputs": [
						{
							"internalType": "uint8",
							"name": "",
							"type": "uint8"
						}
					],
					"stateMutability": "view",
					"type": "function"
				},
				{
					"inputs": [],
					"name": "getMyTokenInformation",
					"outputs": [],
					"stateMutability": "nonpayable",
					"type": "function"
				},
				{
					"inputs": [
						{
							"internalType": "address",
							"name": "lister",
							"type": "address"
						}
					],
					"name": "getUserCollateral",
					"outputs": [
						{
							"internalType": "uint256",
							"name": "",
							"type": "uint256"
						}
					],
					"stateMutability": "view",
					"type": "function"
				},
				{
					"inputs": [
						{
							"internalType": "address",
							"name": "lister",
							"type": "address"
						}
					],
					"name": "getUserConversionRate",
					"outputs": [
						{
							"internalType": "uint256",
							"name": "",
							"type": "uint256"
						}
					],
					"stateMutability": "view",
					"type": "function"
				},
				{
					"inputs": [
						{
							"internalType": "uint256",
							"name": "amount",
							"type": "uint256"
						},
						{
							"internalType": "uint256",
							"name": "conversionRate",
							"type": "uint256"
						}
					],
					"name": "mint",
					"outputs": [],
					"stateMutability": "payable",
					"type": "function"
				},
				{
					"inputs": [],
					"name": "name",
					"outputs": [
						{
							"internalType": "string",
							"name": "",
							"type": "string"
						}
					],
					"stateMutability": "view",
					"type": "function"
				},
				{
					"inputs": [],
					"name": "symbol",
					"outputs": [
						{
							"internalType": "string",
							"name": "",
							"type": "string"
						}
					],
					"stateMutability": "view",
					"type": "function"
				},
				{
					"inputs": [
						{
							"internalType": "uint256",
							"name": "amount",
							"type": "uint256"
						}
					],
					"name": "topUpMyTokens",
					"outputs": [],
					"stateMutability": "payable",
					"type": "function"
				},
				{
					"inputs": [],
					"name": "totalSupply",
					"outputs": [
						{
							"internalType": "uint256",
							"name": "",
							"type": "uint256"
						}
					],
					"stateMutability": "view",
					"type": "function"
				},
				{
					"inputs": [
						{
							"internalType": "address",
							"name": "to",
							"type": "address"
						},
						{
							"internalType": "uint256",
							"name": "value",
							"type": "uint256"
						}
					],
					"name": "transfer",
					"outputs": [
						{
							"internalType": "bool",
							"name": "",
							"type": "bool"
						}
					],
					"stateMutability": "nonpayable",
					"type": "function"
				},
				{
					"inputs": [
						{
							"internalType": "address",
							"name": "from",
							"type": "address"
						},
						{
							"internalType": "address",
							"name": "to",
							"type": "address"
						},
						{
							"internalType": "uint256",
							"name": "amount",
							"type": "uint256"
						}
					],
					"name": "transferCollateral",
					"outputs": [],
					"stateMutability": "nonpayable",
					"type": "function"
				},
				{
					"inputs": [
						{
							"internalType": "address",
							"name": "from",
							"type": "address"
						},
						{
							"internalType": "address",
							"name": "to",
							"type": "address"
						},
						{
							"internalType": "uint256",
							"name": "value",
							"type": "uint256"
						}
					],
					"name": "transferFrom",
					"outputs": [
						{
							"internalType": "bool",
							"name": "",
							"type": "bool"
						}
					],
					"stateMutability": "nonpayable",
					"type": "function"
				},
				{
					"inputs": [
						{
							"internalType": "address",
							"name": "",
							"type": "address"
						}
					],
					"name": "userConversionRate",
					"outputs": [
						{
							"internalType": "uint256",
							"name": "",
							"type": "uint256"
						}
					],
					"stateMutability": "view",
					"type": "function"
				}
			],
			"devdoc": {
				"errors": {
					"ERC20InsufficientAllowance(address,uint256,uint256)": [
						{
							"details": "Indicates a failure with the `spender`’s `allowance`. Used in transfers.",
							"params": {
								"allowance": "Amount of tokens a `spender` is allowed to operate with.",
								"needed": "Minimum amount required to perform a transfer.",
								"spender": "Address that may be allowed to operate on tokens without being their owner."
							}
						}
					],
					"ERC20InsufficientBalance(address,uint256,uint256)": [
						{
							"details": "Indicates an error related to the current `balance` of a `sender`. Used in transfers.",
							"params": {
								"balance": "Current balance for the interacting account.",
								"needed": "Minimum amount required to perform a transfer.",
								"sender": "Address whose tokens are being transferred."
							}
						}
					],
					"ERC20InvalidApprover(address)": [
						{
							"details": "Indicates a failure with the `approver` of a token to be approved. Used in approvals.",
							"params": {
								"approver": "Address initiating an approval operation."
							}
						}
					],
					"ERC20InvalidReceiver(address)": [
						{
							"details": "Indicates a failure with the token `receiver`. Used in transfers.",
							"params": {
								"receiver": "Address to which tokens are being transferred."
							}
						}
					],
					"ERC20InvalidSender(address)": [
						{
							"details": "Indicates a failure with the token `sender`. Used in transfers.",
							"params": {
								"sender": "Address whose tokens are being transferred."
							}
						}
					],
					"ERC20InvalidSpender(address)": [
						{
							"details": "Indicates a failure with the `spender` to be approved. Used in approvals.",
							"params": {
								"spender": "Address that may be allowed to operate on tokens without being their owner."
							}
						}
					]
				},
				"events": {
					"Approval(address,address,uint256)": {
						"details": "Emitted when the allowance of a `spender` for an `owner` is set by a call to {approve}. `value` is the new allowance."
					},
					"Transfer(address,address,uint256)": {
						"details": "Emitted when `value` tokens are moved from one account (`from`) to another (`to`). Note that `value` may be zero."
					}
				},
				"kind": "dev",
				"methods": {
					"allowance(address,address)": {
						"details": "See {IERC20-allowance}."
					},
					"approve(address,uint256)": {
						"details": "See {IERC20-approve}. NOTE: If `value` is the maximum `uint256`, the allowance is not updated on `transferFrom`. This is semantically equivalent to an infinite approval. Requirements: - `spender` cannot be the zero address."
					},
					"balanceOf(address)": {
						"details": "See {IERC20-balanceOf}."
					},
					"burn(uint256)": {
						"details": "Destroys a `value` amount of tokens from the caller. See {ERC20-_burn}."
					},
					"burnFrom(address,uint256)": {
						"details": "Destroys a `value` amount of tokens from `account`, deducting from the caller's allowance. See {ERC20-_burn} and {ERC20-allowance}. Requirements: - the caller must have allowance for ``accounts``'s tokens of at least `value`."
					},
					"decimals()": {
						"details": "Returns the number of decimals used to get its user representation. For example, if `decimals` equals `2`, a balance of `505` tokens should be displayed to a user as `5.05` (`505 / 10 ** 2`). Tokens usually opt for a value of 18, imitating the relationship between Ether and Wei. This is the default value returned by this function, unless it's overridden. NOTE: This information is only used for _display_ purposes: it in no way affects any of the arithmetic of the contract, including {IERC20-balanceOf} and {IERC20-transfer}."
					},
					"name()": {
						"details": "Returns the name of the token."
					},
					"symbol()": {
						"details": "Returns the symbol of the token, usually a shorter version of the name."
					},
					"totalSupply()": {
						"details": "See {IERC20-totalSupply}."
					},
					"transfer(address,uint256)": {
						"details": "See {IERC20-transfer}. Requirements: - `to` cannot be the zero address. - the caller must have a balance of at least `value`."
					},
					"transferFrom(address,address,uint256)": {
						"details": "See {IERC20-transferFrom}. Skips emitting an {Approval} event indicating an allowance update. This is not required by the ERC. See {xref-ERC20-_approve-address-address-uint256-bool-}[_approve]. NOTE: Does not update the allowance if the current allowance is the maximum `uint256`. Requirements: - `from` and `to` cannot be the zero address. - `from` must have a balance of at least `value`. - the caller must have allowance for ``from``'s tokens of at least `value`."
					}
				},
				"version": 1
			},
			"evm": {
				"assembly": "    /* \"contracts/CSToken.sol\":300:5514  contract CSToken is ERC20, ERC20Burnable {... */\n  mstore(0x40, 0x80)\n    /* \".deps/npm/@openzeppelin/contracts/token/ERC20/ERC20.sol\":1601:1714  constructor(string memory name_, string memory symbol_) {... */\n  mload(0x40)\n  dup1\n  0x40\n  add\n  0x40\n  mstore\n  dup1\n  0x0e\n  dup2\n  mstore\n  0x20\n  add\n  0x436861696e53757265546f6b656e000000000000000000000000000000000000\n  dup2\n  mstore\n  pop\n  mload(0x40)\n  dup1\n  0x40\n  add\n  0x40\n  mstore\n  dup1\n  0x03\n  dup2\n  mstore\n  0x20\n  add\n  0x4353540000000000000000000000000000000000000000000000000000000000\n  dup2\n  mstore\n  pop\n    /* \".deps/npm/@openzeppelin/contracts/token/ERC20/ERC20.sol\":1675:1680  name_ */\n  dup2\n    /* \".deps/npm/@openzeppelin/contracts/token/ERC20/ERC20.sol\":1667:1672  _name */\n  0x03\n    /* \".deps/npm/@openzeppelin/contracts/token/ERC20/ERC20.sol\":1667:1680  _name = name_ */\n  swap1\n  dup2\n  tag_4\n  swap2\n  swap1\n  tag_5\n  jump\t// in\ntag_4:\n  pop\n    /* \".deps/npm/@openzeppelin/contracts/token/ERC20/ERC20.sol\":1700:1707  symbol_ */\n  dup1\n    /* \".deps/npm/@openzeppelin/contracts/token/ERC20/ERC20.sol\":1690:1697  _symbol */\n  0x04\n    /* \".deps/npm/@openzeppelin/contracts/token/ERC20/ERC20.sol\":1690:1707  _symbol = symbol_ */\n  swap1\n  dup2\n  tag_6\n  swap2\n  swap1\n  tag_5\n  jump\t// in\ntag_6:\n  pop\n    /* \".deps/npm/@openzeppelin/contracts/token/ERC20/ERC20.sol\":1601:1714  constructor(string memory name_, string memory symbol_) {... */\n  pop\n  pop\n    /* \"contracts/CSToken.sol\":300:5514  contract CSToken is ERC20, ERC20Burnable {... */\n  jump(tag_8)\n    /* \"#utility.yul\":7:106   */\ntag_9:\n    /* \"#utility.yul\":59:65   */\n  0x00\n    /* \"#utility.yul\":93:98   */\n  dup2\n    /* \"#utility.yul\":87:99   */\n  mload\n    /* \"#utility.yul\":77:99   */\n  swap1\n  pop\n    /* \"#utility.yul\":7:106   */\n  swap2\n  swap1\n  pop\n  jump\t// out\n    /* \"#utility.yul\":112:292   */\ntag_10:\n    /* \"#utility.yul\":160:237   */\n  0x4e487b7100000000000000000000000000000000000000000000000000000000\n    /* \"#utility.yul\":157:158   */\n  0x00\n    /* \"#utility.yul\":150:238   */\n  mstore\n    /* \"#utility.yul\":257:261   */\n  0x41\n    /* \"#utility.yul\":254:255   */\n  0x04\n    /* \"#utility.yul\":247:262   */\n  mstore\n    /* \"#utility.yul\":281:285   */\n  0x24\n    /* \"#utility.yul\":278:279   */\n  0x00\n    /* \"#utility.yul\":271:286   */\n  revert\n    /* \"#utility.yul\":298:478   */\ntag_11:\n    /* \"#utility.yul\":346:423   */\n  0x4e487b7100000000000000000000000000000000000000000000000000000000\n    /* \"#utility.yul\":343:344   */\n  0x00\n    /* \"#utility.yul\":336:424   */\n  mstore\n    /* \"#utility.yul\":443:447   */\n  0x22\n    /* \"#utility.yul\":440:441   */\n  0x04\n    /* \"#utility.yul\":433:448   */\n  mstore\n    /* \"#utility.yul\":467:471   */\n  0x24\n    /* \"#utility.yul\":464:465   */\n  0x00\n    /* \"#utility.yul\":457:472   */\n  revert\n    /* \"#utility.yul\":484:804   */\ntag_12:\n    /* \"#utility.yul\":528:534   */\n  0x00\n    /* \"#utility.yul\":565:566   */\n  0x02\n    /* \"#utility.yul\":559:563   */\n  dup3\n    /* \"#utility.yul\":555:567   */\n  div\n    /* \"#utility.yul\":545:567   */\n  swap1\n  pop\n    /* \"#utility.yul\":612:613   */\n  0x01\n    /* \"#utility.yul\":606:610   */\n  dup3\n    /* \"#utility.yul\":602:614   */\n  and\n    /* \"#utility.yul\":633:651   */\n  dup1\n    /* \"#utility.yul\":623:704   */\n  tag_34\n  jumpi\n    /* \"#utility.yul\":689:693   */\n  0x7f\n    /* \"#utility.yul\":681:687   */\n  dup3\n    /* \"#utility.yul\":677:694   */\n  and\n    /* \"#utility.yul\":667:694   */\n  swap2\n  pop\n    /* \"#utility.yul\":623:704   */\ntag_34:\n    /* \"#utility.yul\":751:753   */\n  0x20\n    /* \"#utility.yul\":743:749   */\n  dup3\n    /* \"#utility.yul\":740:754   */\n  lt\n    /* \"#utility.yul\":720:738   */\n  dup2\n    /* \"#utility.yul\":717:755   */\n  sub\n    /* \"#utility.yul\":714:798   */\n  tag_35\n  jumpi\n    /* \"#utility.yul\":770:788   */\n  tag_36\n  tag_11\n  jump\t// in\ntag_36:\n    /* \"#utility.yul\":714:798   */\ntag_35:\n    /* \"#utility.yul\":535:804   */\n  pop\n    /* \"#utility.yul\":484:804   */\n  swap2\n  swap1\n  pop\n  jump\t// out\n    /* \"#utility.yul\":810:951   */\ntag_13:\n    /* \"#utility.yul\":859:863   */\n  0x00\n    /* \"#utility.yul\":882:885   */\n  dup2\n    /* \"#utility.yul\":874:885   */\n  swap1\n  pop\n    /* \"#utility.yul\":905:908   */\n  dup2\n    /* \"#utility.yul\":902:903   */\n  0x00\n    /* \"#utility.yul\":895:909   */\n  mstore\n    /* \"#utility.yul\":939:943   */\n  0x20\n    /* \"#utility.yul\":936:937   */\n  0x00\n    /* \"#utility.yul\":926:944   */\n  keccak256\n    /* \"#utility.yul\":918:944   */\n  swap1\n  pop\n    /* \"#utility.yul\":810:951   */\n  swap2\n  swap1\n  pop\n  jump\t// out\n    /* \"#utility.yul\":957:1050   */\ntag_14:\n    /* \"#utility.yul\":994:1000   */\n  0x00\n    /* \"#utility.yul\":1041:1043   */\n  0x20\n    /* \"#utility.yul\":1036:1038   */\n  0x1f\n    /* \"#utility.yul\":1029:1034   */\n  dup4\n    /* \"#utility.yul\":1025:1039   */\n  add\n    /* \"#utility.yul\":1021:1044   */\n  div\n    /* \"#utility.yul\":1011:1044   */\n  swap1\n  pop\n    /* \"#utility.yul\":957:1050   */\n  swap2\n  swap1\n  pop\n  jump\t// out\n    /* \"#utility.yul\":1056:1163   */\ntag_15:\n    /* \"#utility.yul\":1100:1108   */\n  0x00\n    /* \"#utility.yul\":1150:1155   */\n  dup3\n    /* \"#utility.yul\":1144:1148   */\n  dup3\n    /* \"#utility.yul\":1140:1156   */\n  shl\n    /* \"#utility.yul\":1119:1156   */\n  swap1\n  pop\n    /* \"#utility.yul\":1056:1163   */\n  swap3\n  swap2\n  pop\n  pop\n  jump\t// out\n    /* \"#utility.yul\":1169:1562   */\ntag_16:\n    /* \"#utility.yul\":1238:1244   */\n  0x00\n    /* \"#utility.yul\":1288:1289   */\n  0x08\n    /* \"#utility.yul\":1276:1286   */\n  dup4\n    /* \"#utility.yul\":1272:1290   */\n  mul\n    /* \"#utility.yul\":1311:1408   */\n  tag_41\n    /* \"#utility.yul\":1341:1407   */\n  0xffffffffffffffffffffffffffffffffffffffffffffffffffffffffffffffff\n    /* \"#utility.yul\":1330:1339   */\n  dup3\n    /* \"#utility.yul\":1311:1408   */\n  tag_15\n  jump\t// in\ntag_41:\n    /* \"#utility.yul\":1429:1468   */\n  tag_42\n    /* \"#utility.yul\":1459:1467   */\n  dup7\n    /* \"#utility.yul\":1448:1457   */\n  dup4\n    /* \"#utility.yul\":1429:1468   */\n  tag_15\n  jump\t// in\ntag_42:\n    /* \"#utility.yul\":1417:1468   */\n  swap6\n  pop\n    /* \"#utility.yul\":1501:1505   */\n  dup1\n    /* \"#utility.yul\":1497:1506   */\n  not\n    /* \"#utility.yul\":1490:1495   */\n  dup5\n    /* \"#utility.yul\":1486:1507   */\n  and\n    /* \"#utility.yul\":1477:1507   */\n  swap4\n  pop\n    /* \"#utility.yul\":1550:1554   */\n  dup1\n    /* \"#utility.yul\":1540:1548   */\n  dup7\n    /* \"#utility.yul\":1536:1555   */\n  and\n    /* \"#utility.yul\":1529:1534   */\n  dup5\n    /* \"#utility.yul\":1526:1556   */\n  or\n    /* \"#utility.yul\":1516:1556   */\n  swap3\n  pop\n    /* \"#utility.yul\":1245:1562   */\n  pop\n  pop\n    /* \"#utility.yul\":1169:1562   */\n  swap4\n  swap3\n  pop\n  pop\n  pop\n  jump\t// out\n    /* \"#utility.yul\":1568:1645   */\ntag_17:\n    /* \"#utility.yul\":1605:1612   */\n  0x00\n    /* \"#utility.yul\":1634:1639   */\n  dup2\n    /* \"#utility.yul\":1623:1639   */\n  swap1\n  pop\n    /* \"#utility.yul\":1568:1645   */\n  swap2\n  swap1\n  pop\n  jump\t// out\n    /* \"#utility.yul\":1651:1711   */\ntag_18:\n    /* \"#utility.yul\":1679:1682   */\n  0x00\n    /* \"#utility.yul\":1700:1705   */\n  dup2\n    /* \"#utility.yul\":1693:1705   */\n  swap1\n  pop\n    /* \"#utility.yul\":1651:1711   */\n  swap2\n  swap1\n  pop\n  jump\t// out\n    /* \"#utility.yul\":1717:1859   */\ntag_19:\n    /* \"#utility.yul\":1767:1776   */\n  0x00\n    /* \"#utility.yul\":1800:1853   */\n  tag_46\n    /* \"#utility.yul\":1818:1852   */\n  tag_47\n    /* \"#utility.yul\":1827:1851   */\n  tag_48\n    /* \"#utility.yul\":1845:1850   */\n  dup5\n    /* \"#utility.yul\":1827:1851   */\n  tag_17\n  jump\t// in\ntag_48:\n    /* \"#utility.yul\":1818:1852   */\n  tag_18\n  jump\t// in\ntag_47:\n    /* \"#utility.yul\":1800:1853   */\n  tag_17\n  jump\t// in\ntag_46:\n    /* \"#utility.yul\":1787:1853   */\n  swap1\n  pop\n    /* \"#utility.yul\":1717:1859   */\n  swap2\n  swap1\n  pop\n  jump\t// out\n    /* \"#utility.yul\":1865:1940   */\ntag_20:\n    /* \"#utility.yul\":1908:1911   */\n  0x00\n    /* \"#utility.yul\":1929:1934   */\n  dup2\n    /* \"#utility.yul\":1922:1934   */\n  swap1\n  pop\n    /* \"#utility.yul\":1865:1940   */\n  swap2\n  swap1\n  pop\n  jump\t// out\n    /* \"#utility.yul\":1946:2215   */\ntag_21:\n    /* \"#utility.yul\":2056:2095   */\n  tag_51\n    /* \"#utility.yul\":2087:2094   */\n  dup4\n    /* \"#utility.yul\":2056:2095   */\n  tag_19\n  jump\t// in\ntag_51:\n    /* \"#utility.yul\":2117:2208   */\n  tag_52\n    /* \"#utility.yul\":2166:2207   */\n  tag_53\n    /* \"#utility.yul\":2190:2206   */\n  dup3\n    /* \"#utility.yul\":2166:2207   */\n  tag_20\n  jump\t// in\ntag_53:\n    /* \"#utility.yul\":2158:2164   */\n  dup5\n    /* \"#utility.yul\":2151:2155   */\n  dup5\n    /* \"#utility.yul\":2145:2156   */\n  sload\n    /* \"#utility.yul\":2117:2208   */\n  tag_16\n  jump\t// in\ntag_52:\n    /* \"#utility.yul\":2111:2115   */\n  dup3\n    /* \"#utility.yul\":2104:2209   */\n  sstore\n    /* \"#utility.yul\":2022:2215   */\n  pop\n    /* \"#utility.yul\":1946:2215   */\n  pop\n  pop\n  pop\n  jump\t// out\n    /* \"#utility.yul\":2221:2294   */\ntag_22:\n    /* \"#utility.yul\":2266:2269   */\n  0x00\n    /* \"#utility.yul\":2221:2294   */\n  swap1\n  jump\t// out\n    /* \"#utility.yul\":2300:2489   */\ntag_23:\n    /* \"#utility.yul\":2377:2409   */\n  tag_56\n  tag_22\n  jump\t// in\ntag_56:\n    /* \"#utility.yul\":2418:2483   */\n  tag_57\n    /* \"#utility.yul\":2476:2482   */\n  dup2\n    /* \"#utility.yul\":2468:2474   */\n  dup5\n    /* \"#utility.yul\":2462:2466   */\n  dup5\n    /* \"#utility.yul\":2418:2483   */\n  tag_21\n  jump\t// in\ntag_57:\n    /* \"#utility.yul\":2353:2489   */\n  pop\n    /* \"#utility.yul\":2300:2489   */\n  pop\n  pop\n  jump\t// out\n    /* \"#utility.yul\":2495:2681   */\ntag_24:\n    /* \"#utility.yul\":2555:2675   */\ntag_59:\n    /* \"#utility.yul\":2572:2575   */\n  dup2\n    /* \"#utility.yul\":2565:2570   */\n  dup2\n    /* \"#utility.yul\":2562:2576   */\n  lt\n    /* \"#utility.yul\":2555:2675   */\n  iszero\n  tag_61\n  jumpi\n    /* \"#utility.yul\":2626:2665   */\n  tag_62\n    /* \"#utility.yul\":2663:2664   */\n  0x00\n    /* \"#utility.yul\":2656:2661   */\n  dup3\n    /* \"#utility.yul\":2626:2665   */\n  tag_23\n  jump\t// in\ntag_62:\n    /* \"#utility.yul\":2599:2600   */\n  0x01\n    /* \"#utility.yul\":2592:2597   */\n  dup2\n    /* \"#utility.yul\":2588:2601   */\n  add\n    /* \"#utility.yul\":2579:2601   */\n  swap1\n  pop\n    /* \"#utility.yul\":2555:2675   */\n  jump(tag_59)\ntag_61:\n    /* \"#utility.yul\":2495:2681   */\n  pop\n  pop\n  jump\t// out\n    /* \"#utility.yul\":2687:3230   */\ntag_25:\n    /* \"#utility.yul\":2788:2790   */\n  0x1f\n    /* \"#utility.yul\":2783:2786   */\n  dup3\n    /* \"#utility.yul\":2780:2791   */\n  gt\n    /* \"#utility.yul\":2777:3223   */\n  iszero\n  tag_64\n  jumpi\n    /* \"#utility.yul\":2822:2860   */\n  tag_65\n    /* \"#utility.yul\":2854:2859   */\n  dup2\n    /* \"#utility.yul\":2822:2860   */\n  tag_13\n  jump\t// in\ntag_65:\n    /* \"#utility.yul\":2906:2935   */\n  tag_66\n    /* \"#utility.yul\":2924:2934   */\n  dup5\n    /* \"#utility.yul\":2906:2935   */\n  tag_14\n  jump\t// in\ntag_66:\n    /* \"#utility.yul\":2896:2904   */\n  dup2\n    /* \"#utility.yul\":2892:2936   */\n  add\n    /* \"#utility.yul\":3089:3091   */\n  0x20\n    /* \"#utility.yul\":3077:3087   */\n  dup6\n    /* \"#utility.yul\":3074:3092   */\n  lt\n    /* \"#utility.yul\":3071:3120   */\n  iszero\n  tag_67\n  jumpi\n    /* \"#utility.yul\":3110:3118   */\n  dup2\n    /* \"#utility.yul\":3095:3118   */\n  swap1\n  pop\n    /* \"#utility.yul\":3071:3120   */\ntag_67:\n    /* \"#utility.yul\":3133:3213   */\n  tag_68\n    /* \"#utility.yul\":3189:3211   */\n  tag_69\n    /* \"#utility.yul\":3207:3210   */\n  dup6\n    /* \"#utility.yul\":3189:3211   */\n  tag_14\n  jump\t// in\ntag_69:\n    /* \"#utility.yul\":3179:3187   */\n  dup4\n    /* \"#utility.yul\":3175:3212   */\n  add\n    /* \"#utility.yul\":3162:3173   */\n  dup3\n    /* \"#utility.yul\":3133:3213   */\n  tag_24\n  jump\t// in\ntag_68:\n    /* \"#utility.yul\":2792:3223   */\n  pop\n  pop\n    /* \"#utility.yul\":2777:3223   */\ntag_64:\n    /* \"#utility.yul\":2687:3230   */\n  pop\n  pop\n  pop\n  jump\t// out\n    /* \"#utility.yul\":3236:3353   */\ntag_26:\n    /* \"#utility.yul\":3290:3298   */\n  0x00\n    /* \"#utility.yul\":3340:3345   */\n  dup3\n    /* \"#utility.yul\":3334:3338   */\n  dup3\n    /* \"#utility.yul\":3330:3346   */\n  shr\n    /* \"#utility.yul\":3309:3346   */\n  swap1\n  pop\n    /* \"#utility.yul\":3236:3353   */\n  swap3\n  swap2\n  pop\n  pop\n  jump\t// out\n    /* \"#utility.yul\":3359:3528   */\ntag_27:\n    /* \"#utility.yul\":3403:3409   */\n  0x00\n    /* \"#utility.yul\":3436:3487   */\n  tag_72\n    /* \"#utility.yul\":3484:3485   */\n  0x00\n    /* \"#utility.yul\":3480:3486   */\n  not\n    /* \"#utility.yul\":3472:3477   */\n  dup5\n    /* \"#utility.yul\":3469:3470   */\n  0x08\n    /* \"#utility.yul\":3465:3478   */\n  mul\n    /* \"#utility.yul\":3436:3487   */\n  tag_26\n  jump\t// in\ntag_72:\n    /* \"#utility.yul\":3432:3488   */\n  not\n    /* \"#utility.yul\":3517:3521   */\n  dup1\n    /* \"#utility.yul\":3511:3515   */\n  dup4\n    /* \"#utility.yul\":3507:3522   */\n  and\n    /* \"#utility.yul\":3497:3522   */\n  swap2\n  pop\n    /* \"#utility.yul\":3410:3528   */\n  pop\n    /* \"#utility.yul\":3359:3528   */\n  swap3\n  swap2\n  pop\n  pop\n  jump\t// out\n    /* \"#utility.yul\":3533:3828   */\ntag_28:\n    /* \"#utility.yul\":3609:3613   */\n  0x00\n    /* \"#utility.yul\":3755:3784   */\n  tag_74\n    /* \"#utility.yul\":3780:3783   */\n  dup4\n    /* \"#utility.yul\":3774:3778   */\n  dup4\n    /* \"#utility.yul\":3755:3784   */\n  tag_27\n  jump\t// in\ntag_74:\n    /* \"#utility.yul\":3747:3784   */\n  swap2\n  pop\n    /* \"#utility.yul\":3817:3820   */\n  dup3\n    /* \"#utility.yul\":3814:3815   */\n  0x02\n    /* \"#utility.yul\":3810:3821   */\n  mul\n    /* \"#utility.yul\":3804:3808   */\n  dup3\n    /* \"#utility.yul\":3801:3822   */\n  or\n    /* \"#utility.yul\":3793:3822   */\n  swap1\n  pop\n    /* \"#utility.yul\":3533:3828   */\n  swap3\n  swap2\n  pop\n  pop\n  jump\t// out\n    /* \"#utility.yul\":3833:5228   */\ntag_5:\n    /* \"#utility.yul\":3950:3987   */\n  tag_76\n    /* \"#utility.yul\":3983:3986   */\n  dup3\n    /* \"#utility.yul\":3950:3987   */\n  tag_9\n  jump\t// in\ntag_76:\n    /* \"#utility.yul\":4052:4070   */\n  0xffffffffffffffff\n    /* \"#utility.yul\":4044:4050   */\n  dup2\n    /* \"#utility.yul\":4041:4071   */\n  gt\n    /* \"#utility.yul\":4038:4094   */\n  iszero\n  tag_77\n  jumpi\n    /* \"#utility.yul\":4074:4092   */\n  tag_78\n  tag_10\n  jump\t// in\ntag_78:\n    /* \"#utility.yul\":4038:4094   */\ntag_77:\n    /* \"#utility.yul\":4118:4156   */\n  tag_79\n    /* \"#utility.yul\":4150:4154   */\n  dup3\n    /* \"#utility.yul\":4144:4155   */\n  sload\n    /* \"#utility.yul\":4118:4156   */\n  tag_12\n  jump\t// in\ntag_79:\n    /* \"#utility.yul\":4203:4270   */\n  tag_80\n    /* \"#utility.yul\":4263:4269   */\n  dup3\n    /* \"#utility.yul\":4255:4261   */\n  dup3\n    /* \"#utility.yul\":4249:4253   */\n  dup6\n    /* \"#utility.yul\":4203:4270   */\n  tag_25\n  jump\t// in\ntag_80:\n    /* \"#utility.yul\":4297:4298   */\n  0x00\n    /* \"#utility.yul\":4321:4325   */\n  0x20\n    /* \"#utility.yul\":4308:4325   */\n  swap1\n  pop\n    /* \"#utility.yul\":4353:4355   */\n  0x1f\n    /* \"#utility.yul\":4345:4351   */\n  dup4\n    /* \"#utility.yul\":4342:4356   */\n  gt\n    /* \"#utility.yul\":4370:4371   */\n  0x01\n    /* \"#utility.yul\":4365:4983   */\n  dup2\n  eq\n  tag_82\n  jumpi\n    /* \"#utility.yul\":5027:5028   */\n  0x00\n    /* \"#utility.yul\":5044:5050   */\n  dup5\n    /* \"#utility.yul\":5041:5118   */\n  iszero\n  tag_83\n  jumpi\n    /* \"#utility.yul\":5093:5102   */\n  dup3\n    /* \"#utility.yul\":5088:5091   */\n  dup8\n    /* \"#utility.yul\":5084:5103   */\n  add\n    /* \"#utility.yul\":5078:5104   */\n  mload\n    /* \"#utility.yul\":5069:5104   */\n  swap1\n  pop\n    /* \"#utility.yul\":5041:5118   */\ntag_83:\n    /* \"#utility.yul\":5144:5211   */\n  tag_84\n    /* \"#utility.yul\":5204:5210   */\n  dup6\n    /* \"#utility.yul\":5197:5202   */\n  dup3\n    /* \"#utility.yul\":5144:5211   */\n  tag_28\n  jump\t// in\ntag_84:\n    /* \"#utility.yul\":5138:5142   */\n  dup7\n    /* \"#utility.yul\":5131:5212   */\n  sstore\n    /* \"#utility.yul\":5000:5222   */\n  pop\n    /* \"#utility.yul\":4335:5222   */\n  jump(tag_81)\n    /* \"#utility.yul\":4365:4983   */\ntag_82:\n    /* \"#utility.yul\":4417:4421   */\n  0x1f\n    /* \"#utility.yul\":4413:4422   */\n  not\n    /* \"#utility.yul\":4405:4411   */\n  dup5\n    /* \"#utility.yul\":4401:4423   */\n  and\n    /* \"#utility.yul\":4451:4488   */\n  tag_85\n    /* \"#utility.yul\":4483:4487   */\n  dup7\n    /* \"#utility.yul\":4451:4488   */\n  tag_13\n  jump\t// in\ntag_85:\n    /* \"#utility.yul\":4510:4511   */\n  0x00\n    /* \"#utility.yul\":4524:4732   */\ntag_86:\n    /* \"#utility.yul\":4538:4545   */\n  dup3\n    /* \"#utility.yul\":4535:4536   */\n  dup2\n    /* \"#utility.yul\":4532:4546   */\n  lt\n    /* \"#utility.yul\":4524:4732   */\n  iszero\n  tag_88\n  jumpi\n    /* \"#utility.yul\":4617:4626   */\n  dup5\n    /* \"#utility.yul\":4612:4615   */\n  dup10\n    /* \"#utility.yul\":4608:4627   */\n  add\n    /* \"#utility.yul\":4602:4628   */\n  mload\n    /* \"#utility.yul\":4594:4600   */\n  dup3\n    /* \"#utility.yul\":4587:4629   */\n  sstore\n    /* \"#utility.yul\":4668:4669   */\n  0x01\n    /* \"#utility.yul\":4660:4666   */\n  dup3\n    /* \"#utility.yul\":4656:4670   */\n  add\n    /* \"#utility.yul\":4646:4670   */\n  swap2\n  pop\n    /* \"#utility.yul\":4715:4717   */\n  0x20\n    /* \"#utility.yul\":4704:4713   */\n  dup6\n    /* \"#utility.yul\":4700:4718   */\n  add\n    /* \"#utility.yul\":4687:4718   */\n  swap5\n  pop\n    /* \"#utility.yul\":4561:4565   */\n  0x20\n    /* \"#utility.yul\":4558:4559   */\n  dup2\n    /* \"#utility.yul\":4554:4566   */\n  add\n    /* \"#utility.yul\":4549:4566   */\n  swap1\n  pop\n    /* \"#utility.yul\":4524:4732   */\n  jump(tag_86)\ntag_88:\n    /* \"#utility.yul\":4760:4766   */\n  dup7\n    /* \"#utility.yul\":4751:4758   */\n  dup4\n    /* \"#utility.yul\":4748:4767   */\n  lt\n    /* \"#utility.yul\":4745:4924   */\n  iszero\n  tag_89\n  jumpi\n    /* \"#utility.yul\":4818:4827   */\n  dup5\n    /* \"#utility.yul\":4813:4816   */\n  dup10\n    /* \"#utility.yul\":4809:4828   */\n  add\n    /* \"#utility.yul\":4803:4829   */\n  mload\n    /* \"#utility.yul\":4861:4909   */\n  tag_90\n    /* \"#utility.yul\":4903:4907   */\n  0x1f\n    /* \"#utility.yul\":4895:4901   */\n  dup10\n    /* \"#utility.yul\":4891:4908   */\n  and\n    /* \"#utility.yul\":4880:4889   */\n  dup3\n    /* \"#utility.yul\":4861:4909   */\n  tag_27\n  jump\t// in\ntag_90:\n    /* \"#utility.yul\":4853:4859   */\n  dup4\n    /* \"#utility.yul\":4846:4910   */\n  sstore\n    /* \"#utility.yul\":4768:4924   */\n  pop\n    /* \"#utility.yul\":4745:4924   */\ntag_89:\n    /* \"#utility.yul\":4970:4971   */\n  0x01\n    /* \"#utility.yul\":4966:4967   */\n  0x02\n    /* \"#utility.yul\":4958:4964   */\n  dup9\n    /* \"#utility.yul\":4954:4968   */\n  mul\n    /* \"#utility.yul\":4950:4972   */\n  add\n    /* \"#utility.yul\":4944:4948   */\n  dup9\n    /* \"#utility.yul\":4937:4973   */\n  sstore\n    /* \"#utility.yul\":4372:4983   */\n  pop\n  pop\n  pop\n    /* \"#utility.yul\":4335:5222   */\ntag_81:\n  pop\n    /* \"#utility.yul\":3925:5228   */\n  pop\n  pop\n  pop\n    /* \"#utility.yul\":3833:5228   */\n  pop\n  pop\n  jump\t// out\n    /* \"contracts/CSToken.sol\":300:5514  contract CSToken is ERC20, ERC20Burnable {... */\ntag_8:\n  dataSize(sub_0)\n  dup1\n  dataOffset(sub_0)\n  0x00\n  codecopy\n  0x00\n  return\nstop\n\nsub_0: assembly {\n        /* \"contracts/CSToken.sol\":300:5514  contract CSToken is ERC20, ERC20Burnable {... */\n      mstore(0x40, 0x80)\n      jumpi(tag_1, lt(calldatasize, 0x04))\n      shr(0xe0, calldataload(0x00))\n      dup1\n      0x4763fbd2\n      gt\n      tag_22\n      jumpi\n      dup1\n      0xa5fdc5de\n      gt\n      tag_23\n      jumpi\n      dup1\n      0xa5fdc5de\n      eq\n      tag_17\n      jumpi\n      dup1\n      0xa9059cbb\n      eq\n      tag_18\n      jumpi\n      dup1\n      0xb6f7132f\n      eq\n      tag_19\n      jumpi\n      dup1\n      0xcd60f59f\n      eq\n      tag_20\n      jumpi\n      dup1\n      0xdd62ed3e\n      eq\n      tag_21\n      jumpi\n      jump(tag_1)\n    tag_23:\n      dup1\n      0x4763fbd2\n      eq\n      tag_12\n      jumpi\n      dup1\n      0x70a08231\n      eq\n      tag_13\n      jumpi\n      dup1\n      0x79cc6790\n      eq\n      tag_14\n      jumpi\n      dup1\n      0x95d89b41\n      eq\n      tag_15\n      jumpi\n      dup1\n      0x9dc29fac\n      eq\n      tag_16\n      jumpi\n      jump(tag_1)\n    tag_22:\n      dup1\n      0x23b872dd\n      gt\n      tag_24\n      jumpi\n      dup1\n      0x23b872dd\n      eq\n      tag_7\n      jumpi\n      dup1\n      0x25f5a4a2\n      eq\n      tag_8\n      jumpi\n      dup1\n      0x2d968e1a\n      eq\n      tag_9\n      jumpi\n      dup1\n      0x313ce567\n      eq\n      tag_10\n      jumpi\n      dup1\n      0x42966c68\n      eq\n      tag_11\n      jumpi\n      jump(tag_1)\n    tag_24:\n      dup1\n      0x06fdde03\n      eq\n      tag_2\n      jumpi\n      dup1\n      0x095ea7b3\n      eq\n      tag_3\n      jumpi\n      dup1\n      0x18160ddd\n      eq\n      tag_4\n      jumpi\n      dup1\n      0x1b2ef1ca\n      eq\n      tag_5\n      jumpi\n      dup1\n      0x1f86956c\n      eq\n      tag_6\n      jumpi\n    tag_1:\n      0x00\n      dup1\n      revert\n        /* \".deps/npm/@openzeppelin/contracts/token/ERC20/ERC20.sol\":1779:1868  function name() public view virtual returns (string memory) {... */\n    tag_2:\n      callvalue\n      dup1\n      iszero\n      tag_25\n      jumpi\n      0x00\n      dup1\n      revert\n    tag_25:\n      pop\n      tag_26\n      tag_27\n      jump\t// in\n    tag_26:\n      mload(0x40)\n      tag_28\n      swap2\n      swap1\n      tag_29\n      jump\t// in\n    tag_28:\n      mload(0x40)\n      dup1\n      swap2\n      sub\n      swap1\n      return\n        /* \".deps/npm/@openzeppelin/contracts/token/ERC20/ERC20.sol\":3998:4184  function approve(address spender, uint256 value) public virtual returns (bool) {... */\n    tag_3:\n      callvalue\n      dup1\n      iszero\n      tag_30\n      jumpi\n      0x00\n      dup1\n      revert\n    tag_30:\n      pop\n      tag_31\n      0x04\n      dup1\n      calldatasize\n      sub\n      dup2\n      add\n      swap1\n      tag_32\n      swap2\n      swap1\n      tag_33\n      jump\t// in\n    tag_32:\n      tag_34\n      jump\t// in\n    tag_31:\n      mload(0x40)\n      tag_35\n      swap2\n      swap1\n      tag_36\n      jump\t// in\n    tag_35:\n      mload(0x40)\n      dup1\n      swap2\n      sub\n      swap1\n      return\n        /* \".deps/npm/@openzeppelin/contracts/token/ERC20/ERC20.sol\":2849:2946  function totalSupply() public view virtual returns (uint256) {... */\n    tag_4:\n      callvalue\n      dup1\n      iszero\n      tag_37\n      jumpi\n      0x00\n      dup1\n      revert\n    tag_37:\n      pop\n      tag_38\n      tag_39\n      jump\t// in\n    tag_38:\n      mload(0x40)\n      tag_40\n      swap2\n      swap1\n      tag_41\n      jump\t// in\n    tag_40:\n      mload(0x40)\n      dup1\n      swap2\n      sub\n      swap1\n      return\n        /* \"contracts/CSToken.sol\":1394:2660  function mint(uint256 amount, uint256 conversionRate) public payable mustNotBeTokenOwner{... */\n    tag_5:\n      tag_42\n      0x04\n      dup1\n      calldatasize\n      sub\n      dup2\n      add\n      swap1\n      tag_43\n      swap2\n      swap1\n      tag_44\n      jump\t// in\n    tag_43:\n      tag_45\n      jump\t// in\n    tag_42:\n      stop\n        /* \"contracts/CSToken.sol\":481:534  mapping(address => uint256) public userConversionRate */\n    tag_6:\n      callvalue\n      dup1\n      iszero\n      tag_46\n      jumpi\n      0x00\n      dup1\n      revert\n    tag_46:\n      pop\n      tag_47\n      0x04\n      dup1\n      calldatasize\n      sub\n      dup2\n      add\n      swap1\n      tag_48\n      swap2\n      swap1\n      tag_49\n      jump\t// in\n    tag_48:\n      tag_50\n      jump\t// in\n    tag_47:\n      mload(0x40)\n      tag_51\n      swap2\n      swap1\n      tag_41\n      jump\t// in\n    tag_51:\n      mload(0x40)\n      dup1\n      swap2\n      sub\n      swap1\n      return\n        /* \".deps/npm/@openzeppelin/contracts/token/ERC20/ERC20.sol\":4776:5020  function transferFrom(address from, address to, uint256 value) public virtual returns (bool) {... */\n    tag_7:\n      callvalue\n      dup1\n      iszero\n      tag_52\n      jumpi\n      0x00\n      dup1\n      revert\n    tag_52:\n      pop\n      tag_53\n      0x04\n      dup1\n      calldatasize\n      sub\n      dup2\n      add\n      swap1\n      tag_54\n      swap2\n      swap1\n      tag_55\n      jump\t// in\n    tag_54:\n      tag_56\n      jump\t// in\n    tag_53:\n      mload(0x40)\n      tag_57\n      swap2\n      swap1\n      tag_36\n      jump\t// in\n    tag_57:\n      mload(0x40)\n      dup1\n      swap2\n      sub\n      swap1\n      return\n        /* \"contracts/CSToken.sol\":4026:4386  function getMyTokenInformation() public mustBeTokenOwner {... */\n    tag_8:\n      callvalue\n      dup1\n      iszero\n      tag_58\n      jumpi\n      0x00\n      dup1\n      revert\n    tag_58:\n      pop\n      tag_59\n      tag_60\n      jump\t// in\n    tag_59:\n      stop\n        /* \"contracts/CSToken.sol\":2784:3912  function topUpMyTokens(uint256 amount) public payable mustBeTokenOwner {... */\n    tag_9:\n      tag_61\n      0x04\n      dup1\n      calldatasize\n      sub\n      dup2\n      add\n      swap1\n      tag_62\n      swap2\n      swap1\n      tag_63\n      jump\t// in\n    tag_62:\n      tag_64\n      jump\t// in\n    tag_61:\n      stop\n        /* \".deps/npm/@openzeppelin/contracts/token/ERC20/ERC20.sol\":2707:2789  function decimals() public view virtual returns (uint8) {... */\n    tag_10:\n      callvalue\n      dup1\n      iszero\n      tag_65\n      jumpi\n      0x00\n      dup1\n      revert\n    tag_65:\n      pop\n      tag_66\n      tag_67\n      jump\t// in\n    tag_66:\n      mload(0x40)\n      tag_68\n      swap2\n      swap1\n      tag_69\n      jump\t// in\n    tag_68:\n      mload(0x40)\n      dup1\n      swap2\n      sub\n      swap1\n      return\n        /* \".deps/npm/@openzeppelin/contracts/token/ERC20/extensions/ERC20Burnable.sol\":618:705  function burn(uint256 value) public virtual {... */\n    tag_11:\n      callvalue\n      dup1\n      iszero\n      tag_70\n      jumpi\n      0x00\n      dup1\n      revert\n    tag_70:\n      pop\n      tag_71\n      0x04\n      dup1\n      calldatasize\n      sub\n      dup2\n      add\n      swap1\n      tag_72\n      swap2\n      swap1\n      tag_63\n      jump\t// in\n    tag_72:\n      tag_73\n      jump\t// in\n    tag_71:\n      stop\n        /* \"contracts/CSToken.sol\":4599:4728  function getUserConversionRate(address lister) external view returns (uint256) {... */\n    tag_12:\n      callvalue\n      dup1\n      iszero\n      tag_74\n      jumpi\n      0x00\n      dup1\n      revert\n    tag_74:\n      pop\n      tag_75\n      0x04\n      dup1\n      calldatasize\n      sub\n      dup2\n      add\n      swap1\n      tag_76\n      swap2\n      swap1\n      tag_49\n      jump\t// in\n    tag_76:\n      tag_77\n      jump\t// in\n    tag_75:\n      mload(0x40)\n      tag_78\n      swap2\n      swap1\n      tag_41\n      jump\t// in\n    tag_78:\n      mload(0x40)\n      dup1\n      swap2\n      sub\n      swap1\n      return\n        /* \".deps/npm/@openzeppelin/contracts/token/ERC20/ERC20.sol\":3004:3120  function balanceOf(address account) public view virtual returns (uint256) {... */\n    tag_13:\n      callvalue\n      dup1\n      iszero\n      tag_79\n      jumpi\n      0x00\n      dup1\n      revert\n    tag_79:\n      pop\n      tag_80\n      0x04\n      dup1\n      calldatasize\n      sub\n      dup2\n      add\n      swap1\n      tag_81\n      swap2\n      swap1\n      tag_49\n      jump\t// in\n    tag_81:\n      tag_82\n      jump\t// in\n    tag_80:\n      mload(0x40)\n      tag_83\n      swap2\n      swap1\n      tag_41\n      jump\t// in\n    tag_83:\n      mload(0x40)\n      dup1\n      swap2\n      sub\n      swap1\n      return\n        /* \".deps/npm/@openzeppelin/contracts/token/ERC20/extensions/ERC20Burnable.sol\":1021:1179  function burnFrom(address account, uint256 value) public virtual {... */\n    tag_14:\n      callvalue\n      dup1\n      iszero\n      tag_84\n      jumpi\n      0x00\n      dup1\n      revert\n    tag_84:\n      pop\n      tag_85\n      0x04\n      dup1\n      calldatasize\n      sub\n      dup2\n      add\n      swap1\n      tag_86\n      swap2\n      swap1\n      tag_33\n      jump\t// in\n    tag_86:\n      tag_87\n      jump\t// in\n    tag_85:\n      stop\n        /* \".deps/npm/@openzeppelin/contracts/token/ERC20/ERC20.sol\":1981:2074  function symbol() public view virtual returns (string memory) {... */\n    tag_15:\n      callvalue\n      dup1\n      iszero\n      tag_88\n      jumpi\n      0x00\n      dup1\n      revert\n    tag_88:\n      pop\n      tag_89\n      tag_90\n      jump\t// in\n    tag_89:\n      mload(0x40)\n      tag_91\n      swap2\n      swap1\n      tag_29\n      jump\t// in\n    tag_91:\n      mload(0x40)\n      dup1\n      swap2\n      sub\n      swap1\n      return\n        /* \"contracts/CSToken.sol\":4802:5149  function burn(address from, uint256 amount) public {... */\n    tag_16:\n      callvalue\n      dup1\n      iszero\n      tag_92\n      jumpi\n      0x00\n      dup1\n      revert\n    tag_92:\n      pop\n      tag_93\n      0x04\n      dup1\n      calldatasize\n      sub\n      dup2\n      add\n      swap1\n      tag_94\n      swap2\n      swap1\n      tag_33\n      jump\t// in\n    tag_94:\n      tag_95\n      jump\t// in\n    tag_93:\n      stop\n        /* \"contracts/CSToken.sol\":393:438  mapping(address => uint256) public collateral */\n    tag_17:\n      callvalue\n      dup1\n      iszero\n      tag_96\n      jumpi\n      0x00\n      dup1\n      revert\n    tag_96:\n      pop\n      tag_97\n      0x04\n      dup1\n      calldatasize\n      sub\n      dup2\n      add\n      swap1\n      tag_98\n      swap2\n      swap1\n      tag_49\n      jump\t// in\n    tag_98:\n      tag_99\n      jump\t// in\n    tag_97:\n      mload(0x40)\n      tag_100\n      swap2\n      swap1\n      tag_41\n      jump\t// in\n    tag_100:\n      mload(0x40)\n      dup1\n      swap2\n      sub\n      swap1\n      return\n        /* \".deps/npm/@openzeppelin/contracts/token/ERC20/ERC20.sol\":3315:3493  function transfer(address to, uint256 value) public virtual returns (bool) {... */\n    tag_18:\n      callvalue\n      dup1\n      iszero\n      tag_101\n      jumpi\n      0x00\n      dup1\n      revert\n    tag_101:\n      pop\n      tag_102\n      0x04\n      dup1\n      calldatasize\n      sub\n      dup2\n      add\n      swap1\n      tag_103\n      swap2\n      swap1\n      tag_33\n      jump\t// in\n    tag_103:\n      tag_104\n      jump\t// in\n    tag_102:\n      mload(0x40)\n      tag_105\n      swap2\n      swap1\n      tag_36\n      jump\t// in\n    tag_105:\n      mload(0x40)\n      dup1\n      swap2\n      sub\n      swap1\n      return\n        /* \"contracts/CSToken.sol\":4437:4554  function getUserCollateral(address lister) external view returns (uint256) {... */\n    tag_19:\n      callvalue\n      dup1\n      iszero\n      tag_106\n      jumpi\n      0x00\n      dup1\n      revert\n    tag_106:\n      pop\n      tag_107\n      0x04\n      dup1\n      calldatasize\n      sub\n      dup2\n      add\n      swap1\n      tag_108\n      swap2\n      swap1\n      tag_49\n      jump\t// in\n    tag_108:\n      tag_109\n      jump\t// in\n    tag_107:\n      mload(0x40)\n      tag_110\n      swap2\n      swap1\n      tag_41\n      jump\t// in\n    tag_110:\n      mload(0x40)\n      dup1\n      swap2\n      sub\n      swap1\n      return\n        /* \"contracts/CSToken.sol\":5271:5512  function transferCollateral(address from, address to, uint256 amount) external {... */\n    tag_20:\n      callvalue\n      dup1\n      iszero\n      tag_111\n      jumpi\n      0x00\n      dup1\n      revert\n    tag_111:\n      pop\n      tag_112\n      0x04\n      dup1\n      calldatasize\n      sub\n      dup2\n      add\n      swap1\n      tag_113\n      swap2\n      swap1\n      tag_55\n      jump\t// in\n    tag_113:\n      tag_114\n      jump\t// in\n    tag_112:\n      stop\n        /* \".deps/npm/@openzeppelin/contracts/token/ERC20/ERC20.sol\":3551:3691  function allowance(address owner, address spender) public view virtual returns (uint256) {... */\n    tag_21:\n      callvalue\n      dup1\n      iszero\n      tag_115\n      jumpi\n      0x00\n      dup1\n      revert\n    tag_115:\n      pop\n      tag_116\n      0x04\n      dup1\n      calldatasize\n      sub\n      dup2\n      add\n      swap1\n      tag_117\n      swap2\n      swap1\n      tag_118\n      jump\t// in\n    tag_117:\n      tag_119\n      jump\t// in\n    tag_116:\n      mload(0x40)\n      tag_120\n      swap2\n      swap1\n      tag_41\n      jump\t// in\n    tag_120:\n      mload(0x40)\n      dup1\n      swap2\n      sub\n      swap1\n      return\n        /* \".deps/npm/@openzeppelin/contracts/token/ERC20/ERC20.sol\":1779:1868  function name() public view virtual returns (string memory) {... */\n    tag_27:\n        /* \".deps/npm/@openzeppelin/contracts/token/ERC20/ERC20.sol\":1824:1837  string memory */\n      0x60\n        /* \".deps/npm/@openzeppelin/contracts/token/ERC20/ERC20.sol\":1856:1861  _name */\n      0x03\n        /* \".deps/npm/@openzeppelin/contracts/token/ERC20/ERC20.sol\":1849:1861  return _name */\n      dup1\n      sload\n      tag_122\n      swap1\n      tag_123\n      jump\t// in\n    tag_122:\n      dup1\n      0x1f\n      add\n      0x20\n      dup1\n      swap2\n      div\n      mul\n      0x20\n      add\n      mload(0x40)\n      swap1\n      dup2\n      add\n      0x40\n      mstore\n      dup1\n      swap3\n      swap2\n      swap1\n      dup2\n      dup2\n      mstore\n      0x20\n      add\n      dup3\n      dup1\n      sload\n      tag_124\n      swap1\n      tag_123\n      jump\t// in\n    tag_124:\n      dup1\n      iszero\n      tag_125\n      jumpi\n      dup1\n      0x1f\n      lt\n      tag_126\n      jumpi\n      0x0100\n      dup1\n      dup4\n      sload\n      div\n      mul\n      dup4\n      mstore\n      swap2\n      0x20\n      add\n      swap2\n      jump(tag_125)\n    tag_126:\n      dup3\n      add\n      swap2\n      swap1\n      0x00\n      mstore\n      keccak256(0x00, 0x20)\n      swap1\n    tag_127:\n      dup2\n      sload\n      dup2\n      mstore\n      swap1\n      0x01\n      add\n      swap1\n      0x20\n      add\n      dup1\n      dup4\n      gt\n      tag_127\n      jumpi\n      dup3\n      swap1\n      sub\n      0x1f\n      and\n      dup3\n      add\n      swap2\n    tag_125:\n      pop\n      pop\n      pop\n      pop\n      pop\n      swap1\n      pop\n        /* \".deps/npm/@openzeppelin/contracts/token/ERC20/ERC20.sol\":1779:1868  function name() public view virtual returns (string memory) {... */\n      swap1\n      jump\t// out\n        /* \".deps/npm/@openzeppelin/contracts/token/ERC20/ERC20.sol\":3998:4184  function approve(address spender, uint256 value) public virtual returns (bool) {... */\n    tag_34:\n        /* \".deps/npm/@openzeppelin/contracts/token/ERC20/ERC20.sol\":4071:4075  bool */\n      0x00\n        /* \".deps/npm/@openzeppelin/contracts/token/ERC20/ERC20.sol\":4087:4100  address owner */\n      dup1\n        /* \".deps/npm/@openzeppelin/contracts/token/ERC20/ERC20.sol\":4103:4115  _msgSender() */\n      tag_129\n        /* \".deps/npm/@openzeppelin/contracts/token/ERC20/ERC20.sol\":4103:4113  _msgSender */\n      tag_130\n        /* \".deps/npm/@openzeppelin/contracts/token/ERC20/ERC20.sol\":4103:4115  _msgSender() */\n      jump\t// in\n    tag_129:\n        /* \".deps/npm/@openzeppelin/contracts/token/ERC20/ERC20.sol\":4087:4115  address owner = _msgSender() */\n      swap1\n      pop\n        /* \".deps/npm/@openzeppelin/contracts/token/ERC20/ERC20.sol\":4125:4156  _approve(owner, spender, value) */\n      tag_131\n        /* \".deps/npm/@openzeppelin/contracts/token/ERC20/ERC20.sol\":4134:4139  owner */\n      dup2\n        /* \".deps/npm/@openzeppelin/contracts/token/ERC20/ERC20.sol\":4141:4148  spender */\n      dup6\n        /* \".deps/npm/@openzeppelin/contracts/token/ERC20/ERC20.sol\":4150:4155  value */\n      dup6\n        /* \".deps/npm/@openzeppelin/contracts/token/ERC20/ERC20.sol\":4125:4133  _approve */\n      tag_132\n        /* \".deps/npm/@openzeppelin/contracts/token/ERC20/ERC20.sol\":4125:4156  _approve(owner, spender, value) */\n      jump\t// in\n    tag_131:\n        /* \".deps/npm/@openzeppelin/contracts/token/ERC20/ERC20.sol\":4173:4177  true */\n      0x01\n        /* \".deps/npm/@openzeppelin/contracts/token/ERC20/ERC20.sol\":4166:4177  return true */\n      swap2\n      pop\n      pop\n        /* \".deps/npm/@openzeppelin/contracts/token/ERC20/ERC20.sol\":3998:4184  function approve(address spender, uint256 value) public virtual returns (bool) {... */\n      swap3\n      swap2\n      pop\n      pop\n      jump\t// out\n        /* \".deps/npm/@openzeppelin/contracts/token/ERC20/ERC20.sol\":2849:2946  function totalSupply() public view virtual returns (uint256) {... */\n    tag_39:\n        /* \".deps/npm/@openzeppelin/contracts/token/ERC20/ERC20.sol\":2901:2908  uint256 */\n      0x00\n        /* \".deps/npm/@openzeppelin/contracts/token/ERC20/ERC20.sol\":2927:2939  _totalSupply */\n      sload(0x02)\n        /* \".deps/npm/@openzeppelin/contracts/token/ERC20/ERC20.sol\":2920:2939  return _totalSupply */\n      swap1\n      pop\n        /* \".deps/npm/@openzeppelin/contracts/token/ERC20/ERC20.sol\":2849:2946  function totalSupply() public view virtual returns (uint256) {... */\n      swap1\n      jump\t// out\n        /* \"contracts/CSToken.sol\":1394:2660  function mint(uint256 amount, uint256 conversionRate) public payable mustNotBeTokenOwner{... */\n    tag_45:\n        /* \"contracts/CSToken.sol\":1160:1161  0 */\n      0x00\n        /* \"contracts/CSToken.sol\":1134:1144  collateral */\n      0x06\n        /* \"contracts/CSToken.sol\":1134:1156  collateral[msg.sender] */\n      0x00\n        /* \"contracts/CSToken.sol\":1145:1155  msg.sender */\n      caller\n        /* \"contracts/CSToken.sol\":1134:1156  collateral[msg.sender] */\n      0xffffffffffffffffffffffffffffffffffffffff\n      and\n      0xffffffffffffffffffffffffffffffffffffffff\n      and\n      dup2\n      mstore\n      0x20\n      add\n      swap1\n      dup2\n      mstore\n      0x20\n      add\n      0x00\n      keccak256\n      sload\n        /* \"contracts/CSToken.sol\":1134:1161  collateral[msg.sender] == 0 */\n      eq\n        /* \"contracts/CSToken.sol\":1126:1223  require(collateral[msg.sender] == 0, \"You must not have minted tokens to query this information\") */\n      tag_135\n      jumpi\n      mload(0x40)\n      0x08c379a000000000000000000000000000000000000000000000000000000000\n      dup2\n      mstore\n      0x04\n      add\n      tag_136\n      swap1\n      tag_137\n      jump\t// in\n    tag_136:\n      mload(0x40)\n      dup1\n      swap2\n      sub\n      swap1\n      revert\n    tag_135:\n        /* \"contracts/CSToken.sol\":1492:1518  uint256 requiredCollateral */\n      0x00\n        /* \"contracts/CSToken.sol\":1530:1544  conversionRate */\n      dup2\n        /* \"contracts/CSToken.sol\":1521:1527  amount */\n      dup4\n        /* \"contracts/CSToken.sol\":1521:1544  amount * conversionRate */\n      tag_139\n      swap2\n      swap1\n      tag_140\n      jump\t// in\n    tag_139:\n        /* \"contracts/CSToken.sol\":1492:1544  uint256 requiredCollateral = amount * conversionRate */\n      swap1\n      pop\n        /* \"contracts/CSToken.sol\":1608:1626  requiredCollateral */\n      dup1\n        /* \"contracts/CSToken.sol\":1595:1604  msg.value */\n      callvalue\n        /* \"contracts/CSToken.sol\":1595:1626  msg.value >= requiredCollateral */\n      lt\n      iszero\n        /* \"contracts/CSToken.sol\":1762:1798  Strings.toString(requiredCollateral) */\n      tag_141\n        /* \"contracts/CSToken.sol\":1779:1797  requiredCollateral */\n      dup3\n        /* \"contracts/CSToken.sol\":1762:1778  Strings.toString */\n      tag_142\n        /* \"contracts/CSToken.sol\":1762:1798  Strings.toString(requiredCollateral) */\n      jump\t// in\n    tag_141:\n        /* \"contracts/CSToken.sol\":1865:1892  Strings.toString(msg.value) */\n      tag_143\n        /* \"contracts/CSToken.sol\":1882:1891  msg.value */\n      callvalue\n        /* \"contracts/CSToken.sol\":1865:1881  Strings.toString */\n      tag_142\n        /* \"contracts/CSToken.sol\":1865:1892  Strings.toString(msg.value) */\n      jump\t// in\n    tag_143:\n        /* \"contracts/CSToken.sol\":1665:1940  abi.encodePacked(... */\n      add(0x20, mload(0x40))\n      tag_144\n      swap3\n      swap2\n      swap1\n      tag_145\n      jump\t// in\n    tag_144:\n      mload(0x40)\n      0x20\n      dup2\n      dup4\n      sub\n      sub\n      dup2\n      mstore\n      swap1\n      0x40\n      mstore\n        /* \"contracts/CSToken.sol\":1587:1964  require(msg.value >= requiredCollateral, ... */\n      swap1\n      tag_146\n      jumpi\n      mload(0x40)\n      0x08c379a000000000000000000000000000000000000000000000000000000000\n      dup2\n      mstore\n      0x04\n      add\n      tag_147\n      swap2\n      swap1\n      tag_29\n      jump\t// in\n    tag_147:\n      mload(0x40)\n      dup1\n      swap2\n      sub\n      swap1\n      revert\n    tag_146:\n      pop\n        /* \"contracts/CSToken.sol\":1975:1995  uint256 excessAmount */\n      0x00\n        /* \"contracts/CSToken.sol\":2010:2028  requiredCollateral */\n      dup2\n        /* \"contracts/CSToken.sol\":1998:2007  msg.value */\n      callvalue\n        /* \"contracts/CSToken.sol\":1998:2028  msg.value - requiredCollateral */\n      tag_148\n      swap2\n      swap1\n      tag_149\n      jump\t// in\n    tag_148:\n        /* \"contracts/CSToken.sol\":1975:2028  uint256 excessAmount = msg.value - requiredCollateral */\n      swap1\n      pop\n        /* \"contracts/CSToken.sol\":2114:2115  0 */\n      0x00\n        /* \"contracts/CSToken.sol\":2099:2111  excessAmount */\n      dup2\n        /* \"contracts/CSToken.sol\":2099:2115  excessAmount > 0 */\n      gt\n        /* \"contracts/CSToken.sol\":2095:2287  if (excessAmount > 0) {... */\n      iszero\n      tag_150\n      jumpi\n        /* \"contracts/CSToken.sol\":2139:2149  msg.sender */\n      caller\n        /* \"contracts/CSToken.sol\":2131:2159  payable(msg.sender).transfer */\n      0xffffffffffffffffffffffffffffffffffffffff\n      and\n        /* \"contracts/CSToken.sol\":2131:2173  payable(msg.sender).transfer(excessAmount) */\n      0x08fc\n        /* \"contracts/CSToken.sol\":2160:2172  excessAmount */\n      dup3\n        /* \"contracts/CSToken.sol\":2131:2173  payable(msg.sender).transfer(excessAmount) */\n      swap1\n      dup2\n      iszero\n      mul\n      swap1\n      mload(0x40)\n      0x00\n      mload(0x40)\n      dup1\n      dup4\n      sub\n      dup2\n      dup6\n      dup9\n      dup9\n      call\n      swap4\n      pop\n      pop\n      pop\n      pop\n      iszero\n      dup1\n      iszero\n      tag_152\n      jumpi\n      returndatasize\n      0x00\n      dup1\n      returndatacopy\n      revert(0x00, returndatasize)\n    tag_152:\n      pop\n        /* \"contracts/CSToken.sol\":2251:2261  msg.sender */\n      caller\n        /* \"contracts/CSToken.sol\":2238:2276  ReturnExcess(msg.sender, excessAmount) */\n      0xffffffffffffffffffffffffffffffffffffffff\n      and\n      0x5b04a20647d5e66c17cb0451b11e553be5e09f9552d25b9f27d9b0c615c0b3d7\n        /* \"contracts/CSToken.sol\":2263:2275  excessAmount */\n      dup3\n        /* \"contracts/CSToken.sol\":2238:2276  ReturnExcess(msg.sender, excessAmount) */\n      mload(0x40)\n      tag_153\n      swap2\n      swap1\n      tag_41\n      jump\t// in\n    tag_153:\n      mload(0x40)\n      dup1\n      swap2\n      sub\n      swap1\n      log2\n        /* \"contracts/CSToken.sol\":2095:2287  if (excessAmount > 0) {... */\n    tag_150:\n        /* \"contracts/CSToken.sol\":2297:2322  _mint(msg.sender, amount) */\n      tag_154\n        /* \"contracts/CSToken.sol\":2303:2313  msg.sender */\n      caller\n        /* \"contracts/CSToken.sol\":2315:2321  amount */\n      dup6\n        /* \"contracts/CSToken.sol\":2297:2302  _mint */\n      tag_155\n        /* \"contracts/CSToken.sol\":2297:2322  _mint(msg.sender, amount) */\n      jump\t// in\n    tag_154:\n        /* \"contracts/CSToken.sol\":2406:2424  requiredCollateral */\n      dup2\n        /* \"contracts/CSToken.sol\":2380:2390  collateral */\n      0x06\n        /* \"contracts/CSToken.sol\":2380:2402  collateral[msg.sender] */\n      0x00\n        /* \"contracts/CSToken.sol\":2391:2401  msg.sender */\n      caller\n        /* \"contracts/CSToken.sol\":2380:2402  collateral[msg.sender] */\n      0xffffffffffffffffffffffffffffffffffffffff\n      and\n      0xffffffffffffffffffffffffffffffffffffffff\n      and\n      dup2\n      mstore\n      0x20\n      add\n      swap1\n      dup2\n      mstore\n      0x20\n      add\n      0x00\n      keccak256\n      0x00\n        /* \"contracts/CSToken.sol\":2380:2424  collateral[msg.sender] += requiredCollateral */\n      dup3\n      dup3\n      sload\n      tag_156\n      swap2\n      swap1\n      tag_157\n      jump\t// in\n    tag_156:\n      swap3\n      pop\n      pop\n      dup2\n      swap1\n      sstore\n      pop\n        /* \"contracts/CSToken.sol\":2469:2483  conversionRate */\n      dup3\n        /* \"contracts/CSToken.sol\":2436:2454  userConversionRate */\n      0x07\n        /* \"contracts/CSToken.sol\":2436:2466  userConversionRate[msg.sender] */\n      0x00\n        /* \"contracts/CSToken.sol\":2455:2465  msg.sender */\n      caller\n        /* \"contracts/CSToken.sol\":2436:2466  userConversionRate[msg.sender] */\n      0xffffffffffffffffffffffffffffffffffffffff\n      and\n      0xffffffffffffffffffffffffffffffffffffffff\n      and\n      dup2\n      mstore\n      0x20\n      add\n      swap1\n      dup2\n      mstore\n      0x20\n      add\n      0x00\n      keccak256\n        /* \"contracts/CSToken.sol\":2436:2483  userConversionRate[msg.sender] = conversionRate */\n      dup2\n      swap1\n      sstore\n      pop\n        /* \"contracts/CSToken.sol\":2541:2551  msg.sender */\n      caller\n        /* \"contracts/CSToken.sol\":2536:2580  Mint(msg.sender, amount, requiredCollateral) */\n      0xffffffffffffffffffffffffffffffffffffffff\n      and\n      0x4c209b5fc8ad50758f13e2e1088ba56a560dff690a1c6fef26394f4c03821c4f\n        /* \"contracts/CSToken.sol\":2553:2559  amount */\n      dup6\n        /* \"contracts/CSToken.sol\":2561:2579  requiredCollateral */\n      dup5\n        /* \"contracts/CSToken.sol\":2536:2580  Mint(msg.sender, amount, requiredCollateral) */\n      mload(0x40)\n      tag_158\n      swap3\n      swap2\n      swap1\n      tag_159\n      jump\t// in\n    tag_158:\n      mload(0x40)\n      dup1\n      swap2\n      sub\n      swap1\n      log2\n        /* \"contracts/CSToken.sol\":1482:2660  {... */\n      pop\n      pop\n        /* \"contracts/CSToken.sol\":1394:2660  function mint(uint256 amount, uint256 conversionRate) public payable mustNotBeTokenOwner{... */\n      pop\n      pop\n      jump\t// out\n        /* \"contracts/CSToken.sol\":481:534  mapping(address => uint256) public userConversionRate */\n    tag_50:\n      mstore(0x20, 0x07)\n      dup1\n      0x00\n      mstore\n      keccak256(0x00, 0x40)\n      0x00\n      swap2\n      pop\n      swap1\n      pop\n      sload\n      dup2\n      jump\t// out\n        /* \".deps/npm/@openzeppelin/contracts/token/ERC20/ERC20.sol\":4776:5020  function transferFrom(address from, address to, uint256 value) public virtual returns (bool) {... */\n    tag_56:\n        /* \".deps/npm/@openzeppelin/contracts/token/ERC20/ERC20.sol\":4863:4867  bool */\n      0x00\n        /* \".deps/npm/@openzeppelin/contracts/token/ERC20/ERC20.sol\":4879:4894  address spender */\n      dup1\n        /* \".deps/npm/@openzeppelin/contracts/token/ERC20/ERC20.sol\":4897:4909  _msgSender() */\n      tag_161\n        /* \".deps/npm/@openzeppelin/contracts/token/ERC20/ERC20.sol\":4897:4907  _msgSender */\n      tag_130\n        /* \".deps/npm/@openzeppelin/contracts/token/ERC20/ERC20.sol\":4897:4909  _msgSender() */\n      jump\t// in\n    tag_161:\n        /* \".deps/npm/@openzeppelin/contracts/token/ERC20/ERC20.sol\":4879:4909  address spender = _msgSender() */\n      swap1\n      pop\n        /* \".deps/npm/@openzeppelin/contracts/token/ERC20/ERC20.sol\":4919:4956  _spendAllowance(from, spender, value) */\n      tag_162\n        /* \".deps/npm/@openzeppelin/contracts/token/ERC20/ERC20.sol\":4935:4939  from */\n      dup6\n        /* \".deps/npm/@openzeppelin/contracts/token/ERC20/ERC20.sol\":4941:4948  spender */\n      dup3\n        /* \".deps/npm/@openzeppelin/contracts/token/ERC20/ERC20.sol\":4950:4955  value */\n      dup6\n        /* \".deps/npm/@openzeppelin/contracts/token/ERC20/ERC20.sol\":4919:4934  _spendAllowance */\n      tag_163\n        /* \".deps/npm/@openzeppelin/contracts/token/ERC20/ERC20.sol\":4919:4956  _spendAllowance(from, spender, value) */\n      jump\t// in\n    tag_162:\n        /* \".deps/npm/@openzeppelin/contracts/token/ERC20/ERC20.sol\":4966:4992  _transfer(from, to, value) */\n      tag_164\n        /* \".deps/npm/@openzeppelin/contracts/token/ERC20/ERC20.sol\":4976:4980  from */\n      dup6\n        /* \".deps/npm/@openzeppelin/contracts/token/ERC20/ERC20.sol\":4982:4984  to */\n      dup6\n        /* \".deps/npm/@openzeppelin/contracts/token/ERC20/ERC20.sol\":4986:4991  value */\n      dup6\n        /* \".deps/npm/@openzeppelin/contracts/token/ERC20/ERC20.sol\":4966:4975  _transfer */\n      tag_165\n        /* \".deps/npm/@openzeppelin/contracts/token/ERC20/ERC20.sol\":4966:4992  _transfer(from, to, value) */\n      jump\t// in\n    tag_164:\n        /* \".deps/npm/@openzeppelin/contracts/token/ERC20/ERC20.sol\":5009:5013  true */\n      0x01\n        /* \".deps/npm/@openzeppelin/contracts/token/ERC20/ERC20.sol\":5002:5013  return true */\n      swap2\n      pop\n      pop\n        /* \".deps/npm/@openzeppelin/contracts/token/ERC20/ERC20.sol\":4776:5020  function transferFrom(address from, address to, uint256 value) public virtual returns (bool) {... */\n      swap4\n      swap3\n      pop\n      pop\n      pop\n      jump\t// out\n        /* \"contracts/CSToken.sol\":4026:4386  function getMyTokenInformation() public mustBeTokenOwner {... */\n    tag_60:\n        /* \"contracts/CSToken.sol\":1003:1004  0 */\n      0x00\n        /* \"contracts/CSToken.sol\":978:988  collateral */\n      0x06\n        /* \"contracts/CSToken.sol\":978:1000  collateral[msg.sender] */\n      0x00\n        /* \"contracts/CSToken.sol\":989:999  msg.sender */\n      caller\n        /* \"contracts/CSToken.sol\":978:1000  collateral[msg.sender] */\n      0xffffffffffffffffffffffffffffffffffffffff\n      and\n      0xffffffffffffffffffffffffffffffffffffffff\n      and\n      dup2\n      mstore\n      0x20\n      add\n      swap1\n      dup2\n      mstore\n      0x20\n      add\n      0x00\n      keccak256\n      sload\n        /* \"contracts/CSToken.sol\":978:1004  collateral[msg.sender] > 0 */\n      gt\n        /* \"contracts/CSToken.sol\":970:1061  require(collateral[msg.sender] > 0,\"You must have minted tokens to query this information\") */\n      tag_167\n      jumpi\n      mload(0x40)\n      0x08c379a000000000000000000000000000000000000000000000000000000000\n      dup2\n      mstore\n      0x04\n      add\n      tag_168\n      swap1\n      tag_169\n      jump\t// in\n    tag_168:\n      mload(0x40)\n      dup1\n      swap2\n      sub\n      swap1\n      revert\n    tag_167:\n        /* \"contracts/CSToken.sol\":4115:4125  collateral */\n      0x06\n        /* \"contracts/CSToken.sol\":4115:4137  collateral[msg.sender] */\n      0x00\n        /* \"contracts/CSToken.sol\":4126:4136  msg.sender */\n      caller\n        /* \"contracts/CSToken.sol\":4115:4137  collateral[msg.sender] */\n      0xffffffffffffffffffffffffffffffffffffffff\n      and\n      0xffffffffffffffffffffffffffffffffffffffff\n      and\n      dup2\n      mstore\n      0x20\n      add\n      swap1\n      dup2\n      mstore\n      0x20\n      add\n      0x00\n      keccak256\n      sload\n        /* \"contracts/CSToken.sol\":4093:4112  remainingCollateral */\n      0x05\n        /* \"contracts/CSToken.sol\":4093:4137  remainingCollateral = collateral[msg.sender] */\n      dup2\n      swap1\n      sstore\n      pop\n        /* \"contracts/CSToken.sol\":4147:4175  uint256 storedConversionRate */\n      0x00\n        /* \"contracts/CSToken.sol\":4178:4196  userConversionRate */\n      0x07\n        /* \"contracts/CSToken.sol\":4178:4208  userConversionRate[msg.sender] */\n      0x00\n        /* \"contracts/CSToken.sol\":4197:4207  msg.sender */\n      caller\n        /* \"contracts/CSToken.sol\":4178:4208  userConversionRate[msg.sender] */\n      0xffffffffffffffffffffffffffffffffffffffff\n      and\n      0xffffffffffffffffffffffffffffffffffffffff\n      and\n      dup2\n      mstore\n      0x20\n      add\n      swap1\n      dup2\n      mstore\n      0x20\n      add\n      0x00\n      keccak256\n      sload\n        /* \"contracts/CSToken.sol\":4147:4208  uint256 storedConversionRate = userConversionRate[msg.sender] */\n      swap1\n      pop\n        /* \"contracts/CSToken.sol\":4218:4248  uint256 currentTokensRemaining */\n      0x00\n        /* \"contracts/CSToken.sol\":4251:4272  balanceOf(msg.sender) */\n      tag_171\n        /* \"contracts/CSToken.sol\":4261:4271  msg.sender */\n      caller\n        /* \"contracts/CSToken.sol\":4251:4260  balanceOf */\n      tag_82\n        /* \"contracts/CSToken.sol\":4251:4272  balanceOf(msg.sender) */\n      jump\t// in\n    tag_171:\n        /* \"contracts/CSToken.sol\":4218:4272  uint256 currentTokensRemaining = balanceOf(msg.sender) */\n      swap1\n      pop\n        /* \"contracts/CSToken.sol\":4301:4311  msg.sender */\n      caller\n        /* \"contracts/CSToken.sol\":4287:4379  UserTokenInfo(msg.sender, currentTokensRemaining, remainingCollateral, storedConversionRate) */\n      0xffffffffffffffffffffffffffffffffffffffff\n      and\n      0x07aebacde2d071f5be831eebafe50c943e4fed4053c317af2f8e2a0cd9aa0543\n        /* \"contracts/CSToken.sol\":4313:4335  currentTokensRemaining */\n      dup3\n        /* \"contracts/CSToken.sol\":4337:4356  remainingCollateral */\n      sload(0x05)\n        /* \"contracts/CSToken.sol\":4358:4378  storedConversionRate */\n      dup6\n        /* \"contracts/CSToken.sol\":4287:4379  UserTokenInfo(msg.sender, currentTokensRemaining, remainingCollateral, storedConversionRate) */\n      mload(0x40)\n      tag_172\n      swap4\n      swap3\n      swap2\n      swap1\n      tag_173\n      jump\t// in\n    tag_172:\n      mload(0x40)\n      dup1\n      swap2\n      sub\n      swap1\n      log2\n        /* \"contracts/CSToken.sol\":4083:4386  {... */\n      pop\n      pop\n        /* \"contracts/CSToken.sol\":4026:4386  function getMyTokenInformation() public mustBeTokenOwner {... */\n      jump\t// out\n        /* \"contracts/CSToken.sol\":2784:3912  function topUpMyTokens(uint256 amount) public payable mustBeTokenOwner {... */\n    tag_64:\n        /* \"contracts/CSToken.sol\":1003:1004  0 */\n      0x00\n        /* \"contracts/CSToken.sol\":978:988  collateral */\n      0x06\n        /* \"contracts/CSToken.sol\":978:1000  collateral[msg.sender] */\n      0x00\n        /* \"contracts/CSToken.sol\":989:999  msg.sender */\n      caller\n        /* \"contracts/CSToken.sol\":978:1000  collateral[msg.sender] */\n      0xffffffffffffffffffffffffffffffffffffffff\n      and\n      0xffffffffffffffffffffffffffffffffffffffff\n      and\n      dup2\n      mstore\n      0x20\n      add\n      swap1\n      dup2\n      mstore\n      0x20\n      add\n      0x00\n      keccak256\n      sload\n        /* \"contracts/CSToken.sol\":978:1004  collateral[msg.sender] > 0 */\n      gt\n        /* \"contracts/CSToken.sol\":970:1061  require(collateral[msg.sender] > 0,\"You must have minted tokens to query this information\") */\n      tag_175\n      jumpi\n      mload(0x40)\n      0x08c379a000000000000000000000000000000000000000000000000000000000\n      dup2\n      mstore\n      0x04\n      add\n      tag_176\n      swap1\n      tag_169\n      jump\t// in\n    tag_176:\n      mload(0x40)\n      dup1\n      swap2\n      sub\n      swap1\n      revert\n    tag_175:\n        /* \"contracts/CSToken.sol\":2865:2893  uint256 storedConversionRate */\n      0x00\n        /* \"contracts/CSToken.sol\":2896:2914  userConversionRate */\n      0x07\n        /* \"contracts/CSToken.sol\":2896:2926  userConversionRate[msg.sender] */\n      0x00\n        /* \"contracts/CSToken.sol\":2915:2925  msg.sender */\n      caller\n        /* \"contracts/CSToken.sol\":2896:2926  userConversionRate[msg.sender] */\n      0xffffffffffffffffffffffffffffffffffffffff\n      and\n      0xffffffffffffffffffffffffffffffffffffffff\n      and\n      dup2\n      mstore\n      0x20\n      add\n      swap1\n      dup2\n      mstore\n      0x20\n      add\n      0x00\n      keccak256\n      sload\n        /* \"contracts/CSToken.sol\":2865:2926  uint256 storedConversionRate = userConversionRate[msg.sender] */\n      swap1\n      pop\n        /* \"contracts/CSToken.sol\":2936:2962  uint256 requiredCollateral */\n      0x00\n        /* \"contracts/CSToken.sol\":2974:2994  storedConversionRate */\n      dup2\n        /* \"contracts/CSToken.sol\":2965:2971  amount */\n      dup4\n        /* \"contracts/CSToken.sol\":2965:2994  amount * storedConversionRate */\n      tag_178\n      swap2\n      swap1\n      tag_140\n      jump\t// in\n    tag_178:\n        /* \"contracts/CSToken.sol\":2936:2994  uint256 requiredCollateral = amount * storedConversionRate */\n      swap1\n      pop\n        /* \"contracts/CSToken.sol\":3025:3043  requiredCollateral */\n      dup1\n        /* \"contracts/CSToken.sol\":3012:3021  msg.value */\n      callvalue\n        /* \"contracts/CSToken.sol\":3012:3043  msg.value >= requiredCollateral */\n      lt\n      iszero\n        /* \"contracts/CSToken.sol\":3179:3215  Strings.toString(requiredCollateral) */\n      tag_179\n        /* \"contracts/CSToken.sol\":3196:3214  requiredCollateral */\n      dup3\n        /* \"contracts/CSToken.sol\":3179:3195  Strings.toString */\n      tag_142\n        /* \"contracts/CSToken.sol\":3179:3215  Strings.toString(requiredCollateral) */\n      jump\t// in\n    tag_179:\n        /* \"contracts/CSToken.sol\":3282:3309  Strings.toString(msg.value) */\n      tag_180\n        /* \"contracts/CSToken.sol\":3299:3308  msg.value */\n      callvalue\n        /* \"contracts/CSToken.sol\":3282:3298  Strings.toString */\n      tag_142\n        /* \"contracts/CSToken.sol\":3282:3309  Strings.toString(msg.value) */\n      jump\t// in\n    tag_180:\n        /* \"contracts/CSToken.sol\":3082:3357  abi.encodePacked(... */\n      add(0x20, mload(0x40))\n      tag_181\n      swap3\n      swap2\n      swap1\n      tag_145\n      jump\t// in\n    tag_181:\n      mload(0x40)\n      0x20\n      dup2\n      dup4\n      sub\n      sub\n      dup2\n      mstore\n      swap1\n      0x40\n      mstore\n        /* \"contracts/CSToken.sol\":3004:3381  require(msg.value >= requiredCollateral, ... */\n      swap1\n      tag_182\n      jumpi\n      mload(0x40)\n      0x08c379a000000000000000000000000000000000000000000000000000000000\n      dup2\n      mstore\n      0x04\n      add\n      tag_183\n      swap2\n      swap1\n      tag_29\n      jump\t// in\n    tag_183:\n      mload(0x40)\n      dup1\n      swap2\n      sub\n      swap1\n      revert\n    tag_182:\n      pop\n        /* \"contracts/CSToken.sol\":3392:3412  uint256 excessAmount */\n      0x00\n        /* \"contracts/CSToken.sol\":3427:3445  requiredCollateral */\n      dup2\n        /* \"contracts/CSToken.sol\":3415:3424  msg.value */\n      callvalue\n        /* \"contracts/CSToken.sol\":3415:3445  msg.value - requiredCollateral */\n      tag_184\n      swap2\n      swap1\n      tag_149\n      jump\t// in\n    tag_184:\n        /* \"contracts/CSToken.sol\":3392:3445  uint256 excessAmount = msg.value - requiredCollateral */\n      swap1\n      pop\n        /* \"contracts/CSToken.sol\":3531:3532  0 */\n      0x00\n        /* \"contracts/CSToken.sol\":3516:3528  excessAmount */\n      dup2\n        /* \"contracts/CSToken.sol\":3516:3532  excessAmount > 0 */\n      gt\n        /* \"contracts/CSToken.sol\":3512:3704  if (excessAmount > 0) {... */\n      iszero\n      tag_185\n      jumpi\n        /* \"contracts/CSToken.sol\":3556:3566  msg.sender */\n      caller\n        /* \"contracts/CSToken.sol\":3548:3576  payable(msg.sender).transfer */\n      0xffffffffffffffffffffffffffffffffffffffff\n      and\n        /* \"contracts/CSToken.sol\":3548:3590  payable(msg.sender).transfer(excessAmount) */\n      0x08fc\n        /* \"contracts/CSToken.sol\":3577:3589  excessAmount */\n      dup3\n        /* \"contracts/CSToken.sol\":3548:3590  payable(msg.sender).transfer(excessAmount) */\n      swap1\n      dup2\n      iszero\n      mul\n      swap1\n      mload(0x40)\n      0x00\n      mload(0x40)\n      dup1\n      dup4\n      sub\n      dup2\n      dup6\n      dup9\n      dup9\n      call\n      swap4\n      pop\n      pop\n      pop\n      pop\n      iszero\n      dup1\n      iszero\n      tag_187\n      jumpi\n      returndatasize\n      0x00\n      dup1\n      returndatacopy\n      revert(0x00, returndatasize)\n    tag_187:\n      pop\n        /* \"contracts/CSToken.sol\":3668:3678  msg.sender */\n      caller\n        /* \"contracts/CSToken.sol\":3655:3693  ReturnExcess(msg.sender, excessAmount) */\n      0xffffffffffffffffffffffffffffffffffffffff\n      and\n      0x5b04a20647d5e66c17cb0451b11e553be5e09f9552d25b9f27d9b0c615c0b3d7\n        /* \"contracts/CSToken.sol\":3680:3692  excessAmount */\n      dup3\n        /* \"contracts/CSToken.sol\":3655:3693  ReturnExcess(msg.sender, excessAmount) */\n      mload(0x40)\n      tag_188\n      swap2\n      swap1\n      tag_41\n      jump\t// in\n    tag_188:\n      mload(0x40)\n      dup1\n      swap2\n      sub\n      swap1\n      log2\n        /* \"contracts/CSToken.sol\":3512:3704  if (excessAmount > 0) {... */\n    tag_185:\n        /* \"contracts/CSToken.sol\":3714:3738  _mint(msg.sender,amount) */\n      tag_189\n        /* \"contracts/CSToken.sol\":3720:3730  msg.sender */\n      caller\n        /* \"contracts/CSToken.sol\":3731:3737  amount */\n      dup6\n        /* \"contracts/CSToken.sol\":3714:3719  _mint */\n      tag_155\n        /* \"contracts/CSToken.sol\":3714:3738  _mint(msg.sender,amount) */\n      jump\t// in\n    tag_189:\n        /* \"contracts/CSToken.sol\":3847:3865  requiredCollateral */\n      dup2\n        /* \"contracts/CSToken.sol\":3821:3831  collateral */\n      0x06\n        /* \"contracts/CSToken.sol\":3821:3843  collateral[msg.sender] */\n      0x00\n        /* \"contracts/CSToken.sol\":3832:3842  msg.sender */\n      caller\n        /* \"contracts/CSToken.sol\":3821:3843  collateral[msg.sender] */\n      0xffffffffffffffffffffffffffffffffffffffff\n      and\n      0xffffffffffffffffffffffffffffffffffffffff\n      and\n      dup2\n      mstore\n      0x20\n      add\n      swap1\n      dup2\n      mstore\n      0x20\n      add\n      0x00\n      keccak256\n      0x00\n        /* \"contracts/CSToken.sol\":3821:3865  collateral[msg.sender] += requiredCollateral */\n      dup3\n      dup3\n      sload\n      tag_190\n      swap2\n      swap1\n      tag_157\n      jump\t// in\n    tag_190:\n      swap3\n      pop\n      pop\n      dup2\n      swap1\n      sstore\n      pop\n        /* \"contracts/CSToken.sol\":2855:3912  {... */\n      pop\n      pop\n      pop\n        /* \"contracts/CSToken.sol\":2784:3912  function topUpMyTokens(uint256 amount) public payable mustBeTokenOwner {... */\n      pop\n      jump\t// out\n        /* \".deps/npm/@openzeppelin/contracts/token/ERC20/ERC20.sol\":2707:2789  function decimals() public view virtual returns (uint8) {... */\n    tag_67:\n        /* \".deps/npm/@openzeppelin/contracts/token/ERC20/ERC20.sol\":2756:2761  uint8 */\n      0x00\n        /* \".deps/npm/@openzeppelin/contracts/token/ERC20/ERC20.sol\":2780:2782  18 */\n      0x12\n        /* \".deps/npm/@openzeppelin/contracts/token/ERC20/ERC20.sol\":2773:2782  return 18 */\n      swap1\n      pop\n        /* \".deps/npm/@openzeppelin/contracts/token/ERC20/ERC20.sol\":2707:2789  function decimals() public view virtual returns (uint8) {... */\n      swap1\n      jump\t// out\n        /* \".deps/npm/@openzeppelin/contracts/token/ERC20/extensions/ERC20Burnable.sol\":618:705  function burn(uint256 value) public virtual {... */\n    tag_73:\n        /* \".deps/npm/@openzeppelin/contracts/token/ERC20/extensions/ERC20Burnable.sol\":672:698  _burn(_msgSender(), value) */\n      tag_193\n        /* \".deps/npm/@openzeppelin/contracts/token/ERC20/extensions/ERC20Burnable.sol\":678:690  _msgSender() */\n      tag_194\n        /* \".deps/npm/@openzeppelin/contracts/token/ERC20/extensions/ERC20Burnable.sol\":678:688  _msgSender */\n      tag_130\n        /* \".deps/npm/@openzeppelin/contracts/token/ERC20/extensions/ERC20Burnable.sol\":678:690  _msgSender() */\n      jump\t// in\n    tag_194:\n        /* \".deps/npm/@openzeppelin/contracts/token/ERC20/extensions/ERC20Burnable.sol\":692:697  value */\n      dup3\n        /* \".deps/npm/@openzeppelin/contracts/token/ERC20/extensions/ERC20Burnable.sol\":672:677  _burn */\n      tag_195\n        /* \".deps/npm/@openzeppelin/contracts/token/ERC20/extensions/ERC20Burnable.sol\":672:698  _burn(_msgSender(), value) */\n      jump\t// in\n    tag_193:\n        /* \".deps/npm/@openzeppelin/contracts/token/ERC20/extensions/ERC20Burnable.sol\":618:705  function burn(uint256 value) public virtual {... */\n      pop\n      jump\t// out\n        /* \"contracts/CSToken.sol\":4599:4728  function getUserConversionRate(address lister) external view returns (uint256) {... */\n    tag_77:\n        /* \"contracts/CSToken.sol\":4669:4676  uint256 */\n      0x00\n        /* \"contracts/CSToken.sol\":4695:4713  userConversionRate */\n      0x07\n        /* \"contracts/CSToken.sol\":4695:4721  userConversionRate[lister] */\n      0x00\n        /* \"contracts/CSToken.sol\":4714:4720  lister */\n      dup4\n        /* \"contracts/CSToken.sol\":4695:4721  userConversionRate[lister] */\n      0xffffffffffffffffffffffffffffffffffffffff\n      and\n      0xffffffffffffffffffffffffffffffffffffffff\n      and\n      dup2\n      mstore\n      0x20\n      add\n      swap1\n      dup2\n      mstore\n      0x20\n      add\n      0x00\n      keccak256\n      sload\n        /* \"contracts/CSToken.sol\":4688:4721  return userConversionRate[lister] */\n      swap1\n      pop\n        /* \"contracts/CSToken.sol\":4599:4728  function getUserConversionRate(address lister) external view returns (uint256) {... */\n      swap2\n      swap1\n      pop\n      jump\t// out\n        /* \".deps/npm/@openzeppelin/contracts/token/ERC20/ERC20.sol\":3004:3120  function balanceOf(address account) public view virtual returns (uint256) {... */\n    tag_82:\n        /* \".deps/npm/@openzeppelin/contracts/token/ERC20/ERC20.sol\":3069:3076  uint256 */\n      0x00\n        /* \".deps/npm/@openzeppelin/contracts/token/ERC20/ERC20.sol\":3095:3104  _balances */\n      dup1\n        /* \".deps/npm/@openzeppelin/contracts/token/ERC20/ERC20.sol\":3095:3113  _balances[account] */\n      0x00\n        /* \".deps/npm/@openzeppelin/contracts/token/ERC20/ERC20.sol\":3105:3112  account */\n      dup4\n        /* \".deps/npm/@openzeppelin/contracts/token/ERC20/ERC20.sol\":3095:3113  _balances[account] */\n      0xffffffffffffffffffffffffffffffffffffffff\n      and\n      0xffffffffffffffffffffffffffffffffffffffff\n      and\n      dup2\n      mstore\n      0x20\n      add\n      swap1\n      dup2\n      mstore\n      0x20\n      add\n      0x00\n      keccak256\n      sload\n        /* \".deps/npm/@openzeppelin/contracts/token/ERC20/ERC20.sol\":3088:3113  return _balances[account] */\n      swap1\n      pop\n        /* \".deps/npm/@openzeppelin/contracts/token/ERC20/ERC20.sol\":3004:3120  function balanceOf(address account) public view virtual returns (uint256) {... */\n      swap2\n      swap1\n      pop\n      jump\t// out\n        /* \".deps/npm/@openzeppelin/contracts/token/ERC20/extensions/ERC20Burnable.sol\":1021:1179  function burnFrom(address account, uint256 value) public virtual {... */\n    tag_87:\n        /* \".deps/npm/@openzeppelin/contracts/token/ERC20/extensions/ERC20Burnable.sol\":1096:1141  _spendAllowance(account, _msgSender(), value) */\n      tag_199\n        /* \".deps/npm/@openzeppelin/contracts/token/ERC20/extensions/ERC20Burnable.sol\":1112:1119  account */\n      dup3\n        /* \".deps/npm/@openzeppelin/contracts/token/ERC20/extensions/ERC20Burnable.sol\":1121:1133  _msgSender() */\n      tag_200\n        /* \".deps/npm/@openzeppelin/contracts/token/ERC20/extensions/ERC20Burnable.sol\":1121:1131  _msgSender */\n      tag_130\n        /* \".deps/npm/@openzeppelin/contracts/token/ERC20/extensions/ERC20Burnable.sol\":1121:1133  _msgSender() */\n      jump\t// in\n    tag_200:\n        /* \".deps/npm/@openzeppelin/contracts/token/ERC20/extensions/ERC20Burnable.sol\":1135:1140  value */\n      dup4\n        /* \".deps/npm/@openzeppelin/contracts/token/ERC20/extensions/ERC20Burnable.sol\":1096:1111  _spendAllowance */\n      tag_163\n        /* \".deps/npm/@openzeppelin/contracts/token/ERC20/extensions/ERC20Burnable.sol\":1096:1141  _spendAllowance(account, _msgSender(), value) */\n      jump\t// in\n    tag_199:\n        /* \".deps/npm/@openzeppelin/contracts/token/ERC20/extensions/ERC20Burnable.sol\":1151:1172  _burn(account, value) */\n      tag_201\n        /* \".deps/npm/@openzeppelin/contracts/token/ERC20/extensions/ERC20Burnable.sol\":1157:1164  account */\n      dup3\n        /* \".deps/npm/@openzeppelin/contracts/token/ERC20/extensions/ERC20Burnable.sol\":1166:1171  value */\n      dup3\n        /* \".deps/npm/@openzeppelin/contracts/token/ERC20/extensions/ERC20Burnable.sol\":1151:1156  _burn */\n      tag_195\n        /* \".deps/npm/@openzeppelin/contracts/token/ERC20/extensions/ERC20Burnable.sol\":1151:1172  _burn(account, value) */\n      jump\t// in\n    tag_201:\n        /* \".deps/npm/@openzeppelin/contracts/token/ERC20/extensions/ERC20Burnable.sol\":1021:1179  function burnFrom(address account, uint256 value) public virtual {... */\n      pop\n      pop\n      jump\t// out\n        /* \".deps/npm/@openzeppelin/contracts/token/ERC20/ERC20.sol\":1981:2074  function symbol() public view virtual returns (string memory) {... */\n    tag_90:\n        /* \".deps/npm/@openzeppelin/contracts/token/ERC20/ERC20.sol\":2028:2041  string memory */\n      0x60\n        /* \".deps/npm/@openzeppelin/contracts/token/ERC20/ERC20.sol\":2060:2067  _symbol */\n      0x04\n        /* \".deps/npm/@openzeppelin/contracts/token/ERC20/ERC20.sol\":2053:2067  return _symbol */\n      dup1\n      sload\n      tag_203\n      swap1\n      tag_123\n      jump\t// in\n    tag_203:\n      dup1\n      0x1f\n      add\n      0x20\n      dup1\n      swap2\n      div\n      mul\n      0x20\n      add\n      mload(0x40)\n      swap1\n      dup2\n      add\n      0x40\n      mstore\n      dup1\n      swap3\n      swap2\n      swap1\n      dup2\n      dup2\n      mstore\n      0x20\n      add\n      dup3\n      dup1\n      sload\n      tag_204\n      swap1\n      tag_123\n      jump\t// in\n    tag_204:\n      dup1\n      iszero\n      tag_205\n      jumpi\n      dup1\n      0x1f\n      lt\n      tag_206\n      jumpi\n      0x0100\n      dup1\n      dup4\n      sload\n      div\n      mul\n      dup4\n      mstore\n      swap2\n      0x20\n      add\n      swap2\n      jump(tag_205)\n    tag_206:\n      dup3\n      add\n      swap2\n      swap1\n      0x00\n      mstore\n      keccak256(0x00, 0x20)\n      swap1\n    tag_207:\n      dup2\n      sload\n      dup2\n      mstore\n      swap1\n      0x01\n      add\n      swap1\n      0x20\n      add\n      dup1\n      dup4\n      gt\n      tag_207\n      jumpi\n      dup3\n      swap1\n      sub\n      0x1f\n      and\n      dup3\n      add\n      swap2\n    tag_205:\n      pop\n      pop\n      pop\n      pop\n      pop\n      swap1\n      pop\n        /* \".deps/npm/@openzeppelin/contracts/token/ERC20/ERC20.sol\":1981:2074  function symbol() public view virtual returns (string memory) {... */\n      swap1\n      jump\t// out\n        /* \"contracts/CSToken.sol\":4802:5149  function burn(address from, uint256 amount) public {... */\n    tag_95:\n        /* \"contracts/CSToken.sol\":4887:4888  0 */\n      0x00\n        /* \"contracts/CSToken.sol\":4871:4889  from != address(0) */\n      0xffffffffffffffffffffffffffffffffffffffff\n      and\n        /* \"contracts/CSToken.sol\":4871:4875  from */\n      dup3\n        /* \"contracts/CSToken.sol\":4871:4889  from != address(0) */\n      0xffffffffffffffffffffffffffffffffffffffff\n      and\n      sub\n        /* \"contracts/CSToken.sol\":4863:4927  require(from != address(0), \"ERC20: burn from the zero address\") */\n      tag_209\n      jumpi\n      mload(0x40)\n      0x08c379a000000000000000000000000000000000000000000000000000000000\n      dup2\n      mstore\n      0x04\n      add\n      tag_210\n      swap1\n      tag_211\n      jump\t// in\n    tag_210:\n      mload(0x40)\n      dup1\n      swap2\n      sub\n      swap1\n      revert\n    tag_209:\n        /* \"contracts/CSToken.sol\":4937:4959  uint256 accountBalance */\n      0x00\n        /* \"contracts/CSToken.sol\":4962:4977  balanceOf(from) */\n      tag_212\n        /* \"contracts/CSToken.sol\":4972:4976  from */\n      dup4\n        /* \"contracts/CSToken.sol\":4962:4971  balanceOf */\n      tag_82\n        /* \"contracts/CSToken.sol\":4962:4977  balanceOf(from) */\n      jump\t// in\n    tag_212:\n        /* \"contracts/CSToken.sol\":4937:4977  uint256 accountBalance = balanceOf(from) */\n      swap1\n      pop\n        /* \"contracts/CSToken.sol\":5013:5019  amount */\n      dup2\n        /* \"contracts/CSToken.sol\":4995:5009  accountBalance */\n      dup2\n        /* \"contracts/CSToken.sol\":4995:5019  accountBalance >= amount */\n      lt\n      iszero\n        /* \"contracts/CSToken.sol\":4987:5058  require(accountBalance >= amount, \"ERC20: burn amount exceeds balance\") */\n      tag_213\n      jumpi\n      mload(0x40)\n      0x08c379a000000000000000000000000000000000000000000000000000000000\n      dup2\n      mstore\n      0x04\n      add\n      tag_214\n      swap1\n      tag_215\n      jump\t// in\n    tag_214:\n      mload(0x40)\n      dup1\n      swap2\n      sub\n      swap1\n      revert\n    tag_213:\n        /* \"contracts/CSToken.sol\":5123:5142  _burn(from, amount) */\n      tag_216\n        /* \"contracts/CSToken.sol\":5129:5133  from */\n      dup4\n        /* \"contracts/CSToken.sol\":5135:5141  amount */\n      dup4\n        /* \"contracts/CSToken.sol\":5123:5128  _burn */\n      tag_195\n        /* \"contracts/CSToken.sol\":5123:5142  _burn(from, amount) */\n      jump\t// in\n    tag_216:\n        /* \"contracts/CSToken.sol\":4853:5149  {... */\n      pop\n        /* \"contracts/CSToken.sol\":4802:5149  function burn(address from, uint256 amount) public {... */\n      pop\n      pop\n      jump\t// out\n        /* \"contracts/CSToken.sol\":393:438  mapping(address => uint256) public collateral */\n    tag_99:\n      mstore(0x20, 0x06)\n      dup1\n      0x00\n      mstore\n      keccak256(0x00, 0x40)\n      0x00\n      swap2\n      pop\n      swap1\n      pop\n      sload\n      dup2\n      jump\t// out\n        /* \".deps/npm/@openzeppelin/contracts/token/ERC20/ERC20.sol\":3315:3493  function transfer(address to, uint256 value) public virtual returns (bool) {... */\n    tag_104:\n        /* \".deps/npm/@openzeppelin/contracts/token/ERC20/ERC20.sol\":3384:3388  bool */\n      0x00\n        /* \".deps/npm/@openzeppelin/contracts/token/ERC20/ERC20.sol\":3400:3413  address owner */\n      dup1\n        /* \".deps/npm/@openzeppelin/contracts/token/ERC20/ERC20.sol\":3416:3428  _msgSender() */\n      tag_218\n        /* \".deps/npm/@openzeppelin/contracts/token/ERC20/ERC20.sol\":3416:3426  _msgSender */\n      tag_130\n        /* \".deps/npm/@openzeppelin/contracts/token/ERC20/ERC20.sol\":3416:3428  _msgSender() */\n      jump\t// in\n    tag_218:\n        /* \".deps/npm/@openzeppelin/contracts/token/ERC20/ERC20.sol\":3400:3428  address owner = _msgSender() */\n      swap1\n      pop\n        /* \".deps/npm/@openzeppelin/contracts/token/ERC20/ERC20.sol\":3438:3465  _transfer(owner, to, value) */\n      tag_219\n        /* \".deps/npm/@openzeppelin/contracts/token/ERC20/ERC20.sol\":3448:3453  owner */\n      dup2\n        /* \".deps/npm/@openzeppelin/contracts/token/ERC20/ERC20.sol\":3455:3457  to */\n      dup6\n        /* \".deps/npm/@openzeppelin/contracts/token/ERC20/ERC20.sol\":3459:3464  value */\n      dup6\n        /* \".deps/npm/@openzeppelin/contracts/token/ERC20/ERC20.sol\":3438:3447  _transfer */\n      tag_165\n        /* \".deps/npm/@openzeppelin/contracts/token/ERC20/ERC20.sol\":3438:3465  _transfer(owner, to, value) */\n      jump\t// in\n    tag_219:\n        /* \".deps/npm/@openzeppelin/contracts/token/ERC20/ERC20.sol\":3482:3486  true */\n      0x01\n        /* \".deps/npm/@openzeppelin/contracts/token/ERC20/ERC20.sol\":3475:3486  return true */\n      swap2\n      pop\n      pop\n        /* \".deps/npm/@openzeppelin/contracts/token/ERC20/ERC20.sol\":3315:3493  function transfer(address to, uint256 value) public virtual returns (bool) {... */\n      swap3\n      swap2\n      pop\n      pop\n      jump\t// out\n        /* \"contracts/CSToken.sol\":4437:4554  function getUserCollateral(address lister) external view returns (uint256) {... */\n    tag_109:\n        /* \"contracts/CSToken.sol\":4503:4510  uint256 */\n      0x00\n        /* \"contracts/CSToken.sol\":4529:4539  collateral */\n      0x06\n        /* \"contracts/CSToken.sol\":4529:4547  collateral[lister] */\n      0x00\n        /* \"contracts/CSToken.sol\":4540:4546  lister */\n      dup4\n        /* \"contracts/CSToken.sol\":4529:4547  collateral[lister] */\n      0xffffffffffffffffffffffffffffffffffffffff\n      and\n      0xffffffffffffffffffffffffffffffffffffffff\n      and\n      dup2\n      mstore\n      0x20\n      add\n      swap1\n      dup2\n      mstore\n      0x20\n      add\n      0x00\n      keccak256\n      sload\n        /* \"contracts/CSToken.sol\":4522:4547  return collateral[lister] */\n      swap1\n      pop\n        /* \"contracts/CSToken.sol\":4437:4554  function getUserCollateral(address lister) external view returns (uint256) {... */\n      swap2\n      swap1\n      pop\n      jump\t// out\n        /* \"contracts/CSToken.sol\":5271:5512  function transferCollateral(address from, address to, uint256 amount) external {... */\n    tag_114:\n        /* \"contracts/CSToken.sol\":5388:5394  amount */\n      dup1\n        /* \"contracts/CSToken.sol\":5368:5378  collateral */\n      0x06\n        /* \"contracts/CSToken.sol\":5368:5384  collateral[from] */\n      0x00\n        /* \"contracts/CSToken.sol\":5379:5383  from */\n      dup6\n        /* \"contracts/CSToken.sol\":5368:5384  collateral[from] */\n      0xffffffffffffffffffffffffffffffffffffffff\n      and\n      0xffffffffffffffffffffffffffffffffffffffff\n      and\n      dup2\n      mstore\n      0x20\n      add\n      swap1\n      dup2\n      mstore\n      0x20\n      add\n      0x00\n      keccak256\n      sload\n        /* \"contracts/CSToken.sol\":5368:5394  collateral[from] >= amount */\n      lt\n      iszero\n        /* \"contracts/CSToken.sol\":5360:5431  require(collateral[from] >= amount, \"Insufficient collateral balance.\") */\n      tag_222\n      jumpi\n      mload(0x40)\n      0x08c379a000000000000000000000000000000000000000000000000000000000\n      dup2\n      mstore\n      0x04\n      add\n      tag_223\n      swap1\n      tag_224\n      jump\t// in\n    tag_223:\n      mload(0x40)\n      dup1\n      swap2\n      sub\n      swap1\n      revert\n    tag_222:\n        /* \"contracts/CSToken.sol\":5461:5467  amount */\n      dup1\n        /* \"contracts/CSToken.sol\":5441:5451  collateral */\n      0x06\n        /* \"contracts/CSToken.sol\":5441:5457  collateral[from] */\n      0x00\n        /* \"contracts/CSToken.sol\":5452:5456  from */\n      dup6\n        /* \"contracts/CSToken.sol\":5441:5457  collateral[from] */\n      0xffffffffffffffffffffffffffffffffffffffff\n      and\n      0xffffffffffffffffffffffffffffffffffffffff\n      and\n      dup2\n      mstore\n      0x20\n      add\n      swap1\n      dup2\n      mstore\n      0x20\n      add\n      0x00\n      keccak256\n      0x00\n        /* \"contracts/CSToken.sol\":5441:5467  collateral[from] -= amount */\n      dup3\n      dup3\n      sload\n      tag_225\n      swap2\n      swap1\n      tag_149\n      jump\t// in\n    tag_225:\n      swap3\n      pop\n      pop\n      dup2\n      swap1\n      sstore\n      pop\n        /* \"contracts/CSToken.sol\":5485:5487  to */\n      dup2\n        /* \"contracts/CSToken.sol\":5477:5497  payable(to).transfer */\n      0xffffffffffffffffffffffffffffffffffffffff\n      and\n        /* \"contracts/CSToken.sol\":5477:5505  payable(to).transfer(amount) */\n      0x08fc\n        /* \"contracts/CSToken.sol\":5498:5504  amount */\n      dup3\n        /* \"contracts/CSToken.sol\":5477:5505  payable(to).transfer(amount) */\n      swap1\n      dup2\n      iszero\n      mul\n      swap1\n      mload(0x40)\n      0x00\n      mload(0x40)\n      dup1\n      dup4\n      sub\n      dup2\n      dup6\n      dup9\n      dup9\n      call\n      swap4\n      pop\n      pop\n      pop\n      pop\n      iszero\n      dup1\n      iszero\n      tag_227\n      jumpi\n      returndatasize\n      0x00\n      dup1\n      returndatacopy\n      revert(0x00, returndatasize)\n    tag_227:\n      pop\n        /* \"contracts/CSToken.sol\":5271:5512  function transferCollateral(address from, address to, uint256 amount) external {... */\n      pop\n      pop\n      pop\n      jump\t// out\n        /* \".deps/npm/@openzeppelin/contracts/token/ERC20/ERC20.sol\":3551:3691  function allowance(address owner, address spender) public view virtual returns (uint256) {... */\n    tag_119:\n        /* \".deps/npm/@openzeppelin/contracts/token/ERC20/ERC20.sol\":3631:3638  uint256 */\n      0x00\n        /* \".deps/npm/@openzeppelin/contracts/token/ERC20/ERC20.sol\":3657:3668  _allowances */\n      0x01\n        /* \".deps/npm/@openzeppelin/contracts/token/ERC20/ERC20.sol\":3657:3675  _allowances[owner] */\n      0x00\n        /* \".deps/npm/@openzeppelin/contracts/token/ERC20/ERC20.sol\":3669:3674  owner */\n      dup5\n        /* \".deps/npm/@openzeppelin/contracts/token/ERC20/ERC20.sol\":3657:3675  _allowances[owner] */\n      0xffffffffffffffffffffffffffffffffffffffff\n      and\n      0xffffffffffffffffffffffffffffffffffffffff\n      and\n      dup2\n      mstore\n      0x20\n      add\n      swap1\n      dup2\n      mstore\n      0x20\n      add\n      0x00\n      keccak256\n        /* \".deps/npm/@openzeppelin/contracts/token/ERC20/ERC20.sol\":3657:3684  _allowances[owner][spender] */\n      0x00\n        /* \".deps/npm/@openzeppelin/contracts/token/ERC20/ERC20.sol\":3676:3683  spender */\n      dup4\n        /* \".deps/npm/@openzeppelin/contracts/token/ERC20/ERC20.sol\":3657:3684  _allowances[owner][spender] */\n      0xffffffffffffffffffffffffffffffffffffffff\n      and\n      0xffffffffffffffffffffffffffffffffffffffff\n      and\n      dup2\n      mstore\n      0x20\n      add\n      swap1\n      dup2\n      mstore\n      0x20\n      add\n      0x00\n      keccak256\n      sload\n        /* \".deps/npm/@openzeppelin/contracts/token/ERC20/ERC20.sol\":3650:3684  return _allowances[owner][spender] */\n      swap1\n      pop\n        /* \".deps/npm/@openzeppelin/contracts/token/ERC20/ERC20.sol\":3551:3691  function allowance(address owner, address spender) public view virtual returns (uint256) {... */\n      swap3\n      swap2\n      pop\n      pop\n      jump\t// out\n        /* \".deps/npm/@openzeppelin/contracts/utils/Context.sol\":656:752  function _msgSender() internal view virtual returns (address) {... */\n    tag_130:\n        /* \".deps/npm/@openzeppelin/contracts/utils/Context.sol\":709:716  address */\n      0x00\n        /* \".deps/npm/@openzeppelin/contracts/utils/Context.sol\":735:745  msg.sender */\n      caller\n        /* \".deps/npm/@openzeppelin/contracts/utils/Context.sol\":728:745  return msg.sender */\n      swap1\n      pop\n        /* \".deps/npm/@openzeppelin/contracts/utils/Context.sol\":656:752  function _msgSender() internal view virtual returns (address) {... */\n      swap1\n      jump\t// out\n        /* \".deps/npm/@openzeppelin/contracts/token/ERC20/ERC20.sol\":8726:8854  function _approve(address owner, address spender, uint256 value) internal {... */\n    tag_132:\n        /* \".deps/npm/@openzeppelin/contracts/token/ERC20/ERC20.sol\":8810:8847  _approve(owner, spender, value, true) */\n      tag_231\n        /* \".deps/npm/@openzeppelin/contracts/token/ERC20/ERC20.sol\":8819:8824  owner */\n      dup4\n        /* \".deps/npm/@openzeppelin/contracts/token/ERC20/ERC20.sol\":8826:8833  spender */\n      dup4\n        /* \".deps/npm/@openzeppelin/contracts/token/ERC20/ERC20.sol\":8835:8840  value */\n      dup4\n        /* \".deps/npm/@openzeppelin/contracts/token/ERC20/ERC20.sol\":8842:8846  true */\n      0x01\n        /* \".deps/npm/@openzeppelin/contracts/token/ERC20/ERC20.sol\":8810:8818  _approve */\n      tag_232\n        /* \".deps/npm/@openzeppelin/contracts/token/ERC20/ERC20.sol\":8810:8847  _approve(owner, spender, value, true) */\n      jump\t// in\n    tag_231:\n        /* \".deps/npm/@openzeppelin/contracts/token/ERC20/ERC20.sol\":8726:8854  function _approve(address owner, address spender, uint256 value) internal {... */\n      pop\n      pop\n      pop\n      jump\t// out\n        /* \".deps/npm/@openzeppelin/contracts/utils/Strings.sol\":637:1269  function toString(uint256 value) internal pure returns (string memory) {... */\n    tag_142:\n        /* \".deps/npm/@openzeppelin/contracts/utils/Strings.sol\":693:706  string memory */\n      0x60\n        /* \".deps/npm/@openzeppelin/contracts/utils/Strings.sol\":742:756  uint256 length */\n      0x00\n        /* \".deps/npm/@openzeppelin/contracts/utils/Strings.sol\":779:780  1 */\n      0x01\n        /* \".deps/npm/@openzeppelin/contracts/utils/Strings.sol\":759:776  Math.log10(value) */\n      tag_234\n        /* \".deps/npm/@openzeppelin/contracts/utils/Strings.sol\":770:775  value */\n      dup5\n        /* \".deps/npm/@openzeppelin/contracts/utils/Strings.sol\":759:769  Math.log10 */\n      tag_235\n        /* \".deps/npm/@openzeppelin/contracts/utils/Strings.sol\":759:776  Math.log10(value) */\n      jump\t// in\n    tag_234:\n        /* \".deps/npm/@openzeppelin/contracts/utils/Strings.sol\":759:780  Math.log10(value) + 1 */\n      add\n        /* \".deps/npm/@openzeppelin/contracts/utils/Strings.sol\":742:780  uint256 length = Math.log10(value) + 1 */\n      swap1\n      pop\n        /* \".deps/npm/@openzeppelin/contracts/utils/Strings.sol\":794:814  string memory buffer */\n      0x00\n        /* \".deps/npm/@openzeppelin/contracts/utils/Strings.sol\":828:834  length */\n      dup2\n        /* \".deps/npm/@openzeppelin/contracts/utils/Strings.sol\":817:835  new string(length) */\n      0xffffffffffffffff\n      dup2\n      gt\n      iszero\n      tag_236\n      jumpi\n      tag_237\n      tag_238\n      jump\t// in\n    tag_237:\n    tag_236:\n      mload(0x40)\n      swap1\n      dup1\n      dup3\n      mstore\n      dup1\n      0x1f\n      add\n      not(0x1f)\n      and\n      0x20\n      add\n      dup3\n      add\n      0x40\n      mstore\n      dup1\n      iszero\n      tag_239\n      jumpi\n      dup2\n      0x20\n      add\n      0x01\n      dup3\n      mul\n      dup1\n      calldatasize\n      dup4\n      calldatacopy\n      dup1\n      dup3\n      add\n      swap2\n      pop\n      pop\n      swap1\n      pop\n    tag_239:\n      pop\n        /* \".deps/npm/@openzeppelin/contracts/utils/Strings.sol\":794:835  string memory buffer = new string(length) */\n      swap1\n      pop\n        /* \".deps/npm/@openzeppelin/contracts/utils/Strings.sol\":849:860  uint256 ptr */\n      0x00\n        /* \".deps/npm/@openzeppelin/contracts/utils/Strings.sol\":944:950  length */\n      dup3\n        /* \".deps/npm/@openzeppelin/contracts/utils/Strings.sol\":940:942  32 */\n      0x20\n        /* \".deps/npm/@openzeppelin/contracts/utils/Strings.sol\":936:951  add(32, length) */\n      add\n        /* \".deps/npm/@openzeppelin/contracts/utils/Strings.sol\":928:934  buffer */\n      dup3\n        /* \".deps/npm/@openzeppelin/contracts/utils/Strings.sol\":924:952  add(buffer, add(32, length)) */\n      add\n        /* \".deps/npm/@openzeppelin/contracts/utils/Strings.sol\":917:952  ptr := add(buffer, add(32, length)) */\n      swap1\n      pop\n        /* \".deps/npm/@openzeppelin/contracts/utils/Strings.sol\":979:1226  while (true) {... */\n    tag_240:\n        /* \".deps/npm/@openzeppelin/contracts/utils/Strings.sol\":986:990  true */\n      0x01\n        /* \".deps/npm/@openzeppelin/contracts/utils/Strings.sol\":979:1226  while (true) {... */\n      iszero\n      tag_241\n      jumpi\n        /* \".deps/npm/@openzeppelin/contracts/utils/Strings.sol\":1010:1015  ptr-- */\n      dup1\n      dup1\n      0x01\n      swap1\n      sub\n      swap2\n      pop\n      pop\n        /* \".deps/npm/@openzeppelin/contracts/utils/Strings.sol\":1114:1124  HEX_DIGITS */\n      0x3031323334353637383961626364656600000000000000000000000000000000\n        /* \".deps/npm/@openzeppelin/contracts/utils/Strings.sol\":1109:1111  10 */\n      0x0a\n        /* \".deps/npm/@openzeppelin/contracts/utils/Strings.sol\":1102:1107  value */\n      dup7\n        /* \".deps/npm/@openzeppelin/contracts/utils/Strings.sol\":1098:1112  mod(value, 10) */\n      mod\n        /* \".deps/npm/@openzeppelin/contracts/utils/Strings.sol\":1093:1125  byte(mod(value, 10), HEX_DIGITS) */\n      byte\n        /* \".deps/npm/@openzeppelin/contracts/utils/Strings.sol\":1088:1091  ptr */\n      dup2\n        /* \".deps/npm/@openzeppelin/contracts/utils/Strings.sol\":1080:1126  mstore8(ptr, byte(mod(value, 10), HEX_DIGITS)) */\n      mstore8\n        /* \".deps/npm/@openzeppelin/contracts/utils/Strings.sol\":1170:1172  10 */\n      0x0a\n        /* \".deps/npm/@openzeppelin/contracts/utils/Strings.sol\":1161:1172  value /= 10 */\n      dup6\n      dup2\n      tag_242\n      jumpi\n      tag_243\n      tag_244\n      jump\t// in\n    tag_243:\n    tag_242:\n      div\n      swap5\n      pop\n        /* \".deps/npm/@openzeppelin/contracts/utils/Strings.sol\":1203:1204  0 */\n      0x00\n        /* \".deps/npm/@openzeppelin/contracts/utils/Strings.sol\":1194:1199  value */\n      dup6\n        /* \".deps/npm/@openzeppelin/contracts/utils/Strings.sol\":1194:1204  value == 0 */\n      sub\n        /* \".deps/npm/@openzeppelin/contracts/utils/Strings.sol\":979:1226  while (true) {... */\n      tag_240\n        /* \".deps/npm/@openzeppelin/contracts/utils/Strings.sol\":1190:1211  if (value == 0) break */\n      jumpi\n        /* \".deps/npm/@openzeppelin/contracts/utils/Strings.sol\":979:1226  while (true) {... */\n    tag_241:\n        /* \".deps/npm/@openzeppelin/contracts/utils/Strings.sol\":1246:1252  buffer */\n      dup2\n        /* \".deps/npm/@openzeppelin/contracts/utils/Strings.sol\":1239:1252  return buffer */\n      swap4\n      pop\n      pop\n      pop\n      pop\n        /* \".deps/npm/@openzeppelin/contracts/utils/Strings.sol\":637:1269  function toString(uint256 value) internal pure returns (string memory) {... */\n      swap2\n      swap1\n      pop\n      jump\t// out\n        /* \".deps/npm/@openzeppelin/contracts/token/ERC20/ERC20.sol\":7458:7666  function _mint(address account, uint256 value) internal {... */\n    tag_155:\n        /* \".deps/npm/@openzeppelin/contracts/token/ERC20/ERC20.sol\":7547:7548  0 */\n      0x00\n        /* \".deps/npm/@openzeppelin/contracts/token/ERC20/ERC20.sol\":7528:7549  account == address(0) */\n      0xffffffffffffffffffffffffffffffffffffffff\n      and\n        /* \".deps/npm/@openzeppelin/contracts/token/ERC20/ERC20.sol\":7528:7535  account */\n      dup3\n        /* \".deps/npm/@openzeppelin/contracts/token/ERC20/ERC20.sol\":7528:7549  account == address(0) */\n      0xffffffffffffffffffffffffffffffffffffffff\n      and\n      sub\n        /* \".deps/npm/@openzeppelin/contracts/token/ERC20/ERC20.sol\":7524:7615  if (account == address(0)) {... */\n      tag_247\n      jumpi\n        /* \".deps/npm/@openzeppelin/contracts/token/ERC20/ERC20.sol\":7601:7602  0 */\n      0x00\n        /* \".deps/npm/@openzeppelin/contracts/token/ERC20/ERC20.sol\":7572:7604  ERC20InvalidReceiver(address(0)) */\n      mload(0x40)\n      0xec442f0500000000000000000000000000000000000000000000000000000000\n      dup2\n      mstore\n      0x04\n      add\n      tag_248\n      swap2\n      swap1\n      tag_249\n      jump\t// in\n    tag_248:\n      mload(0x40)\n      dup1\n      swap2\n      sub\n      swap1\n      revert\n        /* \".deps/npm/@openzeppelin/contracts/token/ERC20/ERC20.sol\":7524:7615  if (account == address(0)) {... */\n    tag_247:\n        /* \".deps/npm/@openzeppelin/contracts/token/ERC20/ERC20.sol\":7624:7659  _update(address(0), account, value) */\n      tag_250\n        /* \".deps/npm/@openzeppelin/contracts/token/ERC20/ERC20.sol\":7640:7641  0 */\n      0x00\n        /* \".deps/npm/@openzeppelin/contracts/token/ERC20/ERC20.sol\":7644:7651  account */\n      dup4\n        /* \".deps/npm/@openzeppelin/contracts/token/ERC20/ERC20.sol\":7653:7658  value */\n      dup4\n        /* \".deps/npm/@openzeppelin/contracts/token/ERC20/ERC20.sol\":7624:7631  _update */\n      tag_251\n        /* \".deps/npm/@openzeppelin/contracts/token/ERC20/ERC20.sol\":7624:7659  _update(address(0), account, value) */\n      jump\t// in\n    tag_250:\n        /* \".deps/npm/@openzeppelin/contracts/token/ERC20/ERC20.sol\":7458:7666  function _mint(address account, uint256 value) internal {... */\n      pop\n      pop\n      jump\t// out\n        /* \".deps/npm/@openzeppelin/contracts/token/ERC20/ERC20.sol\":10415:10892  function _spendAllowance(address owner, address spender, uint256 value) internal virtual {... */\n    tag_163:\n        /* \".deps/npm/@openzeppelin/contracts/token/ERC20/ERC20.sol\":10514:10538  uint256 currentAllowance */\n      0x00\n        /* \".deps/npm/@openzeppelin/contracts/token/ERC20/ERC20.sol\":10541:10566  allowance(owner, spender) */\n      tag_253\n        /* \".deps/npm/@openzeppelin/contracts/token/ERC20/ERC20.sol\":10551:10556  owner */\n      dup5\n        /* \".deps/npm/@openzeppelin/contracts/token/ERC20/ERC20.sol\":10558:10565  spender */\n      dup5\n        /* \".deps/npm/@openzeppelin/contracts/token/ERC20/ERC20.sol\":10541:10550  allowance */\n      tag_119\n        /* \".deps/npm/@openzeppelin/contracts/token/ERC20/ERC20.sol\":10541:10566  allowance(owner, spender) */\n      jump\t// in\n    tag_253:\n        /* \".deps/npm/@openzeppelin/contracts/token/ERC20/ERC20.sol\":10514:10566  uint256 currentAllowance = allowance(owner, spender) */\n      swap1\n      pop\n        /* \".deps/npm/@openzeppelin/contracts/token/ERC20/ERC20.sol\":10600:10617  type(uint256).max */\n      0xffffffffffffffffffffffffffffffffffffffffffffffffffffffffffffffff\n        /* \".deps/npm/@openzeppelin/contracts/token/ERC20/ERC20.sol\":10580:10596  currentAllowance */\n      dup2\n        /* \".deps/npm/@openzeppelin/contracts/token/ERC20/ERC20.sol\":10580:10617  currentAllowance != type(uint256).max */\n      eq\n        /* \".deps/npm/@openzeppelin/contracts/token/ERC20/ERC20.sol\":10576:10886  if (currentAllowance != type(uint256).max) {... */\n      tag_254\n      jumpi\n        /* \".deps/npm/@openzeppelin/contracts/token/ERC20/ERC20.sol\":10656:10661  value */\n      dup2\n        /* \".deps/npm/@openzeppelin/contracts/token/ERC20/ERC20.sol\":10637:10653  currentAllowance */\n      dup2\n        /* \".deps/npm/@openzeppelin/contracts/token/ERC20/ERC20.sol\":10637:10661  currentAllowance < value */\n      lt\n        /* \".deps/npm/@openzeppelin/contracts/token/ERC20/ERC20.sol\":10633:10763  if (currentAllowance < value) {... */\n      iszero\n      tag_255\n      jumpi\n        /* \".deps/npm/@openzeppelin/contracts/token/ERC20/ERC20.sol\":10715:10722  spender */\n      dup3\n        /* \".deps/npm/@openzeppelin/contracts/token/ERC20/ERC20.sol\":10724:10740  currentAllowance */\n      dup2\n        /* \".deps/npm/@openzeppelin/contracts/token/ERC20/ERC20.sol\":10742:10747  value */\n      dup4\n        /* \".deps/npm/@openzeppelin/contracts/token/ERC20/ERC20.sol\":10688:10748  ERC20InsufficientAllowance(spender, currentAllowance, value) */\n      mload(0x40)\n      0xfb8f41b200000000000000000000000000000000000000000000000000000000\n      dup2\n      mstore\n      0x04\n      add\n      tag_256\n      swap4\n      swap3\n      swap2\n      swap1\n      tag_257\n      jump\t// in\n    tag_256:\n      mload(0x40)\n      dup1\n      swap2\n      sub\n      swap1\n      revert\n        /* \".deps/npm/@openzeppelin/contracts/token/ERC20/ERC20.sol\":10633:10763  if (currentAllowance < value) {... */\n    tag_255:\n        /* \".deps/npm/@openzeppelin/contracts/token/ERC20/ERC20.sol\":10804:10861  _approve(owner, spender, currentAllowance - value, false) */\n      tag_258\n        /* \".deps/npm/@openzeppelin/contracts/token/ERC20/ERC20.sol\":10813:10818  owner */\n      dup5\n        /* \".deps/npm/@openzeppelin/contracts/token/ERC20/ERC20.sol\":10820:10827  spender */\n      dup5\n        /* \".deps/npm/@openzeppelin/contracts/token/ERC20/ERC20.sol\":10848:10853  value */\n      dup5\n        /* \".deps/npm/@openzeppelin/contracts/token/ERC20/ERC20.sol\":10829:10845  currentAllowance */\n      dup5\n        /* \".deps/npm/@openzeppelin/contracts/token/ERC20/ERC20.sol\":10829:10853  currentAllowance - value */\n      sub\n        /* \".deps/npm/@openzeppelin/contracts/token/ERC20/ERC20.sol\":10855:10860  false */\n      0x00\n        /* \".deps/npm/@openzeppelin/contracts/token/ERC20/ERC20.sol\":10804:10812  _approve */\n      tag_232\n        /* \".deps/npm/@openzeppelin/contracts/token/ERC20/ERC20.sol\":10804:10861  _approve(owner, spender, currentAllowance - value, false) */\n      jump\t// in\n    tag_258:\n        /* \".deps/npm/@openzeppelin/contracts/token/ERC20/ERC20.sol\":10576:10886  if (currentAllowance != type(uint256).max) {... */\n    tag_254:\n        /* \".deps/npm/@openzeppelin/contracts/token/ERC20/ERC20.sol\":10504:10892  {... */\n      pop\n        /* \".deps/npm/@openzeppelin/contracts/token/ERC20/ERC20.sol\":10415:10892  function _spendAllowance(address owner, address spender, uint256 value) internal virtual {... */\n      pop\n      pop\n      pop\n      jump\t// out\n        /* \".deps/npm/@openzeppelin/contracts/token/ERC20/ERC20.sol\":5393:5693  function _transfer(address from, address to, uint256 value) internal {... */\n    tag_165:\n        /* \".deps/npm/@openzeppelin/contracts/token/ERC20/ERC20.sol\":5492:5493  0 */\n      0x00\n        /* \".deps/npm/@openzeppelin/contracts/token/ERC20/ERC20.sol\":5476:5494  from == address(0) */\n      0xffffffffffffffffffffffffffffffffffffffff\n      and\n        /* \".deps/npm/@openzeppelin/contracts/token/ERC20/ERC20.sol\":5476:5480  from */\n      dup4\n        /* \".deps/npm/@openzeppelin/contracts/token/ERC20/ERC20.sol\":5476:5494  from == address(0) */\n      0xffffffffffffffffffffffffffffffffffffffff\n      and\n      sub\n        /* \".deps/npm/@openzeppelin/contracts/token/ERC20/ERC20.sol\":5472:5558  if (from == address(0)) {... */\n      tag_260\n      jumpi\n        /* \".deps/npm/@openzeppelin/contracts/token/ERC20/ERC20.sol\":5544:5545  0 */\n      0x00\n        /* \".deps/npm/@openzeppelin/contracts/token/ERC20/ERC20.sol\":5517:5547  ERC20InvalidSender(address(0)) */\n      mload(0x40)\n      0x96c6fd1e00000000000000000000000000000000000000000000000000000000\n      dup2\n      mstore\n      0x04\n      add\n      tag_261\n      swap2\n      swap1\n      tag_249\n      jump\t// in\n    tag_261:\n      mload(0x40)\n      dup1\n      swap2\n      sub\n      swap1\n      revert\n        /* \".deps/npm/@openzeppelin/contracts/token/ERC20/ERC20.sol\":5472:5558  if (from == address(0)) {... */\n    tag_260:\n        /* \".deps/npm/@openzeppelin/contracts/token/ERC20/ERC20.sol\":5585:5586  0 */\n      0x00\n        /* \".deps/npm/@openzeppelin/contracts/token/ERC20/ERC20.sol\":5571:5587  to == address(0) */\n      0xffffffffffffffffffffffffffffffffffffffff\n      and\n        /* \".deps/npm/@openzeppelin/contracts/token/ERC20/ERC20.sol\":5571:5573  to */\n      dup3\n        /* \".deps/npm/@openzeppelin/contracts/token/ERC20/ERC20.sol\":5571:5587  to == address(0) */\n      0xffffffffffffffffffffffffffffffffffffffff\n      and\n      sub\n        /* \".deps/npm/@openzeppelin/contracts/token/ERC20/ERC20.sol\":5567:5653  if (to == address(0)) {... */\n      tag_262\n      jumpi\n        /* \".deps/npm/@openzeppelin/contracts/token/ERC20/ERC20.sol\":5639:5640  0 */\n      0x00\n        /* \".deps/npm/@openzeppelin/contracts/token/ERC20/ERC20.sol\":5610:5642  ERC20InvalidReceiver(address(0)) */\n      mload(0x40)\n      0xec442f0500000000000000000000000000000000000000000000000000000000\n      dup2\n      mstore\n      0x04\n      add\n      tag_263\n      swap2\n      swap1\n      tag_249\n      jump\t// in\n    tag_263:\n      mload(0x40)\n      dup1\n      swap2\n      sub\n      swap1\n      revert\n        /* \".deps/npm/@openzeppelin/contracts/token/ERC20/ERC20.sol\":5567:5653  if (to == address(0)) {... */\n    tag_262:\n        /* \".deps/npm/@openzeppelin/contracts/token/ERC20/ERC20.sol\":5662:5686  _update(from, to, value) */\n      tag_264\n        /* \".deps/npm/@openzeppelin/contracts/token/ERC20/ERC20.sol\":5670:5674  from */\n      dup4\n        /* \".deps/npm/@openzeppelin/contracts/token/ERC20/ERC20.sol\":5676:5678  to */\n      dup4\n        /* \".deps/npm/@openzeppelin/contracts/token/ERC20/ERC20.sol\":5680:5685  value */\n      dup4\n        /* \".deps/npm/@openzeppelin/contracts/token/ERC20/ERC20.sol\":5662:5669  _update */\n      tag_251\n        /* \".deps/npm/@openzeppelin/contracts/token/ERC20/ERC20.sol\":5662:5686  _update(from, to, value) */\n      jump\t// in\n    tag_264:\n        /* \".deps/npm/@openzeppelin/contracts/token/ERC20/ERC20.sol\":5393:5693  function _transfer(address from, address to, uint256 value) internal {... */\n      pop\n      pop\n      pop\n      jump\t// out\n        /* \".deps/npm/@openzeppelin/contracts/token/ERC20/ERC20.sol\":7984:8190  function _burn(address account, uint256 value) internal {... */\n    tag_195:\n        /* \".deps/npm/@openzeppelin/contracts/token/ERC20/ERC20.sol\":8073:8074  0 */\n      0x00\n        /* \".deps/npm/@openzeppelin/contracts/token/ERC20/ERC20.sol\":8054:8075  account == address(0) */\n      0xffffffffffffffffffffffffffffffffffffffff\n      and\n        /* \".deps/npm/@openzeppelin/contracts/token/ERC20/ERC20.sol\":8054:8061  account */\n      dup3\n        /* \".deps/npm/@openzeppelin/contracts/token/ERC20/ERC20.sol\":8054:8075  account == address(0) */\n      0xffffffffffffffffffffffffffffffffffffffff\n      and\n      sub\n        /* \".deps/npm/@openzeppelin/contracts/token/ERC20/ERC20.sol\":8050:8139  if (account == address(0)) {... */\n      tag_266\n      jumpi\n        /* \".deps/npm/@openzeppelin/contracts/token/ERC20/ERC20.sol\":8125:8126  0 */\n      0x00\n        /* \".deps/npm/@openzeppelin/contracts/token/ERC20/ERC20.sol\":8098:8128  ERC20InvalidSender(address(0)) */\n      mload(0x40)\n      0x96c6fd1e00000000000000000000000000000000000000000000000000000000\n      dup2\n      mstore\n      0x04\n      add\n      tag_267\n      swap2\n      swap1\n      tag_249\n      jump\t// in\n    tag_267:\n      mload(0x40)\n      dup1\n      swap2\n      sub\n      swap1\n      revert\n        /* \".deps/npm/@openzeppelin/contracts/token/ERC20/ERC20.sol\":8050:8139  if (account == address(0)) {... */\n    tag_266:\n        /* \".deps/npm/@openzeppelin/contracts/token/ERC20/ERC20.sol\":8148:8183  _update(account, address(0), value) */\n      tag_268\n        /* \".deps/npm/@openzeppelin/contracts/token/ERC20/ERC20.sol\":8156:8163  account */\n      dup3\n        /* \".deps/npm/@openzeppelin/contracts/token/ERC20/ERC20.sol\":8173:8174  0 */\n      0x00\n        /* \".deps/npm/@openzeppelin/contracts/token/ERC20/ERC20.sol\":8177:8182  value */\n      dup4\n        /* \".deps/npm/@openzeppelin/contracts/token/ERC20/ERC20.sol\":8148:8155  _update */\n      tag_251\n        /* \".deps/npm/@openzeppelin/contracts/token/ERC20/ERC20.sol\":8148:8183  _update(account, address(0), value) */\n      jump\t// in\n    tag_268:\n        /* \".deps/npm/@openzeppelin/contracts/token/ERC20/ERC20.sol\":7984:8190  function _burn(address account, uint256 value) internal {... */\n      pop\n      pop\n      jump\t// out\n        /* \".deps/npm/@openzeppelin/contracts/token/ERC20/ERC20.sol\":9701:10133  function _approve(address owner, address spender, uint256 value, bool emitEvent) internal virtual {... */\n    tag_232:\n        /* \".deps/npm/@openzeppelin/contracts/token/ERC20/ERC20.sol\":9830:9831  0 */\n      0x00\n        /* \".deps/npm/@openzeppelin/contracts/token/ERC20/ERC20.sol\":9813:9832  owner == address(0) */\n      0xffffffffffffffffffffffffffffffffffffffff\n      and\n        /* \".deps/npm/@openzeppelin/contracts/token/ERC20/ERC20.sol\":9813:9818  owner */\n      dup5\n        /* \".deps/npm/@openzeppelin/contracts/token/ERC20/ERC20.sol\":9813:9832  owner == address(0) */\n      0xffffffffffffffffffffffffffffffffffffffff\n      and\n      sub\n        /* \".deps/npm/@openzeppelin/contracts/token/ERC20/ERC20.sol\":9809:9898  if (owner == address(0)) {... */\n      tag_270\n      jumpi\n        /* \".deps/npm/@openzeppelin/contracts/token/ERC20/ERC20.sol\":9884:9885  0 */\n      0x00\n        /* \".deps/npm/@openzeppelin/contracts/token/ERC20/ERC20.sol\":9855:9887  ERC20InvalidApprover(address(0)) */\n      mload(0x40)\n      0xe602df0500000000000000000000000000000000000000000000000000000000\n      dup2\n      mstore\n      0x04\n      add\n      tag_271\n      swap2\n      swap1\n      tag_249\n      jump\t// in\n    tag_271:\n      mload(0x40)\n      dup1\n      swap2\n      sub\n      swap1\n      revert\n        /* \".deps/npm/@openzeppelin/contracts/token/ERC20/ERC20.sol\":9809:9898  if (owner == address(0)) {... */\n    tag_270:\n        /* \".deps/npm/@openzeppelin/contracts/token/ERC20/ERC20.sol\":9930:9931  0 */\n      0x00\n        /* \".deps/npm/@openzeppelin/contracts/token/ERC20/ERC20.sol\":9911:9932  spender == address(0) */\n      0xffffffffffffffffffffffffffffffffffffffff\n      and\n        /* \".deps/npm/@openzeppelin/contracts/token/ERC20/ERC20.sol\":9911:9918  spender */\n      dup4\n        /* \".deps/npm/@openzeppelin/contracts/token/ERC20/ERC20.sol\":9911:9932  spender == address(0) */\n      0xffffffffffffffffffffffffffffffffffffffff\n      and\n      sub\n        /* \".deps/npm/@openzeppelin/contracts/token/ERC20/ERC20.sol\":9907:9997  if (spender == address(0)) {... */\n      tag_272\n      jumpi\n        /* \".deps/npm/@openzeppelin/contracts/token/ERC20/ERC20.sol\":9983:9984  0 */\n      0x00\n        /* \".deps/npm/@openzeppelin/contracts/token/ERC20/ERC20.sol\":9955:9986  ERC20InvalidSpender(address(0)) */\n      mload(0x40)\n      0x94280d6200000000000000000000000000000000000000000000000000000000\n      dup2\n      mstore\n      0x04\n      add\n      tag_273\n      swap2\n      swap1\n      tag_249\n      jump\t// in\n    tag_273:\n      mload(0x40)\n      dup1\n      swap2\n      sub\n      swap1\n      revert\n        /* \".deps/npm/@openzeppelin/contracts/token/ERC20/ERC20.sol\":9907:9997  if (spender == address(0)) {... */\n    tag_272:\n        /* \".deps/npm/@openzeppelin/contracts/token/ERC20/ERC20.sol\":10036:10041  value */\n      dup2\n        /* \".deps/npm/@openzeppelin/contracts/token/ERC20/ERC20.sol\":10006:10017  _allowances */\n      0x01\n        /* \".deps/npm/@openzeppelin/contracts/token/ERC20/ERC20.sol\":10006:10024  _allowances[owner] */\n      0x00\n        /* \".deps/npm/@openzeppelin/contracts/token/ERC20/ERC20.sol\":10018:10023  owner */\n      dup7\n        /* \".deps/npm/@openzeppelin/contracts/token/ERC20/ERC20.sol\":10006:10024  _allowances[owner] */\n      0xffffffffffffffffffffffffffffffffffffffff\n      and\n      0xffffffffffffffffffffffffffffffffffffffff\n      and\n      dup2\n      mstore\n      0x20\n      add\n      swap1\n      dup2\n      mstore\n      0x20\n      add\n      0x00\n      keccak256\n        /* \".deps/npm/@openzeppelin/contracts/token/ERC20/ERC20.sol\":10006:10033  _allowances[owner][spender] */\n      0x00\n        /* \".deps/npm/@openzeppelin/contracts/token/ERC20/ERC20.sol\":10025:10032  spender */\n      dup6\n        /* \".deps/npm/@openzeppelin/contracts/token/ERC20/ERC20.sol\":10006:10033  _allowances[owner][spender] */\n      0xffffffffffffffffffffffffffffffffffffffff\n      and\n      0xffffffffffffffffffffffffffffffffffffffff\n      and\n      dup2\n      mstore\n      0x20\n      add\n      swap1\n      dup2\n      mstore\n      0x20\n      add\n      0x00\n      keccak256\n        /* \".deps/npm/@openzeppelin/contracts/token/ERC20/ERC20.sol\":10006:10041  _allowances[owner][spender] = value */\n      dup2\n      swap1\n      sstore\n      pop\n        /* \".deps/npm/@openzeppelin/contracts/token/ERC20/ERC20.sol\":10055:10064  emitEvent */\n      dup1\n        /* \".deps/npm/@openzeppelin/contracts/token/ERC20/ERC20.sol\":10051:10127  if (emitEvent) {... */\n      iszero\n      tag_274\n      jumpi\n        /* \".deps/npm/@openzeppelin/contracts/token/ERC20/ERC20.sol\":10101:10108  spender */\n      dup3\n        /* \".deps/npm/@openzeppelin/contracts/token/ERC20/ERC20.sol\":10085:10116  Approval(owner, spender, value) */\n      0xffffffffffffffffffffffffffffffffffffffff\n      and\n        /* \".deps/npm/@openzeppelin/contracts/token/ERC20/ERC20.sol\":10094:10099  owner */\n      dup5\n        /* \".deps/npm/@openzeppelin/contracts/token/ERC20/ERC20.sol\":10085:10116  Approval(owner, spender, value) */\n      0xffffffffffffffffffffffffffffffffffffffff\n      and\n      0x8c5be1e5ebec7d5bd14f71427d1e84f3dd0314c0f7b2291e5b200ac8c7c3b925\n        /* \".deps/npm/@openzeppelin/contracts/token/ERC20/ERC20.sol\":10110:10115  value */\n      dup5\n        /* \".deps/npm/@openzeppelin/contracts/token/ERC20/ERC20.sol\":10085:10116  Approval(owner, spender, value) */\n      mload(0x40)\n      tag_275\n      swap2\n      swap1\n      tag_41\n      jump\t// in\n    tag_275:\n      mload(0x40)\n      dup1\n      swap2\n      sub\n      swap1\n      log3\n        /* \".deps/npm/@openzeppelin/contracts/token/ERC20/ERC20.sol\":10051:10127  if (emitEvent) {... */\n    tag_274:\n        /* \".deps/npm/@openzeppelin/contracts/token/ERC20/ERC20.sol\":9701:10133  function _approve(address owner, address spender, uint256 value, bool emitEvent) internal virtual {... */\n      pop\n      pop\n      pop\n      pop\n      jump\t// out\n        /* \".deps/npm/@openzeppelin/contracts/utils/math/Math.sol\":25316:26232  function log10(uint256 value) internal pure returns (uint256) {... */\n    tag_235:\n        /* \".deps/npm/@openzeppelin/contracts/utils/math/Math.sol\":25369:25376  uint256 */\n      0x00\n        /* \".deps/npm/@openzeppelin/contracts/utils/math/Math.sol\":25388:25402  uint256 result */\n      dup1\n        /* \".deps/npm/@openzeppelin/contracts/utils/math/Math.sol\":25405:25406  0 */\n      0x00\n        /* \".deps/npm/@openzeppelin/contracts/utils/math/Math.sol\":25388:25406  uint256 result = 0 */\n      swap1\n      pop\n        /* \".deps/npm/@openzeppelin/contracts/utils/math/Math.sol\":25453:25461  10 ** 64 */\n      0x184f03e93ff9f4daa797ed6e38ed64bf6a1f010000000000000000\n        /* \".deps/npm/@openzeppelin/contracts/utils/math/Math.sol\":25444:25449  value */\n      dup4\n        /* \".deps/npm/@openzeppelin/contracts/utils/math/Math.sol\":25444:25461  value >= 10 ** 64 */\n      lt\n        /* \".deps/npm/@openzeppelin/contracts/utils/math/Math.sol\":25440:25543  if (value >= 10 ** 64) {... */\n      tag_277\n      jumpi\n        /* \".deps/npm/@openzeppelin/contracts/utils/math/Math.sol\":25490:25498  10 ** 64 */\n      0x184f03e93ff9f4daa797ed6e38ed64bf6a1f010000000000000000\n        /* \".deps/npm/@openzeppelin/contracts/utils/math/Math.sol\":25481:25498  value /= 10 ** 64 */\n      dup4\n      dup2\n      tag_278\n      jumpi\n      tag_279\n      tag_244\n      jump\t// in\n    tag_279:\n    tag_278:\n      div\n      swap3\n      pop\n        /* \".deps/npm/@openzeppelin/contracts/utils/math/Math.sol\":25526:25528  64 */\n      0x40\n        /* \".deps/npm/@openzeppelin/contracts/utils/math/Math.sol\":25516:25528  result += 64 */\n      dup2\n      add\n      swap1\n      pop\n        /* \".deps/npm/@openzeppelin/contracts/utils/math/Math.sol\":25440:25543  if (value >= 10 ** 64) {... */\n    tag_277:\n        /* \".deps/npm/@openzeppelin/contracts/utils/math/Math.sol\":25569:25577  10 ** 32 */\n      0x04ee2d6d415b85acef8100000000\n        /* \".deps/npm/@openzeppelin/contracts/utils/math/Math.sol\":25560:25565  value */\n      dup4\n        /* \".deps/npm/@openzeppelin/contracts/utils/math/Math.sol\":25560:25577  value >= 10 ** 32 */\n      lt\n        /* \".deps/npm/@openzeppelin/contracts/utils/math/Math.sol\":25556:25659  if (value >= 10 ** 32) {... */\n      tag_280\n      jumpi\n        /* \".deps/npm/@openzeppelin/contracts/utils/math/Math.sol\":25606:25614  10 ** 32 */\n      0x04ee2d6d415b85acef8100000000\n        /* \".deps/npm/@openzeppelin/contracts/utils/math/Math.sol\":25597:25614  value /= 10 ** 32 */\n      dup4\n      dup2\n      tag_281\n      jumpi\n      tag_282\n      tag_244\n      jump\t// in\n    tag_282:\n    tag_281:\n      div\n      swap3\n      pop\n        /* \".deps/npm/@openzeppelin/contracts/utils/math/Math.sol\":25642:25644  32 */\n      0x20\n        /* \".deps/npm/@openzeppelin/contracts/utils/math/Math.sol\":25632:25644  result += 32 */\n      dup2\n      add\n      swap1\n      pop\n        /* \".deps/npm/@openzeppelin/contracts/utils/math/Math.sol\":25556:25659  if (value >= 10 ** 32) {... */\n    tag_280:\n        /* \".deps/npm/@openzeppelin/contracts/utils/math/Math.sol\":25685:25693  10 ** 16 */\n      0x2386f26fc10000\n        /* \".deps/npm/@openzeppelin/contracts/utils/math/Math.sol\":25676:25681  value */\n      dup4\n        /* \".deps/npm/@openzeppelin/contracts/utils/math/Math.sol\":25676:25693  value >= 10 ** 16 */\n      lt\n        /* \".deps/npm/@openzeppelin/contracts/utils/math/Math.sol\":25672:25775  if (value >= 10 ** 16) {... */\n      tag_283\n      jumpi\n        /* \".deps/npm/@openzeppelin/contracts/utils/math/Math.sol\":25722:25730  10 ** 16 */\n      0x2386f26fc10000\n        /* \".deps/npm/@openzeppelin/contracts/utils/math/Math.sol\":25713:25730  value /= 10 ** 16 */\n      dup4\n      dup2\n      tag_284\n      jumpi\n      tag_285\n      tag_244\n      jump\t// in\n    tag_285:\n    tag_284:\n      div\n      swap3\n      pop\n        /* \".deps/npm/@openzeppelin/contracts/utils/math/Math.sol\":25758:25760  16 */\n      0x10\n        /* \".deps/npm/@openzeppelin/contracts/utils/math/Math.sol\":25748:25760  result += 16 */\n      dup2\n      add\n      swap1\n      pop\n        /* \".deps/npm/@openzeppelin/contracts/utils/math/Math.sol\":25672:25775  if (value >= 10 ** 16) {... */\n    tag_283:\n        /* \".deps/npm/@openzeppelin/contracts/utils/math/Math.sol\":25801:25808  10 ** 8 */\n      0x05f5e100\n        /* \".deps/npm/@openzeppelin/contracts/utils/math/Math.sol\":25792:25797  value */\n      dup4\n        /* \".deps/npm/@openzeppelin/contracts/utils/math/Math.sol\":25792:25808  value >= 10 ** 8 */\n      lt\n        /* \".deps/npm/@openzeppelin/contracts/utils/math/Math.sol\":25788:25888  if (value >= 10 ** 8) {... */\n      tag_286\n      jumpi\n        /* \".deps/npm/@openzeppelin/contracts/utils/math/Math.sol\":25837:25844  10 ** 8 */\n      0x05f5e100\n        /* \".deps/npm/@openzeppelin/contracts/utils/math/Math.sol\":25828:25844  value /= 10 ** 8 */\n      dup4\n      dup2\n      tag_287\n      jumpi\n      tag_288\n      tag_244\n      jump\t// in\n    tag_288:\n    tag_287:\n      div\n      swap3\n      pop\n        /* \".deps/npm/@openzeppelin/contracts/utils/math/Math.sol\":25872:25873  8 */\n      0x08\n        /* \".deps/npm/@openzeppelin/contracts/utils/math/Math.sol\":25862:25873  result += 8 */\n      dup2\n      add\n      swap1\n      pop\n        /* \".deps/npm/@openzeppelin/contracts/utils/math/Math.sol\":25788:25888  if (value >= 10 ** 8) {... */\n    tag_286:\n        /* \".deps/npm/@openzeppelin/contracts/utils/math/Math.sol\":25914:25921  10 ** 4 */\n      0x2710\n        /* \".deps/npm/@openzeppelin/contracts/utils/math/Math.sol\":25905:25910  value */\n      dup4\n        /* \".deps/npm/@openzeppelin/contracts/utils/math/Math.sol\":25905:25921  value >= 10 ** 4 */\n      lt\n        /* \".deps/npm/@openzeppelin/contracts/utils/math/Math.sol\":25901:26001  if (value >= 10 ** 4) {... */\n      tag_289\n      jumpi\n        /* \".deps/npm/@openzeppelin/contracts/utils/math/Math.sol\":25950:25957  10 ** 4 */\n      0x2710\n        /* \".deps/npm/@openzeppelin/contracts/utils/math/Math.sol\":25941:25957  value /= 10 ** 4 */\n      dup4\n      dup2\n      tag_290\n      jumpi\n      tag_291\n      tag_244\n      jump\t// in\n    tag_291:\n    tag_290:\n      div\n      swap3\n      pop\n        /* \".deps/npm/@openzeppelin/contracts/utils/math/Math.sol\":25985:25986  4 */\n      0x04\n        /* \".deps/npm/@openzeppelin/contracts/utils/math/Math.sol\":25975:25986  result += 4 */\n      dup2\n      add\n      swap1\n      pop\n        /* \".deps/npm/@openzeppelin/contracts/utils/math/Math.sol\":25901:26001  if (value >= 10 ** 4) {... */\n    tag_289:\n        /* \".deps/npm/@openzeppelin/contracts/utils/math/Math.sol\":26027:26034  10 ** 2 */\n      0x64\n        /* \".deps/npm/@openzeppelin/contracts/utils/math/Math.sol\":26018:26023  value */\n      dup4\n        /* \".deps/npm/@openzeppelin/contracts/utils/math/Math.sol\":26018:26034  value >= 10 ** 2 */\n      lt\n        /* \".deps/npm/@openzeppelin/contracts/utils/math/Math.sol\":26014:26114  if (value >= 10 ** 2) {... */\n      tag_292\n      jumpi\n        /* \".deps/npm/@openzeppelin/contracts/utils/math/Math.sol\":26063:26070  10 ** 2 */\n      0x64\n        /* \".deps/npm/@openzeppelin/contracts/utils/math/Math.sol\":26054:26070  value /= 10 ** 2 */\n      dup4\n      dup2\n      tag_293\n      jumpi\n      tag_294\n      tag_244\n      jump\t// in\n    tag_294:\n    tag_293:\n      div\n      swap3\n      pop\n        /* \".deps/npm/@openzeppelin/contracts/utils/math/Math.sol\":26098:26099  2 */\n      0x02\n        /* \".deps/npm/@openzeppelin/contracts/utils/math/Math.sol\":26088:26099  result += 2 */\n      dup2\n      add\n      swap1\n      pop\n        /* \".deps/npm/@openzeppelin/contracts/utils/math/Math.sol\":26014:26114  if (value >= 10 ** 2) {... */\n    tag_292:\n        /* \".deps/npm/@openzeppelin/contracts/utils/math/Math.sol\":26140:26147  10 ** 1 */\n      0x0a\n        /* \".deps/npm/@openzeppelin/contracts/utils/math/Math.sol\":26131:26136  value */\n      dup4\n        /* \".deps/npm/@openzeppelin/contracts/utils/math/Math.sol\":26131:26147  value >= 10 ** 1 */\n      lt\n        /* \".deps/npm/@openzeppelin/contracts/utils/math/Math.sol\":26127:26193  if (value >= 10 ** 1) {... */\n      tag_295\n      jumpi\n        /* \".deps/npm/@openzeppelin/contracts/utils/math/Math.sol\":26177:26178  1 */\n      0x01\n        /* \".deps/npm/@openzeppelin/contracts/utils/math/Math.sol\":26167:26178  result += 1 */\n      dup2\n      add\n      swap1\n      pop\n        /* \".deps/npm/@openzeppelin/contracts/utils/math/Math.sol\":26127:26193  if (value >= 10 ** 1) {... */\n    tag_295:\n        /* \".deps/npm/@openzeppelin/contracts/utils/math/Math.sol\":26219:26225  result */\n      dup1\n        /* \".deps/npm/@openzeppelin/contracts/utils/math/Math.sol\":26212:26225  return result */\n      swap2\n      pop\n      pop\n        /* \".deps/npm/@openzeppelin/contracts/utils/math/Math.sol\":25316:26232  function log10(uint256 value) internal pure returns (uint256) {... */\n      swap2\n      swap1\n      pop\n      jump\t// out\n        /* \".deps/npm/@openzeppelin/contracts/token/ERC20/ERC20.sol\":6008:7115  function _update(address from, address to, uint256 value) internal virtual {... */\n    tag_251:\n        /* \".deps/npm/@openzeppelin/contracts/token/ERC20/ERC20.sol\":6113:6114  0 */\n      0x00\n        /* \".deps/npm/@openzeppelin/contracts/token/ERC20/ERC20.sol\":6097:6115  from == address(0) */\n      0xffffffffffffffffffffffffffffffffffffffff\n      and\n        /* \".deps/npm/@openzeppelin/contracts/token/ERC20/ERC20.sol\":6097:6101  from */\n      dup4\n        /* \".deps/npm/@openzeppelin/contracts/token/ERC20/ERC20.sol\":6097:6115  from == address(0) */\n      0xffffffffffffffffffffffffffffffffffffffff\n      and\n      sub\n        /* \".deps/npm/@openzeppelin/contracts/token/ERC20/ERC20.sol\":6093:6633  if (from == address(0)) {... */\n      tag_297\n      jumpi\n        /* \".deps/npm/@openzeppelin/contracts/token/ERC20/ERC20.sol\":6249:6254  value */\n      dup1\n        /* \".deps/npm/@openzeppelin/contracts/token/ERC20/ERC20.sol\":6233:6245  _totalSupply */\n      0x02\n      0x00\n        /* \".deps/npm/@openzeppelin/contracts/token/ERC20/ERC20.sol\":6233:6254  _totalSupply += value */\n      dup3\n      dup3\n      sload\n      tag_298\n      swap2\n      swap1\n      tag_157\n      jump\t// in\n    tag_298:\n      swap3\n      pop\n      pop\n      dup2\n      swap1\n      sstore\n      pop\n        /* \".deps/npm/@openzeppelin/contracts/token/ERC20/ERC20.sol\":6093:6633  if (from == address(0)) {... */\n      jump(tag_299)\n    tag_297:\n        /* \".deps/npm/@openzeppelin/contracts/token/ERC20/ERC20.sol\":6285:6304  uint256 fromBalance */\n      0x00\n        /* \".deps/npm/@openzeppelin/contracts/token/ERC20/ERC20.sol\":6307:6316  _balances */\n      dup1\n        /* \".deps/npm/@openzeppelin/contracts/token/ERC20/ERC20.sol\":6307:6322  _balances[from] */\n      0x00\n        /* \".deps/npm/@openzeppelin/contracts/token/ERC20/ERC20.sol\":6317:6321  from */\n      dup6\n        /* \".deps/npm/@openzeppelin/contracts/token/ERC20/ERC20.sol\":6307:6322  _balances[from] */\n      0xffffffffffffffffffffffffffffffffffffffff\n      and\n      0xffffffffffffffffffffffffffffffffffffffff\n      and\n      dup2\n      mstore\n      0x20\n      add\n      swap1\n      dup2\n      mstore\n      0x20\n      add\n      0x00\n      keccak256\n      sload\n        /* \".deps/npm/@openzeppelin/contracts/token/ERC20/ERC20.sol\":6285:6322  uint256 fromBalance = _balances[from] */\n      swap1\n      pop\n        /* \".deps/npm/@openzeppelin/contracts/token/ERC20/ERC20.sol\":6354:6359  value */\n      dup2\n        /* \".deps/npm/@openzeppelin/contracts/token/ERC20/ERC20.sol\":6340:6351  fromBalance */\n      dup2\n        /* \".deps/npm/@openzeppelin/contracts/token/ERC20/ERC20.sol\":6340:6359  fromBalance < value */\n      lt\n        /* \".deps/npm/@openzeppelin/contracts/token/ERC20/ERC20.sol\":6336:6451  if (fromBalance < value) {... */\n      iszero\n      tag_300\n      jumpi\n        /* \".deps/npm/@openzeppelin/contracts/token/ERC20/ERC20.sol\":6411:6415  from */\n      dup4\n        /* \".deps/npm/@openzeppelin/contracts/token/ERC20/ERC20.sol\":6417:6428  fromBalance */\n      dup2\n        /* \".deps/npm/@openzeppelin/contracts/token/ERC20/ERC20.sol\":6430:6435  value */\n      dup4\n        /* \".deps/npm/@openzeppelin/contracts/token/ERC20/ERC20.sol\":6386:6436  ERC20InsufficientBalance(from, fromBalance, value) */\n      mload(0x40)\n      0xe450d38c00000000000000000000000000000000000000000000000000000000\n      dup2\n      mstore\n      0x04\n      add\n      tag_301\n      swap4\n      swap3\n      swap2\n      swap1\n      tag_257\n      jump\t// in\n    tag_301:\n      mload(0x40)\n      dup1\n      swap2\n      sub\n      swap1\n      revert\n        /* \".deps/npm/@openzeppelin/contracts/token/ERC20/ERC20.sol\":6336:6451  if (fromBalance < value) {... */\n    tag_300:\n        /* \".deps/npm/@openzeppelin/contracts/token/ERC20/ERC20.sol\":6603:6608  value */\n      dup2\n        /* \".deps/npm/@openzeppelin/contracts/token/ERC20/ERC20.sol\":6589:6600  fromBalance */\n      dup2\n        /* \".deps/npm/@openzeppelin/contracts/token/ERC20/ERC20.sol\":6589:6608  fromBalance - value */\n      sub\n        /* \".deps/npm/@openzeppelin/contracts/token/ERC20/ERC20.sol\":6571:6580  _balances */\n      0x00\n        /* \".deps/npm/@openzeppelin/contracts/token/ERC20/ERC20.sol\":6571:6586  _balances[from] */\n      dup1\n        /* \".deps/npm/@openzeppelin/contracts/token/ERC20/ERC20.sol\":6581:6585  from */\n      dup7\n        /* \".deps/npm/@openzeppelin/contracts/token/ERC20/ERC20.sol\":6571:6586  _balances[from] */\n      0xffffffffffffffffffffffffffffffffffffffff\n      and\n      0xffffffffffffffffffffffffffffffffffffffff\n      and\n      dup2\n      mstore\n      0x20\n      add\n      swap1\n      dup2\n      mstore\n      0x20\n      add\n      0x00\n      keccak256\n        /* \".deps/npm/@openzeppelin/contracts/token/ERC20/ERC20.sol\":6571:6608  _balances[from] = fromBalance - value */\n      dup2\n      swap1\n      sstore\n      pop\n        /* \".deps/npm/@openzeppelin/contracts/token/ERC20/ERC20.sol\":6271:6633  {... */\n      pop\n        /* \".deps/npm/@openzeppelin/contracts/token/ERC20/ERC20.sol\":6093:6633  if (from == address(0)) {... */\n    tag_299:\n        /* \".deps/npm/@openzeppelin/contracts/token/ERC20/ERC20.sol\":6661:6662  0 */\n      0x00\n        /* \".deps/npm/@openzeppelin/contracts/token/ERC20/ERC20.sol\":6647:6663  to == address(0) */\n      0xffffffffffffffffffffffffffffffffffffffff\n      and\n        /* \".deps/npm/@openzeppelin/contracts/token/ERC20/ERC20.sol\":6647:6649  to */\n      dup3\n        /* \".deps/npm/@openzeppelin/contracts/token/ERC20/ERC20.sol\":6647:6663  to == address(0) */\n      0xffffffffffffffffffffffffffffffffffffffff\n      and\n      sub\n        /* \".deps/npm/@openzeppelin/contracts/token/ERC20/ERC20.sol\":6643:7068  if (to == address(0)) {... */\n      tag_302\n      jumpi\n        /* \".deps/npm/@openzeppelin/contracts/token/ERC20/ERC20.sol\":6826:6831  value */\n      dup1\n        /* \".deps/npm/@openzeppelin/contracts/token/ERC20/ERC20.sol\":6810:6822  _totalSupply */\n      0x02\n      0x00\n        /* \".deps/npm/@openzeppelin/contracts/token/ERC20/ERC20.sol\":6810:6831  _totalSupply -= value */\n      dup3\n      dup3\n      sload\n      sub\n      swap3\n      pop\n      pop\n      dup2\n      swap1\n      sstore\n      pop\n        /* \".deps/npm/@openzeppelin/contracts/token/ERC20/ERC20.sol\":6643:7068  if (to == address(0)) {... */\n      jump(tag_303)\n    tag_302:\n        /* \".deps/npm/@openzeppelin/contracts/token/ERC20/ERC20.sol\":7038:7043  value */\n      dup1\n        /* \".deps/npm/@openzeppelin/contracts/token/ERC20/ERC20.sol\":7021:7030  _balances */\n      0x00\n        /* \".deps/npm/@openzeppelin/contracts/token/ERC20/ERC20.sol\":7021:7034  _balances[to] */\n      dup1\n        /* \".deps/npm/@openzeppelin/contracts/token/ERC20/ERC20.sol\":7031:7033  to */\n      dup5\n        /* \".deps/npm/@openzeppelin/contracts/token/ERC20/ERC20.sol\":7021:7034  _balances[to] */\n      0xffffffffffffffffffffffffffffffffffffffff\n      and\n      0xffffffffffffffffffffffffffffffffffffffff\n      and\n      dup2\n      mstore\n      0x20\n      add\n      swap1\n      dup2\n      mstore\n      0x20\n      add\n      0x00\n      keccak256\n      0x00\n        /* \".deps/npm/@openzeppelin/contracts/token/ERC20/ERC20.sol\":7021:7043  _balances[to] += value */\n      dup3\n      dup3\n      sload\n      add\n      swap3\n      pop\n      pop\n      dup2\n      swap1\n      sstore\n      pop\n        /* \".deps/npm/@openzeppelin/contracts/token/ERC20/ERC20.sol\":6643:7068  if (to == address(0)) {... */\n    tag_303:\n        /* \".deps/npm/@openzeppelin/contracts/token/ERC20/ERC20.sol\":7098:7100  to */\n      dup2\n        /* \".deps/npm/@openzeppelin/contracts/token/ERC20/ERC20.sol\":7083:7108  Transfer(from, to, value) */\n      0xffffffffffffffffffffffffffffffffffffffff\n      and\n        /* \".deps/npm/@openzeppelin/contracts/token/ERC20/ERC20.sol\":7092:7096  from */\n      dup4\n        /* \".deps/npm/@openzeppelin/contracts/token/ERC20/ERC20.sol\":7083:7108  Transfer(from, to, value) */\n      0xffffffffffffffffffffffffffffffffffffffff\n      and\n      0xddf252ad1be2c89b69c2b068fc378daa952ba7f163c4a11628f55a4df523b3ef\n        /* \".deps/npm/@openzeppelin/contracts/token/ERC20/ERC20.sol\":7102:7107  value */\n      dup4\n        /* \".deps/npm/@openzeppelin/contracts/token/ERC20/ERC20.sol\":7083:7108  Transfer(from, to, value) */\n      mload(0x40)\n      tag_304\n      swap2\n      swap1\n      tag_41\n      jump\t// in\n    tag_304:\n      mload(0x40)\n      dup1\n      swap2\n      sub\n      swap1\n      log3\n        /* \".deps/npm/@openzeppelin/contracts/token/ERC20/ERC20.sol\":6008:7115  function _update(address from, address to, uint256 value) internal virtual {... */\n      pop\n      pop\n      pop\n      jump\t// out\n        /* \"#utility.yul\":7:106   */\n    tag_305:\n        /* \"#utility.yul\":59:65   */\n      0x00\n        /* \"#utility.yul\":93:98   */\n      dup2\n        /* \"#utility.yul\":87:99   */\n      mload\n        /* \"#utility.yul\":77:99   */\n      swap1\n      pop\n        /* \"#utility.yul\":7:106   */\n      swap2\n      swap1\n      pop\n      jump\t// out\n        /* \"#utility.yul\":112:281   */\n    tag_306:\n        /* \"#utility.yul\":196:207   */\n      0x00\n        /* \"#utility.yul\":230:236   */\n      dup3\n        /* \"#utility.yul\":225:228   */\n      dup3\n        /* \"#utility.yul\":218:237   */\n      mstore\n        /* \"#utility.yul\":270:274   */\n      0x20\n        /* \"#utility.yul\":265:268   */\n      dup3\n        /* \"#utility.yul\":261:275   */\n      add\n        /* \"#utility.yul\":246:275   */\n      swap1\n      pop\n        /* \"#utility.yul\":112:281   */\n      swap3\n      swap2\n      pop\n      pop\n      jump\t// out\n        /* \"#utility.yul\":287:426   */\n    tag_307:\n        /* \"#utility.yul\":376:382   */\n      dup3\n        /* \"#utility.yul\":371:374   */\n      dup2\n        /* \"#utility.yul\":366:369   */\n      dup4\n        /* \"#utility.yul\":360:383   */\n      mcopy\n        /* \"#utility.yul\":417:418   */\n      0x00\n        /* \"#utility.yul\":408:414   */\n      dup4\n        /* \"#utility.yul\":403:406   */\n      dup4\n        /* \"#utility.yul\":399:415   */\n      add\n        /* \"#utility.yul\":392:419   */\n      mstore\n        /* \"#utility.yul\":287:426   */\n      pop\n      pop\n      pop\n      jump\t// out\n        /* \"#utility.yul\":432:534   */\n    tag_308:\n        /* \"#utility.yul\":473:479   */\n      0x00\n        /* \"#utility.yul\":524:526   */\n      0x1f\n        /* \"#utility.yul\":520:527   */\n      not\n        /* \"#utility.yul\":515:517   */\n      0x1f\n        /* \"#utility.yul\":508:513   */\n      dup4\n        /* \"#utility.yul\":504:518   */\n      add\n        /* \"#utility.yul\":500:528   */\n      and\n        /* \"#utility.yul\":490:528   */\n      swap1\n      pop\n        /* \"#utility.yul\":432:534   */\n      swap2\n      swap1\n      pop\n      jump\t// out\n        /* \"#utility.yul\":540:917   */\n    tag_309:\n        /* \"#utility.yul\":628:631   */\n      0x00\n        /* \"#utility.yul\":656:695   */\n      tag_352\n        /* \"#utility.yul\":689:694   */\n      dup3\n        /* \"#utility.yul\":656:695   */\n      tag_305\n      jump\t// in\n    tag_352:\n        /* \"#utility.yul\":711:782   */\n      tag_353\n        /* \"#utility.yul\":775:781   */\n      dup2\n        /* \"#utility.yul\":770:773   */\n      dup6\n        /* \"#utility.yul\":711:782   */\n      tag_306\n      jump\t// in\n    tag_353:\n        /* \"#utility.yul\":704:782   */\n      swap4\n      pop\n        /* \"#utility.yul\":791:856   */\n      tag_354\n        /* \"#utility.yul\":849:855   */\n      dup2\n        /* \"#utility.yul\":844:847   */\n      dup6\n        /* \"#utility.yul\":837:841   */\n      0x20\n        /* \"#utility.yul\":830:835   */\n      dup7\n        /* \"#utility.yul\":826:842   */\n      add\n        /* \"#utility.yul\":791:856   */\n      tag_307\n      jump\t// in\n    tag_354:\n        /* \"#utility.yul\":881:910   */\n      tag_355\n        /* \"#utility.yul\":903:909   */\n      dup2\n        /* \"#utility.yul\":881:910   */\n      tag_308\n      jump\t// in\n    tag_355:\n        /* \"#utility.yul\":876:879   */\n      dup5\n        /* \"#utility.yul\":872:911   */\n      add\n        /* \"#utility.yul\":865:911   */\n      swap2\n      pop\n        /* \"#utility.yul\":632:917   */\n      pop\n        /* \"#utility.yul\":540:917   */\n      swap3\n      swap2\n      pop\n      pop\n      jump\t// out\n        /* \"#utility.yul\":923:1236   */\n    tag_29:\n        /* \"#utility.yul\":1036:1040   */\n      0x00\n        /* \"#utility.yul\":1074:1076   */\n      0x20\n        /* \"#utility.yul\":1063:1072   */\n      dup3\n        /* \"#utility.yul\":1059:1077   */\n      add\n        /* \"#utility.yul\":1051:1077   */\n      swap1\n      pop\n        /* \"#utility.yul\":1123:1132   */\n      dup2\n        /* \"#utility.yul\":1117:1121   */\n      dup2\n        /* \"#utility.yul\":1113:1133   */\n      sub\n        /* \"#utility.yul\":1109:1110   */\n      0x00\n        /* \"#utility.yul\":1098:1107   */\n      dup4\n        /* \"#utility.yul\":1094:1111   */\n      add\n        /* \"#utility.yul\":1087:1134   */\n      mstore\n        /* \"#utility.yul\":1151:1229   */\n      tag_357\n        /* \"#utility.yul\":1224:1228   */\n      dup2\n        /* \"#utility.yul\":1215:1221   */\n      dup5\n        /* \"#utility.yul\":1151:1229   */\n      tag_309\n      jump\t// in\n    tag_357:\n        /* \"#utility.yul\":1143:1229   */\n      swap1\n      pop\n        /* \"#utility.yul\":923:1236   */\n      swap3\n      swap2\n      pop\n      pop\n      jump\t// out\n        /* \"#utility.yul\":1323:1440   */\n    tag_311:\n        /* \"#utility.yul\":1432:1433   */\n      0x00\n        /* \"#utility.yul\":1429:1430   */\n      dup1\n        /* \"#utility.yul\":1422:1434   */\n      revert\n        /* \"#utility.yul\":1569:1695   */\n    tag_313:\n        /* \"#utility.yul\":1606:1613   */\n      0x00\n        /* \"#utility.yul\":1646:1688   */\n      0xffffffffffffffffffffffffffffffffffffffff\n        /* \"#utility.yul\":1639:1644   */\n      dup3\n        /* \"#utility.yul\":1635:1689   */\n      and\n        /* \"#utility.yul\":1624:1689   */\n      swap1\n      pop\n        /* \"#utility.yul\":1569:1695   */\n      swap2\n      swap1\n      pop\n      jump\t// out\n        /* \"#utility.yul\":1701:1797   */\n    tag_314:\n        /* \"#utility.yul\":1738:1745   */\n      0x00\n        /* \"#utility.yul\":1767:1791   */\n      tag_363\n        /* \"#utility.yul\":1785:1790   */\n      dup3\n        /* \"#utility.yul\":1767:1791   */\n      tag_313\n      jump\t// in\n    tag_363:\n        /* \"#utility.yul\":1756:1791   */\n      swap1\n      pop\n        /* \"#utility.yul\":1701:1797   */\n      swap2\n      swap1\n      pop\n      jump\t// out\n        /* \"#utility.yul\":1803:1925   */\n    tag_315:\n        /* \"#utility.yul\":1876:1900   */\n      tag_365\n        /* \"#utility.yul\":1894:1899   */\n      dup2\n        /* \"#utility.yul\":1876:1900   */\n      tag_314\n      jump\t// in\n    tag_365:\n        /* \"#utility.yul\":1869:1874   */\n      dup2\n        /* \"#utility.yul\":1866:1901   */\n      eq\n        /* \"#utility.yul\":1856:1919   */\n      tag_366\n      jumpi\n        /* \"#utility.yul\":1915:1916   */\n      0x00\n        /* \"#utility.yul\":1912:1913   */\n      dup1\n        /* \"#utility.yul\":1905:1917   */\n      revert\n        /* \"#utility.yul\":1856:1919   */\n    tag_366:\n        /* \"#utility.yul\":1803:1925   */\n      pop\n      jump\t// out\n        /* \"#utility.yul\":1931:2070   */\n    tag_316:\n        /* \"#utility.yul\":1977:1982   */\n      0x00\n        /* \"#utility.yul\":2015:2021   */\n      dup2\n        /* \"#utility.yul\":2002:2022   */\n      calldataload\n        /* \"#utility.yul\":1993:2022   */\n      swap1\n      pop\n        /* \"#utility.yul\":2031:2064   */\n      tag_368\n        /* \"#utility.yul\":2058:2063   */\n      dup2\n        /* \"#utility.yul\":2031:2064   */\n      tag_315\n      jump\t// in\n    tag_368:\n        /* \"#utility.yul\":1931:2070   */\n      swap3\n      swap2\n      pop\n      pop\n      jump\t// out\n        /* \"#utility.yul\":2076:2153   */\n    tag_317:\n        /* \"#utility.yul\":2113:2120   */\n      0x00\n        /* \"#utility.yul\":2142:2147   */\n      dup2\n        /* \"#utility.yul\":2131:2147   */\n      swap1\n      pop\n        /* \"#utility.yul\":2076:2153   */\n      swap2\n      swap1\n      pop\n      jump\t// out\n        /* \"#utility.yul\":2159:2281   */\n    tag_318:\n        /* \"#utility.yul\":2232:2256   */\n      tag_371\n        /* \"#utility.yul\":2250:2255   */\n      dup2\n        /* \"#utility.yul\":2232:2256   */\n      tag_317\n      jump\t// in\n    tag_371:\n        /* \"#utility.yul\":2225:2230   */\n      dup2\n        /* \"#utility.yul\":2222:2257   */\n      eq\n        /* \"#utility.yul\":2212:2275   */\n      tag_372\n      jumpi\n        /* \"#utility.yul\":2271:2272   */\n      0x00\n        /* \"#utility.yul\":2268:2269   */\n      dup1\n        /* \"#utility.yul\":2261:2273   */\n      revert\n        /* \"#utility.yul\":2212:2275   */\n    tag_372:\n        /* \"#utility.yul\":2159:2281   */\n      pop\n      jump\t// out\n        /* \"#utility.yul\":2287:2426   */\n    tag_319:\n        /* \"#utility.yul\":2333:2338   */\n      0x00\n        /* \"#utility.yul\":2371:2377   */\n      dup2\n        /* \"#utility.yul\":2358:2378   */\n      calldataload\n        /* \"#utility.yul\":2349:2378   */\n      swap1\n      pop\n        /* \"#utility.yul\":2387:2420   */\n      tag_374\n        /* \"#utility.yul\":2414:2419   */\n      dup2\n        /* \"#utility.yul\":2387:2420   */\n      tag_318\n      jump\t// in\n    tag_374:\n        /* \"#utility.yul\":2287:2426   */\n      swap3\n      swap2\n      pop\n      pop\n      jump\t// out\n        /* \"#utility.yul\":2432:2906   */\n    tag_33:\n        /* \"#utility.yul\":2500:2506   */\n      0x00\n        /* \"#utility.yul\":2508:2514   */\n      dup1\n        /* \"#utility.yul\":2557:2559   */\n      0x40\n        /* \"#utility.yul\":2545:2554   */\n      dup4\n        /* \"#utility.yul\":2536:2543   */\n      dup6\n        /* \"#utility.yul\":2532:2555   */\n      sub\n        /* \"#utility.yul\":2528:2560   */\n      slt\n        /* \"#utility.yul\":2525:2644   */\n      iszero\n      tag_376\n      jumpi\n        /* \"#utility.yul\":2563:2642   */\n      tag_377\n      tag_311\n      jump\t// in\n    tag_377:\n        /* \"#utility.yul\":2525:2644   */\n    tag_376:\n        /* \"#utility.yul\":2683:2684   */\n      0x00\n        /* \"#utility.yul\":2708:2761   */\n      tag_378\n        /* \"#utility.yul\":2753:2760   */\n      dup6\n        /* \"#utility.yul\":2744:2750   */\n      dup3\n        /* \"#utility.yul\":2733:2742   */\n      dup7\n        /* \"#utility.yul\":2729:2751   */\n      add\n        /* \"#utility.yul\":2708:2761   */\n      tag_316\n      jump\t// in\n    tag_378:\n        /* \"#utility.yul\":2698:2761   */\n      swap3\n      pop\n        /* \"#utility.yul\":2654:2771   */\n      pop\n        /* \"#utility.yul\":2810:2812   */\n      0x20\n        /* \"#utility.yul\":2836:2889   */\n      tag_379\n        /* \"#utility.yul\":2881:2888   */\n      dup6\n        /* \"#utility.yul\":2872:2878   */\n      dup3\n        /* \"#utility.yul\":2861:2870   */\n      dup7\n        /* \"#utility.yul\":2857:2879   */\n      add\n        /* \"#utility.yul\":2836:2889   */\n      tag_319\n      jump\t// in\n    tag_379:\n        /* \"#utility.yul\":2826:2889   */\n      swap2\n      pop\n        /* \"#utility.yul\":2781:2899   */\n      pop\n        /* \"#utility.yul\":2432:2906   */\n      swap3\n      pop\n      swap3\n      swap1\n      pop\n      jump\t// out\n        /* \"#utility.yul\":2912:3002   */\n    tag_320:\n        /* \"#utility.yul\":2946:2953   */\n      0x00\n        /* \"#utility.yul\":2989:2994   */\n      dup2\n        /* \"#utility.yul\":2982:2995   */\n      iszero\n        /* \"#utility.yul\":2975:2996   */\n      iszero\n        /* \"#utility.yul\":2964:2996   */\n      swap1\n      pop\n        /* \"#utility.yul\":2912:3002   */\n      swap2\n      swap1\n      pop\n      jump\t// out\n        /* \"#utility.yul\":3008:3117   */\n    tag_321:\n        /* \"#utility.yul\":3089:3110   */\n      tag_382\n        /* \"#utility.yul\":3104:3109   */\n      dup2\n        /* \"#utility.yul\":3089:3110   */\n      tag_320\n      jump\t// in\n    tag_382:\n        /* \"#utility.yul\":3084:3087   */\n      dup3\n        /* \"#utility.yul\":3077:3111   */\n      mstore\n        /* \"#utility.yul\":3008:3117   */\n      pop\n      pop\n      jump\t// out\n        /* \"#utility.yul\":3123:3333   */\n    tag_36:\n        /* \"#utility.yul\":3210:3214   */\n      0x00\n        /* \"#utility.yul\":3248:3250   */\n      0x20\n        /* \"#utility.yul\":3237:3246   */\n      dup3\n        /* \"#utility.yul\":3233:3251   */\n      add\n        /* \"#utility.yul\":3225:3251   */\n      swap1\n      pop\n        /* \"#utility.yul\":3261:3326   */\n      tag_384\n        /* \"#utility.yul\":3323:3324   */\n      0x00\n        /* \"#utility.yul\":3312:3321   */\n      dup4\n        /* \"#utility.yul\":3308:3325   */\n      add\n        /* \"#utility.yul\":3299:3305   */\n      dup5\n        /* \"#utility.yul\":3261:3326   */\n      tag_321\n      jump\t// in\n    tag_384:\n        /* \"#utility.yul\":3123:3333   */\n      swap3\n      swap2\n      pop\n      pop\n      jump\t// out\n        /* \"#utility.yul\":3339:3457   */\n    tag_322:\n        /* \"#utility.yul\":3426:3450   */\n      tag_386\n        /* \"#utility.yul\":3444:3449   */\n      dup2\n        /* \"#utility.yul\":3426:3450   */\n      tag_317\n      jump\t// in\n    tag_386:\n        /* \"#utility.yul\":3421:3424   */\n      dup3\n        /* \"#utility.yul\":3414:3451   */\n      mstore\n        /* \"#utility.yul\":3339:3457   */\n      pop\n      pop\n      jump\t// out\n        /* \"#utility.yul\":3463:3685   */\n    tag_41:\n        /* \"#utility.yul\":3556:3560   */\n      0x00\n        /* \"#utility.yul\":3594:3596   */\n      0x20\n        /* \"#utility.yul\":3583:3592   */\n      dup3\n        /* \"#utility.yul\":3579:3597   */\n      add\n        /* \"#utility.yul\":3571:3597   */\n      swap1\n      pop\n        /* \"#utility.yul\":3607:3678   */\n      tag_388\n        /* \"#utility.yul\":3675:3676   */\n      0x00\n        /* \"#utility.yul\":3664:3673   */\n      dup4\n        /* \"#utility.yul\":3660:3677   */\n      add\n        /* \"#utility.yul\":3651:3657   */\n      dup5\n        /* \"#utility.yul\":3607:3678   */\n      tag_322\n      jump\t// in\n    tag_388:\n        /* \"#utility.yul\":3463:3685   */\n      swap3\n      swap2\n      pop\n      pop\n      jump\t// out\n        /* \"#utility.yul\":3691:4165   */\n    tag_44:\n        /* \"#utility.yul\":3759:3765   */\n      0x00\n        /* \"#utility.yul\":3767:3773   */\n      dup1\n        /* \"#utility.yul\":3816:3818   */\n      0x40\n        /* \"#utility.yul\":3804:3813   */\n      dup4\n        /* \"#utility.yul\":3795:3802   */\n      dup6\n        /* \"#utility.yul\":3791:3814   */\n      sub\n        /* \"#utility.yul\":3787:3819   */\n      slt\n        /* \"#utility.yul\":3784:3903   */\n      iszero\n      tag_390\n      jumpi\n        /* \"#utility.yul\":3822:3901   */\n      tag_391\n      tag_311\n      jump\t// in\n    tag_391:\n        /* \"#utility.yul\":3784:3903   */\n    tag_390:\n        /* \"#utility.yul\":3942:3943   */\n      0x00\n        /* \"#utility.yul\":3967:4020   */\n      tag_392\n        /* \"#utility.yul\":4012:4019   */\n      dup6\n        /* \"#utility.yul\":4003:4009   */\n      dup3\n        /* \"#utility.yul\":3992:4001   */\n      dup7\n        /* \"#utility.yul\":3988:4010   */\n      add\n        /* \"#utility.yul\":3967:4020   */\n      tag_319\n      jump\t// in\n    tag_392:\n        /* \"#utility.yul\":3957:4020   */\n      swap3\n      pop\n        /* \"#utility.yul\":3913:4030   */\n      pop\n        /* \"#utility.yul\":4069:4071   */\n      0x20\n        /* \"#utility.yul\":4095:4148   */\n      tag_393\n        /* \"#utility.yul\":4140:4147   */\n      dup6\n        /* \"#utility.yul\":4131:4137   */\n      dup3\n        /* \"#utility.yul\":4120:4129   */\n      dup7\n        /* \"#utility.yul\":4116:4138   */\n      add\n        /* \"#utility.yul\":4095:4148   */\n      tag_319\n      jump\t// in\n    tag_393:\n        /* \"#utility.yul\":4085:4148   */\n      swap2\n      pop\n        /* \"#utility.yul\":4040:4158   */\n      pop\n        /* \"#utility.yul\":3691:4165   */\n      swap3\n      pop\n      swap3\n      swap1\n      pop\n      jump\t// out\n        /* \"#utility.yul\":4171:4500   */\n    tag_49:\n        /* \"#utility.yul\":4230:4236   */\n      0x00\n        /* \"#utility.yul\":4279:4281   */\n      0x20\n        /* \"#utility.yul\":4267:4276   */\n      dup3\n        /* \"#utility.yul\":4258:4265   */\n      dup5\n        /* \"#utility.yul\":4254:4277   */\n      sub\n        /* \"#utility.yul\":4250:4282   */\n      slt\n        /* \"#utility.yul\":4247:4366   */\n      iszero\n      tag_395\n      jumpi\n        /* \"#utility.yul\":4285:4364   */\n      tag_396\n      tag_311\n      jump\t// in\n    tag_396:\n        /* \"#utility.yul\":4247:4366   */\n    tag_395:\n        /* \"#utility.yul\":4405:4406   */\n      0x00\n        /* \"#utility.yul\":4430:4483   */\n      tag_397\n        /* \"#utility.yul\":4475:4482   */\n      dup5\n        /* \"#utility.yul\":4466:4472   */\n      dup3\n        /* \"#utility.yul\":4455:4464   */\n      dup6\n        /* \"#utility.yul\":4451:4473   */\n      add\n        /* \"#utility.yul\":4430:4483   */\n      tag_316\n      jump\t// in\n    tag_397:\n        /* \"#utility.yul\":4420:4483   */\n      swap2\n      pop\n        /* \"#utility.yul\":4376:4493   */\n      pop\n        /* \"#utility.yul\":4171:4500   */\n      swap3\n      swap2\n      pop\n      pop\n      jump\t// out\n        /* \"#utility.yul\":4506:5125   */\n    tag_55:\n        /* \"#utility.yul\":4583:4589   */\n      0x00\n        /* \"#utility.yul\":4591:4597   */\n      dup1\n        /* \"#utility.yul\":4599:4605   */\n      0x00\n        /* \"#utility.yul\":4648:4650   */\n      0x60\n        /* \"#utility.yul\":4636:4645   */\n      dup5\n        /* \"#utility.yul\":4627:4634   */\n      dup7\n        /* \"#utility.yul\":4623:4646   */\n      sub\n        /* \"#utility.yul\":4619:4651   */\n      slt\n        /* \"#utility.yul\":4616:4735   */\n      iszero\n      tag_399\n      jumpi\n        /* \"#utility.yul\":4654:4733   */\n      tag_400\n      tag_311\n      jump\t// in\n    tag_400:\n        /* \"#utility.yul\":4616:4735   */\n    tag_399:\n        /* \"#utility.yul\":4774:4775   */\n      0x00\n        /* \"#utility.yul\":4799:4852   */\n      tag_401\n        /* \"#utility.yul\":4844:4851   */\n      dup7\n        /* \"#utility.yul\":4835:4841   */\n      dup3\n        /* \"#utility.yul\":4824:4833   */\n      dup8\n        /* \"#utility.yul\":4820:4842   */\n      add\n        /* \"#utility.yul\":4799:4852   */\n      tag_316\n      jump\t// in\n    tag_401:\n        /* \"#utility.yul\":4789:4852   */\n      swap4\n      pop\n        /* \"#utility.yul\":4745:4862   */\n      pop\n        /* \"#utility.yul\":4901:4903   */\n      0x20\n        /* \"#utility.yul\":4927:4980   */\n      tag_402\n        /* \"#utility.yul\":4972:4979   */\n      dup7\n        /* \"#utility.yul\":4963:4969   */\n      dup3\n        /* \"#utility.yul\":4952:4961   */\n      dup8\n        /* \"#utility.yul\":4948:4970   */\n      add\n        /* \"#utility.yul\":4927:4980   */\n      tag_316\n      jump\t// in\n    tag_402:\n        /* \"#utility.yul\":4917:4980   */\n      swap3\n      pop\n        /* \"#utility.yul\":4872:4990   */\n      pop\n        /* \"#utility.yul\":5029:5031   */\n      0x40\n        /* \"#utility.yul\":5055:5108   */\n      tag_403\n        /* \"#utility.yul\":5100:5107   */\n      dup7\n        /* \"#utility.yul\":5091:5097   */\n      dup3\n        /* \"#utility.yul\":5080:5089   */\n      dup8\n        /* \"#utility.yul\":5076:5098   */\n      add\n        /* \"#utility.yul\":5055:5108   */\n      tag_319\n      jump\t// in\n    tag_403:\n        /* \"#utility.yul\":5045:5108   */\n      swap2\n      pop\n        /* \"#utility.yul\":5000:5118   */\n      pop\n        /* \"#utility.yul\":4506:5125   */\n      swap3\n      pop\n      swap3\n      pop\n      swap3\n      jump\t// out\n        /* \"#utility.yul\":5131:5460   */\n    tag_63:\n        /* \"#utility.yul\":5190:5196   */\n      0x00\n        /* \"#utility.yul\":5239:5241   */\n      0x20\n        /* \"#utility.yul\":5227:5236   */\n      dup3\n        /* \"#utility.yul\":5218:5225   */\n      dup5\n        /* \"#utility.yul\":5214:5237   */\n      sub\n        /* \"#utility.yul\":5210:5242   */\n      slt\n        /* \"#utility.yul\":5207:5326   */\n      iszero\n      tag_405\n      jumpi\n        /* \"#utility.yul\":5245:5324   */\n      tag_406\n      tag_311\n      jump\t// in\n    tag_406:\n        /* \"#utility.yul\":5207:5326   */\n    tag_405:\n        /* \"#utility.yul\":5365:5366   */\n      0x00\n        /* \"#utility.yul\":5390:5443   */\n      tag_407\n        /* \"#utility.yul\":5435:5442   */\n      dup5\n        /* \"#utility.yul\":5426:5432   */\n      dup3\n        /* \"#utility.yul\":5415:5424   */\n      dup6\n        /* \"#utility.yul\":5411:5433   */\n      add\n        /* \"#utility.yul\":5390:5443   */\n      tag_319\n      jump\t// in\n    tag_407:\n        /* \"#utility.yul\":5380:5443   */\n      swap2\n      pop\n        /* \"#utility.yul\":5336:5453   */\n      pop\n        /* \"#utility.yul\":5131:5460   */\n      swap3\n      swap2\n      pop\n      pop\n      jump\t// out\n        /* \"#utility.yul\":5466:5552   */\n    tag_323:\n        /* \"#utility.yul\":5501:5508   */\n      0x00\n        /* \"#utility.yul\":5541:5545   */\n      0xff\n        /* \"#utility.yul\":5534:5539   */\n      dup3\n        /* \"#utility.yul\":5530:5546   */\n      and\n        /* \"#utility.yul\":5519:5546   */\n      swap1\n      pop\n        /* \"#utility.yul\":5466:5552   */\n      swap2\n      swap1\n      pop\n      jump\t// out\n        /* \"#utility.yul\":5558:5670   */\n    tag_324:\n        /* \"#utility.yul\":5641:5663   */\n      tag_410\n        /* \"#utility.yul\":5657:5662   */\n      dup2\n        /* \"#utility.yul\":5641:5663   */\n      tag_323\n      jump\t// in\n    tag_410:\n        /* \"#utility.yul\":5636:5639   */\n      dup3\n        /* \"#utility.yul\":5629:5664   */\n      mstore\n        /* \"#utility.yul\":5558:5670   */\n      pop\n      pop\n      jump\t// out\n        /* \"#utility.yul\":5676:5890   */\n    tag_69:\n        /* \"#utility.yul\":5765:5769   */\n      0x00\n        /* \"#utility.yul\":5803:5805   */\n      0x20\n        /* \"#utility.yul\":5792:5801   */\n      dup3\n        /* \"#utility.yul\":5788:5806   */\n      add\n        /* \"#utility.yul\":5780:5806   */\n      swap1\n      pop\n        /* \"#utility.yul\":5816:5883   */\n      tag_412\n        /* \"#utility.yul\":5880:5881   */\n      0x00\n        /* \"#utility.yul\":5869:5878   */\n      dup4\n        /* \"#utility.yul\":5865:5882   */\n      add\n        /* \"#utility.yul\":5856:5862   */\n      dup5\n        /* \"#utility.yul\":5816:5883   */\n      tag_324\n      jump\t// in\n    tag_412:\n        /* \"#utility.yul\":5676:5890   */\n      swap3\n      swap2\n      pop\n      pop\n      jump\t// out\n        /* \"#utility.yul\":5896:6370   */\n    tag_118:\n        /* \"#utility.yul\":5964:5970   */\n      0x00\n        /* \"#utility.yul\":5972:5978   */\n      dup1\n        /* \"#utility.yul\":6021:6023   */\n      0x40\n        /* \"#utility.yul\":6009:6018   */\n      dup4\n        /* \"#utility.yul\":6000:6007   */\n      dup6\n        /* \"#utility.yul\":5996:6019   */\n      sub\n        /* \"#utility.yul\":5992:6024   */\n      slt\n        /* \"#utility.yul\":5989:6108   */\n      iszero\n      tag_414\n      jumpi\n        /* \"#utility.yul\":6027:6106   */\n      tag_415\n      tag_311\n      jump\t// in\n    tag_415:\n        /* \"#utility.yul\":5989:6108   */\n    tag_414:\n        /* \"#utility.yul\":6147:6148   */\n      0x00\n        /* \"#utility.yul\":6172:6225   */\n      tag_416\n        /* \"#utility.yul\":6217:6224   */\n      dup6\n        /* \"#utility.yul\":6208:6214   */\n      dup3\n        /* \"#utility.yul\":6197:6206   */\n      dup7\n        /* \"#utility.yul\":6193:6215   */\n      add\n        /* \"#utility.yul\":6172:6225   */\n      tag_316\n      jump\t// in\n    tag_416:\n        /* \"#utility.yul\":6162:6225   */\n      swap3\n      pop\n        /* \"#utility.yul\":6118:6235   */\n      pop\n        /* \"#utility.yul\":6274:6276   */\n      0x20\n        /* \"#utility.yul\":6300:6353   */\n      tag_417\n        /* \"#utility.yul\":6345:6352   */\n      dup6\n        /* \"#utility.yul\":6336:6342   */\n      dup3\n        /* \"#utility.yul\":6325:6334   */\n      dup7\n        /* \"#utility.yul\":6321:6343   */\n      add\n        /* \"#utility.yul\":6300:6353   */\n      tag_316\n      jump\t// in\n    tag_417:\n        /* \"#utility.yul\":6290:6353   */\n      swap2\n      pop\n        /* \"#utility.yul\":6245:6363   */\n      pop\n        /* \"#utility.yul\":5896:6370   */\n      swap3\n      pop\n      swap3\n      swap1\n      pop\n      jump\t// out\n        /* \"#utility.yul\":6376:6556   */\n    tag_325:\n        /* \"#utility.yul\":6424:6501   */\n      0x4e487b7100000000000000000000000000000000000000000000000000000000\n        /* \"#utility.yul\":6421:6422   */\n      0x00\n        /* \"#utility.yul\":6414:6502   */\n      mstore\n        /* \"#utility.yul\":6521:6525   */\n      0x22\n        /* \"#utility.yul\":6518:6519   */\n      0x04\n        /* \"#utility.yul\":6511:6526   */\n      mstore\n        /* \"#utility.yul\":6545:6549   */\n      0x24\n        /* \"#utility.yul\":6542:6543   */\n      0x00\n        /* \"#utility.yul\":6535:6550   */\n      revert\n        /* \"#utility.yul\":6562:6882   */\n    tag_123:\n        /* \"#utility.yul\":6606:6612   */\n      0x00\n        /* \"#utility.yul\":6643:6644   */\n      0x02\n        /* \"#utility.yul\":6637:6641   */\n      dup3\n        /* \"#utility.yul\":6633:6645   */\n      div\n        /* \"#utility.yul\":6623:6645   */\n      swap1\n      pop\n        /* \"#utility.yul\":6690:6691   */\n      0x01\n        /* \"#utility.yul\":6684:6688   */\n      dup3\n        /* \"#utility.yul\":6680:6692   */\n      and\n        /* \"#utility.yul\":6711:6729   */\n      dup1\n        /* \"#utility.yul\":6701:6782   */\n      tag_420\n      jumpi\n        /* \"#utility.yul\":6767:6771   */\n      0x7f\n        /* \"#utility.yul\":6759:6765   */\n      dup3\n        /* \"#utility.yul\":6755:6772   */\n      and\n        /* \"#utility.yul\":6745:6772   */\n      swap2\n      pop\n        /* \"#utility.yul\":6701:6782   */\n    tag_420:\n        /* \"#utility.yul\":6829:6831   */\n      0x20\n        /* \"#utility.yul\":6821:6827   */\n      dup3\n        /* \"#utility.yul\":6818:6832   */\n      lt\n        /* \"#utility.yul\":6798:6816   */\n      dup2\n        /* \"#utility.yul\":6795:6833   */\n      sub\n        /* \"#utility.yul\":6792:6876   */\n      tag_421\n      jumpi\n        /* \"#utility.yul\":6848:6866   */\n      tag_422\n      tag_325\n      jump\t// in\n    tag_422:\n        /* \"#utility.yul\":6792:6876   */\n    tag_421:\n        /* \"#utility.yul\":6613:6882   */\n      pop\n        /* \"#utility.yul\":6562:6882   */\n      swap2\n      swap1\n      pop\n      jump\t// out\n        /* \"#utility.yul\":6888:7132   */\n    tag_326:\n        /* \"#utility.yul\":7028:7062   */\n      0x596f75206d757374206e6f742068617665206d696e74656420746f6b656e7320\n        /* \"#utility.yul\":7024:7025   */\n      0x00\n        /* \"#utility.yul\":7016:7022   */\n      dup3\n        /* \"#utility.yul\":7012:7026   */\n      add\n        /* \"#utility.yul\":7005:7063   */\n      mstore\n        /* \"#utility.yul\":7097:7124   */\n      0x746f207175657279207468697320696e666f726d6174696f6e00000000000000\n        /* \"#utility.yul\":7092:7094   */\n      0x20\n        /* \"#utility.yul\":7084:7090   */\n      dup3\n        /* \"#utility.yul\":7080:7095   */\n      add\n        /* \"#utility.yul\":7073:7125   */\n      mstore\n        /* \"#utility.yul\":6888:7132   */\n      pop\n      jump\t// out\n        /* \"#utility.yul\":7138:7504   */\n    tag_327:\n        /* \"#utility.yul\":7280:7283   */\n      0x00\n        /* \"#utility.yul\":7301:7368   */\n      tag_425\n        /* \"#utility.yul\":7365:7367   */\n      0x39\n        /* \"#utility.yul\":7360:7363   */\n      dup4\n        /* \"#utility.yul\":7301:7368   */\n      tag_306\n      jump\t// in\n    tag_425:\n        /* \"#utility.yul\":7294:7368   */\n      swap2\n      pop\n        /* \"#utility.yul\":7377:7470   */\n      tag_426\n        /* \"#utility.yul\":7466:7469   */\n      dup3\n        /* \"#utility.yul\":7377:7470   */\n      tag_326\n      jump\t// in\n    tag_426:\n        /* \"#utility.yul\":7495:7497   */\n      0x40\n        /* \"#utility.yul\":7490:7493   */\n      dup3\n        /* \"#utility.yul\":7486:7498   */\n      add\n        /* \"#utility.yul\":7479:7498   */\n      swap1\n      pop\n        /* \"#utility.yul\":7138:7504   */\n      swap2\n      swap1\n      pop\n      jump\t// out\n        /* \"#utility.yul\":7510:7929   */\n    tag_137:\n        /* \"#utility.yul\":7676:7680   */\n      0x00\n        /* \"#utility.yul\":7714:7716   */\n      0x20\n        /* \"#utility.yul\":7703:7712   */\n      dup3\n        /* \"#utility.yul\":7699:7717   */\n      add\n        /* \"#utility.yul\":7691:7717   */\n      swap1\n      pop\n        /* \"#utility.yul\":7763:7772   */\n      dup2\n        /* \"#utility.yul\":7757:7761   */\n      dup2\n        /* \"#utility.yul\":7753:7773   */\n      sub\n        /* \"#utility.yul\":7749:7750   */\n      0x00\n        /* \"#utility.yul\":7738:7747   */\n      dup4\n        /* \"#utility.yul\":7734:7751   */\n      add\n        /* \"#utility.yul\":7727:7774   */\n      mstore\n        /* \"#utility.yul\":7791:7922   */\n      tag_428\n        /* \"#utility.yul\":7917:7921   */\n      dup2\n        /* \"#utility.yul\":7791:7922   */\n      tag_327\n      jump\t// in\n    tag_428:\n        /* \"#utility.yul\":7783:7922   */\n      swap1\n      pop\n        /* \"#utility.yul\":7510:7929   */\n      swap2\n      swap1\n      pop\n      jump\t// out\n        /* \"#utility.yul\":7935:8115   */\n    tag_328:\n        /* \"#utility.yul\":7983:8060   */\n      0x4e487b7100000000000000000000000000000000000000000000000000000000\n        /* \"#utility.yul\":7980:7981   */\n      0x00\n        /* \"#utility.yul\":7973:8061   */\n      mstore\n        /* \"#utility.yul\":8080:8084   */\n      0x11\n        /* \"#utility.yul\":8077:8078   */\n      0x04\n        /* \"#utility.yul\":8070:8085   */\n      mstore\n        /* \"#utility.yul\":8104:8108   */\n      0x24\n        /* \"#utility.yul\":8101:8102   */\n      0x00\n        /* \"#utility.yul\":8094:8109   */\n      revert\n        /* \"#utility.yul\":8121:8531   */\n    tag_140:\n        /* \"#utility.yul\":8161:8168   */\n      0x00\n        /* \"#utility.yul\":8184:8204   */\n      tag_431\n        /* \"#utility.yul\":8202:8203   */\n      dup3\n        /* \"#utility.yul\":8184:8204   */\n      tag_317\n      jump\t// in\n    tag_431:\n        /* \"#utility.yul\":8179:8204   */\n      swap2\n      pop\n        /* \"#utility.yul\":8218:8238   */\n      tag_432\n        /* \"#utility.yul\":8236:8237   */\n      dup4\n        /* \"#utility.yul\":8218:8238   */\n      tag_317\n      jump\t// in\n    tag_432:\n        /* \"#utility.yul\":8213:8238   */\n      swap3\n      pop\n        /* \"#utility.yul\":8273:8274   */\n      dup3\n        /* \"#utility.yul\":8270:8271   */\n      dup3\n        /* \"#utility.yul\":8266:8275   */\n      mul\n        /* \"#utility.yul\":8295:8325   */\n      tag_433\n        /* \"#utility.yul\":8313:8324   */\n      dup2\n        /* \"#utility.yul\":8295:8325   */\n      tag_317\n      jump\t// in\n    tag_433:\n        /* \"#utility.yul\":8284:8325   */\n      swap2\n      pop\n        /* \"#utility.yul\":8474:8475   */\n      dup3\n        /* \"#utility.yul\":8465:8472   */\n      dup3\n        /* \"#utility.yul\":8461:8476   */\n      div\n        /* \"#utility.yul\":8458:8459   */\n      dup5\n        /* \"#utility.yul\":8455:8477   */\n      eq\n        /* \"#utility.yul\":8435:8436   */\n      dup4\n        /* \"#utility.yul\":8428:8437   */\n      iszero\n        /* \"#utility.yul\":8408:8491   */\n      or\n        /* \"#utility.yul\":8385:8524   */\n      tag_434\n      jumpi\n        /* \"#utility.yul\":8504:8522   */\n      tag_435\n      tag_328\n      jump\t// in\n    tag_435:\n        /* \"#utility.yul\":8385:8524   */\n    tag_434:\n        /* \"#utility.yul\":8169:8531   */\n      pop\n        /* \"#utility.yul\":8121:8531   */\n      swap3\n      swap2\n      pop\n      pop\n      jump\t// out\n        /* \"#utility.yul\":8537:8685   */\n    tag_329:\n        /* \"#utility.yul\":8639:8650   */\n      0x00\n        /* \"#utility.yul\":8676:8679   */\n      dup2\n        /* \"#utility.yul\":8661:8679   */\n      swap1\n      pop\n        /* \"#utility.yul\":8537:8685   */\n      swap3\n      swap2\n      pop\n      pop\n      jump\t// out\n        /* \"#utility.yul\":8691:8912   */\n    tag_330:\n        /* \"#utility.yul\":8831:8865   */\n      0x496e73756666696369656e7420636f6c6c61746572616c3a2052657175697265\n        /* \"#utility.yul\":8827:8828   */\n      0x00\n        /* \"#utility.yul\":8819:8825   */\n      dup3\n        /* \"#utility.yul\":8815:8829   */\n      add\n        /* \"#utility.yul\":8808:8866   */\n      mstore\n        /* \"#utility.yul\":8900:8904   */\n      0x6420000000000000000000000000000000000000000000000000000000000000\n        /* \"#utility.yul\":8895:8897   */\n      0x20\n        /* \"#utility.yul\":8887:8893   */\n      dup3\n        /* \"#utility.yul\":8883:8898   */\n      add\n        /* \"#utility.yul\":8876:8905   */\n      mstore\n        /* \"#utility.yul\":8691:8912   */\n      pop\n      jump\t// out\n        /* \"#utility.yul\":8918:9320   */\n    tag_331:\n        /* \"#utility.yul\":9078:9081   */\n      0x00\n        /* \"#utility.yul\":9099:9184   */\n      tag_439\n        /* \"#utility.yul\":9181:9183   */\n      0x22\n        /* \"#utility.yul\":9176:9179   */\n      dup4\n        /* \"#utility.yul\":9099:9184   */\n      tag_329\n      jump\t// in\n    tag_439:\n        /* \"#utility.yul\":9092:9184   */\n      swap2\n      pop\n        /* \"#utility.yul\":9193:9286   */\n      tag_440\n        /* \"#utility.yul\":9282:9285   */\n      dup3\n        /* \"#utility.yul\":9193:9286   */\n      tag_330\n      jump\t// in\n    tag_440:\n        /* \"#utility.yul\":9311:9313   */\n      0x22\n        /* \"#utility.yul\":9306:9309   */\n      dup3\n        /* \"#utility.yul\":9302:9314   */\n      add\n        /* \"#utility.yul\":9295:9314   */\n      swap1\n      pop\n        /* \"#utility.yul\":8918:9320   */\n      swap2\n      swap1\n      pop\n      jump\t// out\n        /* \"#utility.yul\":9326:9716   */\n    tag_332:\n        /* \"#utility.yul\":9432:9435   */\n      0x00\n        /* \"#utility.yul\":9460:9499   */\n      tag_442\n        /* \"#utility.yul\":9493:9498   */\n      dup3\n        /* \"#utility.yul\":9460:9499   */\n      tag_305\n      jump\t// in\n    tag_442:\n        /* \"#utility.yul\":9515:9604   */\n      tag_443\n        /* \"#utility.yul\":9597:9603   */\n      dup2\n        /* \"#utility.yul\":9592:9595   */\n      dup6\n        /* \"#utility.yul\":9515:9604   */\n      tag_329\n      jump\t// in\n    tag_443:\n        /* \"#utility.yul\":9508:9604   */\n      swap4\n      pop\n        /* \"#utility.yul\":9613:9678   */\n      tag_444\n        /* \"#utility.yul\":9671:9677   */\n      dup2\n        /* \"#utility.yul\":9666:9669   */\n      dup6\n        /* \"#utility.yul\":9659:9663   */\n      0x20\n        /* \"#utility.yul\":9652:9657   */\n      dup7\n        /* \"#utility.yul\":9648:9664   */\n      add\n        /* \"#utility.yul\":9613:9678   */\n      tag_307\n      jump\t// in\n    tag_444:\n        /* \"#utility.yul\":9703:9709   */\n      dup1\n        /* \"#utility.yul\":9698:9701   */\n      dup5\n        /* \"#utility.yul\":9694:9710   */\n      add\n        /* \"#utility.yul\":9687:9710   */\n      swap2\n      pop\n        /* \"#utility.yul\":9436:9716   */\n      pop\n        /* \"#utility.yul\":9326:9716   */\n      swap3\n      swap2\n      pop\n      pop\n      jump\t// out\n        /* \"#utility.yul\":9722:9891   */\n    tag_333:\n        /* \"#utility.yul\":9862:9883   */\n      0x207765692c206275742070726f76696465642000000000000000000000000000\n        /* \"#utility.yul\":9858:9859   */\n      0x00\n        /* \"#utility.yul\":9850:9856   */\n      dup3\n        /* \"#utility.yul\":9846:9860   */\n      add\n        /* \"#utility.yul\":9839:9884   */\n      mstore\n        /* \"#utility.yul\":9722:9891   */\n      pop\n      jump\t// out\n        /* \"#utility.yul\":9897:10299   */\n    tag_334:\n        /* \"#utility.yul\":10057:10060   */\n      0x00\n        /* \"#utility.yul\":10078:10163   */\n      tag_447\n        /* \"#utility.yul\":10160:10162   */\n      0x13\n        /* \"#utility.yul\":10155:10158   */\n      dup4\n        /* \"#utility.yul\":10078:10163   */\n      tag_329\n      jump\t// in\n    tag_447:\n        /* \"#utility.yul\":10071:10163   */\n      swap2\n      pop\n        /* \"#utility.yul\":10172:10265   */\n      tag_448\n        /* \"#utility.yul\":10261:10264   */\n      dup3\n        /* \"#utility.yul\":10172:10265   */\n      tag_333\n      jump\t// in\n    tag_448:\n        /* \"#utility.yul\":10290:10292   */\n      0x13\n        /* \"#utility.yul\":10285:10288   */\n      dup3\n        /* \"#utility.yul\":10281:10293   */\n      add\n        /* \"#utility.yul\":10274:10293   */\n      swap1\n      pop\n        /* \"#utility.yul\":9897:10299   */\n      swap2\n      swap1\n      pop\n      jump\t// out\n        /* \"#utility.yul\":10305:10460   */\n    tag_335:\n        /* \"#utility.yul\":10445:10452   */\n      0x207765692e000000000000000000000000000000000000000000000000000000\n        /* \"#utility.yul\":10441:10442   */\n      0x00\n        /* \"#utility.yul\":10433:10439   */\n      dup3\n        /* \"#utility.yul\":10429:10443   */\n      add\n        /* \"#utility.yul\":10422:10453   */\n      mstore\n        /* \"#utility.yul\":10305:10460   */\n      pop\n      jump\t// out\n        /* \"#utility.yul\":10466:10866   */\n    tag_336:\n        /* \"#utility.yul\":10626:10629   */\n      0x00\n        /* \"#utility.yul\":10647:10731   */\n      tag_451\n        /* \"#utility.yul\":10729:10730   */\n      0x05\n        /* \"#utility.yul\":10724:10727   */\n      dup4\n        /* \"#utility.yul\":10647:10731   */\n      tag_329\n      jump\t// in\n    tag_451:\n        /* \"#utility.yul\":10640:10731   */\n      swap2\n      pop\n        /* \"#utility.yul\":10740:10833   */\n      tag_452\n        /* \"#utility.yul\":10829:10832   */\n      dup3\n        /* \"#utility.yul\":10740:10833   */\n      tag_335\n      jump\t// in\n    tag_452:\n        /* \"#utility.yul\":10858:10859   */\n      0x05\n        /* \"#utility.yul\":10853:10856   */\n      dup3\n        /* \"#utility.yul\":10849:10860   */\n      add\n        /* \"#utility.yul\":10842:10860   */\n      swap1\n      pop\n        /* \"#utility.yul\":10466:10866   */\n      swap2\n      swap1\n      pop\n      jump\t// out\n        /* \"#utility.yul\":10872:12105   */\n    tag_145:\n        /* \"#utility.yul\":11355:11358   */\n      0x00\n        /* \"#utility.yul\":11377:11525   */\n      tag_454\n        /* \"#utility.yul\":11521:11524   */\n      dup3\n        /* \"#utility.yul\":11377:11525   */\n      tag_331\n      jump\t// in\n    tag_454:\n        /* \"#utility.yul\":11370:11525   */\n      swap2\n      pop\n        /* \"#utility.yul\":11542:11637   */\n      tag_455\n        /* \"#utility.yul\":11633:11636   */\n      dup3\n        /* \"#utility.yul\":11624:11630   */\n      dup6\n        /* \"#utility.yul\":11542:11637   */\n      tag_332\n      jump\t// in\n    tag_455:\n        /* \"#utility.yul\":11535:11637   */\n      swap2\n      pop\n        /* \"#utility.yul\":11654:11802   */\n      tag_456\n        /* \"#utility.yul\":11798:11801   */\n      dup3\n        /* \"#utility.yul\":11654:11802   */\n      tag_334\n      jump\t// in\n    tag_456:\n        /* \"#utility.yul\":11647:11802   */\n      swap2\n      pop\n        /* \"#utility.yul\":11819:11914   */\n      tag_457\n        /* \"#utility.yul\":11910:11913   */\n      dup3\n        /* \"#utility.yul\":11901:11907   */\n      dup5\n        /* \"#utility.yul\":11819:11914   */\n      tag_332\n      jump\t// in\n    tag_457:\n        /* \"#utility.yul\":11812:11914   */\n      swap2\n      pop\n        /* \"#utility.yul\":11931:12079   */\n      tag_458\n        /* \"#utility.yul\":12075:12078   */\n      dup3\n        /* \"#utility.yul\":11931:12079   */\n      tag_336\n      jump\t// in\n    tag_458:\n        /* \"#utility.yul\":11924:12079   */\n      swap2\n      pop\n        /* \"#utility.yul\":12096:12099   */\n      dup2\n        /* \"#utility.yul\":12089:12099   */\n      swap1\n      pop\n        /* \"#utility.yul\":10872:12105   */\n      swap4\n      swap3\n      pop\n      pop\n      pop\n      jump\t// out\n        /* \"#utility.yul\":12111:12305   */\n    tag_149:\n        /* \"#utility.yul\":12151:12155   */\n      0x00\n        /* \"#utility.yul\":12171:12191   */\n      tag_460\n        /* \"#utility.yul\":12189:12190   */\n      dup3\n        /* \"#utility.yul\":12171:12191   */\n      tag_317\n      jump\t// in\n    tag_460:\n        /* \"#utility.yul\":12166:12191   */\n      swap2\n      pop\n        /* \"#utility.yul\":12205:12225   */\n      tag_461\n        /* \"#utility.yul\":12223:12224   */\n      dup4\n        /* \"#utility.yul\":12205:12225   */\n      tag_317\n      jump\t// in\n    tag_461:\n        /* \"#utility.yul\":12200:12225   */\n      swap3\n      pop\n        /* \"#utility.yul\":12249:12250   */\n      dup3\n        /* \"#utility.yul\":12246:12247   */\n      dup3\n        /* \"#utility.yul\":12242:12251   */\n      sub\n        /* \"#utility.yul\":12234:12251   */\n      swap1\n      pop\n        /* \"#utility.yul\":12273:12274   */\n      dup2\n        /* \"#utility.yul\":12267:12271   */\n      dup2\n        /* \"#utility.yul\":12264:12275   */\n      gt\n        /* \"#utility.yul\":12261:12298   */\n      iszero\n      tag_462\n      jumpi\n        /* \"#utility.yul\":12278:12296   */\n      tag_463\n      tag_328\n      jump\t// in\n    tag_463:\n        /* \"#utility.yul\":12261:12298   */\n    tag_462:\n        /* \"#utility.yul\":12111:12305   */\n      swap3\n      swap2\n      pop\n      pop\n      jump\t// out\n        /* \"#utility.yul\":12311:12502   */\n    tag_157:\n        /* \"#utility.yul\":12351:12354   */\n      0x00\n        /* \"#utility.yul\":12370:12390   */\n      tag_465\n        /* \"#utility.yul\":12388:12389   */\n      dup3\n        /* \"#utility.yul\":12370:12390   */\n      tag_317\n      jump\t// in\n    tag_465:\n        /* \"#utility.yul\":12365:12390   */\n      swap2\n      pop\n        /* \"#utility.yul\":12404:12424   */\n      tag_466\n        /* \"#utility.yul\":12422:12423   */\n      dup4\n        /* \"#utility.yul\":12404:12424   */\n      tag_317\n      jump\t// in\n    tag_466:\n        /* \"#utility.yul\":12399:12424   */\n      swap3\n      pop\n        /* \"#utility.yul\":12447:12448   */\n      dup3\n        /* \"#utility.yul\":12444:12445   */\n      dup3\n        /* \"#utility.yul\":12440:12449   */\n      add\n        /* \"#utility.yul\":12433:12449   */\n      swap1\n      pop\n        /* \"#utility.yul\":12468:12471   */\n      dup1\n        /* \"#utility.yul\":12465:12466   */\n      dup3\n        /* \"#utility.yul\":12462:12472   */\n      gt\n        /* \"#utility.yul\":12459:12495   */\n      iszero\n      tag_467\n      jumpi\n        /* \"#utility.yul\":12475:12493   */\n      tag_468\n      tag_328\n      jump\t// in\n    tag_468:\n        /* \"#utility.yul\":12459:12495   */\n    tag_467:\n        /* \"#utility.yul\":12311:12502   */\n      swap3\n      swap2\n      pop\n      pop\n      jump\t// out\n        /* \"#utility.yul\":12508:12840   */\n    tag_159:\n        /* \"#utility.yul\":12629:12633   */\n      0x00\n        /* \"#utility.yul\":12667:12669   */\n      0x40\n        /* \"#utility.yul\":12656:12665   */\n      dup3\n        /* \"#utility.yul\":12652:12670   */\n      add\n        /* \"#utility.yul\":12644:12670   */\n      swap1\n      pop\n        /* \"#utility.yul\":12680:12751   */\n      tag_470\n        /* \"#utility.yul\":12748:12749   */\n      0x00\n        /* \"#utility.yul\":12737:12746   */\n      dup4\n        /* \"#utility.yul\":12733:12750   */\n      add\n        /* \"#utility.yul\":12724:12730   */\n      dup6\n        /* \"#utility.yul\":12680:12751   */\n      tag_322\n      jump\t// in\n    tag_470:\n        /* \"#utility.yul\":12761:12833   */\n      tag_471\n        /* \"#utility.yul\":12829:12831   */\n      0x20\n        /* \"#utility.yul\":12818:12827   */\n      dup4\n        /* \"#utility.yul\":12814:12832   */\n      add\n        /* \"#utility.yul\":12805:12811   */\n      dup5\n        /* \"#utility.yul\":12761:12833   */\n      tag_322\n      jump\t// in\n    tag_471:\n        /* \"#utility.yul\":12508:12840   */\n      swap4\n      swap3\n      pop\n      pop\n      pop\n      jump\t// out\n        /* \"#utility.yul\":12846:13086   */\n    tag_337:\n        /* \"#utility.yul\":12986:13020   */\n      0x596f75206d7573742068617665206d696e74656420746f6b656e7320746f2071\n        /* \"#utility.yul\":12982:12983   */\n      0x00\n        /* \"#utility.yul\":12974:12980   */\n      dup3\n        /* \"#utility.yul\":12970:12984   */\n      add\n        /* \"#utility.yul\":12963:13021   */\n      mstore\n        /* \"#utility.yul\":13055:13078   */\n      0x75657279207468697320696e666f726d6174696f6e0000000000000000000000\n        /* \"#utility.yul\":13050:13052   */\n      0x20\n        /* \"#utility.yul\":13042:13048   */\n      dup3\n        /* \"#utility.yul\":13038:13053   */\n      add\n        /* \"#utility.yul\":13031:13079   */\n      mstore\n        /* \"#utility.yul\":12846:13086   */\n      pop\n      jump\t// out\n        /* \"#utility.yul\":13092:13458   */\n    tag_338:\n        /* \"#utility.yul\":13234:13237   */\n      0x00\n        /* \"#utility.yul\":13255:13322   */\n      tag_474\n        /* \"#utility.yul\":13319:13321   */\n      0x35\n        /* \"#utility.yul\":13314:13317   */\n      dup4\n        /* \"#utility.yul\":13255:13322   */\n      tag_306\n      jump\t// in\n    tag_474:\n        /* \"#utility.yul\":13248:13322   */\n      swap2\n      pop\n        /* \"#utility.yul\":13331:13424   */\n      tag_475\n        /* \"#utility.yul\":13420:13423   */\n      dup3\n        /* \"#utility.yul\":13331:13424   */\n      tag_337\n      jump\t// in\n    tag_475:\n        /* \"#utility.yul\":13449:13451   */\n      0x40\n        /* \"#utility.yul\":13444:13447   */\n      dup3\n        /* \"#utility.yul\":13440:13452   */\n      add\n        /* \"#utility.yul\":13433:13452   */\n      swap1\n      pop\n        /* \"#utility.yul\":13092:13458   */\n      swap2\n      swap1\n      pop\n      jump\t// out\n        /* \"#utility.yul\":13464:13883   */\n    tag_169:\n        /* \"#utility.yul\":13630:13634   */\n      0x00\n        /* \"#utility.yul\":13668:13670   */\n      0x20\n        /* \"#utility.yul\":13657:13666   */\n      dup3\n        /* \"#utility.yul\":13653:13671   */\n      add\n        /* \"#utility.yul\":13645:13671   */\n      swap1\n      pop\n        /* \"#utility.yul\":13717:13726   */\n      dup2\n        /* \"#utility.yul\":13711:13715   */\n      dup2\n        /* \"#utility.yul\":13707:13727   */\n      sub\n        /* \"#utility.yul\":13703:13704   */\n      0x00\n        /* \"#utility.yul\":13692:13701   */\n      dup4\n        /* \"#utility.yul\":13688:13705   */\n      add\n        /* \"#utility.yul\":13681:13728   */\n      mstore\n        /* \"#utility.yul\":13745:13876   */\n      tag_477\n        /* \"#utility.yul\":13871:13875   */\n      dup2\n        /* \"#utility.yul\":13745:13876   */\n      tag_338\n      jump\t// in\n    tag_477:\n        /* \"#utility.yul\":13737:13876   */\n      swap1\n      pop\n        /* \"#utility.yul\":13464:13883   */\n      swap2\n      swap1\n      pop\n      jump\t// out\n        /* \"#utility.yul\":13889:14331   */\n    tag_173:\n        /* \"#utility.yul\":14038:14042   */\n      0x00\n        /* \"#utility.yul\":14076:14078   */\n      0x60\n        /* \"#utility.yul\":14065:14074   */\n      dup3\n        /* \"#utility.yul\":14061:14079   */\n      add\n        /* \"#utility.yul\":14053:14079   */\n      swap1\n      pop\n        /* \"#utility.yul\":14089:14160   */\n      tag_479\n        /* \"#utility.yul\":14157:14158   */\n      0x00\n        /* \"#utility.yul\":14146:14155   */\n      dup4\n        /* \"#utility.yul\":14142:14159   */\n      add\n        /* \"#utility.yul\":14133:14139   */\n      dup7\n        /* \"#utility.yul\":14089:14160   */\n      tag_322\n      jump\t// in\n    tag_479:\n        /* \"#utility.yul\":14170:14242   */\n      tag_480\n        /* \"#utility.yul\":14238:14240   */\n      0x20\n        /* \"#utility.yul\":14227:14236   */\n      dup4\n        /* \"#utility.yul\":14223:14241   */\n      add\n        /* \"#utility.yul\":14214:14220   */\n      dup6\n        /* \"#utility.yul\":14170:14242   */\n      tag_322\n      jump\t// in\n    tag_480:\n        /* \"#utility.yul\":14252:14324   */\n      tag_481\n        /* \"#utility.yul\":14320:14322   */\n      0x40\n        /* \"#utility.yul\":14309:14318   */\n      dup4\n        /* \"#utility.yul\":14305:14323   */\n      add\n        /* \"#utility.yul\":14296:14302   */\n      dup5\n        /* \"#utility.yul\":14252:14324   */\n      tag_322\n      jump\t// in\n    tag_481:\n        /* \"#utility.yul\":13889:14331   */\n      swap5\n      swap4\n      pop\n      pop\n      pop\n      pop\n      jump\t// out\n        /* \"#utility.yul\":14337:14557   */\n    tag_339:\n        /* \"#utility.yul\":14477:14511   */\n      0x45524332303a206275726e2066726f6d20746865207a65726f20616464726573\n        /* \"#utility.yul\":14473:14474   */\n      0x00\n        /* \"#utility.yul\":14465:14471   */\n      dup3\n        /* \"#utility.yul\":14461:14475   */\n      add\n        /* \"#utility.yul\":14454:14512   */\n      mstore\n        /* \"#utility.yul\":14546:14549   */\n      0x7300000000000000000000000000000000000000000000000000000000000000\n        /* \"#utility.yul\":14541:14543   */\n      0x20\n        /* \"#utility.yul\":14533:14539   */\n      dup3\n        /* \"#utility.yul\":14529:14544   */\n      add\n        /* \"#utility.yul\":14522:14550   */\n      mstore\n        /* \"#utility.yul\":14337:14557   */\n      pop\n      jump\t// out\n        /* \"#utility.yul\":14563:14929   */\n    tag_340:\n        /* \"#utility.yul\":14705:14708   */\n      0x00\n        /* \"#utility.yul\":14726:14793   */\n      tag_484\n        /* \"#utility.yul\":14790:14792   */\n      0x21\n        /* \"#utility.yul\":14785:14788   */\n      dup4\n        /* \"#utility.yul\":14726:14793   */\n      tag_306\n      jump\t// in\n    tag_484:\n        /* \"#utility.yul\":14719:14793   */\n      swap2\n      pop\n        /* \"#utility.yul\":14802:14895   */\n      tag_485\n        /* \"#utility.yul\":14891:14894   */\n      dup3\n        /* \"#utility.yul\":14802:14895   */\n      tag_339\n      jump\t// in\n    tag_485:\n        /* \"#utility.yul\":14920:14922   */\n      0x40\n        /* \"#utility.yul\":14915:14918   */\n      dup3\n        /* \"#utility.yul\":14911:14923   */\n      add\n        /* \"#utility.yul\":14904:14923   */\n      swap1\n      pop\n        /* \"#utility.yul\":14563:14929   */\n      swap2\n      swap1\n      pop\n      jump\t// out\n        /* \"#utility.yul\":14935:15354   */\n    tag_211:\n        /* \"#utility.yul\":15101:15105   */\n      0x00\n        /* \"#utility.yul\":15139:15141   */\n      0x20\n        /* \"#utility.yul\":15128:15137   */\n      dup3\n        /* \"#utility.yul\":15124:15142   */\n      add\n        /* \"#utility.yul\":15116:15142   */\n      swap1\n      pop\n        /* \"#utility.yul\":15188:15197   */\n      dup2\n        /* \"#utility.yul\":15182:15186   */\n      dup2\n        /* \"#utility.yul\":15178:15198   */\n      sub\n        /* \"#utility.yul\":15174:15175   */\n      0x00\n        /* \"#utility.yul\":15163:15172   */\n      dup4\n        /* \"#utility.yul\":15159:15176   */\n      add\n        /* \"#utility.yul\":15152:15199   */\n      mstore\n        /* \"#utility.yul\":15216:15347   */\n      tag_487\n        /* \"#utility.yul\":15342:15346   */\n      dup2\n        /* \"#utility.yul\":15216:15347   */\n      tag_340\n      jump\t// in\n    tag_487:\n        /* \"#utility.yul\":15208:15347   */\n      swap1\n      pop\n        /* \"#utility.yul\":14935:15354   */\n      swap2\n      swap1\n      pop\n      jump\t// out\n        /* \"#utility.yul\":15360:15581   */\n    tag_341:\n        /* \"#utility.yul\":15500:15534   */\n      0x45524332303a206275726e20616d6f756e7420657863656564732062616c616e\n        /* \"#utility.yul\":15496:15497   */\n      0x00\n        /* \"#utility.yul\":15488:15494   */\n      dup3\n        /* \"#utility.yul\":15484:15498   */\n      add\n        /* \"#utility.yul\":15477:15535   */\n      mstore\n        /* \"#utility.yul\":15569:15573   */\n      0x6365000000000000000000000000000000000000000000000000000000000000\n        /* \"#utility.yul\":15564:15566   */\n      0x20\n        /* \"#utility.yul\":15556:15562   */\n      dup3\n        /* \"#utility.yul\":15552:15567   */\n      add\n        /* \"#utility.yul\":15545:15574   */\n      mstore\n        /* \"#utility.yul\":15360:15581   */\n      pop\n      jump\t// out\n        /* \"#utility.yul\":15587:15953   */\n    tag_342:\n        /* \"#utility.yul\":15729:15732   */\n      0x00\n        /* \"#utility.yul\":15750:15817   */\n      tag_490\n        /* \"#utility.yul\":15814:15816   */\n      0x22\n        /* \"#utility.yul\":15809:15812   */\n      dup4\n        /* \"#utility.yul\":15750:15817   */\n      tag_306\n      jump\t// in\n    tag_490:\n        /* \"#utility.yul\":15743:15817   */\n      swap2\n      pop\n        /* \"#utility.yul\":15826:15919   */\n      tag_491\n        /* \"#utility.yul\":15915:15918   */\n      dup3\n        /* \"#utility.yul\":15826:15919   */\n      tag_341\n      jump\t// in\n    tag_491:\n        /* \"#utility.yul\":15944:15946   */\n      0x40\n        /* \"#utility.yul\":15939:15942   */\n      dup3\n        /* \"#utility.yul\":15935:15947   */\n      add\n        /* \"#utility.yul\":15928:15947   */\n      swap1\n      pop\n        /* \"#utility.yul\":15587:15953   */\n      swap2\n      swap1\n      pop\n      jump\t// out\n        /* \"#utility.yul\":15959:16378   */\n    tag_215:\n        /* \"#utility.yul\":16125:16129   */\n      0x00\n        /* \"#utility.yul\":16163:16165   */\n      0x20\n        /* \"#utility.yul\":16152:16161   */\n      dup3\n        /* \"#utility.yul\":16148:16166   */\n      add\n        /* \"#utility.yul\":16140:16166   */\n      swap1\n      pop\n        /* \"#utility.yul\":16212:16221   */\n      dup2\n        /* \"#utility.yul\":16206:16210   */\n      dup2\n        /* \"#utility.yul\":16202:16222   */\n      sub\n        /* \"#utility.yul\":16198:16199   */\n      0x00\n        /* \"#utility.yul\":16187:16196   */\n      dup4\n        /* \"#utility.yul\":16183:16200   */\n      add\n        /* \"#utility.yul\":16176:16223   */\n      mstore\n        /* \"#utility.yul\":16240:16371   */\n      tag_493\n        /* \"#utility.yul\":16366:16370   */\n      dup2\n        /* \"#utility.yul\":16240:16371   */\n      tag_342\n      jump\t// in\n    tag_493:\n        /* \"#utility.yul\":16232:16371   */\n      swap1\n      pop\n        /* \"#utility.yul\":15959:16378   */\n      swap2\n      swap1\n      pop\n      jump\t// out\n        /* \"#utility.yul\":16384:16566   */\n    tag_343:\n        /* \"#utility.yul\":16524:16558   */\n      0x496e73756666696369656e7420636f6c6c61746572616c2062616c616e63652e\n        /* \"#utility.yul\":16520:16521   */\n      0x00\n        /* \"#utility.yul\":16512:16518   */\n      dup3\n        /* \"#utility.yul\":16508:16522   */\n      add\n        /* \"#utility.yul\":16501:16559   */\n      mstore\n        /* \"#utility.yul\":16384:16566   */\n      pop\n      jump\t// out\n        /* \"#utility.yul\":16572:16938   */\n    tag_344:\n        /* \"#utility.yul\":16714:16717   */\n      0x00\n        /* \"#utility.yul\":16735:16802   */\n      tag_496\n        /* \"#utility.yul\":16799:16801   */\n      0x20\n        /* \"#utility.yul\":16794:16797   */\n      dup4\n        /* \"#utility.yul\":16735:16802   */\n      tag_306\n      jump\t// in\n    tag_496:\n        /* \"#utility.yul\":16728:16802   */\n      swap2\n      pop\n        /* \"#utility.yul\":16811:16904   */\n      tag_497\n        /* \"#utility.yul\":16900:16903   */\n      dup3\n        /* \"#utility.yul\":16811:16904   */\n      tag_343\n      jump\t// in\n    tag_497:\n        /* \"#utility.yul\":16929:16931   */\n      0x20\n        /* \"#utility.yul\":16924:16927   */\n      dup3\n        /* \"#utility.yul\":16920:16932   */\n      add\n        /* \"#utility.yul\":16913:16932   */\n      swap1\n      pop\n        /* \"#utility.yul\":16572:16938   */\n      swap2\n      swap1\n      pop\n      jump\t// out\n        /* \"#utility.yul\":16944:17363   */\n    tag_224:\n        /* \"#utility.yul\":17110:17114   */\n      0x00\n        /* \"#utility.yul\":17148:17150   */\n      0x20\n        /* \"#utility.yul\":17137:17146   */\n      dup3\n        /* \"#utility.yul\":17133:17151   */\n      add\n        /* \"#utility.yul\":17125:17151   */\n      swap1\n      pop\n        /* \"#utility.yul\":17197:17206   */\n      dup2\n        /* \"#utility.yul\":17191:17195   */\n      dup2\n        /* \"#utility.yul\":17187:17207   */\n      sub\n        /* \"#utility.yul\":17183:17184   */\n      0x00\n        /* \"#utility.yul\":17172:17181   */\n      dup4\n        /* \"#utility.yul\":17168:17185   */\n      add\n        /* \"#utility.yul\":17161:17208   */\n      mstore\n        /* \"#utility.yul\":17225:17356   */\n      tag_499\n        /* \"#utility.yul\":17351:17355   */\n      dup2\n        /* \"#utility.yul\":17225:17356   */\n      tag_344\n      jump\t// in\n    tag_499:\n        /* \"#utility.yul\":17217:17356   */\n      swap1\n      pop\n        /* \"#utility.yul\":16944:17363   */\n      swap2\n      swap1\n      pop\n      jump\t// out\n        /* \"#utility.yul\":17369:17549   */\n    tag_238:\n        /* \"#utility.yul\":17417:17494   */\n      0x4e487b7100000000000000000000000000000000000000000000000000000000\n        /* \"#utility.yul\":17414:17415   */\n      0x00\n        /* \"#utility.yul\":17407:17495   */\n      mstore\n        /* \"#utility.yul\":17514:17518   */\n      0x41\n        /* \"#utility.yul\":17511:17512   */\n      0x04\n        /* \"#utility.yul\":17504:17519   */\n      mstore\n        /* \"#utility.yul\":17538:17542   */\n      0x24\n        /* \"#utility.yul\":17535:17536   */\n      0x00\n        /* \"#utility.yul\":17528:17543   */\n      revert\n        /* \"#utility.yul\":17555:17735   */\n    tag_244:\n        /* \"#utility.yul\":17603:17680   */\n      0x4e487b7100000000000000000000000000000000000000000000000000000000\n        /* \"#utility.yul\":17600:17601   */\n      0x00\n        /* \"#utility.yul\":17593:17681   */\n      mstore\n        /* \"#utility.yul\":17700:17704   */\n      0x12\n        /* \"#utility.yul\":17697:17698   */\n      0x04\n        /* \"#utility.yul\":17690:17705   */\n      mstore\n        /* \"#utility.yul\":17724:17728   */\n      0x24\n        /* \"#utility.yul\":17721:17722   */\n      0x00\n        /* \"#utility.yul\":17714:17729   */\n      revert\n        /* \"#utility.yul\":17741:17859   */\n    tag_345:\n        /* \"#utility.yul\":17828:17852   */\n      tag_503\n        /* \"#utility.yul\":17846:17851   */\n      dup2\n        /* \"#utility.yul\":17828:17852   */\n      tag_314\n      jump\t// in\n    tag_503:\n        /* \"#utility.yul\":17823:17826   */\n      dup3\n        /* \"#utility.yul\":17816:17853   */\n      mstore\n        /* \"#utility.yul\":17741:17859   */\n      pop\n      pop\n      jump\t// out\n        /* \"#utility.yul\":17865:18087   */\n    tag_249:\n        /* \"#utility.yul\":17958:17962   */\n      0x00\n        /* \"#utility.yul\":17996:17998   */\n      0x20\n        /* \"#utility.yul\":17985:17994   */\n      dup3\n        /* \"#utility.yul\":17981:17999   */\n      add\n        /* \"#utility.yul\":17973:17999   */\n      swap1\n      pop\n        /* \"#utility.yul\":18009:18080   */\n      tag_505\n        /* \"#utility.yul\":18077:18078   */\n      0x00\n        /* \"#utility.yul\":18066:18075   */\n      dup4\n        /* \"#utility.yul\":18062:18079   */\n      add\n        /* \"#utility.yul\":18053:18059   */\n      dup5\n        /* \"#utility.yul\":18009:18080   */\n      tag_345\n      jump\t// in\n    tag_505:\n        /* \"#utility.yul\":17865:18087   */\n      swap3\n      swap2\n      pop\n      pop\n      jump\t// out\n        /* \"#utility.yul\":18093:18535   */\n    tag_257:\n        /* \"#utility.yul\":18242:18246   */\n      0x00\n        /* \"#utility.yul\":18280:18282   */\n      0x60\n        /* \"#utility.yul\":18269:18278   */\n      dup3\n        /* \"#utility.yul\":18265:18283   */\n      add\n        /* \"#utility.yul\":18257:18283   */\n      swap1\n      pop\n        /* \"#utility.yul\":18293:18364   */\n      tag_507\n        /* \"#utility.yul\":18361:18362   */\n      0x00\n        /* \"#utility.yul\":18350:18359   */\n      dup4\n        /* \"#utility.yul\":18346:18363   */\n      add\n        /* \"#utility.yul\":18337:18343   */\n      dup7\n        /* \"#utility.yul\":18293:18364   */\n      tag_345\n      jump\t// in\n    tag_507:\n        /* \"#utility.yul\":18374:18446   */\n      tag_508\n        /* \"#utility.yul\":18442:18444   */\n      0x20\n        /* \"#utility.yul\":18431:18440   */\n      dup4\n        /* \"#utility.yul\":18427:18445   */\n      add\n        /* \"#utility.yul\":18418:18424   */\n      dup6\n        /* \"#utility.yul\":18374:18446   */\n      tag_322\n      jump\t// in\n    tag_508:\n        /* \"#utility.yul\":18456:18528   */\n      tag_509\n        /* \"#utility.yul\":18524:18526   */\n      0x40\n        /* \"#utility.yul\":18513:18522   */\n      dup4\n        /* \"#utility.yul\":18509:18527   */\n      add\n        /* \"#utility.yul\":18500:18506   */\n      dup5\n        /* \"#utility.yul\":18456:18528   */\n      tag_322\n      jump\t// in\n    tag_509:\n        /* \"#utility.yul\":18093:18535   */\n      swap5\n      swap4\n      pop\n      pop\n      pop\n      pop\n      jump\t// out\n\n    auxdata: 0xa264697066735822122029587b7a19ef3629b3a386ec9212ed8ecad77f16b222e2e4c7326fb371ec1dbd64736f6c634300081a0033\n}\n",
				"bytecode": {
					"linkReferences": {},
					"object": "60806040526040518060400160405280600e81526020017f436861696e53757265546f6b656e0000000000000000000000000000000000008152506040518060400160405280600381526020017f4353540000000000000000000000000000000000000000000000000000000000815250816003908161007f91906102d1565b50806004908161008f91906102d1565b5050506103a0565b5f81519050919050565b7f4e487b71000000000000000000000000000000000000000000000000000000005f52604160045260245ffd5b7f4e487b71000000000000000000000000000000000000000000000000000000005f52602260045260245ffd5b5f600282049050600182168061011257607f821691505b602082108103610125576101246100ce565b5b50919050565b5f819050815f5260205f209050919050565b5f6020601f8301049050919050565b5f82821b905092915050565b5f600883026101877fffffffffffffffffffffffffffffffffffffffffffffffffffffffffffffffff8261014c565b610191868361014c565b95508019841693508086168417925050509392505050565b5f819050919050565b5f819050919050565b5f6101d56101d06101cb846101a9565b6101b2565b6101a9565b9050919050565b5f819050919050565b6101ee836101bb565b6102026101fa826101dc565b848454610158565b825550505050565b5f90565b61021661020a565b6102218184846101e5565b505050565b5b81811015610244576102395f8261020e565b600181019050610227565b5050565b601f8211156102895761025a8161012b565b6102638461013d565b81016020851015610272578190505b61028661027e8561013d565b830182610226565b50505b505050565b5f82821c905092915050565b5f6102a95f198460080261028e565b1980831691505092915050565b5f6102c1838361029a565b9150826002028217905092915050565b6102da82610097565b67ffffffffffffffff8111156102f3576102f26100a1565b5b6102fd82546100fb565b610308828285610248565b5f60209050601f831160018114610339575f8415610327578287015190505b61033185826102b6565b865550610398565b601f1984166103478661012b565b5f5b8281101561036e57848901518255600182019150602085019450602081019050610349565b8683101561038b5784890151610387601f89168261029a565b8355505b6001600288020188555050505b505050505050565b6122b9806103ad5f395ff3fe60806040526004361061011e575f3560e01c80634763fbd21161009f578063a5fdc5de11610063578063a5fdc5de146103bc578063a9059cbb146103f8578063b6f7132f14610434578063cd60f59f14610470578063dd62ed3e146104985761011e565b80634763fbd2146102ca57806370a082311461030657806379cc67901461034257806395d89b411461036a5780639dc29fac146103945761011e565b806323b872dd116100e657806323b872dd1461020a57806325f5a4a2146102465780632d968e1a1461025c578063313ce5671461027857806342966c68146102a25761011e565b806306fdde0314610122578063095ea7b31461014c57806318160ddd146101885780631b2ef1ca146101b25780631f86956c146101ce575b5f80fd5b34801561012d575f80fd5b506101366104d4565b604051610143919061197d565b60405180910390f35b348015610157575f80fd5b50610172600480360381019061016d9190611a2e565b610564565b60405161017f9190611a86565b60405180910390f35b348015610193575f80fd5b5061019c610586565b6040516101a99190611aae565b60405180910390f35b6101cc60048036038101906101c79190611ac7565b61058f565b005b3480156101d9575f80fd5b506101f460048036038101906101ef9190611b05565b610834565b6040516102019190611aae565b60405180910390f35b348015610215575f80fd5b50610230600480360381019061022b9190611b30565b610849565b60405161023d9190611a86565b60405180910390f35b348015610251575f80fd5b5061025a610877565b005b61027660048036038101906102719190611b80565b6109df565b005b348015610283575f80fd5b5061028c610c33565b6040516102999190611bc6565b60405180910390f35b3480156102ad575f80fd5b506102c860048036038101906102c39190611b80565b610c3b565b005b3480156102d5575f80fd5b506102f060048036038101906102eb9190611b05565b610c4f565b6040516102fd9190611aae565b60405180910390f35b348015610311575f80fd5b5061032c60048036038101906103279190611b05565b610c95565b6040516103399190611aae565b60405180910390f35b34801561034d575f80fd5b5061036860048036038101906103639190611a2e565b610cda565b005b348015610375575f80fd5b5061037e610cfa565b60405161038b919061197d565b60405180910390f35b34801561039f575f80fd5b506103ba60048036038101906103b59190611a2e565b610d8a565b005b3480156103c7575f80fd5b506103e260048036038101906103dd9190611b05565b610e56565b6040516103ef9190611aae565b60405180910390f35b348015610403575f80fd5b5061041e60048036038101906104199190611a2e565b610e6b565b60405161042b9190611a86565b60405180910390f35b34801561043f575f80fd5b5061045a60048036038101906104559190611b05565b610e8d565b6040516104679190611aae565b60405180910390f35b34801561047b575f80fd5b5061049660048036038101906104919190611b30565b610ed3565b005b3480156104a3575f80fd5b506104be60048036038101906104b99190611bdf565b610fef565b6040516104cb9190611aae565b60405180910390f35b6060600380546104e390611c4a565b80601f016020809104026020016040519081016040528092919081815260200182805461050f90611c4a565b801561055a5780601f106105315761010080835404028352916020019161055a565b820191905f5260205f20905b81548152906001019060200180831161053d57829003601f168201915b5050505050905090565b5f8061056e611071565b905061057b818585611078565b600191505092915050565b5f600254905090565b5f60065f3373ffffffffffffffffffffffffffffffffffffffff1673ffffffffffffffffffffffffffffffffffffffff1681526020019081526020015f20541461060e576040517f08c379a000000000000000000000000000000000000000000000000000000000815260040161060590611cea565b60405180910390fd5b5f818361061b9190611d35565b90508034101561062a8261108a565b6106333461108a565b604051602001610644929190611eb4565b60405160208183030381529060405290610694576040517f08c379a000000000000000000000000000000000000000000000000000000000815260040161068b919061197d565b60405180910390fd5b505f81346106a29190611ef8565b90505f81111561073f573373ffffffffffffffffffffffffffffffffffffffff166108fc8290811502906040515f60405180830381858888f193505050501580156106ef573d5f803e3d5ffd5b503373ffffffffffffffffffffffffffffffffffffffff167f5b04a20647d5e66c17cb0451b11e553be5e09f9552d25b9f27d9b0c615c0b3d7826040516107369190611aae565b60405180910390a25b6107493385611154565b8160065f3373ffffffffffffffffffffffffffffffffffffffff1673ffffffffffffffffffffffffffffffffffffffff1681526020019081526020015f205f8282546107959190611f2b565b925050819055508260075f3373ffffffffffffffffffffffffffffffffffffffff1673ffffffffffffffffffffffffffffffffffffffff1681526020019081526020015f20819055503373ffffffffffffffffffffffffffffffffffffffff167f4c209b5fc8ad50758f13e2e1088ba56a560dff690a1c6fef26394f4c03821c4f8584604051610826929190611f5e565b60405180910390a250505050565b6007602052805f5260405f205f915090505481565b5f80610853611071565b90506108608582856111d3565b61086b858585611265565b60019150509392505050565b5f60065f3373ffffffffffffffffffffffffffffffffffffffff1673ffffffffffffffffffffffffffffffffffffffff1681526020019081526020015f2054116108f6576040517f08c379a00000000000000000000000000000000000000000000000000000000081526004016108ed90611ff5565b60405180910390fd5b60065f3373ffffffffffffffffffffffffffffffffffffffff1673ffffffffffffffffffffffffffffffffffffffff1681526020019081526020015f20546005819055505f60075f3373ffffffffffffffffffffffffffffffffffffffff1673ffffffffffffffffffffffffffffffffffffffff1681526020019081526020015f205490505f61098533610c95565b90503373ffffffffffffffffffffffffffffffffffffffff167f07aebacde2d071f5be831eebafe50c943e4fed4053c317af2f8e2a0cd9aa054382600554856040516109d393929190612013565b60405180910390a25050565b5f60065f3373ffffffffffffffffffffffffffffffffffffffff1673ffffffffffffffffffffffffffffffffffffffff1681526020019081526020015f205411610a5e576040517f08c379a0000000000000000000000000000000000000000000000000000000008152600401610a5590611ff5565b60405180910390fd5b5f60075f3373ffffffffffffffffffffffffffffffffffffffff1673ffffffffffffffffffffffffffffffffffffffff1681526020019081526020015f205490505f8183610aac9190611d35565b905080341015610abb8261108a565b610ac43461108a565b604051602001610ad5929190611eb4565b60405160208183030381529060405290610b25576040517f08c379a0000000000000000000000000000000000000000000000000000000008152600401610b1c919061197d565b60405180910390fd5b505f8134610b339190611ef8565b90505f811115610bd0573373ffffffffffffffffffffffffffffffffffffffff166108fc8290811502906040515f60405180830381858888f19350505050158015610b80573d5f803e3d5ffd5b503373ffffffffffffffffffffffffffffffffffffffff167f5b04a20647d5e66c17cb0451b11e553be5e09f9552d25b9f27d9b0c615c0b3d782604051610bc79190611aae565b60405180910390a25b610bda3385611154565b8160065f3373ffffffffffffffffffffffffffffffffffffffff1673ffffffffffffffffffffffffffffffffffffffff1681526020019081526020015f205f828254610c269190611f2b565b9250508190555050505050565b5f6012905090565b610c4c610c46611071565b82611355565b50565b5f60075f8373ffffffffffffffffffffffffffffffffffffffff1673ffffffffffffffffffffffffffffffffffffffff1681526020019081526020015f20549050919050565b5f805f8373ffffffffffffffffffffffffffffffffffffffff1673ffffffffffffffffffffffffffffffffffffffff1681526020019081526020015f20549050919050565b610cec82610ce6611071565b836111d3565b610cf68282611355565b5050565b606060048054610d0990611c4a565b80601f0160208091040260200160405190810160405280929190818152602001828054610d3590611c4a565b8015610d805780601f10610d5757610100808354040283529160200191610d80565b820191905f5260205f20905b815481529060010190602001808311610d6357829003601f168201915b5050505050905090565b5f73ffffffffffffffffffffffffffffffffffffffff168273ffffffffffffffffffffffffffffffffffffffff1603610df8576040517f08c379a0000000000000000000000000000000000000000000000000000000008152600401610def906120b8565b60405180910390fd5b5f610e0283610c95565b905081811015610e47576040517f08c379a0000000000000000000000000000000000000000000000000000000008152600401610e3e90612146565b60405180910390fd5b610e518383611355565b505050565b6006602052805f5260405f205f915090505481565b5f80610e75611071565b9050610e82818585611265565b600191505092915050565b5f60065f8373ffffffffffffffffffffffffffffffffffffffff1673ffffffffffffffffffffffffffffffffffffffff1681526020019081526020015f20549050919050565b8060065f8573ffffffffffffffffffffffffffffffffffffffff1673ffffffffffffffffffffffffffffffffffffffff1681526020019081526020015f20541015610f53576040517f08c379a0000000000000000000000000000000000000000000000000000000008152600401610f4a906121ae565b60405180910390fd5b8060065f8573ffffffffffffffffffffffffffffffffffffffff1673ffffffffffffffffffffffffffffffffffffffff1681526020019081526020015f205f828254610f9f9190611ef8565b925050819055508173ffffffffffffffffffffffffffffffffffffffff166108fc8290811502906040515f60405180830381858888f19350505050158015610fe9573d5f803e3d5ffd5b50505050565b5f60015f8473ffffffffffffffffffffffffffffffffffffffff1673ffffffffffffffffffffffffffffffffffffffff1681526020019081526020015f205f8373ffffffffffffffffffffffffffffffffffffffff1673ffffffffffffffffffffffffffffffffffffffff1681526020019081526020015f2054905092915050565b5f33905090565b61108583838360016113d4565b505050565b60605f6001611098846115a3565b0190505f8167ffffffffffffffff8111156110b6576110b56121cc565b5b6040519080825280601f01601f1916602001820160405280156110e85781602001600182028036833780820191505090505b5090505f82602001820190505b600115611149578080600190039150507f3031323334353637383961626364656600000000000000000000000000000000600a86061a8153600a858161113e5761113d6121f9565b5b0494505f85036110f5575b819350505050919050565b5f73ffffffffffffffffffffffffffffffffffffffff168273ffffffffffffffffffffffffffffffffffffffff16036111c4575f6040517fec442f050000000000000000000000000000000000000000000000000000000081526004016111bb9190612235565b60405180910390fd5b6111cf5f83836116f4565b5050565b5f6111de8484610fef565b90507fffffffffffffffffffffffffffffffffffffffffffffffffffffffffffffffff811461125f5781811015611250578281836040517ffb8f41b20000000000000000000000000000000000000000000000000000000081526004016112479392919061224e565b60405180910390fd5b61125e84848484035f6113d4565b5b50505050565b5f73ffffffffffffffffffffffffffffffffffffffff168373ffffffffffffffffffffffffffffffffffffffff16036112d5575f6040517f96c6fd1e0000000000000000000000000000000000000000000000000000000081526004016112cc9190612235565b60405180910390fd5b5f73ffffffffffffffffffffffffffffffffffffffff168273ffffffffffffffffffffffffffffffffffffffff1603611345575f6040517fec442f0500000000000000000000000000000000000000000000000000000000815260040161133c9190612235565b60405180910390fd5b6113508383836116f4565b505050565b5f73ffffffffffffffffffffffffffffffffffffffff168273ffffffffffffffffffffffffffffffffffffffff16036113c5575f6040517f96c6fd1e0000000000000000000000000000000000000000000000000000000081526004016113bc9190612235565b60405180910390fd5b6113d0825f836116f4565b5050565b5f73ffffffffffffffffffffffffffffffffffffffff168473ffffffffffffffffffffffffffffffffffffffff1603611444575f6040517fe602df0500000000000000000000000000000000000000000000000000000000815260040161143b9190612235565b60405180910390fd5b5f73ffffffffffffffffffffffffffffffffffffffff168373ffffffffffffffffffffffffffffffffffffffff16036114b4575f6040517f94280d620000000000000000000000000000000000000000000000000000000081526004016114ab9190612235565b60405180910390fd5b8160015f8673ffffffffffffffffffffffffffffffffffffffff1673ffffffffffffffffffffffffffffffffffffffff1681526020019081526020015f205f8573ffffffffffffffffffffffffffffffffffffffff1673ffffffffffffffffffffffffffffffffffffffff1681526020019081526020015f2081905550801561159d578273ffffffffffffffffffffffffffffffffffffffff168473ffffffffffffffffffffffffffffffffffffffff167f8c5be1e5ebec7d5bd14f71427d1e84f3dd0314c0f7b2291e5b200ac8c7c3b925846040516115949190611aae565b60405180910390a35b50505050565b5f805f90507a184f03e93ff9f4daa797ed6e38ed64bf6a1f01000000000000000083106115ff577a184f03e93ff9f4daa797ed6e38ed64bf6a1f01000000000000000083816115f5576115f46121f9565b5b0492506040810190505b6d04ee2d6d415b85acef8100000000831061163c576d04ee2d6d415b85acef81000000008381611632576116316121f9565b5b0492506020810190505b662386f26fc10000831061166b57662386f26fc100008381611661576116606121f9565b5b0492506010810190505b6305f5e1008310611694576305f5e100838161168a576116896121f9565b5b0492506008810190505b61271083106116b95761271083816116af576116ae6121f9565b5b0492506004810190505b606483106116dc57606483816116d2576116d16121f9565b5b0492506002810190505b600a83106116eb576001810190505b80915050919050565b5f73ffffffffffffffffffffffffffffffffffffffff168373ffffffffffffffffffffffffffffffffffffffff1603611744578060025f8282546117389190611f2b565b92505081905550611812565b5f805f8573ffffffffffffffffffffffffffffffffffffffff1673ffffffffffffffffffffffffffffffffffffffff1681526020019081526020015f20549050818110156117cd578381836040517fe450d38c0000000000000000000000000000000000000000000000000000000081526004016117c49392919061224e565b60405180910390fd5b8181035f808673ffffffffffffffffffffffffffffffffffffffff1673ffffffffffffffffffffffffffffffffffffffff1681526020019081526020015f2081905550505b5f73ffffffffffffffffffffffffffffffffffffffff168273ffffffffffffffffffffffffffffffffffffffff1603611859578060025f82825403925050819055506118a3565b805f808473ffffffffffffffffffffffffffffffffffffffff1673ffffffffffffffffffffffffffffffffffffffff1681526020019081526020015f205f82825401925050819055505b8173ffffffffffffffffffffffffffffffffffffffff168373ffffffffffffffffffffffffffffffffffffffff167fddf252ad1be2c89b69c2b068fc378daa952ba7f163c4a11628f55a4df523b3ef836040516119009190611aae565b60405180910390a3505050565b5f81519050919050565b5f82825260208201905092915050565b8281835e5f83830152505050565b5f601f19601f8301169050919050565b5f61194f8261190d565b6119598185611917565b9350611969818560208601611927565b61197281611935565b840191505092915050565b5f6020820190508181035f8301526119958184611945565b905092915050565b5f80fd5b5f73ffffffffffffffffffffffffffffffffffffffff82169050919050565b5f6119ca826119a1565b9050919050565b6119da816119c0565b81146119e4575f80fd5b50565b5f813590506119f5816119d1565b92915050565b5f819050919050565b611a0d816119fb565b8114611a17575f80fd5b50565b5f81359050611a2881611a04565b92915050565b5f8060408385031215611a4457611a4361199d565b5b5f611a51858286016119e7565b9250506020611a6285828601611a1a565b9150509250929050565b5f8115159050919050565b611a8081611a6c565b82525050565b5f602082019050611a995f830184611a77565b92915050565b611aa8816119fb565b82525050565b5f602082019050611ac15f830184611a9f565b92915050565b5f8060408385031215611add57611adc61199d565b5b5f611aea85828601611a1a565b9250506020611afb85828601611a1a565b9150509250929050565b5f60208284031215611b1a57611b1961199d565b5b5f611b27848285016119e7565b91505092915050565b5f805f60608486031215611b4757611b4661199d565b5b5f611b54868287016119e7565b9350506020611b65868287016119e7565b9250506040611b7686828701611a1a565b9150509250925092565b5f60208284031215611b9557611b9461199d565b5b5f611ba284828501611a1a565b91505092915050565b5f60ff82169050919050565b611bc081611bab565b82525050565b5f602082019050611bd95f830184611bb7565b92915050565b5f8060408385031215611bf557611bf461199d565b5b5f611c02858286016119e7565b9250506020611c13858286016119e7565b9150509250929050565b7f4e487b71000000000000000000000000000000000000000000000000000000005f52602260045260245ffd5b5f6002820490506001821680611c6157607f821691505b602082108103611c7457611c73611c1d565b5b50919050565b7f596f75206d757374206e6f742068617665206d696e74656420746f6b656e73205f8201527f746f207175657279207468697320696e666f726d6174696f6e00000000000000602082015250565b5f611cd4603983611917565b9150611cdf82611c7a565b604082019050919050565b5f6020820190508181035f830152611d0181611cc8565b9050919050565b7f4e487b71000000000000000000000000000000000000000000000000000000005f52601160045260245ffd5b5f611d3f826119fb565b9150611d4a836119fb565b9250828202611d58816119fb565b91508282048414831517611d6f57611d6e611d08565b5b5092915050565b5f81905092915050565b7f496e73756666696369656e7420636f6c6c61746572616c3a20526571756972655f8201527f6420000000000000000000000000000000000000000000000000000000000000602082015250565b5f611dda602283611d76565b9150611de582611d80565b602282019050919050565b5f611dfa8261190d565b611e048185611d76565b9350611e14818560208601611927565b80840191505092915050565b7f207765692c206275742070726f766964656420000000000000000000000000005f82015250565b5f611e54601383611d76565b9150611e5f82611e20565b601382019050919050565b7f207765692e0000000000000000000000000000000000000000000000000000005f82015250565b5f611e9e600583611d76565b9150611ea982611e6a565b600582019050919050565b5f611ebe82611dce565b9150611eca8285611df0565b9150611ed582611e48565b9150611ee18284611df0565b9150611eec82611e92565b91508190509392505050565b5f611f02826119fb565b9150611f0d836119fb565b9250828203905081811115611f2557611f24611d08565b5b92915050565b5f611f35826119fb565b9150611f40836119fb565b9250828201905080821115611f5857611f57611d08565b5b92915050565b5f604082019050611f715f830185611a9f565b611f7e6020830184611a9f565b9392505050565b7f596f75206d7573742068617665206d696e74656420746f6b656e7320746f20715f8201527f75657279207468697320696e666f726d6174696f6e0000000000000000000000602082015250565b5f611fdf603583611917565b9150611fea82611f85565b604082019050919050565b5f6020820190508181035f83015261200c81611fd3565b9050919050565b5f6060820190506120265f830186611a9f565b6120336020830185611a9f565b6120406040830184611a9f565b949350505050565b7f45524332303a206275726e2066726f6d20746865207a65726f206164647265735f8201527f7300000000000000000000000000000000000000000000000000000000000000602082015250565b5f6120a2602183611917565b91506120ad82612048565b604082019050919050565b5f6020820190508181035f8301526120cf81612096565b9050919050565b7f45524332303a206275726e20616d6f756e7420657863656564732062616c616e5f8201527f6365000000000000000000000000000000000000000000000000000000000000602082015250565b5f612130602283611917565b915061213b826120d6565b604082019050919050565b5f6020820190508181035f83015261215d81612124565b9050919050565b7f496e73756666696369656e7420636f6c6c61746572616c2062616c616e63652e5f82015250565b5f612198602083611917565b91506121a382612164565b602082019050919050565b5f6020820190508181035f8301526121c58161218c565b9050919050565b7f4e487b71000000000000000000000000000000000000000000000000000000005f52604160045260245ffd5b7f4e487b71000000000000000000000000000000000000000000000000000000005f52601260045260245ffd5b61222f816119c0565b82525050565b5f6020820190506122485f830184612226565b92915050565b5f6060820190506122615f830186612226565b61226e6020830185611a9f565b61227b6040830184611a9f565b94935050505056fea264697066735822122029587b7a19ef3629b3a386ec9212ed8ecad77f16b222e2e4c7326fb371ec1dbd64736f6c634300081a0033",
					"opcodes": "PUSH1 0x80 PUSH1 0x40 MSTORE PUSH1 0x40 MLOAD DUP1 PUSH1 0x40 ADD PUSH1 0x40 MSTORE DUP1 PUSH1 0xE DUP2 MSTORE PUSH1 0x20 ADD PUSH32 0x436861696E53757265546F6B656E000000000000000000000000000000000000 DUP2 MSTORE POP PUSH1 0x40 MLOAD DUP1 PUSH1 0x40 ADD PUSH1 0x40 MSTORE DUP1 PUSH1 0x3 DUP2 MSTORE PUSH1 0x20 ADD PUSH32 0x4353540000000000000000000000000000000000000000000000000000000000 DUP2 MSTORE POP DUP2 PUSH1 0x3 SWAP1 DUP2 PUSH2 0x7F SWAP2 SWAP1 PUSH2 0x2D1 JUMP JUMPDEST POP DUP1 PUSH1 0x4 SWAP1 DUP2 PUSH2 0x8F SWAP2 SWAP1 PUSH2 0x2D1 JUMP JUMPDEST POP POP POP PUSH2 0x3A0 JUMP JUMPDEST PUSH0 DUP2 MLOAD SWAP1 POP SWAP2 SWAP1 POP JUMP JUMPDEST PUSH32 0x4E487B7100000000000000000000000000000000000000000000000000000000 PUSH0 MSTORE PUSH1 0x41 PUSH1 0x4 MSTORE PUSH1 0x24 PUSH0 REVERT JUMPDEST PUSH32 0x4E487B7100000000000000000000000000000000000000000000000000000000 PUSH0 MSTORE PUSH1 0x22 PUSH1 0x4 MSTORE PUSH1 0x24 PUSH0 REVERT JUMPDEST PUSH0 PUSH1 0x2 DUP3 DIV SWAP1 POP PUSH1 0x1 DUP3 AND DUP1 PUSH2 0x112 JUMPI PUSH1 0x7F DUP3 AND SWAP2 POP JUMPDEST PUSH1 0x20 DUP3 LT DUP2 SUB PUSH2 0x125 JUMPI PUSH2 0x124 PUSH2 0xCE JUMP JUMPDEST JUMPDEST POP SWAP2 SWAP1 POP JUMP JUMPDEST PUSH0 DUP2 SWAP1 POP DUP2 PUSH0 MSTORE PUSH1 0x20 PUSH0 KECCAK256 SWAP1 POP SWAP2 SWAP1 POP JUMP JUMPDEST PUSH0 PUSH1 0x20 PUSH1 0x1F DUP4 ADD DIV SWAP1 POP SWAP2 SWAP1 POP JUMP JUMPDEST PUSH0 DUP3 DUP3 SHL SWAP1 POP SWAP3 SWAP2 POP POP JUMP JUMPDEST PUSH0 PUSH1 0x8 DUP4 MUL PUSH2 0x187 PUSH32 0xFFFFFFFFFFFFFFFFFFFFFFFFFFFFFFFFFFFFFFFFFFFFFFFFFFFFFFFFFFFFFFFF DUP3 PUSH2 0x14C JUMP JUMPDEST PUSH2 0x191 DUP7 DUP4 PUSH2 0x14C JUMP JUMPDEST SWAP6 POP DUP1 NOT DUP5 AND SWAP4 POP DUP1 DUP7 AND DUP5 OR SWAP3 POP POP POP SWAP4 SWAP3 POP POP POP JUMP JUMPDEST PUSH0 DUP2 SWAP1 POP SWAP2 SWAP1 POP JUMP JUMPDEST PUSH0 DUP2 SWAP1 POP SWAP2 SWAP1 POP JUMP JUMPDEST PUSH0 PUSH2 0x1D5 PUSH2 0x1D0 PUSH2 0x1CB DUP5 PUSH2 0x1A9 JUMP JUMPDEST PUSH2 0x1B2 JUMP JUMPDEST PUSH2 0x1A9 JUMP JUMPDEST SWAP1 POP SWAP2 SWAP1 POP JUMP JUMPDEST PUSH0 DUP2 SWAP1 POP SWAP2 SWAP1 POP JUMP JUMPDEST PUSH2 0x1EE DUP4 PUSH2 0x1BB JUMP JUMPDEST PUSH2 0x202 PUSH2 0x1FA DUP3 PUSH2 0x1DC JUMP JUMPDEST DUP5 DUP5 SLOAD PUSH2 0x158 JUMP JUMPDEST DUP3 SSTORE POP POP POP POP JUMP JUMPDEST PUSH0 SWAP1 JUMP JUMPDEST PUSH2 0x216 PUSH2 0x20A JUMP JUMPDEST PUSH2 0x221 DUP2 DUP5 DUP5 PUSH2 0x1E5 JUMP JUMPDEST POP POP POP JUMP JUMPDEST JUMPDEST DUP2 DUP2 LT ISZERO PUSH2 0x244 JUMPI PUSH2 0x239 PUSH0 DUP3 PUSH2 0x20E JUMP JUMPDEST PUSH1 0x1 DUP2 ADD SWAP1 POP PUSH2 0x227 JUMP JUMPDEST POP POP JUMP JUMPDEST PUSH1 0x1F DUP3 GT ISZERO PUSH2 0x289 JUMPI PUSH2 0x25A DUP2 PUSH2 0x12B JUMP JUMPDEST PUSH2 0x263 DUP5 PUSH2 0x13D JUMP JUMPDEST DUP2 ADD PUSH1 0x20 DUP6 LT ISZERO PUSH2 0x272 JUMPI DUP2 SWAP1 POP JUMPDEST PUSH2 0x286 PUSH2 0x27E DUP6 PUSH2 0x13D JUMP JUMPDEST DUP4 ADD DUP3 PUSH2 0x226 JUMP JUMPDEST POP POP JUMPDEST POP POP POP JUMP JUMPDEST PUSH0 DUP3 DUP3 SHR SWAP1 POP SWAP3 SWAP2 POP POP JUMP JUMPDEST PUSH0 PUSH2 0x2A9 PUSH0 NOT DUP5 PUSH1 0x8 MUL PUSH2 0x28E JUMP JUMPDEST NOT DUP1 DUP4 AND SWAP2 POP POP SWAP3 SWAP2 POP POP JUMP JUMPDEST PUSH0 PUSH2 0x2C1 DUP4 DUP4 PUSH2 0x29A JUMP JUMPDEST SWAP2 POP DUP3 PUSH1 0x2 MUL DUP3 OR SWAP1 POP SWAP3 SWAP2 POP POP JUMP JUMPDEST PUSH2 0x2DA DUP3 PUSH2 0x97 JUMP JUMPDEST PUSH8 0xFFFFFFFFFFFFFFFF DUP2 GT ISZERO PUSH2 0x2F3 JUMPI PUSH2 0x2F2 PUSH2 0xA1 JUMP JUMPDEST JUMPDEST PUSH2 0x2FD DUP3 SLOAD PUSH2 0xFB JUMP JUMPDEST PUSH2 0x308 DUP3 DUP3 DUP6 PUSH2 0x248 JUMP JUMPDEST PUSH0 PUSH1 0x20 SWAP1 POP PUSH1 0x1F DUP4 GT PUSH1 0x1 DUP2 EQ PUSH2 0x339 JUMPI PUSH0 DUP5 ISZERO PUSH2 0x327 JUMPI DUP3 DUP8 ADD MLOAD SWAP1 POP JUMPDEST PUSH2 0x331 DUP6 DUP3 PUSH2 0x2B6 JUMP JUMPDEST DUP7 SSTORE POP PUSH2 0x398 JUMP JUMPDEST PUSH1 0x1F NOT DUP5 AND PUSH2 0x347 DUP7 PUSH2 0x12B JUMP JUMPDEST PUSH0 JUMPDEST DUP3 DUP2 LT ISZERO PUSH2 0x36E JUMPI DUP5 DUP10 ADD MLOAD DUP3 SSTORE PUSH1 0x1 DUP3 ADD SWAP2 POP PUSH1 0x20 DUP6 ADD SWAP5 POP PUSH1 0x20 DUP2 ADD SWAP1 POP PUSH2 0x349 JUMP JUMPDEST DUP7 DUP4 LT ISZERO PUSH2 0x38B JUMPI DUP5 DUP10 ADD MLOAD PUSH2 0x387 PUSH1 0x1F DUP10 AND DUP3 PUSH2 0x29A JUMP JUMPDEST DUP4 SSTORE POP JUMPDEST PUSH1 0x1 PUSH1 0x2 DUP9 MUL ADD DUP9 SSTORE POP POP POP JUMPDEST POP POP POP POP POP POP JUMP JUMPDEST PUSH2 0x22B9 DUP1 PUSH2 0x3AD PUSH0 CODECOPY PUSH0 RETURN INVALID PUSH1 0x80 PUSH1 0x40 MSTORE PUSH1 0x4 CALLDATASIZE LT PUSH2 0x11E JUMPI PUSH0 CALLDATALOAD PUSH1 0xE0 SHR DUP1 PUSH4 0x4763FBD2 GT PUSH2 0x9F JUMPI DUP1 PUSH4 0xA5FDC5DE GT PUSH2 0x63 JUMPI DUP1 PUSH4 0xA5FDC5DE EQ PUSH2 0x3BC JUMPI DUP1 PUSH4 0xA9059CBB EQ PUSH2 0x3F8 JUMPI DUP1 PUSH4 0xB6F7132F EQ PUSH2 0x434 JUMPI DUP1 PUSH4 0xCD60F59F EQ PUSH2 0x470 JUMPI DUP1 PUSH4 0xDD62ED3E EQ PUSH2 0x498 JUMPI PUSH2 0x11E JUMP JUMPDEST DUP1 PUSH4 0x4763FBD2 EQ PUSH2 0x2CA JUMPI DUP1 PUSH4 0x70A08231 EQ PUSH2 0x306 JUMPI DUP1 PUSH4 0x79CC6790 EQ PUSH2 0x342 JUMPI DUP1 PUSH4 0x95D89B41 EQ PUSH2 0x36A JUMPI DUP1 PUSH4 0x9DC29FAC EQ PUSH2 0x394 JUMPI PUSH2 0x11E JUMP JUMPDEST DUP1 PUSH4 0x23B872DD GT PUSH2 0xE6 JUMPI DUP1 PUSH4 0x23B872DD EQ PUSH2 0x20A JUMPI DUP1 PUSH4 0x25F5A4A2 EQ PUSH2 0x246 JUMPI DUP1 PUSH4 0x2D968E1A EQ PUSH2 0x25C JUMPI DUP1 PUSH4 0x313CE567 EQ PUSH2 0x278 JUMPI DUP1 PUSH4 0x42966C68 EQ PUSH2 0x2A2 JUMPI PUSH2 0x11E JUMP JUMPDEST DUP1 PUSH4 0x6FDDE03 EQ PUSH2 0x122 JUMPI DUP1 PUSH4 0x95EA7B3 EQ PUSH2 0x14C JUMPI DUP1 PUSH4 0x18160DDD EQ PUSH2 0x188 JUMPI DUP1 PUSH4 0x1B2EF1CA EQ PUSH2 0x1B2 JUMPI DUP1 PUSH4 0x1F86956C EQ PUSH2 0x1CE JUMPI JUMPDEST PUSH0 DUP1 REVERT JUMPDEST CALLVALUE DUP1 ISZERO PUSH2 0x12D JUMPI PUSH0 DUP1 REVERT JUMPDEST POP PUSH2 0x136 PUSH2 0x4D4 JUMP JUMPDEST PUSH1 0x40 MLOAD PUSH2 0x143 SWAP2 SWAP1 PUSH2 0x197D JUMP JUMPDEST PUSH1 0x40 MLOAD DUP1 SWAP2 SUB SWAP1 RETURN JUMPDEST CALLVALUE DUP1 ISZERO PUSH2 0x157 JUMPI PUSH0 DUP1 REVERT JUMPDEST POP PUSH2 0x172 PUSH1 0x4 DUP1 CALLDATASIZE SUB DUP2 ADD SWAP1 PUSH2 0x16D SWAP2 SWAP1 PUSH2 0x1A2E JUMP JUMPDEST PUSH2 0x564 JUMP JUMPDEST PUSH1 0x40 MLOAD PUSH2 0x17F SWAP2 SWAP1 PUSH2 0x1A86 JUMP JUMPDEST PUSH1 0x40 MLOAD DUP1 SWAP2 SUB SWAP1 RETURN JUMPDEST CALLVALUE DUP1 ISZERO PUSH2 0x193 JUMPI PUSH0 DUP1 REVERT JUMPDEST POP PUSH2 0x19C PUSH2 0x586 JUMP JUMPDEST PUSH1 0x40 MLOAD PUSH2 0x1A9 SWAP2 SWAP1 PUSH2 0x1AAE JUMP JUMPDEST PUSH1 0x40 MLOAD DUP1 SWAP2 SUB SWAP1 RETURN JUMPDEST PUSH2 0x1CC PUSH1 0x4 DUP1 CALLDATASIZE SUB DUP2 ADD SWAP1 PUSH2 0x1C7 SWAP2 SWAP1 PUSH2 0x1AC7 JUMP JUMPDEST PUSH2 0x58F JUMP JUMPDEST STOP JUMPDEST CALLVALUE DUP1 ISZERO PUSH2 0x1D9 JUMPI PUSH0 DUP1 REVERT JUMPDEST POP PUSH2 0x1F4 PUSH1 0x4 DUP1 CALLDATASIZE SUB DUP2 ADD SWAP1 PUSH2 0x1EF SWAP2 SWAP1 PUSH2 0x1B05 JUMP JUMPDEST PUSH2 0x834 JUMP JUMPDEST PUSH1 0x40 MLOAD PUSH2 0x201 SWAP2 SWAP1 PUSH2 0x1AAE JUMP JUMPDEST PUSH1 0x40 MLOAD DUP1 SWAP2 SUB SWAP1 RETURN JUMPDEST CALLVALUE DUP1 ISZERO PUSH2 0x215 JUMPI PUSH0 DUP1 REVERT JUMPDEST POP PUSH2 0x230 PUSH1 0x4 DUP1 CALLDATASIZE SUB DUP2 ADD SWAP1 PUSH2 0x22B SWAP2 SWAP1 PUSH2 0x1B30 JUMP JUMPDEST PUSH2 0x849 JUMP JUMPDEST PUSH1 0x40 MLOAD PUSH2 0x23D SWAP2 SWAP1 PUSH2 0x1A86 JUMP JUMPDEST PUSH1 0x40 MLOAD DUP1 SWAP2 SUB SWAP1 RETURN JUMPDEST CALLVALUE DUP1 ISZERO PUSH2 0x251 JUMPI PUSH0 DUP1 REVERT JUMPDEST POP PUSH2 0x25A PUSH2 0x877 JUMP JUMPDEST STOP JUMPDEST PUSH2 0x276 PUSH1 0x4 DUP1 CALLDATASIZE SUB DUP2 ADD SWAP1 PUSH2 0x271 SWAP2 SWAP1 PUSH2 0x1B80 JUMP JUMPDEST PUSH2 0x9DF JUMP JUMPDEST STOP JUMPDEST CALLVALUE DUP1 ISZERO PUSH2 0x283 JUMPI PUSH0 DUP1 REVERT JUMPDEST POP PUSH2 0x28C PUSH2 0xC33 JUMP JUMPDEST PUSH1 0x40 MLOAD PUSH2 0x299 SWAP2 SWAP1 PUSH2 0x1BC6 JUMP JUMPDEST PUSH1 0x40 MLOAD DUP1 SWAP2 SUB SWAP1 RETURN JUMPDEST CALLVALUE DUP1 ISZERO PUSH2 0x2AD JUMPI PUSH0 DUP1 REVERT JUMPDEST POP PUSH2 0x2C8 PUSH1 0x4 DUP1 CALLDATASIZE SUB DUP2 ADD SWAP1 PUSH2 0x2C3 SWAP2 SWAP1 PUSH2 0x1B80 JUMP JUMPDEST PUSH2 0xC3B JUMP JUMPDEST STOP JUMPDEST CALLVALUE DUP1 ISZERO PUSH2 0x2D5 JUMPI PUSH0 DUP1 REVERT JUMPDEST POP PUSH2 0x2F0 PUSH1 0x4 DUP1 CALLDATASIZE SUB DUP2 ADD SWAP1 PUSH2 0x2EB SWAP2 SWAP1 PUSH2 0x1B05 JUMP JUMPDEST PUSH2 0xC4F JUMP JUMPDEST PUSH1 0x40 MLOAD PUSH2 0x2FD SWAP2 SWAP1 PUSH2 0x1AAE JUMP JUMPDEST PUSH1 0x40 MLOAD DUP1 SWAP2 SUB SWAP1 RETURN JUMPDEST CALLVALUE DUP1 ISZERO PUSH2 0x311 JUMPI PUSH0 DUP1 REVERT JUMPDEST POP PUSH2 0x32C PUSH1 0x4 DUP1 CALLDATASIZE SUB DUP2 ADD SWAP1 PUSH2 0x327 SWAP2 SWAP1 PUSH2 0x1B05 JUMP JUMPDEST PUSH2 0xC95 JUMP JUMPDEST PUSH1 0x40 MLOAD PUSH2 0x339 SWAP2 SWAP1 PUSH2 0x1AAE JUMP JUMPDEST PUSH1 0x40 MLOAD DUP1 SWAP2 SUB SWAP1 RETURN JUMPDEST CALLVALUE DUP1 ISZERO PUSH2 0x34D JUMPI PUSH0 DUP1 REVERT JUMPDEST POP PUSH2 0x368 PUSH1 0x4 DUP1 CALLDATASIZE SUB DUP2 ADD SWAP1 PUSH2 0x363 SWAP2 SWAP1 PUSH2 0x1A2E JUMP JUMPDEST PUSH2 0xCDA JUMP JUMPDEST STOP JUMPDEST CALLVALUE DUP1 ISZERO PUSH2 0x375 JUMPI PUSH0 DUP1 REVERT JUMPDEST POP PUSH2 0x37E PUSH2 0xCFA JUMP JUMPDEST PUSH1 0x40 MLOAD PUSH2 0x38B SWAP2 SWAP1 PUSH2 0x197D JUMP JUMPDEST PUSH1 0x40 MLOAD DUP1 SWAP2 SUB SWAP1 RETURN JUMPDEST CALLVALUE DUP1 ISZERO PUSH2 0x39F JUMPI PUSH0 DUP1 REVERT JUMPDEST POP PUSH2 0x3BA PUSH1 0x4 DUP1 CALLDATASIZE SUB DUP2 ADD SWAP1 PUSH2 0x3B5 SWAP2 SWAP1 PUSH2 0x1A2E JUMP JUMPDEST PUSH2 0xD8A JUMP JUMPDEST STOP JUMPDEST CALLVALUE DUP1 ISZERO PUSH2 0x3C7 JUMPI PUSH0 DUP1 REVERT JUMPDEST POP PUSH2 0x3E2 PUSH1 0x4 DUP1 CALLDATASIZE SUB DUP2 ADD SWAP1 PUSH2 0x3DD SWAP2 SWAP1 PUSH2 0x1B05 JUMP JUMPDEST PUSH2 0xE56 JUMP JUMPDEST PUSH1 0x40 MLOAD PUSH2 0x3EF SWAP2 SWAP1 PUSH2 0x1AAE JUMP JUMPDEST PUSH1 0x40 MLOAD DUP1 SWAP2 SUB SWAP1 RETURN JUMPDEST CALLVALUE DUP1 ISZERO PUSH2 0x403 JUMPI PUSH0 DUP1 REVERT JUMPDEST POP PUSH2 0x41E PUSH1 0x4 DUP1 CALLDATASIZE SUB DUP2 ADD SWAP1 PUSH2 0x419 SWAP2 SWAP1 PUSH2 0x1A2E JUMP JUMPDEST PUSH2 0xE6B JUMP JUMPDEST PUSH1 0x40 MLOAD PUSH2 0x42B SWAP2 SWAP1 PUSH2 0x1A86 JUMP JUMPDEST PUSH1 0x40 MLOAD DUP1 SWAP2 SUB SWAP1 RETURN JUMPDEST CALLVALUE DUP1 ISZERO PUSH2 0x43F JUMPI PUSH0 DUP1 REVERT JUMPDEST POP PUSH2 0x45A PUSH1 0x4 DUP1 CALLDATASIZE SUB DUP2 ADD SWAP1 PUSH2 0x455 SWAP2 SWAP1 PUSH2 0x1B05 JUMP JUMPDEST PUSH2 0xE8D JUMP JUMPDEST PUSH1 0x40 MLOAD PUSH2 0x467 SWAP2 SWAP1 PUSH2 0x1AAE JUMP JUMPDEST PUSH1 0x40 MLOAD DUP1 SWAP2 SUB SWAP1 RETURN JUMPDEST CALLVALUE DUP1 ISZERO PUSH2 0x47B JUMPI PUSH0 DUP1 REVERT JUMPDEST POP PUSH2 0x496 PUSH1 0x4 DUP1 CALLDATASIZE SUB DUP2 ADD SWAP1 PUSH2 0x491 SWAP2 SWAP1 PUSH2 0x1B30 JUMP JUMPDEST PUSH2 0xED3 JUMP JUMPDEST STOP JUMPDEST CALLVALUE DUP1 ISZERO PUSH2 0x4A3 JUMPI PUSH0 DUP1 REVERT JUMPDEST POP PUSH2 0x4BE PUSH1 0x4 DUP1 CALLDATASIZE SUB DUP2 ADD SWAP1 PUSH2 0x4B9 SWAP2 SWAP1 PUSH2 0x1BDF JUMP JUMPDEST PUSH2 0xFEF JUMP JUMPDEST PUSH1 0x40 MLOAD PUSH2 0x4CB SWAP2 SWAP1 PUSH2 0x1AAE JUMP JUMPDEST PUSH1 0x40 MLOAD DUP1 SWAP2 SUB SWAP1 RETURN JUMPDEST PUSH1 0x60 PUSH1 0x3 DUP1 SLOAD PUSH2 0x4E3 SWAP1 PUSH2 0x1C4A JUMP JUMPDEST DUP1 PUSH1 0x1F ADD PUSH1 0x20 DUP1 SWAP2 DIV MUL PUSH1 0x20 ADD PUSH1 0x40 MLOAD SWAP1 DUP2 ADD PUSH1 0x40 MSTORE DUP1 SWAP3 SWAP2 SWAP1 DUP2 DUP2 MSTORE PUSH1 0x20 ADD DUP3 DUP1 SLOAD PUSH2 0x50F SWAP1 PUSH2 0x1C4A JUMP JUMPDEST DUP1 ISZERO PUSH2 0x55A JUMPI DUP1 PUSH1 0x1F LT PUSH2 0x531 JUMPI PUSH2 0x100 DUP1 DUP4 SLOAD DIV MUL DUP4 MSTORE SWAP2 PUSH1 0x20 ADD SWAP2 PUSH2 0x55A JUMP JUMPDEST DUP3 ADD SWAP2 SWAP1 PUSH0 MSTORE PUSH1 0x20 PUSH0 KECCAK256 SWAP1 JUMPDEST DUP2 SLOAD DUP2 MSTORE SWAP1 PUSH1 0x1 ADD SWAP1 PUSH1 0x20 ADD DUP1 DUP4 GT PUSH2 0x53D JUMPI DUP3 SWAP1 SUB PUSH1 0x1F AND DUP3 ADD SWAP2 JUMPDEST POP POP POP POP POP SWAP1 POP SWAP1 JUMP JUMPDEST PUSH0 DUP1 PUSH2 0x56E PUSH2 0x1071 JUMP JUMPDEST SWAP1 POP PUSH2 0x57B DUP2 DUP6 DUP6 PUSH2 0x1078 JUMP JUMPDEST PUSH1 0x1 SWAP2 POP POP SWAP3 SWAP2 POP POP JUMP JUMPDEST PUSH0 PUSH1 0x2 SLOAD SWAP1 POP SWAP1 JUMP JUMPDEST PUSH0 PUSH1 0x6 PUSH0 CALLER PUSH20 0xFFFFFFFFFFFFFFFFFFFFFFFFFFFFFFFFFFFFFFFF AND PUSH20 0xFFFFFFFFFFFFFFFFFFFFFFFFFFFFFFFFFFFFFFFF AND DUP2 MSTORE PUSH1 0x20 ADD SWAP1 DUP2 MSTORE PUSH1 0x20 ADD PUSH0 KECCAK256 SLOAD EQ PUSH2 0x60E JUMPI PUSH1 0x40 MLOAD PUSH32 0x8C379A000000000000000000000000000000000000000000000000000000000 DUP2 MSTORE PUSH1 0x4 ADD PUSH2 0x605 SWAP1 PUSH2 0x1CEA JUMP JUMPDEST PUSH1 0x40 MLOAD DUP1 SWAP2 SUB SWAP1 REVERT JUMPDEST PUSH0 DUP2 DUP4 PUSH2 0x61B SWAP2 SWAP1 PUSH2 0x1D35 JUMP JUMPDEST SWAP1 POP DUP1 CALLVALUE LT ISZERO PUSH2 0x62A DUP3 PUSH2 0x108A JUMP JUMPDEST PUSH2 0x633 CALLVALUE PUSH2 0x108A JUMP JUMPDEST PUSH1 0x40 MLOAD PUSH1 0x20 ADD PUSH2 0x644 SWAP3 SWAP2 SWAP1 PUSH2 0x1EB4 JUMP JUMPDEST PUSH1 0x40 MLOAD PUSH1 0x20 DUP2 DUP4 SUB SUB DUP2 MSTORE SWAP1 PUSH1 0x40 MSTORE SWAP1 PUSH2 0x694 JUMPI PUSH1 0x40 MLOAD PUSH32 0x8C379A000000000000000000000000000000000000000000000000000000000 DUP2 MSTORE PUSH1 0x4 ADD PUSH2 0x68B SWAP2 SWAP1 PUSH2 0x197D JUMP JUMPDEST PUSH1 0x40 MLOAD DUP1 SWAP2 SUB SWAP1 REVERT JUMPDEST POP PUSH0 DUP2 CALLVALUE PUSH2 0x6A2 SWAP2 SWAP1 PUSH2 0x1EF8 JUMP JUMPDEST SWAP1 POP PUSH0 DUP2 GT ISZERO PUSH2 0x73F JUMPI CALLER PUSH20 0xFFFFFFFFFFFFFFFFFFFFFFFFFFFFFFFFFFFFFFFF AND PUSH2 0x8FC DUP3 SWAP1 DUP2 ISZERO MUL SWAP1 PUSH1 0x40 MLOAD PUSH0 PUSH1 0x40 MLOAD DUP1 DUP4 SUB DUP2 DUP6 DUP9 DUP9 CALL SWAP4 POP POP POP POP ISZERO DUP1 ISZERO PUSH2 0x6EF JUMPI RETURNDATASIZE PUSH0 DUP1 RETURNDATACOPY RETURNDATASIZE PUSH0 REVERT JUMPDEST POP CALLER PUSH20 0xFFFFFFFFFFFFFFFFFFFFFFFFFFFFFFFFFFFFFFFF AND PUSH32 0x5B04A20647D5E66C17CB0451B11E553BE5E09F9552D25B9F27D9B0C615C0B3D7 DUP3 PUSH1 0x40 MLOAD PUSH2 0x736 SWAP2 SWAP1 PUSH2 0x1AAE JUMP JUMPDEST PUSH1 0x40 MLOAD DUP1 SWAP2 SUB SWAP1 LOG2 JUMPDEST PUSH2 0x749 CALLER DUP6 PUSH2 0x1154 JUMP JUMPDEST DUP2 PUSH1 0x6 PUSH0 CALLER PUSH20 0xFFFFFFFFFFFFFFFFFFFFFFFFFFFFFFFFFFFFFFFF AND PUSH20 0xFFFFFFFFFFFFFFFFFFFFFFFFFFFFFFFFFFFFFFFF AND DUP2 MSTORE PUSH1 0x20 ADD SWAP1 DUP2 MSTORE PUSH1 0x20 ADD PUSH0 KECCAK256 PUSH0 DUP3 DUP3 SLOAD PUSH2 0x795 SWAP2 SWAP1 PUSH2 0x1F2B JUMP JUMPDEST SWAP3 POP POP DUP2 SWAP1 SSTORE POP DUP3 PUSH1 0x7 PUSH0 CALLER PUSH20 0xFFFFFFFFFFFFFFFFFFFFFFFFFFFFFFFFFFFFFFFF AND PUSH20 0xFFFFFFFFFFFFFFFFFFFFFFFFFFFFFFFFFFFFFFFF AND DUP2 MSTORE PUSH1 0x20 ADD SWAP1 DUP2 MSTORE PUSH1 0x20 ADD PUSH0 KECCAK256 DUP2 SWAP1 SSTORE POP CALLER PUSH20 0xFFFFFFFFFFFFFFFFFFFFFFFFFFFFFFFFFFFFFFFF AND PUSH32 0x4C209B5FC8AD50758F13E2E1088BA56A560DFF690A1C6FEF26394F4C03821C4F DUP6 DUP5 PUSH1 0x40 MLOAD PUSH2 0x826 SWAP3 SWAP2 SWAP1 PUSH2 0x1F5E JUMP JUMPDEST PUSH1 0x40 MLOAD DUP1 SWAP2 SUB SWAP1 LOG2 POP POP POP POP JUMP JUMPDEST PUSH1 0x7 PUSH1 0x20 MSTORE DUP1 PUSH0 MSTORE PUSH1 0x40 PUSH0 KECCAK256 PUSH0 SWAP2 POP SWAP1 POP SLOAD DUP2 JUMP JUMPDEST PUSH0 DUP1 PUSH2 0x853 PUSH2 0x1071 JUMP JUMPDEST SWAP1 POP PUSH2 0x860 DUP6 DUP3 DUP6 PUSH2 0x11D3 JUMP JUMPDEST PUSH2 0x86B DUP6 DUP6 DUP6 PUSH2 0x1265 JUMP JUMPDEST PUSH1 0x1 SWAP2 POP POP SWAP4 SWAP3 POP POP POP JUMP JUMPDEST PUSH0 PUSH1 0x6 PUSH0 CALLER PUSH20 0xFFFFFFFFFFFFFFFFFFFFFFFFFFFFFFFFFFFFFFFF AND PUSH20 0xFFFFFFFFFFFFFFFFFFFFFFFFFFFFFFFFFFFFFFFF AND DUP2 MSTORE PUSH1 0x20 ADD SWAP1 DUP2 MSTORE PUSH1 0x20 ADD PUSH0 KECCAK256 SLOAD GT PUSH2 0x8F6 JUMPI PUSH1 0x40 MLOAD PUSH32 0x8C379A000000000000000000000000000000000000000000000000000000000 DUP2 MSTORE PUSH1 0x4 ADD PUSH2 0x8ED SWAP1 PUSH2 0x1FF5 JUMP JUMPDEST PUSH1 0x40 MLOAD DUP1 SWAP2 SUB SWAP1 REVERT JUMPDEST PUSH1 0x6 PUSH0 CALLER PUSH20 0xFFFFFFFFFFFFFFFFFFFFFFFFFFFFFFFFFFFFFFFF AND PUSH20 0xFFFFFFFFFFFFFFFFFFFFFFFFFFFFFFFFFFFFFFFF AND DUP2 MSTORE PUSH1 0x20 ADD SWAP1 DUP2 MSTORE PUSH1 0x20 ADD PUSH0 KECCAK256 SLOAD PUSH1 0x5 DUP2 SWAP1 SSTORE POP PUSH0 PUSH1 0x7 PUSH0 CALLER PUSH20 0xFFFFFFFFFFFFFFFFFFFFFFFFFFFFFFFFFFFFFFFF AND PUSH20 0xFFFFFFFFFFFFFFFFFFFFFFFFFFFFFFFFFFFFFFFF AND DUP2 MSTORE PUSH1 0x20 ADD SWAP1 DUP2 MSTORE PUSH1 0x20 ADD PUSH0 KECCAK256 SLOAD SWAP1 POP PUSH0 PUSH2 0x985 CALLER PUSH2 0xC95 JUMP JUMPDEST SWAP1 POP CALLER PUSH20 0xFFFFFFFFFFFFFFFFFFFFFFFFFFFFFFFFFFFFFFFF AND PUSH32 0x7AEBACDE2D071F5BE831EEBAFE50C943E4FED4053C317AF2F8E2A0CD9AA0543 DUP3 PUSH1 0x5 SLOAD DUP6 PUSH1 0x40 MLOAD PUSH2 0x9D3 SWAP4 SWAP3 SWAP2 SWAP1 PUSH2 0x2013 JUMP JUMPDEST PUSH1 0x40 MLOAD DUP1 SWAP2 SUB SWAP1 LOG2 POP POP JUMP JUMPDEST PUSH0 PUSH1 0x6 PUSH0 CALLER PUSH20 0xFFFFFFFFFFFFFFFFFFFFFFFFFFFFFFFFFFFFFFFF AND PUSH20 0xFFFFFFFFFFFFFFFFFFFFFFFFFFFFFFFFFFFFFFFF AND DUP2 MSTORE PUSH1 0x20 ADD SWAP1 DUP2 MSTORE PUSH1 0x20 ADD PUSH0 KECCAK256 SLOAD GT PUSH2 0xA5E JUMPI PUSH1 0x40 MLOAD PUSH32 0x8C379A000000000000000000000000000000000000000000000000000000000 DUP2 MSTORE PUSH1 0x4 ADD PUSH2 0xA55 SWAP1 PUSH2 0x1FF5 JUMP JUMPDEST PUSH1 0x40 MLOAD DUP1 SWAP2 SUB SWAP1 REVERT JUMPDEST PUSH0 PUSH1 0x7 PUSH0 CALLER PUSH20 0xFFFFFFFFFFFFFFFFFFFFFFFFFFFFFFFFFFFFFFFF AND PUSH20 0xFFFFFFFFFFFFFFFFFFFFFFFFFFFFFFFFFFFFFFFF AND DUP2 MSTORE PUSH1 0x20 ADD SWAP1 DUP2 MSTORE PUSH1 0x20 ADD PUSH0 KECCAK256 SLOAD SWAP1 POP PUSH0 DUP2 DUP4 PUSH2 0xAAC SWAP2 SWAP1 PUSH2 0x1D35 JUMP JUMPDEST SWAP1 POP DUP1 CALLVALUE LT ISZERO PUSH2 0xABB DUP3 PUSH2 0x108A JUMP JUMPDEST PUSH2 0xAC4 CALLVALUE PUSH2 0x108A JUMP JUMPDEST PUSH1 0x40 MLOAD PUSH1 0x20 ADD PUSH2 0xAD5 SWAP3 SWAP2 SWAP1 PUSH2 0x1EB4 JUMP JUMPDEST PUSH1 0x40 MLOAD PUSH1 0x20 DUP2 DUP4 SUB SUB DUP2 MSTORE SWAP1 PUSH1 0x40 MSTORE SWAP1 PUSH2 0xB25 JUMPI PUSH1 0x40 MLOAD PUSH32 0x8C379A000000000000000000000000000000000000000000000000000000000 DUP2 MSTORE PUSH1 0x4 ADD PUSH2 0xB1C SWAP2 SWAP1 PUSH2 0x197D JUMP JUMPDEST PUSH1 0x40 MLOAD DUP1 SWAP2 SUB SWAP1 REVERT JUMPDEST POP PUSH0 DUP2 CALLVALUE PUSH2 0xB33 SWAP2 SWAP1 PUSH2 0x1EF8 JUMP JUMPDEST SWAP1 POP PUSH0 DUP2 GT ISZERO PUSH2 0xBD0 JUMPI CALLER PUSH20 0xFFFFFFFFFFFFFFFFFFFFFFFFFFFFFFFFFFFFFFFF AND PUSH2 0x8FC DUP3 SWAP1 DUP2 ISZERO MUL SWAP1 PUSH1 0x40 MLOAD PUSH0 PUSH1 0x40 MLOAD DUP1 DUP4 SUB DUP2 DUP6 DUP9 DUP9 CALL SWAP4 POP POP POP POP ISZERO DUP1 ISZERO PUSH2 0xB80 JUMPI RETURNDATASIZE PUSH0 DUP1 RETURNDATACOPY RETURNDATASIZE PUSH0 REVERT JUMPDEST POP CALLER PUSH20 0xFFFFFFFFFFFFFFFFFFFFFFFFFFFFFFFFFFFFFFFF AND PUSH32 0x5B04A20647D5E66C17CB0451B11E553BE5E09F9552D25B9F27D9B0C615C0B3D7 DUP3 PUSH1 0x40 MLOAD PUSH2 0xBC7 SWAP2 SWAP1 PUSH2 0x1AAE JUMP JUMPDEST PUSH1 0x40 MLOAD DUP1 SWAP2 SUB SWAP1 LOG2 JUMPDEST PUSH2 0xBDA CALLER DUP6 PUSH2 0x1154 JUMP JUMPDEST DUP2 PUSH1 0x6 PUSH0 CALLER PUSH20 0xFFFFFFFFFFFFFFFFFFFFFFFFFFFFFFFFFFFFFFFF AND PUSH20 0xFFFFFFFFFFFFFFFFFFFFFFFFFFFFFFFFFFFFFFFF AND DUP2 MSTORE PUSH1 0x20 ADD SWAP1 DUP2 MSTORE PUSH1 0x20 ADD PUSH0 KECCAK256 PUSH0 DUP3 DUP3 SLOAD PUSH2 0xC26 SWAP2 SWAP1 PUSH2 0x1F2B JUMP JUMPDEST SWAP3 POP POP DUP2 SWAP1 SSTORE POP POP POP POP POP JUMP JUMPDEST PUSH0 PUSH1 0x12 SWAP1 POP SWAP1 JUMP JUMPDEST PUSH2 0xC4C PUSH2 0xC46 PUSH2 0x1071 JUMP JUMPDEST DUP3 PUSH2 0x1355 JUMP JUMPDEST POP JUMP JUMPDEST PUSH0 PUSH1 0x7 PUSH0 DUP4 PUSH20 0xFFFFFFFFFFFFFFFFFFFFFFFFFFFFFFFFFFFFFFFF AND PUSH20 0xFFFFFFFFFFFFFFFFFFFFFFFFFFFFFFFFFFFFFFFF AND DUP2 MSTORE PUSH1 0x20 ADD SWAP1 DUP2 MSTORE PUSH1 0x20 ADD PUSH0 KECCAK256 SLOAD SWAP1 POP SWAP2 SWAP1 POP JUMP JUMPDEST PUSH0 DUP1 PUSH0 DUP4 PUSH20 0xFFFFFFFFFFFFFFFFFFFFFFFFFFFFFFFFFFFFFFFF AND PUSH20 0xFFFFFFFFFFFFFFFFFFFFFFFFFFFFFFFFFFFFFFFF AND DUP2 MSTORE PUSH1 0x20 ADD SWAP1 DUP2 MSTORE PUSH1 0x20 ADD PUSH0 KECCAK256 SLOAD SWAP1 POP SWAP2 SWAP1 POP JUMP JUMPDEST PUSH2 0xCEC DUP3 PUSH2 0xCE6 PUSH2 0x1071 JUMP JUMPDEST DUP4 PUSH2 0x11D3 JUMP JUMPDEST PUSH2 0xCF6 DUP3 DUP3 PUSH2 0x1355 JUMP JUMPDEST POP POP JUMP JUMPDEST PUSH1 0x60 PUSH1 0x4 DUP1 SLOAD PUSH2 0xD09 SWAP1 PUSH2 0x1C4A JUMP JUMPDEST DUP1 PUSH1 0x1F ADD PUSH1 0x20 DUP1 SWAP2 DIV MUL PUSH1 0x20 ADD PUSH1 0x40 MLOAD SWAP1 DUP2 ADD PUSH1 0x40 MSTORE DUP1 SWAP3 SWAP2 SWAP1 DUP2 DUP2 MSTORE PUSH1 0x20 ADD DUP3 DUP1 SLOAD PUSH2 0xD35 SWAP1 PUSH2 0x1C4A JUMP JUMPDEST DUP1 ISZERO PUSH2 0xD80 JUMPI DUP1 PUSH1 0x1F LT PUSH2 0xD57 JUMPI PUSH2 0x100 DUP1 DUP4 SLOAD DIV MUL DUP4 MSTORE SWAP2 PUSH1 0x20 ADD SWAP2 PUSH2 0xD80 JUMP JUMPDEST DUP3 ADD SWAP2 SWAP1 PUSH0 MSTORE PUSH1 0x20 PUSH0 KECCAK256 SWAP1 JUMPDEST DUP2 SLOAD DUP2 MSTORE SWAP1 PUSH1 0x1 ADD SWAP1 PUSH1 0x20 ADD DUP1 DUP4 GT PUSH2 0xD63 JUMPI DUP3 SWAP1 SUB PUSH1 0x1F AND DUP3 ADD SWAP2 JUMPDEST POP POP POP POP POP SWAP1 POP SWAP1 JUMP JUMPDEST PUSH0 PUSH20 0xFFFFFFFFFFFFFFFFFFFFFFFFFFFFFFFFFFFFFFFF AND DUP3 PUSH20 0xFFFFFFFFFFFFFFFFFFFFFFFFFFFFFFFFFFFFFFFF AND SUB PUSH2 0xDF8 JUMPI PUSH1 0x40 MLOAD PUSH32 0x8C379A000000000000000000000000000000000000000000000000000000000 DUP2 MSTORE PUSH1 0x4 ADD PUSH2 0xDEF SWAP1 PUSH2 0x20B8 JUMP JUMPDEST PUSH1 0x40 MLOAD DUP1 SWAP2 SUB SWAP1 REVERT JUMPDEST PUSH0 PUSH2 0xE02 DUP4 PUSH2 0xC95 JUMP JUMPDEST SWAP1 POP DUP2 DUP2 LT ISZERO PUSH2 0xE47 JUMPI PUSH1 0x40 MLOAD PUSH32 0x8C379A000000000000000000000000000000000000000000000000000000000 DUP2 MSTORE PUSH1 0x4 ADD PUSH2 0xE3E SWAP1 PUSH2 0x2146 JUMP JUMPDEST PUSH1 0x40 MLOAD DUP1 SWAP2 SUB SWAP1 REVERT JUMPDEST PUSH2 0xE51 DUP4 DUP4 PUSH2 0x1355 JUMP JUMPDEST POP POP POP JUMP JUMPDEST PUSH1 0x6 PUSH1 0x20 MSTORE DUP1 PUSH0 MSTORE PUSH1 0x40 PUSH0 KECCAK256 PUSH0 SWAP2 POP SWAP1 POP SLOAD DUP2 JUMP JUMPDEST PUSH0 DUP1 PUSH2 0xE75 PUSH2 0x1071 JUMP JUMPDEST SWAP1 POP PUSH2 0xE82 DUP2 DUP6 DUP6 PUSH2 0x1265 JUMP JUMPDEST PUSH1 0x1 SWAP2 POP POP SWAP3 SWAP2 POP POP JUMP JUMPDEST PUSH0 PUSH1 0x6 PUSH0 DUP4 PUSH20 0xFFFFFFFFFFFFFFFFFFFFFFFFFFFFFFFFFFFFFFFF AND PUSH20 0xFFFFFFFFFFFFFFFFFFFFFFFFFFFFFFFFFFFFFFFF AND DUP2 MSTORE PUSH1 0x20 ADD SWAP1 DUP2 MSTORE PUSH1 0x20 ADD PUSH0 KECCAK256 SLOAD SWAP1 POP SWAP2 SWAP1 POP JUMP JUMPDEST DUP1 PUSH1 0x6 PUSH0 DUP6 PUSH20 0xFFFFFFFFFFFFFFFFFFFFFFFFFFFFFFFFFFFFFFFF AND PUSH20 0xFFFFFFFFFFFFFFFFFFFFFFFFFFFFFFFFFFFFFFFF AND DUP2 MSTORE PUSH1 0x20 ADD SWAP1 DUP2 MSTORE PUSH1 0x20 ADD PUSH0 KECCAK256 SLOAD LT ISZERO PUSH2 0xF53 JUMPI PUSH1 0x40 MLOAD PUSH32 0x8C379A000000000000000000000000000000000000000000000000000000000 DUP2 MSTORE PUSH1 0x4 ADD PUSH2 0xF4A SWAP1 PUSH2 0x21AE JUMP JUMPDEST PUSH1 0x40 MLOAD DUP1 SWAP2 SUB SWAP1 REVERT JUMPDEST DUP1 PUSH1 0x6 PUSH0 DUP6 PUSH20 0xFFFFFFFFFFFFFFFFFFFFFFFFFFFFFFFFFFFFFFFF AND PUSH20 0xFFFFFFFFFFFFFFFFFFFFFFFFFFFFFFFFFFFFFFFF AND DUP2 MSTORE PUSH1 0x20 ADD SWAP1 DUP2 MSTORE PUSH1 0x20 ADD PUSH0 KECCAK256 PUSH0 DUP3 DUP3 SLOAD PUSH2 0xF9F SWAP2 SWAP1 PUSH2 0x1EF8 JUMP JUMPDEST SWAP3 POP POP DUP2 SWAP1 SSTORE POP DUP2 PUSH20 0xFFFFFFFFFFFFFFFFFFFFFFFFFFFFFFFFFFFFFFFF AND PUSH2 0x8FC DUP3 SWAP1 DUP2 ISZERO MUL SWAP1 PUSH1 0x40 MLOAD PUSH0 PUSH1 0x40 MLOAD DUP1 DUP4 SUB DUP2 DUP6 DUP9 DUP9 CALL SWAP4 POP POP POP POP ISZERO DUP1 ISZERO PUSH2 0xFE9 JUMPI RETURNDATASIZE PUSH0 DUP1 RETURNDATACOPY RETURNDATASIZE PUSH0 REVERT JUMPDEST POP POP POP POP JUMP JUMPDEST PUSH0 PUSH1 0x1 PUSH0 DUP5 PUSH20 0xFFFFFFFFFFFFFFFFFFFFFFFFFFFFFFFFFFFFFFFF AND PUSH20 0xFFFFFFFFFFFFFFFFFFFFFFFFFFFFFFFFFFFFFFFF AND DUP2 MSTORE PUSH1 0x20 ADD SWAP1 DUP2 MSTORE PUSH1 0x20 ADD PUSH0 KECCAK256 PUSH0 DUP4 PUSH20 0xFFFFFFFFFFFFFFFFFFFFFFFFFFFFFFFFFFFFFFFF AND PUSH20 0xFFFFFFFFFFFFFFFFFFFFFFFFFFFFFFFFFFFFFFFF AND DUP2 MSTORE PUSH1 0x20 ADD SWAP1 DUP2 MSTORE PUSH1 0x20 ADD PUSH0 KECCAK256 SLOAD SWAP1 POP SWAP3 SWAP2 POP POP JUMP JUMPDEST PUSH0 CALLER SWAP1 POP SWAP1 JUMP JUMPDEST PUSH2 0x1085 DUP4 DUP4 DUP4 PUSH1 0x1 PUSH2 0x13D4 JUMP JUMPDEST POP POP POP JUMP JUMPDEST PUSH1 0x60 PUSH0 PUSH1 0x1 PUSH2 0x1098 DUP5 PUSH2 0x15A3 JUMP JUMPDEST ADD SWAP1 POP PUSH0 DUP2 PUSH8 0xFFFFFFFFFFFFFFFF DUP2 GT ISZERO PUSH2 0x10B6 JUMPI PUSH2 0x10B5 PUSH2 0x21CC JUMP JUMPDEST JUMPDEST PUSH1 0x40 MLOAD SWAP1 DUP1 DUP3 MSTORE DUP1 PUSH1 0x1F ADD PUSH1 0x1F NOT AND PUSH1 0x20 ADD DUP3 ADD PUSH1 0x40 MSTORE DUP1 ISZERO PUSH2 0x10E8 JUMPI DUP2 PUSH1 0x20 ADD PUSH1 0x1 DUP3 MUL DUP1 CALLDATASIZE DUP4 CALLDATACOPY DUP1 DUP3 ADD SWAP2 POP POP SWAP1 POP JUMPDEST POP SWAP1 POP PUSH0 DUP3 PUSH1 0x20 ADD DUP3 ADD SWAP1 POP JUMPDEST PUSH1 0x1 ISZERO PUSH2 0x1149 JUMPI DUP1 DUP1 PUSH1 0x1 SWAP1 SUB SWAP2 POP POP PUSH32 0x3031323334353637383961626364656600000000000000000000000000000000 PUSH1 0xA DUP7 MOD BYTE DUP2 MSTORE8 PUSH1 0xA DUP6 DUP2 PUSH2 0x113E JUMPI PUSH2 0x113D PUSH2 0x21F9 JUMP JUMPDEST JUMPDEST DIV SWAP5 POP PUSH0 DUP6 SUB PUSH2 0x10F5 JUMPI JUMPDEST DUP2 SWAP4 POP POP POP POP SWAP2 SWAP1 POP JUMP JUMPDEST PUSH0 PUSH20 0xFFFFFFFFFFFFFFFFFFFFFFFFFFFFFFFFFFFFFFFF AND DUP3 PUSH20 0xFFFFFFFFFFFFFFFFFFFFFFFFFFFFFFFFFFFFFFFF AND SUB PUSH2 0x11C4 JUMPI PUSH0 PUSH1 0x40 MLOAD PUSH32 0xEC442F0500000000000000000000000000000000000000000000000000000000 DUP2 MSTORE PUSH1 0x4 ADD PUSH2 0x11BB SWAP2 SWAP1 PUSH2 0x2235 JUMP JUMPDEST PUSH1 0x40 MLOAD DUP1 SWAP2 SUB SWAP1 REVERT JUMPDEST PUSH2 0x11CF PUSH0 DUP4 DUP4 PUSH2 0x16F4 JUMP JUMPDEST POP POP JUMP JUMPDEST PUSH0 PUSH2 0x11DE DUP5 DUP5 PUSH2 0xFEF JUMP JUMPDEST SWAP1 POP PUSH32 0xFFFFFFFFFFFFFFFFFFFFFFFFFFFFFFFFFFFFFFFFFFFFFFFFFFFFFFFFFFFFFFFF DUP2 EQ PUSH2 0x125F JUMPI DUP2 DUP2 LT ISZERO PUSH2 0x1250 JUMPI DUP3 DUP2 DUP4 PUSH1 0x40 MLOAD PUSH32 0xFB8F41B200000000000000000000000000000000000000000000000000000000 DUP2 MSTORE PUSH1 0x4 ADD PUSH2 0x1247 SWAP4 SWAP3 SWAP2 SWAP1 PUSH2 0x224E JUMP JUMPDEST PUSH1 0x40 MLOAD DUP1 SWAP2 SUB SWAP1 REVERT JUMPDEST PUSH2 0x125E DUP5 DUP5 DUP5 DUP5 SUB PUSH0 PUSH2 0x13D4 JUMP JUMPDEST JUMPDEST POP POP POP POP JUMP JUMPDEST PUSH0 PUSH20 0xFFFFFFFFFFFFFFFFFFFFFFFFFFFFFFFFFFFFFFFF AND DUP4 PUSH20 0xFFFFFFFFFFFFFFFFFFFFFFFFFFFFFFFFFFFFFFFF AND SUB PUSH2 0x12D5 JUMPI PUSH0 PUSH1 0x40 MLOAD PUSH32 0x96C6FD1E00000000000000000000000000000000000000000000000000000000 DUP2 MSTORE PUSH1 0x4 ADD PUSH2 0x12CC SWAP2 SWAP1 PUSH2 0x2235 JUMP JUMPDEST PUSH1 0x40 MLOAD DUP1 SWAP2 SUB SWAP1 REVERT JUMPDEST PUSH0 PUSH20 0xFFFFFFFFFFFFFFFFFFFFFFFFFFFFFFFFFFFFFFFF AND DUP3 PUSH20 0xFFFFFFFFFFFFFFFFFFFFFFFFFFFFFFFFFFFFFFFF AND SUB PUSH2 0x1345 JUMPI PUSH0 PUSH1 0x40 MLOAD PUSH32 0xEC442F0500000000000000000000000000000000000000000000000000000000 DUP2 MSTORE PUSH1 0x4 ADD PUSH2 0x133C SWAP2 SWAP1 PUSH2 0x2235 JUMP JUMPDEST PUSH1 0x40 MLOAD DUP1 SWAP2 SUB SWAP1 REVERT JUMPDEST PUSH2 0x1350 DUP4 DUP4 DUP4 PUSH2 0x16F4 JUMP JUMPDEST POP POP POP JUMP JUMPDEST PUSH0 PUSH20 0xFFFFFFFFFFFFFFFFFFFFFFFFFFFFFFFFFFFFFFFF AND DUP3 PUSH20 0xFFFFFFFFFFFFFFFFFFFFFFFFFFFFFFFFFFFFFFFF AND SUB PUSH2 0x13C5 JUMPI PUSH0 PUSH1 0x40 MLOAD PUSH32 0x96C6FD1E00000000000000000000000000000000000000000000000000000000 DUP2 MSTORE PUSH1 0x4 ADD PUSH2 0x13BC SWAP2 SWAP1 PUSH2 0x2235 JUMP JUMPDEST PUSH1 0x40 MLOAD DUP1 SWAP2 SUB SWAP1 REVERT JUMPDEST PUSH2 0x13D0 DUP3 PUSH0 DUP4 PUSH2 0x16F4 JUMP JUMPDEST POP POP JUMP JUMPDEST PUSH0 PUSH20 0xFFFFFFFFFFFFFFFFFFFFFFFFFFFFFFFFFFFFFFFF AND DUP5 PUSH20 0xFFFFFFFFFFFFFFFFFFFFFFFFFFFFFFFFFFFFFFFF AND SUB PUSH2 0x1444 JUMPI PUSH0 PUSH1 0x40 MLOAD PUSH32 0xE602DF0500000000000000000000000000000000000000000000000000000000 DUP2 MSTORE PUSH1 0x4 ADD PUSH2 0x143B SWAP2 SWAP1 PUSH2 0x2235 JUMP JUMPDEST PUSH1 0x40 MLOAD DUP1 SWAP2 SUB SWAP1 REVERT JUMPDEST PUSH0 PUSH20 0xFFFFFFFFFFFFFFFFFFFFFFFFFFFFFFFFFFFFFFFF AND DUP4 PUSH20 0xFFFFFFFFFFFFFFFFFFFFFFFFFFFFFFFFFFFFFFFF AND SUB PUSH2 0x14B4 JUMPI PUSH0 PUSH1 0x40 MLOAD PUSH32 0x94280D6200000000000000000000000000000000000000000000000000000000 DUP2 MSTORE PUSH1 0x4 ADD PUSH2 0x14AB SWAP2 SWAP1 PUSH2 0x2235 JUMP JUMPDEST PUSH1 0x40 MLOAD DUP1 SWAP2 SUB SWAP1 REVERT JUMPDEST DUP2 PUSH1 0x1 PUSH0 DUP7 PUSH20 0xFFFFFFFFFFFFFFFFFFFFFFFFFFFFFFFFFFFFFFFF AND PUSH20 0xFFFFFFFFFFFFFFFFFFFFFFFFFFFFFFFFFFFFFFFF AND DUP2 MSTORE PUSH1 0x20 ADD SWAP1 DUP2 MSTORE PUSH1 0x20 ADD PUSH0 KECCAK256 PUSH0 DUP6 PUSH20 0xFFFFFFFFFFFFFFFFFFFFFFFFFFFFFFFFFFFFFFFF AND PUSH20 0xFFFFFFFFFFFFFFFFFFFFFFFFFFFFFFFFFFFFFFFF AND DUP2 MSTORE PUSH1 0x20 ADD SWAP1 DUP2 MSTORE PUSH1 0x20 ADD PUSH0 KECCAK256 DUP2 SWAP1 SSTORE POP DUP1 ISZERO PUSH2 0x159D JUMPI DUP3 PUSH20 0xFFFFFFFFFFFFFFFFFFFFFFFFFFFFFFFFFFFFFFFF AND DUP5 PUSH20 0xFFFFFFFFFFFFFFFFFFFFFFFFFFFFFFFFFFFFFFFF AND PUSH32 0x8C5BE1E5EBEC7D5BD14F71427D1E84F3DD0314C0F7B2291E5B200AC8C7C3B925 DUP5 PUSH1 0x40 MLOAD PUSH2 0x1594 SWAP2 SWAP1 PUSH2 0x1AAE JUMP JUMPDEST PUSH1 0x40 MLOAD DUP1 SWAP2 SUB SWAP1 LOG3 JUMPDEST POP POP POP POP JUMP JUMPDEST PUSH0 DUP1 PUSH0 SWAP1 POP PUSH27 0x184F03E93FF9F4DAA797ED6E38ED64BF6A1F010000000000000000 DUP4 LT PUSH2 0x15FF JUMPI PUSH27 0x184F03E93FF9F4DAA797ED6E38ED64BF6A1F010000000000000000 DUP4 DUP2 PUSH2 0x15F5 JUMPI PUSH2 0x15F4 PUSH2 0x21F9 JUMP JUMPDEST JUMPDEST DIV SWAP3 POP PUSH1 0x40 DUP2 ADD SWAP1 POP JUMPDEST PUSH14 0x4EE2D6D415B85ACEF8100000000 DUP4 LT PUSH2 0x163C JUMPI PUSH14 0x4EE2D6D415B85ACEF8100000000 DUP4 DUP2 PUSH2 0x1632 JUMPI PUSH2 0x1631 PUSH2 0x21F9 JUMP JUMPDEST JUMPDEST DIV SWAP3 POP PUSH1 0x20 DUP2 ADD SWAP1 POP JUMPDEST PUSH7 0x2386F26FC10000 DUP4 LT PUSH2 0x166B JUMPI PUSH7 0x2386F26FC10000 DUP4 DUP2 PUSH2 0x1661 JUMPI PUSH2 0x1660 PUSH2 0x21F9 JUMP JUMPDEST JUMPDEST DIV SWAP3 POP PUSH1 0x10 DUP2 ADD SWAP1 POP JUMPDEST PUSH4 0x5F5E100 DUP4 LT PUSH2 0x1694 JUMPI PUSH4 0x5F5E100 DUP4 DUP2 PUSH2 0x168A JUMPI PUSH2 0x1689 PUSH2 0x21F9 JUMP JUMPDEST JUMPDEST DIV SWAP3 POP PUSH1 0x8 DUP2 ADD SWAP1 POP JUMPDEST PUSH2 0x2710 DUP4 LT PUSH2 0x16B9 JUMPI PUSH2 0x2710 DUP4 DUP2 PUSH2 0x16AF JUMPI PUSH2 0x16AE PUSH2 0x21F9 JUMP JUMPDEST JUMPDEST DIV SWAP3 POP PUSH1 0x4 DUP2 ADD SWAP1 POP JUMPDEST PUSH1 0x64 DUP4 LT PUSH2 0x16DC JUMPI PUSH1 0x64 DUP4 DUP2 PUSH2 0x16D2 JUMPI PUSH2 0x16D1 PUSH2 0x21F9 JUMP JUMPDEST JUMPDEST DIV SWAP3 POP PUSH1 0x2 DUP2 ADD SWAP1 POP JUMPDEST PUSH1 0xA DUP4 LT PUSH2 0x16EB JUMPI PUSH1 0x1 DUP2 ADD SWAP1 POP JUMPDEST DUP1 SWAP2 POP POP SWAP2 SWAP1 POP JUMP JUMPDEST PUSH0 PUSH20 0xFFFFFFFFFFFFFFFFFFFFFFFFFFFFFFFFFFFFFFFF AND DUP4 PUSH20 0xFFFFFFFFFFFFFFFFFFFFFFFFFFFFFFFFFFFFFFFF AND SUB PUSH2 0x1744 JUMPI DUP1 PUSH1 0x2 PUSH0 DUP3 DUP3 SLOAD PUSH2 0x1738 SWAP2 SWAP1 PUSH2 0x1F2B JUMP JUMPDEST SWAP3 POP POP DUP2 SWAP1 SSTORE POP PUSH2 0x1812 JUMP JUMPDEST PUSH0 DUP1 PUSH0 DUP6 PUSH20 0xFFFFFFFFFFFFFFFFFFFFFFFFFFFFFFFFFFFFFFFF AND PUSH20 0xFFFFFFFFFFFFFFFFFFFFFFFFFFFFFFFFFFFFFFFF AND DUP2 MSTORE PUSH1 0x20 ADD SWAP1 DUP2 MSTORE PUSH1 0x20 ADD PUSH0 KECCAK256 SLOAD SWAP1 POP DUP2 DUP2 LT ISZERO PUSH2 0x17CD JUMPI DUP4 DUP2 DUP4 PUSH1 0x40 MLOAD PUSH32 0xE450D38C00000000000000000000000000000000000000000000000000000000 DUP2 MSTORE PUSH1 0x4 ADD PUSH2 0x17C4 SWAP4 SWAP3 SWAP2 SWAP1 PUSH2 0x224E JUMP JUMPDEST PUSH1 0x40 MLOAD DUP1 SWAP2 SUB SWAP1 REVERT JUMPDEST DUP2 DUP2 SUB PUSH0 DUP1 DUP7 PUSH20 0xFFFFFFFFFFFFFFFFFFFFFFFFFFFFFFFFFFFFFFFF AND PUSH20 0xFFFFFFFFFFFFFFFFFFFFFFFFFFFFFFFFFFFFFFFF AND DUP2 MSTORE PUSH1 0x20 ADD SWAP1 DUP2 MSTORE PUSH1 0x20 ADD PUSH0 KECCAK256 DUP2 SWAP1 SSTORE POP POP JUMPDEST PUSH0 PUSH20 0xFFFFFFFFFFFFFFFFFFFFFFFFFFFFFFFFFFFFFFFF AND DUP3 PUSH20 0xFFFFFFFFFFFFFFFFFFFFFFFFFFFFFFFFFFFFFFFF AND SUB PUSH2 0x1859 JUMPI DUP1 PUSH1 0x2 PUSH0 DUP3 DUP3 SLOAD SUB SWAP3 POP POP DUP2 SWAP1 SSTORE POP PUSH2 0x18A3 JUMP JUMPDEST DUP1 PUSH0 DUP1 DUP5 PUSH20 0xFFFFFFFFFFFFFFFFFFFFFFFFFFFFFFFFFFFFFFFF AND PUSH20 0xFFFFFFFFFFFFFFFFFFFFFFFFFFFFFFFFFFFFFFFF AND DUP2 MSTORE PUSH1 0x20 ADD SWAP1 DUP2 MSTORE PUSH1 0x20 ADD PUSH0 KECCAK256 PUSH0 DUP3 DUP3 SLOAD ADD SWAP3 POP POP DUP2 SWAP1 SSTORE POP JUMPDEST DUP2 PUSH20 0xFFFFFFFFFFFFFFFFFFFFFFFFFFFFFFFFFFFFFFFF AND DUP4 PUSH20 0xFFFFFFFFFFFFFFFFFFFFFFFFFFFFFFFFFFFFFFFF AND PUSH32 0xDDF252AD1BE2C89B69C2B068FC378DAA952BA7F163C4A11628F55A4DF523B3EF DUP4 PUSH1 0x40 MLOAD PUSH2 0x1900 SWAP2 SWAP1 PUSH2 0x1AAE JUMP JUMPDEST PUSH1 0x40 MLOAD DUP1 SWAP2 SUB SWAP1 LOG3 POP POP POP JUMP JUMPDEST PUSH0 DUP2 MLOAD SWAP1 POP SWAP2 SWAP1 POP JUMP JUMPDEST PUSH0 DUP3 DUP3 MSTORE PUSH1 0x20 DUP3 ADD SWAP1 POP SWAP3 SWAP2 POP POP JUMP JUMPDEST DUP3 DUP2 DUP4 MCOPY PUSH0 DUP4 DUP4 ADD MSTORE POP POP POP JUMP JUMPDEST PUSH0 PUSH1 0x1F NOT PUSH1 0x1F DUP4 ADD AND SWAP1 POP SWAP2 SWAP1 POP JUMP JUMPDEST PUSH0 PUSH2 0x194F DUP3 PUSH2 0x190D JUMP JUMPDEST PUSH2 0x1959 DUP2 DUP6 PUSH2 0x1917 JUMP JUMPDEST SWAP4 POP PUSH2 0x1969 DUP2 DUP6 PUSH1 0x20 DUP7 ADD PUSH2 0x1927 JUMP JUMPDEST PUSH2 0x1972 DUP2 PUSH2 0x1935 JUMP JUMPDEST DUP5 ADD SWAP2 POP POP SWAP3 SWAP2 POP POP JUMP JUMPDEST PUSH0 PUSH1 0x20 DUP3 ADD SWAP1 POP DUP2 DUP2 SUB PUSH0 DUP4 ADD MSTORE PUSH2 0x1995 DUP2 DUP5 PUSH2 0x1945 JUMP JUMPDEST SWAP1 POP SWAP3 SWAP2 POP POP JUMP JUMPDEST PUSH0 DUP1 REVERT JUMPDEST PUSH0 PUSH20 0xFFFFFFFFFFFFFFFFFFFFFFFFFFFFFFFFFFFFFFFF DUP3 AND SWAP1 POP SWAP2 SWAP1 POP JUMP JUMPDEST PUSH0 PUSH2 0x19CA DUP3 PUSH2 0x19A1 JUMP JUMPDEST SWAP1 POP SWAP2 SWAP1 POP JUMP JUMPDEST PUSH2 0x19DA DUP2 PUSH2 0x19C0 JUMP JUMPDEST DUP2 EQ PUSH2 0x19E4 JUMPI PUSH0 DUP1 REVERT JUMPDEST POP JUMP JUMPDEST PUSH0 DUP2 CALLDATALOAD SWAP1 POP PUSH2 0x19F5 DUP2 PUSH2 0x19D1 JUMP JUMPDEST SWAP3 SWAP2 POP POP JUMP JUMPDEST PUSH0 DUP2 SWAP1 POP SWAP2 SWAP1 POP JUMP JUMPDEST PUSH2 0x1A0D DUP2 PUSH2 0x19FB JUMP JUMPDEST DUP2 EQ PUSH2 0x1A17 JUMPI PUSH0 DUP1 REVERT JUMPDEST POP JUMP JUMPDEST PUSH0 DUP2 CALLDATALOAD SWAP1 POP PUSH2 0x1A28 DUP2 PUSH2 0x1A04 JUMP JUMPDEST SWAP3 SWAP2 POP POP JUMP JUMPDEST PUSH0 DUP1 PUSH1 0x40 DUP4 DUP6 SUB SLT ISZERO PUSH2 0x1A44 JUMPI PUSH2 0x1A43 PUSH2 0x199D JUMP JUMPDEST JUMPDEST PUSH0 PUSH2 0x1A51 DUP6 DUP3 DUP7 ADD PUSH2 0x19E7 JUMP JUMPDEST SWAP3 POP POP PUSH1 0x20 PUSH2 0x1A62 DUP6 DUP3 DUP7 ADD PUSH2 0x1A1A JUMP JUMPDEST SWAP2 POP POP SWAP3 POP SWAP3 SWAP1 POP JUMP JUMPDEST PUSH0 DUP2 ISZERO ISZERO SWAP1 POP SWAP2 SWAP1 POP JUMP JUMPDEST PUSH2 0x1A80 DUP2 PUSH2 0x1A6C JUMP JUMPDEST DUP3 MSTORE POP POP JUMP JUMPDEST PUSH0 PUSH1 0x20 DUP3 ADD SWAP1 POP PUSH2 0x1A99 PUSH0 DUP4 ADD DUP5 PUSH2 0x1A77 JUMP JUMPDEST SWAP3 SWAP2 POP POP JUMP JUMPDEST PUSH2 0x1AA8 DUP2 PUSH2 0x19FB JUMP JUMPDEST DUP3 MSTORE POP POP JUMP JUMPDEST PUSH0 PUSH1 0x20 DUP3 ADD SWAP1 POP PUSH2 0x1AC1 PUSH0 DUP4 ADD DUP5 PUSH2 0x1A9F JUMP JUMPDEST SWAP3 SWAP2 POP POP JUMP JUMPDEST PUSH0 DUP1 PUSH1 0x40 DUP4 DUP6 SUB SLT ISZERO PUSH2 0x1ADD JUMPI PUSH2 0x1ADC PUSH2 0x199D JUMP JUMPDEST JUMPDEST PUSH0 PUSH2 0x1AEA DUP6 DUP3 DUP7 ADD PUSH2 0x1A1A JUMP JUMPDEST SWAP3 POP POP PUSH1 0x20 PUSH2 0x1AFB DUP6 DUP3 DUP7 ADD PUSH2 0x1A1A JUMP JUMPDEST SWAP2 POP POP SWAP3 POP SWAP3 SWAP1 POP JUMP JUMPDEST PUSH0 PUSH1 0x20 DUP3 DUP5 SUB SLT ISZERO PUSH2 0x1B1A JUMPI PUSH2 0x1B19 PUSH2 0x199D JUMP JUMPDEST JUMPDEST PUSH0 PUSH2 0x1B27 DUP5 DUP3 DUP6 ADD PUSH2 0x19E7 JUMP JUMPDEST SWAP2 POP POP SWAP3 SWAP2 POP POP JUMP JUMPDEST PUSH0 DUP1 PUSH0 PUSH1 0x60 DUP5 DUP7 SUB SLT ISZERO PUSH2 0x1B47 JUMPI PUSH2 0x1B46 PUSH2 0x199D JUMP JUMPDEST JUMPDEST PUSH0 PUSH2 0x1B54 DUP7 DUP3 DUP8 ADD PUSH2 0x19E7 JUMP JUMPDEST SWAP4 POP POP PUSH1 0x20 PUSH2 0x1B65 DUP7 DUP3 DUP8 ADD PUSH2 0x19E7 JUMP JUMPDEST SWAP3 POP POP PUSH1 0x40 PUSH2 0x1B76 DUP7 DUP3 DUP8 ADD PUSH2 0x1A1A JUMP JUMPDEST SWAP2 POP POP SWAP3 POP SWAP3 POP SWAP3 JUMP JUMPDEST PUSH0 PUSH1 0x20 DUP3 DUP5 SUB SLT ISZERO PUSH2 0x1B95 JUMPI PUSH2 0x1B94 PUSH2 0x199D JUMP JUMPDEST JUMPDEST PUSH0 PUSH2 0x1BA2 DUP5 DUP3 DUP6 ADD PUSH2 0x1A1A JUMP JUMPDEST SWAP2 POP POP SWAP3 SWAP2 POP POP JUMP JUMPDEST PUSH0 PUSH1 0xFF DUP3 AND SWAP1 POP SWAP2 SWAP1 POP JUMP JUMPDEST PUSH2 0x1BC0 DUP2 PUSH2 0x1BAB JUMP JUMPDEST DUP3 MSTORE POP POP JUMP JUMPDEST PUSH0 PUSH1 0x20 DUP3 ADD SWAP1 POP PUSH2 0x1BD9 PUSH0 DUP4 ADD DUP5 PUSH2 0x1BB7 JUMP JUMPDEST SWAP3 SWAP2 POP POP JUMP JUMPDEST PUSH0 DUP1 PUSH1 0x40 DUP4 DUP6 SUB SLT ISZERO PUSH2 0x1BF5 JUMPI PUSH2 0x1BF4 PUSH2 0x199D JUMP JUMPDEST JUMPDEST PUSH0 PUSH2 0x1C02 DUP6 DUP3 DUP7 ADD PUSH2 0x19E7 JUMP JUMPDEST SWAP3 POP POP PUSH1 0x20 PUSH2 0x1C13 DUP6 DUP3 DUP7 ADD PUSH2 0x19E7 JUMP JUMPDEST SWAP2 POP POP SWAP3 POP SWAP3 SWAP1 POP JUMP JUMPDEST PUSH32 0x4E487B7100000000000000000000000000000000000000000000000000000000 PUSH0 MSTORE PUSH1 0x22 PUSH1 0x4 MSTORE PUSH1 0x24 PUSH0 REVERT JUMPDEST PUSH0 PUSH1 0x2 DUP3 DIV SWAP1 POP PUSH1 0x1 DUP3 AND DUP1 PUSH2 0x1C61 JUMPI PUSH1 0x7F DUP3 AND SWAP2 POP JUMPDEST PUSH1 0x20 DUP3 LT DUP2 SUB PUSH2 0x1C74 JUMPI PUSH2 0x1C73 PUSH2 0x1C1D JUMP JUMPDEST JUMPDEST POP SWAP2 SWAP1 POP JUMP JUMPDEST PUSH32 0x596F75206D757374206E6F742068617665206D696E74656420746F6B656E7320 PUSH0 DUP3 ADD MSTORE PUSH32 0x746F207175657279207468697320696E666F726D6174696F6E00000000000000 PUSH1 0x20 DUP3 ADD MSTORE POP JUMP JUMPDEST PUSH0 PUSH2 0x1CD4 PUSH1 0x39 DUP4 PUSH2 0x1917 JUMP JUMPDEST SWAP2 POP PUSH2 0x1CDF DUP3 PUSH2 0x1C7A JUMP JUMPDEST PUSH1 0x40 DUP3 ADD SWAP1 POP SWAP2 SWAP1 POP JUMP JUMPDEST PUSH0 PUSH1 0x20 DUP3 ADD SWAP1 POP DUP2 DUP2 SUB PUSH0 DUP4 ADD MSTORE PUSH2 0x1D01 DUP2 PUSH2 0x1CC8 JUMP JUMPDEST SWAP1 POP SWAP2 SWAP1 POP JUMP JUMPDEST PUSH32 0x4E487B7100000000000000000000000000000000000000000000000000000000 PUSH0 MSTORE PUSH1 0x11 PUSH1 0x4 MSTORE PUSH1 0x24 PUSH0 REVERT JUMPDEST PUSH0 PUSH2 0x1D3F DUP3 PUSH2 0x19FB JUMP JUMPDEST SWAP2 POP PUSH2 0x1D4A DUP4 PUSH2 0x19FB JUMP JUMPDEST SWAP3 POP DUP3 DUP3 MUL PUSH2 0x1D58 DUP2 PUSH2 0x19FB JUMP JUMPDEST SWAP2 POP DUP3 DUP3 DIV DUP5 EQ DUP4 ISZERO OR PUSH2 0x1D6F JUMPI PUSH2 0x1D6E PUSH2 0x1D08 JUMP JUMPDEST JUMPDEST POP SWAP3 SWAP2 POP POP JUMP JUMPDEST PUSH0 DUP2 SWAP1 POP SWAP3 SWAP2 POP POP JUMP JUMPDEST PUSH32 0x496E73756666696369656E7420636F6C6C61746572616C3A2052657175697265 PUSH0 DUP3 ADD MSTORE PUSH32 0x6420000000000000000000000000000000000000000000000000000000000000 PUSH1 0x20 DUP3 ADD MSTORE POP JUMP JUMPDEST PUSH0 PUSH2 0x1DDA PUSH1 0x22 DUP4 PUSH2 0x1D76 JUMP JUMPDEST SWAP2 POP PUSH2 0x1DE5 DUP3 PUSH2 0x1D80 JUMP JUMPDEST PUSH1 0x22 DUP3 ADD SWAP1 POP SWAP2 SWAP1 POP JUMP JUMPDEST PUSH0 PUSH2 0x1DFA DUP3 PUSH2 0x190D JUMP JUMPDEST PUSH2 0x1E04 DUP2 DUP6 PUSH2 0x1D76 JUMP JUMPDEST SWAP4 POP PUSH2 0x1E14 DUP2 DUP6 PUSH1 0x20 DUP7 ADD PUSH2 0x1927 JUMP JUMPDEST DUP1 DUP5 ADD SWAP2 POP POP SWAP3 SWAP2 POP POP JUMP JUMPDEST PUSH32 0x207765692C206275742070726F76696465642000000000000000000000000000 PUSH0 DUP3 ADD MSTORE POP JUMP JUMPDEST PUSH0 PUSH2 0x1E54 PUSH1 0x13 DUP4 PUSH2 0x1D76 JUMP JUMPDEST SWAP2 POP PUSH2 0x1E5F DUP3 PUSH2 0x1E20 JUMP JUMPDEST PUSH1 0x13 DUP3 ADD SWAP1 POP SWAP2 SWAP1 POP JUMP JUMPDEST PUSH32 0x207765692E000000000000000000000000000000000000000000000000000000 PUSH0 DUP3 ADD MSTORE POP JUMP JUMPDEST PUSH0 PUSH2 0x1E9E PUSH1 0x5 DUP4 PUSH2 0x1D76 JUMP JUMPDEST SWAP2 POP PUSH2 0x1EA9 DUP3 PUSH2 0x1E6A JUMP JUMPDEST PUSH1 0x5 DUP3 ADD SWAP1 POP SWAP2 SWAP1 POP JUMP JUMPDEST PUSH0 PUSH2 0x1EBE DUP3 PUSH2 0x1DCE JUMP JUMPDEST SWAP2 POP PUSH2 0x1ECA DUP3 DUP6 PUSH2 0x1DF0 JUMP JUMPDEST SWAP2 POP PUSH2 0x1ED5 DUP3 PUSH2 0x1E48 JUMP JUMPDEST SWAP2 POP PUSH2 0x1EE1 DUP3 DUP5 PUSH2 0x1DF0 JUMP JUMPDEST SWAP2 POP PUSH2 0x1EEC DUP3 PUSH2 0x1E92 JUMP JUMPDEST SWAP2 POP DUP2 SWAP1 POP SWAP4 SWAP3 POP POP POP JUMP JUMPDEST PUSH0 PUSH2 0x1F02 DUP3 PUSH2 0x19FB JUMP JUMPDEST SWAP2 POP PUSH2 0x1F0D DUP4 PUSH2 0x19FB JUMP JUMPDEST SWAP3 POP DUP3 DUP3 SUB SWAP1 POP DUP2 DUP2 GT ISZERO PUSH2 0x1F25 JUMPI PUSH2 0x1F24 PUSH2 0x1D08 JUMP JUMPDEST JUMPDEST SWAP3 SWAP2 POP POP JUMP JUMPDEST PUSH0 PUSH2 0x1F35 DUP3 PUSH2 0x19FB JUMP JUMPDEST SWAP2 POP PUSH2 0x1F40 DUP4 PUSH2 0x19FB JUMP JUMPDEST SWAP3 POP DUP3 DUP3 ADD SWAP1 POP DUP1 DUP3 GT ISZERO PUSH2 0x1F58 JUMPI PUSH2 0x1F57 PUSH2 0x1D08 JUMP JUMPDEST JUMPDEST SWAP3 SWAP2 POP POP JUMP JUMPDEST PUSH0 PUSH1 0x40 DUP3 ADD SWAP1 POP PUSH2 0x1F71 PUSH0 DUP4 ADD DUP6 PUSH2 0x1A9F JUMP JUMPDEST PUSH2 0x1F7E PUSH1 0x20 DUP4 ADD DUP5 PUSH2 0x1A9F JUMP JUMPDEST SWAP4 SWAP3 POP POP POP JUMP JUMPDEST PUSH32 0x596F75206D7573742068617665206D696E74656420746F6B656E7320746F2071 PUSH0 DUP3 ADD MSTORE PUSH32 0x75657279207468697320696E666F726D6174696F6E0000000000000000000000 PUSH1 0x20 DUP3 ADD MSTORE POP JUMP JUMPDEST PUSH0 PUSH2 0x1FDF PUSH1 0x35 DUP4 PUSH2 0x1917 JUMP JUMPDEST SWAP2 POP PUSH2 0x1FEA DUP3 PUSH2 0x1F85 JUMP JUMPDEST PUSH1 0x40 DUP3 ADD SWAP1 POP SWAP2 SWAP1 POP JUMP JUMPDEST PUSH0 PUSH1 0x20 DUP3 ADD SWAP1 POP DUP2 DUP2 SUB PUSH0 DUP4 ADD MSTORE PUSH2 0x200C DUP2 PUSH2 0x1FD3 JUMP JUMPDEST SWAP1 POP SWAP2 SWAP1 POP JUMP JUMPDEST PUSH0 PUSH1 0x60 DUP3 ADD SWAP1 POP PUSH2 0x2026 PUSH0 DUP4 ADD DUP7 PUSH2 0x1A9F JUMP JUMPDEST PUSH2 0x2033 PUSH1 0x20 DUP4 ADD DUP6 PUSH2 0x1A9F JUMP JUMPDEST PUSH2 0x2040 PUSH1 0x40 DUP4 ADD DUP5 PUSH2 0x1A9F JUMP JUMPDEST SWAP5 SWAP4 POP POP POP POP JUMP JUMPDEST PUSH32 0x45524332303A206275726E2066726F6D20746865207A65726F20616464726573 PUSH0 DUP3 ADD MSTORE PUSH32 0x7300000000000000000000000000000000000000000000000000000000000000 PUSH1 0x20 DUP3 ADD MSTORE POP JUMP JUMPDEST PUSH0 PUSH2 0x20A2 PUSH1 0x21 DUP4 PUSH2 0x1917 JUMP JUMPDEST SWAP2 POP PUSH2 0x20AD DUP3 PUSH2 0x2048 JUMP JUMPDEST PUSH1 0x40 DUP3 ADD SWAP1 POP SWAP2 SWAP1 POP JUMP JUMPDEST PUSH0 PUSH1 0x20 DUP3 ADD SWAP1 POP DUP2 DUP2 SUB PUSH0 DUP4 ADD MSTORE PUSH2 0x20CF DUP2 PUSH2 0x2096 JUMP JUMPDEST SWAP1 POP SWAP2 SWAP1 POP JUMP JUMPDEST PUSH32 0x45524332303A206275726E20616D6F756E7420657863656564732062616C616E PUSH0 DUP3 ADD MSTORE PUSH32 0x6365000000000000000000000000000000000000000000000000000000000000 PUSH1 0x20 DUP3 ADD MSTORE POP JUMP JUMPDEST PUSH0 PUSH2 0x2130 PUSH1 0x22 DUP4 PUSH2 0x1917 JUMP JUMPDEST SWAP2 POP PUSH2 0x213B DUP3 PUSH2 0x20D6 JUMP JUMPDEST PUSH1 0x40 DUP3 ADD SWAP1 POP SWAP2 SWAP1 POP JUMP JUMPDEST PUSH0 PUSH1 0x20 DUP3 ADD SWAP1 POP DUP2 DUP2 SUB PUSH0 DUP4 ADD MSTORE PUSH2 0x215D DUP2 PUSH2 0x2124 JUMP JUMPDEST SWAP1 POP SWAP2 SWAP1 POP JUMP JUMPDEST PUSH32 0x496E73756666696369656E7420636F6C6C61746572616C2062616C616E63652E PUSH0 DUP3 ADD MSTORE POP JUMP JUMPDEST PUSH0 PUSH2 0x2198 PUSH1 0x20 DUP4 PUSH2 0x1917 JUMP JUMPDEST SWAP2 POP PUSH2 0x21A3 DUP3 PUSH2 0x2164 JUMP JUMPDEST PUSH1 0x20 DUP3 ADD SWAP1 POP SWAP2 SWAP1 POP JUMP JUMPDEST PUSH0 PUSH1 0x20 DUP3 ADD SWAP1 POP DUP2 DUP2 SUB PUSH0 DUP4 ADD MSTORE PUSH2 0x21C5 DUP2 PUSH2 0x218C JUMP JUMPDEST SWAP1 POP SWAP2 SWAP1 POP JUMP JUMPDEST PUSH32 0x4E487B7100000000000000000000000000000000000000000000000000000000 PUSH0 MSTORE PUSH1 0x41 PUSH1 0x4 MSTORE PUSH1 0x24 PUSH0 REVERT JUMPDEST PUSH32 0x4E487B7100000000000000000000000000000000000000000000000000000000 PUSH0 MSTORE PUSH1 0x12 PUSH1 0x4 MSTORE PUSH1 0x24 PUSH0 REVERT JUMPDEST PUSH2 0x222F DUP2 PUSH2 0x19C0 JUMP JUMPDEST DUP3 MSTORE POP POP JUMP JUMPDEST PUSH0 PUSH1 0x20 DUP3 ADD SWAP1 POP PUSH2 0x2248 PUSH0 DUP4 ADD DUP5 PUSH2 0x2226 JUMP JUMPDEST SWAP3 SWAP2 POP POP JUMP JUMPDEST PUSH0 PUSH1 0x60 DUP3 ADD SWAP1 POP PUSH2 0x2261 PUSH0 DUP4 ADD DUP7 PUSH2 0x2226 JUMP JUMPDEST PUSH2 0x226E PUSH1 0x20 DUP4 ADD DUP6 PUSH2 0x1A9F JUMP JUMPDEST PUSH2 0x227B PUSH1 0x40 DUP4 ADD DUP5 PUSH2 0x1A9F JUMP JUMPDEST SWAP5 SWAP4 POP POP POP POP JUMP INVALID LOG2 PUSH5 0x6970667358 0x22 SLT KECCAK256 0x29 PC PUSH28 0x7A19EF3629B3A386EC9212ED8ECAD77F16B222E2E4C7326FB371EC1D 0xBD PUSH5 0x736F6C6343 STOP ADDMOD BYTE STOP CALLER "
				},
				"gasEstimates": {
					"creation": {
						"codeDepositCost": "1777800",
						"executionCost": "infinite",
						"totalCost": "infinite"
					},
					"external": {
						"allowance(address,address)": "infinite",
						"approve(address,uint256)": "infinite",
						"balanceOf(address)": "2874",
						"burn(address,uint256)": "infinite",
						"burn(uint256)": "infinite",
						"burnFrom(address,uint256)": "infinite",
						"collateral(address)": "2824",
						"decimals()": "427",
						"getMyTokenInformation()": "infinite",
						"getUserCollateral(address)": "2895",
						"getUserConversionRate(address)": "2852",
						"mint(uint256,uint256)": "infinite",
						"name()": "infinite",
						"symbol()": "infinite",
						"topUpMyTokens(uint256)": "infinite",
						"totalSupply()": "2500",
						"transfer(address,uint256)": "infinite",
						"transferCollateral(address,address,uint256)": "infinite",
						"transferFrom(address,address,uint256)": "infinite",
						"userConversionRate(address)": "2914"
					}
				},
				"methodIdentifiers": {
					"allowance(address,address)": "dd62ed3e",
					"approve(address,uint256)": "095ea7b3",
					"balanceOf(address)": "70a08231",
					"burn(address,uint256)": "9dc29fac",
					"burn(uint256)": "42966c68",
					"burnFrom(address,uint256)": "79cc6790",
					"collateral(address)": "a5fdc5de",
					"decimals()": "313ce567",
					"getMyTokenInformation()": "25f5a4a2",
					"getUserCollateral(address)": "b6f7132f",
					"getUserConversionRate(address)": "4763fbd2",
					"mint(uint256,uint256)": "1b2ef1ca",
					"name()": "06fdde03",
					"symbol()": "95d89b41",
					"topUpMyTokens(uint256)": "2d968e1a",
					"totalSupply()": "18160ddd",
					"transfer(address,uint256)": "a9059cbb",
					"transferCollateral(address,address,uint256)": "cd60f59f",
					"transferFrom(address,address,uint256)": "23b872dd",
					"userConversionRate(address)": "1f86956c"
				}
			},
			"storageLayout": {
				"storage": [
					{
						"astId": 159,
						"contract": "contracts/CSToken.sol:CSToken",
						"label": "_balances",
						"offset": 0,
						"slot": "0",
						"type": "t_mapping(t_address,t_uint256)"
					},
					{
						"astId": 165,
						"contract": "contracts/CSToken.sol:CSToken",
						"label": "_allowances",
						"offset": 0,
						"slot": "1",
						"type": "t_mapping(t_address,t_mapping(t_address,t_uint256))"
					},
					{
						"astId": 167,
						"contract": "contracts/CSToken.sol:CSToken",
						"label": "_totalSupply",
						"offset": 0,
						"slot": "2",
						"type": "t_uint256"
					},
					{
						"astId": 169,
						"contract": "contracts/CSToken.sol:CSToken",
						"label": "_name",
						"offset": 0,
						"slot": "3",
						"type": "t_string_storage"
					},
					{
						"astId": 171,
						"contract": "contracts/CSToken.sol:CSToken",
						"label": "_symbol",
						"offset": 0,
						"slot": "4",
						"type": "t_string_storage"
					},
					{
						"astId": 4729,
						"contract": "contracts/CSToken.sol:CSToken",
						"label": "remainingCollateral",
						"offset": 0,
						"slot": "5",
						"type": "t_uint256"
					},
					{
						"astId": 4733,
						"contract": "contracts/CSToken.sol:CSToken",
						"label": "collateral",
						"offset": 0,
						"slot": "6",
						"type": "t_mapping(t_address,t_uint256)"
					},
					{
						"astId": 4737,
						"contract": "contracts/CSToken.sol:CSToken",
						"label": "userConversionRate",
						"offset": 0,
						"slot": "7",
						"type": "t_mapping(t_address,t_uint256)"
					}
				],
				"types": {
					"t_address": {
						"encoding": "inplace",
						"label": "address",
						"numberOfBytes": "20"
					},
					"t_mapping(t_address,t_mapping(t_address,t_uint256))": {
						"encoding": "mapping",
						"key": "t_address",
						"label": "mapping(address => mapping(address => uint256))",
						"numberOfBytes": "32",
						"value": "t_mapping(t_address,t_uint256)"
					},
					"t_mapping(t_address,t_uint256)": {
						"encoding": "mapping",
						"key": "t_address",
						"label": "mapping(address => uint256)",
						"numberOfBytes": "32",
						"value": "t_uint256"
					},
					"t_string_storage": {
						"encoding": "bytes",
						"label": "string",
						"numberOfBytes": "32"
					},
					"t_uint256": {
						"encoding": "inplace",
						"label": "uint256",
						"numberOfBytes": "32"
					}
				}
			},
			"userdoc": {
				"kind": "user",
				"methods": {},
				"version": 1
			}
		}
	}
}